{
  "_format": "hh-sol-artifact-1",
  "contractName": "GamePunk",
  "sourceName": "contracts/GamePunk.sol",
  "abi": [
    {
      "inputs": [
        {
          "internalType": "address",
          "name": "_mapAddress",
          "type": "address"
        }
      ],
      "stateMutability": "nonpayable",
      "type": "constructor"
    },
    {
      "inputs": [
        {
          "internalType": "address",
          "name": "owner",
          "type": "address"
        }
      ],
      "name": "OwnableInvalidOwner",
      "type": "error"
    },
    {
      "inputs": [
        {
          "internalType": "address",
          "name": "account",
          "type": "address"
        }
      ],
      "name": "OwnableUnauthorizedAccount",
      "type": "error"
    },
    {
      "inputs": [
        {
          "internalType": "address",
          "name": "player",
          "type": "address"
        },
        {
          "internalType": "uint8",
          "name": "q",
          "type": "uint8"
        },
        {
          "internalType": "uint8",
          "name": "r",
          "type": "uint8"
        }
      ],
      "name": "ShipAlreadyAdded",
      "type": "error"
    },
    {
      "anonymous": false,
      "inputs": [
        {
          "indexed": false,
          "internalType": "uint8",
          "name": "gameId",
          "type": "uint8"
        },
        {
          "indexed": false,
          "internalType": "uint8",
          "name": "q",
          "type": "uint8"
        },
        {
          "indexed": false,
          "internalType": "uint8",
          "name": "r",
          "type": "uint8"
        },
        {
          "indexed": false,
          "internalType": "bool",
          "name": "island",
          "type": "bool"
        }
      ],
      "name": "Cell",
      "type": "event"
    },
    {
      "anonymous": false,
      "inputs": [
        {
          "indexed": false,
          "internalType": "uint8",
          "name": "gameId",
          "type": "uint8"
        }
      ],
      "name": "CommitPhaseStarted",
      "type": "event"
    },
    {
      "anonymous": false,
      "inputs": [
        {
          "indexed": false,
          "internalType": "uint8",
          "name": "gameId",
          "type": "uint8"
        }
      ],
      "name": "GameEnded",
      "type": "event"
    },
    {
      "anonymous": false,
      "inputs": [
        {
          "indexed": false,
          "internalType": "uint8",
          "name": "gameId",
          "type": "uint8"
        }
      ],
      "name": "GameStarted",
      "type": "event"
    },
    {
      "anonymous": false,
      "inputs": [
        {
          "indexed": true,
          "internalType": "bool",
          "name": "gameStatus",
          "type": "bool"
        },
        {
          "indexed": true,
          "internalType": "address",
          "name": "winnerAddress",
          "type": "address"
        },
        {
          "indexed": false,
          "internalType": "uint8",
          "name": "gameId",
          "type": "uint8"
        }
      ],
      "name": "GameUpdated",
      "type": "event"
    },
    {
      "anonymous": false,
      "inputs": [
        {
          "indexed": true,
          "internalType": "address",
          "name": "winner",
          "type": "address"
        },
        {
          "indexed": false,
          "internalType": "uint8",
          "name": "gameId",
          "type": "uint8"
        }
      ],
      "name": "GameWinner",
      "type": "event"
    },
    {
      "anonymous": false,
      "inputs": [
        {
          "indexed": false,
          "internalType": "uint8",
          "name": "radius",
          "type": "uint8"
        },
        {
          "indexed": false,
          "internalType": "uint8",
          "name": "gameId",
          "type": "uint8"
        }
      ],
      "name": "MapInitialized",
      "type": "event"
    },
    {
      "anonymous": false,
      "inputs": [
        {
          "indexed": false,
          "internalType": "uint8",
          "name": "gameId",
          "type": "uint8"
        }
      ],
      "name": "MapShrink",
      "type": "event"
    },
    {
      "anonymous": false,
      "inputs": [
        {
          "indexed": true,
          "internalType": "address",
          "name": "player",
          "type": "address"
        },
        {
          "indexed": false,
          "internalType": "uint8",
          "name": "gameId",
          "type": "uint8"
        }
      ],
      "name": "MoveCommitted",
      "type": "event"
    },
    {
      "anonymous": false,
      "inputs": [
        {
          "indexed": true,
          "internalType": "address",
          "name": "player",
          "type": "address"
        },
        {
          "indexed": false,
          "internalType": "uint8",
          "name": "gameId",
          "type": "uint8"
        },
        {
          "indexed": false,
          "internalType": "uint256",
          "name": "roundId",
          "type": "uint256"
        },
        {
          "indexed": false,
          "internalType": "uint8",
          "name": "destQ",
          "type": "uint8"
        },
        {
          "indexed": false,
          "internalType": "uint8",
          "name": "destR",
          "type": "uint8"
        },
        {
          "indexed": false,
          "internalType": "uint8",
          "name": "shotQ",
          "type": "uint8"
        },
        {
          "indexed": false,
          "internalType": "uint8",
          "name": "shotR",
          "type": "uint8"
        }
      ],
      "name": "MoveSubmitted",
      "type": "event"
    },
    {
      "anonymous": false,
      "inputs": [
        {
          "indexed": false,
          "internalType": "uint8",
          "name": "gameId",
          "type": "uint8"
        },
        {
          "indexed": false,
          "internalType": "uint256",
          "name": "roundId",
          "type": "uint256"
        },
        {
          "indexed": false,
          "internalType": "uint8",
          "name": "radius",
          "type": "uint8"
        }
      ],
      "name": "NewRound",
      "type": "event"
    },
    {
      "anonymous": false,
      "inputs": [
        {
          "indexed": true,
          "internalType": "address",
          "name": "previousOwner",
          "type": "address"
        },
        {
          "indexed": true,
          "internalType": "address",
          "name": "newOwner",
          "type": "address"
        }
      ],
      "name": "OwnershipTransferred",
      "type": "event"
    },
    {
      "anonymous": false,
      "inputs": [
        {
          "indexed": true,
          "internalType": "address",
          "name": "player",
          "type": "address"
        },
        {
          "indexed": false,
          "internalType": "uint8",
          "name": "gameId",
          "type": "uint8"
        },
        {
          "indexed": false,
          "internalType": "uint8",
          "name": "q",
          "type": "uint8"
        },
        {
          "indexed": false,
          "internalType": "uint8",
          "name": "r",
          "type": "uint8"
        },
        {
          "indexed": false,
          "internalType": "uint8",
          "name": "speed",
          "type": "uint8"
        },
        {
          "indexed": false,
          "internalType": "uint8",
          "name": "range",
          "type": "uint8"
        }
      ],
      "name": "PlayerAdded",
      "type": "event"
    },
    {
      "anonymous": false,
      "inputs": [
        {
          "indexed": true,
          "internalType": "address",
          "name": "player",
          "type": "address"
        },
        {
          "indexed": false,
          "internalType": "uint8",
          "name": "gameId",
          "type": "uint8"
        }
      ],
      "name": "PlayerDefeated",
      "type": "event"
    },
    {
      "anonymous": false,
      "inputs": [
        {
          "indexed": true,
          "internalType": "address",
          "name": "captain",
          "type": "address"
        },
        {
          "indexed": false,
          "internalType": "uint8",
          "name": "gameId",
          "type": "uint8"
        },
        {
          "indexed": false,
          "internalType": "uint8",
          "name": "q",
          "type": "uint8"
        },
        {
          "indexed": false,
          "internalType": "uint8",
          "name": "r",
          "type": "uint8"
        }
      ],
      "name": "ShipCollidedWithIsland",
      "type": "event"
    },
    {
      "anonymous": false,
      "inputs": [
        {
          "indexed": true,
          "internalType": "address",
          "name": "victim",
          "type": "address"
        },
        {
          "indexed": true,
          "internalType": "address",
          "name": "attacker",
          "type": "address"
        },
        {
          "indexed": false,
          "internalType": "uint8",
          "name": "gameId",
          "type": "uint8"
        }
      ],
      "name": "ShipHit",
      "type": "event"
    },
    {
      "anonymous": false,
      "inputs": [
        {
          "indexed": true,
          "internalType": "address",
          "name": "captain",
          "type": "address"
        },
        {
          "indexed": false,
          "internalType": "uint8",
          "name": "initialQ",
          "type": "uint8"
        },
        {
          "indexed": false,
          "internalType": "uint8",
          "name": "initialR",
          "type": "uint8"
        },
        {
          "indexed": false,
          "internalType": "uint8",
          "name": "q",
          "type": "uint8"
        },
        {
          "indexed": false,
          "internalType": "uint8",
          "name": "r",
          "type": "uint8"
        },
        {
          "indexed": false,
          "internalType": "uint8",
          "name": "gameId",
          "type": "uint8"
        }
      ],
      "name": "ShipMoved",
      "type": "event"
    },
    {
      "anonymous": false,
      "inputs": [
        {
          "indexed": true,
          "internalType": "address",
          "name": "captain",
          "type": "address"
        },
        {
          "indexed": false,
          "internalType": "uint8",
          "name": "gameId",
          "type": "uint8"
        }
      ],
      "name": "ShipMovedInGame",
      "type": "event"
    },
    {
      "anonymous": false,
      "inputs": [
        {
          "indexed": true,
          "internalType": "address",
          "name": "captain",
          "type": "address"
        },
        {
          "indexed": false,
          "internalType": "uint8",
          "name": "fromQ",
          "type": "uint8"
        },
        {
          "indexed": false,
          "internalType": "uint8",
          "name": "fromR",
          "type": "uint8"
        },
        {
          "indexed": false,
          "internalType": "uint8",
          "name": "shotQ",
          "type": "uint8"
        },
        {
          "indexed": false,
          "internalType": "uint8",
          "name": "shotR",
          "type": "uint8"
        },
        {
          "indexed": false,
          "internalType": "uint8",
          "name": "gameId",
          "type": "uint8"
        }
      ],
      "name": "ShipShot",
      "type": "event"
    },
    {
      "anonymous": false,
      "inputs": [
        {
          "indexed": true,
          "internalType": "address",
          "name": "captain",
          "type": "address"
        },
        {
          "indexed": false,
          "internalType": "uint8",
          "name": "gameId",
          "type": "uint8"
        }
      ],
      "name": "ShipSunk",
      "type": "event"
    },
    {
      "anonymous": false,
      "inputs": [
        {
          "indexed": true,
          "internalType": "address",
          "name": "captain",
          "type": "address"
        },
        {
          "indexed": false,
          "internalType": "uint8",
          "name": "gameId",
          "type": "uint8"
        }
      ],
      "name": "ShipSunkOutOfMap",
      "type": "event"
    },
    {
      "anonymous": false,
      "inputs": [
        {
          "indexed": false,
          "internalType": "uint8",
          "name": "gameId",
          "type": "uint8"
        },
        {
          "indexed": false,
          "internalType": "uint256",
          "name": "round",
          "type": "uint256"
        }
      ],
      "name": "SubmitPhaseStarted",
      "type": "event"
    },
    {
      "anonymous": false,
      "inputs": [
        {
          "indexed": false,
          "internalType": "uint8",
          "name": "gameId",
          "type": "uint8"
        }
      ],
      "name": "WorldUpdated",
      "type": "event"
    },
    {
      "inputs": [
        {
          "internalType": "uint8",
          "name": "gameId",
          "type": "uint8"
        },
        {
          "internalType": "address[]",
          "name": "playerAddresses",
          "type": "address[]"
        },
        {
          "internalType": "uint8[]",
          "name": "speeds",
          "type": "uint8[]"
        },
        {
          "internalType": "uint8[]",
          "name": "ranges",
          "type": "uint8[]"
        }
      ],
      "name": "addShip",
      "outputs": [],
      "stateMutability": "nonpayable",
      "type": "function"
    },
    {
      "inputs": [
        {
          "internalType": "bytes32",
          "name": "moveHash",
          "type": "bytes32"
        },
        {
          "internalType": "uint8",
          "name": "gameId",
          "type": "uint8"
        }
      ],
      "name": "commitMove",
      "outputs": [],
      "stateMutability": "nonpayable",
      "type": "function"
    },
    {
      "inputs": [
        {
          "internalType": "uint8",
          "name": "gameId",
          "type": "uint8"
        }
      ],
      "name": "endGame",
      "outputs": [],
      "stateMutability": "nonpayable",
      "type": "function"
    },
    {
      "inputs": [
        {
          "internalType": "uint256",
          "name": "",
          "type": "uint256"
        }
      ],
      "name": "games",
      "outputs": [
        {
          "internalType": "uint256",
          "name": "round",
          "type": "uint256"
        },
        {
          "internalType": "uint8",
          "name": "shrinkNo",
          "type": "uint8"
        },
        {
          "internalType": "bool",
          "name": "gameInProgress",
          "type": "bool"
        },
        {
          "internalType": "bool",
          "name": "stopAddingShips",
          "type": "bool"
        },
        {
          "internalType": "bool",
          "name": "letCommitMoves",
          "type": "bool"
        },
        {
          "internalType": "bool",
          "name": "letSubmitMoves",
          "type": "bool"
        }
      ],
      "stateMutability": "view",
      "type": "function"
    },
    {
      "inputs": [
        {
          "components": [
            {
              "internalType": "uint8",
              "name": "q",
              "type": "uint8"
            },
            {
              "internalType": "uint8",
              "name": "r",
              "type": "uint8"
            }
          ],
          "internalType": "struct SharedStructs.Coordinate",
          "name": "_coord",
          "type": "tuple"
        },
        {
          "internalType": "uint8",
          "name": "gameId",
          "type": "uint8"
        }
      ],
      "name": "getCell",
      "outputs": [
        {
          "components": [
            {
              "internalType": "uint8",
              "name": "q",
              "type": "uint8"
            },
            {
              "internalType": "uint8",
              "name": "r",
              "type": "uint8"
            },
            {
              "internalType": "bool",
              "name": "island",
              "type": "bool"
            },
            {
              "internalType": "bool",
              "name": "exists",
              "type": "bool"
            }
          ],
          "internalType": "struct SharedStructs.Cell",
          "name": "",
          "type": "tuple"
        }
      ],
      "stateMutability": "view",
      "type": "function"
    },
    {
      "inputs": [
        {
          "internalType": "uint8",
          "name": "gameId",
          "type": "uint8"
        }
      ],
      "name": "getCells",
      "outputs": [
        {
          "components": [
            {
              "internalType": "uint8",
              "name": "q",
              "type": "uint8"
            },
            {
              "internalType": "uint8",
              "name": "r",
              "type": "uint8"
            }
          ],
          "internalType": "struct SharedStructs.Coordinate[]",
          "name": "",
          "type": "tuple[]"
        }
      ],
      "stateMutability": "view",
      "type": "function"
    },
    {
      "inputs": [
        {
          "internalType": "uint8",
          "name": "gameId",
          "type": "uint8"
        }
      ],
      "name": "getRadius",
      "outputs": [
        {
          "internalType": "uint8",
          "name": "",
          "type": "uint8"
        }
      ],
      "stateMutability": "view",
      "type": "function"
    },
    {
      "inputs": [
        {
          "internalType": "uint8",
          "name": "gameId",
          "type": "uint8"
        }
      ],
      "name": "getShips",
      "outputs": [
        {
          "components": [
            {
              "components": [
                {
                  "internalType": "uint8",
                  "name": "q",
                  "type": "uint8"
                },
                {
                  "internalType": "uint8",
                  "name": "r",
                  "type": "uint8"
                }
              ],
              "internalType": "struct SharedStructs.Coordinate",
              "name": "coordinate",
              "type": "tuple"
            },
            {
              "internalType": "enum SharedStructs.Directions",
              "name": "travelDirection",
              "type": "uint8"
            },
            {
              "internalType": "uint8",
              "name": "travelDistance",
              "type": "uint8"
            },
            {
              "internalType": "enum SharedStructs.Directions",
              "name": "shotDirection",
              "type": "uint8"
            },
            {
              "internalType": "uint8",
              "name": "shotDistance",
              "type": "uint8"
            },
            {
              "internalType": "bool",
              "name": "publishedMove",
              "type": "bool"
            },
            {
              "internalType": "address",
              "name": "captain",
              "type": "address"
            },
            {
              "internalType": "uint8",
              "name": "yachtSpeed",
              "type": "uint8"
            },
            {
              "internalType": "uint8",
              "name": "yachtRange",
              "type": "uint8"
            },
            {
              "internalType": "uint8",
              "name": "gameId",
              "type": "uint8"
            }
          ],
          "internalType": "struct GamePunk.Ship[]",
          "name": "",
          "type": "tuple[]"
        }
      ],
      "stateMutability": "view",
      "type": "function"
    },
    {
      "inputs": [
        {
          "components": [
            {
              "internalType": "uint8",
              "name": "q",
              "type": "uint8"
            },
            {
              "internalType": "uint8",
              "name": "r",
              "type": "uint8"
            }
          ],
          "internalType": "struct SharedStructs.Coordinate",
          "name": "_start",
          "type": "tuple"
        },
        {
          "internalType": "enum SharedStructs.Directions",
          "name": "_dir",
          "type": "uint8"
        },
        {
          "internalType": "uint8",
          "name": "_distance",
          "type": "uint8"
        },
        {
          "internalType": "uint8",
          "name": "gameId",
          "type": "uint8"
        }
      ],
      "name": "move",
      "outputs": [
        {
          "components": [
            {
              "internalType": "uint8",
              "name": "q",
              "type": "uint8"
            },
            {
              "internalType": "uint8",
              "name": "r",
              "type": "uint8"
            }
          ],
          "internalType": "struct SharedStructs.Coordinate",
          "name": "",
          "type": "tuple"
        }
      ],
      "stateMutability": "view",
      "type": "function"
    },
    {
      "inputs": [],
      "name": "owner",
      "outputs": [
        {
          "internalType": "address",
          "name": "",
          "type": "address"
        }
      ],
      "stateMutability": "view",
      "type": "function"
    },
    {
      "inputs": [],
      "name": "registrationContract",
      "outputs": [
        {
          "internalType": "address",
          "name": "",
          "type": "address"
        }
      ],
      "stateMutability": "view",
      "type": "function"
    },
    {
      "inputs": [],
      "name": "renounceOwnership",
      "outputs": [],
      "stateMutability": "nonpayable",
      "type": "function"
    },
    {
      "inputs": [
        {
          "internalType": "address",
          "name": "_registrationContract",
          "type": "address"
        }
      ],
      "name": "setRegistrationContract",
      "outputs": [],
      "stateMutability": "nonpayable",
      "type": "function"
    },
    {
      "inputs": [
        {
          "internalType": "uint8",
          "name": "gameId",
          "type": "uint8"
        },
        {
          "internalType": "uint8",
          "name": "_radius",
          "type": "uint8"
        }
      ],
      "name": "startNewGame",
      "outputs": [],
      "stateMutability": "nonpayable",
      "type": "function"
    },
    {
      "inputs": [
        {
          "internalType": "enum SharedStructs.Directions[]",
          "name": "_travelDirections",
          "type": "uint8[]"
        },
        {
          "internalType": "uint8[]",
          "name": "_travelDistances",
          "type": "uint8[]"
        },
        {
          "internalType": "enum SharedStructs.Directions[]",
          "name": "_shotDirections",
          "type": "uint8[]"
        },
        {
          "internalType": "uint8[]",
          "name": "_shotDistances",
          "type": "uint8[]"
        },
        {
          "internalType": "uint256[]",
          "name": "secrets",
          "type": "uint256[]"
        },
        {
          "internalType": "address[]",
          "name": "playerAddresses",
          "type": "address[]"
        },
        {
          "internalType": "uint8",
          "name": "gameId",
          "type": "uint8"
        }
      ],
      "name": "submitMove",
      "outputs": [],
      "stateMutability": "nonpayable",
      "type": "function"
    },
    {
      "inputs": [
        {
          "internalType": "address",
          "name": "newOwner",
          "type": "address"
        }
      ],
      "name": "transferOwnership",
      "outputs": [],
      "stateMutability": "nonpayable",
      "type": "function"
    },
    {
      "inputs": [
        {
          "components": [
            {
              "internalType": "uint8",
              "name": "q",
              "type": "uint8"
            },
            {
              "internalType": "uint8",
              "name": "r",
              "type": "uint8"
            }
          ],
          "internalType": "struct SharedStructs.Coordinate",
          "name": "_startCell",
          "type": "tuple"
        },
        {
          "internalType": "enum SharedStructs.Directions",
          "name": "_direction",
          "type": "uint8"
        },
        {
          "internalType": "uint8",
          "name": "_distance",
          "type": "uint8"
        },
        {
          "internalType": "uint8",
          "name": "gameId",
          "type": "uint8"
        }
      ],
      "name": "travel",
      "outputs": [],
      "stateMutability": "nonpayable",
      "type": "function"
    },
    {
      "inputs": [
        {
          "internalType": "uint8",
          "name": "gameId",
          "type": "uint8"
        }
      ],
      "name": "updateWorld",
      "outputs": [],
      "stateMutability": "nonpayable",
      "type": "function"
    }
  ],
  "bytecode": "0x60a06040523480156200001157600080fd5b5060405162004fbf38038062004fbf8339810160408190526200003491620000c9565b33806200005b57604051631e4fbdf760e01b81526000600482015260240160405180910390fd5b620000668162000079565b506001600160a01b0316608052620000fb565b600080546001600160a01b038381166001600160a01b0319831681178455604051919092169283917f8be0079c531659141344cd1fd0a4f28419497f9722a3daafe3b4186f6b6457e09190a35050565b600060208284031215620000dc57600080fd5b81516001600160a01b0381168114620000f457600080fd5b9392505050565b608051614e3f62000180600039600081816103bf01528181610509015281816105da015281816107640152818161091101528181610add0152818161109e01528181611689015281816125df01528181612cd201528181612d8901528181613157015281816131f5015281816139a701528181613be20152613e5f0152614e3f6000f3fe608060405234801561001057600080fd5b50600436106101165760003560e01c8063978ac356116100a2578063e7c435a711610071578063e7c435a714610309578063e9cc404b1461031c578063ece816571461032f578063f2fde38b14610342578063fd8704461461035557600080fd5b8063978ac356146102b0578063d085a86f146102c3578063d1153bc3146102e3578063d3db03cc146102f657600080fd5b80634aac9b8b116100e95780634aac9b8b1461020f5780634d0238861461022f578063715018a614610284578063863375ac1461028c5780638da5cb5b1461029f57600080fd5b8063117a5b901461011b5780631cf8a321146101aa5780631e522c3e146101bf57806334361208146101ea575b600080fd5b61016c610129366004614140565b600160208190526000918252604090912080549181015460049091015460ff91821691818116916101008104821691620100008204811691630100000090041686565b6040805196875260ff909516602087015292151593850193909352151560608401529015156080830152151560a082015260c0015b60405180910390f35b6101bd6101b8366004614239565b610375565b005b6002546101d2906001600160a01b031681565b6040516001600160a01b0390911681526020016101a1565b6101fd6101f8366004614292565b6104b3565b60405160ff90911681526020016101a1565b61022261021d366004614292565b610582565b6040516101a191906142af565b61024261023d36600461430c565b61089a565b6040516101a19190600060808201905060ff835116825260ff602084015116602083015260408301511515604083015260608301511515606083015292915050565b6101bd610990565b6101bd61029a366004614292565b6109a4565b6000546001600160a01b03166101d2565b6101bd6102be366004614292565b610a3c565b6102d66102d1366004614239565b612578565b6040516101a19190614344565b6101bd6102f1366004614362565b612661565b6101bd6103043660046143a7565b6127c1565b6101bd6103173660046143c2565b6127eb565b6101bd61032a36600461459e565b6128c3565b6101bd61033d3660046146a5565b612f07565b6101bd6103503660046143a7565b61355a565b610368610363366004614292565b613598565b6040516101a19190614778565b60ff8082166000908152600160208190526040909120600401549091161515146103ba5760405162461bcd60e51b81526004016103b190614884565b60405180910390fd5b6000807f00000000000000000000000000000000000000000000000000000000000000006001600160a01b0316631cf8a321878787876040518563ffffffff1660e01b815260040161040f94939291906148bb565b606060405180830381865afa15801561042c573d6000803e3d6000fd5b505050506040513d601f19601f820116820180604052508101906104509190614948565b91509150811561046957610464338461384c565b6104ab565b805160ff8481166000908152600160209081526040808320338452600201825290912080549185015183166101000261ffff1990921692909316919091171790555b505050505050565b60ff80821660009081526001602081905260408220600401549192919091161515146104f15760405162461bcd60e51b81526004016103b190614884565b60405163436fadf360e11b815260ff831660048201527f00000000000000000000000000000000000000000000000000000000000000006001600160a01b0316906386df5be690602401602060405180830381865afa158015610558573d6000803e3d6000fd5b505050506040513d601f19601f8201168201806040525081019061057c919061497c565b92915050565b60ff808216600090815260016020819052604090912060040154606092161515146105bf5760405162461bcd60e51b81526004016103b190614884565b60405163436fadf360e11b815260ff831660048201526000907f00000000000000000000000000000000000000000000000000000000000000006001600160a01b0316906386df5be690602401602060405180830381865afa158015610629573d6000803e3d6000fd5b505050506040513d601f19601f8201168201806040525081019061064d919061497c565b9050600061065c8260016149af565b6106678360036149c8565b61067191906149c8565b61067c9060016149af565b60ff16905060008167ffffffffffffffff81111561069c5761069c614159565b6040519080825280602002602001820160405280156106e157816020015b60408051808201909152600080825260208201528152602001906001900390816106ba5790505b50905060405180604001604052808460ff1681526020018460ff1681525081600081518110610712576107126149e4565b602090810291909101015260015b8360ff168160ff16116108915760008161073b6001826149fa565b6107469060036149c8565b61075091906149c8565b61075b9060016149af565b60ff16905060007f00000000000000000000000000000000000000000000000000000000000000006001600160a01b03166339e5c4a0856000815181106107a4576107a46149e4565b6020026020010151856040518363ffffffff1660e01b81526004016107ca929190614a13565b600060405180830381865afa1580156107e7573d6000803e3d6000fd5b505050506040513d6000823e601f3d908101601f1916820160405261080f9190810190614a41565b905060005b81518160ff16101561087b57818160ff1681518110610835576108356149e4565b6020026020010151858260ff168561084d9190614add565b8151811061085d5761085d6149e4565b6020026020010181905250808061087390614af0565b915050610814565b505050808061088990614af0565b915050610720565b50949350505050565b60408051608081018252600080825260208201819052918101829052606081019190915260ff8083166000908152600160208190526040909120600401549091161515146108fa5760405162461bcd60e51b81526004016103b190614884565b6040516326811c4360e11b81526001600160a01b037f00000000000000000000000000000000000000000000000000000000000000001690634d023886906109489086908690600401614a13565b608060405180830381865afa158015610965573d6000803e3d6000fd5b505050506040513d601f19601f820116820180604052508101906109899190614b95565b9392505050565b610998613925565b6109a26000613952565b565b6109ac613925565b60ff8082166000908152600160208190526040909120600401549091161515146109e85760405162461bcd60e51b81526004016103b190614884565b60ff8116600081815260016020908152604091829020600401805460ff1916905590519182527f4df34531b3f238bc8f90ad83236d8c752e7444e434bb5fc99f888f0a6345c0e7910160405180910390a150565b610a44613925565b60ff808216600090815260016020819052604090912060040154909116151514610a805760405162461bcd60e51b81526004016103b190614884565b60ff8116600090815260016020526040902054610a9f90600390614bb1565b600003610e4b5760ff81811660008181526001602081905260409182902001549051634affc34f60e01b8152600481019290925290911660248201527f00000000000000000000000000000000000000000000000000000000000000006001600160a01b031690634affc34f90604401600060405180830381600087803b158015610b2957600080fd5b505af1158015610b3d573d6000803e3d6000fd5b50505060ff808316600090815260016020819052604082200180549092169250610b6683614af0565b91906101000a81548160ff021916908360ff160217905550507fab00852360aeece33bb03176d4e62fbb27adf3fd1a81b9d543c1ae388003b0ac81604051610bb7919060ff91909116815260200190565b60405180910390a160005b60ff8083166000908152600160205260409020600301549082161015610e495760ff8083166000908152600160205260408120600381018054929360029092019284928616908110610c1657610c166149e4565b60009182526020808320909101546001600160a01b03168352828101939093526040918201902081518083019092525460ff808216835261010090910416918101919091529050610c6781846139a2565b15610e365760ff80841660009081526001602052604090206003018054610cb5928516908110610c9957610c996149e4565b6000918252602090912001546001600160a01b03168385613a41565b600160008460ff1681526020019081526020016000206003018260ff1681548110610ce257610ce26149e4565b6000918252602091829020015460405160ff861681526001600160a01b03909116917f7098e36d986448e47b2ec53e41ddd178ac0774637ee2227e84baba39b0c1c7b1910160405180910390a260ff8316600090815260016020819052604090912060030180549091610d5491614bd3565b81548110610d6457610d646149e4565b9060005260206000200160009054906101000a90046001600160a01b0316600160008560ff1681526020019081526020016000206003018360ff1681548110610daf57610daf6149e4565b600091825260208083209190910180546001600160a01b0319166001600160a01b03949094169390931790925560ff85168152600190915260409020600301805480610dfd57610dfd614be6565b600082815260209020810160001990810180546001600160a01b031916905501905560ff821615610e365781610e3281614bfc565b9250505b5080610e4181614af0565b915050610bc2565b505b60ff811660009081526001602052604081206003015467ffffffffffffffff811115610e7957610e79614159565b604051908082528060200260200182016040528015610ebe57816020015b6040805180820190915260008082526020820152815260200190600190039081610e975790505b5060ff83166000908152600160205260408120600301549192509067ffffffffffffffff811115610ef157610ef1614159565b604051908082528060200260200182016040528015610f1a578160200160208202803683370190505b50905060005b60ff8085166000908152600160205260409020600301549082161015610f79576001828260ff1681518110610f5757610f576149e4565b9115156020928302919091019091015280610f7181614af0565b915050610f20565b5060005b60ff808516600090815260016020526040902060030154908216101561161e5760ff8085166000908152600160205260408120600381018054929360029092019284928616908110610fd157610fd16149e4565b60009182526020808320909101546001600160a01b039081168452908301939093526040909101902060010154600160281b9004161461160c5760ff8085166000908152600160205260408120600381018054600290920193909190851690811061103e5761103e6149e4565b60009182526020808320909101546001600160a01b0316835282019290925260400190206001015460ff640100000000909104161561160c5760ff8085166000908152600160205260408120600381018054929384936001600160a01b037f00000000000000000000000000000000000000000000000000000000000000001693631cf8a3219360029091019286929089169081106110df576110df6149e4565b60009182526020808320909101546001600160a01b03168352828101939093526040918201812060ff808d1683526001909452918120600381018054939460029092019390918a16908110611136576111366149e4565b60009182526020808320909101546001600160a01b03168352828101939093526040918201812060019081015460ff8e8116845291909452918120600381018054948416946002909201939091908b16908110611195576111956149e4565b60009182526020808320909101546001600160a01b0316835282019290925260409081019091206001015490516001600160e01b031960e086901b1681526111ed93929160ff61010090910416908c90600401614c19565b606060405180830381865afa15801561120a573d6000803e3d6000fd5b505050506040513d601f19601f8201168201806040525081019061122e9190614948565b9150915081156113bf57600160008760ff1681526020019081526020016000206003018360ff1681548110611265576112656149e4565b600091825260209182902001548251838301516040805160ff808d168252938416958101959095529116908301526001600160a01b0316907fd44ddf7f8e572e76d7ed6bf350d88367a33cf9a7d19d5069c392802305d51f6c9060600160405180910390a260ff808716600090815260016020526040902060030180546113139286169081106112f7576112f76149e4565b6000918252602090912001546001600160a01b03168488613a41565b6000848460ff168151811061132a5761132a6149e4565b91151560209283029190910182015260ff80881660009081526001909252604082206003810180548594600290930193881690811061136b5761136b6149e4565b60009182526020808320909101546001600160a01b03168352828101939093526040909101902082518154939092015160ff9081166101000261ffff199094169216919091179190911790555061160c9050565b600160008760ff1681526020019081526020016000206003018360ff16815481106113ec576113ec6149e4565b600091825260208083209091015460ff808a1684526001909252604083206003810180546001600160a01b03909316947ff1e9c1d54f160cab3c8602dcfbf5fbe3e012ed037d80057eca695f74d26077a09460029093019390928916908110611457576114576149e4565b60009182526020808320909101546001600160a01b0316835282810193909352604091820181205460ff8c8116835260019094529181206003810180549385169460029092019390918a169081106114b1576114b16149e4565b6000918252602080832091909101546001600160a01b03168352828101939093526040918201902054865187840151835160ff96871681526101009093048616948301949094528416818301529183166060830152918a16608082015290519081900360a00190a260ff8087166000908152600160205260408120600381018054859460029093019392881690811061154c5761154c6149e4565b60009182526020808320909101546001600160a01b031683528281019390935260409182018120845181549585015160ff9081166101000261ffff19909716918116919091179590951790558984168152600190925290206003018054909185169081106115bc576115bc6149e4565b6000918252602091829020015460405160ff891681526001600160a01b03909116917f51f35fa2867d710ef60e6209b0ca28b42abd534ed14e1f8394e793f42253c9f6910160405180910390a250505b8061161681614af0565b915050610f7d565b5060005b60ff80851660009081526001602052604090206003015490821610156119b057818160ff1681518110611657576116576149e4565b60200260200101511561199e5760ff808516600090815260016020526040812060038101805492936001600160a01b037f0000000000000000000000000000000000000000000000000000000000000000169363d6192ad39360020192869290919088169081106116ca576116ca6149e4565b60009182526020808320909101546001600160a01b03168352828101939093526040918201812060ff808c1683526001909452918120600381018054939460029092019390918916908110611721576117216149e4565b60009182526020808320909101546001600160a01b03168352828101939093526040918201812060019081015460ff8d811684529190945291812060038101805462010000909504841694600292909201939091908a16908110611787576117876149e4565b60009182526020808320909101546001600160a01b0316835282019290925260409081019091206001015490516001600160e01b031960e086901b1681526117df93929160ff63010000009091041690600401614c37565b6040805180830381865afa1580156117fb573d6000803e3d6000fd5b505050506040513d601f19601f8201168201806040525081019061181f9190614c6f565b905080848360ff1681518110611837576118376149e4565b6020026020010181905250600160008660ff1681526020019081526020016000206003018260ff168154811061186f5761186f6149e4565b600091825260208083209091015460ff80891684526001909252604083206003810180546001600160a01b03909316947f78546d5ff977d70d771d8edba5bdd99150ec97e7837d6e2af4384b1605a4372d94600290930193909288169081106118da576118da6149e4565b60009182526020808320909101546001600160a01b0316835282810193909352604091820181205460ff8b8116835260019094529181206003810180549385169460029092019390918916908110611934576119346149e4565b6000918252602080832091909101546001600160a01b03168352828101939093526040918201902054865187840151835160ff96871681526101009093048616948301949094528416818301529183166060830152918916608082015290519081900360a00190a2505b806119a881614af0565b915050611622565b5060005b60ff8085166000908152600160205260409020600301549082161015611ff85760005b60ff8086166000908152600160205260409020600301549082161015611fe5578060ff168260ff1614611fd357828260ff1681518110611a1957611a196149e4565b60200260200101518015611a465750828160ff1681518110611a3d57611a3d6149e4565b60200260200101515b8015611b04575060ff80861660009081526001602052604081206003810180546002909201939091908616908110611a8057611a806149e4565b60009182526020808320909101546001600160a01b0316835282810193909352604091820181205460ff898116835260019094529181206003810180549385169460029092019390918616908110611ada57611ada6149e4565b60009182526020808320909101546001600160a01b0316835282019290925260400190205460ff16145b8015611bcd575060ff80861660009081526001602052604081206003810180546002909201939091908616908110611b3e57611b3e6149e4565b60009182526020808320909101546001600160a01b0316835282810193909352604091820181205460ff8981168352600190945291812060038101805461010090940485169460029092019390918616908110611b9d57611b9d6149e4565b60009182526020808320909101546001600160a01b0316835282019290925260400190205460ff61010090910416145b15611daa576000838360ff1681518110611be957611be96149e4565b6020026020010190151590811515815250506000838260ff1681518110611c1257611c126149e4565b602002602001019015159081151581525050600160008660ff1681526020019081526020016000206003018260ff1681548110611c5157611c516149e4565b6000918252602091829020015460405160ff881681526001600160a01b03909116917f783de3ac95b82563b70ac74b3a843e5f9f71a653b9518e6e1762b39151c0f710910160405180910390a2600160008660ff1681526020019081526020016000206003018160ff1681548110611ccb57611ccb6149e4565b6000918252602091829020015460405160ff881681526001600160a01b03909116917f783de3ac95b82563b70ac74b3a843e5f9f71a653b9518e6e1762b39151c0f710910160405180910390a260ff80861660009081526001602052604090206003018054611d61928516908110611d4557611d456149e4565b6000918252602090912001546001600160a01b03168387613a41565b60ff80861660009081526001602052604090206003018054611daa928416908110611d8e57611d8e6149e4565b6000918252602090912001546001600160a01b03168287613a41565b828260ff1681518110611dbf57611dbf6149e4565b60200260200101518015611e53575060ff80861660009081526001602052604081206003810180546002909201939091908616908110611e0157611e016149e4565b60009182526020808320909101546001600160a01b03168352820192909252604001902054845160ff918216918691908416908110611e4257611e426149e4565b60200260200101516000015160ff16145b8015611ee4575060ff80861660009081526001602052604081206003810180546002909201939091908616908110611e8d57611e8d6149e4565b60009182526020808320909101546001600160a01b03168352820192909252604001902054845160ff6101009092048216918691908416908110611ed357611ed36149e4565b60200260200101516020015160ff16145b15611fd357600160008660ff1681526020019081526020016000206003018160ff1681548110611f1657611f166149e4565b600091825260208083209091015460ff80891684526001909252604090922060030180546001600160a01b039093169290918516908110611f5957611f596149e4565b6000918252602091829020015460405160ff891681526001600160a01b03909116917fb2ee3834f34c038f7f34d57f8ce213e4ee56fecd33556013e0f66b1e32ee14bc910160405180910390a360ff80861660009081526001602052604090206003018054611fd3928516908110611d4557611d456149e4565b80611fdd81614af0565b9150506119d7565b5080611ff081614af0565b9150506119b4565b5060005b60ff80851660009081526001602052604090206003015490821610156121875760006001600160a01b0316600160008660ff1681526020019081526020016000206003018260ff1681548110612054576120546149e4565b6000918252602090912001546001600160a01b0316036121755760ff841660009081526001602081905260409091206003018054909161209391614bd3565b815481106120a3576120a36149e4565b9060005260206000200160009054906101000a90046001600160a01b0316600160008660ff1681526020019081526020016000206003018260ff16815481106120ee576120ee6149e4565b600091825260208083209190910180546001600160a01b0319166001600160a01b03949094169390931790925560ff8616815260019091526040902060030180548061213c5761213c614be6565b600082815260209020810160001990810180546001600160a01b031916905501905560ff811615612175578061217181614bfc565b9150505b8061217f81614af0565b915050611ffc565b5060ff8316600090815260016020526040812060030154900361220e5760405160ff841681526000907f8403b4a1c998f6768b577f2c265d744e2f4d05982059b4d82b34eb822bdc17d1906020015b60405180910390a260ff83166000908152600160205260409020600401805461ff001916610100179055612209836109a4565b61253c565b60ff8316600090815260016020819052604090912060030154900361229d5760ff831660009081526001602052604081206003018054909190612253576122536149e4565b6000918252602091829020015460405160ff861681526001600160a01b03909116917f8403b4a1c998f6768b577f2c265d744e2f4d05982059b4d82b34eb822bdc17d191016121d6565b60ff8316600090815260016020526040812060030180549091906122c3576122c36149e4565b60009182526020808320919091015460405160ff871681526001600160a01b0390911692917f2cee3725d64bc62c413fa35348815210ff376bf4f13627d82b6ac0d0efc6e8cd910160405180910390a360005b60ff80851660009081526001602052604090206003015490821610156125285760ff808516600090815260016020526040812060038101805460069460029093019392861690811061236a5761236a6149e4565b60009182526020808320909101546001600160a01b03168352820192909252604001902060019081018054909160ff19909116908360068111156123b0576123b0614740565b021790555060ff80851660009081526001602052604081206003810180549293600290920192849286169081106123e9576123e96149e4565b6000918252602080832091909101546001600160a01b0316835282810193909352604091820181206001908101805461ff00191661010060ff9788160217905588851682529092528120600381018054600694600290930193928616908110612454576124546149e4565b60009182526020808320909101546001600160a01b031683528201929092526040019020600101805462ff000019166201000083600681111561249957612499614740565b021790555060ff80851660009081526001602052604081206003810180549293600290920192849286169081106124d2576124d26149e4565b60009182526020808320909101546001600160a01b031683528201929092526040019020600101805460ff9290921663010000000263ff000000199092169190911790558061252081614af0565b915050612316565b5061253283613bbd565b5061253c83613cde565b60405160ff841681527fd44344392ee117b90bc172ab74cce9c43a862f0d5e11a336b3885fde466c244e906020015b60405180910390a1505050565b604080518082019091526000808252602082015260ff8083166000908152600160208190526040909120600401549091161515146125c85760405162461bcd60e51b81526004016103b190614884565b604051630d42527560e11b81526001600160a01b037f00000000000000000000000000000000000000000000000000000000000000001690631a84a4ea9061261890889088908890600401614c8b565b6040805180830381865afa158015612634573d6000803e3d6000fd5b505050506040513d601f19601f820116820180604052508101906126589190614c6f565b95945050505050565b6002546001600160a01b0316331461268b5760405162461bcd60e51b81526004016103b190614ca9565b60ff8260ff16106126de5760405162461bcd60e51b815260206004820152601f60248201527f4d6178696d756d206e756d626572206f662067616d657320726561636865640060448201526064016103b1565b60ff80831660009081526001602052604090206004015416156127515760405162461bcd60e51b815260206004820152602560248201527f47616d652077697468207468697320494420616c726561647920696e2070726f604482015264677265737360d81b60648201526084016103b1565b60ff82166000908152600160208190526040909120600401805460ff1916909117905561277e8183613d3f565b61278782613cde565b60405160ff831681527f13cb55fc1bec4b9f4cd4c22f154240b469cb108a23a35aa599df0c3da46f2d149060200160405180910390a15050565b6127c9613925565b600280546001600160a01b0319166001600160a01b0392909216919091179055565b60ff8082166000908152600160208190526040909120600401546201000090049091161515146128675760405162461bcd60e51b815260206004820152602160248201527f436f6d6d6974206d6f76657320686173206e6f742073746172746564207965746044820152602160f81b60648201526084016103b1565b60ff811660008181526001602090815260408083203380855260059091018352928190208690555192835290917f38b5330dac100f70d75e8ee186192e45592ca13e2ea5e536677df27911c04897910160405180910390a25050565b6128cb613925565b60ff8082166000908152600160208190526040909120600401549091161515146129075760405162461bcd60e51b81526004016103b190614884565b81518751148015612919575081518651145b8015612926575081518551145b8015612933575081518451145b8015612940575081518351145b61298c5760405162461bcd60e51b815260206004820152601860248201527f4172726179206c656e67746873206d757374206d61746368000000000000000060448201526064016103b1565b60005b8251811015612efd5760008882815181106129ac576129ac6149e4565b60200260200101518883815181106129c6576129c66149e4565b60200260200101518884815181106129e0576129e06149e4565b60200260200101518885815181106129fa576129fa6149e4565b6020026020010151888681518110612a1457612a146149e4565b6020026020010151604051602001612a30959493929190614d15565b60408051601f1981840301815282825280516020918201208383019092526000808452908301529150604080518082019091526000808252602082015282600160008760ff1681526020019081526020016000206005016000888781518110612a9b57612a9b6149e4565b60200260200101516001600160a01b03166001600160a01b031681526020019081526020016000205403612ee7576000600160008760ff1681526020019081526020016000206002016000888781518110612af857612af86149e4565b60200260200101516001600160a01b03166001600160a01b0316815260200190815260200160002090508b8581518110612b3457612b346149e4565b60200260200101518160010160006101000a81548160ff02191690836006811115612b6157612b61614740565b02179055508060010160199054906101000a900460ff1660ff168b8681518110612b8d57612b8d6149e4565b602002602001015160ff1611612bbc578a8581518110612baf57612baf6149e4565b6020026020010151612bcc565b6001810154600160c81b900460ff165b8160010160016101000a81548160ff021916908360ff160217905550898581518110612bfa57612bfa6149e4565b602090810291909101015160018201805462ff0000191662010000836006811115612c2757612c27614740565b021790555080600101601a9054906101000a900460ff1660ff16898681518110612c5357612c536149e4565b602002602001015160ff1611612c8257888581518110612c7557612c756149e4565b6020026020010151612c92565b6001810154600160d01b900460ff165b60018201805464ff000000001960ff939093166301000000029290921664ffff00000019909216919091176401000000001790558b516001600160a01b037f00000000000000000000000000000000000000000000000000000000000000001690631a84a4ea9083908f9089908110612d0d57612d0d6149e4565b60200260200101518460010160019054906101000a900460ff166040518463ffffffff1660e01b8152600401612d4593929190614c37565b6040805180830381865afa158015612d61573d6000803e3d6000fd5b505050506040513d601f19601f82011682018060405250810190612d859190614c6f565b92507f00000000000000000000000000000000000000000000000000000000000000006001600160a01b0316631a84a4ea848c8881518110612dc957612dc96149e4565b60200260200101518460010160039054906101000a900460ff166040518463ffffffff1660e01b8152600401612e0193929190614c8b565b6040805180830381865afa158015612e1d573d6000803e3d6000fd5b505050506040513d601f19601f82011682018060405250810190612e419190614c6f565b9150868581518110612e5557612e556149e4565b60209081029190910181015160ff8089166000818152600185526040908190205488518987015189518a89015185519687529886019390935290851692840192909252908316606083015282166080820152921660a08301526001600160a01b0316907faff0b78027ac9f4904ee624bc84e3126d0e7d96ce215c5db5158441acb0b38cf9060c00160405180910390a2505b5050508080612ef590614d5f565b91505061298f565b5050505050505050565b6002546001600160a01b03163314612f315760405162461bcd60e51b81526004016103b190614ca9565b60ff8460ff1610612f845760405162461bcd60e51b815260206004820152601f60248201527f4d6178696d756d206e756d626572206f662067616d657320726561636865640060448201526064016103b1565b60ff80851660009081526001602052604090206004015416612fdf5760405162461bcd60e51b815260206004820152601460248201527347616d65206e6f7420696e2070726f677265737360601b60448201526064016103b1565b81518351148015612ff1575080518351145b6130355760405162461bcd60e51b8152602060048201526015602482015274082e4e4c2f240d8cadccee8d040dad2e6dac2e8c6d605b1b60448201526064016103b1565b60005b8351811015613553576000848281518110613055576130556149e4565b602002602001015190506000848381518110613073576130736149e4565b602002602001015190506000848481518110613091576130916149e4565b60209081029190910181015160ff8a166000908152600180845260408083206001600160a01b03898116855260029091019095529091200154909250600160281b9004161561313c5760ff88811660009081526001602090815260408083206001600160a01b0388168085526002909101909252918290205491516308538db760e41b81526004810191909152818316602482015261010090910490911660448201526064016103b1565b6040516342c39d9160e01b815260ff891660048201526000907f00000000000000000000000000000000000000000000000000000000000000006001600160a01b0316906342c39d919060240160408051808303816000875af11580156131a7573d6000803e3d6000fd5b505050506040513d601f19601f820116820180604052508101906131cb9190614c6f565b90505b6131d8818a613ff0565b15613270576040516342c39d9160e01b815260ff8a1660048201527f00000000000000000000000000000000000000000000000000000000000000006001600160a01b0316906342c39d919060240160408051808303816000875af1158015613245573d6000803e3d6000fd5b505050506040513d601f19601f820116820180604052508101906132699190614c6f565b90506131ce565b604080516101408101909152818152600090602081018281526000602082018190526040909101908152602001600060ff168152602001600015158152602001866001600160a01b031681526020018560ff1681526020018460ff1681526020018b60ff16815250905080600160008c60ff1681526020019081526020016000206002016000876001600160a01b03166001600160a01b0316815260200190815260200160002060008201518160000160008201518160000160006101000a81548160ff021916908360ff16021790555060208201518160000160016101000a81548160ff021916908360ff160217905550505060208201518160010160006101000a81548160ff0219169083600681111561338e5761338e614740565b0217905550604082015160018201805460ff9092166101000261ff001983168117825560608501519262ff00001990911662ffff001990911617620100008360068111156133de576133de614740565b02179055506080828101516001928301805460a08087015160c088015160e08901516101008a0151610120909a015164ffff00000019909516630100000060ff9889160264ff00000000191617640100000000931515939093029290921765010000000000600160d01b031916600160281b6001600160a01b039283160260ff60c81b191617600160c81b928716929092029190911761ffff60d01b1916600160d01b9886169890980260ff60d81b191697909717600160d81b92851692909202919091179091558e82166000818152602086815260408083206003018054988901815583529181902090960180546001600160a01b031916978d169788179055885189870151825193845290851696830196909652948316948101949094528882166060850152908716918301919091527f5e5c5018f010da587f4ea3677380307dc0fb74d57d455db252799686dbfbd059910160405180910390a25050505050808061354b90614d5f565b915050613038565b5050505050565b613562613925565b6001600160a01b03811661358c57604051631e4fbdf760e01b8152600060048201526024016103b1565b61359581613952565b50565b60ff808216600090815260016020819052604090912060040154606092161515146135d55760405162461bcd60e51b81526004016103b190614884565b60ff821660009081526001602052604081206003015467ffffffffffffffff81111561360357613603614159565b60405190808252806020026020018201604052801561369157816020015b604080516101808101825260006101408201818152610160830182905282526020808301829052928201819052606082018190526080820181905260a0820181905260c0820181905260e08201819052610100820181905261012082015282526000199092019101816136215790505b50905060005b60ff84166000908152600160205260409020600301548110156138455760ff8416600090815260016020526040812060038101805460029092019291849081106136e3576136e36149e4565b60009182526020808320909101546001600160a01b03168352828101939093526040918201902081516101808101909252805460ff808216610140850190815261010090920481166101608501529083526001820154929391929184019116600681111561375357613753614740565b600681111561376457613764614740565b8152600182015460ff6101008204811660208401526040909201916201000090910416600681111561379857613798614740565b60068111156137a9576137a9614740565b81526001919091015460ff630100000082048116602084015264010000000082048116151560408401526001600160a01b03600160281b8304166060840152600160c81b820481166080840152600160d01b8204811660a0840152600160d81b9091041660c0909101528251839083908110613827576138276149e4565b6020026020010181905250808061383d90614d5f565b915050613697565b5092915050565b60ff8082166000908152600160208190526040909120600401549091161515146138885760405162461bcd60e51b81526004016103b190614884565b6000805b60ff80841660009081526001602052604090206003015490821610156139145760ff808416600090815260016020526040902060030180546001600160a01b0387169284169081106138e0576138e06149e4565b6000918252602090912001546001600160a01b03160361390257809150613914565b8061390c81614af0565b91505061388c565b50613920838284613a41565b505050565b6000546001600160a01b031633146109a25760405163118cdaa760e01b81523360048201526024016103b1565b600080546001600160a01b038381166001600160a01b0319831681178455604051919092169283917f8be0079c531659141344cd1fd0a4f28419497f9722a3daafe3b4186f6b6457e09190a35050565b6000807f00000000000000000000000000000000000000000000000000000000000000006001600160a01b0316634d02388685856040518363ffffffff1660e01b81526004016139f3929190614a13565b608060405180830381865afa158015613a10573d6000803e3d6000fd5b505050506040513d601f19601f82011682018060405250810190613a349190614b95565b6060015115949350505050565b60ff80821660009081526001602052604090206003015490831610613aa85760405162461bcd60e51b815260206004820152601860248201527f496e6465782076616c7565206f7574206f662072616e6765000000000000000060448201526064016103b1565b60ff808216600090815260016020819052604090912060040154909116151514613ae45760405162461bcd60e51b81526004016103b190614884565b60405160ff821681526001600160a01b038416907fabe2a4edb03972506a4064b683e5482b1f09f2fb96bd4463b7b15b38cbd5b1869060200160405180910390a260ff80821660008181526001602081815260408084206001600160a01b038a168552600281018352908420805461ffff19168155830180546001600160e01b0319169055938352526003909101805491929091908516908110613b8a57613b8a6149e4565b9060005260206000200160006101000a8154816001600160a01b0302191690836001600160a01b03160217905550505050565b60405163436fadf360e11b815260ff8216600482015260009081906001600160a01b037f000000000000000000000000000000000000000000000000000000000000000016906386df5be690602401602060405180830381865afa158015613c29573d6000803e3d6000fd5b505050506040513d601f19601f82011682018060405250810190613c4d919061497c565b60ff84166000908152600160205260408120805492935090613c6e83614d5f565b909155505060ff838116600081815260016020908152604091829020548251938452908301529183168183015290517f44d8fc4a70679f71d5b762b5218cbfb0c858bb7e015b1effe03793d2909c20f69181900360600190a1505060ff1660009081526001602052604090205490565b60ff808216600090815260016020819052604090912060040154909116151514613d1a5760405162461bcd60e51b81526004016103b190614884565b60ff166000908152600160205260409020600401805462ff0000191662010000179055565b60ff808216600090815260016020819052604090912060040154909116151514613d7b5760405162461bcd60e51b81526004016103b190614884565b60005b60ff8216600090815260016020526040902060030154811015613e1a5760ff821660009081526001602052604081206003810180546002909201929184908110613dca57613dca6149e4565b60009182526020808320909101546001600160a01b031683528201929092526040019020805461ffff1916815560010180546001600160e01b031916905580613e1281614d5f565b915050613d7e565b5060ff81166000908152600160205260408120613e3c9160039091019061410e565b604051631a405d8760e31b815260ff8084166004830152821660248201526000907f00000000000000000000000000000000000000000000000000000000000000006001600160a01b03169063d202ec38906044016000604051808303816000875af1158015613eb0573d6000803e3d6000fd5b505050506040513d6000823e601f3d908101601f19168201604052613ed89190810190614d78565b905060005b8151811015613fab577fa0c5e7441ab424c9fb8f47238c88c2c172bf9be1898748ea348b2a8bb92d6dbb83838381518110613f1a57613f1a6149e4565b602002602001015160000151848481518110613f3857613f386149e4565b602002602001015160200151858581518110613f5657613f566149e4565b602002602001015160400151604051613f91949392919060ff9485168152928416602084015292166040820152901515606082015260800190565b60405180910390a180613fa381614d5f565b915050613edd565b50613fb582613bbd565b506040805160ff8086168252841660208201527fd76a0a97b7d547fef69b0cd90fb02087b761703ae2b5e4e91a99e8fd17e308ad910161256b565b6000805b60ff831660009081526001602052604090206003015481101561410457835160ff8481166000908152600160205260408120600381018054939094169360029091019285908110614047576140476149e4565b60009182526020808320909101546001600160a01b0316835282019290925260400190205460ff161480156140e3575060208085015160ff858116600090815260019093526040832060038101805492909316936002909101929091859081106140b3576140b36149e4565b60009182526020808320909101546001600160a01b0316835282019290925260400190205460ff61010090910416145b156140f257600191505061057c565b806140fc81614d5f565b915050613ff4565b5060009392505050565b508054600082559060005260206000209081019061359591905b8082111561413c5760008155600101614128565b5090565b60006020828403121561415257600080fd5b5035919050565b634e487b7160e01b600052604160045260246000fd5b6040805190810167ffffffffffffffff8111828210171561419257614192614159565b60405290565b604051601f8201601f1916810167ffffffffffffffff811182821017156141c1576141c1614159565b604052919050565b60ff8116811461359557600080fd5b80356141e3816141c9565b919050565b6000604082840312156141fa57600080fd5b61420261416f565b9050813561420f816141c9565b8152602082013561421f816141c9565b602082015292915050565b8035600781106141e357600080fd5b60008060008060a0858703121561424f57600080fd5b61425986866141e8565b93506142676040860161422a565b92506060850135614277816141c9565b91506080850135614287816141c9565b939692955090935050565b6000602082840312156142a457600080fd5b8135610989816141c9565b602080825282518282018190526000919060409081850190868401855b828110156142ff576142ef848351805160ff908116835260209182015116910152565b92840192908501906001016142cc565b5091979650505050505050565b6000806060838503121561431f57600080fd5b61432984846141e8565b91506040830135614339816141c9565b809150509250929050565b6040810161057c8284805160ff908116835260209182015116910152565b6000806040838503121561437557600080fd5b8235614380816141c9565b91506020830135614339816141c9565b80356001600160a01b03811681146141e357600080fd5b6000602082840312156143b957600080fd5b61098982614390565b600080604083850312156143d557600080fd5b823591506020830135614339816141c9565b600067ffffffffffffffff82111561440157614401614159565b5060051b60200190565b600082601f83011261441c57600080fd5b8135602061443161442c836143e7565b614198565b82815260059290921b8401810191818101908684111561445057600080fd5b8286015b84811015614472576144658161422a565b8352918301918301614454565b509695505050505050565b600082601f83011261448e57600080fd5b8135602061449e61442c836143e7565b82815260059290921b840181019181810190868411156144bd57600080fd5b8286015b848110156144725780356144d4816141c9565b83529183019183016144c1565b600082601f8301126144f257600080fd5b8135602061450261442c836143e7565b82815260059290921b8401810191818101908684111561452157600080fd5b8286015b848110156144725780358352918301918301614525565b600082601f83011261454d57600080fd5b8135602061455d61442c836143e7565b82815260059290921b8401810191818101908684111561457c57600080fd5b8286015b848110156144725761459181614390565b8352918301918301614580565b600080600080600080600060e0888a0312156145b957600080fd5b873567ffffffffffffffff808211156145d157600080fd5b6145dd8b838c0161440b565b985060208a01359150808211156145f357600080fd5b6145ff8b838c0161447d565b975060408a013591508082111561461557600080fd5b6146218b838c0161440b565b965060608a013591508082111561463757600080fd5b6146438b838c0161447d565b955060808a013591508082111561465957600080fd5b6146658b838c016144e1565b945060a08a013591508082111561467b57600080fd5b506146888a828b0161453c565b92505061469760c089016141d8565b905092959891949750929550565b600080600080608085870312156146bb57600080fd5b84356146c6816141c9565b9350602085013567ffffffffffffffff808211156146e357600080fd5b6146ef8883890161453c565b9450604087013591508082111561470557600080fd5b6147118883890161447d565b9350606087013591508082111561472757600080fd5b506147348782880161447d565b91505092959194509250565b634e487b7160e01b600052602160045260246000fd5b6007811061477457634e487b7160e01b600052602160045260246000fd5b9052565b602080825282518282018190526000919060409081850190868401855b828110156142ff5781516147ba858251805160ff908116835260209182015116910152565b868101516147ca87870182614756565b508581015160606147df8188018360ff169052565b820151905060806147f287820183614756565b820151905060a06148078782018360ff169052565b820151905060c061481b8782018315159052565b820151905060e0614836878201836001600160a01b03169052565b820151905061010061484c8782018360ff169052565b82015190506101206148628782018360ff169052565b919091015160ff16610140860152506101609093019290850190600101614795565b60208082526019908201527f47616d6520686173206e6f742073746172746564207965742100000000000000604082015260600190565b60a081016148d98287805160ff908116835260209182015116910152565b6148e66040830186614756565b60ff8416606083015260ff8316608083015295945050505050565b805180151581146141e357600080fd5b60006040828403121561492357600080fd5b61492b61416f565b90508151614938816141c9565b8152602082015161421f816141c9565b6000806060838503121561495b57600080fd5b61496483614901565b91506149738460208501614911565b90509250929050565b60006020828403121561498e57600080fd5b8151610989816141c9565b634e487b7160e01b600052601160045260246000fd5b60ff818116838216019081111561057c5761057c614999565b60ff818116838216029081169081811461384557613845614999565b634e487b7160e01b600052603260045260246000fd5b60ff828116828216039081111561057c5761057c614999565b60608101614a318285805160ff908116835260209182015116910152565b60ff831660408301529392505050565b60006020808385031215614a5457600080fd5b825167ffffffffffffffff811115614a6b57600080fd5b8301601f81018513614a7c57600080fd5b8051614a8a61442c826143e7565b81815260069190911b82018301908381019087831115614aa957600080fd5b928401925b82841015614ad257614ac08885614911565b82528482019150604084019350614aae565b979650505050505050565b8082018082111561057c5761057c614999565b600060ff821660ff8103614b0657614b06614999565b60010192915050565b600060808284031215614b2157600080fd5b6040516080810181811067ffffffffffffffff82111715614b4457614b44614159565b80604052508091508251614b57816141c9565b81526020830151614b67816141c9565b6020820152614b7860408401614901565b6040820152614b8960608401614901565b60608201525092915050565b600060808284031215614ba757600080fd5b6109898383614b0f565b600082614bce57634e487b7160e01b600052601260045260246000fd5b500690565b8181038181111561057c5761057c614999565b634e487b7160e01b600052603160045260246000fd5b600060ff821680614c0f57614c0f614999565b6000190192915050565b845460ff808216835260089190911c16602082015260a081016148d9565b835460ff808216835260089190911c166020820152608081015b614c5e6040830185614756565b60ff83166060830152949350505050565b600060408284031215614c8157600080fd5b6109898383614911565b60808101614c518286805160ff908116835260209182015116910152565b60208082526027908201527f43616c6c6572206973206e6f742074686520726567697374726174696f6e20636040820152661bdb9d1c9858dd60ca1b606082015260800190565b60078110614d0e57634e487b7160e01b600052602160045260246000fd5b60f81b9052565b614d1f8187614cf0565b600060ff60f81b808760f81b166001840152614d3e6002840187614cf0565b60f89490941b90931660038201526004810191909152602401949350505050565b600060018201614d7157614d71614999565b5060010190565b60006020808385031215614d8b57600080fd5b825167ffffffffffffffff811115614da257600080fd5b8301601f81018513614db357600080fd5b8051614dc161442c826143e7565b81815260079190911b82018301908381019087831115614de057600080fd5b928401925b82841015614ad257614df78885614b0f565b82528482019150608084019350614de556fea2646970667358221220f2e2636b20e2e33726376a9dc6957693b898bf6d0d9b824a1060af2cc701642764736f6c63430008140033",
  "linkReferences": {},
  "deployedLinkReferences": {}
}