{
  "_format": "hh-sol-artifact-1",
  "contractName": "GamePunk",
  "sourceName": "contracts/GamePunk.sol",
  "abi": [
    {
      "inputs": [
        {
          "internalType": "address",
          "name": "_mapAddress",
          "type": "address"
        }
      ],
      "stateMutability": "nonpayable",
      "type": "constructor"
    },
    {
      "inputs": [
        {
          "internalType": "address",
          "name": "owner",
          "type": "address"
        }
      ],
      "name": "OwnableInvalidOwner",
      "type": "error"
    },
    {
      "inputs": [
        {
          "internalType": "address",
          "name": "account",
          "type": "address"
        }
      ],
      "name": "OwnableUnauthorizedAccount",
      "type": "error"
    },
    {
      "inputs": [
        {
          "internalType": "address",
          "name": "player",
          "type": "address"
        },
        {
          "internalType": "uint8",
          "name": "q",
          "type": "uint8"
        },
        {
          "internalType": "uint8",
          "name": "r",
          "type": "uint8"
        }
      ],
      "name": "ShipAlreadyAdded",
      "type": "error"
    },
    {
      "anonymous": false,
      "inputs": [
        {
          "indexed": false,
          "internalType": "uint8",
          "name": "gameId",
          "type": "uint8"
        },
        {
          "indexed": false,
          "internalType": "uint8",
          "name": "q",
          "type": "uint8"
        },
        {
          "indexed": false,
          "internalType": "uint8",
          "name": "r",
          "type": "uint8"
        },
        {
          "indexed": false,
          "internalType": "bool",
          "name": "island",
          "type": "bool"
        }
      ],
      "name": "Cell",
      "type": "event"
    },
    {
      "anonymous": false,
      "inputs": [
        {
          "indexed": false,
          "internalType": "uint8",
          "name": "gameId",
          "type": "uint8"
        }
      ],
      "name": "CommitPhaseStarted",
      "type": "event"
    },
    {
      "anonymous": false,
      "inputs": [
        {
          "indexed": false,
          "internalType": "uint8",
          "name": "gameId",
          "type": "uint8"
        }
      ],
      "name": "GameEnded",
      "type": "event"
    },
    {
      "anonymous": false,
      "inputs": [
        {
          "indexed": false,
          "internalType": "uint8",
          "name": "gameId",
          "type": "uint8"
        }
      ],
      "name": "GameStarted",
      "type": "event"
    },
    {
      "anonymous": false,
      "inputs": [
        {
          "indexed": true,
          "internalType": "bool",
          "name": "gameStatus",
          "type": "bool"
        },
        {
          "indexed": true,
          "internalType": "address",
          "name": "winnerAddress",
          "type": "address"
        },
        {
          "indexed": false,
          "internalType": "uint8",
          "name": "gameId",
          "type": "uint8"
        }
      ],
      "name": "GameUpdated",
      "type": "event"
    },
    {
      "anonymous": false,
      "inputs": [
        {
          "indexed": true,
          "internalType": "address",
          "name": "winner",
          "type": "address"
        },
        {
          "indexed": false,
          "internalType": "uint8",
          "name": "gameId",
          "type": "uint8"
        }
      ],
      "name": "GameWinner",
      "type": "event"
    },
    {
      "anonymous": false,
      "inputs": [
        {
          "indexed": false,
          "internalType": "uint8",
          "name": "radius",
          "type": "uint8"
        },
        {
          "indexed": false,
          "internalType": "uint8",
          "name": "gameId",
          "type": "uint8"
        }
      ],
      "name": "MapInitialized",
      "type": "event"
    },
    {
      "anonymous": false,
      "inputs": [
        {
          "indexed": false,
          "internalType": "uint8",
          "name": "gameId",
          "type": "uint8"
        }
      ],
      "name": "MapShrink",
      "type": "event"
    },
    {
      "anonymous": false,
      "inputs": [
        {
          "indexed": true,
          "internalType": "address",
          "name": "player",
          "type": "address"
        },
        {
          "indexed": false,
          "internalType": "uint8",
          "name": "gameId",
          "type": "uint8"
        }
      ],
      "name": "MoveCommitted",
      "type": "event"
    },
    {
      "anonymous": false,
      "inputs": [
        {
          "indexed": true,
          "internalType": "address",
          "name": "player",
          "type": "address"
        },
        {
          "indexed": false,
          "internalType": "uint8",
          "name": "gameId",
          "type": "uint8"
        },
        {
          "indexed": false,
          "internalType": "uint256",
          "name": "roundId",
          "type": "uint256"
        },
        {
          "indexed": false,
          "internalType": "uint8",
          "name": "destQ",
          "type": "uint8"
        },
        {
          "indexed": false,
          "internalType": "uint8",
          "name": "destR",
          "type": "uint8"
        },
        {
          "indexed": false,
          "internalType": "uint8",
          "name": "shotQ",
          "type": "uint8"
        },
        {
          "indexed": false,
          "internalType": "uint8",
          "name": "shotR",
          "type": "uint8"
        }
      ],
      "name": "MoveSubmitted",
      "type": "event"
    },
    {
      "anonymous": false,
      "inputs": [
        {
          "indexed": false,
          "internalType": "uint8",
          "name": "gameId",
          "type": "uint8"
        },
        {
          "indexed": false,
          "internalType": "uint256",
          "name": "roundId",
          "type": "uint256"
        },
        {
          "indexed": false,
          "internalType": "uint8",
          "name": "radius",
          "type": "uint8"
        }
      ],
      "name": "NewRound",
      "type": "event"
    },
    {
      "anonymous": false,
      "inputs": [
        {
          "indexed": true,
          "internalType": "address",
          "name": "previousOwner",
          "type": "address"
        },
        {
          "indexed": true,
          "internalType": "address",
          "name": "newOwner",
          "type": "address"
        }
      ],
      "name": "OwnershipTransferred",
      "type": "event"
    },
    {
      "anonymous": false,
      "inputs": [
        {
          "indexed": true,
          "internalType": "address",
          "name": "player",
          "type": "address"
        },
        {
          "indexed": false,
          "internalType": "uint8",
          "name": "gameId",
          "type": "uint8"
        },
        {
          "indexed": false,
          "internalType": "uint8",
          "name": "q",
          "type": "uint8"
        },
        {
          "indexed": false,
          "internalType": "uint8",
          "name": "r",
          "type": "uint8"
        },
        {
          "indexed": false,
          "internalType": "uint8",
          "name": "speed",
          "type": "uint8"
        },
        {
          "indexed": false,
          "internalType": "uint8",
          "name": "range",
          "type": "uint8"
        }
      ],
      "name": "PlayerAdded",
      "type": "event"
    },
    {
      "anonymous": false,
      "inputs": [
        {
          "indexed": true,
          "internalType": "address",
          "name": "player",
          "type": "address"
        },
        {
          "indexed": false,
          "internalType": "uint8",
          "name": "gameId",
          "type": "uint8"
        }
      ],
      "name": "PlayerDefeated",
      "type": "event"
    },
    {
      "anonymous": false,
      "inputs": [
        {
          "indexed": true,
          "internalType": "address",
          "name": "captain",
          "type": "address"
        },
        {
          "indexed": false,
          "internalType": "uint8",
          "name": "gameId",
          "type": "uint8"
        },
        {
          "indexed": false,
          "internalType": "uint8",
          "name": "q",
          "type": "uint8"
        },
        {
          "indexed": false,
          "internalType": "uint8",
          "name": "r",
          "type": "uint8"
        }
      ],
      "name": "ShipCollidedWithIsland",
      "type": "event"
    },
    {
      "anonymous": false,
      "inputs": [
        {
          "indexed": true,
          "internalType": "address",
          "name": "victim",
          "type": "address"
        },
        {
          "indexed": true,
          "internalType": "address",
          "name": "attacker",
          "type": "address"
        },
        {
          "indexed": false,
          "internalType": "uint8",
          "name": "gameId",
          "type": "uint8"
        }
      ],
      "name": "ShipHit",
      "type": "event"
    },
    {
      "anonymous": false,
      "inputs": [
        {
          "indexed": true,
          "internalType": "address",
          "name": "captain",
          "type": "address"
        },
        {
          "indexed": false,
          "internalType": "uint8",
          "name": "initialQ",
          "type": "uint8"
        },
        {
          "indexed": false,
          "internalType": "uint8",
          "name": "initialR",
          "type": "uint8"
        },
        {
          "indexed": false,
          "internalType": "uint8",
          "name": "q",
          "type": "uint8"
        },
        {
          "indexed": false,
          "internalType": "uint8",
          "name": "r",
          "type": "uint8"
        },
        {
          "indexed": false,
          "internalType": "uint8",
          "name": "gameId",
          "type": "uint8"
        }
      ],
      "name": "ShipMoved",
      "type": "event"
    },
    {
      "anonymous": false,
      "inputs": [
        {
          "indexed": true,
          "internalType": "address",
          "name": "captain",
          "type": "address"
        },
        {
          "indexed": false,
          "internalType": "uint8",
          "name": "gameId",
          "type": "uint8"
        }
      ],
      "name": "ShipMovedInGame",
      "type": "event"
    },
    {
      "anonymous": false,
      "inputs": [
        {
          "indexed": true,
          "internalType": "address",
          "name": "captain",
          "type": "address"
        },
        {
          "indexed": false,
          "internalType": "uint8",
          "name": "fromQ",
          "type": "uint8"
        },
        {
          "indexed": false,
          "internalType": "uint8",
          "name": "fromR",
          "type": "uint8"
        },
        {
          "indexed": false,
          "internalType": "uint8",
          "name": "shotQ",
          "type": "uint8"
        },
        {
          "indexed": false,
          "internalType": "uint8",
          "name": "shotR",
          "type": "uint8"
        },
        {
          "indexed": false,
          "internalType": "uint8",
          "name": "gameId",
          "type": "uint8"
        }
      ],
      "name": "ShipShot",
      "type": "event"
    },
    {
      "anonymous": false,
      "inputs": [
        {
          "indexed": true,
          "internalType": "address",
          "name": "captain",
          "type": "address"
        },
        {
          "indexed": false,
          "internalType": "uint8",
          "name": "gameId",
          "type": "uint8"
        }
      ],
      "name": "ShipSunk",
      "type": "event"
    },
    {
      "anonymous": false,
      "inputs": [
        {
          "indexed": true,
          "internalType": "address",
          "name": "captain",
          "type": "address"
        },
        {
          "indexed": false,
          "internalType": "uint8",
          "name": "gameId",
          "type": "uint8"
        }
      ],
      "name": "ShipSunkOutOfMap",
      "type": "event"
    },
    {
      "anonymous": false,
      "inputs": [
        {
          "indexed": false,
          "internalType": "uint8",
          "name": "gameId",
          "type": "uint8"
        },
        {
          "indexed": false,
          "internalType": "uint256",
          "name": "round",
          "type": "uint256"
        }
      ],
      "name": "SubmitPhaseStarted",
      "type": "event"
    },
    {
      "anonymous": false,
      "inputs": [
        {
          "indexed": false,
          "internalType": "uint8",
          "name": "gameId",
          "type": "uint8"
        }
      ],
      "name": "WorldUpdated",
      "type": "event"
    },
    {
      "inputs": [
        {
          "internalType": "address",
          "name": "playerAddress",
          "type": "address"
        },
        {
          "internalType": "uint8",
          "name": "gameId",
          "type": "uint8"
        },
        {
          "internalType": "uint8",
          "name": "_speed",
          "type": "uint8"
        },
        {
          "internalType": "uint8",
          "name": "_range",
          "type": "uint8"
        }
      ],
      "name": "addShip",
      "outputs": [
        {
          "internalType": "bool",
          "name": "",
          "type": "bool"
        }
      ],
      "stateMutability": "nonpayable",
      "type": "function"
    },
    {
      "inputs": [
        {
          "internalType": "bytes32",
          "name": "moveHash",
          "type": "bytes32"
        },
        {
          "internalType": "uint8",
          "name": "gameId",
          "type": "uint8"
        }
      ],
      "name": "commitMove",
      "outputs": [],
      "stateMutability": "nonpayable",
      "type": "function"
    },
    {
      "inputs": [
        {
          "internalType": "uint8",
          "name": "gameId",
          "type": "uint8"
        }
      ],
      "name": "endGame",
      "outputs": [],
      "stateMutability": "nonpayable",
      "type": "function"
    },
    {
      "inputs": [
        {
          "internalType": "uint256",
          "name": "",
          "type": "uint256"
        }
      ],
      "name": "games",
      "outputs": [
        {
          "internalType": "uint256",
          "name": "round",
          "type": "uint256"
        },
        {
          "internalType": "uint8",
          "name": "shrinkNo",
          "type": "uint8"
        },
        {
          "internalType": "bool",
          "name": "gameInProgress",
          "type": "bool"
        },
        {
          "internalType": "bool",
          "name": "stopAddingShips",
          "type": "bool"
        },
        {
          "internalType": "bool",
          "name": "letCommitMoves",
          "type": "bool"
        },
        {
          "internalType": "bool",
          "name": "letSubmitMoves",
          "type": "bool"
        }
      ],
      "stateMutability": "view",
      "type": "function"
    },
    {
      "inputs": [
        {
          "components": [
            {
              "internalType": "uint8",
              "name": "q",
              "type": "uint8"
            },
            {
              "internalType": "uint8",
              "name": "r",
              "type": "uint8"
            }
          ],
          "internalType": "struct SharedStructs.Coordinate",
          "name": "_coord",
          "type": "tuple"
        },
        {
          "internalType": "uint8",
          "name": "gameId",
          "type": "uint8"
        }
      ],
      "name": "getCell",
      "outputs": [
        {
          "components": [
            {
              "internalType": "uint8",
              "name": "q",
              "type": "uint8"
            },
            {
              "internalType": "uint8",
              "name": "r",
              "type": "uint8"
            },
            {
              "internalType": "bool",
              "name": "island",
              "type": "bool"
            },
            {
              "internalType": "bool",
              "name": "exists",
              "type": "bool"
            }
          ],
          "internalType": "struct SharedStructs.Cell",
          "name": "",
          "type": "tuple"
        }
      ],
      "stateMutability": "view",
      "type": "function"
    },
    {
      "inputs": [
        {
          "internalType": "uint8",
          "name": "gameId",
          "type": "uint8"
        }
      ],
      "name": "getCells",
      "outputs": [
        {
          "components": [
            {
              "internalType": "uint8",
              "name": "q",
              "type": "uint8"
            },
            {
              "internalType": "uint8",
              "name": "r",
              "type": "uint8"
            }
          ],
          "internalType": "struct SharedStructs.Coordinate[]",
          "name": "",
          "type": "tuple[]"
        }
      ],
      "stateMutability": "view",
      "type": "function"
    },
    {
      "inputs": [
        {
          "internalType": "uint8",
          "name": "gameId",
          "type": "uint8"
        }
      ],
      "name": "getRadius",
      "outputs": [
        {
          "internalType": "uint8",
          "name": "",
          "type": "uint8"
        }
      ],
      "stateMutability": "view",
      "type": "function"
    },
    {
      "inputs": [
        {
          "internalType": "uint8",
          "name": "gameId",
          "type": "uint8"
        }
      ],
      "name": "getShips",
      "outputs": [
        {
          "components": [
            {
              "components": [
                {
                  "internalType": "uint8",
                  "name": "q",
                  "type": "uint8"
                },
                {
                  "internalType": "uint8",
                  "name": "r",
                  "type": "uint8"
                }
              ],
              "internalType": "struct SharedStructs.Coordinate",
              "name": "coordinate",
              "type": "tuple"
            },
            {
              "internalType": "enum SharedStructs.Directions",
              "name": "travelDirection",
              "type": "uint8"
            },
            {
              "internalType": "uint8",
              "name": "travelDistance",
              "type": "uint8"
            },
            {
              "internalType": "enum SharedStructs.Directions",
              "name": "shotDirection",
              "type": "uint8"
            },
            {
              "internalType": "uint8",
              "name": "shotDistance",
              "type": "uint8"
            },
            {
              "internalType": "bool",
              "name": "publishedMove",
              "type": "bool"
            },
            {
              "internalType": "address",
              "name": "captain",
              "type": "address"
            },
            {
              "internalType": "uint8",
              "name": "yachtSpeed",
              "type": "uint8"
            },
            {
              "internalType": "uint8",
              "name": "yachtRange",
              "type": "uint8"
            },
            {
              "internalType": "uint8",
              "name": "gameId",
              "type": "uint8"
            }
          ],
          "internalType": "struct GamePunk.Ship[]",
          "name": "",
          "type": "tuple[]"
        }
      ],
      "stateMutability": "view",
      "type": "function"
    },
    {
      "inputs": [
        {
          "components": [
            {
              "internalType": "uint8",
              "name": "q",
              "type": "uint8"
            },
            {
              "internalType": "uint8",
              "name": "r",
              "type": "uint8"
            }
          ],
          "internalType": "struct SharedStructs.Coordinate",
          "name": "_start",
          "type": "tuple"
        },
        {
          "internalType": "enum SharedStructs.Directions",
          "name": "_dir",
          "type": "uint8"
        },
        {
          "internalType": "uint8",
          "name": "_distance",
          "type": "uint8"
        },
        {
          "internalType": "uint8",
          "name": "gameId",
          "type": "uint8"
        }
      ],
      "name": "move",
      "outputs": [
        {
          "components": [
            {
              "internalType": "uint8",
              "name": "q",
              "type": "uint8"
            },
            {
              "internalType": "uint8",
              "name": "r",
              "type": "uint8"
            }
          ],
          "internalType": "struct SharedStructs.Coordinate",
          "name": "",
          "type": "tuple"
        }
      ],
      "stateMutability": "view",
      "type": "function"
    },
    {
      "inputs": [],
      "name": "owner",
      "outputs": [
        {
          "internalType": "address",
          "name": "",
          "type": "address"
        }
      ],
      "stateMutability": "view",
      "type": "function"
    },
    {
      "inputs": [],
      "name": "registrationContract",
      "outputs": [
        {
          "internalType": "address",
          "name": "",
          "type": "address"
        }
      ],
      "stateMutability": "view",
      "type": "function"
    },
    {
      "inputs": [],
      "name": "renounceOwnership",
      "outputs": [],
      "stateMutability": "nonpayable",
      "type": "function"
    },
    {
      "inputs": [
        {
          "internalType": "address",
          "name": "_registrationContract",
          "type": "address"
        }
      ],
      "name": "setRegistrationContract",
      "outputs": [],
      "stateMutability": "nonpayable",
      "type": "function"
    },
    {
      "inputs": [
        {
          "internalType": "uint8",
          "name": "gameId",
          "type": "uint8"
        },
        {
          "internalType": "uint8",
          "name": "_radius",
          "type": "uint8"
        }
      ],
      "name": "startNewGame",
      "outputs": [],
      "stateMutability": "nonpayable",
      "type": "function"
    },
    {
      "inputs": [
        {
          "internalType": "enum SharedStructs.Directions[]",
          "name": "_travelDirections",
          "type": "uint8[]"
        },
        {
          "internalType": "uint8[]",
          "name": "_travelDistances",
          "type": "uint8[]"
        },
        {
          "internalType": "enum SharedStructs.Directions[]",
          "name": "_shotDirections",
          "type": "uint8[]"
        },
        {
          "internalType": "uint8[]",
          "name": "_shotDistances",
          "type": "uint8[]"
        },
        {
          "internalType": "uint256[]",
          "name": "secrets",
          "type": "uint256[]"
        },
        {
          "internalType": "address[]",
          "name": "playerAddresses",
          "type": "address[]"
        },
        {
          "internalType": "uint8",
          "name": "gameId",
          "type": "uint8"
        }
      ],
      "name": "submitMove",
      "outputs": [],
      "stateMutability": "nonpayable",
      "type": "function"
    },
    {
      "inputs": [
        {
          "internalType": "address",
          "name": "newOwner",
          "type": "address"
        }
      ],
      "name": "transferOwnership",
      "outputs": [],
      "stateMutability": "nonpayable",
      "type": "function"
    },
    {
      "inputs": [
        {
          "components": [
            {
              "internalType": "uint8",
              "name": "q",
              "type": "uint8"
            },
            {
              "internalType": "uint8",
              "name": "r",
              "type": "uint8"
            }
          ],
          "internalType": "struct SharedStructs.Coordinate",
          "name": "_startCell",
          "type": "tuple"
        },
        {
          "internalType": "enum SharedStructs.Directions",
          "name": "_direction",
          "type": "uint8"
        },
        {
          "internalType": "uint8",
          "name": "_distance",
          "type": "uint8"
        },
        {
          "internalType": "uint8",
          "name": "gameId",
          "type": "uint8"
        }
      ],
      "name": "travel",
      "outputs": [],
      "stateMutability": "nonpayable",
      "type": "function"
    },
    {
      "inputs": [
        {
          "internalType": "uint8",
          "name": "gameId",
          "type": "uint8"
        }
      ],
      "name": "updateWorld",
      "outputs": [],
      "stateMutability": "nonpayable",
      "type": "function"
    }
  ],
  "bytecode": "0x60a06040523480156200001157600080fd5b5060405162004fd538038062004fd58339810160408190526200003491620000c9565b33806200005b57604051631e4fbdf760e01b81526000600482015260240160405180910390fd5b620000668162000079565b506001600160a01b0316608052620000fb565b600080546001600160a01b038381166001600160a01b0319831681178455604051919092169283917f8be0079c531659141344cd1fd0a4f28419497f9722a3daafe3b4186f6b6457e09190a35050565b600060208284031215620000dc57600080fd5b81516001600160a01b0381168114620000f457600080fd5b9392505050565b608051614e5c62000179600039600081816103cf01528181610519015281816105ea015281816107740152818161092101528181610aed015281816110b00152818161169b015281816125f101528181612ce401528181612d9b015281816130a7015281816139e101528181613c1c0152613e990152614e5c6000f3fe608060405234801561001057600080fd5b50600436106101165760003560e01c8063978ac356116100a2578063e7c435a711610071578063e7c435a714610309578063e9cc404b1461031c578063f10a39271461032f578063f2fde38b14610352578063fd8704461461036557600080fd5b8063978ac356146102b0578063d085a86f146102c3578063d1153bc3146102e3578063d3db03cc146102f657600080fd5b80634aac9b8b116100e95780634aac9b8b1461020f5780634d0238861461022f578063715018a614610284578063863375ac1461028c5780638da5cb5b1461029f57600080fd5b8063117a5b901461011b5780631cf8a321146101aa5780631e522c3e146101bf57806334361208146101ea575b600080fd5b61016c61012936600461410b565b600160208190526000918252604090912080549181015460049091015460ff91821691818116916101008104821691620100008204811691630100000090041686565b6040805196875260ff909516602087015292151593850193909352151560608401529015156080830152151560a082015260c0015b60405180910390f35b6101bd6101b8366004614204565b610385565b005b6002546101d2906001600160a01b031681565b6040516001600160a01b0390911681526020016101a1565b6101fd6101f836600461425d565b6104c3565b60405160ff90911681526020016101a1565b61022261021d36600461425d565b610592565b6040516101a1919061427a565b61024261023d3660046142d7565b6108aa565b6040516101a19190600060808201905060ff835116825260ff602084015116602083015260408301511515604083015260608301511515606083015292915050565b6101bd6109a0565b6101bd61029a36600461425d565b6109b4565b6000546001600160a01b03166101d2565b6101bd6102be36600461425d565b610a4c565b6102d66102d1366004614204565b61258a565b6040516101a1919061430f565b6101bd6102f136600461432d565b612673565b6101bd610304366004614372565b6127d3565b6101bd61031736600461438d565b6127fd565b6101bd61032a366004614569565b6128d5565b61034261033d366004614670565b612f19565b60405190151581526020016101a1565b6101bd610360366004614372565b613592565b61037861037336600461425d565b6135d0565b6040516101a191906146f7565b60ff8082166000908152600160208190526040909120600401549091161515146103ca5760405162461bcd60e51b81526004016103c190614803565b60405180910390fd5b6000807f00000000000000000000000000000000000000000000000000000000000000006001600160a01b0316631cf8a321878787876040518563ffffffff1660e01b815260040161041f949392919061483a565b606060405180830381865afa15801561043c573d6000803e3d6000fd5b505050506040513d601f19601f8201168201806040525081019061046091906148c7565b915091508115610479576104743384613886565b6104bb565b805160ff8481166000908152600160209081526040808320338452600201825290912080549185015183166101000261ffff1990921692909316919091171790555b505050505050565b60ff80821660009081526001602081905260408220600401549192919091161515146105015760405162461bcd60e51b81526004016103c190614803565b60405163436fadf360e11b815260ff831660048201527f00000000000000000000000000000000000000000000000000000000000000006001600160a01b0316906386df5be690602401602060405180830381865afa158015610568573d6000803e3d6000fd5b505050506040513d601f19601f8201168201806040525081019061058c91906148fb565b92915050565b60ff808216600090815260016020819052604090912060040154606092161515146105cf5760405162461bcd60e51b81526004016103c190614803565b60405163436fadf360e11b815260ff831660048201526000907f00000000000000000000000000000000000000000000000000000000000000006001600160a01b0316906386df5be690602401602060405180830381865afa158015610639573d6000803e3d6000fd5b505050506040513d601f19601f8201168201806040525081019061065d91906148fb565b9050600061066c82600161492e565b610677836003614947565b6106819190614947565b61068c90600161492e565b60ff16905060008167ffffffffffffffff8111156106ac576106ac614124565b6040519080825280602002602001820160405280156106f157816020015b60408051808201909152600080825260208201528152602001906001900390816106ca5790505b50905060405180604001604052808460ff1681526020018460ff168152508160008151811061072257610722614963565b602090810291909101015260015b8360ff168160ff16116108a15760008161074b600182614979565b610756906003614947565b6107609190614947565b61076b90600161492e565b60ff16905060007f00000000000000000000000000000000000000000000000000000000000000006001600160a01b03166339e5c4a0856000815181106107b4576107b4614963565b6020026020010151856040518363ffffffff1660e01b81526004016107da929190614992565b600060405180830381865afa1580156107f7573d6000803e3d6000fd5b505050506040513d6000823e601f3d908101601f1916820160405261081f91908101906149c0565b905060005b81518160ff16101561088b57818160ff168151811061084557610845614963565b6020026020010151858260ff168561085d9190614a5c565b8151811061086d5761086d614963565b6020026020010181905250808061088390614a6f565b915050610824565b505050808061089990614a6f565b915050610730565b50949350505050565b60408051608081018252600080825260208201819052918101829052606081019190915260ff80831660009081526001602081905260409091206004015490911615151461090a5760405162461bcd60e51b81526004016103c190614803565b6040516326811c4360e11b81526001600160a01b037f00000000000000000000000000000000000000000000000000000000000000001690634d023886906109589086908690600401614992565b608060405180830381865afa158015610975573d6000803e3d6000fd5b505050506040513d601f19601f820116820180604052508101906109999190614b14565b9392505050565b6109a861395f565b6109b2600061398c565b565b6109bc61395f565b60ff8082166000908152600160208190526040909120600401549091161515146109f85760405162461bcd60e51b81526004016103c190614803565b60ff8116600081815260016020908152604091829020600401805460ff1916905590519182527f4df34531b3f238bc8f90ad83236d8c752e7444e434bb5fc99f888f0a6345c0e7910160405180910390a150565b610a5461395f565b60ff808216600090815260016020819052604090912060040154909116151514610a905760405162461bcd60e51b81526004016103c190614803565b60ff8116600090815260016020526040902054610aaf90600390614b30565b600003610e5b5760ff81811660008181526001602081905260409182902001549051634affc34f60e01b8152600481019290925290911660248201527f00000000000000000000000000000000000000000000000000000000000000006001600160a01b031690634affc34f90604401600060405180830381600087803b158015610b3957600080fd5b505af1158015610b4d573d6000803e3d6000fd5b50505060ff808316600090815260016020819052604082200180549092169250610b7683614a6f565b91906101000a81548160ff021916908360ff160217905550507fab00852360aeece33bb03176d4e62fbb27adf3fd1a81b9d543c1ae388003b0ac81604051610bc7919060ff91909116815260200190565b60405180910390a160005b60ff8083166000908152600160205260409020600301549082161015610e595760ff8083166000908152600160205260408120600381018054929360029092019284928616908110610c2657610c26614963565b60009182526020808320909101546001600160a01b03168352828101939093526040918201902081518083019092525460ff808216835261010090910416918101919091529050610c7781846139dc565b15610e465760ff80841660009081526001602052604090206003018054610cc5928516908110610ca957610ca9614963565b6000918252602090912001546001600160a01b03168385613a7b565b600160008460ff1681526020019081526020016000206003018260ff1681548110610cf257610cf2614963565b6000918252602091829020015460405160ff861681526001600160a01b03909116917f7098e36d986448e47b2ec53e41ddd178ac0774637ee2227e84baba39b0c1c7b1910160405180910390a260ff8316600090815260016020819052604090912060030180549091610d6491614b52565b81548110610d7457610d74614963565b9060005260206000200160009054906101000a90046001600160a01b0316600160008560ff1681526020019081526020016000206003018360ff1681548110610dbf57610dbf614963565b600091825260208083209190910180546001600160a01b0319166001600160a01b03949094169390931790925560ff85168152600190915260409020600301805480610e0d57610e0d614b65565b600082815260209020810160001990810180546001600160a01b031916905501905560ff821615610e465781610e4281614b7b565b9250505b5080610e5181614a6f565b915050610bd2565b505b60ff811660009081526001602052604081206003015467ffffffffffffffff811115610e8957610e89614124565b604051908082528060200260200182016040528015610ece57816020015b6040805180820190915260008082526020820152815260200190600190039081610ea75790505b5060ff83166000908152600160205260408120600301549192509067ffffffffffffffff811115610f0157610f01614124565b604051908082528060200260200182016040528015610f2a578160200160208202803683370190505b50905060005b60ff8085166000908152600160205260409020600301549082161015610f89576001828260ff1681518110610f6757610f67614963565b9115156020928302919091019091015280610f8181614a6f565b915050610f30565b5060005b60ff80851660009081526001602052604090206003015490821610156116305760ff8085166000908152600160205260408120600381018054929360029092019284928616908110610fe157610fe1614963565b60009182526020808320909101546001600160a01b039081168452908301939093526040909101902060010154650100000000009004161461161e5760ff8085166000908152600160205260408120600381018054600290920193909190851690811061105057611050614963565b60009182526020808320909101546001600160a01b0316835282019290925260400190206001015460ff640100000000909104161561161e5760ff8085166000908152600160205260408120600381018054929384936001600160a01b037f00000000000000000000000000000000000000000000000000000000000000001693631cf8a3219360029091019286929089169081106110f1576110f1614963565b60009182526020808320909101546001600160a01b03168352828101939093526040918201812060ff808d1683526001909452918120600381018054939460029092019390918a1690811061114857611148614963565b60009182526020808320909101546001600160a01b03168352828101939093526040918201812060019081015460ff8e8116845291909452918120600381018054948416946002909201939091908b169081106111a7576111a7614963565b60009182526020808320909101546001600160a01b0316835282019290925260409081019091206001015490516001600160e01b031960e086901b1681526111ff93929160ff61010090910416908c90600401614b98565b606060405180830381865afa15801561121c573d6000803e3d6000fd5b505050506040513d601f19601f8201168201806040525081019061124091906148c7565b9150915081156113d157600160008760ff1681526020019081526020016000206003018360ff168154811061127757611277614963565b600091825260209182902001548251838301516040805160ff808d168252938416958101959095529116908301526001600160a01b0316907fd44ddf7f8e572e76d7ed6bf350d88367a33cf9a7d19d5069c392802305d51f6c9060600160405180910390a260ff8087166000908152600160205260409020600301805461132592861690811061130957611309614963565b6000918252602090912001546001600160a01b03168488613a7b565b6000848460ff168151811061133c5761133c614963565b91151560209283029190910182015260ff80881660009081526001909252604082206003810180548594600290930193881690811061137d5761137d614963565b60009182526020808320909101546001600160a01b03168352828101939093526040909101902082518154939092015160ff9081166101000261ffff199094169216919091179190911790555061161e9050565b600160008760ff1681526020019081526020016000206003018360ff16815481106113fe576113fe614963565b600091825260208083209091015460ff808a1684526001909252604083206003810180546001600160a01b03909316947ff1e9c1d54f160cab3c8602dcfbf5fbe3e012ed037d80057eca695f74d26077a0946002909301939092891690811061146957611469614963565b60009182526020808320909101546001600160a01b0316835282810193909352604091820181205460ff8c8116835260019094529181206003810180549385169460029092019390918a169081106114c3576114c3614963565b6000918252602080832091909101546001600160a01b03168352828101939093526040918201902054865187840151835160ff96871681526101009093048616948301949094528416818301529183166060830152918a16608082015290519081900360a00190a260ff8087166000908152600160205260408120600381018054859460029093019392881690811061155e5761155e614963565b60009182526020808320909101546001600160a01b031683528281019390935260409182018120845181549585015160ff9081166101000261ffff19909716918116919091179590951790558984168152600190925290206003018054909185169081106115ce576115ce614963565b6000918252602091829020015460405160ff891681526001600160a01b03909116917f51f35fa2867d710ef60e6209b0ca28b42abd534ed14e1f8394e793f42253c9f6910160405180910390a250505b8061162881614a6f565b915050610f8d565b5060005b60ff80851660009081526001602052604090206003015490821610156119c257818160ff168151811061166957611669614963565b6020026020010151156119b05760ff808516600090815260016020526040812060038101805492936001600160a01b037f0000000000000000000000000000000000000000000000000000000000000000169363d6192ad39360020192869290919088169081106116dc576116dc614963565b60009182526020808320909101546001600160a01b03168352828101939093526040918201812060ff808c168352600190945291812060038101805493946002909201939091891690811061173357611733614963565b60009182526020808320909101546001600160a01b03168352828101939093526040918201812060019081015460ff8d811684529190945291812060038101805462010000909504841694600292909201939091908a1690811061179957611799614963565b60009182526020808320909101546001600160a01b0316835282019290925260409081019091206001015490516001600160e01b031960e086901b1681526117f193929160ff63010000009091041690600401614bb6565b6040805180830381865afa15801561180d573d6000803e3d6000fd5b505050506040513d601f19601f820116820180604052508101906118319190614bee565b905080848360ff168151811061184957611849614963565b6020026020010181905250600160008660ff1681526020019081526020016000206003018260ff168154811061188157611881614963565b600091825260208083209091015460ff80891684526001909252604083206003810180546001600160a01b03909316947f78546d5ff977d70d771d8edba5bdd99150ec97e7837d6e2af4384b1605a4372d94600290930193909288169081106118ec576118ec614963565b60009182526020808320909101546001600160a01b0316835282810193909352604091820181205460ff8b811683526001909452918120600381018054938516946002909201939091891690811061194657611946614963565b6000918252602080832091909101546001600160a01b03168352828101939093526040918201902054865187840151835160ff96871681526101009093048616948301949094528416818301529183166060830152918916608082015290519081900360a00190a2505b806119ba81614a6f565b915050611634565b5060005b60ff808516600090815260016020526040902060030154908216101561200a5760005b60ff8086166000908152600160205260409020600301549082161015611ff7578060ff168260ff1614611fe557828260ff1681518110611a2b57611a2b614963565b60200260200101518015611a585750828160ff1681518110611a4f57611a4f614963565b60200260200101515b8015611b16575060ff80861660009081526001602052604081206003810180546002909201939091908616908110611a9257611a92614963565b60009182526020808320909101546001600160a01b0316835282810193909352604091820181205460ff898116835260019094529181206003810180549385169460029092019390918616908110611aec57611aec614963565b60009182526020808320909101546001600160a01b0316835282019290925260400190205460ff16145b8015611bdf575060ff80861660009081526001602052604081206003810180546002909201939091908616908110611b5057611b50614963565b60009182526020808320909101546001600160a01b0316835282810193909352604091820181205460ff8981168352600190945291812060038101805461010090940485169460029092019390918616908110611baf57611baf614963565b60009182526020808320909101546001600160a01b0316835282019290925260400190205460ff61010090910416145b15611dbc576000838360ff1681518110611bfb57611bfb614963565b6020026020010190151590811515815250506000838260ff1681518110611c2457611c24614963565b602002602001019015159081151581525050600160008660ff1681526020019081526020016000206003018260ff1681548110611c6357611c63614963565b6000918252602091829020015460405160ff881681526001600160a01b03909116917f783de3ac95b82563b70ac74b3a843e5f9f71a653b9518e6e1762b39151c0f710910160405180910390a2600160008660ff1681526020019081526020016000206003018160ff1681548110611cdd57611cdd614963565b6000918252602091829020015460405160ff881681526001600160a01b03909116917f783de3ac95b82563b70ac74b3a843e5f9f71a653b9518e6e1762b39151c0f710910160405180910390a260ff80861660009081526001602052604090206003018054611d73928516908110611d5757611d57614963565b6000918252602090912001546001600160a01b03168387613a7b565b60ff80861660009081526001602052604090206003018054611dbc928416908110611da057611da0614963565b6000918252602090912001546001600160a01b03168287613a7b565b828260ff1681518110611dd157611dd1614963565b60200260200101518015611e65575060ff80861660009081526001602052604081206003810180546002909201939091908616908110611e1357611e13614963565b60009182526020808320909101546001600160a01b03168352820192909252604001902054845160ff918216918691908416908110611e5457611e54614963565b60200260200101516000015160ff16145b8015611ef6575060ff80861660009081526001602052604081206003810180546002909201939091908616908110611e9f57611e9f614963565b60009182526020808320909101546001600160a01b03168352820192909252604001902054845160ff6101009092048216918691908416908110611ee557611ee5614963565b60200260200101516020015160ff16145b15611fe557600160008660ff1681526020019081526020016000206003018160ff1681548110611f2857611f28614963565b600091825260208083209091015460ff80891684526001909252604090922060030180546001600160a01b039093169290918516908110611f6b57611f6b614963565b6000918252602091829020015460405160ff891681526001600160a01b03909116917fb2ee3834f34c038f7f34d57f8ce213e4ee56fecd33556013e0f66b1e32ee14bc910160405180910390a360ff80861660009081526001602052604090206003018054611fe5928516908110611d5757611d57614963565b80611fef81614a6f565b9150506119e9565b508061200281614a6f565b9150506119c6565b5060005b60ff80851660009081526001602052604090206003015490821610156121995760006001600160a01b0316600160008660ff1681526020019081526020016000206003018260ff168154811061206657612066614963565b6000918252602090912001546001600160a01b0316036121875760ff84166000908152600160208190526040909120600301805490916120a591614b52565b815481106120b5576120b5614963565b9060005260206000200160009054906101000a90046001600160a01b0316600160008660ff1681526020019081526020016000206003018260ff168154811061210057612100614963565b600091825260208083209190910180546001600160a01b0319166001600160a01b03949094169390931790925560ff8616815260019091526040902060030180548061214e5761214e614b65565b600082815260209020810160001990810180546001600160a01b031916905501905560ff811615612187578061218381614b7b565b9150505b8061219181614a6f565b91505061200e565b5060ff831660009081526001602052604081206003015490036122205760405160ff841681526000907f8403b4a1c998f6768b577f2c265d744e2f4d05982059b4d82b34eb822bdc17d1906020015b60405180910390a260ff83166000908152600160205260409020600401805461ff00191661010017905561221b836109b4565b61254e565b60ff831660009081526001602081905260409091206003015490036122af5760ff83166000908152600160205260408120600301805490919061226557612265614963565b6000918252602091829020015460405160ff861681526001600160a01b03909116917f8403b4a1c998f6768b577f2c265d744e2f4d05982059b4d82b34eb822bdc17d191016121e8565b60ff8316600090815260016020526040812060030180549091906122d5576122d5614963565b60009182526020808320919091015460405160ff871681526001600160a01b0390911692917f2cee3725d64bc62c413fa35348815210ff376bf4f13627d82b6ac0d0efc6e8cd910160405180910390a360005b60ff808516600090815260016020526040902060030154908216101561253a5760ff808516600090815260016020526040812060038101805460069460029093019392861690811061237c5761237c614963565b60009182526020808320909101546001600160a01b03168352820192909252604001902060019081018054909160ff19909116908360068111156123c2576123c26146bf565b021790555060ff80851660009081526001602052604081206003810180549293600290920192849286169081106123fb576123fb614963565b6000918252602080832091909101546001600160a01b0316835282810193909352604091820181206001908101805461ff00191661010060ff978816021790558885168252909252812060038101805460069460029093019392861690811061246657612466614963565b60009182526020808320909101546001600160a01b031683528201929092526040019020600101805462ff00001916620100008360068111156124ab576124ab6146bf565b021790555060ff80851660009081526001602052604081206003810180549293600290920192849286169081106124e4576124e4614963565b60009182526020808320909101546001600160a01b031683528201929092526040019020600101805460ff9290921663010000000263ff000000199092169190911790558061253281614a6f565b915050612328565b5061254483613bf7565b5061254e83613d18565b60405160ff841681527fd44344392ee117b90bc172ab74cce9c43a862f0d5e11a336b3885fde466c244e906020015b60405180910390a1505050565b604080518082019091526000808252602082015260ff8083166000908152600160208190526040909120600401549091161515146125da5760405162461bcd60e51b81526004016103c190614803565b604051630d42527560e11b81526001600160a01b037f00000000000000000000000000000000000000000000000000000000000000001690631a84a4ea9061262a90889088908890600401614c0a565b6040805180830381865afa158015612646573d6000803e3d6000fd5b505050506040513d601f19601f8201168201806040525081019061266a9190614bee565b95945050505050565b6002546001600160a01b0316331461269d5760405162461bcd60e51b81526004016103c190614c28565b60ff8260ff16106126f05760405162461bcd60e51b815260206004820152601f60248201527f4d6178696d756d206e756d626572206f662067616d657320726561636865640060448201526064016103c1565b60ff80831660009081526001602052604090206004015416156127635760405162461bcd60e51b815260206004820152602560248201527f47616d652077697468207468697320494420616c726561647920696e2070726f604482015264677265737360d81b60648201526084016103c1565b60ff82166000908152600160208190526040909120600401805460ff191690911790556127908183613d79565b61279982613d18565b60405160ff831681527f13cb55fc1bec4b9f4cd4c22f154240b469cb108a23a35aa599df0c3da46f2d149060200160405180910390a15050565b6127db61395f565b600280546001600160a01b0319166001600160a01b0392909216919091179055565b60ff8082166000908152600160208190526040909120600401546201000090049091161515146128795760405162461bcd60e51b815260206004820152602160248201527f436f6d6d6974206d6f76657320686173206e6f742073746172746564207965746044820152602160f81b60648201526084016103c1565b60ff811660008181526001602090815260408083203380855260059091018352928190208690555192835290917f38b5330dac100f70d75e8ee186192e45592ca13e2ea5e536677df27911c04897910160405180910390a25050565b6128dd61395f565b60ff8082166000908152600160208190526040909120600401549091161515146129195760405162461bcd60e51b81526004016103c190614803565b8151875114801561292b575081518651145b8015612938575081518551145b8015612945575081518451145b8015612952575081518351145b61299e5760405162461bcd60e51b815260206004820152601860248201527f4172726179206c656e67746873206d757374206d61746368000000000000000060448201526064016103c1565b60005b8251811015612f0f5760008882815181106129be576129be614963565b60200260200101518883815181106129d8576129d8614963565b60200260200101518884815181106129f2576129f2614963565b6020026020010151888581518110612a0c57612a0c614963565b6020026020010151888681518110612a2657612a26614963565b6020026020010151604051602001612a42959493929190614c94565b60408051601f1981840301815282825280516020918201208383019092526000808452908301529150604080518082019091526000808252602082015282600160008760ff1681526020019081526020016000206005016000888781518110612aad57612aad614963565b60200260200101516001600160a01b03166001600160a01b031681526020019081526020016000205403612ef9576000600160008760ff1681526020019081526020016000206002016000888781518110612b0a57612b0a614963565b60200260200101516001600160a01b03166001600160a01b0316815260200190815260200160002090508b8581518110612b4657612b46614963565b60200260200101518160010160006101000a81548160ff02191690836006811115612b7357612b736146bf565b02179055508060010160199054906101000a900460ff1660ff168b8681518110612b9f57612b9f614963565b602002602001015160ff1611612bce578a8581518110612bc157612bc1614963565b6020026020010151612bde565b6001810154600160c81b900460ff165b8160010160016101000a81548160ff021916908360ff160217905550898581518110612c0c57612c0c614963565b602090810291909101015160018201805462ff0000191662010000836006811115612c3957612c396146bf565b021790555080600101601a9054906101000a900460ff1660ff16898681518110612c6557612c65614963565b602002602001015160ff1611612c9457888581518110612c8757612c87614963565b6020026020010151612ca4565b6001810154600160d01b900460ff165b60018201805464ff000000001960ff939093166301000000029290921664ffff00000019909216919091176401000000001790558b516001600160a01b037f00000000000000000000000000000000000000000000000000000000000000001690631a84a4ea9083908f9089908110612d1f57612d1f614963565b60200260200101518460010160019054906101000a900460ff166040518463ffffffff1660e01b8152600401612d5793929190614bb6565b6040805180830381865afa158015612d73573d6000803e3d6000fd5b505050506040513d601f19601f82011682018060405250810190612d979190614bee565b92507f00000000000000000000000000000000000000000000000000000000000000006001600160a01b0316631a84a4ea848c8881518110612ddb57612ddb614963565b60200260200101518460010160039054906101000a900460ff166040518463ffffffff1660e01b8152600401612e1393929190614c0a565b6040805180830381865afa158015612e2f573d6000803e3d6000fd5b505050506040513d601f19601f82011682018060405250810190612e539190614bee565b9150868581518110612e6757612e67614963565b60209081029190910181015160ff8089166000818152600185526040908190205488518987015189518a89015185519687529886019390935290851692840192909252908316606083015282166080820152921660a08301526001600160a01b0316907faff0b78027ac9f4904ee624bc84e3126d0e7d96ce215c5db5158441acb0b38cf9060c00160405180910390a2505b5050508080612f0790614cde565b9150506129a1565b5050505050505050565b6002546000906001600160a01b03163314612f465760405162461bcd60e51b81526004016103c190614c28565b60ff808516600090815260016020526040902060040154610100900416158015612f8c575060ff8085166000908152600160208190526040909120600401549091161515145b612fa85760405162461bcd60e51b81526004016103c190614803565b60ff80851660009081526001602090815260408083206001600160a01b038a1684526002019091529020541615801590613011575060ff80851660009081526001602090815260408083206001600160a01b038a16845260020190915290205461010090041615155b156130785760ff84811660009081526001602090815260408083206001600160a01b038a168085526002909101909252918290205491516308538db760e41b81526004810191909152818316602482015261010090910490911660448201526064016103c1565b604080518082019091526000808252602082015260005b6040516342c39d9160e01b815260ff871660048201527f00000000000000000000000000000000000000000000000000000000000000006001600160a01b0316906342c39d919060240160408051808303816000875af11580156130f7573d6000803e3d6000fd5b505050506040513d601f19601f8201168201806040525081019061311b9190614bee565b9150613161604051806040016040528060138152602001724e657720726e6420706169722025732c20257360681b815250836000015160ff16846020015160ff1661402a565b60005b60ff8088166000908152600160205260409020600301549082161015613300576132086040518060400160405280601781526020017f696e206c6f6f702025732c20616464726573733a2025730000000000000000008152508260ff16600160008b60ff1681526020019081526020016000206003018460ff16815481106131ee576131ee614963565b6000918252602090912001546001600160a01b0316614071565b825160ff888116600090815260016020526040812060038101805494841694600290920193909190861690811061324157613241614963565b60009182526020808320909101546001600160a01b0316835282019290925260400190205460ff161480156132e0575060208084015160ff898116600090815260019093526040832060038101805493831694600290920193919290919086169081106132b0576132b0614963565b60009182526020808320909101546001600160a01b0316835282019290925260400190205460ff61010090910416145b156132ee5760019150613300565b806132f881614a6f565b915050613164565b508061308f57604080516101408101825283815260006020808301828152838501839052606084018390526080840183905260a084018390526001600160a01b038c1660c0850181905260ff8b811660e08701528a8116610100808801919091528d82166101208801819052865260018086528887209387526002909301855296909420855180518254919095015194861661ffff1990911617939094169095029190911782555181840180549394859460ff1916908360068111156133c8576133c86146bf565b0217905550604082015160018201805460ff9092166101000261ff001983168117825560608501519262ff00001990911662ffff00199091161762010000836006811115613418576134186146bf565b021790555060808201516001918201805460a085015160c086015160e08701516101008801516101209098015160ff908116600160d81b0260ff60d81b19998216600160d01b029990991661ffff60d01b19928216600160c81b0260ff60c81b196001600160a01b0395861665010000000000021665010000000000600160d01b03199615156401000000000264ff00000000199a85166301000000029a909a1664ffff0000001990981697909717989098179490941694909417959095179490941617949094179055918916600090815260208281526040808320600301805494850181558352918190209092018054938c166001600160a01b03199094168417905585519186015190517f5e5c5018f010da587f4ea3677380307dc0fb74d57d455db252799686dbfbd0599261357c928c928c908c9060ff95861681529385166020850152918416604084015283166060830152909116608082015260a00190565b60405180910390a2506001979650505050505050565b61359a61395f565b6001600160a01b0381166135c457604051631e4fbdf760e01b8152600060048201526024016103c1565b6135cd8161398c565b50565b60ff8082166000908152600160208190526040909120600401546060921615151461360d5760405162461bcd60e51b81526004016103c190614803565b60ff821660009081526001602052604081206003015467ffffffffffffffff81111561363b5761363b614124565b6040519080825280602002602001820160405280156136c957816020015b604080516101808101825260006101408201818152610160830182905282526020808301829052928201819052606082018190526080820181905260a0820181905260c0820181905260e08201819052610100820181905261012082015282526000199092019101816136595790505b50905060005b60ff841660009081526001602052604090206003015481101561387f5760ff84166000908152600160205260408120600381018054600290920192918490811061371b5761371b614963565b60009182526020808320909101546001600160a01b03168352828101939093526040918201902081516101808101909252805460ff808216610140850190815261010090920481166101608501529083526001820154929391929184019116600681111561378b5761378b6146bf565b600681111561379c5761379c6146bf565b8152600182015460ff610100820481166020840152604090920191620100009091041660068111156137d0576137d06146bf565b60068111156137e1576137e16146bf565b81526001919091015460ff630100000082048116602084015264010000000082048116151560408401526001600160a01b03650100000000008304166060840152600160c81b820481166080840152600160d01b8204811660a0840152600160d81b9091041660c090910152825183908390811061386157613861614963565b6020026020010181905250808061387790614cde565b9150506136cf565b5092915050565b60ff8082166000908152600160208190526040909120600401549091161515146138c25760405162461bcd60e51b81526004016103c190614803565b6000805b60ff808416600090815260016020526040902060030154908216101561394e5760ff808416600090815260016020526040902060030180546001600160a01b03871692841690811061391a5761391a614963565b6000918252602090912001546001600160a01b03160361393c5780915061394e565b8061394681614a6f565b9150506138c6565b5061395a838284613a7b565b505050565b6000546001600160a01b031633146109b25760405163118cdaa760e01b81523360048201526024016103c1565b600080546001600160a01b038381166001600160a01b0319831681178455604051919092169283917f8be0079c531659141344cd1fd0a4f28419497f9722a3daafe3b4186f6b6457e09190a35050565b6000807f00000000000000000000000000000000000000000000000000000000000000006001600160a01b0316634d02388685856040518363ffffffff1660e01b8152600401613a2d929190614992565b608060405180830381865afa158015613a4a573d6000803e3d6000fd5b505050506040513d601f19601f82011682018060405250810190613a6e9190614b14565b6060015115949350505050565b60ff80821660009081526001602052604090206003015490831610613ae25760405162461bcd60e51b815260206004820152601860248201527f496e6465782076616c7565206f7574206f662072616e6765000000000000000060448201526064016103c1565b60ff808216600090815260016020819052604090912060040154909116151514613b1e5760405162461bcd60e51b81526004016103c190614803565b60405160ff821681526001600160a01b038416907fabe2a4edb03972506a4064b683e5482b1f09f2fb96bd4463b7b15b38cbd5b1869060200160405180910390a260ff80821660008181526001602081815260408084206001600160a01b038a168552600281018352908420805461ffff19168155830180546001600160e01b0319169055938352526003909101805491929091908516908110613bc457613bc4614963565b9060005260206000200160006101000a8154816001600160a01b0302191690836001600160a01b03160217905550505050565b60405163436fadf360e11b815260ff8216600482015260009081906001600160a01b037f000000000000000000000000000000000000000000000000000000000000000016906386df5be690602401602060405180830381865afa158015613c63573d6000803e3d6000fd5b505050506040513d601f19601f82011682018060405250810190613c8791906148fb565b60ff84166000908152600160205260408120805492935090613ca883614cde565b909155505060ff838116600081815260016020908152604091829020548251938452908301529183168183015290517f44d8fc4a70679f71d5b762b5218cbfb0c858bb7e015b1effe03793d2909c20f69181900360600190a1505060ff1660009081526001602052604090205490565b60ff808216600090815260016020819052604090912060040154909116151514613d545760405162461bcd60e51b81526004016103c190614803565b60ff166000908152600160205260409020600401805462ff0000191662010000179055565b60ff808216600090815260016020819052604090912060040154909116151514613db55760405162461bcd60e51b81526004016103c190614803565b60005b60ff8216600090815260016020526040902060030154811015613e545760ff821660009081526001602052604081206003810180546002909201929184908110613e0457613e04614963565b60009182526020808320909101546001600160a01b031683528201929092526040019020805461ffff1916815560010180546001600160e01b031916905580613e4c81614cde565b915050613db8565b5060ff81166000908152600160205260408120613e76916003909101906140d9565b604051631a405d8760e31b815260ff8084166004830152821660248201526000907f00000000000000000000000000000000000000000000000000000000000000006001600160a01b03169063d202ec38906044016000604051808303816000875af1158015613eea573d6000803e3d6000fd5b505050506040513d6000823e601f3d908101601f19168201604052613f129190810190614cf7565b905060005b8151811015613fe5577fa0c5e7441ab424c9fb8f47238c88c2c172bf9be1898748ea348b2a8bb92d6dbb83838381518110613f5457613f54614963565b602002602001015160000151848481518110613f7257613f72614963565b602002602001015160200151858581518110613f9057613f90614963565b602002602001015160400151604051613fcb949392919060ff9485168152928416602084015292166040820152901515606082015260800190565b60405180910390a180613fdd81614cde565b915050613f17565b50613fef82613bf7565b506040805160ff8086168252841660208201527fd76a0a97b7d547fef69b0cd90fb02087b761703ae2b5e4e91a99e8fd17e308ad910161257d565b61395a83838360405160240161404293929190614dce565b60408051601f198184030181529190526020810180516001600160e01b031663ca47c4eb60e01b1790526140b4565b61395a83838360405160240161408993929190614df3565b60408051601f198184030181529190526020810180516001600160e01b031663038fd88960e31b1790525b6135cd8160006a636f6e736f6c652e6c6f679050600080835160208501845afa505050565b50805460008255906000526020600020908101906135cd91905b8082111561410757600081556001016140f3565b5090565b60006020828403121561411d57600080fd5b5035919050565b634e487b7160e01b600052604160045260246000fd5b6040805190810167ffffffffffffffff8111828210171561415d5761415d614124565b60405290565b604051601f8201601f1916810167ffffffffffffffff8111828210171561418c5761418c614124565b604052919050565b60ff811681146135cd57600080fd5b80356141ae81614194565b919050565b6000604082840312156141c557600080fd5b6141cd61413a565b905081356141da81614194565b815260208201356141ea81614194565b602082015292915050565b8035600781106141ae57600080fd5b60008060008060a0858703121561421a57600080fd5b61422486866141b3565b9350614232604086016141f5565b9250606085013561424281614194565b9150608085013561425281614194565b939692955090935050565b60006020828403121561426f57600080fd5b813561099981614194565b602080825282518282018190526000919060409081850190868401855b828110156142ca576142ba848351805160ff908116835260209182015116910152565b9284019290850190600101614297565b5091979650505050505050565b600080606083850312156142ea57600080fd5b6142f484846141b3565b9150604083013561430481614194565b809150509250929050565b6040810161058c8284805160ff908116835260209182015116910152565b6000806040838503121561434057600080fd5b823561434b81614194565b9150602083013561430481614194565b80356001600160a01b03811681146141ae57600080fd5b60006020828403121561438457600080fd5b6109998261435b565b600080604083850312156143a057600080fd5b82359150602083013561430481614194565b600067ffffffffffffffff8211156143cc576143cc614124565b5060051b60200190565b600082601f8301126143e757600080fd5b813560206143fc6143f7836143b2565b614163565b82815260059290921b8401810191818101908684111561441b57600080fd5b8286015b8481101561443d57614430816141f5565b835291830191830161441f565b509695505050505050565b600082601f83011261445957600080fd5b813560206144696143f7836143b2565b82815260059290921b8401810191818101908684111561448857600080fd5b8286015b8481101561443d57803561449f81614194565b835291830191830161448c565b600082601f8301126144bd57600080fd5b813560206144cd6143f7836143b2565b82815260059290921b840181019181810190868411156144ec57600080fd5b8286015b8481101561443d57803583529183019183016144f0565b600082601f83011261451857600080fd5b813560206145286143f7836143b2565b82815260059290921b8401810191818101908684111561454757600080fd5b8286015b8481101561443d5761455c8161435b565b835291830191830161454b565b600080600080600080600060e0888a03121561458457600080fd5b873567ffffffffffffffff8082111561459c57600080fd5b6145a88b838c016143d6565b985060208a01359150808211156145be57600080fd5b6145ca8b838c01614448565b975060408a01359150808211156145e057600080fd5b6145ec8b838c016143d6565b965060608a013591508082111561460257600080fd5b61460e8b838c01614448565b955060808a013591508082111561462457600080fd5b6146308b838c016144ac565b945060a08a013591508082111561464657600080fd5b506146538a828b01614507565b92505061466260c089016141a3565b905092959891949750929550565b6000806000806080858703121561468657600080fd5b61468f8561435b565b9350602085013561469f81614194565b925060408501356146af81614194565b9150606085013561425281614194565b634e487b7160e01b600052602160045260246000fd5b600781106146f357634e487b7160e01b600052602160045260246000fd5b9052565b602080825282518282018190526000919060409081850190868401855b828110156142ca578151614739858251805160ff908116835260209182015116910152565b86810151614749878701826146d5565b5085810151606061475e8188018360ff169052565b82015190506080614771878201836146d5565b820151905060a06147868782018360ff169052565b820151905060c061479a8782018315159052565b820151905060e06147b5878201836001600160a01b03169052565b82015190506101006147cb8782018360ff169052565b82015190506101206147e18782018360ff169052565b919091015160ff16610140860152506101609093019290850190600101614714565b60208082526019908201527f47616d6520686173206e6f742073746172746564207965742100000000000000604082015260600190565b60a081016148588287805160ff908116835260209182015116910152565b61486560408301866146d5565b60ff8416606083015260ff8316608083015295945050505050565b805180151581146141ae57600080fd5b6000604082840312156148a257600080fd5b6148aa61413a565b905081516148b781614194565b815260208201516141ea81614194565b600080606083850312156148da57600080fd5b6148e383614880565b91506148f28460208501614890565b90509250929050565b60006020828403121561490d57600080fd5b815161099981614194565b634e487b7160e01b600052601160045260246000fd5b60ff818116838216019081111561058c5761058c614918565b60ff818116838216029081169081811461387f5761387f614918565b634e487b7160e01b600052603260045260246000fd5b60ff828116828216039081111561058c5761058c614918565b606081016149b08285805160ff908116835260209182015116910152565b60ff831660408301529392505050565b600060208083850312156149d357600080fd5b825167ffffffffffffffff8111156149ea57600080fd5b8301601f810185136149fb57600080fd5b8051614a096143f7826143b2565b81815260069190911b82018301908381019087831115614a2857600080fd5b928401925b82841015614a5157614a3f8885614890565b82528482019150604084019350614a2d565b979650505050505050565b8082018082111561058c5761058c614918565b600060ff821660ff8103614a8557614a85614918565b60010192915050565b600060808284031215614aa057600080fd5b6040516080810181811067ffffffffffffffff82111715614ac357614ac3614124565b80604052508091508251614ad681614194565b81526020830151614ae681614194565b6020820152614af760408401614880565b6040820152614b0860608401614880565b60608201525092915050565b600060808284031215614b2657600080fd5b6109998383614a8e565b600082614b4d57634e487b7160e01b600052601260045260246000fd5b500690565b8181038181111561058c5761058c614918565b634e487b7160e01b600052603160045260246000fd5b600060ff821680614b8e57614b8e614918565b6000190192915050565b845460ff808216835260089190911c16602082015260a08101614858565b835460ff808216835260089190911c166020820152608081015b614bdd60408301856146d5565b60ff83166060830152949350505050565b600060408284031215614c0057600080fd5b6109998383614890565b60808101614bd08286805160ff908116835260209182015116910152565b60208082526027908201527f43616c6c6572206973206e6f742074686520726567697374726174696f6e20636040820152661bdb9d1c9858dd60ca1b606082015260800190565b60078110614c8d57634e487b7160e01b600052602160045260246000fd5b60f81b9052565b614c9e8187614c6f565b600060ff60f81b808760f81b166001840152614cbd6002840187614c6f565b60f89490941b90931660038201526004810191909152602401949350505050565b600060018201614cf057614cf0614918565b5060010190565b60006020808385031215614d0a57600080fd5b825167ffffffffffffffff811115614d2157600080fd5b8301601f81018513614d3257600080fd5b8051614d406143f7826143b2565b81815260079190911b82018301908381019087831115614d5f57600080fd5b928401925b82841015614a5157614d768885614a8e565b82528482019150608084019350614d64565b6000815180845260005b81811015614dae57602081850181015186830182015201614d92565b506000602082860101526020601f19601f83011685010191505092915050565b606081526000614de16060830186614d88565b60208301949094525060400152919050565b606081526000614e066060830186614d88565b6020830194909452506001600160a01b039190911660409091015291905056fea26469706673582212202b4ac1ebffa5b6172939be744d3d75816ef46de676cb3a967ec462224eea84bd64736f6c63430008140033",
  "linkReferences": {},
  "deployedLinkReferences": {}
}