{
  "_format": "hh-sol-artifact-1",
  "contractName": "GamePunk",
  "sourceName": "contracts/GamePunk.sol",
  "abi": [
    {
      "inputs": [
        {
          "internalType": "address",
          "name": "_mapAddress",
          "type": "address"
        }
      ],
      "stateMutability": "nonpayable",
      "type": "constructor"
    },
    {
      "inputs": [
        {
          "internalType": "address",
          "name": "owner",
          "type": "address"
        }
      ],
      "name": "OwnableInvalidOwner",
      "type": "error"
    },
    {
      "inputs": [
        {
          "internalType": "address",
          "name": "account",
          "type": "address"
        }
      ],
      "name": "OwnableUnauthorizedAccount",
      "type": "error"
    },
    {
      "inputs": [
        {
          "internalType": "address",
          "name": "player",
          "type": "address"
        },
        {
          "internalType": "uint8",
          "name": "q",
          "type": "uint8"
        },
        {
          "internalType": "uint8",
          "name": "r",
          "type": "uint8"
        }
      ],
      "name": "ShipAlreadyAdded",
      "type": "error"
    },
    {
      "anonymous": false,
      "inputs": [
        {
          "indexed": false,
          "internalType": "uint8",
          "name": "gameId",
          "type": "uint8"
        },
        {
          "indexed": false,
          "internalType": "uint8",
          "name": "q",
          "type": "uint8"
        },
        {
          "indexed": false,
          "internalType": "uint8",
          "name": "r",
          "type": "uint8"
        },
        {
          "indexed": false,
          "internalType": "bool",
          "name": "island",
          "type": "bool"
        }
      ],
      "name": "Cell",
      "type": "event"
    },
    {
      "anonymous": false,
      "inputs": [
        {
          "indexed": false,
          "internalType": "uint8",
          "name": "gameId",
          "type": "uint8"
        }
      ],
      "name": "CommitPhaseStarted",
      "type": "event"
    },
    {
      "anonymous": false,
      "inputs": [
        {
          "indexed": false,
          "internalType": "uint8",
          "name": "gameId",
          "type": "uint8"
        }
      ],
      "name": "GameEnded",
      "type": "event"
    },
    {
      "anonymous": false,
      "inputs": [
        {
          "indexed": false,
          "internalType": "uint8",
          "name": "gameId",
          "type": "uint8"
        }
      ],
      "name": "GameStarted",
      "type": "event"
    },
    {
      "anonymous": false,
      "inputs": [
        {
          "indexed": true,
          "internalType": "bool",
          "name": "gameStatus",
          "type": "bool"
        },
        {
          "indexed": true,
          "internalType": "address",
          "name": "winnerAddress",
          "type": "address"
        },
        {
          "indexed": false,
          "internalType": "uint8",
          "name": "gameId",
          "type": "uint8"
        }
      ],
      "name": "GameUpdated",
      "type": "event"
    },
    {
      "anonymous": false,
      "inputs": [
        {
          "indexed": true,
          "internalType": "address",
          "name": "winner",
          "type": "address"
        },
        {
          "indexed": false,
          "internalType": "uint8",
          "name": "gameId",
          "type": "uint8"
        }
      ],
      "name": "GameWinner",
      "type": "event"
    },
    {
      "anonymous": false,
      "inputs": [
        {
          "indexed": false,
          "internalType": "uint8",
          "name": "radius",
          "type": "uint8"
        },
        {
          "indexed": false,
          "internalType": "uint8",
          "name": "gameId",
          "type": "uint8"
        }
      ],
      "name": "MapInitialized",
      "type": "event"
    },
    {
      "anonymous": false,
      "inputs": [
        {
          "indexed": false,
          "internalType": "uint8",
          "name": "gameId",
          "type": "uint8"
        }
      ],
      "name": "MapShrink",
      "type": "event"
    },
    {
      "anonymous": false,
      "inputs": [
        {
          "indexed": true,
          "internalType": "address",
          "name": "player",
          "type": "address"
        },
        {
          "indexed": false,
          "internalType": "uint8",
          "name": "gameId",
          "type": "uint8"
        }
      ],
      "name": "MoveCommitted",
      "type": "event"
    },
    {
      "anonymous": false,
      "inputs": [
        {
          "indexed": true,
          "internalType": "address",
          "name": "player",
          "type": "address"
        },
        {
          "indexed": false,
          "internalType": "uint8",
          "name": "gameId",
          "type": "uint8"
        },
        {
          "indexed": false,
          "internalType": "uint256",
          "name": "roundId",
          "type": "uint256"
        },
        {
          "indexed": false,
          "internalType": "uint8",
          "name": "destQ",
          "type": "uint8"
        },
        {
          "indexed": false,
          "internalType": "uint8",
          "name": "destR",
          "type": "uint8"
        },
        {
          "indexed": false,
          "internalType": "uint8",
          "name": "shotQ",
          "type": "uint8"
        },
        {
          "indexed": false,
          "internalType": "uint8",
          "name": "shotR",
          "type": "uint8"
        }
      ],
      "name": "MoveSubmitted",
      "type": "event"
    },
    {
      "anonymous": false,
      "inputs": [
        {
          "indexed": false,
          "internalType": "uint8",
          "name": "gameId",
          "type": "uint8"
        },
        {
          "indexed": false,
          "internalType": "uint256",
          "name": "roundId",
          "type": "uint256"
        },
        {
          "indexed": false,
          "internalType": "uint8",
          "name": "radius",
          "type": "uint8"
        }
      ],
      "name": "NewRound",
      "type": "event"
    },
    {
      "anonymous": false,
      "inputs": [
        {
          "indexed": true,
          "internalType": "address",
          "name": "previousOwner",
          "type": "address"
        },
        {
          "indexed": true,
          "internalType": "address",
          "name": "newOwner",
          "type": "address"
        }
      ],
      "name": "OwnershipTransferred",
      "type": "event"
    },
    {
      "anonymous": false,
      "inputs": [
        {
          "indexed": true,
          "internalType": "address",
          "name": "player",
          "type": "address"
        },
        {
          "indexed": false,
          "internalType": "uint8",
          "name": "gameId",
          "type": "uint8"
        },
        {
          "indexed": false,
          "internalType": "uint8",
          "name": "q",
          "type": "uint8"
        },
        {
          "indexed": false,
          "internalType": "uint8",
          "name": "r",
          "type": "uint8"
        },
        {
          "indexed": false,
          "internalType": "uint8",
          "name": "speed",
          "type": "uint8"
        },
        {
          "indexed": false,
          "internalType": "uint8",
          "name": "range",
          "type": "uint8"
        }
      ],
      "name": "PlayerAdded",
      "type": "event"
    },
    {
      "anonymous": false,
      "inputs": [
        {
          "indexed": true,
          "internalType": "address",
          "name": "player",
          "type": "address"
        },
        {
          "indexed": false,
          "internalType": "uint8",
          "name": "gameId",
          "type": "uint8"
        }
      ],
      "name": "PlayerDefeated",
      "type": "event"
    },
    {
      "anonymous": false,
      "inputs": [
        {
          "indexed": true,
          "internalType": "address",
          "name": "captain",
          "type": "address"
        },
        {
          "indexed": false,
          "internalType": "uint8",
          "name": "gameId",
          "type": "uint8"
        },
        {
          "indexed": false,
          "internalType": "uint8",
          "name": "q",
          "type": "uint8"
        },
        {
          "indexed": false,
          "internalType": "uint8",
          "name": "r",
          "type": "uint8"
        }
      ],
      "name": "ShipCollidedWithIsland",
      "type": "event"
    },
    {
      "anonymous": false,
      "inputs": [
        {
          "indexed": true,
          "internalType": "address",
          "name": "victim",
          "type": "address"
        },
        {
          "indexed": true,
          "internalType": "address",
          "name": "attacker",
          "type": "address"
        },
        {
          "indexed": false,
          "internalType": "uint8",
          "name": "gameId",
          "type": "uint8"
        }
      ],
      "name": "ShipHit",
      "type": "event"
    },
    {
      "anonymous": false,
      "inputs": [
        {
          "indexed": true,
          "internalType": "address",
          "name": "captain",
          "type": "address"
        },
        {
          "indexed": false,
          "internalType": "uint8",
          "name": "initialQ",
          "type": "uint8"
        },
        {
          "indexed": false,
          "internalType": "uint8",
          "name": "initialR",
          "type": "uint8"
        },
        {
          "indexed": false,
          "internalType": "uint8",
          "name": "q",
          "type": "uint8"
        },
        {
          "indexed": false,
          "internalType": "uint8",
          "name": "r",
          "type": "uint8"
        },
        {
          "indexed": false,
          "internalType": "uint8",
          "name": "gameId",
          "type": "uint8"
        }
      ],
      "name": "ShipMoved",
      "type": "event"
    },
    {
      "anonymous": false,
      "inputs": [
        {
          "indexed": true,
          "internalType": "address",
          "name": "captain",
          "type": "address"
        },
        {
          "indexed": false,
          "internalType": "uint8",
          "name": "gameId",
          "type": "uint8"
        }
      ],
      "name": "ShipMovedInGame",
      "type": "event"
    },
    {
      "anonymous": false,
      "inputs": [
        {
          "indexed": true,
          "internalType": "address",
          "name": "captain",
          "type": "address"
        },
        {
          "indexed": false,
          "internalType": "uint8",
          "name": "fromQ",
          "type": "uint8"
        },
        {
          "indexed": false,
          "internalType": "uint8",
          "name": "fromR",
          "type": "uint8"
        },
        {
          "indexed": false,
          "internalType": "uint8",
          "name": "shotQ",
          "type": "uint8"
        },
        {
          "indexed": false,
          "internalType": "uint8",
          "name": "shotR",
          "type": "uint8"
        },
        {
          "indexed": false,
          "internalType": "uint8",
          "name": "gameId",
          "type": "uint8"
        }
      ],
      "name": "ShipShot",
      "type": "event"
    },
    {
      "anonymous": false,
      "inputs": [
        {
          "indexed": true,
          "internalType": "address",
          "name": "captain",
          "type": "address"
        },
        {
          "indexed": false,
          "internalType": "uint8",
          "name": "gameId",
          "type": "uint8"
        }
      ],
      "name": "ShipSunk",
      "type": "event"
    },
    {
      "anonymous": false,
      "inputs": [
        {
          "indexed": true,
          "internalType": "address",
          "name": "captain",
          "type": "address"
        },
        {
          "indexed": false,
          "internalType": "uint8",
          "name": "gameId",
          "type": "uint8"
        }
      ],
      "name": "ShipSunkOutOfMap",
      "type": "event"
    },
    {
      "anonymous": false,
      "inputs": [
        {
          "indexed": false,
          "internalType": "uint8",
          "name": "gameId",
          "type": "uint8"
        },
        {
          "indexed": false,
          "internalType": "uint256",
          "name": "round",
          "type": "uint256"
        }
      ],
      "name": "SubmitPhaseStarted",
      "type": "event"
    },
    {
      "anonymous": false,
      "inputs": [
        {
          "indexed": false,
          "internalType": "uint8",
          "name": "gameId",
          "type": "uint8"
        }
      ],
      "name": "WorldUpdated",
      "type": "event"
    },
    {
      "inputs": [
        {
          "internalType": "uint8",
          "name": "gameId",
          "type": "uint8"
        },
        {
          "internalType": "address[]",
          "name": "playerAddresses",
          "type": "address[]"
        },
        {
          "internalType": "uint8[]",
          "name": "speeds",
          "type": "uint8[]"
        },
        {
          "internalType": "uint8[]",
          "name": "ranges",
          "type": "uint8[]"
        }
      ],
      "name": "addShip",
      "outputs": [],
      "stateMutability": "nonpayable",
      "type": "function"
    },
    {
      "inputs": [
        {
          "internalType": "uint8",
          "name": "gameId",
          "type": "uint8"
        }
      ],
      "name": "allowSubmitMoves",
      "outputs": [],
      "stateMutability": "nonpayable",
      "type": "function"
    },
    {
      "inputs": [
        {
          "internalType": "uint8",
          "name": "gameId",
          "type": "uint8"
        }
      ],
      "name": "endGame",
      "outputs": [],
      "stateMutability": "nonpayable",
      "type": "function"
    },
    {
      "inputs": [
        {
          "internalType": "uint256",
          "name": "",
          "type": "uint256"
        }
      ],
      "name": "games",
      "outputs": [
        {
          "internalType": "uint256",
          "name": "round",
          "type": "uint256"
        },
        {
          "internalType": "uint8",
          "name": "shrinkNo",
          "type": "uint8"
        },
        {
          "internalType": "bool",
          "name": "gameInProgress",
          "type": "bool"
        },
        {
          "internalType": "bool",
          "name": "stopAddingShips",
          "type": "bool"
        },
        {
          "internalType": "bool",
          "name": "letCommitMoves",
          "type": "bool"
        },
        {
          "internalType": "bool",
          "name": "letSubmitMoves",
          "type": "bool"
        }
      ],
      "stateMutability": "view",
      "type": "function"
    },
    {
      "inputs": [
        {
          "components": [
            {
              "internalType": "uint8",
              "name": "q",
              "type": "uint8"
            },
            {
              "internalType": "uint8",
              "name": "r",
              "type": "uint8"
            }
          ],
          "internalType": "struct SharedStructs.Coordinate",
          "name": "_coord",
          "type": "tuple"
        },
        {
          "internalType": "uint8",
          "name": "gameId",
          "type": "uint8"
        }
      ],
      "name": "getCell",
      "outputs": [
        {
          "components": [
            {
              "internalType": "uint8",
              "name": "q",
              "type": "uint8"
            },
            {
              "internalType": "uint8",
              "name": "r",
              "type": "uint8"
            },
            {
              "internalType": "bool",
              "name": "island",
              "type": "bool"
            },
            {
              "internalType": "bool",
              "name": "exists",
              "type": "bool"
            }
          ],
          "internalType": "struct SharedStructs.Cell",
          "name": "",
          "type": "tuple"
        }
      ],
      "stateMutability": "view",
      "type": "function"
    },
    {
      "inputs": [
        {
          "internalType": "uint8",
          "name": "gameId",
          "type": "uint8"
        }
      ],
      "name": "getCells",
      "outputs": [
        {
          "components": [
            {
              "internalType": "uint8",
              "name": "q",
              "type": "uint8"
            },
            {
              "internalType": "uint8",
              "name": "r",
              "type": "uint8"
            }
          ],
          "internalType": "struct SharedStructs.Coordinate[]",
          "name": "",
          "type": "tuple[]"
        }
      ],
      "stateMutability": "view",
      "type": "function"
    },
    {
      "inputs": [
        {
          "internalType": "uint8",
          "name": "gameId",
          "type": "uint8"
        }
      ],
      "name": "getRadius",
      "outputs": [
        {
          "internalType": "uint8",
          "name": "",
          "type": "uint8"
        }
      ],
      "stateMutability": "view",
      "type": "function"
    },
    {
      "inputs": [
        {
          "internalType": "uint8",
          "name": "gameId",
          "type": "uint8"
        }
      ],
      "name": "getShips",
      "outputs": [
        {
          "components": [
            {
              "components": [
                {
                  "internalType": "uint8",
                  "name": "q",
                  "type": "uint8"
                },
                {
                  "internalType": "uint8",
                  "name": "r",
                  "type": "uint8"
                }
              ],
              "internalType": "struct SharedStructs.Coordinate",
              "name": "coordinate",
              "type": "tuple"
            },
            {
              "internalType": "enum SharedStructs.Directions",
              "name": "travelDirection",
              "type": "uint8"
            },
            {
              "internalType": "uint8",
              "name": "travelDistance",
              "type": "uint8"
            },
            {
              "internalType": "enum SharedStructs.Directions",
              "name": "shotDirection",
              "type": "uint8"
            },
            {
              "internalType": "uint8",
              "name": "shotDistance",
              "type": "uint8"
            },
            {
              "internalType": "bool",
              "name": "publishedMove",
              "type": "bool"
            },
            {
              "internalType": "address",
              "name": "captain",
              "type": "address"
            },
            {
              "internalType": "uint8",
              "name": "yachtSpeed",
              "type": "uint8"
            },
            {
              "internalType": "uint8",
              "name": "yachtRange",
              "type": "uint8"
            },
            {
              "internalType": "uint8",
              "name": "gameId",
              "type": "uint8"
            }
          ],
          "internalType": "struct GamePunk.Ship[]",
          "name": "",
          "type": "tuple[]"
        }
      ],
      "stateMutability": "view",
      "type": "function"
    },
    {
      "inputs": [
        {
          "components": [
            {
              "internalType": "uint8",
              "name": "q",
              "type": "uint8"
            },
            {
              "internalType": "uint8",
              "name": "r",
              "type": "uint8"
            }
          ],
          "internalType": "struct SharedStructs.Coordinate",
          "name": "_start",
          "type": "tuple"
        },
        {
          "internalType": "enum SharedStructs.Directions",
          "name": "_dir",
          "type": "uint8"
        },
        {
          "internalType": "uint8",
          "name": "_distance",
          "type": "uint8"
        },
        {
          "internalType": "uint8",
          "name": "gameId",
          "type": "uint8"
        }
      ],
      "name": "move",
      "outputs": [
        {
          "components": [
            {
              "internalType": "uint8",
              "name": "q",
              "type": "uint8"
            },
            {
              "internalType": "uint8",
              "name": "r",
              "type": "uint8"
            }
          ],
          "internalType": "struct SharedStructs.Coordinate",
          "name": "",
          "type": "tuple"
        }
      ],
      "stateMutability": "view",
      "type": "function"
    },
    {
      "inputs": [],
      "name": "owner",
      "outputs": [
        {
          "internalType": "address",
          "name": "",
          "type": "address"
        }
      ],
      "stateMutability": "view",
      "type": "function"
    },
    {
      "inputs": [],
      "name": "registrationContract",
      "outputs": [
        {
          "internalType": "address",
          "name": "",
          "type": "address"
        }
      ],
      "stateMutability": "view",
      "type": "function"
    },
    {
      "inputs": [],
      "name": "renounceOwnership",
      "outputs": [],
      "stateMutability": "nonpayable",
      "type": "function"
    },
    {
      "inputs": [
        {
          "internalType": "enum SharedStructs.Directions",
          "name": "_travelDirection",
          "type": "uint8"
        },
        {
          "internalType": "uint8",
          "name": "_travelDistance",
          "type": "uint8"
        },
        {
          "internalType": "enum SharedStructs.Directions",
          "name": "_shotDirection",
          "type": "uint8"
        },
        {
          "internalType": "uint8",
          "name": "_shotDistance",
          "type": "uint8"
        },
        {
          "internalType": "uint8",
          "name": "gameId",
          "type": "uint8"
        }
      ],
      "name": "revealMove",
      "outputs": [],
      "stateMutability": "nonpayable",
      "type": "function"
    },
    {
      "inputs": [
        {
          "internalType": "address",
          "name": "_registrationContract",
          "type": "address"
        }
      ],
      "name": "setRegistrationContract",
      "outputs": [],
      "stateMutability": "nonpayable",
      "type": "function"
    },
    {
      "inputs": [
        {
          "internalType": "uint8",
          "name": "gameId",
          "type": "uint8"
        },
        {
          "internalType": "uint8",
          "name": "_radius",
          "type": "uint8"
        }
      ],
      "name": "startNewGame",
      "outputs": [],
      "stateMutability": "nonpayable",
      "type": "function"
    },
    {
      "inputs": [
        {
          "internalType": "address",
          "name": "newOwner",
          "type": "address"
        }
      ],
      "name": "transferOwnership",
      "outputs": [],
      "stateMutability": "nonpayable",
      "type": "function"
    },
    {
      "inputs": [
        {
          "components": [
            {
              "internalType": "uint8",
              "name": "q",
              "type": "uint8"
            },
            {
              "internalType": "uint8",
              "name": "r",
              "type": "uint8"
            }
          ],
          "internalType": "struct SharedStructs.Coordinate",
          "name": "_startCell",
          "type": "tuple"
        },
        {
          "internalType": "enum SharedStructs.Directions",
          "name": "_direction",
          "type": "uint8"
        },
        {
          "internalType": "uint8",
          "name": "_distance",
          "type": "uint8"
        },
        {
          "internalType": "uint8",
          "name": "gameId",
          "type": "uint8"
        }
      ],
      "name": "travel",
      "outputs": [],
      "stateMutability": "nonpayable",
      "type": "function"
    },
    {
      "inputs": [
        {
          "internalType": "uint8",
          "name": "gameId",
          "type": "uint8"
        }
      ],
      "name": "updateWorld",
      "outputs": [],
      "stateMutability": "nonpayable",
      "type": "function"
    }
  ],
  "bytecode": "0x60a06040523480156200001157600080fd5b5060405162004ac238038062004ac28339810160408190526200003491620000c9565b33806200005b57604051631e4fbdf760e01b81526000600482015260240160405180910390fd5b620000668162000079565b506001600160a01b0316608052620000fb565b600080546001600160a01b038381166001600160a01b0319831681178455604051919092169283917f8be0079c531659141344cd1fd0a4f28419497f9722a3daafe3b4186f6b6457e09190a35050565b600060208284031215620000dc57600080fd5b81516001600160a01b0381168114620000f457600080fd5b9392505050565b60805161494262000180600039600081816103bf015281816105b101528181610851015281816108d001528181610a3f01528181610bc901528181610d7601528181610f3c015281816114fd01528181611ae801528181612a5501528181612eb101528181612f4f015281816137010152818161393c0152613b6201526149426000f3fe608060405234801561001057600080fd5b50600436106101165760003560e01c8063863375ac116100a2578063d1153bc311610071578063d1153bc314610309578063d3db03cc1461031c578063ece816571461032f578063f2fde38b14610342578063fd8704461461035557600080fd5b8063863375ac146102b25780638da5cb5b146102c5578063978ac356146102d6578063d085a86f146102e957600080fd5b806334361208116100e957806334361208146101fd5780634998b8fb146102225780634aac9b8b146102355780634d02388614610255578063715018a6146102aa57600080fd5b8063117a5b901461011b5780631cf8a321146101aa5780631e522c3e146101bf5780632923a41f146101ea575b600080fd5b61016c610129366004613e39565b600160208190526000918252604090912080549181015460049091015460ff91821691818116916101008104821691620100008204811691630100000090041686565b6040805196875260ff909516602087015292151593850193909352151560608401529015156080830152151560a082015260c0015b60405180910390f35b6101bd6101b8366004613f27565b610375565b005b6002546101d2906001600160a01b031681565b6040516001600160a01b0390911681526020016101a1565b6101bd6101f8366004613f80565b6104b3565b61021061020b366004613f80565b61055b565b60405160ff90911681526020016101a1565b6101bd610230366004613f9d565b61062a565b610248610243366004613f80565b6109e7565b6040516101a1919061400a565b610268610263366004614067565b610cff565b6040516101a19190600060808201905060ff835116825260ff602084015116602083015260408301511515604083015260608301511515606083015292915050565b6101bd610df5565b6101bd6102c0366004613f80565b610e09565b6000546001600160a01b03166101d2565b6101bd6102e4366004613f80565b610e9b565b6102fc6102f7366004613f27565b6129ee565b6040516101a1919061409f565b6101bd6103173660046140bd565b612ad7565b6101bd61032a366004614102565b612c37565b6101bd61033d3660046141b5565b612c61565b6101bd610350366004614102565b6132b4565b610368610363366004613f80565b6132f2565b6040516101a191906142e6565b60ff8082166000908152600160208190526040909120600401549091161515146103ba5760405162461bcd60e51b81526004016103b1906143f2565b60405180910390fd5b6000807f00000000000000000000000000000000000000000000000000000000000000006001600160a01b0316631cf8a321878787876040518563ffffffff1660e01b815260040161040f9493929190614429565b606060405180830381865afa15801561042c573d6000803e3d6000fd5b505050506040513d601f19601f8201168201806040525081019061045091906144b6565b9150915081156104695761046433846135a6565b6104ab565b805160ff8481166000908152600160209081526040808320338452600201825290912080549185015183166101000261ffff1990921692909316919091171790555b505050505050565b6104bb61367f565b60ff8082166000908152600160208190526040909120600401549091161515146104f75760405162461bcd60e51b81526004016103b1906143f2565b60ff811660008181526001602090815260409182902060048101805463ff00000019166301000000179055548251938452908301527f8f2926f00686a0050801f0bdb34f506a8467984df7f619eca0dac070da51babc91015b60405180910390a150565b60ff80821660009081526001602081905260408220600401549192919091161515146105995760405162461bcd60e51b81526004016103b1906143f2565b60405163436fadf360e11b815260ff831660048201527f00000000000000000000000000000000000000000000000000000000000000006001600160a01b0316906386df5be690602401602060405180830381865afa158015610600573d6000803e3d6000fd5b505050506040513d601f19601f8201168201806040525081019061062491906144ea565b92915050565b60ff808216600090815260016020819052604090912060040154630100000090049091161515146106a75760405162461bcd60e51b815260206004820152602160248201527f5375626d6974206d6f76657320686173206e6f742073746172746564207965746044820152602160f81b60648201526084016103b1565b60ff8082166000908152600160208190526040909120600401549091161515146106e35760405162461bcd60e51b81526004016103b1906143f2565b60ff8116600090815260016020818152604080842033855260020190915290912080820180549192889260ff191690836006811115610724576107246142ae565b0217905550600181015460ff600160c81b909104811690861611156107665760018101805460ff600160c81b8204166101000261ff001990911617905561077d565b60018101805461ff00191661010060ff8816021790555b60018101805485919062ff00001916620100008360068111156107a2576107a26142ae565b0217905550600181015460ff600160d01b909104811690841611156107e857600181018054630100000060ff600160d01b8304160263ff00000019909116179055610803565b60018101805463ff0000001916630100000060ff8616021790555b60018101805464ff000000001916640100000000179055604080518082018252825460ff81811683526101009091041660208201529051630d42527560e11b81526000906001600160a01b037f00000000000000000000000000000000000000000000000000000000000000001690631a84a4ea9061088a9085908c908c90600401614507565b6040805180830381865afa1580156108a6573d6000803e3d6000fd5b505050506040513d601f19601f820116820180604052508101906108ca9190614543565b905060007f00000000000000000000000000000000000000000000000000000000000000006001600160a01b0316631a84a4ea8389896040518463ffffffff1660e01b815260040161091e93929190614507565b6040805180830381865afa15801561093a573d6000803e3d6000fd5b505050506040513d601f19601f8201168201806040525081019061095e9190614543565b60ff8681166000818152600160209081526040918290205487518883015187518885015186519788529487019390935290861685850152851660608501528416608084015290921660a0820152905191925033917faff0b78027ac9f4904ee624bc84e3126d0e7d96ce215c5db5158441acb0b38cf9181900360c00190a2505050505050505050565b60ff80821660009081526001602081905260409091206004015460609216151514610a245760405162461bcd60e51b81526004016103b1906143f2565b60405163436fadf360e11b815260ff831660048201526000907f00000000000000000000000000000000000000000000000000000000000000006001600160a01b0316906386df5be690602401602060405180830381865afa158015610a8e573d6000803e3d6000fd5b505050506040513d601f19601f82011682018060405250810190610ab291906144ea565b90506000610ac1826001614575565b610acc83600361458e565b610ad6919061458e565b610ae1906001614575565b60ff16905060008167ffffffffffffffff811115610b0157610b01613e52565b604051908082528060200260200182016040528015610b4657816020015b6040805180820190915260008082526020820152815260200190600190039081610b1f5790505b50905060405180604001604052808460ff1681526020018460ff1681525081600081518110610b7757610b776145aa565b602090810291909101015260015b8360ff168160ff1611610cf657600081610ba06001826145c0565b610bab90600361458e565b610bb5919061458e565b610bc0906001614575565b60ff16905060007f00000000000000000000000000000000000000000000000000000000000000006001600160a01b03166339e5c4a085600081518110610c0957610c096145aa565b6020026020010151856040518363ffffffff1660e01b8152600401610c2f9291906145d9565b600060405180830381865afa158015610c4c573d6000803e3d6000fd5b505050506040513d6000823e601f3d908101601f19168201604052610c749190810190614607565b905060005b81518160ff161015610ce057818160ff1681518110610c9a57610c9a6145aa565b6020026020010151858260ff1685610cb291906146a3565b81518110610cc257610cc26145aa565b60200260200101819052508080610cd8906146b6565b915050610c79565b5050508080610cee906146b6565b915050610b85565b50949350505050565b60408051608081018252600080825260208201819052918101829052606081019190915260ff808316600090815260016020819052604090912060040154909116151514610d5f5760405162461bcd60e51b81526004016103b1906143f2565b6040516326811c4360e11b81526001600160a01b037f00000000000000000000000000000000000000000000000000000000000000001690634d02388690610dad90869086906004016145d9565b608060405180830381865afa158015610dca573d6000803e3d6000fd5b505050506040513d601f19601f82011682018060405250810190610dee919061475b565b9392505050565b610dfd61367f565b610e0760006136ac565b565b610e1161367f565b60ff808216600090815260016020819052604090912060040154909116151514610e4d5760405162461bcd60e51b81526004016103b1906143f2565b60ff8116600081815260016020908152604091829020600401805460ff1916905590519182527f4df34531b3f238bc8f90ad83236d8c752e7444e434bb5fc99f888f0a6345c0e79101610550565b610ea361367f565b60ff808216600090815260016020819052604090912060040154909116151514610edf5760405162461bcd60e51b81526004016103b1906143f2565b60ff8116600090815260016020526040902054610efe90600390614777565b6000036112aa5760ff81811660008181526001602081905260409182902001549051634affc34f60e01b8152600481019290925290911660248201527f00000000000000000000000000000000000000000000000000000000000000006001600160a01b031690634affc34f90604401600060405180830381600087803b158015610f8857600080fd5b505af1158015610f9c573d6000803e3d6000fd5b50505060ff808316600090815260016020819052604082200180549092169250610fc5836146b6565b91906101000a81548160ff021916908360ff160217905550507fab00852360aeece33bb03176d4e62fbb27adf3fd1a81b9d543c1ae388003b0ac81604051611016919060ff91909116815260200190565b60405180910390a160005b60ff80831660009081526001602052604090206003015490821610156112a85760ff8083166000908152600160205260408120600381018054929360029092019284928616908110611075576110756145aa565b60009182526020808320909101546001600160a01b03168352828101939093526040918201902081518083019092525460ff8082168352610100909104169181019190915290506110c681846136fc565b156112955760ff808416600090815260016020526040902060030180546111149285169081106110f8576110f86145aa565b6000918252602090912001546001600160a01b0316838561379b565b600160008460ff1681526020019081526020016000206003018260ff1681548110611141576111416145aa565b6000918252602091829020015460405160ff861681526001600160a01b03909116917f7098e36d986448e47b2ec53e41ddd178ac0774637ee2227e84baba39b0c1c7b1910160405180910390a260ff83166000908152600160208190526040909120600301805490916111b391614799565b815481106111c3576111c36145aa565b9060005260206000200160009054906101000a90046001600160a01b0316600160008560ff1681526020019081526020016000206003018360ff168154811061120e5761120e6145aa565b600091825260208083209190910180546001600160a01b0319166001600160a01b03949094169390931790925560ff8516815260019091526040902060030180548061125c5761125c6147ac565b600082815260209020810160001990810180546001600160a01b031916905501905560ff8216156112955781611291816147c2565b9250505b50806112a0816146b6565b915050611021565b505b60ff811660009081526001602052604081206003015467ffffffffffffffff8111156112d8576112d8613e52565b60405190808252806020026020018201604052801561131d57816020015b60408051808201909152600080825260208201528152602001906001900390816112f65790505b5060ff83166000908152600160205260408120600301549192509067ffffffffffffffff81111561135057611350613e52565b604051908082528060200260200182016040528015611379578160200160208202803683370190505b50905060005b60ff80851660009081526001602052604090206003015490821610156113d8576001828260ff16815181106113b6576113b66145aa565b91151560209283029190910190910152806113d0816146b6565b91505061137f565b5060005b60ff8085166000908152600160205260409020600301549082161015611a7d5760ff8085166000908152600160205260408120600381018054929360029092019284928616908110611430576114306145aa565b60009182526020808320909101546001600160a01b039081168452908301939093526040909101902060010154600160281b90041614611a6b5760ff8085166000908152600160205260408120600381018054600290920193909190851690811061149d5761149d6145aa565b60009182526020808320909101546001600160a01b0316835282019290925260400190206001015460ff6401000000009091041615611a6b5760ff8085166000908152600160205260408120600381018054929384936001600160a01b037f00000000000000000000000000000000000000000000000000000000000000001693631cf8a32193600290910192869290891690811061153e5761153e6145aa565b60009182526020808320909101546001600160a01b03168352828101939093526040918201812060ff808d1683526001909452918120600381018054939460029092019390918a16908110611595576115956145aa565b60009182526020808320909101546001600160a01b03168352828101939093526040918201812060019081015460ff8e8116845291909452918120600381018054948416946002909201939091908b169081106115f4576115f46145aa565b60009182526020808320909101546001600160a01b0316835282019290925260409081019091206001015490516001600160e01b031960e086901b16815261164c93929160ff61010090910416908c906004016147df565b606060405180830381865afa158015611669573d6000803e3d6000fd5b505050506040513d601f19601f8201168201806040525081019061168d91906144b6565b91509150811561181e57600160008760ff1681526020019081526020016000206003018360ff16815481106116c4576116c46145aa565b600091825260209182902001548251838301516040805160ff808d168252938416958101959095529116908301526001600160a01b0316907fd44ddf7f8e572e76d7ed6bf350d88367a33cf9a7d19d5069c392802305d51f6c9060600160405180910390a260ff80871660009081526001602052604090206003018054611772928616908110611756576117566145aa565b6000918252602090912001546001600160a01b0316848861379b565b6000848460ff1681518110611789576117896145aa565b91151560209283029190910182015260ff8088166000908152600190925260408220600381018054859460029093019388169081106117ca576117ca6145aa565b60009182526020808320909101546001600160a01b03168352828101939093526040909101902082518154939092015160ff9081166101000261ffff1990941692169190911791909117905550611a6b9050565b600160008760ff1681526020019081526020016000206003018360ff168154811061184b5761184b6145aa565b600091825260208083209091015460ff808a1684526001909252604083206003810180546001600160a01b03909316947ff1e9c1d54f160cab3c8602dcfbf5fbe3e012ed037d80057eca695f74d26077a094600290930193909289169081106118b6576118b66145aa565b60009182526020808320909101546001600160a01b0316835282810193909352604091820181205460ff8c8116835260019094529181206003810180549385169460029092019390918a16908110611910576119106145aa565b6000918252602080832091909101546001600160a01b03168352828101939093526040918201902054865187840151835160ff96871681526101009093048616948301949094528416818301529183166060830152918a16608082015290519081900360a00190a260ff808716600090815260016020526040812060038101805485946002909301939288169081106119ab576119ab6145aa565b60009182526020808320909101546001600160a01b031683528281019390935260409182018120845181549585015160ff9081166101000261ffff1990971691811691909117959095179055898416815260019092529020600301805490918516908110611a1b57611a1b6145aa565b6000918252602091829020015460405160ff891681526001600160a01b03909116917f51f35fa2867d710ef60e6209b0ca28b42abd534ed14e1f8394e793f42253c9f6910160405180910390a250505b80611a75816146b6565b9150506113dc565b5060005b60ff8085166000908152600160205260409020600301549082161015611e0f57818160ff1681518110611ab657611ab66145aa565b602002602001015115611dfd5760ff808516600090815260016020526040812060038101805492936001600160a01b037f0000000000000000000000000000000000000000000000000000000000000000169363d6192ad3936002019286929091908816908110611b2957611b296145aa565b60009182526020808320909101546001600160a01b03168352828101939093526040918201812060ff808c1683526001909452918120600381018054939460029092019390918916908110611b8057611b806145aa565b60009182526020808320909101546001600160a01b03168352828101939093526040918201812060019081015460ff8d811684529190945291812060038101805462010000909504841694600292909201939091908a16908110611be657611be66145aa565b60009182526020808320909101546001600160a01b0316835282019290925260409081019091206001015490516001600160e01b031960e086901b168152611c3e93929160ff630100000090910416906004016147fd565b6040805180830381865afa158015611c5a573d6000803e3d6000fd5b505050506040513d601f19601f82011682018060405250810190611c7e9190614543565b905080848360ff1681518110611c9657611c966145aa565b6020026020010181905250600160008660ff1681526020019081526020016000206003018260ff1681548110611cce57611cce6145aa565b600091825260208083209091015460ff80891684526001909252604083206003810180546001600160a01b03909316947f78546d5ff977d70d771d8edba5bdd99150ec97e7837d6e2af4384b1605a4372d9460029093019390928816908110611d3957611d396145aa565b60009182526020808320909101546001600160a01b0316835282810193909352604091820181205460ff8b8116835260019094529181206003810180549385169460029092019390918916908110611d9357611d936145aa565b6000918252602080832091909101546001600160a01b03168352828101939093526040918201902054865187840151835160ff96871681526101009093048616948301949094528416818301529183166060830152918916608082015290519081900360a00190a2505b80611e07816146b6565b915050611a81565b5060005b60ff80851660009081526001602052604090206003015490821610156124575760005b60ff8086166000908152600160205260409020600301549082161015612444578060ff168260ff161461243257828260ff1681518110611e7857611e786145aa565b60200260200101518015611ea55750828160ff1681518110611e9c57611e9c6145aa565b60200260200101515b8015611f63575060ff80861660009081526001602052604081206003810180546002909201939091908616908110611edf57611edf6145aa565b60009182526020808320909101546001600160a01b0316835282810193909352604091820181205460ff898116835260019094529181206003810180549385169460029092019390918616908110611f3957611f396145aa565b60009182526020808320909101546001600160a01b0316835282019290925260400190205460ff16145b801561202c575060ff80861660009081526001602052604081206003810180546002909201939091908616908110611f9d57611f9d6145aa565b60009182526020808320909101546001600160a01b0316835282810193909352604091820181205460ff8981168352600190945291812060038101805461010090940485169460029092019390918616908110611ffc57611ffc6145aa565b60009182526020808320909101546001600160a01b0316835282019290925260400190205460ff61010090910416145b15612209576000838360ff1681518110612048576120486145aa565b6020026020010190151590811515815250506000838260ff1681518110612071576120716145aa565b602002602001019015159081151581525050600160008660ff1681526020019081526020016000206003018260ff16815481106120b0576120b06145aa565b6000918252602091829020015460405160ff881681526001600160a01b03909116917f783de3ac95b82563b70ac74b3a843e5f9f71a653b9518e6e1762b39151c0f710910160405180910390a2600160008660ff1681526020019081526020016000206003018160ff168154811061212a5761212a6145aa565b6000918252602091829020015460405160ff881681526001600160a01b03909116917f783de3ac95b82563b70ac74b3a843e5f9f71a653b9518e6e1762b39151c0f710910160405180910390a260ff808616600090815260016020526040902060030180546121c09285169081106121a4576121a46145aa565b6000918252602090912001546001600160a01b0316838761379b565b60ff808616600090815260016020526040902060030180546122099284169081106121ed576121ed6145aa565b6000918252602090912001546001600160a01b0316828761379b565b828260ff168151811061221e5761221e6145aa565b602002602001015180156122b2575060ff80861660009081526001602052604081206003810180546002909201939091908616908110612260576122606145aa565b60009182526020808320909101546001600160a01b03168352820192909252604001902054845160ff9182169186919084169081106122a1576122a16145aa565b60200260200101516000015160ff16145b8015612343575060ff808616600090815260016020526040812060038101805460029092019390919086169081106122ec576122ec6145aa565b60009182526020808320909101546001600160a01b03168352820192909252604001902054845160ff6101009092048216918691908416908110612332576123326145aa565b60200260200101516020015160ff16145b1561243257600160008660ff1681526020019081526020016000206003018160ff1681548110612375576123756145aa565b600091825260208083209091015460ff80891684526001909252604090922060030180546001600160a01b0390931692909185169081106123b8576123b86145aa565b6000918252602091829020015460405160ff891681526001600160a01b03909116917fb2ee3834f34c038f7f34d57f8ce213e4ee56fecd33556013e0f66b1e32ee14bc910160405180910390a360ff808616600090815260016020526040902060030180546124329285169081106121a4576121a46145aa565b8061243c816146b6565b915050611e36565b508061244f816146b6565b915050611e13565b5060005b60ff80851660009081526001602052604090206003015490821610156125e65760006001600160a01b0316600160008660ff1681526020019081526020016000206003018260ff16815481106124b3576124b36145aa565b6000918252602090912001546001600160a01b0316036125d45760ff84166000908152600160208190526040909120600301805490916124f291614799565b81548110612502576125026145aa565b9060005260206000200160009054906101000a90046001600160a01b0316600160008660ff1681526020019081526020016000206003018260ff168154811061254d5761254d6145aa565b600091825260208083209190910180546001600160a01b0319166001600160a01b03949094169390931790925560ff8616815260019091526040902060030180548061259b5761259b6147ac565b600082815260209020810160001990810180546001600160a01b031916905501905560ff8116156125d457806125d0816147c2565b9150505b806125de816146b6565b91505061245b565b5060ff831660009081526001602052604081206003015490036126645760405160ff841681526000907f8403b4a1c998f6768b577f2c265d744e2f4d05982059b4d82b34eb822bdc17d1906020015b60405180910390a260ff83166000908152600160205260409020600401805461ff0019166101001790556129b2565b60ff831660009081526001602081905260409091206003015490036126f35760ff8316600090815260016020526040812060030180549091906126a9576126a96145aa565b6000918252602091829020015460405160ff861681526001600160a01b03909116917f8403b4a1c998f6768b577f2c265d744e2f4d05982059b4d82b34eb822bdc17d19101612635565b60ff831660009081526001602052604081206003018054909190612719576127196145aa565b60009182526020808320919091015460405160ff871681526001600160a01b0390911692917f2cee3725d64bc62c413fa35348815210ff376bf4f13627d82b6ac0d0efc6e8cd910160405180910390a360005b60ff808516600090815260016020526040902060030154908216101561297e5760ff80851660009081526001602052604081206003810180546006946002909301939286169081106127c0576127c06145aa565b60009182526020808320909101546001600160a01b03168352820192909252604001902060019081018054909160ff1990911690836006811115612806576128066142ae565b021790555060ff808516600090815260016020526040812060038101805492936002909201928492861690811061283f5761283f6145aa565b6000918252602080832091909101546001600160a01b0316835282810193909352604091820181206001908101805461ff00191661010060ff97881602179055888516825290925281206003810180546006946002909301939286169081106128aa576128aa6145aa565b60009182526020808320909101546001600160a01b031683528201929092526040019020600101805462ff00001916620100008360068111156128ef576128ef6142ae565b021790555060ff8085166000908152600160205260408120600381018054929360029092019284928616908110612928576129286145aa565b60009182526020808320909101546001600160a01b031683528201929092526040019020600101805460ff9290921663010000000263ff0000001990921691909117905580612976816146b6565b91505061276c565b5060ff83166000908152600160205260409020600401805463ff000000191690556129a883613917565b506129b2836104b3565b60405160ff841681527fd44344392ee117b90bc172ab74cce9c43a862f0d5e11a336b3885fde466c244e906020015b60405180910390a1505050565b604080518082019091526000808252602082015260ff808316600090815260016020819052604090912060040154909116151514612a3e5760405162461bcd60e51b81526004016103b1906143f2565b604051630d42527560e11b81526001600160a01b037f00000000000000000000000000000000000000000000000000000000000000001690631a84a4ea90612a8e90889088908890600401614507565b6040805180830381865afa158015612aaa573d6000803e3d6000fd5b505050506040513d601f19601f82011682018060405250810190612ace9190614543565b95945050505050565b6002546001600160a01b03163314612b015760405162461bcd60e51b81526004016103b19061481b565b60ff8260ff1610612b545760405162461bcd60e51b815260206004820152601f60248201527f4d6178696d756d206e756d626572206f662067616d657320726561636865640060448201526064016103b1565b60ff8083166000908152600160205260409020600401541615612bc75760405162461bcd60e51b815260206004820152602560248201527f47616d652077697468207468697320494420616c726561647920696e2070726f604482015264677265737360d81b60648201526084016103b1565b60ff82166000908152600160208190526040909120600401805460ff19169091179055612bf48183613a38565b612bfd826104b3565b60405160ff831681527f13cb55fc1bec4b9f4cd4c22f154240b469cb108a23a35aa599df0c3da46f2d149060200160405180910390a15050565b612c3f61367f565b600280546001600160a01b0319166001600160a01b0392909216919091179055565b6002546001600160a01b03163314612c8b5760405162461bcd60e51b81526004016103b19061481b565b60ff8460ff1610612cde5760405162461bcd60e51b815260206004820152601f60248201527f4d6178696d756d206e756d626572206f662067616d657320726561636865640060448201526064016103b1565b60ff80851660009081526001602052604090206004015416612d395760405162461bcd60e51b815260206004820152601460248201527347616d65206e6f7420696e2070726f677265737360601b60448201526064016103b1565b81518351148015612d4b575080518351145b612d8f5760405162461bcd60e51b8152602060048201526015602482015274082e4e4c2f240d8cadccee8d040dad2e6dac2e8c6d605b1b60448201526064016103b1565b60005b83518110156132ad576000848281518110612daf57612daf6145aa565b602002602001015190506000848381518110612dcd57612dcd6145aa565b602002602001015190506000848481518110612deb57612deb6145aa565b60209081029190910181015160ff8a166000908152600180845260408083206001600160a01b03898116855260029091019095529091200154909250600160281b90041615612e965760ff88811660009081526001602090815260408083206001600160a01b0388168085526002909101909252918290205491516308538db760e41b81526004810191909152818316602482015261010090910490911660448201526064016103b1565b6040516342c39d9160e01b815260ff891660048201526000907f00000000000000000000000000000000000000000000000000000000000000006001600160a01b0316906342c39d919060240160408051808303816000875af1158015612f01573d6000803e3d6000fd5b505050506040513d601f19601f82011682018060405250810190612f259190614543565b90505b612f32818a613ce9565b15612fca576040516342c39d9160e01b815260ff8a1660048201527f00000000000000000000000000000000000000000000000000000000000000006001600160a01b0316906342c39d919060240160408051808303816000875af1158015612f9f573d6000803e3d6000fd5b505050506040513d601f19601f82011682018060405250810190612fc39190614543565b9050612f28565b604080516101408101909152818152600090602081018281526000602082018190526040909101908152602001600060ff168152602001600015158152602001866001600160a01b031681526020018560ff1681526020018460ff1681526020018b60ff16815250905080600160008c60ff1681526020019081526020016000206002016000876001600160a01b03166001600160a01b0316815260200190815260200160002060008201518160000160008201518160000160006101000a81548160ff021916908360ff16021790555060208201518160000160016101000a81548160ff021916908360ff160217905550505060208201518160010160006101000a81548160ff021916908360068111156130e8576130e86142ae565b0217905550604082015160018201805460ff9092166101000261ff001983168117825560608501519262ff00001990911662ffff00199091161762010000836006811115613138576131386142ae565b02179055506080828101516001928301805460a08087015160c088015160e08901516101008a0151610120909a015164ffff00000019909516630100000060ff9889160264ff00000000191617640100000000931515939093029290921765010000000000600160d01b031916600160281b6001600160a01b039283160260ff60c81b191617600160c81b928716929092029190911761ffff60d01b1916600160d01b9886169890980260ff60d81b191697909717600160d81b92851692909202919091179091558e82166000818152602086815260408083206003018054988901815583529181902090960180546001600160a01b031916978d169788179055885189870151825193845290851696830196909652948316948101949094528882166060850152908716918301919091527f5e5c5018f010da587f4ea3677380307dc0fb74d57d455db252799686dbfbd059910160405180910390a2505050505080806132a590614862565b915050612d92565b5050505050565b6132bc61367f565b6001600160a01b0381166132e657604051631e4fbdf760e01b8152600060048201526024016103b1565b6132ef816136ac565b50565b60ff8082166000908152600160208190526040909120600401546060921615151461332f5760405162461bcd60e51b81526004016103b1906143f2565b60ff821660009081526001602052604081206003015467ffffffffffffffff81111561335d5761335d613e52565b6040519080825280602002602001820160405280156133eb57816020015b604080516101808101825260006101408201818152610160830182905282526020808301829052928201819052606082018190526080820181905260a0820181905260c0820181905260e082018190526101008201819052610120820152825260001990920191018161337b5790505b50905060005b60ff841660009081526001602052604090206003015481101561359f5760ff84166000908152600160205260408120600381018054600290920192918490811061343d5761343d6145aa565b60009182526020808320909101546001600160a01b03168352828101939093526040918201902081516101808101909252805460ff80821661014085019081526101009092048116610160850152908352600182015492939192918401911660068111156134ad576134ad6142ae565b60068111156134be576134be6142ae565b8152600182015460ff610100820481166020840152604090920191620100009091041660068111156134f2576134f26142ae565b6006811115613503576135036142ae565b81526001919091015460ff630100000082048116602084015264010000000082048116151560408401526001600160a01b03600160281b8304166060840152600160c81b820481166080840152600160d01b8204811660a0840152600160d81b9091041660c0909101528251839083908110613581576135816145aa565b6020026020010181905250808061359790614862565b9150506133f1565b5092915050565b60ff8082166000908152600160208190526040909120600401549091161515146135e25760405162461bcd60e51b81526004016103b1906143f2565b6000805b60ff808416600090815260016020526040902060030154908216101561366e5760ff808416600090815260016020526040902060030180546001600160a01b03871692841690811061363a5761363a6145aa565b6000918252602090912001546001600160a01b03160361365c5780915061366e565b80613666816146b6565b9150506135e6565b5061367a83828461379b565b505050565b6000546001600160a01b03163314610e075760405163118cdaa760e01b81523360048201526024016103b1565b600080546001600160a01b038381166001600160a01b0319831681178455604051919092169283917f8be0079c531659141344cd1fd0a4f28419497f9722a3daafe3b4186f6b6457e09190a35050565b6000807f00000000000000000000000000000000000000000000000000000000000000006001600160a01b0316634d02388685856040518363ffffffff1660e01b815260040161374d9291906145d9565b608060405180830381865afa15801561376a573d6000803e3d6000fd5b505050506040513d601f19601f8201168201806040525081019061378e919061475b565b6060015115949350505050565b60ff808216600090815260016020526040902060030154908316106138025760405162461bcd60e51b815260206004820152601860248201527f496e6465782076616c7565206f7574206f662072616e6765000000000000000060448201526064016103b1565b60ff80821660009081526001602081905260409091206004015490911615151461383e5760405162461bcd60e51b81526004016103b1906143f2565b60405160ff821681526001600160a01b038416907fabe2a4edb03972506a4064b683e5482b1f09f2fb96bd4463b7b15b38cbd5b1869060200160405180910390a260ff80821660008181526001602081815260408084206001600160a01b038a168552600281018352908420805461ffff19168155830180546001600160e01b03191690559383525260039091018054919290919085169081106138e4576138e46145aa565b9060005260206000200160006101000a8154816001600160a01b0302191690836001600160a01b03160217905550505050565b60405163436fadf360e11b815260ff8216600482015260009081906001600160a01b037f000000000000000000000000000000000000000000000000000000000000000016906386df5be690602401602060405180830381865afa158015613983573d6000803e3d6000fd5b505050506040513d601f19601f820116820180604052508101906139a791906144ea565b60ff841660009081526001602052604081208054929350906139c883614862565b909155505060ff838116600081815260016020908152604091829020548251938452908301529183168183015290517f44d8fc4a70679f71d5b762b5218cbfb0c858bb7e015b1effe03793d2909c20f69181900360600190a1505060ff1660009081526001602052604090205490565b60ff808216600090815260016020819052604090912060040154909116151514613a745760405162461bcd60e51b81526004016103b1906143f2565b60005b60ff8216600090815260016020526040902060030154811015613b135760ff821660009081526001602052604081206003810180546002909201929184908110613ac357613ac36145aa565b60009182526020808320909101546001600160a01b031683528201929092526040019020805461ffff1916815560010180546001600160e01b031916905580613b0b81614862565b915050613a77565b5060ff81166000908152600160205260408120613b3591600390910190613e07565b613b3e81613917565b50604051631a405d8760e31b815260ff8084166004830152821660248201526000907f00000000000000000000000000000000000000000000000000000000000000006001600160a01b03169063d202ec38906044016000604051808303816000875af1158015613bb3573d6000803e3d6000fd5b505050506040513d6000823e601f3d908101601f19168201604052613bdb919081019061487b565b905060005b8151811015613cae577fa0c5e7441ab424c9fb8f47238c88c2c172bf9be1898748ea348b2a8bb92d6dbb83838381518110613c1d57613c1d6145aa565b602002602001015160000151848481518110613c3b57613c3b6145aa565b602002602001015160200151858581518110613c5957613c596145aa565b602002602001015160400151604051613c94949392919060ff9485168152928416602084015292166040820152901515606082015260800190565b60405180910390a180613ca681614862565b915050613be0565b506040805160ff8086168252841660208201527fd76a0a97b7d547fef69b0cd90fb02087b761703ae2b5e4e91a99e8fd17e308ad91016129e1565b6000805b60ff8316600090815260016020526040902060030154811015613dfd57835160ff8481166000908152600160205260408120600381018054939094169360029091019285908110613d4057613d406145aa565b60009182526020808320909101546001600160a01b0316835282019290925260400190205460ff16148015613ddc575060208085015160ff85811660009081526001909352604083206003810180549290931693600290910192909185908110613dac57613dac6145aa565b60009182526020808320909101546001600160a01b0316835282019290925260400190205460ff61010090910416145b15613deb576001915050610624565b80613df581614862565b915050613ced565b5060009392505050565b50805460008255906000526020600020908101906132ef91905b80821115613e355760008155600101613e21565b5090565b600060208284031215613e4b57600080fd5b5035919050565b634e487b7160e01b600052604160045260246000fd5b6040805190810167ffffffffffffffff81118282101715613e8b57613e8b613e52565b60405290565b604051601f8201601f1916810167ffffffffffffffff81118282101715613eba57613eba613e52565b604052919050565b60ff811681146132ef57600080fd5b600060408284031215613ee357600080fd5b613eeb613e68565b90508135613ef881613ec2565b81526020820135613f0881613ec2565b602082015292915050565b803560078110613f2257600080fd5b919050565b60008060008060a08587031215613f3d57600080fd5b613f478686613ed1565b9350613f5560408601613f13565b92506060850135613f6581613ec2565b91506080850135613f7581613ec2565b939692955090935050565b600060208284031215613f9257600080fd5b8135610dee81613ec2565b600080600080600060a08688031215613fb557600080fd5b613fbe86613f13565b94506020860135613fce81613ec2565b9350613fdc60408701613f13565b92506060860135613fec81613ec2565b91506080860135613ffc81613ec2565b809150509295509295909350565b602080825282518282018190526000919060409081850190868401855b8281101561405a5761404a848351805160ff908116835260209182015116910152565b9284019290850190600101614027565b5091979650505050505050565b6000806060838503121561407a57600080fd5b6140848484613ed1565b9150604083013561409481613ec2565b809150509250929050565b604081016106248284805160ff908116835260209182015116910152565b600080604083850312156140d057600080fd5b82356140db81613ec2565b9150602083013561409481613ec2565b80356001600160a01b0381168114613f2257600080fd5b60006020828403121561411457600080fd5b610dee826140eb565b600067ffffffffffffffff82111561413757614137613e52565b5060051b60200190565b600082601f83011261415257600080fd5b813560206141676141628361411d565b613e91565b82815260059290921b8401810191818101908684111561418657600080fd5b8286015b848110156141aa57803561419d81613ec2565b835291830191830161418a565b509695505050505050565b600080600080608085870312156141cb57600080fd5b84356141d681613ec2565b935060208581013567ffffffffffffffff808211156141f457600080fd5b818801915088601f83011261420857600080fd5b81356142166141628261411d565b81815260059190911b8301840190848101908b83111561423557600080fd5b938501935b8285101561425a5761424b856140eb565b8252938501939085019061423a565b97505050604088013592508083111561427257600080fd5b61427e89848a01614141565b9450606088013592508083111561429457600080fd5b50506142a287828801614141565b91505092959194509250565b634e487b7160e01b600052602160045260246000fd5b600781106142e257634e487b7160e01b600052602160045260246000fd5b9052565b602080825282518282018190526000919060409081850190868401855b8281101561405a578151614328858251805160ff908116835260209182015116910152565b86810151614338878701826142c4565b5085810151606061434d8188018360ff169052565b82015190506080614360878201836142c4565b820151905060a06143758782018360ff169052565b820151905060c06143898782018315159052565b820151905060e06143a4878201836001600160a01b03169052565b82015190506101006143ba8782018360ff169052565b82015190506101206143d08782018360ff169052565b919091015160ff16610140860152506101609093019290850190600101614303565b60208082526019908201527f47616d6520686173206e6f742073746172746564207965742100000000000000604082015260600190565b60a081016144478287805160ff908116835260209182015116910152565b61445460408301866142c4565b60ff8416606083015260ff8316608083015295945050505050565b80518015158114613f2257600080fd5b60006040828403121561449157600080fd5b614499613e68565b905081516144a681613ec2565b81526020820151613f0881613ec2565b600080606083850312156144c957600080fd5b6144d28361446f565b91506144e1846020850161447f565b90509250929050565b6000602082840312156144fc57600080fd5b8151610dee81613ec2565b608081016145258286805160ff908116835260209182015116910152565b61453260408301856142c4565b60ff83166060830152949350505050565b60006040828403121561455557600080fd5b610dee838361447f565b634e487b7160e01b600052601160045260246000fd5b60ff81811683821601908111156106245761062461455f565b60ff818116838216029081169081811461359f5761359f61455f565b634e487b7160e01b600052603260045260246000fd5b60ff82811682821603908111156106245761062461455f565b606081016145f78285805160ff908116835260209182015116910152565b60ff831660408301529392505050565b6000602080838503121561461a57600080fd5b825167ffffffffffffffff81111561463157600080fd5b8301601f8101851361464257600080fd5b80516146506141628261411d565b81815260069190911b8201830190838101908783111561466f57600080fd5b928401925b8284101561469857614686888561447f565b82528482019150604084019350614674565b979650505050505050565b808201808211156106245761062461455f565b600060ff821660ff81036146cc576146cc61455f565b60010192915050565b6000608082840312156146e757600080fd5b6040516080810181811067ffffffffffffffff8211171561470a5761470a613e52565b8060405250809150825161471d81613ec2565b8152602083015161472d81613ec2565b602082015261473e6040840161446f565b604082015261474f6060840161446f565b60608201525092915050565b60006080828403121561476d57600080fd5b610dee83836146d5565b60008261479457634e487b7160e01b600052601260045260246000fd5b500690565b818103818111156106245761062461455f565b634e487b7160e01b600052603160045260246000fd5b600060ff8216806147d5576147d561455f565b6000190192915050565b845460ff808216835260089190911c16602082015260a08101614447565b835460ff808216835260089190911c16602082015260808101614525565b60208082526027908201527f43616c6c6572206973206e6f742074686520726567697374726174696f6e20636040820152661bdb9d1c9858dd60ca1b606082015260800190565b6000600182016148745761487461455f565b5060010190565b6000602080838503121561488e57600080fd5b825167ffffffffffffffff8111156148a557600080fd5b8301601f810185136148b657600080fd5b80516148c46141628261411d565b81815260079190911b820183019083810190878311156148e357600080fd5b928401925b82841015614698576148fa88856146d5565b825284820191506080840193506148e856fea2646970667358221220a7ccba122ae79af0f9190e62a659418f782238d9d0bc1de3d196f44049dce0d864736f6c63430008140033",
  "linkReferences": {},
  "deployedLinkReferences": {}
}