{
  "_format": "hh-sol-artifact-1",
  "contractName": "GamePunk",
  "sourceName": "contracts/GamePunk.sol",
  "abi": [
    {
      "inputs": [
        {
          "internalType": "address",
          "name": "_mapAddress",
          "type": "address"
        }
      ],
      "stateMutability": "nonpayable",
      "type": "constructor"
    },
    {
      "inputs": [
        {
          "internalType": "address",
          "name": "owner",
          "type": "address"
        }
      ],
      "name": "OwnableInvalidOwner",
      "type": "error"
    },
    {
      "inputs": [
        {
          "internalType": "address",
          "name": "account",
          "type": "address"
        }
      ],
      "name": "OwnableUnauthorizedAccount",
      "type": "error"
    },
    {
      "inputs": [
        {
          "internalType": "address",
          "name": "player",
          "type": "address"
        },
        {
          "internalType": "uint8",
          "name": "q",
          "type": "uint8"
        },
        {
          "internalType": "uint8",
          "name": "r",
          "type": "uint8"
        }
      ],
      "name": "ShipAlreadyAdded",
      "type": "error"
    },
    {
      "anonymous": false,
      "inputs": [
        {
          "indexed": false,
          "internalType": "uint8",
          "name": "gameId",
          "type": "uint8"
        },
        {
          "indexed": false,
          "internalType": "uint8",
          "name": "q",
          "type": "uint8"
        },
        {
          "indexed": false,
          "internalType": "uint8",
          "name": "r",
          "type": "uint8"
        },
        {
          "indexed": false,
          "internalType": "bool",
          "name": "island",
          "type": "bool"
        }
      ],
      "name": "Cell",
      "type": "event"
    },
    {
      "anonymous": false,
      "inputs": [
        {
          "indexed": false,
          "internalType": "uint8",
          "name": "gameId",
          "type": "uint8"
        }
      ],
      "name": "CommitPhaseStarted",
      "type": "event"
    },
    {
      "anonymous": false,
      "inputs": [
        {
          "indexed": false,
          "internalType": "uint8",
          "name": "gameId",
          "type": "uint8"
        }
      ],
      "name": "GameEnded",
      "type": "event"
    },
    {
      "anonymous": false,
      "inputs": [
        {
          "indexed": false,
          "internalType": "uint8",
          "name": "gameId",
          "type": "uint8"
        }
      ],
      "name": "GameStarted",
      "type": "event"
    },
    {
      "anonymous": false,
      "inputs": [
        {
          "indexed": true,
          "internalType": "bool",
          "name": "gameStatus",
          "type": "bool"
        },
        {
          "indexed": true,
          "internalType": "address",
          "name": "winnerAddress",
          "type": "address"
        },
        {
          "indexed": false,
          "internalType": "uint8",
          "name": "gameId",
          "type": "uint8"
        }
      ],
      "name": "GameUpdated",
      "type": "event"
    },
    {
      "anonymous": false,
      "inputs": [
        {
          "indexed": true,
          "internalType": "address",
          "name": "winner",
          "type": "address"
        },
        {
          "indexed": false,
          "internalType": "uint8",
          "name": "gameId",
          "type": "uint8"
        }
      ],
      "name": "GameWinner",
      "type": "event"
    },
    {
      "anonymous": false,
      "inputs": [
        {
          "indexed": false,
          "internalType": "uint8",
          "name": "radius",
          "type": "uint8"
        },
        {
          "indexed": false,
          "internalType": "uint8",
          "name": "gameId",
          "type": "uint8"
        }
      ],
      "name": "MapInitialized",
      "type": "event"
    },
    {
      "anonymous": false,
      "inputs": [
        {
          "indexed": false,
          "internalType": "uint8",
          "name": "gameId",
          "type": "uint8"
        }
      ],
      "name": "MapShrink",
      "type": "event"
    },
    {
      "anonymous": false,
      "inputs": [
        {
          "indexed": true,
          "internalType": "address",
          "name": "player",
          "type": "address"
        },
        {
          "indexed": false,
          "internalType": "uint8",
          "name": "gameId",
          "type": "uint8"
        }
      ],
      "name": "MoveCommitted",
      "type": "event"
    },
    {
      "anonymous": false,
      "inputs": [
        {
          "indexed": true,
          "internalType": "address",
          "name": "player",
          "type": "address"
        },
        {
          "indexed": false,
          "internalType": "uint8",
          "name": "gameId",
          "type": "uint8"
        },
        {
          "indexed": false,
          "internalType": "uint256",
          "name": "roundId",
          "type": "uint256"
        },
        {
          "indexed": false,
          "internalType": "uint8",
          "name": "destQ",
          "type": "uint8"
        },
        {
          "indexed": false,
          "internalType": "uint8",
          "name": "destR",
          "type": "uint8"
        },
        {
          "indexed": false,
          "internalType": "uint8",
          "name": "shotQ",
          "type": "uint8"
        },
        {
          "indexed": false,
          "internalType": "uint8",
          "name": "shotR",
          "type": "uint8"
        }
      ],
      "name": "MoveSubmitted",
      "type": "event"
    },
    {
      "anonymous": false,
      "inputs": [
        {
          "indexed": false,
          "internalType": "uint8",
          "name": "gameId",
          "type": "uint8"
        },
        {
          "indexed": false,
          "internalType": "uint256",
          "name": "roundId",
          "type": "uint256"
        },
        {
          "indexed": false,
          "internalType": "uint8",
          "name": "radius",
          "type": "uint8"
        }
      ],
      "name": "NewRound",
      "type": "event"
    },
    {
      "anonymous": false,
      "inputs": [
        {
          "indexed": true,
          "internalType": "address",
          "name": "previousOwner",
          "type": "address"
        },
        {
          "indexed": true,
          "internalType": "address",
          "name": "newOwner",
          "type": "address"
        }
      ],
      "name": "OwnershipTransferred",
      "type": "event"
    },
    {
      "anonymous": false,
      "inputs": [
        {
          "indexed": true,
          "internalType": "address",
          "name": "player",
          "type": "address"
        },
        {
          "indexed": false,
          "internalType": "uint8",
          "name": "gameId",
          "type": "uint8"
        },
        {
          "indexed": false,
          "internalType": "uint8",
          "name": "q",
          "type": "uint8"
        },
        {
          "indexed": false,
          "internalType": "uint8",
          "name": "r",
          "type": "uint8"
        },
        {
          "indexed": false,
          "internalType": "uint8",
          "name": "speed",
          "type": "uint8"
        },
        {
          "indexed": false,
          "internalType": "uint8",
          "name": "range",
          "type": "uint8"
        }
      ],
      "name": "PlayerAdded",
      "type": "event"
    },
    {
      "anonymous": false,
      "inputs": [
        {
          "indexed": true,
          "internalType": "address",
          "name": "player",
          "type": "address"
        },
        {
          "indexed": false,
          "internalType": "uint8",
          "name": "gameId",
          "type": "uint8"
        }
      ],
      "name": "PlayerDefeated",
      "type": "event"
    },
    {
      "anonymous": false,
      "inputs": [
        {
          "indexed": true,
          "internalType": "address",
          "name": "captain",
          "type": "address"
        },
        {
          "indexed": false,
          "internalType": "uint8",
          "name": "gameId",
          "type": "uint8"
        },
        {
          "indexed": false,
          "internalType": "uint8",
          "name": "q",
          "type": "uint8"
        },
        {
          "indexed": false,
          "internalType": "uint8",
          "name": "r",
          "type": "uint8"
        }
      ],
      "name": "ShipCollidedWithIsland",
      "type": "event"
    },
    {
      "anonymous": false,
      "inputs": [
        {
          "indexed": true,
          "internalType": "address",
          "name": "victim",
          "type": "address"
        },
        {
          "indexed": true,
          "internalType": "address",
          "name": "attacker",
          "type": "address"
        },
        {
          "indexed": false,
          "internalType": "uint8",
          "name": "gameId",
          "type": "uint8"
        }
      ],
      "name": "ShipHit",
      "type": "event"
    },
    {
      "anonymous": false,
      "inputs": [
        {
          "indexed": true,
          "internalType": "address",
          "name": "captain",
          "type": "address"
        },
        {
          "indexed": false,
          "internalType": "uint8",
          "name": "initialQ",
          "type": "uint8"
        },
        {
          "indexed": false,
          "internalType": "uint8",
          "name": "initialR",
          "type": "uint8"
        },
        {
          "indexed": false,
          "internalType": "uint8",
          "name": "q",
          "type": "uint8"
        },
        {
          "indexed": false,
          "internalType": "uint8",
          "name": "r",
          "type": "uint8"
        },
        {
          "indexed": false,
          "internalType": "uint8",
          "name": "gameId",
          "type": "uint8"
        }
      ],
      "name": "ShipMoved",
      "type": "event"
    },
    {
      "anonymous": false,
      "inputs": [
        {
          "indexed": true,
          "internalType": "address",
          "name": "captain",
          "type": "address"
        },
        {
          "indexed": false,
          "internalType": "uint8",
          "name": "gameId",
          "type": "uint8"
        }
      ],
      "name": "ShipMovedInGame",
      "type": "event"
    },
    {
      "anonymous": false,
      "inputs": [
        {
          "indexed": true,
          "internalType": "address",
          "name": "captain",
          "type": "address"
        },
        {
          "indexed": false,
          "internalType": "uint8",
          "name": "fromQ",
          "type": "uint8"
        },
        {
          "indexed": false,
          "internalType": "uint8",
          "name": "fromR",
          "type": "uint8"
        },
        {
          "indexed": false,
          "internalType": "uint8",
          "name": "shotQ",
          "type": "uint8"
        },
        {
          "indexed": false,
          "internalType": "uint8",
          "name": "shotR",
          "type": "uint8"
        },
        {
          "indexed": false,
          "internalType": "uint8",
          "name": "gameId",
          "type": "uint8"
        }
      ],
      "name": "ShipShot",
      "type": "event"
    },
    {
      "anonymous": false,
      "inputs": [
        {
          "indexed": true,
          "internalType": "address",
          "name": "captain",
          "type": "address"
        },
        {
          "indexed": false,
          "internalType": "uint8",
          "name": "gameId",
          "type": "uint8"
        }
      ],
      "name": "ShipSunk",
      "type": "event"
    },
    {
      "anonymous": false,
      "inputs": [
        {
          "indexed": true,
          "internalType": "address",
          "name": "captain",
          "type": "address"
        },
        {
          "indexed": false,
          "internalType": "uint8",
          "name": "gameId",
          "type": "uint8"
        }
      ],
      "name": "ShipSunkOutOfMap",
      "type": "event"
    },
    {
      "anonymous": false,
      "inputs": [
        {
          "indexed": false,
          "internalType": "uint8",
          "name": "gameId",
          "type": "uint8"
        },
        {
          "indexed": false,
          "internalType": "uint256",
          "name": "round",
          "type": "uint256"
        }
      ],
      "name": "SubmitPhaseStarted",
      "type": "event"
    },
    {
      "anonymous": false,
      "inputs": [
        {
          "indexed": false,
          "internalType": "uint8",
          "name": "gameId",
          "type": "uint8"
        }
      ],
      "name": "WorldUpdated",
      "type": "event"
    },
    {
      "inputs": [
        {
          "internalType": "address",
          "name": "playerAddress",
          "type": "address"
        },
        {
          "internalType": "uint8",
          "name": "gameId",
          "type": "uint8"
        },
        {
          "internalType": "uint8",
          "name": "_speed",
          "type": "uint8"
        },
        {
          "internalType": "uint8",
          "name": "_range",
          "type": "uint8"
        }
      ],
      "name": "addShip",
      "outputs": [
        {
          "internalType": "bool",
          "name": "",
          "type": "bool"
        }
      ],
      "stateMutability": "nonpayable",
      "type": "function"
    },
    {
      "inputs": [
        {
          "internalType": "uint8",
          "name": "gameId",
          "type": "uint8"
        }
      ],
      "name": "endGame",
      "outputs": [],
      "stateMutability": "nonpayable",
      "type": "function"
    },
    {
      "inputs": [
        {
          "internalType": "uint256",
          "name": "",
          "type": "uint256"
        }
      ],
      "name": "games",
      "outputs": [
        {
          "internalType": "uint256",
          "name": "round",
          "type": "uint256"
        },
        {
          "internalType": "uint8",
          "name": "shrinkNo",
          "type": "uint8"
        },
        {
          "internalType": "bool",
          "name": "gameInProgress",
          "type": "bool"
        },
        {
          "internalType": "bool",
          "name": "stopAddingShips",
          "type": "bool"
        },
        {
          "internalType": "bool",
          "name": "letCommitMoves",
          "type": "bool"
        },
        {
          "internalType": "bool",
          "name": "letSubmitMoves",
          "type": "bool"
        }
      ],
      "stateMutability": "view",
      "type": "function"
    },
    {
      "inputs": [
        {
          "components": [
            {
              "internalType": "uint8",
              "name": "q",
              "type": "uint8"
            },
            {
              "internalType": "uint8",
              "name": "r",
              "type": "uint8"
            }
          ],
          "internalType": "struct SharedStructs.Coordinate",
          "name": "_coord",
          "type": "tuple"
        },
        {
          "internalType": "uint8",
          "name": "gameId",
          "type": "uint8"
        }
      ],
      "name": "getCell",
      "outputs": [
        {
          "components": [
            {
              "internalType": "uint8",
              "name": "q",
              "type": "uint8"
            },
            {
              "internalType": "uint8",
              "name": "r",
              "type": "uint8"
            },
            {
              "internalType": "bool",
              "name": "island",
              "type": "bool"
            },
            {
              "internalType": "bool",
              "name": "exists",
              "type": "bool"
            }
          ],
          "internalType": "struct SharedStructs.Cell",
          "name": "",
          "type": "tuple"
        }
      ],
      "stateMutability": "view",
      "type": "function"
    },
    {
      "inputs": [
        {
          "internalType": "uint8",
          "name": "gameId",
          "type": "uint8"
        }
      ],
      "name": "getCells",
      "outputs": [
        {
          "components": [
            {
              "internalType": "uint8",
              "name": "q",
              "type": "uint8"
            },
            {
              "internalType": "uint8",
              "name": "r",
              "type": "uint8"
            }
          ],
          "internalType": "struct SharedStructs.Coordinate[]",
          "name": "",
          "type": "tuple[]"
        }
      ],
      "stateMutability": "view",
      "type": "function"
    },
    {
      "inputs": [
        {
          "internalType": "uint8",
          "name": "gameId",
          "type": "uint8"
        }
      ],
      "name": "getRadius",
      "outputs": [
        {
          "internalType": "uint8",
          "name": "",
          "type": "uint8"
        }
      ],
      "stateMutability": "view",
      "type": "function"
    },
    {
      "inputs": [
        {
          "internalType": "uint8",
          "name": "gameId",
          "type": "uint8"
        }
      ],
      "name": "getShips",
      "outputs": [
        {
          "components": [
            {
              "components": [
                {
                  "internalType": "uint8",
                  "name": "q",
                  "type": "uint8"
                },
                {
                  "internalType": "uint8",
                  "name": "r",
                  "type": "uint8"
                }
              ],
              "internalType": "struct SharedStructs.Coordinate",
              "name": "coordinate",
              "type": "tuple"
            },
            {
              "internalType": "enum SharedStructs.Directions",
              "name": "travelDirection",
              "type": "uint8"
            },
            {
              "internalType": "uint8",
              "name": "travelDistance",
              "type": "uint8"
            },
            {
              "internalType": "enum SharedStructs.Directions",
              "name": "shotDirection",
              "type": "uint8"
            },
            {
              "internalType": "uint8",
              "name": "shotDistance",
              "type": "uint8"
            },
            {
              "internalType": "bool",
              "name": "publishedMove",
              "type": "bool"
            },
            {
              "internalType": "address",
              "name": "captain",
              "type": "address"
            },
            {
              "internalType": "uint8",
              "name": "yachtSpeed",
              "type": "uint8"
            },
            {
              "internalType": "uint8",
              "name": "yachtRange",
              "type": "uint8"
            },
            {
              "internalType": "uint8",
              "name": "gameId",
              "type": "uint8"
            }
          ],
          "internalType": "struct GamePunk.Ship[]",
          "name": "",
          "type": "tuple[]"
        }
      ],
      "stateMutability": "view",
      "type": "function"
    },
    {
      "inputs": [
        {
          "components": [
            {
              "internalType": "uint8",
              "name": "q",
              "type": "uint8"
            },
            {
              "internalType": "uint8",
              "name": "r",
              "type": "uint8"
            }
          ],
          "internalType": "struct SharedStructs.Coordinate",
          "name": "_start",
          "type": "tuple"
        },
        {
          "internalType": "enum SharedStructs.Directions",
          "name": "_dir",
          "type": "uint8"
        },
        {
          "internalType": "uint8",
          "name": "_distance",
          "type": "uint8"
        },
        {
          "internalType": "uint8",
          "name": "gameId",
          "type": "uint8"
        }
      ],
      "name": "move",
      "outputs": [
        {
          "components": [
            {
              "internalType": "uint8",
              "name": "q",
              "type": "uint8"
            },
            {
              "internalType": "uint8",
              "name": "r",
              "type": "uint8"
            }
          ],
          "internalType": "struct SharedStructs.Coordinate",
          "name": "",
          "type": "tuple"
        }
      ],
      "stateMutability": "view",
      "type": "function"
    },
    {
      "inputs": [],
      "name": "owner",
      "outputs": [
        {
          "internalType": "address",
          "name": "",
          "type": "address"
        }
      ],
      "stateMutability": "view",
      "type": "function"
    },
    {
      "inputs": [],
      "name": "registrationContract",
      "outputs": [
        {
          "internalType": "address",
          "name": "",
          "type": "address"
        }
      ],
      "stateMutability": "view",
      "type": "function"
    },
    {
      "inputs": [],
      "name": "renounceOwnership",
      "outputs": [],
      "stateMutability": "nonpayable",
      "type": "function"
    },
    {
      "inputs": [
        {
          "internalType": "enum SharedStructs.Directions",
          "name": "_travelDirection",
          "type": "uint8"
        },
        {
          "internalType": "uint8",
          "name": "_travelDistance",
          "type": "uint8"
        },
        {
          "internalType": "enum SharedStructs.Directions",
          "name": "_shotDirection",
          "type": "uint8"
        },
        {
          "internalType": "uint8",
          "name": "_shotDistance",
          "type": "uint8"
        },
        {
          "internalType": "uint8",
          "name": "gameId",
          "type": "uint8"
        }
      ],
      "name": "revealMove",
      "outputs": [],
      "stateMutability": "nonpayable",
      "type": "function"
    },
    {
      "inputs": [
        {
          "internalType": "uint8",
          "name": "gameId",
          "type": "uint8"
        },
        {
          "internalType": "uint8",
          "name": "_radius",
          "type": "uint8"
        }
      ],
      "name": "startNewGame",
      "outputs": [],
      "stateMutability": "nonpayable",
      "type": "function"
    },
    {
      "inputs": [
        {
          "internalType": "address",
          "name": "newOwner",
          "type": "address"
        }
      ],
      "name": "transferOwnership",
      "outputs": [],
      "stateMutability": "nonpayable",
      "type": "function"
    },
    {
      "inputs": [
        {
          "components": [
            {
              "internalType": "uint8",
              "name": "q",
              "type": "uint8"
            },
            {
              "internalType": "uint8",
              "name": "r",
              "type": "uint8"
            }
          ],
          "internalType": "struct SharedStructs.Coordinate",
          "name": "_startCell",
          "type": "tuple"
        },
        {
          "internalType": "enum SharedStructs.Directions",
          "name": "_direction",
          "type": "uint8"
        },
        {
          "internalType": "uint8",
          "name": "_distance",
          "type": "uint8"
        },
        {
          "internalType": "uint8",
          "name": "gameId",
          "type": "uint8"
        }
      ],
      "name": "travel",
      "outputs": [],
      "stateMutability": "nonpayable",
      "type": "function"
    },
    {
      "inputs": [
        {
          "internalType": "uint8",
          "name": "gameId",
          "type": "uint8"
        }
      ],
      "name": "updateWorld",
      "outputs": [],
      "stateMutability": "nonpayable",
      "type": "function"
    }
  ],
  "bytecode": "0x60a06040523480156200001157600080fd5b50604051620048e3380380620048e38339810160408190526200003491620000c9565b33806200005b57604051631e4fbdf760e01b81526000600482015260240160405180910390fd5b620000668162000079565b506001600160a01b0316608052620000fb565b600080546001600160a01b038381166001600160a01b0319831681178455604051919092169283917f8be0079c531659141344cd1fd0a4f28419497f9722a3daafe3b4186f6b6457e09190a35050565b600060208284031215620000dc57600080fd5b81516001600160a01b0381168114620000f457600080fd5b9392505050565b60805161476a6200017960003960008181610393015281816104dd0152818161077d015281816107fc0152818161096b01528181610af501528181610ca201528181610e6f0152818161143201528181611a1d0152818161298a01528181612c87015281816135c1015281816137fc0152613abb015261476a6000f3fe608060405234801561001057600080fd5b50600436106101005760003560e01c8063863375ac11610097578063d1153bc311610066578063d1153bc3146102e0578063f10a3927146102f3578063f2fde38b14610316578063fd8704461461032957600080fd5b8063863375ac146102895780638da5cb5b1461029c578063978ac356146102ad578063d085a86f146102c057600080fd5b80634998b8fb116100d35780634998b8fb146101f95780634aac9b8b1461020c5780634d0238861461022c578063715018a61461028157600080fd5b8063117a5b90146101055780631cf8a321146101945780631e522c3e146101a957806334361208146101d4575b600080fd5b610156610113366004613d23565b600160208190526000918252604090912080549181015460049091015460ff91821691818116916101008104821691620100008204811691630100000090041686565b6040805196875260ff909516602087015292151593850193909352151560608401529015156080830152151560a082015260c0015b60405180910390f35b6101a76101a2366004613e11565b610349565b005b6002546101bc906001600160a01b031681565b6040516001600160a01b03909116815260200161018b565b6101e76101e2366004613e6a565b610487565b60405160ff909116815260200161018b565b6101a7610207366004613e87565b610556565b61021f61021a366004613e6a565b610913565b60405161018b9190613ef4565b61023f61023a366004613f51565b610c2b565b60405161018b9190600060808201905060ff835116825260ff602084015116602083015260408301511515604083015260608301511515606083015292915050565b6101a7610d21565b6101a7610297366004613e6a565b610d35565b6000546001600160a01b03166101bc565b6101a76102bb366004613e6a565b610dce565b6102d36102ce366004613e11565b612923565b60405161018b9190613f89565b6101a76102ee366004613fa7565b612a0c565b610306610301366004613fec565b612b4a565b604051901515815260200161018b565b6101a761032436600461403b565b613172565b61033c610337366004613e6a565b6131b0565b60405161018b919061408e565b60ff80821660009081526001602081905260409091206004015490911615151461038e5760405162461bcd60e51b81526004016103859061419a565b60405180910390fd5b6000807f00000000000000000000000000000000000000000000000000000000000000006001600160a01b0316631cf8a321878787876040518563ffffffff1660e01b81526004016103e394939291906141d1565b606060405180830381865afa158015610400573d6000803e3d6000fd5b505050506040513d601f19601f82011682018060405250810190610424919061425e565b91509150811561043d576104383384613466565b61047f565b805160ff8481166000908152600160209081526040808320338452600201825290912080549185015183166101000261ffff1990921692909316919091171790555b505050505050565b60ff80821660009081526001602081905260408220600401549192919091161515146104c55760405162461bcd60e51b81526004016103859061419a565b60405163436fadf360e11b815260ff831660048201527f00000000000000000000000000000000000000000000000000000000000000006001600160a01b0316906386df5be690602401602060405180830381865afa15801561052c573d6000803e3d6000fd5b505050506040513d601f19601f820116820180604052508101906105509190614292565b92915050565b60ff808216600090815260016020819052604090912060040154630100000090049091161515146105d35760405162461bcd60e51b815260206004820152602160248201527f5375626d6974206d6f76657320686173206e6f742073746172746564207965746044820152602160f81b6064820152608401610385565b60ff80821660009081526001602081905260409091206004015490911615151461060f5760405162461bcd60e51b81526004016103859061419a565b60ff8116600090815260016020818152604080842033855260020190915290912080820180549192889260ff19169083600681111561065057610650614056565b0217905550600181015460ff600160c81b909104811690861611156106925760018101805460ff600160c81b8204166101000261ff00199091161790556106a9565b60018101805461ff00191661010060ff8816021790555b60018101805485919062ff00001916620100008360068111156106ce576106ce614056565b0217905550600181015460ff600160d01b9091048116908416111561071457600181018054630100000060ff600160d01b8304160263ff0000001990911617905561072f565b60018101805463ff0000001916630100000060ff8616021790555b60018101805464ff000000001916640100000000179055604080518082018252825460ff81811683526101009091041660208201529051630d42527560e11b81526000906001600160a01b037f00000000000000000000000000000000000000000000000000000000000000001690631a84a4ea906107b69085908c908c906004016142af565b6040805180830381865afa1580156107d2573d6000803e3d6000fd5b505050506040513d601f19601f820116820180604052508101906107f691906142eb565b905060007f00000000000000000000000000000000000000000000000000000000000000006001600160a01b0316631a84a4ea8389896040518463ffffffff1660e01b815260040161084a939291906142af565b6040805180830381865afa158015610866573d6000803e3d6000fd5b505050506040513d601f19601f8201168201806040525081019061088a91906142eb565b60ff8681166000818152600160209081526040918290205487518883015187518885015186519788529487019390935290861685850152851660608501528416608084015290921660a0820152905191925033917faff0b78027ac9f4904ee624bc84e3126d0e7d96ce215c5db5158441acb0b38cf9181900360c00190a2505050505050505050565b60ff808216600090815260016020819052604090912060040154606092161515146109505760405162461bcd60e51b81526004016103859061419a565b60405163436fadf360e11b815260ff831660048201526000907f00000000000000000000000000000000000000000000000000000000000000006001600160a01b0316906386df5be690602401602060405180830381865afa1580156109ba573d6000803e3d6000fd5b505050506040513d601f19601f820116820180604052508101906109de9190614292565b905060006109ed82600161431d565b6109f8836003614336565b610a029190614336565b610a0d90600161431d565b60ff16905060008167ffffffffffffffff811115610a2d57610a2d613d3c565b604051908082528060200260200182016040528015610a7257816020015b6040805180820190915260008082526020820152815260200190600190039081610a4b5790505b50905060405180604001604052808460ff1681526020018460ff1681525081600081518110610aa357610aa3614352565b602090810291909101015260015b8360ff168160ff1611610c2257600081610acc600182614368565b610ad7906003614336565b610ae19190614336565b610aec90600161431d565b60ff16905060007f00000000000000000000000000000000000000000000000000000000000000006001600160a01b03166339e5c4a085600081518110610b3557610b35614352565b6020026020010151856040518363ffffffff1660e01b8152600401610b5b929190614381565b600060405180830381865afa158015610b78573d6000803e3d6000fd5b505050506040513d6000823e601f3d908101601f19168201604052610ba091908101906143d3565b905060005b81518160ff161015610c0c57818160ff1681518110610bc657610bc6614352565b6020026020010151858260ff1685610bde9190614474565b81518110610bee57610bee614352565b60200260200101819052508080610c0490614487565b915050610ba5565b5050508080610c1a90614487565b915050610ab1565b50949350505050565b60408051608081018252600080825260208201819052918101829052606081019190915260ff808316600090815260016020819052604090912060040154909116151514610c8b5760405162461bcd60e51b81526004016103859061419a565b6040516326811c4360e11b81526001600160a01b037f00000000000000000000000000000000000000000000000000000000000000001690634d02388690610cd99086908690600401614381565b608060405180830381865afa158015610cf6573d6000803e3d6000fd5b505050506040513d601f19601f82011682018060405250810190610d1a919061452c565b9392505050565b610d2961353f565b610d33600061356c565b565b610d3d61353f565b60ff808216600090815260016020819052604090912060040154909116151514610d795760405162461bcd60e51b81526004016103859061419a565b60ff8116600081815260016020908152604091829020600401805460ff1916905590519182527f4df34531b3f238bc8f90ad83236d8c752e7444e434bb5fc99f888f0a6345c0e791015b60405180910390a150565b610dd661353f565b60ff808216600090815260016020819052604090912060040154909116151514610e125760405162461bcd60e51b81526004016103859061419a565b60ff8116600090815260016020526040902054610e3190600390614548565b6000036111dd5760ff81811660008181526001602081905260409182902001549051634affc34f60e01b8152600481019290925290911660248201527f00000000000000000000000000000000000000000000000000000000000000006001600160a01b031690634affc34f90604401600060405180830381600087803b158015610ebb57600080fd5b505af1158015610ecf573d6000803e3d6000fd5b50505060ff808316600090815260016020819052604082200180549092169250610ef883614487565b91906101000a81548160ff021916908360ff160217905550507fab00852360aeece33bb03176d4e62fbb27adf3fd1a81b9d543c1ae388003b0ac81604051610f49919060ff91909116815260200190565b60405180910390a160005b60ff80831660009081526001602052604090206003015490821610156111db5760ff8083166000908152600160205260408120600381018054929360029092019284928616908110610fa857610fa8614352565b60009182526020808320909101546001600160a01b03168352828101939093526040918201902081518083019092525460ff808216835261010090910416918101919091529050610ff981846135bc565b156111c85760ff8084166000908152600160205260409020600301805461104792851690811061102b5761102b614352565b6000918252602090912001546001600160a01b0316838561365b565b600160008460ff1681526020019081526020016000206003018260ff168154811061107457611074614352565b6000918252602091829020015460405160ff861681526001600160a01b03909116917f7098e36d986448e47b2ec53e41ddd178ac0774637ee2227e84baba39b0c1c7b1910160405180910390a260ff83166000908152600160208190526040909120600301805490916110e69161456a565b815481106110f6576110f6614352565b9060005260206000200160009054906101000a90046001600160a01b0316600160008560ff1681526020019081526020016000206003018360ff168154811061114157611141614352565b600091825260208083209190910180546001600160a01b0319166001600160a01b03949094169390931790925560ff8516815260019091526040902060030180548061118f5761118f61457d565b600082815260209020810160001990810180546001600160a01b031916905501905560ff8216156111c857816111c481614593565b9250505b50806111d381614487565b915050610f54565b505b60ff811660009081526001602052604081206003015467ffffffffffffffff81111561120b5761120b613d3c565b60405190808252806020026020018201604052801561125057816020015b60408051808201909152600080825260208201528152602001906001900390816112295790505b5060ff83166000908152600160205260408120600301549192509067ffffffffffffffff81111561128357611283613d3c565b6040519080825280602002602001820160405280156112ac578160200160208202803683370190505b50905060005b60ff808516600090815260016020526040902060030154908216101561130b576001828260ff16815181106112e9576112e9614352565b911515602092830291909101909101528061130381614487565b9150506112b2565b5060005b60ff80851660009081526001602052604090206003015490821610156119b25760ff808516600090815260016020526040812060038101805492936002909201928492861690811061136357611363614352565b60009182526020808320909101546001600160a01b03908116845290830193909352604090910190206001015465010000000000900416146119a05760ff808516600090815260016020526040812060038101805460029092019390919085169081106113d2576113d2614352565b60009182526020808320909101546001600160a01b0316835282019290925260400190206001015460ff64010000000090910416156119a05760ff8085166000908152600160205260408120600381018054929384936001600160a01b037f00000000000000000000000000000000000000000000000000000000000000001693631cf8a32193600290910192869290891690811061147357611473614352565b60009182526020808320909101546001600160a01b03168352828101939093526040918201812060ff808d1683526001909452918120600381018054939460029092019390918a169081106114ca576114ca614352565b60009182526020808320909101546001600160a01b03168352828101939093526040918201812060019081015460ff8e8116845291909452918120600381018054948416946002909201939091908b1690811061152957611529614352565b60009182526020808320909101546001600160a01b0316835282019290925260409081019091206001015490516001600160e01b031960e086901b16815261158193929160ff61010090910416908c906004016145b0565b606060405180830381865afa15801561159e573d6000803e3d6000fd5b505050506040513d601f19601f820116820180604052508101906115c2919061425e565b91509150811561175357600160008760ff1681526020019081526020016000206003018360ff16815481106115f9576115f9614352565b600091825260209182902001548251838301516040805160ff808d168252938416958101959095529116908301526001600160a01b0316907fd44ddf7f8e572e76d7ed6bf350d88367a33cf9a7d19d5069c392802305d51f6c9060600160405180910390a260ff808716600090815260016020526040902060030180546116a792861690811061168b5761168b614352565b6000918252602090912001546001600160a01b0316848861365b565b6000848460ff16815181106116be576116be614352565b91151560209283029190910182015260ff8088166000908152600190925260408220600381018054859460029093019388169081106116ff576116ff614352565b60009182526020808320909101546001600160a01b03168352828101939093526040909101902082518154939092015160ff9081166101000261ffff19909416921691909117919091179055506119a09050565b600160008760ff1681526020019081526020016000206003018360ff168154811061178057611780614352565b600091825260208083209091015460ff808a1684526001909252604083206003810180546001600160a01b03909316947ff1e9c1d54f160cab3c8602dcfbf5fbe3e012ed037d80057eca695f74d26077a094600290930193909289169081106117eb576117eb614352565b60009182526020808320909101546001600160a01b0316835282810193909352604091820181205460ff8c8116835260019094529181206003810180549385169460029092019390918a1690811061184557611845614352565b6000918252602080832091909101546001600160a01b03168352828101939093526040918201902054865187840151835160ff96871681526101009093048616948301949094528416818301529183166060830152918a16608082015290519081900360a00190a260ff808716600090815260016020526040812060038101805485946002909301939288169081106118e0576118e0614352565b60009182526020808320909101546001600160a01b031683528281019390935260409182018120845181549585015160ff9081166101000261ffff199097169181169190911795909517905589841681526001909252902060030180549091851690811061195057611950614352565b6000918252602091829020015460405160ff891681526001600160a01b03909116917f51f35fa2867d710ef60e6209b0ca28b42abd534ed14e1f8394e793f42253c9f6910160405180910390a250505b806119aa81614487565b91505061130f565b5060005b60ff8085166000908152600160205260409020600301549082161015611d4457818160ff16815181106119eb576119eb614352565b602002602001015115611d325760ff808516600090815260016020526040812060038101805492936001600160a01b037f0000000000000000000000000000000000000000000000000000000000000000169363d6192ad3936002019286929091908816908110611a5e57611a5e614352565b60009182526020808320909101546001600160a01b03168352828101939093526040918201812060ff808c1683526001909452918120600381018054939460029092019390918916908110611ab557611ab5614352565b60009182526020808320909101546001600160a01b03168352828101939093526040918201812060019081015460ff8d811684529190945291812060038101805462010000909504841694600292909201939091908a16908110611b1b57611b1b614352565b60009182526020808320909101546001600160a01b0316835282019290925260409081019091206001015490516001600160e01b031960e086901b168152611b7393929160ff630100000090910416906004016145ce565b6040805180830381865afa158015611b8f573d6000803e3d6000fd5b505050506040513d601f19601f82011682018060405250810190611bb391906142eb565b905080848360ff1681518110611bcb57611bcb614352565b6020026020010181905250600160008660ff1681526020019081526020016000206003018260ff1681548110611c0357611c03614352565b600091825260208083209091015460ff80891684526001909252604083206003810180546001600160a01b03909316947f78546d5ff977d70d771d8edba5bdd99150ec97e7837d6e2af4384b1605a4372d9460029093019390928816908110611c6e57611c6e614352565b60009182526020808320909101546001600160a01b0316835282810193909352604091820181205460ff8b8116835260019094529181206003810180549385169460029092019390918916908110611cc857611cc8614352565b6000918252602080832091909101546001600160a01b03168352828101939093526040918201902054865187840151835160ff96871681526101009093048616948301949094528416818301529183166060830152918916608082015290519081900360a00190a2505b80611d3c81614487565b9150506119b6565b5060005b60ff808516600090815260016020526040902060030154908216101561238c5760005b60ff8086166000908152600160205260409020600301549082161015612379578060ff168260ff161461236757828260ff1681518110611dad57611dad614352565b60200260200101518015611dda5750828160ff1681518110611dd157611dd1614352565b60200260200101515b8015611e98575060ff80861660009081526001602052604081206003810180546002909201939091908616908110611e1457611e14614352565b60009182526020808320909101546001600160a01b0316835282810193909352604091820181205460ff898116835260019094529181206003810180549385169460029092019390918616908110611e6e57611e6e614352565b60009182526020808320909101546001600160a01b0316835282019290925260400190205460ff16145b8015611f61575060ff80861660009081526001602052604081206003810180546002909201939091908616908110611ed257611ed2614352565b60009182526020808320909101546001600160a01b0316835282810193909352604091820181205460ff8981168352600190945291812060038101805461010090940485169460029092019390918616908110611f3157611f31614352565b60009182526020808320909101546001600160a01b0316835282019290925260400190205460ff61010090910416145b1561213e576000838360ff1681518110611f7d57611f7d614352565b6020026020010190151590811515815250506000838260ff1681518110611fa657611fa6614352565b602002602001019015159081151581525050600160008660ff1681526020019081526020016000206003018260ff1681548110611fe557611fe5614352565b6000918252602091829020015460405160ff881681526001600160a01b03909116917f783de3ac95b82563b70ac74b3a843e5f9f71a653b9518e6e1762b39151c0f710910160405180910390a2600160008660ff1681526020019081526020016000206003018160ff168154811061205f5761205f614352565b6000918252602091829020015460405160ff881681526001600160a01b03909116917f783de3ac95b82563b70ac74b3a843e5f9f71a653b9518e6e1762b39151c0f710910160405180910390a260ff808616600090815260016020526040902060030180546120f59285169081106120d9576120d9614352565b6000918252602090912001546001600160a01b0316838761365b565b60ff8086166000908152600160205260409020600301805461213e92841690811061212257612122614352565b6000918252602090912001546001600160a01b0316828761365b565b828260ff168151811061215357612153614352565b602002602001015180156121e7575060ff8086166000908152600160205260408120600381018054600290920193909190861690811061219557612195614352565b60009182526020808320909101546001600160a01b03168352820192909252604001902054845160ff9182169186919084169081106121d6576121d6614352565b60200260200101516000015160ff16145b8015612278575060ff8086166000908152600160205260408120600381018054600290920193909190861690811061222157612221614352565b60009182526020808320909101546001600160a01b03168352820192909252604001902054845160ff610100909204821691869190841690811061226757612267614352565b60200260200101516020015160ff16145b1561236757600160008660ff1681526020019081526020016000206003018160ff16815481106122aa576122aa614352565b600091825260208083209091015460ff80891684526001909252604090922060030180546001600160a01b0390931692909185169081106122ed576122ed614352565b6000918252602091829020015460405160ff891681526001600160a01b03909116917fb2ee3834f34c038f7f34d57f8ce213e4ee56fecd33556013e0f66b1e32ee14bc910160405180910390a360ff808616600090815260016020526040902060030180546123679285169081106120d9576120d9614352565b8061237181614487565b915050611d6b565b508061238481614487565b915050611d48565b5060005b60ff808516600090815260016020526040902060030154908216101561251b5760006001600160a01b0316600160008660ff1681526020019081526020016000206003018260ff16815481106123e8576123e8614352565b6000918252602090912001546001600160a01b0316036125095760ff84166000908152600160208190526040909120600301805490916124279161456a565b8154811061243757612437614352565b9060005260206000200160009054906101000a90046001600160a01b0316600160008660ff1681526020019081526020016000206003018260ff168154811061248257612482614352565b600091825260208083209190910180546001600160a01b0319166001600160a01b03949094169390931790925560ff861681526001909152604090206003018054806124d0576124d061457d565b600082815260209020810160001990810180546001600160a01b031916905501905560ff811615612509578061250581614593565b9150505b8061251381614487565b915050612390565b5060ff831660009081526001602052604081206003015490036125995760405160ff841681526000907f8403b4a1c998f6768b577f2c265d744e2f4d05982059b4d82b34eb822bdc17d1906020015b60405180910390a260ff83166000908152600160205260409020600401805461ff0019166101001790556128e7565b60ff831660009081526001602081905260409091206003015490036126285760ff8316600090815260016020526040812060030180549091906125de576125de614352565b6000918252602091829020015460405160ff861681526001600160a01b03909116917f8403b4a1c998f6768b577f2c265d744e2f4d05982059b4d82b34eb822bdc17d1910161256a565b60ff83166000908152600160205260408120600301805490919061264e5761264e614352565b60009182526020808320919091015460405160ff871681526001600160a01b0390911692917f2cee3725d64bc62c413fa35348815210ff376bf4f13627d82b6ac0d0efc6e8cd910160405180910390a360005b60ff80851660009081526001602052604090206003015490821610156128b35760ff80851660009081526001602052604081206003810180546006946002909301939286169081106126f5576126f5614352565b60009182526020808320909101546001600160a01b03168352820192909252604001902060019081018054909160ff199091169083600681111561273b5761273b614056565b021790555060ff808516600090815260016020526040812060038101805492936002909201928492861690811061277457612774614352565b6000918252602080832091909101546001600160a01b0316835282810193909352604091820181206001908101805461ff00191661010060ff97881602179055888516825290925281206003810180546006946002909301939286169081106127df576127df614352565b60009182526020808320909101546001600160a01b031683528201929092526040019020600101805462ff000019166201000083600681111561282457612824614056565b021790555060ff808516600090815260016020526040812060038101805492936002909201928492861690811061285d5761285d614352565b60009182526020808320909101546001600160a01b031683528201929092526040019020600101805460ff9290921663010000000263ff00000019909216919091179055806128ab81614487565b9150506126a1565b5060ff83166000908152600160205260409020600401805463ff000000191690556128dd836137d7565b506128e7836138f8565b60405160ff841681527fd44344392ee117b90bc172ab74cce9c43a862f0d5e11a336b3885fde466c244e906020015b60405180910390a1505050565b604080518082019091526000808252602082015260ff8083166000908152600160208190526040909120600401549091161515146129735760405162461bcd60e51b81526004016103859061419a565b604051630d42527560e11b81526001600160a01b037f00000000000000000000000000000000000000000000000000000000000000001690631a84a4ea906129c3908890889088906004016142af565b6040805180830381865afa1580156129df573d6000803e3d6000fd5b505050506040513d601f19601f82011682018060405250810190612a0391906142eb565b95945050505050565b612a1461353f565b60ff8260ff1610612a675760405162461bcd60e51b815260206004820152601f60248201527f4d6178696d756d206e756d626572206f662067616d65732072656163686564006044820152606401610385565b60ff8083166000908152600160205260409020600401541615612ada5760405162461bcd60e51b815260206004820152602560248201527f47616d652077697468207468697320494420616c726561647920696e2070726f604482015264677265737360d81b6064820152608401610385565b60ff82166000908152600160208190526040909120600401805460ff19169091179055612b078183613991565b612b10826138f8565b60405160ff831681527f13cb55fc1bec4b9f4cd4c22f154240b469cb108a23a35aa599df0c3da46f2d149060200160405180910390a15050565b60ff8084166000908152600160208190526040822060040154919291909116151514612b885760405162461bcd60e51b81526004016103859061419a565b60ff80851660009081526001602090815260408083206001600160a01b038a1684526002019091529020541615801590612bf1575060ff80851660009081526001602090815260408083206001600160a01b038a16845260020190915290205461010090041615155b15612c585760ff84811660009081526001602090815260408083206001600160a01b038a168085526002909101909252918290205491516308538db760e41b8152600481019190915281831660248201526101009091049091166044820152606401610385565b604080518082019091526000808252602082015260005b6040516342c39d9160e01b815260ff871660048201527f00000000000000000000000000000000000000000000000000000000000000006001600160a01b0316906342c39d919060240160408051808303816000875af1158015612cd7573d6000803e3d6000fd5b505050506040513d601f19601f82011682018060405250810190612cfb91906142eb565b9150612d41604051806040016040528060138152602001724e657720726e6420706169722025732c20257360681b815250836000015160ff16846020015160ff16613c42565b60005b60ff8088166000908152600160205260409020600301549082161015612ee057612de86040518060400160405280601781526020017f696e206c6f6f702025732c20616464726573733a2025730000000000000000008152508260ff16600160008b60ff1681526020019081526020016000206003018460ff1681548110612dce57612dce614352565b6000918252602090912001546001600160a01b0316613c89565b825160ff8881166000908152600160205260408120600381018054948416946002909201939091908616908110612e2157612e21614352565b60009182526020808320909101546001600160a01b0316835282019290925260400190205460ff16148015612ec0575060208084015160ff89811660009081526001909352604083206003810180549383169460029092019391929091908616908110612e9057612e90614352565b60009182526020808320909101546001600160a01b0316835282019290925260400190205460ff61010090910416145b15612ece5760019150612ee0565b80612ed881614487565b915050612d44565b5080612c6f57604080516101408101825283815260006020808301828152838501839052606084018390526080840183905260a084018390526001600160a01b038c1660c0850181905260ff8b811660e08701528a8116610100808801919091528d82166101208801819052865260018086528887209387526002909301855296909420855180518254919095015194861661ffff1990911617939094169095029190911782555181840180549394859460ff191690836006811115612fa857612fa8614056565b0217905550604082015160018201805460ff9092166101000261ff001983168117825560608501519262ff00001990911662ffff00199091161762010000836006811115612ff857612ff8614056565b021790555060808201516001918201805460a085015160c086015160e08701516101008801516101209098015160ff908116600160d81b0260ff60d81b19998216600160d01b029990991661ffff60d01b19928216600160c81b0260ff60c81b196001600160a01b0395861665010000000000021665010000000000600160d01b03199615156401000000000264ff00000000199a85166301000000029a909a1664ffff0000001990981697909717989098179490941694909417959095179490941617949094179055918916600090815260208281526040808320600301805494850181558352918190209092018054938c166001600160a01b03199094168417905585519186015190517f5e5c5018f010da587f4ea3677380307dc0fb74d57d455db252799686dbfbd0599261315c928c928c908c9060ff95861681529385166020850152918416604084015283166060830152909116608082015260a00190565b60405180910390a2506001979650505050505050565b61317a61353f565b6001600160a01b0381166131a457604051631e4fbdf760e01b815260006004820152602401610385565b6131ad8161356c565b50565b60ff808216600090815260016020819052604090912060040154606092161515146131ed5760405162461bcd60e51b81526004016103859061419a565b60ff821660009081526001602052604081206003015467ffffffffffffffff81111561321b5761321b613d3c565b6040519080825280602002602001820160405280156132a957816020015b604080516101808101825260006101408201818152610160830182905282526020808301829052928201819052606082018190526080820181905260a0820181905260c0820181905260e08201819052610100820181905261012082015282526000199092019101816132395790505b50905060005b60ff841660009081526001602052604090206003015481101561345f5760ff8416600090815260016020526040812060038101805460029092019291849081106132fb576132fb614352565b60009182526020808320909101546001600160a01b03168352828101939093526040918201902081516101808101909252805460ff808216610140850190815261010090920481166101608501529083526001820154929391929184019116600681111561336b5761336b614056565b600681111561337c5761337c614056565b8152600182015460ff610100820481166020840152604090920191620100009091041660068111156133b0576133b0614056565b60068111156133c1576133c1614056565b81526001919091015460ff630100000082048116602084015264010000000082048116151560408401526001600160a01b03650100000000008304166060840152600160c81b820481166080840152600160d01b8204811660a0840152600160d81b9091041660c090910152825183908390811061344157613441614352565b60200260200101819052508080613457906145ec565b9150506132af565b5092915050565b60ff8082166000908152600160208190526040909120600401549091161515146134a25760405162461bcd60e51b81526004016103859061419a565b6000805b60ff808416600090815260016020526040902060030154908216101561352e5760ff808416600090815260016020526040902060030180546001600160a01b0387169284169081106134fa576134fa614352565b6000918252602090912001546001600160a01b03160361351c5780915061352e565b8061352681614487565b9150506134a6565b5061353a83828461365b565b505050565b6000546001600160a01b03163314610d335760405163118cdaa760e01b8152336004820152602401610385565b600080546001600160a01b038381166001600160a01b0319831681178455604051919092169283917f8be0079c531659141344cd1fd0a4f28419497f9722a3daafe3b4186f6b6457e09190a35050565b6000807f00000000000000000000000000000000000000000000000000000000000000006001600160a01b0316634d02388685856040518363ffffffff1660e01b815260040161360d929190614381565b608060405180830381865afa15801561362a573d6000803e3d6000fd5b505050506040513d601f19601f8201168201806040525081019061364e919061452c565b6060015115949350505050565b60ff808216600090815260016020526040902060030154908316106136c25760405162461bcd60e51b815260206004820152601860248201527f496e6465782076616c7565206f7574206f662072616e676500000000000000006044820152606401610385565b60ff8082166000908152600160208190526040909120600401549091161515146136fe5760405162461bcd60e51b81526004016103859061419a565b60405160ff821681526001600160a01b038416907fabe2a4edb03972506a4064b683e5482b1f09f2fb96bd4463b7b15b38cbd5b1869060200160405180910390a260ff80821660008181526001602081815260408084206001600160a01b038a168552600281018352908420805461ffff19168155830180546001600160e01b03191690559383525260039091018054919290919085169081106137a4576137a4614352565b9060005260206000200160006101000a8154816001600160a01b0302191690836001600160a01b03160217905550505050565b60405163436fadf360e11b815260ff8216600482015260009081906001600160a01b037f000000000000000000000000000000000000000000000000000000000000000016906386df5be690602401602060405180830381865afa158015613843573d6000803e3d6000fd5b505050506040513d601f19601f820116820180604052508101906138679190614292565b60ff84166000908152600160205260408120805492935090613888836145ec565b909155505060ff838116600081815260016020908152604091829020548251938452908301529183168183015290517f44d8fc4a70679f71d5b762b5218cbfb0c858bb7e015b1effe03793d2909c20f69181900360600190a1505060ff1660009081526001602052604090205490565b60ff8082166000908152600160208190526040909120600401549091161515146139345760405162461bcd60e51b81526004016103859061419a565b60ff811660008181526001602090815260409182902060048101805463ff00000019166301000000179055548251938452908301527f8f2926f00686a0050801f0bdb34f506a8467984df7f619eca0dac070da51babc9101610dc3565b60ff8082166000908152600160208190526040909120600401549091161515146139cd5760405162461bcd60e51b81526004016103859061419a565b60005b60ff8216600090815260016020526040902060030154811015613a6c5760ff821660009081526001602052604081206003810180546002909201929184908110613a1c57613a1c614352565b60009182526020808320909101546001600160a01b031683528201929092526040019020805461ffff1916815560010180546001600160e01b031916905580613a64816145ec565b9150506139d0565b5060ff81166000908152600160205260408120613a8e91600390910190613cf1565b613a97816137d7565b50604051631a405d8760e31b815260ff8084166004830152821660248201526000907f00000000000000000000000000000000000000000000000000000000000000006001600160a01b03169063d202ec38906044016000604051808303816000875af1158015613b0c573d6000803e3d6000fd5b505050506040513d6000823e601f3d908101601f19168201604052613b349190810190614605565b905060005b8151811015613c07577fa0c5e7441ab424c9fb8f47238c88c2c172bf9be1898748ea348b2a8bb92d6dbb83838381518110613b7657613b76614352565b602002602001015160000151848481518110613b9457613b94614352565b602002602001015160200151858581518110613bb257613bb2614352565b602002602001015160400151604051613bed949392919060ff9485168152928416602084015292166040820152901515606082015260800190565b60405180910390a180613bff816145ec565b915050613b39565b506040805160ff8086168252841660208201527fd76a0a97b7d547fef69b0cd90fb02087b761703ae2b5e4e91a99e8fd17e308ad9101612916565b61353a838383604051602401613c5a939291906146dc565b60408051601f198184030181529190526020810180516001600160e01b031663ca47c4eb60e01b179052613ccc565b61353a838383604051602401613ca193929190614701565b60408051601f198184030181529190526020810180516001600160e01b031663038fd88960e31b1790525b6131ad8160006a636f6e736f6c652e6c6f679050600080835160208501845afa505050565b50805460008255906000526020600020908101906131ad91905b80821115613d1f5760008155600101613d0b565b5090565b600060208284031215613d3557600080fd5b5035919050565b634e487b7160e01b600052604160045260246000fd5b6040805190810167ffffffffffffffff81118282101715613d7557613d75613d3c565b60405290565b604051601f8201601f1916810167ffffffffffffffff81118282101715613da457613da4613d3c565b604052919050565b60ff811681146131ad57600080fd5b600060408284031215613dcd57600080fd5b613dd5613d52565b90508135613de281613dac565b81526020820135613df281613dac565b602082015292915050565b803560078110613e0c57600080fd5b919050565b60008060008060a08587031215613e2757600080fd5b613e318686613dbb565b9350613e3f60408601613dfd565b92506060850135613e4f81613dac565b91506080850135613e5f81613dac565b939692955090935050565b600060208284031215613e7c57600080fd5b8135610d1a81613dac565b600080600080600060a08688031215613e9f57600080fd5b613ea886613dfd565b94506020860135613eb881613dac565b9350613ec660408701613dfd565b92506060860135613ed681613dac565b91506080860135613ee681613dac565b809150509295509295909350565b602080825282518282018190526000919060409081850190868401855b82811015613f4457613f34848351805160ff908116835260209182015116910152565b9284019290850190600101613f11565b5091979650505050505050565b60008060608385031215613f6457600080fd5b613f6e8484613dbb565b91506040830135613f7e81613dac565b809150509250929050565b604081016105508284805160ff908116835260209182015116910152565b60008060408385031215613fba57600080fd5b8235613fc581613dac565b91506020830135613f7e81613dac565b80356001600160a01b0381168114613e0c57600080fd5b6000806000806080858703121561400257600080fd5b61400b85613fd5565b9350602085013561401b81613dac565b9250604085013561402b81613dac565b91506060850135613e5f81613dac565b60006020828403121561404d57600080fd5b610d1a82613fd5565b634e487b7160e01b600052602160045260246000fd5b6007811061408a57634e487b7160e01b600052602160045260246000fd5b9052565b602080825282518282018190526000919060409081850190868401855b82811015613f445781516140d0858251805160ff908116835260209182015116910152565b868101516140e08787018261406c565b508581015160606140f58188018360ff169052565b820151905060806141088782018361406c565b820151905060a061411d8782018360ff169052565b820151905060c06141318782018315159052565b820151905060e061414c878201836001600160a01b03169052565b82015190506101006141628782018360ff169052565b82015190506101206141788782018360ff169052565b919091015160ff166101408601525061016090930192908501906001016140ab565b60208082526019908201527f47616d6520686173206e6f742073746172746564207965742100000000000000604082015260600190565b60a081016141ef8287805160ff908116835260209182015116910152565b6141fc604083018661406c565b60ff8416606083015260ff8316608083015295945050505050565b80518015158114613e0c57600080fd5b60006040828403121561423957600080fd5b614241613d52565b9050815161424e81613dac565b81526020820151613df281613dac565b6000806060838503121561427157600080fd5b61427a83614217565b91506142898460208501614227565b90509250929050565b6000602082840312156142a457600080fd5b8151610d1a81613dac565b608081016142cd8286805160ff908116835260209182015116910152565b6142da604083018561406c565b60ff83166060830152949350505050565b6000604082840312156142fd57600080fd5b610d1a8383614227565b634e487b7160e01b600052601160045260246000fd5b60ff818116838216019081111561055057610550614307565b60ff818116838216029081169081811461345f5761345f614307565b634e487b7160e01b600052603260045260246000fd5b60ff828116828216039081111561055057610550614307565b6060810161439f8285805160ff908116835260209182015116910152565b60ff831660408301529392505050565b600067ffffffffffffffff8211156143c9576143c9613d3c565b5060051b60200190565b600060208083850312156143e657600080fd5b825167ffffffffffffffff8111156143fd57600080fd5b8301601f8101851361440e57600080fd5b805161442161441c826143af565b613d7b565b81815260069190911b8201830190838101908783111561444057600080fd5b928401925b82841015614469576144578885614227565b82528482019150604084019350614445565b979650505050505050565b8082018082111561055057610550614307565b600060ff821660ff810361449d5761449d614307565b60010192915050565b6000608082840312156144b857600080fd5b6040516080810181811067ffffffffffffffff821117156144db576144db613d3c565b806040525080915082516144ee81613dac565b815260208301516144fe81613dac565b602082015261450f60408401614217565b604082015261452060608401614217565b60608201525092915050565b60006080828403121561453e57600080fd5b610d1a83836144a6565b60008261456557634e487b7160e01b600052601260045260246000fd5b500690565b8181038181111561055057610550614307565b634e487b7160e01b600052603160045260246000fd5b600060ff8216806145a6576145a6614307565b6000190192915050565b845460ff808216835260089190911c16602082015260a081016141ef565b835460ff808216835260089190911c166020820152608081016142cd565b6000600182016145fe576145fe614307565b5060010190565b6000602080838503121561461857600080fd5b825167ffffffffffffffff81111561462f57600080fd5b8301601f8101851361464057600080fd5b805161464e61441c826143af565b81815260079190911b8201830190838101908783111561466d57600080fd5b928401925b828410156144695761468488856144a6565b82528482019150608084019350614672565b6000815180845260005b818110156146bc576020818501810151868301820152016146a0565b506000602082860101526020601f19601f83011685010191505092915050565b6060815260006146ef6060830186614696565b60208301949094525060400152919050565b6060815260006147146060830186614696565b6020830194909452506001600160a01b039190911660409091015291905056fea26469706673582212209e1e8464e31f244c139eb7e75532827724aa84c537d399f66017eab6f1d26e8164736f6c63430008140033",
  "linkReferences": {},
  "deployedLinkReferences": {}
}