{
  "_format": "hh-sol-artifact-1",
  "contractName": "GamePunk",
  "sourceName": "contracts/GamePunk.sol",
  "abi": [
    {
      "inputs": [
        {
          "internalType": "address",
          "name": "_mapAddress",
          "type": "address"
        }
      ],
      "stateMutability": "nonpayable",
      "type": "constructor"
    },
    {
      "inputs": [
        {
          "internalType": "address",
          "name": "owner",
          "type": "address"
        }
      ],
      "name": "OwnableInvalidOwner",
      "type": "error"
    },
    {
      "inputs": [
        {
          "internalType": "address",
          "name": "account",
          "type": "address"
        }
      ],
      "name": "OwnableUnauthorizedAccount",
      "type": "error"
    },
    {
      "inputs": [
        {
          "internalType": "address",
          "name": "player",
          "type": "address"
        },
        {
          "internalType": "uint8",
          "name": "q",
          "type": "uint8"
        },
        {
          "internalType": "uint8",
          "name": "r",
          "type": "uint8"
        }
      ],
      "name": "ShipAlreadyAdded",
      "type": "error"
    },
    {
      "anonymous": false,
      "inputs": [
        {
          "indexed": false,
          "internalType": "uint8",
          "name": "gameId",
          "type": "uint8"
        },
        {
          "indexed": false,
          "internalType": "uint8",
          "name": "q",
          "type": "uint8"
        },
        {
          "indexed": false,
          "internalType": "uint8",
          "name": "r",
          "type": "uint8"
        },
        {
          "indexed": false,
          "internalType": "bool",
          "name": "island",
          "type": "bool"
        }
      ],
      "name": "Cell",
      "type": "event"
    },
    {
      "anonymous": false,
      "inputs": [
        {
          "indexed": false,
          "internalType": "uint8",
          "name": "gameId",
          "type": "uint8"
        }
      ],
      "name": "CommitPhaseStarted",
      "type": "event"
    },
    {
      "anonymous": false,
      "inputs": [
        {
          "indexed": false,
          "internalType": "uint8",
          "name": "gameId",
          "type": "uint8"
        }
      ],
      "name": "GameEnded",
      "type": "event"
    },
    {
      "anonymous": false,
      "inputs": [
        {
          "indexed": false,
          "internalType": "uint8",
          "name": "gameId",
          "type": "uint8"
        }
      ],
      "name": "GameStarted",
      "type": "event"
    },
    {
      "anonymous": false,
      "inputs": [
        {
          "indexed": true,
          "internalType": "bool",
          "name": "gameStatus",
          "type": "bool"
        },
        {
          "indexed": true,
          "internalType": "address",
          "name": "winnerAddress",
          "type": "address"
        },
        {
          "indexed": false,
          "internalType": "uint8",
          "name": "gameId",
          "type": "uint8"
        }
      ],
      "name": "GameUpdated",
      "type": "event"
    },
    {
      "anonymous": false,
      "inputs": [
        {
          "indexed": true,
          "internalType": "address",
          "name": "winner",
          "type": "address"
        },
        {
          "indexed": false,
          "internalType": "uint8",
          "name": "gameId",
          "type": "uint8"
        }
      ],
      "name": "GameWinner",
      "type": "event"
    },
    {
      "anonymous": false,
      "inputs": [
        {
          "indexed": false,
          "internalType": "uint8",
          "name": "radius",
          "type": "uint8"
        },
        {
          "indexed": false,
          "internalType": "uint8",
          "name": "gameId",
          "type": "uint8"
        }
      ],
      "name": "MapInitialized",
      "type": "event"
    },
    {
      "anonymous": false,
      "inputs": [
        {
          "indexed": false,
          "internalType": "uint8",
          "name": "gameId",
          "type": "uint8"
        }
      ],
      "name": "MapShrink",
      "type": "event"
    },
    {
      "anonymous": false,
      "inputs": [
        {
          "indexed": true,
          "internalType": "address",
          "name": "player",
          "type": "address"
        },
        {
          "indexed": false,
          "internalType": "uint8",
          "name": "gameId",
          "type": "uint8"
        }
      ],
      "name": "MoveCommitted",
      "type": "event"
    },
    {
      "anonymous": false,
      "inputs": [
        {
          "indexed": true,
          "internalType": "address",
          "name": "player",
          "type": "address"
        },
        {
          "indexed": false,
          "internalType": "uint8",
          "name": "gameId",
          "type": "uint8"
        },
        {
          "indexed": false,
          "internalType": "uint256",
          "name": "roundId",
          "type": "uint256"
        },
        {
          "indexed": false,
          "internalType": "uint8",
          "name": "destQ",
          "type": "uint8"
        },
        {
          "indexed": false,
          "internalType": "uint8",
          "name": "destR",
          "type": "uint8"
        },
        {
          "indexed": false,
          "internalType": "uint8",
          "name": "shotQ",
          "type": "uint8"
        },
        {
          "indexed": false,
          "internalType": "uint8",
          "name": "shotR",
          "type": "uint8"
        }
      ],
      "name": "MoveSubmitted",
      "type": "event"
    },
    {
      "anonymous": false,
      "inputs": [
        {
          "indexed": false,
          "internalType": "uint8",
          "name": "gameId",
          "type": "uint8"
        },
        {
          "indexed": false,
          "internalType": "uint256",
          "name": "roundId",
          "type": "uint256"
        },
        {
          "indexed": false,
          "internalType": "uint8",
          "name": "radius",
          "type": "uint8"
        }
      ],
      "name": "NewRound",
      "type": "event"
    },
    {
      "anonymous": false,
      "inputs": [
        {
          "indexed": true,
          "internalType": "address",
          "name": "previousOwner",
          "type": "address"
        },
        {
          "indexed": true,
          "internalType": "address",
          "name": "newOwner",
          "type": "address"
        }
      ],
      "name": "OwnershipTransferred",
      "type": "event"
    },
    {
      "anonymous": false,
      "inputs": [
        {
          "indexed": true,
          "internalType": "address",
          "name": "player",
          "type": "address"
        },
        {
          "indexed": false,
          "internalType": "uint8",
          "name": "gameId",
          "type": "uint8"
        },
        {
          "indexed": false,
          "internalType": "uint8",
          "name": "q",
          "type": "uint8"
        },
        {
          "indexed": false,
          "internalType": "uint8",
          "name": "r",
          "type": "uint8"
        },
        {
          "indexed": false,
          "internalType": "uint8",
          "name": "speed",
          "type": "uint8"
        },
        {
          "indexed": false,
          "internalType": "uint8",
          "name": "range",
          "type": "uint8"
        }
      ],
      "name": "PlayerAdded",
      "type": "event"
    },
    {
      "anonymous": false,
      "inputs": [
        {
          "indexed": true,
          "internalType": "address",
          "name": "player",
          "type": "address"
        },
        {
          "indexed": false,
          "internalType": "uint8",
          "name": "gameId",
          "type": "uint8"
        }
      ],
      "name": "PlayerDefeated",
      "type": "event"
    },
    {
      "anonymous": false,
      "inputs": [
        {
          "indexed": true,
          "internalType": "address",
          "name": "captain",
          "type": "address"
        },
        {
          "indexed": false,
          "internalType": "uint8",
          "name": "gameId",
          "type": "uint8"
        },
        {
          "indexed": false,
          "internalType": "uint8",
          "name": "q",
          "type": "uint8"
        },
        {
          "indexed": false,
          "internalType": "uint8",
          "name": "r",
          "type": "uint8"
        }
      ],
      "name": "ShipCollidedWithIsland",
      "type": "event"
    },
    {
      "anonymous": false,
      "inputs": [
        {
          "indexed": true,
          "internalType": "address",
          "name": "victim",
          "type": "address"
        },
        {
          "indexed": true,
          "internalType": "address",
          "name": "attacker",
          "type": "address"
        },
        {
          "indexed": false,
          "internalType": "uint8",
          "name": "gameId",
          "type": "uint8"
        }
      ],
      "name": "ShipHit",
      "type": "event"
    },
    {
      "anonymous": false,
      "inputs": [
        {
          "indexed": true,
          "internalType": "address",
          "name": "captain",
          "type": "address"
        },
        {
          "indexed": false,
          "internalType": "uint8",
          "name": "initialQ",
          "type": "uint8"
        },
        {
          "indexed": false,
          "internalType": "uint8",
          "name": "initialR",
          "type": "uint8"
        },
        {
          "indexed": false,
          "internalType": "uint8",
          "name": "q",
          "type": "uint8"
        },
        {
          "indexed": false,
          "internalType": "uint8",
          "name": "r",
          "type": "uint8"
        },
        {
          "indexed": false,
          "internalType": "uint8",
          "name": "gameId",
          "type": "uint8"
        }
      ],
      "name": "ShipMoved",
      "type": "event"
    },
    {
      "anonymous": false,
      "inputs": [
        {
          "indexed": true,
          "internalType": "address",
          "name": "captain",
          "type": "address"
        },
        {
          "indexed": false,
          "internalType": "uint8",
          "name": "gameId",
          "type": "uint8"
        }
      ],
      "name": "ShipMovedInGame",
      "type": "event"
    },
    {
      "anonymous": false,
      "inputs": [
        {
          "indexed": true,
          "internalType": "address",
          "name": "captain",
          "type": "address"
        },
        {
          "indexed": false,
          "internalType": "uint8",
          "name": "fromQ",
          "type": "uint8"
        },
        {
          "indexed": false,
          "internalType": "uint8",
          "name": "fromR",
          "type": "uint8"
        },
        {
          "indexed": false,
          "internalType": "uint8",
          "name": "shotQ",
          "type": "uint8"
        },
        {
          "indexed": false,
          "internalType": "uint8",
          "name": "shotR",
          "type": "uint8"
        },
        {
          "indexed": false,
          "internalType": "uint8",
          "name": "gameId",
          "type": "uint8"
        }
      ],
      "name": "ShipShot",
      "type": "event"
    },
    {
      "anonymous": false,
      "inputs": [
        {
          "indexed": true,
          "internalType": "address",
          "name": "captain",
          "type": "address"
        },
        {
          "indexed": false,
          "internalType": "uint8",
          "name": "gameId",
          "type": "uint8"
        }
      ],
      "name": "ShipSunk",
      "type": "event"
    },
    {
      "anonymous": false,
      "inputs": [
        {
          "indexed": true,
          "internalType": "address",
          "name": "captain",
          "type": "address"
        },
        {
          "indexed": false,
          "internalType": "uint8",
          "name": "gameId",
          "type": "uint8"
        }
      ],
      "name": "ShipSunkOutOfMap",
      "type": "event"
    },
    {
      "anonymous": false,
      "inputs": [
        {
          "indexed": false,
          "internalType": "uint8",
          "name": "gameId",
          "type": "uint8"
        },
        {
          "indexed": false,
          "internalType": "uint256",
          "name": "round",
          "type": "uint256"
        }
      ],
      "name": "SubmitPhaseStarted",
      "type": "event"
    },
    {
      "anonymous": false,
      "inputs": [
        {
          "indexed": false,
          "internalType": "uint8",
          "name": "gameId",
          "type": "uint8"
        }
      ],
      "name": "WorldUpdated",
      "type": "event"
    },
    {
      "inputs": [
        {
          "internalType": "uint8",
          "name": "gameId",
          "type": "uint8"
        },
        {
          "internalType": "address[]",
          "name": "playerAddresses",
          "type": "address[]"
        },
        {
          "internalType": "uint8[]",
          "name": "speeds",
          "type": "uint8[]"
        },
        {
          "internalType": "uint8[]",
          "name": "ranges",
          "type": "uint8[]"
        }
      ],
      "name": "addShip",
      "outputs": [],
      "stateMutability": "nonpayable",
      "type": "function"
    },
    {
      "inputs": [
        {
          "internalType": "uint8",
          "name": "gameId",
          "type": "uint8"
        }
      ],
      "name": "endGame",
      "outputs": [],
      "stateMutability": "nonpayable",
      "type": "function"
    },
    {
      "inputs": [
        {
          "internalType": "uint256",
          "name": "",
          "type": "uint256"
        }
      ],
      "name": "games",
      "outputs": [
        {
          "internalType": "uint256",
          "name": "round",
          "type": "uint256"
        },
        {
          "internalType": "uint8",
          "name": "shrinkNo",
          "type": "uint8"
        },
        {
          "internalType": "bool",
          "name": "gameInProgress",
          "type": "bool"
        },
        {
          "internalType": "bool",
          "name": "stopAddingShips",
          "type": "bool"
        },
        {
          "internalType": "bool",
          "name": "letCommitMoves",
          "type": "bool"
        },
        {
          "internalType": "bool",
          "name": "letSubmitMoves",
          "type": "bool"
        }
      ],
      "stateMutability": "view",
      "type": "function"
    },
    {
      "inputs": [
        {
          "components": [
            {
              "internalType": "uint8",
              "name": "q",
              "type": "uint8"
            },
            {
              "internalType": "uint8",
              "name": "r",
              "type": "uint8"
            }
          ],
          "internalType": "struct SharedStructs.Coordinate",
          "name": "_coord",
          "type": "tuple"
        },
        {
          "internalType": "uint8",
          "name": "gameId",
          "type": "uint8"
        }
      ],
      "name": "getCell",
      "outputs": [
        {
          "components": [
            {
              "internalType": "uint8",
              "name": "q",
              "type": "uint8"
            },
            {
              "internalType": "uint8",
              "name": "r",
              "type": "uint8"
            },
            {
              "internalType": "bool",
              "name": "island",
              "type": "bool"
            },
            {
              "internalType": "bool",
              "name": "exists",
              "type": "bool"
            }
          ],
          "internalType": "struct SharedStructs.Cell",
          "name": "",
          "type": "tuple"
        }
      ],
      "stateMutability": "view",
      "type": "function"
    },
    {
      "inputs": [
        {
          "internalType": "uint8",
          "name": "gameId",
          "type": "uint8"
        }
      ],
      "name": "getCells",
      "outputs": [
        {
          "components": [
            {
              "internalType": "uint8",
              "name": "q",
              "type": "uint8"
            },
            {
              "internalType": "uint8",
              "name": "r",
              "type": "uint8"
            }
          ],
          "internalType": "struct SharedStructs.Coordinate[]",
          "name": "",
          "type": "tuple[]"
        }
      ],
      "stateMutability": "view",
      "type": "function"
    },
    {
      "inputs": [
        {
          "internalType": "uint8",
          "name": "gameId",
          "type": "uint8"
        }
      ],
      "name": "getRadius",
      "outputs": [
        {
          "internalType": "uint8",
          "name": "",
          "type": "uint8"
        }
      ],
      "stateMutability": "view",
      "type": "function"
    },
    {
      "inputs": [
        {
          "internalType": "uint8",
          "name": "gameId",
          "type": "uint8"
        }
      ],
      "name": "getShips",
      "outputs": [
        {
          "components": [
            {
              "components": [
                {
                  "internalType": "uint8",
                  "name": "q",
                  "type": "uint8"
                },
                {
                  "internalType": "uint8",
                  "name": "r",
                  "type": "uint8"
                }
              ],
              "internalType": "struct SharedStructs.Coordinate",
              "name": "coordinate",
              "type": "tuple"
            },
            {
              "internalType": "enum SharedStructs.Directions",
              "name": "travelDirection",
              "type": "uint8"
            },
            {
              "internalType": "uint8",
              "name": "travelDistance",
              "type": "uint8"
            },
            {
              "internalType": "enum SharedStructs.Directions",
              "name": "shotDirection",
              "type": "uint8"
            },
            {
              "internalType": "uint8",
              "name": "shotDistance",
              "type": "uint8"
            },
            {
              "internalType": "bool",
              "name": "publishedMove",
              "type": "bool"
            },
            {
              "internalType": "address",
              "name": "captain",
              "type": "address"
            },
            {
              "internalType": "uint8",
              "name": "yachtSpeed",
              "type": "uint8"
            },
            {
              "internalType": "uint8",
              "name": "yachtRange",
              "type": "uint8"
            },
            {
              "internalType": "uint8",
              "name": "gameId",
              "type": "uint8"
            }
          ],
          "internalType": "struct GamePunk.Ship[]",
          "name": "",
          "type": "tuple[]"
        }
      ],
      "stateMutability": "view",
      "type": "function"
    },
    {
      "inputs": [
        {
          "components": [
            {
              "internalType": "uint8",
              "name": "q",
              "type": "uint8"
            },
            {
              "internalType": "uint8",
              "name": "r",
              "type": "uint8"
            }
          ],
          "internalType": "struct SharedStructs.Coordinate",
          "name": "_start",
          "type": "tuple"
        },
        {
          "internalType": "enum SharedStructs.Directions",
          "name": "_dir",
          "type": "uint8"
        },
        {
          "internalType": "uint8",
          "name": "_distance",
          "type": "uint8"
        },
        {
          "internalType": "uint8",
          "name": "gameId",
          "type": "uint8"
        }
      ],
      "name": "move",
      "outputs": [
        {
          "components": [
            {
              "internalType": "uint8",
              "name": "q",
              "type": "uint8"
            },
            {
              "internalType": "uint8",
              "name": "r",
              "type": "uint8"
            }
          ],
          "internalType": "struct SharedStructs.Coordinate",
          "name": "",
          "type": "tuple"
        }
      ],
      "stateMutability": "view",
      "type": "function"
    },
    {
      "inputs": [],
      "name": "owner",
      "outputs": [
        {
          "internalType": "address",
          "name": "",
          "type": "address"
        }
      ],
      "stateMutability": "view",
      "type": "function"
    },
    {
      "inputs": [],
      "name": "registrationContract",
      "outputs": [
        {
          "internalType": "address",
          "name": "",
          "type": "address"
        }
      ],
      "stateMutability": "view",
      "type": "function"
    },
    {
      "inputs": [],
      "name": "renounceOwnership",
      "outputs": [],
      "stateMutability": "nonpayable",
      "type": "function"
    },
    {
      "inputs": [
        {
          "internalType": "enum SharedStructs.Directions",
          "name": "_travelDirection",
          "type": "uint8"
        },
        {
          "internalType": "uint8",
          "name": "_travelDistance",
          "type": "uint8"
        },
        {
          "internalType": "enum SharedStructs.Directions",
          "name": "_shotDirection",
          "type": "uint8"
        },
        {
          "internalType": "uint8",
          "name": "_shotDistance",
          "type": "uint8"
        },
        {
          "internalType": "uint8",
          "name": "gameId",
          "type": "uint8"
        }
      ],
      "name": "revealMove",
      "outputs": [],
      "stateMutability": "nonpayable",
      "type": "function"
    },
    {
      "inputs": [
        {
          "internalType": "address",
          "name": "_registrationContract",
          "type": "address"
        }
      ],
      "name": "setRegistrationContract",
      "outputs": [],
      "stateMutability": "nonpayable",
      "type": "function"
    },
    {
      "inputs": [
        {
          "internalType": "uint8",
          "name": "gameId",
          "type": "uint8"
        },
        {
          "internalType": "uint8",
          "name": "_radius",
          "type": "uint8"
        }
      ],
      "name": "startNewGame",
      "outputs": [],
      "stateMutability": "nonpayable",
      "type": "function"
    },
    {
      "inputs": [
        {
          "internalType": "address",
          "name": "newOwner",
          "type": "address"
        }
      ],
      "name": "transferOwnership",
      "outputs": [],
      "stateMutability": "nonpayable",
      "type": "function"
    },
    {
      "inputs": [
        {
          "components": [
            {
              "internalType": "uint8",
              "name": "q",
              "type": "uint8"
            },
            {
              "internalType": "uint8",
              "name": "r",
              "type": "uint8"
            }
          ],
          "internalType": "struct SharedStructs.Coordinate",
          "name": "_startCell",
          "type": "tuple"
        },
        {
          "internalType": "enum SharedStructs.Directions",
          "name": "_direction",
          "type": "uint8"
        },
        {
          "internalType": "uint8",
          "name": "_distance",
          "type": "uint8"
        },
        {
          "internalType": "uint8",
          "name": "gameId",
          "type": "uint8"
        }
      ],
      "name": "travel",
      "outputs": [],
      "stateMutability": "nonpayable",
      "type": "function"
    },
    {
      "inputs": [
        {
          "internalType": "uint8",
          "name": "gameId",
          "type": "uint8"
        }
      ],
      "name": "updateWorld",
      "outputs": [],
      "stateMutability": "nonpayable",
      "type": "function"
    }
  ],
  "bytecode": "0x60a06040523480156200001157600080fd5b5060405162004a9c38038062004a9c8339810160408190526200003491620000c9565b33806200005b57604051631e4fbdf760e01b81526000600482015260240160405180910390fd5b620000668162000079565b506001600160a01b0316608052620000fb565b600080546001600160a01b038381166001600160a01b0319831681178455604051919092169283917f8be0079c531659141344cd1fd0a4f28419497f9722a3daafe3b4186f6b6457e09190a35050565b600060208284031215620000dc57600080fd5b81516001600160a01b0381168114620000f457600080fd5b9392505050565b60805161491c62000180600039600081816103a1015281816104eb0152818161078b0152818161080a0152818161097901528181610b0301528181610cb001528181610e7d0152818161143e01528181611a290152818161299601528181612df201528181612e90015281816136420152818161387d0152613b3c015261491c6000f3fe608060405234801561001057600080fd5b506004361061010b5760003560e01c8063863375ac116100a2578063d1153bc311610071578063d1153bc3146102eb578063d3db03cc146102fe578063ece8165714610311578063f2fde38b14610324578063fd8704461461033757600080fd5b8063863375ac146102945780638da5cb5b146102a7578063978ac356146102b8578063d085a86f146102cb57600080fd5b80634998b8fb116100de5780634998b8fb146102045780634aac9b8b146102175780634d02388614610237578063715018a61461028c57600080fd5b8063117a5b90146101105780631cf8a3211461019f5780631e522c3e146101b457806334361208146101df575b600080fd5b61016161011e366004613e13565b600160208190526000918252604090912080549181015460049091015460ff91821691818116916101008104821691620100008204811691630100000090041686565b6040805196875260ff909516602087015292151593850193909352151560608401529015156080830152151560a082015260c0015b60405180910390f35b6101b26101ad366004613f01565b610357565b005b6002546101c7906001600160a01b031681565b6040516001600160a01b039091168152602001610196565b6101f26101ed366004613f5a565b610495565b60405160ff9091168152602001610196565b6101b2610212366004613f77565b610564565b61022a610225366004613f5a565b610921565b6040516101969190613fe4565b61024a610245366004614041565b610c39565b6040516101969190600060808201905060ff835116825260ff602084015116602083015260408301511515604083015260608301511515606083015292915050565b6101b2610d2f565b6101b26102a2366004613f5a565b610d43565b6000546001600160a01b03166101c7565b6101b26102c6366004613f5a565b610ddc565b6102de6102d9366004613f01565b61292f565b6040516101969190614079565b6101b26102f9366004614097565b612a18565b6101b261030c3660046140dc565b612b78565b6101b261031f36600461418f565b612ba2565b6101b26103323660046140dc565b6131f5565b61034a610345366004613f5a565b613233565b60405161019691906142c0565b60ff80821660009081526001602081905260409091206004015490911615151461039c5760405162461bcd60e51b8152600401610393906143cc565b60405180910390fd5b6000807f00000000000000000000000000000000000000000000000000000000000000006001600160a01b0316631cf8a321878787876040518563ffffffff1660e01b81526004016103f19493929190614403565b606060405180830381865afa15801561040e573d6000803e3d6000fd5b505050506040513d601f19601f820116820180604052508101906104329190614490565b91509150811561044b5761044633846134e7565b61048d565b805160ff8481166000908152600160209081526040808320338452600201825290912080549185015183166101000261ffff1990921692909316919091171790555b505050505050565b60ff80821660009081526001602081905260408220600401549192919091161515146104d35760405162461bcd60e51b8152600401610393906143cc565b60405163436fadf360e11b815260ff831660048201527f00000000000000000000000000000000000000000000000000000000000000006001600160a01b0316906386df5be690602401602060405180830381865afa15801561053a573d6000803e3d6000fd5b505050506040513d601f19601f8201168201806040525081019061055e91906144c4565b92915050565b60ff808216600090815260016020819052604090912060040154630100000090049091161515146105e15760405162461bcd60e51b815260206004820152602160248201527f5375626d6974206d6f76657320686173206e6f742073746172746564207965746044820152602160f81b6064820152608401610393565b60ff80821660009081526001602081905260409091206004015490911615151461061d5760405162461bcd60e51b8152600401610393906143cc565b60ff8116600090815260016020818152604080842033855260020190915290912080820180549192889260ff19169083600681111561065e5761065e614288565b0217905550600181015460ff600160c81b909104811690861611156106a05760018101805460ff600160c81b8204166101000261ff00199091161790556106b7565b60018101805461ff00191661010060ff8816021790555b60018101805485919062ff00001916620100008360068111156106dc576106dc614288565b0217905550600181015460ff600160d01b9091048116908416111561072257600181018054630100000060ff600160d01b8304160263ff0000001990911617905561073d565b60018101805463ff0000001916630100000060ff8616021790555b60018101805464ff000000001916640100000000179055604080518082018252825460ff81811683526101009091041660208201529051630d42527560e11b81526000906001600160a01b037f00000000000000000000000000000000000000000000000000000000000000001690631a84a4ea906107c49085908c908c906004016144e1565b6040805180830381865afa1580156107e0573d6000803e3d6000fd5b505050506040513d601f19601f82011682018060405250810190610804919061451d565b905060007f00000000000000000000000000000000000000000000000000000000000000006001600160a01b0316631a84a4ea8389896040518463ffffffff1660e01b8152600401610858939291906144e1565b6040805180830381865afa158015610874573d6000803e3d6000fd5b505050506040513d601f19601f82011682018060405250810190610898919061451d565b60ff8681166000818152600160209081526040918290205487518883015187518885015186519788529487019390935290861685850152851660608501528416608084015290921660a0820152905191925033917faff0b78027ac9f4904ee624bc84e3126d0e7d96ce215c5db5158441acb0b38cf9181900360c00190a2505050505050505050565b60ff8082166000908152600160208190526040909120600401546060921615151461095e5760405162461bcd60e51b8152600401610393906143cc565b60405163436fadf360e11b815260ff831660048201526000907f00000000000000000000000000000000000000000000000000000000000000006001600160a01b0316906386df5be690602401602060405180830381865afa1580156109c8573d6000803e3d6000fd5b505050506040513d601f19601f820116820180604052508101906109ec91906144c4565b905060006109fb82600161454f565b610a06836003614568565b610a109190614568565b610a1b90600161454f565b60ff16905060008167ffffffffffffffff811115610a3b57610a3b613e2c565b604051908082528060200260200182016040528015610a8057816020015b6040805180820190915260008082526020820152815260200190600190039081610a595790505b50905060405180604001604052808460ff1681526020018460ff1681525081600081518110610ab157610ab1614584565b602090810291909101015260015b8360ff168160ff1611610c3057600081610ada60018261459a565b610ae5906003614568565b610aef9190614568565b610afa90600161454f565b60ff16905060007f00000000000000000000000000000000000000000000000000000000000000006001600160a01b03166339e5c4a085600081518110610b4357610b43614584565b6020026020010151856040518363ffffffff1660e01b8152600401610b699291906145b3565b600060405180830381865afa158015610b86573d6000803e3d6000fd5b505050506040513d6000823e601f3d908101601f19168201604052610bae91908101906145e1565b905060005b81518160ff161015610c1a57818160ff1681518110610bd457610bd4614584565b6020026020010151858260ff1685610bec919061467d565b81518110610bfc57610bfc614584565b60200260200101819052508080610c1290614690565b915050610bb3565b5050508080610c2890614690565b915050610abf565b50949350505050565b60408051608081018252600080825260208201819052918101829052606081019190915260ff808316600090815260016020819052604090912060040154909116151514610c995760405162461bcd60e51b8152600401610393906143cc565b6040516326811c4360e11b81526001600160a01b037f00000000000000000000000000000000000000000000000000000000000000001690634d02388690610ce790869086906004016145b3565b608060405180830381865afa158015610d04573d6000803e3d6000fd5b505050506040513d601f19601f82011682018060405250810190610d289190614735565b9392505050565b610d376135c0565b610d4160006135ed565b565b610d4b6135c0565b60ff808216600090815260016020819052604090912060040154909116151514610d875760405162461bcd60e51b8152600401610393906143cc565b60ff8116600081815260016020908152604091829020600401805460ff1916905590519182527f4df34531b3f238bc8f90ad83236d8c752e7444e434bb5fc99f888f0a6345c0e791015b60405180910390a150565b610de46135c0565b60ff808216600090815260016020819052604090912060040154909116151514610e205760405162461bcd60e51b8152600401610393906143cc565b60ff8116600090815260016020526040902054610e3f90600390614751565b6000036111eb5760ff81811660008181526001602081905260409182902001549051634affc34f60e01b8152600481019290925290911660248201527f00000000000000000000000000000000000000000000000000000000000000006001600160a01b031690634affc34f90604401600060405180830381600087803b158015610ec957600080fd5b505af1158015610edd573d6000803e3d6000fd5b50505060ff808316600090815260016020819052604082200180549092169250610f0683614690565b91906101000a81548160ff021916908360ff160217905550507fab00852360aeece33bb03176d4e62fbb27adf3fd1a81b9d543c1ae388003b0ac81604051610f57919060ff91909116815260200190565b60405180910390a160005b60ff80831660009081526001602052604090206003015490821610156111e95760ff8083166000908152600160205260408120600381018054929360029092019284928616908110610fb657610fb6614584565b60009182526020808320909101546001600160a01b03168352828101939093526040918201902081518083019092525460ff808216835261010090910416918101919091529050611007818461363d565b156111d65760ff8084166000908152600160205260409020600301805461105592851690811061103957611039614584565b6000918252602090912001546001600160a01b031683856136dc565b600160008460ff1681526020019081526020016000206003018260ff168154811061108257611082614584565b6000918252602091829020015460405160ff861681526001600160a01b03909116917f7098e36d986448e47b2ec53e41ddd178ac0774637ee2227e84baba39b0c1c7b1910160405180910390a260ff83166000908152600160208190526040909120600301805490916110f491614773565b8154811061110457611104614584565b9060005260206000200160009054906101000a90046001600160a01b0316600160008560ff1681526020019081526020016000206003018360ff168154811061114f5761114f614584565b600091825260208083209190910180546001600160a01b0319166001600160a01b03949094169390931790925560ff8516815260019091526040902060030180548061119d5761119d614786565b600082815260209020810160001990810180546001600160a01b031916905501905560ff8216156111d657816111d28161479c565b9250505b50806111e181614690565b915050610f62565b505b60ff811660009081526001602052604081206003015467ffffffffffffffff81111561121957611219613e2c565b60405190808252806020026020018201604052801561125e57816020015b60408051808201909152600080825260208201528152602001906001900390816112375790505b5060ff83166000908152600160205260408120600301549192509067ffffffffffffffff81111561129157611291613e2c565b6040519080825280602002602001820160405280156112ba578160200160208202803683370190505b50905060005b60ff8085166000908152600160205260409020600301549082161015611319576001828260ff16815181106112f7576112f7614584565b911515602092830291909101909101528061131181614690565b9150506112c0565b5060005b60ff80851660009081526001602052604090206003015490821610156119be5760ff808516600090815260016020526040812060038101805492936002909201928492861690811061137157611371614584565b60009182526020808320909101546001600160a01b039081168452908301939093526040909101902060010154600160281b900416146119ac5760ff808516600090815260016020526040812060038101805460029092019390919085169081106113de576113de614584565b60009182526020808320909101546001600160a01b0316835282019290925260400190206001015460ff64010000000090910416156119ac5760ff8085166000908152600160205260408120600381018054929384936001600160a01b037f00000000000000000000000000000000000000000000000000000000000000001693631cf8a32193600290910192869290891690811061147f5761147f614584565b60009182526020808320909101546001600160a01b03168352828101939093526040918201812060ff808d1683526001909452918120600381018054939460029092019390918a169081106114d6576114d6614584565b60009182526020808320909101546001600160a01b03168352828101939093526040918201812060019081015460ff8e8116845291909452918120600381018054948416946002909201939091908b1690811061153557611535614584565b60009182526020808320909101546001600160a01b0316835282019290925260409081019091206001015490516001600160e01b031960e086901b16815261158d93929160ff61010090910416908c906004016147b9565b606060405180830381865afa1580156115aa573d6000803e3d6000fd5b505050506040513d601f19601f820116820180604052508101906115ce9190614490565b91509150811561175f57600160008760ff1681526020019081526020016000206003018360ff168154811061160557611605614584565b600091825260209182902001548251838301516040805160ff808d168252938416958101959095529116908301526001600160a01b0316907fd44ddf7f8e572e76d7ed6bf350d88367a33cf9a7d19d5069c392802305d51f6c9060600160405180910390a260ff808716600090815260016020526040902060030180546116b392861690811061169757611697614584565b6000918252602090912001546001600160a01b031684886136dc565b6000848460ff16815181106116ca576116ca614584565b91151560209283029190910182015260ff80881660009081526001909252604082206003810180548594600290930193881690811061170b5761170b614584565b60009182526020808320909101546001600160a01b03168352828101939093526040909101902082518154939092015160ff9081166101000261ffff19909416921691909117919091179055506119ac9050565b600160008760ff1681526020019081526020016000206003018360ff168154811061178c5761178c614584565b600091825260208083209091015460ff808a1684526001909252604083206003810180546001600160a01b03909316947ff1e9c1d54f160cab3c8602dcfbf5fbe3e012ed037d80057eca695f74d26077a094600290930193909289169081106117f7576117f7614584565b60009182526020808320909101546001600160a01b0316835282810193909352604091820181205460ff8c8116835260019094529181206003810180549385169460029092019390918a1690811061185157611851614584565b6000918252602080832091909101546001600160a01b03168352828101939093526040918201902054865187840151835160ff96871681526101009093048616948301949094528416818301529183166060830152918a16608082015290519081900360a00190a260ff808716600090815260016020526040812060038101805485946002909301939288169081106118ec576118ec614584565b60009182526020808320909101546001600160a01b031683528281019390935260409182018120845181549585015160ff9081166101000261ffff199097169181169190911795909517905589841681526001909252902060030180549091851690811061195c5761195c614584565b6000918252602091829020015460405160ff891681526001600160a01b03909116917f51f35fa2867d710ef60e6209b0ca28b42abd534ed14e1f8394e793f42253c9f6910160405180910390a250505b806119b681614690565b91505061131d565b5060005b60ff8085166000908152600160205260409020600301549082161015611d5057818160ff16815181106119f7576119f7614584565b602002602001015115611d3e5760ff808516600090815260016020526040812060038101805492936001600160a01b037f0000000000000000000000000000000000000000000000000000000000000000169363d6192ad3936002019286929091908816908110611a6a57611a6a614584565b60009182526020808320909101546001600160a01b03168352828101939093526040918201812060ff808c1683526001909452918120600381018054939460029092019390918916908110611ac157611ac1614584565b60009182526020808320909101546001600160a01b03168352828101939093526040918201812060019081015460ff8d811684529190945291812060038101805462010000909504841694600292909201939091908a16908110611b2757611b27614584565b60009182526020808320909101546001600160a01b0316835282019290925260409081019091206001015490516001600160e01b031960e086901b168152611b7f93929160ff630100000090910416906004016147d7565b6040805180830381865afa158015611b9b573d6000803e3d6000fd5b505050506040513d601f19601f82011682018060405250810190611bbf919061451d565b905080848360ff1681518110611bd757611bd7614584565b6020026020010181905250600160008660ff1681526020019081526020016000206003018260ff1681548110611c0f57611c0f614584565b600091825260208083209091015460ff80891684526001909252604083206003810180546001600160a01b03909316947f78546d5ff977d70d771d8edba5bdd99150ec97e7837d6e2af4384b1605a4372d9460029093019390928816908110611c7a57611c7a614584565b60009182526020808320909101546001600160a01b0316835282810193909352604091820181205460ff8b8116835260019094529181206003810180549385169460029092019390918916908110611cd457611cd4614584565b6000918252602080832091909101546001600160a01b03168352828101939093526040918201902054865187840151835160ff96871681526101009093048616948301949094528416818301529183166060830152918916608082015290519081900360a00190a2505b80611d4881614690565b9150506119c2565b5060005b60ff80851660009081526001602052604090206003015490821610156123985760005b60ff8086166000908152600160205260409020600301549082161015612385578060ff168260ff161461237357828260ff1681518110611db957611db9614584565b60200260200101518015611de65750828160ff1681518110611ddd57611ddd614584565b60200260200101515b8015611ea4575060ff80861660009081526001602052604081206003810180546002909201939091908616908110611e2057611e20614584565b60009182526020808320909101546001600160a01b0316835282810193909352604091820181205460ff898116835260019094529181206003810180549385169460029092019390918616908110611e7a57611e7a614584565b60009182526020808320909101546001600160a01b0316835282019290925260400190205460ff16145b8015611f6d575060ff80861660009081526001602052604081206003810180546002909201939091908616908110611ede57611ede614584565b60009182526020808320909101546001600160a01b0316835282810193909352604091820181205460ff8981168352600190945291812060038101805461010090940485169460029092019390918616908110611f3d57611f3d614584565b60009182526020808320909101546001600160a01b0316835282019290925260400190205460ff61010090910416145b1561214a576000838360ff1681518110611f8957611f89614584565b6020026020010190151590811515815250506000838260ff1681518110611fb257611fb2614584565b602002602001019015159081151581525050600160008660ff1681526020019081526020016000206003018260ff1681548110611ff157611ff1614584565b6000918252602091829020015460405160ff881681526001600160a01b03909116917f783de3ac95b82563b70ac74b3a843e5f9f71a653b9518e6e1762b39151c0f710910160405180910390a2600160008660ff1681526020019081526020016000206003018160ff168154811061206b5761206b614584565b6000918252602091829020015460405160ff881681526001600160a01b03909116917f783de3ac95b82563b70ac74b3a843e5f9f71a653b9518e6e1762b39151c0f710910160405180910390a260ff808616600090815260016020526040902060030180546121019285169081106120e5576120e5614584565b6000918252602090912001546001600160a01b031683876136dc565b60ff8086166000908152600160205260409020600301805461214a92841690811061212e5761212e614584565b6000918252602090912001546001600160a01b031682876136dc565b828260ff168151811061215f5761215f614584565b602002602001015180156121f3575060ff808616600090815260016020526040812060038101805460029092019390919086169081106121a1576121a1614584565b60009182526020808320909101546001600160a01b03168352820192909252604001902054845160ff9182169186919084169081106121e2576121e2614584565b60200260200101516000015160ff16145b8015612284575060ff8086166000908152600160205260408120600381018054600290920193909190861690811061222d5761222d614584565b60009182526020808320909101546001600160a01b03168352820192909252604001902054845160ff610100909204821691869190841690811061227357612273614584565b60200260200101516020015160ff16145b1561237357600160008660ff1681526020019081526020016000206003018160ff16815481106122b6576122b6614584565b600091825260208083209091015460ff80891684526001909252604090922060030180546001600160a01b0390931692909185169081106122f9576122f9614584565b6000918252602091829020015460405160ff891681526001600160a01b03909116917fb2ee3834f34c038f7f34d57f8ce213e4ee56fecd33556013e0f66b1e32ee14bc910160405180910390a360ff808616600090815260016020526040902060030180546123739285169081106120e5576120e5614584565b8061237d81614690565b915050611d77565b508061239081614690565b915050611d54565b5060005b60ff80851660009081526001602052604090206003015490821610156125275760006001600160a01b0316600160008660ff1681526020019081526020016000206003018260ff16815481106123f4576123f4614584565b6000918252602090912001546001600160a01b0316036125155760ff841660009081526001602081905260409091206003018054909161243391614773565b8154811061244357612443614584565b9060005260206000200160009054906101000a90046001600160a01b0316600160008660ff1681526020019081526020016000206003018260ff168154811061248e5761248e614584565b600091825260208083209190910180546001600160a01b0319166001600160a01b03949094169390931790925560ff861681526001909152604090206003018054806124dc576124dc614786565b600082815260209020810160001990810180546001600160a01b031916905501905560ff81161561251557806125118161479c565b9150505b8061251f81614690565b91505061239c565b5060ff831660009081526001602052604081206003015490036125a55760405160ff841681526000907f8403b4a1c998f6768b577f2c265d744e2f4d05982059b4d82b34eb822bdc17d1906020015b60405180910390a260ff83166000908152600160205260409020600401805461ff0019166101001790556128f3565b60ff831660009081526001602081905260409091206003015490036126345760ff8316600090815260016020526040812060030180549091906125ea576125ea614584565b6000918252602091829020015460405160ff861681526001600160a01b03909116917f8403b4a1c998f6768b577f2c265d744e2f4d05982059b4d82b34eb822bdc17d19101612576565b60ff83166000908152600160205260408120600301805490919061265a5761265a614584565b60009182526020808320919091015460405160ff871681526001600160a01b0390911692917f2cee3725d64bc62c413fa35348815210ff376bf4f13627d82b6ac0d0efc6e8cd910160405180910390a360005b60ff80851660009081526001602052604090206003015490821610156128bf5760ff808516600090815260016020526040812060038101805460069460029093019392861690811061270157612701614584565b60009182526020808320909101546001600160a01b03168352820192909252604001902060019081018054909160ff199091169083600681111561274757612747614288565b021790555060ff808516600090815260016020526040812060038101805492936002909201928492861690811061278057612780614584565b6000918252602080832091909101546001600160a01b0316835282810193909352604091820181206001908101805461ff00191661010060ff97881602179055888516825290925281206003810180546006946002909301939286169081106127eb576127eb614584565b60009182526020808320909101546001600160a01b031683528201929092526040019020600101805462ff000019166201000083600681111561283057612830614288565b021790555060ff808516600090815260016020526040812060038101805492936002909201928492861690811061286957612869614584565b60009182526020808320909101546001600160a01b031683528201929092526040019020600101805460ff9290921663010000000263ff00000019909216919091179055806128b781614690565b9150506126ad565b5060ff83166000908152600160205260409020600401805463ff000000191690556128e983613858565b506128f383613979565b60405160ff841681527fd44344392ee117b90bc172ab74cce9c43a862f0d5e11a336b3885fde466c244e906020015b60405180910390a1505050565b604080518082019091526000808252602082015260ff80831660009081526001602081905260409091206004015490911615151461297f5760405162461bcd60e51b8152600401610393906143cc565b604051630d42527560e11b81526001600160a01b037f00000000000000000000000000000000000000000000000000000000000000001690631a84a4ea906129cf908890889088906004016144e1565b6040805180830381865afa1580156129eb573d6000803e3d6000fd5b505050506040513d601f19601f82011682018060405250810190612a0f919061451d565b95945050505050565b6002546001600160a01b03163314612a425760405162461bcd60e51b8152600401610393906147f5565b60ff8260ff1610612a955760405162461bcd60e51b815260206004820152601f60248201527f4d6178696d756d206e756d626572206f662067616d65732072656163686564006044820152606401610393565b60ff8083166000908152600160205260409020600401541615612b085760405162461bcd60e51b815260206004820152602560248201527f47616d652077697468207468697320494420616c726561647920696e2070726f604482015264677265737360d81b6064820152608401610393565b60ff82166000908152600160208190526040909120600401805460ff19169091179055612b358183613a12565b612b3e82613979565b60405160ff831681527f13cb55fc1bec4b9f4cd4c22f154240b469cb108a23a35aa599df0c3da46f2d149060200160405180910390a15050565b612b806135c0565b600280546001600160a01b0319166001600160a01b0392909216919091179055565b6002546001600160a01b03163314612bcc5760405162461bcd60e51b8152600401610393906147f5565b60ff8460ff1610612c1f5760405162461bcd60e51b815260206004820152601f60248201527f4d6178696d756d206e756d626572206f662067616d65732072656163686564006044820152606401610393565b60ff80851660009081526001602052604090206004015416612c7a5760405162461bcd60e51b815260206004820152601460248201527347616d65206e6f7420696e2070726f677265737360601b6044820152606401610393565b81518351148015612c8c575080518351145b612cd05760405162461bcd60e51b8152602060048201526015602482015274082e4e4c2f240d8cadccee8d040dad2e6dac2e8c6d605b1b6044820152606401610393565b60005b83518110156131ee576000848281518110612cf057612cf0614584565b602002602001015190506000848381518110612d0e57612d0e614584565b602002602001015190506000848481518110612d2c57612d2c614584565b60209081029190910181015160ff8a166000908152600180845260408083206001600160a01b03898116855260029091019095529091200154909250600160281b90041615612dd75760ff88811660009081526001602090815260408083206001600160a01b0388168085526002909101909252918290205491516308538db760e41b8152600481019190915281831660248201526101009091049091166044820152606401610393565b6040516342c39d9160e01b815260ff891660048201526000907f00000000000000000000000000000000000000000000000000000000000000006001600160a01b0316906342c39d919060240160408051808303816000875af1158015612e42573d6000803e3d6000fd5b505050506040513d601f19601f82011682018060405250810190612e66919061451d565b90505b612e73818a613cc3565b15612f0b576040516342c39d9160e01b815260ff8a1660048201527f00000000000000000000000000000000000000000000000000000000000000006001600160a01b0316906342c39d919060240160408051808303816000875af1158015612ee0573d6000803e3d6000fd5b505050506040513d601f19601f82011682018060405250810190612f04919061451d565b9050612e69565b604080516101408101909152818152600090602081018281526000602082018190526040909101908152602001600060ff168152602001600015158152602001866001600160a01b031681526020018560ff1681526020018460ff1681526020018b60ff16815250905080600160008c60ff1681526020019081526020016000206002016000876001600160a01b03166001600160a01b0316815260200190815260200160002060008201518160000160008201518160000160006101000a81548160ff021916908360ff16021790555060208201518160000160016101000a81548160ff021916908360ff160217905550505060208201518160010160006101000a81548160ff0219169083600681111561302957613029614288565b0217905550604082015160018201805460ff9092166101000261ff001983168117825560608501519262ff00001990911662ffff0019909116176201000083600681111561307957613079614288565b02179055506080828101516001928301805460a08087015160c088015160e08901516101008a0151610120909a015164ffff00000019909516630100000060ff9889160264ff00000000191617640100000000931515939093029290921765010000000000600160d01b031916600160281b6001600160a01b039283160260ff60c81b191617600160c81b928716929092029190911761ffff60d01b1916600160d01b9886169890980260ff60d81b191697909717600160d81b92851692909202919091179091558e82166000818152602086815260408083206003018054988901815583529181902090960180546001600160a01b031916978d169788179055885189870151825193845290851696830196909652948316948101949094528882166060850152908716918301919091527f5e5c5018f010da587f4ea3677380307dc0fb74d57d455db252799686dbfbd059910160405180910390a2505050505080806131e69061483c565b915050612cd3565b5050505050565b6131fd6135c0565b6001600160a01b03811661322757604051631e4fbdf760e01b815260006004820152602401610393565b613230816135ed565b50565b60ff808216600090815260016020819052604090912060040154606092161515146132705760405162461bcd60e51b8152600401610393906143cc565b60ff821660009081526001602052604081206003015467ffffffffffffffff81111561329e5761329e613e2c565b60405190808252806020026020018201604052801561332c57816020015b604080516101808101825260006101408201818152610160830182905282526020808301829052928201819052606082018190526080820181905260a0820181905260c0820181905260e08201819052610100820181905261012082015282526000199092019101816132bc5790505b50905060005b60ff84166000908152600160205260409020600301548110156134e05760ff84166000908152600160205260408120600381018054600290920192918490811061337e5761337e614584565b60009182526020808320909101546001600160a01b03168352828101939093526040918201902081516101808101909252805460ff80821661014085019081526101009092048116610160850152908352600182015492939192918401911660068111156133ee576133ee614288565b60068111156133ff576133ff614288565b8152600182015460ff6101008204811660208401526040909201916201000090910416600681111561343357613433614288565b600681111561344457613444614288565b81526001919091015460ff630100000082048116602084015264010000000082048116151560408401526001600160a01b03600160281b8304166060840152600160c81b820481166080840152600160d01b8204811660a0840152600160d81b9091041660c09091015282518390839081106134c2576134c2614584565b602002602001018190525080806134d89061483c565b915050613332565b5092915050565b60ff8082166000908152600160208190526040909120600401549091161515146135235760405162461bcd60e51b8152600401610393906143cc565b6000805b60ff80841660009081526001602052604090206003015490821610156135af5760ff808416600090815260016020526040902060030180546001600160a01b03871692841690811061357b5761357b614584565b6000918252602090912001546001600160a01b03160361359d578091506135af565b806135a781614690565b915050613527565b506135bb8382846136dc565b505050565b6000546001600160a01b03163314610d415760405163118cdaa760e01b8152336004820152602401610393565b600080546001600160a01b038381166001600160a01b0319831681178455604051919092169283917f8be0079c531659141344cd1fd0a4f28419497f9722a3daafe3b4186f6b6457e09190a35050565b6000807f00000000000000000000000000000000000000000000000000000000000000006001600160a01b0316634d02388685856040518363ffffffff1660e01b815260040161368e9291906145b3565b608060405180830381865afa1580156136ab573d6000803e3d6000fd5b505050506040513d601f19601f820116820180604052508101906136cf9190614735565b6060015115949350505050565b60ff808216600090815260016020526040902060030154908316106137435760405162461bcd60e51b815260206004820152601860248201527f496e6465782076616c7565206f7574206f662072616e676500000000000000006044820152606401610393565b60ff80821660009081526001602081905260409091206004015490911615151461377f5760405162461bcd60e51b8152600401610393906143cc565b60405160ff821681526001600160a01b038416907fabe2a4edb03972506a4064b683e5482b1f09f2fb96bd4463b7b15b38cbd5b1869060200160405180910390a260ff80821660008181526001602081815260408084206001600160a01b038a168552600281018352908420805461ffff19168155830180546001600160e01b031916905593835252600390910180549192909190851690811061382557613825614584565b9060005260206000200160006101000a8154816001600160a01b0302191690836001600160a01b03160217905550505050565b60405163436fadf360e11b815260ff8216600482015260009081906001600160a01b037f000000000000000000000000000000000000000000000000000000000000000016906386df5be690602401602060405180830381865afa1580156138c4573d6000803e3d6000fd5b505050506040513d601f19601f820116820180604052508101906138e891906144c4565b60ff841660009081526001602052604081208054929350906139098361483c565b909155505060ff838116600081815260016020908152604091829020548251938452908301529183168183015290517f44d8fc4a70679f71d5b762b5218cbfb0c858bb7e015b1effe03793d2909c20f69181900360600190a1505060ff1660009081526001602052604090205490565b60ff8082166000908152600160208190526040909120600401549091161515146139b55760405162461bcd60e51b8152600401610393906143cc565b60ff811660008181526001602090815260409182902060048101805463ff00000019166301000000179055548251938452908301527f8f2926f00686a0050801f0bdb34f506a8467984df7f619eca0dac070da51babc9101610dd1565b60ff808216600090815260016020819052604090912060040154909116151514613a4e5760405162461bcd60e51b8152600401610393906143cc565b60005b60ff8216600090815260016020526040902060030154811015613aed5760ff821660009081526001602052604081206003810180546002909201929184908110613a9d57613a9d614584565b60009182526020808320909101546001600160a01b031683528201929092526040019020805461ffff1916815560010180546001600160e01b031916905580613ae58161483c565b915050613a51565b5060ff81166000908152600160205260408120613b0f91600390910190613de1565b613b1881613858565b50604051631a405d8760e31b815260ff8084166004830152821660248201526000907f00000000000000000000000000000000000000000000000000000000000000006001600160a01b03169063d202ec38906044016000604051808303816000875af1158015613b8d573d6000803e3d6000fd5b505050506040513d6000823e601f3d908101601f19168201604052613bb59190810190614855565b905060005b8151811015613c88577fa0c5e7441ab424c9fb8f47238c88c2c172bf9be1898748ea348b2a8bb92d6dbb83838381518110613bf757613bf7614584565b602002602001015160000151848481518110613c1557613c15614584565b602002602001015160200151858581518110613c3357613c33614584565b602002602001015160400151604051613c6e949392919060ff9485168152928416602084015292166040820152901515606082015260800190565b60405180910390a180613c808161483c565b915050613bba565b506040805160ff8086168252841660208201527fd76a0a97b7d547fef69b0cd90fb02087b761703ae2b5e4e91a99e8fd17e308ad9101612922565b6000805b60ff8316600090815260016020526040902060030154811015613dd757835160ff8481166000908152600160205260408120600381018054939094169360029091019285908110613d1a57613d1a614584565b60009182526020808320909101546001600160a01b0316835282019290925260400190205460ff16148015613db6575060208085015160ff85811660009081526001909352604083206003810180549290931693600290910192909185908110613d8657613d86614584565b60009182526020808320909101546001600160a01b0316835282019290925260400190205460ff61010090910416145b15613dc557600191505061055e565b80613dcf8161483c565b915050613cc7565b5060009392505050565b508054600082559060005260206000209081019061323091905b80821115613e0f5760008155600101613dfb565b5090565b600060208284031215613e2557600080fd5b5035919050565b634e487b7160e01b600052604160045260246000fd5b6040805190810167ffffffffffffffff81118282101715613e6557613e65613e2c565b60405290565b604051601f8201601f1916810167ffffffffffffffff81118282101715613e9457613e94613e2c565b604052919050565b60ff8116811461323057600080fd5b600060408284031215613ebd57600080fd5b613ec5613e42565b90508135613ed281613e9c565b81526020820135613ee281613e9c565b602082015292915050565b803560078110613efc57600080fd5b919050565b60008060008060a08587031215613f1757600080fd5b613f218686613eab565b9350613f2f60408601613eed565b92506060850135613f3f81613e9c565b91506080850135613f4f81613e9c565b939692955090935050565b600060208284031215613f6c57600080fd5b8135610d2881613e9c565b600080600080600060a08688031215613f8f57600080fd5b613f9886613eed565b94506020860135613fa881613e9c565b9350613fb660408701613eed565b92506060860135613fc681613e9c565b91506080860135613fd681613e9c565b809150509295509295909350565b602080825282518282018190526000919060409081850190868401855b8281101561403457614024848351805160ff908116835260209182015116910152565b9284019290850190600101614001565b5091979650505050505050565b6000806060838503121561405457600080fd5b61405e8484613eab565b9150604083013561406e81613e9c565b809150509250929050565b6040810161055e8284805160ff908116835260209182015116910152565b600080604083850312156140aa57600080fd5b82356140b581613e9c565b9150602083013561406e81613e9c565b80356001600160a01b0381168114613efc57600080fd5b6000602082840312156140ee57600080fd5b610d28826140c5565b600067ffffffffffffffff82111561411157614111613e2c565b5060051b60200190565b600082601f83011261412c57600080fd5b8135602061414161413c836140f7565b613e6b565b82815260059290921b8401810191818101908684111561416057600080fd5b8286015b8481101561418457803561417781613e9c565b8352918301918301614164565b509695505050505050565b600080600080608085870312156141a557600080fd5b84356141b081613e9c565b935060208581013567ffffffffffffffff808211156141ce57600080fd5b818801915088601f8301126141e257600080fd5b81356141f061413c826140f7565b81815260059190911b8301840190848101908b83111561420f57600080fd5b938501935b8285101561423457614225856140c5565b82529385019390850190614214565b97505050604088013592508083111561424c57600080fd5b61425889848a0161411b565b9450606088013592508083111561426e57600080fd5b505061427c8782880161411b565b91505092959194509250565b634e487b7160e01b600052602160045260246000fd5b600781106142bc57634e487b7160e01b600052602160045260246000fd5b9052565b602080825282518282018190526000919060409081850190868401855b82811015614034578151614302858251805160ff908116835260209182015116910152565b868101516143128787018261429e565b508581015160606143278188018360ff169052565b8201519050608061433a8782018361429e565b820151905060a061434f8782018360ff169052565b820151905060c06143638782018315159052565b820151905060e061437e878201836001600160a01b03169052565b82015190506101006143948782018360ff169052565b82015190506101206143aa8782018360ff169052565b919091015160ff166101408601525061016090930192908501906001016142dd565b60208082526019908201527f47616d6520686173206e6f742073746172746564207965742100000000000000604082015260600190565b60a081016144218287805160ff908116835260209182015116910152565b61442e604083018661429e565b60ff8416606083015260ff8316608083015295945050505050565b80518015158114613efc57600080fd5b60006040828403121561446b57600080fd5b614473613e42565b9050815161448081613e9c565b81526020820151613ee281613e9c565b600080606083850312156144a357600080fd5b6144ac83614449565b91506144bb8460208501614459565b90509250929050565b6000602082840312156144d657600080fd5b8151610d2881613e9c565b608081016144ff8286805160ff908116835260209182015116910152565b61450c604083018561429e565b60ff83166060830152949350505050565b60006040828403121561452f57600080fd5b610d288383614459565b634e487b7160e01b600052601160045260246000fd5b60ff818116838216019081111561055e5761055e614539565b60ff81811683821602908116908181146134e0576134e0614539565b634e487b7160e01b600052603260045260246000fd5b60ff828116828216039081111561055e5761055e614539565b606081016145d18285805160ff908116835260209182015116910152565b60ff831660408301529392505050565b600060208083850312156145f457600080fd5b825167ffffffffffffffff81111561460b57600080fd5b8301601f8101851361461c57600080fd5b805161462a61413c826140f7565b81815260069190911b8201830190838101908783111561464957600080fd5b928401925b82841015614672576146608885614459565b8252848201915060408401935061464e565b979650505050505050565b8082018082111561055e5761055e614539565b600060ff821660ff81036146a6576146a6614539565b60010192915050565b6000608082840312156146c157600080fd5b6040516080810181811067ffffffffffffffff821117156146e4576146e4613e2c565b806040525080915082516146f781613e9c565b8152602083015161470781613e9c565b602082015261471860408401614449565b604082015261472960608401614449565b60608201525092915050565b60006080828403121561474757600080fd5b610d2883836146af565b60008261476e57634e487b7160e01b600052601260045260246000fd5b500690565b8181038181111561055e5761055e614539565b634e487b7160e01b600052603160045260246000fd5b600060ff8216806147af576147af614539565b6000190192915050565b845460ff808216835260089190911c16602082015260a08101614421565b835460ff808216835260089190911c166020820152608081016144ff565b60208082526027908201527f43616c6c6572206973206e6f742074686520726567697374726174696f6e20636040820152661bdb9d1c9858dd60ca1b606082015260800190565b60006001820161484e5761484e614539565b5060010190565b6000602080838503121561486857600080fd5b825167ffffffffffffffff81111561487f57600080fd5b8301601f8101851361489057600080fd5b805161489e61413c826140f7565b81815260079190911b820183019083810190878311156148bd57600080fd5b928401925b82841015614672576148d488856146af565b825284820191506080840193506148c256fea2646970667358221220947e4493e14bfd22f2e03ccf7e568316c92de2e277b0cfa91948b614806683de64736f6c63430008140033",
  "linkReferences": {},
  "deployedLinkReferences": {}
}