{
    "_format": "hh-sol-artifact-1",
    "contractName": "GamePunk",
    "sourceName": "contracts/GamePunk.sol",
    "abi": [
        {
            "inputs": [
                {
                    "internalType": "address",
                    "name": "_mapAddress",
                    "type": "address"
                }
            ],
            "stateMutability": "nonpayable",
            "type": "constructor"
        },
        {
            "inputs": [
                {
                    "internalType": "address",
                    "name": "owner",
                    "type": "address"
                }
            ],
            "name": "OwnableInvalidOwner",
            "type": "error"
        },
        {
            "inputs": [
                {
                    "internalType": "address",
                    "name": "account",
                    "type": "address"
                }
            ],
            "name": "OwnableUnauthorizedAccount",
            "type": "error"
        },
        {
            "inputs": [
                {
                    "internalType": "address",
                    "name": "player",
                    "type": "address"
                },
                {
                    "internalType": "uint8",
                    "name": "q",
                    "type": "uint8"
                },
                {
                    "internalType": "uint8",
                    "name": "r",
                    "type": "uint8"
                }
            ],
            "name": "ShipAlreadyAdded",
            "type": "error"
        },
        {
            "anonymous": false,
            "inputs": [
                {
                    "indexed": false,
                    "internalType": "uint8",
                    "name": "gameId",
                    "type": "uint8"
                },
                {
                    "indexed": false,
                    "internalType": "uint8",
                    "name": "q",
                    "type": "uint8"
                },
                {
                    "indexed": false,
                    "internalType": "uint8",
                    "name": "r",
                    "type": "uint8"
                },
                {
                    "indexed": false,
                    "internalType": "bool",
                    "name": "island",
                    "type": "bool"
                }
            ],
            "name": "Cell",
            "type": "event"
        },
        {
            "anonymous": false,
            "inputs": [
                {
                    "indexed": false,
                    "internalType": "uint8",
                    "name": "gameId",
                    "type": "uint8"
                }
            ],
            "name": "CommitPhaseStarted",
            "type": "event"
        },
        {
            "anonymous": false,
            "inputs": [
                {
                    "indexed": false,
                    "internalType": "uint8",
                    "name": "gameId",
                    "type": "uint8"
                }
            ],
            "name": "GameEnded",
            "type": "event"
        },
        {
            "anonymous": false,
            "inputs": [
                {
                    "indexed": false,
                    "internalType": "uint8",
                    "name": "gameId",
                    "type": "uint8"
                }
            ],
            "name": "GameStarted",
            "type": "event"
        },
        {
            "anonymous": false,
            "inputs": [
                {
                    "indexed": true,
                    "internalType": "bool",
                    "name": "gameStatus",
                    "type": "bool"
                },
                {
                    "indexed": true,
                    "internalType": "address",
                    "name": "winnerAddress",
                    "type": "address"
                },
                {
                    "indexed": false,
                    "internalType": "uint8",
                    "name": "gameId",
                    "type": "uint8"
                }
            ],
            "name": "GameUpdated",
            "type": "event"
        },
        {
            "anonymous": false,
            "inputs": [
                {
                    "indexed": true,
                    "internalType": "address",
                    "name": "winner",
                    "type": "address"
                },
                {
                    "indexed": false,
                    "internalType": "uint8",
                    "name": "gameId",
                    "type": "uint8"
                }
            ],
            "name": "GameWinner",
            "type": "event"
        },
        {
            "anonymous": false,
            "inputs": [
                {
                    "indexed": false,
                    "internalType": "uint8",
                    "name": "radius",
                    "type": "uint8"
                },
                {
                    "indexed": false,
                    "internalType": "uint8",
                    "name": "gameId",
                    "type": "uint8"
                }
            ],
            "name": "MapInitialized",
            "type": "event"
        },
        {
            "anonymous": false,
            "inputs": [
                {
                    "indexed": false,
                    "internalType": "uint8",
                    "name": "gameId",
                    "type": "uint8"
                }
            ],
            "name": "MapShrink",
            "type": "event"
        },
        {
            "anonymous": false,
            "inputs": [
                {
                    "indexed": true,
                    "internalType": "address",
                    "name": "player",
                    "type": "address"
                },
                {
                    "indexed": false,
                    "internalType": "uint8",
                    "name": "gameId",
                    "type": "uint8"
                }
            ],
            "name": "MoveCommitted",
            "type": "event"
        },
        {
            "anonymous": false,
            "inputs": [
                {
                    "indexed": true,
                    "internalType": "address",
                    "name": "player",
                    "type": "address"
                },
                {
                    "indexed": false,
                    "internalType": "uint8",
                    "name": "gameId",
                    "type": "uint8"
                },
                {
                    "indexed": false,
                    "internalType": "uint256",
                    "name": "roundId",
                    "type": "uint256"
                },
                {
                    "indexed": false,
                    "internalType": "uint8",
                    "name": "destQ",
                    "type": "uint8"
                },
                {
                    "indexed": false,
                    "internalType": "uint8",
                    "name": "destR",
                    "type": "uint8"
                },
                {
                    "indexed": false,
                    "internalType": "uint8",
                    "name": "shotQ",
                    "type": "uint8"
                },
                {
                    "indexed": false,
                    "internalType": "uint8",
                    "name": "shotR",
                    "type": "uint8"
                }
            ],
            "name": "MoveSubmitted",
            "type": "event"
        },
        {
            "anonymous": false,
            "inputs": [
                {
                    "indexed": false,
                    "internalType": "uint8",
                    "name": "gameId",
                    "type": "uint8"
                },
                {
                    "indexed": false,
                    "internalType": "uint256",
                    "name": "roundId",
                    "type": "uint256"
                },
                {
                    "indexed": false,
                    "internalType": "uint8",
                    "name": "radius",
                    "type": "uint8"
                }
            ],
            "name": "NewRound",
            "type": "event"
        },
        {
            "anonymous": false,
            "inputs": [
                {
                    "indexed": true,
                    "internalType": "address",
                    "name": "previousOwner",
                    "type": "address"
                },
                {
                    "indexed": true,
                    "internalType": "address",
                    "name": "newOwner",
                    "type": "address"
                }
            ],
            "name": "OwnershipTransferred",
            "type": "event"
        },
        {
            "anonymous": false,
            "inputs": [
                {
                    "indexed": true,
                    "internalType": "address",
                    "name": "player",
                    "type": "address"
                },
                {
                    "indexed": false,
                    "internalType": "uint8",
                    "name": "gameId",
                    "type": "uint8"
                },
                {
                    "indexed": false,
                    "internalType": "uint8",
                    "name": "q",
                    "type": "uint8"
                },
                {
                    "indexed": false,
                    "internalType": "uint8",
                    "name": "r",
                    "type": "uint8"
                },
                {
                    "indexed": false,
                    "internalType": "uint8",
                    "name": "speed",
                    "type": "uint8"
                },
                {
                    "indexed": false,
                    "internalType": "uint8",
                    "name": "range",
                    "type": "uint8"
                }
            ],
            "name": "PlayerAdded",
            "type": "event"
        },
        {
            "anonymous": false,
            "inputs": [
                {
                    "indexed": true,
                    "internalType": "address",
                    "name": "player",
                    "type": "address"
                },
                {
                    "indexed": false,
                    "internalType": "uint8",
                    "name": "gameId",
                    "type": "uint8"
                }
            ],
            "name": "PlayerDefeated",
            "type": "event"
        },
        {
            "anonymous": false,
            "inputs": [
                {
                    "indexed": true,
                    "internalType": "address",
                    "name": "captain",
                    "type": "address"
                },
                {
                    "indexed": false,
                    "internalType": "uint8",
                    "name": "gameId",
                    "type": "uint8"
                },
                {
                    "indexed": false,
                    "internalType": "uint8",
                    "name": "q",
                    "type": "uint8"
                },
                {
                    "indexed": false,
                    "internalType": "uint8",
                    "name": "r",
                    "type": "uint8"
                }
            ],
            "name": "ShipCollidedWithIsland",
            "type": "event"
        },
        {
            "anonymous": false,
            "inputs": [
                {
                    "indexed": true,
                    "internalType": "address",
                    "name": "victim",
                    "type": "address"
                },
                {
                    "indexed": true,
                    "internalType": "address",
                    "name": "attacker",
                    "type": "address"
                },
                {
                    "indexed": false,
                    "internalType": "uint8",
                    "name": "gameId",
                    "type": "uint8"
                }
            ],
            "name": "ShipHit",
            "type": "event"
        },
        {
            "anonymous": false,
            "inputs": [
                {
                    "indexed": true,
                    "internalType": "address",
                    "name": "captain",
                    "type": "address"
                },
                {
                    "indexed": false,
                    "internalType": "uint8",
                    "name": "initialQ",
                    "type": "uint8"
                },
                {
                    "indexed": false,
                    "internalType": "uint8",
                    "name": "initialR",
                    "type": "uint8"
                },
                {
                    "indexed": false,
                    "internalType": "uint8",
                    "name": "q",
                    "type": "uint8"
                },
                {
                    "indexed": false,
                    "internalType": "uint8",
                    "name": "r",
                    "type": "uint8"
                },
                {
                    "indexed": false,
                    "internalType": "uint8",
                    "name": "gameId",
                    "type": "uint8"
                }
            ],
            "name": "ShipMoved",
            "type": "event"
        },
        {
            "anonymous": false,
            "inputs": [
                {
                    "indexed": true,
                    "internalType": "address",
                    "name": "captain",
                    "type": "address"
                },
                {
                    "indexed": false,
                    "internalType": "uint8",
                    "name": "gameId",
                    "type": "uint8"
                }
            ],
            "name": "ShipMovedInGame",
            "type": "event"
        },
        {
            "anonymous": false,
            "inputs": [
                {
                    "indexed": true,
                    "internalType": "address",
                    "name": "captain",
                    "type": "address"
                },
                {
                    "indexed": false,
                    "internalType": "uint8",
                    "name": "fromQ",
                    "type": "uint8"
                },
                {
                    "indexed": false,
                    "internalType": "uint8",
                    "name": "fromR",
                    "type": "uint8"
                },
                {
                    "indexed": false,
                    "internalType": "uint8",
                    "name": "shotQ",
                    "type": "uint8"
                },
                {
                    "indexed": false,
                    "internalType": "uint8",
                    "name": "shotR",
                    "type": "uint8"
                },
                {
                    "indexed": false,
                    "internalType": "uint8",
                    "name": "gameId",
                    "type": "uint8"
                }
            ],
            "name": "ShipShot",
            "type": "event"
        },
        {
            "anonymous": false,
            "inputs": [
                {
                    "indexed": true,
                    "internalType": "address",
                    "name": "captain",
                    "type": "address"
                },
                {
                    "indexed": false,
                    "internalType": "uint8",
                    "name": "gameId",
                    "type": "uint8"
                }
            ],
            "name": "ShipSunk",
            "type": "event"
        },
        {
            "anonymous": false,
            "inputs": [
                {
                    "indexed": true,
                    "internalType": "address",
                    "name": "captain",
                    "type": "address"
                },
                {
                    "indexed": false,
                    "internalType": "uint8",
                    "name": "gameId",
                    "type": "uint8"
                }
            ],
            "name": "ShipSunkOutOfMap",
            "type": "event"
        },
        {
            "anonymous": false,
            "inputs": [
                {
                    "indexed": false,
                    "internalType": "uint8",
                    "name": "gameId",
                    "type": "uint8"
                },
                {
                    "indexed": false,
                    "internalType": "uint256",
                    "name": "round",
                    "type": "uint256"
                }
            ],
            "name": "SubmitPhaseStarted",
            "type": "event"
        },
        {
            "anonymous": false,
            "inputs": [
                {
                    "indexed": false,
                    "internalType": "uint8",
                    "name": "gameId",
                    "type": "uint8"
                }
            ],
            "name": "WorldUpdated",
            "type": "event"
        },
        {
            "inputs": [
                {
                    "internalType": "address",
                    "name": "playerAddress",
                    "type": "address"
                },
                {
                    "internalType": "uint8",
                    "name": "gameId",
                    "type": "uint8"
                },
                {
                    "internalType": "uint8",
                    "name": "_speed",
                    "type": "uint8"
                },
                {
                    "internalType": "uint8",
                    "name": "_range",
                    "type": "uint8"
                }
            ],
            "name": "addShip",
            "outputs": [
                {
                    "internalType": "bool",
                    "name": "",
                    "type": "bool"
                }
            ],
            "stateMutability": "nonpayable",
            "type": "function"
        },
        {
            "inputs": [
                {
                    "internalType": "uint8",
                    "name": "gameId",
                    "type": "uint8"
                }
            ],
            "name": "allowSubmitMoves",
            "outputs": [],
            "stateMutability": "nonpayable",
            "type": "function"
        },
        {
            "inputs": [
                {
                    "internalType": "uint8",
                    "name": "gameId",
                    "type": "uint8"
                }
            ],
            "name": "endGame",
            "outputs": [],
            "stateMutability": "nonpayable",
            "type": "function"
        },
        {
            "inputs": [
                {
                    "internalType": "uint256",
                    "name": "",
                    "type": "uint256"
                }
            ],
            "name": "games",
            "outputs": [
                {
                    "internalType": "uint256",
                    "name": "round",
                    "type": "uint256"
                },
                {
                    "internalType": "uint8",
                    "name": "shrinkNo",
                    "type": "uint8"
                },
                {
                    "internalType": "bool",
                    "name": "gameInProgress",
                    "type": "bool"
                },
                {
                    "internalType": "bool",
                    "name": "stopAddingShips",
                    "type": "bool"
                },
                {
                    "internalType": "bool",
                    "name": "letCommitMoves",
                    "type": "bool"
                },
                {
                    "internalType": "bool",
                    "name": "letSubmitMoves",
                    "type": "bool"
                }
            ],
            "stateMutability": "view",
            "type": "function"
        },
        {
            "inputs": [
                {
                    "components": [
                        {
                            "internalType": "uint8",
                            "name": "q",
                            "type": "uint8"
                        },
                        {
                            "internalType": "uint8",
                            "name": "r",
                            "type": "uint8"
                        }
                    ],
                    "internalType": "struct SharedStructs.Coordinate",
                    "name": "_coord",
                    "type": "tuple"
                },
                {
                    "internalType": "uint8",
                    "name": "gameId",
                    "type": "uint8"
                }
            ],
            "name": "getCell",
            "outputs": [
                {
                    "components": [
                        {
                            "internalType": "uint8",
                            "name": "q",
                            "type": "uint8"
                        },
                        {
                            "internalType": "uint8",
                            "name": "r",
                            "type": "uint8"
                        },
                        {
                            "internalType": "bool",
                            "name": "island",
                            "type": "bool"
                        },
                        {
                            "internalType": "bool",
                            "name": "exists",
                            "type": "bool"
                        }
                    ],
                    "internalType": "struct SharedStructs.Cell",
                    "name": "",
                    "type": "tuple"
                }
            ],
            "stateMutability": "view",
            "type": "function"
        },
        {
            "inputs": [
                {
                    "internalType": "uint8",
                    "name": "gameId",
                    "type": "uint8"
                }
            ],
            "name": "getCells",
            "outputs": [
                {
                    "components": [
                        {
                            "internalType": "uint8",
                            "name": "q",
                            "type": "uint8"
                        },
                        {
                            "internalType": "uint8",
                            "name": "r",
                            "type": "uint8"
                        }
                    ],
                    "internalType": "struct SharedStructs.Coordinate[]",
                    "name": "",
                    "type": "tuple[]"
                }
            ],
            "stateMutability": "view",
            "type": "function"
        },
        {
            "inputs": [
                {
                    "internalType": "uint8",
                    "name": "gameId",
                    "type": "uint8"
                }
            ],
            "name": "getRadius",
            "outputs": [
                {
                    "internalType": "uint8",
                    "name": "",
                    "type": "uint8"
                }
            ],
            "stateMutability": "view",
            "type": "function"
        },
        {
            "inputs": [
                {
                    "internalType": "uint8",
                    "name": "gameId",
                    "type": "uint8"
                }
            ],
            "name": "getShips",
            "outputs": [
                {
                    "components": [
                        {
                            "components": [
                                {
                                    "internalType": "uint8",
                                    "name": "q",
                                    "type": "uint8"
                                },
                                {
                                    "internalType": "uint8",
                                    "name": "r",
                                    "type": "uint8"
                                }
                            ],
                            "internalType": "struct SharedStructs.Coordinate",
                            "name": "coordinate",
                            "type": "tuple"
                        },
                        {
                            "internalType": "enum SharedStructs.Directions",
                            "name": "travelDirection",
                            "type": "uint8"
                        },
                        {
                            "internalType": "uint8",
                            "name": "travelDistance",
                            "type": "uint8"
                        },
                        {
                            "internalType": "enum SharedStructs.Directions",
                            "name": "shotDirection",
                            "type": "uint8"
                        },
                        {
                            "internalType": "uint8",
                            "name": "shotDistance",
                            "type": "uint8"
                        },
                        {
                            "internalType": "bool",
                            "name": "publishedMove",
                            "type": "bool"
                        },
                        {
                            "internalType": "address",
                            "name": "captain",
                            "type": "address"
                        },
                        {
                            "internalType": "uint8",
                            "name": "yachtSpeed",
                            "type": "uint8"
                        },
                        {
                            "internalType": "uint8",
                            "name": "yachtRange",
                            "type": "uint8"
                        }
                    ],
                    "internalType": "struct GamePunk.Ship[]",
                    "name": "",
                    "type": "tuple[]"
                }
            ],
            "stateMutability": "view",
            "type": "function"
        },
        {
            "inputs": [
                {
                    "internalType": "uint8",
                    "name": "_radius",
                    "type": "uint8"
                },
                {
                    "internalType": "uint8",
                    "name": "gameId",
                    "type": "uint8"
                }
            ],
            "name": "initGame",
            "outputs": [],
            "stateMutability": "nonpayable",
            "type": "function"
        },
        {
            "inputs": [
                {
                    "components": [
                        {
                            "internalType": "uint8",
                            "name": "q",
                            "type": "uint8"
                        },
                        {
                            "internalType": "uint8",
                            "name": "r",
                            "type": "uint8"
                        }
                    ],
                    "internalType": "struct SharedStructs.Coordinate",
                    "name": "_start",
                    "type": "tuple"
                },
                {
                    "internalType": "enum SharedStructs.Directions",
                    "name": "_dir",
                    "type": "uint8"
                },
                {
                    "internalType": "uint8",
                    "name": "_distance",
                    "type": "uint8"
                },
                {
                    "internalType": "uint8",
                    "name": "gameId",
                    "type": "uint8"
                }
            ],
            "name": "move",
            "outputs": [
                {
                    "components": [
                        {
                            "internalType": "uint8",
                            "name": "q",
                            "type": "uint8"
                        },
                        {
                            "internalType": "uint8",
                            "name": "r",
                            "type": "uint8"
                        }
                    ],
                    "internalType": "struct SharedStructs.Coordinate",
                    "name": "",
                    "type": "tuple"
                }
            ],
            "stateMutability": "view",
            "type": "function"
        },
        {
            "inputs": [],
            "name": "owner",
            "outputs": [
                {
                    "internalType": "address",
                    "name": "",
                    "type": "address"
                }
            ],
            "stateMutability": "view",
            "type": "function"
        },
        {
            "inputs": [],
            "name": "registrationContract",
            "outputs": [
                {
                    "internalType": "address",
                    "name": "",
                    "type": "address"
                }
            ],
            "stateMutability": "view",
            "type": "function"
        },
        {
            "inputs": [],
            "name": "renounceOwnership",
            "outputs": [],
            "stateMutability": "nonpayable",
            "type": "function"
        },
        {
            "inputs": [
                {
                    "internalType": "enum SharedStructs.Directions",
                    "name": "_travelDirection",
                    "type": "uint8"
                },
                {
                    "internalType": "uint8",
                    "name": "_travelDistance",
                    "type": "uint8"
                },
                {
                    "internalType": "enum SharedStructs.Directions",
                    "name": "_shotDirection",
                    "type": "uint8"
                },
                {
                    "internalType": "uint8",
                    "name": "_shotDistance",
                    "type": "uint8"
                },
                {
                    "internalType": "uint8",
                    "name": "gameId",
                    "type": "uint8"
                }
            ],
            "name": "revealMove",
            "outputs": [],
            "stateMutability": "nonpayable",
            "type": "function"
        },
        {
            "inputs": [
                {
                    "internalType": "address",
                    "name": "_registrationContract",
                    "type": "address"
                }
            ],
            "name": "setRegistrationContract",
            "outputs": [],
            "stateMutability": "nonpayable",
            "type": "function"
        },
        {
            "inputs": [
                {
                    "internalType": "uint8",
                    "name": "gameId",
                    "type": "uint8"
                }
            ],
            "name": "startNewGame",
            "outputs": [],
            "stateMutability": "nonpayable",
            "type": "function"
        },
        {
            "inputs": [
                {
                    "internalType": "address",
                    "name": "newOwner",
                    "type": "address"
                }
            ],
            "name": "transferOwnership",
            "outputs": [],
            "stateMutability": "nonpayable",
            "type": "function"
        },
        {
            "inputs": [
                {
                    "components": [
                        {
                            "internalType": "uint8",
                            "name": "q",
                            "type": "uint8"
                        },
                        {
                            "internalType": "uint8",
                            "name": "r",
                            "type": "uint8"
                        }
                    ],
                    "internalType": "struct SharedStructs.Coordinate",
                    "name": "_startCell",
                    "type": "tuple"
                },
                {
                    "internalType": "enum SharedStructs.Directions",
                    "name": "_direction",
                    "type": "uint8"
                },
                {
                    "internalType": "uint8",
                    "name": "_distance",
                    "type": "uint8"
                },
                {
                    "internalType": "uint8",
                    "name": "gameId",
                    "type": "uint8"
                }
            ],
            "name": "travel",
            "outputs": [],
            "stateMutability": "nonpayable",
            "type": "function"
        },
        {
            "inputs": [
                {
                    "internalType": "uint8",
                    "name": "gameId",
                    "type": "uint8"
                }
            ],
            "name": "updateWorld",
            "outputs": [],
            "stateMutability": "nonpayable",
            "type": "function"
        }
    ],
    "bytecode": "0x60a06040523480156200001157600080fd5b50604051620048d1380380620048d18339810160408190526200003491620000c9565b33806200005b57604051631e4fbdf760e01b81526000600482015260240160405180910390fd5b620000668162000079565b506001600160a01b0316608052620000fb565b600080546001600160a01b038381166001600160a01b0319831681178455604051919092169283917f8be0079c531659141344cd1fd0a4f28419497f9722a3daafe3b4186f6b6457e09190a35050565b600060208284031215620000dc57600080fd5b81516001600160a01b0381168114620000f457600080fd5b9392505050565b60805161475862000179600039600081816103ed015281816105df0152818161087f015281816108fe01528181610a6d01528181610bf701528181610da401528181610f550152818161134c0152818161190f01528181611efa01528181612e5e015281816130d8015281816139650152613ab601526147586000f3fe608060405234801561001057600080fd5b50600436106101215760003560e01c80636ed296e4116100ad578063d085a86f11610071578063d085a86f1461031a578063d3db03cc1461033a578063f10a39271461034d578063f2fde38b14610370578063fd8704461461038357600080fd5b80636ed296e4146102c8578063715018a6146102db578063863375ac146102e35780638da5cb5b146102f6578063978ac3561461030757600080fd5b806334361208116100f457806334361208146102085780634998b8fb1461022d5780634aac9b8b146102405780634d02388614610260578063508236ca146102b557600080fd5b8063117a5b90146101265780631cf8a321146101b55780631e522c3e146101ca5780632923a41f146101f5575b600080fd5b610177610134366004613d65565b600160208190526000918252604090912080549181015460049091015460ff91821691818116916101008104821691620100008204811691630100000090041686565b6040805196875260ff909516602087015292151593850193909352151560608401529015156080830152151560a082015260c0015b60405180910390f35b6101c86101c3366004613e53565b6103a3565b005b6002546101dd906001600160a01b031681565b6040516001600160a01b0390911681526020016101ac565b6101c8610203366004613eac565b6104e1565b61021b610216366004613eac565b610589565b60405160ff90911681526020016101ac565b6101c861023b366004613ec9565b610658565b61025361024e366004613eac565b610a15565b6040516101ac9190613f36565b61027361026e366004613f93565b610d2d565b6040516101ac9190600060808201905060ff835116825260ff602084015116602083015260408301511515604083015260608301511515606083015292915050565b6101c86102c3366004613fcb565b610e23565b6101c86102d6366004613eac565b6110e5565b6101c8611205565b6101c86102f1366004613eac565b611219565b6000546001600160a01b03166101dd565b6101c8610315366004613eac565b6112ab565b61032d610328366004613e53565b612df7565b6040516101ac9190613ff9565b6101c861034836600461402e565b612ee0565b61036061035b366004614049565b612f0a565b60405190151581526020016101ac565b6101c861037e36600461402e565b61355c565b610396610391366004613eac565b61359a565b6040516101ac91906140d0565b60ff8082166000908152600160208190526040909120600401549091161515146103e85760405162461bcd60e51b81526004016103df906141c0565b60405180910390fd5b6000807f00000000000000000000000000000000000000000000000000000000000000006001600160a01b0316631cf8a321878787876040518563ffffffff1660e01b815260040161043d94939291906141f7565b606060405180830381865afa15801561045a573d6000803e3d6000fd5b505050506040513d601f19601f8201168201806040525081019061047e9190614284565b91509150811561049757610492338461383a565b6104d9565b805160ff8481166000908152600160209081526040808320338452600201825290912080549185015183166101000261ffff1990921692909316919091171790555b505050505050565b6104e9613913565b60ff8082166000908152600160208190526040909120600401549091161515146105255760405162461bcd60e51b81526004016103df906141c0565b60ff811660008181526001602090815260409182902060048101805463ff00000019166301000000179055548251938452908301527f8f2926f00686a0050801f0bdb34f506a8467984df7f619eca0dac070da51babc91015b60405180910390a150565b60ff80821660009081526001602081905260408220600401549192919091161515146105c75760405162461bcd60e51b81526004016103df906141c0565b60405163436fadf360e11b815260ff831660048201527f00000000000000000000000000000000000000000000000000000000000000006001600160a01b0316906386df5be690602401602060405180830381865afa15801561062e573d6000803e3d6000fd5b505050506040513d601f19601f8201168201806040525081019061065291906142b8565b92915050565b60ff808216600090815260016020819052604090912060040154630100000090049091161515146106d55760405162461bcd60e51b815260206004820152602160248201527f5375626d6974206d6f76657320686173206e6f742073746172746564207965746044820152602160f81b60648201526084016103df565b60ff8082166000908152600160208190526040909120600401549091161515146107115760405162461bcd60e51b81526004016103df906141c0565b60ff8116600090815260016020818152604080842033855260020190915290912080820180549192889260ff19169083600681111561075257610752614098565b0217905550600181015460ff600160c81b909104811690861611156107945760018101805460ff600160c81b8204166101000261ff00199091161790556107ab565b60018101805461ff00191661010060ff8816021790555b60018101805485919062ff00001916620100008360068111156107d0576107d0614098565b0217905550600181015460ff600160d01b9091048116908416111561081657600181018054630100000060ff600160d01b8304160263ff00000019909116179055610831565b60018101805463ff0000001916630100000060ff8616021790555b60018101805464ff000000001916640100000000179055604080518082018252825460ff81811683526101009091041660208201529051630d42527560e11b81526000906001600160a01b037f00000000000000000000000000000000000000000000000000000000000000001690631a84a4ea906108b89085908c908c906004016142d5565b6040805180830381865afa1580156108d4573d6000803e3d6000fd5b505050506040513d601f19601f820116820180604052508101906108f89190614311565b905060007f00000000000000000000000000000000000000000000000000000000000000006001600160a01b0316631a84a4ea8389896040518463ffffffff1660e01b815260040161094c939291906142d5565b6040805180830381865afa158015610968573d6000803e3d6000fd5b505050506040513d601f19601f8201168201806040525081019061098c9190614311565b60ff8681166000818152600160209081526040918290205487518883015187518885015186519788529487019390935290861685850152851660608501528416608084015290921660a0820152905191925033917faff0b78027ac9f4904ee624bc84e3126d0e7d96ce215c5db5158441acb0b38cf9181900360c00190a2505050505050505050565b60ff80821660009081526001602081905260409091206004015460609216151514610a525760405162461bcd60e51b81526004016103df906141c0565b60405163436fadf360e11b815260ff831660048201526000907f00000000000000000000000000000000000000000000000000000000000000006001600160a01b0316906386df5be690602401602060405180830381865afa158015610abc573d6000803e3d6000fd5b505050506040513d601f19601f82011682018060405250810190610ae091906142b8565b90506000610aef826001614343565b610afa83600361435c565b610b04919061435c565b610b0f906001614343565b60ff16905060008167ffffffffffffffff811115610b2f57610b2f613d7e565b604051908082528060200260200182016040528015610b7457816020015b6040805180820190915260008082526020820152815260200190600190039081610b4d5790505b50905060405180604001604052808460ff1681526020018460ff1681525081600081518110610ba557610ba5614378565b602090810291909101015260015b8360ff168160ff1611610d2457600081610bce60018261438e565b610bd990600361435c565b610be3919061435c565b610bee906001614343565b60ff16905060007f00000000000000000000000000000000000000000000000000000000000000006001600160a01b03166339e5c4a085600081518110610c3757610c37614378565b6020026020010151856040518363ffffffff1660e01b8152600401610c5d9291906143a7565b600060405180830381865afa158015610c7a573d6000803e3d6000fd5b505050506040513d6000823e601f3d908101601f19168201604052610ca291908101906143f9565b905060005b81518160ff161015610d0e57818160ff1681518110610cc857610cc8614378565b6020026020010151858260ff1685610ce0919061449a565b81518110610cf057610cf0614378565b60200260200101819052508080610d06906144ad565b915050610ca7565b5050508080610d1c906144ad565b915050610bb3565b50949350505050565b60408051608081018252600080825260208201819052918101829052606081019190915260ff808316600090815260016020819052604090912060040154909116151514610d8d5760405162461bcd60e51b81526004016103df906141c0565b6040516326811c4360e11b81526001600160a01b037f00000000000000000000000000000000000000000000000000000000000000001690634d02388690610ddb90869086906004016143a7565b608060405180830381865afa158015610df8573d6000803e3d6000fd5b505050506040513d601f19601f82011682018060405250810190610e1c9190614552565b9392505050565b610e2b613913565b60ff808216600090815260016020819052604090912060040154909116151514610e675760405162461bcd60e51b81526004016103df906141c0565b60005b60ff8216600090815260016020526040902060030154811015610f065760ff821660009081526001602052604081206003810180546002909201929184908110610eb657610eb6614378565b60009182526020808320909101546001600160a01b031683528201929092526040019020805461ffff1916815560010180546001600160d81b031916905580610efe8161456e565b915050610e6a565b5060ff81166000908152600160205260408120610f2891600390910190613d33565b610f3181613940565b50604051631a405d8760e31b815260ff8084166004830152821660248201526000907f00000000000000000000000000000000000000000000000000000000000000006001600160a01b03169063d202ec38906044016000604051808303816000875af1158015610fa6573d6000803e3d6000fd5b505050506040513d6000823e601f3d908101601f19168201604052610fce9190810190614587565b905060005b81518110156110a1577fa0c5e7441ab424c9fb8f47238c88c2c172bf9be1898748ea348b2a8bb92d6dbb8383838151811061101057611010614378565b60200260200101516000015184848151811061102e5761102e614378565b60200260200101516020015185858151811061104c5761104c614378565b602002602001015160400151604051611087949392919060ff9485168152928416602084015292166040820152901515606082015260800190565b60405180910390a1806110998161456e565b915050610fd3565b506040805160ff8086168252841660208201527fd76a0a97b7d547fef69b0cd90fb02087b761703ae2b5e4e91a99e8fd17e308ad91015b60405180910390a1505050565b6110ed613913565b60ff8160ff16106111405760405162461bcd60e51b815260206004820152601f60248201527f4d6178696d756d206e756d626572206f662067616d657320726561636865640060448201526064016103df565b60ff80821660009081526001602052604090206004015416156111b35760405162461bcd60e51b815260206004820152602560248201527f47616d652077697468207468697320494420616c726561647920696e2070726f604482015264677265737360d81b60648201526084016103df565b60ff8116600081815260016020818152604092839020600401805460ff191690921790915590519182527f13cb55fc1bec4b9f4cd4c22f154240b469cb108a23a35aa599df0c3da46f2d14910161057e565b61120d613913565b6112176000613a61565b565b611221613913565b60ff80821660009081526001602081905260409091206004015490911615151461125d5760405162461bcd60e51b81526004016103df906141c0565b60ff8116600081815260016020908152604091829020600401805460ff1916905590519182527f4df34531b3f238bc8f90ad83236d8c752e7444e434bb5fc99f888f0a6345c0e7910161057e565b6112b3613913565b60ff8082166000908152600160208190526040909120600401549091161515146112ef5760405162461bcd60e51b81526004016103df906141c0565b60ff811660009081526001602052604090205461130e90600390614618565b6000036116ba5760ff81811660008181526001602081905260409182902001549051634affc34f60e01b8152600481019290925290911660248201527f00000000000000000000000000000000000000000000000000000000000000006001600160a01b031690634affc34f90604401600060405180830381600087803b15801561139857600080fd5b505af11580156113ac573d6000803e3d6000fd5b50505060ff8083166000908152600160208190526040822001805490921692506113d5836144ad565b91906101000a81548160ff021916908360ff160217905550507fab00852360aeece33bb03176d4e62fbb27adf3fd1a81b9d543c1ae388003b0ac81604051611426919060ff91909116815260200190565b60405180910390a160005b60ff80831660009081526001602052604090206003015490821610156116b85760ff808316600090815260016020526040812060038101805492936002909201928492861690811061148557611485614378565b60009182526020808320909101546001600160a01b03168352828101939093526040918201902081518083019092525460ff8082168352610100909104169181019190915290506114d68184613ab1565b156116a55760ff8084166000908152600160205260409020600301805461152492851690811061150857611508614378565b6000918252602090912001546001600160a01b03168385613b50565b600160008460ff1681526020019081526020016000206003018260ff168154811061155157611551614378565b6000918252602091829020015460405160ff861681526001600160a01b03909116917f7098e36d986448e47b2ec53e41ddd178ac0774637ee2227e84baba39b0c1c7b1910160405180910390a260ff83166000908152600160208190526040909120600301805490916115c39161463a565b815481106115d3576115d3614378565b9060005260206000200160009054906101000a90046001600160a01b0316600160008560ff1681526020019081526020016000206003018360ff168154811061161e5761161e614378565b600091825260208083209190910180546001600160a01b0319166001600160a01b03949094169390931790925560ff8516815260019091526040902060030180548061166c5761166c61464d565b600082815260209020810160001990810180546001600160a01b031916905501905560ff8216156116a557816116a181614663565b9250505b50806116b0816144ad565b915050611431565b505b60ff811660009081526001602052604081206003015467ffffffffffffffff8111156116e8576116e8613d7e565b60405190808252806020026020018201604052801561172d57816020015b60408051808201909152600080825260208201528152602001906001900390816117065790505b5060ff83166000908152600160205260408120600301549192509067ffffffffffffffff81111561176057611760613d7e565b604051908082528060200260200182016040528015611789578160200160208202803683370190505b50905060005b60ff80851660009081526001602052604090206003015490821610156117e8576001828260ff16815181106117c6576117c6614378565b91151560209283029190910190910152806117e0816144ad565b91505061178f565b5060005b60ff8085166000908152600160205260409020600301549082161015611e8f5760ff808516600090815260016020526040812060038101805492936002909201928492861690811061184057611840614378565b60009182526020808320909101546001600160a01b0390811684529083019390935260409091019020600101546501000000000090041614611e7d5760ff808516600090815260016020526040812060038101805460029092019390919085169081106118af576118af614378565b60009182526020808320909101546001600160a01b0316835282019290925260400190206001015460ff6401000000009091041615611e7d5760ff8085166000908152600160205260408120600381018054929384936001600160a01b037f00000000000000000000000000000000000000000000000000000000000000001693631cf8a32193600290910192869290891690811061195057611950614378565b60009182526020808320909101546001600160a01b03168352828101939093526040918201812060ff808d1683526001909452918120600381018054939460029092019390918a169081106119a7576119a7614378565b60009182526020808320909101546001600160a01b03168352828101939093526040918201812060019081015460ff8e8116845291909452918120600381018054948416946002909201939091908b16908110611a0657611a06614378565b60009182526020808320909101546001600160a01b0316835282019290925260409081019091206001015490516001600160e01b031960e086901b168152611a5e93929160ff61010090910416908c90600401614680565b606060405180830381865afa158015611a7b573d6000803e3d6000fd5b505050506040513d601f19601f82011682018060405250810190611a9f9190614284565b915091508115611c3057600160008760ff1681526020019081526020016000206003018360ff1681548110611ad657611ad6614378565b600091825260209182902001548251838301516040805160ff808d168252938416958101959095529116908301526001600160a01b0316907fd44ddf7f8e572e76d7ed6bf350d88367a33cf9a7d19d5069c392802305d51f6c9060600160405180910390a260ff80871660009081526001602052604090206003018054611b84928616908110611b6857611b68614378565b6000918252602090912001546001600160a01b03168488613b50565b6000848460ff1681518110611b9b57611b9b614378565b91151560209283029190910182015260ff808816600090815260019092526040822060038101805485946002909301938816908110611bdc57611bdc614378565b60009182526020808320909101546001600160a01b03168352828101939093526040909101902082518154939092015160ff9081166101000261ffff1990941692169190911791909117905550611e7d9050565b600160008760ff1681526020019081526020016000206003018360ff1681548110611c5d57611c5d614378565b600091825260208083209091015460ff808a1684526001909252604083206003810180546001600160a01b03909316947ff1e9c1d54f160cab3c8602dcfbf5fbe3e012ed037d80057eca695f74d26077a09460029093019390928916908110611cc857611cc8614378565b60009182526020808320909101546001600160a01b0316835282810193909352604091820181205460ff8c8116835260019094529181206003810180549385169460029092019390918a16908110611d2257611d22614378565b6000918252602080832091909101546001600160a01b03168352828101939093526040918201902054865187840151835160ff96871681526101009093048616948301949094528416818301529183166060830152918a16608082015290519081900360a00190a260ff80871660009081526001602052604081206003810180548594600290930193928816908110611dbd57611dbd614378565b60009182526020808320909101546001600160a01b031683528281019390935260409182018120845181549585015160ff9081166101000261ffff1990971691811691909117959095179055898416815260019092529020600301805490918516908110611e2d57611e2d614378565b6000918252602091829020015460405160ff891681526001600160a01b03909116917f51f35fa2867d710ef60e6209b0ca28b42abd534ed14e1f8394e793f42253c9f6910160405180910390a250505b80611e87816144ad565b9150506117ec565b5060005b60ff808516600090815260016020526040902060030154908216101561222157818160ff1681518110611ec857611ec8614378565b60200260200101511561220f5760ff808516600090815260016020526040812060038101805492936001600160a01b037f0000000000000000000000000000000000000000000000000000000000000000169363d6192ad3936002019286929091908816908110611f3b57611f3b614378565b60009182526020808320909101546001600160a01b03168352828101939093526040918201812060ff808c1683526001909452918120600381018054939460029092019390918916908110611f9257611f92614378565b60009182526020808320909101546001600160a01b03168352828101939093526040918201812060019081015460ff8d811684529190945291812060038101805462010000909504841694600292909201939091908a16908110611ff857611ff8614378565b60009182526020808320909101546001600160a01b0316835282019290925260409081019091206001015490516001600160e01b031960e086901b16815261205093929160ff6301000000909104169060040161469e565b6040805180830381865afa15801561206c573d6000803e3d6000fd5b505050506040513d601f19601f820116820180604052508101906120909190614311565b905080848360ff16815181106120a8576120a8614378565b6020026020010181905250600160008660ff1681526020019081526020016000206003018260ff16815481106120e0576120e0614378565b600091825260208083209091015460ff80891684526001909252604083206003810180546001600160a01b03909316947f78546d5ff977d70d771d8edba5bdd99150ec97e7837d6e2af4384b1605a4372d946002909301939092881690811061214b5761214b614378565b60009182526020808320909101546001600160a01b0316835282810193909352604091820181205460ff8b81168352600190945291812060038101805493851694600290920193909189169081106121a5576121a5614378565b6000918252602080832091909101546001600160a01b03168352828101939093526040918201902054865187840151835160ff96871681526101009093048616948301949094528416818301529183166060830152918916608082015290519081900360a00190a2505b80612219816144ad565b915050611e93565b5060005b60ff80851660009081526001602052604090206003015490821610156128695760005b60ff8086166000908152600160205260409020600301549082161015612856578060ff168260ff161461284457828260ff168151811061228a5761228a614378565b602002602001015180156122b75750828160ff16815181106122ae576122ae614378565b60200260200101515b8015612375575060ff808616600090815260016020526040812060038101805460029092019390919086169081106122f1576122f1614378565b60009182526020808320909101546001600160a01b0316835282810193909352604091820181205460ff89811683526001909452918120600381018054938516946002909201939091861690811061234b5761234b614378565b60009182526020808320909101546001600160a01b0316835282019290925260400190205460ff16145b801561243e575060ff808616600090815260016020526040812060038101805460029092019390919086169081106123af576123af614378565b60009182526020808320909101546001600160a01b0316835282810193909352604091820181205460ff898116835260019094529181206003810180546101009094048516946002909201939091861690811061240e5761240e614378565b60009182526020808320909101546001600160a01b0316835282019290925260400190205460ff61010090910416145b1561261b576000838360ff168151811061245a5761245a614378565b6020026020010190151590811515815250506000838260ff168151811061248357612483614378565b602002602001019015159081151581525050600160008660ff1681526020019081526020016000206003018260ff16815481106124c2576124c2614378565b6000918252602091829020015460405160ff881681526001600160a01b03909116917f783de3ac95b82563b70ac74b3a843e5f9f71a653b9518e6e1762b39151c0f710910160405180910390a2600160008660ff1681526020019081526020016000206003018160ff168154811061253c5761253c614378565b6000918252602091829020015460405160ff881681526001600160a01b03909116917f783de3ac95b82563b70ac74b3a843e5f9f71a653b9518e6e1762b39151c0f710910160405180910390a260ff808616600090815260016020526040902060030180546125d29285169081106125b6576125b6614378565b6000918252602090912001546001600160a01b03168387613b50565b60ff8086166000908152600160205260409020600301805461261b9284169081106125ff576125ff614378565b6000918252602090912001546001600160a01b03168287613b50565b828260ff168151811061263057612630614378565b602002602001015180156126c4575060ff8086166000908152600160205260408120600381018054600290920193909190861690811061267257612672614378565b60009182526020808320909101546001600160a01b03168352820192909252604001902054845160ff9182169186919084169081106126b3576126b3614378565b60200260200101516000015160ff16145b8015612755575060ff808616600090815260016020526040812060038101805460029092019390919086169081106126fe576126fe614378565b60009182526020808320909101546001600160a01b03168352820192909252604001902054845160ff610100909204821691869190841690811061274457612744614378565b60200260200101516020015160ff16145b1561284457600160008660ff1681526020019081526020016000206003018160ff168154811061278757612787614378565b600091825260208083209091015460ff80891684526001909252604090922060030180546001600160a01b0390931692909185169081106127ca576127ca614378565b6000918252602091829020015460405160ff891681526001600160a01b03909116917fb2ee3834f34c038f7f34d57f8ce213e4ee56fecd33556013e0f66b1e32ee14bc910160405180910390a360ff808616600090815260016020526040902060030180546128449285169081106125b6576125b6614378565b8061284e816144ad565b915050612248565b5080612861816144ad565b915050612225565b5060005b60ff80851660009081526001602052604090206003015490821610156129f85760006001600160a01b0316600160008660ff1681526020019081526020016000206003018260ff16815481106128c5576128c5614378565b6000918252602090912001546001600160a01b0316036129e65760ff84166000908152600160208190526040909120600301805490916129049161463a565b8154811061291457612914614378565b9060005260206000200160009054906101000a90046001600160a01b0316600160008660ff1681526020019081526020016000206003018260ff168154811061295f5761295f614378565b600091825260208083209190910180546001600160a01b0319166001600160a01b03949094169390931790925560ff861681526001909152604090206003018054806129ad576129ad61464d565b600082815260209020810160001990810180546001600160a01b031916905501905560ff8116156129e657806129e281614663565b9150505b806129f0816144ad565b91505061286d565b5060ff83166000908152600160205260408120600301549003612a765760405160ff841681526000907f8403b4a1c998f6768b577f2c265d744e2f4d05982059b4d82b34eb822bdc17d1906020015b60405180910390a260ff83166000908152600160205260409020600401805461ff001916610100179055612dc4565b60ff83166000908152600160208190526040909120600301549003612b055760ff831660009081526001602052604081206003018054909190612abb57612abb614378565b6000918252602091829020015460405160ff861681526001600160a01b03909116917f8403b4a1c998f6768b577f2c265d744e2f4d05982059b4d82b34eb822bdc17d19101612a47565b60ff831660009081526001602052604081206003018054909190612b2b57612b2b614378565b60009182526020808320919091015460405160ff871681526001600160a01b0390911692917f2cee3725d64bc62c413fa35348815210ff376bf4f13627d82b6ac0d0efc6e8cd910160405180910390a360005b60ff8085166000908152600160205260409020600301549082161015612d905760ff8085166000908152600160205260408120600381018054600694600290930193928616908110612bd257612bd2614378565b60009182526020808320909101546001600160a01b03168352820192909252604001902060019081018054909160ff1990911690836006811115612c1857612c18614098565b021790555060ff8085166000908152600160205260408120600381018054929360029092019284928616908110612c5157612c51614378565b6000918252602080832091909101546001600160a01b0316835282810193909352604091820181206001908101805461ff00191661010060ff9788160217905588851682529092528120600381018054600694600290930193928616908110612cbc57612cbc614378565b60009182526020808320909101546001600160a01b031683528201929092526040019020600101805462ff0000191662010000836006811115612d0157612d01614098565b021790555060ff8085166000908152600160205260408120600381018054929360029092019284928616908110612d3a57612d3a614378565b60009182526020808320909101546001600160a01b031683528201929092526040019020600101805460ff9290921663010000000263ff0000001990921691909117905580612d88816144ad565b915050612b7e565b5060ff83166000908152600160205260409020600401805463ff00000019169055612dba83613940565b50612dc4836104e1565b60405160ff841681527fd44344392ee117b90bc172ab74cce9c43a862f0d5e11a336b3885fde466c244e906020016110d8565b604080518082019091526000808252602082015260ff808316600090815260016020819052604090912060040154909116151514612e475760405162461bcd60e51b81526004016103df906141c0565b604051630d42527560e11b81526001600160a01b037f00000000000000000000000000000000000000000000000000000000000000001690631a84a4ea90612e97908890889088906004016142d5565b6040805180830381865afa158015612eb3573d6000803e3d6000fd5b505050506040513d601f19601f82011682018060405250810190612ed79190614311565b95945050505050565b612ee8613913565b600280546001600160a01b0319166001600160a01b0392909216919091179055565b6002546000906001600160a01b03163314612f775760405162461bcd60e51b815260206004820152602760248201527f43616c6c6572206973206e6f742074686520726567697374726174696f6e20636044820152661bdb9d1c9858dd60ca1b60648201526084016103df565b60ff808516600090815260016020526040902060040154610100900416158015612fbd575060ff8085166000908152600160208190526040909120600401549091161515145b612fd95760405162461bcd60e51b81526004016103df906141c0565b60ff80851660009081526001602090815260408083206001600160a01b038a1684526002019091529020541615801590613042575060ff80851660009081526001602090815260408083206001600160a01b038a16845260020190915290205461010090041615155b156130a95760ff84811660009081526001602090815260408083206001600160a01b038a168085526002909101909252918290205491516308538db760e41b81526004810191909152818316602482015261010090910490911660448201526064016103df565b604080518082019091526000808252602082015260005b6040516342c39d9160e01b815260ff871660048201527f00000000000000000000000000000000000000000000000000000000000000006001600160a01b0316906342c39d919060240160408051808303816000875af1158015613128573d6000803e3d6000fd5b505050506040513d601f19601f8201168201806040525081019061314c9190614311565b915060005b60ff80881660009081526001602052604090206003015490821610156132ed576131f56040518060400160405280601781526020017f696e206c6f6f702025732c20616464726573733a2025730000000000000000008152508260ff16600160008b60ff1681526020019081526020016000206003018460ff16815481106131db576131db614378565b6000918252602090912001546001600160a01b0316613ccc565b825160ff888116600090815260016020526040812060038101805494841694600290920193909190861690811061322e5761322e614378565b60009182526020808320909101546001600160a01b0316835282019290925260400190205460ff161480156132cd575060208084015160ff8981166000908152600190935260408320600381018054938316946002909201939192909190861690811061329d5761329d614378565b60009182526020808320909101546001600160a01b0316835282019290925260400190205460ff61010090910416145b156132db57600191506132ed565b806132e5816144ad565b915050613151565b50806130c057604080516101208101825283815260006020808301828152838501839052606084018390526080840183905260a084018390526001600160a01b038c1660c0850181905260ff8b811660e08701528a8116610100808801919091528d8216865260018086528887209387526002909301855296909420855180518254919095015194861661ffff1990911617939094169095029190911782555181840180549394859460ff1916908360068111156133ad576133ad614098565b0217905550604082015160018201805460ff9092166101000261ff001983168117825560608501519262ff00001990911662ffff001990911617620100008360068111156133fd576133fd614098565b021790555060808201516001918201805460a085015160c086015160e08701516101009097015160ff908116600160d01b0260ff60d01b19988216600160c81b0260ff60c81b196001600160a01b0394851665010000000000021665010000000000600160d01b03199515156401000000000264ff00000000199985166301000000029990991664ffff00000019909716969096179790971793909316939093179490941795909516949094179055918916600090815260208281526040808320600301805494850181558352918190209092018054938c166001600160a01b03199094168417905585519186015190517f5e5c5018f010da587f4ea3677380307dc0fb74d57d455db252799686dbfbd05992613546928c928c908c9060ff95861681529385166020850152918416604084015283166060830152909116608082015260a00190565b60405180910390a2506001979650505050505050565b613564613913565b6001600160a01b03811661358e57604051631e4fbdf760e01b8152600060048201526024016103df565b61359781613a61565b50565b60ff808216600090815260016020819052604090912060040154606092161515146135d75760405162461bcd60e51b81526004016103df906141c0565b60ff821660009081526001602052604081206003015467ffffffffffffffff81111561360557613605613d7e565b60405190808252806020026020018201604052801561368b57816020015b604080516101608101825260006101208201818152610140830182905282526020808301829052928201819052606082018190526080820181905260a0820181905260c0820181905260e0820181905261010082015282526000199092019101816136235790505b50905060005b60ff84166000908152600160205260409020600301548110156138335760ff8416600090815260016020526040812060038101805460029092019291849081106136dd576136dd614378565b60009182526020808320909101546001600160a01b03168352828101939093526040918201902081516101608101909252805460ff808216610120850190815261010090920481166101408501529083526001820154929391929184019116600681111561374d5761374d614098565b600681111561375e5761375e614098565b8152600182015460ff6101008204811660208401526040909201916201000090910416600681111561379257613792614098565b60068111156137a3576137a3614098565b81526001919091015460ff630100000082048116602084015264010000000082048116151560408401526001600160a01b03650100000000008304166060840152600160c81b820481166080840152600160d01b9091041660a090910152825183908390811061381557613815614378565b6020026020010181905250808061382b9061456e565b915050613691565b5092915050565b60ff8082166000908152600160208190526040909120600401549091161515146138765760405162461bcd60e51b81526004016103df906141c0565b6000805b60ff80841660009081526001602052604090206003015490821610156139025760ff808416600090815260016020526040902060030180546001600160a01b0387169284169081106138ce576138ce614378565b6000918252602090912001546001600160a01b0316036138f057809150613902565b806138fa816144ad565b91505061387a565b5061390e838284613b50565b505050565b6000546001600160a01b031633146112175760405163118cdaa760e01b81523360048201526024016103df565b60405163436fadf360e11b815260ff8216600482015260009081906001600160a01b037f000000000000000000000000000000000000000000000000000000000000000016906386df5be690602401602060405180830381865afa1580156139ac573d6000803e3d6000fd5b505050506040513d601f19601f820116820180604052508101906139d091906142b8565b60ff841660009081526001602052604081208054929350906139f18361456e565b909155505060ff838116600081815260016020908152604091829020548251938452908301529183168183015290517f44d8fc4a70679f71d5b762b5218cbfb0c858bb7e015b1effe03793d2909c20f69181900360600190a1505060ff1660009081526001602052604090205490565b600080546001600160a01b038381166001600160a01b0319831681178455604051919092169283917f8be0079c531659141344cd1fd0a4f28419497f9722a3daafe3b4186f6b6457e09190a35050565b6000807f00000000000000000000000000000000000000000000000000000000000000006001600160a01b0316634d02388685856040518363ffffffff1660e01b8152600401613b029291906143a7565b608060405180830381865afa158015613b1f573d6000803e3d6000fd5b505050506040513d601f19601f82011682018060405250810190613b439190614552565b6060015115949350505050565b60ff80821660009081526001602052604090206003015490831610613bb75760405162461bcd60e51b815260206004820152601860248201527f496e6465782076616c7565206f7574206f662072616e6765000000000000000060448201526064016103df565b60ff808216600090815260016020819052604090912060040154909116151514613bf35760405162461bcd60e51b81526004016103df906141c0565b60405160ff821681526001600160a01b038416907fabe2a4edb03972506a4064b683e5482b1f09f2fb96bd4463b7b15b38cbd5b1869060200160405180910390a260ff80821660008181526001602081815260408084206001600160a01b038a168552600281018352908420805461ffff19168155830180546001600160d81b0319169055938352526003909101805491929091908516908110613c9957613c99614378565b9060005260206000200160006101000a8154816001600160a01b0302191690836001600160a01b03160217905550505050565b61390e838383604051602401613ce4939291906146bc565b60408051601f198184030181529190526020810180516001600160e01b031663038fd88960e31b1790526135978160006a636f6e736f6c652e6c6f679050600080835160208501845afa505050565b508054600082559060005260206000209081019061359791905b80821115613d615760008155600101613d4d565b5090565b600060208284031215613d7757600080fd5b5035919050565b634e487b7160e01b600052604160045260246000fd5b6040805190810167ffffffffffffffff81118282101715613db757613db7613d7e565b60405290565b604051601f8201601f1916810167ffffffffffffffff81118282101715613de657613de6613d7e565b604052919050565b60ff8116811461359757600080fd5b600060408284031215613e0f57600080fd5b613e17613d94565b90508135613e2481613dee565b81526020820135613e3481613dee565b602082015292915050565b803560078110613e4e57600080fd5b919050565b60008060008060a08587031215613e6957600080fd5b613e738686613dfd565b9350613e8160408601613e3f565b92506060850135613e9181613dee565b91506080850135613ea181613dee565b939692955090935050565b600060208284031215613ebe57600080fd5b8135610e1c81613dee565b600080600080600060a08688031215613ee157600080fd5b613eea86613e3f565b94506020860135613efa81613dee565b9350613f0860408701613e3f565b92506060860135613f1881613dee565b91506080860135613f2881613dee565b809150509295509295909350565b602080825282518282018190526000919060409081850190868401855b82811015613f8657613f76848351805160ff908116835260209182015116910152565b9284019290850190600101613f53565b5091979650505050505050565b60008060608385031215613fa657600080fd5b613fb08484613dfd565b91506040830135613fc081613dee565b809150509250929050565b60008060408385031215613fde57600080fd5b8235613fe981613dee565b91506020830135613fc081613dee565b604081016106528284805160ff908116835260209182015116910152565b80356001600160a01b0381168114613e4e57600080fd5b60006020828403121561404057600080fd5b610e1c82614017565b6000806000806080858703121561405f57600080fd5b61406885614017565b9350602085013561407881613dee565b9250604085013561408881613dee565b91506060850135613ea181613dee565b634e487b7160e01b600052602160045260246000fd5b600781106140cc57634e487b7160e01b600052602160045260246000fd5b9052565b602080825282518282018190526000919060409081850190868401855b82811015613f86578151614112858251805160ff908116835260209182015116910152565b86810151614122878701826140ae565b508086015160ff166060868101919091528101516080614144818801836140ae565b820151905060a06141598782018360ff169052565b820151905060c061416d8782018315159052565b820151905060e0614188878201836001600160a01b03169052565b820151905061010061419e8782018360ff169052565b919091015160ff166101208601525061014090930192908501906001016140ed565b60208082526019908201527f47616d6520686173206e6f742073746172746564207965742100000000000000604082015260600190565b60a081016142158287805160ff908116835260209182015116910152565b61422260408301866140ae565b60ff8416606083015260ff8316608083015295945050505050565b80518015158114613e4e57600080fd5b60006040828403121561425f57600080fd5b614267613d94565b9050815161427481613dee565b81526020820151613e3481613dee565b6000806060838503121561429757600080fd5b6142a08361423d565b91506142af846020850161424d565b90509250929050565b6000602082840312156142ca57600080fd5b8151610e1c81613dee565b608081016142f38286805160ff908116835260209182015116910152565b61430060408301856140ae565b60ff83166060830152949350505050565b60006040828403121561432357600080fd5b610e1c838361424d565b634e487b7160e01b600052601160045260246000fd5b60ff81811683821601908111156106525761065261432d565b60ff81811683821602908116908181146138335761383361432d565b634e487b7160e01b600052603260045260246000fd5b60ff82811682821603908111156106525761065261432d565b606081016143c58285805160ff908116835260209182015116910152565b60ff831660408301529392505050565b600067ffffffffffffffff8211156143ef576143ef613d7e565b5060051b60200190565b6000602080838503121561440c57600080fd5b825167ffffffffffffffff81111561442357600080fd5b8301601f8101851361443457600080fd5b8051614447614442826143d5565b613dbd565b81815260069190911b8201830190838101908783111561446657600080fd5b928401925b8284101561448f5761447d888561424d565b8252848201915060408401935061446b565b979650505050505050565b808201808211156106525761065261432d565b600060ff821660ff81036144c3576144c361432d565b60010192915050565b6000608082840312156144de57600080fd5b6040516080810181811067ffffffffffffffff8211171561450157614501613d7e565b8060405250809150825161451481613dee565b8152602083015161452481613dee565b60208201526145356040840161423d565b60408201526145466060840161423d565b60608201525092915050565b60006080828403121561456457600080fd5b610e1c83836144cc565b6000600182016145805761458061432d565b5060010190565b6000602080838503121561459a57600080fd5b825167ffffffffffffffff8111156145b157600080fd5b8301601f810185136145c257600080fd5b80516145d0614442826143d5565b81815260079190911b820183019083810190878311156145ef57600080fd5b928401925b8284101561448f5761460688856144cc565b825284820191506080840193506145f4565b60008261463557634e487b7160e01b600052601260045260246000fd5b500690565b818103818111156106525761065261432d565b634e487b7160e01b600052603160045260246000fd5b600060ff8216806146765761467661432d565b6000190192915050565b845460ff808216835260089190911c16602082015260a08101614215565b835460ff808216835260089190911c166020820152608081016142f3565b606081526000845180606084015260005b818110156146ea57602081880181015160808684010152016146cd565b506000608082850181019190915260208401959095526001600160a01b0393909316604083015250601f909101601f1916010191905056fea2646970667358221220c91cf3cafb96ac2dca68e2b0fd5e48897a3a2aadac9219b19428d6994baa06c164736f6c63430008140033",
    "linkReferences": {},
    "deployedLinkReferences": {}
}