{
  "_format": "hh-sol-artifact-1",
  "contractName": "RegistrationPunk",
  "sourceName": "contracts/RegistrationPunk.sol",
  "abi": [
    {
      "inputs": [
        {
          "internalType": "address",
          "name": "_gamePunkAddress",
          "type": "address"
        }
      ],
      "stateMutability": "nonpayable",
      "type": "constructor"
    },
    {
      "inputs": [
        {
          "internalType": "address",
          "name": "owner",
          "type": "address"
        }
      ],
      "name": "OwnableInvalidOwner",
      "type": "error"
    },
    {
      "inputs": [
        {
          "internalType": "address",
          "name": "account",
          "type": "address"
        }
      ],
      "name": "OwnableUnauthorizedAccount",
      "type": "error"
    },
    {
      "anonymous": false,
      "inputs": [
        {
          "indexed": true,
          "internalType": "address",
          "name": "previousOwner",
          "type": "address"
        },
        {
          "indexed": true,
          "internalType": "address",
          "name": "newOwner",
          "type": "address"
        }
      ],
      "name": "OwnershipTransferred",
      "type": "event"
    },
    {
      "anonymous": false,
      "inputs": [
        {
          "indexed": true,
          "internalType": "address",
          "name": "player",
          "type": "address"
        },
        {
          "indexed": false,
          "internalType": "uint8",
          "name": "gameId",
          "type": "uint8"
        }
      ],
      "name": "PlayerAdded",
      "type": "event"
    },
    {
      "anonymous": false,
      "inputs": [
        {
          "indexed": false,
          "internalType": "bool",
          "name": "registrationClosed",
          "type": "bool"
        }
      ],
      "name": "RegistrationClosed",
      "type": "event"
    },
    {
      "inputs": [],
      "name": "closeRegistration",
      "outputs": [],
      "stateMutability": "nonpayable",
      "type": "function"
    },
    {
      "inputs": [],
      "name": "gamePunk",
      "outputs": [
        {
          "internalType": "contract IGamePunk",
          "name": "",
          "type": "address"
        }
      ],
      "stateMutability": "view",
      "type": "function"
    },
    {
      "inputs": [],
      "name": "owner",
      "outputs": [
        {
          "internalType": "address",
          "name": "",
          "type": "address"
        }
      ],
      "stateMutability": "view",
      "type": "function"
    },
    {
      "inputs": [
        {
          "internalType": "uint8",
          "name": "gameId",
          "type": "uint8"
        },
        {
          "internalType": "uint8",
          "name": "_speed",
          "type": "uint8"
        },
        {
          "internalType": "uint8",
          "name": "_range",
          "type": "uint8"
        }
      ],
      "name": "registerPlayer",
      "outputs": [],
      "stateMutability": "nonpayable",
      "type": "function"
    },
    {
      "inputs": [
        {
          "internalType": "address",
          "name": "",
          "type": "address"
        },
        {
          "internalType": "uint8",
          "name": "",
          "type": "uint8"
        }
      ],
      "name": "registeredAddresses",
      "outputs": [
        {
          "internalType": "bool",
          "name": "",
          "type": "bool"
        }
      ],
      "stateMutability": "view",
      "type": "function"
    },
    {
      "inputs": [],
      "name": "registrationClosed",
      "outputs": [
        {
          "internalType": "bool",
          "name": "",
          "type": "bool"
        }
      ],
      "stateMutability": "view",
      "type": "function"
    },
    {
      "inputs": [],
      "name": "renounceOwnership",
      "outputs": [],
      "stateMutability": "nonpayable",
      "type": "function"
    },
    {
      "inputs": [
        {
          "internalType": "address",
          "name": "newOwner",
          "type": "address"
        }
      ],
      "name": "transferOwnership",
      "outputs": [],
      "stateMutability": "nonpayable",
      "type": "function"
    }
  ],
  "bytecode": "0x60806040526003805460ff1916905534801561001a57600080fd5b50604051610664380380610664833981016040819052610039916100de565b338061005f57604051631e4fbdf760e01b81526000600482015260240160405180910390fd5b6100688161008e565b50600180546001600160a01b0319166001600160a01b039290921691909117905561010e565b600080546001600160a01b038381166001600160a01b0319831681178455604051919092169283917f8be0079c531659141344cd1fd0a4f28419497f9722a3daafe3b4186f6b6457e09190a35050565b6000602082840312156100f057600080fd5b81516001600160a01b038116811461010757600080fd5b9392505050565b6105478061011d6000396000f3fe608060405234801561001057600080fd5b50600436106100885760003560e01c80639fe8a11b1161005b5780639fe8a11b146100e6578063a9c06f25146100f9578063e2e4309e1461010c578063f2fde38b1461013a57600080fd5b8063715018a61461008d5780637dc673bc146100975780638da5cb5b1461009f5780639f9a093c146100c9575b600080fd5b61009561014d565b005b610095610161565b6000546001600160a01b03165b6040516001600160a01b0390911681526020015b60405180910390f35b6003546100d69060ff1681565b60405190151581526020016100c0565b6100956100f4366004610440565b6101ae565b6001546100ac906001600160a01b031681565b6100d661011a36600461049a565b600260209081526000928352604080842090915290825290205460ff1681565b6100956101483660046104cd565b61036f565b6101556103ad565b61015f60006103da565b565b6101696103ad565b6003805460ff191660019081179091556040519081527f7e2a3a891ca712a697b6e8d307aab771ab9ae5f0b102136955bfc5a76ff8379b9060200160405180910390a1565b60035460ff16156102065760405162461bcd60e51b815260206004820181905260248201527f526567697374726174696f6e20636c6f73656420666f72207468652067616d6560448201526064015b60405180910390fd5b33600090815260026020908152604080832060ff808816855292529091205416156102835760405162461bcd60e51b815260206004820152602760248201527f506c6179657220616c7265616479207265676973746572656420666f7220746860448201526669732067616d6560c81b60648201526084016101fd565b60015460405163f10a392760e01b815233600482015260ff80861660248301528085166044830152831660648201526001600160a01b039091169063f10a3927906084016020604051808303816000875af11580156102e6573d6000803e3d6000fd5b505050506040513d601f19601f8201168201806040525081019061030a91906104ef565b5060405160ff8416815233907f3138d9d3c5b626eff736a8d5bf07552d9f568087655c46803ee715f424ec1b8e9060200160405180910390a2505033600090815260026020908152604080832060ff909416835292905220805460ff19166001179055565b6103776103ad565b6001600160a01b0381166103a157604051631e4fbdf760e01b8152600060048201526024016101fd565b6103aa816103da565b50565b6000546001600160a01b0316331461015f5760405163118cdaa760e01b81523360048201526024016101fd565b600080546001600160a01b038381166001600160a01b0319831681178455604051919092169283917f8be0079c531659141344cd1fd0a4f28419497f9722a3daafe3b4186f6b6457e09190a35050565b803560ff8116811461043b57600080fd5b919050565b60008060006060848603121561045557600080fd5b61045e8461042a565b925061046c6020850161042a565b915061047a6040850161042a565b90509250925092565b80356001600160a01b038116811461043b57600080fd5b600080604083850312156104ad57600080fd5b6104b683610483565b91506104c46020840161042a565b90509250929050565b6000602082840312156104df57600080fd5b6104e882610483565b9392505050565b60006020828403121561050157600080fd5b815180151581146104e857600080fdfea2646970667358221220ebb6386f34458862dc96c85b5fd634e4cdd31c543913846cf0d8b2db62fc9e7564736f6c63430008140033",
  "linkReferences": {},
  "deployedLinkReferences": {}
}