{
  "_format": "hh-sol-artifact-1",
  "contractName": "RegistrationPunk",
  "sourceName": "contracts/RegistrationPunk.sol",
  "abi": [
    {
      "inputs": [
        {
          "internalType": "address",
          "name": "_gamePunkAddress",
          "type": "address"
        }
      ],
      "stateMutability": "nonpayable",
      "type": "constructor"
    },
    {
      "inputs": [
        {
          "internalType": "address",
          "name": "owner",
          "type": "address"
        }
      ],
      "name": "OwnableInvalidOwner",
      "type": "error"
    },
    {
      "inputs": [
        {
          "internalType": "address",
          "name": "account",
          "type": "address"
        }
      ],
      "name": "OwnableUnauthorizedAccount",
      "type": "error"
    },
    {
      "anonymous": false,
      "inputs": [
        {
          "indexed": true,
          "internalType": "address",
          "name": "previousOwner",
          "type": "address"
        },
        {
          "indexed": true,
          "internalType": "address",
          "name": "newOwner",
          "type": "address"
        }
      ],
      "name": "OwnershipTransferred",
      "type": "event"
    },
    {
      "inputs": [],
      "name": "closeRegistration",
      "outputs": [],
      "stateMutability": "nonpayable",
      "type": "function"
    },
    {
      "inputs": [],
      "name": "gamePunk",
      "outputs": [
        {
          "internalType": "contract IGamePunk",
          "name": "",
          "type": "address"
        }
      ],
      "stateMutability": "view",
      "type": "function"
    },
    {
      "inputs": [],
      "name": "owner",
      "outputs": [
        {
          "internalType": "address",
          "name": "",
          "type": "address"
        }
      ],
      "stateMutability": "view",
      "type": "function"
    },
    {
      "inputs": [
        {
          "internalType": "uint8",
          "name": "_speed",
          "type": "uint8"
        },
        {
          "internalType": "uint8",
          "name": "_range",
          "type": "uint8"
        }
      ],
      "name": "registerPlayer",
      "outputs": [],
      "stateMutability": "nonpayable",
      "type": "function"
    },
    {
      "inputs": [
        {
          "internalType": "address",
          "name": "",
          "type": "address"
        }
      ],
      "name": "registeredPlayers",
      "outputs": [
        {
          "internalType": "bool",
          "name": "registered",
          "type": "bool"
        },
        {
          "internalType": "uint8",
          "name": "speed",
          "type": "uint8"
        },
        {
          "internalType": "uint8",
          "name": "range",
          "type": "uint8"
        }
      ],
      "stateMutability": "view",
      "type": "function"
    },
    {
      "inputs": [],
      "name": "registrationClosed",
      "outputs": [
        {
          "internalType": "bool",
          "name": "",
          "type": "bool"
        }
      ],
      "stateMutability": "view",
      "type": "function"
    },
    {
      "inputs": [],
      "name": "renounceOwnership",
      "outputs": [],
      "stateMutability": "nonpayable",
      "type": "function"
    },
    {
      "inputs": [
        {
          "internalType": "address",
          "name": "newOwner",
          "type": "address"
        }
      ],
      "name": "transferOwnership",
      "outputs": [],
      "stateMutability": "nonpayable",
      "type": "function"
    }
  ],
  "bytecode": "0x60806040526004805460ff1916905534801561001a57600080fd5b50604051610bd8380380610bd8833981016040819052610039916100de565b338061005f57604051631e4fbdf760e01b81526000600482015260240160405180910390fd5b6100688161008e565b50600180546001600160a01b0319166001600160a01b039290921691909117905561010e565b600080546001600160a01b038381166001600160a01b0319831681178455604051919092169283917f8be0079c531659141344cd1fd0a4f28419497f9722a3daafe3b4186f6b6457e09190a35050565b6000602082840312156100f057600080fd5b81516001600160a01b038116811461010757600080fd5b9392505050565b610abb8061011d6000396000f3fe608060405234801561001057600080fd5b50600436106100885760003560e01c80639f9a093c1161005b5780639f9a093c14610120578063a353d9f01461013d578063a9c06f2514610150578063f2fde38b1461016357600080fd5b80634bafce221461008d578063715018a6146100e95780637dc673bc146100f35780638da5cb5b146100fb575b600080fd5b6100c361009b3660046108d2565b60026020526000908152604090205460ff808216916101008104821691620100009091041683565b60408051931515845260ff92831660208501529116908201526060015b60405180910390f35b6100f1610176565b005b6100f161018a565b6000546001600160a01b03165b6040516001600160a01b0390911681526020016100e0565b60045461012d9060ff1681565b60405190151581526020016100e0565b6100f161014b366004610918565b6106b8565b600154610108906001600160a01b031681565b6100f16101713660046108d2565b610817565b61017e610855565b6101886000610882565b565b610192610855565b6004805460ff191660019081179091556040805160088082526101208201909252909190600090819084602082016101008036833701905050905060008460ff1667ffffffffffffffff8111156101eb576101eb61094b565b604051908082528060200260200182016040528015610214578160200160208202803683370190505b50905060008560ff1667ffffffffffffffff8111156102355761023561094b565b60405190808252806020026020018201604052801561025e578160200160208202803683370190505b50905060005b600354811015610460578460ff166000036102e15760015460405163d1153bc360e01b815260ff88166004820152600660248201526001600160a01b039091169063d1153bc390604401600060405180830381600087803b1580156102c857600080fd5b505af11580156102dc573d6000803e3d6000fd5b505050505b6000600382815481106102f6576102f6610961565b60009182526020808320909101546001600160a01b0316808352600290915260409091208651919250908290879060ff8a1690811061033757610337610961565b6001600160a01b03909216602092830291909101909101528054855160ff6101009092048216918791908a1690811061037257610372610961565b60ff928316602091820292909201015281548551620100009091048216918691908a169081106103a4576103a4610961565b60ff90921660209283029190910190910152866103c08161098d565b9750508860ff168760ff160361044b5760015460405163ece8165760e01b81526001600160a01b039091169063ece8165790610406908b908a908a908a906004016109ea565b600060405180830381600087803b15801561042057600080fd5b505af1158015610434573d6000803e3d6000fd5b5050505087806104439061098d565b985050600096505b5050808061045890610a6c565b915050610264565b5060ff8416156106b05760008460ff1667ffffffffffffffff8111156104885761048861094b565b6040519080825280602002602001820160405280156104b1578160200160208202803683370190505b50905060008560ff1667ffffffffffffffff8111156104d2576104d261094b565b6040519080825280602002602001820160405280156104fb578160200160208202803683370190505b50905060008660ff1667ffffffffffffffff81111561051c5761051c61094b565b604051908082528060200260200182016040528015610545578160200160208202803683370190505b50905060005b8760ff168160ff16101561064357868160ff168151811061056e5761056e610961565b6020026020010151848260ff168151811061058b5761058b610961565b60200260200101906001600160a01b031690816001600160a01b031681525050858160ff16815181106105c0576105c0610961565b6020026020010151838260ff16815181106105dd576105dd610961565b60ff928316602091820292909201015285518691831690811061060257610602610961565b6020026020010151828260ff168151811061061f5761061f610961565b60ff909216602092830291909101909101528061063b8161098d565b91505061054b565b5060015460405163ece8165760e01b81526001600160a01b039091169063ece816579061067a908b908790879087906004016109ea565b600060405180830381600087803b15801561069457600080fd5b505af11580156106a8573d6000803e3d6000fd5b505050505050505b505050505050565b60045460ff16156107095760405162461bcd60e51b8152602060048201526016602482015275149959da5cdd1c985d1a5bdb881a5cc818db1bdcd95960521b60448201526064015b60405180910390fd5b3360009081526002602052604090205460ff16156107695760405162461bcd60e51b815260206004820152601960248201527f506c6179657220616c72656164792072656769737465726564000000000000006044820152606401610700565b60408051606081018252600180825260ff94851660208084019182529486168385019081523360008181526002909752948620935184549251915161ffff1990931690151561ff00191617610100918816919091021762ff000019166201000091909616029490941790556003805493840181559091527fc2575a0e9e593c00f959f8c92f12db2869c3395a3b0502d05e2516446f71f85b90910180546001600160a01b0319169091179055565b61081f610855565b6001600160a01b03811661084957604051631e4fbdf760e01b815260006004820152602401610700565b61085281610882565b50565b6000546001600160a01b031633146101885760405163118cdaa760e01b8152336004820152602401610700565b600080546001600160a01b038381166001600160a01b0319831681178455604051919092169283917f8be0079c531659141344cd1fd0a4f28419497f9722a3daafe3b4186f6b6457e09190a35050565b6000602082840312156108e457600080fd5b81356001600160a01b03811681146108fb57600080fd5b9392505050565b803560ff8116811461091357600080fd5b919050565b6000806040838503121561092b57600080fd5b61093483610902565b915061094260208401610902565b90509250929050565b634e487b7160e01b600052604160045260246000fd5b634e487b7160e01b600052603260045260246000fd5b634e487b7160e01b600052601160045260246000fd5b600060ff821660ff81036109a3576109a3610977565b60010192915050565b600081518084526020808501945080840160005b838110156109df57815160ff16875295820195908201906001016109c0565b509495945050505050565b60006080820160ff87168352602060808185015281875180845260a086019150828901935060005b81811015610a375784516001600160a01b031683529383019391830191600101610a12565b50508481036040860152610a4b81886109ac565b925050508281036060840152610a6181856109ac565b979650505050505050565b600060018201610a7e57610a7e610977565b506001019056fea2646970667358221220ad9723b7cb308fe127cdbb19ebd021b961963f0599ce6eb4827e75c97ae57ae364736f6c63430008140033",
  "linkReferences": {},
  "deployedLinkReferences": {}
}