{
  "_format": "hh-sol-artifact-1",
  "contractName": "RegistrationPunk",
  "sourceName": "contracts/RegistrationPunk.sol",
  "abi": [
    {
      "inputs": [
        {
          "internalType": "address",
          "name": "_gamePunkAddress",
          "type": "address"
        }
      ],
      "stateMutability": "nonpayable",
      "type": "constructor"
    },
    {
      "inputs": [
        {
          "internalType": "address",
          "name": "owner",
          "type": "address"
        }
      ],
      "name": "OwnableInvalidOwner",
      "type": "error"
    },
    {
      "inputs": [
        {
          "internalType": "address",
          "name": "account",
          "type": "address"
        }
      ],
      "name": "OwnableUnauthorizedAccount",
      "type": "error"
    },
    {
      "anonymous": false,
      "inputs": [
        {
          "indexed": true,
          "internalType": "address",
          "name": "previousOwner",
          "type": "address"
        },
        {
          "indexed": true,
          "internalType": "address",
          "name": "newOwner",
          "type": "address"
        }
      ],
      "name": "OwnershipTransferred",
      "type": "event"
    },
    {
      "inputs": [],
      "name": "closeRegistration",
      "outputs": [],
      "stateMutability": "nonpayable",
      "type": "function"
    },
    {
      "inputs": [],
      "name": "gamePunk",
      "outputs": [
        {
          "internalType": "contract IGamePunk",
          "name": "",
          "type": "address"
        }
      ],
      "stateMutability": "view",
      "type": "function"
    },
    {
      "inputs": [],
      "name": "lastGameId",
      "outputs": [
        {
          "internalType": "uint8",
          "name": "",
          "type": "uint8"
        }
      ],
      "stateMutability": "view",
      "type": "function"
    },
    {
      "inputs": [],
      "name": "owner",
      "outputs": [
        {
          "internalType": "address",
          "name": "",
          "type": "address"
        }
      ],
      "stateMutability": "view",
      "type": "function"
    },
    {
      "inputs": [
        {
          "internalType": "uint8",
          "name": "_speed",
          "type": "uint8"
        },
        {
          "internalType": "uint8",
          "name": "_range",
          "type": "uint8"
        }
      ],
      "name": "registerPlayer",
      "outputs": [],
      "stateMutability": "nonpayable",
      "type": "function"
    },
    {
      "inputs": [
        {
          "internalType": "address",
          "name": "",
          "type": "address"
        }
      ],
      "name": "registeredPlayers",
      "outputs": [
        {
          "internalType": "bool",
          "name": "registered",
          "type": "bool"
        },
        {
          "internalType": "uint8",
          "name": "speed",
          "type": "uint8"
        },
        {
          "internalType": "uint8",
          "name": "range",
          "type": "uint8"
        }
      ],
      "stateMutability": "view",
      "type": "function"
    },
    {
      "inputs": [],
      "name": "registrationClosed",
      "outputs": [
        {
          "internalType": "bool",
          "name": "",
          "type": "bool"
        }
      ],
      "stateMutability": "view",
      "type": "function"
    },
    {
      "inputs": [],
      "name": "registrationPhase",
      "outputs": [
        {
          "internalType": "uint8",
          "name": "",
          "type": "uint8"
        }
      ],
      "stateMutability": "view",
      "type": "function"
    },
    {
      "inputs": [],
      "name": "renounceOwnership",
      "outputs": [],
      "stateMutability": "nonpayable",
      "type": "function"
    },
    {
      "inputs": [],
      "name": "startRegistration",
      "outputs": [],
      "stateMutability": "nonpayable",
      "type": "function"
    },
    {
      "inputs": [
        {
          "internalType": "address",
          "name": "newOwner",
          "type": "address"
        }
      ],
      "name": "transferOwnership",
      "outputs": [],
      "stateMutability": "nonpayable",
      "type": "function"
    }
  ],
  "bytecode": "0x60806040526004805462ffffff1916600117905534801561001f57600080fd5b50604051610d7d380380610d7d83398101604081905261003e916100e3565b338061006457604051631e4fbdf760e01b81526000600482015260240160405180910390fd5b61006d81610093565b50600180546001600160a01b0319166001600160a01b0392909216919091179055610113565b600080546001600160a01b038381166001600160a01b0319831681178455604051919092169283917f8be0079c531659141344cd1fd0a4f28419497f9722a3daafe3b4186f6b6457e09190a35050565b6000602082840312156100f557600080fd5b81516001600160a01b038116811461010c57600080fd5b9392505050565b610c5b806101226000396000f3fe608060405234801561001057600080fd5b50600436106100a95760003560e01c80638da5cb5b116100715780638da5cb5b146101485780639f9a093c1461016d578063a353d9f01461018a578063a9c06f251461019d578063ac11482d146101b0578063f2fde38b146101c357600080fd5b806310b86695146100ae5780633ee9d648146100b85780634bafce22146100e1578063715018a6146101385780637dc673bc14610140575b600080fd5b6100b66101d6565b005b6004546100ca90610100900460ff1681565b60405160ff90911681526020015b60405180910390f35b6101176100ef366004610a53565b60026020526000908152604090205460ff808216916101008104821691620100009091041683565b60408051931515845260ff92831660208501529116908201526060016100d8565b6100b661028d565b6100b661029f565b6000546001600160a01b03165b6040516001600160a01b0390911681526020016100d8565b60045461017a9060ff1681565b60405190151581526020016100d8565b6100b6610198366004610a99565b610807565b600154610155906001600160a01b031681565b6004546100ca9062010000900460ff1681565b6100b66101d1366004610a53565b610966565b6101de6109a4565b6004805460ff1916808255600191908290610202908290610100900460ff16610ae2565b92506101000a81548160ff021916908360ff16021790555060005b60035481101561027e57600260006003838154811061023e5761023e610b01565b60009182526020808320909101546001600160a01b031683528201929092526040019020805462ffffff191690558061027681610b17565b91505061021d565b5061028b60036000610a21565b565b6102956109a4565b61028b60006109d1565b6102a76109a4565b6004805460ff191660011790556040805160088082526101208201909252600090819083602082016101008036833701905050905060008360ff1667ffffffffffffffff8111156102fa576102fa610b30565b604051908082528060200260200182016040528015610323578160200160208202803683370190505b50905060008460ff1667ffffffffffffffff81111561034457610344610b30565b60405190808252806020026020018201604052801561036d578160200160208202803683370190505b50905060005b6003548110156105a7578460ff166000036103fb576001546004805460405163d1153bc360e01b815261010090910460ff1691810191909152600660248201526001600160a01b039091169063d1153bc390604401600060405180830381600087803b1580156103e257600080fd5b505af11580156103f6573d6000803e3d6000fd5b505050505b60006003828154811061041057610410610b01565b60009182526020808320909101546001600160a01b0316808352600290915260409091208651919250908290879060ff8a1690811061045157610451610b01565b6001600160a01b03909216602092830291909101909101528054855160ff6101009092048216918791908a1690811061048c5761048c610b01565b60ff928316602091820292909201015281548551620100009091048216918691908a169081106104be576104be610b01565b60ff90921660209283029190910190910152866104da81610b46565b9750508760ff168760ff1603610592576001546004805460405163ece8165760e01b81526001600160a01b039093169263ece816579261052992610100900460ff16918b918b918b9101610ba3565b600060405180830381600087803b15801561054357600080fd5b505af1158015610557573d6000803e3d6000fd5b505060048054610100900460ff1692509050600161057483610b46565b91906101000a81548160ff021916908360ff16021790555050600096505b5050808061059f90610b17565b915050610373565b5060ff8416156108005760008460ff1667ffffffffffffffff8111156105cf576105cf610b30565b6040519080825280602002602001820160405280156105f8578160200160208202803683370190505b50905060008560ff1667ffffffffffffffff81111561061957610619610b30565b604051908082528060200260200182016040528015610642578160200160208202803683370190505b50905060008660ff1667ffffffffffffffff81111561066357610663610b30565b60405190808252806020026020018201604052801561068c578160200160208202803683370190505b50905060005b8760ff168160ff16101561078a57868160ff16815181106106b5576106b5610b01565b6020026020010151848260ff16815181106106d2576106d2610b01565b60200260200101906001600160a01b031690816001600160a01b031681525050858160ff168151811061070757610707610b01565b6020026020010151838260ff168151811061072457610724610b01565b60ff928316602091820292909201015285518691831690811061074957610749610b01565b6020026020010151828260ff168151811061076657610766610b01565b60ff909216602092830291909101909101528061078281610b46565b915050610692565b506001546004805460405163ece8165760e01b81526001600160a01b039093169263ece81657926107ca92610100900460ff169188918891889101610ba3565b600060405180830381600087803b1580156107e457600080fd5b505af11580156107f8573d6000803e3d6000fd5b505050505050505b5050505050565b60045460ff16156108585760405162461bcd60e51b8152602060048201526016602482015275149959da5cdd1c985d1a5bdb881a5cc818db1bdcd95960521b60448201526064015b60405180910390fd5b3360009081526002602052604090205460ff16156108b85760405162461bcd60e51b815260206004820152601960248201527f506c6179657220616c7265616479207265676973746572656400000000000000604482015260640161084f565b60408051606081018252600180825260ff94851660208084019182529486168385019081523360008181526002909752948620935184549251915161ffff1990931690151561ff00191617610100918816919091021762ff000019166201000091909616029490941790556003805493840181559091527fc2575a0e9e593c00f959f8c92f12db2869c3395a3b0502d05e2516446f71f85b90910180546001600160a01b0319169091179055565b61096e6109a4565b6001600160a01b03811661099857604051631e4fbdf760e01b81526000600482015260240161084f565b6109a1816109d1565b50565b6000546001600160a01b0316331461028b5760405163118cdaa760e01b815233600482015260240161084f565b600080546001600160a01b038381166001600160a01b0319831681178455604051919092169283917f8be0079c531659141344cd1fd0a4f28419497f9722a3daafe3b4186f6b6457e09190a35050565b50805460008255906000526020600020908101906109a191905b80821115610a4f5760008155600101610a3b565b5090565b600060208284031215610a6557600080fd5b81356001600160a01b0381168114610a7c57600080fd5b9392505050565b803560ff81168114610a9457600080fd5b919050565b60008060408385031215610aac57600080fd5b610ab583610a83565b9150610ac360208401610a83565b90509250929050565b634e487b7160e01b600052601160045260246000fd5b60ff8181168382160190811115610afb57610afb610acc565b92915050565b634e487b7160e01b600052603260045260246000fd5b600060018201610b2957610b29610acc565b5060010190565b634e487b7160e01b600052604160045260246000fd5b600060ff821660ff8103610b5c57610b5c610acc565b60010192915050565b600081518084526020808501945080840160005b83811015610b9857815160ff1687529582019590820190600101610b79565b509495945050505050565b60006080820160ff87168352602060808185015281875180845260a086019150828901935060005b81811015610bf05784516001600160a01b031683529383019391830191600101610bcb565b50508481036040860152610c048188610b65565b925050508281036060840152610c1a8185610b65565b97965050505050505056fea26469706673582212205fa5c4a2a3a1783b782df4f803bfc7184998ccade103778ad6e088f24159bdd464736f6c63430008140033",
  "linkReferences": {},
  "deployedLinkReferences": {}
}