{
  "_format": "hh-sol-artifact-1",
  "contractName": "RegistrationPunk",
  "sourceName": "contracts/RegistrationPunk.sol",
  "abi": [
    {
      "inputs": [
        {
          "internalType": "address",
          "name": "_gamePunkAddress",
          "type": "address"
        }
      ],
      "stateMutability": "nonpayable",
      "type": "constructor"
    },
    {
      "inputs": [
        {
          "internalType": "address",
          "name": "owner",
          "type": "address"
        }
      ],
      "name": "OwnableInvalidOwner",
      "type": "error"
    },
    {
      "inputs": [
        {
          "internalType": "address",
          "name": "account",
          "type": "address"
        }
      ],
      "name": "OwnableUnauthorizedAccount",
      "type": "error"
    },
    {
      "anonymous": false,
      "inputs": [
        {
          "indexed": true,
          "internalType": "address",
          "name": "previousOwner",
          "type": "address"
        },
        {
          "indexed": true,
          "internalType": "address",
          "name": "newOwner",
          "type": "address"
        }
      ],
      "name": "OwnershipTransferred",
      "type": "event"
    },
    {
      "inputs": [
        {
          "internalType": "uint8",
          "name": "_maxPlayersPerGame",
          "type": "uint8"
        },
        {
          "internalType": "uint8",
          "name": "_radius",
          "type": "uint8"
        }
      ],
      "name": "closeRegistration",
      "outputs": [],
      "stateMutability": "nonpayable",
      "type": "function"
    },
    {
      "inputs": [],
      "name": "gamePunk",
      "outputs": [
        {
          "internalType": "contract IGamePunk",
          "name": "",
          "type": "address"
        }
      ],
      "stateMutability": "view",
      "type": "function"
    },
    {
      "inputs": [],
      "name": "lastGameId",
      "outputs": [
        {
          "internalType": "uint8",
          "name": "",
          "type": "uint8"
        }
      ],
      "stateMutability": "view",
      "type": "function"
    },
    {
      "inputs": [],
      "name": "owner",
      "outputs": [
        {
          "internalType": "address",
          "name": "",
          "type": "address"
        }
      ],
      "stateMutability": "view",
      "type": "function"
    },
    {
      "inputs": [
        {
          "internalType": "uint8",
          "name": "_speed",
          "type": "uint8"
        },
        {
          "internalType": "uint8",
          "name": "_range",
          "type": "uint8"
        }
      ],
      "name": "registerPlayer",
      "outputs": [],
      "stateMutability": "nonpayable",
      "type": "function"
    },
    {
      "inputs": [
        {
          "internalType": "address",
          "name": "",
          "type": "address"
        }
      ],
      "name": "registeredPlayers",
      "outputs": [
        {
          "internalType": "bool",
          "name": "registered",
          "type": "bool"
        },
        {
          "internalType": "uint8",
          "name": "speed",
          "type": "uint8"
        },
        {
          "internalType": "uint8",
          "name": "range",
          "type": "uint8"
        }
      ],
      "stateMutability": "view",
      "type": "function"
    },
    {
      "inputs": [],
      "name": "registrationClosed",
      "outputs": [
        {
          "internalType": "bool",
          "name": "",
          "type": "bool"
        }
      ],
      "stateMutability": "view",
      "type": "function"
    },
    {
      "inputs": [],
      "name": "registrationPhase",
      "outputs": [
        {
          "internalType": "uint8",
          "name": "",
          "type": "uint8"
        }
      ],
      "stateMutability": "view",
      "type": "function"
    },
    {
      "inputs": [],
      "name": "renounceOwnership",
      "outputs": [],
      "stateMutability": "nonpayable",
      "type": "function"
    },
    {
      "inputs": [],
      "name": "startRegistration",
      "outputs": [],
      "stateMutability": "nonpayable",
      "type": "function"
    },
    {
      "inputs": [
        {
          "internalType": "address",
          "name": "newOwner",
          "type": "address"
        }
      ],
      "name": "transferOwnership",
      "outputs": [],
      "stateMutability": "nonpayable",
      "type": "function"
    }
  ],
  "bytecode": "0x60806040526004805462ffffff1916600117905534801561001f57600080fd5b5060405161091b38038061091b83398101604081905261003e916100e3565b338061006457604051631e4fbdf760e01b81526000600482015260240160405180910390fd5b61006d81610093565b50600180546001600160a01b0319166001600160a01b0392909216919091179055610113565b600080546001600160a01b038381166001600160a01b0319831681178455604051919092169283917f8be0079c531659141344cd1fd0a4f28419497f9722a3daafe3b4186f6b6457e09190a35050565b6000602082840312156100f557600080fd5b81516001600160a01b038116811461010c57600080fd5b9392505050565b6107f9806101226000396000f3fe608060405234801561001057600080fd5b50600436106100a95760003560e01c80639f9a093c116100715780639f9a093c14610165578063a353d9f014610182578063a9c06f2514610195578063ac11482d146101a8578063f2fde38b146101bb578063f78d431e146101ce57600080fd5b806310b86695146100ae5780633ee9d648146100b85780634bafce22146100e1578063715018a6146101385780638da5cb5b14610140575b600080fd5b6100b66101e1565b005b6004546100ca90610100900460ff1681565b60405160ff90911681526020015b60405180910390f35b6101176100ef3660046106c7565b60026020526000908152604090205460ff808216916101008104821691620100009091041683565b60408051931515845260ff92831660208501529116908201526060016100d8565b6100b6610298565b6000546001600160a01b03165b6040516001600160a01b0390911681526020016100d8565b6004546101729060ff1681565b60405190151581526020016100d8565b6100b661019036600461070d565b6102aa565b60015461014d906001600160a01b031681565b6004546100ca9062010000900460ff1681565b6100b66101c93660046106c7565b610409565b6100b66101dc36600461070d565b610447565b6101e9610618565b6004805460ff191680825560019190829061020d908290610100900460ff16610756565b92506101000a81548160ff021916908360ff16021790555060005b60035481101561028957600260006003838154811061024957610249610775565b60009182526020808320909101546001600160a01b031683528201929092526040019020805462ffffff19169055806102818161078b565b915050610228565b5061029660036000610695565b565b6102a0610618565b6102966000610645565b60045460ff16156102fb5760405162461bcd60e51b8152602060048201526016602482015275149959da5cdd1c985d1a5bdb881a5cc818db1bdcd95960521b60448201526064015b60405180910390fd5b3360009081526002602052604090205460ff161561035b5760405162461bcd60e51b815260206004820152601960248201527f506c6179657220616c726561647920726567697374657265640000000000000060448201526064016102f2565b60408051606081018252600180825260ff94851660208084019182529486168385019081523360008181526002909752948620935184549251915161ffff1990931690151561ff00191617610100918816919091021762ff000019166201000091909616029490941790556003805493840181559091527fc2575a0e9e593c00f959f8c92f12db2869c3395a3b0502d05e2516446f71f85b90910180546001600160a01b0319169091179055565b610411610618565b6001600160a01b03811661043b57604051631e4fbdf760e01b8152600060048201526024016102f2565b61044481610645565b50565b61044f610618565b6004805460ff191660011790556000805b600354811015610612578160ff166000036104e9576001546004805460405163d1153bc360e01b815260ff610100909204821692810192909252851660248201526001600160a01b039091169063d1153bc390604401600060405180830381600087803b1580156104d057600080fd5b505af11580156104e4573d6000803e3d6000fd5b505050505b6000600382815481106104fe576104fe610775565b6000918252602080832091909101546001600160a01b039081168084526002909252604092839020600154600480548354965163f10a392760e01b815291820186905260ff6101009182900481166024840152908704811660448301526201000090960490951660648601529294509291169063f10a392790608401600060405180830381600087803b15801561059457600080fd5b505af11580156105a8573d6000803e3d6000fd5b5050505083806105b7906107a4565b9450508560ff168460ff16036105fd5760048054610100900460ff169060016105df836107a4565b91906101000a81548160ff021916908360ff16021790555050600093505b5050808061060a9061078b565b915050610460565b50505050565b6000546001600160a01b031633146102965760405163118cdaa760e01b81523360048201526024016102f2565b600080546001600160a01b038381166001600160a01b0319831681178455604051919092169283917f8be0079c531659141344cd1fd0a4f28419497f9722a3daafe3b4186f6b6457e09190a35050565b508054600082559060005260206000209081019061044491905b808211156106c357600081556001016106af565b5090565b6000602082840312156106d957600080fd5b81356001600160a01b03811681146106f057600080fd5b9392505050565b803560ff8116811461070857600080fd5b919050565b6000806040838503121561072057600080fd5b610729836106f7565b9150610737602084016106f7565b90509250929050565b634e487b7160e01b600052601160045260246000fd5b60ff818116838216019081111561076f5761076f610740565b92915050565b634e487b7160e01b600052603260045260246000fd5b60006001820161079d5761079d610740565b5060010190565b600060ff821660ff81036107ba576107ba610740565b6001019291505056fea2646970667358221220cbe46554ed76e67a5ebcc6d0ee8007937a6a788545752a1bf83e9559bbb6a17c64736f6c63430008140033",
  "linkReferences": {},
  "deployedLinkReferences": {}
}