{
  "_format": "hh-sol-artifact-1",
  "contractName": "GameWOT",
  "sourceName": "contracts/GameWOT.sol",
  "abi": [
    {
      "inputs": [
        {
          "internalType": "address",
          "name": "_mapAddress",
          "type": "address"
        }
      ],
      "stateMutability": "nonpayable",
      "type": "constructor"
    },
    {
      "inputs": [
        {
          "internalType": "address",
          "name": "owner",
          "type": "address"
        }
      ],
      "name": "OwnableInvalidOwner",
      "type": "error"
    },
    {
      "inputs": [
        {
          "internalType": "address",
          "name": "account",
          "type": "address"
        }
      ],
      "name": "OwnableUnauthorizedAccount",
      "type": "error"
    },
    {
      "inputs": [
        {
          "internalType": "address",
          "name": "player",
          "type": "address"
        },
        {
          "internalType": "uint8",
          "name": "q",
          "type": "uint8"
        },
        {
          "internalType": "uint8",
          "name": "r",
          "type": "uint8"
        }
      ],
      "name": "ShipAlreadyAdded",
      "type": "error"
    },
    {
      "anonymous": false,
      "inputs": [
        {
          "indexed": false,
          "internalType": "uint8",
          "name": "gameId",
          "type": "uint8"
        },
        {
          "indexed": false,
          "internalType": "uint8",
          "name": "q",
          "type": "uint8"
        },
        {
          "indexed": false,
          "internalType": "uint8",
          "name": "r",
          "type": "uint8"
        },
        {
          "indexed": false,
          "internalType": "bool",
          "name": "island",
          "type": "bool"
        }
      ],
      "name": "Cell",
      "type": "event"
    },
    {
      "anonymous": false,
      "inputs": [
        {
          "indexed": false,
          "internalType": "uint8",
          "name": "gameId",
          "type": "uint8"
        }
      ],
      "name": "CommitPhaseStarted",
      "type": "event"
    },
    {
      "anonymous": false,
      "inputs": [
        {
          "indexed": false,
          "internalType": "uint8",
          "name": "gameId",
          "type": "uint8"
        }
      ],
      "name": "GameEnded",
      "type": "event"
    },
    {
      "anonymous": false,
      "inputs": [
        {
          "indexed": false,
          "internalType": "uint8",
          "name": "gameId",
          "type": "uint8"
        }
      ],
      "name": "GameStarted",
      "type": "event"
    },
    {
      "anonymous": false,
      "inputs": [
        {
          "indexed": true,
          "internalType": "bool",
          "name": "gameStatus",
          "type": "bool"
        },
        {
          "indexed": true,
          "internalType": "address",
          "name": "winnerAddress",
          "type": "address"
        },
        {
          "indexed": false,
          "internalType": "uint8",
          "name": "gameId",
          "type": "uint8"
        }
      ],
      "name": "GameUpdated",
      "type": "event"
    },
    {
      "anonymous": false,
      "inputs": [
        {
          "indexed": true,
          "internalType": "address",
          "name": "winner",
          "type": "address"
        },
        {
          "indexed": false,
          "internalType": "uint8",
          "name": "gameId",
          "type": "uint8"
        }
      ],
      "name": "GameWinner",
      "type": "event"
    },
    {
      "anonymous": false,
      "inputs": [
        {
          "indexed": false,
          "internalType": "uint8",
          "name": "gameId",
          "type": "uint8"
        },
        {
          "indexed": false,
          "internalType": "uint8",
          "name": "q",
          "type": "uint8"
        },
        {
          "indexed": false,
          "internalType": "uint8",
          "name": "r",
          "type": "uint8"
        }
      ],
      "name": "Island",
      "type": "event"
    },
    {
      "anonymous": false,
      "inputs": [
        {
          "indexed": false,
          "internalType": "uint8",
          "name": "radius",
          "type": "uint8"
        },
        {
          "indexed": false,
          "internalType": "uint8",
          "name": "gameId",
          "type": "uint8"
        }
      ],
      "name": "MapInitialized",
      "type": "event"
    },
    {
      "anonymous": false,
      "inputs": [
        {
          "indexed": false,
          "internalType": "uint8",
          "name": "gameId",
          "type": "uint8"
        }
      ],
      "name": "MapShrink",
      "type": "event"
    },
    {
      "anonymous": false,
      "inputs": [
        {
          "indexed": true,
          "internalType": "address",
          "name": "player",
          "type": "address"
        },
        {
          "indexed": false,
          "internalType": "uint8",
          "name": "gameId",
          "type": "uint8"
        }
      ],
      "name": "MoveCommitted",
      "type": "event"
    },
    {
      "anonymous": false,
      "inputs": [
        {
          "indexed": true,
          "internalType": "address",
          "name": "player",
          "type": "address"
        },
        {
          "indexed": false,
          "internalType": "uint8",
          "name": "gameId",
          "type": "uint8"
        },
        {
          "indexed": false,
          "internalType": "uint256",
          "name": "roundId",
          "type": "uint256"
        },
        {
          "indexed": false,
          "internalType": "uint8",
          "name": "destQ",
          "type": "uint8"
        },
        {
          "indexed": false,
          "internalType": "uint8",
          "name": "destR",
          "type": "uint8"
        },
        {
          "indexed": false,
          "internalType": "uint8",
          "name": "shotQ",
          "type": "uint8"
        },
        {
          "indexed": false,
          "internalType": "uint8",
          "name": "shotR",
          "type": "uint8"
        }
      ],
      "name": "MoveSubmitted",
      "type": "event"
    },
    {
      "anonymous": false,
      "inputs": [
        {
          "indexed": false,
          "internalType": "uint8",
          "name": "gameId",
          "type": "uint8"
        },
        {
          "indexed": false,
          "internalType": "uint256",
          "name": "roundId",
          "type": "uint256"
        },
        {
          "indexed": false,
          "internalType": "uint8",
          "name": "radius",
          "type": "uint8"
        }
      ],
      "name": "NewRound",
      "type": "event"
    },
    {
      "anonymous": false,
      "inputs": [
        {
          "indexed": true,
          "internalType": "address",
          "name": "previousOwner",
          "type": "address"
        },
        {
          "indexed": true,
          "internalType": "address",
          "name": "newOwner",
          "type": "address"
        }
      ],
      "name": "OwnershipTransferred",
      "type": "event"
    },
    {
      "anonymous": false,
      "inputs": [
        {
          "indexed": true,
          "internalType": "address",
          "name": "player",
          "type": "address"
        },
        {
          "indexed": false,
          "internalType": "uint8",
          "name": "gameId",
          "type": "uint8"
        },
        {
          "indexed": false,
          "internalType": "uint8",
          "name": "q",
          "type": "uint8"
        },
        {
          "indexed": false,
          "internalType": "uint8",
          "name": "r",
          "type": "uint8"
        },
        {
          "indexed": false,
          "internalType": "uint8",
          "name": "speed",
          "type": "uint8"
        },
        {
          "indexed": false,
          "internalType": "uint8",
          "name": "range",
          "type": "uint8"
        }
      ],
      "name": "PlayerAdded",
      "type": "event"
    },
    {
      "anonymous": false,
      "inputs": [
        {
          "indexed": true,
          "internalType": "address",
          "name": "player",
          "type": "address"
        },
        {
          "indexed": false,
          "internalType": "uint8",
          "name": "gameId",
          "type": "uint8"
        }
      ],
      "name": "PlayerDefeated",
      "type": "event"
    },
    {
      "anonymous": false,
      "inputs": [
        {
          "indexed": true,
          "internalType": "address",
          "name": "captain",
          "type": "address"
        },
        {
          "indexed": false,
          "internalType": "uint8",
          "name": "gameId",
          "type": "uint8"
        },
        {
          "indexed": false,
          "internalType": "uint8",
          "name": "q",
          "type": "uint8"
        },
        {
          "indexed": false,
          "internalType": "uint8",
          "name": "r",
          "type": "uint8"
        }
      ],
      "name": "ShipCollidedWithIsland",
      "type": "event"
    },
    {
      "anonymous": false,
      "inputs": [
        {
          "indexed": true,
          "internalType": "address",
          "name": "victim",
          "type": "address"
        },
        {
          "indexed": true,
          "internalType": "address",
          "name": "attacker",
          "type": "address"
        },
        {
          "indexed": false,
          "internalType": "uint8",
          "name": "gameId",
          "type": "uint8"
        }
      ],
      "name": "ShipHit",
      "type": "event"
    },
    {
      "anonymous": false,
      "inputs": [
        {
          "indexed": true,
          "internalType": "address",
          "name": "captain",
          "type": "address"
        },
        {
          "indexed": false,
          "internalType": "uint8",
          "name": "initialQ",
          "type": "uint8"
        },
        {
          "indexed": false,
          "internalType": "uint8",
          "name": "initialR",
          "type": "uint8"
        },
        {
          "indexed": false,
          "internalType": "uint8",
          "name": "q",
          "type": "uint8"
        },
        {
          "indexed": false,
          "internalType": "uint8",
          "name": "r",
          "type": "uint8"
        },
        {
          "indexed": false,
          "internalType": "uint8",
          "name": "gameId",
          "type": "uint8"
        }
      ],
      "name": "ShipMoved",
      "type": "event"
    },
    {
      "anonymous": false,
      "inputs": [
        {
          "indexed": true,
          "internalType": "address",
          "name": "captain",
          "type": "address"
        },
        {
          "indexed": false,
          "internalType": "uint8",
          "name": "gameId",
          "type": "uint8"
        }
      ],
      "name": "ShipMovedInGame",
      "type": "event"
    },
    {
      "anonymous": false,
      "inputs": [
        {
          "indexed": true,
          "internalType": "address",
          "name": "captain",
          "type": "address"
        },
        {
          "indexed": false,
          "internalType": "uint8",
          "name": "fromQ",
          "type": "uint8"
        },
        {
          "indexed": false,
          "internalType": "uint8",
          "name": "fromR",
          "type": "uint8"
        },
        {
          "indexed": false,
          "internalType": "uint8",
          "name": "shotQ",
          "type": "uint8"
        },
        {
          "indexed": false,
          "internalType": "uint8",
          "name": "shotR",
          "type": "uint8"
        },
        {
          "indexed": false,
          "internalType": "uint8",
          "name": "gameId",
          "type": "uint8"
        }
      ],
      "name": "ShipShot",
      "type": "event"
    },
    {
      "anonymous": false,
      "inputs": [
        {
          "indexed": true,
          "internalType": "address",
          "name": "captain",
          "type": "address"
        },
        {
          "indexed": false,
          "internalType": "uint8",
          "name": "gameId",
          "type": "uint8"
        }
      ],
      "name": "ShipSunk",
      "type": "event"
    },
    {
      "anonymous": false,
      "inputs": [
        {
          "indexed": true,
          "internalType": "address",
          "name": "captain",
          "type": "address"
        },
        {
          "indexed": false,
          "internalType": "uint8",
          "name": "gameId",
          "type": "uint8"
        }
      ],
      "name": "ShipSunkOutOfMap",
      "type": "event"
    },
    {
      "anonymous": false,
      "inputs": [
        {
          "indexed": false,
          "internalType": "uint8",
          "name": "gameId",
          "type": "uint8"
        },
        {
          "indexed": false,
          "internalType": "uint256",
          "name": "round",
          "type": "uint256"
        }
      ],
      "name": "SubmitPhaseStarted",
      "type": "event"
    },
    {
      "anonymous": false,
      "inputs": [
        {
          "indexed": false,
          "internalType": "uint8",
          "name": "gameId",
          "type": "uint8"
        }
      ],
      "name": "WorldUpdated",
      "type": "event"
    },
    {
      "inputs": [
        {
          "internalType": "uint8",
          "name": "gameId",
          "type": "uint8"
        },
        {
          "internalType": "uint8",
          "name": "_speed",
          "type": "uint8"
        },
        {
          "internalType": "uint8",
          "name": "_range",
          "type": "uint8"
        }
      ],
      "name": "addShip",
      "outputs": [
        {
          "components": [
            {
              "components": [
                {
                  "internalType": "uint8",
                  "name": "q",
                  "type": "uint8"
                },
                {
                  "internalType": "uint8",
                  "name": "r",
                  "type": "uint8"
                }
              ],
              "internalType": "struct SharedStructs.Coordinate",
              "name": "coordinate",
              "type": "tuple"
            },
            {
              "internalType": "enum SharedStructs.Directions",
              "name": "travelDirection",
              "type": "uint8"
            },
            {
              "internalType": "uint8",
              "name": "travelDistance",
              "type": "uint8"
            },
            {
              "internalType": "enum SharedStructs.Directions",
              "name": "shotDirection",
              "type": "uint8"
            },
            {
              "internalType": "uint8",
              "name": "shotDistance",
              "type": "uint8"
            },
            {
              "internalType": "bool",
              "name": "publishedMove",
              "type": "bool"
            },
            {
              "internalType": "address",
              "name": "captain",
              "type": "address"
            },
            {
              "internalType": "uint256",
              "name": "yachtSpeed",
              "type": "uint256"
            },
            {
              "internalType": "uint256",
              "name": "yachtRange",
              "type": "uint256"
            }
          ],
          "internalType": "struct GameWOT.Ship",
          "name": "",
          "type": "tuple"
        }
      ],
      "stateMutability": "nonpayable",
      "type": "function"
    },
    {
      "inputs": [
        {
          "internalType": "uint8",
          "name": "gameId",
          "type": "uint8"
        }
      ],
      "name": "allowSubmitMoves",
      "outputs": [],
      "stateMutability": "nonpayable",
      "type": "function"
    },
    {
      "inputs": [
        {
          "internalType": "uint8",
          "name": "gameId",
          "type": "uint8"
        }
      ],
      "name": "endGame",
      "outputs": [],
      "stateMutability": "nonpayable",
      "type": "function"
    },
    {
      "inputs": [
        {
          "internalType": "uint256",
          "name": "",
          "type": "uint256"
        }
      ],
      "name": "games",
      "outputs": [
        {
          "internalType": "uint256",
          "name": "round",
          "type": "uint256"
        },
        {
          "internalType": "uint8",
          "name": "shrinkNo",
          "type": "uint8"
        },
        {
          "internalType": "bool",
          "name": "gameInProgress",
          "type": "bool"
        },
        {
          "internalType": "bool",
          "name": "stopAddingShips",
          "type": "bool"
        },
        {
          "internalType": "bool",
          "name": "letCommitMoves",
          "type": "bool"
        },
        {
          "internalType": "bool",
          "name": "letSubmitMoves",
          "type": "bool"
        }
      ],
      "stateMutability": "view",
      "type": "function"
    },
    {
      "inputs": [
        {
          "components": [
            {
              "internalType": "uint8",
              "name": "q",
              "type": "uint8"
            },
            {
              "internalType": "uint8",
              "name": "r",
              "type": "uint8"
            }
          ],
          "internalType": "struct SharedStructs.Coordinate",
          "name": "_coord",
          "type": "tuple"
        },
        {
          "internalType": "uint8",
          "name": "gameId",
          "type": "uint8"
        }
      ],
      "name": "getCell",
      "outputs": [
        {
          "components": [
            {
              "internalType": "uint8",
              "name": "q",
              "type": "uint8"
            },
            {
              "internalType": "uint8",
              "name": "r",
              "type": "uint8"
            },
            {
              "internalType": "bool",
              "name": "island",
              "type": "bool"
            },
            {
              "internalType": "bool",
              "name": "exists",
              "type": "bool"
            }
          ],
          "internalType": "struct SharedStructs.Cell",
          "name": "",
          "type": "tuple"
        }
      ],
      "stateMutability": "view",
      "type": "function"
    },
    {
      "inputs": [
        {
          "internalType": "uint8",
          "name": "gameId",
          "type": "uint8"
        }
      ],
      "name": "getCells",
      "outputs": [
        {
          "components": [
            {
              "internalType": "uint8",
              "name": "q",
              "type": "uint8"
            },
            {
              "internalType": "uint8",
              "name": "r",
              "type": "uint8"
            }
          ],
          "internalType": "struct SharedStructs.Coordinate[]",
          "name": "",
          "type": "tuple[]"
        }
      ],
      "stateMutability": "view",
      "type": "function"
    },
    {
      "inputs": [
        {
          "internalType": "uint8",
          "name": "gameId",
          "type": "uint8"
        }
      ],
      "name": "getRadius",
      "outputs": [
        {
          "internalType": "uint8",
          "name": "",
          "type": "uint8"
        }
      ],
      "stateMutability": "view",
      "type": "function"
    },
    {
      "inputs": [
        {
          "internalType": "uint8",
          "name": "gameId",
          "type": "uint8"
        }
      ],
      "name": "getShips",
      "outputs": [
        {
          "components": [
            {
              "components": [
                {
                  "internalType": "uint8",
                  "name": "q",
                  "type": "uint8"
                },
                {
                  "internalType": "uint8",
                  "name": "r",
                  "type": "uint8"
                }
              ],
              "internalType": "struct SharedStructs.Coordinate",
              "name": "coordinate",
              "type": "tuple"
            },
            {
              "internalType": "enum SharedStructs.Directions",
              "name": "travelDirection",
              "type": "uint8"
            },
            {
              "internalType": "uint8",
              "name": "travelDistance",
              "type": "uint8"
            },
            {
              "internalType": "enum SharedStructs.Directions",
              "name": "shotDirection",
              "type": "uint8"
            },
            {
              "internalType": "uint8",
              "name": "shotDistance",
              "type": "uint8"
            },
            {
              "internalType": "bool",
              "name": "publishedMove",
              "type": "bool"
            },
            {
              "internalType": "address",
              "name": "captain",
              "type": "address"
            },
            {
              "internalType": "uint256",
              "name": "yachtSpeed",
              "type": "uint256"
            },
            {
              "internalType": "uint256",
              "name": "yachtRange",
              "type": "uint256"
            }
          ],
          "internalType": "struct GameWOT.Ship[]",
          "name": "",
          "type": "tuple[]"
        }
      ],
      "stateMutability": "view",
      "type": "function"
    },
    {
      "inputs": [
        {
          "internalType": "uint8",
          "name": "_radius",
          "type": "uint8"
        },
        {
          "internalType": "uint8",
          "name": "gameId",
          "type": "uint8"
        }
      ],
      "name": "initGame",
      "outputs": [],
      "stateMutability": "nonpayable",
      "type": "function"
    },
    {
      "inputs": [
        {
          "components": [
            {
              "internalType": "uint8",
              "name": "q",
              "type": "uint8"
            },
            {
              "internalType": "uint8",
              "name": "r",
              "type": "uint8"
            }
          ],
          "internalType": "struct SharedStructs.Coordinate",
          "name": "_start",
          "type": "tuple"
        },
        {
          "internalType": "enum SharedStructs.Directions",
          "name": "_dir",
          "type": "uint8"
        },
        {
          "internalType": "uint8",
          "name": "_distance",
          "type": "uint8"
        },
        {
          "internalType": "uint8",
          "name": "gameId",
          "type": "uint8"
        }
      ],
      "name": "move",
      "outputs": [
        {
          "components": [
            {
              "internalType": "uint8",
              "name": "q",
              "type": "uint8"
            },
            {
              "internalType": "uint8",
              "name": "r",
              "type": "uint8"
            }
          ],
          "internalType": "struct SharedStructs.Coordinate",
          "name": "",
          "type": "tuple"
        }
      ],
      "stateMutability": "view",
      "type": "function"
    },
    {
      "inputs": [],
      "name": "owner",
      "outputs": [
        {
          "internalType": "address",
          "name": "",
          "type": "address"
        }
      ],
      "stateMutability": "view",
      "type": "function"
    },
    {
      "inputs": [],
      "name": "renounceOwnership",
      "outputs": [],
      "stateMutability": "nonpayable",
      "type": "function"
    },
    {
      "inputs": [
        {
          "internalType": "enum SharedStructs.Directions",
          "name": "_travelDirection",
          "type": "uint8"
        },
        {
          "internalType": "uint8",
          "name": "_travelDistance",
          "type": "uint8"
        },
        {
          "internalType": "enum SharedStructs.Directions",
          "name": "_shotDirection",
          "type": "uint8"
        },
        {
          "internalType": "uint8",
          "name": "_shotDistance",
          "type": "uint8"
        },
        {
          "internalType": "uint8",
          "name": "gameId",
          "type": "uint8"
        }
      ],
      "name": "revealMove",
      "outputs": [],
      "stateMutability": "nonpayable",
      "type": "function"
    },
    {
      "inputs": [
        {
          "internalType": "uint8",
          "name": "gameId",
          "type": "uint8"
        }
      ],
      "name": "startNewGame",
      "outputs": [],
      "stateMutability": "nonpayable",
      "type": "function"
    },
    {
      "inputs": [
        {
          "internalType": "address",
          "name": "newOwner",
          "type": "address"
        }
      ],
      "name": "transferOwnership",
      "outputs": [],
      "stateMutability": "nonpayable",
      "type": "function"
    },
    {
      "inputs": [
        {
          "components": [
            {
              "internalType": "uint8",
              "name": "q",
              "type": "uint8"
            },
            {
              "internalType": "uint8",
              "name": "r",
              "type": "uint8"
            }
          ],
          "internalType": "struct SharedStructs.Coordinate",
          "name": "_startCell",
          "type": "tuple"
        },
        {
          "internalType": "enum SharedStructs.Directions",
          "name": "_direction",
          "type": "uint8"
        },
        {
          "internalType": "uint8",
          "name": "_distance",
          "type": "uint8"
        },
        {
          "internalType": "uint8",
          "name": "gameId",
          "type": "uint8"
        }
      ],
      "name": "travel",
      "outputs": [],
      "stateMutability": "nonpayable",
      "type": "function"
    },
    {
      "inputs": [
        {
          "internalType": "uint8",
          "name": "gameId",
          "type": "uint8"
        }
      ],
      "name": "updateWorld",
      "outputs": [],
      "stateMutability": "nonpayable",
      "type": "function"
    }
  ],
  "bytecode": "0x60a06040523480156200001157600080fd5b5060405162004620380380620046208339810160408190526200003491620000c9565b33806200005b57604051631e4fbdf760e01b81526000600482015260240160405180910390fd5b620000668162000079565b506001600160a01b0316608052620000fb565b600080546001600160a01b038381166001600160a01b0319831681178455604051919092169283917f8be0079c531659141344cd1fd0a4f28419497f9722a3daafe3b4186f6b6457e09190a35050565b600060208284031215620000dc57600080fd5b81516001600160a01b0381168114620000f457600080fd5b9392505050565b6080516144a762000179600039600081816103a001528181610592015281816107b901528181610838015281816109a701528181610b3101528181610cde01528181610e9b01528181611178015281816117a801528181611d6b01528181612356015281816132e201528181613712015261386301526144a76000f3fe608060405234801561001057600080fd5b506004361061010b5760003560e01c80636613b616116100a25780638da5cb5b116100715780638da5cb5b146102d5578063978ac356146102f0578063d085a86f14610303578063f2fde38b14610323578063fd8704461461033657600080fd5b80636613b616146102875780636ed296e4146102a7578063715018a6146102ba578063863375ac146102c257600080fd5b80634998b8fb116100de5780634998b8fb146101ec5780634aac9b8b146101ff5780634d0238861461021f578063508236ca1461027457600080fd5b8063117a5b90146101105780631cf8a3211461019f5780632923a41f146101b457806334361208146101c7575b600080fd5b61016161011e366004613b1b565b600160208190526000918252604090912080549181015460049091015460ff91821691818116916101008104821691620100008204811691630100000090041686565b6040805196875260ff909516602087015292151593850193909352151560608401529015156080830152151560a082015260c0015b60405180910390f35b6101b26101ad366004613c09565b610356565b005b6101b26101c2366004613c62565b610494565b6101da6101d5366004613c62565b61053c565b60405160ff9091168152602001610196565b6101b26101fa366004613c7f565b61060b565b61021261020d366004613c62565b61094f565b6040516101969190613cec565b61023261022d366004613d49565b610c67565b6040516101969190600060808201905060ff835116825260ff602084015116602083015260408301511515604083015260608301511515606083015292915050565b6101b2610282366004613d81565b610d5d565b61029a610295366004613daf565b61102a565b6040516101969190613ed0565b6101b26102b5366004613c62565b611541565b6101b2611661565b6101b26102d0366004613c62565b611675565b6000546040516001600160a01b039091168152602001610196565b6101b26102fe366004613c62565b611707565b610316610311366004613c09565b61327b565b6040516101969190613edf565b6101b2610331366004613efd565b613364565b610349610344366004613c62565b6133a2565b6040516101969190613f26565b60ff80821660009081526001602081905260409091206004015490911615151461039b5760405162461bcd60e51b815260040161039290613f75565b60405180910390fd5b6000807f00000000000000000000000000000000000000000000000000000000000000006001600160a01b0316631cf8a321878787876040518563ffffffff1660e01b81526004016103f09493929190613fac565b606060405180830381865afa15801561040d573d6000803e3d6000fd5b505050506040513d601f19601f820116820180604052508101906104319190614039565b91509150811561044a5761044533846135ec565b61048c565b805160ff8481166000908152600160209081526040808320338452600201825290912080549185015183166101000261ffff1990921692909316919091171790555b505050505050565b61049c6136c0565b60ff8082166000908152600160208190526040909120600401549091161515146104d85760405162461bcd60e51b815260040161039290613f75565b60ff811660008181526001602090815260409182902060048101805463ff00000019166301000000179055548251938452908301527f8f2926f00686a0050801f0bdb34f506a8467984df7f619eca0dac070da51babc91015b60405180910390a150565b60ff808216600090815260016020819052604082206004015491929190911615151461057a5760405162461bcd60e51b815260040161039290613f75565b60405163436fadf360e11b815260ff831660048201527f00000000000000000000000000000000000000000000000000000000000000006001600160a01b0316906386df5be690602401602060405180830381865afa1580156105e1573d6000803e3d6000fd5b505050506040513d601f19601f82011682018060405250810190610605919061406d565b92915050565b60ff808216600090815260016020819052604090912060040154630100000090049091161515146106885760405162461bcd60e51b815260206004820152602160248201527f5375626d6974206d6f76657320686173206e6f742073746172746564207965746044820152602160f81b6064820152608401610392565b60ff8082166000908152600160208190526040909120600401549091161515146106c45760405162461bcd60e51b815260040161039290613f75565b60ff8116600090815260016020818152604080842033855260020190915290912080820180549192889260ff19169083600681111561070557610705613dfa565b021790555060018101805461ff0019811661010060ff891602908117835586929162ffff00191662ff000019909116176201000083600681111561074b5761074b613dfa565b021790555060018101805464ff000000001960ff8087166301000000029190911664ffff000000199092169190911764010000000017909155604080518082018252835480841682526101009004909216602083015251630d42527560e11b81526000906001600160a01b037f00000000000000000000000000000000000000000000000000000000000000001690631a84a4ea906107f29085908c908c9060040161408a565b6040805180830381865afa15801561080e573d6000803e3d6000fd5b505050506040513d601f19601f8201168201806040525081019061083291906140c6565b905060007f00000000000000000000000000000000000000000000000000000000000000006001600160a01b0316631a84a4ea8389896040518463ffffffff1660e01b81526004016108869392919061408a565b6040805180830381865afa1580156108a2573d6000803e3d6000fd5b505050506040513d601f19601f820116820180604052508101906108c691906140c6565b60ff8681166000818152600160209081526040918290205487518883015187518885015186519788529487019390935290861685850152851660608501528416608084015290921660a0820152905191925033917faff0b78027ac9f4904ee624bc84e3126d0e7d96ce215c5db5158441acb0b38cf9181900360c00190a2505050505050505050565b60ff8082166000908152600160208190526040909120600401546060921615151461098c5760405162461bcd60e51b815260040161039290613f75565b60405163436fadf360e11b815260ff831660048201526000907f00000000000000000000000000000000000000000000000000000000000000006001600160a01b0316906386df5be690602401602060405180830381865afa1580156109f6573d6000803e3d6000fd5b505050506040513d601f19601f82011682018060405250810190610a1a919061406d565b90506000610a298260016140f8565b610a34836003614111565b610a3e9190614111565b610a499060016140f8565b60ff16905060008167ffffffffffffffff811115610a6957610a69613b34565b604051908082528060200260200182016040528015610aae57816020015b6040805180820190915260008082526020820152815260200190600190039081610a875790505b50905060405180604001604052808460ff1681526020018460ff1681525081600081518110610adf57610adf61412d565b602090810291909101015260015b8360ff168160ff1611610c5e57600081610b08600182614143565b610b13906003614111565b610b1d9190614111565b610b289060016140f8565b60ff16905060007f00000000000000000000000000000000000000000000000000000000000000006001600160a01b03166339e5c4a085600081518110610b7157610b7161412d565b6020026020010151856040518363ffffffff1660e01b8152600401610b9792919061415c565b600060405180830381865afa158015610bb4573d6000803e3d6000fd5b505050506040513d6000823e601f3d908101601f19168201604052610bdc91908101906141ae565b905060005b81518160ff161015610c4857818160ff1681518110610c0257610c0261412d565b6020026020010151858260ff1685610c1a919061424f565b81518110610c2a57610c2a61412d565b60200260200101819052508080610c4090614262565b915050610be1565b5050508080610c5690614262565b915050610aed565b50949350505050565b60408051608081018252600080825260208201819052918101829052606081019190915260ff808316600090815260016020819052604090912060040154909116151514610cc75760405162461bcd60e51b815260040161039290613f75565b6040516326811c4360e11b81526001600160a01b037f00000000000000000000000000000000000000000000000000000000000000001690634d02388690610d15908690869060040161415c565b608060405180830381865afa158015610d32573d6000803e3d6000fd5b505050506040513d601f19601f82011682018060405250810190610d569190614307565b9392505050565b610d656136c0565b60ff808216600090815260016020819052604090912060040154909116151514610da15760405162461bcd60e51b815260040161039290613f75565b60005b60ff8216600090815260016020526040902060030154811015610e4c5760ff821660009081526001602052604081206003810180546002909201929184908110610df057610df061412d565b60009182526020808320909101546001600160a01b031683528201929092526040018120805461ffff191681556001810180546001600160c81b0319169055600281018290556003015580610e4481614323565b915050610da4565b5060ff81166000908152600160205260408120610e6e91600390910190613a89565b610e77816136ed565b50604051631a405d8760e31b815260ff8084166004830152821660248201526000907f00000000000000000000000000000000000000000000000000000000000000006001600160a01b03169063d202ec38906044016000604051808303816000875af1158015610eec573d6000803e3d6000fd5b505050506040513d6000823e601f3d908101601f19168201604052610f14919081019061433c565b905060005b8151811015610fe7577fa0c5e7441ab424c9fb8f47238c88c2c172bf9be1898748ea348b2a8bb92d6dbb83838381518110610f5657610f5661412d565b602002602001015160000151848481518110610f7457610f7461412d565b602002602001015160200151858581518110610f9257610f9261412d565b602002602001015160400151604051610fcd949392919060ff9485168152928416602084015292166040820152901515606082015260800190565b60405180910390a180610fdf81614323565b915050610f19565b506040805160ff8086168252841660208201527fd76a0a97b7d547fef69b0cd90fb02087b761703ae2b5e4e91a99e8fd17e308ad910160405180910390a1505050565b611032613aa7565b60ff808516600090815260016020526040902060040154610100900416158015611078575060ff8085166000908152600160208190526040909120600401549091161515145b6110945760405162461bcd60e51b815260040161039290613f75565b60ff808516600090815260016020908152604080832033845260020190915290205416158015906110eb575060ff808516600090815260016020908152604080832033845260020190915290205461010090041615155b156111495760ff8481166000908152600160209081526040808320338085526002909101909252918290205491516308538db760e41b8152600481019190915281831660248201526101009091049091166044820152606401610392565b604080518082019091526000808252602082015260005b6040516342c39d9160e01b815260ff871660048201527f00000000000000000000000000000000000000000000000000000000000000006001600160a01b0316906342c39d919060240160408051808303816000875af11580156111c8573d6000803e3d6000fd5b505050506040513d601f19601f820116820180604052508101906111ec91906140c6565b915060005b60ff808816600090815260016020526040902060030154908216101561130957825160ff888116600090815260016020526040812060038101805494841694600290920193909190861690811061124a5761124a61412d565b60009182526020808320909101546001600160a01b0316835282019290925260400190205460ff161480156112e9575060208084015160ff898116600090815260019093526040832060038101805493831694600290920193919290919086169081106112b9576112b961412d565b60009182526020808320909101546001600160a01b0316835282019290925260400190205460ff61010090910416145b156112f75760019150611309565b8061130181614262565b9150506111f1565b508061116057604080516101208101825283815260006020808301828152838501839052606084018390526080840183905260a084018390523360c0850181905260ff8b811660e08701528a8116610100808801919091528d8216865260018086528887209387526002909301855296909420855180518254919095015194861661ffff1990911617939094169095029190911782555181840180549394859460ff1916908360068111156113c0576113c0613dfa565b0217905550604082015160018201805460ff9092166101000261ff001983168117825560608501519262ff00001990911662ffff0019909116176201000083600681111561141057611410613dfa565b021790555060808201516001808301805460a086015160c08701516001600160a01b0316650100000000000265010000000000600160c81b03199115156401000000000264ff000000001960ff9788166301000000021664ffff0000001990941693909317929092171617905560e084015160028401556101009093015160039283015589166000908152602083815260408083209093018054948501815582529081902090920180546001600160a01b03191633908117909155855192860151915190927f5e5c5018f010da587f4ea3677380307dc0fb74d57d455db252799686dbfbd0599261152f928c9291908c908c9060ff95861681529385166020850152918416604084015283166060830152909116608082015260a00190565b60405180910390a29695505050505050565b6115496136c0565b60ff8160ff161061159c5760405162461bcd60e51b815260206004820152601f60248201527f4d6178696d756d206e756d626572206f662067616d65732072656163686564006044820152606401610392565b60ff808216600090815260016020526040902060040154161561160f5760405162461bcd60e51b815260206004820152602560248201527f47616d652077697468207468697320494420616c726561647920696e2070726f604482015264677265737360d81b6064820152608401610392565b60ff8116600081815260016020818152604092839020600401805460ff191690921790915590519182527f13cb55fc1bec4b9f4cd4c22f154240b469cb108a23a35aa599df0c3da46f2d149101610531565b6116696136c0565b611673600061380e565b565b61167d6136c0565b60ff8082166000908152600160208190526040909120600401549091161515146116b95760405162461bcd60e51b815260040161039290613f75565b60ff8116600081815260016020908152604091829020600401805460ff1916905590519182527f4df34531b3f238bc8f90ad83236d8c752e7444e434bb5fc99f888f0a6345c0e79101610531565b61170f6136c0565b60ff80821660009081526001602081905260409091206004015490911615151461174b5760405162461bcd60e51b815260040161039290613f75565b60ff811660009081526001602052604090205461176a906003906143cd565b600003611b165760ff81811660008181526001602081905260409182902001549051634affc34f60e01b8152600481019290925290911660248201527f00000000000000000000000000000000000000000000000000000000000000006001600160a01b031690634affc34f90604401600060405180830381600087803b1580156117f457600080fd5b505af1158015611808573d6000803e3d6000fd5b50505060ff80831660009081526001602081905260408220018054909216925061183183614262565b91906101000a81548160ff021916908360ff160217905550507fab00852360aeece33bb03176d4e62fbb27adf3fd1a81b9d543c1ae388003b0ac81604051611882919060ff91909116815260200190565b60405180910390a160005b60ff8083166000908152600160205260409020600301549082161015611b145760ff80831660009081526001602052604081206003810180549293600290920192849286169081106118e1576118e161412d565b60009182526020808320909101546001600160a01b03168352828101939093526040918201902081518083019092525460ff808216835261010090910416918101919091529050611932818461385e565b15611b015760ff808416600090815260016020526040902060030180546119809285169081106119645761196461412d565b6000918252602090912001546001600160a01b031683856138fd565b600160008460ff1681526020019081526020016000206003018260ff16815481106119ad576119ad61412d565b6000918252602091829020015460405160ff861681526001600160a01b03909116917f7098e36d986448e47b2ec53e41ddd178ac0774637ee2227e84baba39b0c1c7b1910160405180910390a260ff8316600090815260016020819052604090912060030180549091611a1f916143ef565b81548110611a2f57611a2f61412d565b9060005260206000200160009054906101000a90046001600160a01b0316600160008560ff1681526020019081526020016000206003018360ff1681548110611a7a57611a7a61412d565b600091825260208083209190910180546001600160a01b0319166001600160a01b03949094169390931790925560ff85168152600190915260409020600301805480611ac857611ac8614402565b600082815260209020810160001990810180546001600160a01b031916905501905560ff821615611b015781611afd81614418565b9250505b5080611b0c81614262565b91505061188d565b505b60ff811660009081526001602052604081206003015467ffffffffffffffff811115611b4457611b44613b34565b604051908082528060200260200182016040528015611b8957816020015b6040805180820190915260008082526020820152815260200190600190039081611b625790505b5060ff83166000908152600160205260408120600301549192509067ffffffffffffffff811115611bbc57611bbc613b34565b604051908082528060200260200182016040528015611be5578160200160208202803683370190505b50905060005b60ff8085166000908152600160205260409020600301549082161015611c44576001828260ff1681518110611c2257611c2261412d565b9115156020928302919091019091015280611c3c81614262565b915050611beb565b5060005b60ff80851660009081526001602052604090206003015490821610156122eb5760ff8085166000908152600160205260408120600381018054929360029092019284928616908110611c9c57611c9c61412d565b60009182526020808320909101546001600160a01b03908116845290830193909352604090910190206001015465010000000000900416146122d95760ff80851660009081526001602052604081206003810180546002909201939091908516908110611d0b57611d0b61412d565b60009182526020808320909101546001600160a01b0316835282019290925260400190206001015460ff64010000000090910416156122d95760ff8085166000908152600160205260408120600381018054929384936001600160a01b037f00000000000000000000000000000000000000000000000000000000000000001693631cf8a321936002909101928692908916908110611dac57611dac61412d565b60009182526020808320909101546001600160a01b03168352828101939093526040918201812060ff808d1683526001909452918120600381018054939460029092019390918a16908110611e0357611e0361412d565b60009182526020808320909101546001600160a01b03168352828101939093526040918201812060019081015460ff8e8116845291909452918120600381018054948416946002909201939091908b16908110611e6257611e6261412d565b60009182526020808320909101546001600160a01b0316835282019290925260409081019091206001015490516001600160e01b031960e086901b168152611eba93929160ff61010090910416908c90600401614435565b606060405180830381865afa158015611ed7573d6000803e3d6000fd5b505050506040513d601f19601f82011682018060405250810190611efb9190614039565b91509150811561208c57600160008760ff1681526020019081526020016000206003018360ff1681548110611f3257611f3261412d565b600091825260209182902001548251838301516040805160ff808d168252938416958101959095529116908301526001600160a01b0316907fd44ddf7f8e572e76d7ed6bf350d88367a33cf9a7d19d5069c392802305d51f6c9060600160405180910390a260ff80871660009081526001602052604090206003018054611fe0928616908110611fc457611fc461412d565b6000918252602090912001546001600160a01b031684886138fd565b6000848460ff1681518110611ff757611ff761412d565b91151560209283029190910182015260ff8088166000908152600190925260408220600381018054859460029093019388169081106120385761203861412d565b60009182526020808320909101546001600160a01b03168352828101939093526040909101902082518154939092015160ff9081166101000261ffff19909416921691909117919091179055506122d99050565b600160008760ff1681526020019081526020016000206003018360ff16815481106120b9576120b961412d565b600091825260208083209091015460ff808a1684526001909252604083206003810180546001600160a01b03909316947ff1e9c1d54f160cab3c8602dcfbf5fbe3e012ed037d80057eca695f74d26077a094600290930193909289169081106121245761212461412d565b60009182526020808320909101546001600160a01b0316835282810193909352604091820181205460ff8c8116835260019094529181206003810180549385169460029092019390918a1690811061217e5761217e61412d565b6000918252602080832091909101546001600160a01b03168352828101939093526040918201902054865187840151835160ff96871681526101009093048616948301949094528416818301529183166060830152918a16608082015290519081900360a00190a260ff808716600090815260016020526040812060038101805485946002909301939288169081106122195761221961412d565b60009182526020808320909101546001600160a01b031683528281019390935260409182018120845181549585015160ff9081166101000261ffff19909716918116919091179590951790558984168152600190925290206003018054909185169081106122895761228961412d565b6000918252602091829020015460405160ff891681526001600160a01b03909116917f51f35fa2867d710ef60e6209b0ca28b42abd534ed14e1f8394e793f42253c9f6910160405180910390a250505b806122e381614262565b915050611c48565b5060005b60ff808516600090815260016020526040902060030154908216101561267d57818160ff16815181106123245761232461412d565b60200260200101511561266b5760ff808516600090815260016020526040812060038101805492936001600160a01b037f0000000000000000000000000000000000000000000000000000000000000000169363d6192ad39360020192869290919088169081106123975761239761412d565b60009182526020808320909101546001600160a01b03168352828101939093526040918201812060ff808c16835260019094529181206003810180549394600290920193909189169081106123ee576123ee61412d565b60009182526020808320909101546001600160a01b03168352828101939093526040918201812060019081015460ff8d811684529190945291812060038101805462010000909504841694600292909201939091908a169081106124545761245461412d565b60009182526020808320909101546001600160a01b0316835282019290925260409081019091206001015490516001600160e01b031960e086901b1681526124ac93929160ff63010000009091041690600401614453565b6040805180830381865afa1580156124c8573d6000803e3d6000fd5b505050506040513d601f19601f820116820180604052508101906124ec91906140c6565b905080848360ff16815181106125045761250461412d565b6020026020010181905250600160008660ff1681526020019081526020016000206003018260ff168154811061253c5761253c61412d565b600091825260208083209091015460ff80891684526001909252604083206003810180546001600160a01b03909316947f78546d5ff977d70d771d8edba5bdd99150ec97e7837d6e2af4384b1605a4372d94600290930193909288169081106125a7576125a761412d565b60009182526020808320909101546001600160a01b0316835282810193909352604091820181205460ff8b81168352600190945291812060038101805493851694600290920193909189169081106126015761260161412d565b6000918252602080832091909101546001600160a01b03168352828101939093526040918201902054865187840151835160ff96871681526101009093048616948301949094528416818301529183166060830152918916608082015290519081900360a00190a2505b8061267581614262565b9150506122ef565b5060005b60ff8085166000908152600160205260409020600301549082161015612cc55760005b60ff8086166000908152600160205260409020600301549082161015612cb2578060ff168260ff1614612ca057828260ff16815181106126e6576126e661412d565b602002602001015180156127135750828160ff168151811061270a5761270a61412d565b60200260200101515b80156127d1575060ff8086166000908152600160205260408120600381018054600290920193909190861690811061274d5761274d61412d565b60009182526020808320909101546001600160a01b0316835282810193909352604091820181205460ff8981168352600190945291812060038101805493851694600290920193909186169081106127a7576127a761412d565b60009182526020808320909101546001600160a01b0316835282019290925260400190205460ff16145b801561289a575060ff8086166000908152600160205260408120600381018054600290920193909190861690811061280b5761280b61412d565b60009182526020808320909101546001600160a01b0316835282810193909352604091820181205460ff898116835260019094529181206003810180546101009094048516946002909201939091861690811061286a5761286a61412d565b60009182526020808320909101546001600160a01b0316835282019290925260400190205460ff61010090910416145b15612a77576000838360ff16815181106128b6576128b661412d565b6020026020010190151590811515815250506000838260ff16815181106128df576128df61412d565b602002602001019015159081151581525050600160008660ff1681526020019081526020016000206003018260ff168154811061291e5761291e61412d565b6000918252602091829020015460405160ff881681526001600160a01b03909116917f783de3ac95b82563b70ac74b3a843e5f9f71a653b9518e6e1762b39151c0f710910160405180910390a2600160008660ff1681526020019081526020016000206003018160ff16815481106129985761299861412d565b6000918252602091829020015460405160ff881681526001600160a01b03909116917f783de3ac95b82563b70ac74b3a843e5f9f71a653b9518e6e1762b39151c0f710910160405180910390a260ff80861660009081526001602052604090206003018054612a2e928516908110612a1257612a1261412d565b6000918252602090912001546001600160a01b031683876138fd565b60ff80861660009081526001602052604090206003018054612a77928416908110612a5b57612a5b61412d565b6000918252602090912001546001600160a01b031682876138fd565b828260ff1681518110612a8c57612a8c61412d565b60200260200101518015612b20575060ff80861660009081526001602052604081206003810180546002909201939091908616908110612ace57612ace61412d565b60009182526020808320909101546001600160a01b03168352820192909252604001902054845160ff918216918691908416908110612b0f57612b0f61412d565b60200260200101516000015160ff16145b8015612bb1575060ff80861660009081526001602052604081206003810180546002909201939091908616908110612b5a57612b5a61412d565b60009182526020808320909101546001600160a01b03168352820192909252604001902054845160ff6101009092048216918691908416908110612ba057612ba061412d565b60200260200101516020015160ff16145b15612ca057600160008660ff1681526020019081526020016000206003018160ff1681548110612be357612be361412d565b600091825260208083209091015460ff80891684526001909252604090922060030180546001600160a01b039093169290918516908110612c2657612c2661412d565b6000918252602091829020015460405160ff891681526001600160a01b03909116917fb2ee3834f34c038f7f34d57f8ce213e4ee56fecd33556013e0f66b1e32ee14bc910160405180910390a360ff80861660009081526001602052604090206003018054612ca0928516908110612a1257612a1261412d565b80612caa81614262565b9150506126a4565b5080612cbd81614262565b915050612681565b5060005b60ff8085166000908152600160205260409020600301549082161015612e545760006001600160a01b0316600160008660ff1681526020019081526020016000206003018260ff1681548110612d2157612d2161412d565b6000918252602090912001546001600160a01b031603612e425760ff8416600090815260016020819052604090912060030180549091612d60916143ef565b81548110612d7057612d7061412d565b9060005260206000200160009054906101000a90046001600160a01b0316600160008660ff1681526020019081526020016000206003018260ff1681548110612dbb57612dbb61412d565b600091825260208083209190910180546001600160a01b0319166001600160a01b03949094169390931790925560ff86168152600190915260409020600301805480612e0957612e09614402565b600082815260209020810160001990810180546001600160a01b031916905501905560ff811615612e425780612e3e81614418565b9150505b80612e4c81614262565b915050612cc9565b5060ff83166000908152600160205260408120600301549003612ed25760405160ff841681526000907f8403b4a1c998f6768b577f2c265d744e2f4d05982059b4d82b34eb822bdc17d1906020015b60405180910390a260ff83166000908152600160205260409020600401805461ff00191661010017905561320e565b60ff83166000908152600160208190526040909120600301549003612f615760ff831660009081526001602052604081206003018054909190612f1757612f1761412d565b6000918252602091829020015460405160ff861681526001600160a01b03909116917f8403b4a1c998f6768b577f2c265d744e2f4d05982059b4d82b34eb822bdc17d19101612ea3565b60ff831660009081526001602052604081206003018054909190612f8757612f8761412d565b60009182526020808320919091015460405160ff871681526001600160a01b0390911692917f2cee3725d64bc62c413fa35348815210ff376bf4f13627d82b6ac0d0efc6e8cd910160405180910390a360005b60ff80851660009081526001602052604090206003015490821610156131ec5760ff808516600090815260016020526040812060038101805460069460029093019392861690811061302e5761302e61412d565b60009182526020808320909101546001600160a01b03168352820192909252604001902060019081018054909160ff199091169083600681111561307457613074613dfa565b021790555060ff80851660009081526001602052604081206003810180549293600290920192849286169081106130ad576130ad61412d565b6000918252602080832091909101546001600160a01b0316835282810193909352604091820181206001908101805461ff00191661010060ff97881602179055888516825290925281206003810180546006946002909301939286169081106131185761311861412d565b60009182526020808320909101546001600160a01b031683528201929092526040019020600101805462ff000019166201000083600681111561315d5761315d613dfa565b021790555060ff80851660009081526001602052604081206003810180549293600290920192849286169081106131965761319661412d565b60009182526020808320909101546001600160a01b031683528201929092526040019020600101805460ff9290921663010000000263ff00000019909216919091179055806131e481614262565b915050612fda565b5060ff83166000908152600160205260409020600401805463ff000000191690555b60405160ff841681527fd44344392ee117b90bc172ab74cce9c43a862f0d5e11a336b3885fde466c244e9060200160405180910390a160ff831660009081526001602081905260409091206003015411156132765761326c836136ed565b5061327683610494565b505050565b604080518082019091526000808252602082015260ff8083166000908152600160208190526040909120600401549091161515146132cb5760405162461bcd60e51b815260040161039290613f75565b604051630d42527560e11b81526001600160a01b037f00000000000000000000000000000000000000000000000000000000000000001690631a84a4ea9061331b9088908890889060040161408a565b6040805180830381865afa158015613337573d6000803e3d6000fd5b505050506040513d601f19601f8201168201806040525081019061335b91906140c6565b95945050505050565b61336c6136c0565b6001600160a01b03811661339657604051631e4fbdf760e01b815260006004820152602401610392565b61339f8161380e565b50565b60ff808216600090815260016020819052604090912060040154606092161515146133df5760405162461bcd60e51b815260040161039290613f75565b60ff821660009081526001602052604081206003015467ffffffffffffffff81111561340d5761340d613b34565b60405190808252806020026020018201604052801561344657816020015b613433613aa7565b81526020019060019003908161342b5790505b50905060005b60ff84166000908152600160205260409020600301548110156135e55760ff8416600090815260016020526040812060038101805460029092019291849081106134985761349861412d565b60009182526020808320909101546001600160a01b03168352828101939093526040918201902081516101608101909252805460ff808216610120850190815261010090920481166101408501529083526001820154929391929184019116600681111561350857613508613dfa565b600681111561351957613519613dfa565b8152600182015460ff6101008204811660208401526040909201916201000090910416600681111561354d5761354d613dfa565b600681111561355e5761355e613dfa565b8152600182015460ff6301000000820481166020840152640100000000820416151560408301526001600160a01b03650100000000009091041660608201526002820154608082015260039091015460a09091015282518390839081106135c7576135c761412d565b602002602001018190525080806135dd90614323565b91505061344c565b5092915050565b60ff8082166000908152600160208190526040909120600401549091161515146136285760405162461bcd60e51b815260040161039290613f75565b6000805b60ff80841660009081526001602052604090206003015490821610156136b45760ff808416600090815260016020526040902060030180546001600160a01b0387169284169081106136805761368061412d565b6000918252602090912001546001600160a01b0316036136a2578091506136b4565b806136ac81614262565b91505061362c565b506132768382846138fd565b6000546001600160a01b031633146116735760405163118cdaa760e01b8152336004820152602401610392565b60405163436fadf360e11b815260ff8216600482015260009081906001600160a01b037f000000000000000000000000000000000000000000000000000000000000000016906386df5be690602401602060405180830381865afa158015613759573d6000803e3d6000fd5b505050506040513d601f19601f8201168201806040525081019061377d919061406d565b60ff8416600090815260016020526040812080549293509061379e83614323565b909155505060ff838116600081815260016020908152604091829020548251938452908301529183168183015290517f44d8fc4a70679f71d5b762b5218cbfb0c858bb7e015b1effe03793d2909c20f69181900360600190a1505060ff1660009081526001602052604090205490565b600080546001600160a01b038381166001600160a01b0319831681178455604051919092169283917f8be0079c531659141344cd1fd0a4f28419497f9722a3daafe3b4186f6b6457e09190a35050565b6000807f00000000000000000000000000000000000000000000000000000000000000006001600160a01b0316634d02388685856040518363ffffffff1660e01b81526004016138af92919061415c565b608060405180830381865afa1580156138cc573d6000803e3d6000fd5b505050506040513d601f19601f820116820180604052508101906138f09190614307565b6060015115949350505050565b60ff808216600090815260016020526040902060030154908316106139645760405162461bcd60e51b815260206004820152601860248201527f496e6465782076616c7565206f7574206f662072616e676500000000000000006044820152606401610392565b60ff8082166000908152600160208190526040909120600401549091161515146139a05760405162461bcd60e51b815260040161039290613f75565b60405160ff821681526001600160a01b038416907fabe2a4edb03972506a4064b683e5482b1f09f2fb96bd4463b7b15b38cbd5b1869060200160405180910390a260ff80821660008181526001602081815260408084206001600160a01b038a16855260028082018452918520805461ffff1916815580850180546001600160c81b03191690559182018590556003918201859055948452919052909101805491929091908516908110613a5657613a5661412d565b9060005260206000200160006101000a8154816001600160a01b0302191690836001600160a01b03160217905550505050565b508054600082559060005260206000209081019061339f9190613b02565b6040805161016081018252600061012082018181526101408301829052825260208201819052918101829052606081018290526080810182905260a0810182905260c0810182905260e0810182905261010081019190915290565b5b80821115613b175760008155600101613b03565b5090565b600060208284031215613b2d57600080fd5b5035919050565b634e487b7160e01b600052604160045260246000fd5b6040805190810167ffffffffffffffff81118282101715613b6d57613b6d613b34565b60405290565b604051601f8201601f1916810167ffffffffffffffff81118282101715613b9c57613b9c613b34565b604052919050565b60ff8116811461339f57600080fd5b600060408284031215613bc557600080fd5b613bcd613b4a565b90508135613bda81613ba4565b81526020820135613bea81613ba4565b602082015292915050565b803560078110613c0457600080fd5b919050565b60008060008060a08587031215613c1f57600080fd5b613c298686613bb3565b9350613c3760408601613bf5565b92506060850135613c4781613ba4565b91506080850135613c5781613ba4565b939692955090935050565b600060208284031215613c7457600080fd5b8135610d5681613ba4565b600080600080600060a08688031215613c9757600080fd5b613ca086613bf5565b94506020860135613cb081613ba4565b9350613cbe60408701613bf5565b92506060860135613cce81613ba4565b91506080860135613cde81613ba4565b809150509295509295909350565b602080825282518282018190526000919060409081850190868401855b82811015613d3c57613d2c848351805160ff908116835260209182015116910152565b9284019290850190600101613d09565b5091979650505050505050565b60008060608385031215613d5c57600080fd5b613d668484613bb3565b91506040830135613d7681613ba4565b809150509250929050565b60008060408385031215613d9457600080fd5b8235613d9f81613ba4565b91506020830135613d7681613ba4565b600080600060608486031215613dc457600080fd5b8335613dcf81613ba4565b92506020840135613ddf81613ba4565b91506040840135613def81613ba4565b809150509250925092565b634e487b7160e01b600052602160045260246000fd5b60078110613e2e57634e487b7160e01b600052602160045260246000fd5b9052565b613e4d828251805160ff908116835260209182015116910152565b6020810151613e5f6040840182613e10565b5060ff60408201511660608301526060810151613e7f6080840182613e10565b5060ff60808201511660a083015260a0810151613ea060c084018215159052565b5060c08101516001600160a01b03811660e08401525060e081015161010083810191909152015161012090910152565b61014081016106058284613e32565b604081016106058284805160ff908116835260209182015116910152565b600060208284031215613f0f57600080fd5b81356001600160a01b0381168114610d5657600080fd5b6020808252825182820181905260009190848201906040850190845b81811015613f6957613f55838551613e32565b928401926101409290920191600101613f42565b50909695505050505050565b60208082526019908201527f47616d6520686173206e6f742073746172746564207965742100000000000000604082015260600190565b60a08101613fca8287805160ff908116835260209182015116910152565b613fd76040830186613e10565b60ff8416606083015260ff8316608083015295945050505050565b80518015158114613c0457600080fd5b60006040828403121561401457600080fd5b61401c613b4a565b9050815161402981613ba4565b81526020820151613bea81613ba4565b6000806060838503121561404c57600080fd5b61405583613ff2565b91506140648460208501614002565b90509250929050565b60006020828403121561407f57600080fd5b8151610d5681613ba4565b608081016140a88286805160ff908116835260209182015116910152565b6140b56040830185613e10565b60ff83166060830152949350505050565b6000604082840312156140d857600080fd5b610d568383614002565b634e487b7160e01b600052601160045260246000fd5b60ff8181168382160190811115610605576106056140e2565b60ff81811683821602908116908181146135e5576135e56140e2565b634e487b7160e01b600052603260045260246000fd5b60ff8281168282160390811115610605576106056140e2565b6060810161417a8285805160ff908116835260209182015116910152565b60ff831660408301529392505050565b600067ffffffffffffffff8211156141a4576141a4613b34565b5060051b60200190565b600060208083850312156141c157600080fd5b825167ffffffffffffffff8111156141d857600080fd5b8301601f810185136141e957600080fd5b80516141fc6141f78261418a565b613b73565b81815260069190911b8201830190838101908783111561421b57600080fd5b928401925b82841015614244576142328885614002565b82528482019150604084019350614220565b979650505050505050565b80820180821115610605576106056140e2565b600060ff821660ff8103614278576142786140e2565b60010192915050565b60006080828403121561429357600080fd5b6040516080810181811067ffffffffffffffff821117156142b6576142b6613b34565b806040525080915082516142c981613ba4565b815260208301516142d981613ba4565b60208201526142ea60408401613ff2565b60408201526142fb60608401613ff2565b60608201525092915050565b60006080828403121561431957600080fd5b610d568383614281565b600060018201614335576143356140e2565b5060010190565b6000602080838503121561434f57600080fd5b825167ffffffffffffffff81111561436657600080fd5b8301601f8101851361437757600080fd5b80516143856141f78261418a565b81815260079190911b820183019083810190878311156143a457600080fd5b928401925b82841015614244576143bb8885614281565b825284820191506080840193506143a9565b6000826143ea57634e487b7160e01b600052601260045260246000fd5b500690565b81810381811115610605576106056140e2565b634e487b7160e01b600052603160045260246000fd5b600060ff82168061442b5761442b6140e2565b6000190192915050565b845460ff808216835260089190911c16602082015260a08101613fca565b835460ff808216835260089190911c166020820152608081016140a856fea2646970667358221220131ea88aecf4a5e23192c73709a8c1d7926bd070be2f31fddf028a864f2ce86164736f6c63430008140033",
  "linkReferences": {},
  "deployedLinkReferences": {}
}