{
  "_format": "hh-sol-artifact-1",
  "contractName": "GameWOT",
  "sourceName": "contracts/GameWOT.sol",
  "abi": [
    {
      "inputs": [
        {
          "internalType": "address",
          "name": "_mapAddress",
          "type": "address"
        }
      ],
      "stateMutability": "nonpayable",
      "type": "constructor"
    },
    {
      "inputs": [
        {
          "internalType": "address",
          "name": "owner",
          "type": "address"
        }
      ],
      "name": "OwnableInvalidOwner",
      "type": "error"
    },
    {
      "inputs": [
        {
          "internalType": "address",
          "name": "account",
          "type": "address"
        }
      ],
      "name": "OwnableUnauthorizedAccount",
      "type": "error"
    },
    {
      "inputs": [
        {
          "internalType": "address",
          "name": "player",
          "type": "address"
        },
        {
          "internalType": "uint8",
          "name": "q",
          "type": "uint8"
        },
        {
          "internalType": "uint8",
          "name": "r",
          "type": "uint8"
        }
      ],
      "name": "ShipAlreadyAdded",
      "type": "error"
    },
    {
      "anonymous": false,
      "inputs": [
        {
          "indexed": false,
          "internalType": "uint8",
          "name": "gameId",
          "type": "uint8"
        }
      ],
      "name": "CommitPhaseStarted",
      "type": "event"
    },
    {
      "anonymous": false,
      "inputs": [
        {
          "indexed": false,
          "internalType": "uint8",
          "name": "gameId",
          "type": "uint8"
        }
      ],
      "name": "GameEnded",
      "type": "event"
    },
    {
      "anonymous": false,
      "inputs": [
        {
          "indexed": false,
          "internalType": "uint8",
          "name": "gameId",
          "type": "uint8"
        }
      ],
      "name": "GameStarted",
      "type": "event"
    },
    {
      "anonymous": false,
      "inputs": [
        {
          "indexed": true,
          "internalType": "bool",
          "name": "gameStatus",
          "type": "bool"
        },
        {
          "indexed": true,
          "internalType": "address",
          "name": "winnerAddress",
          "type": "address"
        },
        {
          "indexed": false,
          "internalType": "uint8",
          "name": "gameId",
          "type": "uint8"
        }
      ],
      "name": "GameUpdated",
      "type": "event"
    },
    {
      "anonymous": false,
      "inputs": [
        {
          "indexed": true,
          "internalType": "address",
          "name": "winner",
          "type": "address"
        },
        {
          "indexed": false,
          "internalType": "uint8",
          "name": "gameId",
          "type": "uint8"
        }
      ],
      "name": "GameWinner",
      "type": "event"
    },
    {
      "anonymous": false,
      "inputs": [
        {
          "indexed": false,
          "internalType": "uint8",
          "name": "gameId",
          "type": "uint8"
        },
        {
          "indexed": false,
          "internalType": "uint8",
          "name": "q",
          "type": "uint8"
        },
        {
          "indexed": false,
          "internalType": "uint8",
          "name": "r",
          "type": "uint8"
        }
      ],
      "name": "Island",
      "type": "event"
    },
    {
      "anonymous": false,
      "inputs": [
        {
          "indexed": false,
          "internalType": "uint8",
          "name": "radius",
          "type": "uint8"
        },
        {
          "indexed": false,
          "internalType": "uint8",
          "name": "gameId",
          "type": "uint8"
        }
      ],
      "name": "MapInitialized",
      "type": "event"
    },
    {
      "anonymous": false,
      "inputs": [
        {
          "indexed": false,
          "internalType": "uint8",
          "name": "gameId",
          "type": "uint8"
        }
      ],
      "name": "MapShrink",
      "type": "event"
    },
    {
      "anonymous": false,
      "inputs": [
        {
          "indexed": true,
          "internalType": "address",
          "name": "player",
          "type": "address"
        },
        {
          "indexed": false,
          "internalType": "uint8",
          "name": "gameId",
          "type": "uint8"
        }
      ],
      "name": "MoveCommitted",
      "type": "event"
    },
    {
      "anonymous": false,
      "inputs": [
        {
          "indexed": true,
          "internalType": "address",
          "name": "player",
          "type": "address"
        },
        {
          "indexed": false,
          "internalType": "uint8",
          "name": "gameId",
          "type": "uint8"
        },
        {
          "indexed": false,
          "internalType": "uint256",
          "name": "roundId",
          "type": "uint256"
        },
        {
          "indexed": false,
          "internalType": "uint8",
          "name": "destQ",
          "type": "uint8"
        },
        {
          "indexed": false,
          "internalType": "uint8",
          "name": "destR",
          "type": "uint8"
        },
        {
          "indexed": false,
          "internalType": "uint8",
          "name": "shotQ",
          "type": "uint8"
        },
        {
          "indexed": false,
          "internalType": "uint8",
          "name": "shotR",
          "type": "uint8"
        }
      ],
      "name": "MoveSubmitted",
      "type": "event"
    },
    {
      "anonymous": false,
      "inputs": [
        {
          "indexed": false,
          "internalType": "uint8",
          "name": "gameId",
          "type": "uint8"
        },
        {
          "indexed": false,
          "internalType": "uint256",
          "name": "roundId",
          "type": "uint256"
        },
        {
          "indexed": false,
          "internalType": "uint8",
          "name": "radius",
          "type": "uint8"
        }
      ],
      "name": "NewRound",
      "type": "event"
    },
    {
      "anonymous": false,
      "inputs": [
        {
          "indexed": true,
          "internalType": "address",
          "name": "previousOwner",
          "type": "address"
        },
        {
          "indexed": true,
          "internalType": "address",
          "name": "newOwner",
          "type": "address"
        }
      ],
      "name": "OwnershipTransferred",
      "type": "event"
    },
    {
      "anonymous": false,
      "inputs": [
        {
          "indexed": true,
          "internalType": "address",
          "name": "player",
          "type": "address"
        },
        {
          "indexed": false,
          "internalType": "uint8",
          "name": "gameId",
          "type": "uint8"
        },
        {
          "indexed": false,
          "internalType": "uint8",
          "name": "q",
          "type": "uint8"
        },
        {
          "indexed": false,
          "internalType": "uint8",
          "name": "r",
          "type": "uint8"
        },
        {
          "indexed": false,
          "internalType": "uint8",
          "name": "speed",
          "type": "uint8"
        },
        {
          "indexed": false,
          "internalType": "uint8",
          "name": "range",
          "type": "uint8"
        }
      ],
      "name": "PlayerAdded",
      "type": "event"
    },
    {
      "anonymous": false,
      "inputs": [
        {
          "indexed": true,
          "internalType": "address",
          "name": "player",
          "type": "address"
        },
        {
          "indexed": false,
          "internalType": "uint8",
          "name": "gameId",
          "type": "uint8"
        }
      ],
      "name": "PlayerDefeated",
      "type": "event"
    },
    {
      "anonymous": false,
      "inputs": [
        {
          "indexed": true,
          "internalType": "address",
          "name": "captain",
          "type": "address"
        },
        {
          "indexed": false,
          "internalType": "uint8",
          "name": "gameId",
          "type": "uint8"
        },
        {
          "indexed": false,
          "internalType": "uint8",
          "name": "q",
          "type": "uint8"
        },
        {
          "indexed": false,
          "internalType": "uint8",
          "name": "r",
          "type": "uint8"
        }
      ],
      "name": "ShipCollidedWithIsland",
      "type": "event"
    },
    {
      "anonymous": false,
      "inputs": [
        {
          "indexed": true,
          "internalType": "address",
          "name": "victim",
          "type": "address"
        },
        {
          "indexed": true,
          "internalType": "address",
          "name": "attacker",
          "type": "address"
        },
        {
          "indexed": false,
          "internalType": "uint8",
          "name": "gameId",
          "type": "uint8"
        }
      ],
      "name": "ShipHit",
      "type": "event"
    },
    {
      "anonymous": false,
      "inputs": [
        {
          "indexed": true,
          "internalType": "address",
          "name": "captain",
          "type": "address"
        },
        {
          "indexed": false,
          "internalType": "uint8",
          "name": "initialQ",
          "type": "uint8"
        },
        {
          "indexed": false,
          "internalType": "uint8",
          "name": "initialR",
          "type": "uint8"
        },
        {
          "indexed": false,
          "internalType": "uint8",
          "name": "q",
          "type": "uint8"
        },
        {
          "indexed": false,
          "internalType": "uint8",
          "name": "r",
          "type": "uint8"
        },
        {
          "indexed": false,
          "internalType": "uint8",
          "name": "gameId",
          "type": "uint8"
        }
      ],
      "name": "ShipMoved",
      "type": "event"
    },
    {
      "anonymous": false,
      "inputs": [
        {
          "indexed": true,
          "internalType": "address",
          "name": "captain",
          "type": "address"
        },
        {
          "indexed": false,
          "internalType": "uint8",
          "name": "gameId",
          "type": "uint8"
        }
      ],
      "name": "ShipMovedInGame",
      "type": "event"
    },
    {
      "anonymous": false,
      "inputs": [
        {
          "indexed": true,
          "internalType": "address",
          "name": "captain",
          "type": "address"
        },
        {
          "indexed": false,
          "internalType": "uint8",
          "name": "fromQ",
          "type": "uint8"
        },
        {
          "indexed": false,
          "internalType": "uint8",
          "name": "fromR",
          "type": "uint8"
        },
        {
          "indexed": false,
          "internalType": "uint8",
          "name": "shotQ",
          "type": "uint8"
        },
        {
          "indexed": false,
          "internalType": "uint8",
          "name": "shotR",
          "type": "uint8"
        },
        {
          "indexed": false,
          "internalType": "uint8",
          "name": "gameId",
          "type": "uint8"
        }
      ],
      "name": "ShipShot",
      "type": "event"
    },
    {
      "anonymous": false,
      "inputs": [
        {
          "indexed": true,
          "internalType": "address",
          "name": "captain",
          "type": "address"
        },
        {
          "indexed": false,
          "internalType": "uint8",
          "name": "gameId",
          "type": "uint8"
        }
      ],
      "name": "ShipSunk",
      "type": "event"
    },
    {
      "anonymous": false,
      "inputs": [
        {
          "indexed": true,
          "internalType": "address",
          "name": "captain",
          "type": "address"
        },
        {
          "indexed": false,
          "internalType": "uint8",
          "name": "gameId",
          "type": "uint8"
        }
      ],
      "name": "ShipSunkOutOfMap",
      "type": "event"
    },
    {
      "anonymous": false,
      "inputs": [
        {
          "indexed": false,
          "internalType": "uint8",
          "name": "gameId",
          "type": "uint8"
        },
        {
          "indexed": false,
          "internalType": "uint256",
          "name": "round",
          "type": "uint256"
        }
      ],
      "name": "SubmitPhaseStarted",
      "type": "event"
    },
    {
      "anonymous": false,
      "inputs": [
        {
          "indexed": false,
          "internalType": "uint8",
          "name": "gameId",
          "type": "uint8"
        }
      ],
      "name": "WorldUpdated",
      "type": "event"
    },
    {
      "inputs": [
        {
          "internalType": "uint8",
          "name": "gameId",
          "type": "uint8"
        },
        {
          "internalType": "uint8",
          "name": "_speed",
          "type": "uint8"
        },
        {
          "internalType": "uint8",
          "name": "_range",
          "type": "uint8"
        }
      ],
      "name": "addShip",
      "outputs": [
        {
          "components": [
            {
              "components": [
                {
                  "internalType": "uint8",
                  "name": "q",
                  "type": "uint8"
                },
                {
                  "internalType": "uint8",
                  "name": "r",
                  "type": "uint8"
                }
              ],
              "internalType": "struct SharedStructs.Coordinate",
              "name": "coordinate",
              "type": "tuple"
            },
            {
              "internalType": "enum SharedStructs.Directions",
              "name": "travelDirection",
              "type": "uint8"
            },
            {
              "internalType": "uint8",
              "name": "travelDistance",
              "type": "uint8"
            },
            {
              "internalType": "enum SharedStructs.Directions",
              "name": "shotDirection",
              "type": "uint8"
            },
            {
              "internalType": "uint8",
              "name": "shotDistance",
              "type": "uint8"
            },
            {
              "internalType": "bool",
              "name": "publishedMove",
              "type": "bool"
            },
            {
              "internalType": "address",
              "name": "captain",
              "type": "address"
            },
            {
              "internalType": "uint256",
              "name": "yachtSpeed",
              "type": "uint256"
            },
            {
              "internalType": "uint256",
              "name": "yachtRange",
              "type": "uint256"
            }
          ],
          "internalType": "struct GameWOT.Ship",
          "name": "",
          "type": "tuple"
        }
      ],
      "stateMutability": "nonpayable",
      "type": "function"
    },
    {
      "inputs": [
        {
          "internalType": "uint8",
          "name": "gameId",
          "type": "uint8"
        }
      ],
      "name": "allowSubmitMoves",
      "outputs": [],
      "stateMutability": "nonpayable",
      "type": "function"
    },
    {
      "inputs": [
        {
          "internalType": "uint8",
          "name": "gameId",
          "type": "uint8"
        }
      ],
      "name": "endGame",
      "outputs": [],
      "stateMutability": "nonpayable",
      "type": "function"
    },
    {
      "inputs": [
        {
          "internalType": "uint256",
          "name": "",
          "type": "uint256"
        }
      ],
      "name": "games",
      "outputs": [
        {
          "internalType": "uint256",
          "name": "round",
          "type": "uint256"
        },
        {
          "internalType": "uint8",
          "name": "shrinkNo",
          "type": "uint8"
        },
        {
          "internalType": "bool",
          "name": "gameInProgress",
          "type": "bool"
        },
        {
          "internalType": "bool",
          "name": "stopAddingShips",
          "type": "bool"
        },
        {
          "internalType": "bool",
          "name": "letCommitMoves",
          "type": "bool"
        },
        {
          "internalType": "bool",
          "name": "letSubmitMoves",
          "type": "bool"
        }
      ],
      "stateMutability": "view",
      "type": "function"
    },
    {
      "inputs": [
        {
          "components": [
            {
              "internalType": "uint8",
              "name": "q",
              "type": "uint8"
            },
            {
              "internalType": "uint8",
              "name": "r",
              "type": "uint8"
            }
          ],
          "internalType": "struct SharedStructs.Coordinate",
          "name": "_coord",
          "type": "tuple"
        },
        {
          "internalType": "uint8",
          "name": "gameId",
          "type": "uint8"
        }
      ],
      "name": "getCell",
      "outputs": [
        {
          "components": [
            {
              "internalType": "uint8",
              "name": "q",
              "type": "uint8"
            },
            {
              "internalType": "uint8",
              "name": "r",
              "type": "uint8"
            },
            {
              "internalType": "bool",
              "name": "island",
              "type": "bool"
            },
            {
              "internalType": "bool",
              "name": "exists",
              "type": "bool"
            }
          ],
          "internalType": "struct SharedStructs.Cell",
          "name": "",
          "type": "tuple"
        }
      ],
      "stateMutability": "view",
      "type": "function"
    },
    {
      "inputs": [
        {
          "internalType": "uint8",
          "name": "gameId",
          "type": "uint8"
        }
      ],
      "name": "getCells",
      "outputs": [
        {
          "components": [
            {
              "internalType": "uint8",
              "name": "q",
              "type": "uint8"
            },
            {
              "internalType": "uint8",
              "name": "r",
              "type": "uint8"
            }
          ],
          "internalType": "struct SharedStructs.Coordinate[]",
          "name": "",
          "type": "tuple[]"
        }
      ],
      "stateMutability": "view",
      "type": "function"
    },
    {
      "inputs": [
        {
          "internalType": "uint8",
          "name": "gameId",
          "type": "uint8"
        }
      ],
      "name": "getRadius",
      "outputs": [
        {
          "internalType": "uint8",
          "name": "",
          "type": "uint8"
        }
      ],
      "stateMutability": "view",
      "type": "function"
    },
    {
      "inputs": [
        {
          "internalType": "uint8",
          "name": "gameId",
          "type": "uint8"
        }
      ],
      "name": "getShips",
      "outputs": [
        {
          "components": [
            {
              "components": [
                {
                  "internalType": "uint8",
                  "name": "q",
                  "type": "uint8"
                },
                {
                  "internalType": "uint8",
                  "name": "r",
                  "type": "uint8"
                }
              ],
              "internalType": "struct SharedStructs.Coordinate",
              "name": "coordinate",
              "type": "tuple"
            },
            {
              "internalType": "enum SharedStructs.Directions",
              "name": "travelDirection",
              "type": "uint8"
            },
            {
              "internalType": "uint8",
              "name": "travelDistance",
              "type": "uint8"
            },
            {
              "internalType": "enum SharedStructs.Directions",
              "name": "shotDirection",
              "type": "uint8"
            },
            {
              "internalType": "uint8",
              "name": "shotDistance",
              "type": "uint8"
            },
            {
              "internalType": "bool",
              "name": "publishedMove",
              "type": "bool"
            },
            {
              "internalType": "address",
              "name": "captain",
              "type": "address"
            },
            {
              "internalType": "uint256",
              "name": "yachtSpeed",
              "type": "uint256"
            },
            {
              "internalType": "uint256",
              "name": "yachtRange",
              "type": "uint256"
            }
          ],
          "internalType": "struct GameWOT.Ship[]",
          "name": "",
          "type": "tuple[]"
        }
      ],
      "stateMutability": "view",
      "type": "function"
    },
    {
      "inputs": [
        {
          "internalType": "uint8",
          "name": "_radius",
          "type": "uint8"
        },
        {
          "internalType": "uint8",
          "name": "gameId",
          "type": "uint8"
        }
      ],
      "name": "initGame",
      "outputs": [],
      "stateMutability": "nonpayable",
      "type": "function"
    },
    {
      "inputs": [
        {
          "components": [
            {
              "internalType": "uint8",
              "name": "q",
              "type": "uint8"
            },
            {
              "internalType": "uint8",
              "name": "r",
              "type": "uint8"
            }
          ],
          "internalType": "struct SharedStructs.Coordinate",
          "name": "_start",
          "type": "tuple"
        },
        {
          "internalType": "enum SharedStructs.Directions",
          "name": "_dir",
          "type": "uint8"
        },
        {
          "internalType": "uint8",
          "name": "_distance",
          "type": "uint8"
        },
        {
          "internalType": "uint8",
          "name": "gameId",
          "type": "uint8"
        }
      ],
      "name": "move",
      "outputs": [
        {
          "components": [
            {
              "internalType": "uint8",
              "name": "q",
              "type": "uint8"
            },
            {
              "internalType": "uint8",
              "name": "r",
              "type": "uint8"
            }
          ],
          "internalType": "struct SharedStructs.Coordinate",
          "name": "",
          "type": "tuple"
        }
      ],
      "stateMutability": "view",
      "type": "function"
    },
    {
      "inputs": [],
      "name": "owner",
      "outputs": [
        {
          "internalType": "address",
          "name": "",
          "type": "address"
        }
      ],
      "stateMutability": "view",
      "type": "function"
    },
    {
      "inputs": [],
      "name": "renounceOwnership",
      "outputs": [],
      "stateMutability": "nonpayable",
      "type": "function"
    },
    {
      "inputs": [
        {
          "internalType": "enum SharedStructs.Directions",
          "name": "_travelDirection",
          "type": "uint8"
        },
        {
          "internalType": "uint8",
          "name": "_travelDistance",
          "type": "uint8"
        },
        {
          "internalType": "enum SharedStructs.Directions",
          "name": "_shotDirection",
          "type": "uint8"
        },
        {
          "internalType": "uint8",
          "name": "_shotDistance",
          "type": "uint8"
        },
        {
          "internalType": "uint8",
          "name": "gameId",
          "type": "uint8"
        }
      ],
      "name": "revealMove",
      "outputs": [],
      "stateMutability": "nonpayable",
      "type": "function"
    },
    {
      "inputs": [
        {
          "internalType": "uint8",
          "name": "gameId",
          "type": "uint8"
        }
      ],
      "name": "startNewGame",
      "outputs": [],
      "stateMutability": "nonpayable",
      "type": "function"
    },
    {
      "inputs": [
        {
          "internalType": "address",
          "name": "newOwner",
          "type": "address"
        }
      ],
      "name": "transferOwnership",
      "outputs": [],
      "stateMutability": "nonpayable",
      "type": "function"
    },
    {
      "inputs": [
        {
          "components": [
            {
              "internalType": "uint8",
              "name": "q",
              "type": "uint8"
            },
            {
              "internalType": "uint8",
              "name": "r",
              "type": "uint8"
            }
          ],
          "internalType": "struct SharedStructs.Coordinate",
          "name": "_startCell",
          "type": "tuple"
        },
        {
          "internalType": "enum SharedStructs.Directions",
          "name": "_direction",
          "type": "uint8"
        },
        {
          "internalType": "uint8",
          "name": "_distance",
          "type": "uint8"
        },
        {
          "internalType": "uint8",
          "name": "gameId",
          "type": "uint8"
        }
      ],
      "name": "travel",
      "outputs": [],
      "stateMutability": "nonpayable",
      "type": "function"
    },
    {
      "inputs": [
        {
          "internalType": "uint8",
          "name": "gameId",
          "type": "uint8"
        }
      ],
      "name": "updateWorld",
      "outputs": [],
      "stateMutability": "nonpayable",
      "type": "function"
    }
  ],
  "bytecode": "0x60a06040523480156200001157600080fd5b506040516200459a3803806200459a8339810160408190526200003491620000c9565b33806200005b57604051631e4fbdf760e01b81526000600482015260240160405180910390fd5b620000668162000079565b506001600160a01b0316608052620000fb565b600080546001600160a01b038381166001600160a01b0319831681178455604051919092169283917f8be0079c531659141344cd1fd0a4f28419497f9722a3daafe3b4186f6b6457e09190a35050565b600060208284031215620000dc57600080fd5b81516001600160a01b0381168114620000f457600080fd5b9392505050565b60805161441a62000180600039600081816103a001528181610592015281816107b901528181610838015281816109a701528181610b3101528181610cde01528181610e8e01528181610f0c015281816111ce015281816117fe01528181611dc1015281816123ac0152818161331901528181613749015261389a015261441a6000f3fe608060405234801561001057600080fd5b506004361061010b5760003560e01c80636613b616116100a25780638da5cb5b116100715780638da5cb5b146102d5578063978ac356146102f0578063d085a86f14610303578063f2fde38b14610323578063fd8704461461033657600080fd5b80636613b616146102875780636ed296e4146102a7578063715018a6146102ba578063863375ac146102c257600080fd5b80634998b8fb116100de5780634998b8fb146101ec5780634aac9b8b146101ff5780634d0238861461021f578063508236ca1461027457600080fd5b8063117a5b90146101105780631cf8a3211461019f5780632923a41f146101b457806334361208146101c7575b600080fd5b61016161011e366004613b52565b600160208190526000918252604090912080549181015460049091015460ff91821691818116916101008104821691620100008204811691630100000090041686565b6040805196875260ff909516602087015292151593850193909352151560608401529015156080830152151560a082015260c0015b60405180910390f35b6101b26101ad366004613c40565b610356565b005b6101b26101c2366004613c99565b610494565b6101da6101d5366004613c99565b61053c565b60405160ff9091168152602001610196565b6101b26101fa366004613cb6565b61060b565b61021261020d366004613c99565b61094f565b6040516101969190613d23565b61023261022d366004613d80565b610c67565b6040516101969190600060808201905060ff835116825260ff602084015116602083015260408301511515604083015260608301511515606083015292915050565b6101b2610282366004613db8565b610d5d565b61029a610295366004613de6565b611080565b6040516101969190613f07565b6101b26102b5366004613c99565b611597565b6101b26116b7565b6101b26102d0366004613c99565b6116cb565b6000546040516001600160a01b039091168152602001610196565b6101b26102fe366004613c99565b61175d565b610316610311366004613c40565b6132b2565b6040516101969190613f16565b6101b2610331366004613f34565b61339b565b610349610344366004613c99565b6133d9565b6040516101969190613f5d565b60ff80821660009081526001602081905260409091206004015490911615151461039b5760405162461bcd60e51b815260040161039290613fac565b60405180910390fd5b6000807f00000000000000000000000000000000000000000000000000000000000000006001600160a01b0316631cf8a321878787876040518563ffffffff1660e01b81526004016103f09493929190613fe3565b606060405180830381865afa15801561040d573d6000803e3d6000fd5b505050506040513d601f19601f820116820180604052508101906104319190614070565b91509150811561044a576104453384613623565b61048c565b805160ff8481166000908152600160209081526040808320338452600201825290912080549185015183166101000261ffff1990921692909316919091171790555b505050505050565b61049c6136f7565b60ff8082166000908152600160208190526040909120600401549091161515146104d85760405162461bcd60e51b815260040161039290613fac565b60ff811660008181526001602090815260409182902060048101805463ff00000019166301000000179055548251938452908301527f8f2926f00686a0050801f0bdb34f506a8467984df7f619eca0dac070da51babc91015b60405180910390a150565b60ff808216600090815260016020819052604082206004015491929190911615151461057a5760405162461bcd60e51b815260040161039290613fac565b60405163436fadf360e11b815260ff831660048201527f00000000000000000000000000000000000000000000000000000000000000006001600160a01b0316906386df5be690602401602060405180830381865afa1580156105e1573d6000803e3d6000fd5b505050506040513d601f19601f8201168201806040525081019061060591906140a4565b92915050565b60ff808216600090815260016020819052604090912060040154630100000090049091161515146106885760405162461bcd60e51b815260206004820152602160248201527f5375626d6974206d6f76657320686173206e6f742073746172746564207965746044820152602160f81b6064820152608401610392565b60ff8082166000908152600160208190526040909120600401549091161515146106c45760405162461bcd60e51b815260040161039290613fac565b60ff8116600090815260016020818152604080842033855260020190915290912080820180549192889260ff19169083600681111561070557610705613e31565b021790555060018101805461ff0019811661010060ff891602908117835586929162ffff00191662ff000019909116176201000083600681111561074b5761074b613e31565b021790555060018101805464ff000000001960ff8087166301000000029190911664ffff000000199092169190911764010000000017909155604080518082018252835480841682526101009004909216602083015251630d42527560e11b81526000906001600160a01b037f00000000000000000000000000000000000000000000000000000000000000001690631a84a4ea906107f29085908c908c906004016140c1565b6040805180830381865afa15801561080e573d6000803e3d6000fd5b505050506040513d601f19601f8201168201806040525081019061083291906140fd565b905060007f00000000000000000000000000000000000000000000000000000000000000006001600160a01b0316631a84a4ea8389896040518463ffffffff1660e01b8152600401610886939291906140c1565b6040805180830381865afa1580156108a2573d6000803e3d6000fd5b505050506040513d601f19601f820116820180604052508101906108c691906140fd565b60ff8681166000818152600160209081526040918290205487518883015187518885015186519788529487019390935290861685850152851660608501528416608084015290921660a0820152905191925033917faff0b78027ac9f4904ee624bc84e3126d0e7d96ce215c5db5158441acb0b38cf9181900360c00190a2505050505050505050565b60ff8082166000908152600160208190526040909120600401546060921615151461098c5760405162461bcd60e51b815260040161039290613fac565b60405163436fadf360e11b815260ff831660048201526000907f00000000000000000000000000000000000000000000000000000000000000006001600160a01b0316906386df5be690602401602060405180830381865afa1580156109f6573d6000803e3d6000fd5b505050506040513d601f19601f82011682018060405250810190610a1a91906140a4565b90506000610a2982600161412f565b610a34836003614148565b610a3e9190614148565b610a4990600161412f565b60ff16905060008167ffffffffffffffff811115610a6957610a69613b6b565b604051908082528060200260200182016040528015610aae57816020015b6040805180820190915260008082526020820152815260200190600190039081610a875790505b50905060405180604001604052808460ff1681526020018460ff1681525081600081518110610adf57610adf614164565b602090810291909101015260015b8360ff168160ff1611610c5e57600081610b0860018261417a565b610b13906003614148565b610b1d9190614148565b610b2890600161412f565b60ff16905060007f00000000000000000000000000000000000000000000000000000000000000006001600160a01b03166339e5c4a085600081518110610b7157610b71614164565b6020026020010151856040518363ffffffff1660e01b8152600401610b97929190614193565b600060405180830381865afa158015610bb4573d6000803e3d6000fd5b505050506040513d6000823e601f3d908101601f19168201604052610bdc91908101906141c1565b905060005b81518160ff161015610c4857818160ff1681518110610c0257610c02614164565b6020026020010151858260ff1685610c1a9190614274565b81518110610c2a57610c2a614164565b60200260200101819052508080610c4090614287565b915050610be1565b5050508080610c5690614287565b915050610aed565b50949350505050565b60408051608081018252600080825260208201819052918101829052606081019190915260ff808316600090815260016020819052604090912060040154909116151514610cc75760405162461bcd60e51b815260040161039290613fac565b6040516326811c4360e11b81526001600160a01b037f00000000000000000000000000000000000000000000000000000000000000001690634d02388690610d159086908690600401614193565b608060405180830381865afa158015610d32573d6000803e3d6000fd5b505050506040513d601f19601f82011682018060405250810190610d5691906142a6565b9392505050565b610d656136f7565b60ff808216600090815260016020819052604090912060040154909116151514610da15760405162461bcd60e51b815260040161039290613fac565b60005b60ff8216600090815260016020526040902060030154811015610e4c5760ff821660009081526001602052604081206003810180546002909201929184908110610df057610df0614164565b60009182526020808320909101546001600160a01b031683528201929092526040018120805461ffff191681556001810180546001600160c81b0319169055600281018290556003015580610e4481614327565b915050610da4565b5060ff81166000908152600160205260408120610e6e91600390910190613ac0565b604051631a405d8760e31b815260ff8084166004830152821660248201527f00000000000000000000000000000000000000000000000000000000000000006001600160a01b03169063d202ec3890604401600060405180830381600087803b158015610eda57600080fd5b505af1158015610eee573d6000803e3d6000fd5b50506040516318068d3760e01b815260ff84166004820152600092507f00000000000000000000000000000000000000000000000000000000000000006001600160a01b031691506318068d37906024016000604051808303816000875af1158015610f5e573d6000803e3d6000fd5b505050506040513d6000823e601f3d908101601f19168201604052610f8691908101906141c1565b905060005b8151811015611033577f467094a458c0bec1c428932110a425196f8ac07c8ba99cd3422273a36044f83283838381518110610fc857610fc8614164565b602002602001015160000151848481518110610fe657610fe6614164565b6020026020010151602001516040516110199392919060ff93841681529183166020830152909116604082015260600190565b60405180910390a18061102b81614327565b915050610f8b565b506040805160ff8086168252841660208201527fd76a0a97b7d547fef69b0cd90fb02087b761703ae2b5e4e91a99e8fd17e308ad910160405180910390a161107a82613724565b50505050565b611088613ade565b60ff8085166000908152600160205260409020600401546101009004161580156110ce575060ff8085166000908152600160208190526040909120600401549091161515145b6110ea5760405162461bcd60e51b815260040161039290613fac565b60ff80851660009081526001602090815260408083203384526002019091529020541615801590611141575060ff808516600090815260016020908152604080832033845260020190915290205461010090041615155b1561119f5760ff8481166000908152600160209081526040808320338085526002909101909252918290205491516308538db760e41b8152600481019190915281831660248201526101009091049091166044820152606401610392565b604080518082019091526000808252602082015260005b6040516342c39d9160e01b815260ff871660048201527f00000000000000000000000000000000000000000000000000000000000000006001600160a01b0316906342c39d919060240160408051808303816000875af115801561121e573d6000803e3d6000fd5b505050506040513d601f19601f8201168201806040525081019061124291906140fd565b915060005b60ff808816600090815260016020526040902060030154908216101561135f57825160ff88811660009081526001602052604081206003810180549484169460029092019390919086169081106112a0576112a0614164565b60009182526020808320909101546001600160a01b0316835282019290925260400190205460ff1614801561133f575060208084015160ff8981166000908152600190935260408320600381018054938316946002909201939192909190861690811061130f5761130f614164565b60009182526020808320909101546001600160a01b0316835282019290925260400190205460ff61010090910416145b1561134d576001915061135f565b8061135781614287565b915050611247565b50806111b657604080516101208101825283815260006020808301828152838501839052606084018390526080840183905260a084018390523360c0850181905260ff8b811660e08701528a8116610100808801919091528d8216865260018086528887209387526002909301855296909420855180518254919095015194861661ffff1990911617939094169095029190911782555181840180549394859460ff19169083600681111561141657611416613e31565b0217905550604082015160018201805460ff9092166101000261ff001983168117825560608501519262ff00001990911662ffff0019909116176201000083600681111561146657611466613e31565b021790555060808201516001808301805460a086015160c08701516001600160a01b0316650100000000000265010000000000600160c81b03199115156401000000000264ff000000001960ff9788166301000000021664ffff0000001990941693909317929092171617905560e084015160028401556101009093015160039283015589166000908152602083815260408083209093018054948501815582529081902090920180546001600160a01b03191633908117909155855192860151915190927f5e5c5018f010da587f4ea3677380307dc0fb74d57d455db252799686dbfbd05992611585928c9291908c908c9060ff95861681529385166020850152918416604084015283166060830152909116608082015260a00190565b60405180910390a29695505050505050565b61159f6136f7565b60ff8160ff16106115f25760405162461bcd60e51b815260206004820152601f60248201527f4d6178696d756d206e756d626572206f662067616d65732072656163686564006044820152606401610392565b60ff80821660009081526001602052604090206004015416156116655760405162461bcd60e51b815260206004820152602560248201527f47616d652077697468207468697320494420616c726561647920696e2070726f604482015264677265737360d81b6064820152608401610392565b60ff8116600081815260016020818152604092839020600401805460ff191690921790915590519182527f13cb55fc1bec4b9f4cd4c22f154240b469cb108a23a35aa599df0c3da46f2d149101610531565b6116bf6136f7565b6116c96000613845565b565b6116d36136f7565b60ff80821660009081526001602081905260409091206004015490911615151461170f5760405162461bcd60e51b815260040161039290613fac565b60ff8116600081815260016020908152604091829020600401805460ff1916905590519182527f4df34531b3f238bc8f90ad83236d8c752e7444e434bb5fc99f888f0a6345c0e79101610531565b6117656136f7565b60ff8082166000908152600160208190526040909120600401549091161515146117a15760405162461bcd60e51b815260040161039290613fac565b60ff81166000908152600160205260409020546117c090600390614340565b600003611b6c5760ff81811660008181526001602081905260409182902001549051634affc34f60e01b8152600481019290925290911660248201527f00000000000000000000000000000000000000000000000000000000000000006001600160a01b031690634affc34f90604401600060405180830381600087803b15801561184a57600080fd5b505af115801561185e573d6000803e3d6000fd5b50505060ff80831660009081526001602081905260408220018054909216925061188783614287565b91906101000a81548160ff021916908360ff160217905550507fab00852360aeece33bb03176d4e62fbb27adf3fd1a81b9d543c1ae388003b0ac816040516118d8919060ff91909116815260200190565b60405180910390a160005b60ff8083166000908152600160205260409020600301549082161015611b6a5760ff808316600090815260016020526040812060038101805492936002909201928492861690811061193757611937614164565b60009182526020808320909101546001600160a01b03168352828101939093526040918201902081518083019092525460ff8082168352610100909104169181019190915290506119888184613895565b15611b575760ff808416600090815260016020526040902060030180546119d69285169081106119ba576119ba614164565b6000918252602090912001546001600160a01b03168385613934565b600160008460ff1681526020019081526020016000206003018260ff1681548110611a0357611a03614164565b6000918252602091829020015460405160ff861681526001600160a01b03909116917f7098e36d986448e47b2ec53e41ddd178ac0774637ee2227e84baba39b0c1c7b1910160405180910390a260ff8316600090815260016020819052604090912060030180549091611a7591614362565b81548110611a8557611a85614164565b9060005260206000200160009054906101000a90046001600160a01b0316600160008560ff1681526020019081526020016000206003018360ff1681548110611ad057611ad0614164565b600091825260208083209190910180546001600160a01b0319166001600160a01b03949094169390931790925560ff85168152600190915260409020600301805480611b1e57611b1e614375565b600082815260209020810160001990810180546001600160a01b031916905501905560ff821615611b575781611b538161438b565b9250505b5080611b6281614287565b9150506118e3565b505b60ff811660009081526001602052604081206003015467ffffffffffffffff811115611b9a57611b9a613b6b565b604051908082528060200260200182016040528015611bdf57816020015b6040805180820190915260008082526020820152815260200190600190039081611bb85790505b5060ff83166000908152600160205260408120600301549192509067ffffffffffffffff811115611c1257611c12613b6b565b604051908082528060200260200182016040528015611c3b578160200160208202803683370190505b50905060005b60ff8085166000908152600160205260409020600301549082161015611c9a576001828260ff1681518110611c7857611c78614164565b9115156020928302919091019091015280611c9281614287565b915050611c41565b5060005b60ff80851660009081526001602052604090206003015490821610156123415760ff8085166000908152600160205260408120600381018054929360029092019284928616908110611cf257611cf2614164565b60009182526020808320909101546001600160a01b039081168452908301939093526040909101902060010154650100000000009004161461232f5760ff80851660009081526001602052604081206003810180546002909201939091908516908110611d6157611d61614164565b60009182526020808320909101546001600160a01b0316835282019290925260400190206001015460ff640100000000909104161561232f5760ff8085166000908152600160205260408120600381018054929384936001600160a01b037f00000000000000000000000000000000000000000000000000000000000000001693631cf8a321936002909101928692908916908110611e0257611e02614164565b60009182526020808320909101546001600160a01b03168352828101939093526040918201812060ff808d1683526001909452918120600381018054939460029092019390918a16908110611e5957611e59614164565b60009182526020808320909101546001600160a01b03168352828101939093526040918201812060019081015460ff8e8116845291909452918120600381018054948416946002909201939091908b16908110611eb857611eb8614164565b60009182526020808320909101546001600160a01b0316835282019290925260409081019091206001015490516001600160e01b031960e086901b168152611f1093929160ff61010090910416908c906004016143a8565b606060405180830381865afa158015611f2d573d6000803e3d6000fd5b505050506040513d601f19601f82011682018060405250810190611f519190614070565b9150915081156120e257600160008760ff1681526020019081526020016000206003018360ff1681548110611f8857611f88614164565b600091825260209182902001548251838301516040805160ff808d168252938416958101959095529116908301526001600160a01b0316907fd44ddf7f8e572e76d7ed6bf350d88367a33cf9a7d19d5069c392802305d51f6c9060600160405180910390a260ff8087166000908152600160205260409020600301805461203692861690811061201a5761201a614164565b6000918252602090912001546001600160a01b03168488613934565b6000848460ff168151811061204d5761204d614164565b91151560209283029190910182015260ff80881660009081526001909252604082206003810180548594600290930193881690811061208e5761208e614164565b60009182526020808320909101546001600160a01b03168352828101939093526040909101902082518154939092015160ff9081166101000261ffff199094169216919091179190911790555061232f9050565b600160008760ff1681526020019081526020016000206003018360ff168154811061210f5761210f614164565b600091825260208083209091015460ff808a1684526001909252604083206003810180546001600160a01b03909316947ff1e9c1d54f160cab3c8602dcfbf5fbe3e012ed037d80057eca695f74d26077a0946002909301939092891690811061217a5761217a614164565b60009182526020808320909101546001600160a01b0316835282810193909352604091820181205460ff8c8116835260019094529181206003810180549385169460029092019390918a169081106121d4576121d4614164565b6000918252602080832091909101546001600160a01b03168352828101939093526040918201902054865187840151835160ff96871681526101009093048616948301949094528416818301529183166060830152918a16608082015290519081900360a00190a260ff8087166000908152600160205260408120600381018054859460029093019392881690811061226f5761226f614164565b60009182526020808320909101546001600160a01b031683528281019390935260409182018120845181549585015160ff9081166101000261ffff19909716918116919091179590951790558984168152600190925290206003018054909185169081106122df576122df614164565b6000918252602091829020015460405160ff891681526001600160a01b03909116917f51f35fa2867d710ef60e6209b0ca28b42abd534ed14e1f8394e793f42253c9f6910160405180910390a250505b8061233981614287565b915050611c9e565b5060005b60ff80851660009081526001602052604090206003015490821610156126d357818160ff168151811061237a5761237a614164565b6020026020010151156126c15760ff808516600090815260016020526040812060038101805492936001600160a01b037f0000000000000000000000000000000000000000000000000000000000000000169363d6192ad39360020192869290919088169081106123ed576123ed614164565b60009182526020808320909101546001600160a01b03168352828101939093526040918201812060ff808c168352600190945291812060038101805493946002909201939091891690811061244457612444614164565b60009182526020808320909101546001600160a01b03168352828101939093526040918201812060019081015460ff8d811684529190945291812060038101805462010000909504841694600292909201939091908a169081106124aa576124aa614164565b60009182526020808320909101546001600160a01b0316835282019290925260409081019091206001015490516001600160e01b031960e086901b16815261250293929160ff630100000090910416906004016143c6565b6040805180830381865afa15801561251e573d6000803e3d6000fd5b505050506040513d601f19601f8201168201806040525081019061254291906140fd565b905080848360ff168151811061255a5761255a614164565b6020026020010181905250600160008660ff1681526020019081526020016000206003018260ff168154811061259257612592614164565b600091825260208083209091015460ff80891684526001909252604083206003810180546001600160a01b03909316947f78546d5ff977d70d771d8edba5bdd99150ec97e7837d6e2af4384b1605a4372d94600290930193909288169081106125fd576125fd614164565b60009182526020808320909101546001600160a01b0316835282810193909352604091820181205460ff8b811683526001909452918120600381018054938516946002909201939091891690811061265757612657614164565b6000918252602080832091909101546001600160a01b03168352828101939093526040918201902054865187840151835160ff96871681526101009093048616948301949094528416818301529183166060830152918916608082015290519081900360a00190a2505b806126cb81614287565b915050612345565b5060005b60ff8085166000908152600160205260409020600301549082161015612d1b5760005b60ff8086166000908152600160205260409020600301549082161015612d08578060ff168260ff1614612cf657828260ff168151811061273c5761273c614164565b602002602001015180156127695750828160ff168151811061276057612760614164565b60200260200101515b8015612827575060ff808616600090815260016020526040812060038101805460029092019390919086169081106127a3576127a3614164565b60009182526020808320909101546001600160a01b0316835282810193909352604091820181205460ff8981168352600190945291812060038101805493851694600290920193909186169081106127fd576127fd614164565b60009182526020808320909101546001600160a01b0316835282019290925260400190205460ff16145b80156128f0575060ff8086166000908152600160205260408120600381018054600290920193909190861690811061286157612861614164565b60009182526020808320909101546001600160a01b0316835282810193909352604091820181205460ff89811683526001909452918120600381018054610100909404851694600290920193909186169081106128c0576128c0614164565b60009182526020808320909101546001600160a01b0316835282019290925260400190205460ff61010090910416145b15612acd576000838360ff168151811061290c5761290c614164565b6020026020010190151590811515815250506000838260ff168151811061293557612935614164565b602002602001019015159081151581525050600160008660ff1681526020019081526020016000206003018260ff168154811061297457612974614164565b6000918252602091829020015460405160ff881681526001600160a01b03909116917f783de3ac95b82563b70ac74b3a843e5f9f71a653b9518e6e1762b39151c0f710910160405180910390a2600160008660ff1681526020019081526020016000206003018160ff16815481106129ee576129ee614164565b6000918252602091829020015460405160ff881681526001600160a01b03909116917f783de3ac95b82563b70ac74b3a843e5f9f71a653b9518e6e1762b39151c0f710910160405180910390a260ff80861660009081526001602052604090206003018054612a84928516908110612a6857612a68614164565b6000918252602090912001546001600160a01b03168387613934565b60ff80861660009081526001602052604090206003018054612acd928416908110612ab157612ab1614164565b6000918252602090912001546001600160a01b03168287613934565b828260ff1681518110612ae257612ae2614164565b60200260200101518015612b76575060ff80861660009081526001602052604081206003810180546002909201939091908616908110612b2457612b24614164565b60009182526020808320909101546001600160a01b03168352820192909252604001902054845160ff918216918691908416908110612b6557612b65614164565b60200260200101516000015160ff16145b8015612c07575060ff80861660009081526001602052604081206003810180546002909201939091908616908110612bb057612bb0614164565b60009182526020808320909101546001600160a01b03168352820192909252604001902054845160ff6101009092048216918691908416908110612bf657612bf6614164565b60200260200101516020015160ff16145b15612cf657600160008660ff1681526020019081526020016000206003018160ff1681548110612c3957612c39614164565b600091825260208083209091015460ff80891684526001909252604090922060030180546001600160a01b039093169290918516908110612c7c57612c7c614164565b6000918252602091829020015460405160ff891681526001600160a01b03909116917fb2ee3834f34c038f7f34d57f8ce213e4ee56fecd33556013e0f66b1e32ee14bc910160405180910390a360ff80861660009081526001602052604090206003018054612cf6928516908110612a6857612a68614164565b80612d0081614287565b9150506126fa565b5080612d1381614287565b9150506126d7565b5060005b60ff8085166000908152600160205260409020600301549082161015612eaa5760006001600160a01b0316600160008660ff1681526020019081526020016000206003018260ff1681548110612d7757612d77614164565b6000918252602090912001546001600160a01b031603612e985760ff8416600090815260016020819052604090912060030180549091612db691614362565b81548110612dc657612dc6614164565b9060005260206000200160009054906101000a90046001600160a01b0316600160008660ff1681526020019081526020016000206003018260ff1681548110612e1157612e11614164565b600091825260208083209190910180546001600160a01b0319166001600160a01b03949094169390931790925560ff86168152600190915260409020600301805480612e5f57612e5f614375565b600082815260209020810160001990810180546001600160a01b031916905501905560ff811615612e985780612e948161438b565b9150505b80612ea281614287565b915050612d1f565b5060ff83166000908152600160205260408120600301549003612f285760405160ff841681526000907f8403b4a1c998f6768b577f2c265d744e2f4d05982059b4d82b34eb822bdc17d1906020015b60405180910390a260ff83166000908152600160205260409020600401805461ff001916610100179055613264565b60ff83166000908152600160208190526040909120600301549003612fb75760ff831660009081526001602052604081206003018054909190612f6d57612f6d614164565b6000918252602091829020015460405160ff861681526001600160a01b03909116917f8403b4a1c998f6768b577f2c265d744e2f4d05982059b4d82b34eb822bdc17d19101612ef9565b60ff831660009081526001602052604081206003018054909190612fdd57612fdd614164565b60009182526020808320919091015460405160ff871681526001600160a01b0390911692917f2cee3725d64bc62c413fa35348815210ff376bf4f13627d82b6ac0d0efc6e8cd910160405180910390a360005b60ff80851660009081526001602052604090206003015490821610156132425760ff808516600090815260016020526040812060038101805460069460029093019392861690811061308457613084614164565b60009182526020808320909101546001600160a01b03168352820192909252604001902060019081018054909160ff19909116908360068111156130ca576130ca613e31565b021790555060ff808516600090815260016020526040812060038101805492936002909201928492861690811061310357613103614164565b6000918252602080832091909101546001600160a01b0316835282810193909352604091820181206001908101805461ff00191661010060ff978816021790558885168252909252812060038101805460069460029093019392861690811061316e5761316e614164565b60009182526020808320909101546001600160a01b031683528201929092526040019020600101805462ff00001916620100008360068111156131b3576131b3613e31565b021790555060ff80851660009081526001602052604081206003810180549293600290920192849286169081106131ec576131ec614164565b60009182526020808320909101546001600160a01b031683528201929092526040019020600101805460ff9290921663010000000263ff000000199092169190911790558061323a81614287565b915050613030565b5060ff83166000908152600160205260409020600401805463ff000000191690555b60405160ff841681527fd44344392ee117b90bc172ab74cce9c43a862f0d5e11a336b3885fde466c244e9060200160405180910390a16132a383613724565b506132ad83610494565b505050565b604080518082019091526000808252602082015260ff8083166000908152600160208190526040909120600401549091161515146133025760405162461bcd60e51b815260040161039290613fac565b604051630d42527560e11b81526001600160a01b037f00000000000000000000000000000000000000000000000000000000000000001690631a84a4ea90613352908890889088906004016140c1565b6040805180830381865afa15801561336e573d6000803e3d6000fd5b505050506040513d601f19601f8201168201806040525081019061339291906140fd565b95945050505050565b6133a36136f7565b6001600160a01b0381166133cd57604051631e4fbdf760e01b815260006004820152602401610392565b6133d681613845565b50565b60ff808216600090815260016020819052604090912060040154606092161515146134165760405162461bcd60e51b815260040161039290613fac565b60ff821660009081526001602052604081206003015467ffffffffffffffff81111561344457613444613b6b565b60405190808252806020026020018201604052801561347d57816020015b61346a613ade565b8152602001906001900390816134625790505b50905060005b60ff841660009081526001602052604090206003015481101561361c5760ff8416600090815260016020526040812060038101805460029092019291849081106134cf576134cf614164565b60009182526020808320909101546001600160a01b03168352828101939093526040918201902081516101608101909252805460ff808216610120850190815261010090920481166101408501529083526001820154929391929184019116600681111561353f5761353f613e31565b600681111561355057613550613e31565b8152600182015460ff6101008204811660208401526040909201916201000090910416600681111561358457613584613e31565b600681111561359557613595613e31565b8152600182015460ff6301000000820481166020840152640100000000820416151560408301526001600160a01b03650100000000009091041660608201526002820154608082015260039091015460a09091015282518390839081106135fe576135fe614164565b6020026020010181905250808061361490614327565b915050613483565b5092915050565b60ff80821660009081526001602081905260409091206004015490911615151461365f5760405162461bcd60e51b815260040161039290613fac565b6000805b60ff80841660009081526001602052604090206003015490821610156136eb5760ff808416600090815260016020526040902060030180546001600160a01b0387169284169081106136b7576136b7614164565b6000918252602090912001546001600160a01b0316036136d9578091506136eb565b806136e381614287565b915050613663565b506132ad838284613934565b6000546001600160a01b031633146116c95760405163118cdaa760e01b8152336004820152602401610392565b60405163436fadf360e11b815260ff8216600482015260009081906001600160a01b037f000000000000000000000000000000000000000000000000000000000000000016906386df5be690602401602060405180830381865afa158015613790573d6000803e3d6000fd5b505050506040513d601f19601f820116820180604052508101906137b491906140a4565b60ff841660009081526001602052604081208054929350906137d583614327565b909155505060ff838116600081815260016020908152604091829020548251938452908301529183168183015290517f44d8fc4a70679f71d5b762b5218cbfb0c858bb7e015b1effe03793d2909c20f69181900360600190a1505060ff1660009081526001602052604090205490565b600080546001600160a01b038381166001600160a01b0319831681178455604051919092169283917f8be0079c531659141344cd1fd0a4f28419497f9722a3daafe3b4186f6b6457e09190a35050565b6000807f00000000000000000000000000000000000000000000000000000000000000006001600160a01b0316634d02388685856040518363ffffffff1660e01b81526004016138e6929190614193565b608060405180830381865afa158015613903573d6000803e3d6000fd5b505050506040513d601f19601f8201168201806040525081019061392791906142a6565b6060015115949350505050565b60ff8082166000908152600160205260409020600301549083161061399b5760405162461bcd60e51b815260206004820152601860248201527f496e6465782076616c7565206f7574206f662072616e676500000000000000006044820152606401610392565b60ff8082166000908152600160208190526040909120600401549091161515146139d75760405162461bcd60e51b815260040161039290613fac565b60405160ff821681526001600160a01b038416907fabe2a4edb03972506a4064b683e5482b1f09f2fb96bd4463b7b15b38cbd5b1869060200160405180910390a260ff80821660008181526001602081815260408084206001600160a01b038a16855260028082018452918520805461ffff1916815580850180546001600160c81b03191690559182018590556003918201859055948452919052909101805491929091908516908110613a8d57613a8d614164565b9060005260206000200160006101000a8154816001600160a01b0302191690836001600160a01b03160217905550505050565b50805460008255906000526020600020908101906133d69190613b39565b6040805161016081018252600061012082018181526101408301829052825260208201819052918101829052606081018290526080810182905260a0810182905260c0810182905260e0810182905261010081019190915290565b5b80821115613b4e5760008155600101613b3a565b5090565b600060208284031215613b6457600080fd5b5035919050565b634e487b7160e01b600052604160045260246000fd5b6040805190810167ffffffffffffffff81118282101715613ba457613ba4613b6b565b60405290565b604051601f8201601f1916810167ffffffffffffffff81118282101715613bd357613bd3613b6b565b604052919050565b60ff811681146133d657600080fd5b600060408284031215613bfc57600080fd5b613c04613b81565b90508135613c1181613bdb565b81526020820135613c2181613bdb565b602082015292915050565b803560078110613c3b57600080fd5b919050565b60008060008060a08587031215613c5657600080fd5b613c608686613bea565b9350613c6e60408601613c2c565b92506060850135613c7e81613bdb565b91506080850135613c8e81613bdb565b939692955090935050565b600060208284031215613cab57600080fd5b8135610d5681613bdb565b600080600080600060a08688031215613cce57600080fd5b613cd786613c2c565b94506020860135613ce781613bdb565b9350613cf560408701613c2c565b92506060860135613d0581613bdb565b91506080860135613d1581613bdb565b809150509295509295909350565b602080825282518282018190526000919060409081850190868401855b82811015613d7357613d63848351805160ff908116835260209182015116910152565b9284019290850190600101613d40565b5091979650505050505050565b60008060608385031215613d9357600080fd5b613d9d8484613bea565b91506040830135613dad81613bdb565b809150509250929050565b60008060408385031215613dcb57600080fd5b8235613dd681613bdb565b91506020830135613dad81613bdb565b600080600060608486031215613dfb57600080fd5b8335613e0681613bdb565b92506020840135613e1681613bdb565b91506040840135613e2681613bdb565b809150509250925092565b634e487b7160e01b600052602160045260246000fd5b60078110613e6557634e487b7160e01b600052602160045260246000fd5b9052565b613e84828251805160ff908116835260209182015116910152565b6020810151613e966040840182613e47565b5060ff60408201511660608301526060810151613eb66080840182613e47565b5060ff60808201511660a083015260a0810151613ed760c084018215159052565b5060c08101516001600160a01b03811660e08401525060e081015161010083810191909152015161012090910152565b61014081016106058284613e69565b604081016106058284805160ff908116835260209182015116910152565b600060208284031215613f4657600080fd5b81356001600160a01b0381168114610d5657600080fd5b6020808252825182820181905260009190848201906040850190845b81811015613fa057613f8c838551613e69565b928401926101409290920191600101613f79565b50909695505050505050565b60208082526019908201527f47616d6520686173206e6f742073746172746564207965742100000000000000604082015260600190565b60a081016140018287805160ff908116835260209182015116910152565b61400e6040830186613e47565b60ff8416606083015260ff8316608083015295945050505050565b80518015158114613c3b57600080fd5b60006040828403121561404b57600080fd5b614053613b81565b9050815161406081613bdb565b81526020820151613c2181613bdb565b6000806060838503121561408357600080fd5b61408c83614029565b915061409b8460208501614039565b90509250929050565b6000602082840312156140b657600080fd5b8151610d5681613bdb565b608081016140df8286805160ff908116835260209182015116910152565b6140ec6040830185613e47565b60ff83166060830152949350505050565b60006040828403121561410f57600080fd5b610d568383614039565b634e487b7160e01b600052601160045260246000fd5b60ff818116838216019081111561060557610605614119565b60ff818116838216029081169081811461361c5761361c614119565b634e487b7160e01b600052603260045260246000fd5b60ff828116828216039081111561060557610605614119565b606081016141b18285805160ff908116835260209182015116910152565b60ff831660408301529392505050565b600060208083850312156141d457600080fd5b825167ffffffffffffffff808211156141ec57600080fd5b818501915085601f83011261420057600080fd5b81518181111561421257614212613b6b565b614220848260051b01613baa565b818152848101925060069190911b83018401908782111561424057600080fd5b928401925b81841015614269576142578885614039565b83528483019250604084019350614245565b979650505050505050565b8082018082111561060557610605614119565b600060ff821660ff810361429d5761429d614119565b60010192915050565b6000608082840312156142b857600080fd5b6040516080810181811067ffffffffffffffff821117156142db576142db613b6b565b60405282516142e981613bdb565b815260208301516142f981613bdb565b602082015261430a60408401614029565b604082015261431b60608401614029565b60608201529392505050565b60006001820161433957614339614119565b5060010190565b60008261435d57634e487b7160e01b600052601260045260246000fd5b500690565b8181038181111561060557610605614119565b634e487b7160e01b600052603160045260246000fd5b600060ff82168061439e5761439e614119565b6000190192915050565b845460ff808216835260089190911c16602082015260a08101614001565b835460ff808216835260089190911c166020820152608081016140df56fea26469706673582212201759eb44fc7d5e7bae8f7334a1ff524d4fe85c729ac4723649383fec1b6ee7b064736f6c63430008140033",
  "linkReferences": {},
  "deployedLinkReferences": {}
}