{
  "_format": "hh-sol-artifact-1",
  "contractName": "Map",
  "sourceName": "contracts/Map.sol",
  "abi": [
    {
      "inputs": [
        {
          "internalType": "uint8",
          "name": "_size",
          "type": "uint8"
        },
        {
          "internalType": "uint256",
          "name": "_seed",
          "type": "uint256"
        }
      ],
      "stateMutability": "nonpayable",
      "type": "constructor"
    },
    {
      "inputs": [
        {
          "internalType": "uint256",
          "name": "suppliedSize",
          "type": "uint256"
        },
        {
          "internalType": "uint256",
          "name": "maxSize",
          "type": "uint256"
        }
      ],
      "name": "MapSizeMustBeInRange",
      "type": "error"
    },
    {
      "inputs": [],
      "name": "createIslands",
      "outputs": [],
      "stateMutability": "nonpayable",
      "type": "function"
    },
    {
      "inputs": [
        {
          "components": [
            {
              "internalType": "uint8",
              "name": "q",
              "type": "uint8"
            },
            {
              "internalType": "uint8",
              "name": "r",
              "type": "uint8"
            },
            {
              "internalType": "bool",
              "name": "island",
              "type": "bool"
            },
            {
              "internalType": "bool",
              "name": "exists",
              "type": "bool"
            }
          ],
          "internalType": "struct IMap.Cell",
          "name": "cell",
          "type": "tuple"
        }
      ],
      "name": "deleteCell",
      "outputs": [],
      "stateMutability": "nonpayable",
      "type": "function"
    },
    {
      "inputs": [
        {
          "internalType": "uint8",
          "name": "q",
          "type": "uint8"
        },
        {
          "internalType": "uint8",
          "name": "r",
          "type": "uint8"
        }
      ],
      "name": "getCell",
      "outputs": [
        {
          "internalType": "uint8",
          "name": "",
          "type": "uint8"
        },
        {
          "internalType": "uint8",
          "name": "",
          "type": "uint8"
        },
        {
          "internalType": "bool",
          "name": "",
          "type": "bool"
        },
        {
          "internalType": "bool",
          "name": "",
          "type": "bool"
        }
      ],
      "stateMutability": "view",
      "type": "function"
    },
    {
      "inputs": [],
      "name": "getRandomCoordinatePair",
      "outputs": [
        {
          "components": [
            {
              "internalType": "uint8",
              "name": "q",
              "type": "uint8"
            },
            {
              "internalType": "uint8",
              "name": "r",
              "type": "uint8"
            }
          ],
          "internalType": "struct Map.Coordinate",
          "name": "",
          "type": "tuple"
        }
      ],
      "stateMutability": "nonpayable",
      "type": "function"
    },
    {
      "inputs": [
        {
          "internalType": "uint8",
          "name": "_maxValue",
          "type": "uint8"
        }
      ],
      "name": "getRandomValue",
      "outputs": [
        {
          "internalType": "uint8",
          "name": "",
          "type": "uint8"
        }
      ],
      "stateMutability": "nonpayable",
      "type": "function"
    },
    {
      "inputs": [
        {
          "internalType": "uint8",
          "name": "",
          "type": "uint8"
        },
        {
          "internalType": "uint8",
          "name": "",
          "type": "uint8"
        }
      ],
      "name": "hexCells",
      "outputs": [
        {
          "internalType": "uint8",
          "name": "q",
          "type": "uint8"
        },
        {
          "internalType": "uint8",
          "name": "r",
          "type": "uint8"
        },
        {
          "internalType": "bool",
          "name": "island",
          "type": "bool"
        },
        {
          "internalType": "bool",
          "name": "exists",
          "type": "bool"
        }
      ],
      "stateMutability": "view",
      "type": "function"
    },
    {
      "inputs": [],
      "name": "initMap",
      "outputs": [],
      "stateMutability": "nonpayable",
      "type": "function"
    },
    {
      "inputs": [
        {
          "components": [
            {
              "internalType": "uint8",
              "name": "q",
              "type": "uint8"
            },
            {
              "internalType": "uint8",
              "name": "r",
              "type": "uint8"
            },
            {
              "internalType": "bool",
              "name": "island",
              "type": "bool"
            },
            {
              "internalType": "bool",
              "name": "exists",
              "type": "bool"
            }
          ],
          "internalType": "struct IMap.Cell",
          "name": "cell",
          "type": "tuple"
        }
      ],
      "name": "isIsland",
      "outputs": [
        {
          "internalType": "bool",
          "name": "",
          "type": "bool"
        }
      ],
      "stateMutability": "view",
      "type": "function"
    },
    {
      "inputs": [
        {
          "components": [
            {
              "internalType": "uint8",
              "name": "q",
              "type": "uint8"
            },
            {
              "internalType": "uint8",
              "name": "r",
              "type": "uint8"
            }
          ],
          "internalType": "struct Map.Coordinate",
          "name": "_center",
          "type": "tuple"
        },
        {
          "internalType": "uint8",
          "name": "_radius",
          "type": "uint8"
        }
      ],
      "name": "ring",
      "outputs": [
        {
          "components": [
            {
              "internalType": "uint8",
              "name": "q",
              "type": "uint8"
            },
            {
              "internalType": "uint8",
              "name": "r",
              "type": "uint8"
            }
          ],
          "internalType": "struct Map.Coordinate[]",
          "name": "",
          "type": "tuple[]"
        }
      ],
      "stateMutability": "view",
      "type": "function"
    },
    {
      "inputs": [],
      "name": "size",
      "outputs": [
        {
          "internalType": "uint8",
          "name": "",
          "type": "uint8"
        }
      ],
      "stateMutability": "view",
      "type": "function"
    },
    {
      "inputs": [
        {
          "components": [
            {
              "internalType": "uint8",
              "name": "q",
              "type": "uint8"
            },
            {
              "internalType": "uint8",
              "name": "r",
              "type": "uint8"
            },
            {
              "internalType": "bool",
              "name": "island",
              "type": "bool"
            },
            {
              "internalType": "bool",
              "name": "exists",
              "type": "bool"
            }
          ],
          "internalType": "struct IMap.Cell",
          "name": "_startCell",
          "type": "tuple"
        },
        {
          "internalType": "uint8",
          "name": "_direction",
          "type": "uint8"
        },
        {
          "internalType": "uint8",
          "name": "distance",
          "type": "uint8"
        }
      ],
      "name": "travel",
      "outputs": [
        {
          "internalType": "bool",
          "name": "dies",
          "type": "bool"
        },
        {
          "components": [
            {
              "internalType": "uint8",
              "name": "q",
              "type": "uint8"
            },
            {
              "internalType": "uint8",
              "name": "r",
              "type": "uint8"
            },
            {
              "internalType": "bool",
              "name": "island",
              "type": "bool"
            },
            {
              "internalType": "bool",
              "name": "exists",
              "type": "bool"
            }
          ],
          "internalType": "struct IMap.Cell",
          "name": "destinationCell",
          "type": "tuple"
        }
      ],
      "stateMutability": "view",
      "type": "function"
    }
  ],
  "bytecode": "0x60a06040523480156200001157600080fd5b50604051620024b9380380620024b983398181016040528101906200003791906200063a565b607f60ff168260ff161115620000895781607f6040517fe48c3a9d00000000000000000000000000000000000000000000000000000000815260040162000080929190620006c4565b60405180910390fd5b8160ff1660808160ff1681525050604051806080016040528082604051602001620000b5919062000702565b6040516020818303038152906040528051906020012060001c8152602001600460ff16815260200160ff80168152602001600060ff1681525060026000820151816000015560208201518160010160006101000a81548160ff021916908360ff16021790555060408201518160010160016101000a81548160ff021916908360ff16021790555060608201518160010160026101000a81548160ff021916908360ff1602179055509050506040518060400160405280600160000b81526020016000800b8152506000808060058111156200019557620001946200071f565b5b6005811115620001aa57620001a96200071f565b5b815260200190815260200160002060008201518160000160006101000a81548160ff021916908360000b60ff16021790555060208201518160000160016101000a81548160ff021916908360000b60ff1602179055509050506040518060400160405280600160000b81526020017fffffffffffffffffffffffffffffffffffffffffffffffffffffffffffffffff60000b815250600080600160058111156200025957620002586200071f565b5b60058111156200026e576200026d6200071f565b5b815260200190815260200160002060008201518160000160006101000a81548160ff021916908360000b60ff16021790555060208201518160000160016101000a81548160ff021916908360000b60ff16021790555090505060405180604001604052806000800b81526020017fffffffffffffffffffffffffffffffffffffffffffffffffffffffffffffffff60000b815250600080600260058111156200031c576200031b6200071f565b5b60058111156200033157620003306200071f565b5b815260200190815260200160002060008201518160000160006101000a81548160ff021916908360000b60ff16021790555060208201518160000160016101000a81548160ff021916908360000b60ff16021790555090505060405180604001604052807fffffffffffffffffffffffffffffffffffffffffffffffffffffffffffffffff60000b81526020016000800b81525060008060036005811115620003df57620003de6200071f565b5b6005811115620003f457620003f36200071f565b5b815260200190815260200160002060008201518160000160006101000a81548160ff021916908360000b60ff16021790555060208201518160000160016101000a81548160ff021916908360000b60ff16021790555090505060405180604001604052807fffffffffffffffffffffffffffffffffffffffffffffffffffffffffffffffff60000b8152602001600160000b81525060008060046005811115620004a357620004a26200071f565b5b6005811115620004b857620004b76200071f565b5b815260200190815260200160002060008201518160000160006101000a81548160ff021916908360000b60ff16021790555060208201518160000160016101000a81548160ff021916908360000b60ff16021790555090505060405180604001604052806000800b8152602001600160000b8152506000806005808111156200054657620005456200071f565b5b60058111156200055b576200055a6200071f565b5b815260200190815260200160002060008201518160000160006101000a81548160ff021916908360000b60ff16021790555060208201518160000160016101000a81548160ff021916908360000b60ff16021790555090505050506200074e565b600080fd5b600060ff82169050919050565b620005d981620005c1565b8114620005e557600080fd5b50565b600081519050620005f981620005ce565b92915050565b6000819050919050565b6200061481620005ff565b81146200062057600080fd5b50565b600081519050620006348162000609565b92915050565b60008060408385031215620006545762000653620005bc565b5b60006200066485828601620005e8565b9250506020620006778582860162000623565b9150509250929050565b6000819050919050565b6000620006ac620006a6620006a084620005c1565b62000681565b620005ff565b9050919050565b620006be816200068b565b82525050565b6000604082019050620006db6000830185620006b3565b620006ea6020830184620006b3565b9392505050565b620006fc81620005ff565b82525050565b6000602082019050620007196000830184620006f1565b92915050565b7f4e487b7100000000000000000000000000000000000000000000000000000000600052602160045260246000fd5b608051611ce6620007d36000396000818161024e01528181610277015281816102b4015281816102eb015281816103ac01528181610428015281816104510152818161068e015281816106cb015281816107e20152818161081f01528181610c5c01528181610c8701528181610d7501528181610de60152610e1d0152611ce66000f3fe608060405234801561001057600080fd5b50600436106100a95760003560e01c80634f4fdf80116100715780634f4fdf80146101695780636872a3141461019c57806373232db1146101b857806394999688146101e8578063949d225d146101f2578063dca6f49c14610210576100a9565b8063151810a6146100ae5780632c6b2e58146100b8578063335a0083146100e857806336579c5b1461011b57806339e5c4a014610139575b600080fd5b6100b6610241565b005b6100d260048036038101906100cd9190611341565b6104e7565b6040516100df919061137d565b60405180910390f35b61010260048036038101906100fd9190611398565b610603565b60405161011294939291906113f3565b60405180910390f35b610123610674565b6040516101309190611476565b60405180910390f35b610153600480360381019061014e9190611572565b610967565b6040516101609190611690565b60405180910390f35b610183600480360381019061017e9190611398565b610ab1565b60405161019394939291906113f3565b60405180910390f35b6101b660048036038101906101b19190611756565b610bcc565b005b6101d260048036038101906101cd91906117a7565b610c0d565b6040516101df91906117d4565b60405180910390f35b6101f0610c56565b005b6101fa610d73565b604051610207919061137d565b60405180910390f35b61022a600480360381019061022591906117ef565b610d97565b6040516102389291906118a6565b60405180910390f35b60405180608001604052807f000000000000000000000000000000000000000000000000000000000000000060ff1681526020017f000000000000000000000000000000000000000000000000000000000000000060ff16815260200160001515815260200160011515815250600160007f000000000000000000000000000000000000000000000000000000000000000060ff1660ff16815260200190815260200160002060007f000000000000000000000000000000000000000000000000000000000000000060ff1660ff16815260200190815260200160002060008201518160000160006101000a81548160ff021916908360ff16021790555060208201518160000160016101000a81548160ff021916908360ff16021790555060408201518160000160026101000a81548160ff02191690831515021790555060608201518160000160036101000a81548160ff0219169083151502179055509050506000600190505b7f000000000000000000000000000000000000000000000000000000000000000060ff168160ff16116104e4576104196040518060400160405280601c81526020017f4372656174696e672072696e67207769746820726164697573202573000000008152508260ff16610eda565b600060405180604001604052807f000000000000000000000000000000000000000000000000000000000000000060ff1681526020017f000000000000000000000000000000000000000000000000000000000000000060ff16815250905060006104848284610967565b905060005b81518160ff1610156104ce576104bb828260ff16815181106104ae576104ad6118cf565b5b6020026020010151610f76565b80806104c69061192d565b915050610489565b50505080806104dc9061192d565b9150506103aa565b50565b6000601f600260010160029054906101000a900460ff1660ff161061055e5760026000015460405160200161051c919061196f565b6040516020818303038152906040528051906020012060001c6002600001819055506000600260010160026101000a81548160ff021916908360ff1602179055505b600082600260010160019054906101000a900460ff1660ff16600260010160029054906101000a900460ff16600260010160009054906101000a900460ff166105a7919061198a565b60ff16600260000154901c166105bd91906119f6565b90506002600101600281819054906101000a900460ff16809291906105e19061192d565b91906101000a81548160ff021916908360ff1602179055505080915050919050565b6001602052816000526040600020602052806000526040600020600091509150508060000160009054906101000a900460ff16908060000160019054906101000a900460ff16908060000160029054906101000a900460ff16908060000160039054906101000a900460ff16905084565b61067c6112a7565b600060405180604001604052806106be7f000000000000000000000000000000000000000000000000000000000000000060026106b9919061198a565b6104e7565b60ff1681526020016106fb7f000000000000000000000000000000000000000000000000000000000000000060026106f6919061198a565b6104e7565b60ff168152509050600060016000836020015160ff1660ff1681526020019081526020016000206000836000015160ff1660ff1681526020019081526020016000206040518060800160405290816000820160009054906101000a900460ff1660ff1660ff1681526020016000820160019054906101000a900460ff1660ff1660ff1681526020016000820160029054906101000a900460ff161515151581526020016000820160039054906101000a900460ff16151515158152505090505b806060015115806107cd575080604001515b156109115760405180604001604052806108127f0000000000000000000000000000000000000000000000000000000000000000600261080d919061198a565b6104e7565b60ff16815260200161084f7f0000000000000000000000000000000000000000000000000000000000000000600261084a919061198a565b6104e7565b60ff16815250915060016000836020015160ff1660ff1681526020019081526020016000206000836000015160ff1660ff1681526020019081526020016000206040518060800160405290816000820160009054906101000a900460ff1660ff1660ff1681526020016000820160019054906101000a900460ff1660ff1660ff1681526020016000820160029054906101000a900460ff161515151581526020016000820160039054906101000a900460ff16151515158152505090506107bb565b61095f6040518060400160405280601581526020017f6e65772069736c616e64206174202825732c2573290000000000000000000000815250836000015160ff16846020015160ff16611032565b819250505090565b60606000600683610978919061198a565b60ff1667ffffffffffffffff811115610994576109936114a7565b5b6040519080825280602002602001820160405280156109cd57816020015b6109ba6112a7565b8152602001906001900390816109b25790505b50905060006109de856004866110d1565b905060008060058111156109f5576109f4611a27565b5b90505b600580811115610a0b57610a0a611a27565b5b8160ff1611610aa55760005b8560ff168160ff161015610a91578284828885610a34919061198a565b610a3e9190611a56565b60ff1681518110610a5257610a516118cf565b5b6020026020010181905250610a7c838360ff166005811115610a7757610a76611a27565b5b6111c9565b92508080610a899061192d565b915050610a17565b508080610a9d9061192d565b9150506109f8565b50819250505092915050565b600080600080600160008660ff1660ff16815260200190815260200160002060008760ff1660ff16815260200190815260200160002060000160009054906101000a900460ff16600160008760ff1660ff16815260200190815260200160002060008860ff1660ff16815260200190815260200160002060000160019054906101000a900460ff16600160008860ff1660ff16815260200190815260200160002060008960ff1660ff16815260200190815260200160002060000160029054906101000a900460ff16600160008960ff1660ff16815260200190815260200160002060008a60ff1660ff16815260200190815260200160002060000160039054906101000a900460ff16935093509350935092959194509250565b610c0a6040518060400160405280601181526020017f43616c6c65642064656c65746543656c6c0000000000000000000000000000008152506111e5565b50565b6000610c4d6040518060400160405280600f81526020017f43616c6c656420697349736c616e6400000000000000000000000000000000008152506111e5565b60009050919050565b600060017f0000000000000000000000000000000000000000000000000000000000000000610c859190611a56565b7f00000000000000000000000000000000000000000000000000000000000000006003610cb2919061198a565b610cbc919061198a565b6001610cc89190611a56565b90506000606460108360ff16610cde9190611a8b565b610ce89190611acd565b905060005b8160ff168160ff161015610d6e576000610d05610674565b90506001806000836020015160ff1660ff1681526020019081526020016000206000836000015160ff1660ff16815260200190815260200160002060000160026101000a81548160ff021916908315150217905550508080610d669061192d565b915050610ced565b505050565b7f000000000000000000000000000000000000000000000000000000000000000081565b6000610da16112c7565b610ddf6040518060400160405280600d81526020017f43616c6c65642074726176656c000000000000000000000000000000000000008152506111e5565b60018060007f000000000000000000000000000000000000000000000000000000000000000060ff1660ff16815260200190815260200160002060007f000000000000000000000000000000000000000000000000000000000000000060ff1660ff168152602001908152602001600020806040518060800160405290816000820160009054906101000a900460ff1660ff1660ff1681526020016000820160019054906101000a900460ff1660ff1660ff1681526020016000820160029054906101000a900460ff161515151581526020016000820160039054906101000a900460ff161515151581525050905091509150935093915050565b610f728282604051602401610ef0929190611b7d565b6040516020818303038152906040527fb60e72cc000000000000000000000000000000000000000000000000000000007bffffffffffffffffffffffffffffffffffffffffffffffffffffffff19166020820180517bffffffffffffffffffffffffffffffffffffffffffffffffffffffff838183161783525050505061127e565b5050565b600060016000836020015160ff1660ff1681526020019081526020016000206000836000015160ff1660ff168152602001908152602001600020905081600001518160000160006101000a81548160ff021916908360ff16021790555081602001518160000160016101000a81548160ff021916908360ff16021790555060008160000160026101000a81548160ff02191690831515021790555060018160000160036101000a81548160ff0219169083151502179055505050565b6110cc83838360405160240161104a93929190611bad565b6040516020818303038152906040527fca47c4eb000000000000000000000000000000000000000000000000000000007bffffffffffffffffffffffffffffffffffffffffffffffffffffffff19166020820180517bffffffffffffffffffffffffffffffffffffffffffffffffffffffff838183161783525050505061127e565b505050565b6110d96112a7565b6000826000808660058111156110f2576110f1611a27565b5b600581111561110457611103611a27565b5b815260200190815260200160002060000160009054906101000a900460000b61112d9190611bf8565b856000015161113c9190611c35565b905060008360008087600581111561115757611156611a27565b5b600581111561116957611168611a27565b5b815260200190815260200160002060000160019054906101000a900460000b6111929190611bf8565b86602001516111a19190611c35565b905060405180604001604052808360ff1681526020018260ff16815250925050509392505050565b6111d16112a7565b6111dd838360016110d1565b905092915050565b61127b816040516024016111f99190611c8e565b6040516020818303038152906040527f41304fac000000000000000000000000000000000000000000000000000000007bffffffffffffffffffffffffffffffffffffffffffffffffffffffff19166020820180517bffffffffffffffffffffffffffffffffffffffffffffffffffffffff838183161783525050505061127e565b50565b60008151905060006a636f6e736f6c652e6c6f679050602083016000808483855afa5050505050565b6040518060400160405280600060ff168152602001600060ff1681525090565b6040518060800160405280600060ff168152602001600060ff1681526020016000151581526020016000151581525090565b6000604051905090565b600080fd5b600060ff82169050919050565b61131e81611308565b811461132957600080fd5b50565b60008135905061133b81611315565b92915050565b60006020828403121561135757611356611303565b5b60006113658482850161132c565b91505092915050565b61137781611308565b82525050565b6000602082019050611392600083018461136e565b92915050565b600080604083850312156113af576113ae611303565b5b60006113bd8582860161132c565b92505060206113ce8582860161132c565b9150509250929050565b60008115159050919050565b6113ed816113d8565b82525050565b6000608082019050611408600083018761136e565b611415602083018661136e565b61142260408301856113e4565b61142f60608301846113e4565b95945050505050565b61144181611308565b82525050565b60408201600082015161145d6000850182611438565b5060208201516114706020850182611438565b50505050565b600060408201905061148b6000830184611447565b92915050565b600080fd5b6000601f19601f8301169050919050565b7f4e487b7100000000000000000000000000000000000000000000000000000000600052604160045260246000fd5b6114df82611496565b810181811067ffffffffffffffff821117156114fe576114fd6114a7565b5b80604052505050565b60006115116112f9565b905061151d82826114d6565b919050565b60006040828403121561153857611537611491565b5b6115426040611507565b905060006115528482850161132c565b60008301525060206115668482850161132c565b60208301525092915050565b6000806060838503121561158957611588611303565b5b600061159785828601611522565b92505060406115a88582860161132c565b9150509250929050565b600081519050919050565b600082825260208201905092915050565b6000819050602082019050919050565b6040820160008201516115f46000850182611438565b5060208201516116076020850182611438565b50505050565b600061161983836115de565b60408301905092915050565b6000602082019050919050565b600061163d826115b2565b61164781856115bd565b9350611652836115ce565b8060005b8381101561168357815161166a888261160d565b975061167583611625565b925050600181019050611656565b5085935050505092915050565b600060208201905081810360008301526116aa8184611632565b905092915050565b6116bb816113d8565b81146116c657600080fd5b50565b6000813590506116d8816116b2565b92915050565b6000608082840312156116f4576116f3611491565b5b6116fe6080611507565b9050600061170e8482850161132c565b60008301525060206117228482850161132c565b6020830152506040611736848285016116c9565b604083015250606061174a848285016116c9565b60608301525092915050565b60006080828403121561176c5761176b611303565b5b600061177a848285016116de565b91505092915050565b600080fd5b60006080828403121561179e5761179d611783565b5b81905092915050565b6000608082840312156117bd576117bc611303565b5b60006117cb84828501611788565b91505092915050565b60006020820190506117e960008301846113e4565b92915050565b600080600060c0848603121561180857611807611303565b5b600061181686828701611788565b93505060806118278682870161132c565b92505060a06118388682870161132c565b9150509250925092565b61184b816113d8565b82525050565b6080820160008201516118676000850182611438565b50602082015161187a6020850182611438565b50604082015161188d6040850182611842565b5060608201516118a06060850182611842565b50505050565b600060a0820190506118bb60008301856113e4565b6118c86020830184611851565b9392505050565b7f4e487b7100000000000000000000000000000000000000000000000000000000600052603260045260246000fd5b7f4e487b7100000000000000000000000000000000000000000000000000000000600052601160045260246000fd5b600061193882611308565b915060ff820361194b5761194a6118fe565b5b600182019050919050565b6000819050919050565b61196981611956565b82525050565b60006020820190506119846000830184611960565b92915050565b600061199582611308565b91506119a083611308565b92508282026119ae81611308565b91508082146119c0576119bf6118fe565b5b5092915050565b7f4e487b7100000000000000000000000000000000000000000000000000000000600052601260045260246000fd5b6000611a0182611308565b9150611a0c83611308565b925082611a1c57611a1b6119c7565b5b828206905092915050565b7f4e487b7100000000000000000000000000000000000000000000000000000000600052602160045260246000fd5b6000611a6182611308565b9150611a6c83611308565b9250828201905060ff811115611a8557611a846118fe565b5b92915050565b6000611a9682611956565b9150611aa183611956565b9250828202611aaf81611956565b91508282048414831517611ac657611ac56118fe565b5b5092915050565b6000611ad882611956565b9150611ae383611956565b925082611af357611af26119c7565b5b828204905092915050565b600081519050919050565b600082825260208201905092915050565b60005b83811015611b38578082015181840152602081019050611b1d565b60008484015250505050565b6000611b4f82611afe565b611b598185611b09565b9350611b69818560208601611b1a565b611b7281611496565b840191505092915050565b60006040820190508181036000830152611b978185611b44565b9050611ba66020830184611960565b9392505050565b60006060820190508181036000830152611bc78186611b44565b9050611bd66020830185611960565b611be36040830184611960565b949350505050565b60008160000b9050919050565b6000611c0382611beb565b9150611c0e83611beb565b9250828202611c1c81611beb565b9150808214611c2e57611c2d6118fe565b5b5092915050565b6000611c4082611beb565b9150611c4b83611beb565b925082820190507fffffffffffffffffffffffffffffffffffffffffffffffffffffffffffffff808112607f82131715611c8857611c876118fe565b5b92915050565b60006020820190508181036000830152611ca88184611b44565b90509291505056fea26469706673582212204173cec97e16249260337e021357b27002788093a4c776bba29fcaa4a3769bc864736f6c63430008120033",
  "linkReferences": {},
  "deployedLinkReferences": {}
}