{
  "_format": "hh-sol-artifact-1",
  "contractName": "Map",
  "sourceName": "contracts/Map.sol",
  "abi": [
    {
      "inputs": [
        {
          "internalType": "uint256",
          "name": "_seed",
          "type": "uint256"
        }
      ],
      "stateMutability": "nonpayable",
      "type": "constructor"
    },
    {
      "inputs": [
        {
          "internalType": "uint256",
          "name": "suppliedSize",
          "type": "uint256"
        },
        {
          "internalType": "uint256",
          "name": "maxSize",
          "type": "uint256"
        }
      ],
      "name": "MapSizeMustBeInRange",
      "type": "error"
    },
    {
      "inputs": [],
      "name": "createIslands",
      "outputs": [],
      "stateMutability": "nonpayable",
      "type": "function"
    },
    {
      "inputs": [
        {
          "components": [
            {
              "internalType": "uint8",
              "name": "q",
              "type": "uint8"
            },
            {
              "internalType": "uint8",
              "name": "r",
              "type": "uint8"
            }
          ],
          "internalType": "struct Map.Coordinate",
          "name": "_coord",
          "type": "tuple"
        }
      ],
      "name": "deleteCell",
      "outputs": [],
      "stateMutability": "nonpayable",
      "type": "function"
    },
    {
      "inputs": [
        {
          "components": [
            {
              "internalType": "uint8",
              "name": "q",
              "type": "uint8"
            },
            {
              "internalType": "uint8",
              "name": "r",
              "type": "uint8"
            }
          ],
          "internalType": "struct Map.Coordinate",
          "name": "_coord",
          "type": "tuple"
        }
      ],
      "name": "getCell",
      "outputs": [
        {
          "components": [
            {
              "internalType": "uint8",
              "name": "q",
              "type": "uint8"
            },
            {
              "internalType": "uint8",
              "name": "r",
              "type": "uint8"
            },
            {
              "internalType": "bool",
              "name": "island",
              "type": "bool"
            },
            {
              "internalType": "bool",
              "name": "exists",
              "type": "bool"
            }
          ],
          "internalType": "struct Map.Cell",
          "name": "",
          "type": "tuple"
        }
      ],
      "stateMutability": "view",
      "type": "function"
    },
    {
      "inputs": [],
      "name": "getRandomCoordinatePair",
      "outputs": [
        {
          "components": [
            {
              "internalType": "uint8",
              "name": "q",
              "type": "uint8"
            },
            {
              "internalType": "uint8",
              "name": "r",
              "type": "uint8"
            }
          ],
          "internalType": "struct Map.Coordinate",
          "name": "",
          "type": "tuple"
        }
      ],
      "stateMutability": "nonpayable",
      "type": "function"
    },
    {
      "inputs": [
        {
          "internalType": "uint8",
          "name": "",
          "type": "uint8"
        },
        {
          "internalType": "uint8",
          "name": "",
          "type": "uint8"
        }
      ],
      "name": "hexCells",
      "outputs": [
        {
          "internalType": "uint8",
          "name": "q",
          "type": "uint8"
        },
        {
          "internalType": "uint8",
          "name": "r",
          "type": "uint8"
        },
        {
          "internalType": "bool",
          "name": "island",
          "type": "bool"
        },
        {
          "internalType": "bool",
          "name": "exists",
          "type": "bool"
        }
      ],
      "stateMutability": "view",
      "type": "function"
    },
    {
      "inputs": [
        {
          "internalType": "uint8",
          "name": "_radius",
          "type": "uint8"
        }
      ],
      "name": "initMap",
      "outputs": [],
      "stateMutability": "nonpayable",
      "type": "function"
    },
    {
      "inputs": [
        {
          "components": [
            {
              "internalType": "uint8",
              "name": "q",
              "type": "uint8"
            },
            {
              "internalType": "uint8",
              "name": "r",
              "type": "uint8"
            }
          ],
          "internalType": "struct Map.Coordinate",
          "name": "_coord",
          "type": "tuple"
        }
      ],
      "name": "isIsland",
      "outputs": [
        {
          "internalType": "bool",
          "name": "",
          "type": "bool"
        }
      ],
      "stateMutability": "view",
      "type": "function"
    },
    {
      "inputs": [
        {
          "components": [
            {
              "internalType": "uint8",
              "name": "q",
              "type": "uint8"
            },
            {
              "internalType": "uint8",
              "name": "r",
              "type": "uint8"
            }
          ],
          "internalType": "struct Map.Coordinate",
          "name": "_start",
          "type": "tuple"
        },
        {
          "internalType": "enum Map.Directions",
          "name": "_dir",
          "type": "uint8"
        },
        {
          "internalType": "uint8",
          "name": "_distance",
          "type": "uint8"
        }
      ],
      "name": "move",
      "outputs": [
        {
          "components": [
            {
              "internalType": "uint8",
              "name": "q",
              "type": "uint8"
            },
            {
              "internalType": "uint8",
              "name": "r",
              "type": "uint8"
            }
          ],
          "internalType": "struct Map.Coordinate",
          "name": "",
          "type": "tuple"
        }
      ],
      "stateMutability": "view",
      "type": "function"
    },
    {
      "inputs": [],
      "name": "radius",
      "outputs": [
        {
          "internalType": "uint8",
          "name": "",
          "type": "uint8"
        }
      ],
      "stateMutability": "view",
      "type": "function"
    },
    {
      "inputs": [
        {
          "components": [
            {
              "internalType": "uint8",
              "name": "q",
              "type": "uint8"
            },
            {
              "internalType": "uint8",
              "name": "r",
              "type": "uint8"
            }
          ],
          "internalType": "struct Map.Coordinate",
          "name": "_center",
          "type": "tuple"
        },
        {
          "internalType": "uint8",
          "name": "_radius",
          "type": "uint8"
        }
      ],
      "name": "ring",
      "outputs": [
        {
          "components": [
            {
              "internalType": "uint8",
              "name": "q",
              "type": "uint8"
            },
            {
              "internalType": "uint8",
              "name": "r",
              "type": "uint8"
            }
          ],
          "internalType": "struct Map.Coordinate[]",
          "name": "",
          "type": "tuple[]"
        }
      ],
      "stateMutability": "view",
      "type": "function"
    },
    {
      "inputs": [
        {
          "components": [
            {
              "internalType": "uint8",
              "name": "q",
              "type": "uint8"
            },
            {
              "internalType": "uint8",
              "name": "r",
              "type": "uint8"
            }
          ],
          "internalType": "struct Map.Coordinate",
          "name": "_startCell",
          "type": "tuple"
        },
        {
          "internalType": "enum Map.Directions",
          "name": "_direction",
          "type": "uint8"
        },
        {
          "internalType": "uint8",
          "name": "_distance",
          "type": "uint8"
        }
      ],
      "name": "travel",
      "outputs": [
        {
          "internalType": "bool",
          "name": "",
          "type": "bool"
        },
        {
          "components": [
            {
              "internalType": "uint8",
              "name": "q",
              "type": "uint8"
            },
            {
              "internalType": "uint8",
              "name": "r",
              "type": "uint8"
            }
          ],
          "internalType": "struct Map.Coordinate",
          "name": "",
          "type": "tuple"
        }
      ],
      "stateMutability": "view",
      "type": "function"
    }
  ],
  "bytecode": "0x60806040523480156200001157600080fd5b506040516200248f3803806200248f83398181016040528101906200003791906200058a565b6200004d81620004d860201b62000de61760201c565b60036000820151816000015560208201518160010160006101000a81548160ff021916908360ff1602179055509050506040518060400160405280600160000b81526020016000800b815250600080806005811115620000b257620000b1620005bc565b5b6005811115620000c757620000c6620005bc565b5b815260200190815260200160002060008201518160000160006101000a81548160ff021916908360000b60ff16021790555060208201518160000160016101000a81548160ff021916908360000b60ff1602179055509050506040518060400160405280600160000b81526020017fffffffffffffffffffffffffffffffffffffffffffffffffffffffffffffffff60000b81525060008060016005811115620001765762000175620005bc565b5b60058111156200018b576200018a620005bc565b5b815260200190815260200160002060008201518160000160006101000a81548160ff021916908360000b60ff16021790555060208201518160000160016101000a81548160ff021916908360000b60ff16021790555090505060405180604001604052806000800b81526020017fffffffffffffffffffffffffffffffffffffffffffffffffffffffffffffffff60000b81525060008060026005811115620002395762000238620005bc565b5b60058111156200024e576200024d620005bc565b5b815260200190815260200160002060008201518160000160006101000a81548160ff021916908360000b60ff16021790555060208201518160000160016101000a81548160ff021916908360000b60ff16021790555090505060405180604001604052807fffffffffffffffffffffffffffffffffffffffffffffffffffffffffffffffff60000b81526020016000800b81525060008060036005811115620002fc57620002fb620005bc565b5b6005811115620003115762000310620005bc565b5b815260200190815260200160002060008201518160000160006101000a81548160ff021916908360000b60ff16021790555060208201518160000160016101000a81548160ff021916908360000b60ff16021790555090505060405180604001604052807fffffffffffffffffffffffffffffffffffffffffffffffffffffffffffffffff60000b8152602001600160000b81525060008060046005811115620003c057620003bf620005bc565b5b6005811115620003d557620003d4620005bc565b5b815260200190815260200160002060008201518160000160006101000a81548160ff021916908360000b60ff16021790555060208201518160000160016101000a81548160ff021916908360000b60ff16021790555090505060405180604001604052806000800b8152602001600160000b815250600080600580811115620004635762000462620005bc565b5b6005811115620004785762000477620005bc565b5b815260200190815260200160002060008201518160000160006101000a81548160ff021916908360000b60ff16021790555060208201518160000160016101000a81548160ff021916908360000b60ff1602179055509050505062000619565b620004e26200052d565b604051806040016040528083604051602001620005009190620005fc565b6040516020818303038152906040528051906020012060001c8152602001600060ff168152509050919050565b604051806040016040528060008152602001600060ff1681525090565b600080fd5b6000819050919050565b62000564816200054f565b81146200057057600080fd5b50565b600081519050620005848162000559565b92915050565b600060208284031215620005a357620005a26200054a565b5b6000620005b38482850162000573565b91505092915050565b7f4e487b7100000000000000000000000000000000000000000000000000000000600052602160045260246000fd5b620005f6816200054f565b82525050565b6000602082019050620006136000830184620005eb565b92915050565b611e6680620006296000396000f3fe608060405234801561001057600080fd5b50600436106100a95760003560e01c80633ac245d9116100715780633ac245d91461017d578063669636e2146101ad578063880655cc146101c957806394999688146101e557806396e963c1146101ef578063ecba2dd71461021f576100a9565b80631a84a4ea146100ae578063217f4353146100de578063335a0083146100fc57806336579c5b1461012f57806339e5c4a01461014d575b600080fd5b6100c860048036038101906100c39190611355565b610250565b6040516100d591906113e6565b60405180910390f35b6100e6610348565b6040516100f39190611410565b60405180910390f35b6101166004803603810190610111919061142b565b61035b565b6040516101269493929190611486565b60405180910390f35b6101376103cc565b60405161014491906113e6565b60405180910390f35b610167600480360381019061016291906114cb565b610635565b60405161017491906115e9565b60405180910390f35b6101976004803603810190610192919061160b565b61077f565b6040516101a4919061169c565b60405180910390f35b6101c760048036038101906101c291906116b7565b610841565b005b6101e360048036038101906101de9190611708565b610a99565b005b6101ed610b4a565b005b6102096004803603810190610204919061160b565b610cd0565b6040516102169190611735565b60405180910390f35b61023960048036038101906102349190611355565b610d2a565b604051610247929190611750565b60405180910390f35b610258611198565b60008260008086600581111561027157610270611779565b5b600581111561028357610282611779565b5b815260200190815260200160002060000160009054906101000a900460000b6102ac91906117e4565b85600001516102bb9190611821565b90506000836000808760058111156102d6576102d5611779565b5b60058111156102e8576102e7611779565b5b815260200190815260200160002060000160019054906101000a900460000b61031191906117e4565b86602001516103209190611821565b905060405180604001604052808360ff1681526020018260ff16815250925050509392505050565b600260009054906101000a900460ff1681565b6001602052816000526040600020602052806000526040600020600091509150508060000160009054906101000a900460ff16908060000160019054906101000a900460ff16908060000160029054906101000a900460ff16908060000160039054906101000a900460ff16905084565b6103d4611198565b600060405180604001604052806104076003600260009054906101000a900460ff166002610402919061187a565b610e37565b60ff1681526020016104356003600260009054906101000a900460ff166002610430919061187a565b610e37565b60ff168152509050600060016000836020015160ff1660ff1681526020019081526020016000206000836000015160ff1660ff1681526020019081526020016000206040518060800160405290816000820160009054906101000a900460ff1660ff1660ff1681526020016000820160019054906101000a900460ff1660ff1660ff1681526020016000820160029054906101000a900460ff161515151581526020016000820160039054906101000a900460ff16151515158152505090505b80606001511580610507575080604001515b1561062d57604051806040016040528061053d6003600260009054906101000a900460ff166002610538919061187a565b610e37565b60ff16815260200161056b6003600260009054906101000a900460ff166002610566919061187a565b610e37565b60ff16815250915060016000836020015160ff1660ff1681526020019081526020016000206000836000015160ff1660ff1681526020019081526020016000206040518060800160405290816000820160009054906101000a900460ff1660ff1660ff1681526020016000820160019054906101000a900460ff1660ff1660ff1681526020016000820160029054906101000a900460ff161515151581526020016000820160039054906101000a900460ff16151515158152505090506104f5565b819250505090565b60606000600683610646919061187a565b60ff1667ffffffffffffffff8111156106625761066161122c565b5b60405190808252806020026020018201604052801561069b57816020015b610688611198565b8152602001906001900390816106805790505b50905060006106ac85600486610250565b905060008060058111156106c3576106c2611779565b5b90505b6005808111156106d9576106d8611779565b5b8160ff16116107735760005b8560ff168160ff16101561075f578284828885610702919061187a565b61070c91906118b7565b60ff16815181106107205761071f6118ec565b5b602002602001018190525061074a838360ff16600581111561074557610744611779565b5b610f5f565b925080806107579061191b565b9150506106e5565b50808061076b9061191b565b9150506106c6565b50819250505092915050565b6107876111b8565b60016000836020015160ff1660ff1681526020019081526020016000206000836000015160ff1660ff1681526020019081526020016000206040518060800160405290816000820160009054906101000a900460ff1660ff1660ff1681526020016000820160019054906101000a900460ff1660ff1660ff1681526020016000820160029054906101000a900460ff161515151581526020016000820160039054906101000a900460ff1615151515815250509050919050565b607f60ff168160ff1611156108905780607f6040517fe48c3a9d000000000000000000000000000000000000000000000000000000008152600401610887929190611989565b60405180910390fd5b80600260006101000a81548160ff021916908360ff1602179055506040518060800160405280600260009054906101000a900460ff1660ff168152602001600260009054906101000a900460ff1660ff1681526020016000151581526020016001151581525060016000600260009054906101000a900460ff1660ff1660ff1681526020019081526020016000206000600260009054906101000a900460ff1660ff1660ff16815260200190815260200160002060008201518160000160006101000a81548160ff021916908360ff16021790555060208201518160000160016101000a81548160ff021916908360ff16021790555060408201518160000160026101000a81548160ff02191690831515021790555060608201518160000160036101000a81548160ff0219169083151502179055509050506000600190505b600260009054906101000a900460ff1660ff168160ff1611610a955760006040518060400160405280600260009054906101000a900460ff1660ff168152602001600260009054906101000a900460ff1660ff1681525090506000610a358284610635565b905060005b81518160ff161015610a7f57610a6c828260ff1681518110610a5f57610a5e6118ec565b5b6020026020010151610f7b565b8080610a779061191b565b915050610a3a565b5050508080610a8d9061191b565b9150506109d0565b5050565b610ad76040518060400160405280601181526020017f43616c6c65642064656c65746543656c6c000000000000000000000000000000815250611037565b600060016000836020016020810190610af091906116b7565b60ff1660ff1681526020019081526020016000206000836000016020810190610b1991906116b7565b60ff1660ff16815260200190815260200160002060000160036101000a81548160ff02191690831515021790555050565b60006001600260009054906101000a900460ff1660ff16610b6b91906119b2565b600260009054906101000a900460ff1660ff166003610b8a91906119e6565b610b9491906119e6565b6001610ba091906119b2565b905060006064601083610bb391906119e6565b610bbd9190611a57565b9050610bff6040518060400160405280601e81526020017f4772696473697a652025732c206e756d6265722069736c616e6473202573000081525083836110d0565b60005b81811015610ccb576000610c146103cc565b9050610c646040518060400160405280601381526020017f6e65772069736c616e643a202825732c25732900000000000000000000000000815250826000015160ff16836020015160ff166110d0565b6001806000836020015160ff1660ff1681526020019081526020016000206000836000015160ff1660ff16815260200190815260200160002060000160026101000a81548160ff021916908315150217905550508080610cc390611a88565b915050610c02565b505050565b6000610d106040518060400160405280600f81526020017f43616c6c656420697349736c616e640000000000000000000000000000000000815250611037565b6000610d1b8361077f565b90508060400151915050919050565b6000610d34611198565b610d726040518060400160405280600d81526020017f43616c6c65642074726176656c00000000000000000000000000000000000000815250611037565b60005b8360ff168160ff161015610dd557610d8d8686610f5f565b95506000610d9a8761077f565b9050806040015180610dae57508060600151155b15610dc157600187935093505050610dde565b508080610dcd9061191b565b915050610d75565b50600085915091505b935093915050565b610dee6111ea565b604051806040016040528083604051602001610e0a9190611adf565b6040516020818303038152906040528051906020012060001c8152602001600060ff168152509050919050565b60006001600860ff16610100610e4d9190611b08565b610e579190611b39565b60ff168360010160009054906101000a900460ff1660ff1610610ec9578260000154604051602001610e899190611adf565b6040516020818303038152906040528051906020012060001c836000018190555060008360010160006101000a81548160ff021916908360ff1602179055505b600082600160086002610edc9190611ca1565b610ee69190611cec565b8560010160009054906101000a900460ff166008610f04919061187a565b60ff168660000154901c16610f199190611d20565b905083600101600081819054906101000a900460ff1680929190610f3c9061191b565b91906101000a81548160ff021916908360ff160217905550508091505092915050565b610f67611198565b610f7383836001610250565b905092915050565b600060016000836020015160ff1660ff1681526020019081526020016000206000836000015160ff1660ff168152602001908152602001600020905081600001518160000160006101000a81548160ff021916908360ff16021790555081602001518160000160016101000a81548160ff021916908360ff16021790555060008160000160026101000a81548160ff02191690831515021790555060018160000160036101000a81548160ff0219169083151502179055505050565b6110cd8160405160240161104b9190611dd0565b6040516020818303038152906040527f41304fac000000000000000000000000000000000000000000000000000000007bffffffffffffffffffffffffffffffffffffffffffffffffffffffff19166020820180517bffffffffffffffffffffffffffffffffffffffffffffffffffffffff838183161783525050505061116f565b50565b61116a8383836040516024016110e893929190611df2565b6040516020818303038152906040527fca47c4eb000000000000000000000000000000000000000000000000000000007bffffffffffffffffffffffffffffffffffffffffffffffffffffffff19166020820180517bffffffffffffffffffffffffffffffffffffffffffffffffffffffff838183161783525050505061116f565b505050565b60008151905060006a636f6e736f6c652e6c6f679050602083016000808483855afa5050505050565b6040518060400160405280600060ff168152602001600060ff1681525090565b6040518060800160405280600060ff168152602001600060ff1681526020016000151581526020016000151581525090565b604051806040016040528060008152602001600060ff1681525090565b6000604051905090565b600080fd5b600080fd5b6000601f19601f8301169050919050565b7f4e487b7100000000000000000000000000000000000000000000000000000000600052604160045260246000fd5b6112648261121b565b810181811067ffffffffffffffff821117156112835761128261122c565b5b80604052505050565b6000611296611207565b90506112a2828261125b565b919050565b600060ff82169050919050565b6112bd816112a7565b81146112c857600080fd5b50565b6000813590506112da816112b4565b92915050565b6000604082840312156112f6576112f5611216565b5b611300604061128c565b90506000611310848285016112cb565b6000830152506020611324848285016112cb565b60208301525092915050565b6006811061133d57600080fd5b50565b60008135905061134f81611330565b92915050565b60008060006080848603121561136e5761136d611211565b5b600061137c868287016112e0565b935050604061138d86828701611340565b925050606061139e868287016112cb565b9150509250925092565b6113b1816112a7565b82525050565b6040820160008201516113cd60008501826113a8565b5060208201516113e060208501826113a8565b50505050565b60006040820190506113fb60008301846113b7565b92915050565b61140a816112a7565b82525050565b60006020820190506114256000830184611401565b92915050565b6000806040838503121561144257611441611211565b5b6000611450858286016112cb565b9250506020611461858286016112cb565b9150509250929050565b60008115159050919050565b6114808161146b565b82525050565b600060808201905061149b6000830187611401565b6114a86020830186611401565b6114b56040830185611477565b6114c26060830184611477565b95945050505050565b600080606083850312156114e2576114e1611211565b5b60006114f0858286016112e0565b9250506040611501858286016112cb565b9150509250929050565b600081519050919050565b600082825260208201905092915050565b6000819050602082019050919050565b60408201600082015161154d60008501826113a8565b50602082015161156060208501826113a8565b50505050565b60006115728383611537565b60408301905092915050565b6000602082019050919050565b60006115968261150b565b6115a08185611516565b93506115ab83611527565b8060005b838110156115dc5781516115c38882611566565b97506115ce8361157e565b9250506001810190506115af565b5085935050505092915050565b60006020820190508181036000830152611603818461158b565b905092915050565b60006040828403121561162157611620611211565b5b600061162f848285016112e0565b91505092915050565b6116418161146b565b82525050565b60808201600082015161165d60008501826113a8565b50602082015161167060208501826113a8565b5060408201516116836040850182611638565b5060608201516116966060850182611638565b50505050565b60006080820190506116b16000830184611647565b92915050565b6000602082840312156116cd576116cc611211565b5b60006116db848285016112cb565b91505092915050565b600080fd5b6000604082840312156116ff576116fe6116e4565b5b81905092915050565b60006040828403121561171e5761171d611211565b5b600061172c848285016116e9565b91505092915050565b600060208201905061174a6000830184611477565b92915050565b60006060820190506117656000830185611477565b61177260208301846113b7565b9392505050565b7f4e487b7100000000000000000000000000000000000000000000000000000000600052602160045260246000fd5b60008160000b9050919050565b7f4e487b7100000000000000000000000000000000000000000000000000000000600052601160045260246000fd5b60006117ef826117a8565b91506117fa836117a8565b9250828202611808816117a8565b915080821461181a576118196117b5565b5b5092915050565b600061182c826117a8565b9150611837836117a8565b925082820190507fffffffffffffffffffffffffffffffffffffffffffffffffffffffffffffff808112607f82131715611874576118736117b5565b5b92915050565b6000611885826112a7565b9150611890836112a7565b925082820261189e816112a7565b91508082146118b0576118af6117b5565b5b5092915050565b60006118c2826112a7565b91506118cd836112a7565b9250828201905060ff8111156118e6576118e56117b5565b5b92915050565b7f4e487b7100000000000000000000000000000000000000000000000000000000600052603260045260246000fd5b6000611926826112a7565b915060ff8203611939576119386117b5565b5b600182019050919050565b6000819050919050565b6000819050919050565b600061197361196e611969846112a7565b61194e565b611944565b9050919050565b61198381611958565b82525050565b600060408201905061199e600083018561197a565b6119ab602083018461197a565b9392505050565b60006119bd82611944565b91506119c883611944565b92508282019050808211156119e0576119df6117b5565b5b92915050565b60006119f182611944565b91506119fc83611944565b9250828202611a0a81611944565b91508282048414831517611a2157611a206117b5565b5b5092915050565b7f4e487b7100000000000000000000000000000000000000000000000000000000600052601260045260246000fd5b6000611a6282611944565b9150611a6d83611944565b925082611a7d57611a7c611a28565b5b828204905092915050565b6000611a9382611944565b91507fffffffffffffffffffffffffffffffffffffffffffffffffffffffffffffffff8203611ac557611ac46117b5565b5b600182019050919050565b611ad981611944565b82525050565b6000602082019050611af46000830184611ad0565b92915050565b600061ffff82169050919050565b6000611b1382611afa565b9150611b1e83611afa565b925082611b2e57611b2d611a28565b5b828204905092915050565b6000611b44826112a7565b9150611b4f836112a7565b9250828203905060ff811115611b6857611b676117b5565b5b92915050565b60008160011c9050919050565b6000808291508390505b6001851115611bc557808604811115611ba157611ba06117b5565b5b6001851615611bb05780820291505b8081029050611bbe85611b6e565b9450611b85565b94509492505050565b600082611bde5760019050611c9a565b81611bec5760009050611c9a565b8160018114611c025760028114611c0c57611c3b565b6001915050611c9a565b60ff841115611c1e57611c1d6117b5565b5b8360020a915084821115611c3557611c346117b5565b5b50611c9a565b5060208310610133831016604e8410600b8410161715611c705782820a905083811115611c6b57611c6a6117b5565b5b611c9a565b611c7d8484846001611b7b565b92509050818404811115611c9457611c936117b5565b5b81810290505b9392505050565b6000611cac82611944565b9150611cb7836112a7565b9250611ce47fffffffffffffffffffffffffffffffffffffffffffffffffffffffffffffffff8484611bce565b905092915050565b6000611cf782611944565b9150611d0283611944565b9250828203905081811115611d1a57611d196117b5565b5b92915050565b6000611d2b826112a7565b9150611d36836112a7565b925082611d4657611d45611a28565b5b828206905092915050565b600081519050919050565b600082825260208201905092915050565b60005b83811015611d8b578082015181840152602081019050611d70565b60008484015250505050565b6000611da282611d51565b611dac8185611d5c565b9350611dbc818560208601611d6d565b611dc58161121b565b840191505092915050565b60006020820190508181036000830152611dea8184611d97565b905092915050565b60006060820190508181036000830152611e0c8186611d97565b9050611e1b6020830185611ad0565b611e286040830184611ad0565b94935050505056fea264697066735822122005a4c18b800abd75afe7ae3de5b901580ebcb3c9060fe6487603069b49d13dac64736f6c63430008120033",
  "linkReferences": {},
  "deployedLinkReferences": {}
}