{
  "_format": "hh-sol-artifact-1",
  "contractName": "GameWOT",
  "sourceName": "contracts/GameWOT.sol",
  "abi": [
    {
      "inputs": [
        {
          "internalType": "address",
          "name": "_mapAddress",
          "type": "address"
        }
      ],
      "stateMutability": "nonpayable",
      "type": "constructor"
    },
    {
      "inputs": [
        {
          "internalType": "address",
          "name": "player",
          "type": "address"
        },
        {
          "internalType": "uint8",
          "name": "q",
          "type": "uint8"
        },
        {
          "internalType": "uint8",
          "name": "r",
          "type": "uint8"
        }
      ],
      "name": "ShipAlreadyAdded",
      "type": "error"
    },
    {
      "anonymous": false,
      "inputs": [
        {
          "indexed": false,
          "internalType": "uint8",
          "name": "gameId",
          "type": "uint8"
        }
      ],
      "name": "CommitPhaseStarted",
      "type": "event"
    },
    {
      "anonymous": false,
      "inputs": [
        {
          "indexed": false,
          "internalType": "uint8",
          "name": "gameId",
          "type": "uint8"
        }
      ],
      "name": "GameEnded",
      "type": "event"
    },
    {
      "anonymous": false,
      "inputs": [
        {
          "indexed": false,
          "internalType": "uint8",
          "name": "gameId",
          "type": "uint8"
        }
      ],
      "name": "GameStarted",
      "type": "event"
    },
    {
      "anonymous": false,
      "inputs": [
        {
          "indexed": true,
          "internalType": "bool",
          "name": "gameStatus",
          "type": "bool"
        },
        {
          "indexed": true,
          "internalType": "address",
          "name": "winnerAddress",
          "type": "address"
        }
      ],
      "name": "GameUpdated",
      "type": "event"
    },
    {
      "anonymous": false,
      "inputs": [
        {
          "indexed": false,
          "internalType": "string",
          "name": "gameWinner",
          "type": "string"
        }
      ],
      "name": "GameWinner",
      "type": "event"
    },
    {
      "anonymous": false,
      "inputs": [
        {
          "indexed": false,
          "internalType": "uint8",
          "name": "radius",
          "type": "uint8"
        },
        {
          "indexed": false,
          "internalType": "uint8",
          "name": "gameId",
          "type": "uint8"
        }
      ],
      "name": "MapInitialized",
      "type": "event"
    },
    {
      "anonymous": false,
      "inputs": [
        {
          "indexed": false,
          "internalType": "uint8",
          "name": "gameId",
          "type": "uint8"
        }
      ],
      "name": "MapShrink",
      "type": "event"
    },
    {
      "anonymous": false,
      "inputs": [
        {
          "indexed": true,
          "internalType": "address",
          "name": "player",
          "type": "address"
        }
      ],
      "name": "MoveCommitted",
      "type": "event"
    },
    {
      "anonymous": false,
      "inputs": [
        {
          "indexed": true,
          "internalType": "address",
          "name": "player",
          "type": "address"
        }
      ],
      "name": "MoveSubmitted",
      "type": "event"
    },
    {
      "anonymous": false,
      "inputs": [
        {
          "indexed": true,
          "internalType": "address",
          "name": "previousOwner",
          "type": "address"
        },
        {
          "indexed": true,
          "internalType": "address",
          "name": "newOwner",
          "type": "address"
        }
      ],
      "name": "OwnershipTransferred",
      "type": "event"
    },
    {
      "anonymous": false,
      "inputs": [
        {
          "indexed": true,
          "internalType": "address",
          "name": "player",
          "type": "address"
        },
        {
          "indexed": false,
          "internalType": "uint8",
          "name": "gameId",
          "type": "uint8"
        }
      ],
      "name": "PlayerAdded",
      "type": "event"
    },
    {
      "anonymous": false,
      "inputs": [
        {
          "indexed": true,
          "internalType": "address",
          "name": "player",
          "type": "address"
        }
      ],
      "name": "PlayerDefeated",
      "type": "event"
    },
    {
      "anonymous": false,
      "inputs": [
        {
          "indexed": true,
          "internalType": "address",
          "name": "captain",
          "type": "address"
        }
      ],
      "name": "ShipCollidedWithIsland",
      "type": "event"
    },
    {
      "anonymous": false,
      "inputs": [
        {
          "indexed": true,
          "internalType": "address",
          "name": "victim",
          "type": "address"
        },
        {
          "indexed": true,
          "internalType": "address",
          "name": "attacker",
          "type": "address"
        }
      ],
      "name": "ShipHit",
      "type": "event"
    },
    {
      "anonymous": false,
      "inputs": [
        {
          "indexed": true,
          "internalType": "address",
          "name": "captain",
          "type": "address"
        },
        {
          "indexed": false,
          "internalType": "uint8",
          "name": "initialQ",
          "type": "uint8"
        },
        {
          "indexed": false,
          "internalType": "uint8",
          "name": "initialR",
          "type": "uint8"
        },
        {
          "indexed": false,
          "internalType": "uint8",
          "name": "q",
          "type": "uint8"
        },
        {
          "indexed": false,
          "internalType": "uint8",
          "name": "r",
          "type": "uint8"
        }
      ],
      "name": "ShipMoved",
      "type": "event"
    },
    {
      "anonymous": false,
      "inputs": [
        {
          "indexed": true,
          "internalType": "address",
          "name": "captain",
          "type": "address"
        },
        {
          "indexed": false,
          "internalType": "uint256",
          "name": "gameId",
          "type": "uint256"
        }
      ],
      "name": "ShipMovedInGame",
      "type": "event"
    },
    {
      "anonymous": false,
      "inputs": [
        {
          "indexed": true,
          "internalType": "address",
          "name": "captain",
          "type": "address"
        },
        {
          "indexed": false,
          "internalType": "uint8",
          "name": "fromQ",
          "type": "uint8"
        },
        {
          "indexed": false,
          "internalType": "uint8",
          "name": "fromR",
          "type": "uint8"
        },
        {
          "indexed": false,
          "internalType": "uint8",
          "name": "shotQ",
          "type": "uint8"
        },
        {
          "indexed": false,
          "internalType": "uint8",
          "name": "shotR",
          "type": "uint8"
        }
      ],
      "name": "ShipShot",
      "type": "event"
    },
    {
      "anonymous": false,
      "inputs": [
        {
          "indexed": true,
          "internalType": "address",
          "name": "captain",
          "type": "address"
        }
      ],
      "name": "ShipSunk",
      "type": "event"
    },
    {
      "anonymous": false,
      "inputs": [
        {
          "indexed": true,
          "internalType": "address",
          "name": "captain",
          "type": "address"
        }
      ],
      "name": "ShipSunkOutOfMap",
      "type": "event"
    },
    {
      "anonymous": false,
      "inputs": [
        {
          "indexed": false,
          "internalType": "uint8",
          "name": "gameId",
          "type": "uint8"
        },
        {
          "indexed": false,
          "internalType": "uint256",
          "name": "round",
          "type": "uint256"
        }
      ],
      "name": "SubmitPhaseStarted",
      "type": "event"
    },
    {
      "anonymous": false,
      "inputs": [
        {
          "indexed": false,
          "internalType": "uint8",
          "name": "gameId",
          "type": "uint8"
        }
      ],
      "name": "WorldUpdated",
      "type": "event"
    },
    {
      "inputs": [
        {
          "internalType": "uint8",
          "name": "gameId",
          "type": "uint8"
        },
        {
          "internalType": "uint256",
          "name": "_speed",
          "type": "uint256"
        },
        {
          "internalType": "uint256",
          "name": "_range",
          "type": "uint256"
        }
      ],
      "name": "addShip",
      "outputs": [
        {
          "components": [
            {
              "components": [
                {
                  "internalType": "uint8",
                  "name": "q",
                  "type": "uint8"
                },
                {
                  "internalType": "uint8",
                  "name": "r",
                  "type": "uint8"
                }
              ],
              "internalType": "struct SharedStructs.Coordinate",
              "name": "coordinate",
              "type": "tuple"
            },
            {
              "internalType": "enum SharedStructs.Directions",
              "name": "travelDirection",
              "type": "uint8"
            },
            {
              "internalType": "uint8",
              "name": "travelDistance",
              "type": "uint8"
            },
            {
              "internalType": "enum SharedStructs.Directions",
              "name": "shotDirection",
              "type": "uint8"
            },
            {
              "internalType": "uint8",
              "name": "shotDistance",
              "type": "uint8"
            },
            {
              "internalType": "bool",
              "name": "publishedMove",
              "type": "bool"
            },
            {
              "internalType": "address",
              "name": "captain",
              "type": "address"
            },
            {
              "internalType": "uint256",
              "name": "yachtSpeed",
              "type": "uint256"
            },
            {
              "internalType": "uint256",
              "name": "yachtRange",
              "type": "uint256"
            }
          ],
          "internalType": "struct GameWOT.Ship",
          "name": "",
          "type": "tuple"
        }
      ],
      "stateMutability": "nonpayable",
      "type": "function"
    },
    {
      "inputs": [
        {
          "internalType": "uint8",
          "name": "gameId",
          "type": "uint8"
        }
      ],
      "name": "allowSubmitMoves",
      "outputs": [],
      "stateMutability": "nonpayable",
      "type": "function"
    },
    {
      "inputs": [
        {
          "internalType": "uint8",
          "name": "gameId",
          "type": "uint8"
        }
      ],
      "name": "endGame",
      "outputs": [],
      "stateMutability": "nonpayable",
      "type": "function"
    },
    {
      "inputs": [
        {
          "internalType": "uint256",
          "name": "",
          "type": "uint256"
        }
      ],
      "name": "games",
      "outputs": [
        {
          "internalType": "uint256",
          "name": "round",
          "type": "uint256"
        },
        {
          "internalType": "uint8",
          "name": "shrinkNo",
          "type": "uint8"
        },
        {
          "internalType": "bool",
          "name": "gameInProgress",
          "type": "bool"
        },
        {
          "internalType": "bool",
          "name": "stopAddingShips",
          "type": "bool"
        },
        {
          "internalType": "bool",
          "name": "letCommitMoves",
          "type": "bool"
        },
        {
          "internalType": "bool",
          "name": "letSubmitMoves",
          "type": "bool"
        }
      ],
      "stateMutability": "view",
      "type": "function"
    },
    {
      "inputs": [
        {
          "components": [
            {
              "internalType": "uint8",
              "name": "q",
              "type": "uint8"
            },
            {
              "internalType": "uint8",
              "name": "r",
              "type": "uint8"
            }
          ],
          "internalType": "struct SharedStructs.Coordinate",
          "name": "_coord",
          "type": "tuple"
        },
        {
          "internalType": "uint8",
          "name": "gameId",
          "type": "uint8"
        }
      ],
      "name": "getCell",
      "outputs": [
        {
          "components": [
            {
              "internalType": "uint8",
              "name": "q",
              "type": "uint8"
            },
            {
              "internalType": "uint8",
              "name": "r",
              "type": "uint8"
            },
            {
              "internalType": "bool",
              "name": "island",
              "type": "bool"
            },
            {
              "internalType": "bool",
              "name": "exists",
              "type": "bool"
            }
          ],
          "internalType": "struct SharedStructs.Cell",
          "name": "",
          "type": "tuple"
        }
      ],
      "stateMutability": "view",
      "type": "function"
    },
    {
      "inputs": [
        {
          "internalType": "uint8",
          "name": "gameId",
          "type": "uint8"
        }
      ],
      "name": "getCells",
      "outputs": [
        {
          "components": [
            {
              "internalType": "uint8",
              "name": "q",
              "type": "uint8"
            },
            {
              "internalType": "uint8",
              "name": "r",
              "type": "uint8"
            }
          ],
          "internalType": "struct SharedStructs.Coordinate[]",
          "name": "",
          "type": "tuple[]"
        }
      ],
      "stateMutability": "view",
      "type": "function"
    },
    {
      "inputs": [
        {
          "internalType": "uint8",
          "name": "gameId",
          "type": "uint8"
        }
      ],
      "name": "getRadius",
      "outputs": [
        {
          "internalType": "uint8",
          "name": "",
          "type": "uint8"
        }
      ],
      "stateMutability": "view",
      "type": "function"
    },
    {
      "inputs": [
        {
          "internalType": "uint8",
          "name": "gameId",
          "type": "uint8"
        }
      ],
      "name": "getShips",
      "outputs": [
        {
          "components": [
            {
              "components": [
                {
                  "internalType": "uint8",
                  "name": "q",
                  "type": "uint8"
                },
                {
                  "internalType": "uint8",
                  "name": "r",
                  "type": "uint8"
                }
              ],
              "internalType": "struct SharedStructs.Coordinate",
              "name": "coordinate",
              "type": "tuple"
            },
            {
              "internalType": "enum SharedStructs.Directions",
              "name": "travelDirection",
              "type": "uint8"
            },
            {
              "internalType": "uint8",
              "name": "travelDistance",
              "type": "uint8"
            },
            {
              "internalType": "enum SharedStructs.Directions",
              "name": "shotDirection",
              "type": "uint8"
            },
            {
              "internalType": "uint8",
              "name": "shotDistance",
              "type": "uint8"
            },
            {
              "internalType": "bool",
              "name": "publishedMove",
              "type": "bool"
            },
            {
              "internalType": "address",
              "name": "captain",
              "type": "address"
            },
            {
              "internalType": "uint256",
              "name": "yachtSpeed",
              "type": "uint256"
            },
            {
              "internalType": "uint256",
              "name": "yachtRange",
              "type": "uint256"
            }
          ],
          "internalType": "struct GameWOT.Ship[]",
          "name": "",
          "type": "tuple[]"
        }
      ],
      "stateMutability": "view",
      "type": "function"
    },
    {
      "inputs": [
        {
          "internalType": "uint8",
          "name": "_radius",
          "type": "uint8"
        },
        {
          "internalType": "uint8",
          "name": "gameId",
          "type": "uint8"
        }
      ],
      "name": "initGame",
      "outputs": [],
      "stateMutability": "nonpayable",
      "type": "function"
    },
    {
      "inputs": [
        {
          "components": [
            {
              "internalType": "uint8",
              "name": "q",
              "type": "uint8"
            },
            {
              "internalType": "uint8",
              "name": "r",
              "type": "uint8"
            }
          ],
          "internalType": "struct SharedStructs.Coordinate",
          "name": "_start",
          "type": "tuple"
        },
        {
          "internalType": "enum SharedStructs.Directions",
          "name": "_dir",
          "type": "uint8"
        },
        {
          "internalType": "uint8",
          "name": "_distance",
          "type": "uint8"
        },
        {
          "internalType": "uint8",
          "name": "gameId",
          "type": "uint8"
        }
      ],
      "name": "move",
      "outputs": [
        {
          "components": [
            {
              "internalType": "uint8",
              "name": "q",
              "type": "uint8"
            },
            {
              "internalType": "uint8",
              "name": "r",
              "type": "uint8"
            }
          ],
          "internalType": "struct SharedStructs.Coordinate",
          "name": "",
          "type": "tuple"
        }
      ],
      "stateMutability": "view",
      "type": "function"
    },
    {
      "inputs": [],
      "name": "owner",
      "outputs": [
        {
          "internalType": "address",
          "name": "",
          "type": "address"
        }
      ],
      "stateMutability": "view",
      "type": "function"
    },
    {
      "inputs": [],
      "name": "renounceOwnership",
      "outputs": [],
      "stateMutability": "nonpayable",
      "type": "function"
    },
    {
      "inputs": [
        {
          "internalType": "enum SharedStructs.Directions",
          "name": "_travelDirection",
          "type": "uint8"
        },
        {
          "internalType": "uint8",
          "name": "_travelDistance",
          "type": "uint8"
        },
        {
          "internalType": "enum SharedStructs.Directions",
          "name": "_shotDirection",
          "type": "uint8"
        },
        {
          "internalType": "uint8",
          "name": "_shotDistance",
          "type": "uint8"
        },
        {
          "internalType": "uint8",
          "name": "gameId",
          "type": "uint8"
        }
      ],
      "name": "revealMove",
      "outputs": [],
      "stateMutability": "nonpayable",
      "type": "function"
    },
    {
      "inputs": [
        {
          "internalType": "uint8",
          "name": "gameId",
          "type": "uint8"
        }
      ],
      "name": "startNewGame",
      "outputs": [],
      "stateMutability": "nonpayable",
      "type": "function"
    },
    {
      "inputs": [
        {
          "internalType": "address",
          "name": "newOwner",
          "type": "address"
        }
      ],
      "name": "transferOwnership",
      "outputs": [],
      "stateMutability": "nonpayable",
      "type": "function"
    },
    {
      "inputs": [
        {
          "components": [
            {
              "internalType": "uint8",
              "name": "q",
              "type": "uint8"
            },
            {
              "internalType": "uint8",
              "name": "r",
              "type": "uint8"
            }
          ],
          "internalType": "struct SharedStructs.Coordinate",
          "name": "_startCell",
          "type": "tuple"
        },
        {
          "internalType": "enum SharedStructs.Directions",
          "name": "_direction",
          "type": "uint8"
        },
        {
          "internalType": "uint8",
          "name": "_distance",
          "type": "uint8"
        },
        {
          "internalType": "uint8",
          "name": "gameId",
          "type": "uint8"
        }
      ],
      "name": "travel",
      "outputs": [],
      "stateMutability": "nonpayable",
      "type": "function"
    },
    {
      "inputs": [
        {
          "internalType": "uint8",
          "name": "gameId",
          "type": "uint8"
        }
      ],
      "name": "updateWorld",
      "outputs": [],
      "stateMutability": "nonpayable",
      "type": "function"
    }
  ],
  "bytecode": "0x60a06040523480156200001157600080fd5b506040516200465c3803806200465c8339810160408190526200003491620000a1565b6200003f3362000051565b6001600160a01b0316608052620000d3565b600080546001600160a01b038381166001600160a01b0319831681178455604051919092169283917f8be0079c531659141344cd1fd0a4f28419497f9722a3daafe3b4186f6b6457e09190a35050565b600060208284031215620000b457600080fd5b81516001600160a01b0381168114620000cc57600080fd5b9392505050565b60805161451962000143600039600081816103a0015281816106ad01528181610b5a01528181610dcf01528181610f5901528181611106015281816112b6015281816113300152818161163f01528181611bf2015281816121310152818161307a015261360601526145196000f3fe608060405234801561001057600080fd5b506004361061010b5760003560e01c8063508236ca116100a25780638da5cb5b116100715780638da5cb5b146102d5578063978ac356146102f0578063d085a86f14610303578063f2fde38b14610323578063fd8704461461033657600080fd5b8063508236ca146102945780636ed296e4146102a7578063715018a6146102ba578063863375ac146102c257600080fd5b806334361208116100de57806334361208146101e75780634998b8fb1461020c5780634aac9b8b1461021f5780634d0238861461023f57600080fd5b8063117a5b90146101105780631cf8a3211461019f5780632923a41f146101b45780632f309686146101c7575b600080fd5b61016161011e366004613b5d565b600160208190526000918252604090912080549181015460049091015460ff91821691818116916101008104821691620100008204811691630100000090041686565b6040805196875260ff909516602087015292151593850193909352151560608401529015156080830152151560a082015260c0015b60405180910390f35b6101b26101ad366004613c4b565b610356565b005b6101b26101c2366004613ca4565b610494565b6101da6101d5366004613cc1565b61055f565b6040516101969190613dcc565b6101fa6101f5366004613ca4565b610b04565b60405160ff9091168152602001610196565b6101b261021a366004613ddb565b610bd3565b61023261022d366004613ca4565b610d77565b6040516101969190613e48565b61025261024d366004613ea5565b61108f565b6040516101969190600060808201905060ff835116825260ff602084015116602083015260408301511515604083015260608301511515606083015292915050565b6101b26102a2366004613edd565b611185565b6101b26102b5366004613ca4565b6113d8565b6101b26114f8565b6101b26102d0366004613ca4565b61150c565b6000546040516001600160a01b039091168152602001610196565b6101b26102fe366004613ca4565b61159e565b610316610311366004613c4b565b613013565b6040516101969190613f0b565b6101b2610331366004613f29565b6130fc565b610349610344366004613ca4565b613175565b6040516101969190613f52565b60ff80821660009081526001602081905260409091206004015490911615151461039b5760405162461bcd60e51b815260040161039290613fa1565b60405180910390fd5b6000807f00000000000000000000000000000000000000000000000000000000000000006001600160a01b0316631cf8a321878787876040518563ffffffff1660e01b81526004016103f09493929190613fd8565b606060405180830381865afa15801561040d573d6000803e3d6000fd5b505050506040513d601f19601f820116820180604052508101906104319190614065565b91509150811561044a5761044533846133f0565b61048c565b805160ff8481166000908152600160209081526040808320338452600201825290912080549185015183166101000261ffff1990921692909316919091171790555b505050505050565b61049c6134c9565b60ff8082166000908152600160208190526040909120600401549091161515146104d85760405162461bcd60e51b815260040161039290613fa1565b60ff8116600090815260016020526040812060048101805463ff0000001916630100000017905580549161050b836140af565b909155505060ff8116600081815260016020908152604091829020548251938452908301527f8f2926f00686a0050801f0bdb34f506a8467984df7f619eca0dac070da51babc91015b60405180910390a150565b610567613ad0565b60ff8085166000908152600160205260409020600401546101009004161580156105ad575060ff8085166000908152600160208190526040909120600401549091161515145b6105c95760405162461bcd60e51b815260040161039290613fa1565b60ff80851660009081526001602090815260408083203384526002019091529020541615801590610620575060ff808516600090815260016020908152604080832033845260020190915290205461010090041615155b1561067e5760ff8481166000908152600160209081526040808320338085526002909101909252918290205491516308538db760e41b8152600481019190915281831660248201526101009091049091166044820152606401610392565b604080518082019091526000808252602082015260005b6040516342c39d9160e01b815260ff871660048201527f00000000000000000000000000000000000000000000000000000000000000006001600160a01b0316906342c39d919060240160408051808303816000875af11580156106fd573d6000803e3d6000fd5b505050506040513d601f19601f8201168201806040525081019061072191906140c8565b9150610767604051806040016040528060138152602001724e657720726e6420706169722025732c20257360681b815250836000015160ff16846020015160ff16613523565b60005b60ff80881660009081526001602052604090206003015490821610156109065761080e6040518060400160405280601781526020017f696e206c6f6f702025732c20616464726573733a2025730000000000000000008152508260ff16600160008b60ff1681526020019081526020016000206003018460ff16815481106107f4576107f46140e4565b6000918252602090912001546001600160a01b031661356a565b825160ff8881166000908152600160205260408120600381018054948416946002909201939091908616908110610847576108476140e4565b60009182526020808320909101546001600160a01b0316835282019290925260400190205460ff161480156108e6575060208084015160ff898116600090815260019093526040832060038101805493831694600290920193919290919086169081106108b6576108b66140e4565b60009182526020808320909101546001600160a01b0316835282019290925260400190205460ff61010090910416145b156108f45760019150610906565b806108fe816140fa565b91505061076a565b508061069557604080516101208101825283815260006020808301828152838501839052606084018390526080840183905260a084018390523360c0850181905260e085018b90526101008086018b905260ff8d8116865260018086528887209387526002909301855296909420855180518254919095015194881661ffff19909116179390961690930291909117845551838201805493948594909360ff1991909116908360068111156109bd576109bd613cf6565b0217905550604082015160018201805460ff9092166101000261ff001983168117825560608501519262ff00001990911662ffff00199091161762010000836006811115610a0d57610a0d613cf6565b021790555060808201516001828101805460a086015160c08701516001600160a01b0316650100000000000265010000000000600160c81b03199115156401000000000264ff000000001960ff9788166301000000021664ffff0000001990941693909317929092171617905560e084015160028401556101009093015160039283015589166000818152602084815260408083209094018054958601815582529081902090930180546001600160a01b03191633908117909155915190815290917f3138d9d3c5b626eff736a8d5bf07552d9f568087655c46803ee715f424ec1b8e910160405180910390a29695505050505050565b60ff8082166000908152600160208190526040822060040154919291909116151514610b425760405162461bcd60e51b815260040161039290613fa1565b60405163436fadf360e11b815260ff831660048201527f00000000000000000000000000000000000000000000000000000000000000006001600160a01b0316906386df5be690602401602060405180830381865afa158015610ba9573d6000803e3d6000fd5b505050506040513d601f19601f82011682018060405250810190610bcd9190614119565b92915050565b60ff80821660009081526001602081905260409091206004015463010000009004909116151514610c505760405162461bcd60e51b815260206004820152602160248201527f5375626d6974206d6f76657320686173206e6f742073746172746564207965746044820152602160f81b6064820152608401610392565b60ff808216600090815260016020819052604090912060040154909116151514610c8c5760405162461bcd60e51b815260040161039290613fa1565b60ff8116600090815260016020818152604080842033855260020190915290912080820180549192889260ff191690836006811115610ccd57610ccd613cf6565b021790555060018101805461ff0019811661010060ff891602908117835586929162ffff00191662ff0000199091161762010000836006811115610d1357610d13613cf6565b021790555060018101805464ff000000001960ff86166301000000021664ffff000000199091161764010000000017905560405133907f63563f18a7ee7809189f125844fc3e755b5d0f355be5c5928a54ca925dcd576b90600090a2505050505050565b60ff80821660009081526001602081905260409091206004015460609216151514610db45760405162461bcd60e51b815260040161039290613fa1565b60405163436fadf360e11b815260ff831660048201526000907f00000000000000000000000000000000000000000000000000000000000000006001600160a01b0316906386df5be690602401602060405180830381865afa158015610e1e573d6000803e3d6000fd5b505050506040513d601f19601f82011682018060405250810190610e429190614119565b90506000610e51826001614136565b610e5c83600361414f565b610e66919061414f565b610e71906001614136565b60ff16905060008167ffffffffffffffff811115610e9157610e91613b76565b604051908082528060200260200182016040528015610ed657816020015b6040805180820190915260008082526020820152815260200190600190039081610eaf5790505b50905060405180604001604052808460ff1681526020018460ff1681525081600081518110610f0757610f076140e4565b602090810291909101015260015b8360ff168160ff161161108657600081610f3060018261416b565b610f3b90600361414f565b610f45919061414f565b610f50906001614136565b60ff16905060007f00000000000000000000000000000000000000000000000000000000000000006001600160a01b03166339e5c4a085600081518110610f9957610f996140e4565b6020026020010151856040518363ffffffff1660e01b8152600401610fbf929190614184565b600060405180830381865afa158015610fdc573d6000803e3d6000fd5b505050506040513d6000823e601f3d908101601f1916820160405261100491908101906141b2565b905060005b81518160ff16101561107057818160ff168151811061102a5761102a6140e4565b6020026020010151858260ff16856110429190614265565b81518110611052576110526140e4565b60200260200101819052508080611068906140fa565b915050611009565b505050808061107e906140fa565b915050610f15565b50949350505050565b60408051608081018252600080825260208201819052918101829052606081019190915260ff8083166000908152600160208190526040909120600401549091161515146110ef5760405162461bcd60e51b815260040161039290613fa1565b6040516326811c4360e11b81526001600160a01b037f00000000000000000000000000000000000000000000000000000000000000001690634d0238869061113d9086908690600401614184565b608060405180830381865afa15801561115a573d6000803e3d6000fd5b505050506040513d601f19601f8201168201806040525081019061117e9190614278565b9392505050565b61118d6134c9565b60ff8082166000908152600160208190526040909120600401549091161515146111c95760405162461bcd60e51b815260040161039290613fa1565b60005b60ff82166000908152600160205260409020600301548110156112745760ff821660009081526001602052604081206003810180546002909201929184908110611218576112186140e4565b60009182526020808320909101546001600160a01b031683528201929092526040018120805461ffff191681556001810180546001600160c81b031916905560028101829055600301558061126c816140af565b9150506111cc565b5060ff8116600090815260016020526040812061129691600390910190613b2b565b604051631a405d8760e31b815260ff8084166004830152821660248201527f00000000000000000000000000000000000000000000000000000000000000006001600160a01b03169063d202ec3890604401600060405180830381600087803b15801561130257600080fd5b505af1158015611316573d6000803e3d6000fd5b50506040516318068d3760e01b815260ff841660048201527f00000000000000000000000000000000000000000000000000000000000000006001600160a01b031692506318068d379150602401600060405180830381600087803b15801561137e57600080fd5b505af1158015611392573d6000803e3d6000fd5b50506040805160ff8087168252851660208201527fd76a0a97b7d547fef69b0cd90fb02087b761703ae2b5e4e91a99e8fd17e308ad935001905060405180910390a15050565b6113e06134c9565b60ff8160ff16106114335760405162461bcd60e51b815260206004820152601f60248201527f4d6178696d756d206e756d626572206f662067616d65732072656163686564006044820152606401610392565b60ff80821660009081526001602052604090206004015416156114a65760405162461bcd60e51b815260206004820152602560248201527f47616d652077697468207468697320494420616c726561647920696e2070726f604482015264677265737360d81b6064820152608401610392565b60ff8116600081815260016020818152604092839020600401805460ff191690921790915590519182527f13cb55fc1bec4b9f4cd4c22f154240b469cb108a23a35aa599df0c3da46f2d149101610554565b6115006134c9565b61150a60006135b1565b565b6115146134c9565b60ff8082166000908152600160208190526040909120600401549091161515146115505760405162461bcd60e51b815260040161039290613fa1565b60ff8116600081815260016020908152604091829020600401805460ff1916905590519182527f4df34531b3f238bc8f90ad83236d8c752e7444e434bb5fc99f888f0a6345c0e79101610554565b6115a66134c9565b60ff8082166000908152600160208190526040909120600401549091161515146115e25760405162461bcd60e51b815260040161039290613fa1565b60ff8116600090815260016020526040902054611601906003906142f9565b60000361199d5760ff81811660008181526001602081905260409182902001549051634affc34f60e01b8152600481019290925290911660248201527f00000000000000000000000000000000000000000000000000000000000000006001600160a01b031690634affc34f90604401600060405180830381600087803b15801561168b57600080fd5b505af115801561169f573d6000803e3d6000fd5b50505060ff8083166000908152600160208190526040822001805490921692506116c8836140fa565b91906101000a81548160ff021916908360ff160217905550507fab00852360aeece33bb03176d4e62fbb27adf3fd1a81b9d543c1ae388003b0ac81604051611719919060ff91909116815260200190565b60405180910390a160005b60ff808316600090815260016020526040902060030154908216101561199b5760ff8083166000908152600160205260408120600381018054929360029092019284928616908110611778576117786140e4565b60009182526020808320909101546001600160a01b03168352828101939093526040918201902081518083019092525460ff8082168352610100909104169181019190915290506117c98184613601565b156119885760ff808416600090815260016020526040902060030180546118179285169081106117fb576117fb6140e4565b6000918252602090912001546001600160a01b031683856136a0565b600160008460ff1681526020019081526020016000206003018260ff1681548110611844576118446140e4565b60009182526020822001546040516001600160a01b03909116917fde799944f2181affb59af83964487f2209eaebf324103f8cb034352973e6d93f91a260ff83166000908152600160208190526040909120600301805490916118a69161431b565b815481106118b6576118b66140e4565b9060005260206000200160009054906101000a90046001600160a01b0316600160008560ff1681526020019081526020016000206003018360ff1681548110611901576119016140e4565b600091825260208083209190910180546001600160a01b0319166001600160a01b03949094169390931790925560ff8516815260019091526040902060030180548061194f5761194f61432e565b600082815260209020810160001990810180546001600160a01b031916905501905560ff821615611988578161198481614344565b9250505b5080611993816140fa565b915050611724565b505b60ff811660009081526001602052604081206003015467ffffffffffffffff8111156119cb576119cb613b76565b604051908082528060200260200182016040528015611a1057816020015b60408051808201909152600080825260208201528152602001906001900390816119e95790505b5060ff83166000908152600160205260408120600301549192509067ffffffffffffffff811115611a4357611a43613b76565b604051908082528060200260200182016040528015611a6c578160200160208202803683370190505b50905060005b60ff8085166000908152600160205260409020600301549082161015611acb576001828260ff1681518110611aa957611aa96140e4565b9115156020928302919091019091015280611ac3816140fa565b915050611a72565b5060005b60ff80851660009081526001602052604090206003015490821610156120c65760ff8085166000908152600160205260408120600381018054929360029092019284928616908110611b2357611b236140e4565b60009182526020808320909101546001600160a01b03908116845290830193909352604090910190206001015465010000000000900416146120b45760ff80851660009081526001602052604081206003810180546002909201939091908516908110611b9257611b926140e4565b60009182526020808320909101546001600160a01b0316835282019290925260400190206001015460ff64010000000090910416156120b45760ff8085166000908152600160205260408120600381018054929384936001600160a01b037f00000000000000000000000000000000000000000000000000000000000000001693631cf8a321936002909101928692908916908110611c3357611c336140e4565b60009182526020808320909101546001600160a01b03168352828101939093526040918201812060ff808d1683526001909452918120600381018054939460029092019390918a16908110611c8a57611c8a6140e4565b60009182526020808320909101546001600160a01b03168352828101939093526040918201812060019081015460ff8e8116845291909452918120600381018054948416946002909201939091908b16908110611ce957611ce96140e4565b60009182526020808320909101546001600160a01b0316835282019290925260409081019091206001015490516001600160e01b031960e086901b168152611d4193929160ff61010090910416908c90600401614361565b606060405180830381865afa158015611d5e573d6000803e3d6000fd5b505050506040513d601f19601f82011682018060405250810190611d829190614065565b915091508115611e6f5760ff80871660009081526001602052604090206003018054611dd5928616908110611db957611db96140e4565b6000918252602090912001546001600160a01b031684886136a0565b6000848460ff1681518110611dec57611dec6140e4565b602002602001019015159081151581525050600160008760ff1681526020019081526020016000206003018360ff1681548110611e2b57611e2b6140e4565b60009182526020822001546040516001600160a01b03909116917fc9d98a36ffe0495d3a50a0bac4845433395c60e4b8e8d58a5e948f4b5011418e91a250506120b4565b600160008760ff1681526020019081526020016000206003018360ff1681548110611e9c57611e9c6140e4565b600091825260208083209091015460ff808a1684526001909252604083206003810180546001600160a01b03909316947fceae29e2080af6f3418f9732932f2fcaba818cc37e1dce5a7a02e76ab8b7d3119460029093019390928916908110611f0757611f076140e4565b60009182526020808320909101546001600160a01b0316835282810193909352604091820181205460ff8c8116835260019094529181206003810180549385169460029092019390918a16908110611f6157611f616140e4565b6000918252602080832091909101546001600160a01b03168352828101939093526040918201902054865187840151835160ff9687168152610100909304861694830194909452841681830152929091166060830152519081900360800190a260ff80871660009081526001602052604081206003810180548594600290930193928816908110611ff457611ff46140e4565b60009182526020808320909101546001600160a01b031683528281019390935260409182018120845181549585015160ff9081166101000261ffff1990971691811691909117959095179055898416815260019092529020600301805490918516908110612064576120646140e4565b6000918252602091829020015460405160ff891681526001600160a01b03909116917f4a5516f0f1d85471405ad39e7a960ba9a7b312f2bdc784a6dce8402611417fd6910160405180910390a250505b806120be816140fa565b915050611acf565b5060005b60ff808516600090815260016020526040902060030154908216101561245057818160ff16815181106120ff576120ff6140e4565b60200260200101511561243e5760ff808516600090815260016020526040812060038101805492936001600160a01b037f0000000000000000000000000000000000000000000000000000000000000000169363d6192ad3936002019286929091908816908110612172576121726140e4565b60009182526020808320909101546001600160a01b03168352828101939093526040918201812060ff808c16835260019094529181206003810180549394600290920193909189169081106121c9576121c96140e4565b60009182526020808320909101546001600160a01b03168352828101939093526040918201812060019081015460ff8d811684529190945291812060038101805462010000909504841694600292909201939091908a1690811061222f5761222f6140e4565b60009182526020808320909101546001600160a01b0316835282019290925260409081019091206001015490516001600160e01b031960e086901b16815261228793929160ff6301000000909104169060040161437f565b6040805180830381865afa1580156122a3573d6000803e3d6000fd5b505050506040513d601f19601f820116820180604052508101906122c791906140c8565b905080848360ff16815181106122df576122df6140e4565b6020026020010181905250600160008660ff1681526020019081526020016000206003018260ff1681548110612317576123176140e4565b600091825260208083209091015460ff80891684526001909252604083206003810180546001600160a01b03909316947f1b091cd7fb95d0d0f4e6d258d38ee7e4cbd2047d3d73848bf17255b9324916019460029093019390928816908110612382576123826140e4565b60009182526020808320909101546001600160a01b0316835282810193909352604091820181205460ff8b81168352600190945291812060038101805493851694600290920193909189169081106123dc576123dc6140e4565b6000918252602080832091909101546001600160a01b03168352828101939093526040918201902054865187840151835160ff9687168152610100909304861694830194909452841681830152929091166060830152519081900360800190a2505b80612448816140fa565b9150506120ca565b5060005b60ff8085166000908152600160205260409020600301549082161015612a685760005b60ff8086166000908152600160205260409020600301549082161015612a55578060ff168260ff1614612a4357828260ff16815181106124b9576124b96140e4565b602002602001015180156124e65750828160ff16815181106124dd576124dd6140e4565b60200260200101515b80156125a4575060ff80861660009081526001602052604081206003810180546002909201939091908616908110612520576125206140e4565b60009182526020808320909101546001600160a01b0316835282810193909352604091820181205460ff89811683526001909452918120600381018054938516946002909201939091861690811061257a5761257a6140e4565b60009182526020808320909101546001600160a01b0316835282019290925260400190205460ff16145b801561266d575060ff808616600090815260016020526040812060038101805460029092019390919086169081106125de576125de6140e4565b60009182526020808320909101546001600160a01b0316835282810193909352604091820181205460ff898116835260019094529181206003810180546101009094048516946002909201939091861690811061263d5761263d6140e4565b60009182526020808320909101546001600160a01b0316835282019290925260400190205460ff61010090910416145b15612829576000838360ff1681518110612689576126896140e4565b6020026020010190151590811515815250506000838260ff16815181106126b2576126b26140e4565b91151560209283029190910182015260ff808716600090815260019092526040909120600301805461270b9285169081106126ef576126ef6140e4565b6000918252602090912001546001600160a01b031683876136a0565b60ff80861660009081526001602052604090206003018054612754928416908110612738576127386140e4565b6000918252602090912001546001600160a01b031682876136a0565b600160008660ff1681526020019081526020016000206003018260ff1681548110612781576127816140e4565b60009182526020822001546040516001600160a01b03909116917ff6efc0f0f7270e6470ae421c2c220a2930f349c2e85e2cff70701cb5ee7b1de291a2600160008660ff1681526020019081526020016000206003018160ff16815481106127eb576127eb6140e4565b60009182526020822001546040516001600160a01b03909116917ff6efc0f0f7270e6470ae421c2c220a2930f349c2e85e2cff70701cb5ee7b1de291a25b828260ff168151811061283e5761283e6140e4565b602002602001015180156128d2575060ff80861660009081526001602052604081206003810180546002909201939091908616908110612880576128806140e4565b60009182526020808320909101546001600160a01b03168352820192909252604001902054845160ff9182169186919084169081106128c1576128c16140e4565b60200260200101516000015160ff16145b8015612963575060ff8086166000908152600160205260408120600381018054600290920193909190861690811061290c5761290c6140e4565b60009182526020808320909101546001600160a01b03168352820192909252604001902054845160ff6101009092048216918691908416908110612952576129526140e4565b60200260200101516020015160ff16145b15612a435760ff808616600090815260016020526040902060030180546129959285169081106126ef576126ef6140e4565b600160008660ff1681526020019081526020016000206003018160ff16815481106129c2576129c26140e4565b600091825260208083209091015460ff80891684526001909252604090922060030180546001600160a01b039093169290918516908110612a0557612a056140e4565b60009182526020822001546040516001600160a01b03909116917f702e79c3c668b5e07dd82bee771df58a589de806961a825fe169e324ceec57d791a35b80612a4d816140fa565b915050612477565b5080612a60816140fa565b915050612454565b5060005b60ff8085166000908152600160205260409020600301549082161015612bf75760006001600160a01b0316600160008660ff1681526020019081526020016000206003018260ff1681548110612ac457612ac46140e4565b6000918252602090912001546001600160a01b031603612be55760ff8416600090815260016020819052604090912060030180549091612b039161431b565b81548110612b1357612b136140e4565b9060005260206000200160009054906101000a90046001600160a01b0316600160008660ff1681526020019081526020016000206003018260ff1681548110612b5e57612b5e6140e4565b600091825260208083209190910180546001600160a01b0319166001600160a01b03949094169390931790925560ff86168152600190915260409020600301805480612bac57612bac61432e565b600082815260209020810160001990810180546001600160a01b031916905501905560ff811615612be55780612be181614344565b9150505b80612bef816140fa565b915050612a6c565b5060ff83166000908152600160205260408120600301549003612c8e577fb609981dd10c4309ee2f55e2fd9b631438fb9d9de43270f098b64571e58352db604051612c5f906020808252600990820152682737903bb4b73732b960b91b604082015260600190565b60405180910390a160ff83166000908152600160205260409020600401805461ff001916610100179055612fd8565b60ff83166000908152600160208190526040909120600301549003612d3b5760ff8316600090815260016020526040812060030180547fb609981dd10c4309ee2f55e2fd9b631438fb9d9de43270f098b64571e58352db92612d119291612cf757612cf76140e4565b6000918252602090912001546001600160a01b031661381f565b604051602001612d2191906143db565b60408051601f1981840301815290829052612c5f91614443565b60ff831660009081526001602052604081206003018054909190612d6157612d616140e4565b60009182526020822001546040516001600160a01b0390911691907f71c863affc60bf856f78adf835c2f8d43a35f214dc51c98e8b9953560f30bf82908290a360005b60ff8085166000908152600160205260409020600301549082161015612fb65760ff8085166000908152600160205260408120600381018054600694600290930193928616908110612df857612df86140e4565b60009182526020808320909101546001600160a01b03168352820192909252604001902060019081018054909160ff1990911690836006811115612e3e57612e3e613cf6565b021790555060ff8085166000908152600160205260408120600381018054929360029092019284928616908110612e7757612e776140e4565b6000918252602080832091909101546001600160a01b0316835282810193909352604091820181206001908101805461ff00191661010060ff9788160217905588851682529092528120600381018054600694600290930193928616908110612ee257612ee26140e4565b60009182526020808320909101546001600160a01b031683528201929092526040019020600101805462ff0000191662010000836006811115612f2757612f27613cf6565b021790555060ff8085166000908152600160205260408120600381018054929360029092019284928616908110612f6057612f606140e4565b60009182526020808320909101546001600160a01b031683528201929092526040019020600101805460ff9290921663010000000263ff0000001990921691909117905580612fae816140fa565b915050612da4565b5060ff83166000908152600160205260409020600401805463ff000000191690555b60405160ff841681527fd44344392ee117b90bc172ab74cce9c43a862f0d5e11a336b3885fde466c244e9060200160405180910390a1505050565b604080518082019091526000808252602082015260ff8083166000908152600160208190526040909120600401549091161515146130635760405162461bcd60e51b815260040161039290613fa1565b604051630d42527560e11b81526001600160a01b037f00000000000000000000000000000000000000000000000000000000000000001690631a84a4ea906130b390889088908890600401614456565b6040805180830381865afa1580156130cf573d6000803e3d6000fd5b505050506040513d601f19601f820116820180604052508101906130f391906140c8565b95945050505050565b6131046134c9565b6001600160a01b0381166131695760405162461bcd60e51b815260206004820152602660248201527f4f776e61626c653a206e6577206f776e657220697320746865207a65726f206160448201526564647265737360d01b6064820152608401610392565b613172816135b1565b50565b60ff808216600090815260016020819052604090912060040154606092161515146131b25760405162461bcd60e51b815260040161039290613fa1565b60ff821660009081526001602052604081206003015467ffffffffffffffff8111156131e0576131e0613b76565b60405190808252806020026020018201604052801561321957816020015b613206613ad0565b8152602001906001900390816131fe5790505b50905061324d6040518060400160405280601081526020016f52657472696576696e6720736869707360801b815250613857565b60005b60ff84166000908152600160205260409020600301548110156133e95760ff84166000908152600160205260408120600381018054600290920192918490811061329c5761329c6140e4565b60009182526020808320909101546001600160a01b03168352828101939093526040918201902081516101608101909252805460ff808216610120850190815261010090920481166101408501529083526001820154929391929184019116600681111561330c5761330c613cf6565b600681111561331d5761331d613cf6565b8152600182015460ff6101008204811660208401526040909201916201000090910416600681111561335157613351613cf6565b600681111561336257613362613cf6565b8152600182015460ff6301000000820481166020840152640100000000820416151560408301526001600160a01b03650100000000009091041660608201526002820154608082015260039091015460a09091015282518390839081106133cb576133cb6140e4565b602002602001018190525080806133e1906140af565b915050613250565b5092915050565b60ff80821660009081526001602081905260409091206004015490911615151461342c5760405162461bcd60e51b815260040161039290613fa1565b6000805b60ff80841660009081526001602052604090206003015490821610156134b85760ff808416600090815260016020526040902060030180546001600160a01b038716928416908110613484576134846140e4565b6000918252602090912001546001600160a01b0316036134a6578091506134b8565b806134b0816140fa565b915050613430565b506134c48382846136a0565b505050565b6000546001600160a01b0316331461150a5760405162461bcd60e51b815260206004820181905260248201527f4f776e61626c653a2063616c6c6572206973206e6f7420746865206f776e65726044820152606401610392565b6134c483838360405160240161353b93929190614474565b60408051601f198184030181529190526020810180516001600160e01b031663ca47c4eb60e01b179052613896565b6134c483838360405160240161358293929190614499565b60408051601f198184030181529190526020810180516001600160e01b031663038fd88960e31b179052613896565b600080546001600160a01b038381166001600160a01b0319831681178455604051919092169283917f8be0079c531659141344cd1fd0a4f28419497f9722a3daafe3b4186f6b6457e09190a35050565b6000807f00000000000000000000000000000000000000000000000000000000000000006001600160a01b0316634d02388685856040518363ffffffff1660e01b8152600401613652929190614184565b608060405180830381865afa15801561366f573d6000803e3d6000fd5b505050506040513d601f19601f820116820180604052508101906136939190614278565b6060015115949350505050565b60ff808216600090815260016020526040902060030154908316106137075760405162461bcd60e51b815260206004820152601860248201527f496e6465782076616c7565206f7574206f662072616e676500000000000000006044820152606401610392565b60ff8082166000908152600160208190526040909120600401549091161515146137435760405162461bcd60e51b815260040161039290613fa1565b6040516001600160a01b038416907fce0e3c7f8595684f9560df3c82cb81a6c5a649fcf1bdc96b2dc8b7bf228d650090600090a260ff80821660008181526001602081815260408084206001600160a01b038a16855260028082018452918520805461ffff1916815580850180546001600160c81b031916905591820185905560039182018590559484529190529091018054919290919085169081106137ec576137ec6140e4565b9060005260206000200160006101000a8154816001600160a01b0302191690836001600160a01b03160217905550505050565b604051606082811b6bffffffffffffffffffffffff1916602083015290610bcd906034016040516020818303038152906040526138b7565b6131728160405160240161386b9190614443565b60408051601f198184030181529190526020810180516001600160e01b031663104c13eb60e21b1790525b80516a636f6e736f6c652e6c6f67602083016000808483855afa5050505050565b60408051808201909152601081526f181899199a1a9b1b9c1cb0b131b232b360811b60208201528151606091906000906138f29060026144cc565b6138fd906002614265565b67ffffffffffffffff81111561391557613915613b76565b6040519080825280601f01601f19166020018201604052801561393f576020820181803683370190505b509050600360fc1b8160008151811061395a5761395a6140e4565b60200101906001600160f81b031916908160001a905350600f60fb1b81600181518110613989576139896140e4565b60200101906001600160f81b031916908160001a90535060005b8451811015613ac8578260048683815181106139c1576139c16140e4565b016020015182516001600160f81b031990911690911c60f81c9081106139e9576139e96140e4565b01602001516001600160f81b03191682613a048360026144cc565b613a0f906002614265565b81518110613a1f57613a1f6140e4565b60200101906001600160f81b031916908160001a90535082858281518110613a4957613a496140e4565b602091010151815160f89190911c600f16908110613a6957613a696140e4565b01602001516001600160f81b03191682613a848360026144cc565b613a8f906003614265565b81518110613a9f57613a9f6140e4565b60200101906001600160f81b031916908160001a90535080613ac0816140af565b9150506139a3565b509392505050565b6040805161016081018252600061012082018181526101408301829052825260208201819052918101829052606081018290526080810182905260a0810182905260c0810182905260e0810182905261010081019190915290565b508054600082559060005260206000209081019061317291905b80821115613b595760008155600101613b45565b5090565b600060208284031215613b6f57600080fd5b5035919050565b634e487b7160e01b600052604160045260246000fd5b6040805190810167ffffffffffffffff81118282101715613baf57613baf613b76565b60405290565b604051601f8201601f1916810167ffffffffffffffff81118282101715613bde57613bde613b76565b604052919050565b60ff8116811461317257600080fd5b600060408284031215613c0757600080fd5b613c0f613b8c565b90508135613c1c81613be6565b81526020820135613c2c81613be6565b602082015292915050565b803560078110613c4657600080fd5b919050565b60008060008060a08587031215613c6157600080fd5b613c6b8686613bf5565b9350613c7960408601613c37565b92506060850135613c8981613be6565b91506080850135613c9981613be6565b939692955090935050565b600060208284031215613cb657600080fd5b813561117e81613be6565b600080600060608486031215613cd657600080fd5b8335613ce181613be6565b95602085013595506040909401359392505050565b634e487b7160e01b600052602160045260246000fd5b60078110613d2a57634e487b7160e01b600052602160045260246000fd5b9052565b613d49828251805160ff908116835260209182015116910152565b6020810151613d5b6040840182613d0c565b5060ff60408201511660608301526060810151613d7b6080840182613d0c565b5060ff60808201511660a083015260a0810151613d9c60c084018215159052565b5060c08101516001600160a01b03811660e08401525060e081015161010083810191909152015161012090910152565b6101408101610bcd8284613d2e565b600080600080600060a08688031215613df357600080fd5b613dfc86613c37565b94506020860135613e0c81613be6565b9350613e1a60408701613c37565b92506060860135613e2a81613be6565b91506080860135613e3a81613be6565b809150509295509295909350565b602080825282518282018190526000919060409081850190868401855b82811015613e9857613e88848351805160ff908116835260209182015116910152565b9284019290850190600101613e65565b5091979650505050505050565b60008060608385031215613eb857600080fd5b613ec28484613bf5565b91506040830135613ed281613be6565b809150509250929050565b60008060408385031215613ef057600080fd5b8235613efb81613be6565b91506020830135613ed281613be6565b60408101610bcd8284805160ff908116835260209182015116910152565b600060208284031215613f3b57600080fd5b81356001600160a01b038116811461117e57600080fd5b6020808252825182820181905260009190848201906040850190845b81811015613f9557613f81838551613d2e565b928401926101409290920191600101613f6e565b50909695505050505050565b60208082526019908201527f47616d6520686173206e6f742073746172746564207965742100000000000000604082015260600190565b60a08101613ff68287805160ff908116835260209182015116910152565b6140036040830186613d0c565b60ff8416606083015260ff8316608083015295945050505050565b80518015158114613c4657600080fd5b60006040828403121561404057600080fd5b614048613b8c565b9050815161405581613be6565b81526020820151613c2c81613be6565b6000806060838503121561407857600080fd5b6140818361401e565b9150614090846020850161402e565b90509250929050565b634e487b7160e01b600052601160045260246000fd5b6000600182016140c1576140c1614099565b5060010190565b6000604082840312156140da57600080fd5b61117e838361402e565b634e487b7160e01b600052603260045260246000fd5b600060ff821660ff810361411057614110614099565b60010192915050565b60006020828403121561412b57600080fd5b815161117e81613be6565b60ff8181168382160190811115610bcd57610bcd614099565b60ff81811683821602908116908181146133e9576133e9614099565b60ff8281168282160390811115610bcd57610bcd614099565b606081016141a28285805160ff908116835260209182015116910152565b60ff831660408301529392505050565b600060208083850312156141c557600080fd5b825167ffffffffffffffff808211156141dd57600080fd5b818501915085601f8301126141f157600080fd5b81518181111561420357614203613b76565b614211848260051b01613bb5565b818152848101925060069190911b83018401908782111561423157600080fd5b928401925b8184101561425a57614248888561402e565b83528483019250604084019350614236565b979650505050505050565b80820180821115610bcd57610bcd614099565b60006080828403121561428a57600080fd5b6040516080810181811067ffffffffffffffff821117156142ad576142ad613b76565b60405282516142bb81613be6565b815260208301516142cb81613be6565b60208201526142dc6040840161401e565b60408201526142ed6060840161401e565b60608201529392505050565b60008261431657634e487b7160e01b600052601260045260246000fd5b500690565b81810381811115610bcd57610bcd614099565b634e487b7160e01b600052603160045260246000fd5b600060ff82168061435757614357614099565b6000190192915050565b845460ff808216835260089190911c16602082015260a08101613ff6565b835460ff808216835260089190911c166020820152608081015b6143a66040830185613d0c565b60ff83166060830152949350505050565b60005b838110156143d25781810151838201526020016143ba565b50506000910152565b7302a34329023b0b6b2903bb4b73732b91034b99d160651b81526000825161440a8160148501602087016143b7565b9190910160140192915050565b6000815180845261442f8160208601602086016143b7565b601f01601f19169290920160200192915050565b60208152600061117e6020830184614417565b608081016143998286805160ff908116835260209182015116910152565b6060815260006144876060830186614417565b60208301949094525060400152919050565b6060815260006144ac6060830186614417565b6020830194909452506001600160a01b0391909116604090910152919050565b8082028115828204841417610bcd57610bcd61409956fea2646970667358221220cc0b80b6cf342e9ff6a378d0a888f9810243eca3aef89fe06ad7142a5b27ff2764736f6c63430008120033",
  "linkReferences": {},
  "deployedLinkReferences": {}
}