{
  "_format": "hh-sol-artifact-1",
  "contractName": "GameNP",
  "sourceName": "contracts/GameNP.sol",
  "abi": [
    {
      "inputs": [
        {
          "internalType": "address",
          "name": "_mapAddress",
          "type": "address"
        }
      ],
      "stateMutability": "nonpayable",
      "type": "constructor"
    },
    {
      "inputs": [
        {
          "internalType": "address",
          "name": "player",
          "type": "address"
        },
        {
          "internalType": "uint8",
          "name": "q",
          "type": "uint8"
        },
        {
          "internalType": "uint8",
          "name": "r",
          "type": "uint8"
        }
      ],
      "name": "ShipAlreadyAdded",
      "type": "error"
    },
    {
      "anonymous": false,
      "inputs": [
        {
          "indexed": false,
          "internalType": "uint8",
          "name": "gameId",
          "type": "uint8"
        }
      ],
      "name": "CommitPhaseStarted",
      "type": "event"
    },
    {
      "anonymous": false,
      "inputs": [
        {
          "indexed": false,
          "internalType": "uint8",
          "name": "gameId",
          "type": "uint8"
        }
      ],
      "name": "GameEnded",
      "type": "event"
    },
    {
      "anonymous": false,
      "inputs": [
        {
          "indexed": false,
          "internalType": "uint8",
          "name": "gameId",
          "type": "uint8"
        }
      ],
      "name": "GameStarted",
      "type": "event"
    },
    {
      "anonymous": false,
      "inputs": [
        {
          "indexed": true,
          "internalType": "bool",
          "name": "gameStatus",
          "type": "bool"
        },
        {
          "indexed": true,
          "internalType": "address",
          "name": "winnerAddress",
          "type": "address"
        }
      ],
      "name": "GameUpdated",
      "type": "event"
    },
    {
      "anonymous": false,
      "inputs": [
        {
          "indexed": false,
          "internalType": "string",
          "name": "gameWinner",
          "type": "string"
        }
      ],
      "name": "GameWinner",
      "type": "event"
    },
    {
      "anonymous": false,
      "inputs": [
        {
          "indexed": false,
          "internalType": "uint8",
          "name": "radius",
          "type": "uint8"
        },
        {
          "indexed": false,
          "internalType": "uint8",
          "name": "gameId",
          "type": "uint8"
        }
      ],
      "name": "MapInitialized",
      "type": "event"
    },
    {
      "anonymous": false,
      "inputs": [
        {
          "indexed": true,
          "internalType": "address",
          "name": "player",
          "type": "address"
        }
      ],
      "name": "MoveCommitted",
      "type": "event"
    },
    {
      "anonymous": false,
      "inputs": [
        {
          "indexed": true,
          "internalType": "address",
          "name": "player",
          "type": "address"
        }
      ],
      "name": "MoveSubmitted",
      "type": "event"
    },
    {
      "anonymous": false,
      "inputs": [
        {
          "indexed": true,
          "internalType": "address",
          "name": "previousOwner",
          "type": "address"
        },
        {
          "indexed": true,
          "internalType": "address",
          "name": "newOwner",
          "type": "address"
        }
      ],
      "name": "OwnershipTransferred",
      "type": "event"
    },
    {
      "anonymous": false,
      "inputs": [
        {
          "indexed": true,
          "internalType": "address",
          "name": "player",
          "type": "address"
        },
        {
          "indexed": false,
          "internalType": "uint8",
          "name": "gameId",
          "type": "uint8"
        }
      ],
      "name": "PlayerAdded",
      "type": "event"
    },
    {
      "anonymous": false,
      "inputs": [
        {
          "indexed": true,
          "internalType": "address",
          "name": "player",
          "type": "address"
        }
      ],
      "name": "PlayerDefeated",
      "type": "event"
    },
    {
      "anonymous": false,
      "inputs": [
        {
          "indexed": true,
          "internalType": "address",
          "name": "captain",
          "type": "address"
        }
      ],
      "name": "ShipCollidedWithIsland",
      "type": "event"
    },
    {
      "anonymous": false,
      "inputs": [
        {
          "indexed": true,
          "internalType": "address",
          "name": "victim",
          "type": "address"
        },
        {
          "indexed": true,
          "internalType": "address",
          "name": "attacker",
          "type": "address"
        }
      ],
      "name": "ShipHit",
      "type": "event"
    },
    {
      "anonymous": false,
      "inputs": [
        {
          "indexed": true,
          "internalType": "address",
          "name": "captain",
          "type": "address"
        },
        {
          "indexed": false,
          "internalType": "uint8",
          "name": "q",
          "type": "uint8"
        },
        {
          "indexed": false,
          "internalType": "uint8",
          "name": "r",
          "type": "uint8"
        }
      ],
      "name": "ShipMoved",
      "type": "event"
    },
    {
      "anonymous": false,
      "inputs": [
        {
          "indexed": true,
          "internalType": "address",
          "name": "captain",
          "type": "address"
        },
        {
          "indexed": false,
          "internalType": "uint8",
          "name": "shotQ",
          "type": "uint8"
        },
        {
          "indexed": false,
          "internalType": "uint8",
          "name": "shotR",
          "type": "uint8"
        }
      ],
      "name": "ShipShot",
      "type": "event"
    },
    {
      "anonymous": false,
      "inputs": [
        {
          "indexed": true,
          "internalType": "address",
          "name": "captain",
          "type": "address"
        }
      ],
      "name": "ShipSunk",
      "type": "event"
    },
    {
      "anonymous": false,
      "inputs": [
        {
          "indexed": false,
          "internalType": "uint8",
          "name": "gameId",
          "type": "uint8"
        }
      ],
      "name": "SubmitPhaseStarted",
      "type": "event"
    },
    {
      "inputs": [
        {
          "internalType": "uint8",
          "name": "gameId",
          "type": "uint8"
        },
        {
          "internalType": "uint256",
          "name": "_speed",
          "type": "uint256"
        },
        {
          "internalType": "uint256",
          "name": "_range",
          "type": "uint256"
        },
        {
          "internalType": "uint8",
          "name": "_maxAllowedMove",
          "type": "uint8"
        }
      ],
      "name": "addShip",
      "outputs": [
        {
          "components": [
            {
              "components": [
                {
                  "internalType": "uint8",
                  "name": "q",
                  "type": "uint8"
                },
                {
                  "internalType": "uint8",
                  "name": "r",
                  "type": "uint8"
                }
              ],
              "internalType": "struct SharedStructs.Coordinate",
              "name": "coordinate",
              "type": "tuple"
            },
            {
              "internalType": "enum SharedStructs.Directions",
              "name": "travelDirection",
              "type": "uint8"
            },
            {
              "internalType": "uint8",
              "name": "travelDistance",
              "type": "uint8"
            },
            {
              "internalType": "enum SharedStructs.Directions",
              "name": "shotDirection",
              "type": "uint8"
            },
            {
              "internalType": "uint8",
              "name": "shotDistance",
              "type": "uint8"
            },
            {
              "internalType": "bool",
              "name": "publishedMove",
              "type": "bool"
            },
            {
              "internalType": "address",
              "name": "captain",
              "type": "address"
            },
            {
              "internalType": "uint256",
              "name": "yachtSpeed",
              "type": "uint256"
            },
            {
              "internalType": "uint256",
              "name": "yachtRange",
              "type": "uint256"
            },
            {
              "internalType": "uint8",
              "name": "maxAllowedMove",
              "type": "uint8"
            }
          ],
          "internalType": "struct GameNP.Ship",
          "name": "",
          "type": "tuple"
        }
      ],
      "stateMutability": "nonpayable",
      "type": "function"
    },
    {
      "inputs": [
        {
          "internalType": "uint8",
          "name": "gameId",
          "type": "uint8"
        }
      ],
      "name": "allowSubmitMoves",
      "outputs": [],
      "stateMutability": "nonpayable",
      "type": "function"
    },
    {
      "inputs": [
        {
          "internalType": "uint8",
          "name": "gameId",
          "type": "uint8"
        }
      ],
      "name": "endGame",
      "outputs": [],
      "stateMutability": "nonpayable",
      "type": "function"
    },
    {
      "inputs": [
        {
          "internalType": "uint256",
          "name": "",
          "type": "uint256"
        }
      ],
      "name": "games",
      "outputs": [
        {
          "internalType": "uint256",
          "name": "round",
          "type": "uint256"
        },
        {
          "internalType": "bool",
          "name": "gameInProgress",
          "type": "bool"
        },
        {
          "internalType": "bool",
          "name": "stopAddingShips",
          "type": "bool"
        },
        {
          "internalType": "bool",
          "name": "letCommitMoves",
          "type": "bool"
        },
        {
          "internalType": "bool",
          "name": "letSubmitMoves",
          "type": "bool"
        }
      ],
      "stateMutability": "view",
      "type": "function"
    },
    {
      "inputs": [
        {
          "components": [
            {
              "internalType": "uint8",
              "name": "q",
              "type": "uint8"
            },
            {
              "internalType": "uint8",
              "name": "r",
              "type": "uint8"
            }
          ],
          "internalType": "struct SharedStructs.Coordinate",
          "name": "_coord",
          "type": "tuple"
        },
        {
          "internalType": "uint8",
          "name": "gameId",
          "type": "uint8"
        }
      ],
      "name": "getCell",
      "outputs": [
        {
          "components": [
            {
              "internalType": "uint8",
              "name": "q",
              "type": "uint8"
            },
            {
              "internalType": "uint8",
              "name": "r",
              "type": "uint8"
            },
            {
              "internalType": "bool",
              "name": "island",
              "type": "bool"
            },
            {
              "internalType": "bool",
              "name": "exists",
              "type": "bool"
            }
          ],
          "internalType": "struct SharedStructs.Cell",
          "name": "",
          "type": "tuple"
        }
      ],
      "stateMutability": "view",
      "type": "function"
    },
    {
      "inputs": [
        {
          "internalType": "uint8",
          "name": "gameId",
          "type": "uint8"
        }
      ],
      "name": "getCells",
      "outputs": [
        {
          "components": [
            {
              "internalType": "uint8",
              "name": "q",
              "type": "uint8"
            },
            {
              "internalType": "uint8",
              "name": "r",
              "type": "uint8"
            }
          ],
          "internalType": "struct SharedStructs.Coordinate[]",
          "name": "",
          "type": "tuple[]"
        }
      ],
      "stateMutability": "view",
      "type": "function"
    },
    {
      "inputs": [
        {
          "internalType": "uint8",
          "name": "gameId",
          "type": "uint8"
        }
      ],
      "name": "getRadius",
      "outputs": [
        {
          "internalType": "uint8",
          "name": "",
          "type": "uint8"
        }
      ],
      "stateMutability": "view",
      "type": "function"
    },
    {
      "inputs": [
        {
          "internalType": "uint8",
          "name": "gameId",
          "type": "uint8"
        }
      ],
      "name": "getShips",
      "outputs": [
        {
          "components": [
            {
              "components": [
                {
                  "internalType": "uint8",
                  "name": "q",
                  "type": "uint8"
                },
                {
                  "internalType": "uint8",
                  "name": "r",
                  "type": "uint8"
                }
              ],
              "internalType": "struct SharedStructs.Coordinate",
              "name": "coordinate",
              "type": "tuple"
            },
            {
              "internalType": "enum SharedStructs.Directions",
              "name": "travelDirection",
              "type": "uint8"
            },
            {
              "internalType": "uint8",
              "name": "travelDistance",
              "type": "uint8"
            },
            {
              "internalType": "enum SharedStructs.Directions",
              "name": "shotDirection",
              "type": "uint8"
            },
            {
              "internalType": "uint8",
              "name": "shotDistance",
              "type": "uint8"
            },
            {
              "internalType": "bool",
              "name": "publishedMove",
              "type": "bool"
            },
            {
              "internalType": "address",
              "name": "captain",
              "type": "address"
            },
            {
              "internalType": "uint256",
              "name": "yachtSpeed",
              "type": "uint256"
            },
            {
              "internalType": "uint256",
              "name": "yachtRange",
              "type": "uint256"
            },
            {
              "internalType": "uint8",
              "name": "maxAllowedMove",
              "type": "uint8"
            }
          ],
          "internalType": "struct GameNP.Ship[]",
          "name": "",
          "type": "tuple[]"
        }
      ],
      "stateMutability": "view",
      "type": "function"
    },
    {
      "inputs": [
        {
          "internalType": "uint8",
          "name": "_radius",
          "type": "uint8"
        },
        {
          "internalType": "uint8",
          "name": "gameId",
          "type": "uint8"
        }
      ],
      "name": "initGame",
      "outputs": [],
      "stateMutability": "nonpayable",
      "type": "function"
    },
    {
      "inputs": [
        {
          "components": [
            {
              "internalType": "uint8",
              "name": "q",
              "type": "uint8"
            },
            {
              "internalType": "uint8",
              "name": "r",
              "type": "uint8"
            }
          ],
          "internalType": "struct SharedStructs.Coordinate",
          "name": "_start",
          "type": "tuple"
        },
        {
          "internalType": "enum SharedStructs.Directions",
          "name": "_dir",
          "type": "uint8"
        },
        {
          "internalType": "uint8",
          "name": "_distance",
          "type": "uint8"
        },
        {
          "internalType": "uint8",
          "name": "gameId",
          "type": "uint8"
        }
      ],
      "name": "move",
      "outputs": [
        {
          "components": [
            {
              "internalType": "uint8",
              "name": "q",
              "type": "uint8"
            },
            {
              "internalType": "uint8",
              "name": "r",
              "type": "uint8"
            }
          ],
          "internalType": "struct SharedStructs.Coordinate",
          "name": "",
          "type": "tuple"
        }
      ],
      "stateMutability": "view",
      "type": "function"
    },
    {
      "inputs": [],
      "name": "owner",
      "outputs": [
        {
          "internalType": "address",
          "name": "",
          "type": "address"
        }
      ],
      "stateMutability": "view",
      "type": "function"
    },
    {
      "inputs": [],
      "name": "renounceOwnership",
      "outputs": [],
      "stateMutability": "nonpayable",
      "type": "function"
    },
    {
      "inputs": [
        {
          "internalType": "enum SharedStructs.Directions",
          "name": "_travelDirection",
          "type": "uint8"
        },
        {
          "internalType": "uint8",
          "name": "_travelDistance",
          "type": "uint8"
        },
        {
          "internalType": "enum SharedStructs.Directions",
          "name": "_shotDirection",
          "type": "uint8"
        },
        {
          "internalType": "uint8",
          "name": "_shotDistance",
          "type": "uint8"
        },
        {
          "internalType": "uint8",
          "name": "gameId",
          "type": "uint8"
        }
      ],
      "name": "revealMove",
      "outputs": [],
      "stateMutability": "nonpayable",
      "type": "function"
    },
    {
      "inputs": [
        {
          "internalType": "uint8",
          "name": "gameId",
          "type": "uint8"
        }
      ],
      "name": "startNewGame",
      "outputs": [],
      "stateMutability": "nonpayable",
      "type": "function"
    },
    {
      "inputs": [
        {
          "internalType": "address",
          "name": "newOwner",
          "type": "address"
        }
      ],
      "name": "transferOwnership",
      "outputs": [],
      "stateMutability": "nonpayable",
      "type": "function"
    },
    {
      "inputs": [
        {
          "components": [
            {
              "internalType": "uint8",
              "name": "q",
              "type": "uint8"
            },
            {
              "internalType": "uint8",
              "name": "r",
              "type": "uint8"
            }
          ],
          "internalType": "struct SharedStructs.Coordinate",
          "name": "_startCell",
          "type": "tuple"
        },
        {
          "internalType": "enum SharedStructs.Directions",
          "name": "_direction",
          "type": "uint8"
        },
        {
          "internalType": "uint8",
          "name": "_distance",
          "type": "uint8"
        },
        {
          "internalType": "uint8",
          "name": "_maxAllowedMove",
          "type": "uint8"
        },
        {
          "internalType": "uint8",
          "name": "gameId",
          "type": "uint8"
        }
      ],
      "name": "travel",
      "outputs": [],
      "stateMutability": "nonpayable",
      "type": "function"
    },
    {
      "inputs": [
        {
          "internalType": "uint8",
          "name": "gameId",
          "type": "uint8"
        }
      ],
      "name": "updateWorld",
      "outputs": [],
      "stateMutability": "nonpayable",
      "type": "function"
    }
  ],
  "bytecode": "0x60a06040523480156200001157600080fd5b5060405162004066380380620040668339810160408190526200003491620000a1565b6200003f3362000051565b6001600160a01b0316608052620000d3565b600080546001600160a01b038381166001600160a01b0319831681178455604051919092169283917f8be0079c531659141344cd1fd0a4f28419497f9722a3daafe3b4186f6b6457e09190a35050565b600060208284031215620000b457600080fd5b81516001600160a01b0381168114620000cc57600080fd5b9392505050565b608051613f31620001356000396000818161038c0152818161057a0152818161073c01528181610df301528181610f7d0152818161112a015281816112eb01528181611365015281816117fc01528181611c5e0152612ab00152613f316000f3fe608060405234801561001057600080fd5b506004361061010b5760003560e01c8063508236ca116100a25780638da5cb5b116100715780638da5cb5b146102c1578063978ac356146102dc578063d085a86f146102ef578063f2fde38b1461030f578063fd8704461461032257600080fd5b8063508236ca146102805780636ed296e414610293578063715018a6146102a6578063863375ac146102ae57600080fd5b8063457e6ff3116100de578063457e6ff3146101d85780634998b8fb146101f85780634aac9b8b1461020b5780634d0238861461022b57600080fd5b8063117a5b90146101105780631b26f2091461018b5780632923a41f146101a057806334361208146101b3575b600080fd5b61015661011e366004613515565b6001602052600090815260409020805460039091015460ff808216916101008104821691620100008204811691630100000090041685565b6040805195865293151560208601529115159284019290925290151560608301521515608082015260a0015b60405180910390f35b61019e610199366004613603565b610342565b005b61019e6101ae366004613671565b610482565b6101c66101c1366004613671565b610524565b60405160ff9091168152602001610182565b6101eb6101e636600461368e565b6105f3565b60405161018291906137bc565b61019e6102063660046137cb565b610bf8565b61021e610219366004613671565b610d9b565b604051610182919061382a565b61023e610239366004613887565b6110b3565b6040516101829190600060808201905060ff835116825260ff602084015116602083015260408301511515604083015260608301511515606083015292915050565b61019e61028e3660046138bf565b6111a9565b61019e6102a1366004613671565b61140d565b61019e61152d565b61019e6102bc366004613671565b611541565b6000546040516001600160a01b039091168152602001610182565b61019e6102ea366004613671565b6115d3565b6103026102fd3660046138ed565b612a49565b604051610182919061393b565b61019e61031d366004613959565b612b32565b610335610330366004613671565b612bab565b6040516101829190613982565b60ff8082166000908152600160208190526040909120600301549091161515146103875760405162461bcd60e51b815260040161037e906139d1565b60405180910390fd5b6000807f00000000000000000000000000000000000000000000000000000000000000006001600160a01b0316631b26f20988888888886040518663ffffffff1660e01b81526004016103de959493929190613a08565b606060405180830381865afa1580156103fb573d6000803e3d6000fd5b505050506040513d601f19601f8201168201806040525081019061041f9190613a9f565b915091508115610438576104333384612e37565b610479565b805160ff84811660009081526001602081815260408084203385529092018152912080549185015183166101000261ffff1990921692909316919091171790555b50505050505050565b61048a612f0b565b60ff8082166000908152600160208190526040909120600301549091161515146104c65760405162461bcd60e51b815260040161037e906139d1565b60ff8116600081815260016020908152604091829020600301805463ff0000001916630100000017905590519182527f1ebf68ad21138befbfae2606983db26dee824ebb69e305add08e5ec40322ebcf91015b60405180910390a150565b60ff80821660009081526001602081905260408220600301549192919091161515146105625760405162461bcd60e51b815260040161037e906139d1565b60405163436fadf360e11b815260ff831660048201527f00000000000000000000000000000000000000000000000000000000000000006001600160a01b0316906386df5be690602401602060405180830381865afa1580156105c9573d6000803e3d6000fd5b505050506040513d601f19601f820116820180604052508101906105ed9190613ad3565b92915050565b6105fb613480565b60ff808616600090815260016020526040902060030154610100900416158015610641575060ff8086166000908152600160208190526040909120600301549091161515145b61065d5760405162461bcd60e51b815260040161037e906139d1565b60ff8086166000908152600160208181526040808420338552909201905290205416158015906106b2575060ff8086166000908152600160208181526040808420338552909201905290205461010090041615155b1561070d5760ff8581166000908152600160208181526040808420338086529301909152918290205491516308538db760e41b815260048101919091528183166024820152610100909104909116604482015260640161037e565b604080518082019091526000808252602082015260005b6040516342c39d9160e01b815260ff881660048201527f00000000000000000000000000000000000000000000000000000000000000006001600160a01b0316906342c39d919060240160408051808303816000875af115801561078c573d6000803e3d6000fd5b505050506040513d601f19601f820116820180604052508101906107b09190613af0565b91506107f6604051806040016040528060138152602001724e657720726e6420706169722025732c20257360681b815250836000015160ff16846020015160ff16612f65565b60005b60ff80891660009081526001602052604090206002015490821610156109935761089d6040518060400160405280601781526020017f696e206c6f6f702025732c20616464726573733a2025730000000000000000008152508260ff16600160008c60ff1681526020019081526020016000206002018460ff168154811061088357610883613b0c565b6000918252602090912001546001600160a01b0316612fac565b825160ff8981166000908152600160208190526040822060028101805495851695919092019386169081106108d4576108d4613b0c565b60009182526020808320909101546001600160a01b0316835282019290925260400190205460ff16148015610973575060208084015160ff8a81166000908152600193849052604081206002810180549484169591909101939192909190861690811061094357610943613b0c565b60009182526020808320909101546001600160a01b0316835282019290925260400190205460ff61010090910416145b156109815760019150610993565b8061098b81613b38565b9150506107f9565b508061072457604080516101408101825283815260006020808301828152838501839052606084018390526080840183905260a084018390523360c0850181905260e085018c90526101008086018c905260ff8b81166101208801528e811686526001808652888720938752928301855296909420855180518254919095015194881661ffff19909116179390961690930291909117845551838201805493948594909360ff199190911690836006811115610a5157610a516136d8565b0217905550604082015160018201805460ff9092166101000261ff001983168117825560608501519262ff00001990911662ffff00199091161762010000836006811115610aa157610aa16136d8565b021790555060808201516001808301805460a086015160c08701516001600160a01b0316650100000000000265010000000000600160c81b03199115156401000000000264ff000000001960ff9788166301000000021664ffff0000001990941693909317929092171617905560e08401516002808501919091556101008501516003850155610120909401516004909301805493831660ff19909416939093179092558a81166000908152602083815260408083209095018054948501815582529081902090920180546001600160a01b03191633179055825180840190935260128352714e657720736869702061742025732c20257360701b8383015283518051920151610bb5939282169116612f65565b60405160ff8916815233907f3138d9d3c5b626eff736a8d5bf07552d9f568087655c46803ee715f424ec1b8e9060200160405180910390a2979650505050505050565b60ff80821660009081526001602081905260409091206003015463010000009004909116151514610c755760405162461bcd60e51b815260206004820152602160248201527f5375626d6974206d6f76657320686173206e6f742073746172746564207965746044820152602160f81b606482015260840161037e565b60ff808216600090815260016020819052604090912060030154909116151514610cb15760405162461bcd60e51b815260040161037e906139d1565b60ff81166000908152600160208181526040808420338552830190915290912080820180549192889260ff191690836006811115610cf157610cf16136d8565b021790555060018101805461ff0019811661010060ff891602908117835586929162ffff00191662ff0000199091161762010000836006811115610d3757610d376136d8565b021790555060018101805464ff000000001960ff86166301000000021664ffff000000199091161764010000000017905560405133907f63563f18a7ee7809189f125844fc3e755b5d0f355be5c5928a54ca925dcd576b90600090a2505050505050565b60ff80821660009081526001602081905260409091206003015460609216151514610dd85760405162461bcd60e51b815260040161037e906139d1565b60405163436fadf360e11b815260ff831660048201526000907f00000000000000000000000000000000000000000000000000000000000000006001600160a01b0316906386df5be690602401602060405180830381865afa158015610e42573d6000803e3d6000fd5b505050506040513d601f19601f82011682018060405250810190610e669190613ad3565b90506000610e75826001613b57565b610e80836003613b70565b610e8a9190613b70565b610e95906001613b57565b60ff16905060008167ffffffffffffffff811115610eb557610eb561352e565b604051908082528060200260200182016040528015610efa57816020015b6040805180820190915260008082526020820152815260200190600190039081610ed35790505b50905060405180604001604052808460ff1681526020018460ff1681525081600081518110610f2b57610f2b613b0c565b602090810291909101015260015b8360ff168160ff16116110aa57600081610f54600182613b8c565b610f5f906003613b70565b610f699190613b70565b610f74906001613b57565b60ff16905060007f00000000000000000000000000000000000000000000000000000000000000006001600160a01b03166339e5c4a085600081518110610fbd57610fbd613b0c565b6020026020010151856040518363ffffffff1660e01b8152600401610fe3929190613ba5565b600060405180830381865afa158015611000573d6000803e3d6000fd5b505050506040513d6000823e601f3d908101601f191682016040526110289190810190613bd3565b905060005b81518160ff16101561109457818160ff168151811061104e5761104e613b0c565b6020026020010151858260ff16856110669190613c86565b8151811061107657611076613b0c565b6020026020010181905250808061108c90613b38565b91505061102d565b50505080806110a290613b38565b915050610f39565b50949350505050565b60408051608081018252600080825260208201819052918101829052606081019190915260ff8083166000908152600160208190526040909120600301549091161515146111135760405162461bcd60e51b815260040161037e906139d1565b6040516326811c4360e11b81526001600160a01b037f00000000000000000000000000000000000000000000000000000000000000001690634d023886906111619086908690600401613ba5565b608060405180830381865afa15801561117e573d6000803e3d6000fd5b505050506040513d601f19601f820116820180604052508101906111a29190613c99565b9392505050565b6111b1612f0b565b60ff8082166000908152600160208190526040909120600301549091161515146111ed5760405162461bcd60e51b815260040161037e906139d1565b60005b60ff82166000908152600160205260409020600201548110156112a95760ff821660009081526001602081905260408220600281018054919092019291908490811061123e5761123e613b0c565b60009182526020808320909101546001600160a01b031683528201929092526040018120805461ffff191681556001810180546001600160c81b0319169055600281018290556003810191909155600401805460ff19169055806112a181613d1a565b9150506111f0565b5060ff811660009081526001602052604081206112cb916002909101906134e3565b604051631a405d8760e31b815260ff8084166004830152821660248201527f00000000000000000000000000000000000000000000000000000000000000006001600160a01b03169063d202ec3890604401600060405180830381600087803b15801561133757600080fd5b505af115801561134b573d6000803e3d6000fd5b50506040516318068d3760e01b815260ff841660048201527f00000000000000000000000000000000000000000000000000000000000000006001600160a01b031692506318068d379150602401600060405180830381600087803b1580156113b357600080fd5b505af11580156113c7573d6000803e3d6000fd5b50506040805160ff8087168252851660208201527fd76a0a97b7d547fef69b0cd90fb02087b761703ae2b5e4e91a99e8fd17e308ad935001905060405180910390a15050565b611415612f0b565b60ff8160ff16106114685760405162461bcd60e51b815260206004820152601f60248201527f4d6178696d756d206e756d626572206f662067616d6573207265616368656400604482015260640161037e565b60ff80821660009081526001602052604090206003015416156114db5760405162461bcd60e51b815260206004820152602560248201527f47616d652077697468207468697320494420616c726561647920696e2070726f604482015264677265737360d81b606482015260840161037e565b60ff8116600081815260016020818152604092839020600301805460ff191690921790915590519182527f13cb55fc1bec4b9f4cd4c22f154240b469cb108a23a35aa599df0c3da46f2d149101610519565b611535612f0b565b61153f6000612ff3565b565b611549612f0b565b60ff8082166000908152600160208190526040909120600301549091161515146115855760405162461bcd60e51b815260040161037e906139d1565b60ff8116600081815260016020908152604091829020600301805460ff1916905590519182527f4df34531b3f238bc8f90ad83236d8c752e7444e434bb5fc99f888f0a6345c0e79101610519565b6115db612f0b565b60ff8082166000908152600160208190526040909120600301549091161515146116175760405162461bcd60e51b815260040161037e906139d1565b60ff811660009081526001602052604081206002015467ffffffffffffffff8111156116455761164561352e565b60405190808252806020026020018201604052801561168a57816020015b60408051808201909152600080825260208201528152602001906001900390816116635790505b5060ff83166000908152600160205260408120600201549192509067ffffffffffffffff8111156116bd576116bd61352e565b6040519080825280602002602001820160405280156116e6578160200160208202803683370190505b50905060005b60ff8085166000908152600160205260409020600201549082161015611745576001828260ff168151811061172357611723613b0c565b911515602092830291909101909101528061173d81613b38565b9150506116ec565b5060005b60ff8085166000908152600160205260409020600201549082161015611bf15760ff808516600090815260016020819052604082206002810180549190920193851690811061179a5761179a613b0c565b60009182526020808320909101546001600160a01b0316835282019290925260400190206001015460ff6401000000009091041615611bdf5760ff80851660009081526001602081905260408220600281018054939485946001600160a01b037f00000000000000000000000000000000000000000000000000000000000000001694631b26f2099401928692909190891690811061183b5761183b613b0c565b60009182526020808320909101546001600160a01b03168352828101939093526040918201812060ff808d168352600194859052928220600281018054929591909101939091908a1690811061189357611893613b0c565b60009182526020808320909101546001600160a01b03168352828101939093526040918201812060019081015460ff8e8116845294829052928220600281018054948616959190920193908b169081106118ef576118ef613b0c565b60009182526020808320909101546001600160a01b03168352828101939093526040918201812060019081015460ff8f81168452948290529282206002810180546101009095048616959190920193908c1690811061195057611950613b0c565b60009182526020808320909101546001600160a01b03168352820192909252604090810190912060049081015491516001600160e01b031960e088901b1681526119a39594939260ff16918e9101613d33565b606060405180830381865afa1580156119c0573d6000803e3d6000fd5b505050506040513d601f19601f820116820180604052508101906119e49190613a9f565b915091508115611ad15760ff80871660009081526001602052604090206002018054611a37928616908110611a1b57611a1b613b0c565b6000918252602090912001546001600160a01b03168488613043565b6000848460ff1681518110611a4e57611a4e613b0c565b602002602001019015159081151581525050600160008760ff1681526020019081526020016000206002018360ff1681548110611a8d57611a8d613b0c565b60009182526020822001546040516001600160a01b03909116917fc9d98a36ffe0495d3a50a0bac4845433395c60e4b8e8d58a5e948f4b5011418e91a25050611bdf565b60ff80871660009081526001602081905260408220600281018054869592909301939290918816908110611b0757611b07613b0c565b60009182526020808320909101546001600160a01b031683528281019390935260409182018120845181549585015160ff9081166101000261ffff1990971691811691909117959095179055898416815260019092529020600201805490918516908110611b7757611b77613b0c565b600091825260209182902001548251918301516040516001600160a01b03909216927ff3758096c44bcc832b837f76e2a02b432740f9c56f41e6b238aa673ca9355e5092611bd4929060ff92831681529116602082015260400190565b60405180910390a250505b80611be981613b38565b915050611749565b5060005b60ff8085166000908152600160205260409020600201549082161015611eb957818160ff1681518110611c2a57611c2a613b0c565b602002602001015115611ea75760ff8085166000908152600160208190526040822060028101805493946001600160a01b037f0000000000000000000000000000000000000000000000000000000000000000169463d6192ad39493909301928692918816908110611c9e57611c9e613b0c565b60009182526020808320909101546001600160a01b03168352828101939093526040918201812060ff808c168352600194859052928220600281018054929591909101939091908916908110611cf657611cf6613b0c565b60009182526020808320909101546001600160a01b03168352828101939093526040918201812060019081015460ff8d8116845294829052928220600281018054620100009095048616959190920193908a16908110611d5857611d58613b0c565b60009182526020808320909101546001600160a01b0316835282019290925260409081019091206001015490516001600160e01b031960e086901b168152611db093929160ff63010000009091041690600401613d51565b6040805180830381865afa158015611dcc573d6000803e3d6000fd5b505050506040513d601f19601f82011682018060405250810190611df09190613af0565b905080848360ff1681518110611e0857611e08613b0c565b6020026020010181905250600160008660ff1681526020019081526020016000206002018260ff1681548110611e4057611e40613b0c565b600091825260209182902001548251918301516040516001600160a01b03909216927f7f1b3d59a1d73150652f33f7a7016f0fff7ef8e824e5b6a436717673b484a8a792611e9d929060ff92831681529116602082015260400190565b60405180910390a2505b80611eb181613b38565b915050611bf5565b5060005b60ff80851660009081526001602052604090206002015490821610156124cb5760005b60ff80861660009081526001602052604090206002015490821610156124b8578060ff168260ff16146124a657828260ff1681518110611f2257611f22613b0c565b60200260200101518015611f4f5750828160ff1681518110611f4657611f46613b0c565b60200260200101515b801561200c575060ff8086166000908152600160208190526040822060028101805491909201938616908110611f8757611f87613b0c565b60009182526020808320909101546001600160a01b0316835282810193909352604091820181205460ff89811683526001948590529282206002810180549285169591909101939091908616908110611fe257611fe2613b0c565b60009182526020808320909101546001600160a01b0316835282019290925260400190205460ff16145b80156120d4575060ff808616600090815260016020819052604082206002810180549190920193861690811061204457612044613b0c565b60009182526020808320909101546001600160a01b0316835282810193909352604091820181205460ff8981168352600194859052928220600281018054610100909304851695919091019390919086169081106120a4576120a4613b0c565b60009182526020808320909101546001600160a01b0316835282019290925260400190205460ff61010090910416145b15612290576000838360ff16815181106120f0576120f0613b0c565b6020026020010190151590811515815250506000838260ff168151811061211957612119613b0c565b91151560209283029190910182015260ff808716600090815260019092526040909120600201805461217292851690811061215657612156613b0c565b6000918252602090912001546001600160a01b03168387613043565b60ff808616600090815260016020526040902060020180546121bb92841690811061219f5761219f613b0c565b6000918252602090912001546001600160a01b03168287613043565b600160008660ff1681526020019081526020016000206002018260ff16815481106121e8576121e8613b0c565b60009182526020822001546040516001600160a01b03909116917ff6efc0f0f7270e6470ae421c2c220a2930f349c2e85e2cff70701cb5ee7b1de291a2600160008660ff1681526020019081526020016000206002018160ff168154811061225257612252613b0c565b60009182526020822001546040516001600160a01b03909116917ff6efc0f0f7270e6470ae421c2c220a2930f349c2e85e2cff70701cb5ee7b1de291a25b828260ff16815181106122a5576122a5613b0c565b60200260200101518015612337575060ff80861660009081526001602081905260408220600281018054919092019386169081106122e5576122e5613b0c565b60009182526020808320909101546001600160a01b03168352820192909252604001902054845160ff91821691869190841690811061232657612326613b0c565b60200260200101516000015160ff16145b80156123c6575060ff808616600090815260016020819052604082206002810180549190920193861690811061236f5761236f613b0c565b60009182526020808320909101546001600160a01b03168352820192909252604001902054845160ff61010090920482169186919084169081106123b5576123b5613b0c565b60200260200101516020015160ff16145b156124a65760ff808616600090815260016020526040902060020180546123f892851690811061215657612156613b0c565b600160008660ff1681526020019081526020016000206002018160ff168154811061242557612425613b0c565b600091825260208083209091015460ff80891684526001909252604090922060020180546001600160a01b03909316929091851690811061246857612468613b0c565b60009182526020822001546040516001600160a01b03909116917f702e79c3c668b5e07dd82bee771df58a589de806961a825fe169e324ceec57d791a35b806124b081613b38565b915050611ee0565b50806124c381613b38565b915050611ebd565b5060005b60ff808516600090815260016020526040902060020154908216101561265a5760006001600160a01b0316600160008660ff1681526020019081526020016000206002018260ff168154811061252757612527613b0c565b6000918252602090912001546001600160a01b0316036126485760ff841660009081526001602081905260409091206002018054909161256691613d89565b8154811061257657612576613b0c565b9060005260206000200160009054906101000a90046001600160a01b0316600160008660ff1681526020019081526020016000206002018260ff16815481106125c1576125c1613b0c565b600091825260208083209190910180546001600160a01b0319166001600160a01b03949094169390931790925560ff8616815260019091526040902060020180548061260f5761260f613d9c565b600082815260209020810160001990810180546001600160a01b031916905501905560ff811615612648578061264481613db2565b9150505b8061265281613b38565b9150506124cf565b5060ff831660009081526001602052604081206002015490036126f1577fb609981dd10c4309ee2f55e2fd9b631438fb9d9de43270f098b64571e58352db6040516126c2906020808252600990820152682737903bb4b73732b960b91b604082015260600190565b60405180910390a160ff83166000908152600160205260409020600301805461ff001916610100179055505050565b60ff8316600090815260016020819052604090912060020154900361279e5760ff8316600090815260016020526040812060020180547fb609981dd10c4309ee2f55e2fd9b631438fb9d9de43270f098b64571e58352db92612774929161275a5761275a613b0c565b6000918252602090912001546001600160a01b03166131cf565b6040516020016127849190613df3565b60408051601f19818403018152908290526126c291613e5b565b60ff8316600090815260016020526040812060020180549091906127c4576127c4613b0c565b60009182526020822001546040516001600160a01b0390911691907f71c863affc60bf856f78adf835c2f8d43a35f214dc51c98e8b9953560f30bf82908290a360005b60ff8085166000908152600160205260409020600201549082161015612a225760ff808516600090815260016020819052604082206002810180546006959290930193929091861690811061285e5761285e613b0c565b60009182526020808320909101546001600160a01b03168352820192909252604001902060019081018054909160ff19909116908360068111156128a4576128a46136d8565b021790555060ff808516600090815260016020819052604082206002810180549394919092019284929186169081106128df576128df613b0c565b6000918252602080832091909101546001600160a01b0316835282810193909352604091820181206001908101805461ff00191661010060ff9788160217905588851682529283905290812060028101805460069592909401939091861690811061294c5761294c613b0c565b60009182526020808320909101546001600160a01b031683528201929092526040019020600101805462ff0000191662010000836006811115612991576129916136d8565b021790555060ff808516600090815260016020819052604082206002810180549394919092019284929186169081106129cc576129cc613b0c565b60009182526020808320909101546001600160a01b031683528201929092526040019020600101805460ff9290921663010000000263ff0000001990921691909117905580612a1a81613b38565b915050612807565b5060ff83166000908152600160205260409020600301805463ff000000191690555b505050565b604080518082019091526000808252602082015260ff808316600090815260016020819052604090912060030154909116151514612a995760405162461bcd60e51b815260040161037e906139d1565b604051630d42527560e11b81526001600160a01b037f00000000000000000000000000000000000000000000000000000000000000001690631a84a4ea90612ae990889088908890600401613e6e565b6040805180830381865afa158015612b05573d6000803e3d6000fd5b505050506040513d601f19601f82011682018060405250810190612b299190613af0565b95945050505050565b612b3a612f0b565b6001600160a01b038116612b9f5760405162461bcd60e51b815260206004820152602660248201527f4f776e61626c653a206e6577206f776e657220697320746865207a65726f206160448201526564647265737360d01b606482015260840161037e565b612ba881612ff3565b50565b60ff80821660009081526001602081905260409091206003015460609216151514612be85760405162461bcd60e51b815260040161037e906139d1565b60ff821660009081526001602052604081206002015467ffffffffffffffff811115612c1657612c1661352e565b604051908082528060200260200182016040528015612c4f57816020015b612c3c613480565b815260200190600190039081612c345790505b509050612c836040518060400160405280601081526020016f52657472696576696e6720736869707360801b815250613207565b60005b60ff8416600090815260016020526040902060020154811015612e305760ff8416600090815260016020819052604082206002810180549190920192919084908110612cd457612cd4613b0c565b60009182526020808320909101546001600160a01b03168352828101939093526040918201902081516101808101909252805460ff8082166101408501908152610100909204811661016085015290835260018201549293919291840191166006811115612d4457612d446136d8565b6006811115612d5557612d556136d8565b8152600182015460ff61010082048116602084015260409092019162010000909104166006811115612d8957612d896136d8565b6006811115612d9a57612d9a6136d8565b815260018201546301000000810460ff90811660208401526401000000008204811615156040840152650100000000009091046001600160a01b0316606083015260028301546080830152600383015460a083015260049092015490911660c0909101528251839083908110612e1257612e12613b0c565b60200260200101819052508080612e2890613d1a565b915050612c86565b5092915050565b60ff808216600090815260016020819052604090912060030154909116151514612e735760405162461bcd60e51b815260040161037e906139d1565b6000805b60ff8084166000908152600160205260409020600201549082161015612eff5760ff808416600090815260016020526040902060020180546001600160a01b038716928416908110612ecb57612ecb613b0c565b6000918252602090912001546001600160a01b031603612eed57809150612eff565b80612ef781613b38565b915050612e77565b50612a44838284613043565b6000546001600160a01b0316331461153f5760405162461bcd60e51b815260206004820181905260248201527f4f776e61626c653a2063616c6c6572206973206e6f7420746865206f776e6572604482015260640161037e565b612a44838383604051602401612f7d93929190613e8c565b60408051601f198184030181529190526020810180516001600160e01b031663ca47c4eb60e01b179052613246565b612a44838383604051602401612fc493929190613eb1565b60408051601f198184030181529190526020810180516001600160e01b031663038fd88960e31b179052613246565b600080546001600160a01b038381166001600160a01b0319831681178455604051919092169283917f8be0079c531659141344cd1fd0a4f28419497f9722a3daafe3b4186f6b6457e09190a35050565b60ff808216600090815260016020526040902060020154908316106130aa5760405162461bcd60e51b815260206004820152601860248201527f496e6465782076616c7565206f7574206f662072616e67650000000000000000604482015260640161037e565b60ff8082166000908152600160208190526040909120600301549091161515146130e65760405162461bcd60e51b815260040161037e906139d1565b6040516001600160a01b038416907fce0e3c7f8595684f9560df3c82cb81a6c5a649fcf1bdc96b2dc8b7bf228d650090600090a260ff80821660008181526001602081815260408084206001600160a01b038a1685528084018352908420805461ffff1916815580840180546001600160c81b03191690556002808201869055600382018690556004909101805460ff191690559484529190529190910180549192909190851690811061319c5761319c613b0c565b9060005260206000200160006101000a8154816001600160a01b0302191690836001600160a01b03160217905550505050565b604051606082811b6bffffffffffffffffffffffff19166020830152906105ed90603401604051602081830303815290604052613267565b612ba88160405160240161321b9190613e5b565b60408051601f198184030181529190526020810180516001600160e01b031663104c13eb60e21b1790525b80516a636f6e736f6c652e6c6f67602083016000808483855afa5050505050565b60408051808201909152601081526f181899199a1a9b1b9c1cb0b131b232b360811b60208201528151606091906000906132a2906002613ee4565b6132ad906002613c86565b67ffffffffffffffff8111156132c5576132c561352e565b6040519080825280601f01601f1916602001820160405280156132ef576020820181803683370190505b509050600360fc1b8160008151811061330a5761330a613b0c565b60200101906001600160f81b031916908160001a905350600f60fb1b8160018151811061333957613339613b0c565b60200101906001600160f81b031916908160001a90535060005b84518110156134785782600486838151811061337157613371613b0c565b016020015182516001600160f81b031990911690911c60f81c90811061339957613399613b0c565b01602001516001600160f81b031916826133b4836002613ee4565b6133bf906002613c86565b815181106133cf576133cf613b0c565b60200101906001600160f81b031916908160001a905350828582815181106133f9576133f9613b0c565b602091010151815160f89190911c600f1690811061341957613419613b0c565b01602001516001600160f81b03191682613434836002613ee4565b61343f906003613c86565b8151811061344f5761344f613b0c565b60200101906001600160f81b031916908160001a9053508061347081613d1a565b915050613353565b509392505050565b6040805161018081018252600061014082018181526101608301829052825260208201819052918101829052606081018290526080810182905260a0810182905260c0810182905260e08101829052610100810182905261012081019190915290565b5080546000825590600052602060002090810190612ba891905b8082111561351157600081556001016134fd565b5090565b60006020828403121561352757600080fd5b5035919050565b634e487b7160e01b600052604160045260246000fd5b6040805190810167ffffffffffffffff811182821017156135675761356761352e565b60405290565b604051601f8201601f1916810167ffffffffffffffff811182821017156135965761359661352e565b604052919050565b60ff81168114612ba857600080fd5b6000604082840312156135bf57600080fd5b6135c7613544565b905081356135d48161359e565b815260208201356135e48161359e565b602082015292915050565b8035600781106135fe57600080fd5b919050565b600080600080600060c0868803121561361b57600080fd5b61362587876135ad565b9450613633604087016135ef565b935060608601356136438161359e565b925060808601356136538161359e565b915060a08601356136638161359e565b809150509295509295909350565b60006020828403121561368357600080fd5b81356111a28161359e565b600080600080608085870312156136a457600080fd5b84356136af8161359e565b9350602085013592506040850135915060608501356136cd8161359e565b939692955090935050565b634e487b7160e01b600052602160045260246000fd5b6007811061370c57634e487b7160e01b600052602160045260246000fd5b9052565b61372b828251805160ff908116835260209182015116910152565b602081015161373d60408401826136ee565b50604081015160ff8116606084015250606081015161375f60808401826136ee565b50608081015160ff811660a08401525060a081015180151560c08401525060c08101516001600160a01b03811660e08401525060e08101516101008381019190915281015161012080840191909152015160ff1661014090910152565b61016081016105ed8284613710565b600080600080600060a086880312156137e357600080fd5b6137ec866135ef565b945060208601356137fc8161359e565b935061380a604087016135ef565b9250606086013561381a8161359e565b915060808601356136638161359e565b602080825282518282018190526000919060409081850190868401855b8281101561387a5761386a848351805160ff908116835260209182015116910152565b9284019290850190600101613847565b5091979650505050505050565b6000806060838503121561389a57600080fd5b6138a484846135ad565b915060408301356138b48161359e565b809150509250929050565b600080604083850312156138d257600080fd5b82356138dd8161359e565b915060208301356138b48161359e565b60008060008060a0858703121561390357600080fd5b61390d86866135ad565b935061391b604086016135ef565b9250606085013561392b8161359e565b915060808501356136cd8161359e565b604081016105ed8284805160ff908116835260209182015116910152565b60006020828403121561396b57600080fd5b81356001600160a01b03811681146111a257600080fd5b6020808252825182820181905260009190848201906040850190845b818110156139c5576139b1838551613710565b92840192610160929092019160010161399e565b50909695505050505050565b60208082526019908201527f47616d6520686173206e6f742073746172746564207965742100000000000000604082015260600190565b60c08101613a268288805160ff908116835260209182015116910152565b613a3360408301876136ee565b60ff8516606083015260ff8416608083015260ff831660a08301529695505050505050565b805180151581146135fe57600080fd5b600060408284031215613a7a57600080fd5b613a82613544565b90508151613a8f8161359e565b815260208201516135e48161359e565b60008060608385031215613ab257600080fd5b613abb83613a58565b9150613aca8460208501613a68565b90509250929050565b600060208284031215613ae557600080fd5b81516111a28161359e565b600060408284031215613b0257600080fd5b6111a28383613a68565b634e487b7160e01b600052603260045260246000fd5b634e487b7160e01b600052601160045260246000fd5b600060ff821660ff8103613b4e57613b4e613b22565b60010192915050565b60ff81811683821601908111156105ed576105ed613b22565b60ff8181168382160290811690818114612e3057612e30613b22565b60ff82811682821603908111156105ed576105ed613b22565b60608101613bc38285805160ff908116835260209182015116910152565b60ff831660408301529392505050565b60006020808385031215613be657600080fd5b825167ffffffffffffffff80821115613bfe57600080fd5b818501915085601f830112613c1257600080fd5b815181811115613c2457613c2461352e565b613c32848260051b0161356d565b818152848101925060069190911b830184019087821115613c5257600080fd5b928401925b81841015613c7b57613c698885613a68565b83528483019250604084019350613c57565b979650505050505050565b808201808211156105ed576105ed613b22565b600060808284031215613cab57600080fd5b6040516080810181811067ffffffffffffffff82111715613cce57613cce61352e565b6040528251613cdc8161359e565b81526020830151613cec8161359e565b6020820152613cfd60408401613a58565b6040820152613d0e60608401613a58565b60608201529392505050565b600060018201613d2c57613d2c613b22565b5060010190565b855460ff808216835260089190911c16602082015260c08101613a26565b835460ff808216835260089190911c166020820152608081015b613d7860408301856136ee565b60ff83166060830152949350505050565b818103818111156105ed576105ed613b22565b634e487b7160e01b600052603160045260246000fd5b600060ff821680613dc557613dc5613b22565b6000190192915050565b60005b83811015613dea578181015183820152602001613dd2565b50506000910152565b7302a34329023b0b6b2903bb4b73732b91034b99d160651b815260008251613e22816014850160208701613dcf565b9190910160140192915050565b60008151808452613e47816020860160208601613dcf565b601f01601f19169290920160200192915050565b6020815260006111a26020830184613e2f565b60808101613d6b8286805160ff908116835260209182015116910152565b606081526000613e9f6060830186613e2f565b60208301949094525060400152919050565b606081526000613ec46060830186613e2f565b6020830194909452506001600160a01b0391909116604090910152919050565b80820281158282048414176105ed576105ed613b2256fea264697066735822122061ef0408e49965a48376fff02f5de666d1706a5f2f452df4192b7e6ff1199a1064736f6c63430008120033",
  "linkReferences": {},
  "deployedLinkReferences": {}
}