{
  "_format": "hh-sol-artifact-1",
  "contractName": "GameWOT",
  "sourceName": "contracts/GameWOT.sol",
  "abi": [
    {
      "inputs": [
        {
          "internalType": "address",
          "name": "_mapAddress",
          "type": "address"
        }
      ],
      "stateMutability": "nonpayable",
      "type": "constructor"
    },
    {
      "inputs": [
        {
          "internalType": "address",
          "name": "player",
          "type": "address"
        },
        {
          "internalType": "uint8",
          "name": "q",
          "type": "uint8"
        },
        {
          "internalType": "uint8",
          "name": "r",
          "type": "uint8"
        }
      ],
      "name": "ShipAlreadyAdded",
      "type": "error"
    },
    {
      "anonymous": false,
      "inputs": [
        {
          "indexed": false,
          "internalType": "uint8",
          "name": "gameId",
          "type": "uint8"
        }
      ],
      "name": "CommitPhaseStarted",
      "type": "event"
    },
    {
      "anonymous": false,
      "inputs": [
        {
          "indexed": false,
          "internalType": "uint8",
          "name": "gameId",
          "type": "uint8"
        }
      ],
      "name": "GameEnded",
      "type": "event"
    },
    {
      "anonymous": false,
      "inputs": [
        {
          "indexed": false,
          "internalType": "uint8",
          "name": "gameId",
          "type": "uint8"
        }
      ],
      "name": "GameStarted",
      "type": "event"
    },
    {
      "anonymous": false,
      "inputs": [
        {
          "indexed": true,
          "internalType": "bool",
          "name": "gameStatus",
          "type": "bool"
        },
        {
          "indexed": true,
          "internalType": "address",
          "name": "winnerAddress",
          "type": "address"
        }
      ],
      "name": "GameUpdated",
      "type": "event"
    },
    {
      "anonymous": false,
      "inputs": [
        {
          "indexed": false,
          "internalType": "string",
          "name": "gameWinner",
          "type": "string"
        }
      ],
      "name": "GameWinner",
      "type": "event"
    },
    {
      "anonymous": false,
      "inputs": [
        {
          "indexed": false,
          "internalType": "uint8",
          "name": "radius",
          "type": "uint8"
        },
        {
          "indexed": false,
          "internalType": "uint8",
          "name": "gameId",
          "type": "uint8"
        }
      ],
      "name": "MapInitialized",
      "type": "event"
    },
    {
      "anonymous": false,
      "inputs": [
        {
          "indexed": true,
          "internalType": "address",
          "name": "player",
          "type": "address"
        }
      ],
      "name": "MoveCommitted",
      "type": "event"
    },
    {
      "anonymous": false,
      "inputs": [
        {
          "indexed": true,
          "internalType": "address",
          "name": "player",
          "type": "address"
        }
      ],
      "name": "MoveSubmitted",
      "type": "event"
    },
    {
      "anonymous": false,
      "inputs": [
        {
          "indexed": true,
          "internalType": "address",
          "name": "previousOwner",
          "type": "address"
        },
        {
          "indexed": true,
          "internalType": "address",
          "name": "newOwner",
          "type": "address"
        }
      ],
      "name": "OwnershipTransferred",
      "type": "event"
    },
    {
      "anonymous": false,
      "inputs": [
        {
          "indexed": true,
          "internalType": "address",
          "name": "player",
          "type": "address"
        },
        {
          "indexed": false,
          "internalType": "uint8",
          "name": "gameId",
          "type": "uint8"
        }
      ],
      "name": "PlayerAdded",
      "type": "event"
    },
    {
      "anonymous": false,
      "inputs": [
        {
          "indexed": true,
          "internalType": "address",
          "name": "player",
          "type": "address"
        }
      ],
      "name": "PlayerDefeated",
      "type": "event"
    },
    {
      "anonymous": false,
      "inputs": [
        {
          "indexed": true,
          "internalType": "address",
          "name": "captain",
          "type": "address"
        }
      ],
      "name": "ShipCollidedWithIsland",
      "type": "event"
    },
    {
      "anonymous": false,
      "inputs": [
        {
          "indexed": true,
          "internalType": "address",
          "name": "victim",
          "type": "address"
        },
        {
          "indexed": true,
          "internalType": "address",
          "name": "attacker",
          "type": "address"
        }
      ],
      "name": "ShipHit",
      "type": "event"
    },
    {
      "anonymous": false,
      "inputs": [
        {
          "indexed": true,
          "internalType": "address",
          "name": "captain",
          "type": "address"
        },
        {
          "indexed": false,
          "internalType": "uint8",
          "name": "q",
          "type": "uint8"
        },
        {
          "indexed": false,
          "internalType": "uint8",
          "name": "r",
          "type": "uint8"
        }
      ],
      "name": "ShipMoved",
      "type": "event"
    },
    {
      "anonymous": false,
      "inputs": [
        {
          "indexed": true,
          "internalType": "address",
          "name": "captain",
          "type": "address"
        },
        {
          "indexed": false,
          "internalType": "uint8",
          "name": "shotQ",
          "type": "uint8"
        },
        {
          "indexed": false,
          "internalType": "uint8",
          "name": "shotR",
          "type": "uint8"
        }
      ],
      "name": "ShipShot",
      "type": "event"
    },
    {
      "anonymous": false,
      "inputs": [
        {
          "indexed": true,
          "internalType": "address",
          "name": "captain",
          "type": "address"
        }
      ],
      "name": "ShipSunk",
      "type": "event"
    },
    {
      "anonymous": false,
      "inputs": [
        {
          "indexed": false,
          "internalType": "uint8",
          "name": "gameId",
          "type": "uint8"
        }
      ],
      "name": "SubmitPhaseStarted",
      "type": "event"
    },
    {
      "inputs": [
        {
          "internalType": "uint8",
          "name": "gameId",
          "type": "uint8"
        },
        {
          "internalType": "uint256",
          "name": "_speed",
          "type": "uint256"
        },
        {
          "internalType": "uint256",
          "name": "_range",
          "type": "uint256"
        }
      ],
      "name": "addShip",
      "outputs": [
        {
          "components": [
            {
              "components": [
                {
                  "internalType": "uint8",
                  "name": "q",
                  "type": "uint8"
                },
                {
                  "internalType": "uint8",
                  "name": "r",
                  "type": "uint8"
                }
              ],
              "internalType": "struct SharedStructs.Coordinate",
              "name": "coordinate",
              "type": "tuple"
            },
            {
              "internalType": "enum SharedStructs.Directions",
              "name": "travelDirection",
              "type": "uint8"
            },
            {
              "internalType": "uint8",
              "name": "travelDistance",
              "type": "uint8"
            },
            {
              "internalType": "enum SharedStructs.Directions",
              "name": "shotDirection",
              "type": "uint8"
            },
            {
              "internalType": "uint8",
              "name": "shotDistance",
              "type": "uint8"
            },
            {
              "internalType": "bool",
              "name": "publishedMove",
              "type": "bool"
            },
            {
              "internalType": "address",
              "name": "captain",
              "type": "address"
            },
            {
              "internalType": "uint256",
              "name": "yachtSpeed",
              "type": "uint256"
            },
            {
              "internalType": "uint256",
              "name": "yachtRange",
              "type": "uint256"
            }
          ],
          "internalType": "struct GameWOT.Ship",
          "name": "",
          "type": "tuple"
        }
      ],
      "stateMutability": "nonpayable",
      "type": "function"
    },
    {
      "inputs": [
        {
          "internalType": "uint8",
          "name": "gameId",
          "type": "uint8"
        }
      ],
      "name": "allowSubmitMoves",
      "outputs": [],
      "stateMutability": "nonpayable",
      "type": "function"
    },
    {
      "inputs": [
        {
          "internalType": "uint8",
          "name": "gameId",
          "type": "uint8"
        }
      ],
      "name": "endGame",
      "outputs": [],
      "stateMutability": "nonpayable",
      "type": "function"
    },
    {
      "inputs": [
        {
          "internalType": "uint256",
          "name": "",
          "type": "uint256"
        }
      ],
      "name": "games",
      "outputs": [
        {
          "internalType": "uint256",
          "name": "round",
          "type": "uint256"
        },
        {
          "internalType": "bool",
          "name": "gameInProgress",
          "type": "bool"
        },
        {
          "internalType": "bool",
          "name": "stopAddingShips",
          "type": "bool"
        },
        {
          "internalType": "bool",
          "name": "letCommitMoves",
          "type": "bool"
        },
        {
          "internalType": "bool",
          "name": "letSubmitMoves",
          "type": "bool"
        }
      ],
      "stateMutability": "view",
      "type": "function"
    },
    {
      "inputs": [
        {
          "components": [
            {
              "internalType": "uint8",
              "name": "q",
              "type": "uint8"
            },
            {
              "internalType": "uint8",
              "name": "r",
              "type": "uint8"
            }
          ],
          "internalType": "struct SharedStructs.Coordinate",
          "name": "_coord",
          "type": "tuple"
        },
        {
          "internalType": "uint8",
          "name": "gameId",
          "type": "uint8"
        }
      ],
      "name": "getCell",
      "outputs": [
        {
          "components": [
            {
              "internalType": "uint8",
              "name": "q",
              "type": "uint8"
            },
            {
              "internalType": "uint8",
              "name": "r",
              "type": "uint8"
            },
            {
              "internalType": "bool",
              "name": "island",
              "type": "bool"
            },
            {
              "internalType": "bool",
              "name": "exists",
              "type": "bool"
            }
          ],
          "internalType": "struct SharedStructs.Cell",
          "name": "",
          "type": "tuple"
        }
      ],
      "stateMutability": "view",
      "type": "function"
    },
    {
      "inputs": [
        {
          "internalType": "uint8",
          "name": "gameId",
          "type": "uint8"
        }
      ],
      "name": "getCells",
      "outputs": [
        {
          "components": [
            {
              "internalType": "uint8",
              "name": "q",
              "type": "uint8"
            },
            {
              "internalType": "uint8",
              "name": "r",
              "type": "uint8"
            }
          ],
          "internalType": "struct SharedStructs.Coordinate[]",
          "name": "",
          "type": "tuple[]"
        }
      ],
      "stateMutability": "view",
      "type": "function"
    },
    {
      "inputs": [
        {
          "internalType": "uint8",
          "name": "gameId",
          "type": "uint8"
        }
      ],
      "name": "getRadius",
      "outputs": [
        {
          "internalType": "uint8",
          "name": "",
          "type": "uint8"
        }
      ],
      "stateMutability": "view",
      "type": "function"
    },
    {
      "inputs": [
        {
          "internalType": "uint8",
          "name": "gameId",
          "type": "uint8"
        }
      ],
      "name": "getShips",
      "outputs": [
        {
          "components": [
            {
              "components": [
                {
                  "internalType": "uint8",
                  "name": "q",
                  "type": "uint8"
                },
                {
                  "internalType": "uint8",
                  "name": "r",
                  "type": "uint8"
                }
              ],
              "internalType": "struct SharedStructs.Coordinate",
              "name": "coordinate",
              "type": "tuple"
            },
            {
              "internalType": "enum SharedStructs.Directions",
              "name": "travelDirection",
              "type": "uint8"
            },
            {
              "internalType": "uint8",
              "name": "travelDistance",
              "type": "uint8"
            },
            {
              "internalType": "enum SharedStructs.Directions",
              "name": "shotDirection",
              "type": "uint8"
            },
            {
              "internalType": "uint8",
              "name": "shotDistance",
              "type": "uint8"
            },
            {
              "internalType": "bool",
              "name": "publishedMove",
              "type": "bool"
            },
            {
              "internalType": "address",
              "name": "captain",
              "type": "address"
            },
            {
              "internalType": "uint256",
              "name": "yachtSpeed",
              "type": "uint256"
            },
            {
              "internalType": "uint256",
              "name": "yachtRange",
              "type": "uint256"
            }
          ],
          "internalType": "struct GameWOT.Ship[]",
          "name": "",
          "type": "tuple[]"
        }
      ],
      "stateMutability": "view",
      "type": "function"
    },
    {
      "inputs": [
        {
          "internalType": "uint8",
          "name": "_radius",
          "type": "uint8"
        },
        {
          "internalType": "uint8",
          "name": "gameId",
          "type": "uint8"
        }
      ],
      "name": "initGame",
      "outputs": [],
      "stateMutability": "nonpayable",
      "type": "function"
    },
    {
      "inputs": [],
      "name": "jobId",
      "outputs": [
        {
          "internalType": "bytes32",
          "name": "",
          "type": "bytes32"
        }
      ],
      "stateMutability": "view",
      "type": "function"
    },
    {
      "inputs": [
        {
          "components": [
            {
              "internalType": "uint8",
              "name": "q",
              "type": "uint8"
            },
            {
              "internalType": "uint8",
              "name": "r",
              "type": "uint8"
            }
          ],
          "internalType": "struct SharedStructs.Coordinate",
          "name": "_start",
          "type": "tuple"
        },
        {
          "internalType": "enum SharedStructs.Directions",
          "name": "_dir",
          "type": "uint8"
        },
        {
          "internalType": "uint8",
          "name": "_distance",
          "type": "uint8"
        },
        {
          "internalType": "uint8",
          "name": "gameId",
          "type": "uint8"
        }
      ],
      "name": "move",
      "outputs": [
        {
          "components": [
            {
              "internalType": "uint8",
              "name": "q",
              "type": "uint8"
            },
            {
              "internalType": "uint8",
              "name": "r",
              "type": "uint8"
            }
          ],
          "internalType": "struct SharedStructs.Coordinate",
          "name": "",
          "type": "tuple"
        }
      ],
      "stateMutability": "view",
      "type": "function"
    },
    {
      "inputs": [
        {
          "internalType": "address",
          "name": "",
          "type": "address"
        }
      ],
      "name": "nftDataMapping",
      "outputs": [
        {
          "internalType": "string",
          "name": "tokenId",
          "type": "string"
        },
        {
          "internalType": "uint8",
          "name": "speed",
          "type": "uint8"
        },
        {
          "internalType": "uint8",
          "name": "range",
          "type": "uint8"
        }
      ],
      "stateMutability": "view",
      "type": "function"
    },
    {
      "inputs": [],
      "name": "owner",
      "outputs": [
        {
          "internalType": "address",
          "name": "",
          "type": "address"
        }
      ],
      "stateMutability": "view",
      "type": "function"
    },
    {
      "inputs": [],
      "name": "renounceOwnership",
      "outputs": [],
      "stateMutability": "nonpayable",
      "type": "function"
    },
    {
      "inputs": [
        {
          "internalType": "bytes32",
          "name": "",
          "type": "bytes32"
        }
      ],
      "name": "requestAddresses",
      "outputs": [
        {
          "internalType": "address",
          "name": "",
          "type": "address"
        }
      ],
      "stateMutability": "view",
      "type": "function"
    },
    {
      "inputs": [
        {
          "internalType": "enum SharedStructs.Directions",
          "name": "_travelDirection",
          "type": "uint8"
        },
        {
          "internalType": "uint8",
          "name": "_travelDistance",
          "type": "uint8"
        },
        {
          "internalType": "enum SharedStructs.Directions",
          "name": "_shotDirection",
          "type": "uint8"
        },
        {
          "internalType": "uint8",
          "name": "_shotDistance",
          "type": "uint8"
        },
        {
          "internalType": "uint8",
          "name": "gameId",
          "type": "uint8"
        }
      ],
      "name": "revealMove",
      "outputs": [],
      "stateMutability": "nonpayable",
      "type": "function"
    },
    {
      "inputs": [
        {
          "internalType": "uint8",
          "name": "gameId",
          "type": "uint8"
        }
      ],
      "name": "startNewGame",
      "outputs": [],
      "stateMutability": "nonpayable",
      "type": "function"
    },
    {
      "inputs": [
        {
          "internalType": "address",
          "name": "newOwner",
          "type": "address"
        }
      ],
      "name": "transferOwnership",
      "outputs": [],
      "stateMutability": "nonpayable",
      "type": "function"
    },
    {
      "inputs": [
        {
          "components": [
            {
              "internalType": "uint8",
              "name": "q",
              "type": "uint8"
            },
            {
              "internalType": "uint8",
              "name": "r",
              "type": "uint8"
            }
          ],
          "internalType": "struct SharedStructs.Coordinate",
          "name": "_startCell",
          "type": "tuple"
        },
        {
          "internalType": "enum SharedStructs.Directions",
          "name": "_direction",
          "type": "uint8"
        },
        {
          "internalType": "uint8",
          "name": "_distance",
          "type": "uint8"
        },
        {
          "internalType": "uint8",
          "name": "gameId",
          "type": "uint8"
        }
      ],
      "name": "travel",
      "outputs": [],
      "stateMutability": "nonpayable",
      "type": "function"
    },
    {
      "inputs": [
        {
          "internalType": "uint8",
          "name": "gameId",
          "type": "uint8"
        }
      ],
      "name": "updateWorld",
      "outputs": [],
      "stateMutability": "nonpayable",
      "type": "function"
    }
  ],
  "bytecode": "0x60a06040523480156200001157600080fd5b50604051620040bb380380620040bb8339810160408190526200003491620000a1565b6200003f3362000051565b6001600160a01b0316608052620000d3565b600080546001600160a01b038381166001600160a01b0319831681178455604051919092169283917f8be0079c531659141344cd1fd0a4f28419497f9722a3daafe3b4186f6b6457e09190a35050565b600060208284031215620000b457600080fd5b81516001600160a01b0381168114620000cc57600080fd5b9392505050565b608051613f866200013560003960008181610417015281816106f801528181610be101528181610e5401528181610fde0152818161118901528181611337015281816113b10152818161184401528181611c480152612b4a0152613f866000f3fe608060405234801561001057600080fd5b506004361061012c5760003560e01c8063715018a6116100ad578063c2939d9711610071578063c2939d971461033c578063cddd99ba14610353578063d085a86f1461037c578063f2fde38b1461039c578063fd870446146103af57600080fd5b8063715018a6146102c7578063863375ac146102cf5780638da5cb5b146102e2578063978ac35614610307578063bf70b4f51461031a57600080fd5b80634998b8fb116100f45780634998b8fb146102195780634aac9b8b1461022c5780634d0238861461024c578063508236ca146102a15780636ed296e4146102b457600080fd5b8063117a5b90146101315780631cf8a321146101ac5780632923a41f146101c15780632f309686146101d457806334361208146101f4575b600080fd5b61017761013f366004613585565b6003602081905260009182526040909120805491015460ff808216916101008104821691620100008204811691630100000090041685565b6040805195865293151560208601529115159284019290925290151560608301521515608082015260a0015b60405180910390f35b6101bf6101ba366004613673565b6103cf565b005b6101bf6101cf3660046136cc565b61050b565b6101e76101e23660046136e9565b6105ab565b6040516101a391906137f4565b6102076102023660046136cc565b610b8e565b60405160ff90911681526020016101a3565b6101bf610227366004613803565b610c5a565b61023f61023a3660046136cc565b610dfc565b6040516101a39190613870565b61025f61025a3660046138cd565b611114565b6040516101a39190600060808201905060ff835116825260ff602084015116602083015260408301511515604083015260608301511515606083015292915050565b6101bf6102af366004613905565b611208565b6101bf6102c23660046136cc565b611459565b6101bf611579565b6101bf6102dd3660046136cc565b61158d565b6000546001600160a01b03165b6040516001600160a01b0390911681526020016101a3565b6101bf6103153660046136cc565b61161d565b61032d610328366004613933565b612a35565b6040516101a3939291906139ac565b61034560015481565b6040519081526020016101a3565b6102ef610361366004613585565b6005602052600090815260409020546001600160a01b031681565b61038f61038a366004613673565b612ae5565b6040516101a391906139d9565b6101bf6103aa366004613933565b612bcc565b6103c26103bd3660046136cc565b612c45565b6040516101a391906139f7565b60ff808216600090815260036020819052604090912001541615156001146104125760405162461bcd60e51b815260040161040990613a46565b60405180910390fd5b6000807f00000000000000000000000000000000000000000000000000000000000000006001600160a01b0316631cf8a321878787876040518563ffffffff1660e01b81526004016104679493929190613a7d565b606060405180830381865afa158015610484573d6000803e3d6000fd5b505050506040513d601f19601f820116820180604052508101906104a89190613b0a565b9150915081156104c1576104bc3384612ec0565b610503565b805160ff8481166000908152600360209081526040808320338452600101825290912080549185015183166101000261ffff1990921692909316919091171790555b505050505050565b610513612f92565b60ff8082166000908152600360208190526040909120015416151560011461054d5760405162461bcd60e51b815260040161040990613a46565b60ff8116600081815260036020818152604092839020909101805463ff0000001916630100000017905590519182527f1ebf68ad21138befbfae2606983db26dee824ebb69e305add08e5ec40322ebcf91015b60405180910390a150565b6105b36134f8565b60ff808516600090815260036020819052604090912001546101009004161580156105f8575060ff808516600090815260036020819052604090912001541615156001145b6106145760405162461bcd60e51b815260040161040990613a46565b60ff8085166000908152600360209081526040808320338452600101909152902054161580159061066b575060ff808516600090815260036020908152604080832033845260010190915290205461010090041615155b156106c95760ff8481166000908152600360209081526040808320338085526001909101909252918290205491516308538db760e41b8152600481019190915281831660248201526101009091049091166044820152606401610409565b604080518082019091526000808252602082015260005b6040516342c39d9160e01b815260ff871660048201527f00000000000000000000000000000000000000000000000000000000000000006001600160a01b0316906342c39d919060240160408051808303816000875af1158015610748573d6000803e3d6000fd5b505050506040513d601f19601f8201168201806040525081019061076c9190613b3e565b91506107b2604051806040016040528060138152602001724e657720726e6420706169722025732c20257360681b815250836000015160ff16846020015160ff16612fec565b60005b60ff8088166000908152600360205260409020600201549082161015610951576108596040518060400160405280601781526020017f696e206c6f6f702025732c20616464726573733a2025730000000000000000008152508260ff16600360008b60ff1681526020019081526020016000206002018460ff168154811061083f5761083f613b5a565b6000918252602090912001546001600160a01b0316613033565b825160ff888116600090815260036020526040812060028101805494841694600190920193909190861690811061089257610892613b5a565b60009182526020808320909101546001600160a01b0316835282019290925260400190205460ff16148015610931575060208084015160ff8981166000908152600390935260408320600281018054938316946001909201939192909190861690811061090157610901613b5a565b60009182526020808320909101546001600160a01b0316835282019290925260400190205460ff61010090910416145b1561093f5760019150610951565b8061094981613b86565b9150506107b5565b50806106e057604080516101208101825283815260006020808301828152838501839052606084018390526080840183905260a084018390523360c0850181905260e085018b90526101008086018b905260ff8d81168652600385528786209286526001928301855296909420855180518254919095015194881661ffff19909116179390961690930291909117845551838201805493948594909360ff199190911690836006811115610a0757610a0761371e565b0217905550604082015160018201805460ff9092166101000261ff001983168117825560608501519262ff00001990911662ffff00199091161762010000836006811115610a5757610a5761371e565b021790555060808201516001808301805460a086015160c08701516001600160a01b0316650100000000000265010000000000600160c81b03199115156401000000000264ff000000001960ff9788166301000000021664ffff0000001990941693909317929092171617905560e0840151600280850191909155610100909401516003938401558a82166000908152602093845260408082209095018054928301815581528390200180546001600160a01b03191633179055825180840190935260128352714e657720736869702061742025732c20257360701b8383015283518051920151610b4c939282169116612fec565b60405160ff8816815233907f3138d9d3c5b626eff736a8d5bf07552d9f568087655c46803ee715f424ec1b8e9060200160405180910390a29695505050505050565b60ff8082166000908152600360208190526040822001549091161515600114610bc95760405162461bcd60e51b815260040161040990613a46565b60405163436fadf360e11b815260ff831660048201527f00000000000000000000000000000000000000000000000000000000000000006001600160a01b0316906386df5be690602401602060405180830381865afa158015610c30573d6000803e3d6000fd5b505050506040513d601f19601f82011682018060405250810190610c549190613ba5565b92915050565b60ff8181166000908152600360208190526040909120015463010000009004161515600114610cd55760405162461bcd60e51b815260206004820152602160248201527f5375626d6974206d6f76657320686173206e6f742073746172746564207965746044820152602160f81b6064820152608401610409565b60ff80821660009081526003602081905260409091200154161515600114610d0f5760405162461bcd60e51b815260040161040990613a46565b60ff81166000908152600360209081526040808320338452600190810190925290912080820180549192889260ff191690836006811115610d5257610d5261371e565b021790555060018101805461ff0019811661010060ff891602908117835586929162ffff00191662ff0000199091161762010000836006811115610d9857610d9861371e565b021790555060018101805464ff000000001960ff86166301000000021664ffff000000199091161764010000000017905560405133907f63563f18a7ee7809189f125844fc3e755b5d0f355be5c5928a54ca925dcd576b90600090a2505050505050565b60ff80821660009081526003602081905260409091200154606091161515600114610e395760405162461bcd60e51b815260040161040990613a46565b60405163436fadf360e11b815260ff831660048201526000907f00000000000000000000000000000000000000000000000000000000000000006001600160a01b0316906386df5be690602401602060405180830381865afa158015610ea3573d6000803e3d6000fd5b505050506040513d601f19601f82011682018060405250810190610ec79190613ba5565b90506000610ed6826001613bc2565b610ee1836003613bdb565b610eeb9190613bdb565b610ef6906001613bc2565b60ff16905060008167ffffffffffffffff811115610f1657610f1661359e565b604051908082528060200260200182016040528015610f5b57816020015b6040805180820190915260008082526020820152815260200190600190039081610f345790505b50905060405180604001604052808460ff1681526020018460ff1681525081600081518110610f8c57610f8c613b5a565b602090810291909101015260015b8360ff168160ff161161110b57600081610fb5600182613bf7565b610fc0906003613bdb565b610fca9190613bdb565b610fd5906001613bc2565b60ff16905060007f00000000000000000000000000000000000000000000000000000000000000006001600160a01b03166339e5c4a08560008151811061101e5761101e613b5a565b6020026020010151856040518363ffffffff1660e01b8152600401611044929190613c10565b600060405180830381865afa158015611061573d6000803e3d6000fd5b505050506040513d6000823e601f3d908101601f191682016040526110899190810190613c3e565b905060005b81518160ff1610156110f557818160ff16815181106110af576110af613b5a565b6020026020010151858260ff16856110c79190613cf1565b815181106110d7576110d7613b5a565b602002602001018190525080806110ed90613b86565b91505061108e565b505050808061110390613b86565b915050610f9a565b50949350505050565b60408051608081018252600080825260208201819052918101829052606081019190915260ff808316600090815260036020819052604090912001541615156001146111725760405162461bcd60e51b815260040161040990613a46565b6040516326811c4360e11b81526001600160a01b037f00000000000000000000000000000000000000000000000000000000000000001690634d023886906111c09086908690600401613c10565b608060405180830381865afa1580156111dd573d6000803e3d6000fd5b505050506040513d601f19601f820116820180604052508101906112019190613d04565b9392505050565b611210612f92565b60ff8082166000908152600360208190526040909120015416151560011461124a5760405162461bcd60e51b815260040161040990613a46565b60005b60ff82166000908152600360205260409020600201548110156112f55760ff82166000908152600360205260408120600281018054600190920192918490811061129957611299613b5a565b60009182526020808320909101546001600160a01b031683528201929092526040018120805461ffff191681556001810180546001600160c81b03191690556002810182905560030155806112ed81613d85565b91505061124d565b5060ff8116600090815260036020526040812061131791600290910190613553565b604051631a405d8760e31b815260ff8084166004830152821660248201527f00000000000000000000000000000000000000000000000000000000000000006001600160a01b03169063d202ec3890604401600060405180830381600087803b15801561138357600080fd5b505af1158015611397573d6000803e3d6000fd5b50506040516318068d3760e01b815260ff841660048201527f00000000000000000000000000000000000000000000000000000000000000006001600160a01b031692506318068d379150602401600060405180830381600087803b1580156113ff57600080fd5b505af1158015611413573d6000803e3d6000fd5b50506040805160ff8087168252851660208201527fd76a0a97b7d547fef69b0cd90fb02087b761703ae2b5e4e91a99e8fd17e308ad935001905060405180910390a15050565b611461612f92565b60ff8160ff16106114b45760405162461bcd60e51b815260206004820152601f60248201527f4d6178696d756d206e756d626572206f662067616d65732072656163686564006044820152606401610409565b60ff8082166000908152600360208190526040909120015416156115285760405162461bcd60e51b815260206004820152602560248201527f47616d652077697468207468697320494420616c726561647920696e2070726f604482015264677265737360d81b6064820152608401610409565b60ff8116600081815260036020818152604092839020909101805460ff1916600117905590519182527f13cb55fc1bec4b9f4cd4c22f154240b469cb108a23a35aa599df0c3da46f2d1491016105a0565b611581612f92565b61158b600061307a565b565b611595612f92565b60ff808216600090815260036020819052604090912001541615156001146115cf5760405162461bcd60e51b815260040161040990613a46565b60ff8116600081815260036020818152604092839020909101805460ff1916905590519182527f4df34531b3f238bc8f90ad83236d8c752e7444e434bb5fc99f888f0a6345c0e791016105a0565b611625612f92565b60ff8082166000908152600360208190526040909120015416151560011461165f5760405162461bcd60e51b815260040161040990613a46565b60ff811660009081526003602052604081206002015467ffffffffffffffff81111561168d5761168d61359e565b6040519080825280602002602001820160405280156116d257816020015b60408051808201909152600080825260208201528152602001906001900390816116ab5790505b5060ff83166000908152600360205260408120600201549192509067ffffffffffffffff8111156117055761170561359e565b60405190808252806020026020018201604052801561172e578160200160208202803683370190505b50905060005b60ff808516600090815260036020526040902060020154908216101561178d576001828260ff168151811061176b5761176b613b5a565b911515602092830291909101909101528061178581613b86565b915050611734565b5060005b60ff8085166000908152600360205260409020600201549082161015611bdd5760ff808516600090815260036020526040812060028101805460019092019390919085169081106117e4576117e4613b5a565b60009182526020808320909101546001600160a01b0316835282019290925260400190206001015460ff6401000000009091041615611bcb5760ff8085166000908152600360205260408120600281018054929384936001600160a01b037f00000000000000000000000000000000000000000000000000000000000000001693631cf8a32193600190910192869290891690811061188557611885613b5a565b60009182526020808320909101546001600160a01b03168352828101939093526040918201812060ff808d168352600390945291812060028101805493946001929092019390918a169081106118dd576118dd613b5a565b60009182526020808320909101546001600160a01b03168352828101939093526040918201812060019081015460ff8e811684526003909552928220600281018054948616959190920193908b1690811061193a5761193a613b5a565b60009182526020808320909101546001600160a01b0316835282019290925260409081019091206001015490516001600160e01b031960e086901b16815261199293929160ff61010090910416908c90600401613d9e565b606060405180830381865afa1580156119af573d6000803e3d6000fd5b505050506040513d601f19601f820116820180604052508101906119d39190613b0a565b915091508115611ac05760ff80871660009081526003602052604090206002018054611a26928616908110611a0a57611a0a613b5a565b6000918252602090912001546001600160a01b031684886130ca565b6000848460ff1681518110611a3d57611a3d613b5a565b602002602001019015159081151581525050600360008760ff1681526020019081526020016000206002018360ff1681548110611a7c57611a7c613b5a565b60009182526020822001546040516001600160a01b03909116917fc9d98a36ffe0495d3a50a0bac4845433395c60e4b8e8d58a5e948f4b5011418e91a25050611bcb565b60ff80871660009081526003602052604081206002810180548594600190930193928816908110611af357611af3613b5a565b60009182526020808320909101546001600160a01b031683528281019390935260409182018120845181549585015160ff9081166101000261ffff1990971691811691909117959095179055898416815260039092529020600201805490918516908110611b6357611b63613b5a565b600091825260209182902001548251918301516040516001600160a01b03909216927ff3758096c44bcc832b837f76e2a02b432740f9c56f41e6b238aa673ca9355e5092611bc0929060ff92831681529116602082015260400190565b60405180910390a250505b80611bd581613b86565b915050611791565b5060005b60ff8085166000908152600360205260409020600201549082161015611ea557818160ff1681518110611c1657611c16613b5a565b602002602001015115611e935760ff808516600090815260036020526040812060028101805492936001600160a01b037f0000000000000000000000000000000000000000000000000000000000000000169363d6192ad3936001019286929091908816908110611c8957611c89613b5a565b60009182526020808320909101546001600160a01b03168352828101939093526040918201812060ff808c168352600390945291812060028101805493946001929092019390918916908110611ce157611ce1613b5a565b60009182526020808320909101546001600160a01b03168352828101939093526040918201812060019081015460ff8d811684526003909552928220600281018054620100009095048616959190920193908a16908110611d4457611d44613b5a565b60009182526020808320909101546001600160a01b0316835282019290925260409081019091206001015490516001600160e01b031960e086901b168152611d9c93929160ff63010000009091041690600401613dbc565b6040805180830381865afa158015611db8573d6000803e3d6000fd5b505050506040513d601f19601f82011682018060405250810190611ddc9190613b3e565b905080848360ff1681518110611df457611df4613b5a565b6020026020010181905250600360008660ff1681526020019081526020016000206002018260ff1681548110611e2c57611e2c613b5a565b600091825260209182902001548251918301516040516001600160a01b03909216927f7f1b3d59a1d73150652f33f7a7016f0fff7ef8e824e5b6a436717673b484a8a792611e89929060ff92831681529116602082015260400190565b60405180910390a2505b80611e9d81613b86565b915050611be1565b5060005b60ff80851660009081526003602052604090206002015490821610156124bf5760005b60ff80861660009081526003602052604090206002015490821610156124ac578060ff168260ff161461249a57828260ff1681518110611f0e57611f0e613b5a565b60200260200101518015611f3b5750828160ff1681518110611f3257611f32613b5a565b60200260200101515b8015611ffa575060ff80861660009081526003602052604081206002810180546001909201939091908616908110611f7557611f75613b5a565b60009182526020808320909101546001600160a01b0316835282810193909352604091820181205460ff89811683526003909452918120600281018054938516946001929092019390918616908110611fd057611fd0613b5a565b60009182526020808320909101546001600160a01b0316835282019290925260400190205460ff16145b80156120c4575060ff8086166000908152600360205260408120600281018054600190920193909190861690811061203457612034613b5a565b60009182526020808320909101546001600160a01b0316835282810193909352604091820181205460ff89811683526003909452918120600281018054610100909404851694600192909201939091861690811061209457612094613b5a565b60009182526020808320909101546001600160a01b0316835282019290925260400190205460ff61010090910416145b15612280576000838360ff16815181106120e0576120e0613b5a565b6020026020010190151590811515815250506000838260ff168151811061210957612109613b5a565b91151560209283029190910182015260ff808716600090815260039092526040909120600201805461216292851690811061214657612146613b5a565b6000918252602090912001546001600160a01b031683876130ca565b60ff808616600090815260036020526040902060020180546121ab92841690811061218f5761218f613b5a565b6000918252602090912001546001600160a01b031682876130ca565b600360008660ff1681526020019081526020016000206002018260ff16815481106121d8576121d8613b5a565b60009182526020822001546040516001600160a01b03909116917ff6efc0f0f7270e6470ae421c2c220a2930f349c2e85e2cff70701cb5ee7b1de291a2600360008660ff1681526020019081526020016000206002018160ff168154811061224257612242613b5a565b60009182526020822001546040516001600160a01b03909116917ff6efc0f0f7270e6470ae421c2c220a2930f349c2e85e2cff70701cb5ee7b1de291a25b828260ff168151811061229557612295613b5a565b60200260200101518015612329575060ff808616600090815260036020526040812060028101805460019092019390919086169081106122d7576122d7613b5a565b60009182526020808320909101546001600160a01b03168352820192909252604001902054845160ff91821691869190841690811061231857612318613b5a565b60200260200101516000015160ff16145b80156123ba575060ff8086166000908152600360205260408120600281018054600190920193909190861690811061236357612363613b5a565b60009182526020808320909101546001600160a01b03168352820192909252604001902054845160ff61010090920482169186919084169081106123a9576123a9613b5a565b60200260200101516020015160ff16145b1561249a5760ff808616600090815260036020526040902060020180546123ec92851690811061214657612146613b5a565b600360008660ff1681526020019081526020016000206002018160ff168154811061241957612419613b5a565b600091825260208083209091015460ff80891684526003909252604090922060020180546001600160a01b03909316929091851690811061245c5761245c613b5a565b60009182526020822001546040516001600160a01b03909116917f702e79c3c668b5e07dd82bee771df58a589de806961a825fe169e324ceec57d791a35b806124a481613b86565b915050611ecc565b50806124b781613b86565b915050611ea9565b5060005b60ff808516600090815260036020526040902060020154908216101561264c5760006001600160a01b0316600360008660ff1681526020019081526020016000206002018260ff168154811061251b5761251b613b5a565b6000918252602090912001546001600160a01b03160361263a5760ff84166000908152600360205260409020600201805461255890600190613df4565b8154811061256857612568613b5a565b9060005260206000200160009054906101000a90046001600160a01b0316600360008660ff1681526020019081526020016000206002018260ff16815481106125b3576125b3613b5a565b600091825260208083209190910180546001600160a01b0319166001600160a01b03949094169390931790925560ff8616815260039091526040902060020180548061260157612601613e07565b600082815260209020810160001990810180546001600160a01b031916905501905560ff81161561263a578061263681613e1d565b9150505b8061264481613b86565b9150506124c3565b5060ff831660009081526003602052604081206002015490036126e4577fb609981dd10c4309ee2f55e2fd9b631438fb9d9de43270f098b64571e58352db6040516126b4906020808252600990820152682737903bb4b73732b960b91b604082015260600190565b60405180910390a160ff8316600090815260036020819052604090912001805461ff001916610100179055505050565b60ff831660009081526003602052604090206002015460010361278f5760ff8316600090815260036020526040812060020180547fb609981dd10c4309ee2f55e2fd9b631438fb9d9de43270f098b64571e58352db92612765929161274b5761274b613b5a565b6000918252602090912001546001600160a01b0316613247565b6040516020016127759190613e3a565b60408051601f19818403018152908290526126b491613e76565b60ff8316600090815260036020526040812060020180549091906127b5576127b5613b5a565b60009182526020822001546040516001600160a01b0390911691907f71c863affc60bf856f78adf835c2f8d43a35f214dc51c98e8b9953560f30bf82908290a360005b60ff8085166000908152600360205260409020600201549082161015612a0d5760ff808516600090815260036020526040812060028101805460069460019093019392861690811061284c5761284c613b5a565b60009182526020808320909101546001600160a01b03168352820192909252604001902060019081018054909160ff19909116908360068111156128925761289261371e565b021790555060ff80851660009081526003602052604081206002810180549293600190920192849286169081106128cb576128cb613b5a565b6000918252602080832091909101546001600160a01b0316835282810193909352604091820181206001908101805461ff00191661010060ff978816021790558885168252600390935290812060028101805460069592909401939091861690811061293957612939613b5a565b60009182526020808320909101546001600160a01b031683528201929092526040019020600101805462ff000019166201000083600681111561297e5761297e61371e565b021790555060ff80851660009081526003602052604081206002810180549293600190920192849286169081106129b7576129b7613b5a565b60009182526020808320909101546001600160a01b031683528201929092526040019020600101805460ff9290921663010000000263ff0000001990921691909117905580612a0581613b86565b9150506127f8565b5060ff8316600090815260036020819052604090912001805463ff000000191690555b505050565b600460205260009081526040902080548190612a5090613e89565b80601f0160208091040260200160405190810160405280929190818152602001828054612a7c90613e89565b8015612ac95780601f10612a9e57610100808354040283529160200191612ac9565b820191906000526020600020905b815481529060010190602001808311612aac57829003601f168201915b5050506001909301549192505060ff8082169161010090041683565b604080518082019091526000808252602082015260ff80831660009081526003602081905260409091200154161515600114612b335760405162461bcd60e51b815260040161040990613a46565b604051630d42527560e11b81526001600160a01b037f00000000000000000000000000000000000000000000000000000000000000001690631a84a4ea90612b8390889088908890600401613ec3565b6040805180830381865afa158015612b9f573d6000803e3d6000fd5b505050506040513d601f19601f82011682018060405250810190612bc39190613b3e565b95945050505050565b612bd4612f92565b6001600160a01b038116612c395760405162461bcd60e51b815260206004820152602660248201527f4f776e61626c653a206e6577206f776e657220697320746865207a65726f206160448201526564647265737360d01b6064820152608401610409565b612c428161307a565b50565b60ff80821660009081526003602081905260409091200154606091161515600114612c825760405162461bcd60e51b815260040161040990613a46565b60ff821660009081526003602052604081206002015467ffffffffffffffff811115612cb057612cb061359e565b604051908082528060200260200182016040528015612ce957816020015b612cd66134f8565b815260200190600190039081612cce5790505b509050612d1d6040518060400160405280601081526020016f52657472696576696e6720736869707360801b81525061327f565b60005b60ff8416600090815260036020526040902060020154811015612eb95760ff841660009081526003602052604081206002810180546001909201929184908110612d6c57612d6c613b5a565b60009182526020808320909101546001600160a01b03168352828101939093526040918201902081516101608101909252805460ff8082166101208501908152610100909204811661014085015290835260018201549293919291840191166006811115612ddc57612ddc61371e565b6006811115612ded57612ded61371e565b8152600182015460ff61010082048116602084015260409092019162010000909104166006811115612e2157612e2161371e565b6006811115612e3257612e3261371e565b8152600182015460ff6301000000820481166020840152640100000000820416151560408301526001600160a01b03650100000000009091041660608201526002820154608082015260039091015460a0909101528251839083908110612e9b57612e9b613b5a565b60200260200101819052508080612eb190613d85565b915050612d20565b5092915050565b60ff80821660009081526003602081905260409091200154161515600114612efa5760405162461bcd60e51b815260040161040990613a46565b6000805b60ff8084166000908152600360205260409020600201549082161015612f865760ff808416600090815260036020526040902060020180546001600160a01b038716928416908110612f5257612f52613b5a565b6000918252602090912001546001600160a01b031603612f7457809150612f86565b80612f7e81613b86565b915050612efe565b50612a308382846130ca565b6000546001600160a01b0316331461158b5760405162461bcd60e51b815260206004820181905260248201527f4f776e61626c653a2063616c6c6572206973206e6f7420746865206f776e65726044820152606401610409565b612a3083838360405160240161300493929190613ee1565b60408051601f198184030181529190526020810180516001600160e01b031663ca47c4eb60e01b1790526132be565b612a3083838360405160240161304b93929190613f06565b60408051601f198184030181529190526020810180516001600160e01b031663038fd88960e31b1790526132be565b600080546001600160a01b038381166001600160a01b0319831681178455604051919092169283917f8be0079c531659141344cd1fd0a4f28419497f9722a3daafe3b4186f6b6457e09190a35050565b60ff808216600090815260036020526040902060020154908316106131315760405162461bcd60e51b815260206004820152601860248201527f496e6465782076616c7565206f7574206f662072616e676500000000000000006044820152606401610409565b60ff8082166000908152600360208190526040909120015416151560011461316b5760405162461bcd60e51b815260040161040990613a46565b6040516001600160a01b038416907fce0e3c7f8595684f9560df3c82cb81a6c5a649fcf1bdc96b2dc8b7bf228d650090600090a260ff80821660008181526003602081815260408084206001600160a01b038a16855260018082018452918520805461ffff1916815591820180546001600160c81b0319169055600280830186905591840185905594845291905290910180549192909190851690811061321457613214613b5a565b9060005260206000200160006101000a8154816001600160a01b0302191690836001600160a01b03160217905550505050565b604051606082811b6bffffffffffffffffffffffff1916602083015290610c54906034016040516020818303038152906040526132df565b612c42816040516024016132939190613e76565b60408051601f198184030181529190526020810180516001600160e01b031663104c13eb60e21b1790525b80516a636f6e736f6c652e6c6f67602083016000808483855afa5050505050565b60408051808201909152601081526f181899199a1a9b1b9c1cb0b131b232b360811b602082015281516060919060009061331a906002613f39565b613325906002613cf1565b67ffffffffffffffff81111561333d5761333d61359e565b6040519080825280601f01601f191660200182016040528015613367576020820181803683370190505b509050600360fc1b8160008151811061338257613382613b5a565b60200101906001600160f81b031916908160001a905350600f60fb1b816001815181106133b1576133b1613b5a565b60200101906001600160f81b031916908160001a90535060005b84518110156134f0578260048683815181106133e9576133e9613b5a565b016020015182516001600160f81b031990911690911c60f81c90811061341157613411613b5a565b01602001516001600160f81b0319168261342c836002613f39565b613437906002613cf1565b8151811061344757613447613b5a565b60200101906001600160f81b031916908160001a9053508285828151811061347157613471613b5a565b602091010151815160f89190911c600f1690811061349157613491613b5a565b01602001516001600160f81b031916826134ac836002613f39565b6134b7906003613cf1565b815181106134c7576134c7613b5a565b60200101906001600160f81b031916908160001a905350806134e881613d85565b9150506133cb565b509392505050565b6040805161016081018252600061012082018181526101408301829052825260208201819052918101829052606081018290526080810182905260a0810182905260c0810182905260e0810182905261010081019190915290565b5080546000825590600052602060002090810190612c4291905b80821115613581576000815560010161356d565b5090565b60006020828403121561359757600080fd5b5035919050565b634e487b7160e01b600052604160045260246000fd5b6040805190810167ffffffffffffffff811182821017156135d7576135d761359e565b60405290565b604051601f8201601f1916810167ffffffffffffffff811182821017156136065761360661359e565b604052919050565b60ff81168114612c4257600080fd5b60006040828403121561362f57600080fd5b6136376135b4565b905081356136448161360e565b815260208201356136548161360e565b602082015292915050565b80356007811061366e57600080fd5b919050565b60008060008060a0858703121561368957600080fd5b613693868661361d565b93506136a16040860161365f565b925060608501356136b18161360e565b915060808501356136c18161360e565b939692955090935050565b6000602082840312156136de57600080fd5b81356112018161360e565b6000806000606084860312156136fe57600080fd5b83356137098161360e565b95602085013595506040909401359392505050565b634e487b7160e01b600052602160045260246000fd5b6007811061375257634e487b7160e01b600052602160045260246000fd5b9052565b613771828251805160ff908116835260209182015116910152565b60208101516137836040840182613734565b5060ff604082015116606083015260608101516137a36080840182613734565b5060ff60808201511660a083015260a08101516137c460c084018215159052565b5060c08101516001600160a01b03811660e08401525060e081015161010083810191909152015161012090910152565b6101408101610c548284613756565b600080600080600060a0868803121561381b57600080fd5b6138248661365f565b945060208601356138348161360e565b93506138426040870161365f565b925060608601356138528161360e565b915060808601356138628161360e565b809150509295509295909350565b602080825282518282018190526000919060409081850190868401855b828110156138c0576138b0848351805160ff908116835260209182015116910152565b928401929085019060010161388d565b5091979650505050505050565b600080606083850312156138e057600080fd5b6138ea848461361d565b915060408301356138fa8161360e565b809150509250929050565b6000806040838503121561391857600080fd5b82356139238161360e565b915060208301356138fa8161360e565b60006020828403121561394557600080fd5b81356001600160a01b038116811461120157600080fd5b60005b8381101561397757818101518382015260200161395f565b50506000910152565b6000815180845261399881602086016020860161395c565b601f01601f19169290920160200192915050565b6060815260006139bf6060830186613980565b60ff94851660208401529290931660409091015292915050565b60408101610c548284805160ff908116835260209182015116910152565b6020808252825182820181905260009190848201906040850190845b81811015613a3a57613a26838551613756565b928401926101409290920191600101613a13565b50909695505050505050565b60208082526019908201527f47616d6520686173206e6f742073746172746564207965742100000000000000604082015260600190565b60a08101613a9b8287805160ff908116835260209182015116910152565b613aa86040830186613734565b60ff8416606083015260ff8316608083015295945050505050565b8051801515811461366e57600080fd5b600060408284031215613ae557600080fd5b613aed6135b4565b90508151613afa8161360e565b815260208201516136548161360e565b60008060608385031215613b1d57600080fd5b613b2683613ac3565b9150613b358460208501613ad3565b90509250929050565b600060408284031215613b5057600080fd5b6112018383613ad3565b634e487b7160e01b600052603260045260246000fd5b634e487b7160e01b600052601160045260246000fd5b600060ff821660ff8103613b9c57613b9c613b70565b60010192915050565b600060208284031215613bb757600080fd5b81516112018161360e565b60ff8181168382160190811115610c5457610c54613b70565b60ff8181168382160290811690818114612eb957612eb9613b70565b60ff8281168282160390811115610c5457610c54613b70565b60608101613c2e8285805160ff908116835260209182015116910152565b60ff831660408301529392505050565b60006020808385031215613c5157600080fd5b825167ffffffffffffffff80821115613c6957600080fd5b818501915085601f830112613c7d57600080fd5b815181811115613c8f57613c8f61359e565b613c9d848260051b016135dd565b818152848101925060069190911b830184019087821115613cbd57600080fd5b928401925b81841015613ce657613cd48885613ad3565b83528483019250604084019350613cc2565b979650505050505050565b80820180821115610c5457610c54613b70565b600060808284031215613d1657600080fd5b6040516080810181811067ffffffffffffffff82111715613d3957613d3961359e565b6040528251613d478161360e565b81526020830151613d578161360e565b6020820152613d6860408401613ac3565b6040820152613d7960608401613ac3565b60608201529392505050565b600060018201613d9757613d97613b70565b5060010190565b845460ff808216835260089190911c16602082015260a08101613a9b565b835460ff808216835260089190911c166020820152608081015b613de36040830185613734565b60ff83166060830152949350505050565b81810381811115610c5457610c54613b70565b634e487b7160e01b600052603160045260246000fd5b600060ff821680613e3057613e30613b70565b6000190192915050565b7302a34329023b0b6b2903bb4b73732b91034b99d160651b815260008251613e6981601485016020870161395c565b9190910160140192915050565b6020815260006112016020830184613980565b600181811c90821680613e9d57607f821691505b602082108103613ebd57634e487b7160e01b600052602260045260246000fd5b50919050565b60808101613dd68286805160ff908116835260209182015116910152565b606081526000613ef46060830186613980565b60208301949094525060400152919050565b606081526000613f196060830186613980565b6020830194909452506001600160a01b0391909116604090910152919050565b8082028115828204841417610c5457610c54613b7056fea2646970667358221220669cdd033e8be747ab0bc3435400cd2da13074996cdba959108aa9a82f55501d64736f6c63430008120033",
  "linkReferences": {},
  "deployedLinkReferences": {}
}