{
  "_format": "hh-sol-artifact-1",
  "contractName": "Game",
  "sourceName": "contracts/Game.sol",
  "abi": [
    {
      "inputs": [
        {
          "internalType": "address",
          "name": "_mapAddress",
          "type": "address"
        }
      ],
      "stateMutability": "nonpayable",
      "type": "constructor"
    },
    {
      "inputs": [
        {
          "internalType": "address",
          "name": "player",
          "type": "address"
        },
        {
          "internalType": "uint8",
          "name": "q",
          "type": "uint8"
        },
        {
          "internalType": "uint8",
          "name": "r",
          "type": "uint8"
        }
      ],
      "name": "ShipAlreadyAdded",
      "type": "error"
    },
    {
      "anonymous": false,
      "inputs": [
        {
          "indexed": true,
          "internalType": "address",
          "name": "player",
          "type": "address"
        }
      ],
      "name": "PlayerAdded",
      "type": "event"
    },
    {
      "anonymous": false,
      "inputs": [
        {
          "indexed": true,
          "internalType": "address",
          "name": "player",
          "type": "address"
        }
      ],
      "name": "PlayerDefeated",
      "type": "event"
    },
    {
      "inputs": [],
      "name": "addShip",
      "outputs": [
        {
          "components": [
            {
              "components": [
                {
                  "internalType": "uint8",
                  "name": "q",
                  "type": "uint8"
                },
                {
                  "internalType": "uint8",
                  "name": "r",
                  "type": "uint8"
                }
              ],
              "internalType": "struct SharedStructs.Coordinate",
              "name": "coordinate",
              "type": "tuple"
            },
            {
              "internalType": "enum SharedStructs.Directions",
              "name": "travelDirection",
              "type": "uint8"
            },
            {
              "internalType": "uint8",
              "name": "travelDistance",
              "type": "uint8"
            },
            {
              "internalType": "enum SharedStructs.Directions",
              "name": "shotDirection",
              "type": "uint8"
            },
            {
              "internalType": "uint8",
              "name": "shotDistance",
              "type": "uint8"
            },
            {
              "internalType": "bool",
              "name": "publishedMove",
              "type": "bool"
            },
            {
              "internalType": "address",
              "name": "captain",
              "type": "address"
            }
          ],
          "internalType": "struct Game.Ship",
          "name": "",
          "type": "tuple"
        }
      ],
      "stateMutability": "nonpayable",
      "type": "function"
    },
    {
      "inputs": [],
      "name": "gameInProgress",
      "outputs": [
        {
          "internalType": "bool",
          "name": "",
          "type": "bool"
        }
      ],
      "stateMutability": "view",
      "type": "function"
    },
    {
      "inputs": [
        {
          "components": [
            {
              "internalType": "uint8",
              "name": "q",
              "type": "uint8"
            },
            {
              "internalType": "uint8",
              "name": "r",
              "type": "uint8"
            }
          ],
          "internalType": "struct SharedStructs.Coordinate",
          "name": "_coord",
          "type": "tuple"
        }
      ],
      "name": "getCell",
      "outputs": [
        {
          "components": [
            {
              "internalType": "uint8",
              "name": "q",
              "type": "uint8"
            },
            {
              "internalType": "uint8",
              "name": "r",
              "type": "uint8"
            },
            {
              "internalType": "bool",
              "name": "island",
              "type": "bool"
            },
            {
              "internalType": "bool",
              "name": "exists",
              "type": "bool"
            }
          ],
          "internalType": "struct SharedStructs.Cell",
          "name": "",
          "type": "tuple"
        }
      ],
      "stateMutability": "view",
      "type": "function"
    },
    {
      "inputs": [],
      "name": "getCells",
      "outputs": [
        {
          "components": [
            {
              "internalType": "uint8",
              "name": "q",
              "type": "uint8"
            },
            {
              "internalType": "uint8",
              "name": "r",
              "type": "uint8"
            }
          ],
          "internalType": "struct SharedStructs.Coordinate[]",
          "name": "",
          "type": "tuple[]"
        }
      ],
      "stateMutability": "view",
      "type": "function"
    },
    {
      "inputs": [
        {
          "internalType": "address",
          "name": "_player",
          "type": "address"
        }
      ],
      "name": "getPlayerMove",
      "outputs": [
        {
          "internalType": "enum SharedStructs.Directions",
          "name": "",
          "type": "uint8"
        },
        {
          "internalType": "uint8",
          "name": "",
          "type": "uint8"
        },
        {
          "internalType": "enum SharedStructs.Directions",
          "name": "",
          "type": "uint8"
        },
        {
          "internalType": "uint8",
          "name": "",
          "type": "uint8"
        }
      ],
      "stateMutability": "view",
      "type": "function"
    },
    {
      "inputs": [],
      "name": "getRadius",
      "outputs": [
        {
          "internalType": "uint8",
          "name": "",
          "type": "uint8"
        }
      ],
      "stateMutability": "view",
      "type": "function"
    },
    {
      "inputs": [],
      "name": "getShips",
      "outputs": [
        {
          "components": [
            {
              "components": [
                {
                  "internalType": "uint8",
                  "name": "q",
                  "type": "uint8"
                },
                {
                  "internalType": "uint8",
                  "name": "r",
                  "type": "uint8"
                }
              ],
              "internalType": "struct SharedStructs.Coordinate",
              "name": "coordinate",
              "type": "tuple"
            },
            {
              "internalType": "enum SharedStructs.Directions",
              "name": "travelDirection",
              "type": "uint8"
            },
            {
              "internalType": "uint8",
              "name": "travelDistance",
              "type": "uint8"
            },
            {
              "internalType": "enum SharedStructs.Directions",
              "name": "shotDirection",
              "type": "uint8"
            },
            {
              "internalType": "uint8",
              "name": "shotDistance",
              "type": "uint8"
            },
            {
              "internalType": "bool",
              "name": "publishedMove",
              "type": "bool"
            },
            {
              "internalType": "address",
              "name": "captain",
              "type": "address"
            }
          ],
          "internalType": "struct Game.Ship[]",
          "name": "",
          "type": "tuple[]"
        }
      ],
      "stateMutability": "view",
      "type": "function"
    },
    {
      "inputs": [
        {
          "internalType": "uint8",
          "name": "_radius",
          "type": "uint8"
        }
      ],
      "name": "initGame",
      "outputs": [],
      "stateMutability": "nonpayable",
      "type": "function"
    },
    {
      "inputs": [
        {
          "components": [
            {
              "internalType": "uint8",
              "name": "q",
              "type": "uint8"
            },
            {
              "internalType": "uint8",
              "name": "r",
              "type": "uint8"
            }
          ],
          "internalType": "struct SharedStructs.Coordinate",
          "name": "_start",
          "type": "tuple"
        },
        {
          "internalType": "enum SharedStructs.Directions",
          "name": "_dir",
          "type": "uint8"
        },
        {
          "internalType": "uint8",
          "name": "_distance",
          "type": "uint8"
        }
      ],
      "name": "move",
      "outputs": [
        {
          "components": [
            {
              "internalType": "uint8",
              "name": "q",
              "type": "uint8"
            },
            {
              "internalType": "uint8",
              "name": "r",
              "type": "uint8"
            }
          ],
          "internalType": "struct SharedStructs.Coordinate",
          "name": "",
          "type": "tuple"
        }
      ],
      "stateMutability": "view",
      "type": "function"
    },
    {
      "inputs": [
        {
          "internalType": "uint256",
          "name": "",
          "type": "uint256"
        }
      ],
      "name": "players",
      "outputs": [
        {
          "internalType": "address",
          "name": "",
          "type": "address"
        }
      ],
      "stateMutability": "view",
      "type": "function"
    },
    {
      "inputs": [
        {
          "internalType": "enum SharedStructs.Directions",
          "name": "travelDir",
          "type": "uint8"
        },
        {
          "internalType": "uint8",
          "name": "travelDist",
          "type": "uint8"
        },
        {
          "internalType": "enum SharedStructs.Directions",
          "name": "shotDir",
          "type": "uint8"
        },
        {
          "internalType": "uint8",
          "name": "shotDist",
          "type": "uint8"
        }
      ],
      "name": "revealMove",
      "outputs": [],
      "stateMutability": "nonpayable",
      "type": "function"
    },
    {
      "inputs": [],
      "name": "round",
      "outputs": [
        {
          "internalType": "uint256",
          "name": "",
          "type": "uint256"
        }
      ],
      "stateMutability": "view",
      "type": "function"
    },
    {
      "inputs": [
        {
          "internalType": "address",
          "name": "",
          "type": "address"
        }
      ],
      "name": "ships",
      "outputs": [
        {
          "components": [
            {
              "internalType": "uint8",
              "name": "q",
              "type": "uint8"
            },
            {
              "internalType": "uint8",
              "name": "r",
              "type": "uint8"
            }
          ],
          "internalType": "struct SharedStructs.Coordinate",
          "name": "coordinate",
          "type": "tuple"
        },
        {
          "internalType": "enum SharedStructs.Directions",
          "name": "travelDirection",
          "type": "uint8"
        },
        {
          "internalType": "uint8",
          "name": "travelDistance",
          "type": "uint8"
        },
        {
          "internalType": "enum SharedStructs.Directions",
          "name": "shotDirection",
          "type": "uint8"
        },
        {
          "internalType": "uint8",
          "name": "shotDistance",
          "type": "uint8"
        },
        {
          "internalType": "bool",
          "name": "publishedMove",
          "type": "bool"
        },
        {
          "internalType": "address",
          "name": "captain",
          "type": "address"
        }
      ],
      "stateMutability": "view",
      "type": "function"
    },
    {
      "inputs": [
        {
          "internalType": "enum SharedStructs.Directions",
          "name": "_travelDirection",
          "type": "uint8"
        },
        {
          "internalType": "uint8",
          "name": "_travelDistance",
          "type": "uint8"
        },
        {
          "internalType": "enum SharedStructs.Directions",
          "name": "_shotDirection",
          "type": "uint8"
        },
        {
          "internalType": "uint8",
          "name": "_shotDistance",
          "type": "uint8"
        }
      ],
      "name": "submitMove",
      "outputs": [],
      "stateMutability": "nonpayable",
      "type": "function"
    },
    {
      "inputs": [
        {
          "components": [
            {
              "internalType": "uint8",
              "name": "q",
              "type": "uint8"
            },
            {
              "internalType": "uint8",
              "name": "r",
              "type": "uint8"
            }
          ],
          "internalType": "struct SharedStructs.Coordinate",
          "name": "_startCell",
          "type": "tuple"
        },
        {
          "internalType": "enum SharedStructs.Directions",
          "name": "_direction",
          "type": "uint8"
        },
        {
          "internalType": "uint8",
          "name": "_distance",
          "type": "uint8"
        }
      ],
      "name": "travel",
      "outputs": [],
      "stateMutability": "nonpayable",
      "type": "function"
    },
    {
      "inputs": [],
      "name": "updateWorld",
      "outputs": [],
      "stateMutability": "nonpayable",
      "type": "function"
    }
  ],
  "bytecode": "0x60a06040523480156200001157600080fd5b5060405162003abc38038062003abc8339818101604052810190620000379190620000dc565b8073ffffffffffffffffffffffffffffffffffffffff1660808173ffffffffffffffffffffffffffffffffffffffff1681525050506200010e565b600080fd5b600073ffffffffffffffffffffffffffffffffffffffff82169050919050565b6000620000a48262000077565b9050919050565b620000b68162000097565b8114620000c257600080fd5b50565b600081519050620000d681620000ab565b92915050565b600060208284031215620000f557620000f462000072565b5b60006200010584828501620000c5565b91505092915050565b608051613953620001696000396000818161049a01528181610525015281816105d10152818161067b015281816108220152818161097401528181610dee015281816112fc01528181611bf10152611ff801526139536000f3fe608060405234801561001057600080fd5b50600436106101005760003560e01c806396ace1bb11610097578063e474af2c11610066578063e474af2c146102ba578063eaea26af146102d6578063ecba2dd7146102e0578063f71d96cb146102fc57610100565b806396ace1bb1461022f578063b6c6c7621461024d578063bd21d0fa14610280578063bd85f8611461029c57610100565b80633ac245d9116100d35780633ac245d91461018d5780633fb64e75146101bd57806348ccd3d7146101db5780636738f2341461021157610100565b80630452aa7514610105578063146ca531146101215780631a84a4ea1461013f578063374aed971461016f575b600080fd5b61011f600480360381019061011a919061284e565b61032c565b005b6101296105c1565b6040516101369190612894565b60405180910390f35b610159600480360381019061015491906129b5565b6105c7565b6040516101669190612a46565b60405180910390f35b610177610675565b6040516101849190612b3f565b60405180910390f35b6101a760048036038101906101a29190612b61565b61096a565b6040516101b49190612bfe565b60405180910390f35b6101c5610a13565b6040516101d29190612c28565b60405180910390f35b6101f560048036038101906101f09190612ca1565b610a26565b6040516102089796959493929190612d63565b60405180910390f35b610219610b0d565b6040516102269190612f30565b60405180910390f35b610237610dea565b6040516102449190612f52565b60405180910390f35b61026760048036038101906102629190612ca1565b610e80565b6040516102779493929190612f6d565b60405180910390f35b61029a60048036038101906102959190612fb2565b611067565b005b6102a4611143565b6040516102b191906130a8565b60405180910390f35b6102d460048036038101906102cf9190612fb2565b6118fc565b005b6102de611ae6565b005b6102fa60048036038101906102f591906129b5565b611ff3565b005b610316600480360381019061031191906130f0565b612178565b604051610323919061311d565b60405180910390f35b60005b60028054905081101561048957600160006002838154811061035457610353613138565b5b9060005260206000200160009054906101000a900473ffffffffffffffffffffffffffffffffffffffff1673ffffffffffffffffffffffffffffffffffffffff1673ffffffffffffffffffffffffffffffffffffffff1681526020019081526020016000206000808201600080820160006101000a81549060ff02191690556000820160016101000a81549060ff021916905550506001820160006101000a81549060ff02191690556001820160016101000a81549060ff02191690556001820160026101000a81549060ff02191690556001820160036101000a81549060ff02191690556001820160046101000a81549060ff02191690556001820160056101000a81549073ffffffffffffffffffffffffffffffffffffffff02191690555050808061048190613196565b91505061032f565b506002600061049891906126ec565b7f000000000000000000000000000000000000000000000000000000000000000073ffffffffffffffffffffffffffffffffffffffff1663669636e2826040518263ffffffff1660e01b81526004016104f19190612f52565b600060405180830381600087803b15801561050b57600080fd5b505af115801561051f573d6000803e3d6000fd5b505050507f000000000000000000000000000000000000000000000000000000000000000073ffffffffffffffffffffffffffffffffffffffff1663949996886040518163ffffffff1660e01b8152600401600060405180830381600087803b15801561058b57600080fd5b505af115801561059f573d6000803e3d6000fd5b505050506001600360006101000a81548160ff02191690831515021790555050565b60005481565b6105cf61270d565b7f000000000000000000000000000000000000000000000000000000000000000073ffffffffffffffffffffffffffffffffffffffff16631a84a4ea8585856040518463ffffffff1660e01b815260040161062c939291906131de565b6040805180830381865afa158015610648573d6000803e3d6000fd5b505050506040513d601f19601f8201168201806040525081019061066c919061327a565b90509392505050565b606060007f000000000000000000000000000000000000000000000000000000000000000073ffffffffffffffffffffffffffffffffffffffff1663217f43536040518163ffffffff1660e01b8152600401602060405180830381865afa1580156106e4573d6000803e3d6000fd5b505050506040513d601f19601f8201168201806040525081019061070891906132a7565b9050600060018261071991906132d4565b8260036107269190613309565b6107309190613309565b600161073c91906132d4565b60ff16905060008167ffffffffffffffff81111561075d5761075c6128c5565b5b60405190808252806020026020018201604052801561079657816020015b61078361270d565b81526020019060019003908161077b5790505b50905060405180604001604052808460ff1681526020018460ff16815250816000815181106107c8576107c7613138565b5b60200260200101819052506000600190505b8360ff168160ff1611610960576000816001836107f79190613346565b60036108039190613309565b61080d9190613309565b600161081991906132d4565b60ff16905060007f000000000000000000000000000000000000000000000000000000000000000073ffffffffffffffffffffffffffffffffffffffff166339e5c4a0856000815181106108705761086f613138565b5b6020026020010151856040518363ffffffff1660e01b815260040161089692919061337b565b600060405180830381865afa1580156108b3573d6000803e3d6000fd5b505050506040513d6000823e3d601f19601f820116820180604052508101906108dc9190613471565b905060005b81518160ff16101561094a57818160ff168151811061090357610902613138565b5b6020026020010151858260ff168561091b91906134ba565b8151811061092c5761092b613138565b5b60200260200101819052508080610942906134ee565b9150506108e1565b5050508080610958906134ee565b9150506107da565b5080935050505090565b61097261272d565b7f000000000000000000000000000000000000000000000000000000000000000073ffffffffffffffffffffffffffffffffffffffff16633ac245d9836040518263ffffffff1660e01b81526004016109cb9190612a46565b608060405180830381865afa1580156109e8573d6000803e3d6000fd5b505050506040513d601f19601f82011682018060405250810190610a0c91906135bb565b9050919050565b600360009054906101000a900460ff1681565b6001602052806000526040600020600091509050806000016040518060400160405290816000820160009054906101000a900460ff1660ff1660ff1681526020016000820160019054906101000a900460ff1660ff1660ff1681525050908060010160009054906101000a900460ff16908060010160019054906101000a900460ff16908060010160029054906101000a900460ff16908060010160039054906101000a900460ff16908060010160049054906101000a900460ff16908060010160059054906101000a900473ffffffffffffffffffffffffffffffffffffffff16905087565b6060600060028054905067ffffffffffffffff811115610b3057610b2f6128c5565b5b604051908082528060200260200182016040528015610b6957816020015b610b5661275f565b815260200190600190039081610b4e5790505b509050610baa6040518060400160405280601081526020017f52657472696576696e67207368697073000000000000000000000000000000008152506121b7565b60005b600280549050811015610de2576001600060028381548110610bd257610bd1613138565b5b9060005260206000200160009054906101000a900473ffffffffffffffffffffffffffffffffffffffff1673ffffffffffffffffffffffffffffffffffffffff1673ffffffffffffffffffffffffffffffffffffffff1681526020019081526020016000206040518060e0016040529081600082016040518060400160405290816000820160009054906101000a900460ff1660ff1660ff1681526020016000820160019054906101000a900460ff1660ff1660ff168152505081526020016001820160009054906101000a900460ff166005811115610cb557610cb4612cce565b5b6005811115610cc757610cc6612cce565b5b81526020016001820160019054906101000a900460ff1660ff1660ff1681526020016001820160029054906101000a900460ff166005811115610d0d57610d0c612cce565b5b6005811115610d1f57610d1e612cce565b5b81526020016001820160039054906101000a900460ff1660ff1660ff1681526020016001820160049054906101000a900460ff161515151581526020016001820160059054906101000a900473ffffffffffffffffffffffffffffffffffffffff1673ffffffffffffffffffffffffffffffffffffffff1673ffffffffffffffffffffffffffffffffffffffff1681525050828281518110610dc457610dc3613138565b5b60200260200101819052508080610dda90613196565b915050610bad565b508091505090565b60007f000000000000000000000000000000000000000000000000000000000000000073ffffffffffffffffffffffffffffffffffffffff1663217f43536040518163ffffffff1660e01b8152600401602060405180830381865afa158015610e57573d6000803e3d6000fd5b505050506040513d601f19601f82011682018060405250810190610e7b91906132a7565b905090565b6000806000806000600160008773ffffffffffffffffffffffffffffffffffffffff1673ffffffffffffffffffffffffffffffffffffffff1681526020019081526020016000206040518060e0016040529081600082016040518060400160405290816000820160009054906101000a900460ff1660ff1660ff1681526020016000820160019054906101000a900460ff1660ff1660ff168152505081526020016001820160009054906101000a900460ff166005811115610f4557610f44612cce565b5b6005811115610f5757610f56612cce565b5b81526020016001820160019054906101000a900460ff1660ff1660ff1681526020016001820160029054906101000a900460ff166005811115610f9d57610f9c612cce565b5b6005811115610faf57610fae612cce565b5b81526020016001820160039054906101000a900460ff1660ff1660ff1681526020016001820160049054906101000a900460ff161515151581526020016001820160059054906101000a900473ffffffffffffffffffffffffffffffffffffffff1673ffffffffffffffffffffffffffffffffffffffff1673ffffffffffffffffffffffffffffffffffffffff1681525050905080602001518160400151826060015183608001519450945094509450509193509193565b6000600160003373ffffffffffffffffffffffffffffffffffffffff1673ffffffffffffffffffffffffffffffffffffffff1681526020019081526020016000209050848160010160006101000a81548160ff021916908360058111156110d1576110d0612cce565b5b0217905550838160010160016101000a81548160ff021916908360ff160217905550828160010160026101000a81548160ff0219169083600581111561111a57611119612cce565b5b0217905550818160010160036101000a81548160ff021916908360ff1602179055505050505050565b61114b61275f565b6000600160003373ffffffffffffffffffffffffffffffffffffffff1673ffffffffffffffffffffffffffffffffffffffff16815260200190815260200160002060000160000160009054906101000a900460ff1660ff1611801561120557506000600160003373ffffffffffffffffffffffffffffffffffffffff1673ffffffffffffffffffffffffffffffffffffffff16815260200190815260200160002060000160000160019054906101000a900460ff1660ff16115b156112ef5733600160003373ffffffffffffffffffffffffffffffffffffffff1673ffffffffffffffffffffffffffffffffffffffff16815260200190815260200160002060000160000160009054906101000a900460ff16600160003373ffffffffffffffffffffffffffffffffffffffff1673ffffffffffffffffffffffffffffffffffffffff16815260200190815260200160002060000160000160019054906101000a900460ff166040517f8538db700000000000000000000000000000000000000000000000000000000081526004016112e6939291906135e8565b60405180910390fd5b6112f761270d565b60005b7f000000000000000000000000000000000000000000000000000000000000000073ffffffffffffffffffffffffffffffffffffffff166336579c5b6040518163ffffffff1660e01b815260040160408051808303816000875af1158015611366573d6000803e3d6000fd5b505050506040513d601f19601f8201168201806040525081019061138a919061327a565b91506113da6040518060400160405280601381526020017f4e657720726e6420706169722025732c20257300000000000000000000000000815250836000015160ff16846020015160ff16612250565b60005b6002805490508160ff1610156115da576114716040518060400160405280601781526020017f696e206c6f6f702025732c20616464726573733a2025730000000000000000008152508260ff1660028460ff168154811061144157611440613138565b5b9060005260206000200160009054906101000a900473ffffffffffffffffffffffffffffffffffffffff166122ef565b826000015160ff166001600060028460ff168154811061149457611493613138565b5b9060005260206000200160009054906101000a900473ffffffffffffffffffffffffffffffffffffffff1673ffffffffffffffffffffffffffffffffffffffff1673ffffffffffffffffffffffffffffffffffffffff16815260200190815260200160002060000160000160009054906101000a900460ff1660ff161480156115b95750826020015160ff166001600060028460ff168154811061153b5761153a613138565b5b9060005260206000200160009054906101000a900473ffffffffffffffffffffffffffffffffffffffff1673ffffffffffffffffffffffffffffffffffffffff1673ffffffffffffffffffffffffffffffffffffffff16815260200190815260200160002060000160000160019054906101000a900460ff1660ff16145b156115c757600191506115da565b80806115d2906134ee565b9150506113dd565b50806112fa5760006040518060e001604052808481526020016000600581111561160757611606612cce565b5b8152602001600060ff1681526020016000600581111561162a57611629612cce565b5b8152602001600060ff1681526020016000151581526020013373ffffffffffffffffffffffffffffffffffffffff16815250905080600160003373ffffffffffffffffffffffffffffffffffffffff1673ffffffffffffffffffffffffffffffffffffffff16815260200190815260200160002060008201518160000160008201518160000160006101000a81548160ff021916908360ff16021790555060208201518160000160016101000a81548160ff021916908360ff160217905550505060208201518160010160006101000a81548160ff0219169083600581111561171657611715612cce565b5b021790555060408201518160010160016101000a81548160ff021916908360ff16021790555060608201518160010160026101000a81548160ff0219169083600581111561176757611766612cce565b5b021790555060808201518160010160036101000a81548160ff021916908360ff16021790555060a08201518160010160046101000a81548160ff02191690831515021790555060c08201518160010160056101000a81548173ffffffffffffffffffffffffffffffffffffffff021916908373ffffffffffffffffffffffffffffffffffffffff1602179055509050506002339080600181540180825580915050600190039060005260206000200160009091909190916101000a81548173ffffffffffffffffffffffffffffffffffffffff021916908373ffffffffffffffffffffffffffffffffffffffff1602179055506118b06040518060400160405280601281526020017f4e657720736869702061742025732c202573000000000000000000000000000081525082600001516000015160ff1683600001516020015160ff16612250565b3373ffffffffffffffffffffffffffffffffffffffff167ff2ae205522024c14e5a7a26ba6d1fb1252dc8e161b5abc79ed5795fd3c5b926160405160405180910390a280935050505090565b83600160003373ffffffffffffffffffffffffffffffffffffffff1673ffffffffffffffffffffffffffffffffffffffff16815260200190815260200160002060010160006101000a81548160ff0219169083600581111561196157611960612cce565b5b021790555082600160003373ffffffffffffffffffffffffffffffffffffffff1673ffffffffffffffffffffffffffffffffffffffff16815260200190815260200160002060010160016101000a81548160ff021916908360ff16021790555081600160003373ffffffffffffffffffffffffffffffffffffffff1673ffffffffffffffffffffffffffffffffffffffff16815260200190815260200160002060010160026101000a81548160ff02191690836005811115611a2657611a25612cce565b5b021790555080600160003373ffffffffffffffffffffffffffffffffffffffff1673ffffffffffffffffffffffffffffffffffffffff16815260200190815260200160002060010160036101000a81548160ff021916908360ff16021790555060018060003373ffffffffffffffffffffffffffffffffffffffff1673ffffffffffffffffffffffffffffffffffffffff16815260200190815260200160002060010160046101000a81548160ff02191690831515021790555050505050565b600060028054905067ffffffffffffffff811115611b0757611b066128c5565b5b604051908082528060200260200182016040528015611b4057816020015b611b2d61270d565b815260200190600190039081611b255790505b50905060005b6002805490508160ff161015611fef576001600060028360ff1681548110611b7157611b70613138565b5b9060005260206000200160009054906101000a900473ffffffffffffffffffffffffffffffffffffffff1673ffffffffffffffffffffffffffffffffffffffff1673ffffffffffffffffffffffffffffffffffffffff16815260200190815260200160002060010160049054906101000a900460ff1615611fdb576000807f000000000000000000000000000000000000000000000000000000000000000073ffffffffffffffffffffffffffffffffffffffff1663ecba2dd76001600060028760ff1681548110611c4657611c45613138565b5b9060005260206000200160009054906101000a900473ffffffffffffffffffffffffffffffffffffffff1673ffffffffffffffffffffffffffffffffffffffff1673ffffffffffffffffffffffffffffffffffffffff1681526020019081526020016000206000016001600060028860ff1681548110611cc957611cc8613138565b5b9060005260206000200160009054906101000a900473ffffffffffffffffffffffffffffffffffffffff1673ffffffffffffffffffffffffffffffffffffffff1673ffffffffffffffffffffffffffffffffffffffff16815260200190815260200160002060010160009054906101000a900460ff166001600060028960ff1681548110611d5a57611d59613138565b5b9060005260206000200160009054906101000a900473ffffffffffffffffffffffffffffffffffffffff1673ffffffffffffffffffffffffffffffffffffffff1673ffffffffffffffffffffffffffffffffffffffff16815260200190815260200160002060010160019054906101000a900460ff166040518463ffffffff1660e01b8152600401611dee939291906136ba565b606060405180830381865afa158015611e0b573d6000803e3d6000fd5b505050506040513d601f19601f82011682018060405250810190611e2f91906136f1565b915091508115611e8b57611e8460028460ff1681548110611e5357611e52613138565b5b9060005260206000200160009054906101000a900473ffffffffffffffffffffffffffffffffffffffff168461238e565b5050611fdc565b60005b8360ff168160ff161015611fb557816000015160ff16858260ff1681518110611eba57611eb9613138565b5b60200260200101516000015160ff1614158015611f025750816020015160ff16858260ff1681518110611ef057611eef613138565b5b60200260200101516020015160ff1614155b15611fa257611f5260028260ff1681548110611f2157611f20613138565b5b9060005260206000200160009054906101000a900473ffffffffffffffffffffffffffffffffffffffff168261238e565b611f9d60028560ff1681548110611f6c57611f6b613138565b5b9060005260206000200160009054906101000a900473ffffffffffffffffffffffffffffffffffffffff168561238e565b611fb5565b8380611fad906134ee565b945050611e8e565b5080848460ff1681518110611fcd57611fcc613138565b5b602002602001018190525050505b5b8080611fe7906134ee565b915050611b46565b5050565b6000807f000000000000000000000000000000000000000000000000000000000000000073ffffffffffffffffffffffffffffffffffffffff1663ecba2dd78686866040518463ffffffff1660e01b8152600401612053939291906131de565b606060405180830381865afa158015612070573d6000803e3d6000fd5b505050506040513d601f19601f8201168201806040525081019061209491906136f1565b9150915081156120ac576120a733612611565b612171565b8060000151600160003373ffffffffffffffffffffffffffffffffffffffff1673ffffffffffffffffffffffffffffffffffffffff16815260200190815260200160002060000160000160006101000a81548160ff021916908360ff1602179055508060200151600160003373ffffffffffffffffffffffffffffffffffffffff1673ffffffffffffffffffffffffffffffffffffffff16815260200190815260200160002060000160000160016101000a81548160ff021916908360ff1602179055505b5050505050565b6002818154811061218857600080fd5b906000526020600020016000915054906101000a900473ffffffffffffffffffffffffffffffffffffffff1681565b61224d816040516024016121cb91906137b0565b6040516020818303038152906040527f41304fac000000000000000000000000000000000000000000000000000000007bffffffffffffffffffffffffffffffffffffffffffffffffffffffff19166020820180517bffffffffffffffffffffffffffffffffffffffffffffffffffffffff83818316178352505050506126c3565b50565b6122ea838383604051602401612268939291906137d2565b6040516020818303038152906040527fca47c4eb000000000000000000000000000000000000000000000000000000007bffffffffffffffffffffffffffffffffffffffffffffffffffffffff19166020820180517bffffffffffffffffffffffffffffffffffffffffffffffffffffffff83818316178352505050506126c3565b505050565b61238983838360405160240161230793929190613810565b6040516020818303038152906040527f1c7ec448000000000000000000000000000000000000000000000000000000007bffffffffffffffffffffffffffffffffffffffffffffffffffffffff19166020820180517bffffffffffffffffffffffffffffffffffffffffffffffffffffffff83818316178352505050506126c3565b505050565b6002805490508160ff16106123d8576040517f08c379a00000000000000000000000000000000000000000000000000000000081526004016123cf9061389a565b60405180910390fd5b8173ffffffffffffffffffffffffffffffffffffffff167fce0e3c7f8595684f9560df3c82cb81a6c5a649fcf1bdc96b2dc8b7bf228d650060405160405180910390a2600160008373ffffffffffffffffffffffffffffffffffffffff1673ffffffffffffffffffffffffffffffffffffffff1681526020019081526020016000206000808201600080820160006101000a81549060ff02191690556000820160016101000a81549060ff021916905550506001820160006101000a81549060ff02191690556001820160016101000a81549060ff02191690556001820160026101000a81549060ff02191690556001820160036101000a81549060ff02191690556001820160046101000a81549060ff02191690556001820160056101000a81549073ffffffffffffffffffffffffffffffffffffffff021916905550506002600160028054905061252b91906138ba565b8154811061253c5761253b613138565b5b9060005260206000200160009054906101000a900473ffffffffffffffffffffffffffffffffffffffff1660028260ff168154811061257e5761257d613138565b5b9060005260206000200160006101000a81548173ffffffffffffffffffffffffffffffffffffffff021916908373ffffffffffffffffffffffffffffffffffffffff16021790555060028054806125d8576125d76138ee565b5b6001900381819060005260206000200160006101000a81549073ffffffffffffffffffffffffffffffffffffffff021916905590555050565b6000805b6002805490508160ff1610156126b4578273ffffffffffffffffffffffffffffffffffffffff1660028260ff168154811061265357612652613138565b5b9060005260206000200160009054906101000a900473ffffffffffffffffffffffffffffffffffffffff1673ffffffffffffffffffffffffffffffffffffffff16036126a1578091506126b4565b80806126ac906134ee565b915050612615565b506126bf828261238e565b5050565b60008151905060006a636f6e736f6c652e6c6f679050602083016000808483855afa5050505050565b508054600082559060005260206000209081019061270a91906127e4565b50565b6040518060400160405280600060ff168152602001600060ff1681525090565b6040518060800160405280600060ff168152602001600060ff1681526020016000151581526020016000151581525090565b6040518060e0016040528061277261270d565b81526020016000600581111561278b5761278a612cce565b5b8152602001600060ff168152602001600060058111156127ae576127ad612cce565b5b8152602001600060ff168152602001600015158152602001600073ffffffffffffffffffffffffffffffffffffffff1681525090565b5b808211156127fd5760008160009055506001016127e5565b5090565b6000604051905090565b600080fd5b600080fd5b600060ff82169050919050565b61282b81612815565b811461283657600080fd5b50565b60008135905061284881612822565b92915050565b6000602082840312156128645761286361280b565b5b600061287284828501612839565b91505092915050565b6000819050919050565b61288e8161287b565b82525050565b60006020820190506128a96000830184612885565b92915050565b600080fd5b6000601f19601f8301169050919050565b7f4e487b7100000000000000000000000000000000000000000000000000000000600052604160045260246000fd5b6128fd826128b4565b810181811067ffffffffffffffff8211171561291c5761291b6128c5565b5b80604052505050565b600061292f612801565b905061293b82826128f4565b919050565b600060408284031215612956576129556128af565b5b6129606040612925565b9050600061297084828501612839565b600083015250602061298484828501612839565b60208301525092915050565b6006811061299d57600080fd5b50565b6000813590506129af81612990565b92915050565b6000806000608084860312156129ce576129cd61280b565b5b60006129dc86828701612940565b93505060406129ed868287016129a0565b92505060606129fe86828701612839565b9150509250925092565b612a1181612815565b82525050565b604082016000820151612a2d6000850182612a08565b506020820151612a406020850182612a08565b50505050565b6000604082019050612a5b6000830184612a17565b92915050565b600081519050919050565b600082825260208201905092915050565b6000819050602082019050919050565b604082016000820151612aa36000850182612a08565b506020820151612ab66020850182612a08565b50505050565b6000612ac88383612a8d565b60408301905092915050565b6000602082019050919050565b6000612aec82612a61565b612af68185612a6c565b9350612b0183612a7d565b8060005b83811015612b32578151612b198882612abc565b9750612b2483612ad4565b925050600181019050612b05565b5085935050505092915050565b60006020820190508181036000830152612b598184612ae1565b905092915050565b600060408284031215612b7757612b7661280b565b5b6000612b8584828501612940565b91505092915050565b60008115159050919050565b612ba381612b8e565b82525050565b608082016000820151612bbf6000850182612a08565b506020820151612bd26020850182612a08565b506040820151612be56040850182612b9a565b506060820151612bf86060850182612b9a565b50505050565b6000608082019050612c136000830184612ba9565b92915050565b612c2281612b8e565b82525050565b6000602082019050612c3d6000830184612c19565b92915050565b600073ffffffffffffffffffffffffffffffffffffffff82169050919050565b6000612c6e82612c43565b9050919050565b612c7e81612c63565b8114612c8957600080fd5b50565b600081359050612c9b81612c75565b92915050565b600060208284031215612cb757612cb661280b565b5b6000612cc584828501612c8c565b91505092915050565b7f4e487b7100000000000000000000000000000000000000000000000000000000600052602160045260246000fd5b60068110612d0e57612d0d612cce565b5b50565b6000819050612d1f82612cfd565b919050565b6000612d2f82612d11565b9050919050565b612d3f81612d24565b82525050565b612d4e81612815565b82525050565b612d5d81612c63565b82525050565b600061010082019050612d79600083018a612a17565b612d866040830189612d36565b612d936060830188612d45565b612da06080830187612d36565b612dad60a0830186612d45565b612dba60c0830185612c19565b612dc760e0830184612d54565b98975050505050505050565b600081519050919050565b600082825260208201905092915050565b6000819050602082019050919050565b612e0881612d24565b82525050565b612e1781612c63565b82525050565b61010082016000820151612e346000850182612a8d565b506020820151612e476040850182612dff565b506040820151612e5a6060850182612a08565b506060820151612e6d6080850182612dff565b506080820151612e8060a0850182612a08565b5060a0820151612e9360c0850182612b9a565b5060c0820151612ea660e0850182612e0e565b50505050565b6000612eb88383612e1d565b6101008301905092915050565b6000602082019050919050565b6000612edd82612dd3565b612ee78185612dde565b9350612ef283612def565b8060005b83811015612f23578151612f0a8882612eac565b9750612f1583612ec5565b925050600181019050612ef6565b5085935050505092915050565b60006020820190508181036000830152612f4a8184612ed2565b905092915050565b6000602082019050612f676000830184612d45565b92915050565b6000608082019050612f826000830187612d36565b612f8f6020830186612d45565b612f9c6040830185612d36565b612fa96060830184612d45565b95945050505050565b60008060008060808587031215612fcc57612fcb61280b565b5b6000612fda878288016129a0565b9450506020612feb87828801612839565b9350506040612ffc878288016129a0565b925050606061300d87828801612839565b91505092959194509250565b610100820160008201516130306000850182612a8d565b5060208201516130436040850182612dff565b5060408201516130566060850182612a08565b5060608201516130696080850182612dff565b50608082015161307c60a0850182612a08565b5060a082015161308f60c0850182612b9a565b5060c08201516130a260e0850182612e0e565b50505050565b6000610100820190506130be6000830184613019565b92915050565b6130cd8161287b565b81146130d857600080fd5b50565b6000813590506130ea816130c4565b92915050565b6000602082840312156131065761310561280b565b5b6000613114848285016130db565b91505092915050565b60006020820190506131326000830184612d54565b92915050565b7f4e487b7100000000000000000000000000000000000000000000000000000000600052603260045260246000fd5b7f4e487b7100000000000000000000000000000000000000000000000000000000600052601160045260246000fd5b60006131a18261287b565b91507fffffffffffffffffffffffffffffffffffffffffffffffffffffffffffffffff82036131d3576131d2613167565b5b600182019050919050565b60006080820190506131f36000830186612a17565b6132006040830185612d36565b61320d6060830184612d45565b949350505050565b60008151905061322481612822565b92915050565b6000604082840312156132405761323f6128af565b5b61324a6040612925565b9050600061325a84828501613215565b600083015250602061326e84828501613215565b60208301525092915050565b6000604082840312156132905761328f61280b565b5b600061329e8482850161322a565b91505092915050565b6000602082840312156132bd576132bc61280b565b5b60006132cb84828501613215565b91505092915050565b60006132df82612815565b91506132ea83612815565b9250828201905060ff81111561330357613302613167565b5b92915050565b600061331482612815565b915061331f83612815565b925082820261332d81612815565b915080821461333f5761333e613167565b5b5092915050565b600061335182612815565b915061335c83612815565b9250828203905060ff81111561337557613374613167565b5b92915050565b60006060820190506133906000830185612a17565b61339d6040830184612d45565b9392505050565b600080fd5b600067ffffffffffffffff8211156133c4576133c36128c5565b5b602082029050602081019050919050565b600080fd5b60006133ed6133e8846133a9565b612925565b905080838252602082019050604084028301858111156134105761340f6133d5565b5b835b818110156134395780613425888261322a565b845260208401935050604081019050613412565b5050509392505050565b600082601f830112613458576134576133a4565b5b81516134688482602086016133da565b91505092915050565b6000602082840312156134875761348661280b565b5b600082015167ffffffffffffffff8111156134a5576134a4612810565b5b6134b184828501613443565b91505092915050565b60006134c58261287b565b91506134d08361287b565b92508282019050808211156134e8576134e7613167565b5b92915050565b60006134f982612815565b915060ff820361350c5761350b613167565b5b600182019050919050565b61352081612b8e565b811461352b57600080fd5b50565b60008151905061353d81613517565b92915050565b600060808284031215613559576135586128af565b5b6135636080612925565b9050600061357384828501613215565b600083015250602061358784828501613215565b602083015250604061359b8482850161352e565b60408301525060606135af8482850161352e565b60608301525092915050565b6000608082840312156135d1576135d061280b565b5b60006135df84828501613543565b91505092915050565b60006060820190506135fd6000830186612d54565b61360a6020830185612d45565b6136176040830184612d45565b949350505050565b60008160001c9050919050565b600060ff82169050919050565b600061364c6136478361361f565b61362c565b9050919050565b60008160081c9050919050565b600061367361366e83613653565b61362c565b9050919050565b60408201600080830154905061368f81613639565b61369c6000860182612a08565b506136a681613660565b6136b36020860182612a08565b5050505050565b60006080820190506136cf600083018661367a565b6136dc6040830185612d36565b6136e96060830184612d45565b949350505050565b600080606083850312156137085761370761280b565b5b60006137168582860161352e565b92505060206137278582860161322a565b9150509250929050565b600081519050919050565b600082825260208201905092915050565b60005b8381101561376b578082015181840152602081019050613750565b60008484015250505050565b600061378282613731565b61378c818561373c565b935061379c81856020860161374d565b6137a5816128b4565b840191505092915050565b600060208201905081810360008301526137ca8184613777565b905092915050565b600060608201905081810360008301526137ec8186613777565b90506137fb6020830185612885565b6138086040830184612885565b949350505050565b6000606082019050818103600083015261382a8186613777565b90506138396020830185612885565b6138466040830184612d54565b949350505050565b7f496e6465782076616c7565206f7574206f662072616e67650000000000000000600082015250565b600061388460188361373c565b915061388f8261384e565b602082019050919050565b600060208201905081810360008301526138b381613877565b9050919050565b60006138c58261287b565b91506138d08361287b565b92508282039050818111156138e8576138e7613167565b5b92915050565b7f4e487b7100000000000000000000000000000000000000000000000000000000600052603160045260246000fdfea264697066735822122001d834559d77ddfaaef2acf55d091144bfb794218d6db1ea6738a1139c8e334864736f6c63430008120033",
  "linkReferences": {},
  "deployedLinkReferences": {}
}