{
  "_format": "hh-sol-artifact-1",
  "contractName": "GameWOT",
  "sourceName": "contracts/GameWOT.sol",
  "abi": [
    {
      "inputs": [
        {
          "internalType": "address",
          "name": "_mapAddress",
          "type": "address"
        }
      ],
      "stateMutability": "nonpayable",
      "type": "constructor"
    },
    {
      "inputs": [
        {
          "internalType": "address",
          "name": "player",
          "type": "address"
        },
        {
          "internalType": "uint8",
          "name": "q",
          "type": "uint8"
        },
        {
          "internalType": "uint8",
          "name": "r",
          "type": "uint8"
        }
      ],
      "name": "ShipAlreadyAdded",
      "type": "error"
    },
    {
      "anonymous": false,
      "inputs": [
        {
          "indexed": false,
          "internalType": "uint8",
          "name": "gameId",
          "type": "uint8"
        }
      ],
      "name": "CommitPhaseStarted",
      "type": "event"
    },
    {
      "anonymous": false,
      "inputs": [
        {
          "indexed": false,
          "internalType": "uint8",
          "name": "gameId",
          "type": "uint8"
        }
      ],
      "name": "GameEnded",
      "type": "event"
    },
    {
      "anonymous": false,
      "inputs": [
        {
          "indexed": false,
          "internalType": "uint8",
          "name": "gameId",
          "type": "uint8"
        }
      ],
      "name": "GameStarted",
      "type": "event"
    },
    {
      "anonymous": false,
      "inputs": [
        {
          "indexed": true,
          "internalType": "bool",
          "name": "gameStatus",
          "type": "bool"
        },
        {
          "indexed": true,
          "internalType": "address",
          "name": "winnerAddress",
          "type": "address"
        },
        {
          "indexed": false,
          "internalType": "uint8",
          "name": "gameId",
          "type": "uint8"
        }
      ],
      "name": "GameUpdated",
      "type": "event"
    },
    {
      "anonymous": false,
      "inputs": [
        {
          "indexed": false,
          "internalType": "string",
          "name": "gameWinner",
          "type": "string"
        },
        {
          "indexed": false,
          "internalType": "uint8",
          "name": "gameId",
          "type": "uint8"
        }
      ],
      "name": "GameWinner",
      "type": "event"
    },
    {
      "anonymous": false,
      "inputs": [
        {
          "indexed": false,
          "internalType": "uint8",
          "name": "radius",
          "type": "uint8"
        },
        {
          "indexed": false,
          "internalType": "uint8",
          "name": "gameId",
          "type": "uint8"
        }
      ],
      "name": "MapInitialized",
      "type": "event"
    },
    {
      "anonymous": false,
      "inputs": [
        {
          "indexed": false,
          "internalType": "uint8",
          "name": "gameId",
          "type": "uint8"
        }
      ],
      "name": "MapShrink",
      "type": "event"
    },
    {
      "anonymous": false,
      "inputs": [
        {
          "indexed": true,
          "internalType": "address",
          "name": "player",
          "type": "address"
        },
        {
          "indexed": false,
          "internalType": "uint8",
          "name": "gameId",
          "type": "uint8"
        }
      ],
      "name": "MoveCommitted",
      "type": "event"
    },
    {
      "anonymous": false,
      "inputs": [
        {
          "indexed": true,
          "internalType": "address",
          "name": "player",
          "type": "address"
        },
        {
          "indexed": false,
          "internalType": "uint8",
          "name": "gameId",
          "type": "uint8"
        }
      ],
      "name": "MoveSubmitted",
      "type": "event"
    },
    {
      "anonymous": false,
      "inputs": [
        {
          "indexed": true,
          "internalType": "address",
          "name": "previousOwner",
          "type": "address"
        },
        {
          "indexed": true,
          "internalType": "address",
          "name": "newOwner",
          "type": "address"
        }
      ],
      "name": "OwnershipTransferred",
      "type": "event"
    },
    {
      "anonymous": false,
      "inputs": [
        {
          "indexed": true,
          "internalType": "address",
          "name": "player",
          "type": "address"
        },
        {
          "indexed": false,
          "internalType": "uint8",
          "name": "gameId",
          "type": "uint8"
        }
      ],
      "name": "PlayerAdded",
      "type": "event"
    },
    {
      "anonymous": false,
      "inputs": [
        {
          "indexed": true,
          "internalType": "address",
          "name": "player",
          "type": "address"
        },
        {
          "indexed": false,
          "internalType": "uint8",
          "name": "gameId",
          "type": "uint8"
        }
      ],
      "name": "PlayerDefeated",
      "type": "event"
    },
    {
      "anonymous": false,
      "inputs": [
        {
          "indexed": true,
          "internalType": "address",
          "name": "captain",
          "type": "address"
        },
        {
          "indexed": false,
          "internalType": "uint8",
          "name": "gameId",
          "type": "uint8"
        }
      ],
      "name": "ShipCollidedWithIsland",
      "type": "event"
    },
    {
      "anonymous": false,
      "inputs": [
        {
          "indexed": true,
          "internalType": "address",
          "name": "victim",
          "type": "address"
        },
        {
          "indexed": true,
          "internalType": "address",
          "name": "attacker",
          "type": "address"
        },
        {
          "indexed": false,
          "internalType": "uint8",
          "name": "gameId",
          "type": "uint8"
        }
      ],
      "name": "ShipHit",
      "type": "event"
    },
    {
      "anonymous": false,
      "inputs": [
        {
          "indexed": true,
          "internalType": "address",
          "name": "captain",
          "type": "address"
        },
        {
          "indexed": false,
          "internalType": "uint8",
          "name": "initialQ",
          "type": "uint8"
        },
        {
          "indexed": false,
          "internalType": "uint8",
          "name": "initialR",
          "type": "uint8"
        },
        {
          "indexed": false,
          "internalType": "uint8",
          "name": "q",
          "type": "uint8"
        },
        {
          "indexed": false,
          "internalType": "uint8",
          "name": "r",
          "type": "uint8"
        },
        {
          "indexed": false,
          "internalType": "uint8",
          "name": "gameId",
          "type": "uint8"
        }
      ],
      "name": "ShipMoved",
      "type": "event"
    },
    {
      "anonymous": false,
      "inputs": [
        {
          "indexed": true,
          "internalType": "address",
          "name": "captain",
          "type": "address"
        },
        {
          "indexed": false,
          "internalType": "uint8",
          "name": "gameId",
          "type": "uint8"
        }
      ],
      "name": "ShipMovedInGame",
      "type": "event"
    },
    {
      "anonymous": false,
      "inputs": [
        {
          "indexed": true,
          "internalType": "address",
          "name": "captain",
          "type": "address"
        },
        {
          "indexed": false,
          "internalType": "uint8",
          "name": "fromQ",
          "type": "uint8"
        },
        {
          "indexed": false,
          "internalType": "uint8",
          "name": "fromR",
          "type": "uint8"
        },
        {
          "indexed": false,
          "internalType": "uint8",
          "name": "shotQ",
          "type": "uint8"
        },
        {
          "indexed": false,
          "internalType": "uint8",
          "name": "shotR",
          "type": "uint8"
        },
        {
          "indexed": false,
          "internalType": "uint8",
          "name": "gameId",
          "type": "uint8"
        }
      ],
      "name": "ShipShot",
      "type": "event"
    },
    {
      "anonymous": false,
      "inputs": [
        {
          "indexed": true,
          "internalType": "address",
          "name": "captain",
          "type": "address"
        },
        {
          "indexed": false,
          "internalType": "uint8",
          "name": "gameId",
          "type": "uint8"
        }
      ],
      "name": "ShipSunk",
      "type": "event"
    },
    {
      "anonymous": false,
      "inputs": [
        {
          "indexed": true,
          "internalType": "address",
          "name": "captain",
          "type": "address"
        },
        {
          "indexed": false,
          "internalType": "uint8",
          "name": "gameId",
          "type": "uint8"
        }
      ],
      "name": "ShipSunkOutOfMap",
      "type": "event"
    },
    {
      "anonymous": false,
      "inputs": [
        {
          "indexed": false,
          "internalType": "uint8",
          "name": "gameId",
          "type": "uint8"
        },
        {
          "indexed": false,
          "internalType": "uint256",
          "name": "round",
          "type": "uint256"
        }
      ],
      "name": "SubmitPhaseStarted",
      "type": "event"
    },
    {
      "anonymous": false,
      "inputs": [
        {
          "indexed": false,
          "internalType": "uint8",
          "name": "gameId",
          "type": "uint8"
        }
      ],
      "name": "WorldUpdated",
      "type": "event"
    },
    {
      "inputs": [
        {
          "internalType": "uint8",
          "name": "gameId",
          "type": "uint8"
        },
        {
          "internalType": "uint256",
          "name": "_speed",
          "type": "uint256"
        },
        {
          "internalType": "uint256",
          "name": "_range",
          "type": "uint256"
        }
      ],
      "name": "addShip",
      "outputs": [
        {
          "components": [
            {
              "components": [
                {
                  "internalType": "uint8",
                  "name": "q",
                  "type": "uint8"
                },
                {
                  "internalType": "uint8",
                  "name": "r",
                  "type": "uint8"
                }
              ],
              "internalType": "struct SharedStructs.Coordinate",
              "name": "coordinate",
              "type": "tuple"
            },
            {
              "internalType": "enum SharedStructs.Directions",
              "name": "travelDirection",
              "type": "uint8"
            },
            {
              "internalType": "uint8",
              "name": "travelDistance",
              "type": "uint8"
            },
            {
              "internalType": "enum SharedStructs.Directions",
              "name": "shotDirection",
              "type": "uint8"
            },
            {
              "internalType": "uint8",
              "name": "shotDistance",
              "type": "uint8"
            },
            {
              "internalType": "bool",
              "name": "publishedMove",
              "type": "bool"
            },
            {
              "internalType": "address",
              "name": "captain",
              "type": "address"
            },
            {
              "internalType": "uint256",
              "name": "yachtSpeed",
              "type": "uint256"
            },
            {
              "internalType": "uint256",
              "name": "yachtRange",
              "type": "uint256"
            }
          ],
          "internalType": "struct GameWOT.Ship",
          "name": "",
          "type": "tuple"
        }
      ],
      "stateMutability": "nonpayable",
      "type": "function"
    },
    {
      "inputs": [
        {
          "internalType": "uint8",
          "name": "gameId",
          "type": "uint8"
        }
      ],
      "name": "allowSubmitMoves",
      "outputs": [],
      "stateMutability": "nonpayable",
      "type": "function"
    },
    {
      "inputs": [
        {
          "internalType": "uint8",
          "name": "gameId",
          "type": "uint8"
        }
      ],
      "name": "endGame",
      "outputs": [],
      "stateMutability": "nonpayable",
      "type": "function"
    },
    {
      "inputs": [
        {
          "internalType": "uint256",
          "name": "",
          "type": "uint256"
        }
      ],
      "name": "games",
      "outputs": [
        {
          "internalType": "uint256",
          "name": "round",
          "type": "uint256"
        },
        {
          "internalType": "uint8",
          "name": "shrinkNo",
          "type": "uint8"
        },
        {
          "internalType": "bool",
          "name": "gameInProgress",
          "type": "bool"
        },
        {
          "internalType": "bool",
          "name": "stopAddingShips",
          "type": "bool"
        },
        {
          "internalType": "bool",
          "name": "letCommitMoves",
          "type": "bool"
        },
        {
          "internalType": "bool",
          "name": "letSubmitMoves",
          "type": "bool"
        }
      ],
      "stateMutability": "view",
      "type": "function"
    },
    {
      "inputs": [
        {
          "components": [
            {
              "internalType": "uint8",
              "name": "q",
              "type": "uint8"
            },
            {
              "internalType": "uint8",
              "name": "r",
              "type": "uint8"
            }
          ],
          "internalType": "struct SharedStructs.Coordinate",
          "name": "_coord",
          "type": "tuple"
        },
        {
          "internalType": "uint8",
          "name": "gameId",
          "type": "uint8"
        }
      ],
      "name": "getCell",
      "outputs": [
        {
          "components": [
            {
              "internalType": "uint8",
              "name": "q",
              "type": "uint8"
            },
            {
              "internalType": "uint8",
              "name": "r",
              "type": "uint8"
            },
            {
              "internalType": "bool",
              "name": "island",
              "type": "bool"
            },
            {
              "internalType": "bool",
              "name": "exists",
              "type": "bool"
            }
          ],
          "internalType": "struct SharedStructs.Cell",
          "name": "",
          "type": "tuple"
        }
      ],
      "stateMutability": "view",
      "type": "function"
    },
    {
      "inputs": [
        {
          "internalType": "uint8",
          "name": "gameId",
          "type": "uint8"
        }
      ],
      "name": "getCells",
      "outputs": [
        {
          "components": [
            {
              "internalType": "uint8",
              "name": "q",
              "type": "uint8"
            },
            {
              "internalType": "uint8",
              "name": "r",
              "type": "uint8"
            }
          ],
          "internalType": "struct SharedStructs.Coordinate[]",
          "name": "",
          "type": "tuple[]"
        }
      ],
      "stateMutability": "view",
      "type": "function"
    },
    {
      "inputs": [
        {
          "internalType": "uint8",
          "name": "gameId",
          "type": "uint8"
        }
      ],
      "name": "getRadius",
      "outputs": [
        {
          "internalType": "uint8",
          "name": "",
          "type": "uint8"
        }
      ],
      "stateMutability": "view",
      "type": "function"
    },
    {
      "inputs": [
        {
          "internalType": "uint8",
          "name": "gameId",
          "type": "uint8"
        }
      ],
      "name": "getShips",
      "outputs": [
        {
          "components": [
            {
              "components": [
                {
                  "internalType": "uint8",
                  "name": "q",
                  "type": "uint8"
                },
                {
                  "internalType": "uint8",
                  "name": "r",
                  "type": "uint8"
                }
              ],
              "internalType": "struct SharedStructs.Coordinate",
              "name": "coordinate",
              "type": "tuple"
            },
            {
              "internalType": "enum SharedStructs.Directions",
              "name": "travelDirection",
              "type": "uint8"
            },
            {
              "internalType": "uint8",
              "name": "travelDistance",
              "type": "uint8"
            },
            {
              "internalType": "enum SharedStructs.Directions",
              "name": "shotDirection",
              "type": "uint8"
            },
            {
              "internalType": "uint8",
              "name": "shotDistance",
              "type": "uint8"
            },
            {
              "internalType": "bool",
              "name": "publishedMove",
              "type": "bool"
            },
            {
              "internalType": "address",
              "name": "captain",
              "type": "address"
            },
            {
              "internalType": "uint256",
              "name": "yachtSpeed",
              "type": "uint256"
            },
            {
              "internalType": "uint256",
              "name": "yachtRange",
              "type": "uint256"
            }
          ],
          "internalType": "struct GameWOT.Ship[]",
          "name": "",
          "type": "tuple[]"
        }
      ],
      "stateMutability": "view",
      "type": "function"
    },
    {
      "inputs": [
        {
          "internalType": "uint8",
          "name": "_radius",
          "type": "uint8"
        },
        {
          "internalType": "uint8",
          "name": "gameId",
          "type": "uint8"
        }
      ],
      "name": "initGame",
      "outputs": [],
      "stateMutability": "nonpayable",
      "type": "function"
    },
    {
      "inputs": [
        {
          "components": [
            {
              "internalType": "uint8",
              "name": "q",
              "type": "uint8"
            },
            {
              "internalType": "uint8",
              "name": "r",
              "type": "uint8"
            }
          ],
          "internalType": "struct SharedStructs.Coordinate",
          "name": "_start",
          "type": "tuple"
        },
        {
          "internalType": "enum SharedStructs.Directions",
          "name": "_dir",
          "type": "uint8"
        },
        {
          "internalType": "uint8",
          "name": "_distance",
          "type": "uint8"
        },
        {
          "internalType": "uint8",
          "name": "gameId",
          "type": "uint8"
        }
      ],
      "name": "move",
      "outputs": [
        {
          "components": [
            {
              "internalType": "uint8",
              "name": "q",
              "type": "uint8"
            },
            {
              "internalType": "uint8",
              "name": "r",
              "type": "uint8"
            }
          ],
          "internalType": "struct SharedStructs.Coordinate",
          "name": "",
          "type": "tuple"
        }
      ],
      "stateMutability": "view",
      "type": "function"
    },
    {
      "inputs": [],
      "name": "owner",
      "outputs": [
        {
          "internalType": "address",
          "name": "",
          "type": "address"
        }
      ],
      "stateMutability": "view",
      "type": "function"
    },
    {
      "inputs": [],
      "name": "renounceOwnership",
      "outputs": [],
      "stateMutability": "nonpayable",
      "type": "function"
    },
    {
      "inputs": [
        {
          "internalType": "enum SharedStructs.Directions",
          "name": "_travelDirection",
          "type": "uint8"
        },
        {
          "internalType": "uint8",
          "name": "_travelDistance",
          "type": "uint8"
        },
        {
          "internalType": "enum SharedStructs.Directions",
          "name": "_shotDirection",
          "type": "uint8"
        },
        {
          "internalType": "uint8",
          "name": "_shotDistance",
          "type": "uint8"
        },
        {
          "internalType": "uint8",
          "name": "gameId",
          "type": "uint8"
        }
      ],
      "name": "revealMove",
      "outputs": [],
      "stateMutability": "nonpayable",
      "type": "function"
    },
    {
      "inputs": [
        {
          "internalType": "uint8",
          "name": "gameId",
          "type": "uint8"
        }
      ],
      "name": "startNewGame",
      "outputs": [],
      "stateMutability": "nonpayable",
      "type": "function"
    },
    {
      "inputs": [
        {
          "internalType": "address",
          "name": "newOwner",
          "type": "address"
        }
      ],
      "name": "transferOwnership",
      "outputs": [],
      "stateMutability": "nonpayable",
      "type": "function"
    },
    {
      "inputs": [
        {
          "components": [
            {
              "internalType": "uint8",
              "name": "q",
              "type": "uint8"
            },
            {
              "internalType": "uint8",
              "name": "r",
              "type": "uint8"
            }
          ],
          "internalType": "struct SharedStructs.Coordinate",
          "name": "_startCell",
          "type": "tuple"
        },
        {
          "internalType": "enum SharedStructs.Directions",
          "name": "_direction",
          "type": "uint8"
        },
        {
          "internalType": "uint8",
          "name": "_distance",
          "type": "uint8"
        },
        {
          "internalType": "uint8",
          "name": "gameId",
          "type": "uint8"
        }
      ],
      "name": "travel",
      "outputs": [],
      "stateMutability": "nonpayable",
      "type": "function"
    },
    {
      "inputs": [
        {
          "internalType": "uint8",
          "name": "gameId",
          "type": "uint8"
        }
      ],
      "name": "updateWorld",
      "outputs": [],
      "stateMutability": "nonpayable",
      "type": "function"
    }
  ],
  "bytecode": "0x60a06040523480156200001157600080fd5b506040516200471e3803806200471e8339810160408190526200003491620000a1565b6200003f3362000051565b6001600160a01b0316608052620000d3565b600080546001600160a01b038381166001600160a01b0319831681178455604051919092169283917f8be0079c531659141344cd1fd0a4f28419497f9722a3daafe3b4186f6b6457e09190a35050565b600060208284031215620000b457600080fd5b81516001600160a01b0381168114620000cc57600080fd5b9392505050565b6080516145db62000143600039600081816103a0015281816106ad01528181610b5a01528181610de701528181610f710152818161111e015281816112ce015281816113480152818161165701528181611c1a015281816121710152818161310a015261369601526145db6000f3fe608060405234801561001057600080fd5b506004361061010b5760003560e01c8063508236ca116100a25780638da5cb5b116100715780638da5cb5b146102d5578063978ac356146102f0578063d085a86f14610303578063f2fde38b14610323578063fd8704461461033657600080fd5b8063508236ca146102945780636ed296e4146102a7578063715018a6146102ba578063863375ac146102c257600080fd5b806334361208116100de57806334361208146101e75780634998b8fb1461020c5780634aac9b8b1461021f5780634d0238861461023f57600080fd5b8063117a5b90146101105780631cf8a3211461019f5780632923a41f146101b45780632f309686146101c7575b600080fd5b61016161011e366004613bfa565b600160208190526000918252604090912080549181015460049091015460ff91821691818116916101008104821691620100008204811691630100000090041686565b6040805196875260ff909516602087015292151593850193909352151560608401529015156080830152151560a082015260c0015b60405180910390f35b6101b26101ad366004613ce8565b610356565b005b6101b26101c2366004613d41565b610494565b6101da6101d5366004613d5e565b61055f565b6040516101969190613e69565b6101fa6101f5366004613d41565b610b04565b60405160ff9091168152602001610196565b6101b261021a366004613e78565b610bd3565b61023261022d366004613d41565b610d8f565b6040516101969190613ee5565b61025261024d366004613f42565b6110a7565b6040516101969190600060808201905060ff835116825260ff602084015116602083015260408301511515604083015260608301511515606083015292915050565b6101b26102a2366004613f7a565b61119d565b6101b26102b5366004613d41565b6113f0565b6101b2611510565b6101b26102d0366004613d41565b611524565b6000546040516001600160a01b039091168152602001610196565b6101b26102fe366004613d41565b6115b6565b610316610311366004613ce8565b6130a3565b6040516101969190613fa8565b6101b2610331366004613fc6565b61318c565b610349610344366004613d41565b613205565b6040516101969190613fef565b60ff80821660009081526001602081905260409091206004015490911615151461039b5760405162461bcd60e51b81526004016103929061403e565b60405180910390fd5b6000807f00000000000000000000000000000000000000000000000000000000000000006001600160a01b0316631cf8a321878787876040518563ffffffff1660e01b81526004016103f09493929190614075565b606060405180830381865afa15801561040d573d6000803e3d6000fd5b505050506040513d601f19601f820116820180604052508101906104319190614102565b91509150811561044a576104453384613480565b61048c565b805160ff8481166000908152600160209081526040808320338452600201825290912080549185015183166101000261ffff1990921692909316919091171790555b505050505050565b61049c613559565b60ff8082166000908152600160208190526040909120600401549091161515146104d85760405162461bcd60e51b81526004016103929061403e565b60ff8116600090815260016020526040812060048101805463ff0000001916630100000017905580549161050b8361414c565b909155505060ff8116600081815260016020908152604091829020548251938452908301527f8f2926f00686a0050801f0bdb34f506a8467984df7f619eca0dac070da51babc91015b60405180910390a150565b610567613b6d565b60ff8085166000908152600160205260409020600401546101009004161580156105ad575060ff8085166000908152600160208190526040909120600401549091161515145b6105c95760405162461bcd60e51b81526004016103929061403e565b60ff80851660009081526001602090815260408083203384526002019091529020541615801590610620575060ff808516600090815260016020908152604080832033845260020190915290205461010090041615155b1561067e5760ff8481166000908152600160209081526040808320338085526002909101909252918290205491516308538db760e41b8152600481019190915281831660248201526101009091049091166044820152606401610392565b604080518082019091526000808252602082015260005b6040516342c39d9160e01b815260ff871660048201527f00000000000000000000000000000000000000000000000000000000000000006001600160a01b0316906342c39d919060240160408051808303816000875af11580156106fd573d6000803e3d6000fd5b505050506040513d601f19601f820116820180604052508101906107219190614165565b9150610767604051806040016040528060138152602001724e657720726e6420706169722025732c20257360681b815250836000015160ff16846020015160ff166135b3565b60005b60ff80881660009081526001602052604090206003015490821610156109065761080e6040518060400160405280601781526020017f696e206c6f6f702025732c20616464726573733a2025730000000000000000008152508260ff16600160008b60ff1681526020019081526020016000206003018460ff16815481106107f4576107f4614181565b6000918252602090912001546001600160a01b03166135fa565b825160ff888116600090815260016020526040812060038101805494841694600290920193909190861690811061084757610847614181565b60009182526020808320909101546001600160a01b0316835282019290925260400190205460ff161480156108e6575060208084015160ff898116600090815260019093526040832060038101805493831694600290920193919290919086169081106108b6576108b6614181565b60009182526020808320909101546001600160a01b0316835282019290925260400190205460ff61010090910416145b156108f45760019150610906565b806108fe81614197565b91505061076a565b508061069557604080516101208101825283815260006020808301828152838501839052606084018390526080840183905260a084018390523360c0850181905260e085018b90526101008086018b905260ff8d8116865260018086528887209387526002909301855296909420855180518254919095015194881661ffff19909116179390961690930291909117845551838201805493948594909360ff1991909116908360068111156109bd576109bd613d93565b0217905550604082015160018201805460ff9092166101000261ff001983168117825560608501519262ff00001990911662ffff00199091161762010000836006811115610a0d57610a0d613d93565b021790555060808201516001828101805460a086015160c08701516001600160a01b0316650100000000000265010000000000600160c81b03199115156401000000000264ff000000001960ff9788166301000000021664ffff0000001990941693909317929092171617905560e084015160028401556101009093015160039283015589166000818152602084815260408083209094018054958601815582529081902090930180546001600160a01b03191633908117909155915190815290917f3138d9d3c5b626eff736a8d5bf07552d9f568087655c46803ee715f424ec1b8e910160405180910390a29695505050505050565b60ff8082166000908152600160208190526040822060040154919291909116151514610b425760405162461bcd60e51b81526004016103929061403e565b60405163436fadf360e11b815260ff831660048201527f00000000000000000000000000000000000000000000000000000000000000006001600160a01b0316906386df5be690602401602060405180830381865afa158015610ba9573d6000803e3d6000fd5b505050506040513d601f19601f82011682018060405250810190610bcd91906141b6565b92915050565b60ff80821660009081526001602081905260409091206004015463010000009004909116151514610c505760405162461bcd60e51b815260206004820152602160248201527f5375626d6974206d6f76657320686173206e6f742073746172746564207965746044820152602160f81b6064820152608401610392565b60ff808216600090815260016020819052604090912060040154909116151514610c8c5760405162461bcd60e51b81526004016103929061403e565b60ff8116600090815260016020818152604080842033855260020190915290912080820180549192889260ff191690836006811115610ccd57610ccd613d93565b021790555060018101805461ff0019811661010060ff891602908117835586929162ffff00191662ff0000199091161762010000836006811115610d1357610d13613d93565b021790555060018101805464ff000000001960ff86166301000000021664ffff000000199091161764010000000017905560405133907f188e951d9711134151ca8bed640c2d451f586e1e8e1eb16f90539d7e33ce9b7b90610d7f90859060ff91909116815260200190565b60405180910390a2505050505050565b60ff80821660009081526001602081905260409091206004015460609216151514610dcc5760405162461bcd60e51b81526004016103929061403e565b60405163436fadf360e11b815260ff831660048201526000907f00000000000000000000000000000000000000000000000000000000000000006001600160a01b0316906386df5be690602401602060405180830381865afa158015610e36573d6000803e3d6000fd5b505050506040513d601f19601f82011682018060405250810190610e5a91906141b6565b90506000610e698260016141d3565b610e748360036141ec565b610e7e91906141ec565b610e899060016141d3565b60ff16905060008167ffffffffffffffff811115610ea957610ea9613c13565b604051908082528060200260200182016040528015610eee57816020015b6040805180820190915260008082526020820152815260200190600190039081610ec75790505b50905060405180604001604052808460ff1681526020018460ff1681525081600081518110610f1f57610f1f614181565b602090810291909101015260015b8360ff168160ff161161109e57600081610f48600182614208565b610f539060036141ec565b610f5d91906141ec565b610f689060016141d3565b60ff16905060007f00000000000000000000000000000000000000000000000000000000000000006001600160a01b03166339e5c4a085600081518110610fb157610fb1614181565b6020026020010151856040518363ffffffff1660e01b8152600401610fd7929190614221565b600060405180830381865afa158015610ff4573d6000803e3d6000fd5b505050506040513d6000823e601f3d908101601f1916820160405261101c919081019061424f565b905060005b81518160ff16101561108857818160ff168151811061104257611042614181565b6020026020010151858260ff168561105a9190614302565b8151811061106a5761106a614181565b6020026020010181905250808061108090614197565b915050611021565b505050808061109690614197565b915050610f2d565b50949350505050565b60408051608081018252600080825260208201819052918101829052606081019190915260ff8083166000908152600160208190526040909120600401549091161515146111075760405162461bcd60e51b81526004016103929061403e565b6040516326811c4360e11b81526001600160a01b037f00000000000000000000000000000000000000000000000000000000000000001690634d023886906111559086908690600401614221565b608060405180830381865afa158015611172573d6000803e3d6000fd5b505050506040513d601f19601f820116820180604052508101906111969190614315565b9392505050565b6111a5613559565b60ff8082166000908152600160208190526040909120600401549091161515146111e15760405162461bcd60e51b81526004016103929061403e565b60005b60ff821660009081526001602052604090206003015481101561128c5760ff82166000908152600160205260408120600381018054600290920192918490811061123057611230614181565b60009182526020808320909101546001600160a01b031683528201929092526040018120805461ffff191681556001810180546001600160c81b03191690556002810182905560030155806112848161414c565b9150506111e4565b5060ff811660009081526001602052604081206112ae91600390910190613bc8565b604051631a405d8760e31b815260ff8084166004830152821660248201527f00000000000000000000000000000000000000000000000000000000000000006001600160a01b03169063d202ec3890604401600060405180830381600087803b15801561131a57600080fd5b505af115801561132e573d6000803e3d6000fd5b50506040516318068d3760e01b815260ff841660048201527f00000000000000000000000000000000000000000000000000000000000000006001600160a01b031692506318068d379150602401600060405180830381600087803b15801561139657600080fd5b505af11580156113aa573d6000803e3d6000fd5b50506040805160ff8087168252851660208201527fd76a0a97b7d547fef69b0cd90fb02087b761703ae2b5e4e91a99e8fd17e308ad935001905060405180910390a15050565b6113f8613559565b60ff8160ff161061144b5760405162461bcd60e51b815260206004820152601f60248201527f4d6178696d756d206e756d626572206f662067616d65732072656163686564006044820152606401610392565b60ff80821660009081526001602052604090206004015416156114be5760405162461bcd60e51b815260206004820152602560248201527f47616d652077697468207468697320494420616c726561647920696e2070726f604482015264677265737360d81b6064820152608401610392565b60ff8116600081815260016020818152604092839020600401805460ff191690921790915590519182527f13cb55fc1bec4b9f4cd4c22f154240b469cb108a23a35aa599df0c3da46f2d149101610554565b611518613559565b6115226000613641565b565b61152c613559565b60ff8082166000908152600160208190526040909120600401549091161515146115685760405162461bcd60e51b81526004016103929061403e565b60ff8116600081815260016020908152604091829020600401805460ff1916905590519182527f4df34531b3f238bc8f90ad83236d8c752e7444e434bb5fc99f888f0a6345c0e79101610554565b6115be613559565b60ff8082166000908152600160208190526040909120600401549091161515146115fa5760405162461bcd60e51b81526004016103929061403e565b60ff811660009081526001602052604090205461161990600390614396565b6000036119c55760ff81811660008181526001602081905260409182902001549051634affc34f60e01b8152600481019290925290911660248201527f00000000000000000000000000000000000000000000000000000000000000006001600160a01b031690634affc34f90604401600060405180830381600087803b1580156116a357600080fd5b505af11580156116b7573d6000803e3d6000fd5b50505060ff8083166000908152600160208190526040822001805490921692506116e083614197565b91906101000a81548160ff021916908360ff160217905550507fab00852360aeece33bb03176d4e62fbb27adf3fd1a81b9d543c1ae388003b0ac81604051611731919060ff91909116815260200190565b60405180910390a160005b60ff80831660009081526001602052604090206003015490821610156119c35760ff808316600090815260016020526040812060038101805492936002909201928492861690811061179057611790614181565b60009182526020808320909101546001600160a01b03168352828101939093526040918201902081518083019092525460ff8082168352610100909104169181019190915290506117e18184613691565b156119b05760ff8084166000908152600160205260409020600301805461182f92851690811061181357611813614181565b6000918252602090912001546001600160a01b03168385613730565b600160008460ff1681526020019081526020016000206003018260ff168154811061185c5761185c614181565b6000918252602091829020015460405160ff861681526001600160a01b03909116917f7098e36d986448e47b2ec53e41ddd178ac0774637ee2227e84baba39b0c1c7b1910160405180910390a260ff83166000908152600160208190526040909120600301805490916118ce916143b8565b815481106118de576118de614181565b9060005260206000200160009054906101000a90046001600160a01b0316600160008560ff1681526020019081526020016000206003018360ff168154811061192957611929614181565b600091825260208083209190910180546001600160a01b0319166001600160a01b03949094169390931790925560ff85168152600190915260409020600301805480611977576119776143cb565b600082815260209020810160001990810180546001600160a01b031916905501905560ff8216156119b057816119ac816143e1565b9250505b50806119bb81614197565b91505061173c565b505b60ff811660009081526001602052604081206003015467ffffffffffffffff8111156119f3576119f3613c13565b604051908082528060200260200182016040528015611a3857816020015b6040805180820190915260008082526020820152815260200190600190039081611a115790505b5060ff83166000908152600160205260408120600301549192509067ffffffffffffffff811115611a6b57611a6b613c13565b604051908082528060200260200182016040528015611a94578160200160208202803683370190505b50905060005b60ff8085166000908152600160205260409020600301549082161015611af3576001828260ff1681518110611ad157611ad1614181565b9115156020928302919091019091015280611aeb81614197565b915050611a9a565b5060005b60ff80851660009081526001602052604090206003015490821610156121065760ff8085166000908152600160205260408120600381018054929360029092019284928616908110611b4b57611b4b614181565b60009182526020808320909101546001600160a01b03908116845290830193909352604090910190206001015465010000000000900416146120f45760ff80851660009081526001602052604081206003810180546002909201939091908516908110611bba57611bba614181565b60009182526020808320909101546001600160a01b0316835282019290925260400190206001015460ff64010000000090910416156120f45760ff8085166000908152600160205260408120600381018054929384936001600160a01b037f00000000000000000000000000000000000000000000000000000000000000001693631cf8a321936002909101928692908916908110611c5b57611c5b614181565b60009182526020808320909101546001600160a01b03168352828101939093526040918201812060ff808d1683526001909452918120600381018054939460029092019390918a16908110611cb257611cb2614181565b60009182526020808320909101546001600160a01b03168352828101939093526040918201812060019081015460ff8e8116845291909452918120600381018054948416946002909201939091908b16908110611d1157611d11614181565b60009182526020808320909101546001600160a01b0316835282019290925260409081019091206001015490516001600160e01b031960e086901b168152611d6993929160ff61010090910416908c906004016143fe565b606060405180830381865afa158015611d86573d6000803e3d6000fd5b505050506040513d601f19601f82011682018060405250810190611daa9190614102565b915091508115611ea75760ff80871660009081526001602052604090206003018054611dfd928616908110611de157611de1614181565b6000918252602090912001546001600160a01b03168488613730565b6000848460ff1681518110611e1457611e14614181565b602002602001019015159081151581525050600160008760ff1681526020019081526020016000206003018360ff1681548110611e5357611e53614181565b6000918252602091829020015460405160ff891681526001600160a01b03909116917f494269a4463d76858835ca58ce3a5a5d248702029b3d0facbfbaff2423cbeeea910160405180910390a250506120f4565b600160008760ff1681526020019081526020016000206003018360ff1681548110611ed457611ed4614181565b600091825260208083209091015460ff808a1684526001909252604083206003810180546001600160a01b03909316947ff1e9c1d54f160cab3c8602dcfbf5fbe3e012ed037d80057eca695f74d26077a09460029093019390928916908110611f3f57611f3f614181565b60009182526020808320909101546001600160a01b0316835282810193909352604091820181205460ff8c8116835260019094529181206003810180549385169460029092019390918a16908110611f9957611f99614181565b6000918252602080832091909101546001600160a01b03168352828101939093526040918201902054865187840151835160ff96871681526101009093048616948301949094528416818301529183166060830152918a16608082015290519081900360a00190a260ff8087166000908152600160205260408120600381018054859460029093019392881690811061203457612034614181565b60009182526020808320909101546001600160a01b031683528281019390935260409182018120845181549585015160ff9081166101000261ffff19909716918116919091179590951790558984168152600190925290206003018054909185169081106120a4576120a4614181565b6000918252602091829020015460405160ff891681526001600160a01b03909116917f51f35fa2867d710ef60e6209b0ca28b42abd534ed14e1f8394e793f42253c9f6910160405180910390a250505b806120fe81614197565b915050611af7565b5060005b60ff808516600090815260016020526040902060030154908216101561249857818160ff168151811061213f5761213f614181565b6020026020010151156124865760ff808516600090815260016020526040812060038101805492936001600160a01b037f0000000000000000000000000000000000000000000000000000000000000000169363d6192ad39360020192869290919088169081106121b2576121b2614181565b60009182526020808320909101546001600160a01b03168352828101939093526040918201812060ff808c168352600190945291812060038101805493946002909201939091891690811061220957612209614181565b60009182526020808320909101546001600160a01b03168352828101939093526040918201812060019081015460ff8d811684529190945291812060038101805462010000909504841694600292909201939091908a1690811061226f5761226f614181565b60009182526020808320909101546001600160a01b0316835282019290925260409081019091206001015490516001600160e01b031960e086901b1681526122c793929160ff6301000000909104169060040161441c565b6040805180830381865afa1580156122e3573d6000803e3d6000fd5b505050506040513d601f19601f820116820180604052508101906123079190614165565b905080848360ff168151811061231f5761231f614181565b6020026020010181905250600160008660ff1681526020019081526020016000206003018260ff168154811061235757612357614181565b600091825260208083209091015460ff80891684526001909252604083206003810180546001600160a01b03909316947f78546d5ff977d70d771d8edba5bdd99150ec97e7837d6e2af4384b1605a4372d94600290930193909288169081106123c2576123c2614181565b60009182526020808320909101546001600160a01b0316835282810193909352604091820181205460ff8b811683526001909452918120600381018054938516946002909201939091891690811061241c5761241c614181565b6000918252602080832091909101546001600160a01b03168352828101939093526040918201902054865187840151835160ff96871681526101009093048616948301949094528416818301529183166060830152918916608082015290519081900360a00190a2505b8061249081614197565b91505061210a565b5060005b60ff8085166000908152600160205260409020600301549082161015612ae05760005b60ff8086166000908152600160205260409020600301549082161015612acd578060ff168260ff1614612abb57828260ff168151811061250157612501614181565b6020026020010151801561252e5750828160ff168151811061252557612525614181565b60200260200101515b80156125ec575060ff8086166000908152600160205260408120600381018054600290920193909190861690811061256857612568614181565b60009182526020808320909101546001600160a01b0316835282810193909352604091820181205460ff8981168352600190945291812060038101805493851694600290920193909186169081106125c2576125c2614181565b60009182526020808320909101546001600160a01b0316835282019290925260400190205460ff16145b80156126b5575060ff8086166000908152600160205260408120600381018054600290920193909190861690811061262657612626614181565b60009182526020808320909101546001600160a01b0316835282810193909352604091820181205460ff898116835260019094529181206003810180546101009094048516946002909201939091861690811061268557612685614181565b60009182526020808320909101546001600160a01b0316835282019290925260400190205460ff61010090910416145b15612891576000838360ff16815181106126d1576126d1614181565b6020026020010190151590811515815250506000838260ff16815181106126fa576126fa614181565b91151560209283029190910182015260ff808716600090815260019092526040909120600301805461275392851690811061273757612737614181565b6000918252602090912001546001600160a01b03168387613730565b60ff8086166000908152600160205260409020600301805461279c92841690811061278057612780614181565b6000918252602090912001546001600160a01b03168287613730565b600160008660ff1681526020019081526020016000206003018260ff16815481106127c9576127c9614181565b6000918252602091829020015460405160ff881681526001600160a01b03909116917f783de3ac95b82563b70ac74b3a843e5f9f71a653b9518e6e1762b39151c0f710910160405180910390a2600160008660ff1681526020019081526020016000206003018160ff168154811061284357612843614181565b6000918252602091829020015460405160ff881681526001600160a01b03909116917f783de3ac95b82563b70ac74b3a843e5f9f71a653b9518e6e1762b39151c0f710910160405180910390a25b828260ff16815181106128a6576128a6614181565b6020026020010151801561293a575060ff808616600090815260016020526040812060038101805460029092019390919086169081106128e8576128e8614181565b60009182526020808320909101546001600160a01b03168352820192909252604001902054845160ff91821691869190841690811061292957612929614181565b60200260200101516000015160ff16145b80156129cb575060ff8086166000908152600160205260408120600381018054600290920193909190861690811061297457612974614181565b60009182526020808320909101546001600160a01b03168352820192909252604001902054845160ff61010090920482169186919084169081106129ba576129ba614181565b60200260200101516020015160ff16145b15612abb5760ff808616600090815260016020526040902060030180546129fd92851690811061273757612737614181565b600160008660ff1681526020019081526020016000206003018160ff1681548110612a2a57612a2a614181565b600091825260208083209091015460ff80891684526001909252604090922060030180546001600160a01b039093169290918516908110612a6d57612a6d614181565b6000918252602091829020015460405160ff891681526001600160a01b03909116917fb2ee3834f34c038f7f34d57f8ce213e4ee56fecd33556013e0f66b1e32ee14bc910160405180910390a35b80612ac581614197565b9150506124bf565b5080612ad881614197565b91505061249c565b5060005b60ff8085166000908152600160205260409020600301549082161015612c6f5760006001600160a01b0316600160008660ff1681526020019081526020016000206003018260ff1681548110612b3c57612b3c614181565b6000918252602090912001546001600160a01b031603612c5d5760ff8416600090815260016020819052604090912060030180549091612b7b916143b8565b81548110612b8b57612b8b614181565b9060005260206000200160009054906101000a90046001600160a01b0316600160008660ff1681526020019081526020016000206003018260ff1681548110612bd657612bd6614181565b600091825260208083209190910180546001600160a01b0319166001600160a01b03949094169390931790925560ff86168152600190915260409020600301805480612c2457612c246143cb565b600082815260209020810160001990810180546001600160a01b031916905501905560ff811615612c5d5780612c59816143e1565b9150505b80612c6781614197565b915050612ae4565b5060ff83166000908152600160205260408120600301549003612d0c5760408051818152600991810191909152682737903bb4b73732b960b91b606082015260ff841660208201527f2a2b855776dd74dd196de365fd3f6c12922ded89e822675748740822b4527f24906080015b60405180910390a160ff83166000908152600160205260409020600401805461ff001916610100179055613068565b60ff83166000908152600160208190526040909120600301549003612dbb5760ff8316600090815260016020526040812060030180547f2a2b855776dd74dd196de365fd3f6c12922ded89e822675748740822b4527f2492612d8f9291612d7557612d75614181565b6000918252602090912001546001600160a01b03166138bc565b604051602001612d9f9190614478565b60408051601f1981840301815290829052612cdd9186906144e0565b60ff831660009081526001602052604081206003018054909190612de157612de1614181565b60009182526020808320919091015460405160ff871681526001600160a01b0390911692917f2cee3725d64bc62c413fa35348815210ff376bf4f13627d82b6ac0d0efc6e8cd910160405180910390a360005b60ff80851660009081526001602052604090206003015490821610156130465760ff8085166000908152600160205260408120600381018054600694600290930193928616908110612e8857612e88614181565b60009182526020808320909101546001600160a01b03168352820192909252604001902060019081018054909160ff1990911690836006811115612ece57612ece613d93565b021790555060ff8085166000908152600160205260408120600381018054929360029092019284928616908110612f0757612f07614181565b6000918252602080832091909101546001600160a01b0316835282810193909352604091820181206001908101805461ff00191661010060ff9788160217905588851682529092528120600381018054600694600290930193928616908110612f7257612f72614181565b60009182526020808320909101546001600160a01b031683528201929092526040019020600101805462ff0000191662010000836006811115612fb757612fb7613d93565b021790555060ff8085166000908152600160205260408120600381018054929360029092019284928616908110612ff057612ff0614181565b60009182526020808320909101546001600160a01b031683528201929092526040019020600101805460ff9290921663010000000263ff000000199092169190911790558061303e81614197565b915050612e34565b5060ff83166000908152600160205260409020600401805463ff000000191690555b60405160ff841681527fd44344392ee117b90bc172ab74cce9c43a862f0d5e11a336b3885fde466c244e9060200160405180910390a1505050565b604080518082019091526000808252602082015260ff8083166000908152600160208190526040909120600401549091161515146130f35760405162461bcd60e51b81526004016103929061403e565b604051630d42527560e11b81526001600160a01b037f00000000000000000000000000000000000000000000000000000000000000001690631a84a4ea9061314390889088908890600401614505565b6040805180830381865afa15801561315f573d6000803e3d6000fd5b505050506040513d601f19601f820116820180604052508101906131839190614165565b95945050505050565b613194613559565b6001600160a01b0381166131f95760405162461bcd60e51b815260206004820152602660248201527f4f776e61626c653a206e6577206f776e657220697320746865207a65726f206160448201526564647265737360d01b6064820152608401610392565b61320281613641565b50565b60ff808216600090815260016020819052604090912060040154606092161515146132425760405162461bcd60e51b81526004016103929061403e565b60ff821660009081526001602052604081206003015467ffffffffffffffff81111561327057613270613c13565b6040519080825280602002602001820160405280156132a957816020015b613296613b6d565b81526020019060019003908161328e5790505b5090506132dd6040518060400160405280601081526020016f52657472696576696e6720736869707360801b8152506138f4565b60005b60ff84166000908152600160205260409020600301548110156134795760ff84166000908152600160205260408120600381018054600290920192918490811061332c5761332c614181565b60009182526020808320909101546001600160a01b03168352828101939093526040918201902081516101608101909252805460ff808216610120850190815261010090920481166101408501529083526001820154929391929184019116600681111561339c5761339c613d93565b60068111156133ad576133ad613d93565b8152600182015460ff610100820481166020840152604090920191620100009091041660068111156133e1576133e1613d93565b60068111156133f2576133f2613d93565b8152600182015460ff6301000000820481166020840152640100000000820416151560408301526001600160a01b03650100000000009091041660608201526002820154608082015260039091015460a090910152825183908390811061345b5761345b614181565b602002602001018190525080806134719061414c565b9150506132e0565b5092915050565b60ff8082166000908152600160208190526040909120600401549091161515146134bc5760405162461bcd60e51b81526004016103929061403e565b6000805b60ff80841660009081526001602052604090206003015490821610156135485760ff808416600090815260016020526040902060030180546001600160a01b03871692841690811061351457613514614181565b6000918252602090912001546001600160a01b03160361353657809150613548565b8061354081614197565b9150506134c0565b50613554838284613730565b505050565b6000546001600160a01b031633146115225760405162461bcd60e51b815260206004820181905260248201527f4f776e61626c653a2063616c6c6572206973206e6f7420746865206f776e65726044820152606401610392565b6135548383836040516024016135cb93929190614523565b60408051601f198184030181529190526020810180516001600160e01b031663ca47c4eb60e01b179052613933565b61355483838360405160240161361293929190614548565b60408051601f198184030181529190526020810180516001600160e01b031663038fd88960e31b179052613933565b600080546001600160a01b038381166001600160a01b0319831681178455604051919092169283917f8be0079c531659141344cd1fd0a4f28419497f9722a3daafe3b4186f6b6457e09190a35050565b6000807f00000000000000000000000000000000000000000000000000000000000000006001600160a01b0316634d02388685856040518363ffffffff1660e01b81526004016136e2929190614221565b608060405180830381865afa1580156136ff573d6000803e3d6000fd5b505050506040513d601f19601f820116820180604052508101906137239190614315565b6060015115949350505050565b60ff808216600090815260016020526040902060030154908316106137975760405162461bcd60e51b815260206004820152601860248201527f496e6465782076616c7565206f7574206f662072616e676500000000000000006044820152606401610392565b60ff8082166000908152600160208190526040909120600401549091161515146137d35760405162461bcd60e51b81526004016103929061403e565b60405160ff821681526001600160a01b038416907fabe2a4edb03972506a4064b683e5482b1f09f2fb96bd4463b7b15b38cbd5b1869060200160405180910390a260ff80821660008181526001602081815260408084206001600160a01b038a16855260028082018452918520805461ffff1916815580850180546001600160c81b0319169055918201859055600391820185905594845291905290910180549192909190851690811061388957613889614181565b9060005260206000200160006101000a8154816001600160a01b0302191690836001600160a01b03160217905550505050565b604051606082811b6bffffffffffffffffffffffff1916602083015290610bcd90603401604051602081830303815290604052613954565b61320281604051602401613908919061457b565b60408051601f198184030181529190526020810180516001600160e01b031663104c13eb60e21b1790525b80516a636f6e736f6c652e6c6f67602083016000808483855afa5050505050565b60408051808201909152601081526f181899199a1a9b1b9c1cb0b131b232b360811b602082015281516060919060009061398f90600261458e565b61399a906002614302565b67ffffffffffffffff8111156139b2576139b2613c13565b6040519080825280601f01601f1916602001820160405280156139dc576020820181803683370190505b509050600360fc1b816000815181106139f7576139f7614181565b60200101906001600160f81b031916908160001a905350600f60fb1b81600181518110613a2657613a26614181565b60200101906001600160f81b031916908160001a90535060005b8451811015613b6557826004868381518110613a5e57613a5e614181565b016020015182516001600160f81b031990911690911c60f81c908110613a8657613a86614181565b01602001516001600160f81b03191682613aa183600261458e565b613aac906002614302565b81518110613abc57613abc614181565b60200101906001600160f81b031916908160001a90535082858281518110613ae657613ae6614181565b602091010151815160f89190911c600f16908110613b0657613b06614181565b01602001516001600160f81b03191682613b2183600261458e565b613b2c906003614302565b81518110613b3c57613b3c614181565b60200101906001600160f81b031916908160001a90535080613b5d8161414c565b915050613a40565b509392505050565b6040805161016081018252600061012082018181526101408301829052825260208201819052918101829052606081018290526080810182905260a0810182905260c0810182905260e0810182905261010081019190915290565b508054600082559060005260206000209081019061320291905b80821115613bf65760008155600101613be2565b5090565b600060208284031215613c0c57600080fd5b5035919050565b634e487b7160e01b600052604160045260246000fd5b6040805190810167ffffffffffffffff81118282101715613c4c57613c4c613c13565b60405290565b604051601f8201601f1916810167ffffffffffffffff81118282101715613c7b57613c7b613c13565b604052919050565b60ff8116811461320257600080fd5b600060408284031215613ca457600080fd5b613cac613c29565b90508135613cb981613c83565b81526020820135613cc981613c83565b602082015292915050565b803560078110613ce357600080fd5b919050565b60008060008060a08587031215613cfe57600080fd5b613d088686613c92565b9350613d1660408601613cd4565b92506060850135613d2681613c83565b91506080850135613d3681613c83565b939692955090935050565b600060208284031215613d5357600080fd5b813561119681613c83565b600080600060608486031215613d7357600080fd5b8335613d7e81613c83565b95602085013595506040909401359392505050565b634e487b7160e01b600052602160045260246000fd5b60078110613dc757634e487b7160e01b600052602160045260246000fd5b9052565b613de6828251805160ff908116835260209182015116910152565b6020810151613df86040840182613da9565b5060ff60408201511660608301526060810151613e186080840182613da9565b5060ff60808201511660a083015260a0810151613e3960c084018215159052565b5060c08101516001600160a01b03811660e08401525060e081015161010083810191909152015161012090910152565b6101408101610bcd8284613dcb565b600080600080600060a08688031215613e9057600080fd5b613e9986613cd4565b94506020860135613ea981613c83565b9350613eb760408701613cd4565b92506060860135613ec781613c83565b91506080860135613ed781613c83565b809150509295509295909350565b602080825282518282018190526000919060409081850190868401855b82811015613f3557613f25848351805160ff908116835260209182015116910152565b9284019290850190600101613f02565b5091979650505050505050565b60008060608385031215613f5557600080fd5b613f5f8484613c92565b91506040830135613f6f81613c83565b809150509250929050565b60008060408385031215613f8d57600080fd5b8235613f9881613c83565b91506020830135613f6f81613c83565b60408101610bcd8284805160ff908116835260209182015116910152565b600060208284031215613fd857600080fd5b81356001600160a01b038116811461119657600080fd5b6020808252825182820181905260009190848201906040850190845b818110156140325761401e838551613dcb565b92840192610140929092019160010161400b565b50909695505050505050565b60208082526019908201527f47616d6520686173206e6f742073746172746564207965742100000000000000604082015260600190565b60a081016140938287805160ff908116835260209182015116910152565b6140a06040830186613da9565b60ff8416606083015260ff8316608083015295945050505050565b80518015158114613ce357600080fd5b6000604082840312156140dd57600080fd5b6140e5613c29565b905081516140f281613c83565b81526020820151613cc981613c83565b6000806060838503121561411557600080fd5b61411e836140bb565b915061412d84602085016140cb565b90509250929050565b634e487b7160e01b600052601160045260246000fd5b60006001820161415e5761415e614136565b5060010190565b60006040828403121561417757600080fd5b61119683836140cb565b634e487b7160e01b600052603260045260246000fd5b600060ff821660ff81036141ad576141ad614136565b60010192915050565b6000602082840312156141c857600080fd5b815161119681613c83565b60ff8181168382160190811115610bcd57610bcd614136565b60ff818116838216029081169081811461347957613479614136565b60ff8281168282160390811115610bcd57610bcd614136565b6060810161423f8285805160ff908116835260209182015116910152565b60ff831660408301529392505050565b6000602080838503121561426257600080fd5b825167ffffffffffffffff8082111561427a57600080fd5b818501915085601f83011261428e57600080fd5b8151818111156142a0576142a0613c13565b6142ae848260051b01613c52565b818152848101925060069190911b8301840190878211156142ce57600080fd5b928401925b818410156142f7576142e588856140cb565b835284830192506040840193506142d3565b979650505050505050565b80820180821115610bcd57610bcd614136565b60006080828403121561432757600080fd5b6040516080810181811067ffffffffffffffff8211171561434a5761434a613c13565b604052825161435881613c83565b8152602083015161436881613c83565b6020820152614379604084016140bb565b604082015261438a606084016140bb565b60608201529392505050565b6000826143b357634e487b7160e01b600052601260045260246000fd5b500690565b81810381811115610bcd57610bcd614136565b634e487b7160e01b600052603160045260246000fd5b600060ff8216806143f4576143f4614136565b6000190192915050565b845460ff808216835260089190911c16602082015260a08101614093565b835460ff808216835260089190911c166020820152608081015b6144436040830185613da9565b60ff83166060830152949350505050565b60005b8381101561446f578181015183820152602001614457565b50506000910152565b7302a34329023b0b6b2903bb4b73732b91034b99d160651b8152600082516144a7816014850160208701614454565b9190910160140192915050565b600081518084526144cc816020860160208601614454565b601f01601f19169290920160200192915050565b6040815260006144f360408301856144b4565b905060ff831660208301529392505050565b608081016144368286805160ff908116835260209182015116910152565b60608152600061453660608301866144b4565b60208301949094525060400152919050565b60608152600061455b60608301866144b4565b6020830194909452506001600160a01b0391909116604090910152919050565b60208152600061119660208301846144b4565b8082028115828204841417610bcd57610bcd61413656fea26469706673582212208a169e1b437055a88544c8422e2796fa4422e9aa8f99d460431aad869e2ecf6e64736f6c63430008120033",
  "linkReferences": {},
  "deployedLinkReferences": {}
}