{
  "_format": "hh-sol-artifact-1",
  "contractName": "Game",
  "sourceName": "contracts/Game.sol",
  "abi": [
    {
      "inputs": [
        {
          "internalType": "address",
          "name": "_mapAddress",
          "type": "address"
        }
      ],
      "stateMutability": "nonpayable",
      "type": "constructor"
    },
    {
      "inputs": [
        {
          "internalType": "address",
          "name": "player",
          "type": "address"
        },
        {
          "internalType": "uint8",
          "name": "q",
          "type": "uint8"
        },
        {
          "internalType": "uint8",
          "name": "r",
          "type": "uint8"
        }
      ],
      "name": "ShipAlreadyAdded",
      "type": "error"
    },
    {
      "anonymous": false,
      "inputs": [
        {
          "indexed": false,
          "internalType": "bool",
          "name": "gameStatus",
          "type": "bool"
        },
        {
          "indexed": false,
          "internalType": "address",
          "name": "winnerAddress",
          "type": "address"
        }
      ],
      "name": "GameUpdated",
      "type": "event"
    },
    {
      "anonymous": false,
      "inputs": [
        {
          "indexed": true,
          "internalType": "address",
          "name": "player",
          "type": "address"
        }
      ],
      "name": "PlayerAdded",
      "type": "event"
    },
    {
      "anonymous": false,
      "inputs": [
        {
          "indexed": true,
          "internalType": "address",
          "name": "player",
          "type": "address"
        }
      ],
      "name": "PlayerDefeated",
      "type": "event"
    },
    {
      "inputs": [],
      "name": "addShip",
      "outputs": [
        {
          "components": [
            {
              "components": [
                {
                  "internalType": "uint8",
                  "name": "q",
                  "type": "uint8"
                },
                {
                  "internalType": "uint8",
                  "name": "r",
                  "type": "uint8"
                }
              ],
              "internalType": "struct SharedStructs.Coordinate",
              "name": "coordinate",
              "type": "tuple"
            },
            {
              "internalType": "enum SharedStructs.Directions",
              "name": "travelDirection",
              "type": "uint8"
            },
            {
              "internalType": "uint8",
              "name": "travelDistance",
              "type": "uint8"
            },
            {
              "internalType": "enum SharedStructs.Directions",
              "name": "shotDirection",
              "type": "uint8"
            },
            {
              "internalType": "uint8",
              "name": "shotDistance",
              "type": "uint8"
            },
            {
              "internalType": "bool",
              "name": "publishedMove",
              "type": "bool"
            },
            {
              "internalType": "address",
              "name": "captain",
              "type": "address"
            }
          ],
          "internalType": "struct Game.Ship",
          "name": "",
          "type": "tuple"
        }
      ],
      "stateMutability": "nonpayable",
      "type": "function"
    },
    {
      "inputs": [],
      "name": "gameInProgress",
      "outputs": [
        {
          "internalType": "bool",
          "name": "",
          "type": "bool"
        }
      ],
      "stateMutability": "view",
      "type": "function"
    },
    {
      "inputs": [
        {
          "components": [
            {
              "internalType": "uint8",
              "name": "q",
              "type": "uint8"
            },
            {
              "internalType": "uint8",
              "name": "r",
              "type": "uint8"
            }
          ],
          "internalType": "struct SharedStructs.Coordinate",
          "name": "_coord",
          "type": "tuple"
        }
      ],
      "name": "getCell",
      "outputs": [
        {
          "components": [
            {
              "internalType": "uint8",
              "name": "q",
              "type": "uint8"
            },
            {
              "internalType": "uint8",
              "name": "r",
              "type": "uint8"
            },
            {
              "internalType": "bool",
              "name": "island",
              "type": "bool"
            },
            {
              "internalType": "bool",
              "name": "exists",
              "type": "bool"
            }
          ],
          "internalType": "struct SharedStructs.Cell",
          "name": "",
          "type": "tuple"
        }
      ],
      "stateMutability": "view",
      "type": "function"
    },
    {
      "inputs": [],
      "name": "getCells",
      "outputs": [
        {
          "components": [
            {
              "internalType": "uint8",
              "name": "q",
              "type": "uint8"
            },
            {
              "internalType": "uint8",
              "name": "r",
              "type": "uint8"
            }
          ],
          "internalType": "struct SharedStructs.Coordinate[]",
          "name": "",
          "type": "tuple[]"
        }
      ],
      "stateMutability": "view",
      "type": "function"
    },
    {
      "inputs": [
        {
          "internalType": "address",
          "name": "_player",
          "type": "address"
        }
      ],
      "name": "getPlayerMove",
      "outputs": [
        {
          "internalType": "enum SharedStructs.Directions",
          "name": "",
          "type": "uint8"
        },
        {
          "internalType": "uint8",
          "name": "",
          "type": "uint8"
        },
        {
          "internalType": "enum SharedStructs.Directions",
          "name": "",
          "type": "uint8"
        },
        {
          "internalType": "uint8",
          "name": "",
          "type": "uint8"
        }
      ],
      "stateMutability": "view",
      "type": "function"
    },
    {
      "inputs": [],
      "name": "getRadius",
      "outputs": [
        {
          "internalType": "uint8",
          "name": "",
          "type": "uint8"
        }
      ],
      "stateMutability": "view",
      "type": "function"
    },
    {
      "inputs": [],
      "name": "getShips",
      "outputs": [
        {
          "components": [
            {
              "components": [
                {
                  "internalType": "uint8",
                  "name": "q",
                  "type": "uint8"
                },
                {
                  "internalType": "uint8",
                  "name": "r",
                  "type": "uint8"
                }
              ],
              "internalType": "struct SharedStructs.Coordinate",
              "name": "coordinate",
              "type": "tuple"
            },
            {
              "internalType": "enum SharedStructs.Directions",
              "name": "travelDirection",
              "type": "uint8"
            },
            {
              "internalType": "uint8",
              "name": "travelDistance",
              "type": "uint8"
            },
            {
              "internalType": "enum SharedStructs.Directions",
              "name": "shotDirection",
              "type": "uint8"
            },
            {
              "internalType": "uint8",
              "name": "shotDistance",
              "type": "uint8"
            },
            {
              "internalType": "bool",
              "name": "publishedMove",
              "type": "bool"
            },
            {
              "internalType": "address",
              "name": "captain",
              "type": "address"
            }
          ],
          "internalType": "struct Game.Ship[]",
          "name": "",
          "type": "tuple[]"
        }
      ],
      "stateMutability": "view",
      "type": "function"
    },
    {
      "inputs": [
        {
          "internalType": "uint8",
          "name": "_radius",
          "type": "uint8"
        }
      ],
      "name": "initGame",
      "outputs": [],
      "stateMutability": "nonpayable",
      "type": "function"
    },
    {
      "inputs": [
        {
          "components": [
            {
              "internalType": "uint8",
              "name": "q",
              "type": "uint8"
            },
            {
              "internalType": "uint8",
              "name": "r",
              "type": "uint8"
            }
          ],
          "internalType": "struct SharedStructs.Coordinate",
          "name": "_start",
          "type": "tuple"
        },
        {
          "internalType": "enum SharedStructs.Directions",
          "name": "_dir",
          "type": "uint8"
        },
        {
          "internalType": "uint8",
          "name": "_distance",
          "type": "uint8"
        }
      ],
      "name": "move",
      "outputs": [
        {
          "components": [
            {
              "internalType": "uint8",
              "name": "q",
              "type": "uint8"
            },
            {
              "internalType": "uint8",
              "name": "r",
              "type": "uint8"
            }
          ],
          "internalType": "struct SharedStructs.Coordinate",
          "name": "",
          "type": "tuple"
        }
      ],
      "stateMutability": "view",
      "type": "function"
    },
    {
      "inputs": [
        {
          "internalType": "uint256",
          "name": "",
          "type": "uint256"
        }
      ],
      "name": "players",
      "outputs": [
        {
          "internalType": "address",
          "name": "",
          "type": "address"
        }
      ],
      "stateMutability": "view",
      "type": "function"
    },
    {
      "inputs": [
        {
          "internalType": "enum SharedStructs.Directions",
          "name": "travelDir",
          "type": "uint8"
        },
        {
          "internalType": "uint8",
          "name": "travelDist",
          "type": "uint8"
        },
        {
          "internalType": "enum SharedStructs.Directions",
          "name": "shotDir",
          "type": "uint8"
        },
        {
          "internalType": "uint8",
          "name": "shotDist",
          "type": "uint8"
        }
      ],
      "name": "revealMove",
      "outputs": [],
      "stateMutability": "nonpayable",
      "type": "function"
    },
    {
      "inputs": [],
      "name": "round",
      "outputs": [
        {
          "internalType": "uint256",
          "name": "",
          "type": "uint256"
        }
      ],
      "stateMutability": "view",
      "type": "function"
    },
    {
      "inputs": [
        {
          "internalType": "address",
          "name": "",
          "type": "address"
        }
      ],
      "name": "ships",
      "outputs": [
        {
          "components": [
            {
              "internalType": "uint8",
              "name": "q",
              "type": "uint8"
            },
            {
              "internalType": "uint8",
              "name": "r",
              "type": "uint8"
            }
          ],
          "internalType": "struct SharedStructs.Coordinate",
          "name": "coordinate",
          "type": "tuple"
        },
        {
          "internalType": "enum SharedStructs.Directions",
          "name": "travelDirection",
          "type": "uint8"
        },
        {
          "internalType": "uint8",
          "name": "travelDistance",
          "type": "uint8"
        },
        {
          "internalType": "enum SharedStructs.Directions",
          "name": "shotDirection",
          "type": "uint8"
        },
        {
          "internalType": "uint8",
          "name": "shotDistance",
          "type": "uint8"
        },
        {
          "internalType": "bool",
          "name": "publishedMove",
          "type": "bool"
        },
        {
          "internalType": "address",
          "name": "captain",
          "type": "address"
        }
      ],
      "stateMutability": "view",
      "type": "function"
    },
    {
      "inputs": [
        {
          "internalType": "enum SharedStructs.Directions",
          "name": "_travelDirection",
          "type": "uint8"
        },
        {
          "internalType": "uint8",
          "name": "_travelDistance",
          "type": "uint8"
        },
        {
          "internalType": "enum SharedStructs.Directions",
          "name": "_shotDirection",
          "type": "uint8"
        },
        {
          "internalType": "uint8",
          "name": "_shotDistance",
          "type": "uint8"
        }
      ],
      "name": "submitMove",
      "outputs": [],
      "stateMutability": "nonpayable",
      "type": "function"
    },
    {
      "inputs": [
        {
          "components": [
            {
              "internalType": "uint8",
              "name": "q",
              "type": "uint8"
            },
            {
              "internalType": "uint8",
              "name": "r",
              "type": "uint8"
            }
          ],
          "internalType": "struct SharedStructs.Coordinate",
          "name": "_startCell",
          "type": "tuple"
        },
        {
          "internalType": "enum SharedStructs.Directions",
          "name": "_direction",
          "type": "uint8"
        },
        {
          "internalType": "uint8",
          "name": "_distance",
          "type": "uint8"
        }
      ],
      "name": "travel",
      "outputs": [],
      "stateMutability": "nonpayable",
      "type": "function"
    },
    {
      "inputs": [],
      "name": "updateWorld",
      "outputs": [
        {
          "internalType": "bool",
          "name": "",
          "type": "bool"
        },
        {
          "internalType": "address",
          "name": "",
          "type": "address"
        }
      ],
      "stateMutability": "nonpayable",
      "type": "function"
    }
  ],
  "bytecode": "0x60a06040523480156200001157600080fd5b50604051620040d1380380620040d18339818101604052810190620000379190620000dc565b8073ffffffffffffffffffffffffffffffffffffffff1660808173ffffffffffffffffffffffffffffffffffffffff1681525050506200010e565b600080fd5b600073ffffffffffffffffffffffffffffffffffffffff82169050919050565b6000620000a48262000077565b9050919050565b620000b68162000097565b8114620000c257600080fd5b50565b600081519050620000d681620000ab565b92915050565b600060208284031215620000f557620000f462000072565b5b60006200010584828501620000c5565b91505092915050565b608051613f6162000170600039600081816104af0152818161053a015281816105e601528181610690015281816108370152818161098901528181610e030152818161132e01528181611c8301528181611f2101526125dd0152613f616000f3fe608060405234801561001057600080fd5b50600436106101005760003560e01c806396ace1bb11610097578063e474af2c11610066578063e474af2c146102ba578063eaea26af146102d6578063ecba2dd7146102f5578063f71d96cb1461031157610100565b806396ace1bb1461022f578063b6c6c7621461024d578063bd21d0fa14610280578063bd85f8611461029c57610100565b80633ac245d9116100d35780633ac245d91461018d5780633fb64e75146101bd57806348ccd3d7146101db5780636738f2341461021157610100565b80630452aa7514610105578063146ca531146101215780631a84a4ea1461013f578063374aed971461016f575b600080fd5b61011f600480360381019061011a9190612e33565b610341565b005b6101296105d6565b6040516101369190612e79565b60405180910390f35b61015960048036038101906101549190612f9a565b6105dc565b604051610166919061302b565b60405180910390f35b61017761068a565b6040516101849190613124565b60405180910390f35b6101a760048036038101906101a29190613146565b61097f565b6040516101b491906131e3565b60405180910390f35b6101c5610a28565b6040516101d2919061320d565b60405180910390f35b6101f560048036038101906101f09190613286565b610a3b565b6040516102089796959493929190613348565b60405180910390f35b610219610b22565b6040516102269190613515565b60405180910390f35b610237610dff565b6040516102449190613537565b60405180910390f35b61026760048036038101906102629190613286565b610e95565b6040516102779493929190613552565b60405180910390f35b61029a60048036038101906102959190613597565b61107c565b005b6102a4611175565b6040516102b1919061368d565b60405180910390f35b6102d460048036038101906102cf9190613597565b61192e565b005b6102de611b18565b6040516102ec9291906136a9565b60405180910390f35b61030f600480360381019061030a9190612f9a565b6125d8565b005b61032b600480360381019061032691906136fe565b61275d565b604051610338919061372b565b60405180910390f35b60005b60028054905081101561049e57600160006002838154811061036957610368613746565b5b9060005260206000200160009054906101000a900473ffffffffffffffffffffffffffffffffffffffff1673ffffffffffffffffffffffffffffffffffffffff1673ffffffffffffffffffffffffffffffffffffffff1681526020019081526020016000206000808201600080820160006101000a81549060ff02191690556000820160016101000a81549060ff021916905550506001820160006101000a81549060ff02191690556001820160016101000a81549060ff02191690556001820160026101000a81549060ff02191690556001820160036101000a81549060ff02191690556001820160046101000a81549060ff02191690556001820160056101000a81549073ffffffffffffffffffffffffffffffffffffffff021916905550508080610496906137a4565b915050610344565b50600260006104ad9190612cd1565b7f000000000000000000000000000000000000000000000000000000000000000073ffffffffffffffffffffffffffffffffffffffff1663669636e2826040518263ffffffff1660e01b81526004016105069190613537565b600060405180830381600087803b15801561052057600080fd5b505af1158015610534573d6000803e3d6000fd5b505050507f000000000000000000000000000000000000000000000000000000000000000073ffffffffffffffffffffffffffffffffffffffff1663949996886040518163ffffffff1660e01b8152600401600060405180830381600087803b1580156105a057600080fd5b505af11580156105b4573d6000803e3d6000fd5b505050506001600360006101000a81548160ff02191690831515021790555050565b60005481565b6105e4612cf2565b7f000000000000000000000000000000000000000000000000000000000000000073ffffffffffffffffffffffffffffffffffffffff16631a84a4ea8585856040518463ffffffff1660e01b8152600401610641939291906137ec565b6040805180830381865afa15801561065d573d6000803e3d6000fd5b505050506040513d601f19601f820116820180604052508101906106819190613888565b90509392505050565b606060007f000000000000000000000000000000000000000000000000000000000000000073ffffffffffffffffffffffffffffffffffffffff1663217f43536040518163ffffffff1660e01b8152600401602060405180830381865afa1580156106f9573d6000803e3d6000fd5b505050506040513d601f19601f8201168201806040525081019061071d91906138b5565b9050600060018261072e91906138e2565b82600361073b9190613917565b6107459190613917565b600161075191906138e2565b60ff16905060008167ffffffffffffffff81111561077257610771612eaa565b5b6040519080825280602002602001820160405280156107ab57816020015b610798612cf2565b8152602001906001900390816107905790505b50905060405180604001604052808460ff1681526020018460ff16815250816000815181106107dd576107dc613746565b5b60200260200101819052506000600190505b8360ff168160ff16116109755760008160018361080c9190613954565b60036108189190613917565b6108229190613917565b600161082e91906138e2565b60ff16905060007f000000000000000000000000000000000000000000000000000000000000000073ffffffffffffffffffffffffffffffffffffffff166339e5c4a08560008151811061088557610884613746565b5b6020026020010151856040518363ffffffff1660e01b81526004016108ab929190613989565b600060405180830381865afa1580156108c8573d6000803e3d6000fd5b505050506040513d6000823e3d601f19601f820116820180604052508101906108f19190613a7f565b905060005b81518160ff16101561095f57818160ff168151811061091857610917613746565b5b6020026020010151858260ff16856109309190613ac8565b8151811061094157610940613746565b5b6020026020010181905250808061095790613afc565b9150506108f6565b505050808061096d90613afc565b9150506107ef565b5080935050505090565b610987612d12565b7f000000000000000000000000000000000000000000000000000000000000000073ffffffffffffffffffffffffffffffffffffffff16633ac245d9836040518263ffffffff1660e01b81526004016109e0919061302b565b608060405180830381865afa1580156109fd573d6000803e3d6000fd5b505050506040513d601f19601f82011682018060405250810190610a219190613bc9565b9050919050565b600360009054906101000a900460ff1681565b6001602052806000526040600020600091509050806000016040518060400160405290816000820160009054906101000a900460ff1660ff1660ff1681526020016000820160019054906101000a900460ff1660ff1660ff1681525050908060010160009054906101000a900460ff16908060010160019054906101000a900460ff16908060010160029054906101000a900460ff16908060010160039054906101000a900460ff16908060010160049054906101000a900460ff16908060010160059054906101000a900473ffffffffffffffffffffffffffffffffffffffff16905087565b6060600060028054905067ffffffffffffffff811115610b4557610b44612eaa565b5b604051908082528060200260200182016040528015610b7e57816020015b610b6b612d44565b815260200190600190039081610b635790505b509050610bbf6040518060400160405280601081526020017f52657472696576696e672073686970730000000000000000000000000000000081525061279c565b60005b600280549050811015610df7576001600060028381548110610be757610be6613746565b5b9060005260206000200160009054906101000a900473ffffffffffffffffffffffffffffffffffffffff1673ffffffffffffffffffffffffffffffffffffffff1673ffffffffffffffffffffffffffffffffffffffff1681526020019081526020016000206040518060e0016040529081600082016040518060400160405290816000820160009054906101000a900460ff1660ff1660ff1681526020016000820160019054906101000a900460ff1660ff1660ff168152505081526020016001820160009054906101000a900460ff166005811115610cca57610cc96132b3565b5b6005811115610cdc57610cdb6132b3565b5b81526020016001820160019054906101000a900460ff1660ff1660ff1681526020016001820160029054906101000a900460ff166005811115610d2257610d216132b3565b5b6005811115610d3457610d336132b3565b5b81526020016001820160039054906101000a900460ff1660ff1660ff1681526020016001820160049054906101000a900460ff161515151581526020016001820160059054906101000a900473ffffffffffffffffffffffffffffffffffffffff1673ffffffffffffffffffffffffffffffffffffffff1673ffffffffffffffffffffffffffffffffffffffff1681525050828281518110610dd957610dd8613746565b5b60200260200101819052508080610def906137a4565b915050610bc2565b508091505090565b60007f000000000000000000000000000000000000000000000000000000000000000073ffffffffffffffffffffffffffffffffffffffff1663217f43536040518163ffffffff1660e01b8152600401602060405180830381865afa158015610e6c573d6000803e3d6000fd5b505050506040513d601f19601f82011682018060405250810190610e9091906138b5565b905090565b6000806000806000600160008773ffffffffffffffffffffffffffffffffffffffff1673ffffffffffffffffffffffffffffffffffffffff1681526020019081526020016000206040518060e0016040529081600082016040518060400160405290816000820160009054906101000a900460ff1660ff1660ff1681526020016000820160019054906101000a900460ff1660ff1660ff168152505081526020016001820160009054906101000a900460ff166005811115610f5a57610f596132b3565b5b6005811115610f6c57610f6b6132b3565b5b81526020016001820160019054906101000a900460ff1660ff1660ff1681526020016001820160029054906101000a900460ff166005811115610fb257610fb16132b3565b5b6005811115610fc457610fc36132b3565b5b81526020016001820160039054906101000a900460ff1660ff1660ff1681526020016001820160049054906101000a900460ff161515151581526020016001820160059054906101000a900473ffffffffffffffffffffffffffffffffffffffff1673ffffffffffffffffffffffffffffffffffffffff1673ffffffffffffffffffffffffffffffffffffffff1681525050905080602001518160400151826060015183608001519450945094509450509193509193565b6000600160003373ffffffffffffffffffffffffffffffffffffffff1673ffffffffffffffffffffffffffffffffffffffff1681526020019081526020016000209050848160010160006101000a81548160ff021916908360058111156110e6576110e56132b3565b5b0217905550838160010160016101000a81548160ff021916908360ff160217905550828160010160026101000a81548160ff0219169083600581111561112f5761112e6132b3565b5b0217905550818160010160036101000a81548160ff021916908360ff16021790555060018160010160046101000a81548160ff0219169083151502179055505050505050565b61117d612d44565b6000600160003373ffffffffffffffffffffffffffffffffffffffff1673ffffffffffffffffffffffffffffffffffffffff16815260200190815260200160002060000160000160009054906101000a900460ff1660ff1611801561123757506000600160003373ffffffffffffffffffffffffffffffffffffffff1673ffffffffffffffffffffffffffffffffffffffff16815260200190815260200160002060000160000160019054906101000a900460ff1660ff16115b156113215733600160003373ffffffffffffffffffffffffffffffffffffffff1673ffffffffffffffffffffffffffffffffffffffff16815260200190815260200160002060000160000160009054906101000a900460ff16600160003373ffffffffffffffffffffffffffffffffffffffff1673ffffffffffffffffffffffffffffffffffffffff16815260200190815260200160002060000160000160019054906101000a900460ff166040517f8538db7000000000000000000000000000000000000000000000000000000000815260040161131893929190613bf6565b60405180910390fd5b611329612cf2565b60005b7f000000000000000000000000000000000000000000000000000000000000000073ffffffffffffffffffffffffffffffffffffffff166336579c5b6040518163ffffffff1660e01b815260040160408051808303816000875af1158015611398573d6000803e3d6000fd5b505050506040513d601f19601f820116820180604052508101906113bc9190613888565b915061140c6040518060400160405280601381526020017f4e657720726e6420706169722025732c20257300000000000000000000000000815250836000015160ff16846020015160ff16612835565b60005b6002805490508160ff16101561160c576114a36040518060400160405280601781526020017f696e206c6f6f702025732c20616464726573733a2025730000000000000000008152508260ff1660028460ff168154811061147357611472613746565b5b9060005260206000200160009054906101000a900473ffffffffffffffffffffffffffffffffffffffff166128d4565b826000015160ff166001600060028460ff16815481106114c6576114c5613746565b5b9060005260206000200160009054906101000a900473ffffffffffffffffffffffffffffffffffffffff1673ffffffffffffffffffffffffffffffffffffffff1673ffffffffffffffffffffffffffffffffffffffff16815260200190815260200160002060000160000160009054906101000a900460ff1660ff161480156115eb5750826020015160ff166001600060028460ff168154811061156d5761156c613746565b5b9060005260206000200160009054906101000a900473ffffffffffffffffffffffffffffffffffffffff1673ffffffffffffffffffffffffffffffffffffffff1673ffffffffffffffffffffffffffffffffffffffff16815260200190815260200160002060000160000160019054906101000a900460ff1660ff16145b156115f9576001915061160c565b808061160490613afc565b91505061140f565b508061132c5760006040518060e0016040528084815260200160006005811115611639576116386132b3565b5b8152602001600060ff1681526020016000600581111561165c5761165b6132b3565b5b8152602001600060ff1681526020016000151581526020013373ffffffffffffffffffffffffffffffffffffffff16815250905080600160003373ffffffffffffffffffffffffffffffffffffffff1673ffffffffffffffffffffffffffffffffffffffff16815260200190815260200160002060008201518160000160008201518160000160006101000a81548160ff021916908360ff16021790555060208201518160000160016101000a81548160ff021916908360ff160217905550505060208201518160010160006101000a81548160ff02191690836005811115611748576117476132b3565b5b021790555060408201518160010160016101000a81548160ff021916908360ff16021790555060608201518160010160026101000a81548160ff02191690836005811115611799576117986132b3565b5b021790555060808201518160010160036101000a81548160ff021916908360ff16021790555060a08201518160010160046101000a81548160ff02191690831515021790555060c08201518160010160056101000a81548173ffffffffffffffffffffffffffffffffffffffff021916908373ffffffffffffffffffffffffffffffffffffffff1602179055509050506002339080600181540180825580915050600190039060005260206000200160009091909190916101000a81548173ffffffffffffffffffffffffffffffffffffffff021916908373ffffffffffffffffffffffffffffffffffffffff1602179055506118e26040518060400160405280601281526020017f4e657720736869702061742025732c202573000000000000000000000000000081525082600001516000015160ff1683600001516020015160ff16612835565b3373ffffffffffffffffffffffffffffffffffffffff167ff2ae205522024c14e5a7a26ba6d1fb1252dc8e161b5abc79ed5795fd3c5b926160405160405180910390a280935050505090565b83600160003373ffffffffffffffffffffffffffffffffffffffff1673ffffffffffffffffffffffffffffffffffffffff16815260200190815260200160002060010160006101000a81548160ff02191690836005811115611993576119926132b3565b5b021790555082600160003373ffffffffffffffffffffffffffffffffffffffff1673ffffffffffffffffffffffffffffffffffffffff16815260200190815260200160002060010160016101000a81548160ff021916908360ff16021790555081600160003373ffffffffffffffffffffffffffffffffffffffff1673ffffffffffffffffffffffffffffffffffffffff16815260200190815260200160002060010160026101000a81548160ff02191690836005811115611a5857611a576132b3565b5b021790555080600160003373ffffffffffffffffffffffffffffffffffffffff1673ffffffffffffffffffffffffffffffffffffffff16815260200190815260200160002060010160036101000a81548160ff021916908360ff16021790555060018060003373ffffffffffffffffffffffffffffffffffffffff1673ffffffffffffffffffffffffffffffffffffffff16815260200190815260200160002060010160046101000a81548160ff02191690831515021790555050505050565b600080600060028054905067ffffffffffffffff811115611b3c57611b3b612eaa565b5b604051908082528060200260200182016040528015611b7557816020015b611b62612cf2565b815260200190600190039081611b5a5790505b509050600060028054905067ffffffffffffffff811115611b9957611b98612eaa565b5b604051908082528060200260200182016040528015611bd257816020015b611bbf612cf2565b815260200190600190039081611bb75790505b50905060005b6002805490508160ff161015612285576001600060028360ff1681548110611c0357611c02613746565b5b9060005260206000200160009054906101000a900473ffffffffffffffffffffffffffffffffffffffff1673ffffffffffffffffffffffffffffffffffffffff1673ffffffffffffffffffffffffffffffffffffffff16815260200190815260200160002060010160049054906101000a900460ff1615612271576000807f000000000000000000000000000000000000000000000000000000000000000073ffffffffffffffffffffffffffffffffffffffff1663ecba2dd76001600060028760ff1681548110611cd857611cd7613746565b5b9060005260206000200160009054906101000a900473ffffffffffffffffffffffffffffffffffffffff1673ffffffffffffffffffffffffffffffffffffffff1673ffffffffffffffffffffffffffffffffffffffff1681526020019081526020016000206000016001600060028860ff1681548110611d5b57611d5a613746565b5b9060005260206000200160009054906101000a900473ffffffffffffffffffffffffffffffffffffffff1673ffffffffffffffffffffffffffffffffffffffff1673ffffffffffffffffffffffffffffffffffffffff16815260200190815260200160002060010160009054906101000a900460ff166001600060028960ff1681548110611dec57611deb613746565b5b9060005260206000200160009054906101000a900473ffffffffffffffffffffffffffffffffffffffff1673ffffffffffffffffffffffffffffffffffffffff1673ffffffffffffffffffffffffffffffffffffffff16815260200190815260200160002060010160019054906101000a900460ff166040518463ffffffff1660e01b8152600401611e8093929190613cc8565b606060405180830381865afa158015611e9d573d6000803e3d6000fd5b505050506040513d601f19601f82011682018060405250810190611ec19190613cff565b915091508115611f1d57611f1660028460ff1681548110611ee557611ee4613746565b5b9060005260206000200160009054906101000a900473ffffffffffffffffffffffffffffffffffffffff1684612973565b5050612272565b60007f000000000000000000000000000000000000000000000000000000000000000073ffffffffffffffffffffffffffffffffffffffff1663d6192ad36001600060028860ff1681548110611f7657611f75613746565b5b9060005260206000200160009054906101000a900473ffffffffffffffffffffffffffffffffffffffff1673ffffffffffffffffffffffffffffffffffffffff1673ffffffffffffffffffffffffffffffffffffffff1681526020019081526020016000206000016001600060028960ff1681548110611ff957611ff8613746565b5b9060005260206000200160009054906101000a900473ffffffffffffffffffffffffffffffffffffffff1673ffffffffffffffffffffffffffffffffffffffff1673ffffffffffffffffffffffffffffffffffffffff16815260200190815260200160002060010160029054906101000a900460ff166001600060028a60ff168154811061208a57612089613746565b5b9060005260206000200160009054906101000a900473ffffffffffffffffffffffffffffffffffffffff1673ffffffffffffffffffffffffffffffffffffffff1673ffffffffffffffffffffffffffffffffffffffff16815260200190815260200160002060010160039054906101000a900460ff166040518463ffffffff1660e01b815260040161211e93929190613cc8565b6040805180830381865afa15801561213a573d6000803e3d6000fd5b505050506040513d601f19601f8201168201806040525081019061215e9190613888565b905081868560ff168151811061217757612176613746565b5b602002602001018190525080858560ff168151811061219957612198613746565b5b6020026020010181905250816001600060028760ff16815481106121c0576121bf613746565b5b9060005260206000200160009054906101000a900473ffffffffffffffffffffffffffffffffffffffff1673ffffffffffffffffffffffffffffffffffffffff1673ffffffffffffffffffffffffffffffffffffffff16815260200190815260200160002060000160008201518160000160006101000a81548160ff021916908360ff16021790555060208201518160000160016101000a81548160ff021916908360ff1602179055509050505050505b5b808061227d90613afc565b915050611bd8565b5060005b6002805490508160ff1610156124bc5760005b6002805490508160ff1610156124a8578060ff168260ff161415801561237b57506001600060028460ff16815481106122d8576122d7613746565b5b9060005260206000200160009054906101000a900473ffffffffffffffffffffffffffffffffffffffff1673ffffffffffffffffffffffffffffffffffffffff1673ffffffffffffffffffffffffffffffffffffffff16815260200190815260200160002060000160000160009054906101000a900460ff1660ff16838260ff168151811061236a57612369613746565b5b60200260200101516000015160ff16145b801561244057506001600060028460ff168154811061239d5761239c613746565b5b9060005260206000200160009054906101000a900473ffffffffffffffffffffffffffffffffffffffff1673ffffffffffffffffffffffffffffffffffffffff1673ffffffffffffffffffffffffffffffffffffffff16815260200190815260200160002060000160000160019054906101000a900460ff1660ff16838260ff168151811061242f5761242e613746565b5b60200260200101516020015160ff16145b156124955761249060028360ff168154811061245f5761245e613746565b5b9060005260206000200160009054906101000a900473ffffffffffffffffffffffffffffffffffffffff1683612973565b6124a8565b80806124a090613afc565b91505061229c565b5080806124b490613afc565b915050612289565b50600160028054905003612590577f71c863affc60bf856f78adf835c2f8d43a35f214dc51c98e8b9953560f30bf826001600260008154811061250257612501613746565b5b9060005260206000200160009054906101000a900473ffffffffffffffffffffffffffffffffffffffff1660405161253b9291906136a9565b60405180910390a16001600260008154811061255a57612559613746565b5b9060005260206000200160009054906101000a900473ffffffffffffffffffffffffffffffffffffffff169350935050506125d4565b7f71c863affc60bf856f78adf835c2f8d43a35f214dc51c98e8b9953560f30bf826000806040516125c29291906136a9565b60405180910390a16000809350935050505b9091565b6000807f000000000000000000000000000000000000000000000000000000000000000073ffffffffffffffffffffffffffffffffffffffff1663ecba2dd78686866040518463ffffffff1660e01b8152600401612638939291906137ec565b606060405180830381865afa158015612655573d6000803e3d6000fd5b505050506040513d601f19601f820116820180604052508101906126799190613cff565b9150915081156126915761268c33612bf6565b612756565b8060000151600160003373ffffffffffffffffffffffffffffffffffffffff1673ffffffffffffffffffffffffffffffffffffffff16815260200190815260200160002060000160000160006101000a81548160ff021916908360ff1602179055508060200151600160003373ffffffffffffffffffffffffffffffffffffffff1673ffffffffffffffffffffffffffffffffffffffff16815260200190815260200160002060000160000160016101000a81548160ff021916908360ff1602179055505b5050505050565b6002818154811061276d57600080fd5b906000526020600020016000915054906101000a900473ffffffffffffffffffffffffffffffffffffffff1681565b612832816040516024016127b09190613dbe565b6040516020818303038152906040527f41304fac000000000000000000000000000000000000000000000000000000007bffffffffffffffffffffffffffffffffffffffffffffffffffffffff19166020820180517bffffffffffffffffffffffffffffffffffffffffffffffffffffffff8381831617835250505050612ca8565b50565b6128cf83838360405160240161284d93929190613de0565b6040516020818303038152906040527fca47c4eb000000000000000000000000000000000000000000000000000000007bffffffffffffffffffffffffffffffffffffffffffffffffffffffff19166020820180517bffffffffffffffffffffffffffffffffffffffffffffffffffffffff8381831617835250505050612ca8565b505050565b61296e8383836040516024016128ec93929190613e1e565b6040516020818303038152906040527f1c7ec448000000000000000000000000000000000000000000000000000000007bffffffffffffffffffffffffffffffffffffffffffffffffffffffff19166020820180517bffffffffffffffffffffffffffffffffffffffffffffffffffffffff8381831617835250505050612ca8565b505050565b6002805490508160ff16106129bd576040517f08c379a00000000000000000000000000000000000000000000000000000000081526004016129b490613ea8565b60405180910390fd5b8173ffffffffffffffffffffffffffffffffffffffff167fce0e3c7f8595684f9560df3c82cb81a6c5a649fcf1bdc96b2dc8b7bf228d650060405160405180910390a2600160008373ffffffffffffffffffffffffffffffffffffffff1673ffffffffffffffffffffffffffffffffffffffff1681526020019081526020016000206000808201600080820160006101000a81549060ff02191690556000820160016101000a81549060ff021916905550506001820160006101000a81549060ff02191690556001820160016101000a81549060ff02191690556001820160026101000a81549060ff02191690556001820160036101000a81549060ff02191690556001820160046101000a81549060ff02191690556001820160056101000a81549073ffffffffffffffffffffffffffffffffffffffff0219169055505060026001600280549050612b109190613ec8565b81548110612b2157612b20613746565b5b9060005260206000200160009054906101000a900473ffffffffffffffffffffffffffffffffffffffff1660028260ff1681548110612b6357612b62613746565b5b9060005260206000200160006101000a81548173ffffffffffffffffffffffffffffffffffffffff021916908373ffffffffffffffffffffffffffffffffffffffff1602179055506002805480612bbd57612bbc613efc565b5b6001900381819060005260206000200160006101000a81549073ffffffffffffffffffffffffffffffffffffffff021916905590555050565b6000805b6002805490508160ff161015612c99578273ffffffffffffffffffffffffffffffffffffffff1660028260ff1681548110612c3857612c37613746565b5b9060005260206000200160009054906101000a900473ffffffffffffffffffffffffffffffffffffffff1673ffffffffffffffffffffffffffffffffffffffff1603612c8657809150612c99565b8080612c9190613afc565b915050612bfa565b50612ca48282612973565b5050565b60008151905060006a636f6e736f6c652e6c6f679050602083016000808483855afa5050505050565b5080546000825590600052602060002090810190612cef9190612dc9565b50565b6040518060400160405280600060ff168152602001600060ff1681525090565b6040518060800160405280600060ff168152602001600060ff1681526020016000151581526020016000151581525090565b6040518060e00160405280612d57612cf2565b815260200160006005811115612d7057612d6f6132b3565b5b8152602001600060ff16815260200160006005811115612d9357612d926132b3565b5b8152602001600060ff168152602001600015158152602001600073ffffffffffffffffffffffffffffffffffffffff1681525090565b5b80821115612de2576000816000905550600101612dca565b5090565b6000604051905090565b600080fd5b600080fd5b600060ff82169050919050565b612e1081612dfa565b8114612e1b57600080fd5b50565b600081359050612e2d81612e07565b92915050565b600060208284031215612e4957612e48612df0565b5b6000612e5784828501612e1e565b91505092915050565b6000819050919050565b612e7381612e60565b82525050565b6000602082019050612e8e6000830184612e6a565b92915050565b600080fd5b6000601f19601f8301169050919050565b7f4e487b7100000000000000000000000000000000000000000000000000000000600052604160045260246000fd5b612ee282612e99565b810181811067ffffffffffffffff82111715612f0157612f00612eaa565b5b80604052505050565b6000612f14612de6565b9050612f208282612ed9565b919050565b600060408284031215612f3b57612f3a612e94565b5b612f456040612f0a565b90506000612f5584828501612e1e565b6000830152506020612f6984828501612e1e565b60208301525092915050565b60068110612f8257600080fd5b50565b600081359050612f9481612f75565b92915050565b600080600060808486031215612fb357612fb2612df0565b5b6000612fc186828701612f25565b9350506040612fd286828701612f85565b9250506060612fe386828701612e1e565b9150509250925092565b612ff681612dfa565b82525050565b6040820160008201516130126000850182612fed565b5060208201516130256020850182612fed565b50505050565b60006040820190506130406000830184612ffc565b92915050565b600081519050919050565b600082825260208201905092915050565b6000819050602082019050919050565b6040820160008201516130886000850182612fed565b50602082015161309b6020850182612fed565b50505050565b60006130ad8383613072565b60408301905092915050565b6000602082019050919050565b60006130d182613046565b6130db8185613051565b93506130e683613062565b8060005b838110156131175781516130fe88826130a1565b9750613109836130b9565b9250506001810190506130ea565b5085935050505092915050565b6000602082019050818103600083015261313e81846130c6565b905092915050565b60006040828403121561315c5761315b612df0565b5b600061316a84828501612f25565b91505092915050565b60008115159050919050565b61318881613173565b82525050565b6080820160008201516131a46000850182612fed565b5060208201516131b76020850182612fed565b5060408201516131ca604085018261317f565b5060608201516131dd606085018261317f565b50505050565b60006080820190506131f8600083018461318e565b92915050565b61320781613173565b82525050565b600060208201905061322260008301846131fe565b92915050565b600073ffffffffffffffffffffffffffffffffffffffff82169050919050565b600061325382613228565b9050919050565b61326381613248565b811461326e57600080fd5b50565b6000813590506132808161325a565b92915050565b60006020828403121561329c5761329b612df0565b5b60006132aa84828501613271565b91505092915050565b7f4e487b7100000000000000000000000000000000000000000000000000000000600052602160045260246000fd5b600681106132f3576132f26132b3565b5b50565b6000819050613304826132e2565b919050565b6000613314826132f6565b9050919050565b61332481613309565b82525050565b61333381612dfa565b82525050565b61334281613248565b82525050565b60006101008201905061335e600083018a612ffc565b61336b604083018961331b565b613378606083018861332a565b613385608083018761331b565b61339260a083018661332a565b61339f60c08301856131fe565b6133ac60e0830184613339565b98975050505050505050565b600081519050919050565b600082825260208201905092915050565b6000819050602082019050919050565b6133ed81613309565b82525050565b6133fc81613248565b82525050565b610100820160008201516134196000850182613072565b50602082015161342c60408501826133e4565b50604082015161343f6060850182612fed565b50606082015161345260808501826133e4565b50608082015161346560a0850182612fed565b5060a082015161347860c085018261317f565b5060c082015161348b60e08501826133f3565b50505050565b600061349d8383613402565b6101008301905092915050565b6000602082019050919050565b60006134c2826133b8565b6134cc81856133c3565b93506134d7836133d4565b8060005b838110156135085781516134ef8882613491565b97506134fa836134aa565b9250506001810190506134db565b5085935050505092915050565b6000602082019050818103600083015261352f81846134b7565b905092915050565b600060208201905061354c600083018461332a565b92915050565b6000608082019050613567600083018761331b565b613574602083018661332a565b613581604083018561331b565b61358e606083018461332a565b95945050505050565b600080600080608085870312156135b1576135b0612df0565b5b60006135bf87828801612f85565b94505060206135d087828801612e1e565b93505060406135e187828801612f85565b92505060606135f287828801612e1e565b91505092959194509250565b610100820160008201516136156000850182613072565b50602082015161362860408501826133e4565b50604082015161363b6060850182612fed565b50606082015161364e60808501826133e4565b50608082015161366160a0850182612fed565b5060a082015161367460c085018261317f565b5060c082015161368760e08501826133f3565b50505050565b6000610100820190506136a360008301846135fe565b92915050565b60006040820190506136be60008301856131fe565b6136cb6020830184613339565b9392505050565b6136db81612e60565b81146136e657600080fd5b50565b6000813590506136f8816136d2565b92915050565b60006020828403121561371457613713612df0565b5b6000613722848285016136e9565b91505092915050565b60006020820190506137406000830184613339565b92915050565b7f4e487b7100000000000000000000000000000000000000000000000000000000600052603260045260246000fd5b7f4e487b7100000000000000000000000000000000000000000000000000000000600052601160045260246000fd5b60006137af82612e60565b91507fffffffffffffffffffffffffffffffffffffffffffffffffffffffffffffffff82036137e1576137e0613775565b5b600182019050919050565b60006080820190506138016000830186612ffc565b61380e604083018561331b565b61381b606083018461332a565b949350505050565b60008151905061383281612e07565b92915050565b60006040828403121561384e5761384d612e94565b5b6138586040612f0a565b9050600061386884828501613823565b600083015250602061387c84828501613823565b60208301525092915050565b60006040828403121561389e5761389d612df0565b5b60006138ac84828501613838565b91505092915050565b6000602082840312156138cb576138ca612df0565b5b60006138d984828501613823565b91505092915050565b60006138ed82612dfa565b91506138f883612dfa565b9250828201905060ff81111561391157613910613775565b5b92915050565b600061392282612dfa565b915061392d83612dfa565b925082820261393b81612dfa565b915080821461394d5761394c613775565b5b5092915050565b600061395f82612dfa565b915061396a83612dfa565b9250828203905060ff81111561398357613982613775565b5b92915050565b600060608201905061399e6000830185612ffc565b6139ab604083018461332a565b9392505050565b600080fd5b600067ffffffffffffffff8211156139d2576139d1612eaa565b5b602082029050602081019050919050565b600080fd5b60006139fb6139f6846139b7565b612f0a565b90508083825260208201905060408402830185811115613a1e57613a1d6139e3565b5b835b81811015613a475780613a338882613838565b845260208401935050604081019050613a20565b5050509392505050565b600082601f830112613a6657613a656139b2565b5b8151613a768482602086016139e8565b91505092915050565b600060208284031215613a9557613a94612df0565b5b600082015167ffffffffffffffff811115613ab357613ab2612df5565b5b613abf84828501613a51565b91505092915050565b6000613ad382612e60565b9150613ade83612e60565b9250828201905080821115613af657613af5613775565b5b92915050565b6000613b0782612dfa565b915060ff8203613b1a57613b19613775565b5b600182019050919050565b613b2e81613173565b8114613b3957600080fd5b50565b600081519050613b4b81613b25565b92915050565b600060808284031215613b6757613b66612e94565b5b613b716080612f0a565b90506000613b8184828501613823565b6000830152506020613b9584828501613823565b6020830152506040613ba984828501613b3c565b6040830152506060613bbd84828501613b3c565b60608301525092915050565b600060808284031215613bdf57613bde612df0565b5b6000613bed84828501613b51565b91505092915050565b6000606082019050613c0b6000830186613339565b613c18602083018561332a565b613c25604083018461332a565b949350505050565b60008160001c9050919050565b600060ff82169050919050565b6000613c5a613c5583613c2d565b613c3a565b9050919050565b60008160081c9050919050565b6000613c81613c7c83613c61565b613c3a565b9050919050565b604082016000808301549050613c9d81613c47565b613caa6000860182612fed565b50613cb481613c6e565b613cc16020860182612fed565b5050505050565b6000608082019050613cdd6000830186613c88565b613cea604083018561331b565b613cf7606083018461332a565b949350505050565b60008060608385031215613d1657613d15612df0565b5b6000613d2485828601613b3c565b9250506020613d3585828601613838565b9150509250929050565b600081519050919050565b600082825260208201905092915050565b60005b83811015613d79578082015181840152602081019050613d5e565b60008484015250505050565b6000613d9082613d3f565b613d9a8185613d4a565b9350613daa818560208601613d5b565b613db381612e99565b840191505092915050565b60006020820190508181036000830152613dd88184613d85565b905092915050565b60006060820190508181036000830152613dfa8186613d85565b9050613e096020830185612e6a565b613e166040830184612e6a565b949350505050565b60006060820190508181036000830152613e388186613d85565b9050613e476020830185612e6a565b613e546040830184613339565b949350505050565b7f496e6465782076616c7565206f7574206f662072616e67650000000000000000600082015250565b6000613e92601883613d4a565b9150613e9d82613e5c565b602082019050919050565b60006020820190508181036000830152613ec181613e85565b9050919050565b6000613ed382612e60565b9150613ede83612e60565b9250828203905081811115613ef657613ef5613775565b5b92915050565b7f4e487b7100000000000000000000000000000000000000000000000000000000600052603160045260246000fdfea2646970667358221220ddb638f91f971cb01b70b659e802ce37d08d5d891d1b82f804cac927855f025764736f6c63430008120033",
  "linkReferences": {},
  "deployedLinkReferences": {}
}