{
  "_format": "hh-sol-artifact-1",
  "contractName": "Game",
  "sourceName": "contracts/Game.sol",
  "abi": [
    {
      "inputs": [
        {
          "internalType": "address",
          "name": "_mapAddress",
          "type": "address"
        }
      ],
      "stateMutability": "nonpayable",
      "type": "constructor"
    },
    {
      "inputs": [
        {
          "internalType": "address",
          "name": "player",
          "type": "address"
        },
        {
          "internalType": "uint8",
          "name": "q",
          "type": "uint8"
        },
        {
          "internalType": "uint8",
          "name": "r",
          "type": "uint8"
        }
      ],
      "name": "ShipAlreadyAdded",
      "type": "error"
    },
    {
      "anonymous": false,
      "inputs": [
        {
          "indexed": true,
          "internalType": "bytes32",
          "name": "id",
          "type": "bytes32"
        }
      ],
      "name": "ChainlinkCancelled",
      "type": "event"
    },
    {
      "anonymous": false,
      "inputs": [
        {
          "indexed": true,
          "internalType": "bytes32",
          "name": "id",
          "type": "bytes32"
        }
      ],
      "name": "ChainlinkFulfilled",
      "type": "event"
    },
    {
      "anonymous": false,
      "inputs": [
        {
          "indexed": true,
          "internalType": "bytes32",
          "name": "id",
          "type": "bytes32"
        }
      ],
      "name": "ChainlinkRequested",
      "type": "event"
    },
    {
      "anonymous": false,
      "inputs": [
        {
          "indexed": false,
          "internalType": "uint8",
          "name": "gameId",
          "type": "uint8"
        }
      ],
      "name": "CommitPhaseStarted",
      "type": "event"
    },
    {
      "anonymous": false,
      "inputs": [
        {
          "indexed": false,
          "internalType": "uint8",
          "name": "gameId",
          "type": "uint8"
        }
      ],
      "name": "GameEnded",
      "type": "event"
    },
    {
      "anonymous": false,
      "inputs": [
        {
          "indexed": false,
          "internalType": "uint8",
          "name": "gameId",
          "type": "uint8"
        }
      ],
      "name": "GameStarted",
      "type": "event"
    },
    {
      "anonymous": false,
      "inputs": [
        {
          "indexed": true,
          "internalType": "bool",
          "name": "gameStatus",
          "type": "bool"
        },
        {
          "indexed": true,
          "internalType": "address",
          "name": "winnerAddress",
          "type": "address"
        }
      ],
      "name": "GameUpdated",
      "type": "event"
    },
    {
      "anonymous": false,
      "inputs": [
        {
          "indexed": false,
          "internalType": "string",
          "name": "gameWinner",
          "type": "string"
        }
      ],
      "name": "GameWinner",
      "type": "event"
    },
    {
      "anonymous": false,
      "inputs": [
        {
          "indexed": false,
          "internalType": "uint8",
          "name": "radius",
          "type": "uint8"
        },
        {
          "indexed": false,
          "internalType": "uint8",
          "name": "gameId",
          "type": "uint8"
        }
      ],
      "name": "MapInitialized",
      "type": "event"
    },
    {
      "anonymous": false,
      "inputs": [
        {
          "indexed": true,
          "internalType": "address",
          "name": "player",
          "type": "address"
        }
      ],
      "name": "MoveCommitted",
      "type": "event"
    },
    {
      "anonymous": false,
      "inputs": [
        {
          "indexed": true,
          "internalType": "address",
          "name": "player",
          "type": "address"
        }
      ],
      "name": "MoveSubmitted",
      "type": "event"
    },
    {
      "anonymous": false,
      "inputs": [
        {
          "indexed": true,
          "internalType": "address",
          "name": "previousOwner",
          "type": "address"
        },
        {
          "indexed": true,
          "internalType": "address",
          "name": "newOwner",
          "type": "address"
        }
      ],
      "name": "OwnershipTransferred",
      "type": "event"
    },
    {
      "anonymous": false,
      "inputs": [
        {
          "indexed": true,
          "internalType": "address",
          "name": "player",
          "type": "address"
        },
        {
          "indexed": false,
          "internalType": "uint8",
          "name": "gameId",
          "type": "uint8"
        }
      ],
      "name": "PlayerAdded",
      "type": "event"
    },
    {
      "anonymous": false,
      "inputs": [
        {
          "indexed": true,
          "internalType": "address",
          "name": "player",
          "type": "address"
        }
      ],
      "name": "PlayerDefeated",
      "type": "event"
    },
    {
      "anonymous": false,
      "inputs": [
        {
          "indexed": true,
          "internalType": "address",
          "name": "captain",
          "type": "address"
        }
      ],
      "name": "ShipCollidedWithIsland",
      "type": "event"
    },
    {
      "anonymous": false,
      "inputs": [
        {
          "indexed": true,
          "internalType": "address",
          "name": "victim",
          "type": "address"
        },
        {
          "indexed": true,
          "internalType": "address",
          "name": "attacker",
          "type": "address"
        }
      ],
      "name": "ShipHit",
      "type": "event"
    },
    {
      "anonymous": false,
      "inputs": [
        {
          "indexed": true,
          "internalType": "address",
          "name": "captain",
          "type": "address"
        },
        {
          "indexed": false,
          "internalType": "uint8",
          "name": "q",
          "type": "uint8"
        },
        {
          "indexed": false,
          "internalType": "uint8",
          "name": "r",
          "type": "uint8"
        }
      ],
      "name": "ShipMoved",
      "type": "event"
    },
    {
      "anonymous": false,
      "inputs": [
        {
          "indexed": true,
          "internalType": "address",
          "name": "captain",
          "type": "address"
        },
        {
          "indexed": false,
          "internalType": "uint8",
          "name": "shotQ",
          "type": "uint8"
        },
        {
          "indexed": false,
          "internalType": "uint8",
          "name": "shotR",
          "type": "uint8"
        }
      ],
      "name": "ShipShot",
      "type": "event"
    },
    {
      "anonymous": false,
      "inputs": [
        {
          "indexed": true,
          "internalType": "address",
          "name": "captain",
          "type": "address"
        }
      ],
      "name": "ShipSunk",
      "type": "event"
    },
    {
      "anonymous": false,
      "inputs": [
        {
          "indexed": false,
          "internalType": "uint8",
          "name": "gameId",
          "type": "uint8"
        }
      ],
      "name": "SubmitPhaseStarted",
      "type": "event"
    },
    {
      "inputs": [
        {
          "internalType": "uint8",
          "name": "gameId",
          "type": "uint8"
        },
        {
          "internalType": "uint256",
          "name": "_speed",
          "type": "uint256"
        },
        {
          "internalType": "uint256",
          "name": "_range",
          "type": "uint256"
        }
      ],
      "name": "addShip",
      "outputs": [
        {
          "components": [
            {
              "components": [
                {
                  "internalType": "uint8",
                  "name": "q",
                  "type": "uint8"
                },
                {
                  "internalType": "uint8",
                  "name": "r",
                  "type": "uint8"
                }
              ],
              "internalType": "struct SharedStructs.Coordinate",
              "name": "coordinate",
              "type": "tuple"
            },
            {
              "internalType": "enum SharedStructs.Directions",
              "name": "travelDirection",
              "type": "uint8"
            },
            {
              "internalType": "uint8",
              "name": "travelDistance",
              "type": "uint8"
            },
            {
              "internalType": "enum SharedStructs.Directions",
              "name": "shotDirection",
              "type": "uint8"
            },
            {
              "internalType": "uint8",
              "name": "shotDistance",
              "type": "uint8"
            },
            {
              "internalType": "bool",
              "name": "publishedMove",
              "type": "bool"
            },
            {
              "internalType": "address",
              "name": "captain",
              "type": "address"
            },
            {
              "internalType": "uint256",
              "name": "yachtSpeed",
              "type": "uint256"
            },
            {
              "internalType": "uint256",
              "name": "yachtRange",
              "type": "uint256"
            }
          ],
          "internalType": "struct Game.Ship",
          "name": "",
          "type": "tuple"
        }
      ],
      "stateMutability": "nonpayable",
      "type": "function"
    },
    {
      "inputs": [
        {
          "internalType": "uint8",
          "name": "gameId",
          "type": "uint8"
        }
      ],
      "name": "allowSubmitMoves",
      "outputs": [],
      "stateMutability": "nonpayable",
      "type": "function"
    },
    {
      "inputs": [
        {
          "internalType": "uint8",
          "name": "gameId",
          "type": "uint8"
        }
      ],
      "name": "endGame",
      "outputs": [],
      "stateMutability": "nonpayable",
      "type": "function"
    },
    {
      "inputs": [
        {
          "internalType": "uint256",
          "name": "",
          "type": "uint256"
        }
      ],
      "name": "games",
      "outputs": [
        {
          "internalType": "uint256",
          "name": "round",
          "type": "uint256"
        },
        {
          "internalType": "bool",
          "name": "gameInProgress",
          "type": "bool"
        },
        {
          "internalType": "bool",
          "name": "stopAddingShips",
          "type": "bool"
        },
        {
          "internalType": "bool",
          "name": "letCommitMoves",
          "type": "bool"
        },
        {
          "internalType": "bool",
          "name": "letSubmitMoves",
          "type": "bool"
        }
      ],
      "stateMutability": "view",
      "type": "function"
    },
    {
      "inputs": [
        {
          "components": [
            {
              "internalType": "uint8",
              "name": "q",
              "type": "uint8"
            },
            {
              "internalType": "uint8",
              "name": "r",
              "type": "uint8"
            }
          ],
          "internalType": "struct SharedStructs.Coordinate",
          "name": "_coord",
          "type": "tuple"
        },
        {
          "internalType": "uint8",
          "name": "gameId",
          "type": "uint8"
        }
      ],
      "name": "getCell",
      "outputs": [
        {
          "components": [
            {
              "internalType": "uint8",
              "name": "q",
              "type": "uint8"
            },
            {
              "internalType": "uint8",
              "name": "r",
              "type": "uint8"
            },
            {
              "internalType": "bool",
              "name": "island",
              "type": "bool"
            },
            {
              "internalType": "bool",
              "name": "exists",
              "type": "bool"
            }
          ],
          "internalType": "struct SharedStructs.Cell",
          "name": "",
          "type": "tuple"
        }
      ],
      "stateMutability": "view",
      "type": "function"
    },
    {
      "inputs": [
        {
          "internalType": "uint8",
          "name": "gameId",
          "type": "uint8"
        }
      ],
      "name": "getCells",
      "outputs": [
        {
          "components": [
            {
              "internalType": "uint8",
              "name": "q",
              "type": "uint8"
            },
            {
              "internalType": "uint8",
              "name": "r",
              "type": "uint8"
            }
          ],
          "internalType": "struct SharedStructs.Coordinate[]",
          "name": "",
          "type": "tuple[]"
        }
      ],
      "stateMutability": "view",
      "type": "function"
    },
    {
      "inputs": [
        {
          "internalType": "uint8",
          "name": "gameId",
          "type": "uint8"
        }
      ],
      "name": "getRadius",
      "outputs": [
        {
          "internalType": "uint8",
          "name": "",
          "type": "uint8"
        }
      ],
      "stateMutability": "view",
      "type": "function"
    },
    {
      "inputs": [
        {
          "internalType": "uint8",
          "name": "gameId",
          "type": "uint8"
        }
      ],
      "name": "getShips",
      "outputs": [
        {
          "components": [
            {
              "components": [
                {
                  "internalType": "uint8",
                  "name": "q",
                  "type": "uint8"
                },
                {
                  "internalType": "uint8",
                  "name": "r",
                  "type": "uint8"
                }
              ],
              "internalType": "struct SharedStructs.Coordinate",
              "name": "coordinate",
              "type": "tuple"
            },
            {
              "internalType": "enum SharedStructs.Directions",
              "name": "travelDirection",
              "type": "uint8"
            },
            {
              "internalType": "uint8",
              "name": "travelDistance",
              "type": "uint8"
            },
            {
              "internalType": "enum SharedStructs.Directions",
              "name": "shotDirection",
              "type": "uint8"
            },
            {
              "internalType": "uint8",
              "name": "shotDistance",
              "type": "uint8"
            },
            {
              "internalType": "bool",
              "name": "publishedMove",
              "type": "bool"
            },
            {
              "internalType": "address",
              "name": "captain",
              "type": "address"
            },
            {
              "internalType": "uint256",
              "name": "yachtSpeed",
              "type": "uint256"
            },
            {
              "internalType": "uint256",
              "name": "yachtRange",
              "type": "uint256"
            }
          ],
          "internalType": "struct Game.Ship[]",
          "name": "",
          "type": "tuple[]"
        }
      ],
      "stateMutability": "view",
      "type": "function"
    },
    {
      "inputs": [
        {
          "internalType": "uint8",
          "name": "_radius",
          "type": "uint8"
        },
        {
          "internalType": "uint8",
          "name": "gameId",
          "type": "uint8"
        }
      ],
      "name": "initGame",
      "outputs": [],
      "stateMutability": "nonpayable",
      "type": "function"
    },
    {
      "inputs": [],
      "name": "jobId",
      "outputs": [
        {
          "internalType": "bytes32",
          "name": "",
          "type": "bytes32"
        }
      ],
      "stateMutability": "view",
      "type": "function"
    },
    {
      "inputs": [
        {
          "components": [
            {
              "internalType": "uint8",
              "name": "q",
              "type": "uint8"
            },
            {
              "internalType": "uint8",
              "name": "r",
              "type": "uint8"
            }
          ],
          "internalType": "struct SharedStructs.Coordinate",
          "name": "_start",
          "type": "tuple"
        },
        {
          "internalType": "enum SharedStructs.Directions",
          "name": "_dir",
          "type": "uint8"
        },
        {
          "internalType": "uint8",
          "name": "_distance",
          "type": "uint8"
        },
        {
          "internalType": "uint8",
          "name": "gameId",
          "type": "uint8"
        }
      ],
      "name": "move",
      "outputs": [
        {
          "components": [
            {
              "internalType": "uint8",
              "name": "q",
              "type": "uint8"
            },
            {
              "internalType": "uint8",
              "name": "r",
              "type": "uint8"
            }
          ],
          "internalType": "struct SharedStructs.Coordinate",
          "name": "",
          "type": "tuple"
        }
      ],
      "stateMutability": "view",
      "type": "function"
    },
    {
      "inputs": [
        {
          "internalType": "address",
          "name": "",
          "type": "address"
        }
      ],
      "name": "nftDataMapping",
      "outputs": [
        {
          "internalType": "string",
          "name": "tokenId",
          "type": "string"
        },
        {
          "internalType": "uint8",
          "name": "speed",
          "type": "uint8"
        },
        {
          "internalType": "uint8",
          "name": "range",
          "type": "uint8"
        }
      ],
      "stateMutability": "view",
      "type": "function"
    },
    {
      "inputs": [],
      "name": "owner",
      "outputs": [
        {
          "internalType": "address",
          "name": "",
          "type": "address"
        }
      ],
      "stateMutability": "view",
      "type": "function"
    },
    {
      "inputs": [],
      "name": "renounceOwnership",
      "outputs": [],
      "stateMutability": "nonpayable",
      "type": "function"
    },
    {
      "inputs": [
        {
          "internalType": "bytes32",
          "name": "",
          "type": "bytes32"
        }
      ],
      "name": "requestAddresses",
      "outputs": [
        {
          "internalType": "address",
          "name": "",
          "type": "address"
        }
      ],
      "stateMutability": "view",
      "type": "function"
    },
    {
      "inputs": [
        {
          "internalType": "enum SharedStructs.Directions",
          "name": "_travelDirection",
          "type": "uint8"
        },
        {
          "internalType": "enum SharedStructs.Directions",
          "name": "_shotDirection",
          "type": "uint8"
        },
        {
          "internalType": "uint8",
          "name": "gameId",
          "type": "uint8"
        }
      ],
      "name": "revealMove",
      "outputs": [],
      "stateMutability": "nonpayable",
      "type": "function"
    },
    {
      "inputs": [
        {
          "internalType": "uint8",
          "name": "gameId",
          "type": "uint8"
        }
      ],
      "name": "startNewGame",
      "outputs": [],
      "stateMutability": "nonpayable",
      "type": "function"
    },
    {
      "inputs": [
        {
          "internalType": "address",
          "name": "newOwner",
          "type": "address"
        }
      ],
      "name": "transferOwnership",
      "outputs": [],
      "stateMutability": "nonpayable",
      "type": "function"
    },
    {
      "inputs": [
        {
          "components": [
            {
              "internalType": "uint8",
              "name": "q",
              "type": "uint8"
            },
            {
              "internalType": "uint8",
              "name": "r",
              "type": "uint8"
            }
          ],
          "internalType": "struct SharedStructs.Coordinate",
          "name": "_startCell",
          "type": "tuple"
        },
        {
          "internalType": "enum SharedStructs.Directions",
          "name": "_direction",
          "type": "uint8"
        },
        {
          "internalType": "uint8",
          "name": "_distance",
          "type": "uint8"
        },
        {
          "internalType": "uint8",
          "name": "gameId",
          "type": "uint8"
        }
      ],
      "name": "travel",
      "outputs": [],
      "stateMutability": "nonpayable",
      "type": "function"
    },
    {
      "inputs": [
        {
          "internalType": "uint8",
          "name": "gameId",
          "type": "uint8"
        }
      ],
      "name": "updateWorld",
      "outputs": [],
      "stateMutability": "nonpayable",
      "type": "function"
    }
  ],
  "bytecode": "0x60a060405260016004553480156200001657600080fd5b50604051620041fe380380620041fe8339810160408190526200003991620000a8565b620000443362000056565b6001600160a01b0316608052620000da565b600680546001600160a01b038381166001600160a01b0319831681179093556040519116919082907f8be0079c531659141344cd1fd0a4f28419497f9722a3daafe3b4186f6b6457e090600090a35050565b600060208284031215620000bb57600080fd5b81516001600160a01b0381168114620000d357600080fd5b9392505050565b6080516140c26200013c60003960008181610416015281816106f401528181610be501528181610cb501528181610e3f01528181610fe90152818161119601528181611210015281816116a001528181611aa401526129a301526140c26000f3fe608060405234801561001057600080fd5b506004361061012c5760003560e01c8063863375ac116100ad578063cddd99ba11610071578063cddd99ba14610340578063d085a86f14610369578063d08e4b4214610389578063f2fde38b1461039c578063fd870446146103af57600080fd5b8063863375ac146102bc5780638da5cb5b146102cf578063978ac356146102f4578063bf70b4f514610307578063c2939d971461032957600080fd5b80634aac9b8b116100f45780634aac9b8b146102195780634d02388614610239578063508236ca1461028e5780636ed296e4146102a1578063715018a6146102b457600080fd5b8063117a5b90146101315780631cf8a321146101ac5780632923a41f146101c15780632f309686146101d457806334361208146101f4575b600080fd5b61017761013f3660046136a9565b6009602052600090815260409020805460039091015460ff808216916101008104821691620100008204811691630100000090041685565b6040805195865293151560208601529115159284019290925290151560608301521515608082015260a0015b60405180910390f35b6101bf6101ba366004613797565b6103cf565b005b6101bf6101cf3660046137f0565b61050a565b6101e76101e236600461380d565b6105a9565b6040516101a39190613918565b6102076102023660046137f0565b610b92565b60405160ff90911681526020016101a3565b61022c6102273660046137f0565b610c5e565b6040516101a39190613927565b61024c610247366004613984565b610f75565b6040516101a39190600060808201905060ff835116825260ff602084015116602083015260408301511515604083015260608301511515606083015292915050565b6101bf61029c3660046139bc565b611068565b6101bf6102af3660046137f0565b6112b8565b6101bf6113d7565b6101bf6102ca3660046137f0565b6113eb565b6006546001600160a01b03165b6040516001600160a01b0390911681526020016101a3565b6101bf6103023660046137f0565b61147a565b61031a6103153660046139ea565b61288f565b6040516101a393929190613a63565b61033260075481565b6040519081526020016101a3565b6102dc61034e3660046136a9565b600b602052600090815260409020546001600160a01b031681565b61037c610377366004613797565b61293f565b6040516101a39190613a90565b6101bf610397366004613aae565b612a25565b6101bf6103aa3660046139ea565b612be8565b6103c26103bd3660046137f0565b612c61565b6040516101a39190613af5565b60ff8082166000908152600960205260409020600301541615156001146104115760405162461bcd60e51b815260040161040890613b44565b60405180910390fd5b6000807f00000000000000000000000000000000000000000000000000000000000000006001600160a01b0316631cf8a321878787876040518563ffffffff1660e01b81526004016104669493929190613b7b565b606060405180830381865afa158015610483573d6000803e3d6000fd5b505050506040513d601f19601f820116820180604052508101906104a79190613c08565b9150915081156104c0576104bb3384612edb565b610502565b805160ff8481166000908152600960209081526040808320338452600101825290912080549185015183166101000261ffff1990921692909316919091171790555b505050505050565b610512612fac565b60ff80821660009081526009602052604090206003015416151560011461054b5760405162461bcd60e51b815260040161040890613b44565b60ff8116600081815260096020908152604091829020600301805463ff0000001916630100000017905590519182527f1ebf68ad21138befbfae2606983db26dee824ebb69e305add08e5ec40322ebcf91015b60405180910390a150565b6105b161361c565b60ff8085166000908152600960205260409020600301546101009004161580156105f4575060ff8085166000908152600960205260409020600301541615156001145b6106105760405162461bcd60e51b815260040161040890613b44565b60ff80851660009081526009602090815260408083203384526001019091529020541615801590610667575060ff808516600090815260096020908152604080832033845260010190915290205461010090041615155b156106c55760ff8481166000908152600960209081526040808320338085526001909101909252918290205491516308538db760e41b8152600481019190915281831660248201526101009091049091166044820152606401610408565b604080518082019091526000808252602082015260005b6040516342c39d9160e01b815260ff871660048201527f00000000000000000000000000000000000000000000000000000000000000006001600160a01b0316906342c39d919060240160408051808303816000875af1158015610744573d6000803e3d6000fd5b505050506040513d601f19601f820116820180604052508101906107689190613c3c565b91506107ae604051806040016040528060138152602001724e657720726e6420706169722025732c20257360681b815250836000015160ff16846020015160ff16613006565b60005b60ff808816600090815260096020526040902060020154908216101561094d576108556040518060400160405280601781526020017f696e206c6f6f702025732c20616464726573733a2025730000000000000000008152508260ff16600960008b60ff1681526020019081526020016000206002018460ff168154811061083b5761083b613c58565b6000918252602090912001546001600160a01b031661304d565b825160ff888116600090815260096020526040812060028101805494841694600190920193909190861690811061088e5761088e613c58565b60009182526020808320909101546001600160a01b0316835282019290925260400190205460ff1614801561092d575060208084015160ff898116600090815260099093526040832060028101805493831694600190920193919290919086169081106108fd576108fd613c58565b60009182526020808320909101546001600160a01b0316835282019290925260400190205460ff61010090910416145b1561093b576001915061094d565b8061094581613c84565b9150506107b1565b50806106dc57604080516101208101825283815260006020808301828152838501839052606084018390526080840183905260a084018390523360c0850181905260e085018b90526101008086018b905260ff8d81168652600985528786209286526001928301855296909420855180518254919095015194881661ffff19909116179390961690930291909117845551838201805493948594909360ff199190911690836006811115610a0357610a03613842565b0217905550604082015160018201805460ff9092166101000261ff001983168117825560608501519262ff00001990911662ffff00199091161762010000836006811115610a5357610a53613842565b021790555060808201516001808301805460a086015160c08701516001600160a01b0316650100000000000265010000000000600160c81b03199115156401000000000264ff000000001960ff9788166301000000021664ffff0000001990941693909317929092171617905560e08401516002808501919091556101009094015160039093019290925589811660009081526009602090815260408083209095018054948501815582529081902090920180546001600160a01b03191633179055825180840190935260128352714e657720736869702061742025732c20257360701b8383015283518051920151610b50939282169116613006565b60405160ff8816815233907f3138d9d3c5b626eff736a8d5bf07552d9f568087655c46803ee715f424ec1b8e9060200160405180910390a29695505050505050565b60ff8082166000908152600960205260408120600301549091161515600114610bcd5760405162461bcd60e51b815260040161040890613b44565b60405163436fadf360e11b815260ff831660048201527f00000000000000000000000000000000000000000000000000000000000000006001600160a01b0316906386df5be690602401602060405180830381865afa158015610c34573d6000803e3d6000fd5b505050506040513d601f19601f82011682018060405250810190610c589190613ca3565b92915050565b60ff808216600090815260096020526040902060030154606091161515600114610c9a5760405162461bcd60e51b815260040161040890613b44565b60405163436fadf360e11b815260ff831660048201526000907f00000000000000000000000000000000000000000000000000000000000000006001600160a01b0316906386df5be690602401602060405180830381865afa158015610d04573d6000803e3d6000fd5b505050506040513d601f19601f82011682018060405250810190610d289190613ca3565b90506000610d37826001613cc0565b610d42836003613cd9565b610d4c9190613cd9565b610d57906001613cc0565b60ff16905060008167ffffffffffffffff811115610d7757610d776136c2565b604051908082528060200260200182016040528015610dbc57816020015b6040805180820190915260008082526020820152815260200190600190039081610d955790505b50905060405180604001604052808460ff1681526020018460ff1681525081600081518110610ded57610ded613c58565b602090810291909101015260015b8360ff168160ff1611610f6c57600081610e16600182613cf5565b610e21906003613cd9565b610e2b9190613cd9565b610e36906001613cc0565b60ff16905060007f00000000000000000000000000000000000000000000000000000000000000006001600160a01b03166339e5c4a085600081518110610e7f57610e7f613c58565b6020026020010151856040518363ffffffff1660e01b8152600401610ea5929190613d0e565b600060405180830381865afa158015610ec2573d6000803e3d6000fd5b505050506040513d6000823e601f3d908101601f19168201604052610eea9190810190613d3c565b905060005b81518160ff161015610f5657818160ff1681518110610f1057610f10613c58565b6020026020010151858260ff1685610f289190613def565b81518110610f3857610f38613c58565b60200260200101819052508080610f4e90613c84565b915050610eef565b5050508080610f6490613c84565b915050610dfb565b50949350505050565b60408051608081018252600080825260208201819052918101829052606081019190915260ff808316600090815260096020526040902060030154161515600114610fd25760405162461bcd60e51b815260040161040890613b44565b6040516326811c4360e11b81526001600160a01b037f00000000000000000000000000000000000000000000000000000000000000001690634d023886906110209086908690600401613d0e565b608060405180830381865afa15801561103d573d6000803e3d6000fd5b505050506040513d601f19601f820116820180604052508101906110619190613e02565b9392505050565b611070612fac565b60ff8082166000908152600960205260409020600301541615156001146110a95760405162461bcd60e51b815260040161040890613b44565b60005b60ff82166000908152600960205260409020600201548110156111545760ff8216600090815260096020526040812060028101805460019092019291849081106110f8576110f8613c58565b60009182526020808320909101546001600160a01b031683528201929092526040018120805461ffff191681556001810180546001600160c81b031916905560028101829055600301558061114c81613e83565b9150506110ac565b5060ff8116600090815260096020526040812061117691600290910190613677565b604051631a405d8760e31b815260ff8084166004830152821660248201527f00000000000000000000000000000000000000000000000000000000000000006001600160a01b03169063d202ec3890604401600060405180830381600087803b1580156111e257600080fd5b505af11580156111f6573d6000803e3d6000fd5b50506040516318068d3760e01b815260ff841660048201527f00000000000000000000000000000000000000000000000000000000000000006001600160a01b031692506318068d379150602401600060405180830381600087803b15801561125e57600080fd5b505af1158015611272573d6000803e3d6000fd5b50506040805160ff8087168252851660208201527fd76a0a97b7d547fef69b0cd90fb02087b761703ae2b5e4e91a99e8fd17e308ad935001905060405180910390a15050565b6112c0612fac565b60ff8160ff16106113135760405162461bcd60e51b815260206004820152601f60248201527f4d6178696d756d206e756d626572206f662067616d65732072656163686564006044820152606401610408565b60ff80821660009081526009602052604090206003015416156113865760405162461bcd60e51b815260206004820152602560248201527f47616d652077697468207468697320494420616c726561647920696e2070726f604482015264677265737360d81b6064820152608401610408565b60ff8116600081815260096020908152604091829020600301805460ff1916600117905590519182527f13cb55fc1bec4b9f4cd4c22f154240b469cb108a23a35aa599df0c3da46f2d14910161059e565b6113df612fac565b6113e96000613094565b565b6113f3612fac565b60ff80821660009081526009602052604090206003015416151560011461142c5760405162461bcd60e51b815260040161040890613b44565b60ff8116600081815260096020908152604091829020600301805460ff1916905590519182527f4df34531b3f238bc8f90ad83236d8c752e7444e434bb5fc99f888f0a6345c0e7910161059e565b611482612fac565b60ff8082166000908152600960205260409020600301541615156001146114bb5760405162461bcd60e51b815260040161040890613b44565b60ff811660009081526009602052604081206002015467ffffffffffffffff8111156114e9576114e96136c2565b60405190808252806020026020018201604052801561152e57816020015b60408051808201909152600080825260208201528152602001906001900390816115075790505b5060ff83166000908152600960205260408120600201549192509067ffffffffffffffff811115611561576115616136c2565b60405190808252806020026020018201604052801561158a578160200160208202803683370190505b50905060005b60ff80851660009081526009602052604090206002015490821610156115e9576001828260ff16815181106115c7576115c7613c58565b91151560209283029190910190910152806115e181613c84565b915050611590565b5060005b60ff8085166000908152600960205260409020600201549082161015611a395760ff8085166000908152600960205260408120600281018054600190920193909190851690811061164057611640613c58565b60009182526020808320909101546001600160a01b0316835282019290925260400190206001015460ff6401000000009091041615611a275760ff8085166000908152600960205260408120600281018054929384936001600160a01b037f00000000000000000000000000000000000000000000000000000000000000001693631cf8a3219360019091019286929089169081106116e1576116e1613c58565b60009182526020808320909101546001600160a01b03168352828101939093526040918201812060ff808d168352600990945291812060028101805493946001929092019390918a1690811061173957611739613c58565b60009182526020808320909101546001600160a01b03168352828101939093526040918201812060019081015460ff8e811684526009909552928220600281018054948616959190920193908b1690811061179657611796613c58565b60009182526020808320909101546001600160a01b0316835282019290925260409081019091206001015490516001600160e01b031960e086901b1681526117ee93929160ff61010090910416908c90600401613e9c565b606060405180830381865afa15801561180b573d6000803e3d6000fd5b505050506040513d601f19601f8201168201806040525081019061182f9190613c08565b91509150811561191c5760ff8087166000908152600960205260409020600201805461188292861690811061186657611866613c58565b6000918252602090912001546001600160a01b031684886130e6565b6000848460ff168151811061189957611899613c58565b602002602001019015159081151581525050600960008760ff1681526020019081526020016000206002018360ff16815481106118d8576118d8613c58565b60009182526020822001546040516001600160a01b03909116917fc9d98a36ffe0495d3a50a0bac4845433395c60e4b8e8d58a5e948f4b5011418e91a25050611a27565b60ff8087166000908152600960205260408120600281018054859460019093019392881690811061194f5761194f613c58565b60009182526020808320909101546001600160a01b031683528281019390935260409182018120845181549585015160ff9081166101000261ffff19909716918116919091179590951790558984168152600990925290206002018054909185169081106119bf576119bf613c58565b600091825260209182902001548251918301516040516001600160a01b03909216927ff3758096c44bcc832b837f76e2a02b432740f9c56f41e6b238aa673ca9355e5092611a1c929060ff92831681529116602082015260400190565b60405180910390a250505b80611a3181613c84565b9150506115ed565b5060005b60ff8085166000908152600960205260409020600201549082161015611d0157818160ff1681518110611a7257611a72613c58565b602002602001015115611cef5760ff808516600090815260096020526040812060028101805492936001600160a01b037f0000000000000000000000000000000000000000000000000000000000000000169363d6192ad3936001019286929091908816908110611ae557611ae5613c58565b60009182526020808320909101546001600160a01b03168352828101939093526040918201812060ff808c168352600990945291812060028101805493946001929092019390918916908110611b3d57611b3d613c58565b60009182526020808320909101546001600160a01b03168352828101939093526040918201812060019081015460ff8d811684526009909552928220600281018054620100009095048616959190920193908a16908110611ba057611ba0613c58565b60009182526020808320909101546001600160a01b0316835282019290925260409081019091206001015490516001600160e01b031960e086901b168152611bf893929160ff63010000009091041690600401613eba565b6040805180830381865afa158015611c14573d6000803e3d6000fd5b505050506040513d601f19601f82011682018060405250810190611c389190613c3c565b905080848360ff1681518110611c5057611c50613c58565b6020026020010181905250600960008660ff1681526020019081526020016000206002018260ff1681548110611c8857611c88613c58565b600091825260209182902001548251918301516040516001600160a01b03909216927f7f1b3d59a1d73150652f33f7a7016f0fff7ef8e824e5b6a436717673b484a8a792611ce5929060ff92831681529116602082015260400190565b60405180910390a2505b80611cf981613c84565b915050611a3d565b5060005b60ff808516600090815260096020526040902060020154908216101561231b5760005b60ff8086166000908152600960205260409020600201549082161015612308578060ff168260ff16146122f657828260ff1681518110611d6a57611d6a613c58565b60200260200101518015611d975750828160ff1681518110611d8e57611d8e613c58565b60200260200101515b8015611e56575060ff80861660009081526009602052604081206002810180546001909201939091908616908110611dd157611dd1613c58565b60009182526020808320909101546001600160a01b0316835282810193909352604091820181205460ff89811683526009909452918120600281018054938516946001929092019390918616908110611e2c57611e2c613c58565b60009182526020808320909101546001600160a01b0316835282019290925260400190205460ff16145b8015611f20575060ff80861660009081526009602052604081206002810180546001909201939091908616908110611e9057611e90613c58565b60009182526020808320909101546001600160a01b0316835282810193909352604091820181205460ff898116835260099094529181206002810180546101009094048516946001929092019390918616908110611ef057611ef0613c58565b60009182526020808320909101546001600160a01b0316835282019290925260400190205460ff61010090910416145b156120dc576000838360ff1681518110611f3c57611f3c613c58565b6020026020010190151590811515815250506000838260ff1681518110611f6557611f65613c58565b91151560209283029190910182015260ff8087166000908152600990925260409091206002018054611fbe928516908110611fa257611fa2613c58565b6000918252602090912001546001600160a01b031683876130e6565b60ff80861660009081526009602052604090206002018054612007928416908110611feb57611feb613c58565b6000918252602090912001546001600160a01b031682876130e6565b600960008660ff1681526020019081526020016000206002018260ff168154811061203457612034613c58565b60009182526020822001546040516001600160a01b03909116917ff6efc0f0f7270e6470ae421c2c220a2930f349c2e85e2cff70701cb5ee7b1de291a2600960008660ff1681526020019081526020016000206002018160ff168154811061209e5761209e613c58565b60009182526020822001546040516001600160a01b03909116917ff6efc0f0f7270e6470ae421c2c220a2930f349c2e85e2cff70701cb5ee7b1de291a25b828260ff16815181106120f1576120f1613c58565b60200260200101518015612185575060ff8086166000908152600960205260408120600281018054600190920193909190861690811061213357612133613c58565b60009182526020808320909101546001600160a01b03168352820192909252604001902054845160ff91821691869190841690811061217457612174613c58565b60200260200101516000015160ff16145b8015612216575060ff808616600090815260096020526040812060028101805460019092019390919086169081106121bf576121bf613c58565b60009182526020808320909101546001600160a01b03168352820192909252604001902054845160ff610100909204821691869190841690811061220557612205613c58565b60200260200101516020015160ff16145b156122f65760ff80861660009081526009602052604090206002018054612248928516908110611fa257611fa2613c58565b600960008660ff1681526020019081526020016000206002018160ff168154811061227557612275613c58565b600091825260208083209091015460ff80891684526009909252604090922060020180546001600160a01b0390931692909185169081106122b8576122b8613c58565b60009182526020822001546040516001600160a01b03909116917f702e79c3c668b5e07dd82bee771df58a589de806961a825fe169e324ceec57d791a35b8061230081613c84565b915050611d28565b508061231381613c84565b915050611d05565b5060005b60ff80851660009081526009602052604090206002015490821610156124a85760006001600160a01b0316600960008660ff1681526020019081526020016000206002018260ff168154811061237757612377613c58565b6000918252602090912001546001600160a01b0316036124965760ff8416600090815260096020526040902060020180546123b490600190613ef2565b815481106123c4576123c4613c58565b9060005260206000200160009054906101000a90046001600160a01b0316600960008660ff1681526020019081526020016000206002018260ff168154811061240f5761240f613c58565b600091825260208083209190910180546001600160a01b0319166001600160a01b03949094169390931790925560ff8616815260099091526040902060020180548061245d5761245d613f05565b600082815260209020810160001990810180546001600160a01b031916905501905560ff811615612496578061249281613f1b565b9150505b806124a081613c84565b91505061231f565b5060ff8316600090815260096020526040812060020154900361253f577fb609981dd10c4309ee2f55e2fd9b631438fb9d9de43270f098b64571e58352db604051612510906020808252600990820152682737903bb4b73732b960b91b604082015260600190565b60405180910390a160ff83166000908152600960205260409020600301805461ff001916610100179055505050565b60ff83166000908152600960205260409020600201546001036125ea5760ff8316600090815260096020526040812060020180547fb609981dd10c4309ee2f55e2fd9b631438fb9d9de43270f098b64571e58352db926125c092916125a6576125a6613c58565b6000918252602090912001546001600160a01b0316613264565b6040516020016125d09190613f38565b60408051601f198184030181529082905261251091613f74565b60ff83166000908152600960205260408120600201805490919061261057612610613c58565b60009182526020822001546040516001600160a01b0390911691907f71c863affc60bf856f78adf835c2f8d43a35f214dc51c98e8b9953560f30bf82908290a360005b60ff80851660009081526009602052604090206002015490821610156128685760ff80851660009081526009602052604081206002810180546006946001909301939286169081106126a7576126a7613c58565b60009182526020808320909101546001600160a01b03168352820192909252604001902060019081018054909160ff19909116908360068111156126ed576126ed613842565b021790555060ff808516600090815260096020526040812060028101805492936001909201928492861690811061272657612726613c58565b6000918252602080832091909101546001600160a01b0316835282810193909352604091820181206001908101805461ff00191661010060ff978816021790558885168252600990935290812060028101805460069592909401939091861690811061279457612794613c58565b60009182526020808320909101546001600160a01b031683528201929092526040019020600101805462ff00001916620100008360068111156127d9576127d9613842565b021790555060ff808516600090815260096020526040812060028101805492936001909201928492861690811061281257612812613c58565b60009182526020808320909101546001600160a01b031683528201929092526040019020600101805460ff9290921663010000000263ff000000199092169190911790558061286081613c84565b915050612653565b5060ff83166000908152600960205260409020600301805463ff000000191690555b505050565b600a602052600090815260409020805481906128aa90613f87565b80601f01602080910402602001604051908101604052809291908181526020018280546128d690613f87565b80156129235780601f106128f857610100808354040283529160200191612923565b820191906000526020600020905b81548152906001019060200180831161290657829003601f168201915b5050506001909301549192505060ff8082169161010090041683565b604080518082019091526000808252602082015260ff80831660009081526009602052604090206003015416151560011461298c5760405162461bcd60e51b815260040161040890613b44565b604051630d42527560e11b81526001600160a01b037f00000000000000000000000000000000000000000000000000000000000000001690631a84a4ea906129dc90889088908890600401613fc1565b6040805180830381865afa1580156129f8573d6000803e3d6000fd5b505050506040513d601f19601f82011682018060405250810190612a1c9190613c3c565b95945050505050565b60ff81811660009081526009602052604090206003015463010000009004161515600114612a9f5760405162461bcd60e51b815260206004820152602160248201527f5375626d6974206d6f76657320686173206e6f742073746172746564207965746044820152602160f81b6064820152608401610408565b60ff808216600090815260096020526040902060030154161515600114612ad85760405162461bcd60e51b815260040161040890613b44565b60ff8116600090815260096020908152604080832033845260010190915281206002810154909190612b099061329c565b9050848260010160006101000a81548160ff02191690836006811115612b3157612b31613842565b021790555060018201805461ff00191661010060ff8416021790556003820154600090612b5d906132e8565b600184018054919250869162ff0000191662010000836006811115612b8457612b84613842565b021790555060018301805464ff000000001960ff84166301000000021664ffff000000199091161764010000000017905560405133907f63563f18a7ee7809189f125844fc3e755b5d0f355be5c5928a54ca925dcd576b90600090a2505050505050565b612bf0612fac565b6001600160a01b038116612c555760405162461bcd60e51b815260206004820152602660248201527f4f776e61626c653a206e6577206f776e657220697320746865207a65726f206160448201526564647265737360d01b6064820152608401610408565b612c5e81613094565b50565b60ff808216600090815260096020526040902060030154606091161515600114612c9d5760405162461bcd60e51b815260040161040890613b44565b60ff821660009081526009602052604081206002015467ffffffffffffffff811115612ccb57612ccb6136c2565b604051908082528060200260200182016040528015612d0457816020015b612cf161361c565b815260200190600190039081612ce95790505b509050612d386040518060400160405280601081526020016f52657472696576696e6720736869707360801b81525061331f565b60005b60ff8416600090815260096020526040902060020154811015612ed45760ff841660009081526009602052604081206002810180546001909201929184908110612d8757612d87613c58565b60009182526020808320909101546001600160a01b03168352828101939093526040918201902081516101608101909252805460ff8082166101208501908152610100909204811661014085015290835260018201549293919291840191166006811115612df757612df7613842565b6006811115612e0857612e08613842565b8152600182015460ff61010082048116602084015260409092019162010000909104166006811115612e3c57612e3c613842565b6006811115612e4d57612e4d613842565b8152600182015460ff6301000000820481166020840152640100000000820416151560408301526001600160a01b03650100000000009091041660608201526002820154608082015260039091015460a0909101528251839083908110612eb657612eb6613c58565b60200260200101819052508080612ecc90613e83565b915050612d3b565b5092915050565b60ff808216600090815260096020526040902060030154161515600114612f145760405162461bcd60e51b815260040161040890613b44565b6000805b60ff8084166000908152600960205260409020600201549082161015612fa05760ff808416600090815260096020526040902060020180546001600160a01b038716928416908110612f6c57612f6c613c58565b6000918252602090912001546001600160a01b031603612f8e57809150612fa0565b80612f9881613c84565b915050612f18565b5061288a8382846130e6565b6006546001600160a01b031633146113e95760405162461bcd60e51b815260206004820181905260248201527f4f776e61626c653a2063616c6c6572206973206e6f7420746865206f776e65726044820152606401610408565b61288a83838360405160240161301e93929190613fdf565b60408051601f198184030181529190526020810180516001600160e01b031663ca47c4eb60e01b17905261335e565b61288a83838360405160240161306593929190614004565b60408051601f198184030181529190526020810180516001600160e01b031663038fd88960e31b17905261335e565b600680546001600160a01b038381166001600160a01b0319831681179093556040519116919082907f8be0079c531659141344cd1fd0a4f28419497f9722a3daafe3b4186f6b6457e090600090a35050565b60ff8082166000908152600960205260409020600201549083161061314d5760405162461bcd60e51b815260206004820152601860248201527f496e6465782076616c7565206f7574206f662072616e676500000000000000006044820152606401610408565b60ff8082166000908152600960205260409020600301541615156001146131865760405162461bcd60e51b815260040161040890613b44565b6040516001600160a01b038416907fce0e3c7f8595684f9560df3c82cb81a6c5a649fcf1bdc96b2dc8b7bf228d650090600090a260ff80821660008181526009602081815260408084206001600160a01b038a16855260018082018452918520805461ffff1916815591820180546001600160c81b03191690556002808301869055600390920185905594845291905290910180549192909190851690811061323157613231613c58565b9060005260206000200160006101000a8154816001600160a01b0302191690836001600160a01b03160217905550505050565b604051606082811b6bffffffffffffffffffffffff1916602083015290610c589060340160405160208183030381529060405261337f565b6000806132a7613598565b905060006132d3826132ba866003614037565b6132c49190614037565b68055de6a779bbac00006135f9565b90506003811115611061575060039392505050565b6000806132f3613598565b905060006132d382613306866003614037565b6133109190614037565b68056bc75e2d631000006135f9565b612c5e816040516024016133339190613f74565b60408051601f198184030181529190526020810180516001600160e01b031663104c13eb60e21b1790525b80516a636f6e736f6c652e6c6f67602083016000808483855afa5050505050565b60408051808201909152601081526f181899199a1a9b1b9c1cb0b131b232b360811b60208201528151606091906000906133ba906002614037565b6133c5906002613def565b67ffffffffffffffff8111156133dd576133dd6136c2565b6040519080825280601f01601f191660200182016040528015613407576020820181803683370190505b509050600360fc1b8160008151811061342257613422613c58565b60200101906001600160f81b031916908160001a905350600f60fb1b8160018151811061345157613451613c58565b60200101906001600160f81b031916908160001a90535060005b84518110156135905782600486838151811061348957613489613c58565b016020015182516001600160f81b031990911690911c60f81c9081106134b1576134b1613c58565b01602001516001600160f81b031916826134cc836002614037565b6134d7906002613def565b815181106134e7576134e7613c58565b60200101906001600160f81b031916908160001a9053508285828151811061351157613511613c58565b602091010151815160f89190911c600f1690811061353157613531613c58565b01602001516001600160f81b0319168261354c836002614037565b613557906003613def565b8151811061356757613567613c58565b60200101906001600160f81b031916908160001a9053508061358881613e83565b91505061346b565b509392505050565b6000670de0b6b3a764000043336040516020016135d192919091825260601b6bffffffffffffffffffffffff1916602082015260340190565b6040516020818303038152906040528051906020012060001c6135f49190614064565b905090565b60008160016136088286613def565b6136129190613ef2565b6110619190614078565b6040805161016081018252600061012082018181526101408301829052825260208201819052918101829052606081018290526080810182905260a0810182905260c0810182905260e0810182905261010081019190915290565b5080546000825590600052602060002090810190612c5e91905b808211156136a55760008155600101613691565b5090565b6000602082840312156136bb57600080fd5b5035919050565b634e487b7160e01b600052604160045260246000fd5b6040805190810167ffffffffffffffff811182821017156136fb576136fb6136c2565b60405290565b604051601f8201601f1916810167ffffffffffffffff8111828210171561372a5761372a6136c2565b604052919050565b60ff81168114612c5e57600080fd5b60006040828403121561375357600080fd5b61375b6136d8565b9050813561376881613732565b8152602082013561377881613732565b602082015292915050565b80356007811061379257600080fd5b919050565b60008060008060a085870312156137ad57600080fd5b6137b78686613741565b93506137c560408601613783565b925060608501356137d581613732565b915060808501356137e581613732565b939692955090935050565b60006020828403121561380257600080fd5b813561106181613732565b60008060006060848603121561382257600080fd5b833561382d81613732565b95602085013595506040909401359392505050565b634e487b7160e01b600052602160045260246000fd5b6007811061387657634e487b7160e01b600052602160045260246000fd5b9052565b613895828251805160ff908116835260209182015116910152565b60208101516138a76040840182613858565b5060ff604082015116606083015260608101516138c76080840182613858565b5060ff60808201511660a083015260a08101516138e860c084018215159052565b5060c08101516001600160a01b03811660e08401525060e081015161010083810191909152015161012090910152565b6101408101610c58828461387a565b602080825282518282018190526000919060409081850190868401855b8281101561397757613967848351805160ff908116835260209182015116910152565b9284019290850190600101613944565b5091979650505050505050565b6000806060838503121561399757600080fd5b6139a18484613741565b915060408301356139b181613732565b809150509250929050565b600080604083850312156139cf57600080fd5b82356139da81613732565b915060208301356139b181613732565b6000602082840312156139fc57600080fd5b81356001600160a01b038116811461106157600080fd5b60005b83811015613a2e578181015183820152602001613a16565b50506000910152565b60008151808452613a4f816020860160208601613a13565b601f01601f19169290920160200192915050565b606081526000613a766060830186613a37565b60ff94851660208401529290931660409091015292915050565b60408101610c588284805160ff908116835260209182015116910152565b600080600060608486031215613ac357600080fd5b613acc84613783565b9250613ada60208501613783565b91506040840135613aea81613732565b809150509250925092565b6020808252825182820181905260009190848201906040850190845b81811015613b3857613b2483855161387a565b928401926101409290920191600101613b11565b50909695505050505050565b60208082526019908201527f47616d6520686173206e6f742073746172746564207965742100000000000000604082015260600190565b60a08101613b998287805160ff908116835260209182015116910152565b613ba66040830186613858565b60ff8416606083015260ff8316608083015295945050505050565b8051801515811461379257600080fd5b600060408284031215613be357600080fd5b613beb6136d8565b90508151613bf881613732565b8152602082015161377881613732565b60008060608385031215613c1b57600080fd5b613c2483613bc1565b9150613c338460208501613bd1565b90509250929050565b600060408284031215613c4e57600080fd5b6110618383613bd1565b634e487b7160e01b600052603260045260246000fd5b634e487b7160e01b600052601160045260246000fd5b600060ff821660ff8103613c9a57613c9a613c6e565b60010192915050565b600060208284031215613cb557600080fd5b815161106181613732565b60ff8181168382160190811115610c5857610c58613c6e565b60ff8181168382160290811690818114612ed457612ed4613c6e565b60ff8281168282160390811115610c5857610c58613c6e565b60608101613d2c8285805160ff908116835260209182015116910152565b60ff831660408301529392505050565b60006020808385031215613d4f57600080fd5b825167ffffffffffffffff80821115613d6757600080fd5b818501915085601f830112613d7b57600080fd5b815181811115613d8d57613d8d6136c2565b613d9b848260051b01613701565b818152848101925060069190911b830184019087821115613dbb57600080fd5b928401925b81841015613de457613dd28885613bd1565b83528483019250604084019350613dc0565b979650505050505050565b80820180821115610c5857610c58613c6e565b600060808284031215613e1457600080fd5b6040516080810181811067ffffffffffffffff82111715613e3757613e376136c2565b6040528251613e4581613732565b81526020830151613e5581613732565b6020820152613e6660408401613bc1565b6040820152613e7760608401613bc1565b60608201529392505050565b600060018201613e9557613e95613c6e565b5060010190565b845460ff808216835260089190911c16602082015260a08101613b99565b835460ff808216835260089190911c166020820152608081015b613ee16040830185613858565b60ff83166060830152949350505050565b81810381811115610c5857610c58613c6e565b634e487b7160e01b600052603160045260246000fd5b600060ff821680613f2e57613f2e613c6e565b6000190192915050565b7302a34329023b0b6b2903bb4b73732b91034b99d160651b815260008251613f67816014850160208701613a13565b9190910160140192915050565b6020815260006110616020830184613a37565b600181811c90821680613f9b57607f821691505b602082108103613fbb57634e487b7160e01b600052602260045260246000fd5b50919050565b60808101613ed48286805160ff908116835260209182015116910152565b606081526000613ff26060830186613a37565b60208301949094525060400152919050565b6060815260006140176060830186613a37565b6020830194909452506001600160a01b0391909116604090910152919050565b8082028115828204841417610c5857610c58613c6e565b634e487b7160e01b600052601260045260246000fd5b6000826140735761407361404e565b500690565b6000826140875761408761404e565b50049056fea26469706673582212202f2aa56f1585d27f5e0136613a8513a9fdd1b1f677bed74d6f699cc28053707964736f6c63430008120033",
  "linkReferences": {},
  "deployedLinkReferences": {}
}