{
  "_format": "hh-sol-artifact-1",
  "contractName": "GamePunk",
  "sourceName": "contracts/GamePunk.sol",
  "abi": [
    {
      "inputs": [
        {
          "internalType": "address",
          "name": "_mapAddress",
          "type": "address"
        }
      ],
      "stateMutability": "nonpayable",
      "type": "constructor"
    },
    {
      "inputs": [
        {
          "internalType": "address",
          "name": "player",
          "type": "address"
        },
        {
          "internalType": "uint8",
          "name": "q",
          "type": "uint8"
        },
        {
          "internalType": "uint8",
          "name": "r",
          "type": "uint8"
        }
      ],
      "name": "ShipAlreadyAdded",
      "type": "error"
    },
    {
      "anonymous": false,
      "inputs": [
        {
          "indexed": false,
          "internalType": "uint8",
          "name": "gameId",
          "type": "uint8"
        }
      ],
      "name": "CommitPhaseStarted",
      "type": "event"
    },
    {
      "anonymous": false,
      "inputs": [
        {
          "indexed": false,
          "internalType": "uint8",
          "name": "gameId",
          "type": "uint8"
        }
      ],
      "name": "GameEnded",
      "type": "event"
    },
    {
      "anonymous": false,
      "inputs": [
        {
          "indexed": false,
          "internalType": "uint8",
          "name": "gameId",
          "type": "uint8"
        }
      ],
      "name": "GameStarted",
      "type": "event"
    },
    {
      "anonymous": false,
      "inputs": [
        {
          "indexed": true,
          "internalType": "bool",
          "name": "gameStatus",
          "type": "bool"
        },
        {
          "indexed": true,
          "internalType": "address",
          "name": "winnerAddress",
          "type": "address"
        },
        {
          "indexed": false,
          "internalType": "uint8",
          "name": "gameId",
          "type": "uint8"
        }
      ],
      "name": "GameUpdated",
      "type": "event"
    },
    {
      "anonymous": false,
      "inputs": [
        {
          "indexed": false,
          "internalType": "string",
          "name": "gameWinner",
          "type": "string"
        },
        {
          "indexed": false,
          "internalType": "uint8",
          "name": "gameId",
          "type": "uint8"
        }
      ],
      "name": "GameWinner",
      "type": "event"
    },
    {
      "anonymous": false,
      "inputs": [
        {
          "indexed": false,
          "internalType": "uint8",
          "name": "radius",
          "type": "uint8"
        },
        {
          "indexed": false,
          "internalType": "uint8",
          "name": "gameId",
          "type": "uint8"
        }
      ],
      "name": "MapInitialized",
      "type": "event"
    },
    {
      "anonymous": false,
      "inputs": [
        {
          "indexed": false,
          "internalType": "uint8",
          "name": "gameId",
          "type": "uint8"
        }
      ],
      "name": "MapShrink",
      "type": "event"
    },
    {
      "anonymous": false,
      "inputs": [
        {
          "indexed": true,
          "internalType": "address",
          "name": "player",
          "type": "address"
        },
        {
          "indexed": false,
          "internalType": "uint8",
          "name": "gameId",
          "type": "uint8"
        }
      ],
      "name": "MoveCommitted",
      "type": "event"
    },
    {
      "anonymous": false,
      "inputs": [
        {
          "indexed": true,
          "internalType": "address",
          "name": "player",
          "type": "address"
        },
        {
          "indexed": false,
          "internalType": "uint8",
          "name": "gameId",
          "type": "uint8"
        }
      ],
      "name": "MoveSubmitted",
      "type": "event"
    },
    {
      "anonymous": false,
      "inputs": [
        {
          "indexed": true,
          "internalType": "address",
          "name": "previousOwner",
          "type": "address"
        },
        {
          "indexed": true,
          "internalType": "address",
          "name": "newOwner",
          "type": "address"
        }
      ],
      "name": "OwnershipTransferred",
      "type": "event"
    },
    {
      "anonymous": false,
      "inputs": [
        {
          "indexed": true,
          "internalType": "address",
          "name": "player",
          "type": "address"
        },
        {
          "indexed": false,
          "internalType": "uint8",
          "name": "gameId",
          "type": "uint8"
        }
      ],
      "name": "PlayerAdded",
      "type": "event"
    },
    {
      "anonymous": false,
      "inputs": [
        {
          "indexed": true,
          "internalType": "address",
          "name": "player",
          "type": "address"
        },
        {
          "indexed": false,
          "internalType": "uint8",
          "name": "gameId",
          "type": "uint8"
        }
      ],
      "name": "PlayerDefeated",
      "type": "event"
    },
    {
      "anonymous": false,
      "inputs": [
        {
          "indexed": true,
          "internalType": "address",
          "name": "captain",
          "type": "address"
        },
        {
          "indexed": false,
          "internalType": "uint8",
          "name": "gameId",
          "type": "uint8"
        }
      ],
      "name": "ShipCollidedWithIsland",
      "type": "event"
    },
    {
      "anonymous": false,
      "inputs": [
        {
          "indexed": true,
          "internalType": "address",
          "name": "victim",
          "type": "address"
        },
        {
          "indexed": true,
          "internalType": "address",
          "name": "attacker",
          "type": "address"
        },
        {
          "indexed": false,
          "internalType": "uint8",
          "name": "gameId",
          "type": "uint8"
        }
      ],
      "name": "ShipHit",
      "type": "event"
    },
    {
      "anonymous": false,
      "inputs": [
        {
          "indexed": true,
          "internalType": "address",
          "name": "captain",
          "type": "address"
        },
        {
          "indexed": false,
          "internalType": "uint8",
          "name": "initialQ",
          "type": "uint8"
        },
        {
          "indexed": false,
          "internalType": "uint8",
          "name": "initialR",
          "type": "uint8"
        },
        {
          "indexed": false,
          "internalType": "uint8",
          "name": "q",
          "type": "uint8"
        },
        {
          "indexed": false,
          "internalType": "uint8",
          "name": "r",
          "type": "uint8"
        },
        {
          "indexed": false,
          "internalType": "uint8",
          "name": "gameId",
          "type": "uint8"
        }
      ],
      "name": "ShipMoved",
      "type": "event"
    },
    {
      "anonymous": false,
      "inputs": [
        {
          "indexed": true,
          "internalType": "address",
          "name": "captain",
          "type": "address"
        },
        {
          "indexed": false,
          "internalType": "uint8",
          "name": "gameId",
          "type": "uint8"
        }
      ],
      "name": "ShipMovedInGame",
      "type": "event"
    },
    {
      "anonymous": false,
      "inputs": [
        {
          "indexed": true,
          "internalType": "address",
          "name": "captain",
          "type": "address"
        },
        {
          "indexed": false,
          "internalType": "uint8",
          "name": "fromQ",
          "type": "uint8"
        },
        {
          "indexed": false,
          "internalType": "uint8",
          "name": "fromR",
          "type": "uint8"
        },
        {
          "indexed": false,
          "internalType": "uint8",
          "name": "shotQ",
          "type": "uint8"
        },
        {
          "indexed": false,
          "internalType": "uint8",
          "name": "shotR",
          "type": "uint8"
        },
        {
          "indexed": false,
          "internalType": "uint8",
          "name": "gameId",
          "type": "uint8"
        }
      ],
      "name": "ShipShot",
      "type": "event"
    },
    {
      "anonymous": false,
      "inputs": [
        {
          "indexed": true,
          "internalType": "address",
          "name": "captain",
          "type": "address"
        },
        {
          "indexed": false,
          "internalType": "uint8",
          "name": "gameId",
          "type": "uint8"
        }
      ],
      "name": "ShipSunk",
      "type": "event"
    },
    {
      "anonymous": false,
      "inputs": [
        {
          "indexed": true,
          "internalType": "address",
          "name": "captain",
          "type": "address"
        },
        {
          "indexed": false,
          "internalType": "uint8",
          "name": "gameId",
          "type": "uint8"
        }
      ],
      "name": "ShipSunkOutOfMap",
      "type": "event"
    },
    {
      "anonymous": false,
      "inputs": [
        {
          "indexed": false,
          "internalType": "uint8",
          "name": "gameId",
          "type": "uint8"
        },
        {
          "indexed": false,
          "internalType": "uint256",
          "name": "round",
          "type": "uint256"
        }
      ],
      "name": "SubmitPhaseStarted",
      "type": "event"
    },
    {
      "anonymous": false,
      "inputs": [
        {
          "indexed": false,
          "internalType": "uint8",
          "name": "gameId",
          "type": "uint8"
        }
      ],
      "name": "WorldUpdated",
      "type": "event"
    },
    {
      "inputs": [
        {
          "internalType": "address",
          "name": "playerAddress",
          "type": "address"
        },
        {
          "internalType": "uint8",
          "name": "gameId",
          "type": "uint8"
        },
        {
          "internalType": "uint8",
          "name": "_speed",
          "type": "uint8"
        },
        {
          "internalType": "uint8",
          "name": "_range",
          "type": "uint8"
        }
      ],
      "name": "addShip",
      "outputs": [
        {
          "components": [
            {
              "components": [
                {
                  "internalType": "uint8",
                  "name": "q",
                  "type": "uint8"
                },
                {
                  "internalType": "uint8",
                  "name": "r",
                  "type": "uint8"
                }
              ],
              "internalType": "struct SharedStructs.Coordinate",
              "name": "coordinate",
              "type": "tuple"
            },
            {
              "internalType": "enum SharedStructs.Directions",
              "name": "travelDirection",
              "type": "uint8"
            },
            {
              "internalType": "uint8",
              "name": "travelDistance",
              "type": "uint8"
            },
            {
              "internalType": "enum SharedStructs.Directions",
              "name": "shotDirection",
              "type": "uint8"
            },
            {
              "internalType": "uint8",
              "name": "shotDistance",
              "type": "uint8"
            },
            {
              "internalType": "bool",
              "name": "publishedMove",
              "type": "bool"
            },
            {
              "internalType": "address",
              "name": "captain",
              "type": "address"
            },
            {
              "internalType": "uint8",
              "name": "yachtSpeed",
              "type": "uint8"
            },
            {
              "internalType": "uint8",
              "name": "yachtRange",
              "type": "uint8"
            }
          ],
          "internalType": "struct GamePunk.Ship",
          "name": "",
          "type": "tuple"
        }
      ],
      "stateMutability": "nonpayable",
      "type": "function"
    },
    {
      "inputs": [
        {
          "internalType": "uint8",
          "name": "gameId",
          "type": "uint8"
        }
      ],
      "name": "allowSubmitMoves",
      "outputs": [],
      "stateMutability": "nonpayable",
      "type": "function"
    },
    {
      "inputs": [
        {
          "internalType": "uint8",
          "name": "gameId",
          "type": "uint8"
        }
      ],
      "name": "endGame",
      "outputs": [],
      "stateMutability": "nonpayable",
      "type": "function"
    },
    {
      "inputs": [
        {
          "internalType": "uint256",
          "name": "",
          "type": "uint256"
        }
      ],
      "name": "games",
      "outputs": [
        {
          "internalType": "uint256",
          "name": "round",
          "type": "uint256"
        },
        {
          "internalType": "uint8",
          "name": "shrinkNo",
          "type": "uint8"
        },
        {
          "internalType": "bool",
          "name": "gameInProgress",
          "type": "bool"
        },
        {
          "internalType": "bool",
          "name": "stopAddingShips",
          "type": "bool"
        },
        {
          "internalType": "bool",
          "name": "letCommitMoves",
          "type": "bool"
        },
        {
          "internalType": "bool",
          "name": "letSubmitMoves",
          "type": "bool"
        }
      ],
      "stateMutability": "view",
      "type": "function"
    },
    {
      "inputs": [
        {
          "components": [
            {
              "internalType": "uint8",
              "name": "q",
              "type": "uint8"
            },
            {
              "internalType": "uint8",
              "name": "r",
              "type": "uint8"
            }
          ],
          "internalType": "struct SharedStructs.Coordinate",
          "name": "_coord",
          "type": "tuple"
        },
        {
          "internalType": "uint8",
          "name": "gameId",
          "type": "uint8"
        }
      ],
      "name": "getCell",
      "outputs": [
        {
          "components": [
            {
              "internalType": "uint8",
              "name": "q",
              "type": "uint8"
            },
            {
              "internalType": "uint8",
              "name": "r",
              "type": "uint8"
            },
            {
              "internalType": "bool",
              "name": "island",
              "type": "bool"
            },
            {
              "internalType": "bool",
              "name": "exists",
              "type": "bool"
            }
          ],
          "internalType": "struct SharedStructs.Cell",
          "name": "",
          "type": "tuple"
        }
      ],
      "stateMutability": "view",
      "type": "function"
    },
    {
      "inputs": [
        {
          "internalType": "uint8",
          "name": "gameId",
          "type": "uint8"
        }
      ],
      "name": "getCells",
      "outputs": [
        {
          "components": [
            {
              "internalType": "uint8",
              "name": "q",
              "type": "uint8"
            },
            {
              "internalType": "uint8",
              "name": "r",
              "type": "uint8"
            }
          ],
          "internalType": "struct SharedStructs.Coordinate[]",
          "name": "",
          "type": "tuple[]"
        }
      ],
      "stateMutability": "view",
      "type": "function"
    },
    {
      "inputs": [
        {
          "internalType": "uint8",
          "name": "gameId",
          "type": "uint8"
        }
      ],
      "name": "getRadius",
      "outputs": [
        {
          "internalType": "uint8",
          "name": "",
          "type": "uint8"
        }
      ],
      "stateMutability": "view",
      "type": "function"
    },
    {
      "inputs": [
        {
          "internalType": "uint8",
          "name": "gameId",
          "type": "uint8"
        }
      ],
      "name": "getShips",
      "outputs": [
        {
          "components": [
            {
              "components": [
                {
                  "internalType": "uint8",
                  "name": "q",
                  "type": "uint8"
                },
                {
                  "internalType": "uint8",
                  "name": "r",
                  "type": "uint8"
                }
              ],
              "internalType": "struct SharedStructs.Coordinate",
              "name": "coordinate",
              "type": "tuple"
            },
            {
              "internalType": "enum SharedStructs.Directions",
              "name": "travelDirection",
              "type": "uint8"
            },
            {
              "internalType": "uint8",
              "name": "travelDistance",
              "type": "uint8"
            },
            {
              "internalType": "enum SharedStructs.Directions",
              "name": "shotDirection",
              "type": "uint8"
            },
            {
              "internalType": "uint8",
              "name": "shotDistance",
              "type": "uint8"
            },
            {
              "internalType": "bool",
              "name": "publishedMove",
              "type": "bool"
            },
            {
              "internalType": "address",
              "name": "captain",
              "type": "address"
            },
            {
              "internalType": "uint8",
              "name": "yachtSpeed",
              "type": "uint8"
            },
            {
              "internalType": "uint8",
              "name": "yachtRange",
              "type": "uint8"
            }
          ],
          "internalType": "struct GamePunk.Ship[]",
          "name": "",
          "type": "tuple[]"
        }
      ],
      "stateMutability": "view",
      "type": "function"
    },
    {
      "inputs": [
        {
          "internalType": "uint8",
          "name": "_radius",
          "type": "uint8"
        },
        {
          "internalType": "uint8",
          "name": "gameId",
          "type": "uint8"
        }
      ],
      "name": "initGame",
      "outputs": [],
      "stateMutability": "nonpayable",
      "type": "function"
    },
    {
      "inputs": [
        {
          "components": [
            {
              "internalType": "uint8",
              "name": "q",
              "type": "uint8"
            },
            {
              "internalType": "uint8",
              "name": "r",
              "type": "uint8"
            }
          ],
          "internalType": "struct SharedStructs.Coordinate",
          "name": "_start",
          "type": "tuple"
        },
        {
          "internalType": "enum SharedStructs.Directions",
          "name": "_dir",
          "type": "uint8"
        },
        {
          "internalType": "uint8",
          "name": "_distance",
          "type": "uint8"
        },
        {
          "internalType": "uint8",
          "name": "gameId",
          "type": "uint8"
        }
      ],
      "name": "move",
      "outputs": [
        {
          "components": [
            {
              "internalType": "uint8",
              "name": "q",
              "type": "uint8"
            },
            {
              "internalType": "uint8",
              "name": "r",
              "type": "uint8"
            }
          ],
          "internalType": "struct SharedStructs.Coordinate",
          "name": "",
          "type": "tuple"
        }
      ],
      "stateMutability": "view",
      "type": "function"
    },
    {
      "inputs": [],
      "name": "owner",
      "outputs": [
        {
          "internalType": "address",
          "name": "",
          "type": "address"
        }
      ],
      "stateMutability": "view",
      "type": "function"
    },
    {
      "inputs": [],
      "name": "registrationContract",
      "outputs": [
        {
          "internalType": "address",
          "name": "",
          "type": "address"
        }
      ],
      "stateMutability": "view",
      "type": "function"
    },
    {
      "inputs": [],
      "name": "renounceOwnership",
      "outputs": [],
      "stateMutability": "nonpayable",
      "type": "function"
    },
    {
      "inputs": [
        {
          "internalType": "enum SharedStructs.Directions",
          "name": "_travelDirection",
          "type": "uint8"
        },
        {
          "internalType": "uint8",
          "name": "_travelDistance",
          "type": "uint8"
        },
        {
          "internalType": "enum SharedStructs.Directions",
          "name": "_shotDirection",
          "type": "uint8"
        },
        {
          "internalType": "uint8",
          "name": "_shotDistance",
          "type": "uint8"
        },
        {
          "internalType": "uint8",
          "name": "gameId",
          "type": "uint8"
        }
      ],
      "name": "revealMove",
      "outputs": [],
      "stateMutability": "nonpayable",
      "type": "function"
    },
    {
      "inputs": [
        {
          "internalType": "address",
          "name": "_registrationContract",
          "type": "address"
        }
      ],
      "name": "setRegistrationContract",
      "outputs": [],
      "stateMutability": "nonpayable",
      "type": "function"
    },
    {
      "inputs": [
        {
          "internalType": "uint8",
          "name": "gameId",
          "type": "uint8"
        }
      ],
      "name": "startNewGame",
      "outputs": [],
      "stateMutability": "nonpayable",
      "type": "function"
    },
    {
      "inputs": [
        {
          "internalType": "address",
          "name": "newOwner",
          "type": "address"
        }
      ],
      "name": "transferOwnership",
      "outputs": [],
      "stateMutability": "nonpayable",
      "type": "function"
    },
    {
      "inputs": [
        {
          "components": [
            {
              "internalType": "uint8",
              "name": "q",
              "type": "uint8"
            },
            {
              "internalType": "uint8",
              "name": "r",
              "type": "uint8"
            }
          ],
          "internalType": "struct SharedStructs.Coordinate",
          "name": "_startCell",
          "type": "tuple"
        },
        {
          "internalType": "enum SharedStructs.Directions",
          "name": "_direction",
          "type": "uint8"
        },
        {
          "internalType": "uint8",
          "name": "_distance",
          "type": "uint8"
        },
        {
          "internalType": "uint8",
          "name": "gameId",
          "type": "uint8"
        }
      ],
      "name": "travel",
      "outputs": [],
      "stateMutability": "nonpayable",
      "type": "function"
    },
    {
      "inputs": [
        {
          "internalType": "uint8",
          "name": "gameId",
          "type": "uint8"
        }
      ],
      "name": "updateWorld",
      "outputs": [],
      "stateMutability": "nonpayable",
      "type": "function"
    }
  ],
  "bytecode": "0x60a06040523480156200001157600080fd5b50604051620048de380380620048de8339810160408190526200003491620000a1565b6200003f3362000051565b6001600160a01b0316608052620000d3565b600080546001600160a01b038381166001600160a01b0319831681178455604051919092169283917f8be0079c531659141344cd1fd0a4f28419497f9722a3daafe3b4186f6b6457e09190a35050565b600060208284031215620000b457600080fd5b81516001600160a01b0381168114620000cc57600080fd5b9392505050565b60805161479b62000143600039600081816103ea015281816105ff0152818161090001528181610a8a01528181610c3701528181610ddb01528181610e55015281816111640152818161172701528181611c7e01528181612c1701528181612e96015261379c015261479b6000f3fe608060405234801561001057600080fd5b50600436106101215760003560e01c80636ed296e4116100ad578063d085a86f11610071578063d085a86f1461031a578063d3db03cc1461033a578063f10a39271461034d578063f2fde38b1461036d578063fd8704461461038057600080fd5b80636ed296e4146102c8578063715018a6146102db578063863375ac146102e35780638da5cb5b146102f6578063978ac3561461030757600080fd5b806334361208116100f457806334361208146102085780634998b8fb1461022d5780634aac9b8b146102405780634d02388614610260578063508236ca146102b557600080fd5b8063117a5b90146101265780631cf8a321146101b55780631e522c3e146101ca5780632923a41f146101f5575b600080fd5b610177610134366004613d87565b600160208190526000918252604090912080549181015460049091015460ff91821691818116916101008104821691620100008204811691630100000090041686565b6040805196875260ff909516602087015292151593850193909352151560608401529015156080830152151560a082015260c0015b60405180910390f35b6101c86101c3366004613e75565b6103a0565b005b6002546101dd906001600160a01b031681565b6040516001600160a01b0390911681526020016101ac565b6101c8610203366004613ece565b6104de565b61021b610216366004613ece565b6105a9565b60405160ff90911681526020016101ac565b6101c861023b366004613eeb565b610678565b61025361024e366004613ece565b6108a8565b6040516101ac9190613f58565b61027361026e366004613fb5565b610bc0565b6040516101ac9190600060808201905060ff835116825260ff602084015116602083015260408301511515604083015260608301511515606083015292915050565b6101c86102c3366004613fed565b610cb6565b6101c86102d6366004613ece565b610efd565b6101c861101d565b6101c86102f1366004613ece565b611031565b6000546001600160a01b03166101dd565b6101c8610315366004613ece565b6110c3565b61032d610328366004613e75565b612bb0565b6040516101ac919061401b565b6101c8610348366004614050565b612c99565b61036061035b36600461406b565b612cc3565b6040516101ac91906141a0565b6101c861037b366004614050565b613317565b61039361038e366004613ece565b613390565b6040516101ac91906141af565b60ff8082166000908152600160208190526040909120600401549091161515146103e55760405162461bcd60e51b81526004016103dc906141fe565b60405180910390fd5b6000807f00000000000000000000000000000000000000000000000000000000000000006001600160a01b0316631cf8a321878787876040518563ffffffff1660e01b815260040161043a9493929190614235565b606060405180830381865afa158015610457573d6000803e3d6000fd5b505050506040513d601f19601f8201168201806040525081019061047b91906142c2565b9150915081156104945761048f3384613614565b6104d6565b805160ff8481166000908152600160209081526040808320338452600201825290912080549185015183166101000261ffff1990921692909316919091171790555b505050505050565b6104e66136ed565b60ff8082166000908152600160208190526040909120600401549091161515146105225760405162461bcd60e51b81526004016103dc906141fe565b60ff8116600090815260016020526040812060048101805463ff000000191663010000001790558054916105558361430c565b909155505060ff8116600081815260016020908152604091829020548251938452908301527f8f2926f00686a0050801f0bdb34f506a8467984df7f619eca0dac070da51babc91015b60405180910390a150565b60ff80821660009081526001602081905260408220600401549192919091161515146105e75760405162461bcd60e51b81526004016103dc906141fe565b60405163436fadf360e11b815260ff831660048201527f00000000000000000000000000000000000000000000000000000000000000006001600160a01b0316906386df5be690602401602060405180830381865afa15801561064e573d6000803e3d6000fd5b505050506040513d601f19601f820116820180604052508101906106729190614325565b92915050565b60ff808216600090815260016020819052604090912060040154630100000090049091161515146106f55760405162461bcd60e51b815260206004820152602160248201527f5375626d6974206d6f76657320686173206e6f742073746172746564207965746044820152602160f81b60648201526084016103dc565b60ff8082166000908152600160208190526040909120600401549091161515146107315760405162461bcd60e51b81526004016103dc906141fe565b60ff8116600090815260016020818152604080842033855260020190915290912080820180549192889260ff191690836006811115610772576107726140ba565b0217905550600181015460ff600160c81b909104811690861611156107b45760018101805460ff600160c81b8204166101000261ff00199091161790556107cb565b60018101805461ff00191661010060ff8816021790555b60018101805485919062ff00001916620100008360068111156107f0576107f06140ba565b0217905550600181015460ff600160d01b9091048116908416111561083657600181018054630100000060ff600160d01b8304160263ff00000019909116179055610851565b60018101805463ff0000001916630100000060ff8616021790555b60018101805464ff00000000191664010000000017905560405160ff8316815233907f188e951d9711134151ca8bed640c2d451f586e1e8e1eb16f90539d7e33ce9b7b9060200160405180910390a2505050505050565b60ff808216600090815260016020819052604090912060040154606092161515146108e55760405162461bcd60e51b81526004016103dc906141fe565b60405163436fadf360e11b815260ff831660048201526000907f00000000000000000000000000000000000000000000000000000000000000006001600160a01b0316906386df5be690602401602060405180830381865afa15801561094f573d6000803e3d6000fd5b505050506040513d601f19601f820116820180604052508101906109739190614325565b90506000610982826001614342565b61098d83600361435b565b610997919061435b565b6109a2906001614342565b60ff16905060008167ffffffffffffffff8111156109c2576109c2613da0565b604051908082528060200260200182016040528015610a0757816020015b60408051808201909152600080825260208201528152602001906001900390816109e05790505b50905060405180604001604052808460ff1681526020018460ff1681525081600081518110610a3857610a38614377565b602090810291909101015260015b8360ff168160ff1611610bb757600081610a6160018261438d565b610a6c90600361435b565b610a76919061435b565b610a81906001614342565b60ff16905060007f00000000000000000000000000000000000000000000000000000000000000006001600160a01b03166339e5c4a085600081518110610aca57610aca614377565b6020026020010151856040518363ffffffff1660e01b8152600401610af09291906143a6565b600060405180830381865afa158015610b0d573d6000803e3d6000fd5b505050506040513d6000823e601f3d908101601f19168201604052610b3591908101906143d4565b905060005b81518160ff161015610ba157818160ff1681518110610b5b57610b5b614377565b6020026020010151858260ff1685610b739190614487565b81518110610b8357610b83614377565b60200260200101819052508080610b999061449a565b915050610b3a565b5050508080610baf9061449a565b915050610a46565b50949350505050565b60408051608081018252600080825260208201819052918101829052606081019190915260ff808316600090815260016020819052604090912060040154909116151514610c205760405162461bcd60e51b81526004016103dc906141fe565b6040516326811c4360e11b81526001600160a01b037f00000000000000000000000000000000000000000000000000000000000000001690634d02388690610c6e90869086906004016143a6565b608060405180830381865afa158015610c8b573d6000803e3d6000fd5b505050506040513d601f19601f82011682018060405250810190610caf91906144b9565b9392505050565b610cbe6136ed565b60ff808216600090815260016020819052604090912060040154909116151514610cfa5760405162461bcd60e51b81526004016103dc906141fe565b60005b60ff8216600090815260016020526040902060030154811015610d995760ff821660009081526001602052604081206003810180546002909201929184908110610d4957610d49614377565b60009182526020808320909101546001600160a01b031683528201929092526040019020805461ffff1916815560010180546001600160d81b031916905580610d918161430c565b915050610cfd565b5060ff81166000908152600160205260408120610dbb91600390910190613cf5565b604051631a405d8760e31b815260ff8084166004830152821660248201527f00000000000000000000000000000000000000000000000000000000000000006001600160a01b03169063d202ec3890604401600060405180830381600087803b158015610e2757600080fd5b505af1158015610e3b573d6000803e3d6000fd5b50506040516318068d3760e01b815260ff841660048201527f00000000000000000000000000000000000000000000000000000000000000006001600160a01b031692506318068d379150602401600060405180830381600087803b158015610ea357600080fd5b505af1158015610eb7573d6000803e3d6000fd5b50506040805160ff8087168252851660208201527fd76a0a97b7d547fef69b0cd90fb02087b761703ae2b5e4e91a99e8fd17e308ad935001905060405180910390a15050565b610f056136ed565b60ff8160ff1610610f585760405162461bcd60e51b815260206004820152601f60248201527f4d6178696d756d206e756d626572206f662067616d657320726561636865640060448201526064016103dc565b60ff8082166000908152600160205260409020600401541615610fcb5760405162461bcd60e51b815260206004820152602560248201527f47616d652077697468207468697320494420616c726561647920696e2070726f604482015264677265737360d81b60648201526084016103dc565b60ff8116600081815260016020818152604092839020600401805460ff191690921790915590519182527f13cb55fc1bec4b9f4cd4c22f154240b469cb108a23a35aa599df0c3da46f2d14910161059e565b6110256136ed565b61102f6000613747565b565b6110396136ed565b60ff8082166000908152600160208190526040909120600401549091161515146110755760405162461bcd60e51b81526004016103dc906141fe565b60ff8116600081815260016020908152604091829020600401805460ff1916905590519182527f4df34531b3f238bc8f90ad83236d8c752e7444e434bb5fc99f888f0a6345c0e7910161059e565b6110cb6136ed565b60ff8082166000908152600160208190526040909120600401549091161515146111075760405162461bcd60e51b81526004016103dc906141fe565b60ff81166000908152600160205260409020546111269060039061453a565b6000036114d25760ff81811660008181526001602081905260409182902001549051634affc34f60e01b8152600481019290925290911660248201527f00000000000000000000000000000000000000000000000000000000000000006001600160a01b031690634affc34f90604401600060405180830381600087803b1580156111b057600080fd5b505af11580156111c4573d6000803e3d6000fd5b50505060ff8083166000908152600160208190526040822001805490921692506111ed8361449a565b91906101000a81548160ff021916908360ff160217905550507fab00852360aeece33bb03176d4e62fbb27adf3fd1a81b9d543c1ae388003b0ac8160405161123e919060ff91909116815260200190565b60405180910390a160005b60ff80831660009081526001602052604090206003015490821610156114d05760ff808316600090815260016020526040812060038101805492936002909201928492861690811061129d5761129d614377565b60009182526020808320909101546001600160a01b03168352828101939093526040918201902081518083019092525460ff8082168352610100909104169181019190915290506112ee8184613797565b156114bd5760ff8084166000908152600160205260409020600301805461133c92851690811061132057611320614377565b6000918252602090912001546001600160a01b03168385613836565b600160008460ff1681526020019081526020016000206003018260ff168154811061136957611369614377565b6000918252602091829020015460405160ff861681526001600160a01b03909116917f7098e36d986448e47b2ec53e41ddd178ac0774637ee2227e84baba39b0c1c7b1910160405180910390a260ff83166000908152600160208190526040909120600301805490916113db9161455c565b815481106113eb576113eb614377565b9060005260206000200160009054906101000a90046001600160a01b0316600160008560ff1681526020019081526020016000206003018360ff168154811061143657611436614377565b600091825260208083209190910180546001600160a01b0319166001600160a01b03949094169390931790925560ff851681526001909152604090206003018054806114845761148461456f565b600082815260209020810160001990810180546001600160a01b031916905501905560ff8216156114bd57816114b981614585565b9250505b50806114c88161449a565b915050611249565b505b60ff811660009081526001602052604081206003015467ffffffffffffffff81111561150057611500613da0565b60405190808252806020026020018201604052801561154557816020015b604080518082019091526000808252602082015281526020019060019003908161151e5790505b5060ff83166000908152600160205260408120600301549192509067ffffffffffffffff81111561157857611578613da0565b6040519080825280602002602001820160405280156115a1578160200160208202803683370190505b50905060005b60ff8085166000908152600160205260409020600301549082161015611600576001828260ff16815181106115de576115de614377565b91151560209283029190910190910152806115f88161449a565b9150506115a7565b5060005b60ff8085166000908152600160205260409020600301549082161015611c135760ff808516600090815260016020526040812060038101805492936002909201928492861690811061165857611658614377565b60009182526020808320909101546001600160a01b0390811684529083019390935260409091019020600101546501000000000090041614611c015760ff808516600090815260016020526040812060038101805460029092019390919085169081106116c7576116c7614377565b60009182526020808320909101546001600160a01b0316835282019290925260400190206001015460ff6401000000009091041615611c015760ff8085166000908152600160205260408120600381018054929384936001600160a01b037f00000000000000000000000000000000000000000000000000000000000000001693631cf8a32193600290910192869290891690811061176857611768614377565b60009182526020808320909101546001600160a01b03168352828101939093526040918201812060ff808d1683526001909452918120600381018054939460029092019390918a169081106117bf576117bf614377565b60009182526020808320909101546001600160a01b03168352828101939093526040918201812060019081015460ff8e8116845291909452918120600381018054948416946002909201939091908b1690811061181e5761181e614377565b60009182526020808320909101546001600160a01b0316835282019290925260409081019091206001015490516001600160e01b031960e086901b16815261187693929160ff61010090910416908c906004016145a2565b606060405180830381865afa158015611893573d6000803e3d6000fd5b505050506040513d601f19601f820116820180604052508101906118b791906142c2565b9150915081156119b45760ff8087166000908152600160205260409020600301805461190a9286169081106118ee576118ee614377565b6000918252602090912001546001600160a01b03168488613836565b6000848460ff168151811061192157611921614377565b602002602001019015159081151581525050600160008760ff1681526020019081526020016000206003018360ff168154811061196057611960614377565b6000918252602091829020015460405160ff891681526001600160a01b03909116917f494269a4463d76858835ca58ce3a5a5d248702029b3d0facbfbaff2423cbeeea910160405180910390a25050611c01565b600160008760ff1681526020019081526020016000206003018360ff16815481106119e1576119e1614377565b600091825260208083209091015460ff808a1684526001909252604083206003810180546001600160a01b03909316947ff1e9c1d54f160cab3c8602dcfbf5fbe3e012ed037d80057eca695f74d26077a09460029093019390928916908110611a4c57611a4c614377565b60009182526020808320909101546001600160a01b0316835282810193909352604091820181205460ff8c8116835260019094529181206003810180549385169460029092019390918a16908110611aa657611aa6614377565b6000918252602080832091909101546001600160a01b03168352828101939093526040918201902054865187840151835160ff96871681526101009093048616948301949094528416818301529183166060830152918a16608082015290519081900360a00190a260ff80871660009081526001602052604081206003810180548594600290930193928816908110611b4157611b41614377565b60009182526020808320909101546001600160a01b031683528281019390935260409182018120845181549585015160ff9081166101000261ffff1990971691811691909117959095179055898416815260019092529020600301805490918516908110611bb157611bb1614377565b6000918252602091829020015460405160ff891681526001600160a01b03909116917f51f35fa2867d710ef60e6209b0ca28b42abd534ed14e1f8394e793f42253c9f6910160405180910390a250505b80611c0b8161449a565b915050611604565b5060005b60ff8085166000908152600160205260409020600301549082161015611fa557818160ff1681518110611c4c57611c4c614377565b602002602001015115611f935760ff808516600090815260016020526040812060038101805492936001600160a01b037f0000000000000000000000000000000000000000000000000000000000000000169363d6192ad3936002019286929091908816908110611cbf57611cbf614377565b60009182526020808320909101546001600160a01b03168352828101939093526040918201812060ff808c1683526001909452918120600381018054939460029092019390918916908110611d1657611d16614377565b60009182526020808320909101546001600160a01b03168352828101939093526040918201812060019081015460ff8d811684529190945291812060038101805462010000909504841694600292909201939091908a16908110611d7c57611d7c614377565b60009182526020808320909101546001600160a01b0316835282019290925260409081019091206001015490516001600160e01b031960e086901b168152611dd493929160ff630100000090910416906004016145c0565b6040805180830381865afa158015611df0573d6000803e3d6000fd5b505050506040513d601f19601f82011682018060405250810190611e1491906145f8565b905080848360ff1681518110611e2c57611e2c614377565b6020026020010181905250600160008660ff1681526020019081526020016000206003018260ff1681548110611e6457611e64614377565b600091825260208083209091015460ff80891684526001909252604083206003810180546001600160a01b03909316947f78546d5ff977d70d771d8edba5bdd99150ec97e7837d6e2af4384b1605a4372d9460029093019390928816908110611ecf57611ecf614377565b60009182526020808320909101546001600160a01b0316835282810193909352604091820181205460ff8b8116835260019094529181206003810180549385169460029092019390918916908110611f2957611f29614377565b6000918252602080832091909101546001600160a01b03168352828101939093526040918201902054865187840151835160ff96871681526101009093048616948301949094528416818301529183166060830152918916608082015290519081900360a00190a2505b80611f9d8161449a565b915050611c17565b5060005b60ff80851660009081526001602052604090206003015490821610156125ed5760005b60ff80861660009081526001602052604090206003015490821610156125da578060ff168260ff16146125c857828260ff168151811061200e5761200e614377565b6020026020010151801561203b5750828160ff168151811061203257612032614377565b60200260200101515b80156120f9575060ff8086166000908152600160205260408120600381018054600290920193909190861690811061207557612075614377565b60009182526020808320909101546001600160a01b0316835282810193909352604091820181205460ff8981168352600190945291812060038101805493851694600290920193909186169081106120cf576120cf614377565b60009182526020808320909101546001600160a01b0316835282019290925260400190205460ff16145b80156121c2575060ff8086166000908152600160205260408120600381018054600290920193909190861690811061213357612133614377565b60009182526020808320909101546001600160a01b0316835282810193909352604091820181205460ff898116835260019094529181206003810180546101009094048516946002909201939091861690811061219257612192614377565b60009182526020808320909101546001600160a01b0316835282019290925260400190205460ff61010090910416145b1561239e576000838360ff16815181106121de576121de614377565b6020026020010190151590811515815250506000838260ff168151811061220757612207614377565b91151560209283029190910182015260ff808716600090815260019092526040909120600301805461226092851690811061224457612244614377565b6000918252602090912001546001600160a01b03168387613836565b60ff808616600090815260016020526040902060030180546122a992841690811061228d5761228d614377565b6000918252602090912001546001600160a01b03168287613836565b600160008660ff1681526020019081526020016000206003018260ff16815481106122d6576122d6614377565b6000918252602091829020015460405160ff881681526001600160a01b03909116917f783de3ac95b82563b70ac74b3a843e5f9f71a653b9518e6e1762b39151c0f710910160405180910390a2600160008660ff1681526020019081526020016000206003018160ff168154811061235057612350614377565b6000918252602091829020015460405160ff881681526001600160a01b03909116917f783de3ac95b82563b70ac74b3a843e5f9f71a653b9518e6e1762b39151c0f710910160405180910390a25b828260ff16815181106123b3576123b3614377565b60200260200101518015612447575060ff808616600090815260016020526040812060038101805460029092019390919086169081106123f5576123f5614377565b60009182526020808320909101546001600160a01b03168352820192909252604001902054845160ff91821691869190841690811061243657612436614377565b60200260200101516000015160ff16145b80156124d8575060ff8086166000908152600160205260408120600381018054600290920193909190861690811061248157612481614377565b60009182526020808320909101546001600160a01b03168352820192909252604001902054845160ff61010090920482169186919084169081106124c7576124c7614377565b60200260200101516020015160ff16145b156125c85760ff8086166000908152600160205260409020600301805461250a92851690811061224457612244614377565b600160008660ff1681526020019081526020016000206003018160ff168154811061253757612537614377565b600091825260208083209091015460ff80891684526001909252604090922060030180546001600160a01b03909316929091851690811061257a5761257a614377565b6000918252602091829020015460405160ff891681526001600160a01b03909116917fb2ee3834f34c038f7f34d57f8ce213e4ee56fecd33556013e0f66b1e32ee14bc910160405180910390a35b806125d28161449a565b915050611fcc565b50806125e58161449a565b915050611fa9565b5060005b60ff808516600090815260016020526040902060030154908216101561277c5760006001600160a01b0316600160008660ff1681526020019081526020016000206003018260ff168154811061264957612649614377565b6000918252602090912001546001600160a01b03160361276a5760ff84166000908152600160208190526040909120600301805490916126889161455c565b8154811061269857612698614377565b9060005260206000200160009054906101000a90046001600160a01b0316600160008660ff1681526020019081526020016000206003018260ff16815481106126e3576126e3614377565b600091825260208083209190910180546001600160a01b0319166001600160a01b03949094169390931790925560ff861681526001909152604090206003018054806127315761273161456f565b600082815260209020810160001990810180546001600160a01b031916905501905560ff81161561276a578061276681614585565b9150505b806127748161449a565b9150506125f1565b5060ff831660009081526001602052604081206003015490036128195760408051818152600991810191909152682737903bb4b73732b960b91b606082015260ff841660208201527f2a2b855776dd74dd196de365fd3f6c12922ded89e822675748740822b4527f24906080015b60405180910390a160ff83166000908152600160205260409020600401805461ff001916610100179055612b75565b60ff831660009081526001602081905260409091206003015490036128c85760ff8316600090815260016020526040812060030180547f2a2b855776dd74dd196de365fd3f6c12922ded89e822675748740822b4527f249261289c929161288257612882614377565b6000918252602090912001546001600160a01b03166139b2565b6040516020016128ac9190614638565b60408051601f19818403018152908290526127ea9186906146a0565b60ff8316600090815260016020526040812060030180549091906128ee576128ee614377565b60009182526020808320919091015460405160ff871681526001600160a01b0390911692917f2cee3725d64bc62c413fa35348815210ff376bf4f13627d82b6ac0d0efc6e8cd910160405180910390a360005b60ff8085166000908152600160205260409020600301549082161015612b535760ff808516600090815260016020526040812060038101805460069460029093019392861690811061299557612995614377565b60009182526020808320909101546001600160a01b03168352820192909252604001902060019081018054909160ff19909116908360068111156129db576129db6140ba565b021790555060ff8085166000908152600160205260408120600381018054929360029092019284928616908110612a1457612a14614377565b6000918252602080832091909101546001600160a01b0316835282810193909352604091820181206001908101805461ff00191661010060ff9788160217905588851682529092528120600381018054600694600290930193928616908110612a7f57612a7f614377565b60009182526020808320909101546001600160a01b031683528201929092526040019020600101805462ff0000191662010000836006811115612ac457612ac46140ba565b021790555060ff8085166000908152600160205260408120600381018054929360029092019284928616908110612afd57612afd614377565b60009182526020808320909101546001600160a01b031683528201929092526040019020600101805460ff9290921663010000000263ff0000001990921691909117905580612b4b8161449a565b915050612941565b5060ff83166000908152600160205260409020600401805463ff000000191690555b60405160ff841681527fd44344392ee117b90bc172ab74cce9c43a862f0d5e11a336b3885fde466c244e9060200160405180910390a1505050565b604080518082019091526000808252602082015260ff808316600090815260016020819052604090912060040154909116151514612c005760405162461bcd60e51b81526004016103dc906141fe565b604051630d42527560e11b81526001600160a01b037f00000000000000000000000000000000000000000000000000000000000000001690631a84a4ea90612c50908890889088906004016146c5565b6040805180830381865afa158015612c6c573d6000803e3d6000fd5b505050506040513d601f19601f82011682018060405250810190612c9091906145f8565b95945050505050565b612ca16136ed565b600280546001600160a01b0319166001600160a01b0392909216919091179055565b612ccb613d13565b6002546001600160a01b03163314612d355760405162461bcd60e51b815260206004820152602760248201527f43616c6c6572206973206e6f742074686520726567697374726174696f6e20636044820152661bdb9d1c9858dd60ca1b60648201526084016103dc565b60ff808516600090815260016020526040902060040154610100900416158015612d7b575060ff8085166000908152600160208190526040909120600401549091161515145b612d975760405162461bcd60e51b81526004016103dc906141fe565b60ff80851660009081526001602090815260408083206001600160a01b038a1684526002019091529020541615801590612e00575060ff80851660009081526001602090815260408083206001600160a01b038a16845260020190915290205461010090041615155b15612e675760ff84811660009081526001602090815260408083206001600160a01b038a168085526002909101909252918290205491516308538db760e41b81526004810191909152818316602482015261010090910490911660448201526064016103dc565b604080518082019091526000808252602082015260005b6040516342c39d9160e01b815260ff871660048201527f00000000000000000000000000000000000000000000000000000000000000006001600160a01b0316906342c39d919060240160408051808303816000875af1158015612ee6573d6000803e3d6000fd5b505050506040513d601f19601f82011682018060405250810190612f0a91906145f8565b9150612f50604051806040016040528060138152602001724e657720726e6420706169722025732c20257360681b815250836000015160ff16846020015160ff166139ea565b60005b60ff80881660009081526001602052604090206003015490821610156130ef57612ff76040518060400160405280601781526020017f696e206c6f6f702025732c20616464726573733a2025730000000000000000008152508260ff16600160008b60ff1681526020019081526020016000206003018460ff1681548110612fdd57612fdd614377565b6000918252602090912001546001600160a01b0316613a31565b825160ff888116600090815260016020526040812060038101805494841694600290920193909190861690811061303057613030614377565b60009182526020808320909101546001600160a01b0316835282019290925260400190205460ff161480156130cf575060208084015160ff8981166000908152600190935260408320600381018054938316946002909201939192909190861690811061309f5761309f614377565b60009182526020808320909101546001600160a01b0316835282019290925260400190205460ff61010090910416145b156130dd57600191506130ef565b806130e78161449a565b915050612f53565b5080612e7e57604080516101208101825283815260006020808301828152838501839052606084018390526080840183905260a084018390526001600160a01b038c1660c0850181905260ff8b811660e08701528a8116610100808801919091528d8216865260018086528887209387526002909301855296909420855180518254919095015194861661ffff1990911617939094169095029190911782555181840180549394859460ff1916908360068111156131af576131af6140ba565b0217905550604082015160018201805460ff9092166101000261ff001983168117825560608501519262ff00001990911662ffff001990911617620100008360068111156131ff576131ff6140ba565b021790555060808201516001918201805460a085015160c086015160e08701516101009097015164ffff00000019909316630100000060ff9687160264ff00000000191617640100000000921515929092029190911765010000000000600160d01b031916650100000000006001600160a01b039283160260ff60c81b191617600160c81b968516969096029590951760ff60d01b1916600160d01b9184169190910217905589166000818152602083815260408083206003018054958601815583529181902090930180546001600160a01b031916948d169485179055519081527f3138d9d3c5b626eff736a8d5bf07552d9f568087655c46803ee715f424ec1b8e910160405180910390a2979650505050505050565b61331f6136ed565b6001600160a01b0381166133845760405162461bcd60e51b815260206004820152602660248201527f4f776e61626c653a206e6577206f776e657220697320746865207a65726f206160448201526564647265737360d01b60648201526084016103dc565b61338d81613747565b50565b60ff808216600090815260016020819052604090912060040154606092161515146133cd5760405162461bcd60e51b81526004016103dc906141fe565b60ff821660009081526001602052604081206003015467ffffffffffffffff8111156133fb576133fb613da0565b60405190808252806020026020018201604052801561343457816020015b613421613d13565b8152602001906001900390816134195790505b5090506134686040518060400160405280601081526020016f52657472696576696e6720736869707360801b815250613a78565b60005b60ff841660009081526001602052604090206003015481101561360d5760ff8416600090815260016020526040812060038101805460029092019291849081106134b7576134b7614377565b60009182526020808320909101546001600160a01b03168352828101939093526040918201902081516101608101909252805460ff8082166101208501908152610100909204811661014085015290835260018201549293919291840191166006811115613527576135276140ba565b6006811115613538576135386140ba565b8152600182015460ff6101008204811660208401526040909201916201000090910416600681111561356c5761356c6140ba565b600681111561357d5761357d6140ba565b81526001919091015460ff630100000082048116602084015264010000000082048116151560408401526001600160a01b03650100000000008304166060840152600160c81b820481166080840152600160d01b9091041660a09091015282518390839081106135ef576135ef614377565b602002602001018190525080806136059061430c565b91505061346b565b5092915050565b60ff8082166000908152600160208190526040909120600401549091161515146136505760405162461bcd60e51b81526004016103dc906141fe565b6000805b60ff80841660009081526001602052604090206003015490821610156136dc5760ff808416600090815260016020526040902060030180546001600160a01b0387169284169081106136a8576136a8614377565b6000918252602090912001546001600160a01b0316036136ca578091506136dc565b806136d48161449a565b915050613654565b506136e8838284613836565b505050565b6000546001600160a01b0316331461102f5760405162461bcd60e51b815260206004820181905260248201527f4f776e61626c653a2063616c6c6572206973206e6f7420746865206f776e657260448201526064016103dc565b600080546001600160a01b038381166001600160a01b0319831681178455604051919092169283917f8be0079c531659141344cd1fd0a4f28419497f9722a3daafe3b4186f6b6457e09190a35050565b6000807f00000000000000000000000000000000000000000000000000000000000000006001600160a01b0316634d02388685856040518363ffffffff1660e01b81526004016137e89291906143a6565b608060405180830381865afa158015613805573d6000803e3d6000fd5b505050506040513d601f19601f8201168201806040525081019061382991906144b9565b6060015115949350505050565b60ff8082166000908152600160205260409020600301549083161061389d5760405162461bcd60e51b815260206004820152601860248201527f496e6465782076616c7565206f7574206f662072616e6765000000000000000060448201526064016103dc565b60ff8082166000908152600160208190526040909120600401549091161515146138d95760405162461bcd60e51b81526004016103dc906141fe565b60405160ff821681526001600160a01b038416907fabe2a4edb03972506a4064b683e5482b1f09f2fb96bd4463b7b15b38cbd5b1869060200160405180910390a260ff80821660008181526001602081815260408084206001600160a01b038a168552600281018352908420805461ffff19168155830180546001600160d81b031916905593835252600390910180549192909190851690811061397f5761397f614377565b9060005260206000200160006101000a8154816001600160a01b0302191690836001600160a01b03160217905550505050565b604051606082811b6bffffffffffffffffffffffff191660208301529061067290603401604051602081830303815290604052613abb565b6136e8838383604051602401613a02939291906146e3565b60408051601f198184030181529190526020810180516001600160e01b031663ca47c4eb60e01b179052613cd4565b6136e8838383604051602401613a4993929190614708565b60408051601f198184030181529190526020810180516001600160e01b031663038fd88960e31b179052613cd4565b61338d81604051602401613a8c919061473b565b60408051601f198184030181529190526020810180516001600160e01b031663104c13eb60e21b179052613cd4565b60408051808201909152601081526f181899199a1a9b1b9c1cb0b131b232b360811b6020820152815160609190600090613af690600261474e565b613b01906002614487565b67ffffffffffffffff811115613b1957613b19613da0565b6040519080825280601f01601f191660200182016040528015613b43576020820181803683370190505b509050600360fc1b81600081518110613b5e57613b5e614377565b60200101906001600160f81b031916908160001a905350600f60fb1b81600181518110613b8d57613b8d614377565b60200101906001600160f81b031916908160001a90535060005b8451811015613ccc57826004868381518110613bc557613bc5614377565b016020015182516001600160f81b031990911690911c60f81c908110613bed57613bed614377565b01602001516001600160f81b03191682613c0883600261474e565b613c13906002614487565b81518110613c2357613c23614377565b60200101906001600160f81b031916908160001a90535082858281518110613c4d57613c4d614377565b602091010151815160f89190911c600f16908110613c6d57613c6d614377565b01602001516001600160f81b03191682613c8883600261474e565b613c93906003614487565b81518110613ca357613ca3614377565b60200101906001600160f81b031916908160001a90535080613cc48161430c565b915050613ba7565b509392505050565b80516a636f6e736f6c652e6c6f67602083016000808483855afa5050505050565b508054600082559060005260206000209081019061338d9190613d6e565b6040805161016081018252600061012082018181526101408301829052825260208201819052918101829052606081018290526080810182905260a0810182905260c0810182905260e0810182905261010081019190915290565b5b80821115613d835760008155600101613d6f565b5090565b600060208284031215613d9957600080fd5b5035919050565b634e487b7160e01b600052604160045260246000fd5b6040805190810167ffffffffffffffff81118282101715613dd957613dd9613da0565b60405290565b604051601f8201601f1916810167ffffffffffffffff81118282101715613e0857613e08613da0565b604052919050565b60ff8116811461338d57600080fd5b600060408284031215613e3157600080fd5b613e39613db6565b90508135613e4681613e10565b81526020820135613e5681613e10565b602082015292915050565b803560078110613e7057600080fd5b919050565b60008060008060a08587031215613e8b57600080fd5b613e958686613e1f565b9350613ea360408601613e61565b92506060850135613eb381613e10565b91506080850135613ec381613e10565b939692955090935050565b600060208284031215613ee057600080fd5b8135610caf81613e10565b600080600080600060a08688031215613f0357600080fd5b613f0c86613e61565b94506020860135613f1c81613e10565b9350613f2a60408701613e61565b92506060860135613f3a81613e10565b91506080860135613f4a81613e10565b809150509295509295909350565b602080825282518282018190526000919060409081850190868401855b82811015613fa857613f98848351805160ff908116835260209182015116910152565b9284019290850190600101613f75565b5091979650505050505050565b60008060608385031215613fc857600080fd5b613fd28484613e1f565b91506040830135613fe281613e10565b809150509250929050565b6000806040838503121561400057600080fd5b823561400b81613e10565b91506020830135613fe281613e10565b604081016106728284805160ff908116835260209182015116910152565b80356001600160a01b0381168114613e7057600080fd5b60006020828403121561406257600080fd5b610caf82614039565b6000806000806080858703121561408157600080fd5b61408a85614039565b9350602085013561409a81613e10565b925060408501356140aa81613e10565b91506060850135613ec381613e10565b634e487b7160e01b600052602160045260246000fd5b600781106140ee57634e487b7160e01b600052602160045260246000fd5b9052565b61410d828251805160ff908116835260209182015116910152565b602081015161411f60408401826140d0565b5060ff6040820151166060830152606081015161413f60808401826140d0565b5060ff60808201511660a083015260a081015161416060c084018215159052565b5060c08101516001600160a01b03811660e08401525060e081015161010061418c8185018360ff169052565b82015160ff81166101208501529050505050565b610140810161067282846140f2565b6020808252825182820181905260009190848201906040850190845b818110156141f2576141de8385516140f2565b9284019261014092909201916001016141cb565b50909695505050505050565b60208082526019908201527f47616d6520686173206e6f742073746172746564207965742100000000000000604082015260600190565b60a081016142538287805160ff908116835260209182015116910152565b61426060408301866140d0565b60ff8416606083015260ff8316608083015295945050505050565b80518015158114613e7057600080fd5b60006040828403121561429d57600080fd5b6142a5613db6565b905081516142b281613e10565b81526020820151613e5681613e10565b600080606083850312156142d557600080fd5b6142de8361427b565b91506142ed846020850161428b565b90509250929050565b634e487b7160e01b600052601160045260246000fd5b60006001820161431e5761431e6142f6565b5060010190565b60006020828403121561433757600080fd5b8151610caf81613e10565b60ff8181168382160190811115610672576106726142f6565b60ff818116838216029081169081811461360d5761360d6142f6565b634e487b7160e01b600052603260045260246000fd5b60ff8281168282160390811115610672576106726142f6565b606081016143c48285805160ff908116835260209182015116910152565b60ff831660408301529392505050565b600060208083850312156143e757600080fd5b825167ffffffffffffffff808211156143ff57600080fd5b818501915085601f83011261441357600080fd5b81518181111561442557614425613da0565b614433848260051b01613ddf565b818152848101925060069190911b83018401908782111561445357600080fd5b928401925b8184101561447c5761446a888561428b565b83528483019250604084019350614458565b979650505050505050565b80820180821115610672576106726142f6565b600060ff821660ff81036144b0576144b06142f6565b60010192915050565b6000608082840312156144cb57600080fd5b6040516080810181811067ffffffffffffffff821117156144ee576144ee613da0565b60405282516144fc81613e10565b8152602083015161450c81613e10565b602082015261451d6040840161427b565b604082015261452e6060840161427b565b60608201529392505050565b60008261455757634e487b7160e01b600052601260045260246000fd5b500690565b81810381811115610672576106726142f6565b634e487b7160e01b600052603160045260246000fd5b600060ff821680614598576145986142f6565b6000190192915050565b845460ff808216835260089190911c16602082015260a08101614253565b835460ff808216835260089190911c166020820152608081015b6145e760408301856140d0565b60ff83166060830152949350505050565b60006040828403121561460a57600080fd5b610caf838361428b565b60005b8381101561462f578181015183820152602001614617565b50506000910152565b7302a34329023b0b6b2903bb4b73732b91034b99d160651b815260008251614667816014850160208701614614565b9190910160140192915050565b6000815180845261468c816020860160208601614614565b601f01601f19169290920160200192915050565b6040815260006146b36040830185614674565b905060ff831660208301529392505050565b608081016145da8286805160ff908116835260209182015116910152565b6060815260006146f66060830186614674565b60208301949094525060400152919050565b60608152600061471b6060830186614674565b6020830194909452506001600160a01b0391909116604090910152919050565b602081526000610caf6020830184614674565b8082028115828204841417610672576106726142f656fea26469706673582212208364d082e9090ff5a63b464a7d622657026ecff2ca7ff860c34313976d97a02064736f6c63430008120033",
  "linkReferences": {},
  "deployedLinkReferences": {}
}