{
  "_format": "hh-sol-artifact-1",
  "contractName": "Game",
  "sourceName": "contracts/Game.sol",
  "abi": [
    {
      "inputs": [
        {
          "internalType": "address",
          "name": "_mapAddress",
          "type": "address"
        },
        {
          "internalType": "address",
          "name": "_yachtsAddress",
          "type": "address"
        }
      ],
      "stateMutability": "nonpayable",
      "type": "constructor"
    },
    {
      "inputs": [
        {
          "internalType": "address",
          "name": "player",
          "type": "address"
        },
        {
          "internalType": "uint8",
          "name": "q",
          "type": "uint8"
        },
        {
          "internalType": "uint8",
          "name": "r",
          "type": "uint8"
        }
      ],
      "name": "ShipAlreadyAdded",
      "type": "error"
    },
    {
      "anonymous": false,
      "inputs": [
        {
          "indexed": true,
          "internalType": "bool",
          "name": "gameStatus",
          "type": "bool"
        },
        {
          "indexed": true,
          "internalType": "address",
          "name": "winnerAddress",
          "type": "address"
        }
      ],
      "name": "GameUpdated",
      "type": "event"
    },
    {
      "anonymous": false,
      "inputs": [
        {
          "indexed": false,
          "internalType": "string",
          "name": "gameWinner",
          "type": "string"
        }
      ],
      "name": "GameWinner",
      "type": "event"
    },
    {
      "anonymous": false,
      "inputs": [
        {
          "indexed": true,
          "internalType": "address",
          "name": "previousOwner",
          "type": "address"
        },
        {
          "indexed": true,
          "internalType": "address",
          "name": "newOwner",
          "type": "address"
        }
      ],
      "name": "OwnershipTransferred",
      "type": "event"
    },
    {
      "anonymous": false,
      "inputs": [
        {
          "indexed": true,
          "internalType": "address",
          "name": "player",
          "type": "address"
        }
      ],
      "name": "PlayerAdded",
      "type": "event"
    },
    {
      "anonymous": false,
      "inputs": [
        {
          "indexed": true,
          "internalType": "address",
          "name": "player",
          "type": "address"
        }
      ],
      "name": "PlayerDefeated",
      "type": "event"
    },
    {
      "inputs": [
        {
          "internalType": "uint8",
          "name": "gameId",
          "type": "uint8"
        }
      ],
      "name": "addShip",
      "outputs": [
        {
          "components": [
            {
              "components": [
                {
                  "internalType": "uint8",
                  "name": "q",
                  "type": "uint8"
                },
                {
                  "internalType": "uint8",
                  "name": "r",
                  "type": "uint8"
                }
              ],
              "internalType": "struct SharedStructs.Coordinate",
              "name": "coordinate",
              "type": "tuple"
            },
            {
              "internalType": "enum SharedStructs.Directions",
              "name": "travelDirection",
              "type": "uint8"
            },
            {
              "internalType": "uint8",
              "name": "travelDistance",
              "type": "uint8"
            },
            {
              "internalType": "enum SharedStructs.Directions",
              "name": "shotDirection",
              "type": "uint8"
            },
            {
              "internalType": "uint8",
              "name": "shotDistance",
              "type": "uint8"
            },
            {
              "internalType": "bool",
              "name": "publishedMove",
              "type": "bool"
            },
            {
              "internalType": "address",
              "name": "captain",
              "type": "address"
            }
          ],
          "internalType": "struct Game.Ship",
          "name": "",
          "type": "tuple"
        }
      ],
      "stateMutability": "nonpayable",
      "type": "function"
    },
    {
      "inputs": [
        {
          "internalType": "uint8",
          "name": "gameId",
          "type": "uint8"
        }
      ],
      "name": "allowCommitMoves",
      "outputs": [],
      "stateMutability": "nonpayable",
      "type": "function"
    },
    {
      "inputs": [
        {
          "internalType": "uint8",
          "name": "gameId",
          "type": "uint8"
        }
      ],
      "name": "allowSubmitMoves",
      "outputs": [],
      "stateMutability": "nonpayable",
      "type": "function"
    },
    {
      "inputs": [
        {
          "internalType": "bytes32",
          "name": "moveHash",
          "type": "bytes32"
        },
        {
          "internalType": "uint8",
          "name": "gameId",
          "type": "uint8"
        }
      ],
      "name": "commitMove",
      "outputs": [],
      "stateMutability": "nonpayable",
      "type": "function"
    },
    {
      "inputs": [
        {
          "internalType": "uint256",
          "name": "gameId",
          "type": "uint256"
        }
      ],
      "name": "endGame",
      "outputs": [],
      "stateMutability": "nonpayable",
      "type": "function"
    },
    {
      "inputs": [
        {
          "internalType": "uint256",
          "name": "",
          "type": "uint256"
        }
      ],
      "name": "games",
      "outputs": [
        {
          "internalType": "uint256",
          "name": "round",
          "type": "uint256"
        },
        {
          "internalType": "bool",
          "name": "gameInProgress",
          "type": "bool"
        },
        {
          "internalType": "bool",
          "name": "stopAddingShips",
          "type": "bool"
        },
        {
          "internalType": "bool",
          "name": "letCommitMoves",
          "type": "bool"
        },
        {
          "internalType": "bool",
          "name": "letSubmitMoves",
          "type": "bool"
        }
      ],
      "stateMutability": "view",
      "type": "function"
    },
    {
      "inputs": [
        {
          "components": [
            {
              "internalType": "uint8",
              "name": "q",
              "type": "uint8"
            },
            {
              "internalType": "uint8",
              "name": "r",
              "type": "uint8"
            }
          ],
          "internalType": "struct SharedStructs.Coordinate",
          "name": "_coord",
          "type": "tuple"
        },
        {
          "internalType": "uint8",
          "name": "gameId",
          "type": "uint8"
        }
      ],
      "name": "getCell",
      "outputs": [
        {
          "components": [
            {
              "internalType": "uint8",
              "name": "q",
              "type": "uint8"
            },
            {
              "internalType": "uint8",
              "name": "r",
              "type": "uint8"
            },
            {
              "internalType": "bool",
              "name": "island",
              "type": "bool"
            },
            {
              "internalType": "bool",
              "name": "exists",
              "type": "bool"
            }
          ],
          "internalType": "struct SharedStructs.Cell",
          "name": "",
          "type": "tuple"
        }
      ],
      "stateMutability": "view",
      "type": "function"
    },
    {
      "inputs": [
        {
          "internalType": "uint8",
          "name": "gameId",
          "type": "uint8"
        }
      ],
      "name": "getCells",
      "outputs": [
        {
          "components": [
            {
              "internalType": "uint8",
              "name": "q",
              "type": "uint8"
            },
            {
              "internalType": "uint8",
              "name": "r",
              "type": "uint8"
            }
          ],
          "internalType": "struct SharedStructs.Coordinate[]",
          "name": "",
          "type": "tuple[]"
        }
      ],
      "stateMutability": "view",
      "type": "function"
    },
    {
      "inputs": [
        {
          "internalType": "address",
          "name": "ownerAddress",
          "type": "address"
        }
      ],
      "name": "getMetadata",
      "outputs": [
        {
          "internalType": "string",
          "name": "",
          "type": "string"
        }
      ],
      "stateMutability": "view",
      "type": "function"
    },
    {
      "inputs": [
        {
          "internalType": "uint8",
          "name": "gameId",
          "type": "uint8"
        }
      ],
      "name": "getRadius",
      "outputs": [
        {
          "internalType": "uint8",
          "name": "",
          "type": "uint8"
        }
      ],
      "stateMutability": "view",
      "type": "function"
    },
    {
      "inputs": [
        {
          "internalType": "uint8",
          "name": "gameId",
          "type": "uint8"
        }
      ],
      "name": "getShips",
      "outputs": [
        {
          "components": [
            {
              "components": [
                {
                  "internalType": "uint8",
                  "name": "q",
                  "type": "uint8"
                },
                {
                  "internalType": "uint8",
                  "name": "r",
                  "type": "uint8"
                }
              ],
              "internalType": "struct SharedStructs.Coordinate",
              "name": "coordinate",
              "type": "tuple"
            },
            {
              "internalType": "enum SharedStructs.Directions",
              "name": "travelDirection",
              "type": "uint8"
            },
            {
              "internalType": "uint8",
              "name": "travelDistance",
              "type": "uint8"
            },
            {
              "internalType": "enum SharedStructs.Directions",
              "name": "shotDirection",
              "type": "uint8"
            },
            {
              "internalType": "uint8",
              "name": "shotDistance",
              "type": "uint8"
            },
            {
              "internalType": "bool",
              "name": "publishedMove",
              "type": "bool"
            },
            {
              "internalType": "address",
              "name": "captain",
              "type": "address"
            }
          ],
          "internalType": "struct Game.Ship[]",
          "name": "",
          "type": "tuple[]"
        }
      ],
      "stateMutability": "view",
      "type": "function"
    },
    {
      "inputs": [
        {
          "internalType": "uint8",
          "name": "_radius",
          "type": "uint8"
        },
        {
          "internalType": "uint8",
          "name": "gameId",
          "type": "uint8"
        }
      ],
      "name": "initGame",
      "outputs": [],
      "stateMutability": "nonpayable",
      "type": "function"
    },
    {
      "inputs": [
        {
          "components": [
            {
              "internalType": "uint8",
              "name": "q",
              "type": "uint8"
            },
            {
              "internalType": "uint8",
              "name": "r",
              "type": "uint8"
            }
          ],
          "internalType": "struct SharedStructs.Coordinate",
          "name": "_start",
          "type": "tuple"
        },
        {
          "internalType": "enum SharedStructs.Directions",
          "name": "_dir",
          "type": "uint8"
        },
        {
          "internalType": "uint8",
          "name": "_distance",
          "type": "uint8"
        },
        {
          "internalType": "uint8",
          "name": "gameId",
          "type": "uint8"
        }
      ],
      "name": "move",
      "outputs": [
        {
          "components": [
            {
              "internalType": "uint8",
              "name": "q",
              "type": "uint8"
            },
            {
              "internalType": "uint8",
              "name": "r",
              "type": "uint8"
            }
          ],
          "internalType": "struct SharedStructs.Coordinate",
          "name": "",
          "type": "tuple"
        }
      ],
      "stateMutability": "view",
      "type": "function"
    },
    {
      "inputs": [],
      "name": "owner",
      "outputs": [
        {
          "internalType": "address",
          "name": "",
          "type": "address"
        }
      ],
      "stateMutability": "view",
      "type": "function"
    },
    {
      "inputs": [],
      "name": "renounceOwnership",
      "outputs": [],
      "stateMutability": "nonpayable",
      "type": "function"
    },
    {
      "inputs": [
        {
          "internalType": "enum SharedStructs.Directions",
          "name": "_travelDirection",
          "type": "uint8"
        },
        {
          "internalType": "uint8",
          "name": "_travelDistance",
          "type": "uint8"
        },
        {
          "internalType": "enum SharedStructs.Directions",
          "name": "_shotDirection",
          "type": "uint8"
        },
        {
          "internalType": "uint8",
          "name": "_shotDistance",
          "type": "uint8"
        },
        {
          "internalType": "uint256",
          "name": "secret",
          "type": "uint256"
        },
        {
          "internalType": "uint8",
          "name": "gameId",
          "type": "uint8"
        }
      ],
      "name": "revealMove",
      "outputs": [],
      "stateMutability": "nonpayable",
      "type": "function"
    },
    {
      "inputs": [
        {
          "internalType": "uint8",
          "name": "gameId",
          "type": "uint8"
        }
      ],
      "name": "startNewGame",
      "outputs": [],
      "stateMutability": "nonpayable",
      "type": "function"
    },
    {
      "inputs": [
        {
          "internalType": "address",
          "name": "newOwner",
          "type": "address"
        }
      ],
      "name": "transferOwnership",
      "outputs": [],
      "stateMutability": "nonpayable",
      "type": "function"
    },
    {
      "inputs": [
        {
          "components": [
            {
              "internalType": "uint8",
              "name": "q",
              "type": "uint8"
            },
            {
              "internalType": "uint8",
              "name": "r",
              "type": "uint8"
            }
          ],
          "internalType": "struct SharedStructs.Coordinate",
          "name": "_startCell",
          "type": "tuple"
        },
        {
          "internalType": "enum SharedStructs.Directions",
          "name": "_direction",
          "type": "uint8"
        },
        {
          "internalType": "uint8",
          "name": "_distance",
          "type": "uint8"
        },
        {
          "internalType": "uint8",
          "name": "gameId",
          "type": "uint8"
        }
      ],
      "name": "travel",
      "outputs": [],
      "stateMutability": "nonpayable",
      "type": "function"
    },
    {
      "inputs": [
        {
          "internalType": "uint8",
          "name": "gameId",
          "type": "uint8"
        }
      ],
      "name": "updateWorld",
      "outputs": [],
      "stateMutability": "nonpayable",
      "type": "function"
    },
    {
      "inputs": [],
      "name": "yachts",
      "outputs": [
        {
          "internalType": "contract Yachts",
          "name": "",
          "type": "address"
        }
      ],
      "stateMutability": "view",
      "type": "function"
    }
  ],
  "bytecode": "0x60a06040523480156200001157600080fd5b50604051620062873803806200628783398181016040528101906200003791906200020a565b620000576200004b620000d460201b60201c565b620000dc60201b60201c565b8173ffffffffffffffffffffffffffffffffffffffff1660808173ffffffffffffffffffffffffffffffffffffffff168152505080600260006101000a81548173ffffffffffffffffffffffffffffffffffffffff021916908373ffffffffffffffffffffffffffffffffffffffff160217905550505062000251565b600033905090565b60008060009054906101000a900473ffffffffffffffffffffffffffffffffffffffff169050816000806101000a81548173ffffffffffffffffffffffffffffffffffffffff021916908373ffffffffffffffffffffffffffffffffffffffff1602179055508173ffffffffffffffffffffffffffffffffffffffff168173ffffffffffffffffffffffffffffffffffffffff167f8be0079c531659141344cd1fd0a4f28419497f9722a3daafe3b4186f6b6457e060405160405180910390a35050565b600080fd5b600073ffffffffffffffffffffffffffffffffffffffff82169050919050565b6000620001d282620001a5565b9050919050565b620001e481620001c5565b8114620001f057600080fd5b50565b6000815190506200020481620001d9565b92915050565b60008060408385031215620002245762000223620001a0565b5b60006200023485828601620001f3565b92505060206200024785828601620001f3565b9150509250929050565b608051615fd4620002b3600039600081816104ff0152818161099e01528181610ab601528181610c6801528181610e2f015281816110c20152818161114f015281816117a201528181611b9801528181612be20152612f990152615fd46000f3fe608060405234801561001057600080fd5b50600436106101375760003560e01c80636ed296e4116100b8578063d0399bb81161007c578063d0399bb81461033a578063d085a86f14610356578063e7c435a714610386578063ebd19fe5146103a2578063f2fde38b146103d2578063fd870446146103ee57610137565b80636ed296e4146102be578063715018a6146102da57806382536968146102e45780638da5cb5b14610300578063978ac3561461031e57610137565b806334361208116100ff57806334361208146101f45780634aac9b8b146102245780634d02388614610254578063508236ca14610284578063598e5ad8146102a057610137565b8063117a5b901461013c5780631cf8a321146101705780632277743b1461018c5780632923a41f146101a85780632a50c146146101c4575b600080fd5b610156600480360381019061015191906144fb565b61041e565b604051610167959493929190614552565b60405180910390f35b61018a600480360381019061018591906146e4565b610488565b005b6101a660048036038101906101a1919061474b565b610688565b005b6101c260048036038101906101bd919061474b565b610723565b005b6101de60048036038101906101d991906147d6565b6107db565b6040516101eb9190614882565b60405180910390f35b61020e6004803603810190610209919061474b565b610929565b60405161021b91906148b3565b60405180910390f35b61023e6004803603810190610239919061474b565b610a3e565b60405161024b91906149bb565b60405180910390f35b61026e600480360381019061026991906149dd565b610db3565b60405161027b9190614a81565b60405180910390f35b61029e60048036038101906102999190614a9c565b610ed2565b005b6102a86111dd565b6040516102b59190614b3b565b60405180910390f35b6102d860048036038101906102d3919061474b565b611203565b005b6102e26112ec565b005b6102fe60048036038101906102f99190614b56565b611300565b005b610308611545565b6040516103159190614bf2565b60405180910390f35b6103386004803603810190610333919061474b565b61156e565b005b610354600480360381019061034f91906144fb565b612abc565b005b610370600480360381019061036b91906146e4565b612b66565b60405161037d9190614c3c565b60405180910390f35b6103a0600480360381019061039b9190614c8d565b612c88565b005b6103bc60048036038101906103b7919061474b565b612d45565b6040516103c99190614de2565b60405180910390f35b6103ec60048036038101906103e791906147d6565b6135b7565b005b6104086004803603810190610403919061474b565b61363a565b6040516104159190614f3d565b60405180910390f35b60016020528060005260406000206000915090508060000154908060030160009054906101000a900460ff16908060030160019054906101000a900460ff16908060030160029054906101000a900460ff16908060030160039054906101000a900460ff16905085565b6000600160008360ff1681526020019081526020016000209050600115158160030160009054906101000a900460ff161515146104fa576040517f08c379a00000000000000000000000000000000000000000000000000000000081526004016104f190614fab565b60405180910390fd5b6000807f000000000000000000000000000000000000000000000000000000000000000073ffffffffffffffffffffffffffffffffffffffff16631cf8a321888888886040518563ffffffff1660e01b815260040161055c9493929190614fda565b606060405180830381865afa158015610579573d6000803e3d6000fd5b505050506040513d601f19601f8201168201806040525081019061059d91906150b0565b9150915081156105b6576105b13385613994565b61067f565b80600001518360010160003373ffffffffffffffffffffffffffffffffffffffff1673ffffffffffffffffffffffffffffffffffffffff16815260200190815260200160002060000160000160006101000a81548160ff021916908360ff16021790555080602001518360010160003373ffffffffffffffffffffffffffffffffffffffff1673ffffffffffffffffffffffffffffffffffffffff16815260200190815260200160002060000160000160016101000a81548160ff021916908360ff1602179055505b50505050505050565b610690613abf565b6000600160008360ff1681526020019081526020016000209050600115158160030160009054906101000a900460ff16151514610702576040517f08c379a00000000000000000000000000000000000000000000000000000000081526004016106f990614fab565b60405180910390fd5b60018160030160026101000a81548160ff0219169083151502179055505050565b61072b613abf565b6000600160008360ff1681526020019081526020016000209050600115158160030160009054906101000a900460ff1615151461079d576040517f08c379a000000000000000000000000000000000000000000000000000000000815260040161079490614fab565b60405180910390fd5b60008160030160026101000a81548160ff02191690831515021790555060018160030160036101000a81548160ff0219169083151502179055505050565b60606000600260009054906101000a900473ffffffffffffffffffffffffffffffffffffffff1673ffffffffffffffffffffffffffffffffffffffff16632f745c598460016040518363ffffffff1660e01b815260040161083d92919061512b565b602060405180830381865afa15801561085a573d6000803e3d6000fd5b505050506040513d601f19601f8201168201806040525081019061087e9190615169565b9050600260009054906101000a900473ffffffffffffffffffffffffffffffffffffffff1673ffffffffffffffffffffffffffffffffffffffff1663c87b56dd826040518263ffffffff1660e01b81526004016108db9190615196565b600060405180830381865afa1580156108f8573d6000803e3d6000fd5b505050506040513d6000823e3d601f19601f82011682018060405250810190610921919061525c565b915050919050565b600080600160008460ff1681526020019081526020016000209050600115158160030160009054906101000a900460ff1615151461099c576040517f08c379a000000000000000000000000000000000000000000000000000000000815260040161099390614fab565b60405180910390fd5b7f000000000000000000000000000000000000000000000000000000000000000073ffffffffffffffffffffffffffffffffffffffff166386df5be6846040518263ffffffff1660e01b81526004016109f591906152d6565b602060405180830381865afa158015610a12573d6000803e3d6000fd5b505050506040513d601f19601f82011682018060405250810190610a3691906152f1565b915050919050565b60606000600160008460ff1681526020019081526020016000209050600115158160030160009054906101000a900460ff16151514610ab2576040517f08c379a0000000000000000000000000000000000000000000000000000000008152600401610aa990614fab565b60405180910390fd5b60007f000000000000000000000000000000000000000000000000000000000000000073ffffffffffffffffffffffffffffffffffffffff166386df5be6856040518263ffffffff1660e01b8152600401610b0d91906152d6565b602060405180830381865afa158015610b2a573d6000803e3d6000fd5b505050506040513d601f19601f82011682018060405250810190610b4e91906152f1565b90506000600182610b5f919061534d565b826003610b6c9190615382565b610b769190615382565b6001610b82919061534d565b60ff16905060008167ffffffffffffffff811115610ba357610ba26145bb565b5b604051908082528060200260200182016040528015610bdc57816020015b610bc961439c565b815260200190600190039081610bc15790505b50905060405180604001604052808460ff1681526020018460ff1681525081600081518110610c0e57610c0d6153bf565b5b60200260200101819052506000600190505b8360ff168160ff1611610da657600081600183610c3d91906153ee565b6003610c499190615382565b610c539190615382565b6001610c5f919061534d565b60ff16905060007f000000000000000000000000000000000000000000000000000000000000000073ffffffffffffffffffffffffffffffffffffffff166339e5c4a085600081518110610cb657610cb56153bf565b5b6020026020010151856040518363ffffffff1660e01b8152600401610cdc929190615423565b600060405180830381865afa158015610cf9573d6000803e3d6000fd5b505050506040513d6000823e3d601f19601f82011682018060405250810190610d229190615514565b905060005b81518160ff161015610d9057818160ff1681518110610d4957610d486153bf565b5b6020026020010151858260ff1685610d61919061555d565b81518110610d7257610d716153bf565b5b60200260200101819052508080610d8890615591565b915050610d27565b5050508080610d9e90615591565b915050610c20565b5080945050505050919050565b610dbb6143bc565b6000600160008460ff1681526020019081526020016000209050600115158160030160009054906101000a900460ff16151514610e2d576040517f08c379a0000000000000000000000000000000000000000000000000000000008152600401610e2490614fab565b60405180910390fd5b7f000000000000000000000000000000000000000000000000000000000000000073ffffffffffffffffffffffffffffffffffffffff16634d02388685856040518363ffffffff1660e01b8152600401610e88929190615423565b608060405180830381865afa158015610ea5573d6000803e3d6000fd5b505050506040513d601f19601f82011682018060405250810190610ec99190615632565b91505092915050565b610eda613abf565b6000600160008360ff1681526020019081526020016000209050600115158160030160009054906101000a900460ff16151514610f4c576040517f08c379a0000000000000000000000000000000000000000000000000000000008152600401610f4390614fab565b60405180910390fd5b60005b81600201805490508110156110af57816001016000836002018381548110610f7a57610f796153bf565b5b9060005260206000200160009054906101000a900473ffffffffffffffffffffffffffffffffffffffff1673ffffffffffffffffffffffffffffffffffffffff1673ffffffffffffffffffffffffffffffffffffffff1681526020019081526020016000206000808201600080820160006101000a81549060ff02191690556000820160016101000a81549060ff021916905550506001820160006101000a81549060ff02191690556001820160016101000a81549060ff02191690556001820160026101000a81549060ff02191690556001820160036101000a81549060ff02191690556001820160046101000a81549060ff02191690556001820160056101000a81549073ffffffffffffffffffffffffffffffffffffffff0219169055505080806110a79061565f565b915050610f4f565b508060020160006110c091906143ee565b7f000000000000000000000000000000000000000000000000000000000000000073ffffffffffffffffffffffffffffffffffffffff1663d202ec3884846040518363ffffffff1660e01b815260040161111b9291906156a7565b600060405180830381600087803b15801561113557600080fd5b505af1158015611149573d6000803e3d6000fd5b505050507f000000000000000000000000000000000000000000000000000000000000000073ffffffffffffffffffffffffffffffffffffffff166318068d37836040518263ffffffff1660e01b81526004016111a691906148b3565b600060405180830381600087803b1580156111c057600080fd5b505af11580156111d4573d6000803e3d6000fd5b50505050505050565b600260009054906101000a900473ffffffffffffffffffffffffffffffffffffffff1681565b61120b613abf565b60ff8160ff1610611251576040517f08c379a00000000000000000000000000000000000000000000000000000000081526004016112489061571c565b60405180910390fd5b600160008260ff16815260200190815260200160002060030160009054906101000a900460ff16156112b8576040517f08c379a00000000000000000000000000000000000000000000000000000000081526004016112af906157ae565b60405180910390fd5b60018060008360ff16815260200190815260200160002060030160006101000a81548160ff02191690831515021790555050565b6112f4613abf565b6112fe6000613b3d565b565b6000600160008360ff1681526020019081526020016000209050600115158160030160039054906101000a900460ff16151514611372576040517f08c379a000000000000000000000000000000000000000000000000000000000815260040161136990615840565b60405180910390fd5b600115158160030160009054906101000a900460ff161515146113ca576040517f08c379a00000000000000000000000000000000000000000000000000000000081526004016113c190614fab565b60405180910390fd5b600087878787876040516020016113e59594939291906158ce565b604051602081830303815290604052805190602001209050808260040160003373ffffffffffffffffffffffffffffffffffffffff1673ffffffffffffffffffffffffffffffffffffffff168152602001908152602001600020540361153b5760008260010160003373ffffffffffffffffffffffffffffffffffffffff1673ffffffffffffffffffffffffffffffffffffffff1681526020019081526020016000209050888160010160006101000a81548160ff021916908360068111156114b1576114b0614ccd565b5b0217905550878160010160016101000a81548160ff021916908360ff160217905550868160010160026101000a81548160ff021916908360068111156114fa576114f9614ccd565b5b0217905550858160010160036101000a81548160ff021916908360ff16021790555060018160010160046101000a81548160ff021916908315150217905550505b5050505050505050565b60008060009054906101000a900473ffffffffffffffffffffffffffffffffffffffff16905090565b611576613abf565b6000600160008360ff1681526020019081526020016000209050600115158160030160009054906101000a900460ff161515146115e8576040517f08c379a00000000000000000000000000000000000000000000000000000000081526004016115df90614fab565b60405180910390fd5b6000816002018054905067ffffffffffffffff81111561160b5761160a6145bb565b5b60405190808252806020026020018201604052801561164457816020015b61163161439c565b8152602001906001900390816116295790505b5090506000826002018054905067ffffffffffffffff81111561166a576116696145bb565b5b6040519080825280602002602001820160405280156116985781602001602082028036833780820191505090505b50905060005b83600201805490508160ff1610156116ed576001828260ff16815181106116c8576116c76153bf565b5b60200260200101901515908115158152505080806116e590615591565b91505061169e565b5060005b83600201805490508160ff161015611b5b57836001016000856002018360ff1681548110611722576117216153bf565b5b9060005260206000200160009054906101000a900473ffffffffffffffffffffffffffffffffffffffff1673ffffffffffffffffffffffffffffffffffffffff1673ffffffffffffffffffffffffffffffffffffffff16815260200190815260200160002060010160049054906101000a900460ff1615611b47576000807f000000000000000000000000000000000000000000000000000000000000000073ffffffffffffffffffffffffffffffffffffffff16631cf8a321876001016000896002018760ff16815481106117fb576117fa6153bf565b5b9060005260206000200160009054906101000a900473ffffffffffffffffffffffffffffffffffffffff1673ffffffffffffffffffffffffffffffffffffffff1673ffffffffffffffffffffffffffffffffffffffff1681526020019081526020016000206000018860010160008a6002018860ff1681548110611882576118816153bf565b5b9060005260206000200160009054906101000a900473ffffffffffffffffffffffffffffffffffffffff1673ffffffffffffffffffffffffffffffffffffffff1673ffffffffffffffffffffffffffffffffffffffff16815260200190815260200160002060010160009054906101000a900460ff168960010160008b6002018960ff1681548110611917576119166153bf565b5b9060005260206000200160009054906101000a900473ffffffffffffffffffffffffffffffffffffffff1673ffffffffffffffffffffffffffffffffffffffff1673ffffffffffffffffffffffffffffffffffffffff16815260200190815260200160002060010160019054906101000a900460ff168b6040518563ffffffff1660e01b81526004016119ad94939291906159c8565b606060405180830381865afa1580156119ca573d6000803e3d6000fd5b505050506040513d601f19601f820116820180604052508101906119ee91906150b0565b915091508115611a7757611a46866002018460ff1681548110611a1457611a136153bf565b5b9060005260206000200160009054906101000a900473ffffffffffffffffffffffffffffffffffffffff168489613c01565b6000848460ff1681518110611a5e57611a5d6153bf565b5b6020026020010190151590811515815250505050611b48565b80866001016000886002018660ff1681548110611a9757611a966153bf565b5b9060005260206000200160009054906101000a900473ffffffffffffffffffffffffffffffffffffffff1673ffffffffffffffffffffffffffffffffffffffff1673ffffffffffffffffffffffffffffffffffffffff16815260200190815260200160002060000160008201518160000160006101000a81548160ff021916908360ff16021790555060208201518160000160016101000a81548160ff021916908360ff16021790555090505050505b5b8080611b5390615591565b9150506116f1565b5060005b83600201805490508160ff161015611e1a57818160ff1681518110611b8757611b866153bf565b5b602002602001015115611e075760007f000000000000000000000000000000000000000000000000000000000000000073ffffffffffffffffffffffffffffffffffffffff1663d6192ad3866001016000886002018660ff1681548110611bf157611bf06153bf565b5b9060005260206000200160009054906101000a900473ffffffffffffffffffffffffffffffffffffffff1673ffffffffffffffffffffffffffffffffffffffff1673ffffffffffffffffffffffffffffffffffffffff168152602001908152602001600020600001876001016000896002018760ff1681548110611c7857611c776153bf565b5b9060005260206000200160009054906101000a900473ffffffffffffffffffffffffffffffffffffffff1673ffffffffffffffffffffffffffffffffffffffff1673ffffffffffffffffffffffffffffffffffffffff16815260200190815260200160002060010160029054906101000a900460ff168860010160008a6002018860ff1681548110611d0d57611d0c6153bf565b5b9060005260206000200160009054906101000a900473ffffffffffffffffffffffffffffffffffffffff1673ffffffffffffffffffffffffffffffffffffffff1673ffffffffffffffffffffffffffffffffffffffff16815260200190815260200160002060010160039054906101000a900460ff166040518463ffffffff1660e01b8152600401611da193929190615a0d565b6040805180830381865afa158015611dbd573d6000803e3d6000fd5b505050506040513d601f19601f82011682018060405250810190611de19190615a44565b905080848360ff1681518110611dfa57611df96153bf565b5b6020026020010181905250505b8080611e1290615591565b915050611b5f565b5060005b83600201805490508160ff1610156124365760005b84600201805490508160ff161015612422578060ff168260ff161461240f57828260ff1681518110611e6857611e676153bf565b5b60200260200101518015611e965750828160ff1681518110611e8d57611e8c6153bf565b5b60200260200101515b8015611fd55750846001016000866002018460ff1681548110611ebc57611ebb6153bf565b5b9060005260206000200160009054906101000a900473ffffffffffffffffffffffffffffffffffffffff1673ffffffffffffffffffffffffffffffffffffffff1673ffffffffffffffffffffffffffffffffffffffff16815260200190815260200160002060000160000160009054906101000a900460ff1660ff16856001016000876002018460ff1681548110611f5757611f566153bf565b5b9060005260206000200160009054906101000a900473ffffffffffffffffffffffffffffffffffffffff1673ffffffffffffffffffffffffffffffffffffffff1673ffffffffffffffffffffffffffffffffffffffff16815260200190815260200160002060000160000160009054906101000a900460ff1660ff16145b80156121145750846001016000866002018460ff1681548110611ffb57611ffa6153bf565b5b9060005260206000200160009054906101000a900473ffffffffffffffffffffffffffffffffffffffff1673ffffffffffffffffffffffffffffffffffffffff1673ffffffffffffffffffffffffffffffffffffffff16815260200190815260200160002060000160000160019054906101000a900460ff1660ff16856001016000876002018460ff1681548110612096576120956153bf565b5b9060005260206000200160009054906101000a900473ffffffffffffffffffffffffffffffffffffffff1673ffffffffffffffffffffffffffffffffffffffff1673ffffffffffffffffffffffffffffffffffffffff16815260200190815260200160002060000160000160019054906101000a900460ff1660ff16145b1561220a576000838360ff1681518110612131576121306153bf565b5b6020026020010190151590811515815250506000838260ff168151811061215b5761215a6153bf565b5b6020026020010190151590811515815250506121bb856002018360ff1681548110612189576121886153bf565b5b9060005260206000200160009054906101000a900473ffffffffffffffffffffffffffffffffffffffff168388613c01565b612209856002018260ff16815481106121d7576121d66153bf565b5b9060005260206000200160009054906101000a900473ffffffffffffffffffffffffffffffffffffffff168288613c01565b5b828260ff16815181106122205761221f6153bf565b5b602002602001015180156122f15750846001016000866002018460ff168154811061224e5761224d6153bf565b5b9060005260206000200160009054906101000a900473ffffffffffffffffffffffffffffffffffffffff1673ffffffffffffffffffffffffffffffffffffffff1673ffffffffffffffffffffffffffffffffffffffff16815260200190815260200160002060000160000160009054906101000a900460ff1660ff16848260ff16815181106122e0576122df6153bf565b5b60200260200101516000015160ff16145b80156123ba5750846001016000866002018460ff1681548110612317576123166153bf565b5b9060005260206000200160009054906101000a900473ffffffffffffffffffffffffffffffffffffffff1673ffffffffffffffffffffffffffffffffffffffff1673ffffffffffffffffffffffffffffffffffffffff16815260200190815260200160002060000160000160019054906101000a900460ff1660ff16848260ff16815181106123a9576123a86153bf565b5b60200260200101516020015160ff16145b1561240e5761240d856002018360ff16815481106123db576123da6153bf565b5b9060005260206000200160009054906101000a900473ffffffffffffffffffffffffffffffffffffffff168388613c01565b5b5b808061241a90615591565b915050611e33565b50808061242e90615591565b915050611e1e565b5060005b83600201805490508160ff1610156125f057600073ffffffffffffffffffffffffffffffffffffffff16846002018260ff168154811061247d5761247c6153bf565b5b9060005260206000200160009054906101000a900473ffffffffffffffffffffffffffffffffffffffff1673ffffffffffffffffffffffffffffffffffffffff16036125dd5783600201600185600201805490506124db9190615a71565b815481106124ec576124eb6153bf565b5b9060005260206000200160009054906101000a900473ffffffffffffffffffffffffffffffffffffffff16846002018260ff16815481106125305761252f6153bf565b5b9060005260206000200160006101000a81548173ffffffffffffffffffffffffffffffffffffffff021916908373ffffffffffffffffffffffffffffffffffffffff1602179055508360020180548061258c5761258b615aa5565b5b6001900381819060005260206000200160006101000a81549073ffffffffffffffffffffffffffffffffffffffff0219169055905560008160ff1611156125dc5780806125d890615ad4565b9150505b5b80806125e890615591565b91505061243a565b506000836002018054905003612657577fb609981dd10c4309ee2f55e2fd9b631438fb9d9de43270f098b64571e58352db60405161262d90615b49565b60405180910390a160018360030160016101000a81548160ff021916908315150217905550612ab6565b6001836002018054905003612727577fb609981dd10c4309ee2f55e2fd9b631438fb9d9de43270f098b64571e58352db6126d1846002016000815481106126a1576126a06153bf565b5b9060005260206000200160009054906101000a900473ffffffffffffffffffffffffffffffffffffffff16613e69565b6040516020016126e19190615bf1565b6040516020818303038152906040526040516126fd9190614882565b60405180910390a160018360030160016101000a81548160ff021916908315150217905550612ab5565b8260020160008154811061273e5761273d6153bf565b5b9060005260206000200160009054906101000a900473ffffffffffffffffffffffffffffffffffffffff1673ffffffffffffffffffffffffffffffffffffffff16600015157f71c863affc60bf856f78adf835c2f8d43a35f214dc51c98e8b9953560f30bf8260405160405180910390a360005b83600201805490508160ff161015612a79576006846001016000866002018460ff16815481106127e5576127e46153bf565b5b9060005260206000200160009054906101000a900473ffffffffffffffffffffffffffffffffffffffff1673ffffffffffffffffffffffffffffffffffffffff1673ffffffffffffffffffffffffffffffffffffffff16815260200190815260200160002060010160006101000a81548160ff0219169083600681111561286f5761286e614ccd565b5b02179055506000846001016000866002018460ff1681548110612895576128946153bf565b5b9060005260206000200160009054906101000a900473ffffffffffffffffffffffffffffffffffffffff1673ffffffffffffffffffffffffffffffffffffffff1673ffffffffffffffffffffffffffffffffffffffff16815260200190815260200160002060010160016101000a81548160ff021916908360ff1602179055506006846001016000866002018460ff1681548110612936576129356153bf565b5b9060005260206000200160009054906101000a900473ffffffffffffffffffffffffffffffffffffffff1673ffffffffffffffffffffffffffffffffffffffff1673ffffffffffffffffffffffffffffffffffffffff16815260200190815260200160002060010160026101000a81548160ff021916908360068111156129c0576129bf614ccd565b5b02179055506000846001016000866002018460ff16815481106129e6576129e56153bf565b5b9060005260206000200160009054906101000a900473ffffffffffffffffffffffffffffffffffffffff1673ffffffffffffffffffffffffffffffffffffffff1673ffffffffffffffffffffffffffffffffffffffff16815260200190815260200160002060010160036101000a81548160ff021916908360ff1602179055508080612a7190615591565b9150506127b2565b5060008360030160026101000a81548160ff02191690831515021790555060008360030160036101000a81548160ff0219169083151502179055505b5b50505050565b612ac4613abf565b6000600160008381526020019081526020016000209050600115158160030160009054906101000a900460ff16151514612b33576040517f08c379a0000000000000000000000000000000000000000000000000000000008152600401612b2a90614fab565b60405180910390fd5b60006001600084815260200190815260200160002060030160006101000a81548160ff0219169083151502179055505050565b612b6e61439c565b6000600160008460ff1681526020019081526020016000209050600115158160030160009054906101000a900460ff16151514612be0576040517f08c379a0000000000000000000000000000000000000000000000000000000008152600401612bd790614fab565b60405180910390fd5b7f000000000000000000000000000000000000000000000000000000000000000073ffffffffffffffffffffffffffffffffffffffff16631a84a4ea8787876040518463ffffffff1660e01b8152600401612c3d93929190615c13565b6040805180830381865afa158015612c59573d6000803e3d6000fd5b505050506040513d601f19601f82011682018060405250810190612c7d9190615a44565b915050949350505050565b6000600160008360ff1681526020019081526020016000209050600115158160030160029054906101000a900460ff16151514612cfa576040517f08c379a0000000000000000000000000000000000000000000000000000000008152600401612cf190615cbc565b60405180910390fd5b828160040160003373ffffffffffffffffffffffffffffffffffffffff1673ffffffffffffffffffffffffffffffffffffffff16815260200190815260200160002081905550505050565b612d4d61440f565b6000600160008460ff1681526020019081526020016000209050600015158160030160019054906101000a900460ff161515148015612da15750600115158160030160009054906101000a900460ff161515145b612de0576040517f08c379a0000000000000000000000000000000000000000000000000000000008152600401612dd790614fab565b60405180910390fd5b60008160010160003373ffffffffffffffffffffffffffffffffffffffff1673ffffffffffffffffffffffffffffffffffffffff16815260200190815260200160002060000160000160009054906101000a900460ff1660ff16118015612e9e575060008160010160003373ffffffffffffffffffffffffffffffffffffffff1673ffffffffffffffffffffffffffffffffffffffff16815260200190815260200160002060000160000160019054906101000a900460ff1660ff16115b15612f8c57338160010160003373ffffffffffffffffffffffffffffffffffffffff1673ffffffffffffffffffffffffffffffffffffffff16815260200190815260200160002060000160000160009054906101000a900460ff168260010160003373ffffffffffffffffffffffffffffffffffffffff1673ffffffffffffffffffffffffffffffffffffffff16815260200190815260200160002060000160000160019054906101000a900460ff166040517f8538db70000000000000000000000000000000000000000000000000000000008152600401612f8393929190615cdc565b60405180910390fd5b612f9461439c565b60005b7f000000000000000000000000000000000000000000000000000000000000000073ffffffffffffffffffffffffffffffffffffffff166342c39d91866040518263ffffffff1660e01b8152600401612ff091906148b3565b60408051808303816000875af115801561300e573d6000803e3d6000fd5b505050506040513d601f19601f820116820180604052508101906130329190615a44565b91506130826040518060400160405280601381526020017f4e657720726e6420706169722025732c20257300000000000000000000000000815250836000015160ff16846020015160ff16613e9a565b60005b83600201805490508160ff16101561328e5761311d6040518060400160405280601781526020017f696e206c6f6f702025732c20616464726573733a2025730000000000000000008152508260ff16866002018460ff16815481106130ed576130ec6153bf565b5b9060005260206000200160009054906101000a900473ffffffffffffffffffffffffffffffffffffffff16613f39565b826000015160ff16846001016000866002018460ff1681548110613144576131436153bf565b5b9060005260206000200160009054906101000a900473ffffffffffffffffffffffffffffffffffffffff1673ffffffffffffffffffffffffffffffffffffffff1673ffffffffffffffffffffffffffffffffffffffff16815260200190815260200160002060000160000160009054906101000a900460ff1660ff1614801561326d5750826020015160ff16846001016000866002018460ff16815481106131ef576131ee6153bf565b5b9060005260206000200160009054906101000a900473ffffffffffffffffffffffffffffffffffffffff1673ffffffffffffffffffffffffffffffffffffffff1673ffffffffffffffffffffffffffffffffffffffff16815260200190815260200160002060000160000160019054906101000a900460ff1660ff16145b1561327b576001915061328e565b808061328690615591565b915050613085565b5080612f975760006040518060e00160405280848152602001600060068111156132bb576132ba614ccd565b5b8152602001600060ff168152602001600060068111156132de576132dd614ccd565b5b8152602001600060ff1681526020016000151581526020013373ffffffffffffffffffffffffffffffffffffffff168152509050808460010160003373ffffffffffffffffffffffffffffffffffffffff1673ffffffffffffffffffffffffffffffffffffffff16815260200190815260200160002060008201518160000160008201518160000160006101000a81548160ff021916908360ff16021790555060208201518160000160016101000a81548160ff021916908360ff160217905550505060208201518160010160006101000a81548160ff021916908360068111156133cc576133cb614ccd565b5b021790555060408201518160010160016101000a81548160ff021916908360ff16021790555060608201518160010160026101000a81548160ff0219169083600681111561341d5761341c614ccd565b5b021790555060808201518160010160036101000a81548160ff021916908360ff16021790555060a08201518160010160046101000a81548160ff02191690831515021790555060c08201518160010160056101000a81548173ffffffffffffffffffffffffffffffffffffffff021916908373ffffffffffffffffffffffffffffffffffffffff16021790555090505083600201339080600181540180825580915050600190039060005260206000200160009091909190916101000a81548173ffffffffffffffffffffffffffffffffffffffff021916908373ffffffffffffffffffffffffffffffffffffffff1602179055506135686040518060400160405280601281526020017f4e657720736869702061742025732c202573000000000000000000000000000081525082600001516000015160ff1683600001516020015160ff16613e9a565b3373ffffffffffffffffffffffffffffffffffffffff167ff2ae205522024c14e5a7a26ba6d1fb1252dc8e161b5abc79ed5795fd3c5b926160405160405180910390a280945050505050919050565b6135bf613abf565b600073ffffffffffffffffffffffffffffffffffffffff168173ffffffffffffffffffffffffffffffffffffffff160361362e576040517f08c379a000000000000000000000000000000000000000000000000000000000815260040161362590615d85565b60405180910390fd5b61363781613b3d565b50565b60606000600160008460ff1681526020019081526020016000209050600115158160030160009054906101000a900460ff161515146136ae576040517f08c379a00000000000000000000000000000000000000000000000000000000081526004016136a590614fab565b60405180910390fd5b6000816002018054905067ffffffffffffffff8111156136d1576136d06145bb565b5b60405190808252806020026020018201604052801561370a57816020015b6136f761440f565b8152602001906001900390816136ef5790505b50905061374b6040518060400160405280601081526020017f52657472696576696e6720736869707300000000000000000000000000000000815250613fd8565b60005b826002018054905081101561398957826001016000846002018381548110613779576137786153bf565b5b9060005260206000200160009054906101000a900473ffffffffffffffffffffffffffffffffffffffff1673ffffffffffffffffffffffffffffffffffffffff1673ffffffffffffffffffffffffffffffffffffffff1681526020019081526020016000206040518060e0016040529081600082016040518060400160405290816000820160009054906101000a900460ff1660ff1660ff1681526020016000820160019054906101000a900460ff1660ff1660ff168152505081526020016001820160009054906101000a900460ff16600681111561385c5761385b614ccd565b5b600681111561386e5761386d614ccd565b5b81526020016001820160019054906101000a900460ff1660ff1660ff1681526020016001820160029054906101000a900460ff1660068111156138b4576138b3614ccd565b5b60068111156138c6576138c5614ccd565b5b81526020016001820160039054906101000a900460ff1660ff1660ff1681526020016001820160049054906101000a900460ff161515151581526020016001820160059054906101000a900473ffffffffffffffffffffffffffffffffffffffff1673ffffffffffffffffffffffffffffffffffffffff1673ffffffffffffffffffffffffffffffffffffffff168152505082828151811061396b5761396a6153bf565b5b602002602001018190525080806139819061565f565b91505061374e565b508092505050919050565b6000600160008360ff1681526020019081526020016000209050600115158160030160009054906101000a900460ff16151514613a06576040517f08c379a00000000000000000000000000000000000000000000000000000000081526004016139fd90614fab565b60405180910390fd5b6000805b82600201805490508160ff161015613aad578473ffffffffffffffffffffffffffffffffffffffff16836002018260ff1681548110613a4c57613a4b6153bf565b5b9060005260206000200160009054906101000a900473ffffffffffffffffffffffffffffffffffffffff1673ffffffffffffffffffffffffffffffffffffffff1603613a9a57809150613aad565b8080613aa590615591565b915050613a0a565b50613ab9848285613c01565b50505050565b613ac7614071565b73ffffffffffffffffffffffffffffffffffffffff16613ae5611545565b73ffffffffffffffffffffffffffffffffffffffff1614613b3b576040517f08c379a0000000000000000000000000000000000000000000000000000000008152600401613b3290615df1565b60405180910390fd5b565b60008060009054906101000a900473ffffffffffffffffffffffffffffffffffffffff169050816000806101000a81548173ffffffffffffffffffffffffffffffffffffffff021916908373ffffffffffffffffffffffffffffffffffffffff1602179055508173ffffffffffffffffffffffffffffffffffffffff168173ffffffffffffffffffffffffffffffffffffffff167f8be0079c531659141344cd1fd0a4f28419497f9722a3daafe3b4186f6b6457e060405160405180910390a35050565b6000600160008360ff168152602001908152602001600020905080600201805490508360ff1610613c67576040517f08c379a0000000000000000000000000000000000000000000000000000000008152600401613c5e90615e5d565b60405180910390fd5b600115158160030160009054906101000a900460ff16151514613cbf576040517f08c379a0000000000000000000000000000000000000000000000000000000008152600401613cb690614fab565b60405180910390fd5b8373ffffffffffffffffffffffffffffffffffffffff167fce0e3c7f8595684f9560df3c82cb81a6c5a649fcf1bdc96b2dc8b7bf228d650060405160405180910390a28060010160008573ffffffffffffffffffffffffffffffffffffffff1673ffffffffffffffffffffffffffffffffffffffff1681526020019081526020016000206000808201600080820160006101000a81549060ff02191690556000820160016101000a81549060ff021916905550506001820160006101000a81549060ff02191690556001820160016101000a81549060ff02191690556001820160026101000a81549060ff02191690556001820160036101000a81549060ff02191690556001820160046101000a81549060ff02191690556001820160056101000a81549073ffffffffffffffffffffffffffffffffffffffff021916905550506000816002018460ff1681548110613e1b57613e1a6153bf565b5b9060005260206000200160006101000a81548173ffffffffffffffffffffffffffffffffffffffff021916908373ffffffffffffffffffffffffffffffffffffffff16021790555050505050565b6060613e9382604051602001613e7f9190615ec5565b604051602081830303815290604052614079565b9050919050565b613f34838383604051602401613eb293929190615ee0565b6040516020818303038152906040527fca47c4eb000000000000000000000000000000000000000000000000000000007bffffffffffffffffffffffffffffffffffffffffffffffffffffffff19166020820180517bffffffffffffffffffffffffffffffffffffffffffffffffffffffff8381831617835250505050614373565b505050565b613fd3838383604051602401613f5193929190615f1e565b6040516020818303038152906040527f1c7ec448000000000000000000000000000000000000000000000000000000007bffffffffffffffffffffffffffffffffffffffffffffffffffffffff19166020820180517bffffffffffffffffffffffffffffffffffffffffffffffffffffffff8381831617835250505050614373565b505050565b61406e81604051602401613fec9190614882565b6040516020818303038152906040527f41304fac000000000000000000000000000000000000000000000000000000007bffffffffffffffffffffffffffffffffffffffffffffffffffffffff19166020820180517bffffffffffffffffffffffffffffffffffffffffffffffffffffffff8381831617835250505050614373565b50565b600033905090565b606060006040518060400160405280601081526020017f303132333435363738396162636465660000000000000000000000000000000081525090506000600284516140c59190615f5c565b60026140d1919061555d565b67ffffffffffffffff8111156140ea576140e96145bb565b5b6040519080825280601f01601f19166020018201604052801561411c5781602001600182028036833780820191505090505b5090507f300000000000000000000000000000000000000000000000000000000000000081600081518110614154576141536153bf565b5b60200101907effffffffffffffffffffffffffffffffffffffffffffffffffffffffffffff1916908160001a9053507f7800000000000000000000000000000000000000000000000000000000000000816001815181106141b8576141b76153bf565b5b60200101907effffffffffffffffffffffffffffffffffffffffffffffffffffffffffffff1916908160001a90535060005b845181101561436857826004868381518110614209576142086153bf565b5b602001015160f81c60f81b7effffffffffffffffffffffffffffffffffffffffffffffffffffffffffffff1916901c60f81c60ff168151811061424f5761424e6153bf565b5b602001015160f81c60f81b826002836142689190615f5c565b6002614274919061555d565b81518110614285576142846153bf565b5b60200101907effffffffffffffffffffffffffffffffffffffffffffffffffffffffffffff1916908160001a90535082600f60f81b8683815181106142cd576142cc6153bf565b5b602001015160f81c60f81b1660f81c60ff16815181106142f0576142ef6153bf565b5b602001015160f81c60f81b826002836143099190615f5c565b6003614315919061555d565b81518110614326576143256153bf565b5b60200101907effffffffffffffffffffffffffffffffffffffffffffffffffffffffffffff1916908160001a90535080806143609061565f565b9150506141ea565b508092505050919050565b60008151905060006a636f6e736f6c652e6c6f679050602083016000808483855afa5050505050565b6040518060400160405280600060ff168152602001600060ff1681525090565b6040518060800160405280600060ff168152602001600060ff1681526020016000151581526020016000151581525090565b508054600082559060005260206000209081019061440c9190614494565b50565b6040518060e0016040528061442261439c565b81526020016000600681111561443b5761443a614ccd565b5b8152602001600060ff1681526020016000600681111561445e5761445d614ccd565b5b8152602001600060ff168152602001600015158152602001600073ffffffffffffffffffffffffffffffffffffffff1681525090565b5b808211156144ad576000816000905550600101614495565b5090565b6000604051905090565b600080fd5b600080fd5b6000819050919050565b6144d8816144c5565b81146144e357600080fd5b50565b6000813590506144f5816144cf565b92915050565b600060208284031215614511576145106144bb565b5b600061451f848285016144e6565b91505092915050565b614531816144c5565b82525050565b60008115159050919050565b61454c81614537565b82525050565b600060a0820190506145676000830188614528565b6145746020830187614543565b6145816040830186614543565b61458e6060830185614543565b61459b6080830184614543565b9695505050505050565b600080fd5b6000601f19601f8301169050919050565b7f4e487b7100000000000000000000000000000000000000000000000000000000600052604160045260246000fd5b6145f3826145aa565b810181811067ffffffffffffffff82111715614612576146116145bb565b5b80604052505050565b60006146256144b1565b905061463182826145ea565b919050565b600060ff82169050919050565b61464c81614636565b811461465757600080fd5b50565b60008135905061466981614643565b92915050565b600060408284031215614685576146846145a5565b5b61468f604061461b565b9050600061469f8482850161465a565b60008301525060206146b38482850161465a565b60208301525092915050565b600781106146cc57600080fd5b50565b6000813590506146de816146bf565b92915050565b60008060008060a085870312156146fe576146fd6144bb565b5b600061470c8782880161466f565b945050604061471d878288016146cf565b935050606061472e8782880161465a565b925050608061473f8782880161465a565b91505092959194509250565b600060208284031215614761576147606144bb565b5b600061476f8482850161465a565b91505092915050565b600073ffffffffffffffffffffffffffffffffffffffff82169050919050565b60006147a382614778565b9050919050565b6147b381614798565b81146147be57600080fd5b50565b6000813590506147d0816147aa565b92915050565b6000602082840312156147ec576147eb6144bb565b5b60006147fa848285016147c1565b91505092915050565b600081519050919050565b600082825260208201905092915050565b60005b8381101561483d578082015181840152602081019050614822565b60008484015250505050565b600061485482614803565b61485e818561480e565b935061486e81856020860161481f565b614877816145aa565b840191505092915050565b6000602082019050818103600083015261489c8184614849565b905092915050565b6148ad81614636565b82525050565b60006020820190506148c860008301846148a4565b92915050565b600081519050919050565b600082825260208201905092915050565b6000819050602082019050919050565b61490381614636565b82525050565b60408201600082015161491f60008501826148fa565b50602082015161493260208501826148fa565b50505050565b60006149448383614909565b60408301905092915050565b6000602082019050919050565b6000614968826148ce565b61497281856148d9565b935061497d836148ea565b8060005b838110156149ae5781516149958882614938565b97506149a083614950565b925050600181019050614981565b5085935050505092915050565b600060208201905081810360008301526149d5818461495d565b905092915050565b600080606083850312156149f4576149f36144bb565b5b6000614a028582860161466f565b9250506040614a138582860161465a565b9150509250929050565b614a2681614537565b82525050565b608082016000820151614a4260008501826148fa565b506020820151614a5560208501826148fa565b506040820151614a686040850182614a1d565b506060820151614a7b6060850182614a1d565b50505050565b6000608082019050614a966000830184614a2c565b92915050565b60008060408385031215614ab357614ab26144bb565b5b6000614ac18582860161465a565b9250506020614ad28582860161465a565b9150509250929050565b6000819050919050565b6000614b01614afc614af784614778565b614adc565b614778565b9050919050565b6000614b1382614ae6565b9050919050565b6000614b2582614b08565b9050919050565b614b3581614b1a565b82525050565b6000602082019050614b506000830184614b2c565b92915050565b60008060008060008060c08789031215614b7357614b726144bb565b5b6000614b8189828a016146cf565b9650506020614b9289828a0161465a565b9550506040614ba389828a016146cf565b9450506060614bb489828a0161465a565b9350506080614bc589828a016144e6565b92505060a0614bd689828a0161465a565b9150509295509295509295565b614bec81614798565b82525050565b6000602082019050614c076000830184614be3565b92915050565b604082016000820151614c2360008501826148fa565b506020820151614c3660208501826148fa565b50505050565b6000604082019050614c516000830184614c0d565b92915050565b6000819050919050565b614c6a81614c57565b8114614c7557600080fd5b50565b600081359050614c8781614c61565b92915050565b60008060408385031215614ca457614ca36144bb565b5b6000614cb285828601614c78565b9250506020614cc38582860161465a565b9150509250929050565b7f4e487b7100000000000000000000000000000000000000000000000000000000600052602160045260246000fd5b60078110614d0d57614d0c614ccd565b5b50565b6000819050614d1e82614cfc565b919050565b6000614d2e82614d10565b9050919050565b614d3e81614d23565b82525050565b614d4d81614798565b82525050565b61010082016000820151614d6a6000850182614909565b506020820151614d7d6040850182614d35565b506040820151614d9060608501826148fa565b506060820151614da36080850182614d35565b506080820151614db660a08501826148fa565b5060a0820151614dc960c0850182614a1d565b5060c0820151614ddc60e0850182614d44565b50505050565b600061010082019050614df86000830184614d53565b92915050565b600081519050919050565b600082825260208201905092915050565b6000819050602082019050919050565b61010082016000820151614e416000850182614909565b506020820151614e546040850182614d35565b506040820151614e6760608501826148fa565b506060820151614e7a6080850182614d35565b506080820151614e8d60a08501826148fa565b5060a0820151614ea060c0850182614a1d565b5060c0820151614eb360e0850182614d44565b50505050565b6000614ec58383614e2a565b6101008301905092915050565b6000602082019050919050565b6000614eea82614dfe565b614ef48185614e09565b9350614eff83614e1a565b8060005b83811015614f30578151614f178882614eb9565b9750614f2283614ed2565b925050600181019050614f03565b5085935050505092915050565b60006020820190508181036000830152614f578184614edf565b905092915050565b7f47616d6520686173206e6f742073746172746564207965742100000000000000600082015250565b6000614f9560198361480e565b9150614fa082614f5f565b602082019050919050565b60006020820190508181036000830152614fc481614f88565b9050919050565b614fd481614d23565b82525050565b600060a082019050614fef6000830187614c0d565b614ffc6040830186614fcb565b61500960608301856148a4565b61501660808301846148a4565b95945050505050565b61502881614537565b811461503357600080fd5b50565b6000815190506150458161501f565b92915050565b60008151905061505a81614643565b92915050565b600060408284031215615076576150756145a5565b5b615080604061461b565b905060006150908482850161504b565b60008301525060206150a48482850161504b565b60208301525092915050565b600080606083850312156150c7576150c66144bb565b5b60006150d585828601615036565b92505060206150e685828601615060565b9150509250929050565b6000819050919050565b600061511561511061510b846150f0565b614adc565b6144c5565b9050919050565b615125816150fa565b82525050565b60006040820190506151406000830185614be3565b61514d602083018461511c565b9392505050565b600081519050615163816144cf565b92915050565b60006020828403121561517f5761517e6144bb565b5b600061518d84828501615154565b91505092915050565b60006020820190506151ab6000830184614528565b92915050565b600080fd5b600080fd5b600067ffffffffffffffff8211156151d6576151d56145bb565b5b6151df826145aa565b9050602081019050919050565b60006151ff6151fa846151bb565b61461b565b90508281526020810184848401111561521b5761521a6151b6565b5b61522684828561481f565b509392505050565b600082601f830112615243576152426151b1565b5b81516152538482602086016151ec565b91505092915050565b600060208284031215615272576152716144bb565b5b600082015167ffffffffffffffff8111156152905761528f6144c0565b5b61529c8482850161522e565b91505092915050565b60006152c06152bb6152b684614636565b614adc565b6144c5565b9050919050565b6152d0816152a5565b82525050565b60006020820190506152eb60008301846152c7565b92915050565b600060208284031215615307576153066144bb565b5b60006153158482850161504b565b91505092915050565b7f4e487b7100000000000000000000000000000000000000000000000000000000600052601160045260246000fd5b600061535882614636565b915061536383614636565b9250828201905060ff81111561537c5761537b61531e565b5b92915050565b600061538d82614636565b915061539883614636565b92508282026153a681614636565b91508082146153b8576153b761531e565b5b5092915050565b7f4e487b7100000000000000000000000000000000000000000000000000000000600052603260045260246000fd5b60006153f982614636565b915061540483614636565b9250828203905060ff81111561541d5761541c61531e565b5b92915050565b60006060820190506154386000830185614c0d565b61544560408301846148a4565b9392505050565b600067ffffffffffffffff821115615467576154666145bb565b5b602082029050602081019050919050565b600080fd5b600061549061548b8461544c565b61461b565b905080838252602082019050604084028301858111156154b3576154b2615478565b5b835b818110156154dc57806154c88882615060565b8452602084019350506040810190506154b5565b5050509392505050565b600082601f8301126154fb576154fa6151b1565b5b815161550b84826020860161547d565b91505092915050565b60006020828403121561552a576155296144bb565b5b600082015167ffffffffffffffff811115615548576155476144c0565b5b615554848285016154e6565b91505092915050565b6000615568826144c5565b9150615573836144c5565b925082820190508082111561558b5761558a61531e565b5b92915050565b600061559c82614636565b915060ff82036155af576155ae61531e565b5b600182019050919050565b6000608082840312156155d0576155cf6145a5565b5b6155da608061461b565b905060006155ea8482850161504b565b60008301525060206155fe8482850161504b565b602083015250604061561284828501615036565b604083015250606061562684828501615036565b60608301525092915050565b600060808284031215615648576156476144bb565b5b6000615656848285016155ba565b91505092915050565b600061566a826144c5565b91507fffffffffffffffffffffffffffffffffffffffffffffffffffffffffffffffff820361569c5761569b61531e565b5b600182019050919050565b60006040820190506156bc60008301856148a4565b6156c960208301846148a4565b9392505050565b7f4d6178696d756d206e756d626572206f662067616d6573207265616368656400600082015250565b6000615706601f8361480e565b9150615711826156d0565b602082019050919050565b60006020820190508181036000830152615735816156f9565b9050919050565b7f47616d652077697468207468697320494420616c726561647920696e2070726f60008201527f6772657373000000000000000000000000000000000000000000000000000000602082015250565b600061579860258361480e565b91506157a38261573c565b604082019050919050565b600060208201905081810360008301526157c78161578b565b9050919050565b7f5375626d6974206d6f76657320686173206e6f7420737461727465642079657460008201527f2100000000000000000000000000000000000000000000000000000000000000602082015250565b600061582a60218361480e565b9150615835826157ce565b604082019050919050565b600060208201905081810360008301526158598161581d565b9050919050565b60008160f81b9050919050565b600061587882615860565b9050919050565b61589061588b82614d23565b61586d565b82525050565b6158a76158a282614636565b61586d565b82525050565b6000819050919050565b6158c86158c3826144c5565b6158ad565b82525050565b60006158da828861587f565b6001820191506158ea8287615896565b6001820191506158fa828661587f565b60018201915061590a8285615896565b60018201915061591a82846158b7565b6020820191508190509695505050505050565b60008160001c9050919050565b600060ff82169050919050565b600061595a6159558361592d565b61593a565b9050919050565b60008160081c9050919050565b600061598161597c83615961565b61593a565b9050919050565b60408201600080830154905061599d81615947565b6159aa60008601826148fa565b506159b48161596e565b6159c160208601826148fa565b5050505050565b600060a0820190506159dd6000830187615988565b6159ea6040830186614fcb565b6159f760608301856148a4565b615a0460808301846148a4565b95945050505050565b6000608082019050615a226000830186615988565b615a2f6040830185614fcb565b615a3c60608301846148a4565b949350505050565b600060408284031215615a5a57615a596144bb565b5b6000615a6884828501615060565b91505092915050565b6000615a7c826144c5565b9150615a87836144c5565b9250828203905081811115615a9f57615a9e61531e565b5b92915050565b7f4e487b7100000000000000000000000000000000000000000000000000000000600052603160045260246000fd5b6000615adf82614636565b915060008203615af257615af161531e565b5b600182039050919050565b7f4e6f2077696e6e65720000000000000000000000000000000000000000000000600082015250565b6000615b3360098361480e565b9150615b3e82615afd565b602082019050919050565b60006020820190508181036000830152615b6281615b26565b9050919050565b600081905092915050565b7f5468652047616d652077696e6e65722069733a20000000000000000000000000600082015250565b6000615baa601483615b69565b9150615bb582615b74565b601482019050919050565b6000615bcb82614803565b615bd58185615b69565b9350615be581856020860161481f565b80840191505092915050565b6000615bfc82615b9d565b9150615c088284615bc0565b915081905092915050565b6000608082019050615c286000830186614c0d565b615c356040830185614fcb565b615c4260608301846148a4565b949350505050565b7f436f6d6d6974206d6f76657320686173206e6f7420737461727465642079657460008201527f2100000000000000000000000000000000000000000000000000000000000000602082015250565b6000615ca660218361480e565b9150615cb182615c4a565b604082019050919050565b60006020820190508181036000830152615cd581615c99565b9050919050565b6000606082019050615cf16000830186614be3565b615cfe60208301856148a4565b615d0b60408301846148a4565b949350505050565b7f4f776e61626c653a206e6577206f776e657220697320746865207a65726f206160008201527f6464726573730000000000000000000000000000000000000000000000000000602082015250565b6000615d6f60268361480e565b9150615d7a82615d13565b604082019050919050565b60006020820190508181036000830152615d9e81615d62565b9050919050565b7f4f776e61626c653a2063616c6c6572206973206e6f7420746865206f776e6572600082015250565b6000615ddb60208361480e565b9150615de682615da5565b602082019050919050565b60006020820190508181036000830152615e0a81615dce565b9050919050565b7f496e6465782076616c7565206f7574206f662072616e67650000000000000000600082015250565b6000615e4760188361480e565b9150615e5282615e11565b602082019050919050565b60006020820190508181036000830152615e7681615e3a565b9050919050565b60008160601b9050919050565b6000615e9582615e7d565b9050919050565b6000615ea782615e8a565b9050919050565b615ebf615eba82614798565b615e9c565b82525050565b6000615ed18284615eae565b60148201915081905092915050565b60006060820190508181036000830152615efa8186614849565b9050615f096020830185614528565b615f166040830184614528565b949350505050565b60006060820190508181036000830152615f388186614849565b9050615f476020830185614528565b615f546040830184614be3565b949350505050565b6000615f67826144c5565b9150615f72836144c5565b9250828202615f80816144c5565b91508282048414831517615f9757615f9661531e565b5b509291505056fea264697066735822122002807ae7d906ef7ffe8ab4df2c585d2e6086ff5224e071b331a304e05e3f7d0964736f6c63430008120033",
  "linkReferences": {},
  "deployedLinkReferences": {}
}