{
  "_format": "hh-sol-artifact-1",
  "contractName": "Game",
  "sourceName": "contracts/Game.sol",
  "abi": [
    {
      "inputs": [
        {
          "internalType": "address",
          "name": "_mapAddress",
          "type": "address"
        }
      ],
      "stateMutability": "nonpayable",
      "type": "constructor"
    },
    {
      "inputs": [
        {
          "internalType": "address",
          "name": "player",
          "type": "address"
        },
        {
          "internalType": "uint8",
          "name": "q",
          "type": "uint8"
        },
        {
          "internalType": "uint8",
          "name": "r",
          "type": "uint8"
        }
      ],
      "name": "ShipAlreadyAdded",
      "type": "error"
    },
    {
      "anonymous": false,
      "inputs": [
        {
          "indexed": true,
          "internalType": "bytes32",
          "name": "id",
          "type": "bytes32"
        }
      ],
      "name": "ChainlinkCancelled",
      "type": "event"
    },
    {
      "anonymous": false,
      "inputs": [
        {
          "indexed": true,
          "internalType": "bytes32",
          "name": "id",
          "type": "bytes32"
        }
      ],
      "name": "ChainlinkFulfilled",
      "type": "event"
    },
    {
      "anonymous": false,
      "inputs": [
        {
          "indexed": true,
          "internalType": "bytes32",
          "name": "id",
          "type": "bytes32"
        }
      ],
      "name": "ChainlinkRequested",
      "type": "event"
    },
    {
      "anonymous": false,
      "inputs": [
        {
          "indexed": false,
          "internalType": "uint8",
          "name": "gameId",
          "type": "uint8"
        }
      ],
      "name": "CommitPhaseStarted",
      "type": "event"
    },
    {
      "anonymous": false,
      "inputs": [
        {
          "indexed": false,
          "internalType": "uint8",
          "name": "gameId",
          "type": "uint8"
        }
      ],
      "name": "GameEnded",
      "type": "event"
    },
    {
      "anonymous": false,
      "inputs": [
        {
          "indexed": false,
          "internalType": "uint8",
          "name": "gameId",
          "type": "uint8"
        }
      ],
      "name": "GameStarted",
      "type": "event"
    },
    {
      "anonymous": false,
      "inputs": [
        {
          "indexed": true,
          "internalType": "bool",
          "name": "gameStatus",
          "type": "bool"
        },
        {
          "indexed": true,
          "internalType": "address",
          "name": "winnerAddress",
          "type": "address"
        }
      ],
      "name": "GameUpdated",
      "type": "event"
    },
    {
      "anonymous": false,
      "inputs": [
        {
          "indexed": false,
          "internalType": "string",
          "name": "gameWinner",
          "type": "string"
        }
      ],
      "name": "GameWinner",
      "type": "event"
    },
    {
      "anonymous": false,
      "inputs": [
        {
          "indexed": false,
          "internalType": "uint8",
          "name": "radius",
          "type": "uint8"
        },
        {
          "indexed": false,
          "internalType": "uint8",
          "name": "gameId",
          "type": "uint8"
        }
      ],
      "name": "MapInitialized",
      "type": "event"
    },
    {
      "anonymous": false,
      "inputs": [
        {
          "indexed": true,
          "internalType": "address",
          "name": "player",
          "type": "address"
        }
      ],
      "name": "MoveCommitted",
      "type": "event"
    },
    {
      "anonymous": false,
      "inputs": [
        {
          "indexed": true,
          "internalType": "address",
          "name": "player",
          "type": "address"
        }
      ],
      "name": "MoveSubmitted",
      "type": "event"
    },
    {
      "anonymous": false,
      "inputs": [
        {
          "indexed": true,
          "internalType": "address",
          "name": "previousOwner",
          "type": "address"
        },
        {
          "indexed": true,
          "internalType": "address",
          "name": "newOwner",
          "type": "address"
        }
      ],
      "name": "OwnershipTransferred",
      "type": "event"
    },
    {
      "anonymous": false,
      "inputs": [
        {
          "indexed": true,
          "internalType": "address",
          "name": "player",
          "type": "address"
        },
        {
          "indexed": false,
          "internalType": "uint8",
          "name": "gameId",
          "type": "uint8"
        }
      ],
      "name": "PlayerAdded",
      "type": "event"
    },
    {
      "anonymous": false,
      "inputs": [
        {
          "indexed": true,
          "internalType": "address",
          "name": "player",
          "type": "address"
        }
      ],
      "name": "PlayerDefeated",
      "type": "event"
    },
    {
      "anonymous": false,
      "inputs": [
        {
          "indexed": true,
          "internalType": "address",
          "name": "captain",
          "type": "address"
        }
      ],
      "name": "ShipCollidedWithIsland",
      "type": "event"
    },
    {
      "anonymous": false,
      "inputs": [
        {
          "indexed": true,
          "internalType": "address",
          "name": "victim",
          "type": "address"
        },
        {
          "indexed": true,
          "internalType": "address",
          "name": "attacker",
          "type": "address"
        }
      ],
      "name": "ShipHit",
      "type": "event"
    },
    {
      "anonymous": false,
      "inputs": [
        {
          "indexed": true,
          "internalType": "address",
          "name": "captain",
          "type": "address"
        },
        {
          "indexed": false,
          "internalType": "uint8",
          "name": "q",
          "type": "uint8"
        },
        {
          "indexed": false,
          "internalType": "uint8",
          "name": "r",
          "type": "uint8"
        }
      ],
      "name": "ShipMoved",
      "type": "event"
    },
    {
      "anonymous": false,
      "inputs": [
        {
          "indexed": true,
          "internalType": "address",
          "name": "captain",
          "type": "address"
        },
        {
          "indexed": false,
          "internalType": "uint8",
          "name": "shotQ",
          "type": "uint8"
        },
        {
          "indexed": false,
          "internalType": "uint8",
          "name": "shotR",
          "type": "uint8"
        }
      ],
      "name": "ShipShot",
      "type": "event"
    },
    {
      "anonymous": false,
      "inputs": [
        {
          "indexed": true,
          "internalType": "address",
          "name": "captain",
          "type": "address"
        }
      ],
      "name": "ShipSunk",
      "type": "event"
    },
    {
      "anonymous": false,
      "inputs": [
        {
          "indexed": false,
          "internalType": "uint8",
          "name": "gameId",
          "type": "uint8"
        }
      ],
      "name": "SubmitPhaseStarted",
      "type": "event"
    },
    {
      "inputs": [
        {
          "internalType": "uint8",
          "name": "gameId",
          "type": "uint8"
        },
        {
          "internalType": "uint8",
          "name": "_speed",
          "type": "uint8"
        },
        {
          "internalType": "uint8",
          "name": "_range",
          "type": "uint8"
        }
      ],
      "name": "addShip",
      "outputs": [
        {
          "components": [
            {
              "components": [
                {
                  "internalType": "uint8",
                  "name": "q",
                  "type": "uint8"
                },
                {
                  "internalType": "uint8",
                  "name": "r",
                  "type": "uint8"
                }
              ],
              "internalType": "struct SharedStructs.Coordinate",
              "name": "coordinate",
              "type": "tuple"
            },
            {
              "internalType": "enum SharedStructs.Directions",
              "name": "travelDirection",
              "type": "uint8"
            },
            {
              "internalType": "uint8",
              "name": "travelDistance",
              "type": "uint8"
            },
            {
              "internalType": "enum SharedStructs.Directions",
              "name": "shotDirection",
              "type": "uint8"
            },
            {
              "internalType": "uint8",
              "name": "shotDistance",
              "type": "uint8"
            },
            {
              "internalType": "bool",
              "name": "publishedMove",
              "type": "bool"
            },
            {
              "internalType": "address",
              "name": "captain",
              "type": "address"
            },
            {
              "internalType": "uint8",
              "name": "yachtSpeed",
              "type": "uint8"
            },
            {
              "internalType": "uint8",
              "name": "yachtRange",
              "type": "uint8"
            }
          ],
          "internalType": "struct Game.Ship",
          "name": "",
          "type": "tuple"
        }
      ],
      "stateMutability": "nonpayable",
      "type": "function"
    },
    {
      "inputs": [
        {
          "internalType": "uint8",
          "name": "gameId",
          "type": "uint8"
        }
      ],
      "name": "allowCommitMoves",
      "outputs": [],
      "stateMutability": "nonpayable",
      "type": "function"
    },
    {
      "inputs": [
        {
          "internalType": "uint8",
          "name": "gameId",
          "type": "uint8"
        }
      ],
      "name": "allowSubmitMoves",
      "outputs": [],
      "stateMutability": "nonpayable",
      "type": "function"
    },
    {
      "inputs": [
        {
          "internalType": "bytes32",
          "name": "moveHash",
          "type": "bytes32"
        },
        {
          "internalType": "uint8",
          "name": "gameId",
          "type": "uint8"
        }
      ],
      "name": "commitMove",
      "outputs": [],
      "stateMutability": "nonpayable",
      "type": "function"
    },
    {
      "inputs": [
        {
          "internalType": "uint8",
          "name": "gameId",
          "type": "uint8"
        }
      ],
      "name": "endGame",
      "outputs": [],
      "stateMutability": "nonpayable",
      "type": "function"
    },
    {
      "inputs": [
        {
          "internalType": "bytes32",
          "name": "_requestId",
          "type": "bytes32"
        },
        {
          "internalType": "string",
          "name": "_tokenId",
          "type": "string"
        },
        {
          "internalType": "uint8",
          "name": "_speed",
          "type": "uint8"
        },
        {
          "internalType": "uint8",
          "name": "_range",
          "type": "uint8"
        }
      ],
      "name": "fulfill",
      "outputs": [],
      "stateMutability": "nonpayable",
      "type": "function"
    },
    {
      "inputs": [
        {
          "internalType": "uint256",
          "name": "",
          "type": "uint256"
        }
      ],
      "name": "games",
      "outputs": [
        {
          "internalType": "uint256",
          "name": "round",
          "type": "uint256"
        },
        {
          "internalType": "bool",
          "name": "gameInProgress",
          "type": "bool"
        },
        {
          "internalType": "bool",
          "name": "stopAddingShips",
          "type": "bool"
        },
        {
          "internalType": "bool",
          "name": "letCommitMoves",
          "type": "bool"
        },
        {
          "internalType": "bool",
          "name": "letSubmitMoves",
          "type": "bool"
        }
      ],
      "stateMutability": "view",
      "type": "function"
    },
    {
      "inputs": [
        {
          "components": [
            {
              "internalType": "uint8",
              "name": "q",
              "type": "uint8"
            },
            {
              "internalType": "uint8",
              "name": "r",
              "type": "uint8"
            }
          ],
          "internalType": "struct SharedStructs.Coordinate",
          "name": "_coord",
          "type": "tuple"
        },
        {
          "internalType": "uint8",
          "name": "gameId",
          "type": "uint8"
        }
      ],
      "name": "getCell",
      "outputs": [
        {
          "components": [
            {
              "internalType": "uint8",
              "name": "q",
              "type": "uint8"
            },
            {
              "internalType": "uint8",
              "name": "r",
              "type": "uint8"
            },
            {
              "internalType": "bool",
              "name": "island",
              "type": "bool"
            },
            {
              "internalType": "bool",
              "name": "exists",
              "type": "bool"
            }
          ],
          "internalType": "struct SharedStructs.Cell",
          "name": "",
          "type": "tuple"
        }
      ],
      "stateMutability": "view",
      "type": "function"
    },
    {
      "inputs": [
        {
          "internalType": "uint8",
          "name": "gameId",
          "type": "uint8"
        }
      ],
      "name": "getCells",
      "outputs": [
        {
          "components": [
            {
              "internalType": "uint8",
              "name": "q",
              "type": "uint8"
            },
            {
              "internalType": "uint8",
              "name": "r",
              "type": "uint8"
            }
          ],
          "internalType": "struct SharedStructs.Coordinate[]",
          "name": "",
          "type": "tuple[]"
        }
      ],
      "stateMutability": "view",
      "type": "function"
    },
    {
      "inputs": [
        {
          "internalType": "uint8",
          "name": "gameId",
          "type": "uint8"
        }
      ],
      "name": "getRadius",
      "outputs": [
        {
          "internalType": "uint8",
          "name": "",
          "type": "uint8"
        }
      ],
      "stateMutability": "view",
      "type": "function"
    },
    {
      "inputs": [
        {
          "internalType": "uint8",
          "name": "gameId",
          "type": "uint8"
        }
      ],
      "name": "getShips",
      "outputs": [
        {
          "components": [
            {
              "components": [
                {
                  "internalType": "uint8",
                  "name": "q",
                  "type": "uint8"
                },
                {
                  "internalType": "uint8",
                  "name": "r",
                  "type": "uint8"
                }
              ],
              "internalType": "struct SharedStructs.Coordinate",
              "name": "coordinate",
              "type": "tuple"
            },
            {
              "internalType": "enum SharedStructs.Directions",
              "name": "travelDirection",
              "type": "uint8"
            },
            {
              "internalType": "uint8",
              "name": "travelDistance",
              "type": "uint8"
            },
            {
              "internalType": "enum SharedStructs.Directions",
              "name": "shotDirection",
              "type": "uint8"
            },
            {
              "internalType": "uint8",
              "name": "shotDistance",
              "type": "uint8"
            },
            {
              "internalType": "bool",
              "name": "publishedMove",
              "type": "bool"
            },
            {
              "internalType": "address",
              "name": "captain",
              "type": "address"
            },
            {
              "internalType": "uint8",
              "name": "yachtSpeed",
              "type": "uint8"
            },
            {
              "internalType": "uint8",
              "name": "yachtRange",
              "type": "uint8"
            }
          ],
          "internalType": "struct Game.Ship[]",
          "name": "",
          "type": "tuple[]"
        }
      ],
      "stateMutability": "view",
      "type": "function"
    },
    {
      "inputs": [
        {
          "internalType": "uint8",
          "name": "_radius",
          "type": "uint8"
        },
        {
          "internalType": "uint8",
          "name": "gameId",
          "type": "uint8"
        }
      ],
      "name": "initGame",
      "outputs": [],
      "stateMutability": "nonpayable",
      "type": "function"
    },
    {
      "inputs": [],
      "name": "jobId",
      "outputs": [
        {
          "internalType": "bytes32",
          "name": "",
          "type": "bytes32"
        }
      ],
      "stateMutability": "view",
      "type": "function"
    },
    {
      "inputs": [
        {
          "components": [
            {
              "internalType": "uint8",
              "name": "q",
              "type": "uint8"
            },
            {
              "internalType": "uint8",
              "name": "r",
              "type": "uint8"
            }
          ],
          "internalType": "struct SharedStructs.Coordinate",
          "name": "_start",
          "type": "tuple"
        },
        {
          "internalType": "enum SharedStructs.Directions",
          "name": "_dir",
          "type": "uint8"
        },
        {
          "internalType": "uint8",
          "name": "_distance",
          "type": "uint8"
        },
        {
          "internalType": "uint8",
          "name": "gameId",
          "type": "uint8"
        }
      ],
      "name": "move",
      "outputs": [
        {
          "components": [
            {
              "internalType": "uint8",
              "name": "q",
              "type": "uint8"
            },
            {
              "internalType": "uint8",
              "name": "r",
              "type": "uint8"
            }
          ],
          "internalType": "struct SharedStructs.Coordinate",
          "name": "",
          "type": "tuple"
        }
      ],
      "stateMutability": "view",
      "type": "function"
    },
    {
      "inputs": [
        {
          "internalType": "address",
          "name": "",
          "type": "address"
        }
      ],
      "name": "nftDataMapping",
      "outputs": [
        {
          "internalType": "string",
          "name": "tokenId",
          "type": "string"
        },
        {
          "internalType": "uint8",
          "name": "speed",
          "type": "uint8"
        },
        {
          "internalType": "uint8",
          "name": "range",
          "type": "uint8"
        }
      ],
      "stateMutability": "view",
      "type": "function"
    },
    {
      "inputs": [],
      "name": "owner",
      "outputs": [
        {
          "internalType": "address",
          "name": "",
          "type": "address"
        }
      ],
      "stateMutability": "view",
      "type": "function"
    },
    {
      "inputs": [],
      "name": "renounceOwnership",
      "outputs": [],
      "stateMutability": "nonpayable",
      "type": "function"
    },
    {
      "inputs": [
        {
          "internalType": "string",
          "name": "_tokenId",
          "type": "string"
        },
        {
          "internalType": "string",
          "name": "_walletAddress",
          "type": "string"
        },
        {
          "internalType": "address",
          "name": "walletAddressnonString",
          "type": "address"
        }
      ],
      "name": "requestAPIdata",
      "outputs": [
        {
          "internalType": "bytes32",
          "name": "requestId",
          "type": "bytes32"
        }
      ],
      "stateMutability": "nonpayable",
      "type": "function"
    },
    {
      "inputs": [
        {
          "internalType": "bytes32",
          "name": "",
          "type": "bytes32"
        }
      ],
      "name": "requestAddresses",
      "outputs": [
        {
          "internalType": "address",
          "name": "",
          "type": "address"
        }
      ],
      "stateMutability": "view",
      "type": "function"
    },
    {
      "inputs": [
        {
          "internalType": "enum SharedStructs.Directions",
          "name": "_travelDirection",
          "type": "uint8"
        },
        {
          "internalType": "uint8",
          "name": "_travelDistance",
          "type": "uint8"
        },
        {
          "internalType": "enum SharedStructs.Directions",
          "name": "_shotDirection",
          "type": "uint8"
        },
        {
          "internalType": "uint8",
          "name": "_shotDistance",
          "type": "uint8"
        },
        {
          "internalType": "uint256",
          "name": "secret",
          "type": "uint256"
        },
        {
          "internalType": "uint8",
          "name": "gameId",
          "type": "uint8"
        }
      ],
      "name": "revealMove",
      "outputs": [],
      "stateMutability": "nonpayable",
      "type": "function"
    },
    {
      "inputs": [
        {
          "internalType": "uint8",
          "name": "gameId",
          "type": "uint8"
        }
      ],
      "name": "startNewGame",
      "outputs": [],
      "stateMutability": "nonpayable",
      "type": "function"
    },
    {
      "inputs": [
        {
          "internalType": "address",
          "name": "newOwner",
          "type": "address"
        }
      ],
      "name": "transferOwnership",
      "outputs": [],
      "stateMutability": "nonpayable",
      "type": "function"
    },
    {
      "inputs": [
        {
          "components": [
            {
              "internalType": "uint8",
              "name": "q",
              "type": "uint8"
            },
            {
              "internalType": "uint8",
              "name": "r",
              "type": "uint8"
            }
          ],
          "internalType": "struct SharedStructs.Coordinate",
          "name": "_startCell",
          "type": "tuple"
        },
        {
          "internalType": "enum SharedStructs.Directions",
          "name": "_direction",
          "type": "uint8"
        },
        {
          "internalType": "uint8",
          "name": "_distance",
          "type": "uint8"
        },
        {
          "internalType": "uint8",
          "name": "gameId",
          "type": "uint8"
        }
      ],
      "name": "travel",
      "outputs": [],
      "stateMutability": "nonpayable",
      "type": "function"
    },
    {
      "inputs": [
        {
          "internalType": "uint8",
          "name": "gameId",
          "type": "uint8"
        }
      ],
      "name": "updateWorld",
      "outputs": [],
      "stateMutability": "nonpayable",
      "type": "function"
    }
  ],
  "bytecode": "0x60a060405260016004553480156200001657600080fd5b506040516200548838038062005488833981016040819052620000399162000126565b6200004433620000d4565b6001600160a01b038116608052600280546001600160a01b03191673779877a7b0d9e8603169ddbd7836e478b4624789179055600380546001600160a01b031916731e34a40ac8ed0bc66a02e5509747f69c7387c44f179055507f633164373130353731363862343934333838303031353438656531663935656160075567016345785d8a000060085562000158565b600680546001600160a01b038381166001600160a01b0319831681179093556040519116919082907f8be0079c531659141344cd1fd0a4f28419497f9722a3daafe3b4186f6b6457e090600090a35050565b6000602082840312156200013957600080fd5b81516001600160a01b03811681146200015157600080fd5b9392505050565b6080516152ce620001ba600039600081816105ea015281816108660152818161093601528181610abf01528181610c6901528181610e0a01528181610e840152818161107701528181611b5d01528181611f61015261304901526152ce6000f3fe608060405234801561001057600080fd5b50600436106101585760003560e01c806382536968116100c3578063c2939d971161007c578063c2939d97146103af578063cddd99ba146103b8578063d085a86f146103e1578063e7c435a714610401578063f2fde38b14610414578063fd8704461461042757600080fd5b8063825369681461030e578063863375ac146103215780638da5cb5b14610334578063978ac35614610359578063a81ab18e1461036c578063bf70b4f51461038d57600080fd5b80634aac9b8b116101155780634aac9b8b1461024b5780634d0238861461026b578063508236ca146102c05780636613b616146102d35780636ed296e4146102f3578063715018a61461030657600080fd5b8063117a5b901461015d5780631517a826146101d85780631cf8a321146101ed5780632277743b146102005780632923a41f146102135780633436120814610226575b600080fd5b6101a361016b366004614300565b6009602052600090815260409020805460039091015460ff808216916101008104821691620100008204811691630100000090041685565b6040805195865293151560208601529115159284019290925290151560608301521515608082015260a0015b60405180910390f35b6101eb6101e6366004614405565b610447565b005b6101eb6101fb3660046144c6565b6105ac565b6101eb61020e366004614514565b6106de565b6101eb610221366004614514565b61077b565b610239610234366004614514565b610813565b60405160ff90911681526020016101cf565b61025e610259366004614514565b6108df565b6040516101cf9190614531565b61027e61027936600461458e565b610bf5565b6040516101cf9190600060808201905060ff835116825260ff602084015116602083015260408301511515604083015260608301511515606083015292915050565b6101eb6102ce3660046145c6565b610ce8565b6102e66102e13660046145f4565b610f2c565b6040516101cf9190614725565b6101eb610301366004614514565b61153a565b6101eb611659565b6101eb61031c366004614734565b61166d565b6101eb61032f366004614514565b6118aa565b6006546001600160a01b03165b6040516001600160a01b0390911681526020016101cf565b6101eb610367366004614514565b611939565b61037f61037a3660046147c0565b612d4c565b6040519081526020016101cf565b6103a061039b366004614833565b612f35565b6040516101cf9392919061489e565b61037f60075481565b6103416103c6366004614300565b600b602052600090815260409020546001600160a01b031681565b6103f46103ef3660046144c6565b612fe5565b6040516101cf91906148cb565b6101eb61040f3660046148e9565b6130cd565b6101eb610422366004614833565b613197565b61043a610435366004614514565b613210565b6040516101cf919061490e565b60008481526005602052604090205484906001600160a01b031633146104c55760405162461bcd60e51b815260206004820152602860248201527f536f75726365206d75737420626520746865206f7261636c65206f6620746865604482015267081c995c5d595cdd60c21b60648201526084015b60405180910390fd5b60008181526005602052604080822080546001600160a01b03191690555182917f7cc135e0cebb02c3480ae5d74d377283180a2601f8f644edf7987b009316c63a91a26000858152600b6020908152604080832054815160608101835288815260ff808916828601528716818401526001600160a01b03909116808552600a90935292208251919291819061055a90826149d7565b506020828101516001909201805460409485015160ff9081166101000261ffff19909216941693909317929092179091556000978852600b905290952080546001600160a01b03191690555050505050565b60ff8082166000908152600960205260409020600301541615156001146105e55760405162461bcd60e51b81526004016104bc90614a96565b6000807f00000000000000000000000000000000000000000000000000000000000000006001600160a01b0316631cf8a321878787876040518563ffffffff1660e01b815260040161063a9493929190614acd565b606060405180830381865afa158015610657573d6000803e3d6000fd5b505050506040513d601f19601f8201168201806040525081019061067b9190614b5a565b9150915081156106945761068f3384613492565b6106d6565b805160ff8481166000908152600960209081526040808320338452600101825290912080549185015183166101000261ffff1990921692909316919091171790555b505050505050565b6106e6613563565b60ff80821660009081526009602052604090206003015416151560011461071f5760405162461bcd60e51b81526004016104bc90614a96565b60ff8116600081815260096020908152604091829020600301805462ff000019166201000017905590519182527f1b6143a1b1d77ae88590d660e0164f9edf35dd3d002f5de8a6ecf46a3c3ba0e391015b60405180910390a150565b610783613563565b60ff8082166000908152600960205260409020600301541615156001146107bc5760405162461bcd60e51b81526004016104bc90614a96565b60ff8116600081815260096020908152604091829020600301805463ffff00001916630100000017905590519182527f1ebf68ad21138befbfae2606983db26dee824ebb69e305add08e5ec40322ebcf9101610770565b60ff808216600090815260096020526040812060030154909116151560011461084e5760405162461bcd60e51b81526004016104bc90614a96565b60405163436fadf360e11b815260ff831660048201527f00000000000000000000000000000000000000000000000000000000000000006001600160a01b0316906386df5be690602401602060405180830381865afa1580156108b5573d6000803e3d6000fd5b505050506040513d601f19601f820116820180604052508101906108d99190614b8e565b92915050565b60ff80821660009081526009602052604090206003015460609116151560011461091b5760405162461bcd60e51b81526004016104bc90614a96565b60405163436fadf360e11b815260ff831660048201526000907f00000000000000000000000000000000000000000000000000000000000000006001600160a01b0316906386df5be690602401602060405180830381865afa158015610985573d6000803e3d6000fd5b505050506040513d601f19601f820116820180604052508101906109a99190614b8e565b905060006109b8826001614bc1565b6109c3836003614bda565b6109cd9190614bda565b6109d8906001614bc1565b60ff1690506000816001600160401b038111156109f7576109f7614319565b604051908082528060200260200182016040528015610a3c57816020015b6040805180820190915260008082526020820152815260200190600190039081610a155790505b50905060405180604001604052808460ff1681526020018460ff1681525081600081518110610a6d57610a6d614bf6565b602090810291909101015260015b8360ff168160ff1611610bec57600081610a96600182614c0c565b610aa1906003614bda565b610aab9190614bda565b610ab6906001614bc1565b60ff16905060007f00000000000000000000000000000000000000000000000000000000000000006001600160a01b03166339e5c4a085600081518110610aff57610aff614bf6565b6020026020010151856040518363ffffffff1660e01b8152600401610b25929190614c25565b600060405180830381865afa158015610b42573d6000803e3d6000fd5b505050506040513d6000823e601f3d908101601f19168201604052610b6a9190810190614c53565b905060005b81518160ff161015610bd657818160ff1681518110610b9057610b90614bf6565b6020026020010151858260ff1685610ba89190614d05565b81518110610bb857610bb8614bf6565b60200260200101819052508080610bce90614d18565b915050610b6f565b5050508080610be490614d18565b915050610a7b565b50949350505050565b60408051608081018252600080825260208201819052918101829052606081019190915260ff808316600090815260096020526040902060030154161515600114610c525760405162461bcd60e51b81526004016104bc90614a96565b6040516326811c4360e11b81526001600160a01b037f00000000000000000000000000000000000000000000000000000000000000001690634d02388690610ca09086908690600401614c25565b608060405180830381865afa158015610cbd573d6000803e3d6000fd5b505050506040513d601f19601f82011682018060405250810190610ce19190614d37565b9392505050565b610cf0613563565b60ff808216600090815260096020526040902060030154161515600114610d295760405162461bcd60e51b81526004016104bc90614a96565b60005b60ff8216600090815260096020526040902060020154811015610dc85760ff821660009081526009602052604081206002810180546001909201929184908110610d7857610d78614bf6565b60009182526020808320909101546001600160a01b031683528201929092526040019020805461ffff1916815560010180546001600160d81b031916905580610dc081614db7565b915050610d2c565b5060ff81166000908152600960205260408120610dea91600290910190614233565b604051631a405d8760e31b815260ff8084166004830152821660248201527f00000000000000000000000000000000000000000000000000000000000000006001600160a01b03169063d202ec3890604401600060405180830381600087803b158015610e5657600080fd5b505af1158015610e6a573d6000803e3d6000fd5b50506040516318068d3760e01b815260ff841660048201527f00000000000000000000000000000000000000000000000000000000000000006001600160a01b031692506318068d379150602401600060405180830381600087803b158015610ed257600080fd5b505af1158015610ee6573d6000803e3d6000fd5b50506040805160ff8087168252851660208201527fd76a0a97b7d547fef69b0cd90fb02087b761703ae2b5e4e91a99e8fd17e308ad935001905060405180910390a15050565b610f34614251565b60ff808516600090815260096020526040902060030154610100900416158015610f77575060ff8085166000908152600960205260409020600301541615156001145b610f935760405162461bcd60e51b81526004016104bc90614a96565b60ff80851660009081526009602090815260408083203384526001019091529020541615801590610fea575060ff808516600090815260096020908152604080832033845260010190915290205461010090041615155b156110485760ff8481166000908152600960209081526040808320338085526001909101909252918290205491516308538db760e41b81526004810191909152818316602482015261010090910490911660448201526064016104bc565b604080518082019091526000808252602082015260005b6040516342c39d9160e01b815260ff871660048201527f00000000000000000000000000000000000000000000000000000000000000006001600160a01b0316906342c39d919060240160408051808303816000875af11580156110c7573d6000803e3d6000fd5b505050506040513d601f19601f820116820180604052508101906110eb9190614dd0565b9150611131604051806040016040528060138152602001724e657720726e6420706169722025732c20257360681b815250836000015160ff16846020015160ff166135bd565b60005b60ff80881660009081526009602052604090206002015490821610156112d0576111d86040518060400160405280601781526020017f696e206c6f6f702025732c20616464726573733a2025730000000000000000008152508260ff16600960008b60ff1681526020019081526020016000206002018460ff16815481106111be576111be614bf6565b6000918252602090912001546001600160a01b0316613604565b825160ff888116600090815260096020526040812060028101805494841694600190920193909190861690811061121157611211614bf6565b60009182526020808320909101546001600160a01b0316835282019290925260400190205460ff161480156112b0575060208084015160ff8981166000908152600990935260408320600281018054938316946001909201939192909190861690811061128057611280614bf6565b60009182526020808320909101546001600160a01b0316835282019290925260400190205460ff61010090910416145b156112be57600191506112d0565b806112c881614d18565b915050611134565b508061105f57604080516101208101825283815260006020808301828152838501839052606084018390526080840183905260a084018390523360c0850181905260ff8b811660e08701528a8116610100808801919091528d82168652600985528786209286526001928301855296909420855180518254919095015194861661ffff1990911617939094169095029190911782555181840180549394859460ff1916908360068111156113865761138661463f565b0217905550604082015160018201805460ff9092166101000261ff001983168117825560608501519262ff00001990911662ffff001990911617620100008360068111156113d6576113d661463f565b021790555060808201516001918201805460a085015160c086015160e08701516101009097015164ffff00000019909316630100000060ff9687160264ff00000000191617640100000000921515929092029190911765010000000000600160d01b031916650100000000006001600160a01b039092169190910260ff60c81b191617600160c81b958416959095029490941760ff60d01b1916600160d01b94831694909402939093179092558882166000908152600960209081526040808320600201805494850181558352918190209092018054336001600160a01b0319909116179055805180820190915260128152714e657720736869702061742025732c20257360701b81830152835180519201516114f8939192821691166135bd565b60405160ff8816815233907f3138d9d3c5b626eff736a8d5bf07552d9f568087655c46803ee715f424ec1b8e9060200160405180910390a29695505050505050565b611542613563565b60ff8160ff16106115955760405162461bcd60e51b815260206004820152601f60248201527f4d6178696d756d206e756d626572206f662067616d657320726561636865640060448201526064016104bc565b60ff80821660009081526009602052604090206003015416156116085760405162461bcd60e51b815260206004820152602560248201527f47616d652077697468207468697320494420616c726561647920696e2070726f604482015264677265737360d81b60648201526084016104bc565b60ff8116600081815260096020908152604091829020600301805460ff1916600117905590519182527f13cb55fc1bec4b9f4cd4c22f154240b469cb108a23a35aa599df0c3da46f2d149101610770565b611661613563565b61166b600061364b565b565b60ff818116600090815260096020526040902060030154630100000090041615156001146116e75760405162461bcd60e51b815260206004820152602160248201527f5375626d6974206d6f76657320686173206e6f742073746172746564207965746044820152602160f81b60648201526084016104bc565b60ff8082166000908152600960205260409020600301541615156001146117205760405162461bcd60e51b81526004016104bc90614a96565b6000868686868660405160200161173b959493929190614e11565b60408051601f19818403018152918152815160209283012060ff85166000908152600984528281203382526004019093529120549091508190036118765760ff8083166000908152600960209081526040808320338452600190810190925282209081015490926117b391600160c81b90041661369d565b9050888260010160006101000a81548160ff021916908360068111156117db576117db61463f565b021790555060018201805460ff8084166101000261ff0019909216919091179182905560009161181391600160d01b909104166136ec565b600184018054919250899162ff000019166201000083600681111561183a5761183a61463f565b02179055506001909201805464ff000000001960ff9094166301000000029390931664ffff000000199093169290921764010000000017909155505b60405133907f63563f18a7ee7809189f125844fc3e755b5d0f355be5c5928a54ca925dcd576b90600090a250505050505050565b6118b2613563565b60ff8082166000908152600960205260409020600301541615156001146118eb5760405162461bcd60e51b81526004016104bc90614a96565b60ff8116600081815260096020908152604091829020600301805460ff1916905590519182527f4df34531b3f238bc8f90ad83236d8c752e7444e434bb5fc99f888f0a6345c0e79101610770565b611941613563565b60ff80821660009081526009602052604090206003015416151560011461197a5760405162461bcd60e51b81526004016104bc90614a96565b60ff81166000908152600960205260408120600201546001600160401b038111156119a7576119a7614319565b6040519080825280602002602001820160405280156119ec57816020015b60408051808201909152600080825260208201528152602001906001900390816119c55790505b5060ff8316600090815260096020526040812060020154919250906001600160401b03811115611a1e57611a1e614319565b604051908082528060200260200182016040528015611a47578160200160208202803683370190505b50905060005b60ff8085166000908152600960205260409020600201549082161015611aa6576001828260ff1681518110611a8457611a84614bf6565b9115156020928302919091019091015280611a9e81614d18565b915050611a4d565b5060005b60ff8085166000908152600960205260409020600201549082161015611ef65760ff80851660009081526009602052604081206002810180546001909201939091908516908110611afd57611afd614bf6565b60009182526020808320909101546001600160a01b0316835282019290925260400190206001015460ff6401000000009091041615611ee45760ff8085166000908152600960205260408120600281018054929384936001600160a01b037f00000000000000000000000000000000000000000000000000000000000000001693631cf8a321936001909101928692908916908110611b9e57611b9e614bf6565b60009182526020808320909101546001600160a01b03168352828101939093526040918201812060ff808d168352600990945291812060028101805493946001929092019390918a16908110611bf657611bf6614bf6565b60009182526020808320909101546001600160a01b03168352828101939093526040918201812060019081015460ff8e811684526009909552928220600281018054948616959190920193908b16908110611c5357611c53614bf6565b60009182526020808320909101546001600160a01b0316835282019290925260409081019091206001015490516001600160e01b031960e086901b168152611cab93929160ff61010090910416908c90600401614e5b565b606060405180830381865afa158015611cc8573d6000803e3d6000fd5b505050506040513d601f19601f82011682018060405250810190611cec9190614b5a565b915091508115611dd95760ff80871660009081526009602052604090206002018054611d3f928616908110611d2357611d23614bf6565b6000918252602090912001546001600160a01b03168488613726565b6000848460ff1681518110611d5657611d56614bf6565b602002602001019015159081151581525050600960008760ff1681526020019081526020016000206002018360ff1681548110611d9557611d95614bf6565b60009182526020822001546040516001600160a01b03909116917fc9d98a36ffe0495d3a50a0bac4845433395c60e4b8e8d58a5e948f4b5011418e91a25050611ee4565b60ff80871660009081526009602052604081206002810180548594600190930193928816908110611e0c57611e0c614bf6565b60009182526020808320909101546001600160a01b031683528281019390935260409182018120845181549585015160ff9081166101000261ffff1990971691811691909117959095179055898416815260099092529020600201805490918516908110611e7c57611e7c614bf6565b600091825260209182902001548251918301516040516001600160a01b03909216927ff3758096c44bcc832b837f76e2a02b432740f9c56f41e6b238aa673ca9355e5092611ed9929060ff92831681529116602082015260400190565b60405180910390a250505b80611eee81614d18565b915050611aaa565b5060005b60ff80851660009081526009602052604090206002015490821610156121be57818160ff1681518110611f2f57611f2f614bf6565b6020026020010151156121ac5760ff808516600090815260096020526040812060028101805492936001600160a01b037f0000000000000000000000000000000000000000000000000000000000000000169363d6192ad3936001019286929091908816908110611fa257611fa2614bf6565b60009182526020808320909101546001600160a01b03168352828101939093526040918201812060ff808c168352600990945291812060028101805493946001929092019390918916908110611ffa57611ffa614bf6565b60009182526020808320909101546001600160a01b03168352828101939093526040918201812060019081015460ff8d811684526009909552928220600281018054620100009095048616959190920193908a1690811061205d5761205d614bf6565b60009182526020808320909101546001600160a01b0316835282019290925260409081019091206001015490516001600160e01b031960e086901b1681526120b593929160ff63010000009091041690600401614e79565b6040805180830381865afa1580156120d1573d6000803e3d6000fd5b505050506040513d601f19601f820116820180604052508101906120f59190614dd0565b905080848360ff168151811061210d5761210d614bf6565b6020026020010181905250600960008660ff1681526020019081526020016000206002018260ff168154811061214557612145614bf6565b600091825260209182902001548251918301516040516001600160a01b03909216927f7f1b3d59a1d73150652f33f7a7016f0fff7ef8e824e5b6a436717673b484a8a7926121a2929060ff92831681529116602082015260400190565b60405180910390a2505b806121b681614d18565b915050611efa565b5060005b60ff80851660009081526009602052604090206002015490821610156127d85760005b60ff80861660009081526009602052604090206002015490821610156127c5578060ff168260ff16146127b357828260ff168151811061222757612227614bf6565b602002602001015180156122545750828160ff168151811061224b5761224b614bf6565b60200260200101515b8015612313575060ff8086166000908152600960205260408120600281018054600190920193909190861690811061228e5761228e614bf6565b60009182526020808320909101546001600160a01b0316835282810193909352604091820181205460ff898116835260099094529181206002810180549385169460019290920193909186169081106122e9576122e9614bf6565b60009182526020808320909101546001600160a01b0316835282019290925260400190205460ff16145b80156123dd575060ff8086166000908152600960205260408120600281018054600190920193909190861690811061234d5761234d614bf6565b60009182526020808320909101546001600160a01b0316835282810193909352604091820181205460ff8981168352600990945291812060028101805461010090940485169460019290920193909186169081106123ad576123ad614bf6565b60009182526020808320909101546001600160a01b0316835282019290925260400190205460ff61010090910416145b15612599576000838360ff16815181106123f9576123f9614bf6565b6020026020010190151590811515815250506000838260ff168151811061242257612422614bf6565b91151560209283029190910182015260ff808716600090815260099092526040909120600201805461247b92851690811061245f5761245f614bf6565b6000918252602090912001546001600160a01b03168387613726565b60ff808616600090815260096020526040902060020180546124c49284169081106124a8576124a8614bf6565b6000918252602090912001546001600160a01b03168287613726565b600960008660ff1681526020019081526020016000206002018260ff16815481106124f1576124f1614bf6565b60009182526020822001546040516001600160a01b03909116917ff6efc0f0f7270e6470ae421c2c220a2930f349c2e85e2cff70701cb5ee7b1de291a2600960008660ff1681526020019081526020016000206002018160ff168154811061255b5761255b614bf6565b60009182526020822001546040516001600160a01b03909116917ff6efc0f0f7270e6470ae421c2c220a2930f349c2e85e2cff70701cb5ee7b1de291a25b828260ff16815181106125ae576125ae614bf6565b60200260200101518015612642575060ff808616600090815260096020526040812060028101805460019092019390919086169081106125f0576125f0614bf6565b60009182526020808320909101546001600160a01b03168352820192909252604001902054845160ff91821691869190841690811061263157612631614bf6565b60200260200101516000015160ff16145b80156126d3575060ff8086166000908152600960205260408120600281018054600190920193909190861690811061267c5761267c614bf6565b60009182526020808320909101546001600160a01b03168352820192909252604001902054845160ff61010090920482169186919084169081106126c2576126c2614bf6565b60200260200101516020015160ff16145b156127b35760ff8086166000908152600960205260409020600201805461270592851690811061245f5761245f614bf6565b600960008660ff1681526020019081526020016000206002018160ff168154811061273257612732614bf6565b600091825260208083209091015460ff80891684526009909252604090922060020180546001600160a01b03909316929091851690811061277557612775614bf6565b60009182526020822001546040516001600160a01b03909116917f702e79c3c668b5e07dd82bee771df58a589de806961a825fe169e324ceec57d791a35b806127bd81614d18565b9150506121e5565b50806127d081614d18565b9150506121c2565b5060005b60ff80851660009081526009602052604090206002015490821610156129655760006001600160a01b0316600960008660ff1681526020019081526020016000206002018260ff168154811061283457612834614bf6565b6000918252602090912001546001600160a01b0316036129535760ff84166000908152600960205260409020600201805461287190600190614eb1565b8154811061288157612881614bf6565b9060005260206000200160009054906101000a90046001600160a01b0316600960008660ff1681526020019081526020016000206002018260ff16815481106128cc576128cc614bf6565b600091825260208083209190910180546001600160a01b0319166001600160a01b03949094169390931790925560ff8616815260099091526040902060020180548061291a5761291a614ec4565b600082815260209020810160001990810180546001600160a01b031916905501905560ff811615612953578061294f81614eda565b9150505b8061295d81614d18565b9150506127dc565b5060ff831660009081526009602052604081206002015490036129fc577fb609981dd10c4309ee2f55e2fd9b631438fb9d9de43270f098b64571e58352db6040516129cd906020808252600990820152682737903bb4b73732b960b91b604082015260600190565b60405180910390a160ff83166000908152600960205260409020600301805461ff001916610100179055505050565b60ff8316600090815260096020526040902060020154600103612aa75760ff8316600090815260096020526040812060020180547fb609981dd10c4309ee2f55e2fd9b631438fb9d9de43270f098b64571e58352db92612a7d9291612a6357612a63614bf6565b6000918252602090912001546001600160a01b0316613894565b604051602001612a8d9190614ef7565b60408051601f19818403018152908290526129cd91614f33565b60ff831660009081526009602052604081206002018054909190612acd57612acd614bf6565b60009182526020822001546040516001600160a01b0390911691907f71c863affc60bf856f78adf835c2f8d43a35f214dc51c98e8b9953560f30bf82908290a360005b60ff8085166000908152600960205260409020600201549082161015612d255760ff8085166000908152600960205260408120600281018054600694600190930193928616908110612b6457612b64614bf6565b60009182526020808320909101546001600160a01b03168352820192909252604001902060019081018054909160ff1990911690836006811115612baa57612baa61463f565b021790555060ff8085166000908152600960205260408120600281018054929360019092019284928616908110612be357612be3614bf6565b6000918252602080832091909101546001600160a01b0316835282810193909352604091820181206001908101805461ff00191661010060ff9788160217905588851682526009909352908120600281018054600695929094019390918616908110612c5157612c51614bf6565b60009182526020808320909101546001600160a01b031683528201929092526040019020600101805462ff0000191662010000836006811115612c9657612c9661463f565b021790555060ff8085166000908152600960205260408120600281018054929360019092019284928616908110612ccf57612ccf614bf6565b60009182526020808320909101546001600160a01b031683528201929092526040019020600101805460ff9290921663010000000263ff0000001990921691909117905580612d1d81614d18565b915050612b10565b5060ff83166000908152600960205260409020600301805463ffff0000191690555b505050565b600080612d6360075430631517a82660e01b6138c7565b9050600085604051602001612d789190614f46565b6040516020818303038152906040529050600081604051602001612d9c9190614fd7565b604051602081830303815290604052905060008187604051602001612dc2929190615004565b60408051601f19818403018152828201909152600382526219d95d60ea1b60208301529150612df3908590836138ec565b612e4b6040518060400160405280600c81526020016b1c185d1a17dd1bdad95b925960a21b815250604051806040016040528060078152602001661d1bdad95b925960ca1b815250866138ec9092919063ffffffff16565b612e9f6040518060400160405280600a8152602001691c185d1a17dcdc19595960b21b815250604051806040016040528060058152602001641cdc19595960da1b815250866138ec9092919063ffffffff16565b612ef36040518060400160405280600a815260200169706174685f72616e676560b01b8152506040518060400160405280600581526020016472616e676560d81b815250866138ec9092919063ffffffff16565b612eff8460085461390a565b6000818152600b6020526040902080546001600160a01b0389166001600160a01b03199091161790559450505050509392505050565b600a60205260009081526040902080548190612f509061495d565b80601f0160208091040260200160405190810160405280929190818152602001828054612f7c9061495d565b8015612fc95780601f10612f9e57610100808354040283529160200191612fc9565b820191906000526020600020905b815481529060010190602001808311612fac57829003601f168201915b5050506001909301549192505060ff8082169161010090041683565b604080518082019091526000808252602082015260ff8083166000908152600960205260409020600301541615156001146130325760405162461bcd60e51b81526004016104bc90614a96565b604051630d42527560e11b81526001600160a01b037f00000000000000000000000000000000000000000000000000000000000000001690631a84a4ea9061308290889088908890600401615033565b6040805180830381865afa15801561309e573d6000803e3d6000fd5b505050506040513d601f19601f820116820180604052508101906130c29190614dd0565b90505b949350505050565b60ff8181166000908152600960205260409020600301546201000090041615156001146131465760405162461bcd60e51b815260206004820152602160248201527f436f6d6d6974206d6f76657320686173206e6f742073746172746564207965746044820152602160f81b60648201526084016104bc565b60ff811660009081526009602090815260408083203380855260049091019092528083208590555190917f9f3e34e617fef9587802f0936a8abba403618edefe9f73a9480043e7241f205691a25050565b61319f613563565b6001600160a01b0381166132045760405162461bcd60e51b815260206004820152602660248201527f4f776e61626c653a206e6577206f776e657220697320746865207a65726f206160448201526564647265737360d01b60648201526084016104bc565b61320d8161364b565b50565b60ff80821660009081526009602052604090206003015460609116151560011461324c5760405162461bcd60e51b81526004016104bc90614a96565b60ff82166000908152600960205260408120600201546001600160401b0381111561327957613279614319565b6040519080825280602002602001820160405280156132b257816020015b61329f614251565b8152602001906001900390816132975790505b5090506132e66040518060400160405280601081526020016f52657472696576696e6720736869707360801b815250613924565b60005b60ff841660009081526009602052604090206002015481101561348b5760ff84166000908152600960205260408120600281018054600190920192918490811061333557613335614bf6565b60009182526020808320909101546001600160a01b03168352828101939093526040918201902081516101608101909252805460ff80821661012085019081526101009092048116610140850152908352600182015492939192918401911660068111156133a5576133a561463f565b60068111156133b6576133b661463f565b8152600182015460ff610100820481166020840152604090920191620100009091041660068111156133ea576133ea61463f565b60068111156133fb576133fb61463f565b81526001919091015460ff630100000082048116602084015264010000000082048116151560408401526001600160a01b03650100000000008304166060840152600160c81b820481166080840152600160d01b9091041660a090910152825183908390811061346d5761346d614bf6565b6020026020010181905250808061348390614db7565b9150506132e9565b5092915050565b60ff8082166000908152600960205260409020600301541615156001146134cb5760405162461bcd60e51b81526004016104bc90614a96565b6000805b60ff80841660009081526009602052604090206002015490821610156135575760ff808416600090815260096020526040902060020180546001600160a01b03871692841690811061352357613523614bf6565b6000918252602090912001546001600160a01b03160361354557809150613557565b8061354f81614d18565b9150506134cf565b50612d47838284613726565b6006546001600160a01b0316331461166b5760405162461bcd60e51b815260206004820181905260248201527f4f776e61626c653a2063616c6c6572206973206e6f7420746865206f776e657260448201526064016104bc565b612d478383836040516024016135d593929190615051565b60408051601f198184030181529190526020810180516001600160e01b031663ca47c4eb60e01b179052613963565b612d4783838360405160240161361c93929190615076565b60408051601f198184030181529190526020810180516001600160e01b031663038fd88960e31b179052613963565b600680546001600160a01b038381166001600160a01b0319831681179093556040519116919082907f8be0079c531659141344cd1fd0a4f28419497f9722a3daafe3b4186f6b6457e090600090a35050565b6000806136a8613984565b905060006136d7826136bb866003614bda565b60ff166136c891906150a9565b68055de6a779bbac00006139e0565b90506003811115610ce1575060039392505050565b6000806136f7613984565b905060006136d78261370a866003614bda565b60ff1661371791906150a9565b68056bc75e2d631000006139e0565b60ff8082166000908152600960205260409020600201549083161061378d5760405162461bcd60e51b815260206004820152601860248201527f496e6465782076616c7565206f7574206f662072616e6765000000000000000060448201526064016104bc565b60ff8082166000908152600960205260409020600301541615156001146137c65760405162461bcd60e51b81526004016104bc90614a96565b6040516001600160a01b038416907fce0e3c7f8595684f9560df3c82cb81a6c5a649fcf1bdc96b2dc8b7bf228d650090600090a260ff80821660008181526009602081815260408084206001600160a01b038a16855260018082018452918520805461ffff1916815590910180546001600160d81b031916905593835252600290910180549192909190851690811061386157613861614bf6565b9060005260206000200160006101000a8154816001600160a01b0302191690836001600160a01b03160217905550505050565b604051606082811b6001600160601b0319166020830152906108d990603401604051602081830303815290604052613a03565b6138cf6142ac565b6138d76142ac565b6138e381868686613c1b565b95945050505050565b60808301516138fb9083613c58565b6080830151612d479082613c58565b600354600090610ce1906001600160a01b03168484613c6f565b61320d816040516024016139389190614f33565b60408051601f198184030181529190526020810180516001600160e01b031663104c13eb60e21b1790525b80516a636f6e736f6c652e6c6f67602083016000808483855afa5050505050565b6000670de0b6b3a764000043336040516020016139b892919091825260601b6001600160601b031916602082015260340190565b6040516020818303038152906040528051906020012060001c6139db91906150d6565b905090565b60008160016139ef8286614d05565b6139f99190614eb1565b610ce191906150ea565b60408051808201909152601081526f181899199a1a9b1b9c1cb0b131b232b360811b6020820152815160609190600090613a3e9060026150a9565b613a49906002614d05565b6001600160401b03811115613a6057613a60614319565b6040519080825280601f01601f191660200182016040528015613a8a576020820181803683370190505b509050600360fc1b81600081518110613aa557613aa5614bf6565b60200101906001600160f81b031916908160001a905350600f60fb1b81600181518110613ad457613ad4614bf6565b60200101906001600160f81b031916908160001a90535060005b8451811015613c1357826004868381518110613b0c57613b0c614bf6565b016020015182516001600160f81b031990911690911c60f81c908110613b3457613b34614bf6565b01602001516001600160f81b03191682613b4f8360026150a9565b613b5a906002614d05565b81518110613b6a57613b6a614bf6565b60200101906001600160f81b031916908160001a90535082858281518110613b9457613b94614bf6565b602091010151815160f89190911c600f16908110613bb457613bb4614bf6565b01602001516001600160f81b03191682613bcf8360026150a9565b613bda906003614d05565b81518110613bea57613bea614bf6565b60200101906001600160f81b031916908160001a90535080613c0b81614db7565b915050613aee565b509392505050565b613c236142ac565b613c338560800151610100613d02565b50509183526001600160a01b031660208301526001600160e01b031916604082015290565b613c658260038351613d67565b612d478282613e74565b600454600090613c80816001614d05565b600455835160408086015160808701515191516000936320214ca360e11b93613cb89386938493923092918a916001916024016150fe565b60408051601f198184030181529190526020810180516001600160e01b03166001600160e01b0319909316929092179091529050613cf886838684613e9b565b9695505050505050565b604080518082019091526060815260006020820152613d226020836150d6565b15613d4a57613d326020836150d6565b613d3d906020614eb1565b613d479083614d05565b91505b506020828101829052604080518085526000815290920101905290565b6017816001600160401b031611613d9157613d8b8360e0600585901b168317613ff4565b50505050565b60ff816001600160401b031611613dcd57613db7836018611fe0600586901b1617613ff4565b50613d8b836001600160401b0383166001614019565b61ffff816001600160401b031611613e0a57613df4836019611fe0600586901b1617613ff4565b50613d8b836001600160401b0383166002614019565b63ffffffff816001600160401b031611613e4957613e3383601a611fe0600586901b1617613ff4565b50613d8b836001600160401b0383166004614019565b613e5e83601b611fe0600586901b1617613ff4565b50613d8b836001600160401b0383166008614019565b604080518082019091526060815260006020820152610ce18384600001515184855161403f565b6040516001600160601b03193060601b1660208201526034810184905260009060540160408051808303601f1901815282825280516020918201206000818152600590925291812080546001600160a01b0319166001600160a01b038a1617905590925082917fb5e6e01e79f91267dc17b4e6314d5d4d03593d2ceee0fbb452b750bd70ea5af99190a2600254604051630200057560e51b81526001600160a01b0390911690634000aea090613f5990889087908790600401615166565b6020604051808303816000875af1158015613f78573d6000803e3d6000fd5b505050506040513d601f19601f82011682018060405250810190613f9c919061518d565b6130c55760405162461bcd60e51b815260206004820152602360248201527f756e61626c6520746f207472616e73666572416e6443616c6c20746f206f7261604482015262636c6560e81b60648201526084016104bc565b604080518082019091526060815260006020820152610ce18384600001515184614129565b6040805180820190915260608152600060208201526130c5848560000151518585614184565b604080518082019091526060815260006020820152825182111561406257600080fd5b60208501516140718386614d05565b11156140a4576140a4856140948760200151878661408f9190614d05565b614205565b61409f9060026150a9565b61421c565b6000808651805187602083010193508088870111156140c35787860182525b505050602084015b6020841061410357805182526140e2602083614d05565b91506140ef602082614d05565b90506140fc602085614eb1565b93506140cb565b51815160001960208690036101000a019081169019919091161790525083949350505050565b6040805180820190915260608152600060208201528360200151831061415e5761415e848560200151600261409f91906150a9565b835180516020858301018481535080850361417a576001810182525b5093949350505050565b60408051808201909152606081526000602082015260208501516141a88584614d05565b11156141bc576141bc856140948685614d05565b600060016141cc8461010061528c565b6141d69190614eb1565b90508551838682010185831982511617815250805184870111156141fa5783860181525b509495945050505050565b6000818311156142165750816108d9565b50919050565b81516142288383613d02565b50613d8b8382613e74565b508054600082559060005260206000209081019061320d91906142e7565b6040805161016081018252600061012082018181526101408301829052825260208201819052918101829052606081018290526080810182905260a0810182905260c0810182905260e0810182905261010081019190915290565b6040805160a0810182526000808252602080830182905282840182905260608084018390528451808601909552845283015290608082015290565b5b808211156142fc57600081556001016142e8565b5090565b60006020828403121561431257600080fd5b5035919050565b634e487b7160e01b600052604160045260246000fd5b604080519081016001600160401b038111828210171561435157614351614319565b60405290565b604051601f8201601f191681016001600160401b038111828210171561437f5761437f614319565b604052919050565b600082601f83011261439857600080fd5b81356001600160401b038111156143b1576143b1614319565b6143c4601f8201601f1916602001614357565b8181528460208386010111156143d957600080fd5b816020850160208301376000918101602001919091529392505050565b60ff8116811461320d57600080fd5b6000806000806080858703121561441b57600080fd5b8435935060208501356001600160401b0381111561443857600080fd5b61444487828801614387565b9350506040850135614455816143f6565b91506060850135614465816143f6565b939692955090935050565b60006040828403121561448257600080fd5b61448a61432f565b90508135614497816143f6565b815260208201356144a7816143f6565b602082015292915050565b8035600781106144c157600080fd5b919050565b60008060008060a085870312156144dc57600080fd5b6144e68686614470565b93506144f4604086016144b2565b92506060850135614504816143f6565b91506080850135614465816143f6565b60006020828403121561452657600080fd5b8135610ce1816143f6565b602080825282518282018190526000919060409081850190868401855b8281101561458157614571848351805160ff908116835260209182015116910152565b928401929085019060010161454e565b5091979650505050505050565b600080606083850312156145a157600080fd5b6145ab8484614470565b915060408301356145bb816143f6565b809150509250929050565b600080604083850312156145d957600080fd5b82356145e4816143f6565b915060208301356145bb816143f6565b60008060006060848603121561460957600080fd5b8335614614816143f6565b92506020840135614624816143f6565b91506040840135614634816143f6565b809150509250925092565b634e487b7160e01b600052602160045260246000fd5b6007811061467357634e487b7160e01b600052602160045260246000fd5b9052565b614692828251805160ff908116835260209182015116910152565b60208101516146a46040840182614655565b5060ff604082015116606083015260608101516146c46080840182614655565b5060ff60808201511660a083015260a08101516146e560c084018215159052565b5060c08101516001600160a01b03811660e08401525060e08101516101006147118185018360ff169052565b82015160ff81166101208501529050505050565b61014081016108d98284614677565b60008060008060008060c0878903121561474d57600080fd5b614756876144b2565b95506020870135614766816143f6565b9450614774604088016144b2565b93506060870135614784816143f6565b92506080870135915060a087013561479b816143f6565b809150509295509295509295565b80356001600160a01b03811681146144c157600080fd5b6000806000606084860312156147d557600080fd5b83356001600160401b03808211156147ec57600080fd5b6147f887838801614387565b9450602086013591508082111561480e57600080fd5b5061481b86828701614387565b92505061482a604085016147a9565b90509250925092565b60006020828403121561484557600080fd5b610ce1826147a9565b60005b83811015614869578181015183820152602001614851565b50506000910152565b6000815180845261488a81602086016020860161484e565b601f01601f19169290920160200192915050565b6060815260006148b16060830186614872565b60ff94851660208401529290931660409091015292915050565b604081016108d98284805160ff908116835260209182015116910152565b600080604083850312156148fc57600080fd5b8235915060208301356145bb816143f6565b6020808252825182820181905260009190848201906040850190845b818110156149515761493d838551614677565b92840192610140929092019160010161492a565b50909695505050505050565b600181811c9082168061497157607f821691505b60208210810361421657634e487b7160e01b600052602260045260246000fd5b601f821115612d4757600081815260208120601f850160051c810160208610156149b85750805b601f850160051c820191505b818110156106d6578281556001016149c4565b81516001600160401b038111156149f0576149f0614319565b614a04816149fe845461495d565b84614991565b602080601f831160018114614a395760008415614a215750858301515b600019600386901b1c1916600185901b1785556106d6565b600085815260208120601f198616915b82811015614a6857888601518255948401946001909101908401614a49565b5085821015614a865787850151600019600388901b60f8161c191681555b5050505050600190811b01905550565b60208082526019908201527f47616d6520686173206e6f742073746172746564207965742100000000000000604082015260600190565b60a08101614aeb8287805160ff908116835260209182015116910152565b614af86040830186614655565b60ff8416606083015260ff8316608083015295945050505050565b805180151581146144c157600080fd5b600060408284031215614b3557600080fd5b614b3d61432f565b90508151614b4a816143f6565b815260208201516144a7816143f6565b60008060608385031215614b6d57600080fd5b614b7683614b13565b9150614b858460208501614b23565b90509250929050565b600060208284031215614ba057600080fd5b8151610ce1816143f6565b634e487b7160e01b600052601160045260246000fd5b60ff81811683821601908111156108d9576108d9614bab565b60ff818116838216029081169081811461348b5761348b614bab565b634e487b7160e01b600052603260045260246000fd5b60ff82811682821603908111156108d9576108d9614bab565b60608101614c438285805160ff908116835260209182015116910152565b60ff831660408301529392505050565b60006020808385031215614c6657600080fd5b82516001600160401b0380821115614c7d57600080fd5b818501915085601f830112614c9157600080fd5b815181811115614ca357614ca3614319565b614cb1848260051b01614357565b818152848101925060069190911b830184019087821115614cd157600080fd5b928401925b81841015614cfa57614ce88885614b23565b83528483019250604084019350614cd6565b979650505050505050565b808201808211156108d9576108d9614bab565b600060ff821660ff8103614d2e57614d2e614bab565b60010192915050565b600060808284031215614d4957600080fd5b604051608081018181106001600160401b0382111715614d6b57614d6b614319565b6040528251614d79816143f6565b81526020830151614d89816143f6565b6020820152614d9a60408401614b13565b6040820152614dab60608401614b13565b60608201529392505050565b600060018201614dc957614dc9614bab565b5060010190565b600060408284031215614de257600080fd5b610ce18383614b23565b60078110614e0a57634e487b7160e01b600052602160045260246000fd5b60f81b9052565b614e1b8187614dec565b600060ff60f81b808760f81b166001840152614e3a6002840187614dec565b60f89490941b90931660038201526004810191909152602401949350505050565b845460ff808216835260089190911c16602082015260a08101614aeb565b835460ff808216835260089190911c166020820152608081015b614ea06040830185614655565b60ff83166060830152949350505050565b818103818111156108d9576108d9614bab565b634e487b7160e01b600052603160045260246000fd5b600060ff821680614eed57614eed614bab565b6000190192915050565b7302a34329023b0b6b2903bb4b73732b91034b99d160651b815260008251614f2681601485016020870161484e565b9190910160140192915050565b602081526000610ce16020830184614872565b7f68747470733a2f2f6d35396a7463697172652e657865637574652d6170692e7581527f732d656173742d312e616d617a6f6e6177732e636f6d2f67657447656e65736960208201527f734e667473666f72426174746c65526f79616c652f3f746f6b656e49643d0000604082015260008251614fca81605e85016020870161484e565b91909101605e0192915050565b60008251614fe981846020870161484e565b6826616464726573733d60b81b920191825250600901919050565b6000835161501681846020880161484e565b83519083019061502a81836020880161484e565b01949350505050565b60808101614e938286805160ff908116835260209182015116910152565b6060815260006150646060830186614872565b60208301949094525060400152919050565b6060815260006150896060830186614872565b6020830194909452506001600160a01b0391909116604090910152919050565b80820281158282048414176108d9576108d9614bab565b634e487b7160e01b600052601260045260246000fd5b6000826150e5576150e56150c0565b500690565b6000826150f9576150f96150c0565b500490565b6001600160a01b0389811682526020820189905260408201889052861660608201526001600160e01b03198516608082015260a0810184905260c0810183905261010060e0820181905260009061515783820185614872565b9b9a5050505050505050505050565b60018060a01b03841681528260208201526060604082015260006130c26060830184614872565b60006020828403121561519f57600080fd5b610ce182614b13565b600181815b808511156151e35781600019048211156151c9576151c9614bab565b808516156151d657918102915b93841c93908002906151ad565b509250929050565b6000826151fa575060016108d9565b81615207575060006108d9565b816001811461521d576002811461522757615243565b60019150506108d9565b60ff84111561523857615238614bab565b50506001821b6108d9565b5060208310610133831016604e8410600b8410161715615266575081810a6108d9565b61527083836151a8565b806000190482111561528457615284614bab565b029392505050565b6000610ce183836151eb56fea264697066735822122064b2d70a1e4c6898e70d867ab0cc46fd36f0829c6b10762e96f60ce1374a8e3d64736f6c63430008120033",
  "linkReferences": {},
  "deployedLinkReferences": {}
}