{
  "_format": "hh-sol-artifact-1",
  "contractName": "Game",
  "sourceName": "contracts/Game.sol",
  "abi": [
    {
      "inputs": [
        {
          "internalType": "address",
          "name": "_mapAddress",
          "type": "address"
        }
      ],
      "stateMutability": "nonpayable",
      "type": "constructor"
    },
    {
      "inputs": [
        {
          "internalType": "address",
          "name": "player",
          "type": "address"
        },
        {
          "internalType": "uint8",
          "name": "q",
          "type": "uint8"
        },
        {
          "internalType": "uint8",
          "name": "r",
          "type": "uint8"
        }
      ],
      "name": "ShipAlreadyAdded",
      "type": "error"
    },
    {
      "anonymous": false,
      "inputs": [
        {
          "indexed": true,
          "internalType": "bytes32",
          "name": "id",
          "type": "bytes32"
        }
      ],
      "name": "ChainlinkCancelled",
      "type": "event"
    },
    {
      "anonymous": false,
      "inputs": [
        {
          "indexed": true,
          "internalType": "bytes32",
          "name": "id",
          "type": "bytes32"
        }
      ],
      "name": "ChainlinkFulfilled",
      "type": "event"
    },
    {
      "anonymous": false,
      "inputs": [
        {
          "indexed": true,
          "internalType": "bytes32",
          "name": "id",
          "type": "bytes32"
        }
      ],
      "name": "ChainlinkRequested",
      "type": "event"
    },
    {
      "anonymous": false,
      "inputs": [
        {
          "indexed": true,
          "internalType": "bool",
          "name": "gameStatus",
          "type": "bool"
        },
        {
          "indexed": true,
          "internalType": "address",
          "name": "winnerAddress",
          "type": "address"
        }
      ],
      "name": "GameUpdated",
      "type": "event"
    },
    {
      "anonymous": false,
      "inputs": [
        {
          "indexed": false,
          "internalType": "string",
          "name": "gameWinner",
          "type": "string"
        }
      ],
      "name": "GameWinner",
      "type": "event"
    },
    {
      "anonymous": false,
      "inputs": [
        {
          "indexed": true,
          "internalType": "address",
          "name": "previousOwner",
          "type": "address"
        },
        {
          "indexed": true,
          "internalType": "address",
          "name": "newOwner",
          "type": "address"
        }
      ],
      "name": "OwnershipTransferred",
      "type": "event"
    },
    {
      "anonymous": false,
      "inputs": [
        {
          "indexed": true,
          "internalType": "address",
          "name": "player",
          "type": "address"
        }
      ],
      "name": "PlayerAdded",
      "type": "event"
    },
    {
      "anonymous": false,
      "inputs": [
        {
          "indexed": true,
          "internalType": "address",
          "name": "player",
          "type": "address"
        }
      ],
      "name": "PlayerDefeated",
      "type": "event"
    },
    {
      "inputs": [
        {
          "internalType": "uint8",
          "name": "gameId",
          "type": "uint8"
        }
      ],
      "name": "addShip",
      "outputs": [
        {
          "components": [
            {
              "components": [
                {
                  "internalType": "uint8",
                  "name": "q",
                  "type": "uint8"
                },
                {
                  "internalType": "uint8",
                  "name": "r",
                  "type": "uint8"
                }
              ],
              "internalType": "struct SharedStructs.Coordinate",
              "name": "coordinate",
              "type": "tuple"
            },
            {
              "internalType": "enum SharedStructs.Directions",
              "name": "travelDirection",
              "type": "uint8"
            },
            {
              "internalType": "uint8",
              "name": "travelDistance",
              "type": "uint8"
            },
            {
              "internalType": "enum SharedStructs.Directions",
              "name": "shotDirection",
              "type": "uint8"
            },
            {
              "internalType": "uint8",
              "name": "shotDistance",
              "type": "uint8"
            },
            {
              "internalType": "bool",
              "name": "publishedMove",
              "type": "bool"
            },
            {
              "internalType": "address",
              "name": "captain",
              "type": "address"
            }
          ],
          "internalType": "struct Game.Ship",
          "name": "",
          "type": "tuple"
        }
      ],
      "stateMutability": "nonpayable",
      "type": "function"
    },
    {
      "inputs": [
        {
          "internalType": "uint8",
          "name": "gameId",
          "type": "uint8"
        }
      ],
      "name": "allowCommitMoves",
      "outputs": [],
      "stateMutability": "nonpayable",
      "type": "function"
    },
    {
      "inputs": [
        {
          "internalType": "uint8",
          "name": "gameId",
          "type": "uint8"
        }
      ],
      "name": "allowSubmitMoves",
      "outputs": [],
      "stateMutability": "nonpayable",
      "type": "function"
    },
    {
      "inputs": [
        {
          "internalType": "bytes32",
          "name": "moveHash",
          "type": "bytes32"
        },
        {
          "internalType": "uint8",
          "name": "gameId",
          "type": "uint8"
        }
      ],
      "name": "commitMove",
      "outputs": [],
      "stateMutability": "nonpayable",
      "type": "function"
    },
    {
      "inputs": [
        {
          "internalType": "uint256",
          "name": "gameId",
          "type": "uint256"
        }
      ],
      "name": "endGame",
      "outputs": [],
      "stateMutability": "nonpayable",
      "type": "function"
    },
    {
      "inputs": [
        {
          "internalType": "bytes32",
          "name": "_requestId",
          "type": "bytes32"
        },
        {
          "internalType": "string",
          "name": "_tokenId",
          "type": "string"
        },
        {
          "internalType": "uint8",
          "name": "_speed",
          "type": "uint8"
        },
        {
          "internalType": "uint8",
          "name": "_range",
          "type": "uint8"
        }
      ],
      "name": "fulfill",
      "outputs": [],
      "stateMutability": "nonpayable",
      "type": "function"
    },
    {
      "inputs": [
        {
          "internalType": "uint256",
          "name": "",
          "type": "uint256"
        }
      ],
      "name": "games",
      "outputs": [
        {
          "internalType": "uint256",
          "name": "round",
          "type": "uint256"
        },
        {
          "internalType": "bool",
          "name": "gameInProgress",
          "type": "bool"
        },
        {
          "internalType": "bool",
          "name": "stopAddingShips",
          "type": "bool"
        },
        {
          "internalType": "bool",
          "name": "letCommitMoves",
          "type": "bool"
        },
        {
          "internalType": "bool",
          "name": "letSubmitMoves",
          "type": "bool"
        }
      ],
      "stateMutability": "view",
      "type": "function"
    },
    {
      "inputs": [
        {
          "components": [
            {
              "internalType": "uint8",
              "name": "q",
              "type": "uint8"
            },
            {
              "internalType": "uint8",
              "name": "r",
              "type": "uint8"
            }
          ],
          "internalType": "struct SharedStructs.Coordinate",
          "name": "_coord",
          "type": "tuple"
        },
        {
          "internalType": "uint8",
          "name": "gameId",
          "type": "uint8"
        }
      ],
      "name": "getCell",
      "outputs": [
        {
          "components": [
            {
              "internalType": "uint8",
              "name": "q",
              "type": "uint8"
            },
            {
              "internalType": "uint8",
              "name": "r",
              "type": "uint8"
            },
            {
              "internalType": "bool",
              "name": "island",
              "type": "bool"
            },
            {
              "internalType": "bool",
              "name": "exists",
              "type": "bool"
            }
          ],
          "internalType": "struct SharedStructs.Cell",
          "name": "",
          "type": "tuple"
        }
      ],
      "stateMutability": "view",
      "type": "function"
    },
    {
      "inputs": [
        {
          "internalType": "uint8",
          "name": "gameId",
          "type": "uint8"
        }
      ],
      "name": "getCells",
      "outputs": [
        {
          "components": [
            {
              "internalType": "uint8",
              "name": "q",
              "type": "uint8"
            },
            {
              "internalType": "uint8",
              "name": "r",
              "type": "uint8"
            }
          ],
          "internalType": "struct SharedStructs.Coordinate[]",
          "name": "",
          "type": "tuple[]"
        }
      ],
      "stateMutability": "view",
      "type": "function"
    },
    {
      "inputs": [
        {
          "internalType": "uint8",
          "name": "gameId",
          "type": "uint8"
        }
      ],
      "name": "getRadius",
      "outputs": [
        {
          "internalType": "uint8",
          "name": "",
          "type": "uint8"
        }
      ],
      "stateMutability": "view",
      "type": "function"
    },
    {
      "inputs": [
        {
          "internalType": "uint8",
          "name": "gameId",
          "type": "uint8"
        }
      ],
      "name": "getShips",
      "outputs": [
        {
          "components": [
            {
              "components": [
                {
                  "internalType": "uint8",
                  "name": "q",
                  "type": "uint8"
                },
                {
                  "internalType": "uint8",
                  "name": "r",
                  "type": "uint8"
                }
              ],
              "internalType": "struct SharedStructs.Coordinate",
              "name": "coordinate",
              "type": "tuple"
            },
            {
              "internalType": "enum SharedStructs.Directions",
              "name": "travelDirection",
              "type": "uint8"
            },
            {
              "internalType": "uint8",
              "name": "travelDistance",
              "type": "uint8"
            },
            {
              "internalType": "enum SharedStructs.Directions",
              "name": "shotDirection",
              "type": "uint8"
            },
            {
              "internalType": "uint8",
              "name": "shotDistance",
              "type": "uint8"
            },
            {
              "internalType": "bool",
              "name": "publishedMove",
              "type": "bool"
            },
            {
              "internalType": "address",
              "name": "captain",
              "type": "address"
            }
          ],
          "internalType": "struct Game.Ship[]",
          "name": "",
          "type": "tuple[]"
        }
      ],
      "stateMutability": "view",
      "type": "function"
    },
    {
      "inputs": [
        {
          "internalType": "uint8",
          "name": "_radius",
          "type": "uint8"
        },
        {
          "internalType": "uint8",
          "name": "gameId",
          "type": "uint8"
        }
      ],
      "name": "initGame",
      "outputs": [],
      "stateMutability": "nonpayable",
      "type": "function"
    },
    {
      "inputs": [],
      "name": "jobId",
      "outputs": [
        {
          "internalType": "bytes32",
          "name": "",
          "type": "bytes32"
        }
      ],
      "stateMutability": "view",
      "type": "function"
    },
    {
      "inputs": [
        {
          "components": [
            {
              "internalType": "uint8",
              "name": "q",
              "type": "uint8"
            },
            {
              "internalType": "uint8",
              "name": "r",
              "type": "uint8"
            }
          ],
          "internalType": "struct SharedStructs.Coordinate",
          "name": "_start",
          "type": "tuple"
        },
        {
          "internalType": "enum SharedStructs.Directions",
          "name": "_dir",
          "type": "uint8"
        },
        {
          "internalType": "uint8",
          "name": "_distance",
          "type": "uint8"
        },
        {
          "internalType": "uint8",
          "name": "gameId",
          "type": "uint8"
        }
      ],
      "name": "move",
      "outputs": [
        {
          "components": [
            {
              "internalType": "uint8",
              "name": "q",
              "type": "uint8"
            },
            {
              "internalType": "uint8",
              "name": "r",
              "type": "uint8"
            }
          ],
          "internalType": "struct SharedStructs.Coordinate",
          "name": "",
          "type": "tuple"
        }
      ],
      "stateMutability": "view",
      "type": "function"
    },
    {
      "inputs": [
        {
          "internalType": "address",
          "name": "",
          "type": "address"
        }
      ],
      "name": "nftDataMapping",
      "outputs": [
        {
          "internalType": "string",
          "name": "tokenId",
          "type": "string"
        },
        {
          "internalType": "uint8",
          "name": "speed",
          "type": "uint8"
        },
        {
          "internalType": "uint8",
          "name": "range",
          "type": "uint8"
        }
      ],
      "stateMutability": "view",
      "type": "function"
    },
    {
      "inputs": [],
      "name": "owner",
      "outputs": [
        {
          "internalType": "address",
          "name": "",
          "type": "address"
        }
      ],
      "stateMutability": "view",
      "type": "function"
    },
    {
      "inputs": [],
      "name": "renounceOwnership",
      "outputs": [],
      "stateMutability": "nonpayable",
      "type": "function"
    },
    {
      "inputs": [
        {
          "internalType": "string",
          "name": "_tokenId",
          "type": "string"
        },
        {
          "internalType": "string",
          "name": "_walletAddress",
          "type": "string"
        },
        {
          "internalType": "address",
          "name": "walletAddressnonString",
          "type": "address"
        }
      ],
      "name": "requestAPIdata",
      "outputs": [
        {
          "internalType": "bytes32",
          "name": "requestId",
          "type": "bytes32"
        }
      ],
      "stateMutability": "nonpayable",
      "type": "function"
    },
    {
      "inputs": [
        {
          "internalType": "bytes32",
          "name": "",
          "type": "bytes32"
        }
      ],
      "name": "requestAddresses",
      "outputs": [
        {
          "internalType": "address",
          "name": "",
          "type": "address"
        }
      ],
      "stateMutability": "view",
      "type": "function"
    },
    {
      "inputs": [
        {
          "internalType": "enum SharedStructs.Directions",
          "name": "_travelDirection",
          "type": "uint8"
        },
        {
          "internalType": "uint8",
          "name": "_travelDistance",
          "type": "uint8"
        },
        {
          "internalType": "enum SharedStructs.Directions",
          "name": "_shotDirection",
          "type": "uint8"
        },
        {
          "internalType": "uint8",
          "name": "_shotDistance",
          "type": "uint8"
        },
        {
          "internalType": "uint256",
          "name": "secret",
          "type": "uint256"
        },
        {
          "internalType": "uint8",
          "name": "gameId",
          "type": "uint8"
        }
      ],
      "name": "revealMove",
      "outputs": [],
      "stateMutability": "nonpayable",
      "type": "function"
    },
    {
      "inputs": [
        {
          "internalType": "uint8",
          "name": "gameId",
          "type": "uint8"
        }
      ],
      "name": "startNewGame",
      "outputs": [],
      "stateMutability": "nonpayable",
      "type": "function"
    },
    {
      "inputs": [
        {
          "internalType": "address",
          "name": "newOwner",
          "type": "address"
        }
      ],
      "name": "transferOwnership",
      "outputs": [],
      "stateMutability": "nonpayable",
      "type": "function"
    },
    {
      "inputs": [
        {
          "components": [
            {
              "internalType": "uint8",
              "name": "q",
              "type": "uint8"
            },
            {
              "internalType": "uint8",
              "name": "r",
              "type": "uint8"
            }
          ],
          "internalType": "struct SharedStructs.Coordinate",
          "name": "_startCell",
          "type": "tuple"
        },
        {
          "internalType": "enum SharedStructs.Directions",
          "name": "_direction",
          "type": "uint8"
        },
        {
          "internalType": "uint8",
          "name": "_distance",
          "type": "uint8"
        },
        {
          "internalType": "uint8",
          "name": "gameId",
          "type": "uint8"
        }
      ],
      "name": "travel",
      "outputs": [],
      "stateMutability": "nonpayable",
      "type": "function"
    },
    {
      "inputs": [
        {
          "internalType": "uint8",
          "name": "gameId",
          "type": "uint8"
        }
      ],
      "name": "updateWorld",
      "outputs": [],
      "stateMutability": "nonpayable",
      "type": "function"
    }
  ],
  "bytecode": "0x60a060405260016004553480156200001657600080fd5b506040516200494a3803806200494a833981016040819052620000399162000126565b6200004433620000d4565b6001600160a01b038116608052600280546001600160a01b03191673779877a7b0d9e8603169ddbd7836e478b4624789179055600380546001600160a01b031916731e34a40ac8ed0bc66a02e5509747f69c7387c44f179055507f633164373130353731363862343934333838303031353438656531663935656160075567016345785d8a000060085562000158565b600680546001600160a01b038381166001600160a01b0319831681179093556040519116919082907f8be0079c531659141344cd1fd0a4f28419497f9722a3daafe3b4186f6b6457e090600090a35050565b6000602082840312156200013957600080fd5b81516001600160a01b03811681146200015157600080fd5b9392505050565b608051614790620001ba600039600081816105ed015281816107e0015281816108b201528181610a3b01528181610be901528181610d5801528181610dd2015281816112900152818161153101528181612261015261248c01526147906000f3fe608060405234801561001057600080fd5b50600436106101585760003560e01c80638da5cb5b116100c3578063d0399bb81161007c578063d0399bb8146103ae578063d085a86f146103c1578063e7c435a7146103e1578063ebd19fe5146103f4578063f2fde38b14610414578063fd8704461461042757600080fd5b80638da5cb5b14610301578063978ac35614610326578063a81ab18e14610339578063bf70b4f51461035a578063c2939d971461037c578063cddd99ba1461038557600080fd5b80634aac9b8b116101155780634aac9b8b1461024b5780634d0238861461026b578063508236ca146102c05780636ed296e4146102d3578063715018a6146102e657806382536968146102ee57600080fd5b8063117a5b901461015d5780631517a826146101d85780631cf8a321146101ed5780632277743b146102005780632923a41f146102135780633436120814610226575b600080fd5b6101a361016b36600461384b565b6009602052600090815260409020805460039091015460ff808216916101008104821691620100008204811691630100000090041685565b6040805195865293151560208601529115159284019290925290151560608301521515608082015260a0015b60405180910390f35b6101eb6101e6366004613950565b610447565b005b6101eb6101fb366004613a11565b6105ac565b6101eb61020e366004613a5f565b6106d6565b6101eb610221366004613a5f565b61072f565b610239610234366004613a5f565b61078a565b60405160ff90911681526020016101cf565b61025e610259366004613a5f565b61085a565b6040516101cf9190613a7c565b61027e610279366004613ad9565b610b72565b6040516101cf9190600060808201905060ff835116825260ff602084015116602083015260408301511515604083015260608301511515606083015292915050565b6101eb6102ce366004613b11565b610c6b565b6101eb6102e1366004613a5f565b610e34565b6101eb610f23565b6101eb6102fc366004613b3f565b610f37565b6006546001600160a01b03165b6040516001600160a01b0390911681526020016101cf565b6101eb610334366004613a5f565b6110df565b61034c610347366004613bcb565b611f06565b6040519081526020016101cf565b61036d610368366004613c3e565b6120ef565b6040516101cf93929190613ca9565b61034c60075481565b61030e61039336600461384b565b600b602052600090815260409020546001600160a01b031681565b6101eb6103bc36600461384b565b61219f565b6103d46103cf366004613a11565b6121fa565b6040516101cf9190613cd6565b6101eb6103ef366004613cf4565b6122e6565b610407610402366004613a5f565b61237c565b6040516101cf9190613dce565b6101eb610422366004613c3e565b612889565b61043a610435366004613a5f565b612902565b6040516101cf9190613ddd565b60008481526005602052604090205484906001600160a01b031633146104c55760405162461bcd60e51b815260206004820152602860248201527f536f75726365206d75737420626520746865206f7261636c65206f6620746865604482015267081c995c5d595cdd60c21b60648201526084015b60405180910390fd5b60008181526005602052604080822080546001600160a01b03191690555182917f7cc135e0cebb02c3480ae5d74d377283180a2601f8f644edf7987b009316c63a91a26000858152600b6020908152604080832054815160608101835288815260ff808916828601528716818401526001600160a01b03909116808552600a90935292208251919291819061055a9082613eae565b506020828101516001909201805460409485015160ff9081166101000261ffff19909216941693909317929092179091556000978852600b905290952080546001600160a01b03191690555050505050565b60ff8082166000908152600960205260409020600381015490911615156001146105e85760405162461bcd60e51b81526004016104bc90613f6d565b6000807f00000000000000000000000000000000000000000000000000000000000000006001600160a01b0316631cf8a321888888886040518563ffffffff1660e01b815260040161063d9493929190613fa4565b606060405180830381865afa15801561065a573d6000803e3d6000fd5b505050506040513d601f19601f8201168201806040525081019061067e9190614031565b915091508115610697576106923385612b38565b6106cd565b8051336000908152600185016020908152604090912080549184015160ff9081166101000261ffff199093169316929092171790555b50505050505050565b6106de612be9565b60ff80821660009081526009602052604090206003810154909116151560011461071a5760405162461bcd60e51b81526004016104bc90613f6d565b600301805462ff000019166201000017905550565b610737612be9565b60ff8082166000908152600960205260409020600381015490911615156001146107735760405162461bcd60e51b81526004016104bc90613f6d565b600301805463ffff00001916630100000017905550565b60ff80821660009081526009602052604081206003810154919290911615156001146107c85760405162461bcd60e51b81526004016104bc90613f6d565b60405163436fadf360e11b815260ff841660048201527f00000000000000000000000000000000000000000000000000000000000000006001600160a01b0316906386df5be690602401602060405180830381865afa15801561082f573d6000803e3d6000fd5b505050506040513d601f19601f820116820180604052508101906108539190614065565b9392505050565b60ff808216600090815260096020526040902060038101546060921615156001146108975760405162461bcd60e51b81526004016104bc90613f6d565b60405163436fadf360e11b815260ff841660048201526000907f00000000000000000000000000000000000000000000000000000000000000006001600160a01b0316906386df5be690602401602060405180830381865afa158015610901573d6000803e3d6000fd5b505050506040513d601f19601f820116820180604052508101906109259190614065565b90506000610934826001614098565b61093f8360036140b1565b61094991906140b1565b610954906001614098565b60ff1690506000816001600160401b0381111561097357610973613864565b6040519080825280602002602001820160405280156109b857816020015b60408051808201909152600080825260208201528152602001906001900390816109915790505b50905060405180604001604052808460ff1681526020018460ff16815250816000815181106109e9576109e96140d4565b602090810291909101015260015b8360ff168160ff1611610b6857600081610a126001826140ea565b610a1d9060036140b1565b610a2791906140b1565b610a32906001614098565b60ff16905060007f00000000000000000000000000000000000000000000000000000000000000006001600160a01b03166339e5c4a085600081518110610a7b57610a7b6140d4565b6020026020010151856040518363ffffffff1660e01b8152600401610aa1929190614103565b600060405180830381865afa158015610abe573d6000803e3d6000fd5b505050506040513d6000823e601f3d908101601f19168201604052610ae69190810190614131565b905060005b81518160ff161015610b5257818160ff1681518110610b0c57610b0c6140d4565b6020026020010151858260ff1685610b2491906141e3565b81518110610b3457610b346140d4565b60200260200101819052508080610b4a906141f6565b915050610aeb565b5050508080610b60906141f6565b9150506109f7565b5095945050505050565b60408051608081018252600080825260208201819052918101829052606081019190915260ff808316600090815260096020526040902060038101549091161515600114610bd25760405162461bcd60e51b81526004016104bc90613f6d565b6040516326811c4360e11b81526001600160a01b037f00000000000000000000000000000000000000000000000000000000000000001690634d02388690610c209087908790600401614103565b608060405180830381865afa158015610c3d573d6000803e3d6000fd5b505050506040513d601f19601f82011682018060405250810190610c619190614215565b9150505b92915050565b610c73612be9565b60ff808216600090815260096020526040902060038101549091161515600114610caf5760405162461bcd60e51b81526004016104bc90613f6d565b60005b6002820154811015610d2957816001016000836002018381548110610cd957610cd96140d4565b60009182526020808320909101546001600160a01b031683528201929092526040019020805461ffff1916815560010180546001600160c81b031916905580610d2181614295565b915050610cb2565b50610d3860028201600061378e565b604051631a405d8760e31b815260ff8085166004830152831660248201527f00000000000000000000000000000000000000000000000000000000000000006001600160a01b03169063d202ec3890604401600060405180830381600087803b158015610da457600080fd5b505af1158015610db8573d6000803e3d6000fd5b50506040516318068d3760e01b815260ff851660048201527f00000000000000000000000000000000000000000000000000000000000000006001600160a01b031692506318068d379150602401600060405180830381600087803b158015610e2057600080fd5b505af11580156106cd573d6000803e3d6000fd5b610e3c612be9565b60ff8160ff1610610e8f5760405162461bcd60e51b815260206004820152601f60248201527f4d6178696d756d206e756d626572206f662067616d657320726561636865640060448201526064016104bc565b60ff8082166000908152600960205260409020600301541615610f025760405162461bcd60e51b815260206004820152602560248201527f47616d652077697468207468697320494420616c726561647920696e2070726f604482015264677265737360d81b60648201526084016104bc565b60ff166000908152600960205260409020600301805460ff19166001179055565b610f2b612be9565b610f356000612c43565b565b60ff8082166000908152600960205260409020600381015490916001630100000090920416151514610fb55760405162461bcd60e51b815260206004820152602160248201527f5375626d6974206d6f76657320686173206e6f742073746172746564207965746044820152602160f81b60648201526084016104bc565b600381015460ff161515600114610fde5760405162461bcd60e51b81526004016104bc90613f6d565b60008787878787604051602001610ff99594939291906142d3565b60408051601f198184030181529181528151602092830120336000908152600486019093529120549091508190036110d55733600090815260018084016020526040909120808201805491928b9260ff19169083600681111561105e5761105e613d19565b021790555060018101805461ff0019811661010060ff8c1602908117835589929162ffff00191662ff00001990911617620100008360068111156110a4576110a4613d19565b0217905550600101805464ff000000001960ff88166301000000021664ffff00000019909116176401000000001790555b5050505050505050565b6110e7612be9565b60ff8082166000908152600960205260409020600381015490911615156001146111235760405162461bcd60e51b81526004016104bc90613f6d565b60028101546000906001600160401b0381111561114257611142613864565b60405190808252806020026020018201604052801561118757816020015b60408051808201909152600080825260208201528152602001906001900390816111605790505b5060028301549091506000906001600160401b038111156111aa576111aa613864565b6040519080825280602002602001820160405280156111d3578160200160208202803683370190505b50905060005b600284015460ff82161015611221576001828260ff16815181106111ff576111ff6140d4565b9115156020928302919091019091015280611219816141f6565b9150506111d9565b5060005b600284015460ff821610156114f857836001016000856002018360ff1681548110611252576112526140d4565b60009182526020808320909101546001600160a01b0316835282019290925260400190206001015460ff64010000000090910416156114e6576000807f00000000000000000000000000000000000000000000000000000000000000006001600160a01b0316631cf8a321876001016000896002018760ff16815481106112db576112db6140d4565b60009182526020808320909101546001600160a01b03168352820192909252604001812060028a018054919260018c019290919060ff8a16908110611322576113226140d4565b60009182526020808320909101546001600160a01b03168352820192909252604001812060019081015460028c01805460ff92831694938e0193928b1690811061136e5761136e6140d4565b60009182526020808320909101546001600160a01b0316835282019290925260409081019091206001015490516001600160e01b031960e086901b1681526113c693929160ff61010090910416908d9060040161431d565b606060405180830381865afa1580156113e3573d6000803e3d6000fd5b505050506040513d601f19601f820116820180604052508101906114079190614031565b91509150811561147857611448866002018460ff168154811061142c5761142c6140d4565b6000918252602090912001546001600160a01b03168489612c95565b6000848460ff168151811061145f5761145f6140d4565b60200260200101901515908115158152505050506114e6565b80866001016000886002018660ff1681548110611497576114976140d4565b60009182526020808320909101546001600160a01b03168352828101939093526040909101902082518154939092015160ff9081166101000261ffff1990941692169190911791909117905550505b806114f0816141f6565b915050611225565b5060005b600284015460ff821610156116e457818160ff1681518110611520576115206140d4565b6020026020010151156116d25760007f00000000000000000000000000000000000000000000000000000000000000006001600160a01b031663d6192ad3866001016000886002018660ff168154811061157c5761157c6140d4565b60009182526020808320909101546001600160a01b031683528201929092526040018120600289018054919260018b019290919060ff89169081106115c3576115c36140d4565b60009182526020808320909101546001600160a01b03168352820192909252604001812060019081015460028b01805460ff62010000909304831694938d0193928a16908110611615576116156140d4565b60009182526020808320909101546001600160a01b0316835282019290925260409081019091206001015490516001600160e01b031960e086901b16815261166d93929160ff6301000000909104169060040161433b565b6040805180830381865afa158015611689573d6000803e3d6000fd5b505050506040513d601f19601f820116820180604052508101906116ad9190614373565b905080848360ff16815181106116c5576116c56140d4565b6020026020010181905250505b806116dc816141f6565b9150506114fc565b5060005b600284015460ff82161015611ab15760005b600285015460ff82161015611a9e578060ff168260ff1614611a8c57828260ff168151811061172b5761172b6140d4565b602002602001015180156117585750828160ff168151811061174f5761174f6140d4565b60200260200101515b80156117f25750846001016000866002018460ff168154811061177d5761177d6140d4565b60009182526020808320909101546001600160a01b0316835282019290925260400181205460028701805460ff9283169360018a01939092919086169081106117c8576117c86140d4565b60009182526020808320909101546001600160a01b0316835282019290925260400190205460ff16145b80156118975750846001016000866002018460ff1681548110611817576118176140d4565b60009182526020808320909101546001600160a01b0316835282019290925260400181205460028701805460ff61010090930483169360018a0193909291908616908110611867576118676140d4565b60009182526020808320909101546001600160a01b0316835282019290925260400190205460ff61010090910416145b1561195c576000838360ff16815181106118b3576118b36140d4565b6020026020010190151590811515815250506000838260ff16815181106118dc576118dc6140d4565b602002602001019015159081151581525050611925856002018360ff1681548110611909576119096140d4565b6000918252602090912001546001600160a01b03168388612c95565b61195c856002018260ff1681548110611940576119406140d4565b6000918252602090912001546001600160a01b03168288612c95565b828260ff1681518110611971576119716140d4565b602002602001015180156119f05750846001016000866002018460ff168154811061199e5761199e6140d4565b60009182526020808320909101546001600160a01b03168352820192909252604001902054845160ff9182169186919084169081106119df576119df6140d4565b60200260200101516000015160ff16145b8015611a6c5750846001016000866002018460ff1681548110611a1557611a156140d4565b60009182526020808320909101546001600160a01b03168352820192909252604001902054845160ff6101009092048216918691908416908110611a5b57611a5b6140d4565b60200260200101516020015160ff16145b15611a8c57611a8c856002018360ff1681548110611909576119096140d4565b80611a96816141f6565b9150506116fa565b5080611aa9816141f6565b9150506116e8565b5060005b600284015460ff82161015611be05760006001600160a01b0316846002018260ff1681548110611ae757611ae76140d4565b6000918252602090912001546001600160a01b031603611bce57600284018054611b139060019061438f565b81548110611b2357611b236140d4565b6000918252602090912001546002850180546001600160a01b039092169160ff8416908110611b5457611b546140d4565b9060005260206000200160006101000a8154816001600160a01b0302191690836001600160a01b0316021790555083600201805480611b9557611b956143a2565b600082815260209020810160001990810180546001600160a01b031916905501905560ff811615611bce5780611bca816143b8565b9150505b80611bd8816141f6565b915050611ab5565b506002830154600003611c56577fb609981dd10c4309ee2f55e2fd9b631438fb9d9de43270f098b64571e58352db604051611c38906020808252600990820152682737903bb4b73732b960b91b604082015260600190565b60405180910390a160038301805461ff001916610100179055611f00565b6002830154600103611ce0577fb609981dd10c4309ee2f55e2fd9b631438fb9d9de43270f098b64571e58352db611cb684600201600081548110611c9c57611c9c6140d4565b6000918252602090912001546001600160a01b0316612ddb565b604051602001611cc691906143d5565b60408051601f1981840301815290829052611c3891614411565b82600201600081548110611cf657611cf66140d4565b60009182526020822001546040516001600160a01b0390911691907f71c863affc60bf856f78adf835c2f8d43a35f214dc51c98e8b9953560f30bf82908290a360005b600284015460ff82161015611eef576006846001016000866002018460ff1681548110611d6857611d686140d4565b60009182526020808320909101546001600160a01b03168352820192909252604001902060019081018054909160ff1990911690836006811115611dae57611dae613d19565b02179055506000846001016000866002018460ff1681548110611dd357611dd36140d4565b6000918252602080832091909101546001600160a01b0316835282019290925260400181206001908101805461ff00191661010060ff9586160217905560028701805460069492890193928616908110611e2f57611e2f6140d4565b60009182526020808320909101546001600160a01b031683528201929092526040019020600101805462ff0000191662010000836006811115611e7457611e74613d19565b02179055506000846001016000866002018460ff1681548110611e9957611e996140d4565b60009182526020808320909101546001600160a01b031683528201929092526040019020600101805460ff9290921663010000000263ff0000001990921691909117905580611ee7816141f6565b915050611d39565b5060038301805463ffff0000191690555b50505050565b600080611f1d60075430631517a82660e01b612e13565b9050600085604051602001611f329190614424565b6040516020818303038152906040529050600081604051602001611f5691906144b5565b604051602081830303815290604052905060008187604051602001611f7c9291906144e2565b60408051601f19818403018152828201909152600382526219d95d60ea1b60208301529150611fad90859083612e38565b6120056040518060400160405280600c81526020016b1c185d1a17dd1bdad95b925960a21b815250604051806040016040528060078152602001661d1bdad95b925960ca1b81525086612e389092919063ffffffff16565b6120596040518060400160405280600a8152602001691c185d1a17dcdc19595960b21b815250604051806040016040528060058152602001641cdc19595960da1b81525086612e389092919063ffffffff16565b6120ad6040518060400160405280600a815260200169706174685f72616e676560b01b8152506040518060400160405280600581526020016472616e676560d81b81525086612e389092919063ffffffff16565b6120b984600854612e5b565b6000818152600b6020526040902080546001600160a01b0389166001600160a01b03199091161790559450505050509392505050565b600a6020526000908152604090208054819061210a90613e2c565b80601f016020809104026020016040519081016040528092919081815260200182805461213690613e2c565b80156121835780601f1061215857610100808354040283529160200191612183565b820191906000526020600020905b81548152906001019060200180831161216657829003601f168201915b5050506001909301549192505060ff8082169161010090041683565b6121a7612be9565b6000818152600960205260409020600381015460ff1615156001146121de5760405162461bcd60e51b81526004016104bc90613f6d565b506000908152600960205260409020600301805460ff19169055565b604080518082019091526000808252602082015260ff80831660009081526009602052604090206003810154909116151560011461224a5760405162461bcd60e51b81526004016104bc90613f6d565b604051630d42527560e11b81526001600160a01b037f00000000000000000000000000000000000000000000000000000000000000001690631a84a4ea9061229a90899089908990600401614511565b6040805180830381865afa1580156122b6573d6000803e3d6000fd5b505050506040513d601f19601f820116820180604052508101906122da9190614373565b9150505b949350505050565b60ff808216600090815260096020526040902060038101549091600162010000909204161515146123635760405162461bcd60e51b815260206004820152602160248201527f436f6d6d6974206d6f76657320686173206e6f742073746172746564207965746044820152602160f81b60648201526084016104bc565b3360009081526004909101602052604090209190915550565b6123846137ac565b60ff808316600090815260096020526040902060038101549091610100909104161580156123bb5750600381015460ff1615156001145b6123d75760405162461bcd60e51b81526004016104bc90613f6d565b33600090815260018201602052604090205460ff16158015906124125750336000908152600182016020526040902054610100900460ff1615155b1561245d57336000818152600183016020526040908190205490516308538db760e41b8152600481019290925260ff80821660248401526101009091041660448201526064016104bc565b604080518082019091526000808252602082015260005b6040516342c39d9160e01b815260ff861660048201527f00000000000000000000000000000000000000000000000000000000000000006001600160a01b0316906342c39d919060240160408051808303816000875af11580156124dc573d6000803e3d6000fd5b505050506040513d601f19601f820116820180604052508101906125009190614373565b9150612546604051806040016040528060138152602001724e657720726e6420706169722025732c20257360681b815250836000015160ff16846020015160ff16612e75565b60005b600284015460ff82161015612693576125c76040518060400160405280601781526020017f696e206c6f6f702025732c20616464726573733a2025730000000000000000008152508260ff16866002018460ff16815481106125ad576125ad6140d4565b6000918252602090912001546001600160a01b0316612ebc565b826000015160ff16846001016000866002018460ff16815481106125ed576125ed6140d4565b60009182526020808320909101546001600160a01b0316835282019290925260400190205460ff161480156126735750826020015160ff16846001016000866002018460ff1681548110612643576126436140d4565b60009182526020808320909101546001600160a01b0316835282019290925260400190205460ff61010090910416145b156126815760019150612693565b8061268b816141f6565b915050612549565b5080612474576040805160e08101825283815260006020808301828152838501839052606084018390526080840183905260a084018390523360c0850181905283526001888101835294909220835180518254919093015160ff9081166101000261ffff19909216931692909217919091178155905181840180549394859460ff19169083600681111561272957612729613d19565b0217905550604082015160018201805460ff9092166101000261ff001983168117825560608501519262ff00001990911662ffff0019909116176201000083600681111561277957612779613d19565b021790555060808201516001918201805460a085015160c0909501516001600160a01b0316650100000000000265010000000000600160c81b03199515156401000000000264ff000000001960ff9586166301000000021664ffff00000019909316929092179190911794909416939093179092556002860180549182018155600090815260209081902090910180546001600160a01b031916331790556040805180820190915260128152714e657720736869702061742025732c20257360701b818301528351805192015161285593919282169116612e75565b60405133907ff2ae205522024c14e5a7a26ba6d1fb1252dc8e161b5abc79ed5795fd3c5b926190600090a295945050505050565b612891612be9565b6001600160a01b0381166128f65760405162461bcd60e51b815260206004820152602660248201527f4f776e61626c653a206e6577206f776e657220697320746865207a65726f206160448201526564647265737360d01b60648201526084016104bc565b6128ff81612c43565b50565b60ff8082166000908152600960205260409020600381015460609216151560011461293f5760405162461bcd60e51b81526004016104bc90613f6d565b60028101546000906001600160401b0381111561295e5761295e613864565b60405190808252806020026020018201604052801561299757816020015b6129846137ac565b81526020019060019003908161297c5790505b5090506129cb6040518060400160405280601081526020016f52657472696576696e6720736869707360801b815250612f03565b60005b6002830154811015612b30578260010160008460020183815481106129f5576129f56140d4565b60009182526020808320909101546001600160a01b03168352828101939093526040918201902081516101208101909252805460ff80821660e085019081526101009283900482169285019290925290835260018201549293919291840191166006811115612a6657612a66613d19565b6006811115612a7757612a77613d19565b8152600182015460ff61010082048116602084015260409092019162010000909104166006811115612aab57612aab613d19565b6006811115612abc57612abc613d19565b81526001919091015460ff6301000000820481166020840152640100000000820416151560408301526001600160a01b0365010000000000909104166060909101528251839083908110612b1257612b126140d4565b60200260200101819052508080612b2890614295565b9150506129ce565b509392505050565b60ff808216600090815260096020526040902060038101549091161515600114612b745760405162461bcd60e51b81526004016104bc90613f6d565b6000805b600283015460ff82161015612bdd57846001600160a01b0316836002018260ff1681548110612ba957612ba96140d4565b6000918252602090912001546001600160a01b031603612bcb57809150612bdd565b80612bd5816141f6565b915050612b78565b50611f00848285612c95565b6006546001600160a01b03163314610f355760405162461bcd60e51b815260206004820181905260248201527f4f776e61626c653a2063616c6c6572206973206e6f7420746865206f776e657260448201526064016104bc565b600680546001600160a01b038381166001600160a01b0319831681179093556040519116919082907f8be0079c531659141344cd1fd0a4f28419497f9722a3daafe3b4186f6b6457e090600090a35050565b60ff808216600090815260096020526040902060028101549091841610612cfe5760405162461bcd60e51b815260206004820152601860248201527f496e6465782076616c7565206f7574206f662072616e6765000000000000000060448201526064016104bc565b600381015460ff161515600114612d275760405162461bcd60e51b81526004016104bc90613f6d565b6040516001600160a01b038516907fce0e3c7f8595684f9560df3c82cb81a6c5a649fcf1bdc96b2dc8b7bf228d650090600090a26001600160a01b0384166000908152600180830160205260408220805461ffff191681550180546001600160c81b031916905560028201805460ff8616908110612da757612da76140d4565b9060005260206000200160006101000a8154816001600160a01b0302191690836001600160a01b0316021790555050505050565b604051606082811b6bffffffffffffffffffffffff1916602083015290610c6590603401604051602081830303815290604052612f46565b612e1b6137f7565b612e236137f7565b612e2f81868686613156565b95945050505050565b6080830151612e479083613193565b6080830151612e569082613193565b505050565b600354600090610853906001600160a01b031684846131aa565b612e56838383604051602401612e8d9392919061452f565b60408051601f198184030181529190526020810180516001600160e01b031663ca47c4eb60e01b17905261323d565b612e56838383604051602401612ed493929190614554565b60408051601f198184030181529190526020810180516001600160e01b031663038fd88960e31b17905261323d565b6128ff81604051602401612f179190614411565b60408051601f198184030181529190526020810180516001600160e01b031663104c13eb60e21b17905261323d565b60408051808201909152601081526f181899199a1a9b1b9c1cb0b131b232b360811b6020820152815160609190600090612f81906002614587565b612f8c9060026141e3565b6001600160401b03811115612fa357612fa3613864565b6040519080825280601f01601f191660200182016040528015612fcd576020820181803683370190505b509050600360fc1b81600081518110612fe857612fe86140d4565b60200101906001600160f81b031916908160001a905350600f60fb1b81600181518110613017576130176140d4565b60200101906001600160f81b031916908160001a90535060005b8451811015612b305782600486838151811061304f5761304f6140d4565b016020015182516001600160f81b031990911690911c60f81c908110613077576130776140d4565b01602001516001600160f81b03191682613092836002614587565b61309d9060026141e3565b815181106130ad576130ad6140d4565b60200101906001600160f81b031916908160001a905350828582815181106130d7576130d76140d4565b602091010151815160f89190911c600f169081106130f7576130f76140d4565b01602001516001600160f81b03191682613112836002614587565b61311d9060036141e3565b8151811061312d5761312d6140d4565b60200101906001600160f81b031916908160001a9053508061314e81614295565b915050613031565b61315e6137f7565b61316e856080015161010061325e565b50509183526001600160a01b031660208301526001600160e01b031916604082015290565b6131a082600383516132c3565b612e5682826133ca565b6004546000906131bb8160016141e3565b600455835160408086015160808701515191516000936320214ca360e11b936131f39386938493923092918a9160019160240161459e565b60408051601f198184030181529190526020810180516001600160e01b03166001600160e01b0319909316929092179091529050613233868386846133f1565b9695505050505050565b80516a636f6e736f6c652e6c6f67602083016000808483855afa5050505050565b60408051808201909152606081526000602082015261327e602083614606565b156132a65761328e602083614606565b61329990602061438f565b6132a390836141e3565b91505b506020828101829052604080518085526000815290920101905290565b6017816001600160401b0316116132e757611f008360e0600585901b16831761354f565b60ff816001600160401b0316116133235761330d836018611fe0600586901b161761354f565b50611f00836001600160401b0383166001613574565b61ffff816001600160401b0316116133605761334a836019611fe0600586901b161761354f565b50611f00836001600160401b0383166002613574565b63ffffffff816001600160401b03161161339f5761338983601a611fe0600586901b161761354f565b50611f00836001600160401b0383166004613574565b6133b483601b611fe0600586901b161761354f565b50611f00836001600160401b0383166008613574565b6040805180820190915260608152600060208201526108538384600001515184855161359a565b6040516bffffffffffffffffffffffff193060601b1660208201526034810184905260009060540160408051808303601f1901815282825280516020918201206000818152600590925291812080546001600160a01b0319166001600160a01b038a1617905590925082917fb5e6e01e79f91267dc17b4e6314d5d4d03593d2ceee0fbb452b750bd70ea5af99190a2600254604051630200057560e51b81526001600160a01b0390911690634000aea0906134b490889087908790600401614628565b6020604051808303816000875af11580156134d3573d6000803e3d6000fd5b505050506040513d601f19601f820116820180604052508101906134f7919061464f565b6122de5760405162461bcd60e51b815260206004820152602360248201527f756e61626c6520746f207472616e73666572416e6443616c6c20746f206f7261604482015262636c6560e81b60648201526084016104bc565b6040805180820190915260608152600060208201526108538384600001515184613684565b6040805180820190915260608152600060208201526122de8485600001515185856136df565b60408051808201909152606081526000602082015282518211156135bd57600080fd5b60208501516135cc83866141e3565b11156135ff576135ff856135ef876020015187866135ea91906141e3565b613760565b6135fa906002614587565b613777565b60008086518051876020830101935080888701111561361e5787860182525b505050602084015b6020841061365e578051825261363d6020836141e3565b915061364a6020826141e3565b905061365760208561438f565b9350613626565b51815160001960208690036101000a019081169019919091161790525083949350505050565b604080518082019091526060815260006020820152836020015183106136b9576136b984856020015160026135fa9190614587565b83518051602085830101848153508085036136d5576001810182525b5093949350505050565b604080518082019091526060815260006020820152602085015161370385846141e3565b111561371757613717856135ef86856141e3565b600060016137278461010061474e565b613731919061438f565b90508551838682010185831982511617815250805184870111156137555783860181525b509495945050505050565b600081831115613771575081610c65565b50919050565b8151613783838361325e565b50611f0083826133ca565b50805460008255906000526020600020908101906128ff9190613832565b6040805161012081018252600060e082018181526101008301829052825260208201819052918101829052606081018290526080810182905260a0810182905260c081019190915290565b6040805160a0810182526000808252602080830182905282840182905260608084018390528451808601909552845283015290608082015290565b5b808211156138475760008155600101613833565b5090565b60006020828403121561385d57600080fd5b5035919050565b634e487b7160e01b600052604160045260246000fd5b604080519081016001600160401b038111828210171561389c5761389c613864565b60405290565b604051601f8201601f191681016001600160401b03811182821017156138ca576138ca613864565b604052919050565b600082601f8301126138e357600080fd5b81356001600160401b038111156138fc576138fc613864565b61390f601f8201601f19166020016138a2565b81815284602083860101111561392457600080fd5b816020850160208301376000918101602001919091529392505050565b60ff811681146128ff57600080fd5b6000806000806080858703121561396657600080fd5b8435935060208501356001600160401b0381111561398357600080fd5b61398f878288016138d2565b93505060408501356139a081613941565b915060608501356139b081613941565b939692955090935050565b6000604082840312156139cd57600080fd5b6139d561387a565b905081356139e281613941565b815260208201356139f281613941565b602082015292915050565b803560078110613a0c57600080fd5b919050565b60008060008060a08587031215613a2757600080fd5b613a3186866139bb565b9350613a3f604086016139fd565b92506060850135613a4f81613941565b915060808501356139b081613941565b600060208284031215613a7157600080fd5b813561085381613941565b602080825282518282018190526000919060409081850190868401855b82811015613acc57613abc848351805160ff908116835260209182015116910152565b9284019290850190600101613a99565b5091979650505050505050565b60008060608385031215613aec57600080fd5b613af684846139bb565b91506040830135613b0681613941565b809150509250929050565b60008060408385031215613b2457600080fd5b8235613b2f81613941565b91506020830135613b0681613941565b60008060008060008060c08789031215613b5857600080fd5b613b61876139fd565b95506020870135613b7181613941565b9450613b7f604088016139fd565b93506060870135613b8f81613941565b92506080870135915060a0870135613ba681613941565b809150509295509295509295565b80356001600160a01b0381168114613a0c57600080fd5b600080600060608486031215613be057600080fd5b83356001600160401b0380821115613bf757600080fd5b613c03878388016138d2565b94506020860135915080821115613c1957600080fd5b50613c26868287016138d2565b925050613c3560408501613bb4565b90509250925092565b600060208284031215613c5057600080fd5b61085382613bb4565b60005b83811015613c74578181015183820152602001613c5c565b50506000910152565b60008151808452613c95816020860160208601613c59565b601f01601f19169290920160200192915050565b606081526000613cbc6060830186613c7d565b60ff94851660208401529290931660409091015292915050565b60408101610c658284805160ff908116835260209182015116910152565b60008060408385031215613d0757600080fd5b823591506020830135613b0681613941565b634e487b7160e01b600052602160045260246000fd5b60078110613d4d57634e487b7160e01b600052602160045260246000fd5b9052565b613d6c828251805160ff908116835260209182015116910152565b6020810151613d7e6040840182613d2f565b5060ff60408201511660608301526060810151613d9e6080840182613d2f565b5060ff60808201511660a083015260a0810151151560c083015260018060a01b0360c08201511660e08301525050565b6101008101610c658284613d51565b6020808252825182820181905260009190848201906040850190845b81811015613e2057613e0c838551613d51565b928401926101009290920191600101613df9565b50909695505050505050565b600181811c90821680613e4057607f821691505b60208210810361377157634e487b7160e01b600052602260045260246000fd5b601f821115612e5657600081815260208120601f850160051c81016020861015613e875750805b601f850160051c820191505b81811015613ea657828155600101613e93565b505050505050565b81516001600160401b03811115613ec757613ec7613864565b613edb81613ed58454613e2c565b84613e60565b602080601f831160018114613f105760008415613ef85750858301515b600019600386901b1c1916600185901b178555613ea6565b600085815260208120601f198616915b82811015613f3f57888601518255948401946001909101908401613f20565b5085821015613f5d5787850151600019600388901b60f8161c191681555b5050505050600190811b01905550565b60208082526019908201527f47616d6520686173206e6f742073746172746564207965742100000000000000604082015260600190565b60a08101613fc28287805160ff908116835260209182015116910152565b613fcf6040830186613d2f565b60ff8416606083015260ff8316608083015295945050505050565b80518015158114613a0c57600080fd5b60006040828403121561400c57600080fd5b61401461387a565b9050815161402181613941565b815260208201516139f281613941565b6000806060838503121561404457600080fd5b61404d83613fea565b915061405c8460208501613ffa565b90509250929050565b60006020828403121561407757600080fd5b815161085381613941565b634e487b7160e01b600052601160045260246000fd5b60ff8181168382160190811115610c6557610c65614082565b60ff81811683821602908116908181146140cd576140cd614082565b5092915050565b634e487b7160e01b600052603260045260246000fd5b60ff8281168282160390811115610c6557610c65614082565b606081016141218285805160ff908116835260209182015116910152565b60ff831660408301529392505050565b6000602080838503121561414457600080fd5b82516001600160401b038082111561415b57600080fd5b818501915085601f83011261416f57600080fd5b81518181111561418157614181613864565b61418f848260051b016138a2565b818152848101925060069190911b8301840190878211156141af57600080fd5b928401925b818410156141d8576141c68885613ffa565b835284830192506040840193506141b4565b979650505050505050565b80820180821115610c6557610c65614082565b600060ff821660ff810361420c5761420c614082565b60010192915050565b60006080828403121561422757600080fd5b604051608081018181106001600160401b038211171561424957614249613864565b604052825161425781613941565b8152602083015161426781613941565b602082015261427860408401613fea565b604082015261428960608401613fea565b60608201529392505050565b6000600182016142a7576142a7614082565b5060010190565b600781106142cc57634e487b7160e01b600052602160045260246000fd5b60f81b9052565b6142dd81876142ae565b600060ff60f81b808760f81b1660018401526142fc60028401876142ae565b60f89490941b90931660038201526004810191909152602401949350505050565b845460ff808216835260089190911c16602082015260a08101613fc2565b835460ff808216835260089190911c166020820152608081015b6143626040830185613d2f565b60ff83166060830152949350505050565b60006040828403121561438557600080fd5b6108538383613ffa565b81810381811115610c6557610c65614082565b634e487b7160e01b600052603160045260246000fd5b600060ff8216806143cb576143cb614082565b6000190192915050565b7302a34329023b0b6b2903bb4b73732b91034b99d160651b815260008251614404816014850160208701613c59565b9190910160140192915050565b6020815260006108536020830184613c7d565b7f68747470733a2f2f6d35396a7463697172652e657865637574652d6170692e7581527f732d656173742d312e616d617a6f6e6177732e636f6d2f67657447656e65736960208201527f734e667473666f72426174746c65526f79616c652f3f746f6b656e49643d00006040820152600082516144a881605e850160208701613c59565b91909101605e0192915050565b600082516144c7818460208701613c59565b6826616464726573733d60b81b920191825250600901919050565b600083516144f4818460208801613c59565b835190830190614508818360208801613c59565b01949350505050565b608081016143558286805160ff908116835260209182015116910152565b6060815260006145426060830186613c7d565b60208301949094525060400152919050565b6060815260006145676060830186613c7d565b6020830194909452506001600160a01b0391909116604090910152919050565b8082028115828204841417610c6557610c65614082565b6001600160a01b0389811682526020820189905260408201889052861660608201526001600160e01b03198516608082015260a0810184905260c0810183905261010060e082018190526000906145f783820185613c7d565b9b9a5050505050505050505050565b60008261462357634e487b7160e01b600052601260045260246000fd5b500690565b60018060a01b0384168152826020820152606060408201526000612e2f6060830184613c7d565b60006020828403121561466157600080fd5b61085382613fea565b600181815b808511156146a557816000190482111561468b5761468b614082565b8085161561469857918102915b93841c939080029061466f565b509250929050565b6000826146bc57506001610c65565b816146c957506000610c65565b81600181146146df57600281146146e957614705565b6001915050610c65565b60ff8411156146fa576146fa614082565b50506001821b610c65565b5060208310610133831016604e8410600b8410161715614728575081810a610c65565b614732838361466a565b806000190482111561474657614746614082565b029392505050565b600061085383836146ad56fea26469706673582212200bd8d178f8a07e41f33ad479eee119772396d769f2fd015b7273b343bfb48a1464736f6c63430008120033",
  "linkReferences": {},
  "deployedLinkReferences": {}
}