{
  "_format": "hh-sol-artifact-1",
  "contractName": "Game",
  "sourceName": "contracts/Game.sol",
  "abi": [
    {
      "inputs": [
        {
          "internalType": "address",
          "name": "_mapAddress",
          "type": "address"
        }
      ],
      "stateMutability": "nonpayable",
      "type": "constructor"
    },
    {
      "anonymous": false,
      "inputs": [
        {
          "indexed": true,
          "internalType": "address",
          "name": "player",
          "type": "address"
        }
      ],
      "name": "PlayerAdded",
      "type": "event"
    },
    {
      "anonymous": false,
      "inputs": [
        {
          "indexed": true,
          "internalType": "address",
          "name": "player",
          "type": "address"
        }
      ],
      "name": "PlayerDefeated",
      "type": "event"
    },
    {
      "inputs": [],
      "name": "addShip",
      "outputs": [
        {
          "components": [
            {
              "components": [
                {
                  "internalType": "uint8",
                  "name": "q",
                  "type": "uint8"
                },
                {
                  "internalType": "uint8",
                  "name": "r",
                  "type": "uint8"
                }
              ],
              "internalType": "struct SharedStructs.Coordinate",
              "name": "coordinate",
              "type": "tuple"
            },
            {
              "internalType": "enum SharedStructs.Directions",
              "name": "travelDirection",
              "type": "uint8"
            },
            {
              "internalType": "uint8",
              "name": "travelDistane",
              "type": "uint8"
            },
            {
              "internalType": "enum SharedStructs.Directions",
              "name": "shotDirection",
              "type": "uint8"
            },
            {
              "internalType": "uint8",
              "name": "shotDistance",
              "type": "uint8"
            },
            {
              "internalType": "bool",
              "name": "publishedMove",
              "type": "bool"
            },
            {
              "internalType": "address",
              "name": "captain",
              "type": "address"
            }
          ],
          "internalType": "struct Game.Ship",
          "name": "",
          "type": "tuple"
        }
      ],
      "stateMutability": "nonpayable",
      "type": "function"
    },
    {
      "inputs": [],
      "name": "gameInProgress",
      "outputs": [
        {
          "internalType": "bool",
          "name": "",
          "type": "bool"
        }
      ],
      "stateMutability": "view",
      "type": "function"
    },
    {
      "inputs": [
        {
          "components": [
            {
              "internalType": "uint8",
              "name": "q",
              "type": "uint8"
            },
            {
              "internalType": "uint8",
              "name": "r",
              "type": "uint8"
            }
          ],
          "internalType": "struct SharedStructs.Coordinate",
          "name": "_coord",
          "type": "tuple"
        }
      ],
      "name": "getCell",
      "outputs": [
        {
          "components": [
            {
              "internalType": "uint8",
              "name": "q",
              "type": "uint8"
            },
            {
              "internalType": "uint8",
              "name": "r",
              "type": "uint8"
            },
            {
              "internalType": "bool",
              "name": "island",
              "type": "bool"
            },
            {
              "internalType": "bool",
              "name": "exists",
              "type": "bool"
            }
          ],
          "internalType": "struct SharedStructs.Cell",
          "name": "",
          "type": "tuple"
        }
      ],
      "stateMutability": "view",
      "type": "function"
    },
    {
      "inputs": [],
      "name": "getCells",
      "outputs": [
        {
          "components": [
            {
              "internalType": "uint8",
              "name": "q",
              "type": "uint8"
            },
            {
              "internalType": "uint8",
              "name": "r",
              "type": "uint8"
            }
          ],
          "internalType": "struct SharedStructs.Coordinate[]",
          "name": "",
          "type": "tuple[]"
        }
      ],
      "stateMutability": "view",
      "type": "function"
    },
    {
      "inputs": [],
      "name": "getRadius",
      "outputs": [
        {
          "internalType": "uint8",
          "name": "",
          "type": "uint8"
        }
      ],
      "stateMutability": "view",
      "type": "function"
    },
    {
      "inputs": [],
      "name": "getShips",
      "outputs": [
        {
          "components": [
            {
              "components": [
                {
                  "internalType": "uint8",
                  "name": "q",
                  "type": "uint8"
                },
                {
                  "internalType": "uint8",
                  "name": "r",
                  "type": "uint8"
                }
              ],
              "internalType": "struct SharedStructs.Coordinate",
              "name": "coordinate",
              "type": "tuple"
            },
            {
              "internalType": "enum SharedStructs.Directions",
              "name": "travelDirection",
              "type": "uint8"
            },
            {
              "internalType": "uint8",
              "name": "travelDistane",
              "type": "uint8"
            },
            {
              "internalType": "enum SharedStructs.Directions",
              "name": "shotDirection",
              "type": "uint8"
            },
            {
              "internalType": "uint8",
              "name": "shotDistance",
              "type": "uint8"
            },
            {
              "internalType": "bool",
              "name": "publishedMove",
              "type": "bool"
            },
            {
              "internalType": "address",
              "name": "captain",
              "type": "address"
            }
          ],
          "internalType": "struct Game.Ship[]",
          "name": "",
          "type": "tuple[]"
        }
      ],
      "stateMutability": "view",
      "type": "function"
    },
    {
      "inputs": [
        {
          "internalType": "uint8",
          "name": "_radius",
          "type": "uint8"
        }
      ],
      "name": "initGame",
      "outputs": [],
      "stateMutability": "nonpayable",
      "type": "function"
    },
    {
      "inputs": [
        {
          "internalType": "uint256",
          "name": "",
          "type": "uint256"
        }
      ],
      "name": "players",
      "outputs": [
        {
          "internalType": "address",
          "name": "",
          "type": "address"
        }
      ],
      "stateMutability": "view",
      "type": "function"
    },
    {
      "inputs": [
        {
          "internalType": "enum SharedStructs.Directions",
          "name": "travelDir",
          "type": "uint8"
        },
        {
          "internalType": "uint8",
          "name": "travelDist",
          "type": "uint8"
        },
        {
          "internalType": "enum SharedStructs.Directions",
          "name": "shotDir",
          "type": "uint8"
        },
        {
          "internalType": "uint8",
          "name": "shotDist",
          "type": "uint8"
        }
      ],
      "name": "revealMove",
      "outputs": [],
      "stateMutability": "nonpayable",
      "type": "function"
    },
    {
      "inputs": [],
      "name": "round",
      "outputs": [
        {
          "internalType": "uint256",
          "name": "",
          "type": "uint256"
        }
      ],
      "stateMutability": "view",
      "type": "function"
    },
    {
      "inputs": [
        {
          "internalType": "address",
          "name": "",
          "type": "address"
        }
      ],
      "name": "ships",
      "outputs": [
        {
          "components": [
            {
              "internalType": "uint8",
              "name": "q",
              "type": "uint8"
            },
            {
              "internalType": "uint8",
              "name": "r",
              "type": "uint8"
            }
          ],
          "internalType": "struct SharedStructs.Coordinate",
          "name": "coordinate",
          "type": "tuple"
        },
        {
          "internalType": "enum SharedStructs.Directions",
          "name": "travelDirection",
          "type": "uint8"
        },
        {
          "internalType": "uint8",
          "name": "travelDistane",
          "type": "uint8"
        },
        {
          "internalType": "enum SharedStructs.Directions",
          "name": "shotDirection",
          "type": "uint8"
        },
        {
          "internalType": "uint8",
          "name": "shotDistance",
          "type": "uint8"
        },
        {
          "internalType": "bool",
          "name": "publishedMove",
          "type": "bool"
        },
        {
          "internalType": "address",
          "name": "captain",
          "type": "address"
        }
      ],
      "stateMutability": "view",
      "type": "function"
    },
    {
      "inputs": [],
      "name": "updateWorld",
      "outputs": [],
      "stateMutability": "nonpayable",
      "type": "function"
    }
  ],
  "bytecode": "0x60a06040523480156200001157600080fd5b506040516200297d3803806200297d8339818101604052810190620000379190620000dc565b8073ffffffffffffffffffffffffffffffffffffffff1660808173ffffffffffffffffffffffffffffffffffffffff1681525050506200010e565b600080fd5b600073ffffffffffffffffffffffffffffffffffffffff82169050919050565b6000620000a48262000077565b9050919050565b620000b68162000097565b8114620000c257600080fd5b50565b600081519050620000d681620000ab565b92915050565b600060208284031215620000f557620000f462000072565b5b60006200010584828501620000c5565b91505092915050565b6080516128226200015b60003960008181610247015281816102d20152818161037a015281816105210152818161067301528181610aaf01528181610b56015261132301526128226000f3fe608060405234801561001057600080fd5b50600436106100b45760003560e01c80636738f234116100715780636738f2341461019557806396ace1bb146101b3578063bd85f861146101d1578063e474af2c146101ef578063eaea26af1461020b578063f71d96cb14610215576100b4565b80630452aa75146100b9578063146ca531146100d5578063374aed97146100f35780633ac245d9146101115780633fb64e751461014157806348ccd3d71461015f575b600080fd5b6100d360048036038101906100ce9190611a0f565b610245565b005b6100dd61036e565b6040516100ea9190611a55565b60405180910390f35b6100fb610374565b6040516101089190611b5d565b60405180910390f35b61012b60048036038101906101269190611c60565b610669565b6040516101389190611cfd565b60405180910390f35b610149610712565b6040516101569190611d27565b60405180910390f35b61017960048036038101906101749190611da0565b610725565b60405161018c9796959493929190611e91565b60405180910390f35b61019d61080c565b6040516101aa919061205e565b60405180910390f35b6101bb610aab565b6040516101c89190612080565b60405180910390f35b6101d9610b41565b6040516101e6919061212a565b60405180910390f35b6102096004803603810190610204919061216b565b61102e565b005b610213611218565b005b61022f600480360381019061022a91906121fe565b611725565b60405161023c919061222b565b60405180910390f35b7f000000000000000000000000000000000000000000000000000000000000000073ffffffffffffffffffffffffffffffffffffffff1663669636e2826040518263ffffffff1660e01b815260040161029e9190612080565b600060405180830381600087803b1580156102b857600080fd5b505af11580156102cc573d6000803e3d6000fd5b505050507f000000000000000000000000000000000000000000000000000000000000000073ffffffffffffffffffffffffffffffffffffffff1663949996886040518163ffffffff1660e01b8152600401600060405180830381600087803b15801561033857600080fd5b505af115801561034c573d6000803e3d6000fd5b505050506001600360006101000a81548160ff02191690831515021790555050565b60005481565b606060007f000000000000000000000000000000000000000000000000000000000000000073ffffffffffffffffffffffffffffffffffffffff1663217f43536040518163ffffffff1660e01b8152600401602060405180830381865afa1580156103e3573d6000803e3d6000fd5b505050506040513d601f19601f82011682018060405250810190610407919061225b565b9050600060018261041891906122b7565b82600361042591906122ec565b61042f91906122ec565b600161043b91906122b7565b60ff16905060008167ffffffffffffffff81111561045c5761045b611b95565b5b60405190808252806020026020018201604052801561049557816020015b6104826118eb565b81526020019060019003908161047a5790505b50905060405180604001604052808460ff1681526020018460ff16815250816000815181106104c7576104c6612329565b5b60200260200101819052506000600190505b8360ff168160ff161161065f576000816001836104f69190612358565b600361050291906122ec565b61050c91906122ec565b600161051891906122b7565b60ff16905060007f000000000000000000000000000000000000000000000000000000000000000073ffffffffffffffffffffffffffffffffffffffff166339e5c4a08560008151811061056f5761056e612329565b5b6020026020010151856040518363ffffffff1660e01b815260040161059592919061238d565b600060405180830381865afa1580156105b2573d6000803e3d6000fd5b505050506040513d6000823e3d601f19601f820116820180604052508101906105db91906124d3565b905060005b81518160ff16101561064957818160ff168151811061060257610601612329565b5b6020026020010151858260ff168561061a919061251c565b8151811061062b5761062a612329565b5b6020026020010181905250808061064190612550565b9150506105e0565b505050808061065790612550565b9150506104d9565b5080935050505090565b61067161190b565b7f000000000000000000000000000000000000000000000000000000000000000073ffffffffffffffffffffffffffffffffffffffff16633ac245d9836040518263ffffffff1660e01b81526004016106ca9190612579565b608060405180830381865afa1580156106e7573d6000803e3d6000fd5b505050506040513d601f19601f8201168201806040525081019061070b9190612638565b9050919050565b600360009054906101000a900460ff1681565b6001602052806000526040600020600091509050806000016040518060400160405290816000820160009054906101000a900460ff1660ff1660ff1681526020016000820160019054906101000a900460ff1660ff1660ff1681525050908060010160009054906101000a900460ff16908060010160019054906101000a900460ff16908060010160029054906101000a900460ff16908060010160039054906101000a900460ff16908060010160049054906101000a900460ff16908060010160059054906101000a900473ffffffffffffffffffffffffffffffffffffffff16905087565b6060600060028054905067ffffffffffffffff81111561082f5761082e611b95565b5b60405190808252806020026020018201604052801561086857816020015b61085561193d565b81526020019060019003908161084d5790505b50905060005b600280549050811015610aa357600160006002838154811061089357610892612329565b5b9060005260206000200160009054906101000a900473ffffffffffffffffffffffffffffffffffffffff1673ffffffffffffffffffffffffffffffffffffffff1673ffffffffffffffffffffffffffffffffffffffff1681526020019081526020016000206040518060e0016040529081600082016040518060400160405290816000820160009054906101000a900460ff1660ff1660ff1681526020016000820160019054906101000a900460ff1660ff1660ff168152505081526020016001820160009054906101000a900460ff16600581111561097657610975611dfc565b5b600581111561098857610987611dfc565b5b81526020016001820160019054906101000a900460ff1660ff1660ff1681526020016001820160029054906101000a900460ff1660058111156109ce576109cd611dfc565b5b60058111156109e0576109df611dfc565b5b81526020016001820160039054906101000a900460ff1660ff1660ff1681526020016001820160049054906101000a900460ff161515151581526020016001820160059054906101000a900473ffffffffffffffffffffffffffffffffffffffff1673ffffffffffffffffffffffffffffffffffffffff1673ffffffffffffffffffffffffffffffffffffffff1681525050828281518110610a8557610a84612329565b5b60200260200101819052508080610a9b90612665565b91505061086e565b508091505090565b60007f000000000000000000000000000000000000000000000000000000000000000073ffffffffffffffffffffffffffffffffffffffff1663217f43536040518163ffffffff1660e01b8152600401602060405180830381865afa158015610b18573d6000803e3d6000fd5b505050506040513d601f19601f82011682018060405250810190610b3c919061225b565b905090565b610b4961193d565b610b516118eb565b60005b7f000000000000000000000000000000000000000000000000000000000000000073ffffffffffffffffffffffffffffffffffffffff166336579c5b6040518163ffffffff1660e01b815260040160408051808303816000875af1158015610bc0573d6000803e3d6000fd5b505050506040513d601f19601f82011682018060405250810190610be491906126ad565b915060005b6002805490508160ff161015610d6257826000015160ff166001600060028460ff1681548110610c1c57610c1b612329565b5b9060005260206000200160009054906101000a900473ffffffffffffffffffffffffffffffffffffffff1673ffffffffffffffffffffffffffffffffffffffff1673ffffffffffffffffffffffffffffffffffffffff16815260200190815260200160002060000160000160009054906101000a900460ff1660ff16148015610d415750826020015160ff166001600060028460ff1681548110610cc357610cc2612329565b5b9060005260206000200160009054906101000a900473ffffffffffffffffffffffffffffffffffffffff1673ffffffffffffffffffffffffffffffffffffffff1673ffffffffffffffffffffffffffffffffffffffff16815260200190815260200160002060000160000160019054906101000a900460ff1660ff16145b15610d4f5760019150610d62565b8080610d5a90612550565b915050610be9565b5080610b545760006040518060e0016040528084815260200160006005811115610d8f57610d8e611dfc565b5b8152602001600060ff16815260200160006005811115610db257610db1611dfc565b5b8152602001600060ff1681526020016000151581526020013373ffffffffffffffffffffffffffffffffffffffff16815250905080600160003373ffffffffffffffffffffffffffffffffffffffff1673ffffffffffffffffffffffffffffffffffffffff16815260200190815260200160002060008201518160000160008201518160000160006101000a81548160ff021916908360ff16021790555060208201518160000160016101000a81548160ff021916908360ff160217905550505060208201518160010160006101000a81548160ff02191690836005811115610e9e57610e9d611dfc565b5b021790555060408201518160010160016101000a81548160ff021916908360ff16021790555060608201518160010160026101000a81548160ff02191690836005811115610eef57610eee611dfc565b5b021790555060808201518160010160036101000a81548160ff021916908360ff16021790555060a08201518160010160046101000a81548160ff02191690831515021790555060c08201518160010160056101000a81548173ffffffffffffffffffffffffffffffffffffffff021916908373ffffffffffffffffffffffffffffffffffffffff1602179055509050506002339080600181540180825580915050600190039060005260206000200160009091909190916101000a81548173ffffffffffffffffffffffffffffffffffffffff021916908373ffffffffffffffffffffffffffffffffffffffff1602179055503373ffffffffffffffffffffffffffffffffffffffff167ff2ae205522024c14e5a7a26ba6d1fb1252dc8e161b5abc79ed5795fd3c5b926160405160405180910390a280935050505090565b83600160003373ffffffffffffffffffffffffffffffffffffffff1673ffffffffffffffffffffffffffffffffffffffff16815260200190815260200160002060010160006101000a81548160ff0219169083600581111561109357611092611dfc565b5b021790555082600160003373ffffffffffffffffffffffffffffffffffffffff1673ffffffffffffffffffffffffffffffffffffffff16815260200190815260200160002060010160016101000a81548160ff021916908360ff16021790555081600160003373ffffffffffffffffffffffffffffffffffffffff1673ffffffffffffffffffffffffffffffffffffffff16815260200190815260200160002060010160026101000a81548160ff0219169083600581111561115857611157611dfc565b5b021790555080600160003373ffffffffffffffffffffffffffffffffffffffff1673ffffffffffffffffffffffffffffffffffffffff16815260200190815260200160002060010160036101000a81548160ff021916908360ff16021790555060018060003373ffffffffffffffffffffffffffffffffffffffff1673ffffffffffffffffffffffffffffffffffffffff16815260200190815260200160002060010160046101000a81548160ff02191690831515021790555050505050565b600060028054905067ffffffffffffffff81111561123957611238611b95565b5b60405190808252806020026020018201604052801561127257816020015b61125f6118eb565b8152602001906001900390816112575790505b50905060005b6002805490508160ff161015611721576001600060028360ff16815481106112a3576112a2612329565b5b9060005260206000200160009054906101000a900473ffffffffffffffffffffffffffffffffffffffff1673ffffffffffffffffffffffffffffffffffffffff1673ffffffffffffffffffffffffffffffffffffffff16815260200190815260200160002060010160049054906101000a900460ff161561170d576000807f000000000000000000000000000000000000000000000000000000000000000073ffffffffffffffffffffffffffffffffffffffff1663ecba2dd76001600060028760ff168154811061137857611377612329565b5b9060005260206000200160009054906101000a900473ffffffffffffffffffffffffffffffffffffffff1673ffffffffffffffffffffffffffffffffffffffff1673ffffffffffffffffffffffffffffffffffffffff1681526020019081526020016000206000016001600060028860ff16815481106113fb576113fa612329565b5b9060005260206000200160009054906101000a900473ffffffffffffffffffffffffffffffffffffffff1673ffffffffffffffffffffffffffffffffffffffff1673ffffffffffffffffffffffffffffffffffffffff16815260200190815260200160002060010160009054906101000a900460ff166001600060028960ff168154811061148c5761148b612329565b5b9060005260206000200160009054906101000a900473ffffffffffffffffffffffffffffffffffffffff1673ffffffffffffffffffffffffffffffffffffffff1673ffffffffffffffffffffffffffffffffffffffff16815260200190815260200160002060010160019054906101000a900460ff166040518463ffffffff1660e01b815260040161152093929190612775565b606060405180830381865afa15801561153d573d6000803e3d6000fd5b505050506040513d601f19601f8201168201806040525081019061156191906127ac565b9150915081156115bd576115b660028460ff168154811061158557611584612329565b5b9060005260206000200160009054906101000a900473ffffffffffffffffffffffffffffffffffffffff1684611764565b505061170e565b60005b8360ff168160ff1610156116e757816000015160ff16858260ff16815181106115ec576115eb612329565b5b60200260200101516000015160ff16141580156116345750816020015160ff16858260ff168151811061162257611621612329565b5b60200260200101516020015160ff1614155b156116d45761168460028260ff168154811061165357611652612329565b5b9060005260206000200160009054906101000a900473ffffffffffffffffffffffffffffffffffffffff1682611764565b6116cf60028560ff168154811061169e5761169d612329565b5b9060005260206000200160009054906101000a900473ffffffffffffffffffffffffffffffffffffffff1685611764565b6116e7565b83806116df90612550565b9450506115c0565b5080848460ff16815181106116ff576116fe612329565b5b602002602001018190525050505b5b808061171990612550565b915050611278565b5050565b6002818154811061173557600080fd5b906000526020600020016000915054906101000a900473ffffffffffffffffffffffffffffffffffffffff1681565b8173ffffffffffffffffffffffffffffffffffffffff167fce0e3c7f8595684f9560df3c82cb81a6c5a649fcf1bdc96b2dc8b7bf228d650060405160405180910390a2600160008373ffffffffffffffffffffffffffffffffffffffff1673ffffffffffffffffffffffffffffffffffffffff1681526020019081526020016000206000808201600080820160006101000a81549060ff02191690556000820160016101000a81549060ff021916905550506001820160006101000a81549060ff02191690556001820160016101000a81549060ff02191690556001820160026101000a81549060ff02191690556001820160036101000a81549060ff02191690556001820160046101000a81549060ff02191690556001820160056101000a81549073ffffffffffffffffffffffffffffffffffffffff0219169055505060028160ff16815481106118ba576118b9612329565b5b9060005260206000200160006101000a81549073ffffffffffffffffffffffffffffffffffffffff02191690555050565b6040518060400160405280600060ff168152602001600060ff1681525090565b6040518060800160405280600060ff168152602001600060ff1681526020016000151581526020016000151581525090565b6040518060e001604052806119506118eb565b81526020016000600581111561196957611968611dfc565b5b8152602001600060ff1681526020016000600581111561198c5761198b611dfc565b5b8152602001600060ff168152602001600015158152602001600073ffffffffffffffffffffffffffffffffffffffff1681525090565b6000604051905090565b600080fd5b600080fd5b600060ff82169050919050565b6119ec816119d6565b81146119f757600080fd5b50565b600081359050611a09816119e3565b92915050565b600060208284031215611a2557611a246119cc565b5b6000611a33848285016119fa565b91505092915050565b6000819050919050565b611a4f81611a3c565b82525050565b6000602082019050611a6a6000830184611a46565b92915050565b600081519050919050565b600082825260208201905092915050565b6000819050602082019050919050565b611aa5816119d6565b82525050565b604082016000820151611ac16000850182611a9c565b506020820151611ad46020850182611a9c565b50505050565b6000611ae68383611aab565b60408301905092915050565b6000602082019050919050565b6000611b0a82611a70565b611b148185611a7b565b9350611b1f83611a8c565b8060005b83811015611b50578151611b378882611ada565b9750611b4283611af2565b925050600181019050611b23565b5085935050505092915050565b60006020820190508181036000830152611b778184611aff565b905092915050565b600080fd5b6000601f19601f8301169050919050565b7f4e487b7100000000000000000000000000000000000000000000000000000000600052604160045260246000fd5b611bcd82611b84565b810181811067ffffffffffffffff82111715611bec57611beb611b95565b5b80604052505050565b6000611bff6119c2565b9050611c0b8282611bc4565b919050565b600060408284031215611c2657611c25611b7f565b5b611c306040611bf5565b90506000611c40848285016119fa565b6000830152506020611c54848285016119fa565b60208301525092915050565b600060408284031215611c7657611c756119cc565b5b6000611c8484828501611c10565b91505092915050565b60008115159050919050565b611ca281611c8d565b82525050565b608082016000820151611cbe6000850182611a9c565b506020820151611cd16020850182611a9c565b506040820151611ce46040850182611c99565b506060820151611cf76060850182611c99565b50505050565b6000608082019050611d126000830184611ca8565b92915050565b611d2181611c8d565b82525050565b6000602082019050611d3c6000830184611d18565b92915050565b600073ffffffffffffffffffffffffffffffffffffffff82169050919050565b6000611d6d82611d42565b9050919050565b611d7d81611d62565b8114611d8857600080fd5b50565b600081359050611d9a81611d74565b92915050565b600060208284031215611db657611db56119cc565b5b6000611dc484828501611d8b565b91505092915050565b604082016000820151611de36000850182611a9c565b506020820151611df66020850182611a9c565b50505050565b7f4e487b7100000000000000000000000000000000000000000000000000000000600052602160045260246000fd5b60068110611e3c57611e3b611dfc565b5b50565b6000819050611e4d82611e2b565b919050565b6000611e5d82611e3f565b9050919050565b611e6d81611e52565b82525050565b611e7c816119d6565b82525050565b611e8b81611d62565b82525050565b600061010082019050611ea7600083018a611dcd565b611eb46040830189611e64565b611ec16060830188611e73565b611ece6080830187611e64565b611edb60a0830186611e73565b611ee860c0830185611d18565b611ef560e0830184611e82565b98975050505050505050565b600081519050919050565b600082825260208201905092915050565b6000819050602082019050919050565b611f3681611e52565b82525050565b611f4581611d62565b82525050565b61010082016000820151611f626000850182611aab565b506020820151611f756040850182611f2d565b506040820151611f886060850182611a9c565b506060820151611f9b6080850182611f2d565b506080820151611fae60a0850182611a9c565b5060a0820151611fc160c0850182611c99565b5060c0820151611fd460e0850182611f3c565b50505050565b6000611fe68383611f4b565b6101008301905092915050565b6000602082019050919050565b600061200b82611f01565b6120158185611f0c565b935061202083611f1d565b8060005b838110156120515781516120388882611fda565b975061204383611ff3565b925050600181019050612024565b5085935050505092915050565b600060208201905081810360008301526120788184612000565b905092915050565b60006020820190506120956000830184611e73565b92915050565b610100820160008201516120b26000850182611aab565b5060208201516120c56040850182611f2d565b5060408201516120d86060850182611a9c565b5060608201516120eb6080850182611f2d565b5060808201516120fe60a0850182611a9c565b5060a082015161211160c0850182611c99565b5060c082015161212460e0850182611f3c565b50505050565b600061010082019050612140600083018461209b565b92915050565b6006811061215357600080fd5b50565b60008135905061216581612146565b92915050565b60008060008060808587031215612185576121846119cc565b5b600061219387828801612156565b94505060206121a4878288016119fa565b93505060406121b587828801612156565b92505060606121c6878288016119fa565b91505092959194509250565b6121db81611a3c565b81146121e657600080fd5b50565b6000813590506121f8816121d2565b92915050565b600060208284031215612214576122136119cc565b5b6000612222848285016121e9565b91505092915050565b60006020820190506122406000830184611e82565b92915050565b600081519050612255816119e3565b92915050565b600060208284031215612271576122706119cc565b5b600061227f84828501612246565b91505092915050565b7f4e487b7100000000000000000000000000000000000000000000000000000000600052601160045260246000fd5b60006122c2826119d6565b91506122cd836119d6565b9250828201905060ff8111156122e6576122e5612288565b5b92915050565b60006122f7826119d6565b9150612302836119d6565b9250828202612310816119d6565b915080821461232257612321612288565b5b5092915050565b7f4e487b7100000000000000000000000000000000000000000000000000000000600052603260045260246000fd5b6000612363826119d6565b915061236e836119d6565b9250828203905060ff81111561238757612386612288565b5b92915050565b60006060820190506123a26000830185611dcd565b6123af6040830184611e73565b9392505050565b600080fd5b600067ffffffffffffffff8211156123d6576123d5611b95565b5b602082029050602081019050919050565b600080fd5b60006040828403121561240257612401611b7f565b5b61240c6040611bf5565b9050600061241c84828501612246565b600083015250602061243084828501612246565b60208301525092915050565b600061244f61244a846123bb565b611bf5565b90508083825260208201905060408402830185811115612472576124716123e7565b5b835b8181101561249b578061248788826123ec565b845260208401935050604081019050612474565b5050509392505050565b600082601f8301126124ba576124b96123b6565b5b81516124ca84826020860161243c565b91505092915050565b6000602082840312156124e9576124e86119cc565b5b600082015167ffffffffffffffff811115612507576125066119d1565b5b612513848285016124a5565b91505092915050565b600061252782611a3c565b915061253283611a3c565b925082820190508082111561254a57612549612288565b5b92915050565b600061255b826119d6565b915060ff820361256e5761256d612288565b5b600182019050919050565b600060408201905061258e6000830184611dcd565b92915050565b61259d81611c8d565b81146125a857600080fd5b50565b6000815190506125ba81612594565b92915050565b6000608082840312156125d6576125d5611b7f565b5b6125e06080611bf5565b905060006125f084828501612246565b600083015250602061260484828501612246565b6020830152506040612618848285016125ab565b604083015250606061262c848285016125ab565b60608301525092915050565b60006080828403121561264e5761264d6119cc565b5b600061265c848285016125c0565b91505092915050565b600061267082611a3c565b91507fffffffffffffffffffffffffffffffffffffffffffffffffffffffffffffffff82036126a2576126a1612288565b5b600182019050919050565b6000604082840312156126c3576126c26119cc565b5b60006126d1848285016123ec565b91505092915050565b60008160001c9050919050565b600060ff82169050919050565b6000612707612702836126da565b6126e7565b9050919050565b60008160081c9050919050565b600061272e6127298361270e565b6126e7565b9050919050565b60408201600080830154905061274a816126f4565b6127576000860182611a9c565b506127618161271b565b61276e6020860182611a9c565b5050505050565b600060808201905061278a6000830186612735565b6127976040830185611e64565b6127a46060830184611e73565b949350505050565b600080606083850312156127c3576127c26119cc565b5b60006127d1858286016125ab565b92505060206127e2858286016123ec565b915050925092905056fea26469706673582212203debb45b290452f05a3ddf9fc2a0bca1cd013113671ac87ba9382c14cf8ff08b64736f6c63430008120033",
  "linkReferences": {},
  "deployedLinkReferences": {}
}