{
  "_format": "hh-sol-artifact-1",
  "contractName": "Game",
  "sourceName": "contracts/Game.sol",
  "abi": [
    {
      "inputs": [
        {
          "internalType": "address",
          "name": "_mapAddress",
          "type": "address"
        }
      ],
      "stateMutability": "nonpayable",
      "type": "constructor"
    },
    {
      "inputs": [
        {
          "internalType": "address",
          "name": "player",
          "type": "address"
        },
        {
          "internalType": "uint8",
          "name": "q",
          "type": "uint8"
        },
        {
          "internalType": "uint8",
          "name": "r",
          "type": "uint8"
        }
      ],
      "name": "ShipAlreadyAdded",
      "type": "error"
    },
    {
      "anonymous": false,
      "inputs": [
        {
          "indexed": true,
          "internalType": "bool",
          "name": "gameStatus",
          "type": "bool"
        },
        {
          "indexed": true,
          "internalType": "address",
          "name": "winnerAddress",
          "type": "address"
        }
      ],
      "name": "GameUpdated",
      "type": "event"
    },
    {
      "anonymous": false,
      "inputs": [
        {
          "indexed": false,
          "internalType": "string",
          "name": "gameWinner",
          "type": "string"
        }
      ],
      "name": "GameWinner",
      "type": "event"
    },
    {
      "anonymous": false,
      "inputs": [
        {
          "indexed": true,
          "internalType": "address",
          "name": "player",
          "type": "address"
        }
      ],
      "name": "PlayerAdded",
      "type": "event"
    },
    {
      "anonymous": false,
      "inputs": [
        {
          "indexed": true,
          "internalType": "address",
          "name": "player",
          "type": "address"
        }
      ],
      "name": "PlayerDefeated",
      "type": "event"
    },
    {
      "inputs": [],
      "name": "addShip",
      "outputs": [
        {
          "components": [
            {
              "components": [
                {
                  "internalType": "uint8",
                  "name": "q",
                  "type": "uint8"
                },
                {
                  "internalType": "uint8",
                  "name": "r",
                  "type": "uint8"
                }
              ],
              "internalType": "struct SharedStructs.Coordinate",
              "name": "coordinate",
              "type": "tuple"
            },
            {
              "internalType": "enum SharedStructs.Directions",
              "name": "travelDirection",
              "type": "uint8"
            },
            {
              "internalType": "uint8",
              "name": "travelDistance",
              "type": "uint8"
            },
            {
              "internalType": "enum SharedStructs.Directions",
              "name": "shotDirection",
              "type": "uint8"
            },
            {
              "internalType": "uint8",
              "name": "shotDistance",
              "type": "uint8"
            },
            {
              "internalType": "bool",
              "name": "publishedMove",
              "type": "bool"
            },
            {
              "internalType": "address",
              "name": "captain",
              "type": "address"
            }
          ],
          "internalType": "struct Game.Ship",
          "name": "",
          "type": "tuple"
        }
      ],
      "stateMutability": "nonpayable",
      "type": "function"
    },
    {
      "inputs": [
        {
          "internalType": "bytes32",
          "name": "moveHash",
          "type": "bytes32"
        }
      ],
      "name": "commitMove",
      "outputs": [],
      "stateMutability": "nonpayable",
      "type": "function"
    },
    {
      "inputs": [],
      "name": "gameInProgress",
      "outputs": [
        {
          "internalType": "bool",
          "name": "",
          "type": "bool"
        }
      ],
      "stateMutability": "view",
      "type": "function"
    },
    {
      "inputs": [
        {
          "components": [
            {
              "internalType": "uint8",
              "name": "q",
              "type": "uint8"
            },
            {
              "internalType": "uint8",
              "name": "r",
              "type": "uint8"
            }
          ],
          "internalType": "struct SharedStructs.Coordinate",
          "name": "_coord",
          "type": "tuple"
        }
      ],
      "name": "getCell",
      "outputs": [
        {
          "components": [
            {
              "internalType": "uint8",
              "name": "q",
              "type": "uint8"
            },
            {
              "internalType": "uint8",
              "name": "r",
              "type": "uint8"
            },
            {
              "internalType": "bool",
              "name": "island",
              "type": "bool"
            },
            {
              "internalType": "bool",
              "name": "exists",
              "type": "bool"
            }
          ],
          "internalType": "struct SharedStructs.Cell",
          "name": "",
          "type": "tuple"
        }
      ],
      "stateMutability": "view",
      "type": "function"
    },
    {
      "inputs": [],
      "name": "getCells",
      "outputs": [
        {
          "components": [
            {
              "internalType": "uint8",
              "name": "q",
              "type": "uint8"
            },
            {
              "internalType": "uint8",
              "name": "r",
              "type": "uint8"
            }
          ],
          "internalType": "struct SharedStructs.Coordinate[]",
          "name": "",
          "type": "tuple[]"
        }
      ],
      "stateMutability": "view",
      "type": "function"
    },
    {
      "inputs": [],
      "name": "getRadius",
      "outputs": [
        {
          "internalType": "uint8",
          "name": "",
          "type": "uint8"
        }
      ],
      "stateMutability": "view",
      "type": "function"
    },
    {
      "inputs": [],
      "name": "getShips",
      "outputs": [
        {
          "components": [
            {
              "components": [
                {
                  "internalType": "uint8",
                  "name": "q",
                  "type": "uint8"
                },
                {
                  "internalType": "uint8",
                  "name": "r",
                  "type": "uint8"
                }
              ],
              "internalType": "struct SharedStructs.Coordinate",
              "name": "coordinate",
              "type": "tuple"
            },
            {
              "internalType": "enum SharedStructs.Directions",
              "name": "travelDirection",
              "type": "uint8"
            },
            {
              "internalType": "uint8",
              "name": "travelDistance",
              "type": "uint8"
            },
            {
              "internalType": "enum SharedStructs.Directions",
              "name": "shotDirection",
              "type": "uint8"
            },
            {
              "internalType": "uint8",
              "name": "shotDistance",
              "type": "uint8"
            },
            {
              "internalType": "bool",
              "name": "publishedMove",
              "type": "bool"
            },
            {
              "internalType": "address",
              "name": "captain",
              "type": "address"
            }
          ],
          "internalType": "struct Game.Ship[]",
          "name": "",
          "type": "tuple[]"
        }
      ],
      "stateMutability": "view",
      "type": "function"
    },
    {
      "inputs": [
        {
          "internalType": "uint8",
          "name": "_radius",
          "type": "uint8"
        }
      ],
      "name": "initGame",
      "outputs": [],
      "stateMutability": "nonpayable",
      "type": "function"
    },
    {
      "inputs": [
        {
          "components": [
            {
              "internalType": "uint8",
              "name": "q",
              "type": "uint8"
            },
            {
              "internalType": "uint8",
              "name": "r",
              "type": "uint8"
            }
          ],
          "internalType": "struct SharedStructs.Coordinate",
          "name": "_start",
          "type": "tuple"
        },
        {
          "internalType": "enum SharedStructs.Directions",
          "name": "_dir",
          "type": "uint8"
        },
        {
          "internalType": "uint8",
          "name": "_distance",
          "type": "uint8"
        }
      ],
      "name": "move",
      "outputs": [
        {
          "components": [
            {
              "internalType": "uint8",
              "name": "q",
              "type": "uint8"
            },
            {
              "internalType": "uint8",
              "name": "r",
              "type": "uint8"
            }
          ],
          "internalType": "struct SharedStructs.Coordinate",
          "name": "",
          "type": "tuple"
        }
      ],
      "stateMutability": "view",
      "type": "function"
    },
    {
      "inputs": [
        {
          "internalType": "address",
          "name": "",
          "type": "address"
        }
      ],
      "name": "moveHashes",
      "outputs": [
        {
          "internalType": "bytes32",
          "name": "",
          "type": "bytes32"
        }
      ],
      "stateMutability": "view",
      "type": "function"
    },
    {
      "inputs": [
        {
          "internalType": "uint256",
          "name": "",
          "type": "uint256"
        }
      ],
      "name": "players",
      "outputs": [
        {
          "internalType": "address",
          "name": "",
          "type": "address"
        }
      ],
      "stateMutability": "view",
      "type": "function"
    },
    {
      "inputs": [
        {
          "internalType": "enum SharedStructs.Directions",
          "name": "_travelDirection",
          "type": "uint8"
        },
        {
          "internalType": "uint8",
          "name": "_travelDistance",
          "type": "uint8"
        },
        {
          "internalType": "enum SharedStructs.Directions",
          "name": "_shotDirection",
          "type": "uint8"
        },
        {
          "internalType": "uint8",
          "name": "_shotDistance",
          "type": "uint8"
        },
        {
          "internalType": "uint256",
          "name": "nonce",
          "type": "uint256"
        }
      ],
      "name": "revealMove",
      "outputs": [],
      "stateMutability": "nonpayable",
      "type": "function"
    },
    {
      "inputs": [],
      "name": "round",
      "outputs": [
        {
          "internalType": "uint256",
          "name": "",
          "type": "uint256"
        }
      ],
      "stateMutability": "view",
      "type": "function"
    },
    {
      "inputs": [
        {
          "internalType": "address",
          "name": "",
          "type": "address"
        }
      ],
      "name": "ships",
      "outputs": [
        {
          "components": [
            {
              "internalType": "uint8",
              "name": "q",
              "type": "uint8"
            },
            {
              "internalType": "uint8",
              "name": "r",
              "type": "uint8"
            }
          ],
          "internalType": "struct SharedStructs.Coordinate",
          "name": "coordinate",
          "type": "tuple"
        },
        {
          "internalType": "enum SharedStructs.Directions",
          "name": "travelDirection",
          "type": "uint8"
        },
        {
          "internalType": "uint8",
          "name": "travelDistance",
          "type": "uint8"
        },
        {
          "internalType": "enum SharedStructs.Directions",
          "name": "shotDirection",
          "type": "uint8"
        },
        {
          "internalType": "uint8",
          "name": "shotDistance",
          "type": "uint8"
        },
        {
          "internalType": "bool",
          "name": "publishedMove",
          "type": "bool"
        },
        {
          "internalType": "address",
          "name": "captain",
          "type": "address"
        }
      ],
      "stateMutability": "view",
      "type": "function"
    },
    {
      "inputs": [
        {
          "components": [
            {
              "internalType": "uint8",
              "name": "q",
              "type": "uint8"
            },
            {
              "internalType": "uint8",
              "name": "r",
              "type": "uint8"
            }
          ],
          "internalType": "struct SharedStructs.Coordinate",
          "name": "_startCell",
          "type": "tuple"
        },
        {
          "internalType": "enum SharedStructs.Directions",
          "name": "_direction",
          "type": "uint8"
        },
        {
          "internalType": "uint8",
          "name": "_distance",
          "type": "uint8"
        }
      ],
      "name": "travel",
      "outputs": [],
      "stateMutability": "nonpayable",
      "type": "function"
    },
    {
      "inputs": [],
      "name": "updateWorld",
      "outputs": [],
      "stateMutability": "nonpayable",
      "type": "function"
    }
  ],
  "bytecode": "0x60a06040523480156200001157600080fd5b5060405162004c8638038062004c868339818101604052810190620000379190620000dc565b8073ffffffffffffffffffffffffffffffffffffffff1660808173ffffffffffffffffffffffffffffffffffffffff1681525050506200010e565b600080fd5b600073ffffffffffffffffffffffffffffffffffffffff82169050919050565b6000620000a48262000077565b9050919050565b620000b68162000097565b8114620000c257600080fd5b50565b600081519050620000d681620000ab565b92915050565b600060208284031215620000f557620000f462000072565b5b60006200010584828501620000c5565b91505092915050565b608051614b16620001706000396000818161049701528181610522015281816105ce015281816106780152818161081f0152818161097101528181610deb0152818161120a0152818161191501528181611bb30152612c180152614b166000f3fe608060405234801561001057600080fd5b50600436106101005760003560e01c806396ace1bb11610097578063bd85f86111610066578063bd85f861146102b5578063eaea26af146102d3578063ecba2dd7146102dd578063f71d96cb146102f957610100565b806396ace1bb1461022f578063a9ea37b61461024d578063adf9449e14610269578063b91db8731461028557610100565b80633ac245d9116100d35780633ac245d91461018d5780633fb64e75146101bd57806348ccd3d7146101db5780636738f2341461021157610100565b80630452aa7514610105578063146ca531146101215780631a84a4ea1461013f578063374aed971461016f575b600080fd5b61011f600480360381019061011a9190613704565b610329565b005b6101296105be565b604051610136919061374a565b60405180910390f35b6101596004803603810190610154919061386b565b6105c4565b60405161016691906138fc565b60405180910390f35b610177610672565b60405161018491906139f5565b60405180910390f35b6101a760048036038101906101a29190613a17565b610967565b6040516101b49190613ab4565b60405180910390f35b6101c5610a10565b6040516101d29190613ade565b60405180910390f35b6101f560048036038101906101f09190613b57565b610a23565b6040516102089796959493929190613c19565b60405180910390f35b610219610b0a565b6040516102269190613de6565b60405180910390f35b610237610de7565b6040516102449190613e08565b60405180910390f35b61026760048036038101906102629190613e59565b610e7d565b005b610283600480360381019061027e9190613eb2565b610ec4565b005b61029f600480360381019061029a9190613b57565b611039565b6040516102ac9190613f3c565b60405180910390f35b6102bd611051565b6040516102ca9190613fe6565b60405180910390f35b6102db61180a565b005b6102f760048036038101906102f2919061386b565b612c13565b005b610313600480360381019061030e9190614002565b612d98565b604051610320919061402f565b60405180910390f35b60005b6002805490508110156104865760016000600283815481106103515761035061404a565b5b9060005260206000200160009054906101000a900473ffffffffffffffffffffffffffffffffffffffff1673ffffffffffffffffffffffffffffffffffffffff1673ffffffffffffffffffffffffffffffffffffffff1681526020019081526020016000206000808201600080820160006101000a81549060ff02191690556000820160016101000a81549060ff021916905550506001820160006101000a81549060ff02191690556001820160016101000a81549060ff02191690556001820160026101000a81549060ff02191690556001820160036101000a81549060ff02191690556001820160046101000a81549060ff02191690556001820160056101000a81549073ffffffffffffffffffffffffffffffffffffffff02191690555050808061047e906140a8565b91505061032c565b506002600061049591906135a2565b7f000000000000000000000000000000000000000000000000000000000000000073ffffffffffffffffffffffffffffffffffffffff1663669636e2826040518263ffffffff1660e01b81526004016104ee9190613e08565b600060405180830381600087803b15801561050857600080fd5b505af115801561051c573d6000803e3d6000fd5b505050507f000000000000000000000000000000000000000000000000000000000000000073ffffffffffffffffffffffffffffffffffffffff1663949996886040518163ffffffff1660e01b8152600401600060405180830381600087803b15801561058857600080fd5b505af115801561059c573d6000803e3d6000fd5b505050506001600360006101000a81548160ff02191690831515021790555050565b60005481565b6105cc6135c3565b7f000000000000000000000000000000000000000000000000000000000000000073ffffffffffffffffffffffffffffffffffffffff16631a84a4ea8585856040518463ffffffff1660e01b8152600401610629939291906140f0565b6040805180830381865afa158015610645573d6000803e3d6000fd5b505050506040513d601f19601f82011682018060405250810190610669919061418c565b90509392505050565b606060007f000000000000000000000000000000000000000000000000000000000000000073ffffffffffffffffffffffffffffffffffffffff1663217f43536040518163ffffffff1660e01b8152600401602060405180830381865afa1580156106e1573d6000803e3d6000fd5b505050506040513d601f19601f8201168201806040525081019061070591906141b9565b9050600060018261071691906141e6565b826003610723919061421b565b61072d919061421b565b600161073991906141e6565b60ff16905060008167ffffffffffffffff81111561075a5761075961377b565b5b60405190808252806020026020018201604052801561079357816020015b6107806135c3565b8152602001906001900390816107785790505b50905060405180604001604052808460ff1681526020018460ff16815250816000815181106107c5576107c461404a565b5b60200260200101819052506000600190505b8360ff168160ff161161095d576000816001836107f49190614258565b6003610800919061421b565b61080a919061421b565b600161081691906141e6565b60ff16905060007f000000000000000000000000000000000000000000000000000000000000000073ffffffffffffffffffffffffffffffffffffffff166339e5c4a08560008151811061086d5761086c61404a565b5b6020026020010151856040518363ffffffff1660e01b815260040161089392919061428d565b600060405180830381865afa1580156108b0573d6000803e3d6000fd5b505050506040513d6000823e3d601f19601f820116820180604052508101906108d99190614383565b905060005b81518160ff16101561094757818160ff1681518110610900576108ff61404a565b5b6020026020010151858260ff168561091891906143cc565b815181106109295761092861404a565b5b6020026020010181905250808061093f90614400565b9150506108de565b505050808061095590614400565b9150506107d7565b5080935050505090565b61096f6135e3565b7f000000000000000000000000000000000000000000000000000000000000000073ffffffffffffffffffffffffffffffffffffffff16633ac245d9836040518263ffffffff1660e01b81526004016109c891906138fc565b608060405180830381865afa1580156109e5573d6000803e3d6000fd5b505050506040513d601f19601f82011682018060405250810190610a0991906144cd565b9050919050565b600360009054906101000a900460ff1681565b6001602052806000526040600020600091509050806000016040518060400160405290816000820160009054906101000a900460ff1660ff1660ff1681526020016000820160019054906101000a900460ff1660ff1660ff1681525050908060010160009054906101000a900460ff16908060010160019054906101000a900460ff16908060010160029054906101000a900460ff16908060010160039054906101000a900460ff16908060010160049054906101000a900460ff16908060010160059054906101000a900473ffffffffffffffffffffffffffffffffffffffff16905087565b6060600060028054905067ffffffffffffffff811115610b2d57610b2c61377b565b5b604051908082528060200260200182016040528015610b6657816020015b610b53613615565b815260200190600190039081610b4b5790505b509050610ba76040518060400160405280601081526020017f52657472696576696e6720736869707300000000000000000000000000000000815250612dd7565b60005b600280549050811015610ddf576001600060028381548110610bcf57610bce61404a565b5b9060005260206000200160009054906101000a900473ffffffffffffffffffffffffffffffffffffffff1673ffffffffffffffffffffffffffffffffffffffff1673ffffffffffffffffffffffffffffffffffffffff1681526020019081526020016000206040518060e0016040529081600082016040518060400160405290816000820160009054906101000a900460ff1660ff1660ff1681526020016000820160019054906101000a900460ff1660ff1660ff168152505081526020016001820160009054906101000a900460ff166006811115610cb257610cb1613b84565b5b6006811115610cc457610cc3613b84565b5b81526020016001820160019054906101000a900460ff1660ff1660ff1681526020016001820160029054906101000a900460ff166006811115610d0a57610d09613b84565b5b6006811115610d1c57610d1b613b84565b5b81526020016001820160039054906101000a900460ff1660ff1660ff1681526020016001820160049054906101000a900460ff161515151581526020016001820160059054906101000a900473ffffffffffffffffffffffffffffffffffffffff1673ffffffffffffffffffffffffffffffffffffffff1673ffffffffffffffffffffffffffffffffffffffff1681525050828281518110610dc157610dc061404a565b5b60200260200101819052508080610dd7906140a8565b915050610baa565b508091505090565b60007f000000000000000000000000000000000000000000000000000000000000000073ffffffffffffffffffffffffffffffffffffffff1663217f43536040518163ffffffff1660e01b8152600401602060405180830381865afa158015610e54573d6000803e3d6000fd5b505050506040513d601f19601f82011682018060405250810190610e7891906141b9565b905090565b80600460003373ffffffffffffffffffffffffffffffffffffffff1673ffffffffffffffffffffffffffffffffffffffff1681526020019081526020016000208190555050565b60008585858585604051602001610edf959493929190614568565b60405160208183030381529060405280519060200120905080600460003373ffffffffffffffffffffffffffffffffffffffff1673ffffffffffffffffffffffffffffffffffffffff1681526020019081526020016000205403611031576000600160003373ffffffffffffffffffffffffffffffffffffffff1673ffffffffffffffffffffffffffffffffffffffff1681526020019081526020016000209050868160010160006101000a81548160ff02191690836006811115610fa757610fa6613b84565b5b0217905550858160010160016101000a81548160ff021916908360ff160217905550848160010160026101000a81548160ff02191690836006811115610ff057610fef613b84565b5b0217905550838160010160036101000a81548160ff021916908360ff16021790555060018160010160046101000a81548160ff021916908315150217905550505b505050505050565b60046020528060005260406000206000915090505481565b611059613615565b6000600160003373ffffffffffffffffffffffffffffffffffffffff1673ffffffffffffffffffffffffffffffffffffffff16815260200190815260200160002060000160000160009054906101000a900460ff1660ff1611801561111357506000600160003373ffffffffffffffffffffffffffffffffffffffff1673ffffffffffffffffffffffffffffffffffffffff16815260200190815260200160002060000160000160019054906101000a900460ff1660ff16115b156111fd5733600160003373ffffffffffffffffffffffffffffffffffffffff1673ffffffffffffffffffffffffffffffffffffffff16815260200190815260200160002060000160000160009054906101000a900460ff16600160003373ffffffffffffffffffffffffffffffffffffffff1673ffffffffffffffffffffffffffffffffffffffff16815260200190815260200160002060000160000160019054906101000a900460ff166040517f8538db700000000000000000000000000000000000000000000000000000000081526004016111f4939291906145c7565b60405180910390fd5b6112056135c3565b60005b7f000000000000000000000000000000000000000000000000000000000000000073ffffffffffffffffffffffffffffffffffffffff166336579c5b6040518163ffffffff1660e01b815260040160408051808303816000875af1158015611274573d6000803e3d6000fd5b505050506040513d601f19601f82011682018060405250810190611298919061418c565b91506112e86040518060400160405280601381526020017f4e657720726e6420706169722025732c20257300000000000000000000000000815250836000015160ff16846020015160ff16612e70565b60005b6002805490508160ff1610156114e85761137f6040518060400160405280601781526020017f696e206c6f6f702025732c20616464726573733a2025730000000000000000008152508260ff1660028460ff168154811061134f5761134e61404a565b5b9060005260206000200160009054906101000a900473ffffffffffffffffffffffffffffffffffffffff16612f0f565b826000015160ff166001600060028460ff16815481106113a2576113a161404a565b5b9060005260206000200160009054906101000a900473ffffffffffffffffffffffffffffffffffffffff1673ffffffffffffffffffffffffffffffffffffffff1673ffffffffffffffffffffffffffffffffffffffff16815260200190815260200160002060000160000160009054906101000a900460ff1660ff161480156114c75750826020015160ff166001600060028460ff16815481106114495761144861404a565b5b9060005260206000200160009054906101000a900473ffffffffffffffffffffffffffffffffffffffff1673ffffffffffffffffffffffffffffffffffffffff1673ffffffffffffffffffffffffffffffffffffffff16815260200190815260200160002060000160000160019054906101000a900460ff1660ff16145b156114d557600191506114e8565b80806114e090614400565b9150506112eb565b50806112085760006040518060e001604052808481526020016000600681111561151557611514613b84565b5b8152602001600060ff1681526020016000600681111561153857611537613b84565b5b8152602001600060ff1681526020016000151581526020013373ffffffffffffffffffffffffffffffffffffffff16815250905080600160003373ffffffffffffffffffffffffffffffffffffffff1673ffffffffffffffffffffffffffffffffffffffff16815260200190815260200160002060008201518160000160008201518160000160006101000a81548160ff021916908360ff16021790555060208201518160000160016101000a81548160ff021916908360ff160217905550505060208201518160010160006101000a81548160ff0219169083600681111561162457611623613b84565b5b021790555060408201518160010160016101000a81548160ff021916908360ff16021790555060608201518160010160026101000a81548160ff0219169083600681111561167557611674613b84565b5b021790555060808201518160010160036101000a81548160ff021916908360ff16021790555060a08201518160010160046101000a81548160ff02191690831515021790555060c08201518160010160056101000a81548173ffffffffffffffffffffffffffffffffffffffff021916908373ffffffffffffffffffffffffffffffffffffffff1602179055509050506002339080600181540180825580915050600190039060005260206000200160009091909190916101000a81548173ffffffffffffffffffffffffffffffffffffffff021916908373ffffffffffffffffffffffffffffffffffffffff1602179055506117be6040518060400160405280601281526020017f4e657720736869702061742025732c202573000000000000000000000000000081525082600001516000015160ff1683600001516020015160ff16612e70565b3373ffffffffffffffffffffffffffffffffffffffff167ff2ae205522024c14e5a7a26ba6d1fb1252dc8e161b5abc79ed5795fd3c5b926160405160405180910390a280935050505090565b600060028054905067ffffffffffffffff81111561182b5761182a61377b565b5b60405190808252806020026020018201604052801561186457816020015b6118516135c3565b8152602001906001900390816118495790505b50905060005b6002805490508160ff161015611ef5576001600060028360ff16815481106118955761189461404a565b5b9060005260206000200160009054906101000a900473ffffffffffffffffffffffffffffffffffffffff1673ffffffffffffffffffffffffffffffffffffffff1673ffffffffffffffffffffffffffffffffffffffff16815260200190815260200160002060010160049054906101000a900460ff1615611ee1576000807f000000000000000000000000000000000000000000000000000000000000000073ffffffffffffffffffffffffffffffffffffffff1663ecba2dd76001600060028760ff168154811061196a5761196961404a565b5b9060005260206000200160009054906101000a900473ffffffffffffffffffffffffffffffffffffffff1673ffffffffffffffffffffffffffffffffffffffff1673ffffffffffffffffffffffffffffffffffffffff1681526020019081526020016000206000016001600060028860ff16815481106119ed576119ec61404a565b5b9060005260206000200160009054906101000a900473ffffffffffffffffffffffffffffffffffffffff1673ffffffffffffffffffffffffffffffffffffffff1673ffffffffffffffffffffffffffffffffffffffff16815260200190815260200160002060010160009054906101000a900460ff166001600060028960ff1681548110611a7e57611a7d61404a565b5b9060005260206000200160009054906101000a900473ffffffffffffffffffffffffffffffffffffffff1673ffffffffffffffffffffffffffffffffffffffff1673ffffffffffffffffffffffffffffffffffffffff16815260200190815260200160002060010160019054906101000a900460ff166040518463ffffffff1660e01b8152600401611b1293929190614699565b606060405180830381865afa158015611b2f573d6000803e3d6000fd5b505050506040513d601f19601f82011682018060405250810190611b5391906146d0565b915091508115611baf57611ba860028460ff1681548110611b7757611b7661404a565b5b9060005260206000200160009054906101000a900473ffffffffffffffffffffffffffffffffffffffff1684612fae565b5050611ee2565b60007f000000000000000000000000000000000000000000000000000000000000000073ffffffffffffffffffffffffffffffffffffffff1663d6192ad36001600060028860ff1681548110611c0857611c0761404a565b5b9060005260206000200160009054906101000a900473ffffffffffffffffffffffffffffffffffffffff1673ffffffffffffffffffffffffffffffffffffffff1673ffffffffffffffffffffffffffffffffffffffff1681526020019081526020016000206000016001600060028960ff1681548110611c8b57611c8a61404a565b5b9060005260206000200160009054906101000a900473ffffffffffffffffffffffffffffffffffffffff1673ffffffffffffffffffffffffffffffffffffffff1673ffffffffffffffffffffffffffffffffffffffff16815260200190815260200160002060010160029054906101000a900460ff166001600060028a60ff1681548110611d1c57611d1b61404a565b5b9060005260206000200160009054906101000a900473ffffffffffffffffffffffffffffffffffffffff1673ffffffffffffffffffffffffffffffffffffffff1673ffffffffffffffffffffffffffffffffffffffff16815260200190815260200160002060010160039054906101000a900460ff166040518463ffffffff1660e01b8152600401611db093929190614699565b6040805180830381865afa158015611dcc573d6000803e3d6000fd5b505050506040513d601f19601f82011682018060405250810190611df0919061418c565b905080858560ff1681518110611e0957611e0861404a565b5b6020026020010181905250816001600060028760ff1681548110611e3057611e2f61404a565b5b9060005260206000200160009054906101000a900473ffffffffffffffffffffffffffffffffffffffff1673ffffffffffffffffffffffffffffffffffffffff1673ffffffffffffffffffffffffffffffffffffffff16815260200190815260200160002060000160008201518160000160006101000a81548160ff021916908360ff16021790555060208201518160000160016101000a81548160ff021916908360ff1602179055509050505050505b5b8080611eed90614400565b91505061186a565b506000600280549050111561231d57600060028054905067ffffffffffffffff811115611f2557611f2461377b565b5b604051908082528060200260200182016040528015611f535781602001602082028036833780820191505090505b50905060005b6002805490508160ff161015612284576000600182611f7891906141e6565b90505b6002805490508160ff161015612270578060ff168260ff16141580156120cc57506001600060028460ff1681548110611fb757611fb661404a565b5b9060005260206000200160009054906101000a900473ffffffffffffffffffffffffffffffffffffffff1673ffffffffffffffffffffffffffffffffffffffff1673ffffffffffffffffffffffffffffffffffffffff16815260200190815260200160002060000160000160009054906101000a900460ff1660ff166001600060028460ff168154811061204e5761204d61404a565b5b9060005260206000200160009054906101000a900473ffffffffffffffffffffffffffffffffffffffff1673ffffffffffffffffffffffffffffffffffffffff1673ffffffffffffffffffffffffffffffffffffffff16815260200190815260200160002060000160000160009054906101000a900460ff1660ff16145b801561220357506001600060028460ff16815481106120ee576120ed61404a565b5b9060005260206000200160009054906101000a900473ffffffffffffffffffffffffffffffffffffffff1673ffffffffffffffffffffffffffffffffffffffff1673ffffffffffffffffffffffffffffffffffffffff16815260200190815260200160002060000160000160019054906101000a900460ff1660ff166001600060028460ff16815481106121855761218461404a565b5b9060005260206000200160009054906101000a900473ffffffffffffffffffffffffffffffffffffffff1673ffffffffffffffffffffffffffffffffffffffff1673ffffffffffffffffffffffffffffffffffffffff16815260200190815260200160002060000160000160019054906101000a900460ff1660ff16145b1561225d576001838360ff16815181106122205761221f61404a565b5b6020026020010190151590811515815250506001838260ff168151811061224a5761224961404a565b5b6020026020010190151590811515815250505b808061226890614400565b915050611f7b565b50808061227c90614400565b915050611f59565b5060005b6002805490508160ff16101561231a57818160ff16815181106122ae576122ad61404a565b5b6020026020010151156123075761230660028260ff16815481106122d5576122d461404a565b5b9060005260206000200160009054906101000a900473ffffffffffffffffffffffffffffffffffffffff1682612fae565b5b808061231290614400565b915050612288565b50505b6000600280549050111561262b57600060028054905067ffffffffffffffff81111561234c5761234b61377b565b5b60405190808252806020026020018201604052801561237a5781602001602082028036833780820191505090505b50905060005b6002805490508160ff1610156125925760005b6002805490508160ff16101561257e578060ff168260ff161415801561247257506001600060028460ff16815481106123cf576123ce61404a565b5b9060005260206000200160009054906101000a900473ffffffffffffffffffffffffffffffffffffffff1673ffffffffffffffffffffffffffffffffffffffff1673ffffffffffffffffffffffffffffffffffffffff16815260200190815260200160002060000160000160009054906101000a900460ff1660ff16848260ff16815181106124615761246061404a565b5b60200260200101516000015160ff16145b801561253757506001600060028460ff16815481106124945761249361404a565b5b9060005260206000200160009054906101000a900473ffffffffffffffffffffffffffffffffffffffff1673ffffffffffffffffffffffffffffffffffffffff1673ffffffffffffffffffffffffffffffffffffffff16815260200190815260200160002060000160000160019054906101000a900460ff1660ff16848260ff16815181106125265761252561404a565b5b60200260200101516020015160ff16145b1561256b576001838360ff16815181106125545761255361404a565b5b60200260200101901515908115158152505061257e565b808061257690614400565b915050612393565b50808061258a90614400565b915050612380565b5060005b6002805490508160ff16101561262857818160ff16815181106125bc576125bb61404a565b5b6020026020010151156126155761261460028260ff16815481106125e3576125e261404a565b5b9060005260206000200160009054906101000a900473ffffffffffffffffffffffffffffffffffffffff1682612fae565b5b808061262090614400565b915050612596565b50505b60005b6002805490508160ff1610156127d857600073ffffffffffffffffffffffffffffffffffffffff1660028260ff168154811061266d5761266c61404a565b5b9060005260206000200160009054906101000a900473ffffffffffffffffffffffffffffffffffffffff1673ffffffffffffffffffffffffffffffffffffffff16036127c557600260016002805490506126c79190614710565b815481106126d8576126d761404a565b5b9060005260206000200160009054906101000a900473ffffffffffffffffffffffffffffffffffffffff1660028260ff168154811061271a5761271961404a565b5b9060005260206000200160006101000a81548173ffffffffffffffffffffffffffffffffffffffff021916908373ffffffffffffffffffffffffffffffffffffffff160217905550600280548061277457612773614744565b5b6001900381819060005260206000200160006101000a81549073ffffffffffffffffffffffffffffffffffffffff0219169055905560008160ff1611156127c45780806127c090614773565b9150505b5b80806127d090614400565b91505061262e565b50600060028054905003612820577fb609981dd10c4309ee2f55e2fd9b631438fb9d9de43270f098b64571e58352db604051612813906147f9565b60405180910390a1612c10565b6001600280549050036128cf577fb609981dd10c4309ee2f55e2fd9b631438fb9d9de43270f098b64571e58352db61289660026000815481106128665761286561404a565b5b9060005260206000200160009054906101000a900473ffffffffffffffffffffffffffffffffffffffff1661319c565b6040516020016128a691906148d6565b6040516020818303038152906040526040516128c29190614931565b60405180910390a1612c0f565b60026000815481106128e4576128e361404a565b5b9060005260206000200160009054906101000a900473ffffffffffffffffffffffffffffffffffffffff1673ffffffffffffffffffffffffffffffffffffffff16600015157f71c863affc60bf856f78adf835c2f8d43a35f214dc51c98e8b9953560f30bf8260405160405180910390a360005b6002805490508160ff161015612c0d5760066001600060028460ff16815481106129855761298461404a565b5b9060005260206000200160009054906101000a900473ffffffffffffffffffffffffffffffffffffffff1673ffffffffffffffffffffffffffffffffffffffff1673ffffffffffffffffffffffffffffffffffffffff16815260200190815260200160002060010160006101000a81548160ff02191690836006811115612a0f57612a0e613b84565b5b021790555060006001600060028460ff1681548110612a3157612a3061404a565b5b9060005260206000200160009054906101000a900473ffffffffffffffffffffffffffffffffffffffff1673ffffffffffffffffffffffffffffffffffffffff1673ffffffffffffffffffffffffffffffffffffffff16815260200190815260200160002060010160016101000a81548160ff021916908360ff16021790555060066001600060028460ff1681548110612ace57612acd61404a565b5b9060005260206000200160009054906101000a900473ffffffffffffffffffffffffffffffffffffffff1673ffffffffffffffffffffffffffffffffffffffff1673ffffffffffffffffffffffffffffffffffffffff16815260200190815260200160002060010160026101000a81548160ff02191690836006811115612b5857612b57613b84565b5b021790555060006001600060028460ff1681548110612b7a57612b7961404a565b5b9060005260206000200160009054906101000a900473ffffffffffffffffffffffffffffffffffffffff1673ffffffffffffffffffffffffffffffffffffffff1673ffffffffffffffffffffffffffffffffffffffff16815260200190815260200160002060010160036101000a81548160ff021916908360ff1602179055508080612c0590614400565b915050612958565b505b5b50565b6000807f000000000000000000000000000000000000000000000000000000000000000073ffffffffffffffffffffffffffffffffffffffff1663ecba2dd78686866040518463ffffffff1660e01b8152600401612c73939291906140f0565b606060405180830381865afa158015612c90573d6000803e3d6000fd5b505050506040513d601f19601f82011682018060405250810190612cb491906146d0565b915091508115612ccc57612cc7336131cd565b612d91565b8060000151600160003373ffffffffffffffffffffffffffffffffffffffff1673ffffffffffffffffffffffffffffffffffffffff16815260200190815260200160002060000160000160006101000a81548160ff021916908360ff1602179055508060200151600160003373ffffffffffffffffffffffffffffffffffffffff1673ffffffffffffffffffffffffffffffffffffffff16815260200190815260200160002060000160000160016101000a81548160ff021916908360ff1602179055505b5050505050565b60028181548110612da857600080fd5b906000526020600020016000915054906101000a900473ffffffffffffffffffffffffffffffffffffffff1681565b612e6d81604051602401612deb9190614931565b6040516020818303038152906040527f41304fac000000000000000000000000000000000000000000000000000000007bffffffffffffffffffffffffffffffffffffffffffffffffffffffff19166020820180517bffffffffffffffffffffffffffffffffffffffffffffffffffffffff838183161783525050505061327f565b50565b612f0a838383604051602401612e8893929190614953565b6040516020818303038152906040527fca47c4eb000000000000000000000000000000000000000000000000000000007bffffffffffffffffffffffffffffffffffffffffffffffffffffffff19166020820180517bffffffffffffffffffffffffffffffffffffffffffffffffffffffff838183161783525050505061327f565b505050565b612fa9838383604051602401612f2793929190614991565b6040516020818303038152906040527f1c7ec448000000000000000000000000000000000000000000000000000000007bffffffffffffffffffffffffffffffffffffffffffffffffffffffff19166020820180517bffffffffffffffffffffffffffffffffffffffffffffffffffffffff838183161783525050505061327f565b505050565b6002805490508160ff1610612ff8576040517f08c379a0000000000000000000000000000000000000000000000000000000008152600401612fef90614a1b565b60405180910390fd5b8173ffffffffffffffffffffffffffffffffffffffff167fce0e3c7f8595684f9560df3c82cb81a6c5a649fcf1bdc96b2dc8b7bf228d650060405160405180910390a2600160008373ffffffffffffffffffffffffffffffffffffffff1673ffffffffffffffffffffffffffffffffffffffff1681526020019081526020016000206000808201600080820160006101000a81549060ff02191690556000820160016101000a81549060ff021916905550506001820160006101000a81549060ff02191690556001820160016101000a81549060ff02191690556001820160026101000a81549060ff02191690556001820160036101000a81549060ff02191690556001820160046101000a81549060ff02191690556001820160056101000a81549073ffffffffffffffffffffffffffffffffffffffff02191690555050600060028260ff16815481106131505761314f61404a565b5b9060005260206000200160006101000a81548173ffffffffffffffffffffffffffffffffffffffff021916908373ffffffffffffffffffffffffffffffffffffffff1602179055505050565b60606131c6826040516020016131b29190614a83565b6040516020818303038152906040526132a8565b9050919050565b6000805b6002805490508160ff161015613270578273ffffffffffffffffffffffffffffffffffffffff1660028260ff168154811061320f5761320e61404a565b5b9060005260206000200160009054906101000a900473ffffffffffffffffffffffffffffffffffffffff1673ffffffffffffffffffffffffffffffffffffffff160361325d57809150613270565b808061326890614400565b9150506131d1565b5061327b8282612fae565b5050565b60008151905060006a636f6e736f6c652e6c6f679050602083016000808483855afa5050505050565b606060006040518060400160405280601081526020017f303132333435363738396162636465660000000000000000000000000000000081525090506000600284516132f49190614a9e565b600261330091906143cc565b67ffffffffffffffff8111156133195761331861377b565b5b6040519080825280601f01601f19166020018201604052801561334b5781602001600182028036833780820191505090505b5090507f3000000000000000000000000000000000000000000000000000000000000000816000815181106133835761338261404a565b5b60200101907effffffffffffffffffffffffffffffffffffffffffffffffffffffffffffff1916908160001a9053507f7800000000000000000000000000000000000000000000000000000000000000816001815181106133e7576133e661404a565b5b60200101907effffffffffffffffffffffffffffffffffffffffffffffffffffffffffffff1916908160001a90535060005b8451811015613597578260048683815181106134385761343761404a565b5b602001015160f81c60f81b7effffffffffffffffffffffffffffffffffffffffffffffffffffffffffffff1916901c60f81c60ff168151811061347e5761347d61404a565b5b602001015160f81c60f81b826002836134979190614a9e565b60026134a391906143cc565b815181106134b4576134b361404a565b5b60200101907effffffffffffffffffffffffffffffffffffffffffffffffffffffffffffff1916908160001a90535082600f60f81b8683815181106134fc576134fb61404a565b5b602001015160f81c60f81b1660f81c60ff168151811061351f5761351e61404a565b5b602001015160f81c60f81b826002836135389190614a9e565b600361354491906143cc565b815181106135555761355461404a565b5b60200101907effffffffffffffffffffffffffffffffffffffffffffffffffffffffffffff1916908160001a905350808061358f906140a8565b915050613419565b508092505050919050565b50805460008255906000526020600020908101906135c0919061369a565b50565b6040518060400160405280600060ff168152602001600060ff1681525090565b6040518060800160405280600060ff168152602001600060ff1681526020016000151581526020016000151581525090565b6040518060e001604052806136286135c3565b81526020016000600681111561364157613640613b84565b5b8152602001600060ff1681526020016000600681111561366457613663613b84565b5b8152602001600060ff168152602001600015158152602001600073ffffffffffffffffffffffffffffffffffffffff1681525090565b5b808211156136b357600081600090555060010161369b565b5090565b6000604051905090565b600080fd5b600080fd5b600060ff82169050919050565b6136e1816136cb565b81146136ec57600080fd5b50565b6000813590506136fe816136d8565b92915050565b60006020828403121561371a576137196136c1565b5b6000613728848285016136ef565b91505092915050565b6000819050919050565b61374481613731565b82525050565b600060208201905061375f600083018461373b565b92915050565b600080fd5b6000601f19601f8301169050919050565b7f4e487b7100000000000000000000000000000000000000000000000000000000600052604160045260246000fd5b6137b38261376a565b810181811067ffffffffffffffff821117156137d2576137d161377b565b5b80604052505050565b60006137e56136b7565b90506137f182826137aa565b919050565b60006040828403121561380c5761380b613765565b5b61381660406137db565b90506000613826848285016136ef565b600083015250602061383a848285016136ef565b60208301525092915050565b6007811061385357600080fd5b50565b60008135905061386581613846565b92915050565b600080600060808486031215613884576138836136c1565b5b6000613892868287016137f6565b93505060406138a386828701613856565b92505060606138b4868287016136ef565b9150509250925092565b6138c7816136cb565b82525050565b6040820160008201516138e360008501826138be565b5060208201516138f660208501826138be565b50505050565b600060408201905061391160008301846138cd565b92915050565b600081519050919050565b600082825260208201905092915050565b6000819050602082019050919050565b60408201600082015161395960008501826138be565b50602082015161396c60208501826138be565b50505050565b600061397e8383613943565b60408301905092915050565b6000602082019050919050565b60006139a282613917565b6139ac8185613922565b93506139b783613933565b8060005b838110156139e85781516139cf8882613972565b97506139da8361398a565b9250506001810190506139bb565b5085935050505092915050565b60006020820190508181036000830152613a0f8184613997565b905092915050565b600060408284031215613a2d57613a2c6136c1565b5b6000613a3b848285016137f6565b91505092915050565b60008115159050919050565b613a5981613a44565b82525050565b608082016000820151613a7560008501826138be565b506020820151613a8860208501826138be565b506040820151613a9b6040850182613a50565b506060820151613aae6060850182613a50565b50505050565b6000608082019050613ac96000830184613a5f565b92915050565b613ad881613a44565b82525050565b6000602082019050613af36000830184613acf565b92915050565b600073ffffffffffffffffffffffffffffffffffffffff82169050919050565b6000613b2482613af9565b9050919050565b613b3481613b19565b8114613b3f57600080fd5b50565b600081359050613b5181613b2b565b92915050565b600060208284031215613b6d57613b6c6136c1565b5b6000613b7b84828501613b42565b91505092915050565b7f4e487b7100000000000000000000000000000000000000000000000000000000600052602160045260246000fd5b60078110613bc457613bc3613b84565b5b50565b6000819050613bd582613bb3565b919050565b6000613be582613bc7565b9050919050565b613bf581613bda565b82525050565b613c04816136cb565b82525050565b613c1381613b19565b82525050565b600061010082019050613c2f600083018a6138cd565b613c3c6040830189613bec565b613c496060830188613bfb565b613c566080830187613bec565b613c6360a0830186613bfb565b613c7060c0830185613acf565b613c7d60e0830184613c0a565b98975050505050505050565b600081519050919050565b600082825260208201905092915050565b6000819050602082019050919050565b613cbe81613bda565b82525050565b613ccd81613b19565b82525050565b61010082016000820151613cea6000850182613943565b506020820151613cfd6040850182613cb5565b506040820151613d1060608501826138be565b506060820151613d236080850182613cb5565b506080820151613d3660a08501826138be565b5060a0820151613d4960c0850182613a50565b5060c0820151613d5c60e0850182613cc4565b50505050565b6000613d6e8383613cd3565b6101008301905092915050565b6000602082019050919050565b6000613d9382613c89565b613d9d8185613c94565b9350613da883613ca5565b8060005b83811015613dd9578151613dc08882613d62565b9750613dcb83613d7b565b925050600181019050613dac565b5085935050505092915050565b60006020820190508181036000830152613e008184613d88565b905092915050565b6000602082019050613e1d6000830184613bfb565b92915050565b6000819050919050565b613e3681613e23565b8114613e4157600080fd5b50565b600081359050613e5381613e2d565b92915050565b600060208284031215613e6f57613e6e6136c1565b5b6000613e7d84828501613e44565b91505092915050565b613e8f81613731565b8114613e9a57600080fd5b50565b600081359050613eac81613e86565b92915050565b600080600080600060a08688031215613ece57613ecd6136c1565b5b6000613edc88828901613856565b9550506020613eed888289016136ef565b9450506040613efe88828901613856565b9350506060613f0f888289016136ef565b9250506080613f2088828901613e9d565b9150509295509295909350565b613f3681613e23565b82525050565b6000602082019050613f516000830184613f2d565b92915050565b61010082016000820151613f6e6000850182613943565b506020820151613f816040850182613cb5565b506040820151613f9460608501826138be565b506060820151613fa76080850182613cb5565b506080820151613fba60a08501826138be565b5060a0820151613fcd60c0850182613a50565b5060c0820151613fe060e0850182613cc4565b50505050565b600061010082019050613ffc6000830184613f57565b92915050565b600060208284031215614018576140176136c1565b5b600061402684828501613e9d565b91505092915050565b60006020820190506140446000830184613c0a565b92915050565b7f4e487b7100000000000000000000000000000000000000000000000000000000600052603260045260246000fd5b7f4e487b7100000000000000000000000000000000000000000000000000000000600052601160045260246000fd5b60006140b382613731565b91507fffffffffffffffffffffffffffffffffffffffffffffffffffffffffffffffff82036140e5576140e4614079565b5b600182019050919050565b600060808201905061410560008301866138cd565b6141126040830185613bec565b61411f6060830184613bfb565b949350505050565b600081519050614136816136d8565b92915050565b60006040828403121561415257614151613765565b5b61415c60406137db565b9050600061416c84828501614127565b600083015250602061418084828501614127565b60208301525092915050565b6000604082840312156141a2576141a16136c1565b5b60006141b08482850161413c565b91505092915050565b6000602082840312156141cf576141ce6136c1565b5b60006141dd84828501614127565b91505092915050565b60006141f1826136cb565b91506141fc836136cb565b9250828201905060ff81111561421557614214614079565b5b92915050565b6000614226826136cb565b9150614231836136cb565b925082820261423f816136cb565b915080821461425157614250614079565b5b5092915050565b6000614263826136cb565b915061426e836136cb565b9250828203905060ff81111561428757614286614079565b5b92915050565b60006060820190506142a260008301856138cd565b6142af6040830184613bfb565b9392505050565b600080fd5b600067ffffffffffffffff8211156142d6576142d561377b565b5b602082029050602081019050919050565b600080fd5b60006142ff6142fa846142bb565b6137db565b90508083825260208201905060408402830185811115614322576143216142e7565b5b835b8181101561434b5780614337888261413c565b845260208401935050604081019050614324565b5050509392505050565b600082601f83011261436a576143696142b6565b5b815161437a8482602086016142ec565b91505092915050565b600060208284031215614399576143986136c1565b5b600082015167ffffffffffffffff8111156143b7576143b66136c6565b5b6143c384828501614355565b91505092915050565b60006143d782613731565b91506143e283613731565b92508282019050808211156143fa576143f9614079565b5b92915050565b600061440b826136cb565b915060ff820361441e5761441d614079565b5b600182019050919050565b61443281613a44565b811461443d57600080fd5b50565b60008151905061444f81614429565b92915050565b60006080828403121561446b5761446a613765565b5b61447560806137db565b9050600061448584828501614127565b600083015250602061449984828501614127565b60208301525060406144ad84828501614440565b60408301525060606144c184828501614440565b60608301525092915050565b6000608082840312156144e3576144e26136c1565b5b60006144f184828501614455565b91505092915050565b60008160f81b9050919050565b6000614512826144fa565b9050919050565b61452a61452582613bda565b614507565b82525050565b61454161453c826136cb565b614507565b82525050565b6000819050919050565b61456261455d82613731565b614547565b82525050565b60006145748288614519565b6001820191506145848287614530565b6001820191506145948286614519565b6001820191506145a48285614530565b6001820191506145b48284614551565b6020820191508190509695505050505050565b60006060820190506145dc6000830186613c0a565b6145e96020830185613bfb565b6145f66040830184613bfb565b949350505050565b60008160001c9050919050565b600060ff82169050919050565b600061462b614626836145fe565b61460b565b9050919050565b60008160081c9050919050565b600061465261464d83614632565b61460b565b9050919050565b60408201600080830154905061466e81614618565b61467b60008601826138be565b506146858161463f565b61469260208601826138be565b5050505050565b60006080820190506146ae6000830186614659565b6146bb6040830185613bec565b6146c86060830184613bfb565b949350505050565b600080606083850312156146e7576146e66136c1565b5b60006146f585828601614440565b92505060206147068582860161413c565b9150509250929050565b600061471b82613731565b915061472683613731565b925082820390508181111561473e5761473d614079565b5b92915050565b7f4e487b7100000000000000000000000000000000000000000000000000000000600052603160045260246000fd5b600061477e826136cb565b91506000820361479157614790614079565b5b600182039050919050565b600082825260208201905092915050565b7f4e6f2077696e6e65720000000000000000000000000000000000000000000000600082015250565b60006147e360098361479c565b91506147ee826147ad565b602082019050919050565b60006020820190508181036000830152614812816147d6565b9050919050565b600081905092915050565b7f5468652047616d652077696e6e65722069733a20000000000000000000000000600082015250565b600061485a601483614819565b915061486582614824565b601482019050919050565b600081519050919050565b60005b8381101561489957808201518184015260208101905061487e565b60008484015250505050565b60006148b082614870565b6148ba8185614819565b93506148ca81856020860161487b565b80840191505092915050565b60006148e18261484d565b91506148ed82846148a5565b915081905092915050565b600061490382614870565b61490d818561479c565b935061491d81856020860161487b565b6149268161376a565b840191505092915050565b6000602082019050818103600083015261494b81846148f8565b905092915050565b6000606082019050818103600083015261496d81866148f8565b905061497c602083018561373b565b614989604083018461373b565b949350505050565b600060608201905081810360008301526149ab81866148f8565b90506149ba602083018561373b565b6149c76040830184613c0a565b949350505050565b7f496e6465782076616c7565206f7574206f662072616e67650000000000000000600082015250565b6000614a0560188361479c565b9150614a10826149cf565b602082019050919050565b60006020820190508181036000830152614a34816149f8565b9050919050565b60008160601b9050919050565b6000614a5382614a3b565b9050919050565b6000614a6582614a48565b9050919050565b614a7d614a7882613b19565b614a5a565b82525050565b6000614a8f8284614a6c565b60148201915081905092915050565b6000614aa982613731565b9150614ab483613731565b9250828202614ac281613731565b91508282048414831517614ad957614ad8614079565b5b509291505056fea2646970667358221220ac6749facfd117369bc9a1ffce1b2ef043b6cd4178b9b0a4538724e3f076371f64736f6c63430008120033",
  "linkReferences": {},
  "deployedLinkReferences": {}
}