{
  "_format": "hh-sol-artifact-1",
  "contractName": "GameWT",
  "sourceName": "contracts/GameWT.sol",
  "abi": [
    {
      "inputs": [
        {
          "internalType": "address",
          "name": "_mapAddress",
          "type": "address"
        }
      ],
      "stateMutability": "nonpayable",
      "type": "constructor"
    },
    {
      "inputs": [
        {
          "internalType": "address",
          "name": "player",
          "type": "address"
        },
        {
          "internalType": "uint8",
          "name": "q",
          "type": "uint8"
        },
        {
          "internalType": "uint8",
          "name": "r",
          "type": "uint8"
        }
      ],
      "name": "ShipAlreadyAdded",
      "type": "error"
    },
    {
      "anonymous": false,
      "inputs": [
        {
          "indexed": false,
          "internalType": "uint8",
          "name": "gameId",
          "type": "uint8"
        }
      ],
      "name": "CommitPhaseStarted",
      "type": "event"
    },
    {
      "anonymous": false,
      "inputs": [
        {
          "indexed": false,
          "internalType": "uint8",
          "name": "gameId",
          "type": "uint8"
        }
      ],
      "name": "GameEnded",
      "type": "event"
    },
    {
      "anonymous": false,
      "inputs": [
        {
          "indexed": false,
          "internalType": "uint8",
          "name": "gameId",
          "type": "uint8"
        }
      ],
      "name": "GameStarted",
      "type": "event"
    },
    {
      "anonymous": false,
      "inputs": [
        {
          "indexed": true,
          "internalType": "bool",
          "name": "gameStatus",
          "type": "bool"
        },
        {
          "indexed": true,
          "internalType": "address",
          "name": "winnerAddress",
          "type": "address"
        }
      ],
      "name": "GameUpdated",
      "type": "event"
    },
    {
      "anonymous": false,
      "inputs": [
        {
          "indexed": false,
          "internalType": "string",
          "name": "gameWinner",
          "type": "string"
        }
      ],
      "name": "GameWinner",
      "type": "event"
    },
    {
      "anonymous": false,
      "inputs": [
        {
          "indexed": false,
          "internalType": "uint8",
          "name": "radius",
          "type": "uint8"
        },
        {
          "indexed": false,
          "internalType": "uint8",
          "name": "gameId",
          "type": "uint8"
        }
      ],
      "name": "MapInitialized",
      "type": "event"
    },
    {
      "anonymous": false,
      "inputs": [
        {
          "indexed": true,
          "internalType": "address",
          "name": "player",
          "type": "address"
        }
      ],
      "name": "MoveCommitted",
      "type": "event"
    },
    {
      "anonymous": false,
      "inputs": [
        {
          "indexed": true,
          "internalType": "address",
          "name": "player",
          "type": "address"
        }
      ],
      "name": "MoveSubmitted",
      "type": "event"
    },
    {
      "anonymous": false,
      "inputs": [
        {
          "indexed": true,
          "internalType": "address",
          "name": "previousOwner",
          "type": "address"
        },
        {
          "indexed": true,
          "internalType": "address",
          "name": "newOwner",
          "type": "address"
        }
      ],
      "name": "OwnershipTransferred",
      "type": "event"
    },
    {
      "anonymous": false,
      "inputs": [
        {
          "indexed": true,
          "internalType": "address",
          "name": "player",
          "type": "address"
        },
        {
          "indexed": false,
          "internalType": "uint8",
          "name": "gameId",
          "type": "uint8"
        }
      ],
      "name": "PlayerAdded",
      "type": "event"
    },
    {
      "anonymous": false,
      "inputs": [
        {
          "indexed": true,
          "internalType": "address",
          "name": "player",
          "type": "address"
        }
      ],
      "name": "PlayerDefeated",
      "type": "event"
    },
    {
      "anonymous": false,
      "inputs": [
        {
          "indexed": true,
          "internalType": "address",
          "name": "captain",
          "type": "address"
        }
      ],
      "name": "ShipCollidedWithIsland",
      "type": "event"
    },
    {
      "anonymous": false,
      "inputs": [
        {
          "indexed": true,
          "internalType": "address",
          "name": "victim",
          "type": "address"
        },
        {
          "indexed": true,
          "internalType": "address",
          "name": "attacker",
          "type": "address"
        }
      ],
      "name": "ShipHit",
      "type": "event"
    },
    {
      "anonymous": false,
      "inputs": [
        {
          "indexed": true,
          "internalType": "address",
          "name": "captain",
          "type": "address"
        },
        {
          "indexed": false,
          "internalType": "uint8",
          "name": "q",
          "type": "uint8"
        },
        {
          "indexed": false,
          "internalType": "uint8",
          "name": "r",
          "type": "uint8"
        }
      ],
      "name": "ShipMoved",
      "type": "event"
    },
    {
      "anonymous": false,
      "inputs": [
        {
          "indexed": true,
          "internalType": "address",
          "name": "captain",
          "type": "address"
        },
        {
          "indexed": false,
          "internalType": "uint8",
          "name": "shotQ",
          "type": "uint8"
        },
        {
          "indexed": false,
          "internalType": "uint8",
          "name": "shotR",
          "type": "uint8"
        }
      ],
      "name": "ShipShot",
      "type": "event"
    },
    {
      "anonymous": false,
      "inputs": [
        {
          "indexed": true,
          "internalType": "address",
          "name": "captain",
          "type": "address"
        }
      ],
      "name": "ShipSunk",
      "type": "event"
    },
    {
      "anonymous": false,
      "inputs": [
        {
          "indexed": false,
          "internalType": "uint8",
          "name": "gameId",
          "type": "uint8"
        }
      ],
      "name": "SubmitPhaseStarted",
      "type": "event"
    },
    {
      "inputs": [
        {
          "internalType": "uint8",
          "name": "gameId",
          "type": "uint8"
        },
        {
          "internalType": "uint256",
          "name": "_speed",
          "type": "uint256"
        },
        {
          "internalType": "uint256",
          "name": "_range",
          "type": "uint256"
        }
      ],
      "name": "addShip",
      "outputs": [
        {
          "components": [
            {
              "components": [
                {
                  "internalType": "uint8",
                  "name": "q",
                  "type": "uint8"
                },
                {
                  "internalType": "uint8",
                  "name": "r",
                  "type": "uint8"
                }
              ],
              "internalType": "struct SharedStructs.Coordinate",
              "name": "coordinate",
              "type": "tuple"
            },
            {
              "internalType": "enum SharedStructs.Directions",
              "name": "travelDirection",
              "type": "uint8"
            },
            {
              "internalType": "uint8",
              "name": "travelDistance",
              "type": "uint8"
            },
            {
              "internalType": "enum SharedStructs.Directions",
              "name": "shotDirection",
              "type": "uint8"
            },
            {
              "internalType": "uint8",
              "name": "shotDistance",
              "type": "uint8"
            },
            {
              "internalType": "bool",
              "name": "publishedMove",
              "type": "bool"
            },
            {
              "internalType": "address",
              "name": "captain",
              "type": "address"
            },
            {
              "internalType": "uint256",
              "name": "yachtSpeed",
              "type": "uint256"
            },
            {
              "internalType": "uint256",
              "name": "yachtRange",
              "type": "uint256"
            }
          ],
          "internalType": "struct GameWT.Ship",
          "name": "",
          "type": "tuple"
        }
      ],
      "stateMutability": "nonpayable",
      "type": "function"
    },
    {
      "inputs": [
        {
          "internalType": "uint8",
          "name": "gameId",
          "type": "uint8"
        }
      ],
      "name": "allowSubmitMoves",
      "outputs": [],
      "stateMutability": "nonpayable",
      "type": "function"
    },
    {
      "inputs": [
        {
          "internalType": "uint8",
          "name": "gameId",
          "type": "uint8"
        }
      ],
      "name": "endGame",
      "outputs": [],
      "stateMutability": "nonpayable",
      "type": "function"
    },
    {
      "inputs": [
        {
          "internalType": "uint256",
          "name": "",
          "type": "uint256"
        }
      ],
      "name": "games",
      "outputs": [
        {
          "internalType": "uint256",
          "name": "round",
          "type": "uint256"
        },
        {
          "internalType": "bool",
          "name": "gameInProgress",
          "type": "bool"
        },
        {
          "internalType": "bool",
          "name": "stopAddingShips",
          "type": "bool"
        },
        {
          "internalType": "bool",
          "name": "letCommitMoves",
          "type": "bool"
        },
        {
          "internalType": "bool",
          "name": "letSubmitMoves",
          "type": "bool"
        }
      ],
      "stateMutability": "view",
      "type": "function"
    },
    {
      "inputs": [
        {
          "components": [
            {
              "internalType": "uint8",
              "name": "q",
              "type": "uint8"
            },
            {
              "internalType": "uint8",
              "name": "r",
              "type": "uint8"
            }
          ],
          "internalType": "struct SharedStructs.Coordinate",
          "name": "_coord",
          "type": "tuple"
        },
        {
          "internalType": "uint8",
          "name": "gameId",
          "type": "uint8"
        }
      ],
      "name": "getCell",
      "outputs": [
        {
          "components": [
            {
              "internalType": "uint8",
              "name": "q",
              "type": "uint8"
            },
            {
              "internalType": "uint8",
              "name": "r",
              "type": "uint8"
            },
            {
              "internalType": "bool",
              "name": "island",
              "type": "bool"
            },
            {
              "internalType": "bool",
              "name": "exists",
              "type": "bool"
            }
          ],
          "internalType": "struct SharedStructs.Cell",
          "name": "",
          "type": "tuple"
        }
      ],
      "stateMutability": "view",
      "type": "function"
    },
    {
      "inputs": [
        {
          "internalType": "uint8",
          "name": "gameId",
          "type": "uint8"
        }
      ],
      "name": "getCells",
      "outputs": [
        {
          "components": [
            {
              "internalType": "uint8",
              "name": "q",
              "type": "uint8"
            },
            {
              "internalType": "uint8",
              "name": "r",
              "type": "uint8"
            }
          ],
          "internalType": "struct SharedStructs.Coordinate[]",
          "name": "",
          "type": "tuple[]"
        }
      ],
      "stateMutability": "view",
      "type": "function"
    },
    {
      "inputs": [
        {
          "internalType": "uint8",
          "name": "gameId",
          "type": "uint8"
        }
      ],
      "name": "getRadius",
      "outputs": [
        {
          "internalType": "uint8",
          "name": "",
          "type": "uint8"
        }
      ],
      "stateMutability": "view",
      "type": "function"
    },
    {
      "inputs": [
        {
          "internalType": "uint8",
          "name": "gameId",
          "type": "uint8"
        }
      ],
      "name": "getShips",
      "outputs": [
        {
          "components": [
            {
              "components": [
                {
                  "internalType": "uint8",
                  "name": "q",
                  "type": "uint8"
                },
                {
                  "internalType": "uint8",
                  "name": "r",
                  "type": "uint8"
                }
              ],
              "internalType": "struct SharedStructs.Coordinate",
              "name": "coordinate",
              "type": "tuple"
            },
            {
              "internalType": "enum SharedStructs.Directions",
              "name": "travelDirection",
              "type": "uint8"
            },
            {
              "internalType": "uint8",
              "name": "travelDistance",
              "type": "uint8"
            },
            {
              "internalType": "enum SharedStructs.Directions",
              "name": "shotDirection",
              "type": "uint8"
            },
            {
              "internalType": "uint8",
              "name": "shotDistance",
              "type": "uint8"
            },
            {
              "internalType": "bool",
              "name": "publishedMove",
              "type": "bool"
            },
            {
              "internalType": "address",
              "name": "captain",
              "type": "address"
            },
            {
              "internalType": "uint256",
              "name": "yachtSpeed",
              "type": "uint256"
            },
            {
              "internalType": "uint256",
              "name": "yachtRange",
              "type": "uint256"
            }
          ],
          "internalType": "struct GameWT.Ship[]",
          "name": "",
          "type": "tuple[]"
        }
      ],
      "stateMutability": "view",
      "type": "function"
    },
    {
      "inputs": [
        {
          "internalType": "uint8",
          "name": "_radius",
          "type": "uint8"
        },
        {
          "internalType": "uint8",
          "name": "gameId",
          "type": "uint8"
        }
      ],
      "name": "initGame",
      "outputs": [],
      "stateMutability": "nonpayable",
      "type": "function"
    },
    {
      "inputs": [],
      "name": "jobId",
      "outputs": [
        {
          "internalType": "bytes32",
          "name": "",
          "type": "bytes32"
        }
      ],
      "stateMutability": "view",
      "type": "function"
    },
    {
      "inputs": [
        {
          "components": [
            {
              "internalType": "uint8",
              "name": "q",
              "type": "uint8"
            },
            {
              "internalType": "uint8",
              "name": "r",
              "type": "uint8"
            }
          ],
          "internalType": "struct SharedStructs.Coordinate",
          "name": "_start",
          "type": "tuple"
        },
        {
          "internalType": "enum SharedStructs.Directions",
          "name": "_dir",
          "type": "uint8"
        },
        {
          "internalType": "uint8",
          "name": "_distance",
          "type": "uint8"
        },
        {
          "internalType": "uint8",
          "name": "gameId",
          "type": "uint8"
        }
      ],
      "name": "move",
      "outputs": [
        {
          "components": [
            {
              "internalType": "uint8",
              "name": "q",
              "type": "uint8"
            },
            {
              "internalType": "uint8",
              "name": "r",
              "type": "uint8"
            }
          ],
          "internalType": "struct SharedStructs.Coordinate",
          "name": "",
          "type": "tuple"
        }
      ],
      "stateMutability": "view",
      "type": "function"
    },
    {
      "inputs": [
        {
          "internalType": "address",
          "name": "",
          "type": "address"
        }
      ],
      "name": "nftDataMapping",
      "outputs": [
        {
          "internalType": "string",
          "name": "tokenId",
          "type": "string"
        },
        {
          "internalType": "uint8",
          "name": "speed",
          "type": "uint8"
        },
        {
          "internalType": "uint8",
          "name": "range",
          "type": "uint8"
        }
      ],
      "stateMutability": "view",
      "type": "function"
    },
    {
      "inputs": [],
      "name": "owner",
      "outputs": [
        {
          "internalType": "address",
          "name": "",
          "type": "address"
        }
      ],
      "stateMutability": "view",
      "type": "function"
    },
    {
      "inputs": [],
      "name": "renounceOwnership",
      "outputs": [],
      "stateMutability": "nonpayable",
      "type": "function"
    },
    {
      "inputs": [
        {
          "internalType": "bytes32",
          "name": "",
          "type": "bytes32"
        }
      ],
      "name": "requestAddresses",
      "outputs": [
        {
          "internalType": "address",
          "name": "",
          "type": "address"
        }
      ],
      "stateMutability": "view",
      "type": "function"
    },
    {
      "inputs": [
        {
          "internalType": "enum SharedStructs.Directions",
          "name": "_travelDirection",
          "type": "uint8"
        },
        {
          "internalType": "enum SharedStructs.Directions",
          "name": "_shotDirection",
          "type": "uint8"
        },
        {
          "internalType": "uint8",
          "name": "gameId",
          "type": "uint8"
        }
      ],
      "name": "revealMove",
      "outputs": [],
      "stateMutability": "nonpayable",
      "type": "function"
    },
    {
      "inputs": [
        {
          "internalType": "uint8",
          "name": "gameId",
          "type": "uint8"
        }
      ],
      "name": "startNewGame",
      "outputs": [],
      "stateMutability": "nonpayable",
      "type": "function"
    },
    {
      "inputs": [
        {
          "internalType": "address",
          "name": "newOwner",
          "type": "address"
        }
      ],
      "name": "transferOwnership",
      "outputs": [],
      "stateMutability": "nonpayable",
      "type": "function"
    },
    {
      "inputs": [
        {
          "components": [
            {
              "internalType": "uint8",
              "name": "q",
              "type": "uint8"
            },
            {
              "internalType": "uint8",
              "name": "r",
              "type": "uint8"
            }
          ],
          "internalType": "struct SharedStructs.Coordinate",
          "name": "_startCell",
          "type": "tuple"
        },
        {
          "internalType": "enum SharedStructs.Directions",
          "name": "_direction",
          "type": "uint8"
        },
        {
          "internalType": "uint8",
          "name": "_distance",
          "type": "uint8"
        },
        {
          "internalType": "uint8",
          "name": "gameId",
          "type": "uint8"
        }
      ],
      "name": "travel",
      "outputs": [],
      "stateMutability": "nonpayable",
      "type": "function"
    },
    {
      "inputs": [
        {
          "internalType": "uint8",
          "name": "gameId",
          "type": "uint8"
        }
      ],
      "name": "updateWorld",
      "outputs": [],
      "stateMutability": "nonpayable",
      "type": "function"
    }
  ],
  "bytecode": "0x60a06040523480156200001157600080fd5b50604051620041fd380380620041fd8339810160408190526200003491620000a1565b6200003f3362000051565b6001600160a01b0316608052620000d3565b600080546001600160a01b038381166001600160a01b0319831681178455604051919092169283917f8be0079c531659141344cd1fd0a4f28419497f9722a3daafe3b4186f6b6457e09190a35050565b600060208284031215620000b457600080fd5b81516001600160a01b0381168114620000cc57600080fd5b9392505050565b6080516140c86200013560003960008181610417015281816106f801528181610be101528181610cb201528181610e3c01528181610fe7015281816111950152818161120f015281816116a201528181611aa601526129a801526140c86000f3fe608060405234801561001057600080fd5b506004361061012c5760003560e01c8063863375ac116100ad578063cddd99ba11610071578063cddd99ba14610340578063d085a86f14610369578063d08e4b4214610389578063f2fde38b1461039c578063fd870446146103af57600080fd5b8063863375ac146102bc5780638da5cb5b146102cf578063978ac356146102f4578063bf70b4f514610307578063c2939d971461032957600080fd5b80634aac9b8b116100f45780634aac9b8b146102195780634d02388614610239578063508236ca1461028e5780636ed296e4146102a1578063715018a6146102b457600080fd5b8063117a5b90146101315780631cf8a321146101ac5780632923a41f146101c15780632f309686146101d457806334361208146101f4575b600080fd5b61017761013f3660046136af565b6003602081905260009182526040909120805491015460ff808216916101008104821691620100008204811691630100000090041685565b6040805195865293151560208601529115159284019290925290151560608301521515608082015260a0015b60405180910390f35b6101bf6101ba36600461379d565b6103cf565b005b6101bf6101cf3660046137f6565b61050b565b6101e76101e2366004613813565b6105ab565b6040516101a3919061391e565b6102076102023660046137f6565b610b8e565b60405160ff90911681526020016101a3565b61022c6102273660046137f6565b610c5a565b6040516101a3919061392d565b61024c61024736600461398a565b610f72565b6040516101a39190600060808201905060ff835116825260ff602084015116602083015260408301511515604083015260608301511515606083015292915050565b6101bf61029c3660046139c2565b611066565b6101bf6102af3660046137f6565b6112b7565b6101bf6113d7565b6101bf6102ca3660046137f6565b6113eb565b6000546001600160a01b03165b6040516001600160a01b0390911681526020016101a3565b6101bf6103023660046137f6565b61147b565b61031a6103153660046139f0565b612893565b6040516101a393929190613a69565b61033260015481565b6040519081526020016101a3565b6102dc61034e3660046136af565b6005602052600090815260409020546001600160a01b031681565b61037c61037736600461379d565b612943565b6040516101a39190613a96565b6101bf610397366004613ab4565b612a2a565b6101bf6103aa3660046139f0565b612bef565b6103c26103bd3660046137f6565b612c68565b6040516101a39190613afb565b60ff808216600090815260036020819052604090912001541615156001146104125760405162461bcd60e51b815260040161040990613b4a565b60405180910390fd5b6000807f00000000000000000000000000000000000000000000000000000000000000006001600160a01b0316631cf8a321878787876040518563ffffffff1660e01b81526004016104679493929190613b81565b606060405180830381865afa158015610484573d6000803e3d6000fd5b505050506040513d601f19601f820116820180604052508101906104a89190613c0e565b9150915081156104c1576104bc3384612ee3565b610503565b805160ff8481166000908152600360209081526040808320338452600101825290912080549185015183166101000261ffff1990921692909316919091171790555b505050505050565b610513612fb5565b60ff8082166000908152600360208190526040909120015416151560011461054d5760405162461bcd60e51b815260040161040990613b4a565b60ff8116600081815260036020818152604092839020909101805463ff0000001916630100000017905590519182527f1ebf68ad21138befbfae2606983db26dee824ebb69e305add08e5ec40322ebcf91015b60405180910390a150565b6105b3613622565b60ff808516600090815260036020819052604090912001546101009004161580156105f8575060ff808516600090815260036020819052604090912001541615156001145b6106145760405162461bcd60e51b815260040161040990613b4a565b60ff8085166000908152600360209081526040808320338452600101909152902054161580159061066b575060ff808516600090815260036020908152604080832033845260010190915290205461010090041615155b156106c95760ff8481166000908152600360209081526040808320338085526001909101909252918290205491516308538db760e41b8152600481019190915281831660248201526101009091049091166044820152606401610409565b604080518082019091526000808252602082015260005b6040516342c39d9160e01b815260ff871660048201527f00000000000000000000000000000000000000000000000000000000000000006001600160a01b0316906342c39d919060240160408051808303816000875af1158015610748573d6000803e3d6000fd5b505050506040513d601f19601f8201168201806040525081019061076c9190613c42565b91506107b2604051806040016040528060138152602001724e657720726e6420706169722025732c20257360681b815250836000015160ff16846020015160ff1661300f565b60005b60ff8088166000908152600360205260409020600201549082161015610951576108596040518060400160405280601781526020017f696e206c6f6f702025732c20616464726573733a2025730000000000000000008152508260ff16600360008b60ff1681526020019081526020016000206002018460ff168154811061083f5761083f613c5e565b6000918252602090912001546001600160a01b0316613056565b825160ff888116600090815260036020526040812060028101805494841694600190920193909190861690811061089257610892613c5e565b60009182526020808320909101546001600160a01b0316835282019290925260400190205460ff16148015610931575060208084015160ff8981166000908152600390935260408320600281018054938316946001909201939192909190861690811061090157610901613c5e565b60009182526020808320909101546001600160a01b0316835282019290925260400190205460ff61010090910416145b1561093f5760019150610951565b8061094981613c8a565b9150506107b5565b50806106e057604080516101208101825283815260006020808301828152838501839052606084018390526080840183905260a084018390523360c0850181905260e085018b90526101008086018b905260ff8d81168652600385528786209286526001928301855296909420855180518254919095015194881661ffff19909116179390961690930291909117845551838201805493948594909360ff199190911690836006811115610a0757610a07613848565b0217905550604082015160018201805460ff9092166101000261ff001983168117825560608501519262ff00001990911662ffff00199091161762010000836006811115610a5757610a57613848565b021790555060808201516001808301805460a086015160c08701516001600160a01b0316650100000000000265010000000000600160c81b03199115156401000000000264ff000000001960ff9788166301000000021664ffff0000001990941693909317929092171617905560e0840151600280850191909155610100909401516003938401558a82166000908152602093845260408082209095018054928301815581528390200180546001600160a01b03191633179055825180840190935260128352714e657720736869702061742025732c20257360701b8383015283518051920151610b4c93928216911661300f565b60405160ff8816815233907f3138d9d3c5b626eff736a8d5bf07552d9f568087655c46803ee715f424ec1b8e9060200160405180910390a29695505050505050565b60ff8082166000908152600360208190526040822001549091161515600114610bc95760405162461bcd60e51b815260040161040990613b4a565b60405163436fadf360e11b815260ff831660048201527f00000000000000000000000000000000000000000000000000000000000000006001600160a01b0316906386df5be690602401602060405180830381865afa158015610c30573d6000803e3d6000fd5b505050506040513d601f19601f82011682018060405250810190610c549190613ca9565b92915050565b60ff80821660009081526003602081905260409091200154606091161515600114610c975760405162461bcd60e51b815260040161040990613b4a565b60405163436fadf360e11b815260ff831660048201526000907f00000000000000000000000000000000000000000000000000000000000000006001600160a01b0316906386df5be690602401602060405180830381865afa158015610d01573d6000803e3d6000fd5b505050506040513d601f19601f82011682018060405250810190610d259190613ca9565b90506000610d34826001613cc6565b610d3f836003613cdf565b610d499190613cdf565b610d54906001613cc6565b60ff16905060008167ffffffffffffffff811115610d7457610d746136c8565b604051908082528060200260200182016040528015610db957816020015b6040805180820190915260008082526020820152815260200190600190039081610d925790505b50905060405180604001604052808460ff1681526020018460ff1681525081600081518110610dea57610dea613c5e565b602090810291909101015260015b8360ff168160ff1611610f6957600081610e13600182613cfb565b610e1e906003613cdf565b610e289190613cdf565b610e33906001613cc6565b60ff16905060007f00000000000000000000000000000000000000000000000000000000000000006001600160a01b03166339e5c4a085600081518110610e7c57610e7c613c5e565b6020026020010151856040518363ffffffff1660e01b8152600401610ea2929190613d14565b600060405180830381865afa158015610ebf573d6000803e3d6000fd5b505050506040513d6000823e601f3d908101601f19168201604052610ee79190810190613d42565b905060005b81518160ff161015610f5357818160ff1681518110610f0d57610f0d613c5e565b6020026020010151858260ff1685610f259190613df5565b81518110610f3557610f35613c5e565b60200260200101819052508080610f4b90613c8a565b915050610eec565b5050508080610f6190613c8a565b915050610df8565b50949350505050565b60408051608081018252600080825260208201819052918101829052606081019190915260ff80831660009081526003602081905260409091200154161515600114610fd05760405162461bcd60e51b815260040161040990613b4a565b6040516326811c4360e11b81526001600160a01b037f00000000000000000000000000000000000000000000000000000000000000001690634d0238869061101e9086908690600401613d14565b608060405180830381865afa15801561103b573d6000803e3d6000fd5b505050506040513d601f19601f8201168201806040525081019061105f9190613e08565b9392505050565b61106e612fb5565b60ff808216600090815260036020819052604090912001541615156001146110a85760405162461bcd60e51b815260040161040990613b4a565b60005b60ff82166000908152600360205260409020600201548110156111535760ff8216600090815260036020526040812060028101805460019092019291849081106110f7576110f7613c5e565b60009182526020808320909101546001600160a01b031683528201929092526040018120805461ffff191681556001810180546001600160c81b031916905560028101829055600301558061114b81613e89565b9150506110ab565b5060ff811660009081526003602052604081206111759160029091019061367d565b604051631a405d8760e31b815260ff8084166004830152821660248201527f00000000000000000000000000000000000000000000000000000000000000006001600160a01b03169063d202ec3890604401600060405180830381600087803b1580156111e157600080fd5b505af11580156111f5573d6000803e3d6000fd5b50506040516318068d3760e01b815260ff841660048201527f00000000000000000000000000000000000000000000000000000000000000006001600160a01b031692506318068d379150602401600060405180830381600087803b15801561125d57600080fd5b505af1158015611271573d6000803e3d6000fd5b50506040805160ff8087168252851660208201527fd76a0a97b7d547fef69b0cd90fb02087b761703ae2b5e4e91a99e8fd17e308ad935001905060405180910390a15050565b6112bf612fb5565b60ff8160ff16106113125760405162461bcd60e51b815260206004820152601f60248201527f4d6178696d756d206e756d626572206f662067616d65732072656163686564006044820152606401610409565b60ff8082166000908152600360208190526040909120015416156113865760405162461bcd60e51b815260206004820152602560248201527f47616d652077697468207468697320494420616c726561647920696e2070726f604482015264677265737360d81b6064820152608401610409565b60ff8116600081815260036020818152604092839020909101805460ff1916600117905590519182527f13cb55fc1bec4b9f4cd4c22f154240b469cb108a23a35aa599df0c3da46f2d1491016105a0565b6113df612fb5565b6113e9600061309d565b565b6113f3612fb5565b60ff8082166000908152600360208190526040909120015416151560011461142d5760405162461bcd60e51b815260040161040990613b4a565b60ff8116600081815260036020818152604092839020909101805460ff1916905590519182527f4df34531b3f238bc8f90ad83236d8c752e7444e434bb5fc99f888f0a6345c0e791016105a0565b611483612fb5565b60ff808216600090815260036020819052604090912001541615156001146114bd5760405162461bcd60e51b815260040161040990613b4a565b60ff811660009081526003602052604081206002015467ffffffffffffffff8111156114eb576114eb6136c8565b60405190808252806020026020018201604052801561153057816020015b60408051808201909152600080825260208201528152602001906001900390816115095790505b5060ff83166000908152600360205260408120600201549192509067ffffffffffffffff811115611563576115636136c8565b60405190808252806020026020018201604052801561158c578160200160208202803683370190505b50905060005b60ff80851660009081526003602052604090206002015490821610156115eb576001828260ff16815181106115c9576115c9613c5e565b91151560209283029190910190910152806115e381613c8a565b915050611592565b5060005b60ff8085166000908152600360205260409020600201549082161015611a3b5760ff8085166000908152600360205260408120600281018054600190920193909190851690811061164257611642613c5e565b60009182526020808320909101546001600160a01b0316835282019290925260400190206001015460ff6401000000009091041615611a295760ff8085166000908152600360205260408120600281018054929384936001600160a01b037f00000000000000000000000000000000000000000000000000000000000000001693631cf8a3219360019091019286929089169081106116e3576116e3613c5e565b60009182526020808320909101546001600160a01b03168352828101939093526040918201812060ff808d168352600390945291812060028101805493946001929092019390918a1690811061173b5761173b613c5e565b60009182526020808320909101546001600160a01b03168352828101939093526040918201812060019081015460ff8e811684526003909552928220600281018054948616959190920193908b1690811061179857611798613c5e565b60009182526020808320909101546001600160a01b0316835282019290925260409081019091206001015490516001600160e01b031960e086901b1681526117f093929160ff61010090910416908c90600401613ea2565b606060405180830381865afa15801561180d573d6000803e3d6000fd5b505050506040513d601f19601f820116820180604052508101906118319190613c0e565b91509150811561191e5760ff8087166000908152600360205260409020600201805461188492861690811061186857611868613c5e565b6000918252602090912001546001600160a01b031684886130ed565b6000848460ff168151811061189b5761189b613c5e565b602002602001019015159081151581525050600360008760ff1681526020019081526020016000206002018360ff16815481106118da576118da613c5e565b60009182526020822001546040516001600160a01b03909116917fc9d98a36ffe0495d3a50a0bac4845433395c60e4b8e8d58a5e948f4b5011418e91a25050611a29565b60ff8087166000908152600360205260408120600281018054859460019093019392881690811061195157611951613c5e565b60009182526020808320909101546001600160a01b031683528281019390935260409182018120845181549585015160ff9081166101000261ffff19909716918116919091179590951790558984168152600390925290206002018054909185169081106119c1576119c1613c5e565b600091825260209182902001548251918301516040516001600160a01b03909216927ff3758096c44bcc832b837f76e2a02b432740f9c56f41e6b238aa673ca9355e5092611a1e929060ff92831681529116602082015260400190565b60405180910390a250505b80611a3381613c8a565b9150506115ef565b5060005b60ff8085166000908152600360205260409020600201549082161015611d0357818160ff1681518110611a7457611a74613c5e565b602002602001015115611cf15760ff808516600090815260036020526040812060028101805492936001600160a01b037f0000000000000000000000000000000000000000000000000000000000000000169363d6192ad3936001019286929091908816908110611ae757611ae7613c5e565b60009182526020808320909101546001600160a01b03168352828101939093526040918201812060ff808c168352600390945291812060028101805493946001929092019390918916908110611b3f57611b3f613c5e565b60009182526020808320909101546001600160a01b03168352828101939093526040918201812060019081015460ff8d811684526003909552928220600281018054620100009095048616959190920193908a16908110611ba257611ba2613c5e565b60009182526020808320909101546001600160a01b0316835282019290925260409081019091206001015490516001600160e01b031960e086901b168152611bfa93929160ff63010000009091041690600401613ec0565b6040805180830381865afa158015611c16573d6000803e3d6000fd5b505050506040513d601f19601f82011682018060405250810190611c3a9190613c42565b905080848360ff1681518110611c5257611c52613c5e565b6020026020010181905250600360008660ff1681526020019081526020016000206002018260ff1681548110611c8a57611c8a613c5e565b600091825260209182902001548251918301516040516001600160a01b03909216927f7f1b3d59a1d73150652f33f7a7016f0fff7ef8e824e5b6a436717673b484a8a792611ce7929060ff92831681529116602082015260400190565b60405180910390a2505b80611cfb81613c8a565b915050611a3f565b5060005b60ff808516600090815260036020526040902060020154908216101561231d5760005b60ff808616600090815260036020526040902060020154908216101561230a578060ff168260ff16146122f857828260ff1681518110611d6c57611d6c613c5e565b60200260200101518015611d995750828160ff1681518110611d9057611d90613c5e565b60200260200101515b8015611e58575060ff80861660009081526003602052604081206002810180546001909201939091908616908110611dd357611dd3613c5e565b60009182526020808320909101546001600160a01b0316835282810193909352604091820181205460ff89811683526003909452918120600281018054938516946001929092019390918616908110611e2e57611e2e613c5e565b60009182526020808320909101546001600160a01b0316835282019290925260400190205460ff16145b8015611f22575060ff80861660009081526003602052604081206002810180546001909201939091908616908110611e9257611e92613c5e565b60009182526020808320909101546001600160a01b0316835282810193909352604091820181205460ff898116835260039094529181206002810180546101009094048516946001929092019390918616908110611ef257611ef2613c5e565b60009182526020808320909101546001600160a01b0316835282019290925260400190205460ff61010090910416145b156120de576000838360ff1681518110611f3e57611f3e613c5e565b6020026020010190151590811515815250506000838260ff1681518110611f6757611f67613c5e565b91151560209283029190910182015260ff8087166000908152600390925260409091206002018054611fc0928516908110611fa457611fa4613c5e565b6000918252602090912001546001600160a01b031683876130ed565b60ff80861660009081526003602052604090206002018054612009928416908110611fed57611fed613c5e565b6000918252602090912001546001600160a01b031682876130ed565b600360008660ff1681526020019081526020016000206002018260ff168154811061203657612036613c5e565b60009182526020822001546040516001600160a01b03909116917ff6efc0f0f7270e6470ae421c2c220a2930f349c2e85e2cff70701cb5ee7b1de291a2600360008660ff1681526020019081526020016000206002018160ff16815481106120a0576120a0613c5e565b60009182526020822001546040516001600160a01b03909116917ff6efc0f0f7270e6470ae421c2c220a2930f349c2e85e2cff70701cb5ee7b1de291a25b828260ff16815181106120f3576120f3613c5e565b60200260200101518015612187575060ff8086166000908152600360205260408120600281018054600190920193909190861690811061213557612135613c5e565b60009182526020808320909101546001600160a01b03168352820192909252604001902054845160ff91821691869190841690811061217657612176613c5e565b60200260200101516000015160ff16145b8015612218575060ff808616600090815260036020526040812060028101805460019092019390919086169081106121c1576121c1613c5e565b60009182526020808320909101546001600160a01b03168352820192909252604001902054845160ff610100909204821691869190841690811061220757612207613c5e565b60200260200101516020015160ff16145b156122f85760ff8086166000908152600360205260409020600201805461224a928516908110611fa457611fa4613c5e565b600360008660ff1681526020019081526020016000206002018160ff168154811061227757612277613c5e565b600091825260208083209091015460ff80891684526003909252604090922060020180546001600160a01b0390931692909185169081106122ba576122ba613c5e565b60009182526020822001546040516001600160a01b03909116917f702e79c3c668b5e07dd82bee771df58a589de806961a825fe169e324ceec57d791a35b8061230281613c8a565b915050611d2a565b508061231581613c8a565b915050611d07565b5060005b60ff80851660009081526003602052604090206002015490821610156124aa5760006001600160a01b0316600360008660ff1681526020019081526020016000206002018260ff168154811061237957612379613c5e565b6000918252602090912001546001600160a01b0316036124985760ff8416600090815260036020526040902060020180546123b690600190613ef8565b815481106123c6576123c6613c5e565b9060005260206000200160009054906101000a90046001600160a01b0316600360008660ff1681526020019081526020016000206002018260ff168154811061241157612411613c5e565b600091825260208083209190910180546001600160a01b0319166001600160a01b03949094169390931790925560ff8616815260039091526040902060020180548061245f5761245f613f0b565b600082815260209020810160001990810180546001600160a01b031916905501905560ff811615612498578061249481613f21565b9150505b806124a281613c8a565b915050612321565b5060ff83166000908152600360205260408120600201549003612542577fb609981dd10c4309ee2f55e2fd9b631438fb9d9de43270f098b64571e58352db604051612512906020808252600990820152682737903bb4b73732b960b91b604082015260600190565b60405180910390a160ff8316600090815260036020819052604090912001805461ff001916610100179055505050565b60ff83166000908152600360205260409020600201546001036125ed5760ff8316600090815260036020526040812060020180547fb609981dd10c4309ee2f55e2fd9b631438fb9d9de43270f098b64571e58352db926125c392916125a9576125a9613c5e565b6000918252602090912001546001600160a01b031661326a565b6040516020016125d39190613f3e565b60408051601f198184030181529082905261251291613f7a565b60ff83166000908152600360205260408120600201805490919061261357612613613c5e565b60009182526020822001546040516001600160a01b0390911691907f71c863affc60bf856f78adf835c2f8d43a35f214dc51c98e8b9953560f30bf82908290a360005b60ff808516600090815260036020526040902060020154908216101561286b5760ff80851660009081526003602052604081206002810180546006946001909301939286169081106126aa576126aa613c5e565b60009182526020808320909101546001600160a01b03168352820192909252604001902060019081018054909160ff19909116908360068111156126f0576126f0613848565b021790555060ff808516600090815260036020526040812060028101805492936001909201928492861690811061272957612729613c5e565b6000918252602080832091909101546001600160a01b0316835282810193909352604091820181206001908101805461ff00191661010060ff978816021790558885168252600390935290812060028101805460069592909401939091861690811061279757612797613c5e565b60009182526020808320909101546001600160a01b031683528201929092526040019020600101805462ff00001916620100008360068111156127dc576127dc613848565b021790555060ff808516600090815260036020526040812060028101805492936001909201928492861690811061281557612815613c5e565b60009182526020808320909101546001600160a01b031683528201929092526040019020600101805460ff9290921663010000000263ff000000199092169190911790558061286381613c8a565b915050612656565b5060ff8316600090815260036020819052604090912001805463ff000000191690555b505050565b6004602052600090815260409020805481906128ae90613f8d565b80601f01602080910402602001604051908101604052809291908181526020018280546128da90613f8d565b80156129275780601f106128fc57610100808354040283529160200191612927565b820191906000526020600020905b81548152906001019060200180831161290a57829003601f168201915b5050506001909301549192505060ff8082169161010090041683565b604080518082019091526000808252602082015260ff808316600090815260036020819052604090912001541615156001146129915760405162461bcd60e51b815260040161040990613b4a565b604051630d42527560e11b81526001600160a01b037f00000000000000000000000000000000000000000000000000000000000000001690631a84a4ea906129e190889088908890600401613fc7565b6040805180830381865afa1580156129fd573d6000803e3d6000fd5b505050506040513d601f19601f82011682018060405250810190612a219190613c42565b95945050505050565b60ff8181166000908152600360208190526040909120015463010000009004161515600114612aa55760405162461bcd60e51b815260206004820152602160248201527f5375626d6974206d6f76657320686173206e6f742073746172746564207965746044820152602160f81b6064820152608401610409565b60ff80821660009081526003602081905260409091200154161515600114612adf5760405162461bcd60e51b815260040161040990613b4a565b60ff8116600090815260036020908152604080832033845260010190915281206002810154909190612b10906132a2565b9050848260010160006101000a81548160ff02191690836006811115612b3857612b38613848565b021790555060018201805461ff00191661010060ff8416021790556003820154600090612b64906132ee565b600184018054919250869162ff0000191662010000836006811115612b8b57612b8b613848565b021790555060018301805464ff000000001960ff84166301000000021664ffff000000199091161764010000000017905560405133907f63563f18a7ee7809189f125844fc3e755b5d0f355be5c5928a54ca925dcd576b90600090a2505050505050565b612bf7612fb5565b6001600160a01b038116612c5c5760405162461bcd60e51b815260206004820152602660248201527f4f776e61626c653a206e6577206f776e657220697320746865207a65726f206160448201526564647265737360d01b6064820152608401610409565b612c658161309d565b50565b60ff80821660009081526003602081905260409091200154606091161515600114612ca55760405162461bcd60e51b815260040161040990613b4a565b60ff821660009081526003602052604081206002015467ffffffffffffffff811115612cd357612cd36136c8565b604051908082528060200260200182016040528015612d0c57816020015b612cf9613622565b815260200190600190039081612cf15790505b509050612d406040518060400160405280601081526020016f52657472696576696e6720736869707360801b815250613325565b60005b60ff8416600090815260036020526040902060020154811015612edc5760ff841660009081526003602052604081206002810180546001909201929184908110612d8f57612d8f613c5e565b60009182526020808320909101546001600160a01b03168352828101939093526040918201902081516101608101909252805460ff8082166101208501908152610100909204811661014085015290835260018201549293919291840191166006811115612dff57612dff613848565b6006811115612e1057612e10613848565b8152600182015460ff61010082048116602084015260409092019162010000909104166006811115612e4457612e44613848565b6006811115612e5557612e55613848565b8152600182015460ff6301000000820481166020840152640100000000820416151560408301526001600160a01b03650100000000009091041660608201526002820154608082015260039091015460a0909101528251839083908110612ebe57612ebe613c5e565b60200260200101819052508080612ed490613e89565b915050612d43565b5092915050565b60ff80821660009081526003602081905260409091200154161515600114612f1d5760405162461bcd60e51b815260040161040990613b4a565b6000805b60ff8084166000908152600360205260409020600201549082161015612fa95760ff808416600090815260036020526040902060020180546001600160a01b038716928416908110612f7557612f75613c5e565b6000918252602090912001546001600160a01b031603612f9757809150612fa9565b80612fa181613c8a565b915050612f21565b5061288e8382846130ed565b6000546001600160a01b031633146113e95760405162461bcd60e51b815260206004820181905260248201527f4f776e61626c653a2063616c6c6572206973206e6f7420746865206f776e65726044820152606401610409565b61288e83838360405160240161302793929190613fe5565b60408051601f198184030181529190526020810180516001600160e01b031663ca47c4eb60e01b179052613364565b61288e83838360405160240161306e9392919061400a565b60408051601f198184030181529190526020810180516001600160e01b031663038fd88960e31b179052613364565b600080546001600160a01b038381166001600160a01b0319831681178455604051919092169283917f8be0079c531659141344cd1fd0a4f28419497f9722a3daafe3b4186f6b6457e09190a35050565b60ff808216600090815260036020526040902060020154908316106131545760405162461bcd60e51b815260206004820152601860248201527f496e6465782076616c7565206f7574206f662072616e676500000000000000006044820152606401610409565b60ff8082166000908152600360208190526040909120015416151560011461318e5760405162461bcd60e51b815260040161040990613b4a565b6040516001600160a01b038416907fce0e3c7f8595684f9560df3c82cb81a6c5a649fcf1bdc96b2dc8b7bf228d650090600090a260ff80821660008181526003602081815260408084206001600160a01b038a16855260018082018452918520805461ffff1916815591820180546001600160c81b0319169055600280830186905591840185905594845291905290910180549192909190851690811061323757613237613c5e565b9060005260206000200160006101000a8154816001600160a01b0302191690836001600160a01b03160217905550505050565b604051606082811b6bffffffffffffffffffffffff1916602083015290610c5490603401604051602081830303815290604052613385565b6000806132ad61359e565b905060006132d9826132c086600361403d565b6132ca919061403d565b68055de6a779bbac00006135ff565b9050600381111561105f575060039392505050565b6000806132f961359e565b905060006132d98261330c86600361403d565b613316919061403d565b68056bc75e2d631000006135ff565b612c65816040516024016133399190613f7a565b60408051601f198184030181529190526020810180516001600160e01b031663104c13eb60e21b1790525b80516a636f6e736f6c652e6c6f67602083016000808483855afa5050505050565b60408051808201909152601081526f181899199a1a9b1b9c1cb0b131b232b360811b60208201528151606091906000906133c090600261403d565b6133cb906002613df5565b67ffffffffffffffff8111156133e3576133e36136c8565b6040519080825280601f01601f19166020018201604052801561340d576020820181803683370190505b509050600360fc1b8160008151811061342857613428613c5e565b60200101906001600160f81b031916908160001a905350600f60fb1b8160018151811061345757613457613c5e565b60200101906001600160f81b031916908160001a90535060005b84518110156135965782600486838151811061348f5761348f613c5e565b016020015182516001600160f81b031990911690911c60f81c9081106134b7576134b7613c5e565b01602001516001600160f81b031916826134d283600261403d565b6134dd906002613df5565b815181106134ed576134ed613c5e565b60200101906001600160f81b031916908160001a9053508285828151811061351757613517613c5e565b602091010151815160f89190911c600f1690811061353757613537613c5e565b01602001516001600160f81b0319168261355283600261403d565b61355d906003613df5565b8151811061356d5761356d613c5e565b60200101906001600160f81b031916908160001a9053508061358e81613e89565b915050613471565b509392505050565b6000670de0b6b3a764000043336040516020016135d792919091825260601b6bffffffffffffffffffffffff1916602082015260340190565b6040516020818303038152906040528051906020012060001c6135fa919061406a565b905090565b600081600161360e8286613df5565b6136189190613ef8565b61105f919061407e565b6040805161016081018252600061012082018181526101408301829052825260208201819052918101829052606081018290526080810182905260a0810182905260c0810182905260e0810182905261010081019190915290565b5080546000825590600052602060002090810190612c6591905b808211156136ab5760008155600101613697565b5090565b6000602082840312156136c157600080fd5b5035919050565b634e487b7160e01b600052604160045260246000fd5b6040805190810167ffffffffffffffff81118282101715613701576137016136c8565b60405290565b604051601f8201601f1916810167ffffffffffffffff81118282101715613730576137306136c8565b604052919050565b60ff81168114612c6557600080fd5b60006040828403121561375957600080fd5b6137616136de565b9050813561376e81613738565b8152602082013561377e81613738565b602082015292915050565b80356007811061379857600080fd5b919050565b60008060008060a085870312156137b357600080fd5b6137bd8686613747565b93506137cb60408601613789565b925060608501356137db81613738565b915060808501356137eb81613738565b939692955090935050565b60006020828403121561380857600080fd5b813561105f81613738565b60008060006060848603121561382857600080fd5b833561383381613738565b95602085013595506040909401359392505050565b634e487b7160e01b600052602160045260246000fd5b6007811061387c57634e487b7160e01b600052602160045260246000fd5b9052565b61389b828251805160ff908116835260209182015116910152565b60208101516138ad604084018261385e565b5060ff604082015116606083015260608101516138cd608084018261385e565b5060ff60808201511660a083015260a08101516138ee60c084018215159052565b5060c08101516001600160a01b03811660e08401525060e081015161010083810191909152015161012090910152565b6101408101610c548284613880565b602080825282518282018190526000919060409081850190868401855b8281101561397d5761396d848351805160ff908116835260209182015116910152565b928401929085019060010161394a565b5091979650505050505050565b6000806060838503121561399d57600080fd5b6139a78484613747565b915060408301356139b781613738565b809150509250929050565b600080604083850312156139d557600080fd5b82356139e081613738565b915060208301356139b781613738565b600060208284031215613a0257600080fd5b81356001600160a01b038116811461105f57600080fd5b60005b83811015613a34578181015183820152602001613a1c565b50506000910152565b60008151808452613a55816020860160208601613a19565b601f01601f19169290920160200192915050565b606081526000613a7c6060830186613a3d565b60ff94851660208401529290931660409091015292915050565b60408101610c548284805160ff908116835260209182015116910152565b600080600060608486031215613ac957600080fd5b613ad284613789565b9250613ae060208501613789565b91506040840135613af081613738565b809150509250925092565b6020808252825182820181905260009190848201906040850190845b81811015613b3e57613b2a838551613880565b928401926101409290920191600101613b17565b50909695505050505050565b60208082526019908201527f47616d6520686173206e6f742073746172746564207965742100000000000000604082015260600190565b60a08101613b9f8287805160ff908116835260209182015116910152565b613bac604083018661385e565b60ff8416606083015260ff8316608083015295945050505050565b8051801515811461379857600080fd5b600060408284031215613be957600080fd5b613bf16136de565b90508151613bfe81613738565b8152602082015161377e81613738565b60008060608385031215613c2157600080fd5b613c2a83613bc7565b9150613c398460208501613bd7565b90509250929050565b600060408284031215613c5457600080fd5b61105f8383613bd7565b634e487b7160e01b600052603260045260246000fd5b634e487b7160e01b600052601160045260246000fd5b600060ff821660ff8103613ca057613ca0613c74565b60010192915050565b600060208284031215613cbb57600080fd5b815161105f81613738565b60ff8181168382160190811115610c5457610c54613c74565b60ff8181168382160290811690818114612edc57612edc613c74565b60ff8281168282160390811115610c5457610c54613c74565b60608101613d328285805160ff908116835260209182015116910152565b60ff831660408301529392505050565b60006020808385031215613d5557600080fd5b825167ffffffffffffffff80821115613d6d57600080fd5b818501915085601f830112613d8157600080fd5b815181811115613d9357613d936136c8565b613da1848260051b01613707565b818152848101925060069190911b830184019087821115613dc157600080fd5b928401925b81841015613dea57613dd88885613bd7565b83528483019250604084019350613dc6565b979650505050505050565b80820180821115610c5457610c54613c74565b600060808284031215613e1a57600080fd5b6040516080810181811067ffffffffffffffff82111715613e3d57613e3d6136c8565b6040528251613e4b81613738565b81526020830151613e5b81613738565b6020820152613e6c60408401613bc7565b6040820152613e7d60608401613bc7565b60608201529392505050565b600060018201613e9b57613e9b613c74565b5060010190565b845460ff808216835260089190911c16602082015260a08101613b9f565b835460ff808216835260089190911c166020820152608081015b613ee7604083018561385e565b60ff83166060830152949350505050565b81810381811115610c5457610c54613c74565b634e487b7160e01b600052603160045260246000fd5b600060ff821680613f3457613f34613c74565b6000190192915050565b7302a34329023b0b6b2903bb4b73732b91034b99d160651b815260008251613f6d816014850160208701613a19565b9190910160140192915050565b60208152600061105f6020830184613a3d565b600181811c90821680613fa157607f821691505b602082108103613fc157634e487b7160e01b600052602260045260246000fd5b50919050565b60808101613eda8286805160ff908116835260209182015116910152565b606081526000613ff86060830186613a3d565b60208301949094525060400152919050565b60608152600061401d6060830186613a3d565b6020830194909452506001600160a01b0391909116604090910152919050565b8082028115828204841417610c5457610c54613c74565b634e487b7160e01b600052601260045260246000fd5b60008261407957614079614054565b500690565b60008261408d5761408d614054565b50049056fea26469706673582212203a4cedb0539a5e3c4f1700b9ba787fa94fca12e506afea698fdd922534e2a96064736f6c63430008120033",
  "linkReferences": {},
  "deployedLinkReferences": {}
}