{
  "_format": "hh-sol-artifact-1",
  "contractName": "Game",
  "sourceName": "contracts/Game.sol",
  "abi": [
    {
      "inputs": [
        {
          "internalType": "address",
          "name": "_mapAddress",
          "type": "address"
        }
      ],
      "stateMutability": "nonpayable",
      "type": "constructor"
    },
    {
      "inputs": [
        {
          "internalType": "address",
          "name": "player",
          "type": "address"
        },
        {
          "internalType": "uint8",
          "name": "q",
          "type": "uint8"
        },
        {
          "internalType": "uint8",
          "name": "r",
          "type": "uint8"
        }
      ],
      "name": "ShipAlreadyAdded",
      "type": "error"
    },
    {
      "anonymous": false,
      "inputs": [
        {
          "indexed": true,
          "internalType": "address",
          "name": "player",
          "type": "address"
        }
      ],
      "name": "PlayerAdded",
      "type": "event"
    },
    {
      "anonymous": false,
      "inputs": [
        {
          "indexed": true,
          "internalType": "address",
          "name": "player",
          "type": "address"
        }
      ],
      "name": "PlayerDefeated",
      "type": "event"
    },
    {
      "inputs": [],
      "name": "addShip",
      "outputs": [
        {
          "components": [
            {
              "components": [
                {
                  "internalType": "uint8",
                  "name": "q",
                  "type": "uint8"
                },
                {
                  "internalType": "uint8",
                  "name": "r",
                  "type": "uint8"
                }
              ],
              "internalType": "struct SharedStructs.Coordinate",
              "name": "coordinate",
              "type": "tuple"
            },
            {
              "internalType": "enum SharedStructs.Directions",
              "name": "travelDirection",
              "type": "uint8"
            },
            {
              "internalType": "uint8",
              "name": "travelDistane",
              "type": "uint8"
            },
            {
              "internalType": "enum SharedStructs.Directions",
              "name": "shotDirection",
              "type": "uint8"
            },
            {
              "internalType": "uint8",
              "name": "shotDistance",
              "type": "uint8"
            },
            {
              "internalType": "bool",
              "name": "publishedMove",
              "type": "bool"
            },
            {
              "internalType": "address",
              "name": "captain",
              "type": "address"
            }
          ],
          "internalType": "struct Game.Ship",
          "name": "",
          "type": "tuple"
        }
      ],
      "stateMutability": "nonpayable",
      "type": "function"
    },
    {
      "inputs": [],
      "name": "gameInProgress",
      "outputs": [
        {
          "internalType": "bool",
          "name": "",
          "type": "bool"
        }
      ],
      "stateMutability": "view",
      "type": "function"
    },
    {
      "inputs": [
        {
          "components": [
            {
              "internalType": "uint8",
              "name": "q",
              "type": "uint8"
            },
            {
              "internalType": "uint8",
              "name": "r",
              "type": "uint8"
            }
          ],
          "internalType": "struct SharedStructs.Coordinate",
          "name": "_coord",
          "type": "tuple"
        }
      ],
      "name": "getCell",
      "outputs": [
        {
          "components": [
            {
              "internalType": "uint8",
              "name": "q",
              "type": "uint8"
            },
            {
              "internalType": "uint8",
              "name": "r",
              "type": "uint8"
            },
            {
              "internalType": "bool",
              "name": "island",
              "type": "bool"
            },
            {
              "internalType": "bool",
              "name": "exists",
              "type": "bool"
            }
          ],
          "internalType": "struct SharedStructs.Cell",
          "name": "",
          "type": "tuple"
        }
      ],
      "stateMutability": "view",
      "type": "function"
    },
    {
      "inputs": [],
      "name": "getCells",
      "outputs": [
        {
          "components": [
            {
              "internalType": "uint8",
              "name": "q",
              "type": "uint8"
            },
            {
              "internalType": "uint8",
              "name": "r",
              "type": "uint8"
            }
          ],
          "internalType": "struct SharedStructs.Coordinate[]",
          "name": "",
          "type": "tuple[]"
        }
      ],
      "stateMutability": "view",
      "type": "function"
    },
    {
      "inputs": [],
      "name": "getRadius",
      "outputs": [
        {
          "internalType": "uint8",
          "name": "",
          "type": "uint8"
        }
      ],
      "stateMutability": "view",
      "type": "function"
    },
    {
      "inputs": [],
      "name": "getShips",
      "outputs": [
        {
          "components": [
            {
              "components": [
                {
                  "internalType": "uint8",
                  "name": "q",
                  "type": "uint8"
                },
                {
                  "internalType": "uint8",
                  "name": "r",
                  "type": "uint8"
                }
              ],
              "internalType": "struct SharedStructs.Coordinate",
              "name": "coordinate",
              "type": "tuple"
            },
            {
              "internalType": "enum SharedStructs.Directions",
              "name": "travelDirection",
              "type": "uint8"
            },
            {
              "internalType": "uint8",
              "name": "travelDistane",
              "type": "uint8"
            },
            {
              "internalType": "enum SharedStructs.Directions",
              "name": "shotDirection",
              "type": "uint8"
            },
            {
              "internalType": "uint8",
              "name": "shotDistance",
              "type": "uint8"
            },
            {
              "internalType": "bool",
              "name": "publishedMove",
              "type": "bool"
            },
            {
              "internalType": "address",
              "name": "captain",
              "type": "address"
            }
          ],
          "internalType": "struct Game.Ship[]",
          "name": "",
          "type": "tuple[]"
        }
      ],
      "stateMutability": "view",
      "type": "function"
    },
    {
      "inputs": [
        {
          "internalType": "uint8",
          "name": "_radius",
          "type": "uint8"
        }
      ],
      "name": "initGame",
      "outputs": [],
      "stateMutability": "nonpayable",
      "type": "function"
    },
    {
      "inputs": [
        {
          "components": [
            {
              "internalType": "uint8",
              "name": "q",
              "type": "uint8"
            },
            {
              "internalType": "uint8",
              "name": "r",
              "type": "uint8"
            }
          ],
          "internalType": "struct SharedStructs.Coordinate",
          "name": "_start",
          "type": "tuple"
        },
        {
          "internalType": "enum SharedStructs.Directions",
          "name": "_dir",
          "type": "uint8"
        },
        {
          "internalType": "uint8",
          "name": "_distance",
          "type": "uint8"
        }
      ],
      "name": "move",
      "outputs": [
        {
          "components": [
            {
              "internalType": "uint8",
              "name": "q",
              "type": "uint8"
            },
            {
              "internalType": "uint8",
              "name": "r",
              "type": "uint8"
            }
          ],
          "internalType": "struct SharedStructs.Coordinate",
          "name": "",
          "type": "tuple"
        }
      ],
      "stateMutability": "view",
      "type": "function"
    },
    {
      "inputs": [
        {
          "internalType": "uint256",
          "name": "",
          "type": "uint256"
        }
      ],
      "name": "players",
      "outputs": [
        {
          "internalType": "address",
          "name": "",
          "type": "address"
        }
      ],
      "stateMutability": "view",
      "type": "function"
    },
    {
      "inputs": [
        {
          "internalType": "enum SharedStructs.Directions",
          "name": "travelDir",
          "type": "uint8"
        },
        {
          "internalType": "uint8",
          "name": "travelDist",
          "type": "uint8"
        },
        {
          "internalType": "enum SharedStructs.Directions",
          "name": "shotDir",
          "type": "uint8"
        },
        {
          "internalType": "uint8",
          "name": "shotDist",
          "type": "uint8"
        }
      ],
      "name": "revealMove",
      "outputs": [],
      "stateMutability": "nonpayable",
      "type": "function"
    },
    {
      "inputs": [],
      "name": "round",
      "outputs": [
        {
          "internalType": "uint256",
          "name": "",
          "type": "uint256"
        }
      ],
      "stateMutability": "view",
      "type": "function"
    },
    {
      "inputs": [
        {
          "internalType": "address",
          "name": "",
          "type": "address"
        }
      ],
      "name": "ships",
      "outputs": [
        {
          "components": [
            {
              "internalType": "uint8",
              "name": "q",
              "type": "uint8"
            },
            {
              "internalType": "uint8",
              "name": "r",
              "type": "uint8"
            }
          ],
          "internalType": "struct SharedStructs.Coordinate",
          "name": "coordinate",
          "type": "tuple"
        },
        {
          "internalType": "enum SharedStructs.Directions",
          "name": "travelDirection",
          "type": "uint8"
        },
        {
          "internalType": "uint8",
          "name": "travelDistane",
          "type": "uint8"
        },
        {
          "internalType": "enum SharedStructs.Directions",
          "name": "shotDirection",
          "type": "uint8"
        },
        {
          "internalType": "uint8",
          "name": "shotDistance",
          "type": "uint8"
        },
        {
          "internalType": "bool",
          "name": "publishedMove",
          "type": "bool"
        },
        {
          "internalType": "address",
          "name": "captain",
          "type": "address"
        }
      ],
      "stateMutability": "view",
      "type": "function"
    },
    {
      "inputs": [
        {
          "components": [
            {
              "internalType": "uint8",
              "name": "q",
              "type": "uint8"
            },
            {
              "internalType": "uint8",
              "name": "r",
              "type": "uint8"
            }
          ],
          "internalType": "struct SharedStructs.Coordinate",
          "name": "_startCell",
          "type": "tuple"
        },
        {
          "internalType": "enum SharedStructs.Directions",
          "name": "_direction",
          "type": "uint8"
        },
        {
          "internalType": "uint8",
          "name": "_distance",
          "type": "uint8"
        }
      ],
      "name": "travel",
      "outputs": [],
      "stateMutability": "nonpayable",
      "type": "function"
    },
    {
      "inputs": [],
      "name": "updateWorld",
      "outputs": [],
      "stateMutability": "nonpayable",
      "type": "function"
    }
  ],
  "bytecode": "0x60a06040523480156200001157600080fd5b506040516200374f3803806200374f8339818101604052810190620000379190620000dc565b8073ffffffffffffffffffffffffffffffffffffffff1660808173ffffffffffffffffffffffffffffffffffffffff1681525050506200010e565b600080fd5b600073ffffffffffffffffffffffffffffffffffffffff82169050919050565b6000620000a48262000077565b9050919050565b620000b68162000097565b8114620000c257600080fd5b50565b600081519050620000d681620000ab565b92915050565b600060208284031215620000f557620000f462000072565b5b60006200010584828501620000c5565b91505092915050565b6080516135e66200016960003960008181610435015281816104c00152818161056c01528181610616015281816107bd0152818161090f01528181610d8901528181610fd4015281816118c90152611cd001526135e66000f3fe608060405234801561001057600080fd5b50600436106100ea5760003560e01c80636738f2341161008c578063e474af2c11610066578063e474af2c14610255578063eaea26af14610271578063ecba2dd71461027b578063f71d96cb14610297576100ea565b80636738f234146101fb57806396ace1bb14610219578063bd85f86114610237576100ea565b8063374aed97116100c8578063374aed97146101595780633ac245d9146101775780633fb64e75146101a757806348ccd3d7146101c5576100ea565b80630452aa75146100ef578063146ca5311461010b5780631a84a4ea14610129575b600080fd5b61010960048036038101906101049190612526565b6102c7565b005b61011361055c565b604051610120919061256c565b60405180910390f35b610143600480360381019061013e919061268d565b610562565b604051610150919061271e565b60405180910390f35b610161610610565b60405161016e9190612817565b60405180910390f35b610191600480360381019061018c9190612839565b610905565b60405161019e91906128d6565b60405180910390f35b6101af6109ae565b6040516101bc9190612900565b60405180910390f35b6101df60048036038101906101da9190612979565b6109c1565b6040516101f29796959493929190612a3b565b60405180910390f35b610203610aa8565b6040516102109190612c08565b60405180910390f35b610221610d85565b60405161022e9190612c2a565b60405180910390f35b61023f610e1b565b60405161024c9190612cd4565b60405180910390f35b61026f600480360381019061026a9190612cf0565b6115d4565b005b6102796117be565b005b6102956004803603810190610290919061268d565b611ccb565b005b6102b160048036038101906102ac9190612d83565b611e50565b6040516102be9190612db0565b60405180910390f35b60005b6002805490508110156104245760016000600283815481106102ef576102ee612dcb565b5b9060005260206000200160009054906101000a900473ffffffffffffffffffffffffffffffffffffffff1673ffffffffffffffffffffffffffffffffffffffff1673ffffffffffffffffffffffffffffffffffffffff1681526020019081526020016000206000808201600080820160006101000a81549060ff02191690556000820160016101000a81549060ff021916905550506001820160006101000a81549060ff02191690556001820160016101000a81549060ff02191690556001820160026101000a81549060ff02191690556001820160036101000a81549060ff02191690556001820160046101000a81549060ff02191690556001820160056101000a81549073ffffffffffffffffffffffffffffffffffffffff02191690555050808061041c90612e29565b9150506102ca565b506002600061043391906123c4565b7f000000000000000000000000000000000000000000000000000000000000000073ffffffffffffffffffffffffffffffffffffffff1663669636e2826040518263ffffffff1660e01b815260040161048c9190612c2a565b600060405180830381600087803b1580156104a657600080fd5b505af11580156104ba573d6000803e3d6000fd5b505050507f000000000000000000000000000000000000000000000000000000000000000073ffffffffffffffffffffffffffffffffffffffff1663949996886040518163ffffffff1660e01b8152600401600060405180830381600087803b15801561052657600080fd5b505af115801561053a573d6000803e3d6000fd5b505050506001600360006101000a81548160ff02191690831515021790555050565b60005481565b61056a6123e5565b7f000000000000000000000000000000000000000000000000000000000000000073ffffffffffffffffffffffffffffffffffffffff16631a84a4ea8585856040518463ffffffff1660e01b81526004016105c793929190612e71565b6040805180830381865afa1580156105e3573d6000803e3d6000fd5b505050506040513d601f19601f820116820180604052508101906106079190612f0d565b90509392505050565b606060007f000000000000000000000000000000000000000000000000000000000000000073ffffffffffffffffffffffffffffffffffffffff1663217f43536040518163ffffffff1660e01b8152600401602060405180830381865afa15801561067f573d6000803e3d6000fd5b505050506040513d601f19601f820116820180604052508101906106a39190612f3a565b905060006001826106b49190612f67565b8260036106c19190612f9c565b6106cb9190612f9c565b60016106d79190612f67565b60ff16905060008167ffffffffffffffff8111156106f8576106f761259d565b5b60405190808252806020026020018201604052801561073157816020015b61071e6123e5565b8152602001906001900390816107165790505b50905060405180604001604052808460ff1681526020018460ff168152508160008151811061076357610762612dcb565b5b60200260200101819052506000600190505b8360ff168160ff16116108fb576000816001836107929190612fd9565b600361079e9190612f9c565b6107a89190612f9c565b60016107b49190612f67565b60ff16905060007f000000000000000000000000000000000000000000000000000000000000000073ffffffffffffffffffffffffffffffffffffffff166339e5c4a08560008151811061080b5761080a612dcb565b5b6020026020010151856040518363ffffffff1660e01b815260040161083192919061300e565b600060405180830381865afa15801561084e573d6000803e3d6000fd5b505050506040513d6000823e3d601f19601f820116820180604052508101906108779190613104565b905060005b81518160ff1610156108e557818160ff168151811061089e5761089d612dcb565b5b6020026020010151858260ff16856108b6919061314d565b815181106108c7576108c6612dcb565b5b602002602001018190525080806108dd90613181565b91505061087c565b50505080806108f390613181565b915050610775565b5080935050505090565b61090d612405565b7f000000000000000000000000000000000000000000000000000000000000000073ffffffffffffffffffffffffffffffffffffffff16633ac245d9836040518263ffffffff1660e01b8152600401610966919061271e565b608060405180830381865afa158015610983573d6000803e3d6000fd5b505050506040513d601f19601f820116820180604052508101906109a7919061324e565b9050919050565b600360009054906101000a900460ff1681565b6001602052806000526040600020600091509050806000016040518060400160405290816000820160009054906101000a900460ff1660ff1660ff1681526020016000820160019054906101000a900460ff1660ff1660ff1681525050908060010160009054906101000a900460ff16908060010160019054906101000a900460ff16908060010160029054906101000a900460ff16908060010160039054906101000a900460ff16908060010160049054906101000a900460ff16908060010160059054906101000a900473ffffffffffffffffffffffffffffffffffffffff16905087565b6060600060028054905067ffffffffffffffff811115610acb57610aca61259d565b5b604051908082528060200260200182016040528015610b0457816020015b610af1612437565b815260200190600190039081610ae95790505b509050610b456040518060400160405280601081526020017f52657472696576696e6720736869707300000000000000000000000000000000815250611e8f565b60005b600280549050811015610d7d576001600060028381548110610b6d57610b6c612dcb565b5b9060005260206000200160009054906101000a900473ffffffffffffffffffffffffffffffffffffffff1673ffffffffffffffffffffffffffffffffffffffff1673ffffffffffffffffffffffffffffffffffffffff1681526020019081526020016000206040518060e0016040529081600082016040518060400160405290816000820160009054906101000a900460ff1660ff1660ff1681526020016000820160019054906101000a900460ff1660ff1660ff168152505081526020016001820160009054906101000a900460ff166005811115610c5057610c4f6129a6565b5b6005811115610c6257610c616129a6565b5b81526020016001820160019054906101000a900460ff1660ff1660ff1681526020016001820160029054906101000a900460ff166005811115610ca857610ca76129a6565b5b6005811115610cba57610cb96129a6565b5b81526020016001820160039054906101000a900460ff1660ff1660ff1681526020016001820160049054906101000a900460ff161515151581526020016001820160059054906101000a900473ffffffffffffffffffffffffffffffffffffffff1673ffffffffffffffffffffffffffffffffffffffff1673ffffffffffffffffffffffffffffffffffffffff1681525050828281518110610d5f57610d5e612dcb565b5b60200260200101819052508080610d7590612e29565b915050610b48565b508091505090565b60007f000000000000000000000000000000000000000000000000000000000000000073ffffffffffffffffffffffffffffffffffffffff1663217f43536040518163ffffffff1660e01b8152600401602060405180830381865afa158015610df2573d6000803e3d6000fd5b505050506040513d601f19601f82011682018060405250810190610e169190612f3a565b905090565b610e23612437565b6000600160003373ffffffffffffffffffffffffffffffffffffffff1673ffffffffffffffffffffffffffffffffffffffff16815260200190815260200160002060000160000160009054906101000a900460ff1660ff16118015610edd57506000600160003373ffffffffffffffffffffffffffffffffffffffff1673ffffffffffffffffffffffffffffffffffffffff16815260200190815260200160002060000160000160019054906101000a900460ff1660ff16115b15610fc75733600160003373ffffffffffffffffffffffffffffffffffffffff1673ffffffffffffffffffffffffffffffffffffffff16815260200190815260200160002060000160000160009054906101000a900460ff16600160003373ffffffffffffffffffffffffffffffffffffffff1673ffffffffffffffffffffffffffffffffffffffff16815260200190815260200160002060000160000160019054906101000a900460ff166040517f8538db70000000000000000000000000000000000000000000000000000000008152600401610fbe9392919061327b565b60405180910390fd5b610fcf6123e5565b60005b7f000000000000000000000000000000000000000000000000000000000000000073ffffffffffffffffffffffffffffffffffffffff166336579c5b6040518163ffffffff1660e01b815260040160408051808303816000875af115801561103e573d6000803e3d6000fd5b505050506040513d601f19601f820116820180604052508101906110629190612f0d565b91506110b26040518060400160405280601381526020017f4e657720726e6420706169722025732c20257300000000000000000000000000815250836000015160ff16846020015160ff16611f28565b60005b6002805490508160ff1610156112b2576111496040518060400160405280601781526020017f696e206c6f6f702025732c20616464726573733a2025730000000000000000008152508260ff1660028460ff168154811061111957611118612dcb565b5b9060005260206000200160009054906101000a900473ffffffffffffffffffffffffffffffffffffffff16611fc7565b826000015160ff166001600060028460ff168154811061116c5761116b612dcb565b5b9060005260206000200160009054906101000a900473ffffffffffffffffffffffffffffffffffffffff1673ffffffffffffffffffffffffffffffffffffffff1673ffffffffffffffffffffffffffffffffffffffff16815260200190815260200160002060000160000160009054906101000a900460ff1660ff161480156112915750826020015160ff166001600060028460ff168154811061121357611212612dcb565b5b9060005260206000200160009054906101000a900473ffffffffffffffffffffffffffffffffffffffff1673ffffffffffffffffffffffffffffffffffffffff1673ffffffffffffffffffffffffffffffffffffffff16815260200190815260200160002060000160000160019054906101000a900460ff1660ff16145b1561129f57600191506112b2565b80806112aa90613181565b9150506110b5565b5080610fd25760006040518060e00160405280848152602001600060058111156112df576112de6129a6565b5b8152602001600060ff16815260200160006005811115611302576113016129a6565b5b8152602001600060ff1681526020016000151581526020013373ffffffffffffffffffffffffffffffffffffffff16815250905080600160003373ffffffffffffffffffffffffffffffffffffffff1673ffffffffffffffffffffffffffffffffffffffff16815260200190815260200160002060008201518160000160008201518160000160006101000a81548160ff021916908360ff16021790555060208201518160000160016101000a81548160ff021916908360ff160217905550505060208201518160010160006101000a81548160ff021916908360058111156113ee576113ed6129a6565b5b021790555060408201518160010160016101000a81548160ff021916908360ff16021790555060608201518160010160026101000a81548160ff0219169083600581111561143f5761143e6129a6565b5b021790555060808201518160010160036101000a81548160ff021916908360ff16021790555060a08201518160010160046101000a81548160ff02191690831515021790555060c08201518160010160056101000a81548173ffffffffffffffffffffffffffffffffffffffff021916908373ffffffffffffffffffffffffffffffffffffffff1602179055509050506002339080600181540180825580915050600190039060005260206000200160009091909190916101000a81548173ffffffffffffffffffffffffffffffffffffffff021916908373ffffffffffffffffffffffffffffffffffffffff1602179055506115886040518060400160405280601281526020017f4e657720736869702061742025732c202573000000000000000000000000000081525082600001516000015160ff1683600001516020015160ff16611f28565b3373ffffffffffffffffffffffffffffffffffffffff167ff2ae205522024c14e5a7a26ba6d1fb1252dc8e161b5abc79ed5795fd3c5b926160405160405180910390a280935050505090565b83600160003373ffffffffffffffffffffffffffffffffffffffff1673ffffffffffffffffffffffffffffffffffffffff16815260200190815260200160002060010160006101000a81548160ff02191690836005811115611639576116386129a6565b5b021790555082600160003373ffffffffffffffffffffffffffffffffffffffff1673ffffffffffffffffffffffffffffffffffffffff16815260200190815260200160002060010160016101000a81548160ff021916908360ff16021790555081600160003373ffffffffffffffffffffffffffffffffffffffff1673ffffffffffffffffffffffffffffffffffffffff16815260200190815260200160002060010160026101000a81548160ff021916908360058111156116fe576116fd6129a6565b5b021790555080600160003373ffffffffffffffffffffffffffffffffffffffff1673ffffffffffffffffffffffffffffffffffffffff16815260200190815260200160002060010160036101000a81548160ff021916908360ff16021790555060018060003373ffffffffffffffffffffffffffffffffffffffff1673ffffffffffffffffffffffffffffffffffffffff16815260200190815260200160002060010160046101000a81548160ff02191690831515021790555050505050565b600060028054905067ffffffffffffffff8111156117df576117de61259d565b5b60405190808252806020026020018201604052801561181857816020015b6118056123e5565b8152602001906001900390816117fd5790505b50905060005b6002805490508160ff161015611cc7576001600060028360ff168154811061184957611848612dcb565b5b9060005260206000200160009054906101000a900473ffffffffffffffffffffffffffffffffffffffff1673ffffffffffffffffffffffffffffffffffffffff1673ffffffffffffffffffffffffffffffffffffffff16815260200190815260200160002060010160049054906101000a900460ff1615611cb3576000807f000000000000000000000000000000000000000000000000000000000000000073ffffffffffffffffffffffffffffffffffffffff1663ecba2dd76001600060028760ff168154811061191e5761191d612dcb565b5b9060005260206000200160009054906101000a900473ffffffffffffffffffffffffffffffffffffffff1673ffffffffffffffffffffffffffffffffffffffff1673ffffffffffffffffffffffffffffffffffffffff1681526020019081526020016000206000016001600060028860ff16815481106119a1576119a0612dcb565b5b9060005260206000200160009054906101000a900473ffffffffffffffffffffffffffffffffffffffff1673ffffffffffffffffffffffffffffffffffffffff1673ffffffffffffffffffffffffffffffffffffffff16815260200190815260200160002060010160009054906101000a900460ff166001600060028960ff1681548110611a3257611a31612dcb565b5b9060005260206000200160009054906101000a900473ffffffffffffffffffffffffffffffffffffffff1673ffffffffffffffffffffffffffffffffffffffff1673ffffffffffffffffffffffffffffffffffffffff16815260200190815260200160002060010160019054906101000a900460ff166040518463ffffffff1660e01b8152600401611ac69392919061334d565b606060405180830381865afa158015611ae3573d6000803e3d6000fd5b505050506040513d601f19601f82011682018060405250810190611b079190613384565b915091508115611b6357611b5c60028460ff1681548110611b2b57611b2a612dcb565b5b9060005260206000200160009054906101000a900473ffffffffffffffffffffffffffffffffffffffff1684612066565b5050611cb4565b60005b8360ff168160ff161015611c8d57816000015160ff16858260ff1681518110611b9257611b91612dcb565b5b60200260200101516000015160ff1614158015611bda5750816020015160ff16858260ff1681518110611bc857611bc7612dcb565b5b60200260200101516020015160ff1614155b15611c7a57611c2a60028260ff1681548110611bf957611bf8612dcb565b5b9060005260206000200160009054906101000a900473ffffffffffffffffffffffffffffffffffffffff1682612066565b611c7560028560ff1681548110611c4457611c43612dcb565b5b9060005260206000200160009054906101000a900473ffffffffffffffffffffffffffffffffffffffff1685612066565b611c8d565b8380611c8590613181565b945050611b66565b5080848460ff1681518110611ca557611ca4612dcb565b5b602002602001018190525050505b5b8080611cbf90613181565b91505061181e565b5050565b6000807f000000000000000000000000000000000000000000000000000000000000000073ffffffffffffffffffffffffffffffffffffffff1663ecba2dd78686866040518463ffffffff1660e01b8152600401611d2b93929190612e71565b606060405180830381865afa158015611d48573d6000803e3d6000fd5b505050506040513d601f19601f82011682018060405250810190611d6c9190613384565b915091508115611d8457611d7f336122e9565b611e49565b8060000151600160003373ffffffffffffffffffffffffffffffffffffffff1673ffffffffffffffffffffffffffffffffffffffff16815260200190815260200160002060000160000160006101000a81548160ff021916908360ff1602179055508060200151600160003373ffffffffffffffffffffffffffffffffffffffff1673ffffffffffffffffffffffffffffffffffffffff16815260200190815260200160002060000160000160016101000a81548160ff021916908360ff1602179055505b5050505050565b60028181548110611e6057600080fd5b906000526020600020016000915054906101000a900473ffffffffffffffffffffffffffffffffffffffff1681565b611f2581604051602401611ea39190613443565b6040516020818303038152906040527f41304fac000000000000000000000000000000000000000000000000000000007bffffffffffffffffffffffffffffffffffffffffffffffffffffffff19166020820180517bffffffffffffffffffffffffffffffffffffffffffffffffffffffff838183161783525050505061239b565b50565b611fc2838383604051602401611f4093929190613465565b6040516020818303038152906040527fca47c4eb000000000000000000000000000000000000000000000000000000007bffffffffffffffffffffffffffffffffffffffffffffffffffffffff19166020820180517bffffffffffffffffffffffffffffffffffffffffffffffffffffffff838183161783525050505061239b565b505050565b612061838383604051602401611fdf939291906134a3565b6040516020818303038152906040527f1c7ec448000000000000000000000000000000000000000000000000000000007bffffffffffffffffffffffffffffffffffffffffffffffffffffffff19166020820180517bffffffffffffffffffffffffffffffffffffffffffffffffffffffff838183161783525050505061239b565b505050565b6002805490508160ff16106120b0576040517f08c379a00000000000000000000000000000000000000000000000000000000081526004016120a79061352d565b60405180910390fd5b8173ffffffffffffffffffffffffffffffffffffffff167fce0e3c7f8595684f9560df3c82cb81a6c5a649fcf1bdc96b2dc8b7bf228d650060405160405180910390a2600160008373ffffffffffffffffffffffffffffffffffffffff1673ffffffffffffffffffffffffffffffffffffffff1681526020019081526020016000206000808201600080820160006101000a81549060ff02191690556000820160016101000a81549060ff021916905550506001820160006101000a81549060ff02191690556001820160016101000a81549060ff02191690556001820160026101000a81549060ff02191690556001820160036101000a81549060ff02191690556001820160046101000a81549060ff02191690556001820160056101000a81549073ffffffffffffffffffffffffffffffffffffffff0219169055505060026001600280549050612203919061354d565b8154811061221457612213612dcb565b5b9060005260206000200160009054906101000a900473ffffffffffffffffffffffffffffffffffffffff1660028260ff168154811061225657612255612dcb565b5b9060005260206000200160006101000a81548173ffffffffffffffffffffffffffffffffffffffff021916908373ffffffffffffffffffffffffffffffffffffffff16021790555060028054806122b0576122af613581565b5b6001900381819060005260206000200160006101000a81549073ffffffffffffffffffffffffffffffffffffffff021916905590555050565b6000805b6002805490508160ff16101561238c578273ffffffffffffffffffffffffffffffffffffffff1660028260ff168154811061232b5761232a612dcb565b5b9060005260206000200160009054906101000a900473ffffffffffffffffffffffffffffffffffffffff1673ffffffffffffffffffffffffffffffffffffffff16036123795780915061238c565b808061238490613181565b9150506122ed565b506123978282612066565b5050565b60008151905060006a636f6e736f6c652e6c6f679050602083016000808483855afa5050505050565b50805460008255906000526020600020908101906123e291906124bc565b50565b6040518060400160405280600060ff168152602001600060ff1681525090565b6040518060800160405280600060ff168152602001600060ff1681526020016000151581526020016000151581525090565b6040518060e0016040528061244a6123e5565b815260200160006005811115612463576124626129a6565b5b8152602001600060ff16815260200160006005811115612486576124856129a6565b5b8152602001600060ff168152602001600015158152602001600073ffffffffffffffffffffffffffffffffffffffff1681525090565b5b808211156124d55760008160009055506001016124bd565b5090565b6000604051905090565b600080fd5b600080fd5b600060ff82169050919050565b612503816124ed565b811461250e57600080fd5b50565b600081359050612520816124fa565b92915050565b60006020828403121561253c5761253b6124e3565b5b600061254a84828501612511565b91505092915050565b6000819050919050565b61256681612553565b82525050565b6000602082019050612581600083018461255d565b92915050565b600080fd5b6000601f19601f8301169050919050565b7f4e487b7100000000000000000000000000000000000000000000000000000000600052604160045260246000fd5b6125d58261258c565b810181811067ffffffffffffffff821117156125f4576125f361259d565b5b80604052505050565b60006126076124d9565b905061261382826125cc565b919050565b60006040828403121561262e5761262d612587565b5b61263860406125fd565b9050600061264884828501612511565b600083015250602061265c84828501612511565b60208301525092915050565b6006811061267557600080fd5b50565b60008135905061268781612668565b92915050565b6000806000608084860312156126a6576126a56124e3565b5b60006126b486828701612618565b93505060406126c586828701612678565b92505060606126d686828701612511565b9150509250925092565b6126e9816124ed565b82525050565b60408201600082015161270560008501826126e0565b50602082015161271860208501826126e0565b50505050565b600060408201905061273360008301846126ef565b92915050565b600081519050919050565b600082825260208201905092915050565b6000819050602082019050919050565b60408201600082015161277b60008501826126e0565b50602082015161278e60208501826126e0565b50505050565b60006127a08383612765565b60408301905092915050565b6000602082019050919050565b60006127c482612739565b6127ce8185612744565b93506127d983612755565b8060005b8381101561280a5781516127f18882612794565b97506127fc836127ac565b9250506001810190506127dd565b5085935050505092915050565b6000602082019050818103600083015261283181846127b9565b905092915050565b60006040828403121561284f5761284e6124e3565b5b600061285d84828501612618565b91505092915050565b60008115159050919050565b61287b81612866565b82525050565b60808201600082015161289760008501826126e0565b5060208201516128aa60208501826126e0565b5060408201516128bd6040850182612872565b5060608201516128d06060850182612872565b50505050565b60006080820190506128eb6000830184612881565b92915050565b6128fa81612866565b82525050565b600060208201905061291560008301846128f1565b92915050565b600073ffffffffffffffffffffffffffffffffffffffff82169050919050565b60006129468261291b565b9050919050565b6129568161293b565b811461296157600080fd5b50565b6000813590506129738161294d565b92915050565b60006020828403121561298f5761298e6124e3565b5b600061299d84828501612964565b91505092915050565b7f4e487b7100000000000000000000000000000000000000000000000000000000600052602160045260246000fd5b600681106129e6576129e56129a6565b5b50565b60008190506129f7826129d5565b919050565b6000612a07826129e9565b9050919050565b612a17816129fc565b82525050565b612a26816124ed565b82525050565b612a358161293b565b82525050565b600061010082019050612a51600083018a6126ef565b612a5e6040830189612a0e565b612a6b6060830188612a1d565b612a786080830187612a0e565b612a8560a0830186612a1d565b612a9260c08301856128f1565b612a9f60e0830184612a2c565b98975050505050505050565b600081519050919050565b600082825260208201905092915050565b6000819050602082019050919050565b612ae0816129fc565b82525050565b612aef8161293b565b82525050565b61010082016000820151612b0c6000850182612765565b506020820151612b1f6040850182612ad7565b506040820151612b3260608501826126e0565b506060820151612b456080850182612ad7565b506080820151612b5860a08501826126e0565b5060a0820151612b6b60c0850182612872565b5060c0820151612b7e60e0850182612ae6565b50505050565b6000612b908383612af5565b6101008301905092915050565b6000602082019050919050565b6000612bb582612aab565b612bbf8185612ab6565b9350612bca83612ac7565b8060005b83811015612bfb578151612be28882612b84565b9750612bed83612b9d565b925050600181019050612bce565b5085935050505092915050565b60006020820190508181036000830152612c228184612baa565b905092915050565b6000602082019050612c3f6000830184612a1d565b92915050565b61010082016000820151612c5c6000850182612765565b506020820151612c6f6040850182612ad7565b506040820151612c8260608501826126e0565b506060820151612c956080850182612ad7565b506080820151612ca860a08501826126e0565b5060a0820151612cbb60c0850182612872565b5060c0820151612cce60e0850182612ae6565b50505050565b600061010082019050612cea6000830184612c45565b92915050565b60008060008060808587031215612d0a57612d096124e3565b5b6000612d1887828801612678565b9450506020612d2987828801612511565b9350506040612d3a87828801612678565b9250506060612d4b87828801612511565b91505092959194509250565b612d6081612553565b8114612d6b57600080fd5b50565b600081359050612d7d81612d57565b92915050565b600060208284031215612d9957612d986124e3565b5b6000612da784828501612d6e565b91505092915050565b6000602082019050612dc56000830184612a2c565b92915050565b7f4e487b7100000000000000000000000000000000000000000000000000000000600052603260045260246000fd5b7f4e487b7100000000000000000000000000000000000000000000000000000000600052601160045260246000fd5b6000612e3482612553565b91507fffffffffffffffffffffffffffffffffffffffffffffffffffffffffffffffff8203612e6657612e65612dfa565b5b600182019050919050565b6000608082019050612e8660008301866126ef565b612e936040830185612a0e565b612ea06060830184612a1d565b949350505050565b600081519050612eb7816124fa565b92915050565b600060408284031215612ed357612ed2612587565b5b612edd60406125fd565b90506000612eed84828501612ea8565b6000830152506020612f0184828501612ea8565b60208301525092915050565b600060408284031215612f2357612f226124e3565b5b6000612f3184828501612ebd565b91505092915050565b600060208284031215612f5057612f4f6124e3565b5b6000612f5e84828501612ea8565b91505092915050565b6000612f72826124ed565b9150612f7d836124ed565b9250828201905060ff811115612f9657612f95612dfa565b5b92915050565b6000612fa7826124ed565b9150612fb2836124ed565b9250828202612fc0816124ed565b9150808214612fd257612fd1612dfa565b5b5092915050565b6000612fe4826124ed565b9150612fef836124ed565b9250828203905060ff81111561300857613007612dfa565b5b92915050565b600060608201905061302360008301856126ef565b6130306040830184612a1d565b9392505050565b600080fd5b600067ffffffffffffffff8211156130575761305661259d565b5b602082029050602081019050919050565b600080fd5b600061308061307b8461303c565b6125fd565b905080838252602082019050604084028301858111156130a3576130a2613068565b5b835b818110156130cc57806130b88882612ebd565b8452602084019350506040810190506130a5565b5050509392505050565b600082601f8301126130eb576130ea613037565b5b81516130fb84826020860161306d565b91505092915050565b60006020828403121561311a576131196124e3565b5b600082015167ffffffffffffffff811115613138576131376124e8565b5b613144848285016130d6565b91505092915050565b600061315882612553565b915061316383612553565b925082820190508082111561317b5761317a612dfa565b5b92915050565b600061318c826124ed565b915060ff820361319f5761319e612dfa565b5b600182019050919050565b6131b381612866565b81146131be57600080fd5b50565b6000815190506131d0816131aa565b92915050565b6000608082840312156131ec576131eb612587565b5b6131f660806125fd565b9050600061320684828501612ea8565b600083015250602061321a84828501612ea8565b602083015250604061322e848285016131c1565b6040830152506060613242848285016131c1565b60608301525092915050565b600060808284031215613264576132636124e3565b5b6000613272848285016131d6565b91505092915050565b60006060820190506132906000830186612a2c565b61329d6020830185612a1d565b6132aa6040830184612a1d565b949350505050565b60008160001c9050919050565b600060ff82169050919050565b60006132df6132da836132b2565b6132bf565b9050919050565b60008160081c9050919050565b6000613306613301836132e6565b6132bf565b9050919050565b604082016000808301549050613322816132cc565b61332f60008601826126e0565b50613339816132f3565b61334660208601826126e0565b5050505050565b6000608082019050613362600083018661330d565b61336f6040830185612a0e565b61337c6060830184612a1d565b949350505050565b6000806060838503121561339b5761339a6124e3565b5b60006133a9858286016131c1565b92505060206133ba85828601612ebd565b9150509250929050565b600081519050919050565b600082825260208201905092915050565b60005b838110156133fe5780820151818401526020810190506133e3565b60008484015250505050565b6000613415826133c4565b61341f81856133cf565b935061342f8185602086016133e0565b6134388161258c565b840191505092915050565b6000602082019050818103600083015261345d818461340a565b905092915050565b6000606082019050818103600083015261347f818661340a565b905061348e602083018561255d565b61349b604083018461255d565b949350505050565b600060608201905081810360008301526134bd818661340a565b90506134cc602083018561255d565b6134d96040830184612a2c565b949350505050565b7f496e6465782076616c7565206f7574206f662072616e67650000000000000000600082015250565b60006135176018836133cf565b9150613522826134e1565b602082019050919050565b600060208201905081810360008301526135468161350a565b9050919050565b600061355882612553565b915061356383612553565b925082820390508181111561357b5761357a612dfa565b5b92915050565b7f4e487b7100000000000000000000000000000000000000000000000000000000600052603160045260246000fdfea2646970667358221220ee0348ec95a68962957d95c44d4d96c5fd956b054ed9ebf6ef3595f0567ffd4b64736f6c63430008120033",
  "linkReferences": {},
  "deployedLinkReferences": {}
}