{
  "_format": "hh-sol-artifact-1",
  "contractName": "Game",
  "sourceName": "contracts/Game.sol",
  "abi": [
    {
      "inputs": [
        {
          "internalType": "address",
          "name": "_mapAddress",
          "type": "address"
        }
      ],
      "stateMutability": "nonpayable",
      "type": "constructor"
    },
    {
      "inputs": [
        {
          "internalType": "address",
          "name": "player",
          "type": "address"
        },
        {
          "internalType": "uint8",
          "name": "q",
          "type": "uint8"
        },
        {
          "internalType": "uint8",
          "name": "r",
          "type": "uint8"
        }
      ],
      "name": "ShipAlreadyAdded",
      "type": "error"
    },
    {
      "anonymous": false,
      "inputs": [
        {
          "indexed": true,
          "internalType": "bool",
          "name": "gameStatus",
          "type": "bool"
        },
        {
          "indexed": true,
          "internalType": "address",
          "name": "winnerAddress",
          "type": "address"
        }
      ],
      "name": "GameUpdated",
      "type": "event"
    },
    {
      "anonymous": false,
      "inputs": [
        {
          "indexed": false,
          "internalType": "string",
          "name": "gameWinner",
          "type": "string"
        }
      ],
      "name": "GameWinner",
      "type": "event"
    },
    {
      "anonymous": false,
      "inputs": [
        {
          "indexed": true,
          "internalType": "address",
          "name": "previousOwner",
          "type": "address"
        },
        {
          "indexed": true,
          "internalType": "address",
          "name": "newOwner",
          "type": "address"
        }
      ],
      "name": "OwnershipTransferred",
      "type": "event"
    },
    {
      "anonymous": false,
      "inputs": [
        {
          "indexed": true,
          "internalType": "address",
          "name": "player",
          "type": "address"
        }
      ],
      "name": "PlayerAdded",
      "type": "event"
    },
    {
      "anonymous": false,
      "inputs": [
        {
          "indexed": true,
          "internalType": "address",
          "name": "player",
          "type": "address"
        }
      ],
      "name": "PlayerDefeated",
      "type": "event"
    },
    {
      "inputs": [],
      "name": "addShip",
      "outputs": [
        {
          "components": [
            {
              "components": [
                {
                  "internalType": "uint8",
                  "name": "q",
                  "type": "uint8"
                },
                {
                  "internalType": "uint8",
                  "name": "r",
                  "type": "uint8"
                }
              ],
              "internalType": "struct SharedStructs.Coordinate",
              "name": "coordinate",
              "type": "tuple"
            },
            {
              "internalType": "enum SharedStructs.Directions",
              "name": "travelDirection",
              "type": "uint8"
            },
            {
              "internalType": "uint8",
              "name": "travelDistance",
              "type": "uint8"
            },
            {
              "internalType": "enum SharedStructs.Directions",
              "name": "shotDirection",
              "type": "uint8"
            },
            {
              "internalType": "uint8",
              "name": "shotDistance",
              "type": "uint8"
            },
            {
              "internalType": "bool",
              "name": "publishedMove",
              "type": "bool"
            },
            {
              "internalType": "address",
              "name": "captain",
              "type": "address"
            }
          ],
          "internalType": "struct Game.Ship",
          "name": "",
          "type": "tuple"
        }
      ],
      "stateMutability": "nonpayable",
      "type": "function"
    },
    {
      "inputs": [],
      "name": "allowCommitMoves",
      "outputs": [],
      "stateMutability": "nonpayable",
      "type": "function"
    },
    {
      "inputs": [],
      "name": "allowSubmitMoves",
      "outputs": [],
      "stateMutability": "nonpayable",
      "type": "function"
    },
    {
      "inputs": [
        {
          "internalType": "bytes32",
          "name": "moveHash",
          "type": "bytes32"
        }
      ],
      "name": "commitMove",
      "outputs": [],
      "stateMutability": "nonpayable",
      "type": "function"
    },
    {
      "inputs": [],
      "name": "gameInProgress",
      "outputs": [
        {
          "internalType": "bool",
          "name": "",
          "type": "bool"
        }
      ],
      "stateMutability": "view",
      "type": "function"
    },
    {
      "inputs": [
        {
          "components": [
            {
              "internalType": "uint8",
              "name": "q",
              "type": "uint8"
            },
            {
              "internalType": "uint8",
              "name": "r",
              "type": "uint8"
            }
          ],
          "internalType": "struct SharedStructs.Coordinate",
          "name": "_coord",
          "type": "tuple"
        }
      ],
      "name": "getCell",
      "outputs": [
        {
          "components": [
            {
              "internalType": "uint8",
              "name": "q",
              "type": "uint8"
            },
            {
              "internalType": "uint8",
              "name": "r",
              "type": "uint8"
            },
            {
              "internalType": "bool",
              "name": "island",
              "type": "bool"
            },
            {
              "internalType": "bool",
              "name": "exists",
              "type": "bool"
            }
          ],
          "internalType": "struct SharedStructs.Cell",
          "name": "",
          "type": "tuple"
        }
      ],
      "stateMutability": "view",
      "type": "function"
    },
    {
      "inputs": [],
      "name": "getCells",
      "outputs": [
        {
          "components": [
            {
              "internalType": "uint8",
              "name": "q",
              "type": "uint8"
            },
            {
              "internalType": "uint8",
              "name": "r",
              "type": "uint8"
            }
          ],
          "internalType": "struct SharedStructs.Coordinate[]",
          "name": "",
          "type": "tuple[]"
        }
      ],
      "stateMutability": "view",
      "type": "function"
    },
    {
      "inputs": [],
      "name": "getRadius",
      "outputs": [
        {
          "internalType": "uint8",
          "name": "",
          "type": "uint8"
        }
      ],
      "stateMutability": "view",
      "type": "function"
    },
    {
      "inputs": [],
      "name": "getShips",
      "outputs": [
        {
          "components": [
            {
              "components": [
                {
                  "internalType": "uint8",
                  "name": "q",
                  "type": "uint8"
                },
                {
                  "internalType": "uint8",
                  "name": "r",
                  "type": "uint8"
                }
              ],
              "internalType": "struct SharedStructs.Coordinate",
              "name": "coordinate",
              "type": "tuple"
            },
            {
              "internalType": "enum SharedStructs.Directions",
              "name": "travelDirection",
              "type": "uint8"
            },
            {
              "internalType": "uint8",
              "name": "travelDistance",
              "type": "uint8"
            },
            {
              "internalType": "enum SharedStructs.Directions",
              "name": "shotDirection",
              "type": "uint8"
            },
            {
              "internalType": "uint8",
              "name": "shotDistance",
              "type": "uint8"
            },
            {
              "internalType": "bool",
              "name": "publishedMove",
              "type": "bool"
            },
            {
              "internalType": "address",
              "name": "captain",
              "type": "address"
            }
          ],
          "internalType": "struct Game.Ship[]",
          "name": "",
          "type": "tuple[]"
        }
      ],
      "stateMutability": "view",
      "type": "function"
    },
    {
      "inputs": [
        {
          "internalType": "uint8",
          "name": "_radius",
          "type": "uint8"
        }
      ],
      "name": "initGame",
      "outputs": [],
      "stateMutability": "nonpayable",
      "type": "function"
    },
    {
      "inputs": [],
      "name": "letCommitMoves",
      "outputs": [
        {
          "internalType": "bool",
          "name": "",
          "type": "bool"
        }
      ],
      "stateMutability": "view",
      "type": "function"
    },
    {
      "inputs": [],
      "name": "letSubmitMoves",
      "outputs": [
        {
          "internalType": "bool",
          "name": "",
          "type": "bool"
        }
      ],
      "stateMutability": "view",
      "type": "function"
    },
    {
      "inputs": [
        {
          "components": [
            {
              "internalType": "uint8",
              "name": "q",
              "type": "uint8"
            },
            {
              "internalType": "uint8",
              "name": "r",
              "type": "uint8"
            }
          ],
          "internalType": "struct SharedStructs.Coordinate",
          "name": "_start",
          "type": "tuple"
        },
        {
          "internalType": "enum SharedStructs.Directions",
          "name": "_dir",
          "type": "uint8"
        },
        {
          "internalType": "uint8",
          "name": "_distance",
          "type": "uint8"
        }
      ],
      "name": "move",
      "outputs": [
        {
          "components": [
            {
              "internalType": "uint8",
              "name": "q",
              "type": "uint8"
            },
            {
              "internalType": "uint8",
              "name": "r",
              "type": "uint8"
            }
          ],
          "internalType": "struct SharedStructs.Coordinate",
          "name": "",
          "type": "tuple"
        }
      ],
      "stateMutability": "view",
      "type": "function"
    },
    {
      "inputs": [
        {
          "internalType": "address",
          "name": "",
          "type": "address"
        }
      ],
      "name": "moveHashes",
      "outputs": [
        {
          "internalType": "bytes32",
          "name": "",
          "type": "bytes32"
        }
      ],
      "stateMutability": "view",
      "type": "function"
    },
    {
      "inputs": [],
      "name": "owner",
      "outputs": [
        {
          "internalType": "address",
          "name": "",
          "type": "address"
        }
      ],
      "stateMutability": "view",
      "type": "function"
    },
    {
      "inputs": [
        {
          "internalType": "uint256",
          "name": "",
          "type": "uint256"
        }
      ],
      "name": "players",
      "outputs": [
        {
          "internalType": "address",
          "name": "",
          "type": "address"
        }
      ],
      "stateMutability": "view",
      "type": "function"
    },
    {
      "inputs": [],
      "name": "renounceOwnership",
      "outputs": [],
      "stateMutability": "nonpayable",
      "type": "function"
    },
    {
      "inputs": [
        {
          "internalType": "enum SharedStructs.Directions",
          "name": "_travelDirection",
          "type": "uint8"
        },
        {
          "internalType": "uint8",
          "name": "_travelDistance",
          "type": "uint8"
        },
        {
          "internalType": "enum SharedStructs.Directions",
          "name": "_shotDirection",
          "type": "uint8"
        },
        {
          "internalType": "uint8",
          "name": "_shotDistance",
          "type": "uint8"
        },
        {
          "internalType": "uint256",
          "name": "nonce",
          "type": "uint256"
        }
      ],
      "name": "revealMove",
      "outputs": [],
      "stateMutability": "nonpayable",
      "type": "function"
    },
    {
      "inputs": [],
      "name": "round",
      "outputs": [
        {
          "internalType": "uint256",
          "name": "",
          "type": "uint256"
        }
      ],
      "stateMutability": "view",
      "type": "function"
    },
    {
      "inputs": [
        {
          "internalType": "address",
          "name": "",
          "type": "address"
        }
      ],
      "name": "ships",
      "outputs": [
        {
          "components": [
            {
              "internalType": "uint8",
              "name": "q",
              "type": "uint8"
            },
            {
              "internalType": "uint8",
              "name": "r",
              "type": "uint8"
            }
          ],
          "internalType": "struct SharedStructs.Coordinate",
          "name": "coordinate",
          "type": "tuple"
        },
        {
          "internalType": "enum SharedStructs.Directions",
          "name": "travelDirection",
          "type": "uint8"
        },
        {
          "internalType": "uint8",
          "name": "travelDistance",
          "type": "uint8"
        },
        {
          "internalType": "enum SharedStructs.Directions",
          "name": "shotDirection",
          "type": "uint8"
        },
        {
          "internalType": "uint8",
          "name": "shotDistance",
          "type": "uint8"
        },
        {
          "internalType": "bool",
          "name": "publishedMove",
          "type": "bool"
        },
        {
          "internalType": "address",
          "name": "captain",
          "type": "address"
        }
      ],
      "stateMutability": "view",
      "type": "function"
    },
    {
      "inputs": [],
      "name": "stopAddingShips",
      "outputs": [
        {
          "internalType": "bool",
          "name": "",
          "type": "bool"
        }
      ],
      "stateMutability": "view",
      "type": "function"
    },
    {
      "inputs": [
        {
          "internalType": "address",
          "name": "newOwner",
          "type": "address"
        }
      ],
      "name": "transferOwnership",
      "outputs": [],
      "stateMutability": "nonpayable",
      "type": "function"
    },
    {
      "inputs": [
        {
          "components": [
            {
              "internalType": "uint8",
              "name": "q",
              "type": "uint8"
            },
            {
              "internalType": "uint8",
              "name": "r",
              "type": "uint8"
            }
          ],
          "internalType": "struct SharedStructs.Coordinate",
          "name": "_startCell",
          "type": "tuple"
        },
        {
          "internalType": "enum SharedStructs.Directions",
          "name": "_direction",
          "type": "uint8"
        },
        {
          "internalType": "uint8",
          "name": "_distance",
          "type": "uint8"
        }
      ],
      "name": "travel",
      "outputs": [],
      "stateMutability": "nonpayable",
      "type": "function"
    },
    {
      "inputs": [],
      "name": "updateWorld",
      "outputs": [],
      "stateMutability": "nonpayable",
      "type": "function"
    }
  ],
  "bytecode": "0x60a06040523480156200001157600080fd5b506040516200556a3803806200556a8339818101604052810190620000379190620001c8565b620000576200004b6200009260201b60201c565b6200009a60201b60201c565b8073ffffffffffffffffffffffffffffffffffffffff1660808173ffffffffffffffffffffffffffffffffffffffff168152505050620001fa565b600033905090565b60008060009054906101000a900473ffffffffffffffffffffffffffffffffffffffff169050816000806101000a81548173ffffffffffffffffffffffffffffffffffffffff021916908373ffffffffffffffffffffffffffffffffffffffff1602179055508173ffffffffffffffffffffffffffffffffffffffff168173ffffffffffffffffffffffffffffffffffffffff167f8be0079c531659141344cd1fd0a4f28419497f9722a3daafe3b4186f6b6457e060405160405180910390a35050565b600080fd5b600073ffffffffffffffffffffffffffffffffffffffff82169050919050565b6000620001908262000163565b9050919050565b620001a28162000183565b8114620001ae57600080fd5b50565b600081519050620001c28162000197565b92915050565b600060208284031215620001e157620001e06200015e565b5b6000620001f184828501620001b1565b91505092915050565b60805161530e6200025c600039600081816105a901528181610634015281816106e00152818161078a0152818161093101528181610a9601528181610f72015281816114c501528181611bfd01528181611e9b0152612fa2015261530e6000f3fe608060405234801561001057600080fd5b50600436106101585760003560e01c806396ace1bb116100c3578063db0d52d91161007c578063db0d52d914610399578063eaea26af146103a3578063ecba2dd7146103ad578063f2fde38b146103c9578063f71d96cb146103e5578063ff86f1c11461041557610158565b806396ace1bb146102d75780639ca0d3e3146102f5578063a9ea37b614610313578063adf9449e1461032f578063b91db8731461034b578063bd85f8611461037b57610158565b80633fb64e75116101155780633fb64e751461023357806348ccd3d7146102515780636738f23414610287578063715018a6146102a55780638446b429146102af5780638da5cb5b146102b957610158565b80630452aa751461015d578063146ca531146101795780631a84a4ea14610197578063374aed97146101c757806339216cd4146101e55780633ac245d914610203575b600080fd5b61017760048036038101906101729190613c6e565b610433565b005b6101816106d0565b60405161018e9190613cb4565b60405180910390f35b6101b160048036038101906101ac9190613dd5565b6106d6565b6040516101be9190613e66565b60405180910390f35b6101cf610784565b6040516101dc9190613f5f565b60405180910390f35b6101ed610a79565b6040516101fa9190613f9c565b60405180910390f35b61021d60048036038101906102189190613fb7565b610a8c565b60405161022a9190614048565b60405180910390f35b61023b610b35565b6040516102489190613f9c565b60405180910390f35b61026b600480360381019061026691906140c1565b610b48565b60405161027e9796959493929190614183565b60405180910390f35b61028f610c2f565b60405161029c9190614350565b60405180910390f35b6102ad610f0c565b005b6102b7610f20565b005b6102c1610f45565b6040516102ce9190614372565b60405180910390f35b6102df610f6e565b6040516102ec919061438d565b60405180910390f35b6102fd611004565b60405161030a9190613f9c565b60405180910390f35b61032d600480360381019061032891906143de565b611017565b005b61034960048036038101906103449190614437565b6110b4565b005b610365600480360381019061036091906140c1565b61127f565b60405161037291906144c1565b60405180910390f35b610383611297565b604051610390919061456b565b60405180910390f35b6103a1611ac5565b005b6103ab611aea565b005b6103c760048036038101906103c29190613dd5565b612f9d565b005b6103e360048036038101906103de91906140c1565b613122565b005b6103ff60048036038101906103fa9190614587565b6131a5565b60405161040c9190614372565b60405180910390f35b61041d6131e4565b60405161042a9190613f9c565b60405180910390f35b61043b6131f7565b60005b600380549050811015610598576002600060038381548110610463576104626145b4565b5b9060005260206000200160009054906101000a900473ffffffffffffffffffffffffffffffffffffffff1673ffffffffffffffffffffffffffffffffffffffff1673ffffffffffffffffffffffffffffffffffffffff1681526020019081526020016000206000808201600080820160006101000a81549060ff02191690556000820160016101000a81549060ff021916905550506001820160006101000a81549060ff02191690556001820160016101000a81549060ff02191690556001820160026101000a81549060ff02191690556001820160036101000a81549060ff02191690556001820160046101000a81549060ff02191690556001820160056101000a81549073ffffffffffffffffffffffffffffffffffffffff02191690555050808061059090614612565b91505061043e565b50600360006105a79190613b0c565b7f000000000000000000000000000000000000000000000000000000000000000073ffffffffffffffffffffffffffffffffffffffff1663669636e2826040518263ffffffff1660e01b8152600401610600919061438d565b600060405180830381600087803b15801561061a57600080fd5b505af115801561062e573d6000803e3d6000fd5b505050507f000000000000000000000000000000000000000000000000000000000000000073ffffffffffffffffffffffffffffffffffffffff1663949996886040518163ffffffff1660e01b8152600401600060405180830381600087803b15801561069a57600080fd5b505af11580156106ae573d6000803e3d6000fd5b505050506001600460006101000a81548160ff02191690831515021790555050565b60015481565b6106de613b2d565b7f000000000000000000000000000000000000000000000000000000000000000073ffffffffffffffffffffffffffffffffffffffff16631a84a4ea8585856040518463ffffffff1660e01b815260040161073b9392919061465a565b6040805180830381865afa158015610757573d6000803e3d6000fd5b505050506040513d601f19601f8201168201806040525081019061077b91906146f6565b90509392505050565b606060007f000000000000000000000000000000000000000000000000000000000000000073ffffffffffffffffffffffffffffffffffffffff1663217f43536040518163ffffffff1660e01b8152600401602060405180830381865afa1580156107f3573d6000803e3d6000fd5b505050506040513d601f19601f820116820180604052508101906108179190614723565b905060006001826108289190614750565b8260036108359190614785565b61083f9190614785565b600161084b9190614750565b60ff16905060008167ffffffffffffffff81111561086c5761086b613ce5565b5b6040519080825280602002602001820160405280156108a557816020015b610892613b2d565b81526020019060019003908161088a5790505b50905060405180604001604052808460ff1681526020018460ff16815250816000815181106108d7576108d66145b4565b5b60200260200101819052506000600190505b8360ff168160ff1611610a6f5760008160018361090691906147c2565b60036109129190614785565b61091c9190614785565b60016109289190614750565b60ff16905060007f000000000000000000000000000000000000000000000000000000000000000073ffffffffffffffffffffffffffffffffffffffff166339e5c4a08560008151811061097f5761097e6145b4565b5b6020026020010151856040518363ffffffff1660e01b81526004016109a59291906147f7565b600060405180830381865afa1580156109c2573d6000803e3d6000fd5b505050506040513d6000823e3d601f19601f820116820180604052508101906109eb91906148ed565b905060005b81518160ff161015610a5957818160ff1681518110610a1257610a116145b4565b5b6020026020010151858260ff1685610a2a9190614936565b81518110610a3b57610a3a6145b4565b5b60200260200101819052508080610a519061496a565b9150506109f0565b5050508080610a679061496a565b9150506108e9565b5080935050505090565b600460039054906101000a900460ff1681565b610a94613b4d565b7f000000000000000000000000000000000000000000000000000000000000000073ffffffffffffffffffffffffffffffffffffffff16633ac245d9836040518263ffffffff1660e01b8152600401610aed9190613e66565b608060405180830381865afa158015610b0a573d6000803e3d6000fd5b505050506040513d601f19601f82011682018060405250810190610b2e9190614a37565b9050919050565b600460009054906101000a900460ff1681565b6002602052806000526040600020600091509050806000016040518060400160405290816000820160009054906101000a900460ff1660ff1660ff1681526020016000820160019054906101000a900460ff1660ff1660ff1681525050908060010160009054906101000a900460ff16908060010160019054906101000a900460ff16908060010160029054906101000a900460ff16908060010160039054906101000a900460ff16908060010160049054906101000a900460ff16908060010160059054906101000a900473ffffffffffffffffffffffffffffffffffffffff16905087565b6060600060038054905067ffffffffffffffff811115610c5257610c51613ce5565b5b604051908082528060200260200182016040528015610c8b57816020015b610c78613b7f565b815260200190600190039081610c705790505b509050610ccc6040518060400160405280601081526020017f52657472696576696e6720736869707300000000000000000000000000000000815250613275565b60005b600380549050811015610f04576002600060038381548110610cf457610cf36145b4565b5b9060005260206000200160009054906101000a900473ffffffffffffffffffffffffffffffffffffffff1673ffffffffffffffffffffffffffffffffffffffff1673ffffffffffffffffffffffffffffffffffffffff1681526020019081526020016000206040518060e0016040529081600082016040518060400160405290816000820160009054906101000a900460ff1660ff1660ff1681526020016000820160019054906101000a900460ff1660ff1660ff168152505081526020016001820160009054906101000a900460ff166006811115610dd757610dd66140ee565b5b6006811115610de957610de86140ee565b5b81526020016001820160019054906101000a900460ff1660ff1660ff1681526020016001820160029054906101000a900460ff166006811115610e2f57610e2e6140ee565b5b6006811115610e4157610e406140ee565b5b81526020016001820160039054906101000a900460ff1660ff1660ff1681526020016001820160049054906101000a900460ff161515151581526020016001820160059054906101000a900473ffffffffffffffffffffffffffffffffffffffff1673ffffffffffffffffffffffffffffffffffffffff1673ffffffffffffffffffffffffffffffffffffffff1681525050828281518110610ee657610ee56145b4565b5b60200260200101819052508080610efc90614612565b915050610ccf565b508091505090565b610f146131f7565b610f1e600061330e565b565b610f286131f7565b6001600460036101000a81548160ff021916908315150217905550565b60008060009054906101000a900473ffffffffffffffffffffffffffffffffffffffff16905090565b60007f000000000000000000000000000000000000000000000000000000000000000073ffffffffffffffffffffffffffffffffffffffff1663217f43536040518163ffffffff1660e01b8152600401602060405180830381865afa158015610fdb573d6000803e3d6000fd5b505050506040513d601f19601f82011682018060405250810190610fff9190614723565b905090565b600460029054906101000a900460ff1681565b60011515600460029054906101000a900460ff1615151461106d576040517f08c379a000000000000000000000000000000000000000000000000000000000815260040161106490614ae7565b60405180910390fd5b80600560003373ffffffffffffffffffffffffffffffffffffffff1673ffffffffffffffffffffffffffffffffffffffff1681526020019081526020016000208190555050565b60011515600460039054906101000a900460ff1615151461110a576040517f08c379a000000000000000000000000000000000000000000000000000000000815260040161110190614b79565b60405180910390fd5b60008585858585604051602001611125959493929190614c07565b60405160208183030381529060405280519060200120905080600560003373ffffffffffffffffffffffffffffffffffffffff1673ffffffffffffffffffffffffffffffffffffffff1681526020019081526020016000205403611277576000600260003373ffffffffffffffffffffffffffffffffffffffff1673ffffffffffffffffffffffffffffffffffffffff1681526020019081526020016000209050868160010160006101000a81548160ff021916908360068111156111ed576111ec6140ee565b5b0217905550858160010160016101000a81548160ff021916908360ff160217905550848160010160026101000a81548160ff02191690836006811115611236576112356140ee565b5b0217905550838160010160036101000a81548160ff021916908360ff16021790555060018160010160046101000a81548160ff021916908315150217905550505b505050505050565b60056020528060005260406000206000915090505481565b61129f613b7f565b60001515600460019054906101000a900460ff1615151480156112d5575060011515600460009054906101000a900460ff161515145b611314576040517f08c379a000000000000000000000000000000000000000000000000000000000815260040161130b90614cb2565b60405180910390fd5b6000600260003373ffffffffffffffffffffffffffffffffffffffff1673ffffffffffffffffffffffffffffffffffffffff16815260200190815260200160002060000160000160009054906101000a900460ff1660ff161180156113ce57506000600260003373ffffffffffffffffffffffffffffffffffffffff1673ffffffffffffffffffffffffffffffffffffffff16815260200190815260200160002060000160000160019054906101000a900460ff1660ff16115b156114b85733600260003373ffffffffffffffffffffffffffffffffffffffff1673ffffffffffffffffffffffffffffffffffffffff16815260200190815260200160002060000160000160009054906101000a900460ff16600260003373ffffffffffffffffffffffffffffffffffffffff1673ffffffffffffffffffffffffffffffffffffffff16815260200190815260200160002060000160000160019054906101000a900460ff166040517f8538db700000000000000000000000000000000000000000000000000000000081526004016114af93929190614cd2565b60405180910390fd5b6114c0613b2d565b60005b7f000000000000000000000000000000000000000000000000000000000000000073ffffffffffffffffffffffffffffffffffffffff166336579c5b6040518163ffffffff1660e01b815260040160408051808303816000875af115801561152f573d6000803e3d6000fd5b505050506040513d601f19601f8201168201806040525081019061155391906146f6565b91506115a36040518060400160405280601381526020017f4e657720726e6420706169722025732c20257300000000000000000000000000815250836000015160ff16846020015160ff166133d2565b60005b6003805490508160ff1610156117a35761163a6040518060400160405280601781526020017f696e206c6f6f702025732c20616464726573733a2025730000000000000000008152508260ff1660038460ff168154811061160a576116096145b4565b5b9060005260206000200160009054906101000a900473ffffffffffffffffffffffffffffffffffffffff16613471565b826000015160ff166002600060038460ff168154811061165d5761165c6145b4565b5b9060005260206000200160009054906101000a900473ffffffffffffffffffffffffffffffffffffffff1673ffffffffffffffffffffffffffffffffffffffff1673ffffffffffffffffffffffffffffffffffffffff16815260200190815260200160002060000160000160009054906101000a900460ff1660ff161480156117825750826020015160ff166002600060038460ff1681548110611704576117036145b4565b5b9060005260206000200160009054906101000a900473ffffffffffffffffffffffffffffffffffffffff1673ffffffffffffffffffffffffffffffffffffffff1673ffffffffffffffffffffffffffffffffffffffff16815260200190815260200160002060000160000160019054906101000a900460ff1660ff16145b1561179057600191506117a3565b808061179b9061496a565b9150506115a6565b50806114c35760006040518060e00160405280848152602001600060068111156117d0576117cf6140ee565b5b8152602001600060ff168152602001600060068111156117f3576117f26140ee565b5b8152602001600060ff1681526020016000151581526020013373ffffffffffffffffffffffffffffffffffffffff16815250905080600260003373ffffffffffffffffffffffffffffffffffffffff1673ffffffffffffffffffffffffffffffffffffffff16815260200190815260200160002060008201518160000160008201518160000160006101000a81548160ff021916908360ff16021790555060208201518160000160016101000a81548160ff021916908360ff160217905550505060208201518160010160006101000a81548160ff021916908360068111156118df576118de6140ee565b5b021790555060408201518160010160016101000a81548160ff021916908360ff16021790555060608201518160010160026101000a81548160ff021916908360068111156119305761192f6140ee565b5b021790555060808201518160010160036101000a81548160ff021916908360ff16021790555060a08201518160010160046101000a81548160ff02191690831515021790555060c08201518160010160056101000a81548173ffffffffffffffffffffffffffffffffffffffff021916908373ffffffffffffffffffffffffffffffffffffffff1602179055509050506003339080600181540180825580915050600190039060005260206000200160009091909190916101000a81548173ffffffffffffffffffffffffffffffffffffffff021916908373ffffffffffffffffffffffffffffffffffffffff160217905550611a796040518060400160405280601281526020017f4e657720736869702061742025732c202573000000000000000000000000000081525082600001516000015160ff1683600001516020015160ff166133d2565b3373ffffffffffffffffffffffffffffffffffffffff167ff2ae205522024c14e5a7a26ba6d1fb1252dc8e161b5abc79ed5795fd3c5b926160405160405180910390a280935050505090565b611acd6131f7565b6001600460026101000a81548160ff021916908315150217905550565b611af26131f7565b600060038054905067ffffffffffffffff811115611b1357611b12613ce5565b5b604051908082528060200260200182016040528015611b4c57816020015b611b39613b2d565b815260200190600190039081611b315790505b50905060005b6003805490508160ff1610156121dd576002600060038360ff1681548110611b7d57611b7c6145b4565b5b9060005260206000200160009054906101000a900473ffffffffffffffffffffffffffffffffffffffff1673ffffffffffffffffffffffffffffffffffffffff1673ffffffffffffffffffffffffffffffffffffffff16815260200190815260200160002060010160049054906101000a900460ff16156121c9576000807f000000000000000000000000000000000000000000000000000000000000000073ffffffffffffffffffffffffffffffffffffffff1663ecba2dd76002600060038760ff1681548110611c5257611c516145b4565b5b9060005260206000200160009054906101000a900473ffffffffffffffffffffffffffffffffffffffff1673ffffffffffffffffffffffffffffffffffffffff1673ffffffffffffffffffffffffffffffffffffffff1681526020019081526020016000206000016002600060038860ff1681548110611cd557611cd46145b4565b5b9060005260206000200160009054906101000a900473ffffffffffffffffffffffffffffffffffffffff1673ffffffffffffffffffffffffffffffffffffffff1673ffffffffffffffffffffffffffffffffffffffff16815260200190815260200160002060010160009054906101000a900460ff166002600060038960ff1681548110611d6657611d656145b4565b5b9060005260206000200160009054906101000a900473ffffffffffffffffffffffffffffffffffffffff1673ffffffffffffffffffffffffffffffffffffffff1673ffffffffffffffffffffffffffffffffffffffff16815260200190815260200160002060010160019054906101000a900460ff166040518463ffffffff1660e01b8152600401611dfa93929190614da4565b606060405180830381865afa158015611e17573d6000803e3d6000fd5b505050506040513d601f19601f82011682018060405250810190611e3b9190614ddb565b915091508115611e9757611e9060038460ff1681548110611e5f57611e5e6145b4565b5b9060005260206000200160009054906101000a900473ffffffffffffffffffffffffffffffffffffffff1684613510565b50506121ca565b60007f000000000000000000000000000000000000000000000000000000000000000073ffffffffffffffffffffffffffffffffffffffff1663d6192ad36002600060038860ff1681548110611ef057611eef6145b4565b5b9060005260206000200160009054906101000a900473ffffffffffffffffffffffffffffffffffffffff1673ffffffffffffffffffffffffffffffffffffffff1673ffffffffffffffffffffffffffffffffffffffff1681526020019081526020016000206000016002600060038960ff1681548110611f7357611f726145b4565b5b9060005260206000200160009054906101000a900473ffffffffffffffffffffffffffffffffffffffff1673ffffffffffffffffffffffffffffffffffffffff1673ffffffffffffffffffffffffffffffffffffffff16815260200190815260200160002060010160029054906101000a900460ff166002600060038a60ff1681548110612004576120036145b4565b5b9060005260206000200160009054906101000a900473ffffffffffffffffffffffffffffffffffffffff1673ffffffffffffffffffffffffffffffffffffffff1673ffffffffffffffffffffffffffffffffffffffff16815260200190815260200160002060010160039054906101000a900460ff166040518463ffffffff1660e01b815260040161209893929190614da4565b6040805180830381865afa1580156120b4573d6000803e3d6000fd5b505050506040513d601f19601f820116820180604052508101906120d891906146f6565b905080858560ff16815181106120f1576120f06145b4565b5b6020026020010181905250816002600060038760ff1681548110612118576121176145b4565b5b9060005260206000200160009054906101000a900473ffffffffffffffffffffffffffffffffffffffff1673ffffffffffffffffffffffffffffffffffffffff1673ffffffffffffffffffffffffffffffffffffffff16815260200190815260200160002060000160008201518160000160006101000a81548160ff021916908360ff16021790555060208201518160000160016101000a81548160ff021916908360ff1602179055509050505050505b5b80806121d59061496a565b915050611b52565b506000600380549050111561260557600060038054905067ffffffffffffffff81111561220d5761220c613ce5565b5b60405190808252806020026020018201604052801561223b5781602001602082028036833780820191505090505b50905060005b6003805490508160ff16101561256c5760006001826122609190614750565b90505b6003805490508160ff161015612558578060ff168260ff16141580156123b457506002600060038460ff168154811061229f5761229e6145b4565b5b9060005260206000200160009054906101000a900473ffffffffffffffffffffffffffffffffffffffff1673ffffffffffffffffffffffffffffffffffffffff1673ffffffffffffffffffffffffffffffffffffffff16815260200190815260200160002060000160000160009054906101000a900460ff1660ff166002600060038460ff1681548110612336576123356145b4565b5b9060005260206000200160009054906101000a900473ffffffffffffffffffffffffffffffffffffffff1673ffffffffffffffffffffffffffffffffffffffff1673ffffffffffffffffffffffffffffffffffffffff16815260200190815260200160002060000160000160009054906101000a900460ff1660ff16145b80156124eb57506002600060038460ff16815481106123d6576123d56145b4565b5b9060005260206000200160009054906101000a900473ffffffffffffffffffffffffffffffffffffffff1673ffffffffffffffffffffffffffffffffffffffff1673ffffffffffffffffffffffffffffffffffffffff16815260200190815260200160002060000160000160019054906101000a900460ff1660ff166002600060038460ff168154811061246d5761246c6145b4565b5b9060005260206000200160009054906101000a900473ffffffffffffffffffffffffffffffffffffffff1673ffffffffffffffffffffffffffffffffffffffff1673ffffffffffffffffffffffffffffffffffffffff16815260200190815260200160002060000160000160019054906101000a900460ff1660ff16145b15612545576001838360ff1681518110612508576125076145b4565b5b6020026020010190151590811515815250506001838260ff1681518110612532576125316145b4565b5b6020026020010190151590811515815250505b80806125509061496a565b915050612263565b5080806125649061496a565b915050612241565b5060005b6003805490508160ff16101561260257818160ff1681518110612596576125956145b4565b5b6020026020010151156125ef576125ee60038260ff16815481106125bd576125bc6145b4565b5b9060005260206000200160009054906101000a900473ffffffffffffffffffffffffffffffffffffffff1682613510565b5b80806125fa9061496a565b915050612570565b50505b6000600380549050111561291357600060038054905067ffffffffffffffff81111561263457612633613ce5565b5b6040519080825280602002602001820160405280156126625781602001602082028036833780820191505090505b50905060005b6003805490508160ff16101561287a5760005b6003805490508160ff161015612866578060ff168260ff161415801561275a57506002600060038460ff16815481106126b7576126b66145b4565b5b9060005260206000200160009054906101000a900473ffffffffffffffffffffffffffffffffffffffff1673ffffffffffffffffffffffffffffffffffffffff1673ffffffffffffffffffffffffffffffffffffffff16815260200190815260200160002060000160000160009054906101000a900460ff1660ff16848260ff1681518110612749576127486145b4565b5b60200260200101516000015160ff16145b801561281f57506002600060038460ff168154811061277c5761277b6145b4565b5b9060005260206000200160009054906101000a900473ffffffffffffffffffffffffffffffffffffffff1673ffffffffffffffffffffffffffffffffffffffff1673ffffffffffffffffffffffffffffffffffffffff16815260200190815260200160002060000160000160019054906101000a900460ff1660ff16848260ff168151811061280e5761280d6145b4565b5b60200260200101516020015160ff16145b15612853576001838360ff168151811061283c5761283b6145b4565b5b602002602001019015159081151581525050612866565b808061285e9061496a565b91505061267b565b5080806128729061496a565b915050612668565b5060005b6003805490508160ff16101561291057818160ff16815181106128a4576128a36145b4565b5b6020026020010151156128fd576128fc60038260ff16815481106128cb576128ca6145b4565b5b9060005260206000200160009054906101000a900473ffffffffffffffffffffffffffffffffffffffff1682613510565b5b80806129089061496a565b91505061287e565b50505b60005b6003805490508160ff161015612ac057600073ffffffffffffffffffffffffffffffffffffffff1660038260ff1681548110612955576129546145b4565b5b9060005260206000200160009054906101000a900473ffffffffffffffffffffffffffffffffffffffff1673ffffffffffffffffffffffffffffffffffffffff1603612aad57600360016003805490506129af9190614e1b565b815481106129c0576129bf6145b4565b5b9060005260206000200160009054906101000a900473ffffffffffffffffffffffffffffffffffffffff1660038260ff1681548110612a0257612a016145b4565b5b9060005260206000200160006101000a81548173ffffffffffffffffffffffffffffffffffffffff021916908373ffffffffffffffffffffffffffffffffffffffff1602179055506003805480612a5c57612a5b614e4f565b5b6001900381819060005260206000200160006101000a81549073ffffffffffffffffffffffffffffffffffffffff0219169055905560008160ff161115612aac578080612aa890614e7e565b9150505b5b8080612ab89061496a565b915050612916565b50600060038054905003612b3e577fb609981dd10c4309ee2f55e2fd9b631438fb9d9de43270f098b64571e58352db604051612afb90614ef3565b60405180910390a16000600460006101000a81548160ff0219169083151502179055506001600460016101000a81548160ff021916908315150217905550612f9a565b600160038054905003612c23577fb609981dd10c4309ee2f55e2fd9b631438fb9d9de43270f098b64571e58352db612bb46003600081548110612b8457612b836145b4565b5b9060005260206000200160009054906101000a900473ffffffffffffffffffffffffffffffffffffffff166136fe565b604051602001612bc49190614fd0565b604051602081830303815290604052604051612be0919061502b565b60405180910390a16000600460006101000a81548160ff0219169083151502179055506001600460016101000a81548160ff021916908315150217905550612f99565b6003600081548110612c3857612c376145b4565b5b9060005260206000200160009054906101000a900473ffffffffffffffffffffffffffffffffffffffff1673ffffffffffffffffffffffffffffffffffffffff16600015157f71c863affc60bf856f78adf835c2f8d43a35f214dc51c98e8b9953560f30bf8260405160405180910390a360005b6003805490508160ff161015612f615760066002600060038460ff1681548110612cd957612cd86145b4565b5b9060005260206000200160009054906101000a900473ffffffffffffffffffffffffffffffffffffffff1673ffffffffffffffffffffffffffffffffffffffff1673ffffffffffffffffffffffffffffffffffffffff16815260200190815260200160002060010160006101000a81548160ff02191690836006811115612d6357612d626140ee565b5b021790555060006002600060038460ff1681548110612d8557612d846145b4565b5b9060005260206000200160009054906101000a900473ffffffffffffffffffffffffffffffffffffffff1673ffffffffffffffffffffffffffffffffffffffff1673ffffffffffffffffffffffffffffffffffffffff16815260200190815260200160002060010160016101000a81548160ff021916908360ff16021790555060066002600060038460ff1681548110612e2257612e216145b4565b5b9060005260206000200160009054906101000a900473ffffffffffffffffffffffffffffffffffffffff1673ffffffffffffffffffffffffffffffffffffffff1673ffffffffffffffffffffffffffffffffffffffff16815260200190815260200160002060010160026101000a81548160ff02191690836006811115612eac57612eab6140ee565b5b021790555060006002600060038460ff1681548110612ece57612ecd6145b4565b5b9060005260206000200160009054906101000a900473ffffffffffffffffffffffffffffffffffffffff1673ffffffffffffffffffffffffffffffffffffffff1673ffffffffffffffffffffffffffffffffffffffff16815260200190815260200160002060010160036101000a81548160ff021916908360ff1602179055508080612f599061496a565b915050612cac565b506000600460026101000a81548160ff0219169083151502179055506000600460036101000a81548160ff0219169083151502179055505b5b50565b6000807f000000000000000000000000000000000000000000000000000000000000000073ffffffffffffffffffffffffffffffffffffffff1663ecba2dd78686866040518463ffffffff1660e01b8152600401612ffd9392919061465a565b606060405180830381865afa15801561301a573d6000803e3d6000fd5b505050506040513d601f19601f8201168201806040525081019061303e9190614ddb565b915091508115613056576130513361372f565b61311b565b8060000151600260003373ffffffffffffffffffffffffffffffffffffffff1673ffffffffffffffffffffffffffffffffffffffff16815260200190815260200160002060000160000160006101000a81548160ff021916908360ff1602179055508060200151600260003373ffffffffffffffffffffffffffffffffffffffff1673ffffffffffffffffffffffffffffffffffffffff16815260200190815260200160002060000160000160016101000a81548160ff021916908360ff1602179055505b5050505050565b61312a6131f7565b600073ffffffffffffffffffffffffffffffffffffffff168173ffffffffffffffffffffffffffffffffffffffff1603613199576040517f08c379a0000000000000000000000000000000000000000000000000000000008152600401613190906150bf565b60405180910390fd5b6131a28161330e565b50565b600381815481106131b557600080fd5b906000526020600020016000915054906101000a900473ffffffffffffffffffffffffffffffffffffffff1681565b600460019054906101000a900460ff1681565b6131ff6137e1565b73ffffffffffffffffffffffffffffffffffffffff1661321d610f45565b73ffffffffffffffffffffffffffffffffffffffff1614613273576040517f08c379a000000000000000000000000000000000000000000000000000000000815260040161326a9061512b565b60405180910390fd5b565b61330b81604051602401613289919061502b565b6040516020818303038152906040527f41304fac000000000000000000000000000000000000000000000000000000007bffffffffffffffffffffffffffffffffffffffffffffffffffffffff19166020820180517bffffffffffffffffffffffffffffffffffffffffffffffffffffffff83818316178352505050506137e9565b50565b60008060009054906101000a900473ffffffffffffffffffffffffffffffffffffffff169050816000806101000a81548173ffffffffffffffffffffffffffffffffffffffff021916908373ffffffffffffffffffffffffffffffffffffffff1602179055508173ffffffffffffffffffffffffffffffffffffffff168173ffffffffffffffffffffffffffffffffffffffff167f8be0079c531659141344cd1fd0a4f28419497f9722a3daafe3b4186f6b6457e060405160405180910390a35050565b61346c8383836040516024016133ea9392919061514b565b6040516020818303038152906040527fca47c4eb000000000000000000000000000000000000000000000000000000007bffffffffffffffffffffffffffffffffffffffffffffffffffffffff19166020820180517bffffffffffffffffffffffffffffffffffffffffffffffffffffffff83818316178352505050506137e9565b505050565b61350b83838360405160240161348993929190615189565b6040516020818303038152906040527f1c7ec448000000000000000000000000000000000000000000000000000000007bffffffffffffffffffffffffffffffffffffffffffffffffffffffff19166020820180517bffffffffffffffffffffffffffffffffffffffffffffffffffffffff83818316178352505050506137e9565b505050565b6003805490508160ff161061355a576040517f08c379a000000000000000000000000000000000000000000000000000000000815260040161355190615213565b60405180910390fd5b8173ffffffffffffffffffffffffffffffffffffffff167fce0e3c7f8595684f9560df3c82cb81a6c5a649fcf1bdc96b2dc8b7bf228d650060405160405180910390a2600260008373ffffffffffffffffffffffffffffffffffffffff1673ffffffffffffffffffffffffffffffffffffffff1681526020019081526020016000206000808201600080820160006101000a81549060ff02191690556000820160016101000a81549060ff021916905550506001820160006101000a81549060ff02191690556001820160016101000a81549060ff02191690556001820160026101000a81549060ff02191690556001820160036101000a81549060ff02191690556001820160046101000a81549060ff02191690556001820160056101000a81549073ffffffffffffffffffffffffffffffffffffffff02191690555050600060038260ff16815481106136b2576136b16145b4565b5b9060005260206000200160006101000a81548173ffffffffffffffffffffffffffffffffffffffff021916908373ffffffffffffffffffffffffffffffffffffffff1602179055505050565b606061372882604051602001613714919061527b565b604051602081830303815290604052613812565b9050919050565b6000805b6003805490508160ff1610156137d2578273ffffffffffffffffffffffffffffffffffffffff1660038260ff1681548110613771576137706145b4565b5b9060005260206000200160009054906101000a900473ffffffffffffffffffffffffffffffffffffffff1673ffffffffffffffffffffffffffffffffffffffff16036137bf578091506137d2565b80806137ca9061496a565b915050613733565b506137dd8282613510565b5050565b600033905090565b60008151905060006a636f6e736f6c652e6c6f679050602083016000808483855afa5050505050565b606060006040518060400160405280601081526020017f3031323334353637383961626364656600000000000000000000000000000000815250905060006002845161385e9190615296565b600261386a9190614936565b67ffffffffffffffff81111561388357613882613ce5565b5b6040519080825280601f01601f1916602001820160405280156138b55781602001600182028036833780820191505090505b5090507f3000000000000000000000000000000000000000000000000000000000000000816000815181106138ed576138ec6145b4565b5b60200101907effffffffffffffffffffffffffffffffffffffffffffffffffffffffffffff1916908160001a9053507f780000000000000000000000000000000000000000000000000000000000000081600181518110613951576139506145b4565b5b60200101907effffffffffffffffffffffffffffffffffffffffffffffffffffffffffffff1916908160001a90535060005b8451811015613b01578260048683815181106139a2576139a16145b4565b5b602001015160f81c60f81b7effffffffffffffffffffffffffffffffffffffffffffffffffffffffffffff1916901c60f81c60ff16815181106139e8576139e76145b4565b5b602001015160f81c60f81b82600283613a019190615296565b6002613a0d9190614936565b81518110613a1e57613a1d6145b4565b5b60200101907effffffffffffffffffffffffffffffffffffffffffffffffffffffffffffff1916908160001a90535082600f60f81b868381518110613a6657613a656145b4565b5b602001015160f81c60f81b1660f81c60ff1681518110613a8957613a886145b4565b5b602001015160f81c60f81b82600283613aa29190615296565b6003613aae9190614936565b81518110613abf57613abe6145b4565b5b60200101907effffffffffffffffffffffffffffffffffffffffffffffffffffffffffffff1916908160001a9053508080613af990614612565b915050613983565b508092505050919050565b5080546000825590600052602060002090810190613b2a9190613c04565b50565b6040518060400160405280600060ff168152602001600060ff1681525090565b6040518060800160405280600060ff168152602001600060ff1681526020016000151581526020016000151581525090565b6040518060e00160405280613b92613b2d565b815260200160006006811115613bab57613baa6140ee565b5b8152602001600060ff16815260200160006006811115613bce57613bcd6140ee565b5b8152602001600060ff168152602001600015158152602001600073ffffffffffffffffffffffffffffffffffffffff1681525090565b5b80821115613c1d576000816000905550600101613c05565b5090565b6000604051905090565b600080fd5b600080fd5b600060ff82169050919050565b613c4b81613c35565b8114613c5657600080fd5b50565b600081359050613c6881613c42565b92915050565b600060208284031215613c8457613c83613c2b565b5b6000613c9284828501613c59565b91505092915050565b6000819050919050565b613cae81613c9b565b82525050565b6000602082019050613cc96000830184613ca5565b92915050565b600080fd5b6000601f19601f8301169050919050565b7f4e487b7100000000000000000000000000000000000000000000000000000000600052604160045260246000fd5b613d1d82613cd4565b810181811067ffffffffffffffff82111715613d3c57613d3b613ce5565b5b80604052505050565b6000613d4f613c21565b9050613d5b8282613d14565b919050565b600060408284031215613d7657613d75613ccf565b5b613d806040613d45565b90506000613d9084828501613c59565b6000830152506020613da484828501613c59565b60208301525092915050565b60078110613dbd57600080fd5b50565b600081359050613dcf81613db0565b92915050565b600080600060808486031215613dee57613ded613c2b565b5b6000613dfc86828701613d60565b9350506040613e0d86828701613dc0565b9250506060613e1e86828701613c59565b9150509250925092565b613e3181613c35565b82525050565b604082016000820151613e4d6000850182613e28565b506020820151613e606020850182613e28565b50505050565b6000604082019050613e7b6000830184613e37565b92915050565b600081519050919050565b600082825260208201905092915050565b6000819050602082019050919050565b604082016000820151613ec36000850182613e28565b506020820151613ed66020850182613e28565b50505050565b6000613ee88383613ead565b60408301905092915050565b6000602082019050919050565b6000613f0c82613e81565b613f168185613e8c565b9350613f2183613e9d565b8060005b83811015613f52578151613f398882613edc565b9750613f4483613ef4565b925050600181019050613f25565b5085935050505092915050565b60006020820190508181036000830152613f798184613f01565b905092915050565b60008115159050919050565b613f9681613f81565b82525050565b6000602082019050613fb16000830184613f8d565b92915050565b600060408284031215613fcd57613fcc613c2b565b5b6000613fdb84828501613d60565b91505092915050565b613fed81613f81565b82525050565b6080820160008201516140096000850182613e28565b50602082015161401c6020850182613e28565b50604082015161402f6040850182613fe4565b5060608201516140426060850182613fe4565b50505050565b600060808201905061405d6000830184613ff3565b92915050565b600073ffffffffffffffffffffffffffffffffffffffff82169050919050565b600061408e82614063565b9050919050565b61409e81614083565b81146140a957600080fd5b50565b6000813590506140bb81614095565b92915050565b6000602082840312156140d7576140d6613c2b565b5b60006140e5848285016140ac565b91505092915050565b7f4e487b7100000000000000000000000000000000000000000000000000000000600052602160045260246000fd5b6007811061412e5761412d6140ee565b5b50565b600081905061413f8261411d565b919050565b600061414f82614131565b9050919050565b61415f81614144565b82525050565b61416e81613c35565b82525050565b61417d81614083565b82525050565b600061010082019050614199600083018a613e37565b6141a66040830189614156565b6141b36060830188614165565b6141c06080830187614156565b6141cd60a0830186614165565b6141da60c0830185613f8d565b6141e760e0830184614174565b98975050505050505050565b600081519050919050565b600082825260208201905092915050565b6000819050602082019050919050565b61422881614144565b82525050565b61423781614083565b82525050565b610100820160008201516142546000850182613ead565b506020820151614267604085018261421f565b50604082015161427a6060850182613e28565b50606082015161428d608085018261421f565b5060808201516142a060a0850182613e28565b5060a08201516142b360c0850182613fe4565b5060c08201516142c660e085018261422e565b50505050565b60006142d8838361423d565b6101008301905092915050565b6000602082019050919050565b60006142fd826141f3565b61430781856141fe565b93506143128361420f565b8060005b8381101561434357815161432a88826142cc565b9750614335836142e5565b925050600181019050614316565b5085935050505092915050565b6000602082019050818103600083015261436a81846142f2565b905092915050565b60006020820190506143876000830184614174565b92915050565b60006020820190506143a26000830184614165565b92915050565b6000819050919050565b6143bb816143a8565b81146143c657600080fd5b50565b6000813590506143d8816143b2565b92915050565b6000602082840312156143f4576143f3613c2b565b5b6000614402848285016143c9565b91505092915050565b61441481613c9b565b811461441f57600080fd5b50565b6000813590506144318161440b565b92915050565b600080600080600060a0868803121561445357614452613c2b565b5b600061446188828901613dc0565b955050602061447288828901613c59565b945050604061448388828901613dc0565b935050606061449488828901613c59565b92505060806144a588828901614422565b9150509295509295909350565b6144bb816143a8565b82525050565b60006020820190506144d660008301846144b2565b92915050565b610100820160008201516144f36000850182613ead565b506020820151614506604085018261421f565b5060408201516145196060850182613e28565b50606082015161452c608085018261421f565b50608082015161453f60a0850182613e28565b5060a082015161455260c0850182613fe4565b5060c082015161456560e085018261422e565b50505050565b60006101008201905061458160008301846144dc565b92915050565b60006020828403121561459d5761459c613c2b565b5b60006145ab84828501614422565b91505092915050565b7f4e487b7100000000000000000000000000000000000000000000000000000000600052603260045260246000fd5b7f4e487b7100000000000000000000000000000000000000000000000000000000600052601160045260246000fd5b600061461d82613c9b565b91507fffffffffffffffffffffffffffffffffffffffffffffffffffffffffffffffff820361464f5761464e6145e3565b5b600182019050919050565b600060808201905061466f6000830186613e37565b61467c6040830185614156565b6146896060830184614165565b949350505050565b6000815190506146a081613c42565b92915050565b6000604082840312156146bc576146bb613ccf565b5b6146c66040613d45565b905060006146d684828501614691565b60008301525060206146ea84828501614691565b60208301525092915050565b60006040828403121561470c5761470b613c2b565b5b600061471a848285016146a6565b91505092915050565b60006020828403121561473957614738613c2b565b5b600061474784828501614691565b91505092915050565b600061475b82613c35565b915061476683613c35565b9250828201905060ff81111561477f5761477e6145e3565b5b92915050565b600061479082613c35565b915061479b83613c35565b92508282026147a981613c35565b91508082146147bb576147ba6145e3565b5b5092915050565b60006147cd82613c35565b91506147d883613c35565b9250828203905060ff8111156147f1576147f06145e3565b5b92915050565b600060608201905061480c6000830185613e37565b6148196040830184614165565b9392505050565b600080fd5b600067ffffffffffffffff8211156148405761483f613ce5565b5b602082029050602081019050919050565b600080fd5b600061486961486484614825565b613d45565b9050808382526020820190506040840283018581111561488c5761488b614851565b5b835b818110156148b557806148a188826146a6565b84526020840193505060408101905061488e565b5050509392505050565b600082601f8301126148d4576148d3614820565b5b81516148e4848260208601614856565b91505092915050565b60006020828403121561490357614902613c2b565b5b600082015167ffffffffffffffff81111561492157614920613c30565b5b61492d848285016148bf565b91505092915050565b600061494182613c9b565b915061494c83613c9b565b9250828201905080821115614964576149636145e3565b5b92915050565b600061497582613c35565b915060ff8203614988576149876145e3565b5b600182019050919050565b61499c81613f81565b81146149a757600080fd5b50565b6000815190506149b981614993565b92915050565b6000608082840312156149d5576149d4613ccf565b5b6149df6080613d45565b905060006149ef84828501614691565b6000830152506020614a0384828501614691565b6020830152506040614a17848285016149aa565b6040830152506060614a2b848285016149aa565b60608301525092915050565b600060808284031215614a4d57614a4c613c2b565b5b6000614a5b848285016149bf565b91505092915050565b600082825260208201905092915050565b7f436f6d6d6974206d6f76657320686173206e6f7420737461727465642079657460008201527f2100000000000000000000000000000000000000000000000000000000000000602082015250565b6000614ad1602183614a64565b9150614adc82614a75565b604082019050919050565b60006020820190508181036000830152614b0081614ac4565b9050919050565b7f5375626d6974206d6f76657320686173206e6f7420737461727465642079657460008201527f2100000000000000000000000000000000000000000000000000000000000000602082015250565b6000614b63602183614a64565b9150614b6e82614b07565b604082019050919050565b60006020820190508181036000830152614b9281614b56565b9050919050565b60008160f81b9050919050565b6000614bb182614b99565b9050919050565b614bc9614bc482614144565b614ba6565b82525050565b614be0614bdb82613c35565b614ba6565b82525050565b6000819050919050565b614c01614bfc82613c9b565b614be6565b82525050565b6000614c138288614bb8565b600182019150614c238287614bcf565b600182019150614c338286614bb8565b600182019150614c438285614bcf565b600182019150614c538284614bf0565b6020820191508190509695505050505050565b7f47616d6520686173206e6f742073746172746564207965742100000000000000600082015250565b6000614c9c601983614a64565b9150614ca782614c66565b602082019050919050565b60006020820190508181036000830152614ccb81614c8f565b9050919050565b6000606082019050614ce76000830186614174565b614cf46020830185614165565b614d016040830184614165565b949350505050565b60008160001c9050919050565b600060ff82169050919050565b6000614d36614d3183614d09565b614d16565b9050919050565b60008160081c9050919050565b6000614d5d614d5883614d3d565b614d16565b9050919050565b604082016000808301549050614d7981614d23565b614d866000860182613e28565b50614d9081614d4a565b614d9d6020860182613e28565b5050505050565b6000608082019050614db96000830186614d64565b614dc66040830185614156565b614dd36060830184614165565b949350505050565b60008060608385031215614df257614df1613c2b565b5b6000614e00858286016149aa565b9250506020614e11858286016146a6565b9150509250929050565b6000614e2682613c9b565b9150614e3183613c9b565b9250828203905081811115614e4957614e486145e3565b5b92915050565b7f4e487b7100000000000000000000000000000000000000000000000000000000600052603160045260246000fd5b6000614e8982613c35565b915060008203614e9c57614e9b6145e3565b5b600182039050919050565b7f4e6f2077696e6e65720000000000000000000000000000000000000000000000600082015250565b6000614edd600983614a64565b9150614ee882614ea7565b602082019050919050565b60006020820190508181036000830152614f0c81614ed0565b9050919050565b600081905092915050565b7f5468652047616d652077696e6e65722069733a20000000000000000000000000600082015250565b6000614f54601483614f13565b9150614f5f82614f1e565b601482019050919050565b600081519050919050565b60005b83811015614f93578082015181840152602081019050614f78565b60008484015250505050565b6000614faa82614f6a565b614fb48185614f13565b9350614fc4818560208601614f75565b80840191505092915050565b6000614fdb82614f47565b9150614fe78284614f9f565b915081905092915050565b6000614ffd82614f6a565b6150078185614a64565b9350615017818560208601614f75565b61502081613cd4565b840191505092915050565b600060208201905081810360008301526150458184614ff2565b905092915050565b7f4f776e61626c653a206e6577206f776e657220697320746865207a65726f206160008201527f6464726573730000000000000000000000000000000000000000000000000000602082015250565b60006150a9602683614a64565b91506150b48261504d565b604082019050919050565b600060208201905081810360008301526150d88161509c565b9050919050565b7f4f776e61626c653a2063616c6c6572206973206e6f7420746865206f776e6572600082015250565b6000615115602083614a64565b9150615120826150df565b602082019050919050565b6000602082019050818103600083015261514481615108565b9050919050565b600060608201905081810360008301526151658186614ff2565b90506151746020830185613ca5565b6151816040830184613ca5565b949350505050565b600060608201905081810360008301526151a38186614ff2565b90506151b26020830185613ca5565b6151bf6040830184614174565b949350505050565b7f496e6465782076616c7565206f7574206f662072616e67650000000000000000600082015250565b60006151fd601883614a64565b9150615208826151c7565b602082019050919050565b6000602082019050818103600083015261522c816151f0565b9050919050565b60008160601b9050919050565b600061524b82615233565b9050919050565b600061525d82615240565b9050919050565b61527561527082614083565b615252565b82525050565b60006152878284615264565b60148201915081905092915050565b60006152a182613c9b565b91506152ac83613c9b565b92508282026152ba81613c9b565b915082820484148315176152d1576152d06145e3565b5b509291505056fea2646970667358221220d9cc1a3bc53b72bc326eb02d296191f6d0503ea1a256098b7b75716ee924644764736f6c63430008120033",
  "linkReferences": {},
  "deployedLinkReferences": {}
}