{
  "_format": "hh-sol-artifact-1",
  "contractName": "Map",
  "sourceName": "contracts/Map.sol",
  "abi": [
    {
      "inputs": [
        {
          "internalType": "uint256",
          "name": "_seed",
          "type": "uint256"
        }
      ],
      "stateMutability": "nonpayable",
      "type": "constructor"
    },
    {
      "inputs": [
        {
          "internalType": "uint256",
          "name": "suppliedSize",
          "type": "uint256"
        },
        {
          "internalType": "uint256",
          "name": "maxSize",
          "type": "uint256"
        }
      ],
      "name": "MapSizeMustBeInRange",
      "type": "error"
    },
    {
      "inputs": [],
      "name": "createIslands",
      "outputs": [],
      "stateMutability": "nonpayable",
      "type": "function"
    },
    {
      "inputs": [
        {
          "components": [
            {
              "internalType": "uint8",
              "name": "q",
              "type": "uint8"
            },
            {
              "internalType": "uint8",
              "name": "r",
              "type": "uint8"
            }
          ],
          "internalType": "struct SharedStructs.Coordinate",
          "name": "_coord",
          "type": "tuple"
        }
      ],
      "name": "deleteCell",
      "outputs": [],
      "stateMutability": "nonpayable",
      "type": "function"
    },
    {
      "inputs": [
        {
          "components": [
            {
              "internalType": "uint8",
              "name": "q",
              "type": "uint8"
            },
            {
              "internalType": "uint8",
              "name": "r",
              "type": "uint8"
            }
          ],
          "internalType": "struct SharedStructs.Coordinate",
          "name": "_a",
          "type": "tuple"
        },
        {
          "components": [
            {
              "internalType": "uint8",
              "name": "q",
              "type": "uint8"
            },
            {
              "internalType": "uint8",
              "name": "r",
              "type": "uint8"
            }
          ],
          "internalType": "struct SharedStructs.Coordinate",
          "name": "_b",
          "type": "tuple"
        }
      ],
      "name": "distance",
      "outputs": [
        {
          "internalType": "uint8",
          "name": "",
          "type": "uint8"
        }
      ],
      "stateMutability": "pure",
      "type": "function"
    },
    {
      "inputs": [
        {
          "components": [
            {
              "internalType": "uint8",
              "name": "q",
              "type": "uint8"
            },
            {
              "internalType": "uint8",
              "name": "r",
              "type": "uint8"
            }
          ],
          "internalType": "struct SharedStructs.Coordinate",
          "name": "_coord",
          "type": "tuple"
        }
      ],
      "name": "getCell",
      "outputs": [
        {
          "components": [
            {
              "internalType": "uint8",
              "name": "q",
              "type": "uint8"
            },
            {
              "internalType": "uint8",
              "name": "r",
              "type": "uint8"
            },
            {
              "internalType": "bool",
              "name": "island",
              "type": "bool"
            },
            {
              "internalType": "bool",
              "name": "exists",
              "type": "bool"
            }
          ],
          "internalType": "struct SharedStructs.Cell",
          "name": "",
          "type": "tuple"
        }
      ],
      "stateMutability": "view",
      "type": "function"
    },
    {
      "inputs": [],
      "name": "getRandomCoordinatePair",
      "outputs": [
        {
          "components": [
            {
              "internalType": "uint8",
              "name": "q",
              "type": "uint8"
            },
            {
              "internalType": "uint8",
              "name": "r",
              "type": "uint8"
            }
          ],
          "internalType": "struct SharedStructs.Coordinate",
          "name": "",
          "type": "tuple"
        }
      ],
      "stateMutability": "nonpayable",
      "type": "function"
    },
    {
      "inputs": [
        {
          "internalType": "uint8",
          "name": "",
          "type": "uint8"
        },
        {
          "internalType": "uint8",
          "name": "",
          "type": "uint8"
        }
      ],
      "name": "hexCells",
      "outputs": [
        {
          "internalType": "uint8",
          "name": "q",
          "type": "uint8"
        },
        {
          "internalType": "uint8",
          "name": "r",
          "type": "uint8"
        },
        {
          "internalType": "bool",
          "name": "island",
          "type": "bool"
        },
        {
          "internalType": "bool",
          "name": "exists",
          "type": "bool"
        }
      ],
      "stateMutability": "view",
      "type": "function"
    },
    {
      "inputs": [
        {
          "internalType": "uint8",
          "name": "_radius",
          "type": "uint8"
        }
      ],
      "name": "initMap",
      "outputs": [],
      "stateMutability": "nonpayable",
      "type": "function"
    },
    {
      "inputs": [
        {
          "components": [
            {
              "internalType": "uint8",
              "name": "q",
              "type": "uint8"
            },
            {
              "internalType": "uint8",
              "name": "r",
              "type": "uint8"
            }
          ],
          "internalType": "struct SharedStructs.Coordinate",
          "name": "_coord",
          "type": "tuple"
        }
      ],
      "name": "isIsland",
      "outputs": [
        {
          "internalType": "bool",
          "name": "",
          "type": "bool"
        }
      ],
      "stateMutability": "view",
      "type": "function"
    },
    {
      "inputs": [
        {
          "components": [
            {
              "internalType": "uint8",
              "name": "q",
              "type": "uint8"
            },
            {
              "internalType": "uint8",
              "name": "r",
              "type": "uint8"
            }
          ],
          "internalType": "struct SharedStructs.Coordinate",
          "name": "_start",
          "type": "tuple"
        },
        {
          "internalType": "enum SharedStructs.Directions",
          "name": "_dir",
          "type": "uint8"
        },
        {
          "internalType": "uint8",
          "name": "_distance",
          "type": "uint8"
        }
      ],
      "name": "move",
      "outputs": [
        {
          "components": [
            {
              "internalType": "uint8",
              "name": "q",
              "type": "uint8"
            },
            {
              "internalType": "uint8",
              "name": "r",
              "type": "uint8"
            }
          ],
          "internalType": "struct SharedStructs.Coordinate",
          "name": "",
          "type": "tuple"
        }
      ],
      "stateMutability": "view",
      "type": "function"
    },
    {
      "inputs": [],
      "name": "radius",
      "outputs": [
        {
          "internalType": "uint8",
          "name": "",
          "type": "uint8"
        }
      ],
      "stateMutability": "view",
      "type": "function"
    },
    {
      "inputs": [
        {
          "components": [
            {
              "internalType": "uint8",
              "name": "q",
              "type": "uint8"
            },
            {
              "internalType": "uint8",
              "name": "r",
              "type": "uint8"
            }
          ],
          "internalType": "struct SharedStructs.Coordinate",
          "name": "_center",
          "type": "tuple"
        },
        {
          "internalType": "uint8",
          "name": "_radius",
          "type": "uint8"
        }
      ],
      "name": "ring",
      "outputs": [
        {
          "components": [
            {
              "internalType": "uint8",
              "name": "q",
              "type": "uint8"
            },
            {
              "internalType": "uint8",
              "name": "r",
              "type": "uint8"
            }
          ],
          "internalType": "struct SharedStructs.Coordinate[]",
          "name": "",
          "type": "tuple[]"
        }
      ],
      "stateMutability": "view",
      "type": "function"
    },
    {
      "inputs": [
        {
          "components": [
            {
              "internalType": "uint8",
              "name": "q",
              "type": "uint8"
            },
            {
              "internalType": "uint8",
              "name": "r",
              "type": "uint8"
            }
          ],
          "internalType": "struct SharedStructs.Coordinate",
          "name": "_startCell",
          "type": "tuple"
        },
        {
          "internalType": "enum SharedStructs.Directions",
          "name": "_direction",
          "type": "uint8"
        },
        {
          "internalType": "uint8",
          "name": "_distance",
          "type": "uint8"
        }
      ],
      "name": "travel",
      "outputs": [
        {
          "internalType": "bool",
          "name": "",
          "type": "bool"
        },
        {
          "components": [
            {
              "internalType": "uint8",
              "name": "q",
              "type": "uint8"
            },
            {
              "internalType": "uint8",
              "name": "r",
              "type": "uint8"
            }
          ],
          "internalType": "struct SharedStructs.Coordinate",
          "name": "",
          "type": "tuple"
        }
      ],
      "stateMutability": "view",
      "type": "function"
    }
  ],
  "bytecode": "0x60806040523480156200001157600080fd5b506040516200256a3803806200256a83398181016040528101906200003791906200058a565b6200004d81620004d860201b62000e2f1760201c565b60036000820151816000015560208201518160010160006101000a81548160ff021916908360ff1602179055509050506040518060400160405280600160000b81526020016000800b815250600080806005811115620000b257620000b1620005bc565b5b6005811115620000c757620000c6620005bc565b5b815260200190815260200160002060008201518160000160006101000a81548160ff021916908360000b60ff16021790555060208201518160000160016101000a81548160ff021916908360000b60ff1602179055509050506040518060400160405280600160000b81526020017fffffffffffffffffffffffffffffffffffffffffffffffffffffffffffffffff60000b81525060008060016005811115620001765762000175620005bc565b5b60058111156200018b576200018a620005bc565b5b815260200190815260200160002060008201518160000160006101000a81548160ff021916908360000b60ff16021790555060208201518160000160016101000a81548160ff021916908360000b60ff16021790555090505060405180604001604052806000800b81526020017fffffffffffffffffffffffffffffffffffffffffffffffffffffffffffffffff60000b81525060008060026005811115620002395762000238620005bc565b5b60058111156200024e576200024d620005bc565b5b815260200190815260200160002060008201518160000160006101000a81548160ff021916908360000b60ff16021790555060208201518160000160016101000a81548160ff021916908360000b60ff16021790555090505060405180604001604052807fffffffffffffffffffffffffffffffffffffffffffffffffffffffffffffffff60000b81526020016000800b81525060008060036005811115620002fc57620002fb620005bc565b5b6005811115620003115762000310620005bc565b5b815260200190815260200160002060008201518160000160006101000a81548160ff021916908360000b60ff16021790555060208201518160000160016101000a81548160ff021916908360000b60ff16021790555090505060405180604001604052807fffffffffffffffffffffffffffffffffffffffffffffffffffffffffffffffff60000b8152602001600160000b81525060008060046005811115620003c057620003bf620005bc565b5b6005811115620003d557620003d4620005bc565b5b815260200190815260200160002060008201518160000160006101000a81548160ff021916908360000b60ff16021790555060208201518160000160016101000a81548160ff021916908360000b60ff16021790555090505060405180604001604052806000800b8152602001600160000b815250600080600580811115620004635762000462620005bc565b5b6005811115620004785762000477620005bc565b5b815260200190815260200160002060008201518160000160006101000a81548160ff021916908360000b60ff16021790555060208201518160000160016101000a81548160ff021916908360000b60ff1602179055509050505062000619565b620004e26200052d565b604051806040016040528083604051602001620005009190620005fc565b6040516020818303038152906040528051906020012060001c8152602001600060ff168152509050919050565b604051806040016040528060008152602001600060ff1681525090565b600080fd5b6000819050919050565b62000564816200054f565b81146200057057600080fd5b50565b600081519050620005848162000559565b92915050565b600060208284031215620005a357620005a26200054a565b5b6000620005b38482850162000573565b91505092915050565b7f4e487b7100000000000000000000000000000000000000000000000000000000600052602160045260246000fd5b620005f6816200054f565b82525050565b6000602082019050620006136000830184620005eb565b92915050565b611f4180620006296000396000f3fe608060405234801561001057600080fd5b50600436106100b45760003560e01c80633ac245d9116100715780633ac245d9146101b8578063669636e2146101e8578063880655cc14610204578063949996881461022057806396e963c11461022a578063ecba2dd71461025a576100b4565b80631a84a4ea146100b957806320bff431146100e9578063217f435314610119578063335a00831461013757806336579c5b1461016a57806339e5c4a014610188575b600080fd5b6100d360048036038101906100ce9190611323565b61028b565b6040516100e091906113b4565b60405180910390f35b61010360048036038101906100fe91906113cf565b610383565b604051610110919061141e565b60405180910390f35b61012161041f565b60405161012e919061141e565b60405180910390f35b610151600480360381019061014c9190611439565b610432565b6040516101619493929190611494565b60405180910390f35b6101726104a3565b60405161017f91906113b4565b60405180910390f35b6101a2600480360381019061019d91906114d9565b61070c565b6040516101af91906115f7565b60405180910390f35b6101d260048036038101906101cd9190611619565b610856565b6040516101df91906116aa565b60405180910390f35b61020260048036038101906101fd91906116c5565b610918565b005b61021e60048036038101906102199190611716565b610b70565b005b610228610c21565b005b610244600480360381019061023f9190611619565b610d19565b6040516102519190611743565b60405180910390f35b610274600480360381019061026f9190611323565b610d73565b60405161028292919061175e565b60405180910390f35b610293611166565b6000826000808660058111156102ac576102ab611787565b5b60058111156102be576102bd611787565b5b815260200190815260200160002060000160009054906101000a900460000b6102e791906117f2565b85600001516102f6919061182f565b905060008360008087600581111561031157610310611787565b5b600581111561032357610322611787565b5b815260200190815260200160002060000160019054906101000a900460000b61034c91906117f2565b866020015161035b919061182f565b905060405180604001604052808360ff1681526020018260ff16815250925050509392505050565b600060026103a38360200151856020015161039e9190611888565b610e80565b6103dd84602001518560000151876020015188600001516103c4919061182f565b6103ce9190611888565b6103d89190611888565b610e80565b6103f9856000015187600001516103f49190611888565b610e80565b610403919061182f565b61040d919061182f565b6104179190611910565b905092915050565b600260009054906101000a900460ff1681565b6001602052816000526040600020602052806000526040600020600091509150508060000160009054906101000a900460ff16908060000160019054906101000a900460ff16908060000160029054906101000a900460ff16908060000160039054906101000a900460ff16905084565b6104ab611166565b600060405180604001604052806104de6003600260009054906101000a900460ff1660026104d9919061197a565b610ea4565b60ff16815260200161050c6003600260009054906101000a900460ff166002610507919061197a565b610ea4565b60ff168152509050600060016000836020015160ff1660ff1681526020019081526020016000206000836000015160ff1660ff1681526020019081526020016000206040518060800160405290816000820160009054906101000a900460ff1660ff1660ff1681526020016000820160019054906101000a900460ff1660ff1660ff1681526020016000820160029054906101000a900460ff161515151581526020016000820160039054906101000a900460ff16151515158152505090505b806060015115806105de575080604001515b156107045760405180604001604052806106146003600260009054906101000a900460ff16600261060f919061197a565b610ea4565b60ff1681526020016106426003600260009054906101000a900460ff16600261063d919061197a565b610ea4565b60ff16815250915060016000836020015160ff1660ff1681526020019081526020016000206000836000015160ff1660ff1681526020019081526020016000206040518060800160405290816000820160009054906101000a900460ff1660ff1660ff1681526020016000820160019054906101000a900460ff1660ff1660ff1681526020016000820160029054906101000a900460ff161515151581526020016000820160039054906101000a900460ff16151515158152505090506105cc565b819250505090565b6060600060068361071d919061197a565b60ff1667ffffffffffffffff811115610739576107386111fa565b5b60405190808252806020026020018201604052801561077257816020015b61075f611166565b8152602001906001900390816107575790505b50905060006107838560048661028b565b9050600080600581111561079a57610799611787565b5b90505b6005808111156107b0576107af611787565b5b8160ff161161084a5760005b8560ff168160ff1610156108365782848288856107d9919061197a565b6107e391906119b7565b60ff16815181106107f7576107f66119ec565b5b6020026020010181905250610821838360ff16600581111561081c5761081b611787565b5b610fcc565b9250808061082e90611a1b565b9150506107bc565b50808061084290611a1b565b91505061079d565b50819250505092915050565b61085e611186565b60016000836020015160ff1660ff1681526020019081526020016000206000836000015160ff1660ff1681526020019081526020016000206040518060800160405290816000820160009054906101000a900460ff1660ff1660ff1681526020016000820160019054906101000a900460ff1660ff1660ff1681526020016000820160029054906101000a900460ff161515151581526020016000820160039054906101000a900460ff1615151515815250509050919050565b607f60ff168160ff1611156109675780607f6040517fe48c3a9d00000000000000000000000000000000000000000000000000000000815260040161095e929190611a89565b60405180910390fd5b80600260006101000a81548160ff021916908360ff1602179055506040518060800160405280600260009054906101000a900460ff1660ff168152602001600260009054906101000a900460ff1660ff1681526020016000151581526020016001151581525060016000600260009054906101000a900460ff1660ff1660ff1681526020019081526020016000206000600260009054906101000a900460ff1660ff1660ff16815260200190815260200160002060008201518160000160006101000a81548160ff021916908360ff16021790555060208201518160000160016101000a81548160ff021916908360ff16021790555060408201518160000160026101000a81548160ff02191690831515021790555060608201518160000160036101000a81548160ff0219169083151502179055509050506000600190505b600260009054906101000a900460ff1660ff168160ff1611610b6c5760006040518060400160405280600260009054906101000a900460ff1660ff168152602001600260009054906101000a900460ff1660ff1681525090506000610b0c828461070c565b905060005b81518160ff161015610b5657610b43828260ff1681518110610b3657610b356119ec565b5b6020026020010151610fe8565b8080610b4e90611a1b565b915050610b11565b5050508080610b6490611a1b565b915050610aa7565b5050565b610bae6040518060400160405280601181526020017f43616c6c65642064656c65746543656c6c0000000000000000000000000000008152506110a4565b600060016000836020016020810190610bc791906116c5565b60ff1660ff1681526020019081526020016000206000836000016020810190610bf091906116c5565b60ff1660ff16815260200190815260200160002060000160036101000a81548160ff02191690831515021790555050565b60006001600260009054906101000a900460ff1660ff16610c429190611ab2565b600260009054906101000a900460ff1660ff166003610c619190611ae6565b610c6b9190611ae6565b6001610c779190611ab2565b905060006064601083610c8a9190611ae6565b610c949190611b28565b905060005b81811015610d14576000610cab6104a3565b90506001806000836020015160ff1660ff1681526020019081526020016000206000836000015160ff1660ff16815260200190815260200160002060000160026101000a81548160ff021916908315150217905550508080610d0c90611b59565b915050610c99565b505050565b6000610d596040518060400160405280600f81526020017f43616c6c656420697349736c616e6400000000000000000000000000000000008152506110a4565b6000610d6483610856565b90508060400151915050919050565b6000610d7d611166565b610dbb6040518060400160405280600d81526020017f43616c6c65642074726176656c000000000000000000000000000000000000008152506110a4565b60005b8360ff168160ff161015610e1e57610dd68686610fcc565b95506000610de387610856565b9050806040015180610df757508060600151155b15610e0a57600187935093505050610e27565b508080610e1690611a1b565b915050610dbe565b50600085915091505b935093915050565b610e376111b8565b604051806040016040528083604051602001610e539190611bb0565b6040516020818303038152906040528051906020012060001c8152602001600060ff168152509050919050565b6000808260000b12610e925781610e9d565b81610e9c90611bcb565b5b9050919050565b60006001600860ff16610100610eba9190611c21565b610ec49190611c52565b60ff168360010160009054906101000a900460ff1660ff1610610f36578260000154604051602001610ef69190611bb0565b6040516020818303038152906040528051906020012060001c836000018190555060008360010160006101000a81548160ff021916908360ff1602179055505b600082600160086002610f499190611dba565b610f539190611e05565b8560010160009054906101000a900460ff166008610f71919061197a565b60ff168660000154901c16610f869190611e39565b905083600101600081819054906101000a900460ff1680929190610fa990611a1b565b91906101000a81548160ff021916908360ff160217905550508091505092915050565b610fd4611166565b610fe08383600161028b565b905092915050565b600060016000836020015160ff1660ff1681526020019081526020016000206000836000015160ff1660ff168152602001908152602001600020905081600001518160000160006101000a81548160ff021916908360ff16021790555081602001518160000160016101000a81548160ff021916908360ff16021790555060008160000160026101000a81548160ff02191690831515021790555060018160000160036101000a81548160ff0219169083151502179055505050565b61113a816040516024016110b89190611ee9565b6040516020818303038152906040527f41304fac000000000000000000000000000000000000000000000000000000007bffffffffffffffffffffffffffffffffffffffffffffffffffffffff19166020820180517bffffffffffffffffffffffffffffffffffffffffffffffffffffffff838183161783525050505061113d565b50565b60008151905060006a636f6e736f6c652e6c6f679050602083016000808483855afa5050505050565b6040518060400160405280600060ff168152602001600060ff1681525090565b6040518060800160405280600060ff168152602001600060ff1681526020016000151581526020016000151581525090565b604051806040016040528060008152602001600060ff1681525090565b6000604051905090565b600080fd5b600080fd5b6000601f19601f8301169050919050565b7f4e487b7100000000000000000000000000000000000000000000000000000000600052604160045260246000fd5b611232826111e9565b810181811067ffffffffffffffff82111715611251576112506111fa565b5b80604052505050565b60006112646111d5565b90506112708282611229565b919050565b600060ff82169050919050565b61128b81611275565b811461129657600080fd5b50565b6000813590506112a881611282565b92915050565b6000604082840312156112c4576112c36111e4565b5b6112ce604061125a565b905060006112de84828501611299565b60008301525060206112f284828501611299565b60208301525092915050565b6006811061130b57600080fd5b50565b60008135905061131d816112fe565b92915050565b60008060006080848603121561133c5761133b6111df565b5b600061134a868287016112ae565b935050604061135b8682870161130e565b925050606061136c86828701611299565b9150509250925092565b61137f81611275565b82525050565b60408201600082015161139b6000850182611376565b5060208201516113ae6020850182611376565b50505050565b60006040820190506113c96000830184611385565b92915050565b600080608083850312156113e6576113e56111df565b5b60006113f4858286016112ae565b9250506040611405858286016112ae565b9150509250929050565b61141881611275565b82525050565b6000602082019050611433600083018461140f565b92915050565b600080604083850312156114505761144f6111df565b5b600061145e85828601611299565b925050602061146f85828601611299565b9150509250929050565b60008115159050919050565b61148e81611479565b82525050565b60006080820190506114a9600083018761140f565b6114b6602083018661140f565b6114c36040830185611485565b6114d06060830184611485565b95945050505050565b600080606083850312156114f0576114ef6111df565b5b60006114fe858286016112ae565b925050604061150f85828601611299565b9150509250929050565b600081519050919050565b600082825260208201905092915050565b6000819050602082019050919050565b60408201600082015161155b6000850182611376565b50602082015161156e6020850182611376565b50505050565b60006115808383611545565b60408301905092915050565b6000602082019050919050565b60006115a482611519565b6115ae8185611524565b93506115b983611535565b8060005b838110156115ea5781516115d18882611574565b97506115dc8361158c565b9250506001810190506115bd565b5085935050505092915050565b600060208201905081810360008301526116118184611599565b905092915050565b60006040828403121561162f5761162e6111df565b5b600061163d848285016112ae565b91505092915050565b61164f81611479565b82525050565b60808201600082015161166b6000850182611376565b50602082015161167e6020850182611376565b5060408201516116916040850182611646565b5060608201516116a46060850182611646565b50505050565b60006080820190506116bf6000830184611655565b92915050565b6000602082840312156116db576116da6111df565b5b60006116e984828501611299565b91505092915050565b600080fd5b60006040828403121561170d5761170c6116f2565b5b81905092915050565b60006040828403121561172c5761172b6111df565b5b600061173a848285016116f7565b91505092915050565b60006020820190506117586000830184611485565b92915050565b60006060820190506117736000830185611485565b6117806020830184611385565b9392505050565b7f4e487b7100000000000000000000000000000000000000000000000000000000600052602160045260246000fd5b60008160000b9050919050565b7f4e487b7100000000000000000000000000000000000000000000000000000000600052601160045260246000fd5b60006117fd826117b6565b9150611808836117b6565b9250828202611816816117b6565b9150808214611828576118276117c3565b5b5092915050565b600061183a826117b6565b9150611845836117b6565b925082820190507fffffffffffffffffffffffffffffffffffffffffffffffffffffffffffffff808112607f82131715611882576118816117c3565b5b92915050565b6000611893826117b6565b915061189e836117b6565b92508282039050607f81137fffffffffffffffffffffffffffffffffffffffffffffffffffffffffffffff80821217156118db576118da6117c3565b5b92915050565b7f4e487b7100000000000000000000000000000000000000000000000000000000600052601260045260246000fd5b600061191b826117b6565b9150611926836117b6565b925082611936576119356118e1565b5b600160000383147fffffffffffffffffffffffffffffffffffffffffffffffffffffffffffffff808314161561196f5761196e6117c3565b5b828205905092915050565b600061198582611275565b915061199083611275565b925082820261199e81611275565b91508082146119b0576119af6117c3565b5b5092915050565b60006119c282611275565b91506119cd83611275565b9250828201905060ff8111156119e6576119e56117c3565b5b92915050565b7f4e487b7100000000000000000000000000000000000000000000000000000000600052603260045260246000fd5b6000611a2682611275565b915060ff8203611a3957611a386117c3565b5b600182019050919050565b6000819050919050565b6000819050919050565b6000611a73611a6e611a6984611275565b611a4e565b611a44565b9050919050565b611a8381611a58565b82525050565b6000604082019050611a9e6000830185611a7a565b611aab6020830184611a7a565b9392505050565b6000611abd82611a44565b9150611ac883611a44565b9250828201905080821115611ae057611adf6117c3565b5b92915050565b6000611af182611a44565b9150611afc83611a44565b9250828202611b0a81611a44565b91508282048414831517611b2157611b206117c3565b5b5092915050565b6000611b3382611a44565b9150611b3e83611a44565b925082611b4e57611b4d6118e1565b5b828204905092915050565b6000611b6482611a44565b91507fffffffffffffffffffffffffffffffffffffffffffffffffffffffffffffffff8203611b9657611b956117c3565b5b600182019050919050565b611baa81611a44565b82525050565b6000602082019050611bc56000830184611ba1565b92915050565b6000611bd6826117b6565b91507fffffffffffffffffffffffffffffffffffffffffffffffffffffffffffffff808203611c0857611c076117c3565b5b816000039050919050565b600061ffff82169050919050565b6000611c2c82611c13565b9150611c3783611c13565b925082611c4757611c466118e1565b5b828204905092915050565b6000611c5d82611275565b9150611c6883611275565b9250828203905060ff811115611c8157611c806117c3565b5b92915050565b60008160011c9050919050565b6000808291508390505b6001851115611cde57808604811115611cba57611cb96117c3565b5b6001851615611cc95780820291505b8081029050611cd785611c87565b9450611c9e565b94509492505050565b600082611cf75760019050611db3565b81611d055760009050611db3565b8160018114611d1b5760028114611d2557611d54565b6001915050611db3565b60ff841115611d3757611d366117c3565b5b8360020a915084821115611d4e57611d4d6117c3565b5b50611db3565b5060208310610133831016604e8410600b8410161715611d895782820a905083811115611d8457611d836117c3565b5b611db3565b611d968484846001611c94565b92509050818404811115611dad57611dac6117c3565b5b81810290505b9392505050565b6000611dc582611a44565b9150611dd083611275565b9250611dfd7fffffffffffffffffffffffffffffffffffffffffffffffffffffffffffffffff8484611ce7565b905092915050565b6000611e1082611a44565b9150611e1b83611a44565b9250828203905081811115611e3357611e326117c3565b5b92915050565b6000611e4482611275565b9150611e4f83611275565b925082611e5f57611e5e6118e1565b5b828206905092915050565b600081519050919050565b600082825260208201905092915050565b60005b83811015611ea4578082015181840152602081019050611e89565b60008484015250505050565b6000611ebb82611e6a565b611ec58185611e75565b9350611ed5818560208601611e86565b611ede816111e9565b840191505092915050565b60006020820190508181036000830152611f038184611eb0565b90509291505056fea264697066735822122086479dcc7ebf295095eae63559b7030b36184e4b0ccc5320737666f0add6807264736f6c63430008120033",
  "linkReferences": {},
  "deployedLinkReferences": {}
}