{
  "_format": "hh-sol-artifact-1",
  "contractName": "Map",
  "sourceName": "contracts/Map.sol",
  "abi": [
    {
      "inputs": [
        {
          "internalType": "uint256",
          "name": "_seed",
          "type": "uint256"
        }
      ],
      "stateMutability": "nonpayable",
      "type": "constructor"
    },
    {
      "inputs": [
        {
          "internalType": "uint256",
          "name": "suppliedSize",
          "type": "uint256"
        },
        {
          "internalType": "uint256",
          "name": "maxSize",
          "type": "uint256"
        }
      ],
      "name": "MapSizeMustBeInRange",
      "type": "error"
    },
    {
      "inputs": [
        {
          "components": [
            {
              "internalType": "uint8",
              "name": "q",
              "type": "uint8"
            },
            {
              "internalType": "uint8",
              "name": "r",
              "type": "uint8"
            }
          ],
          "internalType": "struct SharedStructs.Coordinate",
          "name": "_startCell",
          "type": "tuple"
        },
        {
          "internalType": "enum SharedStructs.Directions",
          "name": "_directions",
          "type": "uint8"
        },
        {
          "internalType": "uint8",
          "name": "_distance",
          "type": "uint8"
        }
      ],
      "name": "calculateShot",
      "outputs": [
        {
          "components": [
            {
              "internalType": "uint8",
              "name": "q",
              "type": "uint8"
            },
            {
              "internalType": "uint8",
              "name": "r",
              "type": "uint8"
            }
          ],
          "internalType": "struct SharedStructs.Coordinate",
          "name": "",
          "type": "tuple"
        }
      ],
      "stateMutability": "view",
      "type": "function"
    },
    {
      "inputs": [
        {
          "internalType": "uint8",
          "name": "gameId",
          "type": "uint8"
        }
      ],
      "name": "createIslands",
      "outputs": [],
      "stateMutability": "nonpayable",
      "type": "function"
    },
    {
      "inputs": [
        {
          "components": [
            {
              "internalType": "uint8",
              "name": "q",
              "type": "uint8"
            },
            {
              "internalType": "uint8",
              "name": "r",
              "type": "uint8"
            }
          ],
          "internalType": "struct SharedStructs.Coordinate",
          "name": "_coord",
          "type": "tuple"
        },
        {
          "internalType": "uint8",
          "name": "gameId",
          "type": "uint8"
        }
      ],
      "name": "deleteCell",
      "outputs": [],
      "stateMutability": "nonpayable",
      "type": "function"
    },
    {
      "inputs": [
        {
          "components": [
            {
              "internalType": "uint8",
              "name": "q",
              "type": "uint8"
            },
            {
              "internalType": "uint8",
              "name": "r",
              "type": "uint8"
            }
          ],
          "internalType": "struct SharedStructs.Coordinate",
          "name": "_a",
          "type": "tuple"
        },
        {
          "components": [
            {
              "internalType": "uint8",
              "name": "q",
              "type": "uint8"
            },
            {
              "internalType": "uint8",
              "name": "r",
              "type": "uint8"
            }
          ],
          "internalType": "struct SharedStructs.Coordinate",
          "name": "_b",
          "type": "tuple"
        }
      ],
      "name": "distance",
      "outputs": [
        {
          "internalType": "uint8",
          "name": "",
          "type": "uint8"
        }
      ],
      "stateMutability": "pure",
      "type": "function"
    },
    {
      "inputs": [
        {
          "internalType": "uint256",
          "name": "",
          "type": "uint256"
        },
        {
          "internalType": "uint8",
          "name": "",
          "type": "uint8"
        },
        {
          "internalType": "uint8",
          "name": "",
          "type": "uint8"
        }
      ],
      "name": "gameHexCells",
      "outputs": [
        {
          "internalType": "uint8",
          "name": "q",
          "type": "uint8"
        },
        {
          "internalType": "uint8",
          "name": "r",
          "type": "uint8"
        },
        {
          "internalType": "bool",
          "name": "island",
          "type": "bool"
        },
        {
          "internalType": "bool",
          "name": "exists",
          "type": "bool"
        }
      ],
      "stateMutability": "view",
      "type": "function"
    },
    {
      "inputs": [
        {
          "internalType": "uint256",
          "name": "",
          "type": "uint256"
        }
      ],
      "name": "gameRadii",
      "outputs": [
        {
          "internalType": "uint8",
          "name": "",
          "type": "uint8"
        }
      ],
      "stateMutability": "view",
      "type": "function"
    },
    {
      "inputs": [
        {
          "components": [
            {
              "internalType": "uint8",
              "name": "q",
              "type": "uint8"
            },
            {
              "internalType": "uint8",
              "name": "r",
              "type": "uint8"
            }
          ],
          "internalType": "struct SharedStructs.Coordinate",
          "name": "_coord",
          "type": "tuple"
        },
        {
          "internalType": "uint8",
          "name": "gameId",
          "type": "uint8"
        }
      ],
      "name": "getCell",
      "outputs": [
        {
          "components": [
            {
              "internalType": "uint8",
              "name": "q",
              "type": "uint8"
            },
            {
              "internalType": "uint8",
              "name": "r",
              "type": "uint8"
            },
            {
              "internalType": "bool",
              "name": "island",
              "type": "bool"
            },
            {
              "internalType": "bool",
              "name": "exists",
              "type": "bool"
            }
          ],
          "internalType": "struct SharedStructs.Cell",
          "name": "",
          "type": "tuple"
        }
      ],
      "stateMutability": "view",
      "type": "function"
    },
    {
      "inputs": [
        {
          "internalType": "uint8",
          "name": "gameId",
          "type": "uint8"
        }
      ],
      "name": "getRandomCoordinatePair",
      "outputs": [
        {
          "components": [
            {
              "internalType": "uint8",
              "name": "q",
              "type": "uint8"
            },
            {
              "internalType": "uint8",
              "name": "r",
              "type": "uint8"
            }
          ],
          "internalType": "struct SharedStructs.Coordinate",
          "name": "",
          "type": "tuple"
        }
      ],
      "stateMutability": "nonpayable",
      "type": "function"
    },
    {
      "inputs": [
        {
          "internalType": "uint8",
          "name": "_radius",
          "type": "uint8"
        },
        {
          "internalType": "uint8",
          "name": "gameId",
          "type": "uint8"
        }
      ],
      "name": "initMap",
      "outputs": [],
      "stateMutability": "nonpayable",
      "type": "function"
    },
    {
      "inputs": [
        {
          "components": [
            {
              "internalType": "uint8",
              "name": "q",
              "type": "uint8"
            },
            {
              "internalType": "uint8",
              "name": "r",
              "type": "uint8"
            }
          ],
          "internalType": "struct SharedStructs.Coordinate",
          "name": "_coord",
          "type": "tuple"
        },
        {
          "internalType": "uint8",
          "name": "gameId",
          "type": "uint8"
        }
      ],
      "name": "isIsland",
      "outputs": [
        {
          "internalType": "bool",
          "name": "",
          "type": "bool"
        }
      ],
      "stateMutability": "view",
      "type": "function"
    },
    {
      "inputs": [
        {
          "components": [
            {
              "internalType": "uint8",
              "name": "q",
              "type": "uint8"
            },
            {
              "internalType": "uint8",
              "name": "r",
              "type": "uint8"
            }
          ],
          "internalType": "struct SharedStructs.Coordinate",
          "name": "_start",
          "type": "tuple"
        },
        {
          "internalType": "enum SharedStructs.Directions",
          "name": "_dir",
          "type": "uint8"
        },
        {
          "internalType": "uint8",
          "name": "_distance",
          "type": "uint8"
        }
      ],
      "name": "move",
      "outputs": [
        {
          "components": [
            {
              "internalType": "uint8",
              "name": "q",
              "type": "uint8"
            },
            {
              "internalType": "uint8",
              "name": "r",
              "type": "uint8"
            }
          ],
          "internalType": "struct SharedStructs.Coordinate",
          "name": "",
          "type": "tuple"
        }
      ],
      "stateMutability": "view",
      "type": "function"
    },
    {
      "inputs": [
        {
          "components": [
            {
              "internalType": "uint8",
              "name": "q",
              "type": "uint8"
            },
            {
              "internalType": "uint8",
              "name": "r",
              "type": "uint8"
            }
          ],
          "internalType": "struct SharedStructs.Coordinate",
          "name": "_center",
          "type": "tuple"
        },
        {
          "internalType": "uint8",
          "name": "_radius",
          "type": "uint8"
        }
      ],
      "name": "ring",
      "outputs": [
        {
          "components": [
            {
              "internalType": "uint8",
              "name": "q",
              "type": "uint8"
            },
            {
              "internalType": "uint8",
              "name": "r",
              "type": "uint8"
            }
          ],
          "internalType": "struct SharedStructs.Coordinate[]",
          "name": "",
          "type": "tuple[]"
        }
      ],
      "stateMutability": "view",
      "type": "function"
    },
    {
      "inputs": [
        {
          "components": [
            {
              "internalType": "uint8",
              "name": "q",
              "type": "uint8"
            },
            {
              "internalType": "uint8",
              "name": "r",
              "type": "uint8"
            }
          ],
          "internalType": "struct SharedStructs.Coordinate",
          "name": "_startCell",
          "type": "tuple"
        },
        {
          "internalType": "enum SharedStructs.Directions",
          "name": "_direction",
          "type": "uint8"
        },
        {
          "internalType": "uint8",
          "name": "_distance",
          "type": "uint8"
        },
        {
          "internalType": "uint8",
          "name": "gameId",
          "type": "uint8"
        }
      ],
      "name": "travel",
      "outputs": [
        {
          "internalType": "bool",
          "name": "",
          "type": "bool"
        },
        {
          "components": [
            {
              "internalType": "uint8",
              "name": "q",
              "type": "uint8"
            },
            {
              "internalType": "uint8",
              "name": "r",
              "type": "uint8"
            }
          ],
          "internalType": "struct SharedStructs.Coordinate",
          "name": "",
          "type": "tuple"
        }
      ],
      "stateMutability": "view",
      "type": "function"
    }
  ],
  "bytecode": "0x60806040523480156200001157600080fd5b50604051620027413803806200274183398181016040528101906200003791906200058b565b6200004d81620004d960201b62000ef71760201c565b60036000820151816000015560208201518160010160006101000a81548160ff021916908360ff1602179055509050506040518060400160405280600160000b81526020016000800b815250600080806006811115620000b257620000b1620005bd565b5b6006811115620000c757620000c6620005bd565b5b815260200190815260200160002060008201518160000160006101000a81548160ff021916908360000b60ff16021790555060208201518160000160016101000a81548160ff021916908360000b60ff1602179055509050506040518060400160405280600160000b81526020017fffffffffffffffffffffffffffffffffffffffffffffffffffffffffffffffff60000b81525060008060016006811115620001765762000175620005bd565b5b60068111156200018b576200018a620005bd565b5b815260200190815260200160002060008201518160000160006101000a81548160ff021916908360000b60ff16021790555060208201518160000160016101000a81548160ff021916908360000b60ff16021790555090505060405180604001604052806000800b81526020017fffffffffffffffffffffffffffffffffffffffffffffffffffffffffffffffff60000b81525060008060026006811115620002395762000238620005bd565b5b60068111156200024e576200024d620005bd565b5b815260200190815260200160002060008201518160000160006101000a81548160ff021916908360000b60ff16021790555060208201518160000160016101000a81548160ff021916908360000b60ff16021790555090505060405180604001604052807fffffffffffffffffffffffffffffffffffffffffffffffffffffffffffffffff60000b81526020016000800b81525060008060036006811115620002fc57620002fb620005bd565b5b6006811115620003115762000310620005bd565b5b815260200190815260200160002060008201518160000160006101000a81548160ff021916908360000b60ff16021790555060208201518160000160016101000a81548160ff021916908360000b60ff16021790555090505060405180604001604052807fffffffffffffffffffffffffffffffffffffffffffffffffffffffffffffffff60000b8152602001600160000b81525060008060046006811115620003c057620003bf620005bd565b5b6006811115620003d557620003d4620005bd565b5b815260200190815260200160002060008201518160000160006101000a81548160ff021916908360000b60ff16021790555060208201518160000160016101000a81548160ff021916908360000b60ff16021790555090505060405180604001604052806000800b8152602001600160000b81525060008060056006811115620004645762000463620005bd565b5b6006811115620004795762000478620005bd565b5b815260200190815260200160002060008201518160000160006101000a81548160ff021916908360000b60ff16021790555060208201518160000160016101000a81548160ff021916908360000b60ff160217905550905050506200061a565b620004e36200052e565b604051806040016040528083604051602001620005019190620005fd565b6040516020818303038152906040528051906020012060001c8152602001600060ff168152509050919050565b604051806040016040528060008152602001600060ff1681525090565b600080fd5b6000819050919050565b620005658162000550565b81146200057157600080fd5b50565b60008151905062000585816200055a565b92915050565b600060208284031215620005a457620005a36200054b565b5b6000620005b48482850162000574565b91505092915050565b7f4e487b7100000000000000000000000000000000000000000000000000000000600052602160045260246000fd5b620005f78162000550565b82525050565b6000602082019050620006146000830184620005ec565b92915050565b612117806200062a6000396000f3fe608060405234801561001057600080fd5b50600436106100cf5760003560e01c80634d0238861161008c578063906cb19e11610066578063906cb19e14610274578063b4b4854d14610290578063d202ec38146102c0578063d6192ad3146102dc576100cf565b80634d023886146101e157806374082a501461021157806386df5be614610244576100cf565b806318068d37146100d45780631a84a4ea146100f05780631cf8a3211461012057806320bff4311461015157806339e5c4a01461018157806342c39d91146101b1575b600080fd5b6100ee60048036038101906100e991906112fa565b61030c565b005b61010a6004803603810190610105919061142d565b610425565b60405161011791906114be565b60405180910390f35b61013a600480360381019061013591906114d9565b61051d565b60405161014892919061155b565b60405180910390f35b61016b60048036038101906101669190611584565b61059d565b60405161017891906115d3565b60405180910390f35b61019b600480360381019061019691906115ee565b610639565b6040516101a8919061170c565b60405180910390f35b6101cb60048036038101906101c691906112fa565b610784565b6040516101d891906114be565b60405180910390f35b6101fb60048036038101906101f691906115ee565b610a04565b6040516102089190611792565b60405180910390f35b61022b600480360381019061022691906117e3565b610adb565b60405161023b9493929190611836565b60405180910390f35b61025e6004803603810190610259919061187b565b610b59565b60405161026b91906115d3565b60405180910390f35b61028e600480360381019061028991906118cc565b610b79565b005b6102aa60048036038101906102a591906115ee565b610c3f565b6040516102b7919061190c565b60405180910390f35b6102da60048036038101906102d59190611927565b610c9b565b005b6102f660048036038101906102f1919061142d565b610eb4565b60405161030391906114be565b60405180910390f35b6000600260008360ff16815260200190815260200160002060009054906101000a900460ff169050600060018260ff166103469190611996565b8260ff16600361035691906119ca565b61036091906119ca565b600161036c9190611996565b90506000606460108361037f91906119ca565b6103899190611a3b565b905060005b8181101561041e5760006103a186610784565b905060018060008860ff1681526020019081526020016000206000836020015160ff1660ff1681526020019081526020016000206000836000015160ff1660ff16815260200190815260200160002060000160026101000a81548160ff02191690831515021790555050808061041690611a6c565b91505061038e565b5050505050565b61042d611243565b60008260008086600681111561044657610445611ab4565b5b600681111561045857610457611ab4565b5b815260200190815260200160002060000160009054906101000a900460000b6104819190611af0565b85600001516104909190611b2d565b90506000836000808760068111156104ab576104aa611ab4565b5b60068111156104bd576104bc611ab4565b5b815260200190815260200160002060000160019054906101000a900460000b6104e69190611af0565b86602001516104f59190611b2d565b905060405180604001604052808360ff1681526020018260ff16815250925050509392505050565b6000610527611243565b60005b8460ff168160ff16101561058b576105428787610f48565b965060006105508886610a04565b905080604001518061056457508060600151155b1561057757600188935093505050610594565b50808061058390611b86565b91505061052a565b50600086915091505b94509492505050565b600060026105bd836020015185602001516105b89190611baf565b610f64565b6105f784602001518560000151876020015188600001516105de9190611b2d565b6105e89190611baf565b6105f29190611baf565b610f64565b6106138560000151876000015161060e9190611baf565b610f64565b61061d9190611b2d565b6106279190611b2d565b6106319190611c08565b905092915050565b6060600060068361064a9190611c72565b60ff1667ffffffffffffffff8111156106665761066561133d565b5b60405190808252806020026020018201604052801561069f57816020015b61068c611243565b8152602001906001900390816106845790505b50905060006106b085600486610425565b905060008060068111156106c7576106c6611ab4565b5b90505b600560068111156106de576106dd611ab4565b5b8160ff16116107785760005b8560ff168160ff1610156107645782848288856107079190611c72565b6107119190611caf565b60ff168151811061072557610724611ce4565b5b602002602001018190525061074f838360ff16600681111561074a57610749611ab4565b5b610f48565b9250808061075c90611b86565b9150506106ea565b50808061077090611b86565b9150506106ca565b50819250505092915050565b61078c611243565b6000600260008460ff16815260200190815260200160002060009054906101000a900460ff169050600060405180604001604052806107d860038560026107d39190611c72565b610f88565b60ff1681526020016107f760038560026107f29190611c72565b610f88565b60ff1681525090506000600160008660ff1681526020019081526020016000206000836020015160ff1660ff1681526020019081526020016000206000836000015160ff1660ff1681526020019081526020016000206040518060800160405290816000820160009054906101000a900460ff1660ff1660ff1681526020016000820160019054906101000a900460ff1660ff1660ff1681526020016000820160029054906101000a900460ff161515151581526020016000820160039054906101000a900460ff16151515158152505090505b806060015115806108dd575080604001515b156109f957604051806040016040528061090460038660026108ff9190611c72565b610f88565b60ff168152602001610923600386600261091e9190611c72565b610f88565b60ff168152509150600160008660ff1681526020019081526020016000206000836020015160ff1660ff1681526020019081526020016000206000836000015160ff1660ff1681526020019081526020016000206040518060800160405290816000820160009054906101000a900460ff1660ff1660ff1681526020016000820160019054906101000a900460ff1660ff1660ff1681526020016000820160029054906101000a900460ff161515151581526020016000820160039054906101000a900460ff16151515158152505090506108cb565b819350505050919050565b610a0c611263565b600160008360ff1681526020019081526020016000206000846020015160ff1660ff1681526020019081526020016000206000846000015160ff1660ff1681526020019081526020016000206040518060800160405290816000820160009054906101000a900460ff1660ff1660ff1681526020016000820160019054906101000a900460ff1660ff1660ff1681526020016000820160029054906101000a900460ff161515151581526020016000820160039054906101000a900460ff161515151581525050905092915050565b600160205282600052604060002060205281600052604060002060205280600052604060002060009250925050508060000160009054906101000a900460ff16908060000160019054906101000a900460ff16908060000160029054906101000a900460ff16908060000160039054906101000a900460ff16905084565b60026020528060005260406000206000915054906101000a900460ff1681565b610bb76040518060400160405280601181526020017f43616c6c65642064656c65746543656c6c0000000000000000000000000000008152506110b0565b6000600160008360ff1681526020019081526020016000206000846020016020810190610be491906112fa565b60ff1660ff1681526020019081526020016000206000846000016020810190610c0d91906112fa565b60ff1660ff16815260200190815260200160002060000160036101000a81548160ff0219169083151502179055505050565b6000610c7f6040518060400160405280600f81526020017f43616c6c656420697349736c616e6400000000000000000000000000000000008152506110b0565b6000610c8b8484610a04565b9050806040015191505092915050565b607f60ff168260ff161115610cea5781607f6040517fe48c3a9d000000000000000000000000000000000000000000000000000000008152600401610ce1929190611d4e565b60405180910390fd5b81600260008360ff16815260200190815260200160002060006101000a81548160ff021916908360ff16021790555060405180608001604052808360ff1681526020018360ff16815260200160001515815260200160011515815250600160008360ff16815260200190815260200160002060008460ff1660ff16815260200190815260200160002060008460ff1660ff16815260200190815260200160002060008201518160000160006101000a81548160ff021916908360ff16021790555060208201518160000160016101000a81548160ff021916908360ff16021790555060408201518160000160026101000a81548160ff02191690831515021790555060608201518160000160036101000a81548160ff0219169083151502179055509050506000600190505b8260ff168160ff1611610eaf57600060405180604001604052808560ff1681526020018560ff1681525090506000610e4e8284610639565b905060005b81518160ff161015610e9957610e86828260ff1681518110610e7857610e77611ce4565b5b602002602001015186611149565b8080610e9190611b86565b915050610e53565b5050508080610ea790611b86565b915050610e16565b505050565b610ebc611243565b60005b8260ff168160ff161015610eec57610ed78585610f48565b94508080610ee490611b86565b915050610ebf565b508390509392505050565b610eff611295565b604051806040016040528083604051602001610f1b9190611d86565b6040516020818303038152906040528051906020012060001c8152602001600060ff168152509050919050565b610f50611243565b610f5c83836001610425565b905092915050565b6000808260000b12610f765781610f81565b81610f8090611da1565b5b9050919050565b60006001600860ff16610100610f9e9190611df7565b610fa89190611e28565b60ff168360010160009054906101000a900460ff1660ff161061101a578260000154604051602001610fda9190611d86565b6040516020818303038152906040528051906020012060001c836000018190555060008360010160006101000a81548160ff021916908360ff1602179055505b60008260016008600261102d9190611f90565b6110379190611fdb565b8560010160009054906101000a900460ff1660086110559190611c72565b60ff168660000154901c1661106a919061200f565b905083600101600081819054906101000a900460ff168092919061108d90611b86565b91906101000a81548160ff021916908360ff160217905550508091505092915050565b611146816040516024016110c491906120bf565b6040516020818303038152906040527f41304fac000000000000000000000000000000000000000000000000000000007bffffffffffffffffffffffffffffffffffffffffffffffffffffffff19166020820180517bffffffffffffffffffffffffffffffffffffffffffffffffffffffff838183161783525050505061121a565b50565b6000600160008360ff1681526020019081526020016000206000846020015160ff1660ff1681526020019081526020016000206000846000015160ff1660ff168152602001908152602001600020905082600001518160000160006101000a81548160ff021916908360ff16021790555082602001518160000160016101000a81548160ff021916908360ff16021790555060008160000160026101000a81548160ff02191690831515021790555060018160000160036101000a81548160ff021916908315150217905550505050565b60008151905060006a636f6e736f6c652e6c6f679050602083016000808483855afa5050505050565b6040518060400160405280600060ff168152602001600060ff1681525090565b6040518060800160405280600060ff168152602001600060ff1681526020016000151581526020016000151581525090565b604051806040016040528060008152602001600060ff1681525090565b6000604051905090565b600080fd5b600060ff82169050919050565b6112d7816112c1565b81146112e257600080fd5b50565b6000813590506112f4816112ce565b92915050565b6000602082840312156113105761130f6112bc565b5b600061131e848285016112e5565b91505092915050565b600080fd5b6000601f19601f8301169050919050565b7f4e487b7100000000000000000000000000000000000000000000000000000000600052604160045260246000fd5b6113758261132c565b810181811067ffffffffffffffff821117156113945761139361133d565b5b80604052505050565b60006113a76112b2565b90506113b3828261136c565b919050565b6000604082840312156113ce576113cd611327565b5b6113d8604061139d565b905060006113e8848285016112e5565b60008301525060206113fc848285016112e5565b60208301525092915050565b6007811061141557600080fd5b50565b60008135905061142781611408565b92915050565b600080600060808486031215611446576114456112bc565b5b6000611454868287016113b8565b935050604061146586828701611418565b9250506060611476868287016112e5565b9150509250925092565b611489816112c1565b82525050565b6040820160008201516114a56000850182611480565b5060208201516114b86020850182611480565b50505050565b60006040820190506114d3600083018461148f565b92915050565b60008060008060a085870312156114f3576114f26112bc565b5b6000611501878288016113b8565b945050604061151287828801611418565b9350506060611523878288016112e5565b9250506080611534878288016112e5565b91505092959194509250565b60008115159050919050565b61155581611540565b82525050565b6000606082019050611570600083018561154c565b61157d602083018461148f565b9392505050565b6000806080838503121561159b5761159a6112bc565b5b60006115a9858286016113b8565b92505060406115ba858286016113b8565b9150509250929050565b6115cd816112c1565b82525050565b60006020820190506115e860008301846115c4565b92915050565b60008060608385031215611605576116046112bc565b5b6000611613858286016113b8565b9250506040611624858286016112e5565b9150509250929050565b600081519050919050565b600082825260208201905092915050565b6000819050602082019050919050565b6040820160008201516116706000850182611480565b5060208201516116836020850182611480565b50505050565b6000611695838361165a565b60408301905092915050565b6000602082019050919050565b60006116b98261162e565b6116c38185611639565b93506116ce8361164a565b8060005b838110156116ff5781516116e68882611689565b97506116f1836116a1565b9250506001810190506116d2565b5085935050505092915050565b6000602082019050818103600083015261172681846116ae565b905092915050565b61173781611540565b82525050565b6080820160008201516117536000850182611480565b5060208201516117666020850182611480565b506040820151611779604085018261172e565b50606082015161178c606085018261172e565b50505050565b60006080820190506117a7600083018461173d565b92915050565b6000819050919050565b6117c0816117ad565b81146117cb57600080fd5b50565b6000813590506117dd816117b7565b92915050565b6000806000606084860312156117fc576117fb6112bc565b5b600061180a868287016117ce565b935050602061181b868287016112e5565b925050604061182c868287016112e5565b9150509250925092565b600060808201905061184b60008301876115c4565b61185860208301866115c4565b611865604083018561154c565b611872606083018461154c565b95945050505050565b600060208284031215611891576118906112bc565b5b600061189f848285016117ce565b91505092915050565b600080fd5b6000604082840312156118c3576118c26118a8565b5b81905092915050565b600080606083850312156118e3576118e26112bc565b5b60006118f1858286016118ad565b9250506040611902858286016112e5565b9150509250929050565b6000602082019050611921600083018461154c565b92915050565b6000806040838503121561193e5761193d6112bc565b5b600061194c858286016112e5565b925050602061195d858286016112e5565b9150509250929050565b7f4e487b7100000000000000000000000000000000000000000000000000000000600052601160045260246000fd5b60006119a1826117ad565b91506119ac836117ad565b92508282019050808211156119c4576119c3611967565b5b92915050565b60006119d5826117ad565b91506119e0836117ad565b92508282026119ee816117ad565b91508282048414831517611a0557611a04611967565b5b5092915050565b7f4e487b7100000000000000000000000000000000000000000000000000000000600052601260045260246000fd5b6000611a46826117ad565b9150611a51836117ad565b925082611a6157611a60611a0c565b5b828204905092915050565b6000611a77826117ad565b91507fffffffffffffffffffffffffffffffffffffffffffffffffffffffffffffffff8203611aa957611aa8611967565b5b600182019050919050565b7f4e487b7100000000000000000000000000000000000000000000000000000000600052602160045260246000fd5b60008160000b9050919050565b6000611afb82611ae3565b9150611b0683611ae3565b9250828202611b1481611ae3565b9150808214611b2657611b25611967565b5b5092915050565b6000611b3882611ae3565b9150611b4383611ae3565b925082820190507fffffffffffffffffffffffffffffffffffffffffffffffffffffffffffffff808112607f82131715611b8057611b7f611967565b5b92915050565b6000611b91826112c1565b915060ff8203611ba457611ba3611967565b5b600182019050919050565b6000611bba82611ae3565b9150611bc583611ae3565b92508282039050607f81137fffffffffffffffffffffffffffffffffffffffffffffffffffffffffffffff8082121715611c0257611c01611967565b5b92915050565b6000611c1382611ae3565b9150611c1e83611ae3565b925082611c2e57611c2d611a0c565b5b600160000383147fffffffffffffffffffffffffffffffffffffffffffffffffffffffffffffff8083141615611c6757611c66611967565b5b828205905092915050565b6000611c7d826112c1565b9150611c88836112c1565b9250828202611c96816112c1565b9150808214611ca857611ca7611967565b5b5092915050565b6000611cba826112c1565b9150611cc5836112c1565b9250828201905060ff811115611cde57611cdd611967565b5b92915050565b7f4e487b7100000000000000000000000000000000000000000000000000000000600052603260045260246000fd5b6000819050919050565b6000611d38611d33611d2e846112c1565b611d13565b6117ad565b9050919050565b611d4881611d1d565b82525050565b6000604082019050611d636000830185611d3f565b611d706020830184611d3f565b9392505050565b611d80816117ad565b82525050565b6000602082019050611d9b6000830184611d77565b92915050565b6000611dac82611ae3565b91507fffffffffffffffffffffffffffffffffffffffffffffffffffffffffffffff808203611dde57611ddd611967565b5b816000039050919050565b600061ffff82169050919050565b6000611e0282611de9565b9150611e0d83611de9565b925082611e1d57611e1c611a0c565b5b828204905092915050565b6000611e33826112c1565b9150611e3e836112c1565b9250828203905060ff811115611e5757611e56611967565b5b92915050565b60008160011c9050919050565b6000808291508390505b6001851115611eb457808604811115611e9057611e8f611967565b5b6001851615611e9f5780820291505b8081029050611ead85611e5d565b9450611e74565b94509492505050565b600082611ecd5760019050611f89565b81611edb5760009050611f89565b8160018114611ef15760028114611efb57611f2a565b6001915050611f89565b60ff841115611f0d57611f0c611967565b5b8360020a915084821115611f2457611f23611967565b5b50611f89565b5060208310610133831016604e8410600b8410161715611f5f5782820a905083811115611f5a57611f59611967565b5b611f89565b611f6c8484846001611e6a565b92509050818404811115611f8357611f82611967565b5b81810290505b9392505050565b6000611f9b826117ad565b9150611fa6836112c1565b9250611fd37fffffffffffffffffffffffffffffffffffffffffffffffffffffffffffffffff8484611ebd565b905092915050565b6000611fe6826117ad565b9150611ff1836117ad565b925082820390508181111561200957612008611967565b5b92915050565b600061201a826112c1565b9150612025836112c1565b92508261203557612034611a0c565b5b828206905092915050565b600081519050919050565b600082825260208201905092915050565b60005b8381101561207a57808201518184015260208101905061205f565b60008484015250505050565b600061209182612040565b61209b818561204b565b93506120ab81856020860161205c565b6120b48161132c565b840191505092915050565b600060208201905081810360008301526120d98184612086565b90509291505056fea2646970667358221220715e6a1aaa51fdd67868c2d65a9b217b18b6c2e6671696c29c2c15731df6cc4b64736f6c63430008120033",
  "linkReferences": {},
  "deployedLinkReferences": {}
}