{
  "_format": "hh-sol-artifact-1",
  "contractName": "Map",
  "sourceName": "contracts/Map.sol",
  "abi": [
    {
      "inputs": [
        {
          "internalType": "uint256",
          "name": "_seed",
          "type": "uint256"
        }
      ],
      "stateMutability": "nonpayable",
      "type": "constructor"
    },
    {
      "inputs": [
        {
          "internalType": "uint256",
          "name": "suppliedSize",
          "type": "uint256"
        },
        {
          "internalType": "uint256",
          "name": "maxSize",
          "type": "uint256"
        }
      ],
      "name": "MapSizeMustBeInRange",
      "type": "error"
    },
    {
      "inputs": [
        {
          "components": [
            {
              "internalType": "uint8",
              "name": "q",
              "type": "uint8"
            },
            {
              "internalType": "uint8",
              "name": "r",
              "type": "uint8"
            }
          ],
          "internalType": "struct SharedStructs.Coordinate",
          "name": "_startCell",
          "type": "tuple"
        },
        {
          "internalType": "enum SharedStructs.Directions",
          "name": "_directions",
          "type": "uint8"
        },
        {
          "internalType": "uint8",
          "name": "_distance",
          "type": "uint8"
        }
      ],
      "name": "calculateShot",
      "outputs": [
        {
          "components": [
            {
              "internalType": "uint8",
              "name": "q",
              "type": "uint8"
            },
            {
              "internalType": "uint8",
              "name": "r",
              "type": "uint8"
            }
          ],
          "internalType": "struct SharedStructs.Coordinate",
          "name": "",
          "type": "tuple"
        }
      ],
      "stateMutability": "view",
      "type": "function"
    },
    {
      "inputs": [],
      "name": "createIslands",
      "outputs": [],
      "stateMutability": "nonpayable",
      "type": "function"
    },
    {
      "inputs": [
        {
          "components": [
            {
              "internalType": "uint8",
              "name": "q",
              "type": "uint8"
            },
            {
              "internalType": "uint8",
              "name": "r",
              "type": "uint8"
            }
          ],
          "internalType": "struct SharedStructs.Coordinate",
          "name": "_coord",
          "type": "tuple"
        }
      ],
      "name": "deleteCell",
      "outputs": [],
      "stateMutability": "nonpayable",
      "type": "function"
    },
    {
      "inputs": [
        {
          "components": [
            {
              "internalType": "uint8",
              "name": "q",
              "type": "uint8"
            },
            {
              "internalType": "uint8",
              "name": "r",
              "type": "uint8"
            }
          ],
          "internalType": "struct SharedStructs.Coordinate",
          "name": "_a",
          "type": "tuple"
        },
        {
          "components": [
            {
              "internalType": "uint8",
              "name": "q",
              "type": "uint8"
            },
            {
              "internalType": "uint8",
              "name": "r",
              "type": "uint8"
            }
          ],
          "internalType": "struct SharedStructs.Coordinate",
          "name": "_b",
          "type": "tuple"
        }
      ],
      "name": "distance",
      "outputs": [
        {
          "internalType": "uint8",
          "name": "",
          "type": "uint8"
        }
      ],
      "stateMutability": "pure",
      "type": "function"
    },
    {
      "inputs": [
        {
          "components": [
            {
              "internalType": "uint8",
              "name": "q",
              "type": "uint8"
            },
            {
              "internalType": "uint8",
              "name": "r",
              "type": "uint8"
            }
          ],
          "internalType": "struct SharedStructs.Coordinate",
          "name": "_coord",
          "type": "tuple"
        }
      ],
      "name": "getCell",
      "outputs": [
        {
          "components": [
            {
              "internalType": "uint8",
              "name": "q",
              "type": "uint8"
            },
            {
              "internalType": "uint8",
              "name": "r",
              "type": "uint8"
            },
            {
              "internalType": "bool",
              "name": "island",
              "type": "bool"
            },
            {
              "internalType": "bool",
              "name": "exists",
              "type": "bool"
            }
          ],
          "internalType": "struct SharedStructs.Cell",
          "name": "",
          "type": "tuple"
        }
      ],
      "stateMutability": "view",
      "type": "function"
    },
    {
      "inputs": [],
      "name": "getRandomCoordinatePair",
      "outputs": [
        {
          "components": [
            {
              "internalType": "uint8",
              "name": "q",
              "type": "uint8"
            },
            {
              "internalType": "uint8",
              "name": "r",
              "type": "uint8"
            }
          ],
          "internalType": "struct SharedStructs.Coordinate",
          "name": "",
          "type": "tuple"
        }
      ],
      "stateMutability": "nonpayable",
      "type": "function"
    },
    {
      "inputs": [
        {
          "internalType": "uint8",
          "name": "",
          "type": "uint8"
        },
        {
          "internalType": "uint8",
          "name": "",
          "type": "uint8"
        }
      ],
      "name": "hexCells",
      "outputs": [
        {
          "internalType": "uint8",
          "name": "q",
          "type": "uint8"
        },
        {
          "internalType": "uint8",
          "name": "r",
          "type": "uint8"
        },
        {
          "internalType": "bool",
          "name": "island",
          "type": "bool"
        },
        {
          "internalType": "bool",
          "name": "exists",
          "type": "bool"
        }
      ],
      "stateMutability": "view",
      "type": "function"
    },
    {
      "inputs": [
        {
          "internalType": "uint8",
          "name": "_radius",
          "type": "uint8"
        }
      ],
      "name": "initMap",
      "outputs": [],
      "stateMutability": "nonpayable",
      "type": "function"
    },
    {
      "inputs": [
        {
          "components": [
            {
              "internalType": "uint8",
              "name": "q",
              "type": "uint8"
            },
            {
              "internalType": "uint8",
              "name": "r",
              "type": "uint8"
            }
          ],
          "internalType": "struct SharedStructs.Coordinate",
          "name": "_coord",
          "type": "tuple"
        }
      ],
      "name": "isIsland",
      "outputs": [
        {
          "internalType": "bool",
          "name": "",
          "type": "bool"
        }
      ],
      "stateMutability": "view",
      "type": "function"
    },
    {
      "inputs": [
        {
          "components": [
            {
              "internalType": "uint8",
              "name": "q",
              "type": "uint8"
            },
            {
              "internalType": "uint8",
              "name": "r",
              "type": "uint8"
            }
          ],
          "internalType": "struct SharedStructs.Coordinate",
          "name": "_start",
          "type": "tuple"
        },
        {
          "internalType": "enum SharedStructs.Directions",
          "name": "_dir",
          "type": "uint8"
        },
        {
          "internalType": "uint8",
          "name": "_distance",
          "type": "uint8"
        }
      ],
      "name": "move",
      "outputs": [
        {
          "components": [
            {
              "internalType": "uint8",
              "name": "q",
              "type": "uint8"
            },
            {
              "internalType": "uint8",
              "name": "r",
              "type": "uint8"
            }
          ],
          "internalType": "struct SharedStructs.Coordinate",
          "name": "",
          "type": "tuple"
        }
      ],
      "stateMutability": "view",
      "type": "function"
    },
    {
      "inputs": [],
      "name": "radius",
      "outputs": [
        {
          "internalType": "uint8",
          "name": "",
          "type": "uint8"
        }
      ],
      "stateMutability": "view",
      "type": "function"
    },
    {
      "inputs": [
        {
          "components": [
            {
              "internalType": "uint8",
              "name": "q",
              "type": "uint8"
            },
            {
              "internalType": "uint8",
              "name": "r",
              "type": "uint8"
            }
          ],
          "internalType": "struct SharedStructs.Coordinate",
          "name": "_center",
          "type": "tuple"
        },
        {
          "internalType": "uint8",
          "name": "_radius",
          "type": "uint8"
        }
      ],
      "name": "ring",
      "outputs": [
        {
          "components": [
            {
              "internalType": "uint8",
              "name": "q",
              "type": "uint8"
            },
            {
              "internalType": "uint8",
              "name": "r",
              "type": "uint8"
            }
          ],
          "internalType": "struct SharedStructs.Coordinate[]",
          "name": "",
          "type": "tuple[]"
        }
      ],
      "stateMutability": "view",
      "type": "function"
    },
    {
      "inputs": [
        {
          "components": [
            {
              "internalType": "uint8",
              "name": "q",
              "type": "uint8"
            },
            {
              "internalType": "uint8",
              "name": "r",
              "type": "uint8"
            }
          ],
          "internalType": "struct SharedStructs.Coordinate",
          "name": "_startCell",
          "type": "tuple"
        },
        {
          "internalType": "enum SharedStructs.Directions",
          "name": "_direction",
          "type": "uint8"
        },
        {
          "internalType": "uint8",
          "name": "_distance",
          "type": "uint8"
        }
      ],
      "name": "travel",
      "outputs": [
        {
          "internalType": "bool",
          "name": "",
          "type": "bool"
        },
        {
          "components": [
            {
              "internalType": "uint8",
              "name": "q",
              "type": "uint8"
            },
            {
              "internalType": "uint8",
              "name": "r",
              "type": "uint8"
            }
          ],
          "internalType": "struct SharedStructs.Coordinate",
          "name": "",
          "type": "tuple"
        }
      ],
      "stateMutability": "view",
      "type": "function"
    }
  ],
  "bytecode": "0x60806040523480156200001157600080fd5b50604051620025ba380380620025ba83398181016040528101906200003791906200058a565b6200004d81620004d860201b62000e7f1760201c565b60036000820151816000015560208201518160010160006101000a81548160ff021916908360ff1602179055509050506040518060400160405280600160000b81526020016000800b815250600080806005811115620000b257620000b1620005bc565b5b6005811115620000c757620000c6620005bc565b5b815260200190815260200160002060008201518160000160006101000a81548160ff021916908360000b60ff16021790555060208201518160000160016101000a81548160ff021916908360000b60ff1602179055509050506040518060400160405280600160000b81526020017fffffffffffffffffffffffffffffffffffffffffffffffffffffffffffffffff60000b81525060008060016005811115620001765762000175620005bc565b5b60058111156200018b576200018a620005bc565b5b815260200190815260200160002060008201518160000160006101000a81548160ff021916908360000b60ff16021790555060208201518160000160016101000a81548160ff021916908360000b60ff16021790555090505060405180604001604052806000800b81526020017fffffffffffffffffffffffffffffffffffffffffffffffffffffffffffffffff60000b81525060008060026005811115620002395762000238620005bc565b5b60058111156200024e576200024d620005bc565b5b815260200190815260200160002060008201518160000160006101000a81548160ff021916908360000b60ff16021790555060208201518160000160016101000a81548160ff021916908360000b60ff16021790555090505060405180604001604052807fffffffffffffffffffffffffffffffffffffffffffffffffffffffffffffffff60000b81526020016000800b81525060008060036005811115620002fc57620002fb620005bc565b5b6005811115620003115762000310620005bc565b5b815260200190815260200160002060008201518160000160006101000a81548160ff021916908360000b60ff16021790555060208201518160000160016101000a81548160ff021916908360000b60ff16021790555090505060405180604001604052807fffffffffffffffffffffffffffffffffffffffffffffffffffffffffffffffff60000b8152602001600160000b81525060008060046005811115620003c057620003bf620005bc565b5b6005811115620003d557620003d4620005bc565b5b815260200190815260200160002060008201518160000160006101000a81548160ff021916908360000b60ff16021790555060208201518160000160016101000a81548160ff021916908360000b60ff16021790555090505060405180604001604052806000800b8152602001600160000b815250600080600580811115620004635762000462620005bc565b5b6005811115620004785762000477620005bc565b5b815260200190815260200160002060008201518160000160006101000a81548160ff021916908360000b60ff16021790555060208201518160000160016101000a81548160ff021916908360000b60ff1602179055509050505062000619565b620004e26200052d565b604051806040016040528083604051602001620005009190620005fc565b6040516020818303038152906040528051906020012060001c8152602001600060ff168152509050919050565b604051806040016040528060008152602001600060ff1681525090565b600080fd5b6000819050919050565b62000564816200054f565b81146200057057600080fd5b50565b600081519050620005848162000559565b92915050565b600060208284031215620005a357620005a26200054a565b5b6000620005b38482850162000573565b91505092915050565b7f4e487b7100000000000000000000000000000000000000000000000000000000600052602160045260246000fd5b620005f6816200054f565b82525050565b6000602082019050620006136000830184620005eb565b92915050565b611f9180620006296000396000f3fe608060405234801561001057600080fd5b50600436106100cf5760003560e01c80633ac245d91161008c5780639499968811610066578063949996881461023b57806396e963c114610245578063d6192ad314610275578063ecba2dd7146102a5576100cf565b80633ac245d9146101d3578063669636e214610203578063880655cc1461021f576100cf565b80631a84a4ea146100d457806320bff43114610104578063217f435314610134578063335a00831461015257806336579c5b1461018557806339e5c4a0146101a3575b600080fd5b6100ee60048036038101906100e99190611373565b6102d6565b6040516100fb9190611404565b60405180910390f35b61011e6004803603810190610119919061141f565b6103ce565b60405161012b919061146e565b60405180910390f35b61013c61046a565b604051610149919061146e565b60405180910390f35b61016c60048036038101906101679190611489565b61047d565b60405161017c94939291906114e4565b60405180910390f35b61018d6104ee565b60405161019a9190611404565b60405180910390f35b6101bd60048036038101906101b89190611529565b610757565b6040516101ca9190611647565b60405180910390f35b6101ed60048036038101906101e89190611669565b6108a1565b6040516101fa91906116fa565b60405180910390f35b61021d60048036038101906102189190611715565b610963565b005b61023960048036038101906102349190611766565b610bbb565b005b610243610c6c565b005b61025f600480360381019061025a9190611669565b610d64565b60405161026c9190611793565b60405180910390f35b61028f600480360381019061028a9190611373565b610dbe565b60405161029c9190611404565b60405180910390f35b6102bf60048036038101906102ba9190611373565b610e01565b6040516102cd9291906117ae565b60405180910390f35b6102de6111b6565b6000826000808660058111156102f7576102f66117d7565b5b6005811115610309576103086117d7565b5b815260200190815260200160002060000160009054906101000a900460000b6103329190611842565b8560000151610341919061187f565b905060008360008087600581111561035c5761035b6117d7565b5b600581111561036e5761036d6117d7565b5b815260200190815260200160002060000160019054906101000a900460000b6103979190611842565b86602001516103a6919061187f565b905060405180604001604052808360ff1681526020018260ff16815250925050509392505050565b600060026103ee836020015185602001516103e991906118d8565b610ed0565b610428846020015185600001518760200151886000015161040f919061187f565b61041991906118d8565b61042391906118d8565b610ed0565b6104448560000151876000015161043f91906118d8565b610ed0565b61044e919061187f565b610458919061187f565b6104629190611960565b905092915050565b600260009054906101000a900460ff1681565b6001602052816000526040600020602052806000526040600020600091509150508060000160009054906101000a900460ff16908060000160019054906101000a900460ff16908060000160029054906101000a900460ff16908060000160039054906101000a900460ff16905084565b6104f66111b6565b600060405180604001604052806105296003600260009054906101000a900460ff16600261052491906119ca565b610ef4565b60ff1681526020016105576003600260009054906101000a900460ff16600261055291906119ca565b610ef4565b60ff168152509050600060016000836020015160ff1660ff1681526020019081526020016000206000836000015160ff1660ff1681526020019081526020016000206040518060800160405290816000820160009054906101000a900460ff1660ff1660ff1681526020016000820160019054906101000a900460ff1660ff1660ff1681526020016000820160029054906101000a900460ff161515151581526020016000820160039054906101000a900460ff16151515158152505090505b80606001511580610629575080604001515b1561074f57604051806040016040528061065f6003600260009054906101000a900460ff16600261065a91906119ca565b610ef4565b60ff16815260200161068d6003600260009054906101000a900460ff16600261068891906119ca565b610ef4565b60ff16815250915060016000836020015160ff1660ff1681526020019081526020016000206000836000015160ff1660ff1681526020019081526020016000206040518060800160405290816000820160009054906101000a900460ff1660ff1660ff1681526020016000820160019054906101000a900460ff1660ff1660ff1681526020016000820160029054906101000a900460ff161515151581526020016000820160039054906101000a900460ff1615151515815250509050610617565b819250505090565b6060600060068361076891906119ca565b60ff1667ffffffffffffffff8111156107845761078361124a565b5b6040519080825280602002602001820160405280156107bd57816020015b6107aa6111b6565b8152602001906001900390816107a25790505b50905060006107ce856004866102d6565b905060008060058111156107e5576107e46117d7565b5b90505b6005808111156107fb576107fa6117d7565b5b8160ff16116108955760005b8560ff168160ff16101561088157828482888561082491906119ca565b61082e9190611a07565b60ff168151811061084257610841611a3c565b5b602002602001018190525061086c838360ff166005811115610867576108666117d7565b5b61101c565b9250808061087990611a6b565b915050610807565b50808061088d90611a6b565b9150506107e8565b50819250505092915050565b6108a96111d6565b60016000836020015160ff1660ff1681526020019081526020016000206000836000015160ff1660ff1681526020019081526020016000206040518060800160405290816000820160009054906101000a900460ff1660ff1660ff1681526020016000820160019054906101000a900460ff1660ff1660ff1681526020016000820160029054906101000a900460ff161515151581526020016000820160039054906101000a900460ff1615151515815250509050919050565b607f60ff168160ff1611156109b25780607f6040517fe48c3a9d0000000000000000000000000000000000000000000000000000000081526004016109a9929190611ad9565b60405180910390fd5b80600260006101000a81548160ff021916908360ff1602179055506040518060800160405280600260009054906101000a900460ff1660ff168152602001600260009054906101000a900460ff1660ff1681526020016000151581526020016001151581525060016000600260009054906101000a900460ff1660ff1660ff1681526020019081526020016000206000600260009054906101000a900460ff1660ff1660ff16815260200190815260200160002060008201518160000160006101000a81548160ff021916908360ff16021790555060208201518160000160016101000a81548160ff021916908360ff16021790555060408201518160000160026101000a81548160ff02191690831515021790555060608201518160000160036101000a81548160ff0219169083151502179055509050506000600190505b600260009054906101000a900460ff1660ff168160ff1611610bb75760006040518060400160405280600260009054906101000a900460ff1660ff168152602001600260009054906101000a900460ff1660ff1681525090506000610b578284610757565b905060005b81518160ff161015610ba157610b8e828260ff1681518110610b8157610b80611a3c565b5b6020026020010151611038565b8080610b9990611a6b565b915050610b5c565b5050508080610baf90611a6b565b915050610af2565b5050565b610bf96040518060400160405280601181526020017f43616c6c65642064656c65746543656c6c0000000000000000000000000000008152506110f4565b600060016000836020016020810190610c129190611715565b60ff1660ff1681526020019081526020016000206000836000016020810190610c3b9190611715565b60ff1660ff16815260200190815260200160002060000160036101000a81548160ff02191690831515021790555050565b60006001600260009054906101000a900460ff1660ff16610c8d9190611b02565b600260009054906101000a900460ff1660ff166003610cac9190611b36565b610cb69190611b36565b6001610cc29190611b02565b905060006064601083610cd59190611b36565b610cdf9190611b78565b905060005b81811015610d5f576000610cf66104ee565b90506001806000836020015160ff1660ff1681526020019081526020016000206000836000015160ff1660ff16815260200190815260200160002060000160026101000a81548160ff021916908315150217905550508080610d5790611ba9565b915050610ce4565b505050565b6000610da46040518060400160405280600f81526020017f43616c6c656420697349736c616e6400000000000000000000000000000000008152506110f4565b6000610daf836108a1565b90508060400151915050919050565b610dc66111b6565b60005b8260ff168160ff161015610df657610de1858561101c565b94508080610dee90611a6b565b915050610dc9565b508390509392505050565b6000610e0b6111b6565b60005b8360ff168160ff161015610e6e57610e26868661101c565b95506000610e33876108a1565b9050806040015180610e4757508060600151155b15610e5a57600187935093505050610e77565b508080610e6690611a6b565b915050610e0e565b50600085915091505b935093915050565b610e87611208565b604051806040016040528083604051602001610ea39190611c00565b6040516020818303038152906040528051906020012060001c8152602001600060ff168152509050919050565b6000808260000b12610ee25781610eed565b81610eec90611c1b565b5b9050919050565b60006001600860ff16610100610f0a9190611c71565b610f149190611ca2565b60ff168360010160009054906101000a900460ff1660ff1610610f86578260000154604051602001610f469190611c00565b6040516020818303038152906040528051906020012060001c836000018190555060008360010160006101000a81548160ff021916908360ff1602179055505b600082600160086002610f999190611e0a565b610fa39190611e55565b8560010160009054906101000a900460ff166008610fc191906119ca565b60ff168660000154901c16610fd69190611e89565b905083600101600081819054906101000a900460ff1680929190610ff990611a6b565b91906101000a81548160ff021916908360ff160217905550508091505092915050565b6110246111b6565b611030838360016102d6565b905092915050565b600060016000836020015160ff1660ff1681526020019081526020016000206000836000015160ff1660ff168152602001908152602001600020905081600001518160000160006101000a81548160ff021916908360ff16021790555081602001518160000160016101000a81548160ff021916908360ff16021790555060008160000160026101000a81548160ff02191690831515021790555060018160000160036101000a81548160ff0219169083151502179055505050565b61118a816040516024016111089190611f39565b6040516020818303038152906040527f41304fac000000000000000000000000000000000000000000000000000000007bffffffffffffffffffffffffffffffffffffffffffffffffffffffff19166020820180517bffffffffffffffffffffffffffffffffffffffffffffffffffffffff838183161783525050505061118d565b50565b60008151905060006a636f6e736f6c652e6c6f679050602083016000808483855afa5050505050565b6040518060400160405280600060ff168152602001600060ff1681525090565b6040518060800160405280600060ff168152602001600060ff1681526020016000151581526020016000151581525090565b604051806040016040528060008152602001600060ff1681525090565b6000604051905090565b600080fd5b600080fd5b6000601f19601f8301169050919050565b7f4e487b7100000000000000000000000000000000000000000000000000000000600052604160045260246000fd5b61128282611239565b810181811067ffffffffffffffff821117156112a1576112a061124a565b5b80604052505050565b60006112b4611225565b90506112c08282611279565b919050565b600060ff82169050919050565b6112db816112c5565b81146112e657600080fd5b50565b6000813590506112f8816112d2565b92915050565b60006040828403121561131457611313611234565b5b61131e60406112aa565b9050600061132e848285016112e9565b6000830152506020611342848285016112e9565b60208301525092915050565b6006811061135b57600080fd5b50565b60008135905061136d8161134e565b92915050565b60008060006080848603121561138c5761138b61122f565b5b600061139a868287016112fe565b93505060406113ab8682870161135e565b92505060606113bc868287016112e9565b9150509250925092565b6113cf816112c5565b82525050565b6040820160008201516113eb60008501826113c6565b5060208201516113fe60208501826113c6565b50505050565b600060408201905061141960008301846113d5565b92915050565b600080608083850312156114365761143561122f565b5b6000611444858286016112fe565b9250506040611455858286016112fe565b9150509250929050565b611468816112c5565b82525050565b6000602082019050611483600083018461145f565b92915050565b600080604083850312156114a05761149f61122f565b5b60006114ae858286016112e9565b92505060206114bf858286016112e9565b9150509250929050565b60008115159050919050565b6114de816114c9565b82525050565b60006080820190506114f9600083018761145f565b611506602083018661145f565b61151360408301856114d5565b61152060608301846114d5565b95945050505050565b600080606083850312156115405761153f61122f565b5b600061154e858286016112fe565b925050604061155f858286016112e9565b9150509250929050565b600081519050919050565b600082825260208201905092915050565b6000819050602082019050919050565b6040820160008201516115ab60008501826113c6565b5060208201516115be60208501826113c6565b50505050565b60006115d08383611595565b60408301905092915050565b6000602082019050919050565b60006115f482611569565b6115fe8185611574565b935061160983611585565b8060005b8381101561163a57815161162188826115c4565b975061162c836115dc565b92505060018101905061160d565b5085935050505092915050565b6000602082019050818103600083015261166181846115e9565b905092915050565b60006040828403121561167f5761167e61122f565b5b600061168d848285016112fe565b91505092915050565b61169f816114c9565b82525050565b6080820160008201516116bb60008501826113c6565b5060208201516116ce60208501826113c6565b5060408201516116e16040850182611696565b5060608201516116f46060850182611696565b50505050565b600060808201905061170f60008301846116a5565b92915050565b60006020828403121561172b5761172a61122f565b5b6000611739848285016112e9565b91505092915050565b600080fd5b60006040828403121561175d5761175c611742565b5b81905092915050565b60006040828403121561177c5761177b61122f565b5b600061178a84828501611747565b91505092915050565b60006020820190506117a860008301846114d5565b92915050565b60006060820190506117c360008301856114d5565b6117d060208301846113d5565b9392505050565b7f4e487b7100000000000000000000000000000000000000000000000000000000600052602160045260246000fd5b60008160000b9050919050565b7f4e487b7100000000000000000000000000000000000000000000000000000000600052601160045260246000fd5b600061184d82611806565b915061185883611806565b925082820261186681611806565b915080821461187857611877611813565b5b5092915050565b600061188a82611806565b915061189583611806565b925082820190507fffffffffffffffffffffffffffffffffffffffffffffffffffffffffffffff808112607f821317156118d2576118d1611813565b5b92915050565b60006118e382611806565b91506118ee83611806565b92508282039050607f81137fffffffffffffffffffffffffffffffffffffffffffffffffffffffffffffff808212171561192b5761192a611813565b5b92915050565b7f4e487b7100000000000000000000000000000000000000000000000000000000600052601260045260246000fd5b600061196b82611806565b915061197683611806565b92508261198657611985611931565b5b600160000383147fffffffffffffffffffffffffffffffffffffffffffffffffffffffffffffff80831416156119bf576119be611813565b5b828205905092915050565b60006119d5826112c5565b91506119e0836112c5565b92508282026119ee816112c5565b9150808214611a00576119ff611813565b5b5092915050565b6000611a12826112c5565b9150611a1d836112c5565b9250828201905060ff811115611a3657611a35611813565b5b92915050565b7f4e487b7100000000000000000000000000000000000000000000000000000000600052603260045260246000fd5b6000611a76826112c5565b915060ff8203611a8957611a88611813565b5b600182019050919050565b6000819050919050565b6000819050919050565b6000611ac3611abe611ab9846112c5565b611a9e565b611a94565b9050919050565b611ad381611aa8565b82525050565b6000604082019050611aee6000830185611aca565b611afb6020830184611aca565b9392505050565b6000611b0d82611a94565b9150611b1883611a94565b9250828201905080821115611b3057611b2f611813565b5b92915050565b6000611b4182611a94565b9150611b4c83611a94565b9250828202611b5a81611a94565b91508282048414831517611b7157611b70611813565b5b5092915050565b6000611b8382611a94565b9150611b8e83611a94565b925082611b9e57611b9d611931565b5b828204905092915050565b6000611bb482611a94565b91507fffffffffffffffffffffffffffffffffffffffffffffffffffffffffffffffff8203611be657611be5611813565b5b600182019050919050565b611bfa81611a94565b82525050565b6000602082019050611c156000830184611bf1565b92915050565b6000611c2682611806565b91507fffffffffffffffffffffffffffffffffffffffffffffffffffffffffffffff808203611c5857611c57611813565b5b816000039050919050565b600061ffff82169050919050565b6000611c7c82611c63565b9150611c8783611c63565b925082611c9757611c96611931565b5b828204905092915050565b6000611cad826112c5565b9150611cb8836112c5565b9250828203905060ff811115611cd157611cd0611813565b5b92915050565b60008160011c9050919050565b6000808291508390505b6001851115611d2e57808604811115611d0a57611d09611813565b5b6001851615611d195780820291505b8081029050611d2785611cd7565b9450611cee565b94509492505050565b600082611d475760019050611e03565b81611d555760009050611e03565b8160018114611d6b5760028114611d7557611da4565b6001915050611e03565b60ff841115611d8757611d86611813565b5b8360020a915084821115611d9e57611d9d611813565b5b50611e03565b5060208310610133831016604e8410600b8410161715611dd95782820a905083811115611dd457611dd3611813565b5b611e03565b611de68484846001611ce4565b92509050818404811115611dfd57611dfc611813565b5b81810290505b9392505050565b6000611e1582611a94565b9150611e20836112c5565b9250611e4d7fffffffffffffffffffffffffffffffffffffffffffffffffffffffffffffffff8484611d37565b905092915050565b6000611e6082611a94565b9150611e6b83611a94565b9250828203905081811115611e8357611e82611813565b5b92915050565b6000611e94826112c5565b9150611e9f836112c5565b925082611eaf57611eae611931565b5b828206905092915050565b600081519050919050565b600082825260208201905092915050565b60005b83811015611ef4578082015181840152602081019050611ed9565b60008484015250505050565b6000611f0b82611eba565b611f158185611ec5565b9350611f25818560208601611ed6565b611f2e81611239565b840191505092915050565b60006020820190508181036000830152611f538184611f00565b90509291505056fea2646970667358221220f34506b0304cf234474dc863ceede85da2eaf249499f9b93f84c985ff75acb2364736f6c63430008120033",
  "linkReferences": {},
  "deployedLinkReferences": {}
}