{
  "_format": "hh-sol-artifact-1",
  "contractName": "MapNP",
  "sourceName": "contracts/MapNP.sol",
  "abi": [
    {
      "inputs": [
        {
          "internalType": "uint256",
          "name": "_seed",
          "type": "uint256"
        }
      ],
      "stateMutability": "nonpayable",
      "type": "constructor"
    },
    {
      "inputs": [
        {
          "internalType": "uint256",
          "name": "suppliedSize",
          "type": "uint256"
        },
        {
          "internalType": "uint256",
          "name": "maxSize",
          "type": "uint256"
        }
      ],
      "name": "MapSizeMustBeInRange",
      "type": "error"
    },
    {
      "inputs": [
        {
          "components": [
            {
              "internalType": "uint8",
              "name": "q",
              "type": "uint8"
            },
            {
              "internalType": "uint8",
              "name": "r",
              "type": "uint8"
            }
          ],
          "internalType": "struct SharedStructs.Coordinate",
          "name": "_startCell",
          "type": "tuple"
        },
        {
          "internalType": "enum SharedStructs.Directions",
          "name": "_directions",
          "type": "uint8"
        },
        {
          "internalType": "uint8",
          "name": "_distance",
          "type": "uint8"
        }
      ],
      "name": "calculateShot",
      "outputs": [
        {
          "components": [
            {
              "internalType": "uint8",
              "name": "q",
              "type": "uint8"
            },
            {
              "internalType": "uint8",
              "name": "r",
              "type": "uint8"
            }
          ],
          "internalType": "struct SharedStructs.Coordinate",
          "name": "",
          "type": "tuple"
        }
      ],
      "stateMutability": "view",
      "type": "function"
    },
    {
      "inputs": [
        {
          "internalType": "uint8",
          "name": "gameId",
          "type": "uint8"
        }
      ],
      "name": "createIslands",
      "outputs": [],
      "stateMutability": "nonpayable",
      "type": "function"
    },
    {
      "inputs": [
        {
          "components": [
            {
              "internalType": "uint8",
              "name": "q",
              "type": "uint8"
            },
            {
              "internalType": "uint8",
              "name": "r",
              "type": "uint8"
            }
          ],
          "internalType": "struct SharedStructs.Coordinate",
          "name": "_coord",
          "type": "tuple"
        },
        {
          "internalType": "uint8",
          "name": "gameId",
          "type": "uint8"
        }
      ],
      "name": "deleteCell",
      "outputs": [],
      "stateMutability": "nonpayable",
      "type": "function"
    },
    {
      "inputs": [
        {
          "components": [
            {
              "internalType": "uint8",
              "name": "q",
              "type": "uint8"
            },
            {
              "internalType": "uint8",
              "name": "r",
              "type": "uint8"
            }
          ],
          "internalType": "struct SharedStructs.Coordinate",
          "name": "_a",
          "type": "tuple"
        },
        {
          "components": [
            {
              "internalType": "uint8",
              "name": "q",
              "type": "uint8"
            },
            {
              "internalType": "uint8",
              "name": "r",
              "type": "uint8"
            }
          ],
          "internalType": "struct SharedStructs.Coordinate",
          "name": "_b",
          "type": "tuple"
        }
      ],
      "name": "distance",
      "outputs": [
        {
          "internalType": "uint8",
          "name": "",
          "type": "uint8"
        }
      ],
      "stateMutability": "pure",
      "type": "function"
    },
    {
      "inputs": [
        {
          "internalType": "uint256",
          "name": "",
          "type": "uint256"
        },
        {
          "internalType": "uint8",
          "name": "",
          "type": "uint8"
        },
        {
          "internalType": "uint8",
          "name": "",
          "type": "uint8"
        }
      ],
      "name": "gameHexCells",
      "outputs": [
        {
          "internalType": "uint8",
          "name": "q",
          "type": "uint8"
        },
        {
          "internalType": "uint8",
          "name": "r",
          "type": "uint8"
        },
        {
          "internalType": "bool",
          "name": "island",
          "type": "bool"
        },
        {
          "internalType": "bool",
          "name": "exists",
          "type": "bool"
        }
      ],
      "stateMutability": "view",
      "type": "function"
    },
    {
      "inputs": [
        {
          "internalType": "uint256",
          "name": "",
          "type": "uint256"
        }
      ],
      "name": "gameRadii",
      "outputs": [
        {
          "internalType": "uint8",
          "name": "",
          "type": "uint8"
        }
      ],
      "stateMutability": "view",
      "type": "function"
    },
    {
      "inputs": [
        {
          "components": [
            {
              "internalType": "uint8",
              "name": "q",
              "type": "uint8"
            },
            {
              "internalType": "uint8",
              "name": "r",
              "type": "uint8"
            }
          ],
          "internalType": "struct SharedStructs.Coordinate",
          "name": "_coord",
          "type": "tuple"
        },
        {
          "internalType": "uint8",
          "name": "gameId",
          "type": "uint8"
        }
      ],
      "name": "getCell",
      "outputs": [
        {
          "components": [
            {
              "internalType": "uint8",
              "name": "q",
              "type": "uint8"
            },
            {
              "internalType": "uint8",
              "name": "r",
              "type": "uint8"
            },
            {
              "internalType": "bool",
              "name": "island",
              "type": "bool"
            },
            {
              "internalType": "bool",
              "name": "exists",
              "type": "bool"
            }
          ],
          "internalType": "struct SharedStructs.Cell",
          "name": "",
          "type": "tuple"
        }
      ],
      "stateMutability": "view",
      "type": "function"
    },
    {
      "inputs": [
        {
          "internalType": "uint8",
          "name": "gameId",
          "type": "uint8"
        }
      ],
      "name": "getRandomCoordinatePair",
      "outputs": [
        {
          "components": [
            {
              "internalType": "uint8",
              "name": "q",
              "type": "uint8"
            },
            {
              "internalType": "uint8",
              "name": "r",
              "type": "uint8"
            }
          ],
          "internalType": "struct SharedStructs.Coordinate",
          "name": "",
          "type": "tuple"
        }
      ],
      "stateMutability": "nonpayable",
      "type": "function"
    },
    {
      "inputs": [
        {
          "internalType": "uint8",
          "name": "_radius",
          "type": "uint8"
        },
        {
          "internalType": "uint8",
          "name": "gameId",
          "type": "uint8"
        }
      ],
      "name": "initMap",
      "outputs": [],
      "stateMutability": "nonpayable",
      "type": "function"
    },
    {
      "inputs": [
        {
          "components": [
            {
              "internalType": "uint8",
              "name": "q",
              "type": "uint8"
            },
            {
              "internalType": "uint8",
              "name": "r",
              "type": "uint8"
            }
          ],
          "internalType": "struct SharedStructs.Coordinate",
          "name": "_coord",
          "type": "tuple"
        },
        {
          "internalType": "uint8",
          "name": "gameId",
          "type": "uint8"
        }
      ],
      "name": "isIsland",
      "outputs": [
        {
          "internalType": "bool",
          "name": "",
          "type": "bool"
        }
      ],
      "stateMutability": "view",
      "type": "function"
    },
    {
      "inputs": [
        {
          "components": [
            {
              "internalType": "uint8",
              "name": "q",
              "type": "uint8"
            },
            {
              "internalType": "uint8",
              "name": "r",
              "type": "uint8"
            }
          ],
          "internalType": "struct SharedStructs.Coordinate",
          "name": "_start",
          "type": "tuple"
        },
        {
          "internalType": "enum SharedStructs.Directions",
          "name": "_dir",
          "type": "uint8"
        },
        {
          "internalType": "uint8",
          "name": "_distance",
          "type": "uint8"
        }
      ],
      "name": "move",
      "outputs": [
        {
          "components": [
            {
              "internalType": "uint8",
              "name": "q",
              "type": "uint8"
            },
            {
              "internalType": "uint8",
              "name": "r",
              "type": "uint8"
            }
          ],
          "internalType": "struct SharedStructs.Coordinate",
          "name": "",
          "type": "tuple"
        }
      ],
      "stateMutability": "view",
      "type": "function"
    },
    {
      "inputs": [
        {
          "components": [
            {
              "internalType": "uint8",
              "name": "q",
              "type": "uint8"
            },
            {
              "internalType": "uint8",
              "name": "r",
              "type": "uint8"
            }
          ],
          "internalType": "struct SharedStructs.Coordinate",
          "name": "_center",
          "type": "tuple"
        },
        {
          "internalType": "uint8",
          "name": "_radius",
          "type": "uint8"
        }
      ],
      "name": "ring",
      "outputs": [
        {
          "components": [
            {
              "internalType": "uint8",
              "name": "q",
              "type": "uint8"
            },
            {
              "internalType": "uint8",
              "name": "r",
              "type": "uint8"
            }
          ],
          "internalType": "struct SharedStructs.Coordinate[]",
          "name": "",
          "type": "tuple[]"
        }
      ],
      "stateMutability": "view",
      "type": "function"
    },
    {
      "inputs": [
        {
          "components": [
            {
              "internalType": "uint8",
              "name": "q",
              "type": "uint8"
            },
            {
              "internalType": "uint8",
              "name": "r",
              "type": "uint8"
            }
          ],
          "internalType": "struct SharedStructs.Coordinate",
          "name": "_startCell",
          "type": "tuple"
        },
        {
          "internalType": "enum SharedStructs.Directions",
          "name": "_direction",
          "type": "uint8"
        },
        {
          "internalType": "uint8",
          "name": "_distance",
          "type": "uint8"
        },
        {
          "internalType": "uint8",
          "name": "_maxAllowedMove",
          "type": "uint8"
        },
        {
          "internalType": "uint8",
          "name": "gameId",
          "type": "uint8"
        }
      ],
      "name": "travel",
      "outputs": [
        {
          "internalType": "bool",
          "name": "",
          "type": "bool"
        },
        {
          "components": [
            {
              "internalType": "uint8",
              "name": "q",
              "type": "uint8"
            },
            {
              "internalType": "uint8",
              "name": "r",
              "type": "uint8"
            }
          ],
          "internalType": "struct SharedStructs.Coordinate",
          "name": "",
          "type": "tuple"
        }
      ],
      "stateMutability": "view",
      "type": "function"
    }
  ],
  "bytecode": "0x608060405234801561001057600080fd5b50604051611adb380380611adb83398101604081905261002f916102a7565b6100428161025a60201b610c3a1760201c565b805160039081556020918201516004805460ff191660ff9283161781556040805180820182526001808252600082880181815281805281895292517fad3228b676f7d3cd4284a5443f17f1962b36e491b30a40b2405849e597ba5fb580549451881661010090810261ffff19968716938a169390931792909217905584518086018652838152600019818b01818152858552848c5291517fada5013122d395ba3c54772283fb069b10426056ef8ca54750cb9bb552a59e7d805493518b168502938816918b16919091179290921790915585518087018752838152808b0182815260028552848c5290517fabbb5caa7dda850e60932de0934eb1f9d0f59695050f761dc64e443e5030a56980549251918b1692881692909217908a16840217905585518087018752818152808b01848152998452838b52517f101e368776582e57ab3d116ffe2517c0a585cd5b23174b01e275c2d8329c3d8380549a51918a169a87169a909a179089168302179098558451808601865297885287890183815295825281895296517f52d75039926638d3c558b2bdefb945d5be8dae29dedd1c313212a4d472d9fde5805496519188169685169690961790871688021790945582518084019093528383528287019081526005845292909552517f2b232c97452f0950c94e2539fdc7e69d21166113cf7a9bcb99b220a3fe5d720a8054925191841692909516919091179116909102179055506102c0565b6040805180820182526000808252602082015281518083019092526060820183905290806080810160408051601f1981840301815291905280516020918201208252600091015292915050565b6000602082840312156102b957600080fd5b5051919050565b61180c806102cf6000396000f3fe608060405234801561001057600080fd5b50600436106100cf5760003560e01c80634d0238861161008c578063906cb19e11610066578063906cb19e14610280578063b4b4854d14610293578063d202ec38146102b6578063d6192ad3146102c957600080fd5b80634d0238861461018b57806374082a50146101e057806386df5be61461025d57600080fd5b806318068d37146100d45780631a84a4ea146100e95780631b26f2091461011257806320bff4311461013357806339e5c4a01461015857806342c39d9114610178575b600080fd5b6100e76100e236600461112f565b6102dc565b005b6100fc6100f73660046111db565b6103ae565b604051610109919061121f565b60405180910390f35b61012561012036600461123d565b610497565b6040516101099291906112a3565b6101466101413660046112c9565b610534565b60405160ff9091168152602001610109565b61016b6101663660046112fe565b6105bc565b6040516101099190611329565b6100fc61018636600461112f565b6106e1565b61019e6101993660046112fe565b610894565b6040516101099190600060808201905060ff835116825260ff602084015116602083015260408301511515604083015260608301511515606083015292915050565b6102306101ee366004611386565b600160209081526000938452604080852082529284528284209052825290205460ff808216916101008104821691620100008204811691630100000090041684565b6040805160ff95861681529490931660208501529015159183019190915215156060820152608001610109565b61014661026b3660046113b9565b60026020526000908152604090205460ff1681565b6100e761028e3660046113d2565b610929565b6102a66102a13660046112fe565b6109d6565b6040519015158152602001610109565b6100e76102c4366004611404565b610a20565b6100fc6102d73660046111db565b610bee565b60ff808216600090815260026020526040812054909116906102ff826001611444565b61030d60ff84166003611457565b6103179190611457565b610322906001611444565b905060006064610333836010611457565b61033d9190611484565b905060005b818110156103a7576000610355866106e1565b60ff80881660009081526001602090815260408083208286015185168452825280832094519093168252929092529020805462ff0000191662010000179055508061039f81611498565b915050610342565b5050505050565b60408051808201909152600080825260208201526000826000808660068111156103da576103da6114b1565b60068111156103eb576103eb6114b1565b8152602081019190915260400160009081205461040992910b6114c7565b855161041591906114ee565b905060008360008087600681111561042f5761042f6114b1565b6006811115610440576104406114b1565b815260208101919091526040016000908120546104659291610100909104900b6114c7565b866020015161047491906114ee565b6040805180820190915260ff9384168152921660208301525090505b9392505050565b604080518082019091526000808252602082018190529060006104ba8686610c87565b905060005b8160ff168160ff161015610520576104d78989610f40565b985060006104e58a87610894565b90508060400151806104f957508060600151155b1561050d5760018a9450945050505061052a565b50806105188161150f565b9150506104bf565b5060008892509250505b9550959350505050565b600060026105548360200151856020015161054f919061152e565b610f60565b60208085015185519187015187516105849391610570916114ee565b61057a919061152e565b61054f919061152e565b845186516105959161054f9161152e565b61059f91906114ee565b6105a991906114ee565b6105b3919061154f565b90505b92915050565b606060006105cb836006611587565b60ff1667ffffffffffffffff8111156105e6576105e661114a565b60405190808252806020026020018201604052801561062b57816020015b60408051808201909152600080825260208201528152602001906001900390816106045790505b509050600061063c856004866103ae565b905060005b60058160ff16116106d75760005b8560ff168160ff1610156106c45782848261066a8986611587565b61067491906115a3565b60ff1681518110610687576106876115bc565b60200260200101819052506106b0838360ff1660068111156106ab576106ab6114b1565b610f40565b9250806106bc8161150f565b91505061064f565b50806106cf8161150f565b915050610641565b5090949350505050565b604080518082019091526000808252602082015260ff8083166000908152600260208190526040808320548151808301909252909316929081906107329060039061072d908790611587565b610f7b565b60ff16815260200161074a600361072d866002611587565b60ff9081169091528581166000908152600160209081526040808320828601518516845282528083208551851684528252918290208251608081018452905480851682526101008104851692820192909252620100008204841615159281019290925263010000009004909116151560608201529091505b806060015115806107d4575080604001515b1561088c5760405180604001604052806107f6600386600261072d9190611587565b60ff16815260200161080e600361072d876002611587565b60ff90811690915286811660009081526001602090815260408083208286015185168452825280832085518516845282529182902082516080810184529054808516825261010081048516928201929092526201000082048416151592810192909252630100000090049091161515606082015290925090506107c2565b509392505050565b6040805160808101825260008082526020820181905291810182905260608101919091525060ff908116600090815260016020908152604080832085830151851684528252808320945184168352938152908390208351608081018552905480841682526101008104841692820192909252620100008204831615159381019390935263010000009004161515606082015290565b61095b6040518060400160405280601181526020017010d85b1b19590819195b195d1950d95b1b607a1b81525061105d565b60ff811660009081526001602090815260408083209183916109829190870190870161112f565b60ff1681526020808201929092526040016000908120916109a59086018661112f565b60ff1681526020810191909152604001600020805491151563010000000263ff000000199092169190911790555050565b6000610a086040518060400160405280600f81526020016e10d85b1b1959081a5cd25cdb185b99608a1b81525061105d565b6000610a148484610894565b60400151949350505050565b607f60ff83161115610a555760405163e48c3a9d60e01b815260ff83166004820152607f602482015260440160405180910390fd5b60ff8082166000818152600260209081526040808320805486891660ff19909116811790915581516080810183528181528084018281528184018681526001606084018181529888528087528588209488529386528487209095529290942093518454925193519551151563010000000263ff0000001996151562010000029690961663ffff0000199488166101000261ffff1990941691909716179190911791909116939093179190911790555b8260ff168160ff1611610be9576040805180820190915260ff841680825260208201526000610b3382846105bc565b905060005b81518160ff161015610bd357610bc1828260ff1681518110610b5c57610b5c6115bc565b60200260200101518660ff908116600090815260016020908152604080832085830180518616855290835281842086518616855290925290912092518354915163ffff0000199084166101000261ffff19909316919093161717166301000000179055565b80610bcb8161150f565b915050610b38565b5050508080610be19061150f565b915050610b04565b505050565b604080518082019091526000808252602082015260005b8260ff168160ff161015610c3157610c1d8585610f40565b945080610c298161150f565b915050610c05565b50929392505050565b6040805180820182526000808252602082015281518083019092526060820183905290806080810160408051601f1981840301815291905280516020918201208252600091015292915050565b6000808260ff1667ffffffffffffffff811115610ca657610ca661114a565b604051908082528060200260200182016040528015610ccf578160200160208202803683370190505b5090506000610cdf8460646115d2565b905060005b610cef6001876115f4565b60ff168160ff161015610d365781838260ff1681518110610d1257610d126115bc565b60ff9092166020928302919091019091015280610d2e8161150f565b915050610ce4565b508360ff168560ff161015610d9e576000610d526001876115f4565b610d5c9083611587565b9050610d698160646115f4565b83610d756001896115f4565b60ff1681518110610d8857610d886115bc565b602002602001019060ff16908160ff1681525050505b60008460ff1667ffffffffffffffff811115610dbc57610dbc61114a565b604051908082528060200260200182016040528015610de5578160200160208202803683370190505b50905082600081518110610dfb57610dfb6115bc565b602002602001015181600081518110610e1657610e166115bc565b60ff9092166020928302919091019091015260015b8560ff168160ff161015610ec257838160ff1681518110610e4e57610e4e6115bc565b602002602001015182600183610e6491906115f4565b60ff1681518110610e7757610e776115bc565b6020026020010151610e8991906115a3565b828260ff1681518110610e9e57610e9e6115bc565b60ff9092166020928302919091019091015280610eba8161150f565b915050610e2b565b506000610ecf60646110a3565b905060005b8660ff168160ff161015610f3457828160ff1681518110610ef757610ef76115bc565b602002602001015160ff168260ff1611610f2257610f168160016115a3565b955050505050506105b6565b80610f2c8161150f565b915050610ed4565b50959695505050505050565b60408051808201909152600080825260208201526105b3838360016103ae565b6000808260000b12610f7257816105b6565b6105b68261160d565b60006001610f8c600861010061162b565b610f9691906115f4565b600184015460ff918216911610610fdd5782546040805160208101929092520160408051601f198184030181529190528051602090910120835560018301805460ff191690555b6000826001610fee60086002611730565b610ff8919061173f565b600186015461100b9060ff166008611587565b60ff168660000154901c166110209190611752565b60018501805491925060ff90911690600061103a8361150f565b91906101000a81548160ff021916908360ff160217905550508091505092915050565b6110a0816040516024016110719190611774565b60408051601f198184030181529190526020810180516001600160e01b031663104c13eb60e21b1790526110f8565b50565b6000808242336040516020016110d592919091825260601b6bffffffffffffffffffffffff1916602082015260340190565b6040516020818303038152906040528051906020012060001c61049091906117c2565b80516a636f6e736f6c652e6c6f67602083016000808483855afa5050505050565b803560ff8116811461112a57600080fd5b919050565b60006020828403121561114157600080fd5b6105b382611119565b634e487b7160e01b600052604160045260246000fd5b60006040828403121561117257600080fd5b6040516040810181811067ffffffffffffffff821117156111a357634e487b7160e01b600052604160045260246000fd5b6040529050806111b283611119565b81526111c060208401611119565b60208201525092915050565b80356007811061112a57600080fd5b6000806000608084860312156111f057600080fd5b6111fa8585611160565b9250611208604085016111cc565b915061121660608501611119565b90509250925092565b604081016105b68284805160ff908116835260209182015116910152565b600080600080600060c0868803121561125557600080fd5b61125f8787611160565b945061126d604087016111cc565b935061127b60608701611119565b925061128960808701611119565b915061129760a08701611119565b90509295509295909350565b8215158152606081016104906020830184805160ff908116835260209182015116910152565b600080608083850312156112dc57600080fd5b6112e68484611160565b91506112f58460408501611160565b90509250929050565b6000806060838503121561131157600080fd5b61131b8484611160565b91506112f560408401611119565b602080825282518282018190526000919060409081850190868401855b8281101561137957611369848351805160ff908116835260209182015116910152565b9284019290850190600101611346565b5091979650505050505050565b60008060006060848603121561139b57600080fd5b833592506113ab60208501611119565b915061121660408501611119565b6000602082840312156113cb57600080fd5b5035919050565b60008082840360608112156113e657600080fd5b60408112156113f457600080fd5b508291506112f560408401611119565b6000806040838503121561141757600080fd5b61142083611119565b91506112f560208401611119565b634e487b7160e01b600052601160045260246000fd5b808201808211156105b6576105b661142e565b80820281158282048414176105b6576105b661142e565b634e487b7160e01b600052601260045260246000fd5b6000826114935761149361146e565b500490565b6000600182016114aa576114aa61142e565b5060010190565b634e487b7160e01b600052602160045260246000fd5b60008260000b8260000b028060000b91508082146114e7576114e761142e565b5092915050565b600081810b9083900b01607f8113607f19821217156105b6576105b661142e565b600060ff821660ff81036115255761152561142e565b60010192915050565b600082810b9082900b03607f198112607f821317156105b6576105b661142e565b60008160000b8360000b806115665761156661146e565b607f1982146000198214161561157e5761157e61142e565b90059392505050565b60ff81811683821602908116908181146114e7576114e761142e565b60ff81811683821601908111156105b6576105b661142e565b634e487b7160e01b600052603260045260246000fd5b600060ff8316806115e5576115e561146e565b8060ff84160491505092915050565b60ff82811682821603908111156105b6576105b661142e565b600081810b608081016116225761162261142e565b60000392915050565b600061ffff808416806116405761164061146e565b92169190910492915050565b600181815b8085111561168757816000190482111561166d5761166d61142e565b8085161561167a57918102915b93841c9390800290611651565b509250929050565b60008261169e575060016105b6565b816116ab575060006105b6565b81600181146116c157600281146116cb576116e7565b60019150506105b6565b60ff8411156116dc576116dc61142e565b50506001821b6105b6565b5060208310610133831016604e8410600b841016171561170a575081810a6105b6565b611714838361164c565b80600019048211156117285761172861142e565b029392505050565b60006105b360ff84168361168f565b818103818111156105b6576105b661142e565b600060ff8316806117655761176561146e565b8060ff84160691505092915050565b600060208083528351808285015260005b818110156117a157858101830151858201604001528201611785565b506000604082860101526040601f19601f8301168501019250505092915050565b6000826117d1576117d161146e565b50069056fea26469706673582212208d4017f597ae96dcb85ed041354be57e3463b4e9c0c219a7f581a6add80e782d64736f6c63430008120033",
  "linkReferences": {},
  "deployedLinkReferences": {}
}