{
    "_format": "hh-sol-artifact-1",
    "contractName": "MapNP",
    "sourceName": "contracts/MapNP.sol",
    "abi": [
        {
            "inputs": [
                {
                    "internalType": "uint256",
                    "name": "_seed",
                    "type": "uint256"
                }
            ],
            "stateMutability": "nonpayable",
            "type": "constructor"
        },
        {
            "inputs": [
                {
                    "internalType": "uint256",
                    "name": "suppliedSize",
                    "type": "uint256"
                },
                {
                    "internalType": "uint256",
                    "name": "maxSize",
                    "type": "uint256"
                }
            ],
            "name": "MapSizeMustBeInRange",
            "type": "error"
        },
        {
            "inputs": [
                {
                    "components": [
                        {
                            "internalType": "uint8",
                            "name": "q",
                            "type": "uint8"
                        },
                        {
                            "internalType": "uint8",
                            "name": "r",
                            "type": "uint8"
                        }
                    ],
                    "internalType": "struct SharedStructs.Coordinate",
                    "name": "_startCell",
                    "type": "tuple"
                },
                {
                    "internalType": "enum SharedStructs.Directions",
                    "name": "_directions",
                    "type": "uint8"
                },
                {
                    "internalType": "uint8",
                    "name": "_distance",
                    "type": "uint8"
                }
            ],
            "name": "calculateShot",
            "outputs": [
                {
                    "components": [
                        {
                            "internalType": "uint8",
                            "name": "q",
                            "type": "uint8"
                        },
                        {
                            "internalType": "uint8",
                            "name": "r",
                            "type": "uint8"
                        }
                    ],
                    "internalType": "struct SharedStructs.Coordinate",
                    "name": "",
                    "type": "tuple"
                }
            ],
            "stateMutability": "view",
            "type": "function"
        },
        {
            "inputs": [
                {
                    "internalType": "uint8",
                    "name": "gameId",
                    "type": "uint8"
                }
            ],
            "name": "createIslands",
            "outputs": [],
            "stateMutability": "nonpayable",
            "type": "function"
        },
        {
            "inputs": [
                {
                    "components": [
                        {
                            "internalType": "uint8",
                            "name": "q",
                            "type": "uint8"
                        },
                        {
                            "internalType": "uint8",
                            "name": "r",
                            "type": "uint8"
                        }
                    ],
                    "internalType": "struct SharedStructs.Coordinate",
                    "name": "_coord",
                    "type": "tuple"
                },
                {
                    "internalType": "uint8",
                    "name": "gameId",
                    "type": "uint8"
                }
            ],
            "name": "deleteCell",
            "outputs": [],
            "stateMutability": "nonpayable",
            "type": "function"
        },
        {
            "inputs": [
                {
                    "components": [
                        {
                            "internalType": "uint8",
                            "name": "q",
                            "type": "uint8"
                        },
                        {
                            "internalType": "uint8",
                            "name": "r",
                            "type": "uint8"
                        }
                    ],
                    "internalType": "struct SharedStructs.Coordinate",
                    "name": "_a",
                    "type": "tuple"
                },
                {
                    "components": [
                        {
                            "internalType": "uint8",
                            "name": "q",
                            "type": "uint8"
                        },
                        {
                            "internalType": "uint8",
                            "name": "r",
                            "type": "uint8"
                        }
                    ],
                    "internalType": "struct SharedStructs.Coordinate",
                    "name": "_b",
                    "type": "tuple"
                }
            ],
            "name": "distance",
            "outputs": [
                {
                    "internalType": "uint8",
                    "name": "",
                    "type": "uint8"
                }
            ],
            "stateMutability": "pure",
            "type": "function"
        },
        {
            "inputs": [
                {
                    "internalType": "uint256",
                    "name": "",
                    "type": "uint256"
                },
                {
                    "internalType": "uint8",
                    "name": "",
                    "type": "uint8"
                },
                {
                    "internalType": "uint8",
                    "name": "",
                    "type": "uint8"
                }
            ],
            "name": "gameHexCells",
            "outputs": [
                {
                    "internalType": "uint8",
                    "name": "q",
                    "type": "uint8"
                },
                {
                    "internalType": "uint8",
                    "name": "r",
                    "type": "uint8"
                },
                {
                    "internalType": "bool",
                    "name": "island",
                    "type": "bool"
                },
                {
                    "internalType": "bool",
                    "name": "exists",
                    "type": "bool"
                }
            ],
            "stateMutability": "view",
            "type": "function"
        },
        {
            "inputs": [
                {
                    "internalType": "uint256",
                    "name": "",
                    "type": "uint256"
                }
            ],
            "name": "gameRadii",
            "outputs": [
                {
                    "internalType": "uint8",
                    "name": "",
                    "type": "uint8"
                }
            ],
            "stateMutability": "view",
            "type": "function"
        },
        {
            "inputs": [
                {
                    "components": [
                        {
                            "internalType": "uint8",
                            "name": "q",
                            "type": "uint8"
                        },
                        {
                            "internalType": "uint8",
                            "name": "r",
                            "type": "uint8"
                        }
                    ],
                    "internalType": "struct SharedStructs.Coordinate",
                    "name": "_coord",
                    "type": "tuple"
                },
                {
                    "internalType": "uint8",
                    "name": "gameId",
                    "type": "uint8"
                }
            ],
            "name": "getCell",
            "outputs": [
                {
                    "components": [
                        {
                            "internalType": "uint8",
                            "name": "q",
                            "type": "uint8"
                        },
                        {
                            "internalType": "uint8",
                            "name": "r",
                            "type": "uint8"
                        },
                        {
                            "internalType": "bool",
                            "name": "island",
                            "type": "bool"
                        },
                        {
                            "internalType": "bool",
                            "name": "exists",
                            "type": "bool"
                        }
                    ],
                    "internalType": "struct SharedStructs.Cell",
                    "name": "",
                    "type": "tuple"
                }
            ],
            "stateMutability": "view",
            "type": "function"
        },
        {
            "inputs": [
                {
                    "internalType": "uint8",
                    "name": "gameId",
                    "type": "uint8"
                }
            ],
            "name": "getRandomCoordinatePair",
            "outputs": [
                {
                    "components": [
                        {
                            "internalType": "uint8",
                            "name": "q",
                            "type": "uint8"
                        },
                        {
                            "internalType": "uint8",
                            "name": "r",
                            "type": "uint8"
                        }
                    ],
                    "internalType": "struct SharedStructs.Coordinate",
                    "name": "",
                    "type": "tuple"
                }
            ],
            "stateMutability": "nonpayable",
            "type": "function"
        },
        {
            "inputs": [
                {
                    "internalType": "uint8",
                    "name": "_radius",
                    "type": "uint8"
                },
                {
                    "internalType": "uint8",
                    "name": "gameId",
                    "type": "uint8"
                }
            ],
            "name": "initMap",
            "outputs": [],
            "stateMutability": "nonpayable",
            "type": "function"
        },
        {
            "inputs": [
                {
                    "components": [
                        {
                            "internalType": "uint8",
                            "name": "q",
                            "type": "uint8"
                        },
                        {
                            "internalType": "uint8",
                            "name": "r",
                            "type": "uint8"
                        }
                    ],
                    "internalType": "struct SharedStructs.Coordinate",
                    "name": "_coord",
                    "type": "tuple"
                },
                {
                    "internalType": "uint8",
                    "name": "gameId",
                    "type": "uint8"
                }
            ],
            "name": "isIsland",
            "outputs": [
                {
                    "internalType": "bool",
                    "name": "",
                    "type": "bool"
                }
            ],
            "stateMutability": "view",
            "type": "function"
        },
        {
            "inputs": [
                {
                    "components": [
                        {
                            "internalType": "uint8",
                            "name": "q",
                            "type": "uint8"
                        },
                        {
                            "internalType": "uint8",
                            "name": "r",
                            "type": "uint8"
                        }
                    ],
                    "internalType": "struct SharedStructs.Coordinate",
                    "name": "_start",
                    "type": "tuple"
                },
                {
                    "internalType": "enum SharedStructs.Directions",
                    "name": "_dir",
                    "type": "uint8"
                },
                {
                    "internalType": "uint8",
                    "name": "_distance",
                    "type": "uint8"
                }
            ],
            "name": "move",
            "outputs": [
                {
                    "components": [
                        {
                            "internalType": "uint8",
                            "name": "q",
                            "type": "uint8"
                        },
                        {
                            "internalType": "uint8",
                            "name": "r",
                            "type": "uint8"
                        }
                    ],
                    "internalType": "struct SharedStructs.Coordinate",
                    "name": "",
                    "type": "tuple"
                }
            ],
            "stateMutability": "view",
            "type": "function"
        },
        {
            "inputs": [
                {
                    "components": [
                        {
                            "internalType": "uint8",
                            "name": "q",
                            "type": "uint8"
                        },
                        {
                            "internalType": "uint8",
                            "name": "r",
                            "type": "uint8"
                        }
                    ],
                    "internalType": "struct SharedStructs.Coordinate",
                    "name": "_center",
                    "type": "tuple"
                },
                {
                    "internalType": "uint8",
                    "name": "_radius",
                    "type": "uint8"
                }
            ],
            "name": "ring",
            "outputs": [
                {
                    "components": [
                        {
                            "internalType": "uint8",
                            "name": "q",
                            "type": "uint8"
                        },
                        {
                            "internalType": "uint8",
                            "name": "r",
                            "type": "uint8"
                        }
                    ],
                    "internalType": "struct SharedStructs.Coordinate[]",
                    "name": "",
                    "type": "tuple[]"
                }
            ],
            "stateMutability": "view",
            "type": "function"
        },
        {
            "inputs": [
                {
                    "components": [
                        {
                            "internalType": "uint8",
                            "name": "q",
                            "type": "uint8"
                        },
                        {
                            "internalType": "uint8",
                            "name": "r",
                            "type": "uint8"
                        }
                    ],
                    "internalType": "struct SharedStructs.Coordinate",
                    "name": "_startCell",
                    "type": "tuple"
                },
                {
                    "internalType": "enum SharedStructs.Directions",
                    "name": "_direction",
                    "type": "uint8"
                },
                {
                    "internalType": "uint8",
                    "name": "_distance",
                    "type": "uint8"
                },
                {
                    "internalType": "uint8",
                    "name": "gameId",
                    "type": "uint8"
                }
            ],
            "name": "travel",
            "outputs": [
                {
                    "internalType": "bool",
                    "name": "",
                    "type": "bool"
                },
                {
                    "components": [
                        {
                            "internalType": "uint8",
                            "name": "q",
                            "type": "uint8"
                        },
                        {
                            "internalType": "uint8",
                            "name": "r",
                            "type": "uint8"
                        }
                    ],
                    "internalType": "struct SharedStructs.Coordinate",
                    "name": "",
                    "type": "tuple"
                }
            ],
            "stateMutability": "view",
            "type": "function"
        }
    ],
    "bytecode": "0x608060405234801561001057600080fd5b5060405161199d38038061199d83398101604081905261002f916102a7565b6100428161025a60201b610c381760201c565b805160039081556020918201516004805460ff191660ff9283161781556040805180820182526001808252600082880181815281805281895292517fad3228b676f7d3cd4284a5443f17f1962b36e491b30a40b2405849e597ba5fb580549451881661010090810261ffff19968716938a169390931792909217905584518086018652838152600019818b01818152858552848c5291517fada5013122d395ba3c54772283fb069b10426056ef8ca54750cb9bb552a59e7d805493518b168502938816918b16919091179290921790915585518087018752838152808b0182815260028552848c5290517fabbb5caa7dda850e60932de0934eb1f9d0f59695050f761dc64e443e5030a56980549251918b1692881692909217908a16840217905585518087018752818152808b01848152998452838b52517f101e368776582e57ab3d116ffe2517c0a585cd5b23174b01e275c2d8329c3d8380549a51918a169a87169a909a179089168302179098558451808601865297885287890183815295825281895296517f52d75039926638d3c558b2bdefb945d5be8dae29dedd1c313212a4d472d9fde5805496519188169685169690961790871688021790945582518084019093528383528287019081526005845292909552517f2b232c97452f0950c94e2539fdc7e69d21166113cf7a9bcb99b220a3fe5d720a8054925191841692909516919091179116909102179055506102c0565b6040805180820182526000808252602082015281518083019092526060820183905290806080810160408051601f1981840301815291905280516020918201208252600091015292915050565b6000602082840312156102b957600080fd5b5051919050565b6116ce806102cf6000396000f3fe608060405234801561001057600080fd5b50600436106100cf5760003560e01c80634d0238861161008c578063906cb19e11610066578063906cb19e14610280578063b4b4854d14610293578063d202ec38146102b6578063d6192ad3146102c957600080fd5b80634d0238861461018b57806374082a50146101e057806386df5be61461025d57600080fd5b806318068d37146100d45780631a84a4ea146100e95780631cf8a3211461011257806320bff4311461013357806339e5c4a01461015857806342c39d9114610178575b600080fd5b6100e76100e2366004611002565b6102dc565b005b6100fc6100f73660046110ae565b6103ae565b60405161010991906110f2565b60405180910390f35b610125610120366004611110565b610497565b604051610109929190611165565b61014661014136600461118b565b610532565b60405160ff9091168152602001610109565b61016b6101663660046111c0565b6105ba565b60405161010991906111eb565b6100fc610186366004611002565b6106df565b61019e6101993660046111c0565b610892565b6040516101099190600060808201905060ff835116825260ff602084015116602083015260408301511515604083015260608301511515606083015292915050565b6102306101ee366004611248565b600160209081526000938452604080852082529284528284209052825290205460ff808216916101008104821691620100008204811691630100000090041684565b6040805160ff95861681529490931660208501529015159183019190915215156060820152608001610109565b61014661026b36600461127b565b60026020526000908152604090205460ff1681565b6100e761028e366004611294565b610927565b6102a66102a13660046111c0565b6109d4565b6040519015158152602001610109565b6100e76102c43660046112c6565b610a1e565b6100fc6102d73660046110ae565b610bec565b60ff808216600090815260026020526040812054909116906102ff826001611306565b61030d60ff84166003611319565b6103179190611319565b610322906001611306565b905060006064610333836010611319565b61033d9190611346565b905060005b818110156103a7576000610355866106df565b60ff80881660009081526001602090815260408083208286015185168452825280832094519093168252929092529020805462ff0000191662010000179055508061039f8161135a565b915050610342565b5050505050565b60408051808201909152600080825260208201526000826000808660068111156103da576103da611373565b60068111156103eb576103eb611373565b8152602081019190915260400160009081205461040992910b611389565b855161041591906113b0565b905060008360008087600681111561042f5761042f611373565b600681111561044057610440611373565b815260208101919091526040016000908120546104659291610100909104900b611389565b866020015161047491906113b0565b6040805180820190915260ff9384168152921660208301525090505b9392505050565b604080518082019091526000808252602082018190529060006104b985610c85565b905060005b8160ff168160ff16101561051f576104d68888610e13565b975060006104e48987610892565b90508060400151806104f857508060600151155b1561050c5760018994509450505050610529565b5080610517816113d1565b9150506104be565b5060008792509250505b94509492505050565b600060026105528360200151856020015161054d91906113f0565b610e33565b6020808501518551918701518751610582939161056e916113b0565b61057891906113f0565b61054d91906113f0565b845186516105939161054d916113f0565b61059d91906113b0565b6105a791906113b0565b6105b19190611411565b90505b92915050565b606060006105c9836006611449565b60ff1667ffffffffffffffff8111156105e4576105e461101d565b60405190808252806020026020018201604052801561062957816020015b60408051808201909152600080825260208201528152602001906001900390816106025790505b509050600061063a856004866103ae565b905060005b60058160ff16116106d55760005b8560ff168160ff1610156106c2578284826106688986611449565b6106729190611465565b60ff16815181106106855761068561147e565b60200260200101819052506106ae838360ff1660068111156106a9576106a9611373565b610e13565b9250806106ba816113d1565b91505061064d565b50806106cd816113d1565b91505061063f565b5090949350505050565b604080518082019091526000808252602082015260ff8083166000908152600260208190526040808320548151808301909252909316929081906107309060039061072b908790611449565b610e4e565b60ff168152602001610748600361072b866002611449565b60ff9081169091528581166000908152600160209081526040808320828601518516845282528083208551851684528252918290208251608081018452905480851682526101008104851692820192909252620100008204841615159281019290925263010000009004909116151560608201529091505b806060015115806107d2575080604001515b1561088a5760405180604001604052806107f4600386600261072b9190611449565b60ff16815260200161080c600361072b876002611449565b60ff90811690915286811660009081526001602090815260408083208286015185168452825280832085518516845282529182902082516080810184529054808516825261010081048516928201929092526201000082048416151592810192909252630100000090049091161515606082015290925090506107c0565b509392505050565b6040805160808101825260008082526020820181905291810182905260608101919091525060ff908116600090815260016020908152604080832085830151851684528252808320945184168352938152908390208351608081018552905480841682526101008104841692820192909252620100008204831615159381019390935263010000009004161515606082015290565b6109596040518060400160405280601181526020017010d85b1b19590819195b195d1950d95b1b607a1b815250610f30565b60ff8116600090815260016020908152604080832091839161098091908701908701611002565b60ff1681526020808201929092526040016000908120916109a390860186611002565b60ff1681526020810191909152604001600020805491151563010000000263ff000000199092169190911790555050565b6000610a066040518060400160405280600f81526020016e10d85b1b1959081a5cd25cdb185b99608a1b815250610f30565b6000610a128484610892565b60400151949350505050565b607f60ff83161115610a535760405163e48c3a9d60e01b815260ff83166004820152607f602482015260440160405180910390fd5b60ff8082166000818152600260209081526040808320805486891660ff19909116811790915581516080810183528181528084018281528184018681526001606084018181529888528087528588209488529386528487209095529290942093518454925193519551151563010000000263ff0000001996151562010000029690961663ffff0000199488166101000261ffff1990941691909716179190911791909116939093179190911790555b8260ff168160ff1611610be7576040805180820190915260ff841680825260208201526000610b3182846105ba565b905060005b81518160ff161015610bd157610bbf828260ff1681518110610b5a57610b5a61147e565b60200260200101518660ff908116600090815260016020908152604080832085830180518616855290835281842086518616855290925290912092518354915163ffff0000199084166101000261ffff19909316919093161717166301000000179055565b80610bc9816113d1565b915050610b36565b5050508080610bdf906113d1565b915050610b02565b505050565b604080518082019091526000808252602082015260005b8260ff168160ff161015610c2f57610c1b8585610e13565b945080610c27816113d1565b915050610c03565b50929392505050565b6040805180820182526000808252602082015281518083019092526060820183905290806080810160408051601f1981840301815291905280516020918201208252600091015292915050565b6000808260ff1667ffffffffffffffff811115610ca457610ca461101d565b604051908082528060200260200182016040528015610ccd578160200160208202803683370190505b5090506000610cdd846064611494565b905060005b610ced6001866114b6565b60ff168160ff161015610d345781838260ff1681518110610d1057610d1061147e565b60ff9092166020928302919091019091015280610d2c816113d1565b915050610ce2565b50610d406001856114b6565b610d4a9082611449565b610d559060646114b6565b82610d616001876114b6565b60ff1681518110610d7457610d7461147e565b602002602001019060ff16908160ff16815250506000610d946064610f76565b90506000805b8660ff168160ff161015610e0857848160ff1681518110610dbd57610dbd61147e565b602002602001015182610dd09190611465565b91508160ff168360ff161015610df657610deb816001611465565b979650505050505050565b80610e00816113d1565b915050610d9a565b509495945050505050565b60408051808201909152600080825260208201526105b1838360016103ae565b6000808260000b12610e4557816105b4565b6105b4826114cf565b60006001610e5f60086101006114ed565b610e6991906114b6565b600184015460ff918216911610610eb05782546040805160208101929092520160408051601f198184030181529190528051602090910120835560018301805460ff191690555b6000826001610ec1600860026115f2565b610ecb9190611601565b6001860154610ede9060ff166008611449565b60ff168660000154901c16610ef39190611614565b60018501805491925060ff909116906000610f0d836113d1565b91906101000a81548160ff021916908360ff160217905550508091505092915050565b610f7381604051602401610f449190611636565b60408051601f198184030181529190526020810180516001600160e01b031663104c13eb60e21b179052610fcb565b50565b600080824233604051602001610fa892919091825260601b6bffffffffffffffffffffffff1916602082015260340190565b6040516020818303038152906040528051906020012060001c6104909190611684565b80516a636f6e736f6c652e6c6f67602083016000808483855afa5050505050565b803560ff81168114610ffd57600080fd5b919050565b60006020828403121561101457600080fd5b6105b182610fec565b634e487b7160e01b600052604160045260246000fd5b60006040828403121561104557600080fd5b6040516040810181811067ffffffffffffffff8211171561107657634e487b7160e01b600052604160045260246000fd5b60405290508061108583610fec565b815261109360208401610fec565b60208201525092915050565b803560078110610ffd57600080fd5b6000806000608084860312156110c357600080fd5b6110cd8585611033565b92506110db6040850161109f565b91506110e960608501610fec565b90509250925092565b604081016105b48284805160ff908116835260209182015116910152565b60008060008060a0858703121561112657600080fd5b6111308686611033565b935061113e6040860161109f565b925061114c60608601610fec565b915061115a60808601610fec565b905092959194509250565b8215158152606081016104906020830184805160ff908116835260209182015116910152565b6000806080838503121561119e57600080fd5b6111a88484611033565b91506111b78460408501611033565b90509250929050565b600080606083850312156111d357600080fd5b6111dd8484611033565b91506111b760408401610fec565b602080825282518282018190526000919060409081850190868401855b8281101561123b5761122b848351805160ff908116835260209182015116910152565b9284019290850190600101611208565b5091979650505050505050565b60008060006060848603121561125d57600080fd5b8335925061126d60208501610fec565b91506110e960408501610fec565b60006020828403121561128d57600080fd5b5035919050565b60008082840360608112156112a857600080fd5b60408112156112b657600080fd5b508291506111b760408401610fec565b600080604083850312156112d957600080fd5b6112e283610fec565b91506111b760208401610fec565b634e487b7160e01b600052601160045260246000fd5b808201808211156105b4576105b46112f0565b80820281158282048414176105b4576105b46112f0565b634e487b7160e01b600052601260045260246000fd5b60008261135557611355611330565b500490565b60006001820161136c5761136c6112f0565b5060010190565b634e487b7160e01b600052602160045260246000fd5b60008260000b8260000b028060000b91508082146113a9576113a96112f0565b5092915050565b600081810b9083900b01607f8113607f19821217156105b4576105b46112f0565b600060ff821660ff81036113e7576113e76112f0565b60010192915050565b600082810b9082900b03607f198112607f821317156105b4576105b46112f0565b60008160000b8360000b8061142857611428611330565b607f19821460001982141615611440576114406112f0565b90059392505050565b60ff81811683821602908116908181146113a9576113a96112f0565b60ff81811683821601908111156105b4576105b46112f0565b634e487b7160e01b600052603260045260246000fd5b600060ff8316806114a7576114a7611330565b8060ff84160491505092915050565b60ff82811682821603908111156105b4576105b46112f0565b600081810b608081016114e4576114e46112f0565b60000392915050565b600061ffff8084168061150257611502611330565b92169190910492915050565b600181815b8085111561154957816000190482111561152f5761152f6112f0565b8085161561153c57918102915b93841c9390800290611513565b509250929050565b600082611560575060016105b4565b8161156d575060006105b4565b8160018114611583576002811461158d576115a9565b60019150506105b4565b60ff84111561159e5761159e6112f0565b50506001821b6105b4565b5060208310610133831016604e8410600b84101617156115cc575081810a6105b4565b6115d6838361150e565b80600019048211156115ea576115ea6112f0565b029392505050565b60006105b160ff841683611551565b818103818111156105b4576105b46112f0565b600060ff83168061162757611627611330565b8060ff84160691505092915050565b600060208083528351808285015260005b8181101561166357858101830151858201604001528201611647565b506000604082860101526040601f19601f8301168501019250505092915050565b60008261169357611693611330565b50069056fea2646970667358221220d10f30468f67f0884f99e9d2a1ad64b4a26bd9f2b3ee6d8beb28d16da96cc80f64736f6c63430008120033",
    "linkReferences": {},
    "deployedLinkReferences": {}
}