{
  "_format": "hh-sol-artifact-1",
  "contractName": "MapPunk",
  "sourceName": "contracts/MapPunk.sol",
  "abi": [
    {
      "inputs": [
        {
          "internalType": "uint256",
          "name": "_seed",
          "type": "uint256"
        }
      ],
      "stateMutability": "nonpayable",
      "type": "constructor"
    },
    {
      "inputs": [
        {
          "internalType": "uint256",
          "name": "suppliedSize",
          "type": "uint256"
        },
        {
          "internalType": "uint256",
          "name": "maxSize",
          "type": "uint256"
        }
      ],
      "name": "MapSizeMustBeInRange",
      "type": "error"
    },
    {
      "inputs": [
        {
          "components": [
            {
              "internalType": "uint8",
              "name": "q",
              "type": "uint8"
            },
            {
              "internalType": "uint8",
              "name": "r",
              "type": "uint8"
            }
          ],
          "internalType": "struct SharedStructs.Coordinate",
          "name": "_startCell",
          "type": "tuple"
        },
        {
          "internalType": "enum SharedStructs.Directions",
          "name": "_directions",
          "type": "uint8"
        },
        {
          "internalType": "uint8",
          "name": "_distance",
          "type": "uint8"
        }
      ],
      "name": "calculateShot",
      "outputs": [
        {
          "components": [
            {
              "internalType": "uint8",
              "name": "q",
              "type": "uint8"
            },
            {
              "internalType": "uint8",
              "name": "r",
              "type": "uint8"
            }
          ],
          "internalType": "struct SharedStructs.Coordinate",
          "name": "",
          "type": "tuple"
        }
      ],
      "stateMutability": "view",
      "type": "function"
    },
    {
      "inputs": [
        {
          "internalType": "uint8",
          "name": "gameId",
          "type": "uint8"
        }
      ],
      "name": "createIslands",
      "outputs": [],
      "stateMutability": "nonpayable",
      "type": "function"
    },
    {
      "inputs": [
        {
          "components": [
            {
              "internalType": "uint8",
              "name": "q",
              "type": "uint8"
            },
            {
              "internalType": "uint8",
              "name": "r",
              "type": "uint8"
            }
          ],
          "internalType": "struct SharedStructs.Coordinate",
          "name": "_coord",
          "type": "tuple"
        },
        {
          "internalType": "uint8",
          "name": "gameId",
          "type": "uint8"
        }
      ],
      "name": "deleteCell",
      "outputs": [],
      "stateMutability": "nonpayable",
      "type": "function"
    },
    {
      "inputs": [
        {
          "internalType": "uint8",
          "name": "gameId",
          "type": "uint8"
        },
        {
          "internalType": "uint8",
          "name": "shrinkNo",
          "type": "uint8"
        }
      ],
      "name": "deleteOutermostRing",
      "outputs": [],
      "stateMutability": "nonpayable",
      "type": "function"
    },
    {
      "inputs": [
        {
          "components": [
            {
              "internalType": "uint8",
              "name": "q",
              "type": "uint8"
            },
            {
              "internalType": "uint8",
              "name": "r",
              "type": "uint8"
            }
          ],
          "internalType": "struct SharedStructs.Coordinate",
          "name": "_a",
          "type": "tuple"
        },
        {
          "components": [
            {
              "internalType": "uint8",
              "name": "q",
              "type": "uint8"
            },
            {
              "internalType": "uint8",
              "name": "r",
              "type": "uint8"
            }
          ],
          "internalType": "struct SharedStructs.Coordinate",
          "name": "_b",
          "type": "tuple"
        }
      ],
      "name": "distance",
      "outputs": [
        {
          "internalType": "uint8",
          "name": "",
          "type": "uint8"
        }
      ],
      "stateMutability": "pure",
      "type": "function"
    },
    {
      "inputs": [
        {
          "internalType": "uint256",
          "name": "",
          "type": "uint256"
        },
        {
          "internalType": "uint8",
          "name": "",
          "type": "uint8"
        },
        {
          "internalType": "uint8",
          "name": "",
          "type": "uint8"
        }
      ],
      "name": "gameHexCells",
      "outputs": [
        {
          "internalType": "uint8",
          "name": "q",
          "type": "uint8"
        },
        {
          "internalType": "uint8",
          "name": "r",
          "type": "uint8"
        },
        {
          "internalType": "bool",
          "name": "island",
          "type": "bool"
        },
        {
          "internalType": "bool",
          "name": "exists",
          "type": "bool"
        }
      ],
      "stateMutability": "view",
      "type": "function"
    },
    {
      "inputs": [
        {
          "internalType": "uint256",
          "name": "",
          "type": "uint256"
        }
      ],
      "name": "gameRadii",
      "outputs": [
        {
          "internalType": "uint8",
          "name": "",
          "type": "uint8"
        }
      ],
      "stateMutability": "view",
      "type": "function"
    },
    {
      "inputs": [
        {
          "components": [
            {
              "internalType": "uint8",
              "name": "q",
              "type": "uint8"
            },
            {
              "internalType": "uint8",
              "name": "r",
              "type": "uint8"
            }
          ],
          "internalType": "struct SharedStructs.Coordinate",
          "name": "_coord",
          "type": "tuple"
        },
        {
          "internalType": "uint8",
          "name": "gameId",
          "type": "uint8"
        }
      ],
      "name": "getCell",
      "outputs": [
        {
          "components": [
            {
              "internalType": "uint8",
              "name": "q",
              "type": "uint8"
            },
            {
              "internalType": "uint8",
              "name": "r",
              "type": "uint8"
            },
            {
              "internalType": "bool",
              "name": "island",
              "type": "bool"
            },
            {
              "internalType": "bool",
              "name": "exists",
              "type": "bool"
            }
          ],
          "internalType": "struct SharedStructs.Cell",
          "name": "",
          "type": "tuple"
        }
      ],
      "stateMutability": "view",
      "type": "function"
    },
    {
      "inputs": [
        {
          "internalType": "uint8",
          "name": "gameId",
          "type": "uint8"
        }
      ],
      "name": "getRandomCoordinatePair",
      "outputs": [
        {
          "components": [
            {
              "internalType": "uint8",
              "name": "q",
              "type": "uint8"
            },
            {
              "internalType": "uint8",
              "name": "r",
              "type": "uint8"
            }
          ],
          "internalType": "struct SharedStructs.Coordinate",
          "name": "",
          "type": "tuple"
        }
      ],
      "stateMutability": "nonpayable",
      "type": "function"
    },
    {
      "inputs": [
        {
          "internalType": "uint8",
          "name": "_radius",
          "type": "uint8"
        },
        {
          "internalType": "uint8",
          "name": "gameId",
          "type": "uint8"
        }
      ],
      "name": "initMap",
      "outputs": [],
      "stateMutability": "nonpayable",
      "type": "function"
    },
    {
      "inputs": [
        {
          "components": [
            {
              "internalType": "uint8",
              "name": "q",
              "type": "uint8"
            },
            {
              "internalType": "uint8",
              "name": "r",
              "type": "uint8"
            }
          ],
          "internalType": "struct SharedStructs.Coordinate",
          "name": "_coord",
          "type": "tuple"
        },
        {
          "internalType": "uint8",
          "name": "gameId",
          "type": "uint8"
        }
      ],
      "name": "isIsland",
      "outputs": [
        {
          "internalType": "bool",
          "name": "",
          "type": "bool"
        }
      ],
      "stateMutability": "view",
      "type": "function"
    },
    {
      "inputs": [
        {
          "components": [
            {
              "internalType": "uint8",
              "name": "q",
              "type": "uint8"
            },
            {
              "internalType": "uint8",
              "name": "r",
              "type": "uint8"
            }
          ],
          "internalType": "struct SharedStructs.Coordinate",
          "name": "_start",
          "type": "tuple"
        },
        {
          "internalType": "enum SharedStructs.Directions",
          "name": "_dir",
          "type": "uint8"
        },
        {
          "internalType": "uint8",
          "name": "_distance",
          "type": "uint8"
        }
      ],
      "name": "move",
      "outputs": [
        {
          "components": [
            {
              "internalType": "uint8",
              "name": "q",
              "type": "uint8"
            },
            {
              "internalType": "uint8",
              "name": "r",
              "type": "uint8"
            }
          ],
          "internalType": "struct SharedStructs.Coordinate",
          "name": "",
          "type": "tuple"
        }
      ],
      "stateMutability": "view",
      "type": "function"
    },
    {
      "inputs": [
        {
          "components": [
            {
              "internalType": "uint8",
              "name": "q",
              "type": "uint8"
            },
            {
              "internalType": "uint8",
              "name": "r",
              "type": "uint8"
            }
          ],
          "internalType": "struct SharedStructs.Coordinate",
          "name": "_center",
          "type": "tuple"
        },
        {
          "internalType": "uint8",
          "name": "_radius",
          "type": "uint8"
        }
      ],
      "name": "ring",
      "outputs": [
        {
          "components": [
            {
              "internalType": "uint8",
              "name": "q",
              "type": "uint8"
            },
            {
              "internalType": "uint8",
              "name": "r",
              "type": "uint8"
            }
          ],
          "internalType": "struct SharedStructs.Coordinate[]",
          "name": "",
          "type": "tuple[]"
        }
      ],
      "stateMutability": "view",
      "type": "function"
    },
    {
      "inputs": [
        {
          "components": [
            {
              "internalType": "uint8",
              "name": "q",
              "type": "uint8"
            },
            {
              "internalType": "uint8",
              "name": "r",
              "type": "uint8"
            }
          ],
          "internalType": "struct SharedStructs.Coordinate",
          "name": "_startCell",
          "type": "tuple"
        },
        {
          "internalType": "enum SharedStructs.Directions",
          "name": "_direction",
          "type": "uint8"
        },
        {
          "internalType": "uint8",
          "name": "_distance",
          "type": "uint8"
        },
        {
          "internalType": "uint8",
          "name": "gameId",
          "type": "uint8"
        }
      ],
      "name": "travel",
      "outputs": [
        {
          "internalType": "bool",
          "name": "",
          "type": "bool"
        },
        {
          "components": [
            {
              "internalType": "uint8",
              "name": "q",
              "type": "uint8"
            },
            {
              "internalType": "uint8",
              "name": "r",
              "type": "uint8"
            }
          ],
          "internalType": "struct SharedStructs.Coordinate",
          "name": "",
          "type": "tuple"
        }
      ],
      "stateMutability": "view",
      "type": "function"
    }
  ],
  "bytecode": "0x608060405234801561001057600080fd5b506040516118b63803806118b683398101604081905261002f916102a7565b6100428161025a60201b610d6a1760201c565b805160039081556020918201516004805460ff191660ff9283161781556040805180820182526001808252600082880181815281805281895292517fad3228b676f7d3cd4284a5443f17f1962b36e491b30a40b2405849e597ba5fb580549451881661010090810261ffff19968716938a169390931792909217905584518086018652838152600019818b01818152858552848c5291517fada5013122d395ba3c54772283fb069b10426056ef8ca54750cb9bb552a59e7d805493518b168502938816918b16919091179290921790915585518087018752838152808b0182815260028552848c5290517fabbb5caa7dda850e60932de0934eb1f9d0f59695050f761dc64e443e5030a56980549251918b1692881692909217908a16840217905585518087018752818152808b01848152998452838b52517f101e368776582e57ab3d116ffe2517c0a585cd5b23174b01e275c2d8329c3d8380549a51918a169a87169a909a179089168302179098558451808601865297885287890183815295825281895296517f52d75039926638d3c558b2bdefb945d5be8dae29dedd1c313212a4d472d9fde5805496519188169685169690961790871688021790945582518084019093528383528287019081526005845292909552517f2b232c97452f0950c94e2539fdc7e69d21166113cf7a9bcb99b220a3fe5d720a8054925191841692909516919091179116909102179055506102c0565b6040805180820182526000808252602082015281518083019092526060820183905290806080810160408051601f1981840301815291905280516020918201208252600091015292915050565b6000602082840312156102b957600080fd5b5051919050565b6115e7806102cf6000396000f3fe608060405234801561001057600080fd5b50600436106100ea5760003560e01c80634d0238861161008c578063906cb19e11610066578063906cb19e146102ae578063b4b4854d146102c1578063d202ec38146102e4578063d6192ad3146102f757600080fd5b80634d023886146101b957806374082a501461020e57806386df5be61461028b57600080fd5b806320bff431116100c857806320bff4311461014e57806339e5c4a01461017357806342c39d91146101935780634affc34f146101a657600080fd5b806318068d37146100ef5780631a84a4ea146101045780631cf8a3211461012d575b600080fd5b6101026100fd366004610f51565b61030a565b005b610117610112366004610ffd565b6103dc565b6040516101249190611041565b60405180910390f35b61014061013b36600461105f565b6104c5565b6040516101249291906110b4565b61016161015c3660046110da565b610551565b60405160ff9091168152602001610124565b61018661018136600461110f565b6105d9565b604051610124919061113a565b6101176101a1366004610f51565b6106fe565b6101026101b4366004611197565b6108b1565b6101cc6101c736600461110f565b6109c4565b6040516101249190600060808201905060ff835116825260ff602084015116602083015260408301511515604083015260608301511515606083015292915050565b61025e61021c3660046111c1565b600160209081526000938452604080852082529284528284209052825290205460ff808216916101008104821691620100008204811691630100000090041684565b6040805160ff95861681529490931660208501529015159183019190915215156060820152608001610124565b6101616102993660046111f4565b60026020526000908152604090205460ff1681565b6101026102bc36600461120d565b610a59565b6102d46102cf36600461110f565b610b06565b6040519015158152602001610124565b6101026102f2366004611197565b610b50565b610117610305366004610ffd565b610d1e565b60ff8082166000908152600260205260408120549091169061032d826001611255565b61033b60ff84166003611268565b6103459190611268565b610350906001611255565b905060006064610361836010611268565b61036b9190611295565b905060005b818110156103d5576000610383866106fe565b60ff80881660009081526001602090815260408083208286015185168452825280832094519093168252929092529020805462ff000019166201000017905550806103cd816112a9565b915050610370565b5050505050565b6040805180820190915260008082526020820152600082600080866006811115610408576104086112c2565b6006811115610419576104196112c2565b8152602081019190915260400160009081205461043792910b6112d8565b855161044391906112ff565b905060008360008087600681111561045d5761045d6112c2565b600681111561046e5761046e6112c2565b815260208101919091526040016000908120546104939291610100909104900b6112d8565b86602001516104a291906112ff565b6040805180820190915260ff9384168152921660208301525090505b9392505050565b604080518082019091526000808252602082018190529060005b8460ff168160ff16101561053f576104f78787610db7565b9650600061050588866109c4565b905080604001518061051957508060600151155b1561052c57600188935093505050610548565b508061053781611320565b9150506104df565b50600086915091505b94509492505050565b600060026105718360200151856020015161056c919061133f565b610dd7565b60208085015185519187015187516105a1939161058d916112ff565b610597919061133f565b61056c919061133f565b845186516105b29161056c9161133f565b6105bc91906112ff565b6105c691906112ff565b6105d09190611360565b90505b92915050565b606060006105e8836006611398565b60ff1667ffffffffffffffff81111561060357610603610f6c565b60405190808252806020026020018201604052801561064857816020015b60408051808201909152600080825260208201528152602001906001900390816106215790505b5090506000610659856004866103dc565b905060005b60058160ff16116106f45760005b8560ff168160ff1610156106e1578284826106878986611398565b61069191906113b4565b60ff16815181106106a4576106a46113cd565b60200260200101819052506106cd838360ff1660068111156106c8576106c86112c2565b610db7565b9250806106d981611320565b91505061066c565b50806106ec81611320565b91505061065e565b5090949350505050565b604080518082019091526000808252602082015260ff80831660009081526002602081905260408083205481518083019092529093169290819061074f9060039061074a908790611398565b610df2565b60ff168152602001610767600361074a866002611398565b60ff9081169091528581166000908152600160209081526040808320828601518516845282528083208551851684528252918290208251608081018452905480851682526101008104851692820192909252620100008204841615159281019290925263010000009004909116151560608201529091505b806060015115806107f1575080604001515b156108a9576040518060400160405280610813600386600261074a9190611398565b60ff16815260200161082b600361074a876002611398565b60ff90811690915286811660009081526001602090815260408083208286015185168452825280832085518516845282529182902082516080810184529054808516825261010081048516928201929092526201000082048416151592810192909252630100000090049091161515606082015290925090506107df565b509392505050565b60ff808316600090815260026020526040812054909116906108d383836113e3565b905060006108fb60405180604001604052808560ff1681526020018560ff16815250836105d9565b905060005b81518160ff1610156109bc576000600160008860ff1681526020019081526020016000206000848460ff168151811061093b5761093b6113cd565b60200260200101516020015160ff1660ff1681526020019081526020016000206000848460ff1681518110610972576109726113cd565b6020908102919091018101515160ff168252810191909152604001600020805491151563010000000263ff00000019909216919091179055806109b481611320565b915050610900565b505050505050565b6040805160808101825260008082526020820181905291810182905260608101919091525060ff908116600090815260016020908152604080832085830151851684528252808320945184168352938152908390208351608081018552905480841682526101008104841692820192909252620100008204831615159381019390935263010000009004161515606082015290565b610a8b6040518060400160405280601181526020017010d85b1b19590819195b195d1950d95b1b607a1b815250610ed4565b60ff81166000908152600160209081526040808320918391610ab291908701908701610f51565b60ff168152602080820192909252604001600090812091610ad590860186610f51565b60ff1681526020810191909152604001600020805491151563010000000263ff000000199092169190911790555050565b6000610b386040518060400160405280600f81526020016e10d85b1b1959081a5cd25cdb185b99608a1b815250610ed4565b6000610b4484846109c4565b60400151949350505050565b607f60ff83161115610b855760405163e48c3a9d60e01b815260ff83166004820152607f602482015260440160405180910390fd5b60ff8082166000818152600260209081526040808320805486891660ff19909116811790915581516080810183528181528084018281528184018681526001606084018181529888528087528588209488529386528487209095529290942093518454925193519551151563010000000263ff0000001996151562010000029690961663ffff0000199488166101000261ffff1990941691909716179190911791909116939093179190911790555b8260ff168160ff1611610d19576040805180820190915260ff841680825260208201526000610c6382846105d9565b905060005b81518160ff161015610d0357610cf1828260ff1681518110610c8c57610c8c6113cd565b60200260200101518660ff908116600090815260016020908152604080832085830180518616855290835281842086518616855290925290912092518354915163ffff0000199084166101000261ffff19909316919093161717166301000000179055565b80610cfb81611320565b915050610c68565b5050508080610d1190611320565b915050610c34565b505050565b604080518082019091526000808252602082015260005b8260ff168160ff161015610d6157610d4d8585610db7565b945080610d5981611320565b915050610d35565b50929392505050565b6040805180820182526000808252602082015281518083019092526060820183905290806080810160408051601f1981840301815291905280516020918201208252600091015292915050565b60408051808201909152600080825260208201526105d0838360016103dc565b6000808260000b12610de957816105d3565b6105d3826113fc565b60006001610e03600861010061141a565b610e0d91906113e3565b600184015460ff918216911610610e545782546040805160208101929092520160408051601f198184030181529190528051602090910120835560018301805460ff191690555b6000826001610e656008600261151f565b610e6f919061152e565b6001860154610e829060ff166008611398565b60ff168660000154901c16610e979190611541565b60018501805491925060ff909116906000610eb183611320565b91906101000a81548160ff021916908360ff160217905550508091505092915050565b610f1781604051602401610ee89190611563565b60408051601f198184030181529190526020810180516001600160e01b031663104c13eb60e21b179052610f1a565b50565b80516a636f6e736f6c652e6c6f67602083016000808483855afa5050505050565b803560ff81168114610f4c57600080fd5b919050565b600060208284031215610f6357600080fd5b6105d082610f3b565b634e487b7160e01b600052604160045260246000fd5b600060408284031215610f9457600080fd5b6040516040810181811067ffffffffffffffff82111715610fc557634e487b7160e01b600052604160045260246000fd5b604052905080610fd483610f3b565b8152610fe260208401610f3b565b60208201525092915050565b803560078110610f4c57600080fd5b60008060006080848603121561101257600080fd5b61101c8585610f82565b925061102a60408501610fee565b915061103860608501610f3b565b90509250925092565b604081016105d38284805160ff908116835260209182015116910152565b60008060008060a0858703121561107557600080fd5b61107f8686610f82565b935061108d60408601610fee565b925061109b60608601610f3b565b91506110a960808601610f3b565b905092959194509250565b8215158152606081016104be6020830184805160ff908116835260209182015116910152565b600080608083850312156110ed57600080fd5b6110f78484610f82565b91506111068460408501610f82565b90509250929050565b6000806060838503121561112257600080fd5b61112c8484610f82565b915061110660408401610f3b565b602080825282518282018190526000919060409081850190868401855b8281101561118a5761117a848351805160ff908116835260209182015116910152565b9284019290850190600101611157565b5091979650505050505050565b600080604083850312156111aa57600080fd5b6111b383610f3b565b915061110660208401610f3b565b6000806000606084860312156111d657600080fd5b833592506111e660208501610f3b565b915061103860408501610f3b565b60006020828403121561120657600080fd5b5035919050565b600080828403606081121561122157600080fd5b604081121561122f57600080fd5b5082915061110660408401610f3b565b634e487b7160e01b600052601160045260246000fd5b808201808211156105d3576105d361123f565b80820281158282048414176105d3576105d361123f565b634e487b7160e01b600052601260045260246000fd5b6000826112a4576112a461127f565b500490565b6000600182016112bb576112bb61123f565b5060010190565b634e487b7160e01b600052602160045260246000fd5b60008260000b8260000b028060000b91508082146112f8576112f861123f565b5092915050565b600081810b9083900b01607f8113607f19821217156105d3576105d361123f565b600060ff821660ff81036113365761133661123f565b60010192915050565b600082810b9082900b03607f198112607f821317156105d3576105d361123f565b60008160000b8360000b806113775761137761127f565b607f1982146000198214161561138f5761138f61123f565b90059392505050565b60ff81811683821602908116908181146112f8576112f861123f565b60ff81811683821601908111156105d3576105d361123f565b634e487b7160e01b600052603260045260246000fd5b60ff82811682821603908111156105d3576105d361123f565b600081810b608081016114115761141161123f565b60000392915050565b600061ffff8084168061142f5761142f61127f565b92169190910492915050565b600181815b8085111561147657816000190482111561145c5761145c61123f565b8085161561146957918102915b93841c9390800290611440565b509250929050565b60008261148d575060016105d3565b8161149a575060006105d3565b81600181146114b057600281146114ba576114d6565b60019150506105d3565b60ff8411156114cb576114cb61123f565b50506001821b6105d3565b5060208310610133831016604e8410600b84101617156114f9575081810a6105d3565b611503838361143b565b80600019048211156115175761151761123f565b029392505050565b60006105d060ff84168361147e565b818103818111156105d3576105d361123f565b600060ff8316806115545761155461127f565b8060ff84160691505092915050565b600060208083528351808285015260005b8181101561159057858101830151858201604001528201611574565b506000604082860101526040601f19601f830116850101925050509291505056fea2646970667358221220b5a5a331c386d1aaee5e7ab60dfae904a236e34e82c6154c91732ea8112577b764736f6c63430008120033",
  "linkReferences": {},
  "deployedLinkReferences": {}
}