{
  "_format": "hh-sol-artifact-1",
  "contractName": "MapPunk",
  "sourceName": "contracts/MapPunk.sol",
  "abi": [
    {
      "inputs": [
        {
          "internalType": "uint256",
          "name": "_seed",
          "type": "uint256"
        }
      ],
      "stateMutability": "nonpayable",
      "type": "constructor"
    },
    {
      "inputs": [
        {
          "internalType": "uint256",
          "name": "suppliedSize",
          "type": "uint256"
        },
        {
          "internalType": "uint256",
          "name": "maxSize",
          "type": "uint256"
        }
      ],
      "name": "MapSizeMustBeInRange",
      "type": "error"
    },
    {
      "inputs": [
        {
          "components": [
            {
              "internalType": "uint8",
              "name": "q",
              "type": "uint8"
            },
            {
              "internalType": "uint8",
              "name": "r",
              "type": "uint8"
            }
          ],
          "internalType": "struct SharedStructs.Coordinate",
          "name": "_startCell",
          "type": "tuple"
        },
        {
          "internalType": "enum SharedStructs.Directions",
          "name": "_directions",
          "type": "uint8"
        },
        {
          "internalType": "uint8",
          "name": "_distance",
          "type": "uint8"
        }
      ],
      "name": "calculateShot",
      "outputs": [
        {
          "components": [
            {
              "internalType": "uint8",
              "name": "q",
              "type": "uint8"
            },
            {
              "internalType": "uint8",
              "name": "r",
              "type": "uint8"
            }
          ],
          "internalType": "struct SharedStructs.Coordinate",
          "name": "",
          "type": "tuple"
        }
      ],
      "stateMutability": "view",
      "type": "function"
    },
    {
      "inputs": [
        {
          "internalType": "uint8",
          "name": "gameId",
          "type": "uint8"
        }
      ],
      "name": "createIslands",
      "outputs": [
        {
          "components": [
            {
              "internalType": "uint8",
              "name": "q",
              "type": "uint8"
            },
            {
              "internalType": "uint8",
              "name": "r",
              "type": "uint8"
            }
          ],
          "internalType": "struct SharedStructs.Coordinate[]",
          "name": "",
          "type": "tuple[]"
        }
      ],
      "stateMutability": "nonpayable",
      "type": "function"
    },
    {
      "inputs": [
        {
          "components": [
            {
              "internalType": "uint8",
              "name": "q",
              "type": "uint8"
            },
            {
              "internalType": "uint8",
              "name": "r",
              "type": "uint8"
            }
          ],
          "internalType": "struct SharedStructs.Coordinate",
          "name": "_coord",
          "type": "tuple"
        },
        {
          "internalType": "uint8",
          "name": "gameId",
          "type": "uint8"
        }
      ],
      "name": "deleteCell",
      "outputs": [],
      "stateMutability": "nonpayable",
      "type": "function"
    },
    {
      "inputs": [
        {
          "internalType": "uint8",
          "name": "gameId",
          "type": "uint8"
        },
        {
          "internalType": "uint8",
          "name": "shrinkNo",
          "type": "uint8"
        }
      ],
      "name": "deleteOutermostRing",
      "outputs": [],
      "stateMutability": "nonpayable",
      "type": "function"
    },
    {
      "inputs": [
        {
          "components": [
            {
              "internalType": "uint8",
              "name": "q",
              "type": "uint8"
            },
            {
              "internalType": "uint8",
              "name": "r",
              "type": "uint8"
            }
          ],
          "internalType": "struct SharedStructs.Coordinate",
          "name": "_a",
          "type": "tuple"
        },
        {
          "components": [
            {
              "internalType": "uint8",
              "name": "q",
              "type": "uint8"
            },
            {
              "internalType": "uint8",
              "name": "r",
              "type": "uint8"
            }
          ],
          "internalType": "struct SharedStructs.Coordinate",
          "name": "_b",
          "type": "tuple"
        }
      ],
      "name": "distance",
      "outputs": [
        {
          "internalType": "uint8",
          "name": "",
          "type": "uint8"
        }
      ],
      "stateMutability": "pure",
      "type": "function"
    },
    {
      "inputs": [
        {
          "internalType": "uint256",
          "name": "",
          "type": "uint256"
        },
        {
          "internalType": "uint8",
          "name": "",
          "type": "uint8"
        },
        {
          "internalType": "uint8",
          "name": "",
          "type": "uint8"
        }
      ],
      "name": "gameHexCells",
      "outputs": [
        {
          "internalType": "uint8",
          "name": "q",
          "type": "uint8"
        },
        {
          "internalType": "uint8",
          "name": "r",
          "type": "uint8"
        },
        {
          "internalType": "bool",
          "name": "island",
          "type": "bool"
        },
        {
          "internalType": "bool",
          "name": "exists",
          "type": "bool"
        }
      ],
      "stateMutability": "view",
      "type": "function"
    },
    {
      "inputs": [
        {
          "internalType": "uint256",
          "name": "",
          "type": "uint256"
        }
      ],
      "name": "gameRadii",
      "outputs": [
        {
          "internalType": "uint8",
          "name": "",
          "type": "uint8"
        }
      ],
      "stateMutability": "view",
      "type": "function"
    },
    {
      "inputs": [
        {
          "components": [
            {
              "internalType": "uint8",
              "name": "q",
              "type": "uint8"
            },
            {
              "internalType": "uint8",
              "name": "r",
              "type": "uint8"
            }
          ],
          "internalType": "struct SharedStructs.Coordinate",
          "name": "_coord",
          "type": "tuple"
        },
        {
          "internalType": "uint8",
          "name": "gameId",
          "type": "uint8"
        }
      ],
      "name": "getCell",
      "outputs": [
        {
          "components": [
            {
              "internalType": "uint8",
              "name": "q",
              "type": "uint8"
            },
            {
              "internalType": "uint8",
              "name": "r",
              "type": "uint8"
            },
            {
              "internalType": "bool",
              "name": "island",
              "type": "bool"
            },
            {
              "internalType": "bool",
              "name": "exists",
              "type": "bool"
            }
          ],
          "internalType": "struct SharedStructs.Cell",
          "name": "",
          "type": "tuple"
        }
      ],
      "stateMutability": "view",
      "type": "function"
    },
    {
      "inputs": [
        {
          "internalType": "uint8",
          "name": "gameId",
          "type": "uint8"
        }
      ],
      "name": "getRandomCoordinatePair",
      "outputs": [
        {
          "components": [
            {
              "internalType": "uint8",
              "name": "q",
              "type": "uint8"
            },
            {
              "internalType": "uint8",
              "name": "r",
              "type": "uint8"
            }
          ],
          "internalType": "struct SharedStructs.Coordinate",
          "name": "",
          "type": "tuple"
        }
      ],
      "stateMutability": "nonpayable",
      "type": "function"
    },
    {
      "inputs": [
        {
          "internalType": "uint8",
          "name": "_radius",
          "type": "uint8"
        },
        {
          "internalType": "uint8",
          "name": "gameId",
          "type": "uint8"
        }
      ],
      "name": "initMap",
      "outputs": [],
      "stateMutability": "nonpayable",
      "type": "function"
    },
    {
      "inputs": [
        {
          "components": [
            {
              "internalType": "uint8",
              "name": "q",
              "type": "uint8"
            },
            {
              "internalType": "uint8",
              "name": "r",
              "type": "uint8"
            }
          ],
          "internalType": "struct SharedStructs.Coordinate",
          "name": "_coord",
          "type": "tuple"
        },
        {
          "internalType": "uint8",
          "name": "gameId",
          "type": "uint8"
        }
      ],
      "name": "isIsland",
      "outputs": [
        {
          "internalType": "bool",
          "name": "",
          "type": "bool"
        }
      ],
      "stateMutability": "view",
      "type": "function"
    },
    {
      "inputs": [
        {
          "components": [
            {
              "internalType": "uint8",
              "name": "q",
              "type": "uint8"
            },
            {
              "internalType": "uint8",
              "name": "r",
              "type": "uint8"
            }
          ],
          "internalType": "struct SharedStructs.Coordinate",
          "name": "_start",
          "type": "tuple"
        },
        {
          "internalType": "enum SharedStructs.Directions",
          "name": "_dir",
          "type": "uint8"
        },
        {
          "internalType": "uint8",
          "name": "_distance",
          "type": "uint8"
        }
      ],
      "name": "move",
      "outputs": [
        {
          "components": [
            {
              "internalType": "uint8",
              "name": "q",
              "type": "uint8"
            },
            {
              "internalType": "uint8",
              "name": "r",
              "type": "uint8"
            }
          ],
          "internalType": "struct SharedStructs.Coordinate",
          "name": "",
          "type": "tuple"
        }
      ],
      "stateMutability": "view",
      "type": "function"
    },
    {
      "inputs": [
        {
          "components": [
            {
              "internalType": "uint8",
              "name": "q",
              "type": "uint8"
            },
            {
              "internalType": "uint8",
              "name": "r",
              "type": "uint8"
            }
          ],
          "internalType": "struct SharedStructs.Coordinate",
          "name": "_center",
          "type": "tuple"
        },
        {
          "internalType": "uint8",
          "name": "_radius",
          "type": "uint8"
        }
      ],
      "name": "ring",
      "outputs": [
        {
          "components": [
            {
              "internalType": "uint8",
              "name": "q",
              "type": "uint8"
            },
            {
              "internalType": "uint8",
              "name": "r",
              "type": "uint8"
            }
          ],
          "internalType": "struct SharedStructs.Coordinate[]",
          "name": "",
          "type": "tuple[]"
        }
      ],
      "stateMutability": "view",
      "type": "function"
    },
    {
      "inputs": [
        {
          "components": [
            {
              "internalType": "uint8",
              "name": "q",
              "type": "uint8"
            },
            {
              "internalType": "uint8",
              "name": "r",
              "type": "uint8"
            }
          ],
          "internalType": "struct SharedStructs.Coordinate",
          "name": "_startCell",
          "type": "tuple"
        },
        {
          "internalType": "enum SharedStructs.Directions",
          "name": "_direction",
          "type": "uint8"
        },
        {
          "internalType": "uint8",
          "name": "_distance",
          "type": "uint8"
        },
        {
          "internalType": "uint8",
          "name": "gameId",
          "type": "uint8"
        }
      ],
      "name": "travel",
      "outputs": [
        {
          "internalType": "bool",
          "name": "",
          "type": "bool"
        },
        {
          "components": [
            {
              "internalType": "uint8",
              "name": "q",
              "type": "uint8"
            },
            {
              "internalType": "uint8",
              "name": "r",
              "type": "uint8"
            }
          ],
          "internalType": "struct SharedStructs.Coordinate",
          "name": "",
          "type": "tuple"
        }
      ],
      "stateMutability": "view",
      "type": "function"
    }
  ],
  "bytecode": "0x608060405234801561001057600080fd5b5060405161178d38038061178d83398101604081905261002f9161027c565b60408051808201825260008082526020918201819052825180840184526060808201959095528351808203909501855260808101845284519483019490942080855293820181905260039384556004805460ff1916815583518085018552600180825281850184815284805284865291517fad3228b676f7d3cd4284a5443f17f1962b36e491b30a40b2405849e597ba5fb58054935160ff92831661ffff199586161761010091841682021790915587518089018952838152600019818901818152858952888a5291517fada5013122d395ba3c54772283fb069b10426056ef8ca54750cb9bb552a59e7d80549351918616938816939093179085168402179091558851808a018a5287815280890182815260028952888a5290517fabbb5caa7dda850e60932de0934eb1f9d0f59695050f761dc64e443e5030a5698054925186168502928816918616919091179190911790558851808a018a528181528089018881529a8852878952517f101e368776582e57ab3d116ffe2517c0a585cd5b23174b01e275c2d8329c3d8380549b51851684029b8716918516919091179a909a179099558751808901895298895288870183815294865285875297517f52d75039926638d3c558b2bdefb945d5be8dae29dedd1c313212a4d472d9fde58054955183168a0295851691831691909117949094179093558551808701909652838652858501908152600584529290935292517f2b232c97452f0950c94e2539fdc7e69d21166113cf7a9bcb99b220a3fe5d720a805492518516909502919092169190921617179055610295565b60006020828403121561028e57600080fd5b5051919050565b6114e9806102a46000396000f3fe608060405234801561001057600080fd5b50600436106100ea5760003560e01c80634d0238861161008c578063906cb19e11610066578063906cb19e146102ae578063b4b4854d146102c1578063d202ec38146102e4578063d6192ad3146102f757600080fd5b80634d023886146101b957806374082a501461020e57806386df5be61461028b57600080fd5b806320bff431116100c857806320bff4311461015957806339e5c4a01461017e57806342c39d91146101915780634affc34f146101a457600080fd5b806318068d37146100ef5780631a84a4ea146101185780631cf8a32114610138575b600080fd5b6101026100fd366004610ea1565b61030a565b60405161010f9190610ebc565b60405180910390f35b61012b610126366004610faa565b610443565b60405161010f9190610fee565b61014b61014636600461100c565b61052c565b60405161010f929190611061565b61016c610167366004611087565b6105b8565b60405160ff909116815260200161010f565b61010261018c3660046110bc565b610640565b61012b61019f366004610ea1565b610765565b6101b76101b23660046110e7565b610918565b005b6101cc6101c73660046110bc565b610a2b565b60405161010f9190600060808201905060ff835116825260ff602084015116602083015260408301511515604083015260608301511515606083015292915050565b61025e61021c366004611111565b600160209081526000938452604080852082529284528284209052825290205460ff808216916101008104821691620100008204811691630100000090041684565b6040805160ff9586168152949093166020850152901515918301919091521515606082015260800161010f565b61016c610299366004611144565b60026020526000908152604090205460ff1681565b6101b76102bc36600461115d565b610ac0565b6102d46102cf3660046110bc565b610b3b565b604051901515815260200161010f565b6101b76102f23660046110e7565b610b54565b61012b610305366004610faa565b610d22565b60ff808216600090815260026020526040812054606092169061032e8260016111a5565b61033c60ff841660036111b8565b61034691906111b8565b6103519060016111a5565b9050600060646103628360106111b8565b61036c91906111e5565b905060008167ffffffffffffffff81111561038957610389610f19565b6040519080825280602002602001820160405280156103ce57816020015b60408051808201909152600080825260208201528152602001906001900390816103a75790505b50905060005b828110156104395760006103e788610765565b60ff808a1660009081526001602090815260408083208286015185168452825280832094519093168252929092529020805462ff00001916620100001790555080610431816111f9565b9150506103d4565b5095945050505050565b604080518082019091526000808252602082015260008260008086600681111561046f5761046f611212565b600681111561048057610480611212565b8152602081019190915260400160009081205461049e92910b611228565b85516104aa919061124f565b90506000836000808760068111156104c4576104c4611212565b60068111156104d5576104d5611212565b815260208101919091526040016000908120546104fa9291610100909104900b611228565b8660200151610509919061124f565b6040805180820190915260ff9384168152921660208301525090505b9392505050565b604080518082019091526000808252602082018190529060005b8460ff168160ff1610156105a65761055e8787610d6e565b9650600061056c8886610a2b565b905080604001518061058057508060600151155b15610593576001889350935050506105af565b508061059e81611270565b915050610546565b50600086915091505b94509492505050565b600060026105d8836020015185602001516105d3919061128f565b610d8e565b602080850151855191870151875161060893916105f49161124f565b6105fe919061128f565b6105d3919061128f565b84518651610619916105d39161128f565b610623919061124f565b61062d919061124f565b61063791906112b0565b90505b92915050565b6060600061064f8360066112e8565b60ff1667ffffffffffffffff81111561066a5761066a610f19565b6040519080825280602002602001820160405280156106af57816020015b60408051808201909152600080825260208201528152602001906001900390816106885790505b50905060006106c085600486610443565b905060005b60058160ff161161075b5760005b8560ff168160ff161015610748578284826106ee89866112e8565b6106f89190611304565b60ff168151811061070b5761070b61131d565b6020026020010181905250610734838360ff16600681111561072f5761072f611212565b610d6e565b92508061074081611270565b9150506106d3565b508061075381611270565b9150506106c5565b5090949350505050565b604080518082019091526000808252602082015260ff8083166000908152600260208190526040808320548151808301909252909316929081906107b6906003906107b19087906112e8565b610da9565b60ff1681526020016107ce60036107b18660026112e8565b60ff9081169091528581166000908152600160209081526040808320828601518516845282528083208551851684528252918290208251608081018452905480851682526101008104851692820192909252620100008204841615159281019290925263010000009004909116151560608201529091505b80606001511580610858575080604001515b1561091057604051806040016040528061087a60038660026107b191906112e8565b60ff16815260200161089260036107b18760026112e8565b60ff9081169091528681166000908152600160209081526040808320828601518516845282528083208551851684528252918290208251608081018452905480851682526101008104851692820192909252620100008204841615159281019290925263010000009004909116151560608201529092509050610846565b509392505050565b60ff8083166000908152600260205260408120549091169061093a8383611333565b9050600061096260405180604001604052808560ff1681526020018560ff1681525083610640565b905060005b81518160ff161015610a23576000600160008860ff1681526020019081526020016000206000848460ff16815181106109a2576109a261131d565b60200260200101516020015160ff1660ff1681526020019081526020016000206000848460ff16815181106109d9576109d961131d565b6020908102919091018101515160ff168252810191909152604001600020805491151563010000000263ff0000001990921691909117905580610a1b81611270565b915050610967565b505050505050565b6040805160808101825260008082526020820181905291810182905260608101919091525060ff908116600090815260016020908152604080832085830151851684528252808320945184168352938152908390208351608081018552905480841682526101008104841692820192909252620100008204831615159381019390935263010000009004161515606082015290565b60ff81166000908152600160209081526040808320918391610ae791908701908701610ea1565b60ff168152602080820192909252604001600090812091610b0a90860186610ea1565b60ff1681526020810191909152604001600020805491151563010000000263ff000000199092169190911790555050565b600080610b488484610a2b565b60400151949350505050565b607f60ff83161115610b895760405163e48c3a9d60e01b815260ff83166004820152607f602482015260440160405180910390fd5b60ff8082166000818152600260209081526040808320805486891660ff19909116811790915581516080810183528181528084018281528184018681526001606084018181529888528087528588209488529386528487209095529290942093518454925193519551151563010000000263ff0000001996151562010000029690961663ffff0000199488166101000261ffff1990941691909716179190911791909116939093179190911790555b8260ff168160ff1611610d1d576040805180820190915260ff841680825260208201526000610c678284610640565b905060005b81518160ff161015610d0757610cf5828260ff1681518110610c9057610c9061131d565b60200260200101518660ff908116600090815260016020908152604080832085830180518616855290835281842086518616855290925290912092518354915163ffff0000199084166101000261ffff19909316919093161717166301000000179055565b80610cff81611270565b915050610c6c565b5050508080610d1590611270565b915050610c38565b505050565b604080518082019091526000808252602082015260005b8260ff168160ff161015610d6557610d518585610d6e565b945080610d5d81611270565b915050610d39565b50929392505050565b604080518082019091526000808252602082015261063783836001610443565b6000808260000b12610da0578161063a565b61063a8261134c565b60006001610dba600861010061136a565b610dc49190611333565b600184015460ff918216911610610e0b5782546040805160208101929092520160408051601f198184030181529190528051602090910120835560018301805460ff191690555b6000826001610e1c6008600261146f565b610e26919061147e565b6001860154610e399060ff1660086112e8565b60ff168660000154901c16610e4e9190611491565b60018501805491925060ff909116906000610e6883611270565b91906101000a81548160ff021916908360ff160217905550508091505092915050565b803560ff81168114610e9c57600080fd5b919050565b600060208284031215610eb357600080fd5b61063782610e8b565b602080825282518282018190526000919060409081850190868401855b82811015610f0c57610efc848351805160ff908116835260209182015116910152565b9284019290850190600101610ed9565b5091979650505050505050565b634e487b7160e01b600052604160045260246000fd5b600060408284031215610f4157600080fd5b6040516040810181811067ffffffffffffffff82111715610f7257634e487b7160e01b600052604160045260246000fd5b604052905080610f8183610e8b565b8152610f8f60208401610e8b565b60208201525092915050565b803560078110610e9c57600080fd5b600080600060808486031215610fbf57600080fd5b610fc98585610f2f565b9250610fd760408501610f9b565b9150610fe560608501610e8b565b90509250925092565b6040810161063a8284805160ff908116835260209182015116910152565b60008060008060a0858703121561102257600080fd5b61102c8686610f2f565b935061103a60408601610f9b565b925061104860608601610e8b565b915061105660808601610e8b565b905092959194509250565b8215158152606081016105256020830184805160ff908116835260209182015116910152565b6000806080838503121561109a57600080fd5b6110a48484610f2f565b91506110b38460408501610f2f565b90509250929050565b600080606083850312156110cf57600080fd5b6110d98484610f2f565b91506110b360408401610e8b565b600080604083850312156110fa57600080fd5b61110383610e8b565b91506110b360208401610e8b565b60008060006060848603121561112657600080fd5b8335925061113660208501610e8b565b9150610fe560408501610e8b565b60006020828403121561115657600080fd5b5035919050565b600080828403606081121561117157600080fd5b604081121561117f57600080fd5b508291506110b360408401610e8b565b634e487b7160e01b600052601160045260246000fd5b8082018082111561063a5761063a61118f565b808202811582820484141761063a5761063a61118f565b634e487b7160e01b600052601260045260246000fd5b6000826111f4576111f46111cf565b500490565b60006001820161120b5761120b61118f565b5060010190565b634e487b7160e01b600052602160045260246000fd5b60008260000b8260000b028060000b91508082146112485761124861118f565b5092915050565b600081810b9083900b01607f8113607f198212171561063a5761063a61118f565b600060ff821660ff81036112865761128661118f565b60010192915050565b600082810b9082900b03607f198112607f8213171561063a5761063a61118f565b60008160000b8360000b806112c7576112c76111cf565b607f198214600019821416156112df576112df61118f565b90059392505050565b60ff81811683821602908116908181146112485761124861118f565b60ff818116838216019081111561063a5761063a61118f565b634e487b7160e01b600052603260045260246000fd5b60ff828116828216039081111561063a5761063a61118f565b600081810b608081016113615761136161118f565b60000392915050565b600061ffff8084168061137f5761137f6111cf565b92169190910492915050565b600181815b808511156113c65781600019048211156113ac576113ac61118f565b808516156113b957918102915b93841c9390800290611390565b509250929050565b6000826113dd5750600161063a565b816113ea5750600061063a565b8160018114611400576002811461140a57611426565b600191505061063a565b60ff84111561141b5761141b61118f565b50506001821b61063a565b5060208310610133831016604e8410600b8410161715611449575081810a61063a565b611453838361138b565b80600019048211156114675761146761118f565b029392505050565b600061063760ff8416836113ce565b8181038181111561063a5761063a61118f565b600060ff8316806114a4576114a46111cf565b8060ff8416069150509291505056fea264697066735822122067171d4504138168d05a8737f32c8c407918074a5b7c8087646e84cc213274ee64736f6c63430008140033",
  "linkReferences": {},
  "deployedLinkReferences": {}
}