{
  "_format": "hh-sol-artifact-1",
  "contractName": "MapPunk",
  "sourceName": "contracts/MapPunk.sol",
  "abi": [
    {
      "inputs": [
        {
          "internalType": "uint256",
          "name": "_seed",
          "type": "uint256"
        }
      ],
      "stateMutability": "nonpayable",
      "type": "constructor"
    },
    {
      "inputs": [
        {
          "internalType": "uint256",
          "name": "suppliedSize",
          "type": "uint256"
        },
        {
          "internalType": "uint256",
          "name": "maxSize",
          "type": "uint256"
        }
      ],
      "name": "MapSizeMustBeInRange",
      "type": "error"
    },
    {
      "inputs": [
        {
          "components": [
            {
              "internalType": "uint8",
              "name": "q",
              "type": "uint8"
            },
            {
              "internalType": "uint8",
              "name": "r",
              "type": "uint8"
            }
          ],
          "internalType": "struct SharedStructs.Coordinate",
          "name": "_startCell",
          "type": "tuple"
        },
        {
          "internalType": "enum SharedStructs.Directions",
          "name": "_directions",
          "type": "uint8"
        },
        {
          "internalType": "uint8",
          "name": "_distance",
          "type": "uint8"
        }
      ],
      "name": "calculateShot",
      "outputs": [
        {
          "components": [
            {
              "internalType": "uint8",
              "name": "q",
              "type": "uint8"
            },
            {
              "internalType": "uint8",
              "name": "r",
              "type": "uint8"
            }
          ],
          "internalType": "struct SharedStructs.Coordinate",
          "name": "",
          "type": "tuple"
        }
      ],
      "stateMutability": "view",
      "type": "function"
    },
    {
      "inputs": [
        {
          "components": [
            {
              "internalType": "uint8",
              "name": "q",
              "type": "uint8"
            },
            {
              "internalType": "uint8",
              "name": "r",
              "type": "uint8"
            }
          ],
          "internalType": "struct SharedStructs.Coordinate",
          "name": "_coord",
          "type": "tuple"
        },
        {
          "internalType": "uint8",
          "name": "gameId",
          "type": "uint8"
        }
      ],
      "name": "deleteCell",
      "outputs": [],
      "stateMutability": "nonpayable",
      "type": "function"
    },
    {
      "inputs": [
        {
          "internalType": "uint8",
          "name": "gameId",
          "type": "uint8"
        },
        {
          "internalType": "uint8",
          "name": "shrinkNo",
          "type": "uint8"
        }
      ],
      "name": "deleteOutermostRing",
      "outputs": [],
      "stateMutability": "nonpayable",
      "type": "function"
    },
    {
      "inputs": [
        {
          "components": [
            {
              "internalType": "uint8",
              "name": "q",
              "type": "uint8"
            },
            {
              "internalType": "uint8",
              "name": "r",
              "type": "uint8"
            }
          ],
          "internalType": "struct SharedStructs.Coordinate",
          "name": "_a",
          "type": "tuple"
        },
        {
          "components": [
            {
              "internalType": "uint8",
              "name": "q",
              "type": "uint8"
            },
            {
              "internalType": "uint8",
              "name": "r",
              "type": "uint8"
            }
          ],
          "internalType": "struct SharedStructs.Coordinate",
          "name": "_b",
          "type": "tuple"
        }
      ],
      "name": "distance",
      "outputs": [
        {
          "internalType": "uint8",
          "name": "",
          "type": "uint8"
        }
      ],
      "stateMutability": "pure",
      "type": "function"
    },
    {
      "inputs": [
        {
          "internalType": "uint256",
          "name": "",
          "type": "uint256"
        },
        {
          "internalType": "uint8",
          "name": "",
          "type": "uint8"
        },
        {
          "internalType": "uint8",
          "name": "",
          "type": "uint8"
        }
      ],
      "name": "gameHexCells",
      "outputs": [
        {
          "internalType": "uint8",
          "name": "q",
          "type": "uint8"
        },
        {
          "internalType": "uint8",
          "name": "r",
          "type": "uint8"
        },
        {
          "internalType": "bool",
          "name": "island",
          "type": "bool"
        },
        {
          "internalType": "bool",
          "name": "exists",
          "type": "bool"
        }
      ],
      "stateMutability": "view",
      "type": "function"
    },
    {
      "inputs": [
        {
          "internalType": "uint256",
          "name": "",
          "type": "uint256"
        }
      ],
      "name": "gameRadii",
      "outputs": [
        {
          "internalType": "uint8",
          "name": "",
          "type": "uint8"
        }
      ],
      "stateMutability": "view",
      "type": "function"
    },
    {
      "inputs": [
        {
          "components": [
            {
              "internalType": "uint8",
              "name": "q",
              "type": "uint8"
            },
            {
              "internalType": "uint8",
              "name": "r",
              "type": "uint8"
            }
          ],
          "internalType": "struct SharedStructs.Coordinate",
          "name": "_coord",
          "type": "tuple"
        },
        {
          "internalType": "uint8",
          "name": "gameId",
          "type": "uint8"
        }
      ],
      "name": "getCell",
      "outputs": [
        {
          "components": [
            {
              "internalType": "uint8",
              "name": "q",
              "type": "uint8"
            },
            {
              "internalType": "uint8",
              "name": "r",
              "type": "uint8"
            },
            {
              "internalType": "bool",
              "name": "island",
              "type": "bool"
            },
            {
              "internalType": "bool",
              "name": "exists",
              "type": "bool"
            }
          ],
          "internalType": "struct SharedStructs.Cell",
          "name": "",
          "type": "tuple"
        }
      ],
      "stateMutability": "view",
      "type": "function"
    },
    {
      "inputs": [
        {
          "internalType": "uint8",
          "name": "gameId",
          "type": "uint8"
        }
      ],
      "name": "getRandomCoordinatePair",
      "outputs": [
        {
          "components": [
            {
              "internalType": "uint8",
              "name": "q",
              "type": "uint8"
            },
            {
              "internalType": "uint8",
              "name": "r",
              "type": "uint8"
            }
          ],
          "internalType": "struct SharedStructs.Coordinate",
          "name": "",
          "type": "tuple"
        }
      ],
      "stateMutability": "nonpayable",
      "type": "function"
    },
    {
      "inputs": [
        {
          "internalType": "uint8",
          "name": "_radius",
          "type": "uint8"
        },
        {
          "internalType": "uint8",
          "name": "gameId",
          "type": "uint8"
        }
      ],
      "name": "initMap",
      "outputs": [
        {
          "components": [
            {
              "internalType": "uint8",
              "name": "q",
              "type": "uint8"
            },
            {
              "internalType": "uint8",
              "name": "r",
              "type": "uint8"
            },
            {
              "internalType": "bool",
              "name": "island",
              "type": "bool"
            },
            {
              "internalType": "bool",
              "name": "exists",
              "type": "bool"
            }
          ],
          "internalType": "struct SharedStructs.Cell[]",
          "name": "",
          "type": "tuple[]"
        }
      ],
      "stateMutability": "nonpayable",
      "type": "function"
    },
    {
      "inputs": [
        {
          "components": [
            {
              "internalType": "uint8",
              "name": "q",
              "type": "uint8"
            },
            {
              "internalType": "uint8",
              "name": "r",
              "type": "uint8"
            }
          ],
          "internalType": "struct SharedStructs.Coordinate",
          "name": "_coord",
          "type": "tuple"
        },
        {
          "internalType": "uint8",
          "name": "gameId",
          "type": "uint8"
        }
      ],
      "name": "isIsland",
      "outputs": [
        {
          "internalType": "bool",
          "name": "",
          "type": "bool"
        }
      ],
      "stateMutability": "view",
      "type": "function"
    },
    {
      "inputs": [
        {
          "components": [
            {
              "internalType": "uint8",
              "name": "q",
              "type": "uint8"
            },
            {
              "internalType": "uint8",
              "name": "r",
              "type": "uint8"
            }
          ],
          "internalType": "struct SharedStructs.Coordinate",
          "name": "_start",
          "type": "tuple"
        },
        {
          "internalType": "enum SharedStructs.Directions",
          "name": "_dir",
          "type": "uint8"
        },
        {
          "internalType": "uint8",
          "name": "_distance",
          "type": "uint8"
        }
      ],
      "name": "move",
      "outputs": [
        {
          "components": [
            {
              "internalType": "uint8",
              "name": "q",
              "type": "uint8"
            },
            {
              "internalType": "uint8",
              "name": "r",
              "type": "uint8"
            }
          ],
          "internalType": "struct SharedStructs.Coordinate",
          "name": "",
          "type": "tuple"
        }
      ],
      "stateMutability": "view",
      "type": "function"
    },
    {
      "inputs": [
        {
          "components": [
            {
              "internalType": "uint8",
              "name": "q",
              "type": "uint8"
            },
            {
              "internalType": "uint8",
              "name": "r",
              "type": "uint8"
            }
          ],
          "internalType": "struct SharedStructs.Coordinate",
          "name": "_center",
          "type": "tuple"
        },
        {
          "internalType": "uint8",
          "name": "_radius",
          "type": "uint8"
        }
      ],
      "name": "ring",
      "outputs": [
        {
          "components": [
            {
              "internalType": "uint8",
              "name": "q",
              "type": "uint8"
            },
            {
              "internalType": "uint8",
              "name": "r",
              "type": "uint8"
            }
          ],
          "internalType": "struct SharedStructs.Coordinate[]",
          "name": "",
          "type": "tuple[]"
        }
      ],
      "stateMutability": "view",
      "type": "function"
    },
    {
      "inputs": [
        {
          "components": [
            {
              "internalType": "uint8",
              "name": "q",
              "type": "uint8"
            },
            {
              "internalType": "uint8",
              "name": "r",
              "type": "uint8"
            }
          ],
          "internalType": "struct SharedStructs.Coordinate",
          "name": "_startCell",
          "type": "tuple"
        },
        {
          "internalType": "enum SharedStructs.Directions",
          "name": "_direction",
          "type": "uint8"
        },
        {
          "internalType": "uint8",
          "name": "_distance",
          "type": "uint8"
        },
        {
          "internalType": "uint8",
          "name": "gameId",
          "type": "uint8"
        }
      ],
      "name": "travel",
      "outputs": [
        {
          "internalType": "bool",
          "name": "",
          "type": "bool"
        },
        {
          "components": [
            {
              "internalType": "uint8",
              "name": "q",
              "type": "uint8"
            },
            {
              "internalType": "uint8",
              "name": "r",
              "type": "uint8"
            }
          ],
          "internalType": "struct SharedStructs.Coordinate",
          "name": "",
          "type": "tuple"
        }
      ],
      "stateMutability": "view",
      "type": "function"
    }
  ],
  "bytecode": "0x608060405234801561001057600080fd5b5060405161183f38038061183f83398101604081905261002f9161027c565b60408051808201825260008082526020918201819052825180840184526060808201959095528351808203909501855260808101845284519483019490942080855293820181905260039384556004805460ff1916815583518085018552600180825281850184815284805284865291517fad3228b676f7d3cd4284a5443f17f1962b36e491b30a40b2405849e597ba5fb58054935160ff92831661ffff199586161761010091841682021790915587518089018952838152600019818901818152858952888a5291517fada5013122d395ba3c54772283fb069b10426056ef8ca54750cb9bb552a59e7d80549351918616938816939093179085168402179091558851808a018a5287815280890182815260028952888a5290517fabbb5caa7dda850e60932de0934eb1f9d0f59695050f761dc64e443e5030a5698054925186168502928816918616919091179190911790558851808a018a528181528089018881529a8852878952517f101e368776582e57ab3d116ffe2517c0a585cd5b23174b01e275c2d8329c3d8380549b51851684029b8716918516919091179a909a179099558751808901895298895288870183815294865285875297517f52d75039926638d3c558b2bdefb945d5be8dae29dedd1c313212a4d472d9fde58054955183168a0295851691831691909117949094179093558551808701909652838652858501908152600584529290935292517f2b232c97452f0950c94e2539fdc7e69d21166113cf7a9bcb99b220a3fe5d720a805492518516909502919092169190921617179055610295565b60006020828403121561028e57600080fd5b5051919050565b61159b806102a46000396000f3fe608060405234801561001057600080fd5b50600436106100cf5760003560e01c80634d0238861161008c578063906cb19e11610066578063906cb19e1461024b578063b4b4854d1461025e578063d202ec3814610281578063d6192ad3146102a157600080fd5b80634d0238861461018b57806374082a50146101ab57806386df5be61461022857600080fd5b80631a84a4ea146100d45780631cf8a321146100fd57806320bff4311461011e57806339e5c4a01461014357806342c39d91146101635780634affc34f14610176575b600080fd5b6100e76100e2366004610f76565b6102b4565b6040516100f49190610fba565b60405180910390f35b61011061010b366004610fd8565b61039d565b6040516100f492919061102d565b61013161012c366004611053565b610429565b60405160ff90911681526020016100f4565b610156610151366004611088565b6104b1565b6040516100f491906110b3565b6100e7610171366004611110565b6105d6565b61018961018436600461112b565b610789565b005b61019e610199366004611088565b61089c565b6040516100f49190611155565b6101fb6101b936600461118e565b600160209081526000938452604080852082529284528284209052825290205460ff808216916101008104821691620100008204811691630100000090041684565b6040805160ff958616815294909316602085015290151591830191909152151560608201526080016100f4565b6101316102363660046111c1565b60026020526000908152604090205460ff1681565b6101896102593660046111da565b610931565b61027161026c366004611088565b6109ac565b60405190151581526020016100f4565b61029461028f36600461112b565b6109c5565b6040516100f4919061120c565b6100e76102af366004610f76565b610d66565b60408051808201909152600080825260208201526000826000808660068111156102e0576102e0611285565b60068111156102f1576102f1611285565b8152602081019190915260400160009081205461030f92910b6112b1565b855161031b91906112d8565b905060008360008087600681111561033557610335611285565b600681111561034657610346611285565b8152602081019190915260400160009081205461036b9291610100909104900b6112b1565b866020015161037a91906112d8565b6040805180820190915260ff9384168152921660208301525090505b9392505050565b604080518082019091526000808252602082018190529060005b8460ff168160ff161015610417576103cf8787610db2565b965060006103dd888661089c565b90508060400151806103f157508060600151155b1561040457600188935093505050610420565b508061040f816112f9565b9150506103b7565b50600086915091505b94509492505050565b60006002610449836020015185602001516104449190611318565b610dd2565b60208085015185519187015187516104799391610465916112d8565b61046f9190611318565b6104449190611318565b8451865161048a9161044491611318565b61049491906112d8565b61049e91906112d8565b6104a8919061134f565b90505b92915050565b606060006104c0836006611387565b60ff1667ffffffffffffffff8111156104db576104db610ecf565b60405190808252806020026020018201604052801561052057816020015b60408051808201909152600080825260208201528152602001906001900390816104f95790505b5090506000610531856004866102b4565b905060005b60058160ff16116105cc5760005b8560ff168160ff1610156105b95782848261055f8986611387565b61056991906113a3565b60ff168151811061057c5761057c6113bc565b60200260200101819052506105a5838360ff1660068111156105a0576105a0611285565b610db2565b9250806105b1816112f9565b915050610544565b50806105c4816112f9565b915050610536565b5090949350505050565b604080518082019091526000808252602082015260ff80831660009081526002602081905260408083205481518083019092529093169290819061062790600390610622908790611387565b610ded565b60ff16815260200161063f6003610622866002611387565b60ff9081169091528581166000908152600160209081526040808320828601518516845282528083208551851684528252918290208251608081018452905480851682526101008104851692820192909252620100008204841615159281019290925263010000009004909116151560608201529091505b806060015115806106c9575080604001515b156107815760405180604001604052806106eb60038660026106229190611387565b60ff1681526020016107036003610622876002611387565b60ff90811690915286811660009081526001602090815260408083208286015185168452825280832085518516845282529182902082516080810184529054808516825261010081048516928201929092526201000082048416151592810192909252630100000090049091161515606082015290925090506106b7565b509392505050565b60ff808316600090815260026020526040812054909116906107ab83836113d2565b905060006107d360405180604001604052808560ff1681526020018560ff16815250836104b1565b905060005b81518160ff161015610894576000600160008860ff1681526020019081526020016000206000848460ff1681518110610813576108136113bc565b60200260200101516020015160ff1660ff1681526020019081526020016000206000848460ff168151811061084a5761084a6113bc565b6020908102919091018101515160ff168252810191909152604001600020805491151563010000000263ff000000199092169190911790558061088c816112f9565b9150506107d8565b505050505050565b6040805160808101825260008082526020820181905291810182905260608101919091525060ff908116600090815260016020908152604080832085830151851684528252808320945184168352938152908390208351608081018552905480841682526101008104841692820192909252620100008204831615159381019390935263010000009004161515606082015290565b60ff8116600090815260016020908152604080832091839161095891908701908701611110565b60ff16815260208082019290925260400160009081209161097b90860186611110565b60ff1681526020810191909152604001600020805491151563010000000263ff000000199092169190911790555050565b6000806109b9848461089c565b60400151949350505050565b6060607f60ff841611156109fc5760405163e48c3a9d60e01b815260ff84166004820152607f602482015260440160405180910390fd5b60ff8281166000908152600260205260408120805460ff191692861692909217909155610a2a8460016113a3565b610a35856003611387565b610a3f9190611387565b610a4a9060016113a3565b60ff16905060008167ffffffffffffffff811115610a6a57610a6a610ecf565b604051908082528060200260200182016040528015610abc57816020015b604080516080810182526000808252602080830182905292820181905260608201528252600019909201910181610a885790505b506040805160808101825260ff88168082526020820152600091810182905260016060820152825192935091839190610af757610af76113bc565b6020908102919091018101919091526040805160808101825260ff80891680835282850181815260008486018181526001606087018181528d87168452818a5288842095845294895287832090985295902093518454915195519251151563010000000263ff0000001993151562010000029390931663ffff0000199685166101000261ffff1990931691909416171793909316179190911790555b8560ff168160ff1611610d5d57600081610bae6001826113d2565b610bb9906003611387565b610bc39190611387565b610bce9060016113a3565b60ff1690506000610bf960405180604001604052808a60ff1681526020018a60ff16815250846104b1565b905060005b81518160ff161015610d475760006010610c1a60036064610ded565b60ff161090506040518060800160405280848460ff1681518110610c4057610c406113bc565b60200260200101516000015160ff168152602001848460ff1681518110610c6957610c696113bc565b60200260200101516020015160ff168152602001821515815260200160011515815250868360ff1686610c9c91906113eb565b81518110610cac57610cac6113bc565b6020026020010181905250610d34838360ff1681518110610ccf57610ccf6113bc565b60200260200101518a60ff908116600090815260016020908152604080832085830180518616855290835281842086518616855290925290912092518354915163ffff0000199084166101000261ffff19909316919093161717166301000000179055565b5080610d3f816112f9565b915050610bfe565b5050508080610d55906112f9565b915050610b93565b50949350505050565b604080518082019091526000808252602082015260005b8260ff168160ff161015610da957610d958585610db2565b945080610da1816112f9565b915050610d7d565b50929392505050565b60408051808201909152600080825260208201526104a8838360016102b4565b6000808260000b12610de457816104ab565b6104ab826113fe565b60006001610dfe600861010061141c565b610e0891906113d2565b600184015460ff918216911610610e4f5782546040805160208101929092520160408051601f198184030181529190528051602090910120835560018301805460ff191690555b6000826001610e6060086002611521565b610e6a9190611530565b6001860154610e7d9060ff166008611387565b60ff168660000154901c16610e929190611543565b60018501805491925060ff909116906000610eac836112f9565b91906101000a81548160ff021916908360ff160217905550508091505092915050565b634e487b7160e01b600052604160045260246000fd5b803560ff81168114610ef657600080fd5b919050565b600060408284031215610f0d57600080fd5b6040516040810181811067ffffffffffffffff82111715610f3e57634e487b7160e01b600052604160045260246000fd5b604052905080610f4d83610ee5565b8152610f5b60208401610ee5565b60208201525092915050565b803560078110610ef657600080fd5b600080600060808486031215610f8b57600080fd5b610f958585610efb565b9250610fa360408501610f67565b9150610fb160608501610ee5565b90509250925092565b604081016104ab8284805160ff908116835260209182015116910152565b60008060008060a08587031215610fee57600080fd5b610ff88686610efb565b935061100660408601610f67565b925061101460608601610ee5565b915061102260808601610ee5565b905092959194509250565b8215158152606081016103966020830184805160ff908116835260209182015116910152565b6000806080838503121561106657600080fd5b6110708484610efb565b915061107f8460408501610efb565b90509250929050565b6000806060838503121561109b57600080fd5b6110a58484610efb565b915061107f60408401610ee5565b602080825282518282018190526000919060409081850190868401855b82811015611103576110f3848351805160ff908116835260209182015116910152565b92840192908501906001016110d0565b5091979650505050505050565b60006020828403121561112257600080fd5b6104a882610ee5565b6000806040838503121561113e57600080fd5b61114783610ee5565b915061107f60208401610ee5565b608081016104ab828460ff815116825260ff60208201511660208301526040810151151560408301526060810151151560608301525050565b6000806000606084860312156111a357600080fd5b833592506111b360208501610ee5565b9150610fb160408501610ee5565b6000602082840312156111d357600080fd5b5035919050565b60008082840360608112156111ee57600080fd5b60408112156111fc57600080fd5b5082915061107f60408401610ee5565b6020808252825182820181905260009190848201906040850190845b818110156112795761126683855160ff815116825260ff60208201511660208301526040810151151560408301526060810151151560608301525050565b9284019260809290920191600101611228565b50909695505050505050565b634e487b7160e01b600052602160045260246000fd5b634e487b7160e01b600052601160045260246000fd5b60008260000b8260000b028060000b91508082146112d1576112d161129b565b5092915050565b600081810b9083900b01607f8113607f19821217156104ab576104ab61129b565b600060ff821660ff810361130f5761130f61129b565b60010192915050565b600082810b9082900b03607f198112607f821317156104ab576104ab61129b565b634e487b7160e01b600052601260045260246000fd5b60008160000b8360000b8061136657611366611339565b607f1982146000198214161561137e5761137e61129b565b90059392505050565b60ff81811683821602908116908181146112d1576112d161129b565b60ff81811683821601908111156104ab576104ab61129b565b634e487b7160e01b600052603260045260246000fd5b60ff82811682821603908111156104ab576104ab61129b565b808201808211156104ab576104ab61129b565b600081810b608081016114135761141361129b565b60000392915050565b600061ffff8084168061143157611431611339565b92169190910492915050565b600181815b8085111561147857816000190482111561145e5761145e61129b565b8085161561146b57918102915b93841c9390800290611442565b509250929050565b60008261148f575060016104ab565b8161149c575060006104ab565b81600181146114b257600281146114bc576114d8565b60019150506104ab565b60ff8411156114cd576114cd61129b565b50506001821b6104ab565b5060208310610133831016604e8410600b84101617156114fb575081810a6104ab565b611505838361143d565b80600019048211156115195761151961129b565b029392505050565b60006104a860ff841683611480565b818103818111156104ab576104ab61129b565b600060ff83168061155657611556611339565b8060ff8416069150509291505056fea264697066735822122047e73562a8ae2b030fd983133930fee8ee4baec6e570c7edd03f4eac4d6f2ad764736f6c63430008140033",
  "linkReferences": {},
  "deployedLinkReferences": {}
}