{
    "_format": "hh-sol-artifact-1",
    "contractName": "RegistrationPunk",
    "sourceName": "contracts/RegistrationPunk.sol",
    "abi": [
        {
            "inputs": [
                {
                    "internalType": "address",
                    "name": "_gamePunkAddress",
                    "type": "address"
                }
            ],
            "stateMutability": "nonpayable",
            "type": "constructor"
        },
        {
            "anonymous": false,
            "inputs": [
                {
                    "indexed": true,
                    "internalType": "address",
                    "name": "previousOwner",
                    "type": "address"
                },
                {
                    "indexed": true,
                    "internalType": "address",
                    "name": "newOwner",
                    "type": "address"
                }
            ],
            "name": "OwnershipTransferred",
            "type": "event"
        },
        {
            "anonymous": false,
            "inputs": [
                {
                    "indexed": true,
                    "internalType": "address",
                    "name": "player",
                    "type": "address"
                }
            ],
            "name": "PlayerAdded",
            "type": "event"
        },
        {
            "anonymous": false,
            "inputs": [
                {
                    "indexed": false,
                    "internalType": "bool",
                    "name": "registrationClosed",
                    "type": "bool"
                }
            ],
            "name": "RegistrationClosed",
            "type": "event"
        },
        {
            "inputs": [],
            "name": "closeRegistration",
            "outputs": [],
            "stateMutability": "nonpayable",
            "type": "function"
        },
        {
            "inputs": [],
            "name": "gamePunk",
            "outputs": [
                {
                    "internalType": "contract IGamePunk",
                    "name": "",
                    "type": "address"
                }
            ],
            "stateMutability": "view",
            "type": "function"
        },
        {
            "inputs": [],
            "name": "owner",
            "outputs": [
                {
                    "internalType": "address",
                    "name": "",
                    "type": "address"
                }
            ],
            "stateMutability": "view",
            "type": "function"
        },
        {
            "inputs": [
                {
                    "internalType": "uint8",
                    "name": "gameId",
                    "type": "uint8"
                },
                {
                    "internalType": "uint8",
                    "name": "_speed",
                    "type": "uint8"
                },
                {
                    "internalType": "uint8",
                    "name": "_range",
                    "type": "uint8"
                }
            ],
            "name": "registerPlayer",
            "outputs": [],
            "stateMutability": "nonpayable",
            "type": "function"
        },
        {
            "inputs": [
                {
                    "internalType": "address",
                    "name": "",
                    "type": "address"
                }
            ],
            "name": "registeredAddresses",
            "outputs": [
                {
                    "internalType": "bool",
                    "name": "",
                    "type": "bool"
                }
            ],
            "stateMutability": "view",
            "type": "function"
        },
        {
            "inputs": [],
            "name": "registrationClosed",
            "outputs": [
                {
                    "internalType": "bool",
                    "name": "",
                    "type": "bool"
                }
            ],
            "stateMutability": "view",
            "type": "function"
        },
        {
            "inputs": [],
            "name": "renounceOwnership",
            "outputs": [],
            "stateMutability": "nonpayable",
            "type": "function"
        },
        {
            "inputs": [
                {
                    "internalType": "address",
                    "name": "newOwner",
                    "type": "address"
                }
            ],
            "name": "transferOwnership",
            "outputs": [],
            "stateMutability": "nonpayable",
            "type": "function"
        }
    ],
    "bytecode": "0x60806040526003805460ff1916905534801561001a57600080fd5b50604051610627380380610627833981016040819052610039916100b7565b61004233610067565b600180546001600160a01b0319166001600160a01b03929092169190911790556100e7565b600080546001600160a01b038381166001600160a01b0319831681178455604051919092169283917f8be0079c531659141344cd1fd0a4f28419497f9722a3daafe3b4186f6b6457e09190a35050565b6000602082840312156100c957600080fd5b81516001600160a01b03811681146100e057600080fd5b9392505050565b610531806100f66000396000f3fe608060405234801561001057600080fd5b50600436106100885760003560e01c80639f9a093c1161005b5780639f9a093c146100fc5780639fe8a11b14610109578063a9c06f251461011c578063f2fde38b1461012f57600080fd5b8063715018a61461008d57806376b22eac146100975780637dc673bc146100cf5780638da5cb5b146100d7575b600080fd5b610095610142565b005b6100ba6100a5366004610450565b60026020526000908152604090205460ff1681565b60405190151581526020015b60405180910390f35b610095610156565b6000546001600160a01b03165b6040516001600160a01b0390911681526020016100c6565b6003546100ba9060ff1681565b610095610117366004610496565b6101a3565b6001546100e4906001600160a01b031681565b61009561013d366004610450565b61032d565b61014a6103a6565b6101546000610400565b565b61015e6103a6565b6003805460ff191660019081179091556040519081527f7e2a3a891ca712a697b6e8d307aab771ab9ae5f0b102136955bfc5a76ff8379b9060200160405180910390a1565b3360009081526002602052604090205460ff16156102085760405162461bcd60e51b815260206004820152601960248201527f506c6179657220616c726561647920726567697374657265640000000000000060448201526064015b60405180910390fd5b60035460ff161561025b5760405162461bcd60e51b815260206004820181905260248201527f526567697374726174696f6e20636c6f73656420666f72207468652067616d6560448201526064016101ff565b60015460405163f10a392760e01b815233600482015260ff80861660248301528085166044830152831660648201526001600160a01b039091169063f10a3927906084016020604051808303816000875af11580156102be573d6000803e3d6000fd5b505050506040513d601f19601f820116820180604052508101906102e291906104d9565b5060405133907ff2ae205522024c14e5a7a26ba6d1fb1252dc8e161b5abc79ed5795fd3c5b926190600090a25050336000908152600260205260409020805460ff1916600117905550565b6103356103a6565b6001600160a01b03811661039a5760405162461bcd60e51b815260206004820152602660248201527f4f776e61626c653a206e6577206f776e657220697320746865207a65726f206160448201526564647265737360d01b60648201526084016101ff565b6103a381610400565b50565b6000546001600160a01b031633146101545760405162461bcd60e51b815260206004820181905260248201527f4f776e61626c653a2063616c6c6572206973206e6f7420746865206f776e657260448201526064016101ff565b600080546001600160a01b038381166001600160a01b0319831681178455604051919092169283917f8be0079c531659141344cd1fd0a4f28419497f9722a3daafe3b4186f6b6457e09190a35050565b60006020828403121561046257600080fd5b81356001600160a01b038116811461047957600080fd5b9392505050565b803560ff8116811461049157600080fd5b919050565b6000806000606084860312156104ab57600080fd5b6104b484610480565b92506104c260208501610480565b91506104d060408501610480565b90509250925092565b6000602082840312156104eb57600080fd5b8151801515811461047957600080fdfea2646970667358221220b3c462a6267e40d705060a8b7483a743924c88eee65b304092d6fa6cc5d883d364736f6c63430008120033",
    "linkReferences": {},
    "deployedLinkReferences": {}
}