{
    "_format": "hh-sol-artifact-1",
    "contractName": "COV",
    "sourceName": "contracts/COV.sol",
    "abi": [
        {
            "inputs": [
                {
                    "internalType": "address",
                    "name": "initialOwner",
                    "type": "address"
                }
            ],
            "stateMutability": "nonpayable",
            "type": "constructor"
        },
        {
            "inputs": [
                {
                    "internalType": "address",
                    "name": "sender",
                    "type": "address"
                },
                {
                    "internalType": "uint256",
                    "name": "tokenId",
                    "type": "uint256"
                },
                {
                    "internalType": "address",
                    "name": "owner",
                    "type": "address"
                }
            ],
            "name": "ERC721IncorrectOwner",
            "type": "error"
        },
        {
            "inputs": [
                {
                    "internalType": "address",
                    "name": "operator",
                    "type": "address"
                },
                {
                    "internalType": "uint256",
                    "name": "tokenId",
                    "type": "uint256"
                }
            ],
            "name": "ERC721InsufficientApproval",
            "type": "error"
        },
        {
            "inputs": [
                {
                    "internalType": "address",
                    "name": "approver",
                    "type": "address"
                }
            ],
            "name": "ERC721InvalidApprover",
            "type": "error"
        },
        {
            "inputs": [
                {
                    "internalType": "address",
                    "name": "operator",
                    "type": "address"
                }
            ],
            "name": "ERC721InvalidOperator",
            "type": "error"
        },
        {
            "inputs": [
                {
                    "internalType": "address",
                    "name": "owner",
                    "type": "address"
                }
            ],
            "name": "ERC721InvalidOwner",
            "type": "error"
        },
        {
            "inputs": [
                {
                    "internalType": "address",
                    "name": "receiver",
                    "type": "address"
                }
            ],
            "name": "ERC721InvalidReceiver",
            "type": "error"
        },
        {
            "inputs": [
                {
                    "internalType": "address",
                    "name": "sender",
                    "type": "address"
                }
            ],
            "name": "ERC721InvalidSender",
            "type": "error"
        },
        {
            "inputs": [
                {
                    "internalType": "uint256",
                    "name": "tokenId",
                    "type": "uint256"
                }
            ],
            "name": "ERC721NonexistentToken",
            "type": "error"
        },
        {
            "inputs": [
                {
                    "internalType": "address",
                    "name": "caller",
                    "type": "address"
                }
            ],
            "name": "NotGameContract",
            "type": "error"
        },
        {
            "inputs": [
                {
                    "internalType": "address",
                    "name": "owner",
                    "type": "address"
                }
            ],
            "name": "OwnableInvalidOwner",
            "type": "error"
        },
        {
            "inputs": [
                {
                    "internalType": "address",
                    "name": "account",
                    "type": "address"
                }
            ],
            "name": "OwnableUnauthorizedAccount",
            "type": "error"
        },
        {
            "anonymous": false,
            "inputs": [
                {
                    "indexed": true,
                    "internalType": "address",
                    "name": "owner",
                    "type": "address"
                },
                {
                    "indexed": true,
                    "internalType": "address",
                    "name": "approved",
                    "type": "address"
                },
                {
                    "indexed": true,
                    "internalType": "uint256",
                    "name": "tokenId",
                    "type": "uint256"
                }
            ],
            "name": "Approval",
            "type": "event"
        },
        {
            "anonymous": false,
            "inputs": [
                {
                    "indexed": true,
                    "internalType": "address",
                    "name": "owner",
                    "type": "address"
                },
                {
                    "indexed": true,
                    "internalType": "address",
                    "name": "operator",
                    "type": "address"
                },
                {
                    "indexed": false,
                    "internalType": "bool",
                    "name": "approved",
                    "type": "bool"
                }
            ],
            "name": "ApprovalForAll",
            "type": "event"
        },
        {
            "anonymous": false,
            "inputs": [
                {
                    "indexed": true,
                    "internalType": "address",
                    "name": "previousOwner",
                    "type": "address"
                },
                {
                    "indexed": true,
                    "internalType": "address",
                    "name": "newOwner",
                    "type": "address"
                }
            ],
            "name": "OwnershipTransferred",
            "type": "event"
        },
        {
            "anonymous": false,
            "inputs": [
                {
                    "indexed": true,
                    "internalType": "address",
                    "name": "from",
                    "type": "address"
                },
                {
                    "indexed": true,
                    "internalType": "address",
                    "name": "to",
                    "type": "address"
                },
                {
                    "indexed": true,
                    "internalType": "uint256",
                    "name": "tokenId",
                    "type": "uint256"
                }
            ],
            "name": "Transfer",
            "type": "event"
        },
        {
            "inputs": [
                {
                    "internalType": "address",
                    "name": "to",
                    "type": "address"
                },
                {
                    "internalType": "uint256",
                    "name": "tokenId",
                    "type": "uint256"
                }
            ],
            "name": "approve",
            "outputs": [],
            "stateMutability": "nonpayable",
            "type": "function"
        },
        {
            "inputs": [
                {
                    "internalType": "address",
                    "name": "owner",
                    "type": "address"
                }
            ],
            "name": "balanceOf",
            "outputs": [
                {
                    "internalType": "uint256",
                    "name": "",
                    "type": "uint256"
                }
            ],
            "stateMutability": "view",
            "type": "function"
        },
        {
            "inputs": [],
            "name": "gameContract",
            "outputs": [
                {
                    "internalType": "address",
                    "name": "",
                    "type": "address"
                }
            ],
            "stateMutability": "view",
            "type": "function"
        },
        {
            "inputs": [
                {
                    "internalType": "uint256",
                    "name": "tokenId",
                    "type": "uint256"
                }
            ],
            "name": "getApproved",
            "outputs": [
                {
                    "internalType": "address",
                    "name": "",
                    "type": "address"
                }
            ],
            "stateMutability": "view",
            "type": "function"
        },
        {
            "inputs": [
                {
                    "internalType": "int16",
                    "name": "q",
                    "type": "int16"
                },
                {
                    "internalType": "int16",
                    "name": "r",
                    "type": "int16"
                }
            ],
            "name": "getCellId",
            "outputs": [
                {
                    "internalType": "uint32",
                    "name": "",
                    "type": "uint32"
                }
            ],
            "stateMutability": "pure",
            "type": "function"
        },
        {
            "inputs": [
                {
                    "internalType": "address",
                    "name": "owner",
                    "type": "address"
                },
                {
                    "internalType": "address",
                    "name": "operator",
                    "type": "address"
                }
            ],
            "name": "isApprovedForAll",
            "outputs": [
                {
                    "internalType": "bool",
                    "name": "",
                    "type": "bool"
                }
            ],
            "stateMutability": "view",
            "type": "function"
        },
        {
            "inputs": [
                {
                    "internalType": "address",
                    "name": "to",
                    "type": "address"
                },
                {
                    "internalType": "uint256",
                    "name": "tokenId",
                    "type": "uint256"
                },
                {
                    "internalType": "uint256",
                    "name": "gameId",
                    "type": "uint256"
                },
                {
                    "internalType": "int16[]",
                    "name": "islandsQ",
                    "type": "int16[]"
                },
                {
                    "internalType": "int16[]",
                    "name": "islandsR",
                    "type": "int16[]"
                },
                {
                    "internalType": "address[]",
                    "name": "playersInput",
                    "type": "address[]"
                },
                {
                    "internalType": "uint8[]",
                    "name": "qsInput",
                    "type": "uint8[]"
                },
                {
                    "internalType": "uint8[]",
                    "name": "rsInput",
                    "type": "uint8[]"
                },
                {
                    "internalType": "uint256[]",
                    "name": "indicesInput",
                    "type": "uint256[]"
                },
                {
                    "internalType": "uint8[]",
                    "name": "winnerQs",
                    "type": "uint8[]"
                },
                {
                    "internalType": "uint8[]",
                    "name": "winnerRs",
                    "type": "uint8[]"
                }
            ],
            "name": "mint",
            "outputs": [],
            "stateMutability": "nonpayable",
            "type": "function"
        },
        {
            "inputs": [],
            "name": "name",
            "outputs": [
                {
                    "internalType": "string",
                    "name": "",
                    "type": "string"
                }
            ],
            "stateMutability": "view",
            "type": "function"
        },
        {
            "inputs": [],
            "name": "owner",
            "outputs": [
                {
                    "internalType": "address",
                    "name": "",
                    "type": "address"
                }
            ],
            "stateMutability": "view",
            "type": "function"
        },
        {
            "inputs": [
                {
                    "internalType": "uint256",
                    "name": "tokenId",
                    "type": "uint256"
                }
            ],
            "name": "ownerOf",
            "outputs": [
                {
                    "internalType": "address",
                    "name": "",
                    "type": "address"
                }
            ],
            "stateMutability": "view",
            "type": "function"
        },
        {
            "inputs": [],
            "name": "renounceOwnership",
            "outputs": [],
            "stateMutability": "nonpayable",
            "type": "function"
        },
        {
            "inputs": [
                {
                    "internalType": "address",
                    "name": "from",
                    "type": "address"
                },
                {
                    "internalType": "address",
                    "name": "to",
                    "type": "address"
                },
                {
                    "internalType": "uint256",
                    "name": "tokenId",
                    "type": "uint256"
                }
            ],
            "name": "safeTransferFrom",
            "outputs": [],
            "stateMutability": "nonpayable",
            "type": "function"
        },
        {
            "inputs": [
                {
                    "internalType": "address",
                    "name": "from",
                    "type": "address"
                },
                {
                    "internalType": "address",
                    "name": "to",
                    "type": "address"
                },
                {
                    "internalType": "uint256",
                    "name": "tokenId",
                    "type": "uint256"
                },
                {
                    "internalType": "bytes",
                    "name": "data",
                    "type": "bytes"
                }
            ],
            "name": "safeTransferFrom",
            "outputs": [],
            "stateMutability": "nonpayable",
            "type": "function"
        },
        {
            "inputs": [
                {
                    "internalType": "address",
                    "name": "operator",
                    "type": "address"
                },
                {
                    "internalType": "bool",
                    "name": "approved",
                    "type": "bool"
                }
            ],
            "name": "setApprovalForAll",
            "outputs": [],
            "stateMutability": "nonpayable",
            "type": "function"
        },
        {
            "inputs": [
                {
                    "internalType": "address",
                    "name": "_gameContract",
                    "type": "address"
                }
            ],
            "name": "setGameContract",
            "outputs": [],
            "stateMutability": "nonpayable",
            "type": "function"
        },
        {
            "inputs": [
                {
                    "internalType": "bytes4",
                    "name": "interfaceId",
                    "type": "bytes4"
                }
            ],
            "name": "supportsInterface",
            "outputs": [
                {
                    "internalType": "bool",
                    "name": "",
                    "type": "bool"
                }
            ],
            "stateMutability": "view",
            "type": "function"
        },
        {
            "inputs": [],
            "name": "symbol",
            "outputs": [
                {
                    "internalType": "string",
                    "name": "",
                    "type": "string"
                }
            ],
            "stateMutability": "view",
            "type": "function"
        },
        {
            "inputs": [
                {
                    "internalType": "uint256",
                    "name": "",
                    "type": "uint256"
                }
            ],
            "name": "tokenGameId",
            "outputs": [
                {
                    "internalType": "uint256",
                    "name": "",
                    "type": "uint256"
                }
            ],
            "stateMutability": "view",
            "type": "function"
        },
        {
            "inputs": [
                {
                    "internalType": "uint256",
                    "name": "tokenId",
                    "type": "uint256"
                }
            ],
            "name": "tokenURI",
            "outputs": [
                {
                    "internalType": "string",
                    "name": "",
                    "type": "string"
                }
            ],
            "stateMutability": "view",
            "type": "function"
        },
        {
            "inputs": [
                {
                    "internalType": "address",
                    "name": "from",
                    "type": "address"
                },
                {
                    "internalType": "address",
                    "name": "to",
                    "type": "address"
                },
                {
                    "internalType": "uint256",
                    "name": "tokenId",
                    "type": "uint256"
                }
            ],
            "name": "transferFrom",
            "outputs": [],
            "stateMutability": "nonpayable",
            "type": "function"
        },
        {
            "inputs": [
                {
                    "internalType": "address",
                    "name": "newOwner",
                    "type": "address"
                }
            ],
            "name": "transferOwnership",
            "outputs": [],
            "stateMutability": "nonpayable",
            "type": "function"
        }
    ],
    "bytecode": "0x60806040523461038b57604051601f613c0a38819003918201601f19168301916001600160401b038311848410176102965780849260209460405283398101031261038b57516001600160a01b0381169081900361038b5761005f610390565b90610068610390565b82519091906001600160401b03811161029657600054600181811c91168015610381575b602082101461027657601f811161031d575b506020601f82116001146102b757819293946000926102ac575b50508160011b916000199060031b1c1916176000555b81516001600160401b03811161029657600154600181811c9116801561028c575b602082101461027657601f8111610211575b50602092601f82116001146101ac57928192936000926101a1575b50508160011b916000199060031b1c1916176001555b801561018b57600680546001600160a01b03198116831790915560405191906001600160a01b03167f8be0079c531659141344cd1fd0a4f28419497f9722a3daafe3b4186f6b6457e0600080a361384a90816103c08239f35b631e4fbdf760e01b600052600060045260246000fd5b01519050388061011c565b601f198216936001600052806000209160005b8681106101f957508360019596106101e0575b505050811b01600155610132565b015160001960f88460031b161c191690553880806101d2565b919260206001819286850151815501940192016101bf565b60016000527fb10e2d527612073b26eecdfd717e6a320cf44b4afac2b0732d9fcbe2b7fa0cf6601f830160051c8101916020841061026c575b601f0160051c01905b8181106102605750610101565b60008155600101610253565b909150819061024a565b634e487b7160e01b600052602260045260246000fd5b90607f16906100ef565b634e487b7160e01b600052604160045260246000fd5b0151905038806100b8565b601f1982169060008052806000209160005b818110610305575095836001959697106102ec575b505050811b016000556100ce565b015160001960f88460031b161c191690553880806102de565b9192602060018192868b0151815501940192016102c9565b600080527f290decd9548b62a8d60345a988386fc84ba6bc95484008f6362f93160ef3e563601f830160051c81019160208410610377575b601f0160051c01905b81811061036b575061009e565b6000815560010161035e565b9091508190610355565b90607f169061008c565b600080fd5b60408051919082016001600160401b0381118382101761029657604052600382526221a7ab60e91b602083015256fe61012080604052600436101561001457600080fd5b60003560e01c90816301ffc9a714612e215750806306fdde0314612d66578063081812fc14612d28578063095ea7b314612c3957806323b872dd14612c22578063405ebd4d14612bdf57806342842e0e14612baf5780634f7c382c14612b835780636352211e14612b5357806370a0823114612afd578063715018a614612aa05780638da5cb5b14612a7757806395d89b411461296b5780639fad16681461291f578063a22cb4651461287e578063b88d4fde146127e9578063c1867614146120af578063c87b56dd1461021a578063d3f33009146101f1578063e985e9c5146101965763f2fde38b1461010757600080fd5b3461019157602036600319011261019157610120612ed4565b610128613222565b6001600160a01b0316801561017b57600680546001600160a01b0319811683179091556001600160a01b03167f8be0079c531659141344cd1fd0a4f28419497f9722a3daafe3b4186f6b6457e0600080a3005b631e4fbdf760e01b600052600060045260246000fd5b600080fd5b34610191576040366003190112610191576101af612ed4565b6101b7612eea565b9060018060a01b0316600052600560205260406000209060018060a01b0316600052602052602060ff604060002054166040519015158152f35b34610191576000366003190112610191576007546040516001600160a01b039091168152602090f35b34610191576020366003190112610191576102366004356131eb565b50604061010081905280519061024c9082612f3a565b60118152701e339034b21e913432bc30b3b7b739911f60791b6020820152610100515163eab3773360e01b815260008160048173__$99ae6fd13ebc10b1696f44669ac40af284$__5af49081156120a157600091611f4e575b5060005b81518110156104be576102bc81836133a6565b51926102d363ffffffff61010051860151166136bd565b906102e763ffffffff6060870151166136bd565b61010051519260206103028186019485815193849201612e8c565b8401907f3c75736520687265663d222368657861676f6e2220636c6173733d226865786160208301526733b7b711103c1e9160c11b610100518301526020815181830193610354826048830187612e8c565b0101936411103c9e9160d91b60288601526103a360046005886028885160208a019a610385828d602d840190612e8c565b0101631110179f60e11b838201520301601b19810189520187612f3a565b60ff869963ffff000061ffff6020835160010b93015160010b169160101b161760043560005260096020526101005160002063ffffffff60009216825260205261010051902054166103fe575b5050505050506001016102a9565b60019698506104b29460049461049460206005966104319a9661047760269761010051519d8e9a518092878d0190612e8c565b8901917f3c75736520687265663d222369736c616e642220636c6173733d2269736c616e85840152653211103c1e9160d11b610100518401525180936046840190612e8c565b0101916411103c9e9160d91b85840152518093602b840190612e8c565b0101631110179f60e11b838201520301601b19810184520182612f3a565b929084808080806103f0565b509061010051516104ff6004602083816104e18183019788815193849201612e8c565b8101631e17b39f60e11b838201520301601b19810184520182612f3a565b610100518051906105109082612f3a565b601081526f1e339034b21e913a3930bb32b639911f60811b6020808301919091526004356000908152600a825261010051808220600b8452818320600c8552828420600d909552918320905494979490935b818410611db757505050506105ab6004602061010051518861058d829a518092858086019101612e8c565b8101631e17b39f60e11b838201520301601b19810188520186612f3a565b6101005151936105be6101005186612f3a565b6010855260208501916f1e339034b21e913bb4b73732b939911f60811b835280546000198101908111610996576105f491613170565b90549060031b1c95600435600052600b60205261010051600020946101005151808760208299549384815201906000526020600020926000905b80601f830110611c0b57610744945491818110611bf7575b818110611be0575b818110611bc9575b818110611bb2575b818110611b9c575b818110611b85575b818110611b6e575b818110611b57575b818110611b3e575b818110611b27575b818110611b10575b818110611af9575b818110611ae2575b818110611acb575b818110611ab4575b818110611a9d575b818110611a86575b818110611a6f575b818110611a58575b818110611a41575b818110611a2a575b818110611a13575b8181106119fc575b8181106119e5575b8181106119ce575b8181106119b7575b8181106119a0575b818110611989575b818110611972575b81811061195b575b818110611944575b10611936575b500387612f3a565b600435600052600c60205261010051600020936101005151808660208298549384815201906000526020600020926000905b80601f83011061178a5761088c945491818110611776575b81811061175f575b818110611748575b818110611731575b81811061171b575b818110611704575b8181106116ed575b8181106116d6575b8181106116bd575b8181106116a6575b81811061168f575b818110611678575b818110611661575b81811061164a575b818110611633575b81811061161c575b818110611605575b8181106115ee575b8181106115d7575b8181106115c0575b8181106115a9575b818110611592575b81811061157b575b818110611564575b81811061154d575b818110611536575b81811061151f575b818110611508575b8181106114f1575b8181106114da575b8181106114c3575b106114b5575b500386612f3a565b6108946133ba565b87518a10156109ac576108d16108d76108ca898d60ff6108c2818f846108b9916133a6565b5116928d6133a6565b511690613756565b92906136bd565b916136bd565b8951600019810193908411610996576001610975928e82966000911060001461097d57506109036133da565b905b602061010051519685610921899751809285808b019101612e8c565b860161093582518093858085019101612e8c565b0101600160fd1b81526109518251809360208785019101612e8c565b016109658251809360208685019101612e8c565b010103601f198101835282612f3a565b990198610894565b61010051519061098e602083612f3a565b815290610905565b634e487b7160e01b600052601160045260246000fd5b90886101005151928391602083019384915180926109c992612e8c565b8201681e3830ba3410321e9160b91b6020820152815191826029830191602001916109f392612e8c565b01602001600981017f2220636c6173733d2277696e6e657222206d61726b65722d73746172743d22759052602981017f726c282373686970537461727457696e6e65722922206d61726b65722d656e649052604981017f3d2275726c282373686970456e6457696e6e65722922202f3e00000000000000905203600901603981018352605901610a839083612f3a565b6101005151809260208201928391518092610a9d92612e8c565b810160208101631e17b39f60e11b905203602001601b1981018352600401610ac59083612f3a565b608091610100515194610ad88487612f3a565b604c86527f3c73766720786d6c6e733d22687474703a2f2f7777772e77332e6f72672f32306020870190815261010080517f30302f737667222076657273696f6e3d22312e31222076696577426f783d2230908901526b1018101a9818101a9818111f60a11b6060890152515190979095610b5561058088612f3a565b61055c87527f3c646566733e3c7374796c6520747970653d22746578742f637373223e2e68656020880190815261010080517f7861676f6e207b207374726f6b653a20726762283231352c203131342c203132908a01527f37293b2066696c6c3a206e6f6e653b207669736962696c6974793a206869646460608a01527f656e3b207d2e69736c616e64207b2066696c6c3a20234239354336453b207d2e888a01527f6261636b67726f756e64207b2066696c6c3a20233230323432343b207669736960a08a01527f62696c6974793a2076697369626c653b207d2e74726176656c207b207374726f60c08a01527f6b653a20234136443346323b207374726f6b652d77696474683a203270783b2060e08a01527f66696c6c3a206e6f6e653b207d2e74726176656c4d61726b6572207b20737472818a01527f6f6b653a20234136443346323b2066696c6c3a20234136443346323b207669736101208a01527f6962696c6974793a2068696464656e3b207d2e77696e6e6572207b207374726f6101408a01527f6b653a20233235323837323b207374726f6b652d77696474683a203270783b206101608a01527f66696c6c3a206e6f6e653b207d2e74726176656c4d61726b657257696e6e65726101808a01527f207b207374726f6b653a20233235323837323b2066696c6c3a202332353238376101a08a01527f323b207669736962696c6974793a2068696464656e3b207d3c2f7374796c653e6101c08a01527f3c706f6c79676f6e2069643d2268657861676f6e2220706f696e74733d22302c6101e08a01527f2d31352031322e39392c2d372e352031322e39392c372e3520302c3135202d316102008a01527f322e39392c372e35202d31322e39392c2d372e3522202f3e3c726563742069646102208a01527f3d2269736c616e642220783d222d372e352220793d222d372e352220776964746102408a01527f683d22313522206865696768743d22313522202f3e3c6d61726b65722069643d6102608a01527f22736869705374617274222076696577426f783d2230203020313020313022206102808a01527f726566583d22352220726566593d223522206d61726b657257696474683d22316102a08a01527f3022206d61726b65724865696768743d22313022206f7269656e743d2230223e6102c08a01527f3c7265637420783d22322e352220793d22322e35222077696474683d223522206102e08a01527f6865696768743d22352220636c6173733d2274726176656c4d61726b657222206103008a01527f2f3e3c2f6d61726b65723e3c6d61726b65722069643d2273686970456e6422206103208a01527f76696577426f783d223020302031302031302220726566583d223522207265666103408a01527f593d223522206d61726b657257696474683d22313022206d61726b65724865696103608a01527f6768743d22313022206f7269656e743d226175746f223e3c7061746820643d226103808a01527f4d20322e352c322e35204c20372e352c372e35204d20372e352c322e35204c206103a08a01527f322e352c372e352220636c6173733d2274726176656c4d61726b657222202f3e6103c08a01527f3c2f6d61726b65723e3c6d61726b65722069643d2273686970537461727457696103e08a01527f6e6e6572222076696577426f783d223020302031302031302220726566583d226104008a018190527f352220726566593d223522206d61726b657257696474683d22313022206d61726104208b018190527f6b65724865696768743d22313022206f7269656e743d2230223e3c72656374206104408c01527f783d22322e352220793d22322e35222077696474683d223522206865696768746104608c01527f3d22352220636c6173733d2274726176656c4d61726b657257696e6e657222206104808c01527f2f3e3c2f6d61726b65723e3c6d61726b65722069643d2273686970456e6457696104a08c01526104c08b01919091526104e08a01527f6b65724865696768743d22313022206f7269656e743d226175746f223e3c70616105008a01527f746820643d224d20322e352c322e35204c20372e352c372e35204d20372e352c6105208a01527f322e35204c20322e352c372e352220636c6173733d2274726176656c4d61726b6105408a01527f657257696e6e657222202f3e3c2f6d61726b65723e3c2f646566733e000000006105608a0152515190966111b69082612f3a565b604281527f3c7265637420783d22302220793d2230222077696474683d22313030252220686020820190815261010080517f65696768743d22313030252220636c6173733d226261636b67726f756e6422209084015261179f60f11b60608401525180519891929190611229908a612f3a565b600689526020890199651e17b9bb339f60d11b8b526101005151809d819d51602081930161125692612e8c565b8c01905191826020830161126992612e8c565b0160200191829151809361127c92612e8c565b0191829151809361128c92612e8c565b0180825160208194019161129f92612e8c565b019182915180936112af92612e8c565b019182915180936112bf92612e8c565b0103601f19810182526112d29082612f3a565b6112db9061342d565b6101005151908160208101917f646174613a696d6167652f7376672b786d6c3b6261736536342c000000000000835280519081603a8401916020019161132092612e8c565b810103603a01601f19810183526113379083612f3a565b611342600435613573565b906004356000526008602052610100516000205461135f90613573565b9261010051519384936e7b226e616d65223a2022434f56202360881b602086015280519081602f8701916020019161139692612e8c565b7f222c20226465736372697074696f6e223a2022434f56222c202267616d654964602f9186019182015263111d101160e11b604f8201528151916113e39083906053840190602001612e8c565b01602f01906c1116101134b6b0b3b2911d101160991b60248301525191826031830161140e92612e8c565b0160240161227d60f01b600d82015203600d01601d19810182526002016114359082612f3a565b61143e9061342d565b61010051518091602082017f646174613a6170706c69636174696f6e2f6a736f6e3b6261736536342c000000905280519081603d8401916020019161148292612e8c565b810103603d01601f19810182526114999082612f3a565b6101005151809160208252602082016114b191612eaf565b0390f35b60f81c81526020018c610884565b92602060019160ff8560f01c16815201930161087e565b92602060019160ff8560e81c168152019301610876565b92602060019160ff8560e01c16815201930161086e565b92602060019160ff8560d81c168152019301610866565b92602060019160ff8560d01c16815201930161085e565b92602060019160ff8560c81c168152019301610856565b92602060019160ff8560c01c16815201930161084e565b92602060019160ff8560b81c168152019301610846565b92602060019160ff8560b01c16815201930161083e565b92602060019160ff8560a81c168152019301610836565b92602060019160ff8560a01c16815201930161082e565b92602060019160ff8560981c168152019301610826565b92602060019160ff8560901c16815201930161081e565b92602060019160ff8560881c168152019301610816565b92602060019160ff8560801c16815201930161080e565b92602060019160ff8560781c168152019301610806565b92602060019160ff8560701c1681520193016107fe565b92602060019160ff8560681c1681520193016107f6565b92602060019160ff8560601c1681520193016107ee565b92602060019160ff8560581c1681520193016107e6565b92602060019160ff8560501c1681520193016107de565b92602060019160ff8560481c1681520193016107d6565b92602060019160ff85610100511c1681520193016107ce565b92602060019160ff8560381c1681520193016107c6565b92602060019160ff8560301c1681520193016107be565b92602060019160ff8560281c1681520193016107b6565b92602060019160ff85831c1681520193016107ae565b92602060019160ff8560181c1681520193016107a6565b92602060019160ff8560101c16815201930161079e565b92602060019160ff8560081c168152019301610796565b92602060019160ff8516815201930161078e565b916020919350610400600191865460ff8116825260ff8160081c168583015260ff8160101c166101005183015260ff8160181c16606083015260ff81861c16608083015260ff8160281c1660a083015260ff8160301c1660c083015260ff8160381c1660e083015260ff81610100511c1661010083015260ff8160481c1661012083015260ff8160501c1661014083015260ff8160581c1661016083015260ff8160601c1661018083015260ff8160681c166101a083015260ff8160701c166101c083015260ff8160781c166101e083015260ff8160801c1661020083015260ff8160881c1661022083015260ff8160901c1661024083015260ff8160981c1661026083015260ff8160a01c1661028083015260ff8160a81c166102a083015260ff8160b01c166102c083015260ff8160b81c166102e083015260ff8160c01c1661030083015260ff8160c81c1661032083015260ff8160d01c1661034083015260ff8160d81c1661036083015260ff8160e01c1661038083015260ff8160e81c166103a083015260ff8160f01c166103c083015260f81c6103e0820152019401920188929391610776565b60f81c81526020018b61073c565b92602060019160ff8560f01c168152019301610736565b92602060019160ff8560e81c16815201930161072e565b92602060019160ff8560e01c168152019301610726565b92602060019160ff8560d81c16815201930161071e565b92602060019160ff8560d01c168152019301610716565b92602060019160ff8560c81c16815201930161070e565b92602060019160ff8560c01c168152019301610706565b92602060019160ff8560b81c1681520193016106fe565b92602060019160ff8560b01c1681520193016106f6565b92602060019160ff8560a81c1681520193016106ee565b92602060019160ff8560a01c1681520193016106e6565b92602060019160ff8560981c1681520193016106de565b92602060019160ff8560901c1681520193016106d6565b92602060019160ff8560881c1681520193016106ce565b92602060019160ff8560801c1681520193016106c6565b92602060019160ff8560781c1681520193016106be565b92602060019160ff8560701c1681520193016106b6565b92602060019160ff8560681c1681520193016106ae565b92602060019160ff8560601c1681520193016106a6565b92602060019160ff8560581c16815201930161069e565b92602060019160ff8560501c168152019301610696565b92602060019160ff8560481c16815201930161068e565b92602060019160ff85610100511c168152019301610686565b92602060019160ff8560381c16815201930161067e565b92602060019160ff8560301c168152019301610676565b92602060019160ff8560281c16815201930161066e565b92602060019160ff85831c168152019301610666565b92602060019160ff8560181c16815201930161065e565b92602060019160ff8560101c168152019301610656565b92602060019160ff8560081c16815201930161064e565b92602060019160ff85168152019301610646565b916020919350610400600191865460ff8116825260ff8160081c168583015260ff8160101c166101005183015260ff8160181c16606083015260ff81861c16608083015260ff8160281c1660a083015260ff8160301c1660c083015260ff8160381c1660e083015260ff81610100511c1661010083015260ff8160481c1661012083015260ff8160501c1661014083015260ff8160581c1661016083015260ff8160601c1661018083015260ff8160681c166101a083015260ff8160701c166101c083015260ff8160781c166101e083015260ff8160801c1661020083015260ff8160881c1661022083015260ff8160901c1661024083015260ff8160981c1661026083015260ff8160a01c1661028083015260ff8160a81c166102a083015260ff8160b01c166102c083015260ff8160b81c166102e083015260ff8160c01c1661030083015260ff8160c81c1661032083015260ff8160d01c1661034083015260ff8160d81c1661036083015260ff8160e01c1661038083015260ff8160e81c166103a083015260ff8160f01c166103c083015260f81c6103e082015201940192018992939161062e565b90919297611dc58986613170565b90549060031b1c9060018a01808b1161099657611de29087613170565b90549060031b1c611df16133ba565b92906000198101818111915b8a878a838710611ed7575050505050505090611ecd604d6009600194602061010051519582611e358894518092858088019101612e8c565b8301681e3830ba3410321e9160b91b83820152611e5b8251809385602985019101612e8c565b01017f2220636c6173733d2274726176656c22206d61726b65722d73746172743d2275838201527f726c28237368697053746172742922206d61726b65722d656e643d2275726c2860298201526c11b9b434b822b732149110179f60991b60498201520301602d810184520182612f3a565b9801929190610562565b611f15611f1c9387989a9596979360ff611f078d82611ef982611f2299613196565b90549060031b1c1693613196565b90549060031b1c1690613756565b93906136bd565b926136bd565b906109965760019283611f44926000888c1060001461097d57506109036133da565b9501929190611dfd565b903d8082843e611f5e8184612f3a565b82019160208184031261209d578051906001600160401b038211612085570182601f8201121561209d578051916001600160401b03831161208957610100515193611faf60208560051b0186612f3a565b838552602060a081870195028401019281841161208557602001935b838510611fdd575050505050826102a5565b60a08583031261208557610100515160a081018181106001600160401b0382111761207157610100515261201086613387565b815261201e60208701613387565b6020820152612031610100518701613395565b6101005182015261204460608701613395565b60608201526080860151801515810361206d576080820152815260a09490940193602001611fcb565b8480fd5b634e487b7160e01b85526041600452602485fd5b8280fd5b634e487b7160e01b81526041600452602490fd5b5080fd5b61010051513d6000823e3d90fd5b3461019157610160366003190112610191576120c9612ed4565b6080526064356001600160401b038111610191576120eb903690600401612f76565b906084356001600160401b0381116101915761210b903690600401612f76565b9160a4356001600160401b0381116101915761212b903690600401612f76565b60c4356001600160401b0381116101915761214a903690600401612f76565b9060e4356001600160401b0381116101915761216a903690600401612f76565b949093610104356001600160401b0381116101915761218d903690600401612f76565b979098610124356001600160401b038111610191576121b0903690600401612f76565b60c0529a610144356001600160401b038111610191576121d4903690600401612f76565b60a052600754909d906001600160a01b031633036127d457818103612780578988036127295760018501808611610996578b036126eb57602060e0819052604051906122209082612f3a565b600081526080516001600160a01b0316156126d557602435600090815260e0516002905260408120546001600160a01b03168015159182612691575b608080516001600160a01b03908116835260e08051600390526040808520805460010190556024358086529151600290528420925183546001600160a01b0319169216918217909255909183907fddf252ad1be2c89b69c2b068fc378daa952ba7f163c4a11628f55a4df523b3ef9080a45061267b576080513b612538575b50602435600052600860e0515260443560406000205560005b8181106124d357505050505060005b8181106124645750505060005b8281106124395750505060005b82811061240e5750505060005b81811061239e5750505060005b60c051811061234257005b600190602435600052600b60e05152612374604060002061236e6123698460c0518861313c565b613188565b906131b6565b602435600052600c60e05152612398604060002061236e6123698460a0518961313c565b01612337565b602435600052600d60e051526040600020906123bb81848661313c565b35825492600160401b8410156123f857836123dc9160018096018155613170565b819291549060031b91821b91600019901b19161790550161232a565b634e487b7160e01b600052604160045260246000fd5b600190602435600052600c60e05152612433604060002061236e61236984888861313c565b0161231d565b600190602435600052600b60e0515261245e604060002061236e61236984888861313c565b01612310565b602435600052600a60e0515260406000209061248181848661313c565b356001600160a01b0381169081900361019157825492600160401b8410156123f857836124b49160018096018155613170565b819291549060031b91821b91858060a01b03901b191617905501612303565b8060406124eb6124e6600194868a61313c565b613162565b63ffff000061ffff6125016124e6868a8c61313c565b169160101b1617602435600052600960e051528160002063ffffffff60009216825260e05152208260ff19825416179055016122f4565b60405190630a85bd0160e11b825233600483015260006024830152602435604483015260806064830152818061257560e051936084830190612eaf565b0381600060018060a01b03608051165af18091600091612635575b50906125f7573d156125f0573d6125a681612f5b565b906125b46040519283612f3a565b81528060003d9160e051013e5b805190816125ea57633250574960e11b60009081526080516001600160a01b0316600452602490fd5b60e05101fd5b60606125c1565b6001600160e01b03191663757a42ff60e11b01612614578e6122db565b633250574960e11b60009081526080516001600160a01b0316600452602490fd5b60e0513d8111612674575b61264a8183612f3a565b8160e051918101031261209d5751906001600160e01b031982168203612671575038612590565b80fd5b503d612640565b6339e3563760e11b600052600060045260246000fd5b6126bb602435600052600460205260406000206bffffffffffffffffffffffff60a01b8154169055565b818152600360e0515260408120600019815401905561225c565b633250574960e11b600052600060045260246000fd5b60405162461bcd60e51b8152602060048201526016602482015275092dcecc2d8d2c840d2dcc8d2c6cae640d8cadccee8d60531b6044820152606490fd5b60405162461bcd60e51b815260206004820152602960248201527f4d6f76656d656e7420617272617973206d7573742068617665207468652073616044820152680daca40d8cadccee8d60bb1b6064820152608490fd5b60405162461bcd60e51b815260206004820152602660248201527f496e70757420617272617973206d7573742068617665207468652073616d65206044820152650d8cadccee8d60d31b6064820152608490fd5b6308af8d7160e41b6000523360045260246000fd5b3461019157608036600319011261019157612802612ed4565b61280a612eea565b90604435606435926001600160401b03841161019157366023850112156101915783600401359261283a84612f5b565b936128486040519586612f3a565b808552366024828801011161019157602081600092602461287c99018389013786010152612877838383612fa6565b61324b565b005b3461019157604036600319011261019157612897612ed4565b60243590811515809203610191576001600160a01b031690811561290a57336000526005602052604060002082600052602052604060002060ff1981541660ff83161790556040519081527f17307eab39ab6107e8899845ad3d59bd9653f200f220920489ca2b5937696c3160203392a3005b50630b61174360e31b60005260045260246000fd5b34610191576040366003190112610191576004358060010b810361019157602435908160010b82036101915763ffff000061ffff602093169160101b161763ffffffff60405191168152f35b346101915760003660031901126101915760405160006001548060011c90600181168015612a6d575b602083108114612a5957828552908115612a3557506001146129d5575b6114b1836129c181850382612f3a565b604051918291602083526020830190612eaf565b91905060016000527fb10e2d527612073b26eecdfd717e6a320cf44b4afac2b0732d9fcbe2b7fa0cf6916000905b808210612a1b575090915081016020016129c16129b1565b919260018160209254838588010152019101909291612a03565b60ff191660208086019190915291151560051b840190910191506129c190506129b1565b634e487b7160e01b84526022600452602484fd5b91607f1691612994565b34610191576000366003190112610191576006546040516001600160a01b039091168152602090f35b3461019157600036600319011261019157612ab9613222565b600680546001600160a01b031981169091556000906001600160a01b03167f8be0079c531659141344cd1fd0a4f28419497f9722a3daafe3b4186f6b6457e08280a3005b34610191576020366003190112610191576001600160a01b03612b1e612ed4565b168015612b3d5760005260036020526020604060002054604051908152f35b6322718ad960e21b600052600060045260246000fd5b34610191576020366003190112610191576020612b716004356131eb565b6040516001600160a01b039091168152f35b346101915760203660031901126101915760043560005260086020526020604060002054604051908152f35b346101915761287c612bc036612f00565b9060405192612bd0602085612f3a565b60008452612877838383612fa6565b3461019157602036600319011261019157612bf8612ed4565b612c00613222565b600780546001600160a01b0319166001600160a01b0392909216919091179055005b346101915761287c612c3336612f00565b91612fa6565b3461019157604036600319011261019157612c52612ed4565b602435612c5e816131eb565b33151580612d15575b80612ce7575b612cd25781906001600160a01b0384811691167f8c5be1e5ebec7d5bd14f71427d1e84f3dd0314c0f7b2291e5b200ac8c7c3b925600080a4600090815260046020526040902080546001600160a01b0319166001600160a01b03909216919091179055005b63a9fbf51f60e01b6000523360045260246000fd5b506001600160a01b038116600090815260056020908152604080832033845290915290205460ff1615612c6d565b506001600160a01b038116331415612c67565b3461019157602036600319011261019157600435612d45816131eb565b506000526004602052602060018060a01b0360406000205416604051908152f35b3461019157600036600319011261019157604051600080548060011c90600181168015612e17575b602083108114612a5957828552908115612a355750600114612dba576114b1836129c181850382612f3a565b60008080527f290decd9548b62a8d60345a988386fc84ba6bc95484008f6362f93160ef3e563939250905b808210612dfd575090915081016020016129c16129b1565b919260018160209254838588010152019101909291612de5565b91607f1691612d8e565b34610191576020366003190112610191576004359063ffffffff60e01b8216809203610191576020916380ac58cd60e01b8114908115612e7b575b8115612e6a575b5015158152f35b6301ffc9a760e01b14905083612e63565b635b5e139f60e01b81149150612e5c565b60005b838110612e9f5750506000910152565b8181015183820152602001612e8f565b90602091612ec881518092818552858086019101612e8c565b601f01601f1916010190565b600435906001600160a01b038216820361019157565b602435906001600160a01b038216820361019157565b6060906003190112610191576004356001600160a01b038116810361019157906024356001600160a01b0381168103610191579060443590565b90601f801991011681019081106001600160401b038211176123f857604052565b6001600160401b0381116123f857601f01601f191660200190565b9181601f84011215610191578235916001600160401b038311610191576020808501948460051b01011161019157565b6001600160a01b03909116919082156126d5576000828152600260205260408120546001600160a01b03169383918590331515806130a4575b507fddf252ad1be2c89b69c2b068fc378daa952ba7f163c4a11628f55a4df523b3ef908261306f575b83815260036020526040812060018154019055848152600260205260408120846bffffffffffffffffffffffff60a01b82541617905580a46001600160a01b031680830361305557505050565b6364283d7b60e01b60005260045260245260445260646000fd5b600085815260046020526040902080546001600160a01b03191690558281526003602052604081208054600019019055613008565b9150919250806130ed575b156130be579084849238612fdf565b8390856130d757602491637e27328960e01b8252600452fd5b60449163177e802f60e01b825233600452602452fd5b50338514801561311b575b806130af5750838152600460205260408120546001600160a01b031633146130af565b5084815260056020908152604080832033845290915281205460ff166130f8565b919081101561314c5760051b0190565b634e487b7160e01b600052603260045260246000fd5b358060010b81036101915790565b805482101561314c5760005260206000200190600090565b3560ff811681036101915790565b919091805483101561314c57600052601f60206000208360051c01921690565b8054600160401b8110156123f8576131d391600182018155613196565b60ff80839493549260031b9316831b921b1916179055565b6000818152600260205260409020546001600160a01b031690811561320e575090565b637e27328960e01b60005260045260246000fd5b6006546001600160a01b0316330361323657565b63118cdaa760e01b6000523360045260246000fd5b9291813b61325a575b50505050565b604051630a85bd0160e11b81523360048201526001600160a01b03948516602482015260448101919091526080606482015292169190602090829081906132a5906084830190612eaf565b03816000865af18091600091613344575b509061330f57503d15613308573d6132cd81612f5b565b906132db6040519283612f3a565b81523d6000602083013e5b805190816133035782633250574960e11b60005260045260246000fd5b602001fd5b60606132e6565b6001600160e01b03191663757a42ff60e11b01613330575038808080613254565b633250574960e11b60005260045260246000fd5b6020813d60201161337f575b8161335d60209383612f3a565b8101031261209d5751906001600160e01b0319821682036126715750386132b6565b3d9150613350565b51908160010b820361019157565b519063ffffffff8216820361019157565b805182101561314c5760209160051b010190565b604051906133c9604083612f3a565b6002825261026960f51b6020830152565b604051906133e9604083612f3a565b600382526201026160ed1b6020830152565b9061340582612f5b565b6134126040519182612f3a565b8281528092613423601f1991612f5b565b0190602036910137565b80511561355d57604051613442606082612f3a565b604081527f4142434445464748494a4b4c4d4e4f505152535455565758595a61626364656660208201527f6768696a6b6c6d6e6f707172737475767778797a303132333435363738392b2f604082015281516002810180911161099657600390046001600160fe1b0381168103610996576134bf9060021b6133fb565b916020830191819082518301915b82811061350d575050506003905106806001146134fa576002146134ef575090565b603d90600019015390565b50603d9081600019820153600119015390565b60036004919592939501916001603f845182828260121c16880101518453828282600c1c16880101518385015382828260061c1688010151600285015316850101516003820153019391906134cd565b5060405161356c602082612f3a565b6000815290565b8060009172184f03e93ff9f4daa797ed6e38ed64bf6a1f0160401b82101561369a575b806d04ee2d6d415b85acef8100000000600a92101561367f575b662386f26fc1000081101561366b575b6305f5e10081101561365a575b61271081101561364b575b606481101561363d575b1015613632575b600a60216135f9600185016133fb565b938401015b60001901916f181899199a1a9b1b9c1cb0b131b232b360811b8282061a835304801561362d57600a90916135fe565b505090565b6001909101906135e9565b6064600291049301926135e2565b612710600491049301926135d8565b6305f5e100600891049301926135cd565b662386f26fc10000601091049301926135c0565b6d04ee2d6d415b85acef8100000000602091049301926135b0565b506040915072184f03e93ff9f4daa797ed6e38ed64bf6a1f0160401b8104613596565b63ffffffff16620f4240808204910690811561374c575b600a8206156137415760016136f46136ee61373e93613573565b93613573565b926020604051948261370f8794518092858088019101612e8c565b8301601760f91b8382015261372d8251809385602185019101612e8c565b01010301601f198101835282612f3a565b90565b90600a9004906136d4565b61373e9150613573565b60ff8091949293941660010b921660010b60005b84518110156137de578361377e82876133a6565b515160010b14806137c4575b6137965760010161376a565b63ffffffff92935060609150808360406137b36137bd94896133a6565b51015116956133a6565b5101511690565b508160206137d283886133a6565b51015160010b1461378a565b60405162461bcd60e51b815260206004820152600e60248201526d10d95b1b081b9bdd08199bdd5b9960921b6044820152606490fdfea2646970667358221220587a4c9d7235b3b260504ecd8488c3034aff118c9af058810c9c3d6dc94fd93364736f6c634300081b0033",
    "linkReferences": {
        "contracts/CellData.sol": {
            "CellData": [
                {
                    "length": 20,
                    "start": 1601
                }
            ]
        }
    },
    "deployedLinkReferences": {
        "contracts/CellData.sol": {
            "CellData": [
                {
                    "length": 20,
                    "start": 641
                }
            ]
        }
    }
}