{
  "_format": "hh-sol-artifact-1",
  "contractName": "GamePunk",
  "sourceName": "contracts/GamePunk.sol",
  "abi": [
    {
      "inputs": [
        {
          "internalType": "address",
          "name": "_mapAddress",
          "type": "address"
        },
        {
          "internalType": "address",
          "name": "_punkshipsAddress",
          "type": "address"
        }
      ],
      "stateMutability": "nonpayable",
      "type": "constructor"
    },
    {
      "inputs": [
        {
          "internalType": "address",
          "name": "player",
          "type": "address"
        },
        {
          "internalType": "uint256",
          "name": "tokenId",
          "type": "uint256"
        }
      ],
      "name": "NotOwnerOfShip",
      "type": "error"
    },
    {
      "inputs": [
        {
          "internalType": "address",
          "name": "owner",
          "type": "address"
        }
      ],
      "name": "OwnableInvalidOwner",
      "type": "error"
    },
    {
      "inputs": [
        {
          "internalType": "address",
          "name": "account",
          "type": "address"
        }
      ],
      "name": "OwnableUnauthorizedAccount",
      "type": "error"
    },
    {
      "inputs": [
        {
          "internalType": "address",
          "name": "player",
          "type": "address"
        },
        {
          "internalType": "uint8",
          "name": "q",
          "type": "uint8"
        },
        {
          "internalType": "uint8",
          "name": "r",
          "type": "uint8"
        }
      ],
      "name": "ShipAlreadyAdded",
      "type": "error"
    },
    {
      "anonymous": false,
      "inputs": [
        {
          "indexed": false,
          "internalType": "uint256",
          "name": "gameId",
          "type": "uint256"
        },
        {
          "indexed": false,
          "internalType": "uint8",
          "name": "q",
          "type": "uint8"
        },
        {
          "indexed": false,
          "internalType": "uint8",
          "name": "r",
          "type": "uint8"
        },
        {
          "indexed": false,
          "internalType": "bool",
          "name": "island",
          "type": "bool"
        }
      ],
      "name": "Cell",
      "type": "event"
    },
    {
      "anonymous": false,
      "inputs": [
        {
          "indexed": false,
          "internalType": "uint256",
          "name": "gameId",
          "type": "uint256"
        }
      ],
      "name": "CommitPhaseStarted",
      "type": "event"
    },
    {
      "anonymous": false,
      "inputs": [
        {
          "indexed": false,
          "internalType": "uint256",
          "name": "gameId",
          "type": "uint256"
        }
      ],
      "name": "GameEnded",
      "type": "event"
    },
    {
      "anonymous": false,
      "inputs": [
        {
          "indexed": false,
          "internalType": "uint256",
          "name": "gameId",
          "type": "uint256"
        }
      ],
      "name": "GameStarted",
      "type": "event"
    },
    {
      "anonymous": false,
      "inputs": [
        {
          "indexed": true,
          "internalType": "bool",
          "name": "gameStatus",
          "type": "bool"
        },
        {
          "indexed": true,
          "internalType": "address",
          "name": "winnerAddress",
          "type": "address"
        },
        {
          "indexed": false,
          "internalType": "uint256",
          "name": "gameId",
          "type": "uint256"
        }
      ],
      "name": "GameUpdated",
      "type": "event"
    },
    {
      "anonymous": false,
      "inputs": [
        {
          "indexed": true,
          "internalType": "address",
          "name": "winner",
          "type": "address"
        },
        {
          "indexed": false,
          "internalType": "uint256",
          "name": "gameId",
          "type": "uint256"
        }
      ],
      "name": "GameWinner",
      "type": "event"
    },
    {
      "anonymous": false,
      "inputs": [
        {
          "indexed": false,
          "internalType": "uint8",
          "name": "radius",
          "type": "uint8"
        },
        {
          "indexed": false,
          "internalType": "uint256",
          "name": "gameId",
          "type": "uint256"
        }
      ],
      "name": "MapInitialized",
      "type": "event"
    },
    {
      "anonymous": false,
      "inputs": [
        {
          "indexed": false,
          "internalType": "uint256",
          "name": "gameId",
          "type": "uint256"
        }
      ],
      "name": "MapShrink",
      "type": "event"
    },
    {
      "anonymous": false,
      "inputs": [
        {
          "indexed": true,
          "internalType": "address",
          "name": "player",
          "type": "address"
        },
        {
          "indexed": false,
          "internalType": "uint256",
          "name": "gameId",
          "type": "uint256"
        }
      ],
      "name": "MoveCommitted",
      "type": "event"
    },
    {
      "anonymous": false,
      "inputs": [
        {
          "indexed": true,
          "internalType": "address",
          "name": "player",
          "type": "address"
        },
        {
          "indexed": false,
          "internalType": "uint256",
          "name": "gameId",
          "type": "uint256"
        },
        {
          "indexed": false,
          "internalType": "uint256",
          "name": "roundId",
          "type": "uint256"
        },
        {
          "indexed": false,
          "internalType": "uint8",
          "name": "destQ",
          "type": "uint8"
        },
        {
          "indexed": false,
          "internalType": "uint8",
          "name": "destR",
          "type": "uint8"
        },
        {
          "indexed": false,
          "internalType": "uint8",
          "name": "shotQ",
          "type": "uint8"
        },
        {
          "indexed": false,
          "internalType": "uint8",
          "name": "shotR",
          "type": "uint8"
        }
      ],
      "name": "MoveSubmitted",
      "type": "event"
    },
    {
      "anonymous": false,
      "inputs": [
        {
          "indexed": false,
          "internalType": "uint256",
          "name": "gameId",
          "type": "uint256"
        },
        {
          "indexed": false,
          "internalType": "uint256",
          "name": "roundId",
          "type": "uint256"
        },
        {
          "indexed": false,
          "internalType": "uint8",
          "name": "radius",
          "type": "uint8"
        }
      ],
      "name": "NewRound",
      "type": "event"
    },
    {
      "anonymous": false,
      "inputs": [
        {
          "indexed": true,
          "internalType": "address",
          "name": "previousOwner",
          "type": "address"
        },
        {
          "indexed": true,
          "internalType": "address",
          "name": "newOwner",
          "type": "address"
        }
      ],
      "name": "OwnershipTransferred",
      "type": "event"
    },
    {
      "anonymous": false,
      "inputs": [
        {
          "indexed": true,
          "internalType": "address",
          "name": "player",
          "type": "address"
        },
        {
          "indexed": false,
          "internalType": "uint256",
          "name": "gameId",
          "type": "uint256"
        },
        {
          "indexed": false,
          "internalType": "uint256",
          "name": "punkshipId",
          "type": "uint256"
        },
        {
          "indexed": false,
          "internalType": "uint8",
          "name": "q",
          "type": "uint8"
        },
        {
          "indexed": false,
          "internalType": "uint8",
          "name": "r",
          "type": "uint8"
        },
        {
          "indexed": false,
          "internalType": "uint8",
          "name": "speed",
          "type": "uint8"
        },
        {
          "indexed": false,
          "internalType": "uint8",
          "name": "range",
          "type": "uint8"
        },
        {
          "indexed": false,
          "internalType": "string",
          "name": "image",
          "type": "string"
        }
      ],
      "name": "PlayerAdded",
      "type": "event"
    },
    {
      "anonymous": false,
      "inputs": [
        {
          "indexed": true,
          "internalType": "address",
          "name": "player",
          "type": "address"
        },
        {
          "indexed": false,
          "internalType": "uint256",
          "name": "gameId",
          "type": "uint256"
        }
      ],
      "name": "PlayerDefeated",
      "type": "event"
    },
    {
      "anonymous": false,
      "inputs": [
        {
          "indexed": true,
          "internalType": "address",
          "name": "captain",
          "type": "address"
        },
        {
          "indexed": false,
          "internalType": "uint256",
          "name": "gameId",
          "type": "uint256"
        },
        {
          "indexed": false,
          "internalType": "uint8",
          "name": "q",
          "type": "uint8"
        },
        {
          "indexed": false,
          "internalType": "uint8",
          "name": "r",
          "type": "uint8"
        }
      ],
      "name": "ShipCollidedWithIsland",
      "type": "event"
    },
    {
      "anonymous": false,
      "inputs": [
        {
          "indexed": true,
          "internalType": "address",
          "name": "victim",
          "type": "address"
        },
        {
          "indexed": true,
          "internalType": "address",
          "name": "attacker",
          "type": "address"
        },
        {
          "indexed": false,
          "internalType": "uint256",
          "name": "gameId",
          "type": "uint256"
        }
      ],
      "name": "ShipHit",
      "type": "event"
    },
    {
      "anonymous": false,
      "inputs": [
        {
          "indexed": true,
          "internalType": "address",
          "name": "captain",
          "type": "address"
        },
        {
          "indexed": false,
          "internalType": "uint8",
          "name": "initialQ",
          "type": "uint8"
        },
        {
          "indexed": false,
          "internalType": "uint8",
          "name": "initialR",
          "type": "uint8"
        },
        {
          "indexed": false,
          "internalType": "uint8",
          "name": "q",
          "type": "uint8"
        },
        {
          "indexed": false,
          "internalType": "uint8",
          "name": "r",
          "type": "uint8"
        },
        {
          "indexed": false,
          "internalType": "uint256",
          "name": "gameId",
          "type": "uint256"
        }
      ],
      "name": "ShipMoved",
      "type": "event"
    },
    {
      "anonymous": false,
      "inputs": [
        {
          "indexed": true,
          "internalType": "address",
          "name": "captain",
          "type": "address"
        },
        {
          "indexed": false,
          "internalType": "uint256",
          "name": "gameId",
          "type": "uint256"
        }
      ],
      "name": "ShipMovedInGame",
      "type": "event"
    },
    {
      "anonymous": false,
      "inputs": [
        {
          "indexed": true,
          "internalType": "address",
          "name": "captain",
          "type": "address"
        },
        {
          "indexed": false,
          "internalType": "uint8",
          "name": "fromQ",
          "type": "uint8"
        },
        {
          "indexed": false,
          "internalType": "uint8",
          "name": "fromR",
          "type": "uint8"
        },
        {
          "indexed": false,
          "internalType": "uint8",
          "name": "shotQ",
          "type": "uint8"
        },
        {
          "indexed": false,
          "internalType": "uint8",
          "name": "shotR",
          "type": "uint8"
        },
        {
          "indexed": false,
          "internalType": "uint256",
          "name": "gameId",
          "type": "uint256"
        }
      ],
      "name": "ShipShot",
      "type": "event"
    },
    {
      "anonymous": false,
      "inputs": [
        {
          "indexed": true,
          "internalType": "address",
          "name": "captain",
          "type": "address"
        },
        {
          "indexed": false,
          "internalType": "uint256",
          "name": "gameId",
          "type": "uint256"
        }
      ],
      "name": "ShipSunk",
      "type": "event"
    },
    {
      "anonymous": false,
      "inputs": [
        {
          "indexed": true,
          "internalType": "address",
          "name": "captain",
          "type": "address"
        },
        {
          "indexed": false,
          "internalType": "uint256",
          "name": "gameId",
          "type": "uint256"
        }
      ],
      "name": "ShipSunkOutOfMap",
      "type": "event"
    },
    {
      "anonymous": false,
      "inputs": [
        {
          "indexed": false,
          "internalType": "uint256",
          "name": "gameId",
          "type": "uint256"
        },
        {
          "indexed": false,
          "internalType": "uint256",
          "name": "round",
          "type": "uint256"
        }
      ],
      "name": "SubmitPhaseStarted",
      "type": "event"
    },
    {
      "anonymous": false,
      "inputs": [
        {
          "indexed": false,
          "internalType": "uint256",
          "name": "gameId",
          "type": "uint256"
        }
      ],
      "name": "WorldUpdated",
      "type": "event"
    },
    {
      "inputs": [
        {
          "internalType": "address",
          "name": "playerAddress",
          "type": "address"
        },
        {
          "internalType": "uint256",
          "name": "gameId",
          "type": "uint256"
        },
        {
          "internalType": "uint256",
          "name": "_punkshipId",
          "type": "uint256"
        }
      ],
      "name": "addShip",
      "outputs": [],
      "stateMutability": "nonpayable",
      "type": "function"
    },
    {
      "inputs": [
        {
          "internalType": "bytes32",
          "name": "moveHash",
          "type": "bytes32"
        },
        {
          "internalType": "uint256",
          "name": "gameId",
          "type": "uint256"
        }
      ],
      "name": "commitMove",
      "outputs": [],
      "stateMutability": "nonpayable",
      "type": "function"
    },
    {
      "inputs": [
        {
          "internalType": "uint256",
          "name": "gameId",
          "type": "uint256"
        }
      ],
      "name": "endGame",
      "outputs": [],
      "stateMutability": "nonpayable",
      "type": "function"
    },
    {
      "inputs": [
        {
          "internalType": "uint256",
          "name": "",
          "type": "uint256"
        }
      ],
      "name": "games",
      "outputs": [
        {
          "internalType": "uint256",
          "name": "round",
          "type": "uint256"
        },
        {
          "internalType": "uint8",
          "name": "shrinkNo",
          "type": "uint8"
        },
        {
          "internalType": "bool",
          "name": "gameInProgress",
          "type": "bool"
        },
        {
          "internalType": "bool",
          "name": "stopAddingShips",
          "type": "bool"
        },
        {
          "internalType": "bool",
          "name": "letCommitMoves",
          "type": "bool"
        },
        {
          "internalType": "bool",
          "name": "letSubmitMoves",
          "type": "bool"
        }
      ],
      "stateMutability": "view",
      "type": "function"
    },
    {
      "inputs": [
        {
          "components": [
            {
              "internalType": "uint8",
              "name": "q",
              "type": "uint8"
            },
            {
              "internalType": "uint8",
              "name": "r",
              "type": "uint8"
            }
          ],
          "internalType": "struct SharedStructs.Coordinate",
          "name": "_coord",
          "type": "tuple"
        },
        {
          "internalType": "uint256",
          "name": "gameId",
          "type": "uint256"
        }
      ],
      "name": "getCell",
      "outputs": [
        {
          "components": [
            {
              "internalType": "uint8",
              "name": "q",
              "type": "uint8"
            },
            {
              "internalType": "uint8",
              "name": "r",
              "type": "uint8"
            },
            {
              "internalType": "bool",
              "name": "island",
              "type": "bool"
            },
            {
              "internalType": "bool",
              "name": "exists",
              "type": "bool"
            }
          ],
          "internalType": "struct SharedStructs.Cell",
          "name": "",
          "type": "tuple"
        }
      ],
      "stateMutability": "view",
      "type": "function"
    },
    {
      "inputs": [
        {
          "internalType": "uint256",
          "name": "gameId",
          "type": "uint256"
        }
      ],
      "name": "getCells",
      "outputs": [
        {
          "components": [
            {
              "internalType": "uint8",
              "name": "q",
              "type": "uint8"
            },
            {
              "internalType": "uint8",
              "name": "r",
              "type": "uint8"
            }
          ],
          "internalType": "struct SharedStructs.Coordinate[]",
          "name": "",
          "type": "tuple[]"
        }
      ],
      "stateMutability": "view",
      "type": "function"
    },
    {
      "inputs": [
        {
          "internalType": "uint256",
          "name": "gameId",
          "type": "uint256"
        }
      ],
      "name": "getRadius",
      "outputs": [
        {
          "internalType": "uint8",
          "name": "",
          "type": "uint8"
        }
      ],
      "stateMutability": "view",
      "type": "function"
    },
    {
      "inputs": [
        {
          "internalType": "uint256",
          "name": "gameId",
          "type": "uint256"
        }
      ],
      "name": "getShips",
      "outputs": [
        {
          "components": [
            {
              "components": [
                {
                  "internalType": "uint8",
                  "name": "q",
                  "type": "uint8"
                },
                {
                  "internalType": "uint8",
                  "name": "r",
                  "type": "uint8"
                }
              ],
              "internalType": "struct SharedStructs.Coordinate",
              "name": "coordinate",
              "type": "tuple"
            },
            {
              "internalType": "enum SharedStructs.Directions",
              "name": "travelDirection",
              "type": "uint8"
            },
            {
              "internalType": "uint8",
              "name": "travelDistance",
              "type": "uint8"
            },
            {
              "internalType": "enum SharedStructs.Directions",
              "name": "shotDirection",
              "type": "uint8"
            },
            {
              "internalType": "uint8",
              "name": "shotDistance",
              "type": "uint8"
            },
            {
              "internalType": "bool",
              "name": "publishedMove",
              "type": "bool"
            },
            {
              "internalType": "address",
              "name": "captain",
              "type": "address"
            },
            {
              "internalType": "uint8",
              "name": "yachtSpeed",
              "type": "uint8"
            },
            {
              "internalType": "uint8",
              "name": "yachtRange",
              "type": "uint8"
            },
            {
              "internalType": "uint256",
              "name": "gameId",
              "type": "uint256"
            }
          ],
          "internalType": "struct GamePunk.Ship[]",
          "name": "",
          "type": "tuple[]"
        }
      ],
      "stateMutability": "view",
      "type": "function"
    },
    {
      "inputs": [
        {
          "components": [
            {
              "internalType": "uint8",
              "name": "q",
              "type": "uint8"
            },
            {
              "internalType": "uint8",
              "name": "r",
              "type": "uint8"
            }
          ],
          "internalType": "struct SharedStructs.Coordinate",
          "name": "_start",
          "type": "tuple"
        },
        {
          "internalType": "enum SharedStructs.Directions",
          "name": "_dir",
          "type": "uint8"
        },
        {
          "internalType": "uint8",
          "name": "_distance",
          "type": "uint8"
        },
        {
          "internalType": "uint256",
          "name": "gameId",
          "type": "uint256"
        }
      ],
      "name": "move",
      "outputs": [
        {
          "components": [
            {
              "internalType": "uint8",
              "name": "q",
              "type": "uint8"
            },
            {
              "internalType": "uint8",
              "name": "r",
              "type": "uint8"
            }
          ],
          "internalType": "struct SharedStructs.Coordinate",
          "name": "",
          "type": "tuple"
        }
      ],
      "stateMutability": "view",
      "type": "function"
    },
    {
      "inputs": [],
      "name": "owner",
      "outputs": [
        {
          "internalType": "address",
          "name": "",
          "type": "address"
        }
      ],
      "stateMutability": "view",
      "type": "function"
    },
    {
      "inputs": [],
      "name": "registrationContract",
      "outputs": [
        {
          "internalType": "address",
          "name": "",
          "type": "address"
        }
      ],
      "stateMutability": "view",
      "type": "function"
    },
    {
      "inputs": [],
      "name": "renounceOwnership",
      "outputs": [],
      "stateMutability": "nonpayable",
      "type": "function"
    },
    {
      "inputs": [
        {
          "internalType": "address",
          "name": "_registrationContract",
          "type": "address"
        }
      ],
      "name": "setRegistrationContract",
      "outputs": [],
      "stateMutability": "nonpayable",
      "type": "function"
    },
    {
      "inputs": [
        {
          "internalType": "uint256",
          "name": "gameId",
          "type": "uint256"
        },
        {
          "internalType": "uint8",
          "name": "_radius",
          "type": "uint8"
        }
      ],
      "name": "startNewGame",
      "outputs": [],
      "stateMutability": "nonpayable",
      "type": "function"
    },
    {
      "inputs": [
        {
          "internalType": "enum SharedStructs.Directions[]",
          "name": "_travelDirections",
          "type": "uint8[]"
        },
        {
          "internalType": "uint8[]",
          "name": "_travelDistances",
          "type": "uint8[]"
        },
        {
          "internalType": "enum SharedStructs.Directions[]",
          "name": "_shotDirections",
          "type": "uint8[]"
        },
        {
          "internalType": "uint8[]",
          "name": "_shotDistances",
          "type": "uint8[]"
        },
        {
          "internalType": "uint8[]",
          "name": "_secrets",
          "type": "uint8[]"
        },
        {
          "internalType": "address[]",
          "name": "_playerAddresses",
          "type": "address[]"
        },
        {
          "internalType": "uint256",
          "name": "gameId",
          "type": "uint256"
        }
      ],
      "name": "submitMove",
      "outputs": [],
      "stateMutability": "nonpayable",
      "type": "function"
    },
    {
      "inputs": [
        {
          "internalType": "address",
          "name": "newOwner",
          "type": "address"
        }
      ],
      "name": "transferOwnership",
      "outputs": [],
      "stateMutability": "nonpayable",
      "type": "function"
    },
    {
      "inputs": [
        {
          "components": [
            {
              "internalType": "uint8",
              "name": "q",
              "type": "uint8"
            },
            {
              "internalType": "uint8",
              "name": "r",
              "type": "uint8"
            }
          ],
          "internalType": "struct SharedStructs.Coordinate",
          "name": "_startCell",
          "type": "tuple"
        },
        {
          "internalType": "enum SharedStructs.Directions",
          "name": "_direction",
          "type": "uint8"
        },
        {
          "internalType": "uint8",
          "name": "_distance",
          "type": "uint8"
        },
        {
          "internalType": "uint256",
          "name": "gameId",
          "type": "uint256"
        }
      ],
      "name": "travel",
      "outputs": [],
      "stateMutability": "nonpayable",
      "type": "function"
    },
    {
      "inputs": [
        {
          "internalType": "uint256",
          "name": "gameId",
          "type": "uint256"
        }
      ],
      "name": "updateWorld",
      "outputs": [],
      "stateMutability": "nonpayable",
      "type": "function"
    }
  ],
  "bytecode": "0x60c0346200015a57601f6200420438819003918201601f19168301916001600160401b038311848410176200015f5780849260409485528339810103126200015a576200005a6020620000528362000175565b920162000175565b903315620001415760008054336001600160a01b0319821681178355604051946001600160a01b0394909385939192918416907f8be0079c531659141344cd1fd0a4f28419497f9722a3daafe3b4186f6b6457e09080a3166080521660a05261407990816200018b823960805181818161041e015281816108c401528181611275015281816117620152818161209f0152818161228c015281816126f30152818161276d01528181612d0501528181612e6101528181613191015281816135660152613ef9015260a05181818161169e01528181611a3701528181611a8e0152611ae40152f35b604051631e4fbdf760e01b815260006004820152602490fd5b600080fd5b634e487b7160e01b600052604160045260246000fd5b51906001600160a01b03821682036200015a5756fe608080604052600436101561001357600080fd5b600090813560e01c908163117a5b90146136bd57508063183b1baf146134df5780631e522c3e146134b6578063261aff41146131435780634ab0aac914612d8e5780636b082eed14612cb3578063715018a614612c5957806378d59e05146129725780638da5cb5b1461294b5780639186b32d1461232257806394c1d2d9146122265780639cc45f3414612157578063b173a14714611fe1578063b39116fd14611630578063d0399bb8146115b2578063d3db03cc1461156d578063d837093c146101795763f2fde38b146100e757600080fd5b3461017657602036600319011261017657610100613923565b610108613939565b6001600160a01b0390811690811561015d57600054826bffffffffffffffffffffffff60a01b821617600055167f8be0079c531659141344cd1fd0a4f28419497f9722a3daafe3b4186f6b6457e0600080a380f35b604051631e4fbdf760e01b815260048101849052602490fd5b80fd5b503461017657602036600319011261017657610193613939565b600435815260016020526101b5600160ff6004604085200154161515146139c1565b6004358152600160205260408120600381540615611264575b50600435815260016020526101e96003604083200154613d60565b906004358152600160205260036040822001546102058161383d565b906102136040519283613792565b808252610222601f199161383d565b01366020830137815b60043583526001602052600360408420015460ff8216908110156102645790600161025961025f9385613b0d565b52613ca3565b61022b565b838584825b60043584526001602052604084206003810190815460ff841610156107865761029483600293613c2b565b60018060a01b0391549060031b1c166000520160205260018060a01b0360016040600020015460281c161561030a57600435845260016020526002604085206102e08360038301613c2b565b60018060a01b0391549060031b1c166000520160205260ff60016040600020015460201c16610318575b61031390613ca3565b610269565b600435845260016020526002604085206103358360038301613c2b565b60018060a01b0391549060031b1c16600052016020526040600020906004358552600160205260026040862061036e8360038301613c2b565b60018060a01b0391549060031b1c166000520160205260ff8060016040600020015416600435875260016020526002604088206103ae8560038301613c2b565b60018060a01b0391549060031b1c1660005201602052610405600160406000200154916103fb6040519663183b1baf60e01b8852600488019060ff60209154818116845260081c16910152565b604486019061381a565b60081c166064830152600435608483015260608260a4817f00000000000000000000000000000000000000000000000000000000000000006001600160a01b03165afa801561077b576103139286908792610749575b5061062c576105d0906004358752600160205260ff61048084600360408b2001613c2b565b60018060a01b0391549060031b1c1660043589526001602052600260408a206104ac8760038301613c2b565b60018060a01b0391549060031b1c16600052016020528160406000205416906004358a526001602052600260408b206104e88860038301613c2b565b60018060a01b0391549060031b1c16600052016020527f9db385e25deecca76e1e8dab29ae54e5c2f1707d2c611cfab0984b782e9f8a2c8360406000205460081c1684865116906105726020880195878751166040519485946004359386919360ff6080948180949998978160a088019b1687521660208601521660408401521660608201520152565b0390a260043589526001602052600260408a206105928760038301613c2b565b60018060a01b0391549060031b1c16600052016020528160406000209351168219845416178355511661ff0082549160081b169061ff001916179055565b600435855260016020526105ea8160036040882001613c2b565b60018060a01b0391549060031b1c167f4a5516f0f1d85471405ad39e7a960ba9a7b312f2bdc784a6dce8402611417fd660206040516004358152a2905061030a565b610744906004358752600160205261064a83600360408a2001613c2b565b60018060a01b0391549060031b1c167f2265cf35e234e961bc739ea7efb0e9751a34a8c56c1b547ff729d632c2ad21a0606060ff84511660ff60208601511660405191600435835260208301526040820152a2600435875260016020526106d4836106bb81600360408c2001613c2b565b9054600435929160031b1c6001600160a01b0316613de6565b866106e260ff851687613b0d565b52600435875260016020526002604088206107008560038301613c2b565b60018060a01b0391549060031b1c166000520160205260ff602060406000209282815116831985541617845501511661ff0082549160081b169061ff001916179055565b613ca3565b905061076d915060603d606011610774575b6107658183613792565b810190613dc1565b908761045b565b503d61075b565b6040513d87823e3d90fd5b505050825b6004358452600160205260036040852001549060ff811691821015610a86576107b48284613b0d565b516107c9575b6107c49150613ca3565b61078b565b60043585526001602052604085206107e48260038301613c2b565b939060018060a01b03948591549060031b1c166000526002809201602052604060002090600435885260016020528260408920866108258760038401613c2b565b90549060031b1c166000520160205260ff60016040600020015460101c16600435895260016020528360408a20876108608860038401613c2b565b90549060031b1c16600052016020526108b660ff60016040600020015460181c16916108ac6040519563d6192ad360e01b8752600487019060ff60209154818116845260081c16910152565b604485019061381a565b6064830152604082608481887f0000000000000000000000000000000000000000000000000000000000000000165afa918215610a7b578892610a12575b50906107c494610931838361092a7f1a5ee6632f2ff8b0f1e4bf31b540f744e4337da13603a9eac0072df00578c5a6968c613b0d565b5289613b0d565b50600435895260016020528061094d86600360408d2001613c2b565b90549060031b1c16936004358a5260016020528060408b20836109738960038401613c2b565b90549060031b1c166000520160205260ff60406000205416916004358b52600160205260408b20906109a88860038401613c2b565b90549060031b1c1660005201602052610a0a60ff60406000205460081c169160ff602081865116950151166040519485946004359386919360ff6080948180949998978160a088019b1687521660208601521660408401521660608201520152565b0390a26107ba565b915060403d604011610a74575b610a298184613792565b820194604083870312610a7057610931610a676107c4977f1a5ee6632f2ff8b0f1e4bf31b540f744e4337da13603a9eac0072df00578c5a695613ba7565b935050946108f4565b8880fd5b503d610a1f565b6040513d8a823e3d90fd5b505091805b60043581526001602052600360408220015460ff83161015610e9a57805b60043582526001602052600360408320015460ff82161015610e89578060ff610adb921660ff851603610ae057613ca3565b610aa9565b610aed60ff851687613b0d565b51151580610e73575b80610df5575b80610d70575b610c83575b610b1460ff851687613b0d565b51151580610c2f575b80610bd5575b15613ca35760043583526001602052610744610b458560036040872001613c2b565b9060018060a01b03918291549060031b1c166004358652600160205281610b7285600360408a2001613c2b565b90549060031b1c16907fbeaba0cb8f0bf4956e3f8756079b1aa20a9c7286167b8957d85188108991642d60206040516004358152a36004358552600160205285610bc28160036040892001613c2b565b60049391933593549060031b1c16613de6565b5060ff6020610be682841688613b0d565b5101511660043584526001602052600260408520610c078760038301613c2b565b60018060a01b0391549060031b1c166000520160205260ff60406000205460081c1614610b23565b5060ff610c3e81831687613b0d565b51511660043584526001602052600260408520610c5e8760038301613c2b565b60018060a01b0391549060031b1c166000520160205260ff6040600020541614610b1d565b82610c9160ff861688613b0d565b5282610ca060ff831688613b0d565b5260043583526001602052610d6b6020610cc08660036040882001613c2b565b905460405160043581526001600160a01b03937fd3530cd7a307ade37676af8529ec0105ea6204af5e1534bd5de42308107123719360031b9290921c8416918391a26004358652600160205281610d1d85600360408a2001613c2b565b90549060031b1c169060206040516004358152a260043585526001602052610d508187610bc281600360408b2001613c2b565b6004358552600160205282610bc28160036040892001613c2b565b610b07565b506004358352600160205260408320610d8c8260038301613c2b565b919060018060a01b03928391549060031b1c16600052600280910160205260406000205491600435865260016020526040862090610dcd8860038401613c2b565b90549060031b1c166000520160205260ff6040600020549181600893841c16921c1614610b02565b506004358352600160205260408320610e118260038301613c2b565b919060018060a01b03928391549060031b1c16600052600280910160205260ff6040600020541691600435865260016020526040862090610e558860038401613c2b565b90549060031b1c166000520160205260ff6040600020541614610afc565b50610e8160ff821687613b0d565b511515610af6565b5090610e9490613ca3565b90610a8b565b805b60043581526001602052600360408220019182549260ff821693841015610fab5781610ec791613c2b565b90546001600160a01b03949160031b1c841615610ef1575b50610eeb919250613ca3565b90610e9c565b60043583526001602052604083206003018054600019810191908211610f975794610f23610f6492610eeb9697613c2b565b90549060031b1c1660043586526001602052610f458460036040892001613c2b565b90919082549060031b9160018060a01b03809116831b921b1916179055565b60043584526001602052610f7d60036040862001613d08565b610f89575b8291610edf565b610f9290613d50565b610f82565b634e487b7160e01b85526011600452602485fd5b82600435815260016020526003604082200180548015600014611044575050807f56807b65299b9d361218ee1228c0caeed59b1cbcb079421f124145f99d0a0b0660206040516004358152a260048035825260016020526040822001805461ff0019166101001790555b7f0ffee877d4bec4783459533ceddde8785dcd14454a9ebe37f1b3b8792509c36b60206040516004358152a180f35b6001036110c257506004358152600160205261106560036040832001613c16565b60018060a01b0391549060031b1c167f56807b65299b9d361218ee1228c0caeed59b1cbcb079421f124145f99d0a0b0660206040516004358152a260048035825260016020526040822001805461ff001916610100179055611015565b6110cb90613c16565b9060018060a01b03918291549060031b1c16827f6c5d9aa3894362f6fc8570afc4ad57ed5b0498a5e481b34ffccd61ee96cad12c60206040516004358152a3815b6004358352600160205260408320906003820191825460ff83161015611228578361113a8361122395613c2b565b90549060031b1c1660005260028091016020526001604060002001600660ff198254161790556004358552600160205280604086208561117d8560038401613c2b565b90549060031b1c1660005201602052600160406000200161ff00198154169055600435855260016020528060408620856111ba8560038401613c2b565b90549060031b1c166000520160205260016040600020016206000062ff0000198254161790556004358552600160205260408520846111fc8460038401613c2b565b90549060031b1c1660005201602052600160406000200163ff000000198154169055613ca3565b61110c565b50505050600435815260016020526004604082200163ff000000198154169055611253600435613ed8565b5061125f600435613a0d565b611015565b6001015460ff166001600160a01b037f0000000000000000000000000000000000000000000000000000000000000000811690813b1561156957604051926335d5edab60e01b84526004356004850152602490818501526044938581868183885af1801561155e57611530575b506004358552600160205260016040862001805460ff6112f2818316613ca3565b169060ff19161790557ff47e725249069330b61eda3df25e7c3bcfd700624cbc7cbeabb0e28375bee53160206040516004358152a1845b60043586526001602052604086206003810180549160ff841692831015611522578561135785600294613c2b565b90549060031b1c16600052016020526113736040600020613b77565b60405163b173a14760e01b8152815160ff908116600483015260209092015190911660248201526004358782015260809081816064818a5afa9081156115175789916114de575b50606091500151156113d6575b506113d190613ca3565b611329565b600435875260016020526113f58483610bc281600360408d2001613c2b565b600435875260016020528361141083600360408b2001613c2b565b90549060031b1c167faf0f1f1c6dd1455929199c881d29a04680c9c20aff5f0331d8619ed875c58d1c60206040516004358152a2600435875260016020526040872060030180546000198101919082116114cb57856114776113d195949361149993613c2b565b90549060031b1c166004358a526001602052610f4584600360408d2001613c2b565b600435885260016020526114b2600360408a2001613d08565b6114bd575b906113c7565b6114c690613d50565b6114b7565b634e487b7160e01b895260116004528489fd5b9050813d8311611510575b6114f38183613792565b81019181830312610a705760609161150a91613c50565b386113ba565b503d6114e9565b6040513d8b823e3d90fd5b5050505050505050386101ce565b6001600160401b03819692961161154b5760405293386112d1565b634e487b7160e01b825260416004528582fd5b6040513d88823e3d90fd5b8380fd5b503461017657602036600319011261017657611587613923565b61158f613939565b60018060a01b03166bffffffffffffffffffffffff60a01b600254161760025580f35b5034610176576020366003190112610176577fce24807f7e4b60b4e641462f13029fa5e5f79075bbc3f8e5cd43ecd19661d76060206004356115f2613939565b80845260018252611611600160ff6004604088200154161515146139c1565b808452600182526040808520600401805460ff1916905551908152a180f35b50346101765760603660031901126101765761164a613923565b61165f60018060a01b03600254163314613965565b60243582526001602052611681600160ff6004604086200154161515146139c1565b6040516331a9108f60e11b815260443560048201526020816024817f00000000000000000000000000000000000000000000000000000000000000006001600160a01b03165afa908115611fd6578391611f90575b506001600160a01b03828116911603611f675760243582526001602090815260408084206001600160a01b038416855260020190915282205460ff16151580611f33575b611eba579060405161172b8161372a565b818152816020820152819060015b15611a11575b5060408051637128e56d60e11b81526024803560048301529094918491869081847f00000000000000000000000000000000000000000000000000000000000000006001600160a01b03165af1948515611a065784956119c3575b508490848061180461181d60ff8a511660ff60208c01511690604051916117c08361372a565b60138352724e657720726e6420706169722025732c20257360681b602084015260405194859363ca47c4eb60e01b6020860152606060248601526084850190613ce3565b916044840152606483015203601f198101835282613792565b6020815191016a636f6e736f6c652e6c6f675afa50845b6024358652600160205260036040872001805460ff831610156119b6578661185d838293613c2b565b90546040519160031b1c6001600160a01b03166118798261372a565b601782527f696e206c6f6f702025732c20616464726573733a20257300000000000000000060208301526118eb60405180926118ce602083019563038fd88960e31b8752606060248501526084840190613ce3565b9060ff89166044840152606483015203601f198101835282613792565b51906a636f6e736f6c652e6c6f675afa50602435865260016020526002604087206119198360038301613c2b565b60018060a01b0391549060031b1c1688520160205260ff60408720541660ff885116148061196a575b6119545761194f90613ca3565b611834565b509193945091506001905b939293919091611739565b50602435865260016020526002604087206119888360038301613c2b565b60018060a01b0391549060031b1c1688520160205260ff604087205460081c1660ff60208901511614611942565b505090929193945061195f565b90945060403d6040116119ff575b6119db8183613792565b60408282810103126119fb57906119f491810190613ba7565b933861179a565b8480fd5b503d6119d1565b6040513d86823e3d90fd5b8161173f57604051631986c9e960e31b81526044356004820152849250906020826024817f00000000000000000000000000000000000000000000000000000000000000006001600160a01b03165afa918215611a06578492611e7e575b50604051636455ce8d60e11b81526044356004820152926020846024817f00000000000000000000000000000000000000000000000000000000000000006001600160a01b03165afa93841561077b578594611e42575b50604051631303d57d60e11b815260443560048201529385856024817f00000000000000000000000000000000000000000000000000000000000000006001600160a01b03165afa94851561155e578695611d9c575b50604051611b298161375b565b8381528660208201528660408201528660608201528660808201528660a082015260018060a01b03831660c082015260ff851660e082015260ff8216610100820152602435610120820152602435875260016020526002604088200160018060a01b03841688526020526040872090611bc760ff60208351828151168319875416178655015116839061ff0082549160081b169061ff001916179055565b60208101516007811015611d8857611be29060018401613b3e565b611c0760ff604083015116600184019061ff0082549160081b169061ff001916179055565b60608101516007811015611d8857600291611c286101209260018601613b56565b611c5160ff608083015116600186019063ff00000082549160181b169063ff0000001916179055565b60a08101511515600185015465010000000000600160c81b0360c084015160281b1660ff60c81b60e085015160c81b169164ff0000000060ff60d01b61010087015160d01b169460201b169063ffffffff64ffffffffff60d81b01161717171760018501550151910155602435865260016020526003604087200180549068010000000000000000821015611d7457611d6e92611d1e85610f458560ff9560017f526c62f8fa999ff5dc01591b8086e17ed53753d49a9eca57e821d0c3f550efa39c9b9a98018155613c2b565b81806020818851169701511696604051978897602435895260443560208a0152604089015260608801521660808601521660a084015260e060c084015260018060a01b03169460e0830190613ce3565b0390a280f35b634e487b7160e01b88526041600452602488fd5b634e487b7160e01b89526021600452602489fd5b9094503d908187823e611daf8282613792565b6020818381010312611e3e578051906001600160401b0390818311610a7057838101601f848301011215610a705782810151918211611e2a5760405193611e00601f8401601f191660200186613792565b8285528101602083858401010111610a70576020611e2393818601920101613cb4565b9386611b1c565b634e487b7160e01b89526041600452602489fd5b8680fd5b9093506020813d602011611e76575b81611e5e60209383613792565b810103126119fb57611e6f90613b99565b9285611ac6565b3d9150611e51565b9091506020813d602011611eb2575b81611e9a60209383613792565b8101031261156957611eab90613b99565b9084611a6f565b3d9150611e8d565b606491602435815260016020526002604082200160018060a01b038316825260205260ff6040818184205416926024358152600160205260028282200160018060a01b0386168252602052205460081c1690604051926308538db760e41b845260018060a01b0316600484015260248301526044820152fd5b5060243582526001602090815260408084206001600160a01b038416855260020190915282205460081c60ff16151561171a565b604051634319813760e01b81526001600160a01b03909116600482015260448035602483015290fd5b90506020813d602011611fce575b81611fab60209383613792565b81010312611fca57516001600160a01b0381168103611fca57386116d6565b8280fd5b3d9150611f9e565b6040513d85823e3d90fd5b50346101765736600319016060811261215357604013610176576040516120078161372a565b60043560ff81168103611fca57815260243560ff81168103611fca57602082015260443582606060405161203a81613777565b8281528260208201528260408201520152808352600160205261206b600160ff6004604087200154161515146139c1565b60405163b173a14760e01b8152825160ff9081166004830152602090930151909216602483015260448201526080816064817f00000000000000000000000000000000000000000000000000000000000000006001600160a01b03165afa90811561214857829161210b575b60808260606040519160ff815116835260ff6020820151166020840152604081015115156040840152015115156060820152f35b905060803d8111612141575b6121218183613792565b810191608082840312610176575060809161213b91613c50565b386120d7565b503d612117565b6040513d84823e3d90fd5b5080fd5b5034610176576040366003190112610176576024358082526001602052600160ff600460408520015460101c161515036121d75780825260016020526005604083200133835260205260043560408320556040519081527fed023b424457cda33feade9721fca38038ccc8f28f8b88b13c246d12397ff53460203392a280f35b60405162461bcd60e51b815260206004820152602160248201527f436f6d6d6974206d6f76657320686173206e6f742073746172746564207965746044820152602160f81b6064820152608490fd5b5034610176576040612237366137b3565b85602086959396516122488161372a565b82815201528552600160205261226b600160ff60048689200154161515146139c1565b61228883519485938493630d42527560e11b855260048501613bdd565b03817f00000000000000000000000000000000000000000000000000000000000000006001600160a01b03165afa9081156121485782916122e4575b6040826122e28251809260ff60208092828151168552015116910152565bf35b905060403d60401161231b575b6122fb8183613792565b810191604082840312610176575060409161231591613ba7565b386122c4565b503d6122f1565b50346101765760e0366003190112610176576004356001600160401b03811161215357612353903690600401613854565b6024356001600160401b038111611fca576123729036906004016138bb565b6044356001600160401b03811161156957612391903690600401613854565b6064356001600160401b0381116119fb576123b09036906004016138bb565b91608435936001600160401b0385116129475736602386011215612947578460040135946123dd8661383d565b956123eb6040519788613792565b8087526024602088019160051b83010191368311610a7057602401905b8282106129375750505060a435916001600160401b038311611e3e5736602384011215611e3e57826004013561243d8161383d565b9361244b6040519586613792565b8185526024602086019260051b820101903682116128d557602401915b8183106129135750505060c43587526001602052612494600160ff600460408b200154161515146139c1565b6124a18351835114613a7a565b6124ae8251825114613a7a565b6124bb8451865114613a7a565b6124c88651845114613a7a565b865b835181101561290f576124e56124e08285613b0d565b613b21565b6124ef8284613b0d565b516124fd6124e08489613b0d565b612507848a613b0d565b51612512858c613b0d565b5192612525604051956020870190613b2e565b61254460ff60f81b938460f893841b1660218801526022870190613b2e565b1b1660238301526024820152602481528060608101106001600160401b03606083011117611e2a57606081016040908152815160209283012060c4358b52600190925289206005016001600160a01b0361259e8488613b0d565b51168a526020526040892054146125be575b6125b990613ac5565b6124ca565b60c43588526001602052604088206002016001600160a01b036125e18387613b0d565b511689526020526126b2604089206125fc6124e08487613b0d565b61260a600183019182613b3e565b60ff6126168587613b0d565b511660ff825460c81c168091116000146128f857612645905b825461ff00191660089190911b61ff0016178255565b61265b6126556124e0868b613b0d565b82613b56565b60ff612667858b613b0d565b511660ff825460d01c168091116000146128e15761269a905b825463ff000000191660189190911b63ff00000016178255565b805464ff000000001916640100000000179055613b77565b9060406126c26124e08387613b0d565b60ff6126ce8487613b0d565b518351630d42527560e11b815295869384936126ef93169160048501613bdd565b03817f00000000000000000000000000000000000000000000000000000000000000006001600160a01b03165afa91821561151757899261289d575b5088612769604061273f6124e0858b613b0d565b60ff61274b868d613b0d565b51169082519384928392630d42527560e11b84528960048501613bdd565b03817f00000000000000000000000000000000000000000000000000000000000000006001600160a01b03165afa908115612148578291612836575b506125b9937ffd735dcfd99f4b7d7f6bcea365f20bd4b998183607e89895805ae488fbeaa8669160c09160406001600160a01b036127e3888d613b0d565b51169560c4358152600160205220549160ff6020818451169301511660ff60208184511693015116926040519460c4358652602086015260408501526060840152608083015260a0820152a290506125b0565b604091503d8211612895575b61284c8282613792565b6040818381010312611fca576125b99461288c827ffd735dcfd99f4b7d7f6bcea365f20bd4b998183607e89895805ae488fbeaa8669460c0940190613ba7565b925094506127a5565b3d9150612842565b9091506040903d6040116128d9575b6128b68282613792565b60408183810103126128d5576128ce91810190613ba7565b903861272b565b8980fd5b3d91506128ac565b5061269a60ff6128f1868c613b0d565b5116612680565b5061264560ff6129088688613b0d565b511661262f565b8780f35b82356001600160a01b038116810361293357815260209283019201612468565b8a80fd5b8135815260209182019101612408565b8580fd5b5034610176578060031936011261017657546040516001600160a01b039091168152602090f35b5034610176576020908160031936011261017657906004359182815260019081835260ff6129ac83826004604086200154161515146139c1565b848252828452600380604084200154956129c58761383d565b966129d36040519889613792565b8088526129e2601f199161383d565b01845b818110612be55750508484905b612ad9575b505050604051938085019181865286518093528160408701970193905b838210612a215786880387f35b90919293948361016082998851612a4882825160ff60208092828151168552015116910152565b612a5984820151604084019061381a565b858060408301511660609081850152820151612a7a6080918286019061381a565b8201511660a09081840152810151151560c0908184015260018060a01b03908201511660e0830152858060e083015116610100908185015282015116906101209182840152015161014082015201960192019096949693929193612a14565b9085979592918186989596528385526040882090838201918254821015612bd657612b0782612bc894613c2b565b90546001600160a01b0391871b1c81168b52600291820188526040808c20905192918a90612b348561375b565b612b3d83613b77565b85528983015490612b528383168d8801613cd7565b828260081c166040870152612b6f838360101c1660608801613cd7565b828260181c16608087015282828d1c16151560a08701528160281c1660c0860152818160c81c1660e086015260d01c166101008401520154610120820152612bb7828a613b0d565b52612bc28189613b0d565b50613ac5565b9091929597969493966129f2565b505050969496959392956129f7565b9680949597604099979951612bf98161375b565b604051612c058161372a565b8a81528a84820152815289838201528960408201528960608201528960808201528960a08201528960c08201528960e0820152896101008201528961012082015282828a01015201979597969493966129e5565b5034610176578060031936011261017657612c72613939565b80546001600160a01b03198116825581906001600160a01b03167f8be0079c531659141344cd1fd0a4f28419497f9722a3daafe3b4186f6b6457e08280a380f35b503461017657602090816003193601126101765760043580825260018352612ce9600160ff6004604086200154161515146139c1565b60405163436fadf360e11b8152600481019190915282816024817f00000000000000000000000000000000000000000000000000000000000000006001600160a01b03165afa918215612d82578092612d4a575b505060ff60405191168152f35b9091508282813d8311612d7b575b612d628183613792565b810103126101765750612d7490613b99565b3880612d3d565b503d612d58565b604051903d90823e3d90fd5b5034610176576040366003190112610176576004359060ff6024358181168103611fca5760018060a01b0391600292612dcb818554163314613965565b818610156130fe57858552600191602094838652816004604089200154166130ab5787875283865260408720600401805460ff191685179055839087825b613051575b505050868652828552600360408720018054908781558161302e575b5050612e3587613ed8565b5060405163af2f210960e01b815260ff85166004820152602481018890529186908390604490829084907f0000000000000000000000000000000000000000000000000000000000000000165af191821561155e578692612f90575b5085835b612f0a575b6040805160ff87168152602081018a905288917f50ad08f58a27f2851d7e3a1b3a6a46b290f2ce677e99642d30ff639721e777909189918c917f69daaa80244624dc227320708ed184109781f5bffb597d57054abadec2931b3b9190a1612f0081613a0d565b604051908152a180f35b8251811015612f8b57807fe40ab56a2b71773fd8fa12379eac11a90b1a5a8b57fbdb4b84e4734d32a551e160808a85612f46612f859689613b0d565b515116868b612f55878b613b0d565b510151166040612f65878b613b0d565b5101511515916040519384528c84015260408301526060820152a1613ac5565b83612e95565b612e9a565b9091503d8087833e612fa28183613792565b8101908581830312611e3e578051906001600160401b03821161302a570181601f82011215611e3e578051612fd68161383d565b92612fe46040519485613792565b818452878085019260071b840101928184116128d5578801915b888484106130125750505050509038612e91565b60809161301f8486613c50565b815201920191612ffe565b8780fd5b875283868820918201915b8281106130465750612e2a565b888155018490613039565b8989528288526040892090600391828101908782548410156130a25761309c9461307c858895613c2b565b9054911b1c168c5201895289836040822082815582878201550155613ac5565b82612e09565b50505050612e0e565b60405162461bcd60e51b815260048101879052602560248201527f47616d652077697468207468697320494420616c726561647920696e2070726f604482015264677265737360d81b6064820152608490fd5b60405162461bcd60e51b815260206004820152601f60248201527f4d6178696d756d206e756d626572206f662067616d65732072656163686564006044820152606490fd5b5034610176576020806003193601126121535760043580835260019283835260ff61317a85826004604086200154161515146139c1565b60405163436fadf360e11b815260048101939093527f00000000000000000000000000000000000000000000000000000000000000006001600160a01b031690602485858281865afa948515611a0657849561347f575b50816131dc86614007565b9516948786019083821161346c576132036131fe6132099386939b999b61401b565b614032565b16613d60565b966040516132168161372a565b818152818882015261322789613aea565b5261323188613aea565b5085805b613295575b50505050506040519280840190808552855180925280604086019601925b8281106132655785870386f35b9091929382604088613288849a895160ff60208092828151168552015116910152565b0197950193929101613258565b838199979916828111613463576000198101858111613450576132c46131fe846132bf8994614007565b61401b565b16906132cf89613aea565b516040516301cf2e2560e51b8152815160ff9081166004830152602090920151909116602482015290604482015287816064818a5afa908115610a7b5788916133b4575b508a95949392919088875b61333a575b50505061332f90613ca3565b909192939698613235565b908092939495969750518c888316918210156133a9575061335b8184613b0d565b51908401908185116133965791613383828f9461337c8f9561338996613b0d565b528d613b0d565b50613ca3565b819796959493929161331e565b634e487b7160e01b8b526011600452878bfd5b979695949350613323565b90503d8089833e6133c58183613792565b8101908a81830312610a70578051906001600160401b0382116128d5570181601f82011215610a705780516133f98161383d565b926134076040519485613792565b8184528c8085019260061b8401019281841161344c578d01915b8d84841061343457505050505038613313565b6040916134418486613ba7565b815201920191613421565b8b80fd5b634e487b7160e01b885260116004528488fd5b5097959761323a565b634e487b7160e01b865260116004528286fd5b9094508581813d83116134af575b6134978183613792565b81010312611569576134a890613b99565b93386131d1565b503d61348d565b50346101765780600319360112610176576002546040516001600160a01b039091168152602090f35b5034610176576134ee366137b3565b9190928285526004604060019561354860209588875261351c898b60ff9788978892200154161515146139c1565b60405163183b1baf60e01b8152865160ff908116600483015260209097015190961660248701526103fb565b166064830152608482018490526001600160a01b039160608160a4817f000000000000000000000000000000000000000000000000000000000000000087165afa9081156136b25787908892613691575b501561363757508386528483526135bc8582600460408a200154161515146139c1565b859283865b6135d8575b505050506135d5925033613de6565b80f35b85885286825260038060408a200180548584161015613630576135fc838792613c2b565b929092339354911b1c161461361d57906136168792613ca3565b90916135c1565b93505050506135d59250388080806135c6565b50506135c6565b6135d5959250808285925116868952848352600260408a2001338a528352604089209060ff198254161790550151169285528152600260408520019033855252604083209061ff0082549160081b169061ff001916179055565b90506136ab915060603d8111610774576107658183613792565b9038613599565b6040513d89823e3d90fd5b9050346121535760203660031901126121535760ff604060c0936004358152600160205220805490600483600183015416910154918452602084015281811615156040840152818160081c1615156060840152818160101c161515608084015260181c16151560a0820152f35b604081019081106001600160401b0382111761374557604052565b634e487b7160e01b600052604160045260246000fd5b61014081019081106001600160401b0382111761374557604052565b608081019081106001600160401b0382111761374557604052565b90601f801991011681019081106001600160401b0382111761374557604052565b6003190160a0811261381557604013613815576040516137d28161372a565b60043560ff8116810361381557815260243560ff81168103613815576020820152906044356007811015613815579060643560ff81168103613815579060843590565b600080fd5b9060078210156138275752565b634e487b7160e01b600052602160045260246000fd5b6001600160401b0381116137455760051b60200190565b81601f820112156138155780359161386b8361383d565b926138796040519485613792565b808452602092838086019260051b820101928311613815578301905b8282106138a3575050505090565b81356007811015613815578152908301908301613895565b81601f82011215613815578035916138d28361383d565b926138e06040519485613792565b808452602092838086019260051b820101928311613815578301905b82821061390a575050505090565b813560ff811681036138155781529083019083016138fc565b600435906001600160a01b038216820361381557565b6000546001600160a01b0316330361394d57565b60405163118cdaa760e01b8152336004820152602490fd5b1561396c57565b60405162461bcd60e51b815260206004820152602760248201527f43616c6c6572206973206e6f742074686520726567697374726174696f6e20636044820152661bdb9d1c9858dd60ca1b6064820152608490fd5b156139c857565b60405162461bcd60e51b815260206004820152601960248201527f47616d6520686173206e6f7420737461727465642079657421000000000000006044820152606490fd5b60207f8924ef8e2fcf31b0d38716fc8120f7aec496d13f5abdb8320e31a69dbc449100918060005260018252613a52600160ff600460406000200154161515146139c1565b806000526001825260046040600020016201000062ff000019825416179055604051908152a1565b15613a8157565b606460405162461bcd60e51b815260206004820152602060248201527f417272617973206d7573742068617665207468652073616d65206c656e6774686044820152fd5b6000198114613ad45760010190565b634e487b7160e01b600052601160045260246000fd5b805115613af75760200190565b634e487b7160e01b600052603260045260246000fd5b8051821015613af75760209160051b010190565b5160078110156138275790565b60078110156138275760f81b9052565b9060078110156138275760ff80198354169116179055565b9060078110156138275762ff000082549160101b169062ff00001916179055565b90604051613b848161372a565b602060ff829454818116845260081c16910152565b519060ff8216820361381557565b919082604091031261381557604051613bbf8161372a565b6020613bd8818395613bd081613b99565b855201613b99565b910152565b916060919493613c1060ff92613c0686608081019960ff60208092828151168552015116910152565b604086019061381a565b16910152565b805415613af757600052602060002090600090565b8054821015613af75760005260206000200190600090565b5190811515820361381557565b919082608091031261381557604051613c6881613777565b6060613bd8818395613c7981613b99565b8552613c8760208201613b99565b6020860152613c9860408201613c43565b604086015201613c43565b60ff1660ff8114613ad45760010190565b60005b838110613cc75750506000910152565b8181015183820152602001613cb7565b60078210156138275752565b90602091613cfc81518092818552858086019101613cb4565b601f01601f1916010190565b80548015613d3a576000190190613d37613d228383613c2b565b81549060018060a01b039060031b1b19169055565b55565b634e487b7160e01b600052603160045260246000fd5b60ff168015613ad4576000190190565b90613d6a8261383d565b604090613d7982519182613792565b8381528093613d8a601f199161383d565b0191600090815b848110613d9f575050505050565b6020908251613dad8161372a565b848152828581830152828701015201613d91565b919060608382031261381557613de3906020613ddc85613c43565b9401613ba7565b90565b90916000908082526001906020908282526040946003868620015460ff88161015613e945792613d229592826003958794613e929a9852838352613e368460ff60048989200154161515146139c1565b60018060a01b0316807f0ceeb6c20e03a8c47e6673117b7b54c5b880118423ef2a84e0b795bd849fc406848851858152a28185528383526002868620019085528252836002868220828155828682015501558352522001613c2b565b565b855162461bcd60e51b815260048101849052601860248201527f496e6465782076616c7565206f7574206f662072616e676500000000000000006044820152606490fd5b6040805163436fadf360e11b815260048101839052909160209182816024817f00000000000000000000000000000000000000000000000000000000000000006001600160a01b03165afa908115613ffc57600091613f9c575b50907f3874cce3730901301cd0c02b4c2dd416d59546f183096d9f2a434c4d3a9ba4a56060600194938360005285855286600020613f708154613ac5565b90558360005285855260ff876000205491885192868452878401521687820152a1600052526000205490565b908382813d8311613ff5575b613fb28183613792565b810103126101765750907f3874cce3730901301cd0c02b4c2dd416d59546f183096d9f2a434c4d3a9ba4a56060613feb60019594613b99565b9293945050613f32565b503d613fa8565b84513d6000823e3d90fd5b60ff166003029060ff8216918203613ad457565b9060ff8091169116029060ff8216918203613ad457565b60ff166001019060ff8211613ad45756fea2646970667358221220a514735137d6945579cd6f9f5f3ca67e239688c9b6170a765029c0d0150c3f2164736f6c63430008140033",
  "linkReferences": {},
  "deployedLinkReferences": {}
}