{
  "_format": "hh-sol-artifact-1",
  "contractName": "GamePunk",
  "sourceName": "contracts/GamePunk.sol",
  "abi": [
    {
      "inputs": [
        {
          "internalType": "address",
          "name": "_mapAddress",
          "type": "address"
        },
        {
          "internalType": "address",
          "name": "_punkshipsAddress",
          "type": "address"
        }
      ],
      "stateMutability": "nonpayable",
      "type": "constructor"
    },
    {
      "inputs": [
        {
          "internalType": "address",
          "name": "player",
          "type": "address"
        },
        {
          "internalType": "uint256",
          "name": "tokenId",
          "type": "uint256"
        }
      ],
      "name": "NotOwnerOfShip",
      "type": "error"
    },
    {
      "inputs": [
        {
          "internalType": "address",
          "name": "owner",
          "type": "address"
        }
      ],
      "name": "OwnableInvalidOwner",
      "type": "error"
    },
    {
      "inputs": [
        {
          "internalType": "address",
          "name": "account",
          "type": "address"
        }
      ],
      "name": "OwnableUnauthorizedAccount",
      "type": "error"
    },
    {
      "inputs": [
        {
          "internalType": "address",
          "name": "player",
          "type": "address"
        },
        {
          "internalType": "uint8",
          "name": "q",
          "type": "uint8"
        },
        {
          "internalType": "uint8",
          "name": "r",
          "type": "uint8"
        }
      ],
      "name": "ShipAlreadyAdded",
      "type": "error"
    },
    {
      "anonymous": false,
      "inputs": [
        {
          "indexed": false,
          "internalType": "uint256",
          "name": "gameId",
          "type": "uint256"
        },
        {
          "indexed": false,
          "internalType": "uint8",
          "name": "q",
          "type": "uint8"
        },
        {
          "indexed": false,
          "internalType": "uint8",
          "name": "r",
          "type": "uint8"
        },
        {
          "indexed": false,
          "internalType": "bool",
          "name": "island",
          "type": "bool"
        }
      ],
      "name": "Cell",
      "type": "event"
    },
    {
      "anonymous": false,
      "inputs": [
        {
          "indexed": false,
          "internalType": "uint256",
          "name": "gameId",
          "type": "uint256"
        },
        {
          "indexed": false,
          "internalType": "uint8",
          "name": "q",
          "type": "uint8"
        },
        {
          "indexed": false,
          "internalType": "uint8",
          "name": "r",
          "type": "uint8"
        }
      ],
      "name": "CellDeleted",
      "type": "event"
    },
    {
      "anonymous": false,
      "inputs": [
        {
          "indexed": false,
          "internalType": "uint256",
          "name": "gameId",
          "type": "uint256"
        }
      ],
      "name": "CommitPhaseStarted",
      "type": "event"
    },
    {
      "anonymous": false,
      "inputs": [
        {
          "indexed": false,
          "internalType": "uint256",
          "name": "gameId",
          "type": "uint256"
        }
      ],
      "name": "GameEnded",
      "type": "event"
    },
    {
      "anonymous": false,
      "inputs": [
        {
          "indexed": false,
          "internalType": "uint256",
          "name": "gameId",
          "type": "uint256"
        }
      ],
      "name": "GameStarted",
      "type": "event"
    },
    {
      "anonymous": false,
      "inputs": [
        {
          "indexed": true,
          "internalType": "bool",
          "name": "gameStatus",
          "type": "bool"
        },
        {
          "indexed": true,
          "internalType": "address",
          "name": "winnerAddress",
          "type": "address"
        },
        {
          "indexed": false,
          "internalType": "uint256",
          "name": "gameId",
          "type": "uint256"
        }
      ],
      "name": "GameUpdated",
      "type": "event"
    },
    {
      "anonymous": false,
      "inputs": [
        {
          "indexed": true,
          "internalType": "address",
          "name": "winner",
          "type": "address"
        },
        {
          "indexed": false,
          "internalType": "uint256",
          "name": "gameId",
          "type": "uint256"
        }
      ],
      "name": "GameWinner",
      "type": "event"
    },
    {
      "anonymous": false,
      "inputs": [
        {
          "indexed": false,
          "internalType": "uint8",
          "name": "radius",
          "type": "uint8"
        },
        {
          "indexed": false,
          "internalType": "uint256",
          "name": "gameId",
          "type": "uint256"
        },
        {
          "indexed": false,
          "internalType": "uint8",
          "name": "mapShrink",
          "type": "uint8"
        }
      ],
      "name": "MapInitialized",
      "type": "event"
    },
    {
      "anonymous": false,
      "inputs": [
        {
          "indexed": false,
          "internalType": "uint256",
          "name": "gameId",
          "type": "uint256"
        }
      ],
      "name": "MapShrink",
      "type": "event"
    },
    {
      "anonymous": false,
      "inputs": [
        {
          "indexed": true,
          "internalType": "address",
          "name": "player",
          "type": "address"
        },
        {
          "indexed": false,
          "internalType": "uint256",
          "name": "gameId",
          "type": "uint256"
        },
        {
          "indexed": false,
          "internalType": "bytes32",
          "name": "moveHash",
          "type": "bytes32"
        }
      ],
      "name": "MoveCommitted",
      "type": "event"
    },
    {
      "anonymous": false,
      "inputs": [
        {
          "indexed": true,
          "internalType": "address",
          "name": "player",
          "type": "address"
        },
        {
          "indexed": false,
          "internalType": "uint256",
          "name": "gameId",
          "type": "uint256"
        },
        {
          "indexed": false,
          "internalType": "uint256",
          "name": "roundId",
          "type": "uint256"
        },
        {
          "indexed": false,
          "internalType": "uint8",
          "name": "destQ",
          "type": "uint8"
        },
        {
          "indexed": false,
          "internalType": "uint8",
          "name": "destR",
          "type": "uint8"
        },
        {
          "indexed": false,
          "internalType": "uint8",
          "name": "shotQ",
          "type": "uint8"
        },
        {
          "indexed": false,
          "internalType": "uint8",
          "name": "shotR",
          "type": "uint8"
        }
      ],
      "name": "MoveSubmitted",
      "type": "event"
    },
    {
      "anonymous": false,
      "inputs": [
        {
          "indexed": false,
          "internalType": "uint256",
          "name": "gameId",
          "type": "uint256"
        },
        {
          "indexed": false,
          "internalType": "uint256",
          "name": "roundId",
          "type": "uint256"
        },
        {
          "indexed": false,
          "internalType": "uint8",
          "name": "radius",
          "type": "uint8"
        }
      ],
      "name": "NewRound",
      "type": "event"
    },
    {
      "anonymous": false,
      "inputs": [
        {
          "indexed": true,
          "internalType": "address",
          "name": "previousOwner",
          "type": "address"
        },
        {
          "indexed": true,
          "internalType": "address",
          "name": "newOwner",
          "type": "address"
        }
      ],
      "name": "OwnershipTransferred",
      "type": "event"
    },
    {
      "anonymous": false,
      "inputs": [
        {
          "indexed": true,
          "internalType": "address",
          "name": "player",
          "type": "address"
        },
        {
          "indexed": false,
          "internalType": "uint256",
          "name": "gameId",
          "type": "uint256"
        },
        {
          "indexed": false,
          "internalType": "uint256",
          "name": "punkshipId",
          "type": "uint256"
        },
        {
          "indexed": false,
          "internalType": "uint8",
          "name": "q",
          "type": "uint8"
        },
        {
          "indexed": false,
          "internalType": "uint8",
          "name": "r",
          "type": "uint8"
        },
        {
          "indexed": false,
          "internalType": "uint8",
          "name": "speed",
          "type": "uint8"
        },
        {
          "indexed": false,
          "internalType": "uint8",
          "name": "range",
          "type": "uint8"
        },
        {
          "indexed": false,
          "internalType": "string",
          "name": "image",
          "type": "string"
        }
      ],
      "name": "PlayerAdded",
      "type": "event"
    },
    {
      "anonymous": false,
      "inputs": [
        {
          "indexed": true,
          "internalType": "address",
          "name": "player",
          "type": "address"
        },
        {
          "indexed": false,
          "internalType": "uint256",
          "name": "gameId",
          "type": "uint256"
        }
      ],
      "name": "PlayerDefeated",
      "type": "event"
    },
    {
      "anonymous": false,
      "inputs": [
        {
          "indexed": true,
          "internalType": "address",
          "name": "captain",
          "type": "address"
        },
        {
          "indexed": false,
          "internalType": "uint256",
          "name": "gameId",
          "type": "uint256"
        },
        {
          "indexed": false,
          "internalType": "uint8",
          "name": "q",
          "type": "uint8"
        },
        {
          "indexed": false,
          "internalType": "uint8",
          "name": "r",
          "type": "uint8"
        }
      ],
      "name": "ShipCollidedWithIsland",
      "type": "event"
    },
    {
      "anonymous": false,
      "inputs": [
        {
          "indexed": true,
          "internalType": "address",
          "name": "victim",
          "type": "address"
        },
        {
          "indexed": true,
          "internalType": "address",
          "name": "attacker",
          "type": "address"
        },
        {
          "indexed": false,
          "internalType": "uint256",
          "name": "gameId",
          "type": "uint256"
        }
      ],
      "name": "ShipHit",
      "type": "event"
    },
    {
      "anonymous": false,
      "inputs": [
        {
          "indexed": true,
          "internalType": "address",
          "name": "captain",
          "type": "address"
        },
        {
          "indexed": false,
          "internalType": "uint8",
          "name": "initialQ",
          "type": "uint8"
        },
        {
          "indexed": false,
          "internalType": "uint8",
          "name": "initialR",
          "type": "uint8"
        },
        {
          "indexed": false,
          "internalType": "uint8",
          "name": "q",
          "type": "uint8"
        },
        {
          "indexed": false,
          "internalType": "uint8",
          "name": "r",
          "type": "uint8"
        },
        {
          "indexed": false,
          "internalType": "uint256",
          "name": "gameId",
          "type": "uint256"
        }
      ],
      "name": "ShipMoved",
      "type": "event"
    },
    {
      "anonymous": false,
      "inputs": [
        {
          "indexed": true,
          "internalType": "address",
          "name": "captain",
          "type": "address"
        },
        {
          "indexed": false,
          "internalType": "uint256",
          "name": "gameId",
          "type": "uint256"
        }
      ],
      "name": "ShipMovedInGame",
      "type": "event"
    },
    {
      "anonymous": false,
      "inputs": [
        {
          "indexed": true,
          "internalType": "address",
          "name": "captain",
          "type": "address"
        },
        {
          "indexed": false,
          "internalType": "uint8",
          "name": "fromQ",
          "type": "uint8"
        },
        {
          "indexed": false,
          "internalType": "uint8",
          "name": "fromR",
          "type": "uint8"
        },
        {
          "indexed": false,
          "internalType": "uint8",
          "name": "shotQ",
          "type": "uint8"
        },
        {
          "indexed": false,
          "internalType": "uint8",
          "name": "shotR",
          "type": "uint8"
        },
        {
          "indexed": false,
          "internalType": "uint256",
          "name": "gameId",
          "type": "uint256"
        }
      ],
      "name": "ShipShot",
      "type": "event"
    },
    {
      "anonymous": false,
      "inputs": [
        {
          "indexed": true,
          "internalType": "address",
          "name": "captain",
          "type": "address"
        },
        {
          "indexed": false,
          "internalType": "uint256",
          "name": "gameId",
          "type": "uint256"
        }
      ],
      "name": "ShipSunk",
      "type": "event"
    },
    {
      "anonymous": false,
      "inputs": [
        {
          "indexed": true,
          "internalType": "address",
          "name": "captain",
          "type": "address"
        },
        {
          "indexed": false,
          "internalType": "uint256",
          "name": "gameId",
          "type": "uint256"
        }
      ],
      "name": "ShipSunkOutOfMap",
      "type": "event"
    },
    {
      "anonymous": false,
      "inputs": [
        {
          "indexed": false,
          "internalType": "uint256",
          "name": "gameId",
          "type": "uint256"
        },
        {
          "indexed": false,
          "internalType": "uint256",
          "name": "round",
          "type": "uint256"
        }
      ],
      "name": "SubmitPhaseStarted",
      "type": "event"
    },
    {
      "anonymous": false,
      "inputs": [
        {
          "indexed": false,
          "internalType": "uint256",
          "name": "gameId",
          "type": "uint256"
        }
      ],
      "name": "WorldUpdated",
      "type": "event"
    },
    {
      "stateMutability": "nonpayable",
      "type": "fallback"
    },
    {
      "inputs": [
        {
          "internalType": "address",
          "name": "playerAddress",
          "type": "address"
        },
        {
          "internalType": "uint256",
          "name": "gameId",
          "type": "uint256"
        },
        {
          "internalType": "uint256",
          "name": "_punkshipId",
          "type": "uint256"
        }
      ],
      "name": "addShip",
      "outputs": [],
      "stateMutability": "nonpayable",
      "type": "function"
    },
    {
      "inputs": [
        {
          "internalType": "bytes32",
          "name": "moveHash",
          "type": "bytes32"
        },
        {
          "internalType": "uint256",
          "name": "gameId",
          "type": "uint256"
        }
      ],
      "name": "commitMove",
      "outputs": [],
      "stateMutability": "nonpayable",
      "type": "function"
    },
    {
      "inputs": [
        {
          "internalType": "enum SharedStructs.Directions",
          "name": "_travelDirection",
          "type": "uint8"
        },
        {
          "internalType": "uint8",
          "name": "_travelDistance",
          "type": "uint8"
        },
        {
          "internalType": "enum SharedStructs.Directions",
          "name": "_shotDirection",
          "type": "uint8"
        },
        {
          "internalType": "uint8",
          "name": "_shotDistance",
          "type": "uint8"
        },
        {
          "internalType": "uint8",
          "name": "_secret",
          "type": "uint8"
        },
        {
          "internalType": "address",
          "name": "_playerAddress",
          "type": "address"
        }
      ],
      "name": "encodeCommitment",
      "outputs": [
        {
          "internalType": "bytes32",
          "name": "",
          "type": "bytes32"
        }
      ],
      "stateMutability": "pure",
      "type": "function"
    },
    {
      "inputs": [
        {
          "internalType": "uint256",
          "name": "gameId",
          "type": "uint256"
        }
      ],
      "name": "endGame",
      "outputs": [],
      "stateMutability": "nonpayable",
      "type": "function"
    },
    {
      "inputs": [
        {
          "internalType": "uint256",
          "name": "",
          "type": "uint256"
        }
      ],
      "name": "games",
      "outputs": [
        {
          "internalType": "uint256",
          "name": "round",
          "type": "uint256"
        },
        {
          "internalType": "uint8",
          "name": "shrinkNo",
          "type": "uint8"
        },
        {
          "internalType": "uint8",
          "name": "mapShrink",
          "type": "uint8"
        },
        {
          "internalType": "bool",
          "name": "gameInProgress",
          "type": "bool"
        },
        {
          "internalType": "bool",
          "name": "stopAddingShips",
          "type": "bool"
        },
        {
          "internalType": "bool",
          "name": "letCommitMoves",
          "type": "bool"
        },
        {
          "internalType": "bool",
          "name": "letSubmitMoves",
          "type": "bool"
        }
      ],
      "stateMutability": "view",
      "type": "function"
    },
    {
      "inputs": [
        {
          "components": [
            {
              "internalType": "uint8",
              "name": "q",
              "type": "uint8"
            },
            {
              "internalType": "uint8",
              "name": "r",
              "type": "uint8"
            }
          ],
          "internalType": "struct SharedStructs.Coordinate",
          "name": "_coord",
          "type": "tuple"
        },
        {
          "internalType": "uint256",
          "name": "gameId",
          "type": "uint256"
        }
      ],
      "name": "getCell",
      "outputs": [
        {
          "components": [
            {
              "internalType": "uint8",
              "name": "q",
              "type": "uint8"
            },
            {
              "internalType": "uint8",
              "name": "r",
              "type": "uint8"
            },
            {
              "internalType": "bool",
              "name": "island",
              "type": "bool"
            },
            {
              "internalType": "bool",
              "name": "exists",
              "type": "bool"
            }
          ],
          "internalType": "struct SharedStructs.Cell",
          "name": "",
          "type": "tuple"
        }
      ],
      "stateMutability": "view",
      "type": "function"
    },
    {
      "inputs": [
        {
          "internalType": "uint256",
          "name": "gameId",
          "type": "uint256"
        }
      ],
      "name": "getCoordinates",
      "outputs": [
        {
          "components": [
            {
              "internalType": "uint8",
              "name": "q",
              "type": "uint8"
            },
            {
              "internalType": "uint8",
              "name": "r",
              "type": "uint8"
            }
          ],
          "internalType": "struct SharedStructs.Coordinate[]",
          "name": "",
          "type": "tuple[]"
        }
      ],
      "stateMutability": "view",
      "type": "function"
    },
    {
      "inputs": [
        {
          "internalType": "uint256",
          "name": "gameId",
          "type": "uint256"
        }
      ],
      "name": "getRadius",
      "outputs": [
        {
          "internalType": "uint8",
          "name": "",
          "type": "uint8"
        }
      ],
      "stateMutability": "view",
      "type": "function"
    },
    {
      "inputs": [
        {
          "internalType": "uint256",
          "name": "gameId",
          "type": "uint256"
        }
      ],
      "name": "getShips",
      "outputs": [
        {
          "components": [
            {
              "components": [
                {
                  "internalType": "uint8",
                  "name": "q",
                  "type": "uint8"
                },
                {
                  "internalType": "uint8",
                  "name": "r",
                  "type": "uint8"
                }
              ],
              "internalType": "struct SharedStructs.Coordinate",
              "name": "coordinate",
              "type": "tuple"
            },
            {
              "internalType": "enum SharedStructs.Directions",
              "name": "travelDirection",
              "type": "uint8"
            },
            {
              "internalType": "uint8",
              "name": "travelDistance",
              "type": "uint8"
            },
            {
              "internalType": "enum SharedStructs.Directions",
              "name": "shotDirection",
              "type": "uint8"
            },
            {
              "internalType": "uint8",
              "name": "shotDistance",
              "type": "uint8"
            },
            {
              "internalType": "bool",
              "name": "publishedMove",
              "type": "bool"
            },
            {
              "internalType": "address",
              "name": "captain",
              "type": "address"
            },
            {
              "internalType": "uint8",
              "name": "yachtSpeed",
              "type": "uint8"
            },
            {
              "internalType": "uint8",
              "name": "yachtRange",
              "type": "uint8"
            },
            {
              "internalType": "uint256",
              "name": "gameId",
              "type": "uint256"
            },
            {
              "internalType": "uint256",
              "name": "punkshipId",
              "type": "uint256"
            }
          ],
          "internalType": "struct GamePunk.Ship[]",
          "name": "",
          "type": "tuple[]"
        }
      ],
      "stateMutability": "view",
      "type": "function"
    },
    {
      "inputs": [
        {
          "components": [
            {
              "internalType": "uint8",
              "name": "q",
              "type": "uint8"
            },
            {
              "internalType": "uint8",
              "name": "r",
              "type": "uint8"
            }
          ],
          "internalType": "struct SharedStructs.Coordinate",
          "name": "_start",
          "type": "tuple"
        },
        {
          "internalType": "enum SharedStructs.Directions",
          "name": "_dir",
          "type": "uint8"
        },
        {
          "internalType": "uint8",
          "name": "_distance",
          "type": "uint8"
        },
        {
          "internalType": "uint256",
          "name": "gameId",
          "type": "uint256"
        }
      ],
      "name": "move",
      "outputs": [
        {
          "components": [
            {
              "internalType": "uint8",
              "name": "q",
              "type": "uint8"
            },
            {
              "internalType": "uint8",
              "name": "r",
              "type": "uint8"
            }
          ],
          "internalType": "struct SharedStructs.Coordinate",
          "name": "",
          "type": "tuple"
        }
      ],
      "stateMutability": "view",
      "type": "function"
    },
    {
      "inputs": [],
      "name": "owner",
      "outputs": [
        {
          "internalType": "address",
          "name": "",
          "type": "address"
        }
      ],
      "stateMutability": "view",
      "type": "function"
    },
    {
      "inputs": [],
      "name": "registrationContract",
      "outputs": [
        {
          "internalType": "address",
          "name": "",
          "type": "address"
        }
      ],
      "stateMutability": "view",
      "type": "function"
    },
    {
      "inputs": [],
      "name": "renounceOwnership",
      "outputs": [],
      "stateMutability": "nonpayable",
      "type": "function"
    },
    {
      "inputs": [
        {
          "internalType": "address",
          "name": "_registrationContract",
          "type": "address"
        }
      ],
      "name": "setRegistrationContract",
      "outputs": [],
      "stateMutability": "nonpayable",
      "type": "function"
    },
    {
      "inputs": [
        {
          "internalType": "uint256",
          "name": "_gameId",
          "type": "uint256"
        },
        {
          "internalType": "uint8",
          "name": "_radius",
          "type": "uint8"
        },
        {
          "internalType": "uint8",
          "name": "_mapShrink",
          "type": "uint8"
        }
      ],
      "name": "startNewGame",
      "outputs": [],
      "stateMutability": "nonpayable",
      "type": "function"
    },
    {
      "inputs": [
        {
          "internalType": "enum SharedStructs.Directions[]",
          "name": "_travelDirections",
          "type": "uint8[]"
        },
        {
          "internalType": "uint8[]",
          "name": "_travelDistances",
          "type": "uint8[]"
        },
        {
          "internalType": "enum SharedStructs.Directions[]",
          "name": "_shotDirections",
          "type": "uint8[]"
        },
        {
          "internalType": "uint8[]",
          "name": "_shotDistances",
          "type": "uint8[]"
        },
        {
          "internalType": "uint8[]",
          "name": "_secrets",
          "type": "uint8[]"
        },
        {
          "internalType": "address[]",
          "name": "_playerAddresses",
          "type": "address[]"
        },
        {
          "internalType": "uint256",
          "name": "gameId",
          "type": "uint256"
        }
      ],
      "name": "submitMove",
      "outputs": [],
      "stateMutability": "nonpayable",
      "type": "function"
    },
    {
      "inputs": [
        {
          "internalType": "address",
          "name": "newOwner",
          "type": "address"
        }
      ],
      "name": "transferOwnership",
      "outputs": [],
      "stateMutability": "nonpayable",
      "type": "function"
    },
    {
      "inputs": [
        {
          "components": [
            {
              "internalType": "uint8",
              "name": "q",
              "type": "uint8"
            },
            {
              "internalType": "uint8",
              "name": "r",
              "type": "uint8"
            }
          ],
          "internalType": "struct SharedStructs.Coordinate",
          "name": "_startCell",
          "type": "tuple"
        },
        {
          "internalType": "enum SharedStructs.Directions",
          "name": "_direction",
          "type": "uint8"
        },
        {
          "internalType": "uint8",
          "name": "_distance",
          "type": "uint8"
        },
        {
          "internalType": "uint256",
          "name": "gameId",
          "type": "uint256"
        }
      ],
      "name": "travel",
      "outputs": [],
      "stateMutability": "nonpayable",
      "type": "function"
    },
    {
      "inputs": [
        {
          "internalType": "uint256",
          "name": "gameId",
          "type": "uint256"
        }
      ],
      "name": "updateWorld",
      "outputs": [],
      "stateMutability": "nonpayable",
      "type": "function"
    }
  ],
  "bytecode": "0x60c0346200018457601f62005d2338819003918201601f19168301916001600160401b038311848410176200018957808492604094855283398101031262000184576200005a602062000052836200019f565b92016200019f565b9033156200016b5760008054336001600160a01b0319821681178355604051946001600160a01b0394909385939192918416907f8be0079c531659141344cd1fd0a4f28419497f9722a3daafe3b4186f6b6457e09080a3166080521660a052615b6e9081620001b582396080518181816104bc0152818161098a015281816116910152818161183601528181611be401528181611fda015281816127db015281816129c301528181612dce01528181612e480152818161328e015281816136b90152818161433e015281816144d901528181614a7501528181614ba301528181614dcd01526159bc015260a051818181611f0f0152818161215f015281816121b70152818161220f01526158630152f35b604051631e4fbdf760e01b815260006004820152602490fd5b600080fd5b634e487b7160e01b600052604160045260246000fd5b51906001600160a01b0382168203620001845756fe6080604052600436101561001a575b3461001557005b600080fd5b60003560e01c80630bf3781814614d79578063117a5b9014614cfd578063183b1baf14614b185780631e522c3e14614aef5780636b082eed14614a23578063715018a6146149ca57806378d59e05146146c45780638b7524b614612a7f5780638da5cb5b14612a5657806394c1d2d91461295b5780639cc45f3414612881578063b173a1471461271b578063b39116fd14611e97578063c13b811714611ad5578063d0399bb814611a54578063d3db03cc14611a11578063d837093c146101f3578063dcdb58971461017e5763f2fde38b0361000e573461001557602036600319011261001557610109615241565b610111615257565b6001600160a01b0390811690811561016557600054826bffffffffffffffffffffffff60a01b821617600055167f8be0079c531659141344cd1fd0a4f28419497f9722a3daafe3b4186f6b6457e0600080a3005b604051631e4fbdf760e01b815260006004820152602490fd5b346100155760c0366003190112610015576004356007811015610015576101a36150e0565b9060443560078110156100155760643560ff81168103610015576084359060ff821682036100155760a435926001600160a01b0384168403610015576020956101eb95615493565b604051908152f35b346100155760203660031901126100155761020c615257565b6004356000526001602052610230600160ff600460406000200154161515146152e4565b6004356000526001602052604060002060ff6001825492015460081c169081156119fb57061561164f575b6004356000526001602052610277600360406000200154615743565b6004356000526001602052600360406000200154906102958261515a565b916102a360405193846150be565b8083526102b2601f199161515a565b0136602084013760005b60043560005260016020526003604060002001549060ff8116918210156102f75760016102ec6102f29386615402565b52615622565b6102bc565b505060005b6004356000526001602052604060002060038101805460ff8416101561084857906103298360029361536a565b60018060a01b0391549060031b1c166000520160205260018060a01b0360016040600020015460281c16156103a157600435600052600160205260026040600020610377836003830161536a565b60018060a01b0391549060031b1c166000520160205260ff60016040600020015460201c166103af575b6103aa90615622565b6102fc565b6004356000526001602052600260406000206103ce836003830161536a565b60018060a01b0391549060031b1c1660005201602052604060002090600435600052600160205260026040600020610409836003830161536a565b60018060a01b0391549060031b1c166000520160205260ff6001604060002001541660043560005260016020526002604060002061044a846003830161536a565b60018060a01b0391549060031b1c16600052016020526104a760ff60016040600020015460081c169161049d6040519563183b1baf60e01b8752600487019060ff60209154818116845260081c16910152565b604485019061514d565b6064830152600435608483015260608260a4817f00000000000000000000000000000000000000000000000000000000000000006001600160a01b03165afa801561083c576103aa9260009060009261080a575b506106d65761067890600435600052600160205260ff61052284600360406000200161536a565b60018060a01b0391549060031b1c16600435600052600160205260026040600020610550876003830161536a565b60018060a01b0391549060031b1c166000520160205281604060002054169060043560005260016020526002604060002061058e886003830161536a565b60018060a01b0391549060031b1c16600052016020527f9db385e25deecca76e1e8dab29ae54e5c2f1707d2c611cfab0984b782e9f8a2c8360406000205460081c1684865116906106186020880195878751166040519485946004359386919360ff6080948180949998978160a088019b1687521660208601521660408401521660608201520152565b0390a260043560005260016020526002604060002061063a876003830161536a565b60018060a01b0391549060031b1c16600052016020528160406000209351168219845416178355511661ff0082549160081b169061ff001916179055565b600435600052600160205261069481600360406000200161536a565b60018060a01b0391549060031b1c167f4a5516f0f1d85471405ad39e7a960ba9a7b312f2bdc784a6dce8402611417fd660206040516004358152a290506103a1565b6108059060043560005260016020526106f683600360406000200161536a565b9054825160208085015160408051600435815260ff9485169381019390935292169181019190915260039290921b1c6001600160a01b0316907f2265cf35e234e961bc739ea7efb0e9751a34a8c56c1b547ff729d632c2ad21a09080606081010390a260043560005260016020526107928361077981600360406000200161536a565b9054600435929160031b1c6001600160a01b03166157ec565b60006107a160ff851688615402565b526004356000526001602052600260406000206107c1856003830161536a565b60018060a01b0391549060031b1c166000520160205260ff602060406000209282815116831985541617845501511661ff0082549160081b169061ff001916179055565b615622565b905061082e915060603d606011610835575b61082681836150be565b8101906157a4565b90866104fb565b503d61081c565b6040513d6000823e3d90fd5b838560005b600435600052600160205260036040600020015460ff82161015610b325761087860ff821683615402565b5161088c575b61088790615622565b61084d565b6004356000526001602052600260406000206108ab836003830161536a565b60018060a01b0391549060031b1c16600052016020526040600020906004356000526001602052600260406000206108e6836003830161536a565b60018060a01b0391549060031b1c166000520160205260ff60016040600020015460101c1660043560005260016020526002604060002061092a846003830161536a565b60018060a01b0391549060031b1c166000520160205261097d60ff60016040600020015460181c169161049d6040519563d6192ad360e01b8752600487019060ff60209154818116845260081c16910152565b60648301526040826084817f00000000000000000000000000000000000000000000000000000000000000006001600160a01b03165afa801561083c57600090610af4575b6108879250806109d560ff841687615402565b526109e360ff831686615402565b5060043560005260016020527f1a5ee6632f2ff8b0f1e4bf31b540f744e4337da13603a9eac0072df00578c5a6610a2183600360406000200161536a565b60018060a01b0391549060031b1c1691600435600052600160205260026040600020610a50866003830161536a565b60018060a01b0391549060031b1c166000520160205260ff60406000205416600435600052600160205260026040600020610a8e876003830161536a565b90546001600160a01b0360039290921b1c1660009081529101602090815260409182902054845194820151835160ff958616815260089290921c85169282019290925293831691840191909152166060820152600435608082015260a090a2905061087e565b5060403d604011610b2b575b610b0a81846150be565b60408382810103126100155782610b26916108879401906155b8565b6109c2565b503d610b00565b509060005b600435600052600160205260036040600020015460ff82161015610f525760005b600435600052600160205260036040600020015460ff82161015610f43578060ff610b8c921660ff841603610b9157615622565b610b58565b610b9e60ff841686615402565b51151580610f2d575b80610eab575b80610e23575b610d2c575b610bc560ff841686615402565b51151580610cd6575b80610c7a575b15615622576004356000526001602052610805610bf884600360406000200161536a565b9060018060a01b03918291549060031b1c16600435600052600160205281610c2785600360406000200161536a565b90549060031b1c1690600080516020615af983398151915260206040516004358152a3600435600052600160205284610c6781600360406000200161536a565b60049391933593549060031b1c166157ec565b5060ff6020610c8b82841687615402565b51015116600435600052600160205260026040600020610cae866003830161536a565b60018060a01b0391549060031b1c166000520160205260ff60406000205460081c1614610bd4565b5060ff610ce581831686615402565b515116600435600052600160205260026040600020610d07866003830161536a565b60018060a01b0391549060031b1c166000520160205260ff6040600020541614610bce565b6000610d3b60ff851687615402565b526000610d4b60ff831687615402565b526004356000526001602052610e1e6020610d6d85600360406000200161536a565b905460405160043581526001600160a01b03937fd3530cd7a307ade37676af8529ec0105ea6204af5e1534bd5de42308107123719360031b9290921c8416918391a2600435600052600160205281610dcc85600360406000200161536a565b90549060031b1c169060206040516004358152a26004356000526001602052610e018186610c6781600360406000200161536a565b600435600052600160205282610c6781600360406000200161536a565b610bb8565b5060043560005260016020526040600020610e41826003830161536a565b919060018060a01b03928391549060031b1c16600052600280910160205260ff60406000205460081c16916004356000526001602052604060002090610e8a876003840161536a565b90549060031b1c166000520160205260ff60406000205460081c1614610bb3565b5060043560005260016020526040600020610ec9826003830161536a565b919060018060a01b03928391549060031b1c16600052600280910160205260ff60406000205416916004356000526001602052604060002090610f0f876003840161536a565b90549060031b1c166000520160205260ff6040600020541614610bad565b50610f3b60ff821686615402565b511515610ba7565b50610f4d90615622565b610b37565b5060005b600435600052600160205260036040600020015460ff8216101561128d57610f8160ff821684615402565b51610f95575b610f9090615622565b610f56565b91610f9f836157c9565b600435600052600160205260036040600020015460ff821610156112865780610fce60ff610fd8931684615402565b51610fdd57615622565b610f9f565b60ff610feb81871686615402565b51511660043560005260016020526002604060002061100d846003830161536a565b60018060a01b0391549060031b1c166000520160205260ff60406000205416148061122a575b806111d4575b80611178575b15615622576004356000526001602052602061106286600360406000200161536a565b60018060a01b0391549060031b1c166004356000526001825261108c83600360406000200161536a565b60018060a01b0391549060031b1c16906040516004358152600080516020615af9833981519152938491a360043560005260016020526110d382600360406000200161536a565b60018060a01b0391549060031b1c1660043560005260016020526110fe87600360406000200161536a565b60018060a01b0391549060031b1c169160206040516004358152a360043560005260016020526111398561077981600360406000200161536a565b60043560005260016020526111598161077981600360406000200161536a565b600061116860ff871685615402565b5260006102ec60ff831685615402565b5060ff602061118982841687615402565b510151166004356000526001602052600260406000206111ac886003830161536a565b60018060a01b0391549060031b1c166000520160205260ff60406000205460081c161461103f565b5060ff6111e381831686615402565b515116600435600052600160205260026040600020611205886003830161536a565b60018060a01b0391549060031b1c166000520160205260ff6040600020541614611039565b5060ff602061123b82881687615402565b5101511660043560005260016020526002604060002061125e846003830161536a565b60018060a01b0391549060031b1c166000520160205260ff60406000205460081c1614611033565b5091610f87565b60005b600435600052600160205260036040600020019081549160ff8216928310156113a557816112bd9161536a565b90546001600160a01b03939160031b1c8316156112e5575b506112e09150615622565b611290565b6004356000526001602052600360406000200192835490600019820191821161138f5761131861135b926112e09661536a565b90549060031b1c16600435600052600160205261133c84600360406000200161536a565b90919082549060031b9160018060a01b03809116831b921b1916179055565b600435600052600160205261137660036040600020016156eb565b611381575b826112d5565b61138a90615733565b61137b565b634e487b7160e01b600052601160045260246000fd5b60043560005260016020526003604060002001805480156000146114305750506000600080516020615b1983398151915260206040516004358152a26004356000526001602052600460406000200161010061ff00198254161790555b7f0ffee877d4bec4783459533ceddde8785dcd14454a9ebe37f1b3b8792509c36b60206040516004358152a1005b6001036114a157506004356000526001602052611453600360406000200161533f565b60018060a01b0391549060031b1c16600080516020615b1983398151915260206040516004358152a26004356000526001602052600460406000200161010061ff0019825416179055611402565b6114aa9061533f565b9060018060a01b03918291549060031b1c1660007f6c5d9aa3894362f6fc8570afc4ad57ed5b0498a5e481b34ffccd61ee96cad12c60206040516004358152a360005b60043560005260016020526040600020906003820191825460ff83161015611611578361151d8361160c9561536a565b90549060031b1c1660005260028091016020526001604060002001600660ff19825416179055600435600052600160205280604060002085611562856003840161536a565b90549060031b1c1660005201602052600160406000200161ff001981541690556004356000526001602052806040600020856115a1856003840161536a565b90549060031b1c166000520160205260016040600020016206000062ff00001982541617905560043560005260016020526040600020846115e5846003840161536a565b90549060031b1c1660005201602052600160406000200163ff000000198154169055615622565b6114ed565b505050506004356000526001602052600460406000200163ff00000019815416905561163e60043561599b565b5061164a600435615416565b611402565b600435600052600160205260ff60016040600020015416604051906335d5edab60e01b8252600435600483015260248201526000816044818360018060a01b037f0000000000000000000000000000000000000000000000000000000000000000165af190811561083c576000916119d8575b5060043560005260016020526001604060002001805460ff6116e5818316615622565b169060ff19161790557ff47e725249069330b61eda3df25e7c3bcfd700624cbc7cbeabb0e28375bee53160206040516004358152a160005b81519060ff8116918210156117a9577fe33d4c5f3e9def7d3f127618203849e9a1888f8e0a9fbffbcdc7d6dbd42b64448260ff602061176d826117636117a4988a615402565b5151169388615402565b510151169061179c6040519283926004358491604091949360ff80926060860197865216602085015216910152565b0390a1615622565b61171d565b50505060005b600435600052600160205260406000206003810190815460ff841610156119d0576117dc8360029361536a565b60018060a01b0391549060031b1c16600052016020526117ff6040600020615596565b60405163b173a14760e01b8152815160ff9081166004830152602090920151909116602482015260043560448201526080816064817f00000000000000000000000000000000000000000000000000000000000000006001600160a01b03165afa801561083c57600090611995575b60609150015115611888575b61188390615622565b6117af565b60043560005260016020526118a481600360406000200161536a565b60018060a01b0391549060031b1c167faf0f1f1c6dd1455929199c881d29a04680c9c20aff5f0331d8619ed875c58d1c60206040516004358152a260043560005260016020526118ff8161077981600360406000200161536a565b60043560005260016020526003604060002001908154600019810190811161138f5761193161195c916118839461536a565b60018060a01b0391549060031b1c16600435600052600160205261133c83600360406000200161536a565b600435600052600160205261197760036040600020016156eb565b60ff8116611987575b905061187a565b61199090615733565b611980565b5060803d6080116119c9575b6119ab81836150be565b810190608081830312610015576060916119c49161539d565b61186e565b503d6119a1565b50505061025b565b6119f591503d806000833e6119ed81836150be565b810190615662565b816116c2565b634e487b7160e01b600052601260045260246000fd5b3461001557602036600319011261001557611a2a615241565b611a32615257565b600280546001600160a01b0319166001600160a01b0392909216919091179055005b34610015576020366003190112610015577fce24807f7e4b60b4e641462f13029fa5e5f79075bbc3f8e5cd43ecd19661d7606020600435611a93615257565b8060005260018252611ab4600160ff600460406000200154161515146152e4565b8060005260018252600460406000200160ff198154169055604051908152a1005b346100155760608060031936011261001557600435611af26150e0565b906044359260ff938481169081810361001557600280546001600160a01b0397919690881633148015611e8a575b611b2990615283565b856000526001926020978489528360046040600020015416611e37576000888152858a5260408120600401805460ff191687179055859190825b611dca575b5050508660005283885260036040600020018054906000815581611dab575b50508260446000959493611bc28794611b9f8c61599b565b508b8652878d528760408720019061ff0082549160081b169061ff001916179055565b604051968793849263af2f210960e01b8452169c8d60048401528b60248401527f0000000000000000000000000000000000000000000000000000000000000000165af192831561083c57600093611d0f575b506000825b611c89575b7f50ad08f58a27f2851d7e3a1b3a6a46b290f2ce677e99642d30ff639721e7779088887fce444ef4ca2b2a7392fcd119e5c16b6af56ef7caef781ca922de0de696762fb9898d8a60405191825284868301526040820152a1611c8081615416565b604051908152a1005b8351811015611d0a57807fe40ab56a2b71773fd8fa12379eac11a90b1a5a8b57fbdb4b84e4734d32a551e16080898b86611cc6611d04978b615402565b5151168782611cd5888d615402565b51015116906040611ce6888d615402565b51015115159260405194855284015260408301528a820152a1615330565b82611c1a565b611c1f565b9092503d806000833e611d2281836150be565b81019087818303126100155780519067ffffffffffffffff8211610015570181601f82011215610015578051611d578161515a565b92611d6560405194856150be565b818452898085019260071b84010192818411610015578a01915b8a848410611d935750505050509188611c15565b608091611da0848661539d565b815201920191611d7f565b60005288600020908101905b81811015611b8757600081558501611db7565b89600052828b526040600020908c600392838101918254841015611e2e57611e2894611df785889561536a565b9054911b1c16600052018c52611e23604060002060036000918281558260018201558260028201550155565b615330565b82611b63565b50505050611b68565b60405162461bcd60e51b8152600481018a9052602560248201527f47616d652077697468207468697320494420616c726561647920696e2070726f604482015264677265737360d81b6064820152608490fd5b5060005488163314611b20565b3461001557606036600319011261001557611eb0615241565b6002546001600160a01b031633148015612707575b611ece90615283565b6024356000526001602052611ef2600160ff600460406000200154161515146152e4565b6040516331a9108f60e11b815260443560048201526020816024817f00000000000000000000000000000000000000000000000000000000000000006001600160a01b03165afa90811561083c576000916126c5575b506001600160a01b0382811691160361269c576024356000526001602052600260406000200160018060a01b03821660005260205260ff60406000205416151580612666575b61260757604051611f9e81615069565b6000815260006020820152600060015b15612134575b505060408051637128e56d60e11b815260248035600483015290926000928392859081857f00000000000000000000000000000000000000000000000000000000000000006001600160a01b03165af193841561083c576000946120f9575b50839160005b60243560005260016020526040600020600390818101805460ff851610156120eb57906120488460029361536a565b60018060a01b03915490851b1c166000520160205260ff6040600020541660ff885116149081612098575b506120865761208190615622565b612019565b5091935091506001905b929192611fae565b6002915060243560005260016020526040600020906120b98482840161536a565b60018060a09493941b039254911b1c166000520160205260ff60406000205460081c1660ff6020880151161487612073565b505050509092919350612090565b90935060403d60401161212d575b61211181836150be565b810160408282031261001557612126916155b8565b9284612013565b503d612107565b1561213f5780611fb4565b604051631986c9e960e31b815260443560048201529091906020816024817f00000000000000000000000000000000000000000000000000000000000000006001600160a01b03165afa90811561083c576000916125cd575b50604051636455ce8d60e11b81526044356004820152916020836024817f00000000000000000000000000000000000000000000000000000000000000006001600160a01b03165afa92831561083c57600093612591575b50604051631303d57d60e11b81526044356004820152936000856024817f00000000000000000000000000000000000000000000000000000000000000006001600160a01b03165afa94851561083c57600095612501575b5060405161225581615085565b81815260006020820152600060408201526000606082015260006080820152600060a082015260018060a01b03831660c082015260ff841660e082015260ff85166101008201526024356101208201526044356101408201526024356000526001602052600260406000200160018060a01b03841660005260205260406000209061230560ff60208351828151168319875416178655015116839061ff0082549160081b169061ff001916179055565b602081015160078110156124eb57612320906001840161555d565b61234560ff604083015116600184019061ff0082549160081b169061ff001916179055565b606081015160078110156124eb576003916123666101409260018601615575565b61238f60ff608083015116600186019063ff00000082549160181b169063ff0000001916179055565b60a08101511515600185015465010000000000600160c81b0360c084015160281b1660ff60c81b60e085015160c81b169164ff0000000060ff60d01b61010087015160d01b169460201b169063ffffffff64ffffffffff60d81b01161717171760018501556101208101516002850155015191015560243560005260016020526003604060002001918254680100000000000000008110156124d5577f526c62f8fa999ff5dc01591b8086e17ed53753d49a9eca57e821d0c3f550efa3956124668361133c8461010098600160ff9701815561536a565b8180602081875116960151169660405197889660243588526044356020890152604088015260608701521660808501521660a083015260e060c08301526124bc865180978160e086015260208686019101615633565b6001600160a01b031694601f01601f19168101030190a2005b634e487b7160e01b600052604160045260246000fd5b634e487b7160e01b600052602160045260246000fd5b9094503d90816000823e61251582826150be565b60208183810103126100155780519067ffffffffffffffff9081831161001557838101601f84830101121561001557828101519182116124d55760405193612567601f8401601f1916602001866150be565b828552810160208385840101011161001557602061258a93818601920101615633565b9385612248565b9092506020813d6020116125c5575b816125ad602093836150be565b81010312610015576125be90615382565b91846121f0565b3d91506125a0565b90506020813d6020116125ff575b816125e8602093836150be565b81010312610015576125f990615382565b83612198565b3d91506125db565b6024803560009081526001602090815260408083206001600160a01b03959095168084526002909501909152908190205490516308538db760e41b8152600481019390935260ff8082169284019290925260081c166044820152606490fd5b506024356000526001602052600260406000200160018060a01b03821660005260205260ff60406000205460081c161515611f8e565b604051634319813760e01b81526001600160a01b03909116600482015260448035602483015290fd5b90506020813d6020116126ff575b816126e0602093836150be565b8101031261001557516001600160a01b03811681036100155782611f48565b3d91506126d3565b506000546001600160a01b03163314611ec5565b3461001557366003190160608112610015576040136100155760405161274081615069565b60043560ff8116810361001557815260243560ff8116810361001557602082015260443560006060604051612774816150a2565b82815282602082015282604082015201528060005260016020526127a7600160ff600460406000200154161515146152e4565b60405163b173a14760e01b8152825160ff9081166004830152602090930151909216602483015260448201526080816064817f00000000000000000000000000000000000000000000000000000000000000006001600160a01b03165afa801561083c57600090612847575b60809060606040519160ff815116835260ff6020820151166020840152604081015115156040840152015115156060820152f35b5060803d811161287a575b61285c81836150be565b810190608081830312610015576080916128759161539d565b612813565b503d612852565b346100155760403660031901126100155760043560243590816000526001602052600160ff60046040600020015460101c1615150361290c578160005260016020526005604060002001336000526020528060406000205560405191825260208201527feb7d119bae44c06d4b05b80eb4a3bdfc755131945d1845f3c9d2aeaa7d8bf54260403392a2005b60405162461bcd60e51b815260206004820152602160248201527f436f6d6d6974206d6f76657320686173206e6f742073746172746564207965746044820152602160f81b6064820152608490fd5b3461001557604061296b366150f0565b60006020869593965161297d81615069565b828152015260005260016020526129a2600160ff6004866000200154161515146152e4565b6129bf83519485938493630d42527560e11b8552600485016155e9565b03817f00000000000000000000000000000000000000000000000000000000000000006001600160a01b03165afa801561083c57600090612a1b575b604090612a198251809260ff60208092828151168552015116910152565bf35b5060403d604011612a4f575b612a3181836150be565b81019060408183031261001557604091612a4a916155b8565b6129fb565b503d612a27565b34610015576000366003190112610015576000546040516001600160a01b039091168152602090f35b346100155760e03660031901126100155767ffffffffffffffff60043581811161001557612ab1903690600401615172565b60243582811161001557612ac99036906004016151d9565b9060443583811161001557612ae2903690600401615172565b9060643584811161001557612afb9036906004016151d9565b9060843585811161001557612b149036906004016151d9565b9360a435958611610015573660238701121561001557856004013595612b398761515a565b96612b4760405198896150be565b80885260208801913660248360051b83010111610015579160248301925b60248360051b820101841061469d5750505050612b80615257565b60c4356000526001602052612ba4600160ff600460406000200154161515146152e4565b612bb18651835114615505565b612bbe8251825114615505565b612bcb8451845114615505565b612bd88551875114615505565b60005b8651811015612fe657612c4c612bf9612bf48386615402565b615550565b60ff612c058486615402565b5116612c14612bf4858a615402565b60ff612c20868a615402565b51169060ff612c2f878d615402565b5116926001600160a01b03612c44888f615402565b511694615493565b60c43560009081526001602052604090206005016001600160a01b03612c72848b615402565b511660005260205260406000205414612c94575b612c8f90615330565b612bdb565b60c43560009081526001602052604090206002016001600160a01b03612cba838a615402565b5116600052602052612d8d6040600020612cd7612bf48487615402565b612ce560018301918261555d565b60ff612cf18587615402565b511660ff825460c81c16809111600014612fcf57612d20905b825461ff00191660089190911b61ff0016178255565b612d36612d30612bf4868b615402565b82615575565b60ff612d428589615402565b511660ff825460d01c16809111600014612fb857612d75905b825463ff000000191660189190911b63ff00000016178255565b805464ff000000001916640100000000179055615596565b906040612d9d612bf48387615402565b60ff612da98487615402565b518351630d42527560e11b81529586938493612dca931691600485016155e9565b03817f00000000000000000000000000000000000000000000000000000000000000006001600160a01b03165afa801561083c57600090612f7a575b612e4492506040612e1a612bf4848a615402565b60ff612e26858a615402565b51169082519586928392630d42527560e11b845286600485016155e9565b03817f00000000000000000000000000000000000000000000000000000000000000006001600160a01b03165afa92831561083c57600093612f15575b50612c8f927ffd735dcfd99f4b7d7f6bcea365f20bd4b998183607e89895805ae488fbeaa8669060c0906001600160a01b03612ebd868e615402565b51169360c43560005260016020526040600020549160ff6020818451169301511660ff60208184511693015116926040519460c4358652602086015260408501526060840152608083015260a0820152a29050612c86565b925060403d604011612f73575b612f2c81856150be565b60408482810103126100155760c0612f6b857ffd735dcfd99f4b7d7f6bcea365f20bd4b998183607e89895805ae488fbeaa86693612c8f9701906155b8565b945050612e81565b503d612f22565b5060403d604011612fb1575b612f9081846150be565b60408382810103126100155782612fac91612e449401906155b8565b612e06565b503d612f86565b50612d7560ff612fc8868a615402565b5116612d5b565b50612d2060ff612fdf8688615402565b5116612d0a565b612fee615257565b60c4356000526001602052613012600160ff600460406000200154161515146152e4565b60c4356000526001602052604060002060ff6001825492015460081c169081156119fb570615614303575b60c4356000526001602052613059600360406000200154615743565b60c4356000526001602052600360406000200154906130778261515a565b9161308560405193846150be565b808352613094601f199161515a565b0136602084013760005b60c43560005260016020526003604060002001549060ff8116918210156130d35760016102ec6130ce9386615402565b61309e565b505060005b60c4356000526001602052604060002060038101805460ff8416101561357757906131058360029361536a565b60018060a01b0391549060031b1c166000520160205260018060a01b0360016040600020015460281c161561317d5760c435600052600160205260026040600020613153836003830161536a565b60018060a01b0391549060031b1c166000520160205260ff60016040600020015460201c1661318b575b61318690615622565b6130d8565b60c4356000526001602052600260406000206131aa836003830161536a565b60018060a01b0391549060031b1c166000520160205260406000209060c4356000526001602052600260406000206131e5836003830161536a565b60018060a01b0391549060031b1c166000520160205260ff6001604060002001541660c435600052600160205260026040600020613226846003830161536a565b60018060a01b0391549060031b1c166000520160205261327960ff60016040600020015460081c169161049d6040519563183b1baf60e01b8752600487019060ff60209154818116845260081c16910152565b606483015260c435608483015260608260a4817f00000000000000000000000000000000000000000000000000000000000000006001600160a01b03165afa801561083c5761318692600090600092613555575b5061346a5761340c9060c435600052600160205260ff6132f484600360406000200161536a565b60018060a01b0391549060031b1c1660c435600052600160205260026040600020613322876003830161536a565b60018060a01b0391549060031b1c166000520160205281604060002054169060c435600052600160205260026040600020613360886003830161536a565b60018060a01b0391549060031b1c16600052016020527f9db385e25deecca76e1e8dab29ae54e5c2f1707d2c611cfab0984b782e9f8a2c8360406000205460081c1684865116906133ea60208801958787511660405194859460c4359386919360ff6080948180949998978160a088019b1687521660208601521660408401521660608201520152565b0390a260c43560005260016020526002604060002061063a876003830161536a565b60c435600052600160205261342881600360406000200161536a565b60018060a01b0391549060031b1c167f4a5516f0f1d85471405ad39e7a960ba9a7b312f2bdc784a6dce8402611417fd6602060405160c4358152a2905061317d565b6108059060c435600052600160205261348a83600360406000200161536a565b905482516020808501516040805160c435815260ff9485169381019390935292169181019190915260039290921b1c6001600160a01b0316907f2265cf35e234e961bc739ea7efb0e9751a34a8c56c1b547ff729d632c2ad21a09080606081010390a260c43560005260016020526135268361350d81600360406000200161536a565b905460c435929160031b1c6001600160a01b03166157ec565b600061353560ff851688615402565b5260c4356000526001602052600260406000206107c1856003830161536a565b9050613570915060603d6060116108355761082681836150be565b90866132cd565b838560005b60c435600052600160205260036040600020015460ff82161015613861576135a760ff821683615402565b516135bb575b6135b690615622565b61357c565b60c4356000526001602052600260406000206135da836003830161536a565b60018060a01b0391549060031b1c166000520160205260406000209060c435600052600160205260026040600020613615836003830161536a565b60018060a01b0391549060031b1c166000520160205260ff60016040600020015460101c1660c435600052600160205260026040600020613659846003830161536a565b60018060a01b0391549060031b1c16600052016020526136ac60ff60016040600020015460181c169161049d6040519563d6192ad360e01b8752600487019060ff60209154818116845260081c16910152565b60648301526040826084817f00000000000000000000000000000000000000000000000000000000000000006001600160a01b03165afa801561083c57600090613823575b6135b692508061370460ff841687615402565b5261371260ff831686615402565b5060c43560005260016020527f1a5ee6632f2ff8b0f1e4bf31b540f744e4337da13603a9eac0072df00578c5a661375083600360406000200161536a565b60018060a01b0391549060031b1c169160c43560005260016020526002604060002061377f866003830161536a565b60018060a01b0391549060031b1c166000520160205260ff6040600020541660c4356000526001602052600260406000206137bd876003830161536a565b90546001600160a01b0360039290921b1c1660009081529101602090815260409182902054845194820151835160ff958616815260089290921c8516928201929092529383169184019190915216606082015260c435608082015260a090a290506135ad565b5060403d60401161385a575b61383981846150be565b60408382810103126100155782613855916135b69401906155b8565b6136f1565b503d61382f565b509060005b60c435600052600160205260036040600020015460ff82161015613c815760005b60c435600052600160205260036040600020015460ff82161015613c72578060ff6138bb921660ff8416036138c057615622565b613887565b6138cd60ff841686615402565b51151580613c5c575b80613bda575b80613b52575b613a5b575b6138f460ff841686615402565b51151580613a05575b806139a9575b156156225760c435600052600160205261080561392784600360406000200161536a565b9060018060a01b03918291549060031b1c1660c43560005260016020528161395685600360406000200161536a565b90549060031b1c1690600080516020615af9833981519152602060405160c4358152a360c43560005260016020528461399681600360406000200161536a565b60c49391933593549060031b1c166157ec565b5060ff60206139ba82841687615402565b5101511660c4356000526001602052600260406000206139dd866003830161536a565b60018060a01b0391549060031b1c166000520160205260ff60406000205460081c1614613903565b5060ff613a1481831686615402565b51511660c435600052600160205260026040600020613a36866003830161536a565b60018060a01b0391549060031b1c166000520160205260ff60406000205416146138fd565b6000613a6a60ff851687615402565b526000613a7a60ff831687615402565b5260c4356000526001602052613b4d6020613a9c85600360406000200161536a565b905460405160c43581526001600160a01b03937fd3530cd7a307ade37676af8529ec0105ea6204af5e1534bd5de42308107123719360031b9290921c8416918391a260c435600052600160205281613afb85600360406000200161536a565b90549060031b1c1690602060405160c4358152a260c4356000526001602052613b30818661399681600360406000200161536a565b60c43560005260016020528261399681600360406000200161536a565b6138e7565b5060c43560005260016020526040600020613b70826003830161536a565b919060018060a01b03928391549060031b1c16600052600280910160205260ff60406000205460081c169160c4356000526001602052604060002090613bb9876003840161536a565b90549060031b1c166000520160205260ff60406000205460081c16146138e2565b5060c43560005260016020526040600020613bf8826003830161536a565b919060018060a01b03928391549060031b1c16600052600280910160205260ff604060002054169160c4356000526001602052604060002090613c3e876003840161536a565b90549060031b1c166000520160205260ff60406000205416146138dc565b50613c6a60ff821686615402565b5115156138d6565b50613c7c90615622565b613866565b5060005b60c435600052600160205260036040600020015460ff82161015613f9d57613cb060ff821684615402565b51613cc4575b613cbf90615622565b613c85565b91613cce836157c9565b60c435600052600160205260036040600020015460ff82161015613f965780613cfd60ff613d07931684615402565b51613d0c57615622565b613cce565b60ff613d1a81871686615402565b51511660c435600052600160205260026040600020613d3c846003830161536a565b60018060a01b0391549060031b1c166000520160205260ff604060002054161480613f3a575b80613ee4575b80613e88575b156156225760c43560005260016020526020613d9186600360406000200161536a565b60018060a01b0391549060031b1c1660c43560005260018252613dbb83600360406000200161536a565b60018060a01b0391549060031b1c169060405160c4358152600080516020615af9833981519152938491a360c4356000526001602052613e0282600360406000200161536a565b60018060a01b0391549060031b1c1660c4356000526001602052613e2d87600360406000200161536a565b60018060a01b0391549060031b1c1691602060405160c4358152a360c4356000526001602052613e688561350d81600360406000200161536a565b60c43560005260016020526111598161350d81600360406000200161536a565b5060ff6020613e9982841687615402565b5101511660c435600052600160205260026040600020613ebc886003830161536a565b60018060a01b0391549060031b1c166000520160205260ff60406000205460081c1614613d6e565b5060ff613ef381831686615402565b51511660c435600052600160205260026040600020613f15886003830161536a565b60018060a01b0391549060031b1c166000520160205260ff6040600020541614613d68565b5060ff6020613f4b82881687615402565b5101511660c435600052600160205260026040600020613f6e846003830161536a565b60018060a01b0391549060031b1c166000520160205260ff60406000205460081c1614613d62565b5091613cb6565b60005b60c435600052600160205260036040600020019081549160ff8216928310156140805781613fcd9161536a565b90546001600160a01b03939160031b1c831615613ff5575b50613ff09150615622565b613fa0565b60c4356000526001602052600360406000200192835490600019820191821161138f5761402861404c92613ff09661536a565b90549060031b1c1660c435600052600160205261133c84600360406000200161536a565b60c435600052600160205261406760036040600020016156eb565b614072575b82613fe5565b61407b90615733565b61406c565b60c435600052600160205260036040600020018054801560001461410b5750506000600080516020615b19833981519152602060405160c4358152a260c4356000526001602052600460406000200161010061ff00198254161790555b7f0ffee877d4bec4783459533ceddde8785dcd14454a9ebe37f1b3b8792509c36b602060405160c4358152a1005b60010361417c575060c435600052600160205261412e600360406000200161533f565b60018060a01b0391549060031b1c16600080516020615b19833981519152602060405160c4358152a260c4356000526001602052600460406000200161010061ff00198254161790556140dd565b6141859061533f565b9060018060a01b03918291549060031b1c1660007f6c5d9aa3894362f6fc8570afc4ad57ed5b0498a5e481b34ffccd61ee96cad12c602060405160c4358152a360005b60c43560005260016020526040600020906003820191825460ff831610156142c557836141f8836142c09561536a565b90549060031b1c1660005260028091016020526001604060002001600660ff1982541617905560c43560005260016020528060406000208561423d856003840161536a565b90549060031b1c1660005201602052600160406000200161ff0019815416905560c43560005260016020528060406000208561427c856003840161536a565b90549060031b1c166000520160205260016040600020016206000062ff00001982541617905560c43560005260016020526040600020846115e5846003840161536a565b6141c8565b5050505060c4356000526001602052600460406000200163ff0000001981541690556142f260c43561599b565b506142fe60c435615416565b6140dd565b60c43560008181526001602081905260408083209091015490516335d5edab60e01b8152600481019390935260ff16602483015281604481837f00000000000000000000000000000000000000000000000000000000000000006001600160a01b03165af190811561083c57600091614682575b5060c43560005260016020526001604060002001805460ff61439a818316615622565b169060ff19161790557ff47e725249069330b61eda3df25e7c3bcfd700624cbc7cbeabb0e28375bee531602060405160c4358152a160005b81519060ff81169182101561444c577fe33d4c5f3e9def7d3f127618203849e9a1888f8e0a9fbffbcdc7d6dbd42b64448260ff602061441882611763614447988a615402565b510151169061179c60405192839260c4358491604091949360ff80926060860197865216602085015216910152565b6143d2565b50505060005b60c435600052600160205260406000206003810190815460ff8416101561467a5761447f8360029361536a565b60018060a01b0391549060031b1c16600052016020526144a26040600020615596565b60405163b173a14760e01b8152815160ff9081166004830152602090920151909116602482015260c43560448201526080816064817f00000000000000000000000000000000000000000000000000000000000000006001600160a01b03165afa801561083c5760009061463d575b6060915001511561452b575b61452690615622565b614452565b60c435600052600160205261454781600360406000200161536a565b60018060a01b0391549060031b1c167faf0f1f1c6dd1455929199c881d29a04680c9c20aff5f0331d8619ed875c58d1c602060405160c4358152a260c43560005260016020526145a28161350d81600360406000200161536a565b60c43560005260016020526003604060002001908154918260001981011161138f576145d96146049161452694600019019061536a565b60018060a01b0391549060031b1c1660c435600052600160205261133c83600360406000200161536a565b60c435600052600160205261461f60036040600020016156eb565b60ff811661462f575b905061451d565b61463890615733565b614628565b5060803d608011614673575b61465381836150be565b6080828281010312610015578161466e91606093019061539d565b614511565b503d614649565b50505061303d565b61469791503d806000833e6119ed81836150be565b81614377565b83356001600160a01b03811690036100155760208060249386358152019401939150612b65565b3461001557602080600319360112610015576004359081600052600180825260ff6146fc8282600460406000200154161515146152e4565b8360005281835260038060406000200154946147178661515a565b9561472560405197886150be565b808752614734601f199161515a565b0160005b81811061494a575050836000905b61483a575b5050506040519280840190808552855180925280604086019601926000905b8382106147775786880387f35b9091929394836101808299885161479e82825160ff60208092828151168552015116910152565b6147af84820151604084019061514d565b8580604083015116606090818501528201516147d06080918286019061514d565b8201511660a09081840152810151151560c0908184015260018060a01b03908201511660e0830152858060e083015116610100908185015282015116610120908184015281015190610140918284015201516101608201520196019201909694969392919361476a565b9084969492918160005283875260406000209083820191825482101561493f5784614868836149359561536a565b929060018060a01b039384915490841b1c1660005260028091018b52604060002090898c6040519561489987615085565b6148a285615596565b8752828c86015480936148b9838316828c01615656565b828260081c1660408b01526148d6838360101c1660608c01615656565b828260181c1660808b01521c16151560a08801528160281c1660c0870152818160c81c1660e087015260d01c1661010085015281015461012084015201546101408201526149248289615402565b5261492f8188615402565b50615330565b9091929496614746565b50505095939561474b565b869060409896985161495b81615085565b60405161496781615069565b600081526000848201528152600083820152600060408201526000606082015260006080820152600060a0820152600060c0820152600060e082015260006101008201526000610120820152600061014082015282828901015201969496614738565b34610015576000366003190112610015576149e3615257565b600080546001600160a01b0319811682556001600160a01b03167f8be0079c531659141344cd1fd0a4f28419497f9722a3daafe3b4186f6b6457e08280a3005b3461001557602080600319360112610015576004358060005260018252614a59600160ff600460406000200154161515146152e4565b60405163436fadf360e11b8152600481019190915281816024817f00000000000000000000000000000000000000000000000000000000000000006001600160a01b03165afa90811561083c57600091614aba575b5060ff60405191168152f35b90508181813d8311614ae8575b614ad181836150be565b8101031261001557614ae290615382565b82614aae565b503d614ac7565b34610015576000366003190112610015576002546040516001600160a01b039091168152602090f35b3461001557614b26366150f0565b919282600052614b8560019460209386855260ff928392614b548985600460406000200154161515146152e4565b60405163183b1baf60e01b8152865160ff90811660048301526020909701519096166024870152604486019061514d565b166064830152608482018490526001600160a01b039160608160a4817f000000000000000000000000000000000000000000000000000000000000000087165afa90811561083c57600090600092614cdc575b5015614c7a575083600052848352614bfd8582600460406000200154161515146152e4565b60009283865b614c19575b50505050614c179250336157ec565b005b8560005286825260038060406000200180548584161015614c7357614c3f83879261536a565b929092339354911b1c1614614c605790614c598792615622565b9091614c03565b9350505050614c17925083808080614c08565b5050614c08565b614c1795925080828592511686600052848352600260406000200133600052835260406000209060ff19825416179055015116926000528152600260406000200190336000525260406000209061ff0082549160081b169061ff001916179055565b9050614cf6915060603d81116108355761082681836150be565b9087614bd8565b3461001557602036600319011261001557600435600052600160205260e060406000208054906004600182015491015460405192835260ff8281809416602086015260081c16604084015281811615156060840152818160081c1615156080840152818160101c16151560a084015260181c16151560c0820152f35b346100155760208060031936011261001557600435908160005260019182825260ff90614db38483600460406000200154161515146152e4565b60405163436fadf360e11b815260048101919091526024917f00000000000000000000000000000000000000000000000000000000000000006001600160a01b0316919084828581865afa93841561083c57869260009561502f575b50909150614e4282614e3c614e37614e28889a98615acd565b614e318b6157c9565b90615ae1565b6157db565b16615743565b958260405191614e5183615069565b16908181528187820152614e64886153f5565b52614e6e876153f5565b5084805b614ed3575b5050505050604051918083018184528451809152816040850195019160005b828110614ea35785870386f35b9091929382604088614ec6849a895160ff60208092828151168552015116910152565b0197950193929101614e96565b83819896981682811161502657600019810185811161501157614f02614e3784614efd8994615acd565b615ae1565b1690614f0d886153f5565b516040516301cf2e2560e51b8152815160ff908116600483015260209092015190911660248201529060448201526000816064818a5afa90811561083c57600091614ff6575b50899594939291906000875b614f7b575b505050614f7090615622565b909192939597614e72565b908092939495969750518b88831691821015614feb5750614f9c8184615402565b5190840190818511614fd65791614fc3828e94614fbc614fc9958f615402565b528c615402565b50615622565b8197969594939291614f5f565b87634e487b7160e01b60005260116004526000fd5b979695949350614f64565b61500b91503d806000833e6119ed81836150be565b8a614f53565b84634e487b7160e01b60005260116004526000fd5b50969496614e77565b86809296508194503d8311615062575b61504981836150be565b810103126100155761505b8692615382565b9387614e0f565b503d61503f565b6040810190811067ffffffffffffffff8211176124d557604052565b610160810190811067ffffffffffffffff8211176124d557604052565b6080810190811067ffffffffffffffff8211176124d557604052565b90601f8019910116810190811067ffffffffffffffff8211176124d557604052565b6024359060ff8216820361001557565b6003190160a08112610015576040136100155760405161510f81615069565b60043560ff811681036100155781526151266150e0565b6020820152906044356007811015610015579060643560ff81168103610015579060843590565b9060078210156124eb5752565b67ffffffffffffffff81116124d55760051b60200190565b81601f82011215610015578035916151898361515a565b9261519760405194856150be565b808452602092838086019260051b820101928311610015578301905b8282106151c1575050505090565b813560078110156100155781529083019083016151b3565b81601f82011215610015578035916151f08361515a565b926151fe60405194856150be565b808452602092838086019260051b820101928311610015578301905b828210615228575050505090565b813560ff8116810361001557815290830190830161521a565b600435906001600160a01b038216820361001557565b6000546001600160a01b0316330361526b57565b60405163118cdaa760e01b8152336004820152602490fd5b1561528a57565b60405162461bcd60e51b815260206004820152602c60248201527f43616c6c6572206973206e6f74206f776e6572206f722072656769737472617460448201526b1a5bdb8818dbdb9d1c9858dd60a21b6064820152608490fd5b156152eb57565b60405162461bcd60e51b815260206004820152601960248201527f47616d6520686173206e6f7420737461727465642079657421000000000000006044820152606490fd5b600019811461138f5760010190565b80541561535457600052602060002090600090565b634e487b7160e01b600052603260045260246000fd5b80548210156153545760005260206000200190600090565b519060ff8216820361001557565b5190811515820361001557565b9190826080910312610015576040516153b5816150a2565b60606153f08183956153c681615382565b85526153d460208201615382565b60208601526153e560408201615390565b604086015201615390565b910152565b8051156153545760200190565b80518210156153545760209160051b010190565b60207f8924ef8e2fcf31b0d38716fc8120f7aec496d13f5abdb8320e31a69dbc44910091806000526001825261545b600160ff600460406000200154161515146152e4565b806000526001825260046040600020016201000062ff000019825416179055604051908152a1565b60078110156124eb5760f81b9052565b94929390604051946154a9602087018098615483565b6154c860ff60f81b9485809460f81b1660218901526022880190615483565b60f81b16602385015260f81b1660248301526bffffffffffffffffffffffff199060601b166025820152601981526154ff81615069565b51902090565b1561550c57565b606460405162461bcd60e51b815260206004820152602060248201527f417272617973206d7573742068617665207468652073616d65206c656e6774686044820152fd5b5160078110156124eb5790565b9060078110156124eb5760ff80198354169116179055565b9060078110156124eb5762ff000082549160101b169062ff00001916179055565b906040516155a381615069565b602060ff829454818116845260081c16910152565b9190826040910312610015576040516155d081615069565b60206153f08183956155e181615382565b855201615382565b91606091949361561c60ff9261561286608081019960ff60208092828151168552015116910152565b604086019061514d565b16910152565b60ff1660ff811461138f5760010190565b60005b8381106156465750506000910152565b8181015183820152602001615636565b60078210156124eb5752565b9060209182818303126100155780519067ffffffffffffffff8211610015570181601f82011215610015578051926156998461515a565b936040936156a9855196876150be565b818652828087019260061b85010193818511610015578301915b8483106156d35750505050505090565b8386916156e084866155b8565b8152019201916156c3565b8054801561571d57600019019061571a615705838361536a565b81549060018060a01b039060031b1b19169055565b55565b634e487b7160e01b600052603160045260246000fd5b60ff16801561138f576000190190565b9061574d8261515a565b60409061575c825191826150be565b838152809361576d601f199161515a565b0191600090815b848110615782575050505050565b602090825161579081615069565b848152828581830152828701015201615774565b9190606083820312610015576157c69060206157bf85615390565b94016155b8565b90565b60ff60019116019060ff821161138f57565b60ff166001019060ff821161138f57565b90916000908082526001906020908282526040946003868620015460ff881610156159575781855283835261582d8460ff60048989200154161515146152e4565b60018060a01b0380911690817f0ceeb6c20e03a8c47e6673117b7b54c5b880118423ef2a84e0b795bd849fc406858951868152a27f000000000000000000000000000000000000000000000000000000000000000016828652848452600287872001828752845260038787200154813b15615953578691602483928a51948593849263835f396760e01b845260048401525af1801561594957615918575b509261570595928260039587946159169a985283835260028686200190600052825261590c8560002060036000918281558260018201558260028201550155565b835252200161536a565b565b67ffffffffffffffff8196929611615935578652936157056158cb565b634e487b7160e01b82526041600452602482fd5b87513d88823e3d90fd5b8680fd5b855162461bcd60e51b815260048101849052601860248201527f496e6465782076616c7565206f7574206f662072616e676500000000000000006044820152606490fd5b6040805163436fadf360e11b815260048101839052909160209182816024817f00000000000000000000000000000000000000000000000000000000000000006001600160a01b03165afa908115615ac257600091615a5f575b50907f3874cce3730901301cd0c02b4c2dd416d59546f183096d9f2a434c4d3a9ba4a56060600194938360005285855286600020615a338154615330565b90558360005285855260ff876000205491885192868452878401521687820152a1600052526000205490565b908382813d8311615abb575b615a7581836150be565b81010312615ab85750907f3874cce3730901301cd0c02b4c2dd416d59546f183096d9f2a434c4d3a9ba4a56060615aae60019594615382565b92939450506159f5565b80fd5b503d615a6b565b84513d6000823e3d90fd5b60ff166003029060ff821691820361138f57565b9060ff8091169116029060ff821691820361138f5756febeaba0cb8f0bf4956e3f8756079b1aa20a9c7286167b8957d85188108991642d56807b65299b9d361218ee1228c0caeed59b1cbcb079421f124145f99d0a0b06a2646970667358221220a399d7c275d9593b8daf2d3d57410b93b751bab2eb074f9202267f5303fa2a7364736f6c63430008140033",
  "linkReferences": {},
  "deployedLinkReferences": {}
}