{
  "_format": "hh-sol-artifact-1",
  "contractName": "GamePunk",
  "sourceName": "contracts/GamePunk.sol",
  "abi": [
    {
      "inputs": [
        {
          "internalType": "address",
          "name": "_mapAddress",
          "type": "address"
        },
        {
          "internalType": "address",
          "name": "_punkshipsAddress",
          "type": "address"
        }
      ],
      "stateMutability": "nonpayable",
      "type": "constructor"
    },
    {
      "inputs": [
        {
          "internalType": "address",
          "name": "player",
          "type": "address"
        },
        {
          "internalType": "uint256",
          "name": "tokenId",
          "type": "uint256"
        }
      ],
      "name": "NotOwnerOfShip",
      "type": "error"
    },
    {
      "inputs": [
        {
          "internalType": "address",
          "name": "owner",
          "type": "address"
        }
      ],
      "name": "OwnableInvalidOwner",
      "type": "error"
    },
    {
      "inputs": [
        {
          "internalType": "address",
          "name": "account",
          "type": "address"
        }
      ],
      "name": "OwnableUnauthorizedAccount",
      "type": "error"
    },
    {
      "inputs": [
        {
          "internalType": "address",
          "name": "player",
          "type": "address"
        },
        {
          "internalType": "uint8",
          "name": "q",
          "type": "uint8"
        },
        {
          "internalType": "uint8",
          "name": "r",
          "type": "uint8"
        }
      ],
      "name": "ShipAlreadyAdded",
      "type": "error"
    },
    {
      "anonymous": false,
      "inputs": [
        {
          "indexed": false,
          "internalType": "uint256",
          "name": "gameId",
          "type": "uint256"
        },
        {
          "indexed": false,
          "internalType": "uint8",
          "name": "q",
          "type": "uint8"
        },
        {
          "indexed": false,
          "internalType": "uint8",
          "name": "r",
          "type": "uint8"
        },
        {
          "indexed": false,
          "internalType": "bool",
          "name": "island",
          "type": "bool"
        }
      ],
      "name": "Cell",
      "type": "event"
    },
    {
      "anonymous": false,
      "inputs": [
        {
          "indexed": false,
          "internalType": "uint256",
          "name": "gameId",
          "type": "uint256"
        },
        {
          "indexed": false,
          "internalType": "uint8",
          "name": "q",
          "type": "uint8"
        },
        {
          "indexed": false,
          "internalType": "uint8",
          "name": "r",
          "type": "uint8"
        }
      ],
      "name": "CellDeleted",
      "type": "event"
    },
    {
      "anonymous": false,
      "inputs": [
        {
          "indexed": false,
          "internalType": "uint256",
          "name": "gameId",
          "type": "uint256"
        }
      ],
      "name": "CommitPhaseStarted",
      "type": "event"
    },
    {
      "anonymous": false,
      "inputs": [
        {
          "indexed": false,
          "internalType": "uint256",
          "name": "gameId",
          "type": "uint256"
        }
      ],
      "name": "GameEnded",
      "type": "event"
    },
    {
      "anonymous": false,
      "inputs": [
        {
          "indexed": false,
          "internalType": "uint256",
          "name": "gameId",
          "type": "uint256"
        }
      ],
      "name": "GameStarted",
      "type": "event"
    },
    {
      "anonymous": false,
      "inputs": [
        {
          "indexed": true,
          "internalType": "bool",
          "name": "gameStatus",
          "type": "bool"
        },
        {
          "indexed": true,
          "internalType": "address",
          "name": "winnerAddress",
          "type": "address"
        },
        {
          "indexed": false,
          "internalType": "uint256",
          "name": "gameId",
          "type": "uint256"
        }
      ],
      "name": "GameUpdated",
      "type": "event"
    },
    {
      "anonymous": false,
      "inputs": [
        {
          "indexed": true,
          "internalType": "address",
          "name": "winner",
          "type": "address"
        },
        {
          "indexed": false,
          "internalType": "uint256",
          "name": "gameId",
          "type": "uint256"
        }
      ],
      "name": "GameWinner",
      "type": "event"
    },
    {
      "anonymous": false,
      "inputs": [
        {
          "indexed": false,
          "internalType": "uint8",
          "name": "radius",
          "type": "uint8"
        },
        {
          "indexed": false,
          "internalType": "uint256",
          "name": "gameId",
          "type": "uint256"
        },
        {
          "indexed": false,
          "internalType": "uint8",
          "name": "mapShrink",
          "type": "uint8"
        }
      ],
      "name": "MapInitialized",
      "type": "event"
    },
    {
      "anonymous": false,
      "inputs": [
        {
          "indexed": false,
          "internalType": "uint256",
          "name": "gameId",
          "type": "uint256"
        }
      ],
      "name": "MapShrink",
      "type": "event"
    },
    {
      "anonymous": false,
      "inputs": [
        {
          "indexed": true,
          "internalType": "address",
          "name": "player",
          "type": "address"
        },
        {
          "indexed": false,
          "internalType": "uint256",
          "name": "gameId",
          "type": "uint256"
        },
        {
          "indexed": false,
          "internalType": "bytes32",
          "name": "moveHash",
          "type": "bytes32"
        }
      ],
      "name": "MoveCommitted",
      "type": "event"
    },
    {
      "anonymous": false,
      "inputs": [
        {
          "indexed": true,
          "internalType": "address",
          "name": "player",
          "type": "address"
        },
        {
          "indexed": false,
          "internalType": "uint256",
          "name": "gameId",
          "type": "uint256"
        },
        {
          "indexed": false,
          "internalType": "uint256",
          "name": "roundId",
          "type": "uint256"
        },
        {
          "indexed": false,
          "internalType": "uint8",
          "name": "destQ",
          "type": "uint8"
        },
        {
          "indexed": false,
          "internalType": "uint8",
          "name": "destR",
          "type": "uint8"
        },
        {
          "indexed": false,
          "internalType": "uint8",
          "name": "shotQ",
          "type": "uint8"
        },
        {
          "indexed": false,
          "internalType": "uint8",
          "name": "shotR",
          "type": "uint8"
        }
      ],
      "name": "MoveSubmitted",
      "type": "event"
    },
    {
      "anonymous": false,
      "inputs": [
        {
          "indexed": false,
          "internalType": "address[]",
          "name": "players",
          "type": "address[]"
        },
        {
          "indexed": false,
          "internalType": "uint256",
          "name": "gameId",
          "type": "uint256"
        }
      ],
      "name": "MutualShot",
      "type": "event"
    },
    {
      "anonymous": false,
      "inputs": [
        {
          "indexed": false,
          "internalType": "uint256",
          "name": "gameId",
          "type": "uint256"
        },
        {
          "indexed": false,
          "internalType": "uint256",
          "name": "roundId",
          "type": "uint256"
        },
        {
          "indexed": false,
          "internalType": "uint8",
          "name": "radius",
          "type": "uint8"
        }
      ],
      "name": "NewRound",
      "type": "event"
    },
    {
      "anonymous": false,
      "inputs": [
        {
          "indexed": true,
          "internalType": "address",
          "name": "previousOwner",
          "type": "address"
        },
        {
          "indexed": true,
          "internalType": "address",
          "name": "newOwner",
          "type": "address"
        }
      ],
      "name": "OwnershipTransferred",
      "type": "event"
    },
    {
      "anonymous": false,
      "inputs": [
        {
          "indexed": true,
          "internalType": "address",
          "name": "player",
          "type": "address"
        },
        {
          "indexed": false,
          "internalType": "uint256",
          "name": "gameId",
          "type": "uint256"
        },
        {
          "indexed": false,
          "internalType": "uint256",
          "name": "punkshipId",
          "type": "uint256"
        },
        {
          "indexed": false,
          "internalType": "uint8",
          "name": "q",
          "type": "uint8"
        },
        {
          "indexed": false,
          "internalType": "uint8",
          "name": "r",
          "type": "uint8"
        },
        {
          "indexed": false,
          "internalType": "uint8",
          "name": "speed",
          "type": "uint8"
        },
        {
          "indexed": false,
          "internalType": "uint8",
          "name": "range",
          "type": "uint8"
        },
        {
          "indexed": false,
          "internalType": "string",
          "name": "image",
          "type": "string"
        }
      ],
      "name": "PlayerAdded",
      "type": "event"
    },
    {
      "anonymous": false,
      "inputs": [
        {
          "indexed": true,
          "internalType": "address",
          "name": "player",
          "type": "address"
        },
        {
          "indexed": false,
          "internalType": "uint256",
          "name": "gameId",
          "type": "uint256"
        }
      ],
      "name": "PlayerDefeated",
      "type": "event"
    },
    {
      "anonymous": false,
      "inputs": [
        {
          "indexed": true,
          "internalType": "address",
          "name": "captain",
          "type": "address"
        },
        {
          "indexed": false,
          "internalType": "uint256",
          "name": "gameId",
          "type": "uint256"
        },
        {
          "indexed": false,
          "internalType": "uint8",
          "name": "q",
          "type": "uint8"
        },
        {
          "indexed": false,
          "internalType": "uint8",
          "name": "r",
          "type": "uint8"
        }
      ],
      "name": "ShipCollidedWithIsland",
      "type": "event"
    },
    {
      "anonymous": false,
      "inputs": [
        {
          "indexed": true,
          "internalType": "address",
          "name": "victim",
          "type": "address"
        },
        {
          "indexed": true,
          "internalType": "address",
          "name": "attacker",
          "type": "address"
        },
        {
          "indexed": false,
          "internalType": "uint256",
          "name": "gameId",
          "type": "uint256"
        }
      ],
      "name": "ShipHit",
      "type": "event"
    },
    {
      "anonymous": false,
      "inputs": [
        {
          "indexed": true,
          "internalType": "address",
          "name": "captain",
          "type": "address"
        },
        {
          "indexed": false,
          "internalType": "uint8",
          "name": "initialQ",
          "type": "uint8"
        },
        {
          "indexed": false,
          "internalType": "uint8",
          "name": "initialR",
          "type": "uint8"
        },
        {
          "indexed": false,
          "internalType": "uint8",
          "name": "q",
          "type": "uint8"
        },
        {
          "indexed": false,
          "internalType": "uint8",
          "name": "r",
          "type": "uint8"
        },
        {
          "indexed": false,
          "internalType": "uint256",
          "name": "gameId",
          "type": "uint256"
        }
      ],
      "name": "ShipMoved",
      "type": "event"
    },
    {
      "anonymous": false,
      "inputs": [
        {
          "indexed": true,
          "internalType": "address",
          "name": "captain",
          "type": "address"
        },
        {
          "indexed": false,
          "internalType": "uint256",
          "name": "gameId",
          "type": "uint256"
        }
      ],
      "name": "ShipMovedInGame",
      "type": "event"
    },
    {
      "anonymous": false,
      "inputs": [
        {
          "indexed": true,
          "internalType": "address",
          "name": "captain",
          "type": "address"
        },
        {
          "indexed": false,
          "internalType": "uint8",
          "name": "fromQ",
          "type": "uint8"
        },
        {
          "indexed": false,
          "internalType": "uint8",
          "name": "fromR",
          "type": "uint8"
        },
        {
          "indexed": false,
          "internalType": "uint8",
          "name": "shotQ",
          "type": "uint8"
        },
        {
          "indexed": false,
          "internalType": "uint8",
          "name": "shotR",
          "type": "uint8"
        },
        {
          "indexed": false,
          "internalType": "uint256",
          "name": "gameId",
          "type": "uint256"
        }
      ],
      "name": "ShipShot",
      "type": "event"
    },
    {
      "anonymous": false,
      "inputs": [
        {
          "indexed": true,
          "internalType": "address",
          "name": "captain",
          "type": "address"
        },
        {
          "indexed": false,
          "internalType": "uint256",
          "name": "gameId",
          "type": "uint256"
        }
      ],
      "name": "ShipSunk",
      "type": "event"
    },
    {
      "anonymous": false,
      "inputs": [
        {
          "indexed": true,
          "internalType": "address",
          "name": "captain",
          "type": "address"
        },
        {
          "indexed": false,
          "internalType": "uint256",
          "name": "gameId",
          "type": "uint256"
        }
      ],
      "name": "ShipSunkOutOfMap",
      "type": "event"
    },
    {
      "anonymous": false,
      "inputs": [
        {
          "indexed": false,
          "internalType": "uint256",
          "name": "gameId",
          "type": "uint256"
        },
        {
          "indexed": false,
          "internalType": "uint256",
          "name": "round",
          "type": "uint256"
        }
      ],
      "name": "SubmitPhaseStarted",
      "type": "event"
    },
    {
      "anonymous": false,
      "inputs": [
        {
          "indexed": false,
          "internalType": "uint256",
          "name": "gameId",
          "type": "uint256"
        }
      ],
      "name": "WorldUpdated",
      "type": "event"
    },
    {
      "stateMutability": "nonpayable",
      "type": "fallback"
    },
    {
      "inputs": [
        {
          "internalType": "address",
          "name": "playerAddress",
          "type": "address"
        },
        {
          "internalType": "uint256",
          "name": "gameId",
          "type": "uint256"
        },
        {
          "internalType": "uint256",
          "name": "_punkshipId",
          "type": "uint256"
        }
      ],
      "name": "addShip",
      "outputs": [],
      "stateMutability": "nonpayable",
      "type": "function"
    },
    {
      "inputs": [
        {
          "internalType": "bytes32",
          "name": "moveHash",
          "type": "bytes32"
        },
        {
          "internalType": "uint256",
          "name": "gameId",
          "type": "uint256"
        }
      ],
      "name": "commitMove",
      "outputs": [],
      "stateMutability": "nonpayable",
      "type": "function"
    },
    {
      "inputs": [
        {
          "internalType": "enum SharedStructs.Directions",
          "name": "_travelDirection",
          "type": "uint8"
        },
        {
          "internalType": "uint8",
          "name": "_travelDistance",
          "type": "uint8"
        },
        {
          "internalType": "enum SharedStructs.Directions",
          "name": "_shotDirection",
          "type": "uint8"
        },
        {
          "internalType": "uint8",
          "name": "_shotDistance",
          "type": "uint8"
        },
        {
          "internalType": "uint8",
          "name": "_secret",
          "type": "uint8"
        },
        {
          "internalType": "address",
          "name": "_playerAddress",
          "type": "address"
        }
      ],
      "name": "encodeCommitment",
      "outputs": [
        {
          "internalType": "bytes32",
          "name": "",
          "type": "bytes32"
        }
      ],
      "stateMutability": "pure",
      "type": "function"
    },
    {
      "inputs": [
        {
          "internalType": "uint256",
          "name": "",
          "type": "uint256"
        }
      ],
      "name": "games",
      "outputs": [
        {
          "internalType": "uint256",
          "name": "round",
          "type": "uint256"
        },
        {
          "internalType": "uint8",
          "name": "shrinkNo",
          "type": "uint8"
        },
        {
          "internalType": "uint8",
          "name": "mapShrink",
          "type": "uint8"
        },
        {
          "internalType": "bool",
          "name": "gameInProgress",
          "type": "bool"
        },
        {
          "internalType": "bool",
          "name": "stopAddingShips",
          "type": "bool"
        },
        {
          "internalType": "bool",
          "name": "letCommitMoves",
          "type": "bool"
        },
        {
          "internalType": "bool",
          "name": "letSubmitMoves",
          "type": "bool"
        }
      ],
      "stateMutability": "view",
      "type": "function"
    },
    {
      "inputs": [
        {
          "components": [
            {
              "internalType": "uint8",
              "name": "q",
              "type": "uint8"
            },
            {
              "internalType": "uint8",
              "name": "r",
              "type": "uint8"
            }
          ],
          "internalType": "struct SharedStructs.Coordinate",
          "name": "_coord",
          "type": "tuple"
        },
        {
          "internalType": "uint256",
          "name": "gameId",
          "type": "uint256"
        }
      ],
      "name": "getCell",
      "outputs": [
        {
          "components": [
            {
              "internalType": "uint8",
              "name": "q",
              "type": "uint8"
            },
            {
              "internalType": "uint8",
              "name": "r",
              "type": "uint8"
            },
            {
              "internalType": "bool",
              "name": "island",
              "type": "bool"
            },
            {
              "internalType": "bool",
              "name": "exists",
              "type": "bool"
            }
          ],
          "internalType": "struct SharedStructs.Cell",
          "name": "",
          "type": "tuple"
        }
      ],
      "stateMutability": "view",
      "type": "function"
    },
    {
      "inputs": [
        {
          "internalType": "uint256",
          "name": "gameId",
          "type": "uint256"
        }
      ],
      "name": "getCoordinates",
      "outputs": [
        {
          "components": [
            {
              "internalType": "uint8",
              "name": "q",
              "type": "uint8"
            },
            {
              "internalType": "uint8",
              "name": "r",
              "type": "uint8"
            }
          ],
          "internalType": "struct SharedStructs.Coordinate[]",
          "name": "",
          "type": "tuple[]"
        }
      ],
      "stateMutability": "view",
      "type": "function"
    },
    {
      "inputs": [
        {
          "internalType": "uint256",
          "name": "gameId",
          "type": "uint256"
        }
      ],
      "name": "getRadius",
      "outputs": [
        {
          "internalType": "uint8",
          "name": "",
          "type": "uint8"
        }
      ],
      "stateMutability": "view",
      "type": "function"
    },
    {
      "inputs": [
        {
          "internalType": "uint256",
          "name": "gameId",
          "type": "uint256"
        }
      ],
      "name": "getShips",
      "outputs": [
        {
          "components": [
            {
              "components": [
                {
                  "internalType": "uint8",
                  "name": "q",
                  "type": "uint8"
                },
                {
                  "internalType": "uint8",
                  "name": "r",
                  "type": "uint8"
                }
              ],
              "internalType": "struct SharedStructs.Coordinate",
              "name": "coordinate",
              "type": "tuple"
            },
            {
              "internalType": "enum SharedStructs.Directions",
              "name": "travelDirection",
              "type": "uint8"
            },
            {
              "internalType": "uint8",
              "name": "travelDistance",
              "type": "uint8"
            },
            {
              "internalType": "enum SharedStructs.Directions",
              "name": "shotDirection",
              "type": "uint8"
            },
            {
              "internalType": "uint8",
              "name": "shotDistance",
              "type": "uint8"
            },
            {
              "internalType": "bool",
              "name": "publishedMove",
              "type": "bool"
            },
            {
              "internalType": "address",
              "name": "captain",
              "type": "address"
            },
            {
              "internalType": "uint8",
              "name": "yachtSpeed",
              "type": "uint8"
            },
            {
              "internalType": "uint8",
              "name": "yachtRange",
              "type": "uint8"
            },
            {
              "internalType": "uint256",
              "name": "gameId",
              "type": "uint256"
            },
            {
              "internalType": "uint256",
              "name": "punkshipId",
              "type": "uint256"
            }
          ],
          "internalType": "struct GamePunk.Ship[]",
          "name": "",
          "type": "tuple[]"
        }
      ],
      "stateMutability": "view",
      "type": "function"
    },
    {
      "inputs": [
        {
          "components": [
            {
              "internalType": "uint8",
              "name": "q",
              "type": "uint8"
            },
            {
              "internalType": "uint8",
              "name": "r",
              "type": "uint8"
            }
          ],
          "internalType": "struct SharedStructs.Coordinate",
          "name": "_start",
          "type": "tuple"
        },
        {
          "internalType": "enum SharedStructs.Directions",
          "name": "_dir",
          "type": "uint8"
        },
        {
          "internalType": "uint8",
          "name": "_distance",
          "type": "uint8"
        },
        {
          "internalType": "uint256",
          "name": "gameId",
          "type": "uint256"
        }
      ],
      "name": "move",
      "outputs": [
        {
          "components": [
            {
              "internalType": "uint8",
              "name": "q",
              "type": "uint8"
            },
            {
              "internalType": "uint8",
              "name": "r",
              "type": "uint8"
            }
          ],
          "internalType": "struct SharedStructs.Coordinate",
          "name": "",
          "type": "tuple"
        }
      ],
      "stateMutability": "view",
      "type": "function"
    },
    {
      "inputs": [],
      "name": "owner",
      "outputs": [
        {
          "internalType": "address",
          "name": "",
          "type": "address"
        }
      ],
      "stateMutability": "view",
      "type": "function"
    },
    {
      "inputs": [],
      "name": "registrationContract",
      "outputs": [
        {
          "internalType": "address",
          "name": "",
          "type": "address"
        }
      ],
      "stateMutability": "view",
      "type": "function"
    },
    {
      "inputs": [],
      "name": "renounceOwnership",
      "outputs": [],
      "stateMutability": "nonpayable",
      "type": "function"
    },
    {
      "inputs": [
        {
          "internalType": "address",
          "name": "_registrationContract",
          "type": "address"
        }
      ],
      "name": "setRegistrationContract",
      "outputs": [],
      "stateMutability": "nonpayable",
      "type": "function"
    },
    {
      "inputs": [
        {
          "internalType": "uint256",
          "name": "_gameId",
          "type": "uint256"
        },
        {
          "internalType": "uint8",
          "name": "_radius",
          "type": "uint8"
        },
        {
          "internalType": "uint8",
          "name": "_mapShrink",
          "type": "uint8"
        }
      ],
      "name": "startNewGame",
      "outputs": [],
      "stateMutability": "nonpayable",
      "type": "function"
    },
    {
      "inputs": [
        {
          "internalType": "enum SharedStructs.Directions[]",
          "name": "_travelDirections",
          "type": "uint8[]"
        },
        {
          "internalType": "uint8[]",
          "name": "_travelDistances",
          "type": "uint8[]"
        },
        {
          "internalType": "enum SharedStructs.Directions[]",
          "name": "_shotDirections",
          "type": "uint8[]"
        },
        {
          "internalType": "uint8[]",
          "name": "_shotDistances",
          "type": "uint8[]"
        },
        {
          "internalType": "uint8[]",
          "name": "_secrets",
          "type": "uint8[]"
        },
        {
          "internalType": "address[]",
          "name": "_playerAddresses",
          "type": "address[]"
        },
        {
          "internalType": "uint256",
          "name": "gameId",
          "type": "uint256"
        }
      ],
      "name": "submitMove",
      "outputs": [],
      "stateMutability": "nonpayable",
      "type": "function"
    },
    {
      "inputs": [
        {
          "internalType": "address",
          "name": "newOwner",
          "type": "address"
        }
      ],
      "name": "transferOwnership",
      "outputs": [],
      "stateMutability": "nonpayable",
      "type": "function"
    },
    {
      "inputs": [
        {
          "components": [
            {
              "internalType": "uint8",
              "name": "q",
              "type": "uint8"
            },
            {
              "internalType": "uint8",
              "name": "r",
              "type": "uint8"
            }
          ],
          "internalType": "struct SharedStructs.Coordinate",
          "name": "_startCell",
          "type": "tuple"
        },
        {
          "internalType": "enum SharedStructs.Directions",
          "name": "_direction",
          "type": "uint8"
        },
        {
          "internalType": "uint8",
          "name": "_distance",
          "type": "uint8"
        },
        {
          "internalType": "uint256",
          "name": "gameId",
          "type": "uint256"
        }
      ],
      "name": "travel",
      "outputs": [],
      "stateMutability": "nonpayable",
      "type": "function"
    },
    {
      "inputs": [
        {
          "internalType": "uint256",
          "name": "gameId",
          "type": "uint256"
        }
      ],
      "name": "updateWorld",
      "outputs": [],
      "stateMutability": "nonpayable",
      "type": "function"
    }
  ],
  "bytecode": "0x60c0346200018457601f620059b438819003918201601f19168301916001600160401b038311848410176200018957808492604094855283398101031262000184576200005a602062000052836200019f565b92016200019f565b9033156200016b5760008054336001600160a01b0319821681178355604051946001600160a01b0394909385939192918416907f8be0079c531659141344cd1fd0a4f28419497f9722a3daafe3b4186f6b6457e09080a3166080521660a0526157ff9081620001b582396080518181816104ac0152818161097a015281816114ed01528181611692015281816119bf01528181611db5015281816125b60152818161279e01528181612ba901528181612c23015281816130640152818161348f01528181613f54015281816140ef0152818161468b015281816147ad0152818161494f015261565c015260a051818181611cea01528181611f3a01528181611f9201528181611fea01526154b50152f35b604051631e4fbdf760e01b815260006004820152602490fd5b600080fd5b634e487b7160e01b600052604160045260246000fd5b51906001600160a01b0382168203620001845756fe6080604052600436101561001a575b3461001557005b600080fd5b60003560e01c80630bf37818146148ff578063117a5b9014614883578063183b1baf1461472e5780631e522c3e146147055780636b082eed14614639578063715018a6146145e057806378d59e05146142da5780638b7524b61461285a5780638da5cb5b1461283157806394c1d2d9146127365780639cc45f341461265c578063b173a147146124f6578063b39116fd14611c72578063c13b8117146118b0578063d3db03cc1461186d578063d837093c146101e8578063dcdb5897146101735763f2fde38b0361000e5734610015576020366003190112610015576100fe614dd5565b610106614deb565b6001600160a01b0390811690811561015a57600054826bffffffffffffffffffffffff60a01b821617600055167f8be0079c531659141344cd1fd0a4f28419497f9722a3daafe3b4186f6b6457e0600080a3005b604051631e4fbdf760e01b815260006004820152602490fd5b346100155760c036600319011261001557600435600781101561001557610198614c74565b9060443560078110156100155760643560ff81168103610015576084359060ff821682036100155760a435926001600160a01b0384168403610015576020956101e095615027565b604051908152f35b3461001557602036600319011261001557610201614deb565b600435600052600160205261022060ff60046040600020015416614e78565b6004356000526001602052604060002060ff6001825492015460081c169081156118575706156114ab575b60043560005260016020526102676003604060002001546152d7565b60043560005260016020526003604060002001549061028582614cee565b916102936040519384614c52565b8083526102a2601f1991614cee565b0136602084013760005b60043560005260016020526003604060002001549060ff8116918210156102e75760016102dc6102e29386614f96565b526151b6565b6102ac565b505060005b6004356000526001602052604060002060038101805460ff84161015610838579061031983600293614efe565b60018060a01b0391549060031b1c166000520160205260018060a01b0360016040600020015460281c1615610391576004356000526001602052600260406000206103678360038301614efe565b60018060a01b0391549060031b1c166000520160205260ff60016040600020015460201c1661039f575b61039a906151b6565b6102ec565b6004356000526001602052600260406000206103be8360038301614efe565b60018060a01b0391549060031b1c16600052016020526040600020906004356000526001602052600260406000206103f98360038301614efe565b60018060a01b0391549060031b1c166000520160205260ff6001604060002001541660043560005260016020526002604060002061043a8460038301614efe565b60018060a01b0391549060031b1c166000520160205261049760ff60016040600020015460081c169161048d6040519563183b1baf60e01b8752600487019060ff60209154818116845260081c16910152565b6044850190614ce1565b6064830152600435608483015260608260a4817f00000000000000000000000000000000000000000000000000000000000000006001600160a01b03165afa801561082c5761039a926000906000926107fa575b506106c65761066890600435600052600160205260ff610512846003604060002001614efe565b60018060a01b0391549060031b1c166004356000526001602052600260406000206105408760038301614efe565b60018060a01b0391549060031b1c166000520160205281604060002054169060043560005260016020526002604060002061057e8860038301614efe565b60018060a01b0391549060031b1c16600052016020527f9db385e25deecca76e1e8dab29ae54e5c2f1707d2c611cfab0984b782e9f8a2c8360406000205460081c1684865116906106086020880195878751166040519485946004359386919360ff6080948180949998978160a088019b1687521660208601521660408401521660608201520152565b0390a260043560005260016020526002604060002061062a8760038301614efe565b60018060a01b0391549060031b1c16600052016020528160406000209351168219845416178355511661ff0082549160081b169061ff001916179055565b6004356000526001602052610684816003604060002001614efe565b60018060a01b0391549060031b1c167f4a5516f0f1d85471405ad39e7a960ba9a7b312f2bdc784a6dce8402611417fd660206040516004358152a29050610391565b6107f59060043560005260016020526106e6836003604060002001614efe565b9054825160208085015160408051600435815260ff9485169381019390935292169181019190915260039290921b1c6001600160a01b0316907f2265cf35e234e961bc739ea7efb0e9751a34a8c56c1b547ff729d632c2ad21a09080606081010390a2600435600052600160205261078283610769816003604060002001614efe565b9054600435929160031b1c6001600160a01b031661543e565b600061079160ff851688614f96565b526004356000526001602052600260406000206107b18560038301614efe565b60018060a01b0391549060031b1c166000520160205260ff602060406000209282815116831985541617845501511661ff0082549160081b169061ff001916179055565b6151b6565b905061081e915060603d606011610825575b6108168183614c52565b810190615338565b90866104eb565b503d61080c565b6040513d6000823e3d90fd5b838560005b600435600052600160205260036040600020015460ff82161015610b225761086860ff821683614f96565b5161087c575b610877906151b6565b61083d565b60043560005260016020526002604060002061089b8360038301614efe565b60018060a01b0391549060031b1c16600052016020526040600020906004356000526001602052600260406000206108d68360038301614efe565b60018060a01b0391549060031b1c166000520160205260ff60016040600020015460101c1660043560005260016020526002604060002061091a8460038301614efe565b60018060a01b0391549060031b1c166000520160205261096d60ff60016040600020015460181c169161048d6040519563d6192ad360e01b8752600487019060ff60209154818116845260081c16910152565b60648301526040826084817f00000000000000000000000000000000000000000000000000000000000000006001600160a01b03165afa801561082c57600090610ae4575b6108779250806109c560ff841687614f96565b526109d360ff831686614f96565b5060043560005260016020527f1a5ee6632f2ff8b0f1e4bf31b540f744e4337da13603a9eac0072df00578c5a6610a11836003604060002001614efe565b60018060a01b0391549060031b1c1691600435600052600160205260026040600020610a408660038301614efe565b60018060a01b0391549060031b1c166000520160205260ff60406000205416600435600052600160205260026040600020610a7e8760038301614efe565b90546001600160a01b0360039290921b1c1660009081529101602090815260409182902054845194820151835160ff958616815260089290921c85169282019290925293831691840191909152166060820152600435608082015260a090a2905061086e565b5060403d604011610b1b575b610afa8184614c52565b60408382810103126100155782610b169161087794019061514c565b6109b2565b503d610af0565b50906004356000526001602052610b4060036040600020015461535d565b600080935b600435600052600160205260036040600020015460ff86161015610fdb5760005b600435600052600160205260036040600020015460ff82161015610fca5760ff811660ff871603610ba0575b610b9b906151b6565b610b66565b610bad60ff871683614f96565b51151580610fb4575b80610f32575b80610eaa575b610da0575b610bd460ff871683614f96565b51151580610d4a575b80610cee575b15610b92576004356000526001602052610c1f610c07876003604060002001614efe565b90546001600160a01b03929160031b1c8216866155eb565b15610cc6575b6004356000526001602052610c5381610c45846003604060002001614efe565b90549060031b1c16866155eb565b15610c85575b50610b9b906000610c6d60ff891685614f96565b526000610c7d60ff831685614f96565b529050610b92565b610b9b9193610cbf916004356000526001602052610caa866003604060002001614efe565b90549060031b1c166102dc60ff831688614f96565b9290610c59565b92610ce890600435600052600160205284610caa896003604060002001614efe565b92610c25565b5060ff6020610cff82841688614f96565b51015116600435600052600160205260026040600020610d228960038301614efe565b60018060a01b0391549060031b1c166000520160205260ff60406000205460081c1614610be3565b5060ff610d5981831687614f96565b515116600435600052600160205260026040600020610d7b8960038301614efe565b60018060a01b0391549060031b1c166000520160205260ff6040600020541614610bdd565b6000610daf60ff881684614f96565b526000610dbf60ff831684614f96565b526004356000526001602052610ea56020610de1886003604060002001614efe565b905460405160043581526001600160a01b03937fd3530cd7a307ade37676af8529ec0105ea6204af5e1534bd5de42308107123719360031b9290921c8416918391a2600435600052600160205281610e40856003604060002001614efe565b90549060031b1c169060206040516004358152a26004356000526001602052610e888189610e75816003604060002001614efe565b60049391933593549060031b1c1661543e565b600435600052600160205282610e75816003604060002001614efe565b610bc7565b5060043560005260016020526040600020610ec88260038301614efe565b919060018060a01b03928391549060031b1c16600052600280910160205260ff60406000205460081c16916004356000526001602052604060002090610f118a60038401614efe565b90549060031b1c166000520160205260ff60406000205460081c1614610bc2565b5060043560005260016020526040600020610f508260038301614efe565b919060018060a01b03928391549060031b1c16600052600280910160205260ff60406000205416916004356000526001602052604060002090610f968a60038401614efe565b90549060031b1c166000520160205260ff6040600020541614610bbc565b50610fc260ff821683614f96565b511515610bb6565b5093610fd5906151b6565b93610b45565b5060ff1690816113aa575b505060005b600435600052600160205260036040600020019081549160ff821692831015611100578161101891614efe565b90546001600160a01b03939160031b1c831615611040575b5061103b91506151b6565b610feb565b600435600052600160205260036040600020019283549060001982019182116110ea576110736110b69261103b96614efe565b90549060031b1c166004356000526001602052611097846003604060002001614efe565b90919082549060031b9160018060a01b03809116831b921b1916179055565b60043560005260016020526110d1600360406000200161527f565b6110dc575b82611030565b6110e5906152c7565b6110d6565b634e487b7160e01b600052601160045260246000fd5b600435600052600160205260036040600020018054801560001461118b57505060006000805160206157aa83398151915260206040516004358152a26004356000526001602052600460406000200161010061ff00198254161790555b7f0ffee877d4bec4783459533ceddde8785dcd14454a9ebe37f1b3b8792509c36b60206040516004358152a1005b6001036111fc575060043560005260016020526111ae6003604060002001614ed3565b60018060a01b0391549060031b1c166000805160206157aa83398151915260206040516004358152a26004356000526001602052600460406000200161010061ff001982541617905561115d565b61120590614ed3565b9060018060a01b03918291549060031b1c1660007f6c5d9aa3894362f6fc8570afc4ad57ed5b0498a5e481b34ffccd61ee96cad12c60206040516004358152a360005b60043560005260016020526040600020906003820191825460ff8316101561136c57836112788361136795614efe565b90549060031b1c1660005260028091016020526001604060002001600660ff198254161790556004356000526001602052806040600020856112bd8560038401614efe565b90549060031b1c1660005201602052600160406000200161ff001981541690556004356000526001602052806040600020856112fc8560038401614efe565b90549060031b1c166000520160205260016040600020016206000062ff00001982541617905560043560005260016020526040600020846113408460038401614efe565b90549060031b1c1660005201602052600160406000200163ff0000001981541690556151b6565b611248565b505050506004356000526001602052600460406000200163ff00000019815416905561139960043561563b565b506113a5600435614faa565b61115d565b6113b38261535d565b9160005b60ff811690828210156113eb576113e6916102dc6001600160a01b036113dd8388614f96565b51169187614f96565b6113b7565b50505050604051604081016040825282518091526060820190602084019060005b81811061148c5750505090807f43c454d7d9739179cb8955fb1a87309459f577ba357c24735124f16f3bbea5a89260043560208301520390a160005b81519060ff8116918210156114825761147d916107f590600435906001600160a01b03906114769087614f96565b511661538f565b611448565b5050508080610fe6565b82516001600160a01b031684526020938401939092019160010161140c565b600435600052600160205260ff60016040600020015416604051906335d5edab60e01b8252600435600483015260248201526000816044818360018060a01b037f0000000000000000000000000000000000000000000000000000000000000000165af190811561082c57600091611834575b5060043560005260016020526001604060002001805460ff6115418183166151b6565b169060ff19161790557ff47e725249069330b61eda3df25e7c3bcfd700624cbc7cbeabb0e28375bee53160206040516004358152a160005b81519060ff811691821015611605577fe33d4c5f3e9def7d3f127618203849e9a1888f8e0a9fbffbcdc7d6dbd42b64448260ff60206115c9826115bf611600988a614f96565b5151169388614f96565b51015116906115f86040519283926004358491604091949360ff80926060860197865216602085015216910152565b0390a16151b6565b611579565b50505060005b600435600052600160205260406000206003810190815460ff8416101561182c5761163883600293614efe565b60018060a01b0391549060031b1c166000520160205261165b604060002061512a565b60405163b173a14760e01b8152815160ff9081166004830152602090920151909116602482015260043560448201526080816064817f00000000000000000000000000000000000000000000000000000000000000006001600160a01b03165afa801561082c576000906117f1575b606091500151156116e4575b6116df906151b6565b61160b565b6004356000526001602052611700816003604060002001614efe565b60018060a01b0391549060031b1c167faf0f1f1c6dd1455929199c881d29a04680c9c20aff5f0331d8619ed875c58d1c60206040516004358152a2600435600052600160205261175b81610769816003604060002001614efe565b6004356000526001602052600360406000200190815460001981019081116110ea5761178d6117b8916116df94614efe565b60018060a01b0391549060031b1c166004356000526001602052611097836003604060002001614efe565b60043560005260016020526117d3600360406000200161527f565b60ff81166117e3575b90506116d6565b6117ec906152c7565b6117dc565b5060803d608011611825575b6118078183614c52565b8101906080818303126100155760609161182091614f31565b6116ca565b503d6117fd565b50505061024b565b61185191503d806000833e6118498183614c52565b8101906151f6565b8161151e565b634e487b7160e01b600052601260045260246000fd5b3461001557602036600319011261001557611886614dd5565b61188e614deb565b600280546001600160a01b0319166001600160a01b0392909216919091179055005b3461001557606080600319360112610015576004356118cd614c74565b906044359260ff938481169081810361001557600280546001600160a01b0397919690881633148015611c65575b61190490614e17565b856000526001926020978489528360046040600020015416611c12576000888152858a5260408120600401805460ff191687179055859190825b611ba5575b5050508660005283885260036040600020018054906000815581611b86575b5050826044600095949361199d879461197a8c61563b565b508b8652878d528760408720019061ff0082549160081b169061ff001916179055565b604051968793849263af2f210960e01b8452169c8d60048401528b60248401527f0000000000000000000000000000000000000000000000000000000000000000165af192831561082c57600093611aea575b506000825b611a64575b7f50ad08f58a27f2851d7e3a1b3a6a46b290f2ce677e99642d30ff639721e7779088887fce444ef4ca2b2a7392fcd119e5c16b6af56ef7caef781ca922de0de696762fb9898d8a60405191825284868301526040820152a1611a5b81614faa565b604051908152a1005b8351811015611ae557807fe40ab56a2b71773fd8fa12379eac11a90b1a5a8b57fbdb4b84e4734d32a551e16080898b86611aa1611adf978b614f96565b5151168782611ab0888d614f96565b51015116906040611ac1888d614f96565b51015115159260405194855284015260408301528a820152a1614ec4565b826119f5565b6119fa565b9092503d806000833e611afd8183614c52565b81019087818303126100155780519067ffffffffffffffff8211610015570181601f82011215610015578051611b3281614cee565b92611b406040519485614c52565b818452898085019260071b84010192818411610015578a01915b8a848410611b6e57505050505091886119f0565b608091611b7b8486614f31565b815201920191611b5a565b60005288600020908101905b8181101561196257600081558501611b92565b89600052828b526040600020908c600392838101918254841015611c0957611c0394611bd2858895614efe565b9054911b1c16600052018c52611bfe604060002060036000918281558260018201558260028201550155565b614ec4565b8261193e565b50505050611943565b60405162461bcd60e51b8152600481018a9052602560248201527f47616d652077697468207468697320494420616c726561647920696e2070726f604482015264677265737360d81b6064820152608490fd5b50600054881633146118fb565b3461001557606036600319011261001557611c8b614dd5565b6002546001600160a01b0316331480156124e2575b611ca990614e17565b6024356000526001602052611ccd600160ff60046040600020015416151514614e78565b6040516331a9108f60e11b815260443560048201526020816024817f00000000000000000000000000000000000000000000000000000000000000006001600160a01b03165afa90811561082c576000916124a0575b506001600160a01b03828116911603612477576024356000526001602052600260406000200160018060a01b03821660005260205260ff60406000205416151580612441575b6123e257604051611d7981614bfd565b6000815260006020820152600060015b15611f0f575b505060408051637128e56d60e11b815260248035600483015290926000928392859081857f00000000000000000000000000000000000000000000000000000000000000006001600160a01b03165af193841561082c57600094611ed4575b50839160005b60243560005260016020526040600020600390818101805460ff85161015611ec65790611e2384600293614efe565b60018060a01b03915490851b1c166000520160205260ff6040600020541660ff885116149081611e73575b50611e6157611e5c906151b6565b611df4565b5091935091506001905b929192611d89565b600291506024356000526001602052604060002090611e9484828401614efe565b60018060a09493941b039254911b1c166000520160205260ff60406000205460081c1660ff6020880151161487611e4e565b505050509092919350611e6b565b90935060403d604011611f08575b611eec8183614c52565b810160408282031261001557611f019161514c565b9284611dee565b503d611ee2565b15611f1a5780611d8f565b604051631986c9e960e31b815260443560048201529091906020816024817f00000000000000000000000000000000000000000000000000000000000000006001600160a01b03165afa90811561082c576000916123a8575b50604051636455ce8d60e11b81526044356004820152916020836024817f00000000000000000000000000000000000000000000000000000000000000006001600160a01b03165afa92831561082c5760009361236c575b50604051631303d57d60e11b81526044356004820152936000856024817f00000000000000000000000000000000000000000000000000000000000000006001600160a01b03165afa94851561082c576000956122dc575b5060405161203081614c19565b81815260006020820152600060408201526000606082015260006080820152600060a082015260018060a01b03831660c082015260ff841660e082015260ff85166101008201526024356101208201526044356101408201526024356000526001602052600260406000200160018060a01b0384166000526020526040600020906120e060ff60208351828151168319875416178655015116839061ff0082549160081b169061ff001916179055565b602081015160078110156122c6576120fb90600184016150f1565b61212060ff604083015116600184019061ff0082549160081b169061ff001916179055565b606081015160078110156122c6576003916121416101409260018601615109565b61216a60ff608083015116600186019063ff00000082549160181b169063ff0000001916179055565b60a08101511515600185015465010000000000600160c81b0360c084015160281b1660ff60c81b60e085015160c81b169164ff0000000060ff60d01b61010087015160d01b169460201b169063ffffffff64ffffffffff60d81b01161717171760018501556101208101516002850155015191015560243560005260016020526003604060002001918254680100000000000000008110156122b0577f526c62f8fa999ff5dc01591b8086e17ed53753d49a9eca57e821d0c3f550efa395612241836110978461010098600160ff97018155614efe565b8180602081875116960151169660405197889660243588526044356020890152604088015260608701521660808501521660a083015260e060c0830152612297865180978160e0860152602086860191016151c7565b6001600160a01b031694601f01601f19168101030190a2005b634e487b7160e01b600052604160045260246000fd5b634e487b7160e01b600052602160045260246000fd5b9094503d90816000823e6122f08282614c52565b60208183810103126100155780519067ffffffffffffffff9081831161001557838101601f84830101121561001557828101519182116122b05760405193612342601f8401601f191660200186614c52565b8285528101602083858401010111610015576020612365938186019201016151c7565b9385612023565b9092506020813d6020116123a0575b8161238860209383614c52565b810103126100155761239990614f16565b9184611fcb565b3d915061237b565b90506020813d6020116123da575b816123c360209383614c52565b81010312610015576123d490614f16565b83611f73565b3d91506123b6565b6024803560009081526001602090815260408083206001600160a01b03959095168084526002909501909152908190205490516308538db760e41b8152600481019390935260ff8082169284019290925260081c166044820152606490fd5b506024356000526001602052600260406000200160018060a01b03821660005260205260ff60406000205460081c161515611d69565b604051634319813760e01b81526001600160a01b03909116600482015260448035602483015290fd5b90506020813d6020116124da575b816124bb60209383614c52565b8101031261001557516001600160a01b03811681036100155782611d23565b3d91506124ae565b506000546001600160a01b03163314611ca0565b3461001557366003190160608112610015576040136100155760405161251b81614bfd565b60043560ff8116810361001557815260243560ff811681036100155760208201526044356000606060405161254f81614c36565b8281528260208201528260408201520152806000526001602052612582600160ff60046040600020015416151514614e78565b60405163b173a14760e01b8152825160ff9081166004830152602090930151909216602483015260448201526080816064817f00000000000000000000000000000000000000000000000000000000000000006001600160a01b03165afa801561082c57600090612622575b60809060606040519160ff815116835260ff6020820151166020840152604081015115156040840152015115156060820152f35b5060803d8111612655575b6126378183614c52565b8101906080818303126100155760809161265091614f31565b6125ee565b503d61262d565b346100155760403660031901126100155760043560243590816000526001602052600160ff60046040600020015460101c161515036126e7578160005260016020526005604060002001336000526020528060406000205560405191825260208201527feb7d119bae44c06d4b05b80eb4a3bdfc755131945d1845f3c9d2aeaa7d8bf54260403392a2005b60405162461bcd60e51b815260206004820152602160248201527f436f6d6d6974206d6f76657320686173206e6f742073746172746564207965746044820152602160f81b6064820152608490fd5b3461001557604061274636614c84565b60006020869593965161275881614bfd565b8281520152600052600160205261277d600160ff600486600020015416151514614e78565b61279a83519485938493630d42527560e11b85526004850161517d565b03817f00000000000000000000000000000000000000000000000000000000000000006001600160a01b03165afa801561082c576000906127f6575b6040906127f48251809260ff60208092828151168552015116910152565bf35b5060403d60401161282a575b61280c8183614c52565b810190604081830312610015576040916128259161514c565b6127d6565b503d612802565b34610015576000366003190112610015576000546040516001600160a01b039091168152602090f35b346100155760e03660031901126100155767ffffffffffffffff6004358181116100155761288c903690600401614d06565b602435828111610015576128a4903690600401614d6d565b90604435838111610015576128bd903690600401614d06565b90606435848111610015576128d6903690600401614d6d565b90608435858111610015576128ef903690600401614d6d565b9360a43595861161001557366023870112156100155785600401359561291487614cee565b966129226040519889614c52565b80885260208801913660248360051b83010111610015579160248301925b60248360051b82010184106142b3575050505061295b614deb565b60c435600052600160205261297f600160ff60046040600020015416151514614e78565b61298c8651835114615099565b6129998251825114615099565b6129a68451845114615099565b6129b38551875114615099565b60005b8651811015612dc157612a276129d46129cf8386614f96565b6150e4565b60ff6129e08486614f96565b51166129ef6129cf858a614f96565b60ff6129fb868a614f96565b51169060ff612a0a878d614f96565b5116926001600160a01b03612a1f888f614f96565b511694615027565b60c43560009081526001602052604090206005016001600160a01b03612a4d848b614f96565b511660005260205260406000205414612a6f575b612a6a90614ec4565b6129b6565b60c43560009081526001602052604090206002016001600160a01b03612a95838a614f96565b5116600052602052612b686040600020612ab26129cf8487614f96565b612ac06001830191826150f1565b60ff612acc8587614f96565b511660ff825460c81c16809111600014612daa57612afb905b825461ff00191660089190911b61ff0016178255565b612b11612b0b6129cf868b614f96565b82615109565b60ff612b1d8589614f96565b511660ff825460d01c16809111600014612d9357612b50905b825463ff000000191660189190911b63ff00000016178255565b805464ff00000000191664010000000017905561512a565b906040612b786129cf8387614f96565b60ff612b848487614f96565b518351630d42527560e11b81529586938493612ba59316916004850161517d565b03817f00000000000000000000000000000000000000000000000000000000000000006001600160a01b03165afa801561082c57600090612d55575b612c1f92506040612bf56129cf848a614f96565b60ff612c01858a614f96565b51169082519586928392630d42527560e11b8452866004850161517d565b03817f00000000000000000000000000000000000000000000000000000000000000006001600160a01b03165afa92831561082c57600093612cf0575b50612a6a927ffd735dcfd99f4b7d7f6bcea365f20bd4b998183607e89895805ae488fbeaa8669060c0906001600160a01b03612c98868e614f96565b51169360c43560005260016020526040600020549160ff6020818451169301511660ff60208184511693015116926040519460c4358652602086015260408501526060840152608083015260a0820152a29050612a61565b925060403d604011612d4e575b612d078185614c52565b60408482810103126100155760c0612d46857ffd735dcfd99f4b7d7f6bcea365f20bd4b998183607e89895805ae488fbeaa86693612a6a97019061514c565b945050612c5c565b503d612cfd565b5060403d604011612d8c575b612d6b8184614c52565b60408382810103126100155782612d8791612c1f94019061514c565b612be1565b503d612d61565b50612b5060ff612da3868a614f96565b5116612b36565b50612afb60ff612dba8688614f96565b5116612ae5565b612dc9614deb565b60c4356000526001602052612de860ff60046040600020015416614e78565b60c4356000526001602052604060002060ff6001825492015460081c16908115611857570615613f19575b60c4356000526001602052612e2f6003604060002001546152d7565b60c435600052600160205260036040600020015490612e4d82614cee565b91612e5b6040519384614c52565b808352612e6a601f1991614cee565b0136602084013760005b60c43560005260016020526003604060002001549060ff811691821015612ea95760016102dc612ea49386614f96565b612e74565b505060005b60c4356000526001602052604060002060038101805460ff8416101561334d5790612edb83600293614efe565b60018060a01b0391549060031b1c166000520160205260018060a01b0360016040600020015460281c1615612f535760c435600052600160205260026040600020612f298360038301614efe565b60018060a01b0391549060031b1c166000520160205260ff60016040600020015460201c16612f61575b612f5c906151b6565b612eae565b60c435600052600160205260026040600020612f808360038301614efe565b60018060a01b0391549060031b1c166000520160205260406000209060c435600052600160205260026040600020612fbb8360038301614efe565b60018060a01b0391549060031b1c166000520160205260ff6001604060002001541660c435600052600160205260026040600020612ffc8460038301614efe565b60018060a01b0391549060031b1c166000520160205261304f60ff60016040600020015460081c169161048d6040519563183b1baf60e01b8752600487019060ff60209154818116845260081c16910152565b606483015260c435608483015260608260a4817f00000000000000000000000000000000000000000000000000000000000000006001600160a01b03165afa801561082c57612f5c9260009060009261332b575b50613240576131e29060c435600052600160205260ff6130ca846003604060002001614efe565b60018060a01b0391549060031b1c1660c4356000526001602052600260406000206130f88760038301614efe565b60018060a01b0391549060031b1c166000520160205281604060002054169060c4356000526001602052600260406000206131368860038301614efe565b60018060a01b0391549060031b1c16600052016020527f9db385e25deecca76e1e8dab29ae54e5c2f1707d2c611cfab0984b782e9f8a2c8360406000205460081c1684865116906131c060208801958787511660405194859460c4359386919360ff6080948180949998978160a088019b1687521660208601521660408401521660608201520152565b0390a260c43560005260016020526002604060002061062a8760038301614efe565b60c43560005260016020526131fe816003604060002001614efe565b60018060a01b0391549060031b1c167f4a5516f0f1d85471405ad39e7a960ba9a7b312f2bdc784a6dce8402611417fd6602060405160c4358152a29050612f53565b6107f59060c4356000526001602052613260836003604060002001614efe565b905482516020808501516040805160c435815260ff9485169381019390935292169181019190915260039290921b1c6001600160a01b0316907f2265cf35e234e961bc739ea7efb0e9751a34a8c56c1b547ff729d632c2ad21a09080606081010390a260c43560005260016020526132fc836132e3816003604060002001614efe565b905460c435929160031b1c6001600160a01b031661543e565b600061330b60ff851688614f96565b5260c4356000526001602052600260406000206107b18560038301614efe565b9050613346915060603d606011610825576108168183614c52565b90866130a3565b838560005b60c435600052600160205260036040600020015460ff821610156136375761337d60ff821683614f96565b51613391575b61338c906151b6565b613352565b60c4356000526001602052600260406000206133b08360038301614efe565b60018060a01b0391549060031b1c166000520160205260406000209060c4356000526001602052600260406000206133eb8360038301614efe565b60018060a01b0391549060031b1c166000520160205260ff60016040600020015460101c1660c43560005260016020526002604060002061342f8460038301614efe565b60018060a01b0391549060031b1c166000520160205261348260ff60016040600020015460181c169161048d6040519563d6192ad360e01b8752600487019060ff60209154818116845260081c16910152565b60648301526040826084817f00000000000000000000000000000000000000000000000000000000000000006001600160a01b03165afa801561082c576000906135f9575b61338c9250806134da60ff841687614f96565b526134e860ff831686614f96565b5060c43560005260016020527f1a5ee6632f2ff8b0f1e4bf31b540f744e4337da13603a9eac0072df00578c5a6613526836003604060002001614efe565b60018060a01b0391549060031b1c169160c4356000526001602052600260406000206135558660038301614efe565b60018060a01b0391549060031b1c166000520160205260ff6040600020541660c4356000526001602052600260406000206135938760038301614efe565b90546001600160a01b0360039290921b1c1660009081529101602090815260409182902054845194820151835160ff958616815260089290921c8516928201929092529383169184019190915216606082015260c435608082015260a090a29050613383565b5060403d604011613630575b61360f8184614c52565b6040838281010312610015578261362b9161338c94019061514c565b6134c7565b503d613605565b509060c435600052600160205261365560036040600020015461535d565b600080935b60c435600052600160205260036040600020015460ff86161015613ab55760005b60c435600052600160205260036040600020015460ff82161015613aa45760ff811660ff8716036136b5575b6136b0906151b6565b61367b565b6136c260ff871683614f96565b51151580613a8e575b80613a0c575b80613984575b61387a575b6136e960ff871683614f96565b51151580613824575b806137c8575b156136a75760c435600052600160205261371c610c07876003604060002001614efe565b156137a0575b60c435600052600160205261374281610c45846003604060002001614efe565b15613774575b506136b090600061375c60ff891685614f96565b52600061376c60ff831685614f96565b5290506136a7565b6136b091936137999160c4356000526001602052610caa866003604060002001614efe565b9290613748565b926137c29060c435600052600160205284610caa896003604060002001614efe565b92613722565b5060ff60206137d982841688614f96565b5101511660c4356000526001602052600260406000206137fc8960038301614efe565b60018060a01b0391549060031b1c166000520160205260ff60406000205460081c16146136f8565b5060ff61383381831687614f96565b51511660c4356000526001602052600260406000206138558960038301614efe565b60018060a01b0391549060031b1c166000520160205260ff60406000205416146136f2565b600061388960ff881684614f96565b52600061389960ff831684614f96565b5260c435600052600160205261397f60206138bb886003604060002001614efe565b905460405160c43581526001600160a01b03937fd3530cd7a307ade37676af8529ec0105ea6204af5e1534bd5de42308107123719360031b9290921c8416918391a260c43560005260016020528161391a856003604060002001614efe565b90549060031b1c1690602060405160c4358152a260c4356000526001602052613962818961394f816003604060002001614efe565b60c49391933593549060031b1c1661543e565b60c43560005260016020528261394f816003604060002001614efe565b6136dc565b5060c435600052600160205260406000206139a28260038301614efe565b919060018060a01b03928391549060031b1c16600052600280910160205260ff60406000205460081c169160c43560005260016020526040600020906139eb8a60038401614efe565b90549060031b1c166000520160205260ff60406000205460081c16146136d7565b5060c43560005260016020526040600020613a2a8260038301614efe565b919060018060a01b03928391549060031b1c16600052600280910160205260ff604060002054169160c4356000526001602052604060002090613a708a60038401614efe565b90549060031b1c166000520160205260ff60406000205416146136d1565b50613a9c60ff821683614f96565b5115156136cb565b5093613aaf906151b6565b9361365a565b5060ff169081613e28575b505060005b60c435600052600160205260036040600020019081549160ff821692831015613ba55781613af291614efe565b90546001600160a01b03939160031b1c831615613b1a575b50613b1591506151b6565b613ac5565b60c435600052600160205260036040600020019283549060001982019182116110ea57613b4d613b7192613b1596614efe565b90549060031b1c1660c4356000526001602052611097846003604060002001614efe565b60c4356000526001602052613b8c600360406000200161527f565b613b97575b82613b0a565b613ba0906152c7565b613b91565b60c4356000526001602052600360406000200180548015600014613c3057505060006000805160206157aa833981519152602060405160c4358152a260c4356000526001602052600460406000200161010061ff00198254161790555b7f0ffee877d4bec4783459533ceddde8785dcd14454a9ebe37f1b3b8792509c36b602060405160c4358152a1005b600103613ca1575060c4356000526001602052613c536003604060002001614ed3565b60018060a01b0391549060031b1c166000805160206157aa833981519152602060405160c4358152a260c4356000526001602052600460406000200161010061ff0019825416179055613c02565b613caa90614ed3565b9060018060a01b03918291549060031b1c1660007f6c5d9aa3894362f6fc8570afc4ad57ed5b0498a5e481b34ffccd61ee96cad12c602060405160c4358152a360005b60c43560005260016020526040600020906003820191825460ff83161015613dea5783613d1d83613de595614efe565b90549060031b1c1660005260028091016020526001604060002001600660ff1982541617905560c435600052600160205280604060002085613d628560038401614efe565b90549060031b1c1660005201602052600160406000200161ff0019815416905560c435600052600160205280604060002085613da18560038401614efe565b90549060031b1c166000520160205260016040600020016206000062ff00001982541617905560c43560005260016020526040600020846113408460038401614efe565b613ced565b5050505060c4356000526001602052600460406000200163ff000000198154169055613e1760c43561563b565b50613e2360c435614faa565b613c02565b613e318261535d565b9160005b60ff81169082821015613e6057613e5b916102dc6001600160a01b036113dd8388614f96565b613e35565b50505050604051604081016040825282518091526060820190602084019060005b818110613efa5750505090807f43c454d7d9739179cb8955fb1a87309459f577ba357c24735124f16f3bbea5a89260c43560208301520390a160005b81519060ff811691821015613ef057613eeb916107f59060c435906001600160a01b03906114769087614f96565b613ebd565b5050508080613ac0565b82516001600160a01b0316845260209384019390920191600101613e81565b60c43560008181526001602081905260408083209091015490516335d5edab60e01b8152600481019390935260ff16602483015281604481837f00000000000000000000000000000000000000000000000000000000000000006001600160a01b03165af190811561082c57600091614298575b5060c43560005260016020526001604060002001805460ff613fb08183166151b6565b169060ff19161790557ff47e725249069330b61eda3df25e7c3bcfd700624cbc7cbeabb0e28375bee531602060405160c4358152a160005b81519060ff811691821015614062577fe33d4c5f3e9def7d3f127618203849e9a1888f8e0a9fbffbcdc7d6dbd42b64448260ff602061402e826115bf61405d988a614f96565b51015116906115f860405192839260c4358491604091949360ff80926060860197865216602085015216910152565b613fe8565b50505060005b60c435600052600160205260406000206003810190815460ff841610156142905761409583600293614efe565b60018060a01b0391549060031b1c16600052016020526140b8604060002061512a565b60405163b173a14760e01b8152815160ff9081166004830152602090920151909116602482015260c43560448201526080816064817f00000000000000000000000000000000000000000000000000000000000000006001600160a01b03165afa801561082c57600090614253575b60609150015115614141575b61413c906151b6565b614068565b60c435600052600160205261415d816003604060002001614efe565b60018060a01b0391549060031b1c167faf0f1f1c6dd1455929199c881d29a04680c9c20aff5f0331d8619ed875c58d1c602060405160c4358152a260c43560005260016020526141b8816132e3816003604060002001614efe565b60c4356000526001602052600360406000200190815491826000198101116110ea576141ef61421a9161413c946000190190614efe565b60018060a01b0391549060031b1c1660c4356000526001602052611097836003604060002001614efe565b60c4356000526001602052614235600360406000200161527f565b60ff8116614245575b9050614133565b61424e906152c7565b61423e565b5060803d608011614289575b6142698183614c52565b60808282810103126100155781614284916060930190614f31565b614127565b503d61425f565b505050612e13565b6142ad91503d806000833e6118498183614c52565b81613f8d565b83356001600160a01b03811690036100155760208060249386358152019401939150612940565b3461001557602080600319360112610015576004359081600052600180825260ff614312828260046040600020015416151514614e78565b83600052818352600380604060002001549461432d86614cee565b9561433b6040519788614c52565b80875261434a601f1991614cee565b0160005b818110614560575050836000905b614450575b5050506040519280840190808552855180925280604086019601926000905b83821061438d5786880387f35b909192939483610180829988516143b482825160ff60208092828151168552015116910152565b6143c5848201516040840190614ce1565b8580604083015116606090818501528201516143e660809182860190614ce1565b8201511660a09081840152810151151560c0908184015260018060a01b03908201511660e0830152858060e0830151166101009081850152820151166101209081840152810151906101409182840152015161016082015201960192019096949693929193614380565b90849694929181600052838752604060002090838201918254821015614555578461447e8361454b95614efe565b929060018060a01b039384915490841b1c1660005260028091018b52604060002090898c604051956144af87614c19565b6144b88561512a565b8752828c86015480936144cf838316828c016151ea565b828260081c1660408b01526144ec838360101c1660608c016151ea565b828260181c1660808b01521c16151560a08801528160281c1660c0870152818160c81c1660e087015260d01c16610100850152810154610120840152015461014082015261453a8289614f96565b526145458188614f96565b50614ec4565b909192949661435c565b505050959395614361565b869060409896985161457181614c19565b60405161457d81614bfd565b600081526000848201528152600083820152600060408201526000606082015260006080820152600060a0820152600060c0820152600060e08201526000610100820152600061012082015260006101408201528282890101520196949661434e565b34610015576000366003190112610015576145f9614deb565b600080546001600160a01b0319811682556001600160a01b03167f8be0079c531659141344cd1fd0a4f28419497f9722a3daafe3b4186f6b6457e08280a3005b346100155760208060031936011261001557600435806000526001825261466f600160ff60046040600020015416151514614e78565b60405163436fadf360e11b8152600481019190915281816024817f00000000000000000000000000000000000000000000000000000000000000006001600160a01b03165afa90811561082c576000916146d0575b5060ff60405191168152f35b90508181813d83116146fe575b6146e78183614c52565b81010312610015576146f890614f16565b826146c4565b503d6146dd565b34610015576000366003190112610015576002546040516001600160a01b039091168152602090f35b346100155760ff61473e36614c84565b929390836000526147986020936001855261476760018560046040600020015416151514614e78565b60405163183b1baf60e01b8152875160ff908116600483015260209098015190971660248801526044870190614ce1565b1660648401526084830182905260608360a4817f00000000000000000000000000000000000000000000000000000000000000006001600160a01b03165afa92831561082c57600090600094614860575b50156147fd57506147fb91503361538f565b005b60ff8184826147fb9651168560005260018352600260406000200133600052835260406000209084198254161790550151169160005260018152600260406000200190336000525260406000209061ff0082549160081b169061ff001916179055565b905061487b91935060603d8111610825576108168183614c52565b9290846147e9565b3461001557602036600319011261001557600435600052600160205260e060406000208054906004600182015491015460405192835260ff8281809416602086015260081c16604084015281811615156060840152818160081c1615156080840152818160101c16151560a084015260181c16151560c0820152f35b346100155760208060031936011261001557600435908160005260019182825260ff614938848260046040600020015416151514614e78565b60405163436fadf360e11b815260048101929092527f00000000000000000000000000000000000000000000000000000000000000006001600160a01b031690602484848281865afa93841561082c57600094614bc6575b508161499b8561576d565b94169386850190838211614bb1576149c26149bd6149c89386939a989a615781565b615798565b166152d7565b956040516149d581614bfd565b81815281878201526149e688614f89565b526149f087614f89565b5084805b614a55575b5050505050604051918083018184528451809152816040850195019160005b828110614a255785870386f35b9091929382604088614a48849a895160ff60208092828151168552015116910152565b0197950193929101614a18565b838198969816828111614ba8576000198101858111614b9357614a846149bd84614a7f899461576d565b615781565b1690614a8f88614f89565b516040516301cf2e2560e51b8152815160ff908116600483015260209092015190911660248201529060448201526000816064818a5afa90811561082c57600091614b78575b50899594939291906000875b614afd575b505050614af2906151b6565b9091929395976149f4565b908092939495969750518b88831691821015614b6d5750614b1e8184614f96565b5190840190818511614b585791614b45828e94614b3e614b4b958f614f96565b528c614f96565b506151b6565b8197969594939291614ae1565b87634e487b7160e01b60005260116004526000fd5b979695949350614ae6565b614b8d91503d806000833e6118498183614c52565b8a614ad5565b84634e487b7160e01b60005260116004526000fd5b509694966149f9565b82634e487b7160e01b60005260116004526000fd5b9093508481813d8311614bf6575b614bde8183614c52565b8101031261001557614bef90614f16565b9286614990565b503d614bd4565b6040810190811067ffffffffffffffff8211176122b057604052565b610160810190811067ffffffffffffffff8211176122b057604052565b6080810190811067ffffffffffffffff8211176122b057604052565b90601f8019910116810190811067ffffffffffffffff8211176122b057604052565b6024359060ff8216820361001557565b6003190160a081126100155760401361001557604051614ca381614bfd565b60043560ff81168103610015578152614cba614c74565b6020820152906044356007811015610015579060643560ff81168103610015579060843590565b9060078210156122c65752565b67ffffffffffffffff81116122b05760051b60200190565b81601f8201121561001557803591614d1d83614cee565b92614d2b6040519485614c52565b808452602092838086019260051b820101928311610015578301905b828210614d55575050505090565b81356007811015610015578152908301908301614d47565b81601f8201121561001557803591614d8483614cee565b92614d926040519485614c52565b808452602092838086019260051b820101928311610015578301905b828210614dbc575050505090565b813560ff81168103610015578152908301908301614dae565b600435906001600160a01b038216820361001557565b6000546001600160a01b03163303614dff57565b60405163118cdaa760e01b8152336004820152602490fd5b15614e1e57565b60405162461bcd60e51b815260206004820152602c60248201527f43616c6c6572206973206e6f74206f776e6572206f722072656769737472617460448201526b1a5bdb8818dbdb9d1c9858dd60a21b6064820152608490fd5b15614e7f57565b60405162461bcd60e51b815260206004820152601960248201527f47616d6520686173206e6f7420737461727465642079657421000000000000006044820152606490fd5b60001981146110ea5760010190565b805415614ee857600052602060002090600090565b634e487b7160e01b600052603260045260246000fd5b8054821015614ee85760005260206000200190600090565b519060ff8216820361001557565b5190811515820361001557565b919082608091031261001557604051614f4981614c36565b6060614f84818395614f5a81614f16565b8552614f6860208201614f16565b6020860152614f7960408201614f24565b604086015201614f24565b910152565b805115614ee85760200190565b8051821015614ee85760209160051b010190565b60207f8924ef8e2fcf31b0d38716fc8120f7aec496d13f5abdb8320e31a69dbc449100918060005260018252614fef600160ff60046040600020015416151514614e78565b806000526001825260046040600020016201000062ff000019825416179055604051908152a1565b60078110156122c65760f81b9052565b949293906040519461503d602087018098615017565b61505c60ff60f81b9485809460f81b1660218901526022880190615017565b60f81b16602385015260f81b1660248301526bffffffffffffffffffffffff199060601b1660258201526019815261509381614bfd565b51902090565b156150a057565b606460405162461bcd60e51b815260206004820152602060248201527f417272617973206d7573742068617665207468652073616d65206c656e6774686044820152fd5b5160078110156122c65790565b9060078110156122c65760ff80198354169116179055565b9060078110156122c65762ff000082549160101b169062ff00001916179055565b9060405161513781614bfd565b602060ff829454818116845260081c16910152565b91908260409103126100155760405161516481614bfd565b6020614f8481839561517581614f16565b855201614f16565b9160609194936151b060ff926151a686608081019960ff60208092828151168552015116910152565b6040860190614ce1565b16910152565b60ff1660ff81146110ea5760010190565b60005b8381106151da5750506000910152565b81810151838201526020016151ca565b60078210156122c65752565b9060209182818303126100155780519067ffffffffffffffff8211610015570181601f820112156100155780519261522d84614cee565b9360409361523d85519687614c52565b818652828087019260061b85010193818511610015578301915b8483106152675750505050505090565b838691615274848661514c565b815201920191615257565b805480156152b15760001901906152ae6152998383614efe565b81549060018060a01b039060031b1b19169055565b55565b634e487b7160e01b600052603160045260246000fd5b60ff1680156110ea576000190190565b906152e182614cee565b6040906152f082519182614c52565b8381528093615301601f1991614cee565b0191600090815b848110615316575050505050565b602090825161532481614bfd565b848152828581830152828701015201615308565b91906060838203126100155761535a90602061535385614f24565b940161514c565b90565b9061536782614cee565b6153746040519182614c52565b8281528092615385601f1991614cee565b0190602036910137565b90600081815260019260209184835260ff6040916153b887836004868520015416151514614e78565b80948782905b6153d4575b50505050506153d2935061543e565b565b878352888252600380868520018054868416101561543757826153f691614efe565b9054911b1c6001600160a01b0390811690871614615420579061541989926151b6565b90916153be565b949550505050506153d293509038808080806153c3565b50506153c3565b90916000908082526001906020908282526040946003868620015460ff881610156155a75781855283835261547f8460ff6004898920015416151514614e78565b60018060a01b0380911690817f0ceeb6c20e03a8c47e6673117b7b54c5b880118423ef2a84e0b795bd849fc406858951868152a27f000000000000000000000000000000000000000000000000000000000000000016828652848452600287872001828752845260038787200154813b156155a3578691602483928a51948593849263835f396760e01b845260048401525af1801561559957615568575b509261529995928260039587946153d29a985283835260028686200190600052825261555e8560002060036000918281558260018201558260028201550155565b8352522001614efe565b67ffffffffffffffff81969296116155855786529361529961551d565b634e487b7160e01b82526041600452602482fd5b87513d88823e3d90fd5b8680fd5b855162461bcd60e51b815260048101849052601860248201527f496e6465782076616c7565206f7574206f662072616e676500000000000000006044820152606490fd5b9060005b825160ff821690811015615632576001600160a01b039081906156129086614f96565b51169083161461562a57615625906151b6565b6155ef565b505050600190565b50505050600090565b6040805163436fadf360e11b815260048101839052909160209182816024817f00000000000000000000000000000000000000000000000000000000000000006001600160a01b03165afa908115615762576000916156ff575b50907f3874cce3730901301cd0c02b4c2dd416d59546f183096d9f2a434c4d3a9ba4a560606001949383600052858552866000206156d38154614ec4565b90558360005285855260ff876000205491885192868452878401521687820152a1600052526000205490565b908382813d831161575b575b6157158183614c52565b810103126157585750907f3874cce3730901301cd0c02b4c2dd416d59546f183096d9f2a434c4d3a9ba4a5606061574e60019594614f16565b9293945050615695565b80fd5b503d61570b565b84513d6000823e3d90fd5b60ff166003029060ff82169182036110ea57565b9060ff8091169116029060ff82169182036110ea57565b60ff166001019060ff82116110ea5756fe56807b65299b9d361218ee1228c0caeed59b1cbcb079421f124145f99d0a0b06a2646970667358221220785cd4e0c51904a69415e7b6f65f748030ae4021e81dbe015c911285b26d8d8364736f6c63430008140033",
  "linkReferences": {},
  "deployedLinkReferences": {}
}