{
  "_format": "hh-sol-artifact-1",
  "contractName": "Gameyarts",
  "sourceName": "contracts/Gameyarts.sol",
  "abi": [
    {
      "inputs": [
        {
          "internalType": "address",
          "name": "_mapAddress",
          "type": "address"
        },
        {
          "internalType": "address",
          "name": "_yartsshipsAddress",
          "type": "address"
        },
        {
          "internalType": "address",
          "name": "_covAddress",
          "type": "address"
        }
      ],
      "stateMutability": "nonpayable",
      "type": "constructor"
    },
    {
      "inputs": [
        {
          "internalType": "address",
          "name": "player",
          "type": "address"
        },
        {
          "internalType": "uint256",
          "name": "tokenId",
          "type": "uint256"
        }
      ],
      "name": "NotOwnerOfShip",
      "type": "error"
    },
    {
      "inputs": [
        {
          "internalType": "address",
          "name": "owner",
          "type": "address"
        }
      ],
      "name": "OwnableInvalidOwner",
      "type": "error"
    },
    {
      "inputs": [
        {
          "internalType": "address",
          "name": "account",
          "type": "address"
        }
      ],
      "name": "OwnableUnauthorizedAccount",
      "type": "error"
    },
    {
      "inputs": [
        {
          "internalType": "address",
          "name": "player",
          "type": "address"
        },
        {
          "internalType": "uint8",
          "name": "q",
          "type": "uint8"
        },
        {
          "internalType": "uint8",
          "name": "r",
          "type": "uint8"
        }
      ],
      "name": "ShipAlreadyAdded",
      "type": "error"
    },
    {
      "anonymous": false,
      "inputs": [
        {
          "indexed": false,
          "internalType": "uint256",
          "name": "gameId",
          "type": "uint256"
        },
        {
          "indexed": false,
          "internalType": "uint8",
          "name": "q",
          "type": "uint8"
        },
        {
          "indexed": false,
          "internalType": "uint8",
          "name": "r",
          "type": "uint8"
        },
        {
          "indexed": false,
          "internalType": "bool",
          "name": "island",
          "type": "bool"
        }
      ],
      "name": "Cell",
      "type": "event"
    },
    {
      "anonymous": false,
      "inputs": [
        {
          "indexed": false,
          "internalType": "uint256",
          "name": "gameId",
          "type": "uint256"
        },
        {
          "indexed": false,
          "internalType": "uint8",
          "name": "q",
          "type": "uint8"
        },
        {
          "indexed": false,
          "internalType": "uint8",
          "name": "r",
          "type": "uint8"
        }
      ],
      "name": "CellDeleted",
      "type": "event"
    },
    {
      "anonymous": false,
      "inputs": [
        {
          "indexed": false,
          "internalType": "uint256",
          "name": "gameId",
          "type": "uint256"
        }
      ],
      "name": "CommitPhaseStarted",
      "type": "event"
    },
    {
      "anonymous": false,
      "inputs": [
        {
          "indexed": false,
          "internalType": "uint256",
          "name": "gameId",
          "type": "uint256"
        }
      ],
      "name": "GameEnded",
      "type": "event"
    },
    {
      "anonymous": false,
      "inputs": [
        {
          "indexed": false,
          "internalType": "uint256",
          "name": "gameId",
          "type": "uint256"
        }
      ],
      "name": "GameStarted",
      "type": "event"
    },
    {
      "anonymous": false,
      "inputs": [
        {
          "indexed": true,
          "internalType": "bool",
          "name": "gameStatus",
          "type": "bool"
        },
        {
          "indexed": true,
          "internalType": "address",
          "name": "winnerAddress",
          "type": "address"
        },
        {
          "indexed": false,
          "internalType": "uint256",
          "name": "gameId",
          "type": "uint256"
        }
      ],
      "name": "GameUpdated",
      "type": "event"
    },
    {
      "anonymous": false,
      "inputs": [
        {
          "indexed": true,
          "internalType": "address",
          "name": "winner",
          "type": "address"
        },
        {
          "indexed": false,
          "internalType": "uint256",
          "name": "gameId",
          "type": "uint256"
        }
      ],
      "name": "GameWinner",
      "type": "event"
    },
    {
      "anonymous": false,
      "inputs": [
        {
          "indexed": false,
          "internalType": "uint8",
          "name": "radius",
          "type": "uint8"
        },
        {
          "indexed": false,
          "internalType": "uint256",
          "name": "gameId",
          "type": "uint256"
        },
        {
          "indexed": false,
          "internalType": "uint8",
          "name": "mapShrink",
          "type": "uint8"
        }
      ],
      "name": "MapInitialized",
      "type": "event"
    },
    {
      "anonymous": false,
      "inputs": [
        {
          "indexed": false,
          "internalType": "uint256",
          "name": "gameId",
          "type": "uint256"
        }
      ],
      "name": "MapShrink",
      "type": "event"
    },
    {
      "anonymous": false,
      "inputs": [
        {
          "indexed": true,
          "internalType": "address",
          "name": "player",
          "type": "address"
        },
        {
          "indexed": false,
          "internalType": "uint256",
          "name": "gameId",
          "type": "uint256"
        },
        {
          "indexed": false,
          "internalType": "bytes32",
          "name": "moveHash",
          "type": "bytes32"
        }
      ],
      "name": "MoveCommitted",
      "type": "event"
    },
    {
      "anonymous": false,
      "inputs": [
        {
          "indexed": true,
          "internalType": "address",
          "name": "player",
          "type": "address"
        },
        {
          "indexed": false,
          "internalType": "uint256",
          "name": "gameId",
          "type": "uint256"
        },
        {
          "indexed": false,
          "internalType": "uint256",
          "name": "roundId",
          "type": "uint256"
        },
        {
          "indexed": false,
          "internalType": "uint8",
          "name": "destQ",
          "type": "uint8"
        },
        {
          "indexed": false,
          "internalType": "uint8",
          "name": "destR",
          "type": "uint8"
        },
        {
          "indexed": false,
          "internalType": "uint8",
          "name": "shotQ",
          "type": "uint8"
        },
        {
          "indexed": false,
          "internalType": "uint8",
          "name": "shotR",
          "type": "uint8"
        }
      ],
      "name": "MoveSubmitted",
      "type": "event"
    },
    {
      "anonymous": false,
      "inputs": [
        {
          "indexed": false,
          "internalType": "address[]",
          "name": "players",
          "type": "address[]"
        },
        {
          "indexed": false,
          "internalType": "uint256",
          "name": "gameId",
          "type": "uint256"
        }
      ],
      "name": "MutualShot",
      "type": "event"
    },
    {
      "anonymous": false,
      "inputs": [
        {
          "indexed": false,
          "internalType": "uint256",
          "name": "gameId",
          "type": "uint256"
        },
        {
          "indexed": false,
          "internalType": "uint256",
          "name": "roundId",
          "type": "uint256"
        },
        {
          "indexed": false,
          "internalType": "uint8",
          "name": "radius",
          "type": "uint8"
        }
      ],
      "name": "NewRound",
      "type": "event"
    },
    {
      "anonymous": false,
      "inputs": [
        {
          "indexed": true,
          "internalType": "address",
          "name": "previousOwner",
          "type": "address"
        },
        {
          "indexed": true,
          "internalType": "address",
          "name": "newOwner",
          "type": "address"
        }
      ],
      "name": "OwnershipTransferred",
      "type": "event"
    },
    {
      "anonymous": false,
      "inputs": [
        {
          "indexed": true,
          "internalType": "address",
          "name": "player",
          "type": "address"
        },
        {
          "indexed": false,
          "internalType": "uint256",
          "name": "gameId",
          "type": "uint256"
        },
        {
          "indexed": false,
          "internalType": "uint256",
          "name": "yartsshipId",
          "type": "uint256"
        },
        {
          "indexed": false,
          "internalType": "uint8",
          "name": "q",
          "type": "uint8"
        },
        {
          "indexed": false,
          "internalType": "uint8",
          "name": "r",
          "type": "uint8"
        },
        {
          "indexed": false,
          "internalType": "uint8",
          "name": "speed",
          "type": "uint8"
        },
        {
          "indexed": false,
          "internalType": "uint8",
          "name": "range",
          "type": "uint8"
        },
        {
          "indexed": false,
          "internalType": "string",
          "name": "image",
          "type": "string"
        }
      ],
      "name": "PlayerAdded",
      "type": "event"
    },
    {
      "anonymous": false,
      "inputs": [
        {
          "indexed": true,
          "internalType": "address",
          "name": "player",
          "type": "address"
        },
        {
          "indexed": false,
          "internalType": "uint256",
          "name": "gameId",
          "type": "uint256"
        }
      ],
      "name": "PlayerDefeated",
      "type": "event"
    },
    {
      "anonymous": false,
      "inputs": [
        {
          "indexed": true,
          "internalType": "address",
          "name": "captain",
          "type": "address"
        },
        {
          "indexed": false,
          "internalType": "uint256",
          "name": "gameId",
          "type": "uint256"
        },
        {
          "indexed": false,
          "internalType": "uint8",
          "name": "q",
          "type": "uint8"
        },
        {
          "indexed": false,
          "internalType": "uint8",
          "name": "r",
          "type": "uint8"
        }
      ],
      "name": "ShipCollidedWithIsland",
      "type": "event"
    },
    {
      "anonymous": false,
      "inputs": [
        {
          "indexed": true,
          "internalType": "address",
          "name": "victim",
          "type": "address"
        },
        {
          "indexed": true,
          "internalType": "address",
          "name": "attacker",
          "type": "address"
        },
        {
          "indexed": false,
          "internalType": "uint256",
          "name": "gameId",
          "type": "uint256"
        }
      ],
      "name": "ShipHit",
      "type": "event"
    },
    {
      "anonymous": false,
      "inputs": [
        {
          "indexed": true,
          "internalType": "address",
          "name": "captain",
          "type": "address"
        },
        {
          "indexed": false,
          "internalType": "uint8",
          "name": "initialQ",
          "type": "uint8"
        },
        {
          "indexed": false,
          "internalType": "uint8",
          "name": "initialR",
          "type": "uint8"
        },
        {
          "indexed": false,
          "internalType": "uint8",
          "name": "q",
          "type": "uint8"
        },
        {
          "indexed": false,
          "internalType": "uint8",
          "name": "r",
          "type": "uint8"
        },
        {
          "indexed": false,
          "internalType": "uint256",
          "name": "gameId",
          "type": "uint256"
        }
      ],
      "name": "ShipMoved",
      "type": "event"
    },
    {
      "anonymous": false,
      "inputs": [
        {
          "indexed": true,
          "internalType": "address",
          "name": "captain",
          "type": "address"
        },
        {
          "indexed": false,
          "internalType": "uint256",
          "name": "gameId",
          "type": "uint256"
        }
      ],
      "name": "ShipMovedInGame",
      "type": "event"
    },
    {
      "anonymous": false,
      "inputs": [
        {
          "indexed": true,
          "internalType": "address",
          "name": "captain",
          "type": "address"
        },
        {
          "indexed": false,
          "internalType": "uint8",
          "name": "fromQ",
          "type": "uint8"
        },
        {
          "indexed": false,
          "internalType": "uint8",
          "name": "fromR",
          "type": "uint8"
        },
        {
          "indexed": false,
          "internalType": "uint8",
          "name": "shotQ",
          "type": "uint8"
        },
        {
          "indexed": false,
          "internalType": "uint8",
          "name": "shotR",
          "type": "uint8"
        },
        {
          "indexed": false,
          "internalType": "uint256",
          "name": "gameId",
          "type": "uint256"
        }
      ],
      "name": "ShipShot",
      "type": "event"
    },
    {
      "anonymous": false,
      "inputs": [
        {
          "indexed": true,
          "internalType": "address",
          "name": "captain",
          "type": "address"
        },
        {
          "indexed": false,
          "internalType": "uint256",
          "name": "gameId",
          "type": "uint256"
        }
      ],
      "name": "ShipSunk",
      "type": "event"
    },
    {
      "anonymous": false,
      "inputs": [
        {
          "indexed": true,
          "internalType": "address",
          "name": "captain",
          "type": "address"
        },
        {
          "indexed": false,
          "internalType": "uint256",
          "name": "gameId",
          "type": "uint256"
        }
      ],
      "name": "ShipSunkOutOfMap",
      "type": "event"
    },
    {
      "anonymous": false,
      "inputs": [
        {
          "indexed": false,
          "internalType": "uint256",
          "name": "gameId",
          "type": "uint256"
        },
        {
          "indexed": false,
          "internalType": "uint256",
          "name": "round",
          "type": "uint256"
        }
      ],
      "name": "SubmitPhaseStarted",
      "type": "event"
    },
    {
      "anonymous": false,
      "inputs": [
        {
          "indexed": false,
          "internalType": "uint256",
          "name": "gameId",
          "type": "uint256"
        }
      ],
      "name": "WorldUpdated",
      "type": "event"
    },
    {
      "stateMutability": "nonpayable",
      "type": "fallback"
    },
    {
      "inputs": [
        {
          "internalType": "address",
          "name": "playerAddress",
          "type": "address"
        },
        {
          "internalType": "uint256",
          "name": "gameId",
          "type": "uint256"
        },
        {
          "internalType": "uint256",
          "name": "_yartsshipId",
          "type": "uint256"
        }
      ],
      "name": "addShip",
      "outputs": [],
      "stateMutability": "nonpayable",
      "type": "function"
    },
    {
      "inputs": [
        {
          "internalType": "bytes32",
          "name": "moveHash",
          "type": "bytes32"
        },
        {
          "internalType": "uint256",
          "name": "gameId",
          "type": "uint256"
        }
      ],
      "name": "commitMove",
      "outputs": [],
      "stateMutability": "nonpayable",
      "type": "function"
    },
    {
      "inputs": [
        {
          "internalType": "enum SharedStructs.Directions",
          "name": "_travelDirection",
          "type": "uint8"
        },
        {
          "internalType": "uint8",
          "name": "_travelDistance",
          "type": "uint8"
        },
        {
          "internalType": "enum SharedStructs.Directions",
          "name": "_shotDirection",
          "type": "uint8"
        },
        {
          "internalType": "uint8",
          "name": "_shotDistance",
          "type": "uint8"
        },
        {
          "internalType": "uint8",
          "name": "_secret",
          "type": "uint8"
        },
        {
          "internalType": "address",
          "name": "_playerAddress",
          "type": "address"
        }
      ],
      "name": "encodeCommitment",
      "outputs": [
        {
          "internalType": "bytes32",
          "name": "",
          "type": "bytes32"
        }
      ],
      "stateMutability": "pure",
      "type": "function"
    },
    {
      "inputs": [
        {
          "internalType": "uint256",
          "name": "",
          "type": "uint256"
        }
      ],
      "name": "games",
      "outputs": [
        {
          "internalType": "uint256",
          "name": "round",
          "type": "uint256"
        },
        {
          "internalType": "uint8",
          "name": "shrinkNo",
          "type": "uint8"
        },
        {
          "internalType": "uint8",
          "name": "mapShrink",
          "type": "uint8"
        },
        {
          "internalType": "bool",
          "name": "gameInProgress",
          "type": "bool"
        },
        {
          "internalType": "bool",
          "name": "stopAddingShips",
          "type": "bool"
        },
        {
          "internalType": "bool",
          "name": "letCommitMoves",
          "type": "bool"
        },
        {
          "internalType": "bool",
          "name": "letSubmitMoves",
          "type": "bool"
        }
      ],
      "stateMutability": "view",
      "type": "function"
    },
    {
      "inputs": [
        {
          "components": [
            {
              "internalType": "uint8",
              "name": "q",
              "type": "uint8"
            },
            {
              "internalType": "uint8",
              "name": "r",
              "type": "uint8"
            }
          ],
          "internalType": "struct SharedStructs.Coordinate",
          "name": "_coord",
          "type": "tuple"
        },
        {
          "internalType": "uint256",
          "name": "gameId",
          "type": "uint256"
        }
      ],
      "name": "getCell",
      "outputs": [
        {
          "components": [
            {
              "internalType": "uint8",
              "name": "q",
              "type": "uint8"
            },
            {
              "internalType": "uint8",
              "name": "r",
              "type": "uint8"
            },
            {
              "internalType": "bool",
              "name": "island",
              "type": "bool"
            },
            {
              "internalType": "bool",
              "name": "exists",
              "type": "bool"
            }
          ],
          "internalType": "struct SharedStructs.Cell",
          "name": "",
          "type": "tuple"
        }
      ],
      "stateMutability": "view",
      "type": "function"
    },
    {
      "inputs": [
        {
          "internalType": "uint256",
          "name": "gameId",
          "type": "uint256"
        }
      ],
      "name": "getCoordinates",
      "outputs": [
        {
          "components": [
            {
              "internalType": "uint8",
              "name": "q",
              "type": "uint8"
            },
            {
              "internalType": "uint8",
              "name": "r",
              "type": "uint8"
            }
          ],
          "internalType": "struct SharedStructs.Coordinate[]",
          "name": "",
          "type": "tuple[]"
        }
      ],
      "stateMutability": "view",
      "type": "function"
    },
    {
      "inputs": [
        {
          "internalType": "uint256",
          "name": "gameId",
          "type": "uint256"
        }
      ],
      "name": "getIslands",
      "outputs": [
        {
          "internalType": "uint8[]",
          "name": "IslandsQ",
          "type": "uint8[]"
        },
        {
          "internalType": "uint8[]",
          "name": "IslandsR",
          "type": "uint8[]"
        }
      ],
      "stateMutability": "view",
      "type": "function"
    },
    {
      "inputs": [
        {
          "internalType": "uint256",
          "name": "gameId",
          "type": "uint256"
        }
      ],
      "name": "getRadius",
      "outputs": [
        {
          "internalType": "uint8",
          "name": "",
          "type": "uint8"
        }
      ],
      "stateMutability": "view",
      "type": "function"
    },
    {
      "inputs": [
        {
          "internalType": "uint256",
          "name": "gameId",
          "type": "uint256"
        }
      ],
      "name": "getShips",
      "outputs": [
        {
          "components": [
            {
              "components": [
                {
                  "internalType": "uint8",
                  "name": "q",
                  "type": "uint8"
                },
                {
                  "internalType": "uint8",
                  "name": "r",
                  "type": "uint8"
                }
              ],
              "internalType": "struct SharedStructs.Coordinate",
              "name": "coordinate",
              "type": "tuple"
            },
            {
              "internalType": "enum SharedStructs.Directions",
              "name": "travelDirection",
              "type": "uint8"
            },
            {
              "internalType": "uint8",
              "name": "travelDistance",
              "type": "uint8"
            },
            {
              "internalType": "enum SharedStructs.Directions",
              "name": "shotDirection",
              "type": "uint8"
            },
            {
              "internalType": "uint8",
              "name": "shotDistance",
              "type": "uint8"
            },
            {
              "internalType": "bool",
              "name": "publishedMove",
              "type": "bool"
            },
            {
              "internalType": "address",
              "name": "captain",
              "type": "address"
            },
            {
              "internalType": "uint8",
              "name": "yachtSpeed",
              "type": "uint8"
            },
            {
              "internalType": "uint8",
              "name": "yachtRange",
              "type": "uint8"
            },
            {
              "internalType": "uint256",
              "name": "gameId",
              "type": "uint256"
            },
            {
              "internalType": "uint256",
              "name": "yartsshipId",
              "type": "uint256"
            }
          ],
          "internalType": "struct Gameyarts.Ship[]",
          "name": "",
          "type": "tuple[]"
        }
      ],
      "stateMutability": "view",
      "type": "function"
    },
    {
      "inputs": [],
      "name": "kmsPublicAddress",
      "outputs": [
        {
          "internalType": "address",
          "name": "",
          "type": "address"
        }
      ],
      "stateMutability": "view",
      "type": "function"
    },
    {
      "inputs": [
        {
          "components": [
            {
              "internalType": "uint8",
              "name": "q",
              "type": "uint8"
            },
            {
              "internalType": "uint8",
              "name": "r",
              "type": "uint8"
            }
          ],
          "internalType": "struct SharedStructs.Coordinate",
          "name": "_start",
          "type": "tuple"
        },
        {
          "internalType": "enum SharedStructs.Directions",
          "name": "_dir",
          "type": "uint8"
        },
        {
          "internalType": "uint8",
          "name": "_distance",
          "type": "uint8"
        },
        {
          "internalType": "uint256",
          "name": "gameId",
          "type": "uint256"
        }
      ],
      "name": "move",
      "outputs": [
        {
          "components": [
            {
              "internalType": "uint8",
              "name": "q",
              "type": "uint8"
            },
            {
              "internalType": "uint8",
              "name": "r",
              "type": "uint8"
            }
          ],
          "internalType": "struct SharedStructs.Coordinate",
          "name": "",
          "type": "tuple"
        }
      ],
      "stateMutability": "view",
      "type": "function"
    },
    {
      "inputs": [],
      "name": "owner",
      "outputs": [
        {
          "internalType": "address",
          "name": "",
          "type": "address"
        }
      ],
      "stateMutability": "view",
      "type": "function"
    },
    {
      "inputs": [],
      "name": "registrationContract",
      "outputs": [
        {
          "internalType": "address",
          "name": "",
          "type": "address"
        }
      ],
      "stateMutability": "view",
      "type": "function"
    },
    {
      "inputs": [],
      "name": "renounceOwnership",
      "outputs": [],
      "stateMutability": "nonpayable",
      "type": "function"
    },
    {
      "inputs": [
        {
          "internalType": "address",
          "name": "_kmsPublicAddress",
          "type": "address"
        }
      ],
      "name": "setKmsPublicAddress",
      "outputs": [],
      "stateMutability": "nonpayable",
      "type": "function"
    },
    {
      "inputs": [
        {
          "internalType": "address",
          "name": "_registrationContract",
          "type": "address"
        }
      ],
      "name": "setRegistrationContract",
      "outputs": [],
      "stateMutability": "nonpayable",
      "type": "function"
    },
    {
      "inputs": [
        {
          "internalType": "uint256",
          "name": "_gameId",
          "type": "uint256"
        },
        {
          "internalType": "uint8",
          "name": "_radius",
          "type": "uint8"
        },
        {
          "internalType": "uint8",
          "name": "_mapShrink",
          "type": "uint8"
        }
      ],
      "name": "startNewGame",
      "outputs": [],
      "stateMutability": "nonpayable",
      "type": "function"
    },
    {
      "inputs": [
        {
          "internalType": "enum SharedStructs.Directions[]",
          "name": "_travelDirections",
          "type": "uint8[]"
        },
        {
          "internalType": "uint8[]",
          "name": "_travelDistances",
          "type": "uint8[]"
        },
        {
          "internalType": "enum SharedStructs.Directions[]",
          "name": "_shotDirections",
          "type": "uint8[]"
        },
        {
          "internalType": "uint8[]",
          "name": "_shotDistances",
          "type": "uint8[]"
        },
        {
          "internalType": "uint8[]",
          "name": "_secrets",
          "type": "uint8[]"
        },
        {
          "internalType": "address[]",
          "name": "_playerAddresses",
          "type": "address[]"
        },
        {
          "internalType": "uint256",
          "name": "gameId",
          "type": "uint256"
        }
      ],
      "name": "submitMove",
      "outputs": [],
      "stateMutability": "nonpayable",
      "type": "function"
    },
    {
      "inputs": [
        {
          "internalType": "address",
          "name": "newOwner",
          "type": "address"
        }
      ],
      "name": "transferOwnership",
      "outputs": [],
      "stateMutability": "nonpayable",
      "type": "function"
    },
    {
      "inputs": [
        {
          "components": [
            {
              "internalType": "uint8",
              "name": "q",
              "type": "uint8"
            },
            {
              "internalType": "uint8",
              "name": "r",
              "type": "uint8"
            }
          ],
          "internalType": "struct SharedStructs.Coordinate",
          "name": "_startCell",
          "type": "tuple"
        },
        {
          "internalType": "enum SharedStructs.Directions",
          "name": "_direction",
          "type": "uint8"
        },
        {
          "internalType": "uint8",
          "name": "_distance",
          "type": "uint8"
        },
        {
          "internalType": "uint256",
          "name": "gameId",
          "type": "uint256"
        }
      ],
      "name": "travel",
      "outputs": [],
      "stateMutability": "nonpayable",
      "type": "function"
    },
    {
      "inputs": [
        {
          "internalType": "uint256",
          "name": "gameId",
          "type": "uint256"
        }
      ],
      "name": "updateWorld",
      "outputs": [],
      "stateMutability": "nonpayable",
      "type": "function"
    }
  ],
  "bytecode": "0x60e03461018357601f61616e38819003918201601f19168301916001600160401b0383118484101761018857808492606094604052833981010312610183576100478161019e565b9061006060406100596020840161019e565b920161019e565b90331561016d5760008054336001600160a01b0319821681178355604051959290916001600160a01b0316907f8be0079c531659141344cd1fd0a4f28419497f9722a3daafe3b4186f6b6457e09080a36001600160a01b0390811660805290811660a0521660c052615fbb90816101b382396080518181816103b301528181610605015281816113a701528181611c400152818161203c0152818161285701528181612a3801528181612e850152818161325c0152818161349b015281816141cc01528181614c1601528181614d8d01528181614f1a0152615d88015260a051818181610e2501528181611f9a01528181613cf10152615bb9015260c051818181610f440152613e050152f35b631e4fbdf760e01b600052600060045260246000fd5b600080fd5b634e487b7160e01b600052604160045260246000fd5b51906001600160a01b03821682036101835756fe608080604052600436101561001c575b503461001757005b600080fd5b600090813560e01c90816302ea536814615163575080630bf3781814614ece578063117a5b9014614e53578063183b1baf14614d1a5780631e522c3e14614cf157806338853bfb14614ca55780636b082eed14614bc3578063715018a614614b6957806378d59e051461488c5780638b7524b614612ae55780638da5cb5b14612abe57806394c1d2d9146129db578063950074a8146129965780639cc45f3414612901578063b173a147146127a4578063b39116fd14611f29578063c13b811714611a9b578063d3db03cc14611a56578063d837093c1461021e578063dcdb5897146101945763f2fde38b0361000f5734610191576020366003190112610191576101256153e0565b61012d615c81565b6001600160a01b0316801561017d5781546001600160a01b03198116821783556001600160a01b03167f8be0079c531659141344cd1fd0a4f28419497f9722a3daafe3b4186f6b6457e08380a380f35b631e4fbdf760e01b82526004829052602482fd5b80fd5b50346101915760c036600319011261019157600435600781101561021a576101ba615225565b6044356007811015610216576064359160ff83168303610212576084359360ff8516850361020e5760a435956001600160a01b0387168703610191576020610206888888888888615ad9565b604051908152f35b8580fd5b8480fd5b8380fd5b5080fd5b50346101915760203660031901126101915760043560018060a01b036004541633148015611a43575b6102509061579c565b808252600160205261026b60ff6005604085200154166153f6565b808252600160205261028360036040842001546154a9565b818352600160205261029b600360408520015461565e565b90835b838552600160205260036040862001548110156102ca578060016102c381938661552a565b520161029e565b5091835b818552600160205260036040862001548110156105305781855260016020526102fd81600360408820016156a5565b60018060a01b0391549060031b1c16908286526001602052604060028188200160009060018060a01b0385168252602052209160018301549260018060a01b038460281c16156105255760ff8460201c16610360575b5050600191505b016102ce565b60ff6040519463183b1baf60e01b865261038c600487018460ff60209154818116845260081c16910152565b61039b604487018383166152da565b60081c1660648501526084840185905260608460a4817f00000000000000000000000000000000000000000000000000000000000000006001600160a01b03165afa90811561051a57856001958a908b946104e7575b5061048157509081837f9db385e25deecca76e1e8dab29ae54e5c2f1707d2c611cfab0984b782e9f8a2c610450945460ff855116906104488b60ff602089015116604051948460ff80889760081c1691168661599f565b0390a2615883565b7f4a5516f0f1d85471405ad39e7a960ba9a7b312f2bdc784a6dce8402611417fd66020604051868152a23880610353565b6104d190846104e2957f2265cf35e234e961bc739ea7efb0e9751a34a8c56c1b547ff729d632c2ad21a060ff87511660ff602089015116906104c96040519283928884615985565b0390a2615b56565b886104dc858961552a565b52615883565b61035a565b905061050b91935060603d8111610513575b6105038183615204565b810190615623565b9290386103f1565b503d6104f9565b6040513d8a823e3d90fd5b50506001915061035a565b50919091835b818552600160205260036040862001548110156106ea57610557818561552a565b51610565575b600101610536565b818552600160205261057d81600360408820016156a5565b60018060a01b0391549060031b1c16908286526001602052604060028188200160009060018060a01b0385168252602052209160018301549260ff6040519463d6192ad360e01b86526105e2600487018460ff60209154818116845260081c16910152565b6105f460448701838360101c166152da565b60181c1660648501526040846084817f00000000000000000000000000000000000000000000000000000000000000006001600160a01b03165afa93841561051a578894610699575b5083600080516020615f068339815191529160019561065c868a61552a565b52610667858961552a565b505461068f8760ff60208186511695015116604051948460ff80889760081c1691168661599f565b0390a2905061055d565b935060403d81116106e3575b6106af8186615204565b8401906040858303126106df576106d7600080516020615f068339815191529260019661554f565b94509061063d565b8880fd5b503d6106a5565b5083915b818552600160205260036040862001548310156109175761070f838561552a565b511561090e57600183018084116108fa575b828652600160205260036040872001548110156108ed57806107456001928761552a565b51156108d05783875281602052604060028189200185895283602052610770876003848c20016156a5565b858060a01b0391549060031b1c1690600091858060a01b03168252602052208488528260205260406002818a2001868a52846020526107b4846003848d20016156a5565b868060a01b0391549060031b1c1690600091868060a01b0316825260205220905490549060ff821660ff82161491826108d5575b50506107f5575b01610721565b86610800868861552a565b528661080c828861552a565b528387528160205261082485600360408a20016156a5565b838060a01b0391549060031b1c16600080516020615f268339815191526020604051878152a28387528160205261086181600360408a20016156a5565b838060a01b0391549060031b1c16600080516020615f268339815191526020604051878152a2838752816020526108b5846108a287600360408c20016156a5565b858060a01b0391549060031b1c16615b56565b838752816020526108d0846108a283600360408c20016156a5565b6107ef565b60ff919250819060081c169160081c161438806107e8565b50916001905b01916106ee565b634e487b7160e01b86526011600452602486fd5b916001906108f3565b8491848184526001602052610932600360408620015461565e565b90828552600160205261094b600360408720015461565e565b92855b818752600160205260036040882001548110156109885780876109736001938761552a565b52600019610981828861552a565b520161094e565b509293909385915b84875260016020526003604088200154831015610aba576109b1838761552a565b5115610ab157865b85885260016020526003604089200154811015610aa45796600188819986148015610a92575b610a8d5787835281602052604060028185200189855283602052610a08886003848820016156a5565b858060a01b0391549060031b1c1690600091858060a01b0316825260205220610a31828661552a565b519060ff82511690549060ff8216149182610a74575b5050610a57575b019097506109b9565b81610a62878961552a565b5280610a6e878761552a565b52610a4e565b60ff919250602082910151169160081c16148b80610a47565b610a4e565b50610a9d818a61552a565b51156109df565b50916001905b0191610990565b91600190610aaa565b86858388878385526001602052610ad7600360408720015461565e565b908590865b86885260016020526003604089200154811015610cd957610afd818661552a565b5115610cd157610b0d818361552a565b51610b1d575b6001905b01610adc565b9190610b29838761552a565b5192878952600160205288610b4485600360408420016156a5565b905460039190911b1c6001600160a01b03168988610b62888761552a565b51151580610cbe575b15610c3f575082526001602052610ba3610b8b84600360408620016156a5565b905460039190911b1c6001600160a01b031688615d17565b15610c00575b610bb38188615d17565b15610bdd575b50610bd4600193949582610bcd858b61552a565b528861552a565b525b9050610b13565b610bf885610bd492610bf2600197988b61552a565b526159cb565b949350610bb9565b93610c39908a83526001602052610c1d84600360408620016156a5565b905460039190911b1c6001600160a01b0316610bf2828a61552a565b93610ba9565b600195969750600360408580610caa89809688996108a299610cb99c528d602052610c6e8389898820016156a5565b8f8060a01b039154908a1b1c167fbeaba0cb8f0bf4956e3f8756079b1aa20a9c7286167b8957d85188108991642d60208d8a51908152a361552a565b528581528860205220016156a5565b610bd6565b5084610cca898d61552a565b5114610b6b565b600190610b17565b5050909192508061190f575b505081835260016020526003604084200154805b61189f57505080825260016020526040822060030154610d63576020600080516020615f468339815191529183600080516020615f6683398151915283604051848152a28084526001825260408420600501805461ff0019166101001790555b604051908152a180f35b908181526001602052600160036040832001541460001461138e578181526001602052610d9560036040832001615690565b60018060a01b0391549060031b1c169182600080516020615f668339815191526020604051848152a280825260016020526005604083200161010061ff001982541617905580825260016020526002604083200160018060a01b0384166000526020526003604060002001549260405193637988cb4160e11b855260048501526103c08460248160018060a01b037f0000000000000000000000000000000000000000000000000000000000000000165afa9384156113835783946112b7575b5060408401519360a06080820151910151610e6f846156bd565b9290858752600160205260046040882001805491889089908a5b8581106112435750610e9a8361565e565b93610ead610ea78461565e565b9361565e565b936001810180911161122f578a8d97610ecc8e9398979695949861565e565b9789938a938b915b84831061112e57505050505091610ef891610ef2610efe948961552a565b52615ea0565b98615ea0565b928a86526001602052604060078188200160009060018060a01b038d16825260205220938454610f2d8161565e565b95610f378261565e565b985b8281106110ee5750507f00000000000000000000000000000000000000000000000000000000000000006001600160a01b03169a90508a3b156110ea576040519b6334bb253960e01b8d5260048d01528c60248d01528c60448d015260648c0161028090526102848c01610fac91615a67565b8b81036003190160848d0152610fc191615a67565b8a81036003190160a48c0152610fd6916159da565b8981036003190160c48b0152610feb916152a3565b8881036003190160e48a0152611000916152a3565b6003198882030161010489015282519081815260200192602001908a5b8181106110d457505050889961108c88966110818c9b9c999761107661106a8b996110578e9a8c9a6003198c8303016101248d01526152a3565b898103600319016101448b0152906152a3565b95610164880190615a9e565b6101c4860190615a9e565b610224840190615a9e565b03925af180156110c9576110b4575b50506020600080516020615f4683398151915291610d59565b816110be91615204565b61021a57818361109b565b6040513d84823e3d90fd5b825185526020948501949092019160010161101d565b8d80fd5b8060ff6110fd600193856156a5565b50541661110a828b61552a565b5260ff61111782856156a5565b505460081c16611127828d61552a565b5201610f39565b868c8c869798999a9b9c9d9e9f959687611147916156a5565b905460039190911b1c6001600160a01b031694850361117d575b505050505050600101908f9998979695949392918f8f90610ed4565b89859493926040966111958361119b959e9b9e61552a565b5261552a565b528352600160205260078284200160009160018060a01b03168252602052208054905b8a8a8385106111e55750505050506111d76001916159cb565b9390508f8f80878d8d611161565b9861122691610bf28260ff61121a899e9988999a611213858561120a8560019e6156a5565b5054169261552a565b52896156a5565b505460081c169261552a565b970191906111be565b634e487b7160e01b8d52601160045260248dfd5b8a61124e82876156a5565b905460039190911b1c6001600160a01b03168d8c8203611274575b505050600101610e89565b600193959160076040809361128c6112ac979b6159cb565b9a8152876020522001600091868060a01b03168252602052205490615609565b9290508a8e8d611269565b9093506103c03d811161137c575b6112cf8183615204565b81016103c0828203126102165780601f8301121561021657604051916112f761014084615204565b826103c082019183831161137857905b82821061131957505050509284610e55565b83601f830112156113785760405160606113338183615204565b819084018681116113745784915b81831061135c57505050816020916060935201910190611307565b6020809161136985615430565b815201920191611341565b8980fd5b8680fd5b503d6112c5565b6040513d85823e3d90fd5b60405163436fadf360e11b8152600481018390529091907f00000000000000000000000000000000000000000000000000000000000000006001600160a01b031690602081602481855afa908115611894578491611855575b5060ff60019116118061180f575b611508575b50808252600160205261141260036040842001615690565b60018060a01b0391549060031b1c16827f6c5d9aa3894362f6fc8570afc4ad57ed5b0498a5e481b34ffccd61ee96cad12c6020604051858152a3815b818352600160205260036040842001548110156114c457600190828452816020528160406002818720018587528260205261148e846003848a20016156a5565b905460039190911b1c60a084901b8490031660009081526020919091522001805464ffffffffff1916620600061790550161144e565b506020600080516020615f4683398151915291808452600182526005604085200163ff0000001981541690556114f981615d6c565b5061150381615caa565b610d59565b60405163174ad17960e11b815260048101839052929190828460248183855af19384156113835783946117eb575b5081835260016020526001604084200160ff6115548183541661553e565b1660ff198254161790557ff47e725249069330b61eda3df25e7c3bcfd700624cbc7cbeabb0e28375bee5316020604051848152a1825b845160ff8216908110156115fc57907fe33d4c5f3e9def7d3f127618203849e9a1888f8e0a9fbffbcdc7d6dbd42b64448260ff60206115da826115d06115f7988d61552a565b515116938b61552a565b51015116906115ef6040519283928984615985565b0390a161553e565b61158a565b50509091925081835260016020526003604084200154805b61161e57506113fa565b61162790615a17565b828452600160205261163f81600360408720016156a5565b60018060a01b0391549060031b1c168385526001602052611678604060028188200160009060018060a01b03851682526020522061576e565b60405163b173a14760e01b815290611694906004830190615188565b846044820152608081606481875afa9182156117e05783928692889161179f575b5060600151156116c7575b5050611614565b6116fc9250807faf0f1f1c6dd1455929199c881d29a04680c9c20aff5f0331d8619ed875c58d1c6020604051858152a2615b56565b828452600160205260036040852001838552600160205260036040862001549060001982019182116108fa5761178091611735916156a5565b60018060a01b0391549060031b1c16848652600160205261175c83600360408920016156a5565b9080546001600160a01b0360039390931b83811b199091169290931690921b179055565b82845260016020528061179860036040872001615a24565b83866116c0565b925050915060803d81116117d9575b6117b88183615204565b8101916080828403126113785760606117d3859488946158ec565b906116b5565b503d6117ae565b6040513d88823e3d90fd5b6118089194503d8085833e6118008183615204565b810190615585565b9284611536565b5081835260016020526040832054828452600160205260ff600160408620015460081c169081156118415706156113f5565b634e487b7160e01b85526012600452602485fd5b90506020813d60201161188c575b8161187060209383615204565b810103126102165760ff611885600192615430565b91506113e7565b3d9150611863565b6040513d86823e3d90fd5b6118a890615a17565b806118b3818461552a565b51610cf95750828452600160205260036040852001838552600160205260036040862001549060001982019182116108fa576118f291611735916156a5565b82845260016020528061190a60036040872001615a24565b610cf9565b61191b8195929561565e565b94825b828110611a1b575050507f43c454d7d9739179cb8955fb1a87309459f577ba357c24735124f16f3bbea5a8604051604081528061195e60408201886159da565b8660208301520390a180915b8451831015611a1057611990846001600160a01b03611989868961552a565b5116615b56565b815b84835260016020526003604084200154811015611a065784835260016020526119c181600360408620016156a5565b90546001600160a01b0360039290921b1c8116906119df868961552a565b5116146119ee57600101611992565b92826119fd839560019461552a565b525b019161196a565b50916001906119ff565b915092508380610ce5565b6001906001600160a01b03611a30828561552a565b5116611a3c828a61552a565b520161191e565b5081546001600160a01b03163314610247565b503461019157602036600319011261019157611a706153e0565b611a78615c81565b600380546001600160a01b0319166001600160a01b039290921691909117905580f35b50346101915760603660031901126101915760043590611ab9615225565b906044359160ff831690818403611e97576003546001600160a01b031633148015611f16575b611ae89061579c565b848352600160205260ff600560408520015416611ed757848352600160205260056040842001600160ff198254161790558483526001602052611b39600160ff6005604087200154161515146153f6565b825b85845260016020526003604085200154811015611bba5760019086855281602052611bb4604060028188200189885284602052611b7d846003848b20016156a5565b868060a01b0391549060031b1c1690600091868060a01b031682526020522060036000918281558260018201558260028201550155565b01611b3b565b5091909284825260016020526003604083200180549083815581611eb9575b505084825260026020526040822080549083815581611e9b575b5050611c1790611c0286615d6c565b50858352600160205260016040842001615648565b60405163af2f210960e01b815260ff9290921660048301819052602483018590528183604481837f00000000000000000000000000000000000000000000000000000000000000006001600160a01b03165af19283156110c9578293611dfa575b50815b8351811015611d96576040611c90828661552a565b510151611d0e575b807fe40ab56a2b71773fd8fa12379eac11a90b1a5a8b57fbdb4b84e4734d32a551e1608060ff611cca6001958961552a565b51511660ff6020611cdb868b61552a565b510151166040611ceb868b61552a565b510151151590604051928c8452602084015260408301526060820152a101611c7b565b85835260026020526040832060ff611d26838761552a565b5151169060ff6020611d38858961552a565b5101511660405192611d498461519c565b83526020830152805490600160401b821015611d825791611d75826001959486611d7b950181556156a5565b906158a4565b9050611c98565b634e487b7160e01b86526041600452602486fd5b506020857fce444ef4ca2b2a7392fcd119e5c16b6af56ef7caef781ca922de0de696762fb960607f50ad08f58a27f2851d7e3a1b3a6a46b290f2ce677e99642d30ff639721e77790948860405191825284868301526040820152a1610d5981615caa565b9092503d8083833e611e0c8183615204565b810190602081830312611e97578051906001600160401b038211610216570181601f82011215611e97578051611e41816152fd565b92611e4f6040519485615204565b81845260208085019260071b8401019281841161020e57602001915b838310611e7d57505050509138611c78565b6020608091611e8c84866158ec565b815201920191611e6b565b8280fd5b835260208320908101905b81811015611bf357838155600101611ea6565b835260208320908101905b81811015611bd957838155600101611ec4565b60405162461bcd60e51b815260206004820152601760248201527647616d65494420616c72656164792070726f677265737360481b6044820152606490fd5b5082546001600160a01b03163314611adf565b503461019157606036600319011261019157611f436153e0565b9060018060a01b036003541633148015612791575b611f619061579c565b60243581526001602052611f83600160ff6005604085200154161515146153f6565b6040516331a9108f60e11b815260443560048201527f00000000000000000000000000000000000000000000000000000000000000006001600160a01b03169290602081602481875afa90811561138357839161274f575b506001600160a01b0382811691160361272e57602435825260016020526002604083200160018060a01b03821660005260205260ff604060002054161515806126fa575b61268357916040516120308161519c565b600080825260208201527f00000000000000000000000000000000000000000000000000000000000000006001600160a01b0316908360015b156121f9575b505082839260405195637128e56d60e11b8752602435600488015260408760248189885af19687156117e05786976121bd575b508692865b60243588526001602052600360408920015460ff821610156121ae576024358852600160205260ff6040896120f184600384600281862001946024358152600160205220016156a5565b905460039190911b1c6001600160a01b0316600090815260209190915220548a5160ff169116148061214b575b6121305761212b9061553e565b6120a7565b509091929394508596506001905b9091965093929193612069565b506024358852600160205260ff60408961217a84600384600281862001946024358152600160205220016156a5565b60018060a01b0391549060031b1c169060009160018060a01b03168252602052205460081c1660ff60208b0151161461211e565b5086975094909192939461213e565b90965060403d81116121f2575b6121d48183615204565b81019060408183031261137857906121eb9161554f565b95386120a2565b503d6121ca565b15612204578061206f565b9293905060405191631986c9e960e31b83526044356004840152602083602481845afa92831561267857859361263c575b50604051636455ce8d60e11b815260443560048201529385602086602481865afa92831561262f5781936125f3575b604051631303d57d60e11b815260443560048201529650869060249082905afa9485156117e0578695612552575b5060405161229f816151cd565b81815260208101908782526040810188815260608201908982528960808401528960a084015260018060a01b03871660c084015260ff881660e084015260ff86166101008401526024356101208401526044356101408401526024358a52600160205260406002818c200160009060018060a01b038a1682526020522093612328845186615883565b51600781101561253e576123509161234560ff9260018801615820565b511660018501615648565b51600781101561252a579360ff80808b96866003610140849861239d7f526c62f8fa999ff5dc01591b8086e17ed53753d49a9eca57e821d0c3f550efa39f9e9b9d60016101009f01615838565b6123c586608083015116600186019063ff00000082549160181b169063ff0000001916179055565b60a08101516001858101805460c085015160e0860151610100870151640100000000600160d81b0319909316951515602090811b64ff00000000169690961760289290921b600160281b600160c81b031691909117908b1660c81b17908a1660d01b1790556101208301516002870155929091015192909301919091556024358a5290526040882061245b908890600301615962565b6024358852600160205261247587600460408b2001615962565b6124c18282511660076040602085019b868d51168251946124958661519c565b8552602085015260243581526001602052200160018060a01b038a1660005260205260406000206158c9565b51169551169660405197889660243588526044356020890152604088015260608701521660808501521660a083015260e060c0830152612510865180978160e08601526020868601910161593f565b6001600160a01b031694601f01601f19168101030190a280f35b634e487b7160e01b89526021600452602489fd5b634e487b7160e01b8b52602160045260248bfd5b9094503d8087833e6125648183615204565b810190602081830312611378578051906001600160401b0382116125db570181601f820112156113785780516001600160401b0381116125df57604051926125b6601f8301601f191660200185615204565b818452602082840101116125db576125d4916020808501910161593f565b9338612292565b8780fd5b634e487b7160e01b88526041600452602488fd5b92506020863d602011612627575b8161260e60209383615204565b8101031261019157612621602496615430565b92612264565b3d9150612601565b50604051903d90823e3d90fd5b9092506020813d602011612670575b8161265860209383615204565b810103126102125761266990615430565b9138612235565b3d915061264b565b6040513d87823e3d90fd5b60649250602435825260016020526002604083200160018060a01b03821660005260205260ff60406000205416602435835260016020526002604084200160018060a01b03831660005260205260ff60406000205460081c16916308538db760e41b845260018060a01b0316600452602452604452fd5b50602435825260016020526002604083200160018060a01b03821660005260205260ff60406000205460081c16151561201f565b634319813760e01b82526001600160a01b0316600452604480356024529150fd5b90506020813d602011612789575b8161276a60209383615204565b81010312611e9757516001600160a01b0381168103611e975738611fdb565b3d915061275d565b5080546001600160a01b03163314611f58565b50346101915736600319016060811261021a57604013610191576040516127ca8161519c565b60043560ff81168103611e9757815260243560ff81168103611e975760208201526044358260606040516127fd816151e9565b8281528260208201528260408201520152808352600160205261282e600160ff6005604087200154161515146153f6565b60405163b173a14760e01b81529161284a906004840190615188565b60448201526080816064817f00000000000000000000000000000000000000000000000000000000000000006001600160a01b03165afa9081156110c95782916128c3575b60808260606040519160ff815116835260ff6020820151166020840152604081015115156040840152015115156060820152f35b905060803d6080116128fa575b6128da8183615204565b81019160808284031261019157506080916128f4916158ec565b3861288f565b503d6128d0565b50346101915760403660031901126101915760043560243590818352600160205261293d600160ff600560408720015460101c161515146153f6565b81835260016020526006604084200160018060a01b0333166000526020528060406000205560405191825260208201527feb7d119bae44c06d4b05b80eb4a3bdfc755131945d1845f3c9d2aeaa7d8bf54260403392a280f35b5034610191576020366003190112610191576129b06153e0565b6129b8615c81565b600480546001600160a01b0319166001600160a01b039290921691909117905580f35b50346101915760406129ec36615243565b6129f894939194615490565b5085526001602052612a17600160ff60058689200154161515146153f6565b612a3483519485938493630d42527560e11b855260048501615859565b03817f00000000000000000000000000000000000000000000000000000000000000006001600160a01b03165afa9081156110c9578291612a80575b60408051612a7e8185615188565bf35b905060403d604011612ab7575b612a978183615204565b8101916040828403126101915750604091612ab19161554f565b38612a70565b503d612a8d565b5034610191578060031936011261019157546040516001600160a01b039091168152602090f35b50346101915760e0366003190112610191576004356001600160401b03811161021a57612b16903690600401615314565b6024356001600160401b038111611e9757612b3590369060040161537b565b6044356001600160401b03811161021657612b54903690600401615314565b906064356001600160401b03811161021257612b7490369060040161537b565b916084356001600160401b03811161020e57612b9490369060040161537b565b9360a435926001600160401b0384116113785736602385011215611378578360040135612bc0816152fd565b94612bce6040519687615204565b8186526024602087019260051b8201019036821161137457602401915b8183106148685750505060018060a01b036004541633148015614855575b612c129061579c565b60c43587526001602052612c34600160ff600560408b200154161515146153f6565b612c4184518351146157d9565b612c4e82518251146157d9565b612c5b83518651146157d9565b612c6886518551146157d9565b865b84518110156130cd57612cdd8285898960ff612cc08782612cb882612cb2612c9f8f85612caa85612ca4612c9f82809661552a565b615813565b9f61552a565b51169b61552a565b9661552a565b51169461552a565b5116926001600160a01b03612cd5888d61552a565b511694615ad9565b604051612ce98161519c565b8981528960208201529060c4358a526001602052600660408b200160018060a01b03612d15858a61552a565b51166001600160a01b03168b5260205260408a205414612d94575b90612d8e8260ff60208160019651169201511660405191612d508361519c565b8252602082015260c4358b5283602052600760408c2001848060a01b03612d77858b61552a565b5116858060a01b03168c5260205260408b206158c9565b01612c6a565b5060c43588526001602052604088206002016001600160a01b03612db8838861552a565b51166001600160a01b0316895260205260408820612e8390612ddd612c9f848761552a565b612deb600183019182615820565b60ff612df7858761552a565b511660ff825460c81c168091116000146130b657612e16905b82615648565b612e2c612e26612c9f868a61552a565b82615838565b60ff612e38858b61552a565b511660ff825460d01c1680911160001461309f57612e6b905b825463ff000000191660189190911b63ff00000016178255565b805464ff00000000191664010000000017905561576e565b7f00000000000000000000000000000000000000000000000000000000000000006001600160a01b0316919089906040612ec0612c9f858961552a565b60ff612ecc868961552a565b518351630d42527560e11b81529485938493612eed93169160048501615859565b0381875afa9081156110c95787948a918493613058575b50829160409160ff612f2788612f21612c9f82612f479a9d61552a565b9461552a565b518451630d42527560e11b81529687948593849316908860048501615859565b03915afa918215611383578392612fed575b50917ffd735dcfd99f4b7d7f6bcea365f20bd4b998183607e89895805ae488fbeaa86660c060019693612d8e9560408d612f998a8c8060a01b039261552a565b51169560c43581528a60205220549160ff6020818451169301511660ff60208184511693015116926040519460c4358652602086015260408501526060840152608083015260a0820152a291925050612d30565b9491509160403d8111613051575b6130058187615204565b85019460408187031261021a5760c0612d8e946130456001987ffd735dcfd99f4b7d7f6bcea365f20bd4b998183607e89895805ae488fbeaa8669461554f565b94975092945050612f59565b503d612ffb565b955091505060403d8111613098575b6130718186615204565b840190604085830312611e975760408a61308f612f47948b9861554f565b93509190612f04565b503d613067565b50612e6b60ff6130af868c61552a565b5116612e51565b50612e1660ff6130c6868861552a565b5116612e10565b8760018060a01b036004541633148015614842575b6130eb9061579c565b60c4358152600160205261310860ff6005604084200154166153f6565b60c4358152600160205261312260036040832001546154a9565b60c4358252600160205261313c600360408420015461565e565b91805b60c43582526001602052600360408320015481101561316d5780600161316681938761552a565b520161313f565b5091825b60c4358452600160205260036040852001548110156133c35760c435845260016020526131a481600360408720016156a5565b60018060a01b0391549060031b1c169060c435855260016020526002604086200160018060a01b0383168652602052604085209160018301549260018060a01b038460281c16156133b85760ff8460201c16613208575b5050600191505b01613171565b60ff6040519463183b1baf60e01b8652613234600487018460ff60209154818116845260081c16910152565b613243604487018383166152da565b60081c16606485015260c435608485015260608460a4817f00000000000000000000000000000000000000000000000000000000000000006001600160a01b03165afa9081156133ad576001948890899361338a575b50613325579081837f9db385e25deecca76e1e8dab29ae54e5c2f1707d2c611cfab0984b782e9f8a2c6132f2945460ff85511661044860ff6020880151169260405193849360c4359260ff808260081c1691168661599f565b7f4a5516f0f1d85471405ad39e7a960ba9a7b312f2bdc784a6dce8402611417fd6602060405160c4358152a285806131fb565b61337a83613385947f2265cf35e234e961bc739ea7efb0e9751a34a8c56c1b547ff729d632c2ad21a060ff86511660ff6020880151169061336e60405192839260c43584615985565b0390a260c43590615b56565b876104dc858861552a565b613202565b90506133a591925060603d8111610513576105038183615204565b919089613299565b6040513d89823e3d90fd5b505060019150613202565b5090825b60c435845260016020526003604085200154811015613581576133ea818461552a565b516133f8575b6001016133c7565b60c4358452600160205261341281600360408720016156a5565b60018060a01b0391549060031b1c169060c435855260016020526002604086200160018060a01b0383168652602052604085209160018301549260ff6040519463d6192ad360e01b8652613478600487018460ff60209154818116845260081c16910152565b61348a60448701838360101c166152da565b60181c1660648501526040846084817f00000000000000000000000000000000000000000000000000000000000000006001600160a01b03165afa9384156133ad578794613534575b5083600080516020615f06833981519152916001956134f2868961552a565b526134fd858861552a565b50549061352a60ff602081845116930151169260405193849360c4359260ff808260081c1691168661599f565b0390a290506133f0565b935060403d811161357a575b61354a8186615204565b8401906040858303126125db57613572600080516020615f068339815191529260019661554f565b9450906134d3565b503d613540565b509082915b60c4358452600160205260036040852001548310156137c5576135a9838361552a565b51156137bc57600183018084116137a8575b60c43585526001602052600360408620015481101561379b57806135e16001928561552a565b511561377e5760c4358652816020526002604087200160c43587528260205261361086600360408a20016156a5565b848060a01b0391549060031b1c16838060a01b031687526020526040862060c4358752826020526002604088200160c43588528360205261365783600360408b20016156a5565b905460039190911b1c60a085901b859003168852602052604087209054905460ff80831690821614919082613783575b5050613694575b016135bb565b8561369f868661552a565b52856136ab828661552a565b5260c4358652816020526136c585600360408920016156a5565b838060a01b0391549060031b1c16600080516020615f26833981519152602060405160c4358152a260c43586528160205261370681600360408920016156a5565b838060a01b0391549060031b1c16600080516020615f26833981519152602060405160c4358152a260c43586528160205261376261374a86600360408a20016156a5565b9060c43591858060a01b0391549060031b1c16615b56565b60c43586528160205261377e61374a82600360408a20016156a5565b61368e565b60ff919250819060081c169160081c16148780613687565b50916001905b0191613586565b634e487b7160e01b85526011600452602485fd5b916001906137a1565b908360c435815260016020526137e1600360408320015461565e565b60c435825260016020526137fb600360408420015461565e565b93825b60c43584526001602052600360408520015481101561383a5780846138256001938661552a565b52600019613833828961552a565b52016137fe565b509382905b60c43584526001602052600360408520015482101561396d57613862828661552a565b511561396457835b60c4358552600160205260036040862001548110156139575795600187819885148015613945575b6139405760c4358752816020526002604088200160c4358852826020526138bf86600360408b20016156a5565b905460039190911b1c60a084901b849003168852602052604087206138e4828561552a565b519060ff82511690549060ff8216149182613927575b505061390a575b0190965061386a565b81613915868861552a565b5280613921868661552a565b52613901565b60ff919250602082910151169160081c16148a806138fa565b613901565b50613950818961552a565b5115613892565b50906001905b019061383f565b9060019061395d565b92905060c4358152600160205261398a600360408320015461565e565b928194825b60c435845260016020526003604085200154811015613b92576139b2818361552a565b5115613b8a576139c2818661552a565b516139d2575b6001905b0161398f565b6139dc818461552a565b5160c435855260016020526139f781600360408820016156a5565b905460039190911b1c6001600160a01b0316613a13828861552a565b51151580613b77575b15613af25760c43586526001602052613a56613a3e84600360408a20016156a5565b905460039190911b1c6001600160a01b031689615d17565b15613ab1575b613a668189615d17565b15613a90575b509084613a8760019382613a80858861552a565b528561552a565b525b90506139c8565b613a87613aa78a8893610bf2600197969d8d61552a565b9992935050613a6c565b97613aec9060c43587526001602052613ad084600360408a20016156a5565b905460039190911b1c6001600160a01b0316610bf2828b61552a565b97613a5c565b600192915060c435865282602052613b1082600360408920016156a5565b848060a01b0391549060031b1c167fbeaba0cb8f0bf4956e3f8756079b1aa20a9c7286167b8957d85188108991642d602060405160c4358152a384613b55828561552a565b5260c435855281602052613b7261374a82600360408920016156a5565b613a89565b5082613b83838761552a565b5114613a1c565b6001906139cc565b509250509280614701575b50905060c435825260016020526003604083200154805b61468b578260c43581526001602052600360408220015415600014613c2a5780600080516020615f66833981519152602060405160c4358152a260c4358152600160205260408120600501805461ff0019166101001790555b600080516020615f46833981519152602060405160c4358152a180f35b60c4358152600160205260016003604083200154146000146141b55760c43581526001602052613c5f60036040832001615690565b60018060a01b0391549060031b1c1680600080516020615f66833981519152602060405160c4358152a260c435825260016020526005604083200161010061ff001982541617905560c435825260016020526002604083200160018060a01b0382168352602052600360408320015460405190637988cb4160e11b825260048201526103c08160248160018060a01b037f0000000000000000000000000000000000000000000000000000000000000000165afa9081156113835783916140f3575b50604081015160a06080830151920151613d3c60c4356156bd565b939060c4358752600160205260046040882001805491889089908a5b8581106140835750613d698361565e565b93613d76610ea78461565e565b936001810180911161122f57908b613d938e98979695949361565e565b96889289928a905b838210613faa575050505091613db891610ef2613dbe948961552a565b99615ea0565b9260c435865260016020526007604087200160018060a01b038c16875260205260408620938454613dee8161565e565b95613df88261565e565b985b828110613f6a5750507f00000000000000000000000000000000000000000000000000000000000000006001600160a01b03169b90508b3b156110ea579b9896949290918d9a989694926040519d8e9b6334bb253960e01b8d5260048d015260c43560248d015260c43560448d015260648c0161028090526102848c01613e8091615a67565b8b81036003190160848d0152613e9591615a67565b8a81036003190160a48c0152613eaa916159da565b8981036003190160c48b0152613ebf916152a3565b8881036003190160e48a0152613ed4916152a3565b600319888203016101048901528251908181526020019260200190895b818110613f4e575050508694611081899a97939561107661106a89976110578e9a613f28986003198c8303016101248d01526152a3565b03925af1801561262f57613f3e575b5050613c0d565b613f4791615204565b8181613f37565b825185528d9a508c995060209485019490920191600101613ef1565b8060ff613f79600193856156a5565b505416613f86828b61552a565b5260ff613f9382856156a5565b505460081c16613fa3828d61552a565b5201613dfa565b858b8b613fc2869798999a9b9c9d9e9f9580976156a5565b905460039190911b1c6001600160a01b0316938403613ff5575b5050505050600101908f9998979695949392918f613d9b565b9761400791846111958380999c61552a565b5260c43582526001602052600760408320019060018060a01b03168252602052604081208054905b8a8a8385106140555750505050506140486001916159cb565b9390508f38868c8c613fdc565b9861407a91610bf28260ff61121a899e9988999a611213858561120a8560019e6156a5565b9701919061402f565b61408d81866156a5565b905460039190911b1c6001600160a01b03168c8c82036140b2575b5050600101613d58565b936040600193956140c66140eb94986159cb565b9760c43582528560205260078383200190868060a01b03168252602052205490615609565b92908c6140a8565b90506103c03d81116141ae575b61410a8183615204565b81016103c0828203126102165780601f83011215610216576040519161413261014084615204565b826103c082019183831161137857905b828210614153575050505083613d21565b83601f8301121561137857604051606061416d8183615204565b819084018681116113745784915b81831061419657505050816020916060935201910190614142565b602080916141a385615430565b81520192019161417b565b503d614100565b60405163436fadf360e11b815260c43560048201527f00000000000000000000000000000000000000000000000000000000000000006001600160a01b031690602081602481855afa90811561138357839161464c575b5060ff600191161180614602575b614328575b5060c4358152600160205261423960036040832001615690565b60018060a01b0391549060031b1c16817f6c5d9aa3894362f6fc8570afc4ad57ed5b0498a5e481b34ffccd61ee96cad12c602060405160c4358152a3805b60c4358252600160205260036040832001548110156142f05760019060c4358352816020526002604084200160c4358452826020526142bc82600360408720016156a5565b905460039190911b1c60a084901b849003168452602052604083208201805464ffffffffff19166206000617905501614277565b5060c435808252600160205260408220600501805463ff0000001916905561431790615d6c565b5061432360c435615caa565b613c0d565b60405163174ad17960e11b815260c43560048201529190818360248183855af19283156110c95782936145e6575b5060c435825260016020526001604083200160ff6143768183541661553e565b1660ff198254161790557ff47e725249069330b61eda3df25e7c3bcfd700624cbc7cbeabb0e28375bee531602060405160c4358152a1815b835160ff82169081101561441a57907fe33d4c5f3e9def7d3f127618203849e9a1888f8e0a9fbffbcdc7d6dbd42b64448260ff60206143fe826143f4614415988c61552a565b515116938a61552a565b51015116906115ef60405192839260c43584615985565b6143ae565b505090915060c435825260016020526003604083200154805b61443d575061421f565b61444690615a17565b60c4358352600160205261446081600360408620016156a5565b60018060a01b0391549060031b1c1660c435845260016020526002604085200160018060a01b038216855260205261449a6040852061576e565b60405163b173a14760e01b815291906144b7906004840190615188565b60c4356044830152608082606481875afa801561267857839286916145a9575b5060600151156144e8575b50614433565b6145239150807faf0f1f1c6dd1455929199c881d29a04680c9c20aff5f0331d8619ed875c58d1c602060405160c4358152a260c43590615b56565b60c435835260016020526003604084200160c4358452600160205260036040852001549060001982019182116137a85761458991614560916156a5565b60018060a01b0391549060031b1c1660c4358552600160205261175c83600360408820016156a5565b60c43583526001602052806145a360036040862001615a24565b846144e2565b92505060803d81116145df575b6145c08184615204565b820160808382031261020e576145d960609185946158ec565b906144d7565b503d6145b6565b6145fb9193503d8084833e6118008183615204565b9183614356565b5060c43582526001602052604082205460c4358352600160205260ff600160408520015460081c1690811561463857061561421a565b634e487b7160e01b84526012600452602484fd5b90506020813d602011614683575b8161466760209383615204565b81010312611e975760ff61467c600192615430565b915061420c565b3d915061465a565b61469490615a17565b8061469f818461552a565b51613bb4575060c435835260016020526003604084200160c4358452600160205260036040852001549060001982019182116137a8576146e291614560916156a5565b60c43583526001602052806146fc60036040862001615a24565b613bb4565b61470d8194929461565e565b92825b828110614814575050507f43c454d7d9739179cb8955fb1a87309459f577ba357c24735124f16f3bbea5a8604051604081528061475060408201866159da565b60c43560208301520390a1805b82518210156148095761477e60c4356001600160a01b03611989858761552a565b80935b60c4358252600160205260036040832001548510156147fe5760c435825260016020526147b485600360408520016156a5565b90546001600160a01b0360039290921b1c8116906147d2858761552a565b5116146147e55760018095019450614781565b91816147f4600193968561552a565b525b01909261475d565b9160019194506147f6565b929150508083613b9d565b9294926001906001600160a01b0361482c828561552a565b5116614838828861552a565b5201949294614710565b5080546001600160a01b031633146130e2565b5086546001600160a01b03163314612c09565b82356001600160a01b038116810361488857815260209283019201612beb565b8a80fd5b50346101915760203660031901126101915760043580825260016020526148c1600160ff6005604086200154161515146153f6565b808252600160205260036040832001546148da816152fd565b906148e86040519283615204565b8082526148f7601f19916152fd565b01835b818110614afa575050825b82845260016020526003604085200154811015614a1a5760019083855281602052600260408620018486528260205261494482600360408920016156a5565b848060a01b0391549060031b1c16838060a01b0316865260205260408520600360405191614971836151cd565b61497a8161576e565b835260ff8582015461499182821660208701615790565b818160081c1660408601526149ae828260101c1660608701615790565b818160181c166080860152818160201c16151560a0860152868060a01b038160281c1660c0860152818160c81c1660e086015260d01c1661010084015260028101546101208401520154610140820152614a08828561552a565b52614a13818461552a565b5001614905565b8184604051918291602083016020845282518091526020604085019301915b818110614a47575050500390f35b9193509160206101806001926101408751614a63838251615188565b614a748582015160408501906152da565b60ff6040820151166060840152614a93606082015160808501906152da565b60ff60808201511660a084015260a0810151151560c0840152858060a01b0360c08201511660e084015260ff60e08201511661010084015260ff61010082015116610120840152610120810151828401520151610160820152019401910191849392614a39565b602090604051614b09816151cd565b604051614b158161519c565b8781528784820152815286838201528660408201528660608201528660808201528660a08201528660c08201528660e0820152866101008201528661012082015286610140820152828286010152016148fa565b5034610191578060031936011261019157614b82615c81565b80546001600160a01b03198116825581906001600160a01b03167f8be0079c531659141344cd1fd0a4f28419497f9722a3daafe3b4186f6b6457e08280a380f35b503461019157602036600319011261019157600435908181526001602052614bf9600160ff6005604085200154161515146153f6565b60405163436fadf360e11b815260048101929092526020826024817f00000000000000000000000000000000000000000000000000000000000000006001600160a01b03165afa908115614c99578091614c5c575b60208260ff60405191168152f35b90506020823d602011614c91575b81614c7760209383615204565b810103126101915750614c8b602091615430565b38614c4e565b3d9150614c6a565b604051903d90823e3d90fd5b503461019157602036600319011261019157614cdf614ced614cc86004356156bd565b6040929192519384936040855260408501906152a3565b9083820360208501526152a3565b0390f35b50346101915780600319360112610191576003546040516001600160a01b039091168152602090f35b503461019157614d7860ff614d2e36615243565b93929490918487526001602052614d52600185600560408b200154161515146153f6565b60405163183b1baf60e01b815295614d6e906004880190615188565b60448601906152da565b1660648301526084820181905260608260a4817f00000000000000000000000000000000000000000000000000000000000000006001600160a01b03165afa9182156113835783908493614e2f575b5015614ddb57614dd8915033615b56565b80f35b81518184526001602081815260408087203380895260029182018452828920805460ff191660ff97881617905596830151958852928252808720958752949091019052918320614dd8929190911690615648565b9050614e4b91925060603d606011610513576105038183615204565b919038614dc7565b503461019157602036600319011261019157604060e091600435815260016020522060ff815491816005600183015492015491604051948552818116602086015260081c16604084015281811615156060840152818160081c1615156080840152818160101c16151560a084015260181c16151560c0820152f35b5034610191576020366003190112610191576004358082526001602052614f03600160ff6005604086200154161515146153f6565b60405163436fadf360e11b815260048101919091527f00000000000000000000000000000000000000000000000000000000000000006001600160a01b031691602082602481865afa91821561262f578192615127575b5060ff614f668361543e565b921691600183019060ff82116151135760ff614f8f614f8a879694614f9594615468565b61547f565b166154a9565b90604051614fa28161519c565b818152816020820152614fb483615507565b52614fbe82615507565b506001905b60ff8216938185116150c257600019850160ff81116150ae57614ff3614f8a85614fee60ff9461543e565b615468565b1695614ffe85615507565b516040516301cf2e2560e51b8152969061501c906004890190615188565b60448701528186606481845afa9586156110c9578296615092575b50815b865160ff82169081101561507b57906150708261506561505d615076958c61552a565b51918c615609565b90610bcd828b61552a565b5061553e565b61503a565b505095509161508b91945061553e565b9092614fc3565b6150a79196503d8084833e6118008183615204565b9487615037565b634e487b7160e01b82526011600452602482fd5b8390604051918291602083016020845282518091526020604085019301915b8181106150ef575050500390f35b9193509160206040826151056001948851615188565b0194019101918493926150e1565b634e487b7160e01b83526011600452602483fd5b9091506020813d60201161515b575b8161514360209383615204565b8101031261021a5761515490615430565b9038614f5a565b3d9150615136565b90503461021a578160031936011261021a576004546001600160a01b03168152602090f35b60ff60208092828151168552015116910152565b604081019081106001600160401b038211176151b757604052565b634e487b7160e01b600052604160045260246000fd5b61016081019081106001600160401b038211176151b757604052565b608081019081106001600160401b038211176151b757604052565b90601f801991011681019081106001600160401b038211176151b757604052565b6024359060ff8216820361001757565b359060ff8216820361001757565b60a06003198201126100175760046040910312610017576040516152668161519c565b6152706004615235565b815261527c6024615235565b6020820152906044356007811015610017579060643560ff81168103610017579060843590565b906020808351928381520192019060005b8181106152c15750505090565b825160ff168452602093840193909201916001016152b4565b9060078210156152e75752565b634e487b7160e01b600052602160045260246000fd5b6001600160401b0381116151b75760051b60200190565b9080601f830112156100175781359061532c826152fd565b9261533a6040519485615204565b82845260208085019360051b82010191821161001757602001915b8183106153625750505090565b8235600781101561001757815260209283019201615355565b9080601f83011215610017578135615392816152fd565b926153a06040519485615204565b81845260208085019260051b82010192831161001757602001905b8282106153c85750505090565b602080916153d584615235565b8152019101906153bb565b600435906001600160a01b038216820361001757565b156153fd57565b60405162461bcd60e51b815260206004820152600b60248201526a1b9bdd081cdd185c9d195960aa1b6044820152606490fd5b519060ff8216820361001757565b60ff166003029060ff821691820361545257565b634e487b7160e01b600052601160045260246000fd5b9060ff8091169116029060ff821691820361545257565b60ff166001019060ff821161545257565b6040519061549d8261519c565b60006020838281520152565b906154b3826152fd565b6154c06040519182615204565b82815280926154d1601f19916152fd565b019060005b8281106154e257505050565b6020906040516154f18161519c565b60008152600083820152828285010152016154d6565b8051156155145760200190565b634e487b7160e01b600052603260045260246000fd5b80518210156155145760209160051b010190565b60ff1660ff81146154525760010190565b9190826040910312610017576040516155678161519c565b602061558081839561557881615430565b855201615430565b910152565b602081830312610017578051906001600160401b038211610017570181601f820112156100175780516155b7816152fd565b926155c56040519485615204565b81845260208085019260061b8401019281841161001757602001915b8383106155ef575050505090565b60206040916155fe848661554f565b8152019201916155e1565b9190820180921161545257565b5190811515820361001757565b91906060838203126100175761564590602061563e85615616565b940161554f565b90565b9061ff0082549160081b169061ff001916179055565b90615668826152fd565b6156756040519182615204565b8281528092615686601f19916152fd565b0190602036910137565b80541561551457600052602060002090600090565b80548210156155145760005260206000200190600090565b908160005260016020526156e0600160ff600560406000200154161515146153f6565b8160005260026020526040600020546156f88161565e565b906157028161565e565b9360005b828110615714575050509190565b60019082600052600260205260ff6157308260406000206156a5565b50541661573d828761552a565b5282600052600260205260ff6157578260406000206156a5565b505460081c16615767828961552a565b5201615706565b9060405161577b8161519c565b602060ff829454818116845260081c16910152565b60078210156152e75752565b156157a357565b60405162461bcd60e51b815260206004820152600e60248201526d24b73b30b634b21031b0b63632b960911b6044820152606490fd5b156157e057565b60405162461bcd60e51b815260206004820152600b60248201526a0e6c2daca40d8cadccee8d60ab1b6044820152606490fd5b5160078110156152e75790565b9060078110156152e75760ff80198354169116179055565b9060078110156152e75762ff000082549160101b169062ff00001916179055565b91606091949361587d60ff92615873866080810199615188565b60408601906152da565b16910152565b60ff60206158a293828082511616831985541617845501511690615648565b565b91906158b3576158a291615883565b634e487b7160e01b600052600060045260246000fd5b80549190600160401b8310156151b75782611d759160016158a2950181556156a5565b919082608091031261001757604051615904816151e9565b606061558081839561591581615430565b855261592360208201615430565b602086015261593460408201615616565b604086015201615616565b60005b8381106159525750506000910152565b8181015183820152602001615942565b80549190600160401b8310156151b7578261175c9160016158a2950181556156a5565b90815260ff91821660208201529116604082015260600190565b919360ff6080948180949998978160a088019b1687521660208601521660408401521660608201520152565b60001981146154525760010190565b906020808351928381520192019060005b8181106159f85750505090565b82516001600160a01b03168452602093840193909201916001016159eb565b8015615452576000190190565b80548015615a51576000190190615a3b82826156a5565b81549060018060a01b039060031b1b1916905555565b634e487b7160e01b600052603160045260246000fd5b906020808351928381520192019060005b818110615a855750505090565b8251600190810b85526020948501949093019201615a78565b906000905b60038210615ab057505050565b60208060019260ff865116815201930191019091615aa3565b60078110156152e75760f81b9052565b9492909391615b109060405195615af4602088018099615ac9565b60f81b6001600160f81b03191660218701526022860190615ac9565b60f890811b6001600160f81b0319908116602386015291901b16602483015260601b6001600160601b031916602582015260198152615b50603982615204565b51902090565b9060008181526001602052615b79600160ff6005604085200154161515146153f6565b6040518281526001600160a01b038416907f0ceeb6c20e03a8c47e6673117b7b54c5b880118423ef2a84e0b795bd849fc40690602090a260018060a01b037f00000000000000000000000000000000000000000000000000000000000000001682825260016020526002604083200160018060a01b03851683526020526003604083200154813b15611e9757829160248392604051948593849263835f396760e01b845260048401525af180156110c9579160029391604093615c71575b50908152600160205220019060018060a01b03166000526020526158a2604060002060036000918281558260018201558260028201550155565b81615c7b91615204565b38615c37565b6000546001600160a01b03163303615c9557565b63118cdaa760e01b6000523360045260246000fd5b60207f8924ef8e2fcf31b0d38716fc8120f7aec496d13f5abdb8320e31a69dbc449100918060005260018252615cef600160ff600560406000200154161515146153f6565b806000526001825260056040600020016201000062ff000019825416179055604051908152a1565b9060005b825160ff821690811015615d63576001600160a01b0390615d3c908561552a565b51166001600160a01b03831614615d5b57615d569061553e565b615d1b565b505050600190565b50505050600090565b60405163436fadf360e11b8152600481018290526020816024817f00000000000000000000000000000000000000000000000000000000000000006001600160a01b03165afa908115615e9457600091615e36575b5060607f3874cce3730901301cd0c02b4c2dd416d59546f183096d9f2a434c4d3a9ba4a5918360005260016020526040600020615dfe81546159cb565b905583600052600160205260ff60406000205491604051928684526020840152166040820152a1600052600160205260406000205490565b90506020813d602011615e8c575b81615e5160209383615204565b81010312610017576060615e857f3874cce3730901301cd0c02b4c2dd416d59546f183096d9f2a434c4d3a9ba4a592615430565b9150615dc1565b3d9150615e44565b6040513d6000823e3d90fd5b908151615eac816152fd565b90615eba6040519283615204565b808252615ec9601f19916152fd565b0136602083013760005b8351811015615f00578060ff615eeb6001938761552a565b5116820b615ef9828561552a565b5201615ed3565b50915056fe1a5ee6632f2ff8b0f1e4bf31b540f744e4337da13603a9eac0072df00578c5a6d3530cd7a307ade37676af8529ec0105ea6204af5e1534bd5de42308107123710ffee877d4bec4783459533ceddde8785dcd14454a9ebe37f1b3b8792509c36b56807b65299b9d361218ee1228c0caeed59b1cbcb079421f124145f99d0a0b06a2646970667358221220aa6cce3e8a6dc228e56f4a58f64f92b8a3ceff8682486d146879c925512bcbb764736f6c634300081b0033",
  "linkReferences": {},
  "deployedLinkReferences": {}
}