{
  "_format": "hh-sol-artifact-1",
  "contractName": "GamePunk",
  "sourceName": "contracts/GamePunk.sol",
  "abi": [
    {
      "inputs": [
        {
          "internalType": "address",
          "name": "_mapAddress",
          "type": "address"
        },
        {
          "internalType": "address",
          "name": "_punkshipsAddress",
          "type": "address"
        }
      ],
      "stateMutability": "nonpayable",
      "type": "constructor"
    },
    {
      "inputs": [
        {
          "internalType": "address",
          "name": "player",
          "type": "address"
        },
        {
          "internalType": "uint256",
          "name": "tokenId",
          "type": "uint256"
        }
      ],
      "name": "NotOwnerOfShip",
      "type": "error"
    },
    {
      "inputs": [
        {
          "internalType": "address",
          "name": "owner",
          "type": "address"
        }
      ],
      "name": "OwnableInvalidOwner",
      "type": "error"
    },
    {
      "inputs": [
        {
          "internalType": "address",
          "name": "account",
          "type": "address"
        }
      ],
      "name": "OwnableUnauthorizedAccount",
      "type": "error"
    },
    {
      "inputs": [
        {
          "internalType": "address",
          "name": "player",
          "type": "address"
        },
        {
          "internalType": "uint8",
          "name": "q",
          "type": "uint8"
        },
        {
          "internalType": "uint8",
          "name": "r",
          "type": "uint8"
        }
      ],
      "name": "ShipAlreadyAdded",
      "type": "error"
    },
    {
      "anonymous": false,
      "inputs": [
        {
          "indexed": false,
          "internalType": "uint256",
          "name": "gameId",
          "type": "uint256"
        },
        {
          "indexed": false,
          "internalType": "uint8",
          "name": "q",
          "type": "uint8"
        },
        {
          "indexed": false,
          "internalType": "uint8",
          "name": "r",
          "type": "uint8"
        },
        {
          "indexed": false,
          "internalType": "bool",
          "name": "island",
          "type": "bool"
        }
      ],
      "name": "Cell",
      "type": "event"
    },
    {
      "anonymous": false,
      "inputs": [
        {
          "indexed": false,
          "internalType": "uint256",
          "name": "gameId",
          "type": "uint256"
        },
        {
          "indexed": false,
          "internalType": "uint8",
          "name": "q",
          "type": "uint8"
        },
        {
          "indexed": false,
          "internalType": "uint8",
          "name": "r",
          "type": "uint8"
        }
      ],
      "name": "CellDeleted",
      "type": "event"
    },
    {
      "anonymous": false,
      "inputs": [
        {
          "indexed": false,
          "internalType": "uint256",
          "name": "gameId",
          "type": "uint256"
        }
      ],
      "name": "CommitPhaseStarted",
      "type": "event"
    },
    {
      "anonymous": false,
      "inputs": [
        {
          "indexed": false,
          "internalType": "uint256",
          "name": "gameId",
          "type": "uint256"
        }
      ],
      "name": "GameEnded",
      "type": "event"
    },
    {
      "anonymous": false,
      "inputs": [
        {
          "indexed": false,
          "internalType": "uint256",
          "name": "gameId",
          "type": "uint256"
        }
      ],
      "name": "GameStarted",
      "type": "event"
    },
    {
      "anonymous": false,
      "inputs": [
        {
          "indexed": true,
          "internalType": "bool",
          "name": "gameStatus",
          "type": "bool"
        },
        {
          "indexed": true,
          "internalType": "address",
          "name": "winnerAddress",
          "type": "address"
        },
        {
          "indexed": false,
          "internalType": "uint256",
          "name": "gameId",
          "type": "uint256"
        }
      ],
      "name": "GameUpdated",
      "type": "event"
    },
    {
      "anonymous": false,
      "inputs": [
        {
          "indexed": true,
          "internalType": "address",
          "name": "winner",
          "type": "address"
        },
        {
          "indexed": false,
          "internalType": "uint256",
          "name": "gameId",
          "type": "uint256"
        }
      ],
      "name": "GameWinner",
      "type": "event"
    },
    {
      "anonymous": false,
      "inputs": [
        {
          "indexed": false,
          "internalType": "uint8",
          "name": "radius",
          "type": "uint8"
        },
        {
          "indexed": false,
          "internalType": "uint256",
          "name": "gameId",
          "type": "uint256"
        }
      ],
      "name": "MapInitialized",
      "type": "event"
    },
    {
      "anonymous": false,
      "inputs": [
        {
          "indexed": false,
          "internalType": "uint256",
          "name": "gameId",
          "type": "uint256"
        }
      ],
      "name": "MapShrink",
      "type": "event"
    },
    {
      "anonymous": false,
      "inputs": [
        {
          "indexed": true,
          "internalType": "address",
          "name": "player",
          "type": "address"
        },
        {
          "indexed": false,
          "internalType": "uint256",
          "name": "gameId",
          "type": "uint256"
        },
        {
          "indexed": false,
          "internalType": "bytes32",
          "name": "moveHash",
          "type": "bytes32"
        }
      ],
      "name": "MoveCommitted",
      "type": "event"
    },
    {
      "anonymous": false,
      "inputs": [
        {
          "indexed": true,
          "internalType": "address",
          "name": "player",
          "type": "address"
        },
        {
          "indexed": false,
          "internalType": "uint256",
          "name": "gameId",
          "type": "uint256"
        },
        {
          "indexed": false,
          "internalType": "uint256",
          "name": "roundId",
          "type": "uint256"
        },
        {
          "indexed": false,
          "internalType": "uint8",
          "name": "destQ",
          "type": "uint8"
        },
        {
          "indexed": false,
          "internalType": "uint8",
          "name": "destR",
          "type": "uint8"
        },
        {
          "indexed": false,
          "internalType": "uint8",
          "name": "shotQ",
          "type": "uint8"
        },
        {
          "indexed": false,
          "internalType": "uint8",
          "name": "shotR",
          "type": "uint8"
        }
      ],
      "name": "MoveSubmitted",
      "type": "event"
    },
    {
      "anonymous": false,
      "inputs": [
        {
          "indexed": false,
          "internalType": "uint256",
          "name": "gameId",
          "type": "uint256"
        },
        {
          "indexed": false,
          "internalType": "uint256",
          "name": "roundId",
          "type": "uint256"
        },
        {
          "indexed": false,
          "internalType": "uint8",
          "name": "radius",
          "type": "uint8"
        }
      ],
      "name": "NewRound",
      "type": "event"
    },
    {
      "anonymous": false,
      "inputs": [
        {
          "indexed": true,
          "internalType": "address",
          "name": "previousOwner",
          "type": "address"
        },
        {
          "indexed": true,
          "internalType": "address",
          "name": "newOwner",
          "type": "address"
        }
      ],
      "name": "OwnershipTransferred",
      "type": "event"
    },
    {
      "anonymous": false,
      "inputs": [
        {
          "indexed": true,
          "internalType": "address",
          "name": "player",
          "type": "address"
        },
        {
          "indexed": false,
          "internalType": "uint256",
          "name": "gameId",
          "type": "uint256"
        },
        {
          "indexed": false,
          "internalType": "uint256",
          "name": "punkshipId",
          "type": "uint256"
        },
        {
          "indexed": false,
          "internalType": "uint8",
          "name": "q",
          "type": "uint8"
        },
        {
          "indexed": false,
          "internalType": "uint8",
          "name": "r",
          "type": "uint8"
        },
        {
          "indexed": false,
          "internalType": "uint8",
          "name": "speed",
          "type": "uint8"
        },
        {
          "indexed": false,
          "internalType": "uint8",
          "name": "range",
          "type": "uint8"
        },
        {
          "indexed": false,
          "internalType": "string",
          "name": "image",
          "type": "string"
        }
      ],
      "name": "PlayerAdded",
      "type": "event"
    },
    {
      "anonymous": false,
      "inputs": [
        {
          "indexed": true,
          "internalType": "address",
          "name": "player",
          "type": "address"
        },
        {
          "indexed": false,
          "internalType": "uint256",
          "name": "gameId",
          "type": "uint256"
        }
      ],
      "name": "PlayerDefeated",
      "type": "event"
    },
    {
      "anonymous": false,
      "inputs": [
        {
          "indexed": true,
          "internalType": "address",
          "name": "captain",
          "type": "address"
        },
        {
          "indexed": false,
          "internalType": "uint256",
          "name": "gameId",
          "type": "uint256"
        },
        {
          "indexed": false,
          "internalType": "uint8",
          "name": "q",
          "type": "uint8"
        },
        {
          "indexed": false,
          "internalType": "uint8",
          "name": "r",
          "type": "uint8"
        }
      ],
      "name": "ShipCollidedWithIsland",
      "type": "event"
    },
    {
      "anonymous": false,
      "inputs": [
        {
          "indexed": true,
          "internalType": "address",
          "name": "victim",
          "type": "address"
        },
        {
          "indexed": true,
          "internalType": "address",
          "name": "attacker",
          "type": "address"
        },
        {
          "indexed": false,
          "internalType": "uint256",
          "name": "gameId",
          "type": "uint256"
        }
      ],
      "name": "ShipHit",
      "type": "event"
    },
    {
      "anonymous": false,
      "inputs": [
        {
          "indexed": true,
          "internalType": "address",
          "name": "captain",
          "type": "address"
        },
        {
          "indexed": false,
          "internalType": "uint8",
          "name": "initialQ",
          "type": "uint8"
        },
        {
          "indexed": false,
          "internalType": "uint8",
          "name": "initialR",
          "type": "uint8"
        },
        {
          "indexed": false,
          "internalType": "uint8",
          "name": "q",
          "type": "uint8"
        },
        {
          "indexed": false,
          "internalType": "uint8",
          "name": "r",
          "type": "uint8"
        },
        {
          "indexed": false,
          "internalType": "uint256",
          "name": "gameId",
          "type": "uint256"
        }
      ],
      "name": "ShipMoved",
      "type": "event"
    },
    {
      "anonymous": false,
      "inputs": [
        {
          "indexed": true,
          "internalType": "address",
          "name": "captain",
          "type": "address"
        },
        {
          "indexed": false,
          "internalType": "uint256",
          "name": "gameId",
          "type": "uint256"
        }
      ],
      "name": "ShipMovedInGame",
      "type": "event"
    },
    {
      "anonymous": false,
      "inputs": [
        {
          "indexed": true,
          "internalType": "address",
          "name": "captain",
          "type": "address"
        },
        {
          "indexed": false,
          "internalType": "uint8",
          "name": "fromQ",
          "type": "uint8"
        },
        {
          "indexed": false,
          "internalType": "uint8",
          "name": "fromR",
          "type": "uint8"
        },
        {
          "indexed": false,
          "internalType": "uint8",
          "name": "shotQ",
          "type": "uint8"
        },
        {
          "indexed": false,
          "internalType": "uint8",
          "name": "shotR",
          "type": "uint8"
        },
        {
          "indexed": false,
          "internalType": "uint256",
          "name": "gameId",
          "type": "uint256"
        }
      ],
      "name": "ShipShot",
      "type": "event"
    },
    {
      "anonymous": false,
      "inputs": [
        {
          "indexed": true,
          "internalType": "address",
          "name": "captain",
          "type": "address"
        },
        {
          "indexed": false,
          "internalType": "uint256",
          "name": "gameId",
          "type": "uint256"
        }
      ],
      "name": "ShipSunk",
      "type": "event"
    },
    {
      "anonymous": false,
      "inputs": [
        {
          "indexed": true,
          "internalType": "address",
          "name": "captain",
          "type": "address"
        },
        {
          "indexed": false,
          "internalType": "uint256",
          "name": "gameId",
          "type": "uint256"
        }
      ],
      "name": "ShipSunkOutOfMap",
      "type": "event"
    },
    {
      "anonymous": false,
      "inputs": [
        {
          "indexed": false,
          "internalType": "uint256",
          "name": "gameId",
          "type": "uint256"
        },
        {
          "indexed": false,
          "internalType": "uint256",
          "name": "round",
          "type": "uint256"
        }
      ],
      "name": "SubmitPhaseStarted",
      "type": "event"
    },
    {
      "anonymous": false,
      "inputs": [
        {
          "indexed": false,
          "internalType": "uint256",
          "name": "gameId",
          "type": "uint256"
        }
      ],
      "name": "WorldUpdated",
      "type": "event"
    },
    {
      "inputs": [
        {
          "internalType": "address",
          "name": "playerAddress",
          "type": "address"
        },
        {
          "internalType": "uint256",
          "name": "gameId",
          "type": "uint256"
        },
        {
          "internalType": "uint256",
          "name": "_punkshipId",
          "type": "uint256"
        }
      ],
      "name": "addShip",
      "outputs": [],
      "stateMutability": "nonpayable",
      "type": "function"
    },
    {
      "inputs": [
        {
          "internalType": "bytes32",
          "name": "moveHash",
          "type": "bytes32"
        },
        {
          "internalType": "uint256",
          "name": "gameId",
          "type": "uint256"
        }
      ],
      "name": "commitMove",
      "outputs": [],
      "stateMutability": "nonpayable",
      "type": "function"
    },
    {
      "inputs": [
        {
          "internalType": "enum SharedStructs.Directions",
          "name": "_travelDirection",
          "type": "uint8"
        },
        {
          "internalType": "uint8",
          "name": "_travelDistance",
          "type": "uint8"
        },
        {
          "internalType": "enum SharedStructs.Directions",
          "name": "_shotDirection",
          "type": "uint8"
        },
        {
          "internalType": "uint8",
          "name": "_shotDistance",
          "type": "uint8"
        },
        {
          "internalType": "uint8",
          "name": "_secret",
          "type": "uint8"
        },
        {
          "internalType": "address",
          "name": "_playerAddress",
          "type": "address"
        }
      ],
      "name": "encodeCommitment",
      "outputs": [
        {
          "internalType": "bytes32",
          "name": "",
          "type": "bytes32"
        }
      ],
      "stateMutability": "pure",
      "type": "function"
    },
    {
      "inputs": [
        {
          "internalType": "uint256",
          "name": "gameId",
          "type": "uint256"
        }
      ],
      "name": "endGame",
      "outputs": [],
      "stateMutability": "nonpayable",
      "type": "function"
    },
    {
      "inputs": [
        {
          "internalType": "uint256",
          "name": "",
          "type": "uint256"
        }
      ],
      "name": "games",
      "outputs": [
        {
          "internalType": "uint256",
          "name": "round",
          "type": "uint256"
        },
        {
          "internalType": "uint8",
          "name": "shrinkNo",
          "type": "uint8"
        },
        {
          "internalType": "bool",
          "name": "gameInProgress",
          "type": "bool"
        },
        {
          "internalType": "bool",
          "name": "stopAddingShips",
          "type": "bool"
        },
        {
          "internalType": "bool",
          "name": "letCommitMoves",
          "type": "bool"
        },
        {
          "internalType": "bool",
          "name": "letSubmitMoves",
          "type": "bool"
        }
      ],
      "stateMutability": "view",
      "type": "function"
    },
    {
      "inputs": [
        {
          "components": [
            {
              "internalType": "uint8",
              "name": "q",
              "type": "uint8"
            },
            {
              "internalType": "uint8",
              "name": "r",
              "type": "uint8"
            }
          ],
          "internalType": "struct SharedStructs.Coordinate",
          "name": "_coord",
          "type": "tuple"
        },
        {
          "internalType": "uint256",
          "name": "gameId",
          "type": "uint256"
        }
      ],
      "name": "getCell",
      "outputs": [
        {
          "components": [
            {
              "internalType": "uint8",
              "name": "q",
              "type": "uint8"
            },
            {
              "internalType": "uint8",
              "name": "r",
              "type": "uint8"
            },
            {
              "internalType": "bool",
              "name": "island",
              "type": "bool"
            },
            {
              "internalType": "bool",
              "name": "exists",
              "type": "bool"
            }
          ],
          "internalType": "struct SharedStructs.Cell",
          "name": "",
          "type": "tuple"
        }
      ],
      "stateMutability": "view",
      "type": "function"
    },
    {
      "inputs": [
        {
          "internalType": "uint256",
          "name": "gameId",
          "type": "uint256"
        }
      ],
      "name": "getCoordinates",
      "outputs": [
        {
          "components": [
            {
              "internalType": "uint8",
              "name": "q",
              "type": "uint8"
            },
            {
              "internalType": "uint8",
              "name": "r",
              "type": "uint8"
            }
          ],
          "internalType": "struct SharedStructs.Coordinate[]",
          "name": "",
          "type": "tuple[]"
        }
      ],
      "stateMutability": "view",
      "type": "function"
    },
    {
      "inputs": [
        {
          "internalType": "uint256",
          "name": "gameId",
          "type": "uint256"
        }
      ],
      "name": "getRadius",
      "outputs": [
        {
          "internalType": "uint8",
          "name": "",
          "type": "uint8"
        }
      ],
      "stateMutability": "view",
      "type": "function"
    },
    {
      "inputs": [
        {
          "internalType": "uint256",
          "name": "gameId",
          "type": "uint256"
        }
      ],
      "name": "getShips",
      "outputs": [
        {
          "components": [
            {
              "components": [
                {
                  "internalType": "uint8",
                  "name": "q",
                  "type": "uint8"
                },
                {
                  "internalType": "uint8",
                  "name": "r",
                  "type": "uint8"
                }
              ],
              "internalType": "struct SharedStructs.Coordinate",
              "name": "coordinate",
              "type": "tuple"
            },
            {
              "internalType": "enum SharedStructs.Directions",
              "name": "travelDirection",
              "type": "uint8"
            },
            {
              "internalType": "uint8",
              "name": "travelDistance",
              "type": "uint8"
            },
            {
              "internalType": "enum SharedStructs.Directions",
              "name": "shotDirection",
              "type": "uint8"
            },
            {
              "internalType": "uint8",
              "name": "shotDistance",
              "type": "uint8"
            },
            {
              "internalType": "bool",
              "name": "publishedMove",
              "type": "bool"
            },
            {
              "internalType": "address",
              "name": "captain",
              "type": "address"
            },
            {
              "internalType": "uint8",
              "name": "yachtSpeed",
              "type": "uint8"
            },
            {
              "internalType": "uint8",
              "name": "yachtRange",
              "type": "uint8"
            },
            {
              "internalType": "uint256",
              "name": "gameId",
              "type": "uint256"
            }
          ],
          "internalType": "struct GamePunk.Ship[]",
          "name": "",
          "type": "tuple[]"
        }
      ],
      "stateMutability": "view",
      "type": "function"
    },
    {
      "inputs": [
        {
          "components": [
            {
              "internalType": "uint8",
              "name": "q",
              "type": "uint8"
            },
            {
              "internalType": "uint8",
              "name": "r",
              "type": "uint8"
            }
          ],
          "internalType": "struct SharedStructs.Coordinate",
          "name": "_start",
          "type": "tuple"
        },
        {
          "internalType": "enum SharedStructs.Directions",
          "name": "_dir",
          "type": "uint8"
        },
        {
          "internalType": "uint8",
          "name": "_distance",
          "type": "uint8"
        },
        {
          "internalType": "uint256",
          "name": "gameId",
          "type": "uint256"
        }
      ],
      "name": "move",
      "outputs": [
        {
          "components": [
            {
              "internalType": "uint8",
              "name": "q",
              "type": "uint8"
            },
            {
              "internalType": "uint8",
              "name": "r",
              "type": "uint8"
            }
          ],
          "internalType": "struct SharedStructs.Coordinate",
          "name": "",
          "type": "tuple"
        }
      ],
      "stateMutability": "view",
      "type": "function"
    },
    {
      "inputs": [],
      "name": "owner",
      "outputs": [
        {
          "internalType": "address",
          "name": "",
          "type": "address"
        }
      ],
      "stateMutability": "view",
      "type": "function"
    },
    {
      "inputs": [],
      "name": "registrationContract",
      "outputs": [
        {
          "internalType": "address",
          "name": "",
          "type": "address"
        }
      ],
      "stateMutability": "view",
      "type": "function"
    },
    {
      "inputs": [],
      "name": "renounceOwnership",
      "outputs": [],
      "stateMutability": "nonpayable",
      "type": "function"
    },
    {
      "inputs": [
        {
          "internalType": "address",
          "name": "_registrationContract",
          "type": "address"
        }
      ],
      "name": "setRegistrationContract",
      "outputs": [],
      "stateMutability": "nonpayable",
      "type": "function"
    },
    {
      "inputs": [
        {
          "internalType": "uint256",
          "name": "gameId",
          "type": "uint256"
        },
        {
          "internalType": "uint8",
          "name": "_radius",
          "type": "uint8"
        }
      ],
      "name": "startNewGame",
      "outputs": [],
      "stateMutability": "nonpayable",
      "type": "function"
    },
    {
      "inputs": [
        {
          "internalType": "enum SharedStructs.Directions[]",
          "name": "_travelDirections",
          "type": "uint8[]"
        },
        {
          "internalType": "uint8[]",
          "name": "_travelDistances",
          "type": "uint8[]"
        },
        {
          "internalType": "enum SharedStructs.Directions[]",
          "name": "_shotDirections",
          "type": "uint8[]"
        },
        {
          "internalType": "uint8[]",
          "name": "_shotDistances",
          "type": "uint8[]"
        },
        {
          "internalType": "uint8[]",
          "name": "_secrets",
          "type": "uint8[]"
        },
        {
          "internalType": "address[]",
          "name": "_playerAddresses",
          "type": "address[]"
        },
        {
          "internalType": "uint256",
          "name": "gameId",
          "type": "uint256"
        }
      ],
      "name": "submitMove",
      "outputs": [],
      "stateMutability": "nonpayable",
      "type": "function"
    },
    {
      "inputs": [
        {
          "internalType": "address",
          "name": "newOwner",
          "type": "address"
        }
      ],
      "name": "transferOwnership",
      "outputs": [],
      "stateMutability": "nonpayable",
      "type": "function"
    },
    {
      "inputs": [
        {
          "components": [
            {
              "internalType": "uint8",
              "name": "q",
              "type": "uint8"
            },
            {
              "internalType": "uint8",
              "name": "r",
              "type": "uint8"
            }
          ],
          "internalType": "struct SharedStructs.Coordinate",
          "name": "_startCell",
          "type": "tuple"
        },
        {
          "internalType": "enum SharedStructs.Directions",
          "name": "_direction",
          "type": "uint8"
        },
        {
          "internalType": "uint8",
          "name": "_distance",
          "type": "uint8"
        },
        {
          "internalType": "uint256",
          "name": "gameId",
          "type": "uint256"
        }
      ],
      "name": "travel",
      "outputs": [],
      "stateMutability": "nonpayable",
      "type": "function"
    },
    {
      "inputs": [
        {
          "internalType": "uint256",
          "name": "gameId",
          "type": "uint256"
        }
      ],
      "name": "updateWorld",
      "outputs": [],
      "stateMutability": "nonpayable",
      "type": "function"
    }
  ],
  "bytecode": "0x60c0346200015357601f6200410338819003918201601f19168301916001600160401b038311848410176200015857808492604094855283398101031262000153576200005a602062000052836200016e565b92016200016e565b9033156200013a5760008054336001600160a01b0319821681178355604051946001600160a01b0394909385939192918416907f8be0079c531659141344cd1fd0a4f28419497f9722a3daafe3b4186f6b6457e09080a3166080521660a052613f7f90816200018482396080518181816104ae015281816109810152818161138b015281816118ab015281816120920152818161227a0152818161263201528181612c1801528181612d6c015281816130c8015281816132e10152613dfc015260a0518181816117e001528181611a2a01528181611a820152611ada0152f35b604051631e4fbdf760e01b815260006004820152602490fd5b600080fd5b634e487b7160e01b600052604160045260246000fd5b51906001600160a01b0382168203620001535756fe6080604052600436101561001257600080fd5b60003560e01c80630bf3781814613291578063117a5b9014613220578063183b1baf146130425780631e522c3e146130195780634ab0aac914612c925780636b082eed14612bc6578063715018a614612b6d57806378d59e05146128855780638b7524b6146123365780638da5cb5b1461230d57806394c1d2d9146122125780639cc45f3414612138578063b173a14714611fd2578063b39116fd14611768578063d0399bb8146116e7578063d3db03cc146116a4578063d837093c146101f5578063dcdb5897146101805763f2fde38b146100ed57600080fd5b3461017b57602036600319011261017b57610106613761565b61010e613777565b6001600160a01b0390811690811561016257600054826bffffffffffffffffffffffff60a01b821617600055167f8be0079c531659141344cd1fd0a4f28419497f9722a3daafe3b4186f6b6457e0600080a3005b604051631e4fbdf760e01b815260006004820152602490fd5b600080fd5b3461017b5760c036600319011261017b57600435600781101561017b576101a5613600565b90604435600781101561017b5760643560ff8116810361017b576084359060ff8216820361017b5760a435926001600160a01b038416840361017b576020956101ed956138cd565b604051908152f35b3461017b57602036600319011261017b5761020e613777565b6004356000526001602052610232600160ff60046040600020015416151514613804565b6004356000526001602052604060002060038154061561135e575b50600435600052600160205261026a600360406000200154613c63565b6004356000526001602052600360406000200154906102888261367a565b9161029660405193846135de565b8083526102a5601f199161367a565b0136602084013760005b60043560005260016020526003604060002001549060ff8116918210156102ea5760016102df6102e593866139bc565b52613b42565b6102af565b505060005b600435600052600160205260406000206003810190815460ff8416101561083a5761031c83600293613aca565b60018060a01b0391549060031b1c166000520160205260018060a01b0360016040600020015460281c16156103945760043560005260016020526002604060002061036a8360038301613aca565b60018060a01b0391549060031b1c166000520160205260ff60016040600020015460201c166103a2575b61039d90613b42565b6102ef565b6004356000526001602052600260406000206103c18360038301613aca565b60018060a01b0391549060031b1c16600052016020526040600020906004356000526001602052600260406000206103fc8360038301613aca565b60018060a01b0391549060031b1c166000520160205260ff806001604060002001541660043560005260016020526002604060002061043e8560038301613aca565b60018060a01b0391549060031b1c16600052016020526104956001604060002001549161048b6040519663183b1baf60e01b8852600488019060ff60209154818116845260081c16910152565b604486019061366d565b60081c166064830152600435608483015260608260a4817f00000000000000000000000000000000000000000000000000000000000000006001600160a01b03165afa801561082e5761039d926000906000926107fc575b506106c85761066a90600435600052600160205260ff610514846003604060002001613aca565b60018060a01b0391549060031b1c166004356000526001602052600260406000206105428760038301613aca565b60018060a01b0391549060031b1c16600052016020528160406000205416906004356000526001602052600260406000206105808860038301613aca565b60018060a01b0391549060031b1c16600052016020527f9db385e25deecca76e1e8dab29ae54e5c2f1707d2c611cfab0984b782e9f8a2c8360406000205460081c16848651169061060a6020880195878751166040519485946004359386919360ff6080948180949998978160a088019b1687521660208601521660408401521660608201520152565b0390a260043560005260016020526002604060002061062c8760038301613aca565b60018060a01b0391549060031b1c16600052016020528160406000209351168219845416178355511661ff0082549160081b169061ff001916179055565b6004356000526001602052610686816003604060002001613aca565b60018060a01b0391549060031b1c167f4a5516f0f1d85471405ad39e7a960ba9a7b312f2bdc784a6dce8402611417fd660206040516004358152a29050610394565b6107f79060043560005260016020526106e8836003604060002001613aca565b9054825160208085015160408051600435815260ff9485169381019390935292169181019190915260039290921b1c6001600160a01b0316907f2265cf35e234e961bc739ea7efb0e9751a34a8c56c1b547ff729d632c2ad21a09080606081010390a260043560005260016020526107848361076b816003604060002001613aca565b9054600435929160031b1c6001600160a01b0316613ce9565b600061079360ff8516886139bc565b526004356000526001602052600260406000206107b38560038301613aca565b60018060a01b0391549060031b1c166000520160205260ff602060406000209282815116831985541617845501511661ff0082549160081b169061ff001916179055565b613b42565b9050610820915060603d606011610827575b61081881836135de565b810190613cc4565b90866104ed565b503d61080e565b6040513d6000823e3d90fd5b50505060005b60043560005260016020526003604060002001549060ff811691821015610b3b5761086b82856139bc565b51610880575b61087b9150613b42565b610840565b6004356000526001602052604060002061089d8260038301613aca565b939060018060a01b03948591549060031b1c1660005260028092016020526040600020906004356000526001602052826040600020866108e08760038401613aca565b90549060031b1c166000520160205260ff60016040600020015460101c1660043560005260016020528360406000208761091d8860038401613aca565b90549060031b1c166000520160205261097360ff60016040600020015460181c16916109696040519563d6192ad360e01b8752600487019060ff60209154818116845260081c16910152565b604485019061366d565b6064830152604082608481887f0000000000000000000000000000000000000000000000000000000000000000165afa91821561082e57600092610ad6575b509061087b946109ef83836109e87f1a5ee6632f2ff8b0f1e4bf31b540f744e4337da13603a9eac0072df00578c5a6968b6139bc565b52886139bc565b50600435600052600160205280610a0d866003604060002001613aca565b90549060031b1c1693600435600052600160205280604060002083610a358960038401613aca565b90549060031b1c166000520160205260ff60406000205416916004356000526001602052604060002090610a6c8860038401613aca565b90549060031b1c1660005201602052610ace60ff60406000205460081c169160ff602081865116950151166040519485946004359386919360ff6080948180949998978160a088019b1687521660208601521660408401521660608201520152565b0390a2610871565b915060403d604011610b34575b610aed81846135de565b82019460408387031261017b576109ef610b2b61087b977f1a5ee6632f2ff8b0f1e4bf31b540f744e4337da13603a9eac0072df00578c5a695613a46565b935050946109b2565b503d610ae3565b505060005b600435600052600160205260036040600020015460ff82161015610f785760005b600435600052600160205260036040600020015460ff821690811015610f68579081610b979260ff851603610b9c575b50613b42565b610b61565b610ba960ff8516876139bc565b51151580610f55575b80610ed3575b80610e4a575b610d56575b610bd060ff8516876139bc565b5115159081610d00575b81610ca4575b50610bec575b85610b91565b6004356000526001602052610c9f610c0b846003604060002001613aca565b9060018060a01b03918291549060031b1c16600435600052600160205281610c3a856003604060002001613aca565b90549060031b1c16907fbeaba0cb8f0bf4956e3f8756079b1aa20a9c7286167b8957d85188108991642d60206040516004358152a3600435600052600160205284610c8c816003604060002001613aca565b60049391933593549060031b1c16613ce9565b610be6565b60ff9150610cb4602091876139bc565b51015116600435600052600160205260026040600020610cd78660038301613aca565b60018060a01b0391549060031b1c166000520160205260ff60406000205460081c161486610be0565b905060ff610d0e82876139bc565b515116600435600052600160205260026040600020610d308760038301613aca565b60018060a01b0391549060031b1c166000520160205260ff604060002054161490610bda565b6000610d6560ff8616886139bc565b526000610d7282886139bc565b526004356000526001602052610e456020610d94866003604060002001613aca565b905460405160043581526001600160a01b03937fd3530cd7a307ade37676af8529ec0105ea6204af5e1534bd5de42308107123719360031b9290921c8416918391a2600435600052600160205281610df3866003604060002001613aca565b90549060031b1c169060206040516004358152a26004356000526001602052610e288187610c8c816003604060002001613aca565b600435600052600160205283610c8c816003604060002001613aca565b610bc3565b5060043560005260016020526040600020610e688360038301613aca565b919060018060a01b03928391549060031b1c166000526002809101602052604060002054916004356000526001602052604060002090610eab8860038401613aca565b90549060031b1c166000520160205260ff6040600020549181600893841c16921c1614610bbe565b5060043560005260016020526040600020610ef18360038301613aca565b919060018060a01b03928391549060031b1c16600052600280910160205260ff60406000205416916004356000526001602052604060002090610f378860038401613aca565b90549060031b1c166000520160205260ff6040600020541614610bb8565b50610f6081876139bc565b511515610bb2565b5050610f7390613b42565b610b40565b60005b600435600052600160205260036040600020019081549160ff8216928310156110905781610fa891613aca565b90546001600160a01b03939160031b1c831615610fd0575b50610fcb9150613b42565b610f7b565b6004356000526001602052600360406000200192835490600019820191821161107a5761100361104692610fcb96613aca565b90549060031b1c166004356000526001602052611027846003604060002001613aca565b90919082549060031b9160018060a01b03809116831b921b1916179055565b60043560005260016020526110616003604060002001613c0b565b61106c575b82610fc0565b61107590613c53565b611066565b634e487b7160e01b600052601160045260246000fd5b600435600052600160205260036040600020018054801560001461112d57505060007f56807b65299b9d361218ee1228c0caeed59b1cbcb079421f124145f99d0a0b0660206040516004358152a26004356000526001602052600460406000200161010061ff00198254161790555b7f0ffee877d4bec4783459533ceddde8785dcd14454a9ebe37f1b3b8792509c36b60206040516004358152a1005b6001036111b0575060043560005260016020526111506003604060002001613ab5565b60018060a01b0391549060031b1c167f56807b65299b9d361218ee1228c0caeed59b1cbcb079421f124145f99d0a0b0660206040516004358152a26004356000526001602052600460406000200161010061ff00198254161790556110ff565b6111b990613ab5565b9060018060a01b03918291549060031b1c1660007f6c5d9aa3894362f6fc8570afc4ad57ed5b0498a5e481b34ffccd61ee96cad12c60206040516004358152a360005b60043560005260016020526040600020906003820191825460ff83161015611320578361122c8361131b95613aca565b90549060031b1c1660005260028091016020526001604060002001600660ff198254161790556004356000526001602052806040600020856112718560038401613aca565b90549060031b1c1660005201602052600160406000200161ff001981541690556004356000526001602052806040600020856112b08560038401613aca565b90549060031b1c166000520160205260016040600020016206000062ff00001982541617905560043560005260016020526040600020846112f48460038401613aca565b90549060031b1c1660005201602052600160406000200163ff000000198154169055613b42565b6111fc565b505050506004356000526001602052600460406000200163ff00000019815416905561134d600435613ddb565b50611359600435613850565b6110ff565b600101546040516335d5edab60e01b8152600480359082015260ff90911660248201526001600160a01b037f0000000000000000000000000000000000000000000000000000000000000000811660008360448183855af192831561082e5760009361167f575b5060043560005260016020526001604060002001805460ff6113e8818316613b42565b169060ff19161790557ff47e725249069330b61eda3df25e7c3bcfd700624cbc7cbeabb0e28375bee53160206040516004358152a160005b835160ff8216908110156114ac57907fe33d4c5f3e9def7d3f127618203849e9a1888f8e0a9fbffbcdc7d6dbd42b64448260ff6020611470826114666114a7988c6139bc565b515116938a6139bc565b510151169061149f6040519283926004358491604091949360ff80926060860197865216602085015216910152565b0390a1613b42565b611420565b505090915060005b60043560005260016020526040600020906003820180549260ff83169384101561167357856114e584600294613aca565b90549060031b1c16600052016020526115016040600020613a16565b60405163b173a14760e01b8152815160ff9081166004830152602090920151909116602482015260043560448201526080908181606481885afa90811561082e5760009161163a575b5060609150015115611566575b6115619150613b42565b6114b4565b600435600052600160205283611583826003604060002001613aca565b90549060031b1c167faf0f1f1c6dd1455929199c881d29a04680c9c20aff5f0331d8619ed875c58d1c60206040516004358152a260043560005260016020526115d88482610c8c816003604060002001613aca565b6004356000526001602052600360406000200191825492600019840193841161107a57856110036115619561160c93613aca565b60043560005260016020526116276003604060002001613c0b565b156115575761163590613c53565b611557565b9050813d831161166c575b61164f81836135de565b8101918183031261017b5760609161166691613aef565b8661154a565b503d611645565b5050505050508061024d565b61169d9193503d806000833e61169581836135de565b810190613b82565b91836113c5565b3461017b57602036600319011261017b576116bd613761565b6116c5613777565b600280546001600160a01b0319166001600160a01b0392909216919091179055005b3461017b57602036600319011261017b577fce24807f7e4b60b4e641462f13029fa5e5f79075bbc3f8e5cd43ecd19661d7606020600435611726613777565b8060005260018252611747600160ff60046040600020015416151514613804565b8060005260018252600460406000200160ff198154169055604051908152a1005b3461017b57606036600319011261017b57611781613761565b6002546001600160a01b031633148015611fbe575b61179f906137a3565b60243560005260016020526117c3600160ff60046040600020015416151514613804565b6040516331a9108f60e11b815260443560048201526020816024817f00000000000000000000000000000000000000000000000000000000000000006001600160a01b03165afa90811561082e57600091611f7c575b506001600160a01b03828116911603611f53576024356000526001602052600260406000200160018060a01b03821660005260205260ff60406000205416151580611f1d575b611ebe5760405161186f81613589565b600081526000602082015260009060015b15611a06575b5060408051637128e56d60e11b815260248035600483015290936000929091859081857f00000000000000000000000000000000000000000000000000000000000000006001600160a01b03165af193841561082e576000946119cb575b50839160005b60243560005260016020526040600020600390818101805460ff851610156119bd579061191984600293613aca565b60018060a01b03915490851b1c166000520160205260ff6040600020541660ff88511614908161196a575b506119575761195290613b42565b6118ea565b5091935091506001905b92909192611880565b60029150602435600052600160205260406000209061198b84828401613aca565b60018060a09493941b039254911b1c166000520160205260ff60406000205460081c1660ff6020880151161487611944565b505050509092919350611961565b90935060403d6040116119ff575b6119e381836135de565b810160408282031261017b576119f891613a46565b92846118e4565b503d6119d9565b8161188657604051631986c9e960e31b8152604435600482015283906020816024817f00000000000000000000000000000000000000000000000000000000000000006001600160a01b03165afa90811561082e57600091611e84575b50604051636455ce8d60e11b81526044356004820152916020836024817f00000000000000000000000000000000000000000000000000000000000000006001600160a01b03165afa92831561082e57600093611e48575b50604051631303d57d60e11b81526044356004820152936000856024817f00000000000000000000000000000000000000000000000000000000000000006001600160a01b03165afa94851561082e57600095611db8575b50604051611b20816135a5565b81815260006020820152600060408201526000606082015260006080820152600060a082015260018060a01b03831660c082015260ff841660e082015260ff85166101008201526024356101208201526024356000526001602052600260406000200160018060a01b038416600052602052604060002090611bc760ff60208351828151168319875416178655015116839061ff0082549160081b169061ff001916179055565b60208101516007811015611da257611be290600184016139dd565b611c0760ff604083015116600184019061ff0082549160081b169061ff001916179055565b60608101516007811015611da257600291611c2861012092600186016139f5565b611c5160ff608083015116600186019063ff00000082549160181b169063ff0000001916179055565b60a08101511515600185015465010000000000600160c81b0360c084015160281b1660ff60c81b60e085015160c81b169164ff0000000060ff60d01b61010087015160d01b169460201b169063ffffffff64ffffffffff60d81b011617171717600185015501519101556024356000526001602052600360406000200191825468010000000000000000811015611d8c577f526c62f8fa999ff5dc01591b8086e17ed53753d49a9eca57e821d0c3f550efa395611d1d836110278461010098600160ff97018155613aca565b8180602081875116960151169660405197889660243588526044356020890152604088015260608701521660808501521660a083015260e060c0830152611d73865180978160e086015260208686019101613b53565b6001600160a01b031694601f01601f19168101030190a2005b634e487b7160e01b600052604160045260246000fd5b634e487b7160e01b600052602160045260246000fd5b9094503d90816000823e611dcc82826135de565b602081838101031261017b5780519067ffffffffffffffff9081831161017b57838101601f84830101121561017b5782810151918211611d8c5760405193611e1e601f8401601f1916602001866135de565b828552810160208385840101011161017b576020611e4193818601920101613b53565b9385611b13565b9092506020813d602011611e7c575b81611e64602093836135de565b8101031261017b57611e7590613a38565b9184611abb565b3d9150611e57565b90506020813d602011611eb6575b81611e9f602093836135de565b8101031261017b57611eb090613a38565b83611a63565b3d9150611e92565b6024803560009081526001602090815260408083206001600160a01b03959095168084526002909501909152908190205490516308538db760e41b8152600481019390935260ff8082169284019290925260081c166044820152606490fd5b506024356000526001602052600260406000200160018060a01b03821660005260205260ff60406000205460081c16151561185f565b604051634319813760e01b81526001600160a01b03909116600482015260448035602483015290fd5b90506020813d602011611fb6575b81611f97602093836135de565b8101031261017b57516001600160a01b038116810361017b5782611819565b3d9150611f8a565b506000546001600160a01b03163314611796565b3461017b5736600319016060811261017b5760401361017b57604051611ff781613589565b60043560ff8116810361017b57815260243560ff8116810361017b5760208201526044356000606060405161202b816135c2565b828152826020820152826040820152015280600052600160205261205e600160ff60046040600020015416151514613804565b60405163b173a14760e01b8152825160ff9081166004830152602090930151909216602483015260448201526080816064817f00000000000000000000000000000000000000000000000000000000000000006001600160a01b03165afa801561082e576000906120fe575b60809060606040519160ff815116835260ff6020820151166020840152604081015115156040840152015115156060820152f35b5060803d8111612131575b61211381836135de565b81019060808183031261017b5760809161212c91613aef565b6120ca565b503d612109565b3461017b57604036600319011261017b5760043560243590816000526001602052600160ff60046040600020015460101c161515036121c3578160005260016020526005604060002001336000526020528060406000205560405191825260208201527feb7d119bae44c06d4b05b80eb4a3bdfc755131945d1845f3c9d2aeaa7d8bf54260403392a2005b60405162461bcd60e51b815260206004820152602160248201527f436f6d6d6974206d6f76657320686173206e6f742073746172746564207965746044820152602160f81b6064820152608490fd5b3461017b57604061222236613610565b60006020869593965161223481613589565b82815201526000526001602052612259600160ff600486600020015416151514613804565b61227683519485938493630d42527560e11b855260048501613a7c565b03817f00000000000000000000000000000000000000000000000000000000000000006001600160a01b03165afa801561082e576000906122d2575b6040906122d08251809260ff60208092828151168552015116910152565bf35b5060403d604011612306575b6122e881836135de565b81019060408183031261017b5760409161230191613a46565b6122b2565b503d6122de565b3461017b57600036600319011261017b576000546040516001600160a01b039091168152602090f35b3461017b5760e036600319011261017b5767ffffffffffffffff60043581811161017b57612368903690600401613692565b60243582811161017b576123809036906004016136f9565b60443583811161017b57612398903690600401613692565b9060643584811161017b576123b19036906004016136f9565b9260843585811161017b576123ca9036906004016136f9565b9360a43595861161017b573660238701121561017b5785600401356123ee8161367a565b966123fc60405198896135de565b8188526024602089019260051b8201019036821161017b57602401915b8183106128655750505060c4356000526001602052612447600160ff60046040600020015416151514613804565b612454865183511461393f565b612461825184511461393f565b61246e845182511461393f565b61247b855187511461393f565b60005b8651811015612863576124ef61249c61249783866139bc565b6139d0565b60ff6124a884886139bc565b51166124b7612497858a6139bc565b60ff6124c386886139bc565b51169060ff6124d2878d6139bc565b5116926001600160a01b036124e7888f6139bc565b5116946138cd565b60c43560009081526001602052604090206005016001600160a01b03612515848b6139bc565b511660005260205260406000205414612537575b6125329061398a565b61247e565b60c43560009081526001602052604090206002016001600160a01b0361255d838a6139bc565b5116600052602052612630604060002061257a61249784876139bc565b6125886001830191826139dd565b60ff61259485896139bc565b511660ff825460c81c1680911160001461284c576125c3905b825461ff00191660089190911b61ff0016178255565b6125d96125d3612497868b6139bc565b826139f5565b60ff6125e585876139bc565b511660ff825460d01c1680911160001461283557612618905b825463ff000000191660189190911b63ff00000016178255565b805464ff000000001916640100000000179055613a16565b7f00000000000000000000000000000000000000000000000000000000000000006001600160a01b0316919061269a90604061266f61249785896139bc565b60ff61267b868b6139bc565b51169082519485928392630d42527560e11b9687855260048501613a7c565b0381875afa91821561082e576000926127f1575b506040906126e7946126c3612497868c6139bc565b60ff6126cf878a6139bc565b51169284519788948593849384528860048501613a7c565b03915afa92831561082e5760009361278e575b50612532927ffd735dcfd99f4b7d7f6bcea365f20bd4b998183607e89895805ae488fbeaa8669060c0906001600160a01b03612736868e6139bc565b51169360c43560005260016020526040600020549160ff6020818451169301511660ff60208184511693015116926040519460c4358652602086015260408501526060840152608083015260a0820152a29050612529565b925060403d6040116127ea575b6127a581856135de565b83019260408185031261017b5760c06127e2612532957ffd735dcfd99f4b7d7f6bcea365f20bd4b998183607e89895805ae488fbeaa86693613a46565b9450506126fa565b503d61279b565b93915060403d60401161282e575b61280981866135de565b84019060408583031261017b576128256040926126e796613a46565b929450906126ae565b503d6127ff565b5061261860ff61284586886139bc565b51166125fe565b506125c360ff61285c868a6139bc565b51166125ad565b005b82356001600160a01b038116810361017b57815260209283019201612419565b3461017b5760208060031936011261017b576004359081600052600180825260ff6128bd828260046040600020015416151514613804565b8360005281835260038060406000200154946128d88661367a565b956128e660405197886135de565b8087526128f5601f199161367a565b0160005b818110612af5575050836000905b6129f0575b5050506040519280840190808552855180925280604086019601926000905b8382106129385786880387f35b9091929394836101608299885161295f82825160ff60208092828151168552015116910152565b61297084820151604084019061366d565b8580604083015116606090818501528201516129916080918286019061366d565b8201511660a09081840152810151151560c0908184015260018060a01b03908201511660e0830152858060e08301511661010090818501528201511690610120918284015201516101408201520196019201909694969392919361292b565b90849694929181600052838752604060002090838201918254821015612aea57612a1d82612ae094613aca565b919060018060a01b039283915490881b1c1660005260028091018a526040600020888b60405194612a4d866135a5565b612a5684613a16565b8652828b8501548093612a6d838316828b01613b76565b828260081c1660408a0152612a8a838360101c1660608b01613b76565b828260181c1660808a01521c16151560a08701528160281c1660c0860152818160c81c1660e086015260d01c166101008401520154610120820152612acf82896139bc565b52612ada81886139bc565b5061398a565b9091929496612907565b50505095939561290c565b8690604098969851612b06816135a5565b604051612b1281613589565b600081526000848201528152600083820152600060408201526000606082015260006080820152600060a0820152600060c0820152600060e082015260006101008201526000610120820152828289010152019694966128f9565b3461017b57600036600319011261017b57612b86613777565b600080546001600160a01b0319811682556001600160a01b03167f8be0079c531659141344cd1fd0a4f28419497f9722a3daafe3b4186f6b6457e08280a3005b3461017b5760208060031936011261017b576004358060005260018252612bfc600160ff60046040600020015416151514613804565b60405163436fadf360e11b8152600481019190915281816024817f00000000000000000000000000000000000000000000000000000000000000006001600160a01b03165afa90811561082e57600091612c5d575b5060ff60405191168152f35b90508181813d8311612c8b575b612c7481836135de565b8101031261017b57612c8590613a38565b82612c51565b503d612c6a565b3461017b57604036600319011261017b57600435612cae613600565b60028054919290916001600160a01b039081163314801561300c575b612cd3906137a3565b8160005260019060209382855260ff908160046040600020015416612fb957600085815284875260408120600401805460ff191686179055849190825b612f5b575b5050508360005282855260036040600020018054906000815581612f35575b5050612d3f84613ddb565b5060405163af2f210960e01b815260ff8716600482015260248101859052916000908390604490829084907f0000000000000000000000000000000000000000000000000000000000000000165af191821561082e57600092612e99575b506000835b612e13575b6040805160ff89168152602081018790527f50ad08f58a27f2851d7e3a1b3a6a46b290f2ce677e99642d30ff639721e7779091889188917f69daaa80244624dc227320708ed184109781f5bffb597d57054abadec2931b3b91a1612e0a81613850565b604051908152a1005b8251811015612e9457807fe40ab56a2b71773fd8fa12379eac11a90b1a5a8b57fbdb4b84e4734d32a551e1608084612e4e612e8e95886139bc565b515116858a612e5d868a6139bc565b510151166040612e6d868a6139bc565b510151151590604051928b84528c84015260408301526060820152a161398a565b83612da2565b612da7565b9091503d806000833e612eac81836135de565b810190858183031261017b5780519067ffffffffffffffff821161017b570181601f8201121561017b578051612ee18161367a565b92612eef60405194856135de565b818452878085019260071b8401019281841161017b578801915b88848410612f1d5750505050509086612d9d565b608091612f2a8486613aef565b815201920191612f09565b6000528386600020918201915b828110612f4f5750612d34565b60008155018490612f42565b8660005282885260406000209060039182810190878254841015612fb057612faa94612f88858895613aca565b9054911b1c16600052018952600083604082208281558287820155015561398a565b82612d10565b50505050612d15565b60405162461bcd60e51b815260048101879052602560248201527f47616d652077697468207468697320494420616c726561647920696e2070726f604482015264677265737360d81b6064820152608490fd5b5060005481163314612cca565b3461017b57600036600319011261017b576002546040516001600160a01b039091168152602090f35b3461017b5761305036613610565b9192826000526130aa60019460209386855260ff92839261307e898560046040600020015416151514613804565b60405163183b1baf60e01b8152865160ff9081166004830152602090970151909616602487015261048b565b166064830152608482018490526001600160a01b039160608160a4817f000000000000000000000000000000000000000000000000000000000000000087165afa90811561082e576000906000926131ff575b501561319d575083600052848352613122858260046040600020015416151514613804565b60009283865b61313c575b50505050612863925033613ce9565b856000528682526003806040600020018054858416101561319657613162838792613aca565b929092339354911b1c1614613183579061317c8792613b42565b9091613128565b935050505061286392508380808061312d565b505061312d565b61286395925080828592511686600052848352600260406000200133600052835260406000209060ff19825416179055015116926000528152600260406000200190336000525260406000209061ff0082549160081b169061ff001916179055565b9050613219915060603d81116108275761081881836135de565b90876130fd565b3461017b57602036600319011261017b57600435600052600160205260c0604060002060ff81549160048260018301541691015490604051938452602084015281811615156040840152818160081c1615156060840152818160101c161515608084015260181c16151560a0820152f35b3461017b5760208060031936011261017b57600435908160005260019182825260ff6132ca848260046040600020015416151514613804565b60405163436fadf360e11b815260048101929092527f00000000000000000000000000000000000000000000000000000000000000006001600160a01b031690602484848281865afa93841561082e57600094613552575b508161332d85613f0d565b9416938685019083821161353d5761335461334f61335a9386939a989a613f21565b613f38565b16613c63565b9560405161336781613589565b818152818782015261337888613999565b5261338287613999565b5084805b6133e7575b5050505050604051918083018184528451809152816040850195019160005b8281106133b75785870386f35b90919293826040886133da849a895160ff60208092828151168552015116910152565b01979501939291016133aa565b83819896981682811161353457600019810185811161351f5761341661334f846134118994613f0d565b613f21565b169061342188613999565b516040516301cf2e2560e51b8152815160ff908116600483015260209092015190911660248201529060448201526000816064818a5afa90811561082e57600091613504575b50899594939291906000875b61348f575b50505061348490613b42565b909192939597613386565b908092939495969750518b888316918210156134f957506134b081846139bc565b51908401908185116134e45791610b91828e946134d06134d7958f6139bc565b528c6139bc565b8197969594939291613473565b87634e487b7160e01b60005260116004526000fd5b979695949350613478565b61351991503d806000833e61169581836135de565b8a613467565b84634e487b7160e01b60005260116004526000fd5b5096949661338b565b82634e487b7160e01b60005260116004526000fd5b9093508481813d8311613582575b61356a81836135de565b8101031261017b5761357b90613a38565b9286613322565b503d613560565b6040810190811067ffffffffffffffff821117611d8c57604052565b610140810190811067ffffffffffffffff821117611d8c57604052565b6080810190811067ffffffffffffffff821117611d8c57604052565b90601f8019910116810190811067ffffffffffffffff821117611d8c57604052565b6024359060ff8216820361017b57565b6003190160a0811261017b5760401361017b5760405161362f81613589565b60043560ff8116810361017b578152613646613600565b602082015290604435600781101561017b579060643560ff8116810361017b579060843590565b906007821015611da25752565b67ffffffffffffffff8111611d8c5760051b60200190565b81601f8201121561017b578035916136a98361367a565b926136b760405194856135de565b808452602092838086019260051b82010192831161017b578301905b8282106136e1575050505090565b8135600781101561017b5781529083019083016136d3565b81601f8201121561017b578035916137108361367a565b9261371e60405194856135de565b808452602092838086019260051b82010192831161017b578301905b828210613748575050505090565b813560ff8116810361017b57815290830190830161373a565b600435906001600160a01b038216820361017b57565b6000546001600160a01b0316330361378b57565b60405163118cdaa760e01b8152336004820152602490fd5b156137aa57565b60405162461bcd60e51b815260206004820152602c60248201527f43616c6c6572206973206e6f74206f776e6572206f722072656769737472617460448201526b1a5bdb8818dbdb9d1c9858dd60a21b6064820152608490fd5b1561380b57565b60405162461bcd60e51b815260206004820152601960248201527f47616d6520686173206e6f7420737461727465642079657421000000000000006044820152606490fd5b60207f8924ef8e2fcf31b0d38716fc8120f7aec496d13f5abdb8320e31a69dbc449100918060005260018252613895600160ff60046040600020015416151514613804565b806000526001825260046040600020016201000062ff000019825416179055604051908152a1565b6007811015611da25760f81b9052565b94929390604051946138e36020870180986138bd565b61390260ff60f81b9485809460f81b16602189015260228801906138bd565b60f81b16602385015260f81b1660248301526bffffffffffffffffffffffff199060601b1660258201526019815261393981613589565b51902090565b1561394657565b606460405162461bcd60e51b815260206004820152602060248201527f417272617973206d7573742068617665207468652073616d65206c656e6774686044820152fd5b600019811461107a5760010190565b8051156139a65760200190565b634e487b7160e01b600052603260045260246000fd5b80518210156139a65760209160051b010190565b516007811015611da25790565b906007811015611da25760ff80198354169116179055565b906007811015611da25762ff000082549160101b169062ff00001916179055565b90604051613a2381613589565b602060ff829454818116845260081c16910152565b519060ff8216820361017b57565b919082604091031261017b57604051613a5e81613589565b6020613a77818395613a6f81613a38565b855201613a38565b910152565b916060919493613aaf60ff92613aa586608081019960ff60208092828151168552015116910152565b604086019061366d565b16910152565b8054156139a657600052602060002090600090565b80548210156139a65760005260206000200190600090565b5190811515820361017b57565b919082608091031261017b57604051613b07816135c2565b6060613a77818395613b1881613a38565b8552613b2660208201613a38565b6020860152613b3760408201613ae2565b604086015201613ae2565b60ff1660ff811461107a5760010190565b60005b838110613b665750506000910152565b8181015183820152602001613b56565b6007821015611da25752565b90602091828183031261017b5780519067ffffffffffffffff821161017b570181601f8201121561017b57805192613bb98461367a565b93604093613bc9855196876135de565b818652828087019260061b8501019381851161017b578301915b848310613bf35750505050505090565b838691613c008486613a46565b815201920191613be3565b80548015613c3d576000190190613c3a613c258383613aca565b81549060018060a01b039060031b1b19169055565b55565b634e487b7160e01b600052603160045260246000fd5b60ff16801561107a576000190190565b90613c6d8261367a565b604090613c7c825191826135de565b8381528093613c8d601f199161367a565b0191600090815b848110613ca2575050505050565b6020908251613cb081613589565b848152828581830152828701015201613c94565b919060608382031261017b57613ce6906020613cdf85613ae2565b9401613a46565b90565b90916000908082526001906020908282526040946003868620015460ff88161015613d975792613c259592826003958794613d959a9852838352613d398460ff6004898920015416151514613804565b60018060a01b0316807f0ceeb6c20e03a8c47e6673117b7b54c5b880118423ef2a84e0b795bd849fc406848851858152a28185528383526002868620019085528252836002868220828155828682015501558352522001613aca565b565b855162461bcd60e51b815260048101849052601860248201527f496e6465782076616c7565206f7574206f662072616e676500000000000000006044820152606490fd5b6040805163436fadf360e11b815260048101839052909160209182816024817f00000000000000000000000000000000000000000000000000000000000000006001600160a01b03165afa908115613f0257600091613e9f575b50907f3874cce3730901301cd0c02b4c2dd416d59546f183096d9f2a434c4d3a9ba4a56060600194938360005285855286600020613e73815461398a565b90558360005285855260ff876000205491885192868452878401521687820152a1600052526000205490565b908382813d8311613efb575b613eb581836135de565b81010312613ef85750907f3874cce3730901301cd0c02b4c2dd416d59546f183096d9f2a434c4d3a9ba4a56060613eee60019594613a38565b9293945050613e35565b80fd5b503d613eab565b84513d6000823e3d90fd5b60ff166003029060ff821691820361107a57565b9060ff8091169116029060ff821691820361107a57565b60ff166001019060ff821161107a5756fea264697066735822122007cef38bd18431d0814a342852467f6f628d73a8a88771745c1030b0149feb6364736f6c63430008140033",
  "linkReferences": {},
  "deployedLinkReferences": {}
}