{
  "_format": "hh-sol-artifact-1",
  "contractName": "GamePunk",
  "sourceName": "contracts/GamePunk.sol",
  "abi": [
    {
      "inputs": [
        {
          "internalType": "address",
          "name": "_mapAddress",
          "type": "address"
        }
      ],
      "stateMutability": "nonpayable",
      "type": "constructor"
    },
    {
      "inputs": [
        {
          "internalType": "address",
          "name": "owner",
          "type": "address"
        }
      ],
      "name": "OwnableInvalidOwner",
      "type": "error"
    },
    {
      "inputs": [
        {
          "internalType": "address",
          "name": "account",
          "type": "address"
        }
      ],
      "name": "OwnableUnauthorizedAccount",
      "type": "error"
    },
    {
      "inputs": [
        {
          "internalType": "address",
          "name": "player",
          "type": "address"
        },
        {
          "internalType": "uint8",
          "name": "q",
          "type": "uint8"
        },
        {
          "internalType": "uint8",
          "name": "r",
          "type": "uint8"
        }
      ],
      "name": "ShipAlreadyAdded",
      "type": "error"
    },
    {
      "anonymous": false,
      "inputs": [
        {
          "indexed": false,
          "internalType": "uint8",
          "name": "gameId",
          "type": "uint8"
        },
        {
          "indexed": false,
          "internalType": "uint8",
          "name": "q",
          "type": "uint8"
        },
        {
          "indexed": false,
          "internalType": "uint8",
          "name": "r",
          "type": "uint8"
        },
        {
          "indexed": false,
          "internalType": "bool",
          "name": "island",
          "type": "bool"
        }
      ],
      "name": "Cell",
      "type": "event"
    },
    {
      "anonymous": false,
      "inputs": [
        {
          "indexed": false,
          "internalType": "uint8",
          "name": "gameId",
          "type": "uint8"
        }
      ],
      "name": "CommitPhaseStarted",
      "type": "event"
    },
    {
      "anonymous": false,
      "inputs": [
        {
          "indexed": false,
          "internalType": "uint8",
          "name": "gameId",
          "type": "uint8"
        }
      ],
      "name": "GameEnded",
      "type": "event"
    },
    {
      "anonymous": false,
      "inputs": [
        {
          "indexed": false,
          "internalType": "uint8",
          "name": "gameId",
          "type": "uint8"
        }
      ],
      "name": "GameStarted",
      "type": "event"
    },
    {
      "anonymous": false,
      "inputs": [
        {
          "indexed": true,
          "internalType": "bool",
          "name": "gameStatus",
          "type": "bool"
        },
        {
          "indexed": true,
          "internalType": "address",
          "name": "winnerAddress",
          "type": "address"
        },
        {
          "indexed": false,
          "internalType": "uint8",
          "name": "gameId",
          "type": "uint8"
        }
      ],
      "name": "GameUpdated",
      "type": "event"
    },
    {
      "anonymous": false,
      "inputs": [
        {
          "indexed": true,
          "internalType": "address",
          "name": "winner",
          "type": "address"
        },
        {
          "indexed": false,
          "internalType": "uint8",
          "name": "gameId",
          "type": "uint8"
        }
      ],
      "name": "GameWinner",
      "type": "event"
    },
    {
      "anonymous": false,
      "inputs": [
        {
          "indexed": false,
          "internalType": "uint8",
          "name": "radius",
          "type": "uint8"
        },
        {
          "indexed": false,
          "internalType": "uint8",
          "name": "gameId",
          "type": "uint8"
        }
      ],
      "name": "MapInitialized",
      "type": "event"
    },
    {
      "anonymous": false,
      "inputs": [
        {
          "indexed": false,
          "internalType": "uint8",
          "name": "gameId",
          "type": "uint8"
        }
      ],
      "name": "MapShrink",
      "type": "event"
    },
    {
      "anonymous": false,
      "inputs": [
        {
          "indexed": true,
          "internalType": "address",
          "name": "player",
          "type": "address"
        },
        {
          "indexed": false,
          "internalType": "uint8",
          "name": "gameId",
          "type": "uint8"
        }
      ],
      "name": "MoveCommitted",
      "type": "event"
    },
    {
      "anonymous": false,
      "inputs": [
        {
          "indexed": true,
          "internalType": "address",
          "name": "player",
          "type": "address"
        },
        {
          "indexed": false,
          "internalType": "uint8",
          "name": "gameId",
          "type": "uint8"
        },
        {
          "indexed": false,
          "internalType": "uint256",
          "name": "roundId",
          "type": "uint256"
        },
        {
          "indexed": false,
          "internalType": "uint8",
          "name": "destQ",
          "type": "uint8"
        },
        {
          "indexed": false,
          "internalType": "uint8",
          "name": "destR",
          "type": "uint8"
        },
        {
          "indexed": false,
          "internalType": "uint8",
          "name": "shotQ",
          "type": "uint8"
        },
        {
          "indexed": false,
          "internalType": "uint8",
          "name": "shotR",
          "type": "uint8"
        }
      ],
      "name": "MoveSubmitted",
      "type": "event"
    },
    {
      "anonymous": false,
      "inputs": [
        {
          "indexed": false,
          "internalType": "uint8",
          "name": "gameId",
          "type": "uint8"
        },
        {
          "indexed": false,
          "internalType": "uint256",
          "name": "roundId",
          "type": "uint256"
        },
        {
          "indexed": false,
          "internalType": "uint8",
          "name": "radius",
          "type": "uint8"
        }
      ],
      "name": "NewRound",
      "type": "event"
    },
    {
      "anonymous": false,
      "inputs": [
        {
          "indexed": true,
          "internalType": "address",
          "name": "previousOwner",
          "type": "address"
        },
        {
          "indexed": true,
          "internalType": "address",
          "name": "newOwner",
          "type": "address"
        }
      ],
      "name": "OwnershipTransferred",
      "type": "event"
    },
    {
      "anonymous": false,
      "inputs": [
        {
          "indexed": true,
          "internalType": "address",
          "name": "player",
          "type": "address"
        },
        {
          "indexed": false,
          "internalType": "uint8",
          "name": "gameId",
          "type": "uint8"
        },
        {
          "indexed": false,
          "internalType": "uint8",
          "name": "q",
          "type": "uint8"
        },
        {
          "indexed": false,
          "internalType": "uint8",
          "name": "r",
          "type": "uint8"
        },
        {
          "indexed": false,
          "internalType": "uint8",
          "name": "speed",
          "type": "uint8"
        },
        {
          "indexed": false,
          "internalType": "uint8",
          "name": "range",
          "type": "uint8"
        }
      ],
      "name": "PlayerAdded",
      "type": "event"
    },
    {
      "anonymous": false,
      "inputs": [
        {
          "indexed": true,
          "internalType": "address",
          "name": "player",
          "type": "address"
        },
        {
          "indexed": false,
          "internalType": "uint8",
          "name": "gameId",
          "type": "uint8"
        }
      ],
      "name": "PlayerDefeated",
      "type": "event"
    },
    {
      "anonymous": false,
      "inputs": [
        {
          "indexed": true,
          "internalType": "address",
          "name": "captain",
          "type": "address"
        },
        {
          "indexed": false,
          "internalType": "uint8",
          "name": "gameId",
          "type": "uint8"
        },
        {
          "indexed": false,
          "internalType": "uint8",
          "name": "q",
          "type": "uint8"
        },
        {
          "indexed": false,
          "internalType": "uint8",
          "name": "r",
          "type": "uint8"
        }
      ],
      "name": "ShipCollidedWithIsland",
      "type": "event"
    },
    {
      "anonymous": false,
      "inputs": [
        {
          "indexed": true,
          "internalType": "address",
          "name": "victim",
          "type": "address"
        },
        {
          "indexed": true,
          "internalType": "address",
          "name": "attacker",
          "type": "address"
        },
        {
          "indexed": false,
          "internalType": "uint8",
          "name": "gameId",
          "type": "uint8"
        }
      ],
      "name": "ShipHit",
      "type": "event"
    },
    {
      "anonymous": false,
      "inputs": [
        {
          "indexed": true,
          "internalType": "address",
          "name": "captain",
          "type": "address"
        },
        {
          "indexed": false,
          "internalType": "uint8",
          "name": "initialQ",
          "type": "uint8"
        },
        {
          "indexed": false,
          "internalType": "uint8",
          "name": "initialR",
          "type": "uint8"
        },
        {
          "indexed": false,
          "internalType": "uint8",
          "name": "q",
          "type": "uint8"
        },
        {
          "indexed": false,
          "internalType": "uint8",
          "name": "r",
          "type": "uint8"
        },
        {
          "indexed": false,
          "internalType": "uint8",
          "name": "gameId",
          "type": "uint8"
        }
      ],
      "name": "ShipMoved",
      "type": "event"
    },
    {
      "anonymous": false,
      "inputs": [
        {
          "indexed": true,
          "internalType": "address",
          "name": "captain",
          "type": "address"
        },
        {
          "indexed": false,
          "internalType": "uint8",
          "name": "gameId",
          "type": "uint8"
        }
      ],
      "name": "ShipMovedInGame",
      "type": "event"
    },
    {
      "anonymous": false,
      "inputs": [
        {
          "indexed": true,
          "internalType": "address",
          "name": "captain",
          "type": "address"
        },
        {
          "indexed": false,
          "internalType": "uint8",
          "name": "fromQ",
          "type": "uint8"
        },
        {
          "indexed": false,
          "internalType": "uint8",
          "name": "fromR",
          "type": "uint8"
        },
        {
          "indexed": false,
          "internalType": "uint8",
          "name": "shotQ",
          "type": "uint8"
        },
        {
          "indexed": false,
          "internalType": "uint8",
          "name": "shotR",
          "type": "uint8"
        },
        {
          "indexed": false,
          "internalType": "uint8",
          "name": "gameId",
          "type": "uint8"
        }
      ],
      "name": "ShipShot",
      "type": "event"
    },
    {
      "anonymous": false,
      "inputs": [
        {
          "indexed": true,
          "internalType": "address",
          "name": "captain",
          "type": "address"
        },
        {
          "indexed": false,
          "internalType": "uint8",
          "name": "gameId",
          "type": "uint8"
        }
      ],
      "name": "ShipSunk",
      "type": "event"
    },
    {
      "anonymous": false,
      "inputs": [
        {
          "indexed": true,
          "internalType": "address",
          "name": "captain",
          "type": "address"
        },
        {
          "indexed": false,
          "internalType": "uint8",
          "name": "gameId",
          "type": "uint8"
        }
      ],
      "name": "ShipSunkOutOfMap",
      "type": "event"
    },
    {
      "anonymous": false,
      "inputs": [
        {
          "indexed": false,
          "internalType": "uint8",
          "name": "gameId",
          "type": "uint8"
        },
        {
          "indexed": false,
          "internalType": "uint256",
          "name": "round",
          "type": "uint256"
        }
      ],
      "name": "SubmitPhaseStarted",
      "type": "event"
    },
    {
      "anonymous": false,
      "inputs": [
        {
          "indexed": false,
          "internalType": "uint8",
          "name": "gameId",
          "type": "uint8"
        }
      ],
      "name": "WorldUpdated",
      "type": "event"
    },
    {
      "inputs": [
        {
          "internalType": "address",
          "name": "playerAddress",
          "type": "address"
        },
        {
          "internalType": "uint8",
          "name": "gameId",
          "type": "uint8"
        },
        {
          "internalType": "uint8",
          "name": "_speed",
          "type": "uint8"
        },
        {
          "internalType": "uint8",
          "name": "_range",
          "type": "uint8"
        }
      ],
      "name": "addShip",
      "outputs": [],
      "stateMutability": "nonpayable",
      "type": "function"
    },
    {
      "inputs": [
        {
          "internalType": "bytes32",
          "name": "moveHash",
          "type": "bytes32"
        },
        {
          "internalType": "uint8",
          "name": "gameId",
          "type": "uint8"
        }
      ],
      "name": "commitMove",
      "outputs": [],
      "stateMutability": "nonpayable",
      "type": "function"
    },
    {
      "inputs": [
        {
          "internalType": "uint8",
          "name": "gameId",
          "type": "uint8"
        }
      ],
      "name": "endGame",
      "outputs": [],
      "stateMutability": "nonpayable",
      "type": "function"
    },
    {
      "inputs": [
        {
          "internalType": "uint256",
          "name": "",
          "type": "uint256"
        }
      ],
      "name": "games",
      "outputs": [
        {
          "internalType": "uint256",
          "name": "round",
          "type": "uint256"
        },
        {
          "internalType": "uint8",
          "name": "shrinkNo",
          "type": "uint8"
        },
        {
          "internalType": "bool",
          "name": "gameInProgress",
          "type": "bool"
        },
        {
          "internalType": "bool",
          "name": "stopAddingShips",
          "type": "bool"
        },
        {
          "internalType": "bool",
          "name": "letCommitMoves",
          "type": "bool"
        },
        {
          "internalType": "bool",
          "name": "letSubmitMoves",
          "type": "bool"
        }
      ],
      "stateMutability": "view",
      "type": "function"
    },
    {
      "inputs": [
        {
          "components": [
            {
              "internalType": "uint8",
              "name": "q",
              "type": "uint8"
            },
            {
              "internalType": "uint8",
              "name": "r",
              "type": "uint8"
            }
          ],
          "internalType": "struct SharedStructs.Coordinate",
          "name": "_coord",
          "type": "tuple"
        },
        {
          "internalType": "uint8",
          "name": "gameId",
          "type": "uint8"
        }
      ],
      "name": "getCell",
      "outputs": [
        {
          "components": [
            {
              "internalType": "uint8",
              "name": "q",
              "type": "uint8"
            },
            {
              "internalType": "uint8",
              "name": "r",
              "type": "uint8"
            },
            {
              "internalType": "bool",
              "name": "island",
              "type": "bool"
            },
            {
              "internalType": "bool",
              "name": "exists",
              "type": "bool"
            }
          ],
          "internalType": "struct SharedStructs.Cell",
          "name": "",
          "type": "tuple"
        }
      ],
      "stateMutability": "view",
      "type": "function"
    },
    {
      "inputs": [
        {
          "internalType": "uint8",
          "name": "gameId",
          "type": "uint8"
        }
      ],
      "name": "getCells",
      "outputs": [
        {
          "components": [
            {
              "internalType": "uint8",
              "name": "q",
              "type": "uint8"
            },
            {
              "internalType": "uint8",
              "name": "r",
              "type": "uint8"
            }
          ],
          "internalType": "struct SharedStructs.Coordinate[]",
          "name": "",
          "type": "tuple[]"
        }
      ],
      "stateMutability": "view",
      "type": "function"
    },
    {
      "inputs": [
        {
          "internalType": "uint8",
          "name": "gameId",
          "type": "uint8"
        }
      ],
      "name": "getRadius",
      "outputs": [
        {
          "internalType": "uint8",
          "name": "",
          "type": "uint8"
        }
      ],
      "stateMutability": "view",
      "type": "function"
    },
    {
      "inputs": [
        {
          "internalType": "uint8",
          "name": "gameId",
          "type": "uint8"
        }
      ],
      "name": "getShips",
      "outputs": [
        {
          "components": [
            {
              "components": [
                {
                  "internalType": "uint8",
                  "name": "q",
                  "type": "uint8"
                },
                {
                  "internalType": "uint8",
                  "name": "r",
                  "type": "uint8"
                }
              ],
              "internalType": "struct SharedStructs.Coordinate",
              "name": "coordinate",
              "type": "tuple"
            },
            {
              "internalType": "enum SharedStructs.Directions",
              "name": "travelDirection",
              "type": "uint8"
            },
            {
              "internalType": "uint8",
              "name": "travelDistance",
              "type": "uint8"
            },
            {
              "internalType": "enum SharedStructs.Directions",
              "name": "shotDirection",
              "type": "uint8"
            },
            {
              "internalType": "uint8",
              "name": "shotDistance",
              "type": "uint8"
            },
            {
              "internalType": "bool",
              "name": "publishedMove",
              "type": "bool"
            },
            {
              "internalType": "address",
              "name": "captain",
              "type": "address"
            },
            {
              "internalType": "uint8",
              "name": "yachtSpeed",
              "type": "uint8"
            },
            {
              "internalType": "uint8",
              "name": "yachtRange",
              "type": "uint8"
            },
            {
              "internalType": "uint8",
              "name": "gameId",
              "type": "uint8"
            }
          ],
          "internalType": "struct GamePunk.Ship[]",
          "name": "",
          "type": "tuple[]"
        }
      ],
      "stateMutability": "view",
      "type": "function"
    },
    {
      "inputs": [
        {
          "components": [
            {
              "internalType": "uint8",
              "name": "q",
              "type": "uint8"
            },
            {
              "internalType": "uint8",
              "name": "r",
              "type": "uint8"
            }
          ],
          "internalType": "struct SharedStructs.Coordinate",
          "name": "_start",
          "type": "tuple"
        },
        {
          "internalType": "enum SharedStructs.Directions",
          "name": "_dir",
          "type": "uint8"
        },
        {
          "internalType": "uint8",
          "name": "_distance",
          "type": "uint8"
        },
        {
          "internalType": "uint8",
          "name": "gameId",
          "type": "uint8"
        }
      ],
      "name": "move",
      "outputs": [
        {
          "components": [
            {
              "internalType": "uint8",
              "name": "q",
              "type": "uint8"
            },
            {
              "internalType": "uint8",
              "name": "r",
              "type": "uint8"
            }
          ],
          "internalType": "struct SharedStructs.Coordinate",
          "name": "",
          "type": "tuple"
        }
      ],
      "stateMutability": "view",
      "type": "function"
    },
    {
      "inputs": [],
      "name": "owner",
      "outputs": [
        {
          "internalType": "address",
          "name": "",
          "type": "address"
        }
      ],
      "stateMutability": "view",
      "type": "function"
    },
    {
      "inputs": [],
      "name": "registrationContract",
      "outputs": [
        {
          "internalType": "address",
          "name": "",
          "type": "address"
        }
      ],
      "stateMutability": "view",
      "type": "function"
    },
    {
      "inputs": [],
      "name": "renounceOwnership",
      "outputs": [],
      "stateMutability": "nonpayable",
      "type": "function"
    },
    {
      "inputs": [
        {
          "internalType": "address",
          "name": "_registrationContract",
          "type": "address"
        }
      ],
      "name": "setRegistrationContract",
      "outputs": [],
      "stateMutability": "nonpayable",
      "type": "function"
    },
    {
      "inputs": [
        {
          "internalType": "uint8",
          "name": "gameId",
          "type": "uint8"
        },
        {
          "internalType": "uint8",
          "name": "_radius",
          "type": "uint8"
        }
      ],
      "name": "startNewGame",
      "outputs": [],
      "stateMutability": "nonpayable",
      "type": "function"
    },
    {
      "inputs": [
        {
          "internalType": "enum SharedStructs.Directions[]",
          "name": "_travelDirections",
          "type": "uint8[]"
        },
        {
          "internalType": "uint8[]",
          "name": "_travelDistances",
          "type": "uint8[]"
        },
        {
          "internalType": "enum SharedStructs.Directions[]",
          "name": "_shotDirections",
          "type": "uint8[]"
        },
        {
          "internalType": "uint8[]",
          "name": "_shotDistances",
          "type": "uint8[]"
        },
        {
          "internalType": "bytes32[]",
          "name": "_secrets",
          "type": "bytes32[]"
        },
        {
          "internalType": "address[]",
          "name": "_playerAddresses",
          "type": "address[]"
        },
        {
          "internalType": "uint8",
          "name": "gameId",
          "type": "uint8"
        }
      ],
      "name": "submitMove",
      "outputs": [],
      "stateMutability": "nonpayable",
      "type": "function"
    },
    {
      "inputs": [
        {
          "internalType": "address",
          "name": "newOwner",
          "type": "address"
        }
      ],
      "name": "transferOwnership",
      "outputs": [],
      "stateMutability": "nonpayable",
      "type": "function"
    },
    {
      "inputs": [
        {
          "components": [
            {
              "internalType": "uint8",
              "name": "q",
              "type": "uint8"
            },
            {
              "internalType": "uint8",
              "name": "r",
              "type": "uint8"
            }
          ],
          "internalType": "struct SharedStructs.Coordinate",
          "name": "_startCell",
          "type": "tuple"
        },
        {
          "internalType": "enum SharedStructs.Directions",
          "name": "_direction",
          "type": "uint8"
        },
        {
          "internalType": "uint8",
          "name": "_distance",
          "type": "uint8"
        },
        {
          "internalType": "uint8",
          "name": "gameId",
          "type": "uint8"
        }
      ],
      "name": "travel",
      "outputs": [],
      "stateMutability": "nonpayable",
      "type": "function"
    },
    {
      "inputs": [
        {
          "internalType": "uint8",
          "name": "gameId",
          "type": "uint8"
        }
      ],
      "name": "updateWorld",
      "outputs": [],
      "stateMutability": "nonpayable",
      "type": "function"
    }
  ],
  "bytecode": "0x60a06040523480156200001157600080fd5b5060405162005005380380620050058339810160408190526200003491620000c9565b33806200005b57604051631e4fbdf760e01b81526000600482015260240160405180910390fd5b620000668162000079565b506001600160a01b0316608052620000fb565b600080546001600160a01b038381166001600160a01b0319831681178455604051919092169283917f8be0079c531659141344cd1fd0a4f28419497f9722a3daafe3b4186f6b6457e09190a35050565b600060208284031215620000dc57600080fd5b81516001600160a01b0381168114620000f457600080fd5b9392505050565b608051614e8c62000179600039600081816103bf01528181610509015281816105da015281816107640152818161091101528181610ade015281816110a10152818161168c0152818161298d01528181612a4e01528181612c3b01528181613084015281816139ac01528181613be70152613e9e0152614e8c6000f3fe608060405234801561001057600080fd5b50600436106101165760003560e01c8063978ac356116100a2578063d3db03cc11610071578063d3db03cc14610309578063e7c435a71461031c578063f10a39271461032f578063f2fde38b14610342578063fd8704461461035557600080fd5b8063978ac356146102b0578063c0026003146102c3578063d085a86f146102d6578063d1153bc3146102f657600080fd5b80634aac9b8b116100e95780634aac9b8b1461020f5780634d0238861461022f578063715018a614610284578063863375ac1461028c5780638da5cb5b1461029f57600080fd5b8063117a5b901461011b5780631cf8a321146101aa5780631e522c3e146101bf57806334361208146101ea575b600080fd5b61016c610129366004614106565b600160208190526000918252604090912080549181015460049091015460ff91821691818116916101008104821691620100008204811691630100000090041686565b6040805196875260ff909516602087015292151593850193909352151560608401529015156080830152151560a082015260c0015b60405180910390f35b6101bd6101b83660046141ff565b610375565b005b6002546101d2906001600160a01b031681565b6040516001600160a01b0390911681526020016101a1565b6101fd6101f8366004614258565b6104b3565b60405160ff90911681526020016101a1565b61022261021d366004614258565b610582565b6040516101a19190614275565b61024261023d3660046142d2565b61089a565b6040516101a19190600060808201905060ff835116825260ff602084015116602083015260408301511515604083015260608301511515606083015292915050565b6101bd610990565b6101bd61029a366004614258565b6109a4565b6000546001600160a01b03166101d2565b6101bd6102be366004614258565b610a3d565b6101bd6102d13660046144d8565b612592565b6102e96102e43660046141ff565b612bd4565b6040516101a191906145df565b6101bd6103043660046145fd565b612cbd565b6101bd61031736600461462b565b612e1d565b6101bd61032a366004614646565b612e47565b6101bd61033d36600461466b565b612f1f565b6101bd61035036600461462b565b61355d565b610368610363366004614258565b61359b565b6040516101a191906146f2565b60ff8082166000908152600160208190526040909120600401549091161515146103ba5760405162461bcd60e51b81526004016103b1906147fe565b60405180910390fd5b6000807f00000000000000000000000000000000000000000000000000000000000000006001600160a01b0316631cf8a321878787876040518563ffffffff1660e01b815260040161040f9493929190614835565b606060405180830381865afa15801561042c573d6000803e3d6000fd5b505050506040513d601f19601f8201168201806040525081019061045091906148c2565b915091508115610469576104643384613851565b6104ab565b805160ff8481166000908152600160209081526040808320338452600201825290912080549185015183166101000261ffff1990921692909316919091171790555b505050505050565b60ff80821660009081526001602081905260408220600401549192919091161515146104f15760405162461bcd60e51b81526004016103b1906147fe565b60405163436fadf360e11b815260ff831660048201527f00000000000000000000000000000000000000000000000000000000000000006001600160a01b0316906386df5be690602401602060405180830381865afa158015610558573d6000803e3d6000fd5b505050506040513d601f19601f8201168201806040525081019061057c91906148f6565b92915050565b60ff808216600090815260016020819052604090912060040154606092161515146105bf5760405162461bcd60e51b81526004016103b1906147fe565b60405163436fadf360e11b815260ff831660048201526000907f00000000000000000000000000000000000000000000000000000000000000006001600160a01b0316906386df5be690602401602060405180830381865afa158015610629573d6000803e3d6000fd5b505050506040513d601f19601f8201168201806040525081019061064d91906148f6565b9050600061065c826001614929565b610667836003614942565b6106719190614942565b61067c906001614929565b60ff16905060008167ffffffffffffffff81111561069c5761069c61411f565b6040519080825280602002602001820160405280156106e157816020015b60408051808201909152600080825260208201528152602001906001900390816106ba5790505b50905060405180604001604052808460ff1681526020018460ff16815250816000815181106107125761071261495e565b602090810291909101015260015b8360ff168160ff16116108915760008161073b600182614974565b610746906003614942565b6107509190614942565b61075b906001614929565b60ff16905060007f00000000000000000000000000000000000000000000000000000000000000006001600160a01b03166339e5c4a0856000815181106107a4576107a461495e565b6020026020010151856040518363ffffffff1660e01b81526004016107ca92919061498d565b600060405180830381865afa1580156107e7573d6000803e3d6000fd5b505050506040513d6000823e601f3d908101601f1916820160405261080f91908101906149bb565b905060005b81518160ff16101561087b57818160ff16815181106108355761083561495e565b6020026020010151858260ff168561084d9190614a57565b8151811061085d5761085d61495e565b6020026020010181905250808061087390614a6a565b915050610814565b505050808061088990614a6a565b915050610720565b50949350505050565b60408051608081018252600080825260208201819052918101829052606081019190915260ff8083166000908152600160208190526040909120600401549091161515146108fa5760405162461bcd60e51b81526004016103b1906147fe565b6040516326811c4360e11b81526001600160a01b037f00000000000000000000000000000000000000000000000000000000000000001690634d02388690610948908690869060040161498d565b608060405180830381865afa158015610965573d6000803e3d6000fd5b505050506040513d601f19601f820116820180604052508101906109899190614b0f565b9392505050565b61099861392a565b6109a26000613957565b565b6109ac61392a565b60ff8082166000908152600160208190526040909120600401549091161515146109e85760405162461bcd60e51b81526004016103b1906147fe565b60ff8116600081815260016020908152604091829020600401805460ff1916905590519182527f4df34531b3f238bc8f90ad83236d8c752e7444e434bb5fc99f888f0a6345c0e791015b60405180910390a150565b610a4561392a565b60ff808216600090815260016020819052604090912060040154909116151514610a815760405162461bcd60e51b81526004016103b1906147fe565b60ff8116600090815260016020526040902054610aa090600390614b2b565b600003610e4c5760ff81811660008181526001602081905260409182902001549051634affc34f60e01b8152600481019290925290911660248201527f00000000000000000000000000000000000000000000000000000000000000006001600160a01b031690634affc34f90604401600060405180830381600087803b158015610b2a57600080fd5b505af1158015610b3e573d6000803e3d6000fd5b50505060ff808316600090815260016020819052604082200180549092169250610b6783614a6a565b91906101000a81548160ff021916908360ff160217905550507fab00852360aeece33bb03176d4e62fbb27adf3fd1a81b9d543c1ae388003b0ac81604051610bb8919060ff91909116815260200190565b60405180910390a160005b60ff8083166000908152600160205260409020600301549082161015610e4a5760ff8083166000908152600160205260408120600381018054929360029092019284928616908110610c1757610c1761495e565b60009182526020808320909101546001600160a01b03168352828101939093526040918201902081518083019092525460ff808216835261010090910416918101919091529050610c6881846139a7565b15610e375760ff80841660009081526001602052604090206003018054610cb6928516908110610c9a57610c9a61495e565b6000918252602090912001546001600160a01b03168385613a46565b600160008460ff1681526020019081526020016000206003018260ff1681548110610ce357610ce361495e565b6000918252602091829020015460405160ff861681526001600160a01b03909116917f7098e36d986448e47b2ec53e41ddd178ac0774637ee2227e84baba39b0c1c7b1910160405180910390a260ff8316600090815260016020819052604090912060030180549091610d5591614b4d565b81548110610d6557610d6561495e565b9060005260206000200160009054906101000a90046001600160a01b0316600160008560ff1681526020019081526020016000206003018360ff1681548110610db057610db061495e565b600091825260208083209190910180546001600160a01b0319166001600160a01b03949094169390931790925560ff85168152600190915260409020600301805480610dfe57610dfe614b60565b600082815260209020810160001990810180546001600160a01b031916905501905560ff821615610e375781610e3381614b76565b9250505b5080610e4281614a6a565b915050610bc3565b505b60ff811660009081526001602052604081206003015467ffffffffffffffff811115610e7a57610e7a61411f565b604051908082528060200260200182016040528015610ebf57816020015b6040805180820190915260008082526020820152815260200190600190039081610e985790505b5060ff83166000908152600160205260408120600301549192509067ffffffffffffffff811115610ef257610ef261411f565b604051908082528060200260200182016040528015610f1b578160200160208202803683370190505b50905060005b60ff8085166000908152600160205260409020600301549082161015610f7a576001828260ff1681518110610f5857610f5861495e565b9115156020928302919091019091015280610f7281614a6a565b915050610f21565b5060005b60ff80851660009081526001602052604090206003015490821610156116215760ff8085166000908152600160205260408120600381018054929360029092019284928616908110610fd257610fd261495e565b60009182526020808320909101546001600160a01b039081168452908301939093526040909101902060010154650100000000009004161461160f5760ff808516600090815260016020526040812060038101805460029092019390919085169081106110415761104161495e565b60009182526020808320909101546001600160a01b0316835282019290925260400190206001015460ff640100000000909104161561160f5760ff8085166000908152600160205260408120600381018054929384936001600160a01b037f00000000000000000000000000000000000000000000000000000000000000001693631cf8a3219360029091019286929089169081106110e2576110e261495e565b60009182526020808320909101546001600160a01b03168352828101939093526040918201812060ff808d1683526001909452918120600381018054939460029092019390918a169081106111395761113961495e565b60009182526020808320909101546001600160a01b03168352828101939093526040918201812060019081015460ff8e8116845291909452918120600381018054948416946002909201939091908b169081106111985761119861495e565b60009182526020808320909101546001600160a01b0316835282019290925260409081019091206001015490516001600160e01b031960e086901b1681526111f093929160ff61010090910416908c90600401614b93565b606060405180830381865afa15801561120d573d6000803e3d6000fd5b505050506040513d601f19601f8201168201806040525081019061123191906148c2565b9150915081156113c257600160008760ff1681526020019081526020016000206003018360ff16815481106112685761126861495e565b600091825260209182902001548251838301516040805160ff808d168252938416958101959095529116908301526001600160a01b0316907fd44ddf7f8e572e76d7ed6bf350d88367a33cf9a7d19d5069c392802305d51f6c9060600160405180910390a260ff808716600090815260016020526040902060030180546113169286169081106112fa576112fa61495e565b6000918252602090912001546001600160a01b03168488613a46565b6000848460ff168151811061132d5761132d61495e565b91151560209283029190910182015260ff80881660009081526001909252604082206003810180548594600290930193881690811061136e5761136e61495e565b60009182526020808320909101546001600160a01b03168352828101939093526040909101902082518154939092015160ff9081166101000261ffff199094169216919091179190911790555061160f9050565b600160008760ff1681526020019081526020016000206003018360ff16815481106113ef576113ef61495e565b600091825260208083209091015460ff808a1684526001909252604083206003810180546001600160a01b03909316947ff1e9c1d54f160cab3c8602dcfbf5fbe3e012ed037d80057eca695f74d26077a0946002909301939092891690811061145a5761145a61495e565b60009182526020808320909101546001600160a01b0316835282810193909352604091820181205460ff8c8116835260019094529181206003810180549385169460029092019390918a169081106114b4576114b461495e565b6000918252602080832091909101546001600160a01b03168352828101939093526040918201902054865187840151835160ff96871681526101009093048616948301949094528416818301529183166060830152918a16608082015290519081900360a00190a260ff8087166000908152600160205260408120600381018054859460029093019392881690811061154f5761154f61495e565b60009182526020808320909101546001600160a01b031683528281019390935260409182018120845181549585015160ff9081166101000261ffff19909716918116919091179590951790558984168152600190925290206003018054909185169081106115bf576115bf61495e565b6000918252602091829020015460405160ff891681526001600160a01b03909116917f51f35fa2867d710ef60e6209b0ca28b42abd534ed14e1f8394e793f42253c9f6910160405180910390a250505b8061161981614a6a565b915050610f7e565b5060005b60ff80851660009081526001602052604090206003015490821610156119b357818160ff168151811061165a5761165a61495e565b6020026020010151156119a15760ff808516600090815260016020526040812060038101805492936001600160a01b037f0000000000000000000000000000000000000000000000000000000000000000169363d6192ad39360020192869290919088169081106116cd576116cd61495e565b60009182526020808320909101546001600160a01b03168352828101939093526040918201812060ff808c16835260019094529181206003810180549394600290920193909189169081106117245761172461495e565b60009182526020808320909101546001600160a01b03168352828101939093526040918201812060019081015460ff8d811684529190945291812060038101805462010000909504841694600292909201939091908a1690811061178a5761178a61495e565b60009182526020808320909101546001600160a01b0316835282019290925260409081019091206001015490516001600160e01b031960e086901b1681526117e293929160ff63010000009091041690600401614bb1565b6040805180830381865afa1580156117fe573d6000803e3d6000fd5b505050506040513d601f19601f820116820180604052508101906118229190614be9565b905080848360ff168151811061183a5761183a61495e565b6020026020010181905250600160008660ff1681526020019081526020016000206003018260ff16815481106118725761187261495e565b600091825260208083209091015460ff80891684526001909252604083206003810180546001600160a01b03909316947f78546d5ff977d70d771d8edba5bdd99150ec97e7837d6e2af4384b1605a4372d94600290930193909288169081106118dd576118dd61495e565b60009182526020808320909101546001600160a01b0316835282810193909352604091820181205460ff8b81168352600190945291812060038101805493851694600290920193909189169081106119375761193761495e565b6000918252602080832091909101546001600160a01b03168352828101939093526040918201902054865187840151835160ff96871681526101009093048616948301949094528416818301529183166060830152918916608082015290519081900360a00190a2505b806119ab81614a6a565b915050611625565b5060005b60ff8085166000908152600160205260409020600301549082161015611ffb5760005b60ff8086166000908152600160205260409020600301549082161015611fe8578060ff168260ff1614611fd657828260ff1681518110611a1c57611a1c61495e565b60200260200101518015611a495750828160ff1681518110611a4057611a4061495e565b60200260200101515b8015611b07575060ff80861660009081526001602052604081206003810180546002909201939091908616908110611a8357611a8361495e565b60009182526020808320909101546001600160a01b0316835282810193909352604091820181205460ff898116835260019094529181206003810180549385169460029092019390918616908110611add57611add61495e565b60009182526020808320909101546001600160a01b0316835282019290925260400190205460ff16145b8015611bd0575060ff80861660009081526001602052604081206003810180546002909201939091908616908110611b4157611b4161495e565b60009182526020808320909101546001600160a01b0316835282810193909352604091820181205460ff8981168352600190945291812060038101805461010090940485169460029092019390918616908110611ba057611ba061495e565b60009182526020808320909101546001600160a01b0316835282019290925260400190205460ff61010090910416145b15611dad576000838360ff1681518110611bec57611bec61495e565b6020026020010190151590811515815250506000838260ff1681518110611c1557611c1561495e565b602002602001019015159081151581525050600160008660ff1681526020019081526020016000206003018260ff1681548110611c5457611c5461495e565b6000918252602091829020015460405160ff881681526001600160a01b03909116917f783de3ac95b82563b70ac74b3a843e5f9f71a653b9518e6e1762b39151c0f710910160405180910390a2600160008660ff1681526020019081526020016000206003018160ff1681548110611cce57611cce61495e565b6000918252602091829020015460405160ff881681526001600160a01b03909116917f783de3ac95b82563b70ac74b3a843e5f9f71a653b9518e6e1762b39151c0f710910160405180910390a260ff80861660009081526001602052604090206003018054611d64928516908110611d4857611d4861495e565b6000918252602090912001546001600160a01b03168387613a46565b60ff80861660009081526001602052604090206003018054611dad928416908110611d9157611d9161495e565b6000918252602090912001546001600160a01b03168287613a46565b828260ff1681518110611dc257611dc261495e565b60200260200101518015611e56575060ff80861660009081526001602052604081206003810180546002909201939091908616908110611e0457611e0461495e565b60009182526020808320909101546001600160a01b03168352820192909252604001902054845160ff918216918691908416908110611e4557611e4561495e565b60200260200101516000015160ff16145b8015611ee7575060ff80861660009081526001602052604081206003810180546002909201939091908616908110611e9057611e9061495e565b60009182526020808320909101546001600160a01b03168352820192909252604001902054845160ff6101009092048216918691908416908110611ed657611ed661495e565b60200260200101516020015160ff16145b15611fd657600160008660ff1681526020019081526020016000206003018160ff1681548110611f1957611f1961495e565b600091825260208083209091015460ff80891684526001909252604090922060030180546001600160a01b039093169290918516908110611f5c57611f5c61495e565b6000918252602091829020015460405160ff891681526001600160a01b03909116917fb2ee3834f34c038f7f34d57f8ce213e4ee56fecd33556013e0f66b1e32ee14bc910160405180910390a360ff80861660009081526001602052604090206003018054611fd6928516908110611d4857611d4861495e565b80611fe081614a6a565b9150506119da565b5080611ff381614a6a565b9150506119b7565b5060005b60ff808516600090815260016020526040902060030154908216101561218a5760006001600160a01b0316600160008660ff1681526020019081526020016000206003018260ff16815481106120575761205761495e565b6000918252602090912001546001600160a01b0316036121785760ff841660009081526001602081905260409091206003018054909161209691614b4d565b815481106120a6576120a661495e565b9060005260206000200160009054906101000a90046001600160a01b0316600160008660ff1681526020019081526020016000206003018260ff16815481106120f1576120f161495e565b600091825260208083209190910180546001600160a01b0319166001600160a01b03949094169390931790925560ff8616815260019091526040902060030180548061213f5761213f614b60565b600082815260209020810160001990810180546001600160a01b031916905501905560ff811615612178578061217481614b76565b9150505b8061218281614a6a565b915050611fff565b5060ff831660009081526001602052604081206003015490036122085760405160ff841681526000907f8403b4a1c998f6768b577f2c265d744e2f4d05982059b4d82b34eb822bdc17d1906020015b60405180910390a260ff83166000908152600160205260409020600401805461ff001916610100179055612556565b60ff831660009081526001602081905260409091206003015490036122975760ff83166000908152600160205260408120600301805490919061224d5761224d61495e565b6000918252602091829020015460405160ff861681526001600160a01b03909116917f8403b4a1c998f6768b577f2c265d744e2f4d05982059b4d82b34eb822bdc17d191016121d9565b60ff8316600090815260016020526040812060030180549091906122bd576122bd61495e565b60009182526020808320919091015460405160ff871681526001600160a01b0390911692917f2cee3725d64bc62c413fa35348815210ff376bf4f13627d82b6ac0d0efc6e8cd910160405180910390a360005b60ff80851660009081526001602052604090206003015490821610156125225760ff80851660009081526001602052604081206003810180546006946002909301939286169081106123645761236461495e565b60009182526020808320909101546001600160a01b03168352820192909252604001902060019081018054909160ff19909116908360068111156123aa576123aa6146ba565b021790555060ff80851660009081526001602052604081206003810180549293600290920192849286169081106123e3576123e361495e565b6000918252602080832091909101546001600160a01b0316835282810193909352604091820181206001908101805461ff00191661010060ff978816021790558885168252909252812060038101805460069460029093019392861690811061244e5761244e61495e565b60009182526020808320909101546001600160a01b031683528201929092526040019020600101805462ff0000191662010000836006811115612493576124936146ba565b021790555060ff80851660009081526001602052604081206003810180549293600290920192849286169081106124cc576124cc61495e565b60009182526020808320909101546001600160a01b031683528201929092526040019020600101805460ff9290921663010000000263ff000000199092169190911790558061251a81614a6a565b915050612310565b5060ff83166000908152600160205260409020600401805463ff0000001916905561254c83613bc2565b5061255683613ce3565b60405160ff841681527fd44344392ee117b90bc172ab74cce9c43a862f0d5e11a336b3885fde466c244e906020015b60405180910390a1505050565b60ff8082166000908152600160208190526040909120600401549091161515146125ce5760405162461bcd60e51b81526004016103b1906147fe565b86518251146125ef5760405162461bcd60e51b81526004016103b190614c05565b85518751146126105760405162461bcd60e51b81526004016103b190614c05565b83518551146126315760405162461bcd60e51b81526004016103b190614c05565b81518351146126525760405162461bcd60e51b81526004016103b190614c05565b60005b8251811015612bca5760008882815181106126725761267261495e565b602002602001015188838151811061268c5761268c61495e565b60200260200101518884815181106126a6576126a661495e565b60200260200101518885815181106126c0576126c061495e565b60200260200101518886815181106126da576126da61495e565b60200260200101516040516020016126f6959493929190614c5f565b60405160208183030381529060405280519060200120905080600160008560ff168152602001908152602001600020600501600086858151811061273c5761273c61495e565b60200260200101516001600160a01b03166001600160a01b031681526020019081526020016000205403612bb7576000600160008560ff16815260200190815260200160002060020160008685815181106127995761279961495e565b60200260200101516001600160a01b03166001600160a01b0316815260200190815260200160002090508983815181106127d5576127d561495e565b60200260200101518160010160006101000a81548160ff02191690836006811115612802576128026146ba565b02179055508060010160199054906101000a900460ff1660ff1689848151811061282e5761282e61495e565b602002602001015160ff161161285d578883815181106128505761285061495e565b602002602001015161286d565b6001810154600160c81b900460ff165b8160010160016101000a81548160ff021916908360ff16021790555087838151811061289b5761289b61495e565b602090810291909101015160018201805462ff00001916620100008360068111156128c8576128c86146ba565b021790555080600101601a9054906101000a900460ff1660ff168784815181106128f4576128f461495e565b602002602001015160ff1611612923578683815181106129165761291661495e565b6020026020010151612933565b6001810154600160d01b900460ff165b60018201805464ff000000001960ff9384166301000000021664ffff00000019909116176401000000001790556040805180820190915282548083168252610100900490911660208201528a516000906001600160a01b037f00000000000000000000000000000000000000000000000000000000000000001690631a84a4ea9084908f90899081106129c8576129c861495e565b60200260200101518e89815181106129e2576129e261495e565b60200260200101516040518463ffffffff1660e01b8152600401612a0893929190614ca9565b6040805180830381865afa158015612a24573d6000803e3d6000fd5b505050506040513d601f19601f82011682018060405250810190612a489190614be9565b905060007f00000000000000000000000000000000000000000000000000000000000000006001600160a01b0316631a84a4ea838d8981518110612a8e57612a8e61495e565b60200260200101518d8a81518110612aa857612aa861495e565b60200260200101516040518463ffffffff1660e01b8152600401612ace93929190614ca9565b6040805180830381865afa158015612aea573d6000803e3d6000fd5b505050506040513d601f19601f82011682018060405250810190612b0e9190614be9565b9050878681518110612b2257612b2261495e565b60209081029190910181015160ff808a166000818152600185526040908190205487518887015188518989015185519687529886019390935290851692840192909252908316606083015282166080820152921660a08301526001600160a01b0316907faff0b78027ac9f4904ee624bc84e3126d0e7d96ce215c5db5158441acb0b38cf9060c00160405180910390a2505050505b5080612bc281614cc7565b915050612655565b5050505050505050565b604080518082019091526000808252602082015260ff808316600090815260016020819052604090912060040154909116151514612c245760405162461bcd60e51b81526004016103b1906147fe565b604051630d42527560e11b81526001600160a01b037f00000000000000000000000000000000000000000000000000000000000000001690631a84a4ea90612c7490889088908890600401614ca9565b6040805180830381865afa158015612c90573d6000803e3d6000fd5b505050506040513d601f19601f82011682018060405250810190612cb49190614be9565b95945050505050565b6002546001600160a01b03163314612ce75760405162461bcd60e51b81526004016103b190614ce0565b60ff8260ff1610612d3a5760405162461bcd60e51b815260206004820152601f60248201527f4d6178696d756d206e756d626572206f662067616d657320726561636865640060448201526064016103b1565b60ff8083166000908152600160205260409020600401541615612dad5760405162461bcd60e51b815260206004820152602560248201527f47616d652077697468207468697320494420616c726561647920696e2070726f604482015264677265737360d81b60648201526084016103b1565b60ff82166000908152600160208190526040909120600401805460ff19169091179055612dda8183613d74565b612de382613ce3565b60405160ff831681527f13cb55fc1bec4b9f4cd4c22f154240b469cb108a23a35aa599df0c3da46f2d149060200160405180910390a15050565b612e2561392a565b600280546001600160a01b0319166001600160a01b0392909216919091179055565b60ff808216600090815260016020819052604090912060040154620100009004909116151514612ec35760405162461bcd60e51b815260206004820152602160248201527f436f6d6d6974206d6f76657320686173206e6f742073746172746564207965746044820152602160f81b60648201526084016103b1565b60ff811660008181526001602090815260408083203380855260059091018352928190208690555192835290917f38b5330dac100f70d75e8ee186192e45592ca13e2ea5e536677df27911c04897910160405180910390a25050565b6002546001600160a01b03163314612f495760405162461bcd60e51b81526004016103b190614ce0565b60ff808416600090815260016020819052604090912060040154909116151514612f855760405162461bcd60e51b81526004016103b1906147fe565b60ff80841660009081526001602090815260408083206001600160a01b03891684526002019091529020541615801590612fee575060ff80841660009081526001602090815260408083206001600160a01b038916845260020190915290205461010090041615155b156130555760ff83811660009081526001602090815260408083206001600160a01b0389168085526002909101909252918290205491516308538db760e41b81526004810191909152818316602482015261010090910490911660448201526064016103b1565b604080518082019091526000808252602082015260005b6040516342c39d9160e01b815260ff861660048201527f00000000000000000000000000000000000000000000000000000000000000006001600160a01b0316906342c39d919060240160408051808303816000875af11580156130d4573d6000803e3d6000fd5b505050506040513d601f19601f820116820180604052508101906130f89190614be9565b915061313e604051806040016040528060138152602001724e657720726e6420706169722025732c20257360681b815250836000015160ff16846020015160ff16614025565b60005b60ff80871660009081526001602052604090206003015490821610156132dd576131e56040518060400160405280601781526020017f696e206c6f6f702025732c20616464726573733a2025730000000000000000008152508260ff16600160008a60ff1681526020019081526020016000206003018460ff16815481106131cb576131cb61495e565b6000918252602090912001546001600160a01b031661406c565b825160ff878116600090815260016020526040812060038101805494841694600290920193909190861690811061321e5761321e61495e565b60009182526020808320909101546001600160a01b0316835282019290925260400190205460ff161480156132bd575060208084015160ff8881166000908152600190935260408320600381018054938316946002909201939192909190861690811061328d5761328d61495e565b60009182526020808320909101546001600160a01b0316835282019290925260400190205460ff61010090910416145b156132cb57600191506132dd565b806132d581614a6a565b915050613141565b508061306c57604080516101408101825283815260006020808301828152838501839052606084018390526080840183905260a084018390526001600160a01b038b1660c0850181905260ff8a811660e0870152898116610100808801919091528c82166101208801819052865260018086528887209387526002909301855296909420855180518254919095015194861661ffff1990911617939094169095029190911782555181840180549394859460ff1916908360068111156133a5576133a56146ba565b0217905550604082015160018201805460ff9092166101000261ff001983168117825560608501519262ff00001990911662ffff001990911617620100008360068111156133f5576133f56146ba565b02179055506080828101516001928301805460a08087015160c088015160e08901516101008a0151610120909a015164ffff00000019909516630100000060ff9889160264ff00000000191617640100000000931515939093029290921765010000000000600160d01b031916650100000000006001600160a01b039283160260ff60c81b191617600160c81b928716929092029190911761ffff60d01b1916600160d01b9886169890980260ff60d81b191697909717600160d81b92851692909202919091179091558a82166000818152602086815260408083206003018054988901815583529181902090960180546001600160a01b031916978f16978817905589518a870151825193845290851696830196909652948316948101949094528982166060850152908816918301919091527f5e5c5018f010da587f4ea3677380307dc0fb74d57d455db252799686dbfbd059910160405180910390a250505050505050565b61356561392a565b6001600160a01b03811661358f57604051631e4fbdf760e01b8152600060048201526024016103b1565b61359881613957565b50565b60ff808216600090815260016020819052604090912060040154606092161515146135d85760405162461bcd60e51b81526004016103b1906147fe565b60ff821660009081526001602052604081206003015467ffffffffffffffff8111156136065761360661411f565b60405190808252806020026020018201604052801561369457816020015b604080516101808101825260006101408201818152610160830182905282526020808301829052928201819052606082018190526080820181905260a0820181905260c0820181905260e08201819052610100820181905261012082015282526000199092019101816136245790505b50905060005b60ff841660009081526001602052604090206003015481101561384a5760ff8416600090815260016020526040812060038101805460029092019291849081106136e6576136e661495e565b60009182526020808320909101546001600160a01b03168352828101939093526040918201902081516101808101909252805460ff8082166101408501908152610100909204811661016085015290835260018201549293919291840191166006811115613756576137566146ba565b6006811115613767576137676146ba565b8152600182015460ff6101008204811660208401526040909201916201000090910416600681111561379b5761379b6146ba565b60068111156137ac576137ac6146ba565b81526001919091015460ff630100000082048116602084015264010000000082048116151560408401526001600160a01b03650100000000008304166060840152600160c81b820481166080840152600160d01b8204811660a0840152600160d81b9091041660c090910152825183908390811061382c5761382c61495e565b6020026020010181905250808061384290614cc7565b91505061369a565b5092915050565b60ff80821660009081526001602081905260409091206004015490911615151461388d5760405162461bcd60e51b81526004016103b1906147fe565b6000805b60ff80841660009081526001602052604090206003015490821610156139195760ff808416600090815260016020526040902060030180546001600160a01b0387169284169081106138e5576138e561495e565b6000918252602090912001546001600160a01b03160361390757809150613919565b8061391181614a6a565b915050613891565b50613925838284613a46565b505050565b6000546001600160a01b031633146109a25760405163118cdaa760e01b81523360048201526024016103b1565b600080546001600160a01b038381166001600160a01b0319831681178455604051919092169283917f8be0079c531659141344cd1fd0a4f28419497f9722a3daafe3b4186f6b6457e09190a35050565b6000807f00000000000000000000000000000000000000000000000000000000000000006001600160a01b0316634d02388685856040518363ffffffff1660e01b81526004016139f892919061498d565b608060405180830381865afa158015613a15573d6000803e3d6000fd5b505050506040513d601f19601f82011682018060405250810190613a399190614b0f565b6060015115949350505050565b60ff80821660009081526001602052604090206003015490831610613aad5760405162461bcd60e51b815260206004820152601860248201527f496e6465782076616c7565206f7574206f662072616e6765000000000000000060448201526064016103b1565b60ff808216600090815260016020819052604090912060040154909116151514613ae95760405162461bcd60e51b81526004016103b1906147fe565b60405160ff821681526001600160a01b038416907fabe2a4edb03972506a4064b683e5482b1f09f2fb96bd4463b7b15b38cbd5b1869060200160405180910390a260ff80821660008181526001602081815260408084206001600160a01b038a168552600281018352908420805461ffff19168155830180546001600160e01b0319169055938352526003909101805491929091908516908110613b8f57613b8f61495e565b9060005260206000200160006101000a8154816001600160a01b0302191690836001600160a01b03160217905550505050565b60405163436fadf360e11b815260ff8216600482015260009081906001600160a01b037f000000000000000000000000000000000000000000000000000000000000000016906386df5be690602401602060405180830381865afa158015613c2e573d6000803e3d6000fd5b505050506040513d601f19601f82011682018060405250810190613c5291906148f6565b60ff84166000908152600160205260408120805492935090613c7383614cc7565b909155505060ff838116600081815260016020908152604091829020548251938452908301529183168183015290517f44d8fc4a70679f71d5b762b5218cbfb0c858bb7e015b1effe03793d2909c20f69181900360600190a1505060ff1660009081526001602052604090205490565b60ff808216600090815260016020819052604090912060040154909116151514613d1f5760405162461bcd60e51b81526004016103b1906147fe565b60ff8116600081815260016020908152604091829020600401805462ff000019166201000017905590519182527f1b6143a1b1d77ae88590d660e0164f9edf35dd3d002f5de8a6ecf46a3c3ba0e39101610a32565b60ff808216600090815260016020819052604090912060040154909116151514613db05760405162461bcd60e51b81526004016103b1906147fe565b60005b60ff8216600090815260016020526040902060030154811015613e4f5760ff821660009081526001602052604081206003810180546002909201929184908110613dff57613dff61495e565b60009182526020808320909101546001600160a01b031683528201929092526040019020805461ffff1916815560010180546001600160e01b031916905580613e4781614cc7565b915050613db3565b5060ff81166000908152600160205260408120613e71916003909101906140d4565b613e7a81613bc2565b50604051631a405d8760e31b815260ff8084166004830152821660248201526000907f00000000000000000000000000000000000000000000000000000000000000006001600160a01b03169063d202ec38906044016000604051808303816000875af1158015613eef573d6000803e3d6000fd5b505050506040513d6000823e601f3d908101601f19168201604052613f179190810190614d27565b905060005b8151811015613fea577fa0c5e7441ab424c9fb8f47238c88c2c172bf9be1898748ea348b2a8bb92d6dbb83838381518110613f5957613f5961495e565b602002602001015160000151848481518110613f7757613f7761495e565b602002602001015160200151858581518110613f9557613f9561495e565b602002602001015160400151604051613fd0949392919060ff9485168152928416602084015292166040820152901515606082015260800190565b60405180910390a180613fe281614cc7565b915050613f1c565b506040805160ff8086168252841660208201527fd76a0a97b7d547fef69b0cd90fb02087b761703ae2b5e4e91a99e8fd17e308ad9101612585565b61392583838360405160240161403d93929190614dfe565b60408051601f198184030181529190526020810180516001600160e01b031663ca47c4eb60e01b1790526140af565b61392583838360405160240161408493929190614e23565b60408051601f198184030181529190526020810180516001600160e01b031663038fd88960e31b1790525b6135988160006a636f6e736f6c652e6c6f679050600080835160208501845afa505050565b508054600082559060005260206000209081019061359891905b8082111561410257600081556001016140ee565b5090565b60006020828403121561411857600080fd5b5035919050565b634e487b7160e01b600052604160045260246000fd5b6040805190810167ffffffffffffffff811182821017156141585761415861411f565b60405290565b604051601f8201601f1916810167ffffffffffffffff811182821017156141875761418761411f565b604052919050565b60ff8116811461359857600080fd5b80356141a98161418f565b919050565b6000604082840312156141c057600080fd5b6141c8614135565b905081356141d58161418f565b815260208201356141e58161418f565b602082015292915050565b8035600781106141a957600080fd5b60008060008060a0858703121561421557600080fd5b61421f86866141ae565b935061422d604086016141f0565b9250606085013561423d8161418f565b9150608085013561424d8161418f565b939692955090935050565b60006020828403121561426a57600080fd5b81356109898161418f565b602080825282518282018190526000919060409081850190868401855b828110156142c5576142b5848351805160ff908116835260209182015116910152565b9284019290850190600101614292565b5091979650505050505050565b600080606083850312156142e557600080fd5b6142ef84846141ae565b915060408301356142ff8161418f565b809150509250929050565b600067ffffffffffffffff8211156143245761432461411f565b5060051b60200190565b600082601f83011261433f57600080fd5b8135602061435461434f8361430a565b61415e565b82815260059290921b8401810191818101908684111561437357600080fd5b8286015b8481101561439557614388816141f0565b8352918301918301614377565b509695505050505050565b600082601f8301126143b157600080fd5b813560206143c161434f8361430a565b82815260059290921b840181019181810190868411156143e057600080fd5b8286015b848110156143955780356143f78161418f565b83529183019183016143e4565b600082601f83011261441557600080fd5b8135602061442561434f8361430a565b82815260059290921b8401810191818101908684111561444457600080fd5b8286015b848110156143955780358352918301918301614448565b80356001600160a01b03811681146141a957600080fd5b600082601f83011261448757600080fd5b8135602061449761434f8361430a565b82815260059290921b840181019181810190868411156144b657600080fd5b8286015b84811015614395576144cb8161445f565b83529183019183016144ba565b600080600080600080600060e0888a0312156144f357600080fd5b873567ffffffffffffffff8082111561450b57600080fd5b6145178b838c0161432e565b985060208a013591508082111561452d57600080fd5b6145398b838c016143a0565b975060408a013591508082111561454f57600080fd5b61455b8b838c0161432e565b965060608a013591508082111561457157600080fd5b61457d8b838c016143a0565b955060808a013591508082111561459357600080fd5b61459f8b838c01614404565b945060a08a01359150808211156145b557600080fd5b506145c28a828b01614476565b9250506145d160c0890161419e565b905092959891949750929550565b6040810161057c8284805160ff908116835260209182015116910152565b6000806040838503121561461057600080fd5b823561461b8161418f565b915060208301356142ff8161418f565b60006020828403121561463d57600080fd5b6109898261445f565b6000806040838503121561465957600080fd5b8235915060208301356142ff8161418f565b6000806000806080858703121561468157600080fd5b61468a8561445f565b9350602085013561469a8161418f565b925060408501356146aa8161418f565b9150606085013561424d8161418f565b634e487b7160e01b600052602160045260246000fd5b600781106146ee57634e487b7160e01b600052602160045260246000fd5b9052565b602080825282518282018190526000919060409081850190868401855b828110156142c5578151614734858251805160ff908116835260209182015116910152565b86810151614744878701826146d0565b508581015160606147598188018360ff169052565b8201519050608061476c878201836146d0565b820151905060a06147818782018360ff169052565b820151905060c06147958782018315159052565b820151905060e06147b0878201836001600160a01b03169052565b82015190506101006147c68782018360ff169052565b82015190506101206147dc8782018360ff169052565b919091015160ff1661014086015250610160909301929085019060010161470f565b60208082526019908201527f47616d6520686173206e6f742073746172746564207965742100000000000000604082015260600190565b60a081016148538287805160ff908116835260209182015116910152565b61486060408301866146d0565b60ff8416606083015260ff8316608083015295945050505050565b805180151581146141a957600080fd5b60006040828403121561489d57600080fd5b6148a5614135565b905081516148b28161418f565b815260208201516141e58161418f565b600080606083850312156148d557600080fd5b6148de8361487b565b91506148ed846020850161488b565b90509250929050565b60006020828403121561490857600080fd5b81516109898161418f565b634e487b7160e01b600052601160045260246000fd5b60ff818116838216019081111561057c5761057c614913565b60ff818116838216029081169081811461384a5761384a614913565b634e487b7160e01b600052603260045260246000fd5b60ff828116828216039081111561057c5761057c614913565b606081016149ab8285805160ff908116835260209182015116910152565b60ff831660408301529392505050565b600060208083850312156149ce57600080fd5b825167ffffffffffffffff8111156149e557600080fd5b8301601f810185136149f657600080fd5b8051614a0461434f8261430a565b81815260069190911b82018301908381019087831115614a2357600080fd5b928401925b82841015614a4c57614a3a888561488b565b82528482019150604084019350614a28565b979650505050505050565b8082018082111561057c5761057c614913565b600060ff821660ff8103614a8057614a80614913565b60010192915050565b600060808284031215614a9b57600080fd5b6040516080810181811067ffffffffffffffff82111715614abe57614abe61411f565b80604052508091508251614ad18161418f565b81526020830151614ae18161418f565b6020820152614af26040840161487b565b6040820152614b036060840161487b565b60608201525092915050565b600060808284031215614b2157600080fd5b6109898383614a89565b600082614b4857634e487b7160e01b600052601260045260246000fd5b500690565b8181038181111561057c5761057c614913565b634e487b7160e01b600052603160045260246000fd5b600060ff821680614b8957614b89614913565b6000190192915050565b845460ff808216835260089190911c16602082015260a08101614853565b835460ff808216835260089190911c166020820152608081015b614bd860408301856146d0565b60ff83166060830152949350505050565b600060408284031215614bfb57600080fd5b610989838361488b565b6020808252818101527f417272617973206d7573742068617665207468652073616d65206c656e677468604082015260600190565b60078110614c5857634e487b7160e01b600052602160045260246000fd5b60f81b9052565b614c698187614c3a565b600060ff60f81b808760f81b166001840152614c886002840187614c3a565b60f89490941b90931660038201526004810191909152602401949350505050565b60808101614bcb8286805160ff908116835260209182015116910152565b600060018201614cd957614cd9614913565b5060010190565b60208082526027908201527f43616c6c6572206973206e6f742074686520726567697374726174696f6e20636040820152661bdb9d1c9858dd60ca1b606082015260800190565b60006020808385031215614d3a57600080fd5b825167ffffffffffffffff811115614d5157600080fd5b8301601f81018513614d6257600080fd5b8051614d7061434f8261430a565b81815260079190911b82018301908381019087831115614d8f57600080fd5b928401925b82841015614a4c57614da68885614a89565b82528482019150608084019350614d94565b6000815180845260005b81811015614dde57602081850181015186830182015201614dc2565b506000602082860101526020601f19601f83011685010191505092915050565b606081526000614e116060830186614db8565b60208301949094525060400152919050565b606081526000614e366060830186614db8565b6020830194909452506001600160a01b039190911660409091015291905056fea264697066735822122037919cec9577a67dc1fdfc81c67c4fc6533e9049ea8d794b4514bf012ffa30c564736f6c63430008140033",
  "linkReferences": {},
  "deployedLinkReferences": {}
}