{
  "_format": "hh-sol-artifact-1",
  "contractName": "GamePunk",
  "sourceName": "contracts/GamePunk.sol",
  "abi": [
    {
      "inputs": [
        {
          "internalType": "address",
          "name": "_mapAddress",
          "type": "address"
        }
      ],
      "stateMutability": "nonpayable",
      "type": "constructor"
    },
    {
      "inputs": [
        {
          "internalType": "address",
          "name": "owner",
          "type": "address"
        }
      ],
      "name": "OwnableInvalidOwner",
      "type": "error"
    },
    {
      "inputs": [
        {
          "internalType": "address",
          "name": "account",
          "type": "address"
        }
      ],
      "name": "OwnableUnauthorizedAccount",
      "type": "error"
    },
    {
      "inputs": [
        {
          "internalType": "address",
          "name": "player",
          "type": "address"
        },
        {
          "internalType": "uint8",
          "name": "q",
          "type": "uint8"
        },
        {
          "internalType": "uint8",
          "name": "r",
          "type": "uint8"
        }
      ],
      "name": "ShipAlreadyAdded",
      "type": "error"
    },
    {
      "anonymous": false,
      "inputs": [
        {
          "indexed": false,
          "internalType": "uint8",
          "name": "gameId",
          "type": "uint8"
        },
        {
          "indexed": false,
          "internalType": "uint8",
          "name": "q",
          "type": "uint8"
        },
        {
          "indexed": false,
          "internalType": "uint8",
          "name": "r",
          "type": "uint8"
        },
        {
          "indexed": false,
          "internalType": "bool",
          "name": "island",
          "type": "bool"
        }
      ],
      "name": "Cell",
      "type": "event"
    },
    {
      "anonymous": false,
      "inputs": [
        {
          "indexed": false,
          "internalType": "uint8",
          "name": "gameId",
          "type": "uint8"
        }
      ],
      "name": "CommitPhaseStarted",
      "type": "event"
    },
    {
      "anonymous": false,
      "inputs": [
        {
          "indexed": false,
          "internalType": "uint8",
          "name": "gameId",
          "type": "uint8"
        }
      ],
      "name": "GameEnded",
      "type": "event"
    },
    {
      "anonymous": false,
      "inputs": [
        {
          "indexed": false,
          "internalType": "uint8",
          "name": "gameId",
          "type": "uint8"
        }
      ],
      "name": "GameStarted",
      "type": "event"
    },
    {
      "anonymous": false,
      "inputs": [
        {
          "indexed": true,
          "internalType": "bool",
          "name": "gameStatus",
          "type": "bool"
        },
        {
          "indexed": true,
          "internalType": "address",
          "name": "winnerAddress",
          "type": "address"
        },
        {
          "indexed": false,
          "internalType": "uint8",
          "name": "gameId",
          "type": "uint8"
        }
      ],
      "name": "GameUpdated",
      "type": "event"
    },
    {
      "anonymous": false,
      "inputs": [
        {
          "indexed": true,
          "internalType": "address",
          "name": "winner",
          "type": "address"
        },
        {
          "indexed": false,
          "internalType": "uint8",
          "name": "gameId",
          "type": "uint8"
        }
      ],
      "name": "GameWinner",
      "type": "event"
    },
    {
      "anonymous": false,
      "inputs": [
        {
          "indexed": false,
          "internalType": "uint8",
          "name": "radius",
          "type": "uint8"
        },
        {
          "indexed": false,
          "internalType": "uint8",
          "name": "gameId",
          "type": "uint8"
        }
      ],
      "name": "MapInitialized",
      "type": "event"
    },
    {
      "anonymous": false,
      "inputs": [
        {
          "indexed": false,
          "internalType": "uint8",
          "name": "gameId",
          "type": "uint8"
        }
      ],
      "name": "MapShrink",
      "type": "event"
    },
    {
      "anonymous": false,
      "inputs": [
        {
          "indexed": true,
          "internalType": "address",
          "name": "player",
          "type": "address"
        },
        {
          "indexed": false,
          "internalType": "uint8",
          "name": "gameId",
          "type": "uint8"
        }
      ],
      "name": "MoveCommitted",
      "type": "event"
    },
    {
      "anonymous": false,
      "inputs": [
        {
          "indexed": true,
          "internalType": "address",
          "name": "player",
          "type": "address"
        },
        {
          "indexed": false,
          "internalType": "uint8",
          "name": "gameId",
          "type": "uint8"
        },
        {
          "indexed": false,
          "internalType": "uint256",
          "name": "roundId",
          "type": "uint256"
        },
        {
          "indexed": false,
          "internalType": "uint8",
          "name": "destQ",
          "type": "uint8"
        },
        {
          "indexed": false,
          "internalType": "uint8",
          "name": "destR",
          "type": "uint8"
        },
        {
          "indexed": false,
          "internalType": "uint8",
          "name": "shotQ",
          "type": "uint8"
        },
        {
          "indexed": false,
          "internalType": "uint8",
          "name": "shotR",
          "type": "uint8"
        }
      ],
      "name": "MoveSubmitted",
      "type": "event"
    },
    {
      "anonymous": false,
      "inputs": [
        {
          "indexed": false,
          "internalType": "uint8",
          "name": "gameId",
          "type": "uint8"
        },
        {
          "indexed": false,
          "internalType": "uint256",
          "name": "roundId",
          "type": "uint256"
        },
        {
          "indexed": false,
          "internalType": "uint8",
          "name": "radius",
          "type": "uint8"
        }
      ],
      "name": "NewRound",
      "type": "event"
    },
    {
      "anonymous": false,
      "inputs": [
        {
          "indexed": true,
          "internalType": "address",
          "name": "previousOwner",
          "type": "address"
        },
        {
          "indexed": true,
          "internalType": "address",
          "name": "newOwner",
          "type": "address"
        }
      ],
      "name": "OwnershipTransferred",
      "type": "event"
    },
    {
      "anonymous": false,
      "inputs": [
        {
          "indexed": true,
          "internalType": "address",
          "name": "player",
          "type": "address"
        },
        {
          "indexed": false,
          "internalType": "uint8",
          "name": "gameId",
          "type": "uint8"
        },
        {
          "indexed": false,
          "internalType": "uint8",
          "name": "q",
          "type": "uint8"
        },
        {
          "indexed": false,
          "internalType": "uint8",
          "name": "r",
          "type": "uint8"
        },
        {
          "indexed": false,
          "internalType": "uint8",
          "name": "speed",
          "type": "uint8"
        },
        {
          "indexed": false,
          "internalType": "uint8",
          "name": "range",
          "type": "uint8"
        }
      ],
      "name": "PlayerAdded",
      "type": "event"
    },
    {
      "anonymous": false,
      "inputs": [
        {
          "indexed": true,
          "internalType": "address",
          "name": "player",
          "type": "address"
        },
        {
          "indexed": false,
          "internalType": "uint8",
          "name": "gameId",
          "type": "uint8"
        }
      ],
      "name": "PlayerDefeated",
      "type": "event"
    },
    {
      "anonymous": false,
      "inputs": [
        {
          "indexed": true,
          "internalType": "address",
          "name": "captain",
          "type": "address"
        },
        {
          "indexed": false,
          "internalType": "uint8",
          "name": "gameId",
          "type": "uint8"
        },
        {
          "indexed": false,
          "internalType": "uint8",
          "name": "q",
          "type": "uint8"
        },
        {
          "indexed": false,
          "internalType": "uint8",
          "name": "r",
          "type": "uint8"
        }
      ],
      "name": "ShipCollidedWithIsland",
      "type": "event"
    },
    {
      "anonymous": false,
      "inputs": [
        {
          "indexed": true,
          "internalType": "address",
          "name": "victim",
          "type": "address"
        },
        {
          "indexed": true,
          "internalType": "address",
          "name": "attacker",
          "type": "address"
        },
        {
          "indexed": false,
          "internalType": "uint8",
          "name": "gameId",
          "type": "uint8"
        }
      ],
      "name": "ShipHit",
      "type": "event"
    },
    {
      "anonymous": false,
      "inputs": [
        {
          "indexed": true,
          "internalType": "address",
          "name": "captain",
          "type": "address"
        },
        {
          "indexed": false,
          "internalType": "uint8",
          "name": "initialQ",
          "type": "uint8"
        },
        {
          "indexed": false,
          "internalType": "uint8",
          "name": "initialR",
          "type": "uint8"
        },
        {
          "indexed": false,
          "internalType": "uint8",
          "name": "q",
          "type": "uint8"
        },
        {
          "indexed": false,
          "internalType": "uint8",
          "name": "r",
          "type": "uint8"
        },
        {
          "indexed": false,
          "internalType": "uint8",
          "name": "gameId",
          "type": "uint8"
        }
      ],
      "name": "ShipMoved",
      "type": "event"
    },
    {
      "anonymous": false,
      "inputs": [
        {
          "indexed": true,
          "internalType": "address",
          "name": "captain",
          "type": "address"
        },
        {
          "indexed": false,
          "internalType": "uint8",
          "name": "gameId",
          "type": "uint8"
        }
      ],
      "name": "ShipMovedInGame",
      "type": "event"
    },
    {
      "anonymous": false,
      "inputs": [
        {
          "indexed": true,
          "internalType": "address",
          "name": "captain",
          "type": "address"
        },
        {
          "indexed": false,
          "internalType": "uint8",
          "name": "fromQ",
          "type": "uint8"
        },
        {
          "indexed": false,
          "internalType": "uint8",
          "name": "fromR",
          "type": "uint8"
        },
        {
          "indexed": false,
          "internalType": "uint8",
          "name": "shotQ",
          "type": "uint8"
        },
        {
          "indexed": false,
          "internalType": "uint8",
          "name": "shotR",
          "type": "uint8"
        },
        {
          "indexed": false,
          "internalType": "uint8",
          "name": "gameId",
          "type": "uint8"
        }
      ],
      "name": "ShipShot",
      "type": "event"
    },
    {
      "anonymous": false,
      "inputs": [
        {
          "indexed": true,
          "internalType": "address",
          "name": "captain",
          "type": "address"
        },
        {
          "indexed": false,
          "internalType": "uint8",
          "name": "gameId",
          "type": "uint8"
        }
      ],
      "name": "ShipSunk",
      "type": "event"
    },
    {
      "anonymous": false,
      "inputs": [
        {
          "indexed": true,
          "internalType": "address",
          "name": "captain",
          "type": "address"
        },
        {
          "indexed": false,
          "internalType": "uint8",
          "name": "gameId",
          "type": "uint8"
        }
      ],
      "name": "ShipSunkOutOfMap",
      "type": "event"
    },
    {
      "anonymous": false,
      "inputs": [
        {
          "indexed": false,
          "internalType": "uint8",
          "name": "gameId",
          "type": "uint8"
        },
        {
          "indexed": false,
          "internalType": "uint256",
          "name": "round",
          "type": "uint256"
        }
      ],
      "name": "SubmitPhaseStarted",
      "type": "event"
    },
    {
      "anonymous": false,
      "inputs": [
        {
          "indexed": false,
          "internalType": "uint8",
          "name": "gameId",
          "type": "uint8"
        }
      ],
      "name": "WorldUpdated",
      "type": "event"
    },
    {
      "inputs": [
        {
          "internalType": "address",
          "name": "playerAddress",
          "type": "address"
        },
        {
          "internalType": "uint8",
          "name": "gameId",
          "type": "uint8"
        },
        {
          "internalType": "uint8",
          "name": "_speed",
          "type": "uint8"
        },
        {
          "internalType": "uint8",
          "name": "_range",
          "type": "uint8"
        }
      ],
      "name": "addShip",
      "outputs": [],
      "stateMutability": "nonpayable",
      "type": "function"
    },
    {
      "inputs": [
        {
          "internalType": "bytes32",
          "name": "moveHash",
          "type": "bytes32"
        },
        {
          "internalType": "uint8",
          "name": "gameId",
          "type": "uint8"
        }
      ],
      "name": "commitMove",
      "outputs": [],
      "stateMutability": "nonpayable",
      "type": "function"
    },
    {
      "inputs": [
        {
          "internalType": "uint8",
          "name": "gameId",
          "type": "uint8"
        }
      ],
      "name": "endGame",
      "outputs": [],
      "stateMutability": "nonpayable",
      "type": "function"
    },
    {
      "inputs": [
        {
          "internalType": "uint256",
          "name": "",
          "type": "uint256"
        }
      ],
      "name": "games",
      "outputs": [
        {
          "internalType": "uint256",
          "name": "round",
          "type": "uint256"
        },
        {
          "internalType": "uint8",
          "name": "shrinkNo",
          "type": "uint8"
        },
        {
          "internalType": "bool",
          "name": "gameInProgress",
          "type": "bool"
        },
        {
          "internalType": "bool",
          "name": "stopAddingShips",
          "type": "bool"
        },
        {
          "internalType": "bool",
          "name": "letCommitMoves",
          "type": "bool"
        },
        {
          "internalType": "bool",
          "name": "letSubmitMoves",
          "type": "bool"
        }
      ],
      "stateMutability": "view",
      "type": "function"
    },
    {
      "inputs": [
        {
          "components": [
            {
              "internalType": "uint8",
              "name": "q",
              "type": "uint8"
            },
            {
              "internalType": "uint8",
              "name": "r",
              "type": "uint8"
            }
          ],
          "internalType": "struct SharedStructs.Coordinate",
          "name": "_coord",
          "type": "tuple"
        },
        {
          "internalType": "uint8",
          "name": "gameId",
          "type": "uint8"
        }
      ],
      "name": "getCell",
      "outputs": [
        {
          "components": [
            {
              "internalType": "uint8",
              "name": "q",
              "type": "uint8"
            },
            {
              "internalType": "uint8",
              "name": "r",
              "type": "uint8"
            },
            {
              "internalType": "bool",
              "name": "island",
              "type": "bool"
            },
            {
              "internalType": "bool",
              "name": "exists",
              "type": "bool"
            }
          ],
          "internalType": "struct SharedStructs.Cell",
          "name": "",
          "type": "tuple"
        }
      ],
      "stateMutability": "view",
      "type": "function"
    },
    {
      "inputs": [
        {
          "internalType": "uint8",
          "name": "gameId",
          "type": "uint8"
        }
      ],
      "name": "getCells",
      "outputs": [
        {
          "components": [
            {
              "internalType": "uint8",
              "name": "q",
              "type": "uint8"
            },
            {
              "internalType": "uint8",
              "name": "r",
              "type": "uint8"
            }
          ],
          "internalType": "struct SharedStructs.Coordinate[]",
          "name": "",
          "type": "tuple[]"
        }
      ],
      "stateMutability": "view",
      "type": "function"
    },
    {
      "inputs": [
        {
          "internalType": "uint8",
          "name": "gameId",
          "type": "uint8"
        }
      ],
      "name": "getRadius",
      "outputs": [
        {
          "internalType": "uint8",
          "name": "",
          "type": "uint8"
        }
      ],
      "stateMutability": "view",
      "type": "function"
    },
    {
      "inputs": [
        {
          "internalType": "uint8",
          "name": "gameId",
          "type": "uint8"
        }
      ],
      "name": "getShips",
      "outputs": [
        {
          "components": [
            {
              "components": [
                {
                  "internalType": "uint8",
                  "name": "q",
                  "type": "uint8"
                },
                {
                  "internalType": "uint8",
                  "name": "r",
                  "type": "uint8"
                }
              ],
              "internalType": "struct SharedStructs.Coordinate",
              "name": "coordinate",
              "type": "tuple"
            },
            {
              "internalType": "enum SharedStructs.Directions",
              "name": "travelDirection",
              "type": "uint8"
            },
            {
              "internalType": "uint8",
              "name": "travelDistance",
              "type": "uint8"
            },
            {
              "internalType": "enum SharedStructs.Directions",
              "name": "shotDirection",
              "type": "uint8"
            },
            {
              "internalType": "uint8",
              "name": "shotDistance",
              "type": "uint8"
            },
            {
              "internalType": "bool",
              "name": "publishedMove",
              "type": "bool"
            },
            {
              "internalType": "address",
              "name": "captain",
              "type": "address"
            },
            {
              "internalType": "uint8",
              "name": "yachtSpeed",
              "type": "uint8"
            },
            {
              "internalType": "uint8",
              "name": "yachtRange",
              "type": "uint8"
            },
            {
              "internalType": "uint8",
              "name": "gameId",
              "type": "uint8"
            }
          ],
          "internalType": "struct GamePunk.Ship[]",
          "name": "",
          "type": "tuple[]"
        }
      ],
      "stateMutability": "view",
      "type": "function"
    },
    {
      "inputs": [
        {
          "components": [
            {
              "internalType": "uint8",
              "name": "q",
              "type": "uint8"
            },
            {
              "internalType": "uint8",
              "name": "r",
              "type": "uint8"
            }
          ],
          "internalType": "struct SharedStructs.Coordinate",
          "name": "_start",
          "type": "tuple"
        },
        {
          "internalType": "enum SharedStructs.Directions",
          "name": "_dir",
          "type": "uint8"
        },
        {
          "internalType": "uint8",
          "name": "_distance",
          "type": "uint8"
        },
        {
          "internalType": "uint8",
          "name": "gameId",
          "type": "uint8"
        }
      ],
      "name": "move",
      "outputs": [
        {
          "components": [
            {
              "internalType": "uint8",
              "name": "q",
              "type": "uint8"
            },
            {
              "internalType": "uint8",
              "name": "r",
              "type": "uint8"
            }
          ],
          "internalType": "struct SharedStructs.Coordinate",
          "name": "",
          "type": "tuple"
        }
      ],
      "stateMutability": "view",
      "type": "function"
    },
    {
      "inputs": [],
      "name": "owner",
      "outputs": [
        {
          "internalType": "address",
          "name": "",
          "type": "address"
        }
      ],
      "stateMutability": "view",
      "type": "function"
    },
    {
      "inputs": [],
      "name": "registrationContract",
      "outputs": [
        {
          "internalType": "address",
          "name": "",
          "type": "address"
        }
      ],
      "stateMutability": "view",
      "type": "function"
    },
    {
      "inputs": [],
      "name": "renounceOwnership",
      "outputs": [],
      "stateMutability": "nonpayable",
      "type": "function"
    },
    {
      "inputs": [
        {
          "internalType": "address",
          "name": "_registrationContract",
          "type": "address"
        }
      ],
      "name": "setRegistrationContract",
      "outputs": [],
      "stateMutability": "nonpayable",
      "type": "function"
    },
    {
      "inputs": [
        {
          "internalType": "uint8",
          "name": "gameId",
          "type": "uint8"
        },
        {
          "internalType": "uint8",
          "name": "_radius",
          "type": "uint8"
        }
      ],
      "name": "startNewGame",
      "outputs": [],
      "stateMutability": "nonpayable",
      "type": "function"
    },
    {
      "inputs": [
        {
          "internalType": "enum SharedStructs.Directions[]",
          "name": "_travelDirections",
          "type": "uint8[]"
        },
        {
          "internalType": "uint8[]",
          "name": "_travelDistances",
          "type": "uint8[]"
        },
        {
          "internalType": "enum SharedStructs.Directions[]",
          "name": "_shotDirections",
          "type": "uint8[]"
        },
        {
          "internalType": "uint8[]",
          "name": "_shotDistances",
          "type": "uint8[]"
        },
        {
          "internalType": "bytes32[]",
          "name": "_secrets",
          "type": "bytes32[]"
        },
        {
          "internalType": "address[]",
          "name": "_playerAddresses",
          "type": "address[]"
        },
        {
          "internalType": "uint8",
          "name": "gameId",
          "type": "uint8"
        }
      ],
      "name": "submitMove",
      "outputs": [],
      "stateMutability": "nonpayable",
      "type": "function"
    },
    {
      "inputs": [
        {
          "internalType": "address",
          "name": "newOwner",
          "type": "address"
        }
      ],
      "name": "transferOwnership",
      "outputs": [],
      "stateMutability": "nonpayable",
      "type": "function"
    },
    {
      "inputs": [
        {
          "components": [
            {
              "internalType": "uint8",
              "name": "q",
              "type": "uint8"
            },
            {
              "internalType": "uint8",
              "name": "r",
              "type": "uint8"
            }
          ],
          "internalType": "struct SharedStructs.Coordinate",
          "name": "_startCell",
          "type": "tuple"
        },
        {
          "internalType": "enum SharedStructs.Directions",
          "name": "_direction",
          "type": "uint8"
        },
        {
          "internalType": "uint8",
          "name": "_distance",
          "type": "uint8"
        },
        {
          "internalType": "uint8",
          "name": "gameId",
          "type": "uint8"
        }
      ],
      "name": "travel",
      "outputs": [],
      "stateMutability": "nonpayable",
      "type": "function"
    },
    {
      "inputs": [
        {
          "internalType": "uint8",
          "name": "gameId",
          "type": "uint8"
        }
      ],
      "name": "updateWorld",
      "outputs": [],
      "stateMutability": "nonpayable",
      "type": "function"
    }
  ],
  "bytecode": "0x60a0346200012357601f62003fe738819003918201601f19168301916001600160401b0383118484101762000128578084926020946040528339810103126200012357516001600160a01b039081811690819003620001235733156200010a576000543360018060a01b0319821617600055604051923391167f8be0079c531659141344cd1fd0a4f28419497f9722a3daafe3b4186f6b6457e0600080a3608052613ea890816200013f823960805181818161055c01528181610d4e015281816110a80152818161152c015281816115a501528181611a7301528181611f22015281816128f901528181612daa01528181612eab01528181613223015281816133610152613ce80152f35b604051631e4fbdf760e01b815260006004820152602490fd5b600080fd5b634e487b7160e01b600052604160045260246000fdfe608080604052600436101561001357600080fd5b600090813560e01c908163117a5b90146134b4575080631cf8a321146132d55780631e522c3e146132ac57806334361208146131c95780634aac9b8b14612e545780634d02388614612cf1578063715018a614612c97578063863375ac14612c115780638da5cb5b14612bea578063978ac356146117ba578063c002600314611149578063d085a86f1461103b578063d1153bc314610c65578063d3db03cc14610c20578063e7c435a714610b47578063f10a39271461046f578063f2fde38b146103df5763fd870446146100e757600080fd5b346103dc57602090816003193601126103dc579060ff80610106613594565b169283815260019182845261012783826004604086200154161515146137cd565b8482528284526003806040842001549561014087613626565b9661014e6040519889613573565b80885261015d601f1991613626565b01845b8181106103665750508484905b610256575b505050604051938085019181865286518093528160408701970193905b83821061019c5786880387f35b90919293948361016082998489516101c483825160ff60208092828151168552015116910152565b6101d5858201516040850190613722565b8180604083015116606090818601528201516101f660809182870190613722565b8201511660a09081850152810151151560c0908185015260018060a01b03908201511660e0840152818060e0830151166101009081860152820151169061012091828501520151166101408201520196019201909694969392919361018f565b90859795929181869895965283855260408820908382019182548210156103575760026102868361034995613a3a565b929060018060a01b039384915490891b1c166000520187528760406000209187604051936102b385613557565b6102bc81613986565b85520154906102cf8383168b8601613ac3565b828260081c1660408501526102ec838360101c1660608601613ac3565b828260181c16608085015282828b1c16151560a08501528160281c1660c0840152818160c81c1660e0840152818160d01c1661010084015260d81c16610120820152610338828a61391c565b52610343818961391c565b506138d4565b90919295979694939661016d565b50505096949695939295610172565b968094959760409997995161037a81613557565b60405161038681613521565b60008152600084820152815289838201528960408201528960608201528960808201528960a08201528960c08201528960e0820152896101008201528961012082015282828a0101520197959796949396610160565b80fd5b50346103dc5760203660031901126103dc576103f961370c565b610401613745565b6001600160a01b0390811690811561045657600054826bffffffffffffffffffffffff60a01b821617600055167f8be0079c531659141344cd1fd0a4f28419497f9722a3daafe3b4186f6b6457e0600080a380f35b604051631e4fbdf760e01b815260048101849052602490fd5b50346103dc5760803660031901126103dc5761048961370c565b6104916135b4565b9061049a6135a4565b60ff6064351660643503610b42576104bd60018060a01b03600254163314613771565b60ff8316845260016020526104e0600160ff6004604088200154161515146137cd565b60ff8316845260016020526002604085200160018060a01b03831660005260205260ff60406000205416151580610b0d575b610a9e5760405161052281613521565b600081526000602082015290849160015b15610815575b50604080516342c39d9160e01b815260ff861660048201529386929185602481867f00000000000000000000000000000000000000000000000000000000000000006001600160a01b03165af194851561080a5787956107c6575b5084926000806105ff61061860ff8a511660ff60208c01511690604051916105bb83613521565b60138352724e657720726e6420706169722025732c20257360681b602084015260405194859363ca47c4eb60e01b6020860152606060248601526084850190613e32565b916044840152606483015203601f198101835282613573565b6020815191016a636f6e736f6c652e6c6f675afa50875b60ff881689526001602052600360408a2001805460ff831610156107b857600061065a838293613a3a565b90546040519160031b1c6001600160a01b031661067682613521565b601782527f696e206c6f6f702025732c20616464726573733a20257300000000000000000060208301526106e860405180926106cb602083019563038fd88960e31b8752606060248501526084840190613e32565b9060ff89166044840152606483015203601f198101835282613573565b51906a636f6e736f6c652e6c6f675afa5060ff881689526001602052600260408a206107178360038301613a3a565b60018060a01b0391549060031b1c166000520160205260ff6040600020541660ff8851161480610769575b6107545761074f90613ab2565b61062f565b509193509193506001905b9390929193610533565b5060ff881689526001602052600260408a206107888360038301613a3a565b60018060a01b0391549060031b1c166000520160205260ff60406000205460081c1660ff60208901511614610742565b50509092945092909261075f565b9094506040903d604011610802575b6107df8282613573565b60408183810103126107fe576107f7918101906139b6565b9338610594565b8780fd5b3d91506107d5565b6040513d89823e3d90fd5b82610539578591848660405161082a81613557565b8481528560208201528560408201528560608201528560808201528560a082015260018060a01b03831660c082015260ff841660e082015260ff6064351661010082015260ff821661012082015260ff8216865260016020526002604087200160018060a01b038416600052602052600160406000206108cf60ff60208551828151168319865416178555015116829061ff0082549160081b169061ff001916179055565b019060208101516007811015610a8a576108e9908361394d565b6040810151825461ff00191660089190911b61ff001617825560608101516007811015610a8a5761091a9083613965565b6080810151825463ff000000191660189190911b63ff0000001617825560a0810151151590825465010000000000600160c81b0360c083015160281b1660ff60c81b60e084015160c81b169164ff0000000060ff60d01b61010086015160d01b169461012060ff60d81b91015160d81b169560201b169063ffffffff8060e01b01161717171717905560ff8116855260016020526003604086200180549068010000000000000000821015610a765791610a2384610a04847f5e5c5018f010da587f4ea3677380307dc0fb74d57d455db252799686dbfbd0599897966001610a7097018155613a3a565b90919082549060031b9160018060a01b03809116831b921b1916179055565b85516020968701516040805160ff948516815292841698830198909852821696810196909652928316606086015260643590921660808501526001600160a01b03169290819060a0820190565b0390a280f35b634e487b7160e01b87526041600452602487fd5b634e487b7160e01b88526021600452602488fd5b5060ff9182168084526001602081815260408087206001600160a01b03909516600081815260029687018452828120549589529383529681902087845290940190528290205491516308538db760e41b815260048101949094528216602484015260081c166044820152606490fd5b5060ff8316845260016020526002604085200160018060a01b03831660005260205260ff60406000205460081c161515610512565b600080fd5b50346103dc5760403660031901126103dc5760ff610b636135b4565b168082526001602052600160ff600460408520015460101c16151503610bd157808252600160205260056040832001336000526020526004356040600020556040519081527f38b5330dac100f70d75e8ee186192e45592ca13e2ea5e536677df27911c0489760203392a280f35b60405162461bcd60e51b815260206004820152602160248201527f436f6d6d6974206d6f76657320686173206e6f742073746172746564207965746044820152602160f81b6064820152608490fd5b50346103dc5760203660031901126103dc57610c3a61370c565b610c42613745565b60018060a01b03166bffffffffffffffffffffffff60a01b600254161760025580f35b50346103dc5760403660031901126103dc57610c7f613594565b90610c886135b4565b9160018060a01b03600291610ca1828454163314613771565b60ff8082169281841015610ff65783865260019160209583875281600460408a20015416610fa35785885283875260408820600401805460ff191685179055839088825b610f4c575b5050508487528286528684600360408320019384549483815585610f22575b50610d4a9450610d1882613cc1565b50604051631a405d8760e31b815260ff808d166004830152909216602483015290938491908290849082906044820190565b03927f0000000000000000000000000000000000000000000000000000000000000000165af191821561080a578792610e80575b5086835b610dfa575b50506040805160ff9889168152978416602089015295967f13cb55fc1bec4b9f4cd4c22f154240b469cb108a23a35aa599df0c3da46f2d1496610df09493507fd76a0a97b7d547fef69b0cd90fb02087b761703ae2b5e4e91a99e8fd17e308ad925090a1613819565b604051908152a180f35b8251811015610e7b57807fa0c5e7441ab424c9fb8f47238c88c2c172bf9be1898748ea348b2a8bb92d6dbb608084610e35610e75958861391c565b515116858b610e44868a61391c565b510151166040610e54868a61391c565b510151151590604051928c84528d84015260408301526060820152a16138d4565b83610d82565b610d87565b9091503d8088833e610e928183613573565b81019086818303126107fe578051906001600160401b038211610f1e570181601f820112156107fe578051610ec681613626565b92610ed46040519485613573565b818452888085019260071b84010192818411610f1a578901915b89848410610f025750505050509038610d7e565b608091610f0f8486613a5f565b815201920191610eee565b8a80fd5b8880fd5b83528883209485015b86818710610f395750610d09565b9386559490920193899287925090610f2b565b878a5282895260408a209060039182810190878254841015610f9a57610f9494610f77858895613a3a565b9054911b1c16600052018a526000846040822082815501556138d4565b82610ce5565b50505050610cea565b60405162461bcd60e51b815260048101889052602560248201527f47616d652077697468207468697320494420616c726561647920696e2070726f604482015264677265737360d81b6064820152608490fd5b60405162461bcd60e51b815260206004820152601f60248201527f4d6178696d756d206e756d626572206f662067616d65732072656163686564006044820152606490fd5b50346103dc5760ff604061104e366135c4565b60006020869793979594955161106381613521565b82815201521685526001602052611087600160ff60048689200154161515146137cd565b6110a483519485938493630d42527560e11b8552600485016139ec565b03817f00000000000000000000000000000000000000000000000000000000000000006001600160a01b03165afa90811561113e578291611100575b6040826110fe8251809260ff60208092828151168552015116910152565bf35b905060403d604011611137575b6111178183613573565b8101916040828403126103dc5750604091611131916139b6565b386110e0565b503d61110d565b6040513d84823e3d90fd5b50346103dc5760e03660031901126103dc576004356001600160401b0381116117165761117a90369060040161363d565b6024356001600160401b0381116116d4576111999036906004016136a4565b6044356001600160401b0381116117b6576111b890369060040161363d565b6064356001600160401b0381116117b2576111d79036906004016136a4565b92608435936001600160401b0385116117ae57366023860112156117ae5784600401359461120486613626565b956112126040519788613573565b8087526024602088019160051b83010191368311610f1e57602401905b82821061179e5750505060a435906001600160401b03821161179a573660238301121561179a57816004013561126481613626565b926112726040519485613573565b8184526024602085019260051b8201019036821161179657602401915b8183106117765750505060c4359460ff86168603610b425760ff8616885260016020526112ca600160ff600460408c200154161515146137cd565b6112d78351855114613889565b6112e48451825114613889565b6112f18551835114613889565b6112fe8751845114613889565b875b83518110156117725761131b611316828761391c565b613930565b611325828461391c565b51611333611316848a61391c565b61133d848761391c565b51611348858d61391c565b519261135b60405195602087019061393d565b61137a60ff60f81b938460f893841b166021880152602287019061393d565b1b1660238301526024820152602481528060608101106001600160401b0360608301111761175c57606081016040908152815160209283012060ff8a168c5260019092528a206005016001600160a01b036113d5848861391c565b5116600052602052604060002054146113f7575b6113f2906138d4565b611300565b60ff871689526001602052604089206002016001600160a01b0361141b838761391c565b51166000526020526114ea6040600020611438611316848961391c565b61144660018301918261394d565b60ff611452858761391c565b51825460c81c60ff1691168110156117455761147f905b825461ff00191660089190911b61ff0016178255565b61149561148f611316868c61391c565b82613965565b60ff6114a1858861391c565b51825460d01c60ff16911681101561172e576114d2905b825463ff000000191660189190911b63ff00000016178255565b805464ff000000001916640100000000179055613986565b908960406114fb611316848a61391c565b60ff611507858861391c565b518351630d42527560e11b81529687938493611528931691600485016139ec565b03817f00000000000000000000000000000000000000000000000000000000000000006001600160a01b03165afa80156117215781906116df575b6115a193506040611577611316858c61391c565b60ff611583868a61391c565b51169082519687928392630d42527560e11b845286600485016139ec565b03817f00000000000000000000000000000000000000000000000000000000000000006001600160a01b03165afa801561113e578a948391611671575b506113f2947faff0b78027ac9f4904ee624bc84e3126d0e7d96ce215c5db5158441acb0b38cf9260c09260406001600160a01b0361161c898e61391c565b51169660ff85168152600160205220549160ff602081835116920151169060ff602081855116940151169360ff60405196168652602086015260408501526060840152608083015260a0820152a290506113e9565b94505060403d6040116116d8575b6116898186613573565b60408582810103126116d4578a7faff0b78027ac9f4904ee624bc84e3126d0e7d96ce215c5db5158441acb0b38cf926116ca8760c0946113f29901906139b6565b92509250946115de565b8280fd5b503d61167f565b5060403d60401161171a575b6116f58185613573565b60408482810103126117165783611711916115a19501906139b6565b611563565b5080fd5b503d6116eb565b50604051903d90823e3d90fd5b506114d260ff61173e868961391c565b51166114b8565b5061147f60ff611755868861391c565b5116611469565b634e487b7160e01b600052604160045260246000fd5b8880f35b82356001600160a01b0381168103610b425781526020928301920161128f565b8980fd5b8680fd5b813581526020918201910161122f565b8580fd5b8480fd5b8380fd5b50346103dc5760203660031901126103dc576117d4613594565b6117dc613745565b60ff8116825260016020526117ff600160ff6004604086200154161515146137cd565b60ff811682526001602052604082206003815406156128ea575b5060ff8116825260016020526118356003604084200154613b27565b9060ff81168352600160205260036040842001549261185384613626565b936118616040519586613573565b808552611870601f1991613626565b01366020860137805b60ff831682526001602052600360408320015460ff8216908110156118b3579060016118a86118ae938861391c565b52613ab2565b611879565b505092835b60ff8316855260016020526040852060038101805460ff84161015611dd957906118e483600293613a3a565b60018060a01b0391549060031b1c166000520160205260018060a01b0360016040600020015460281c161561195b5760ff8316855260016020526002604086206119318360038301613a3a565b60018060a01b0391549060031b1c166000520160205260ff60016040600020015460201c16611969575b61196490613ab2565b6118b8565b60ff8316855260016020526002604086206119878360038301613a3a565b60018060a01b0391549060031b1c166000520160205260406000209060ff8416865260016020526002604087206119c18360038301613a3a565b60018060a01b0391549060031b1c166000520160205260ff806001604060002001541681861688526001602052600260408920611a018560038301613a3a565b60018060a01b0391549060031b1c1660005201602052611a5860016040600020015491611a4e60405196631cf8a32160e01b8852600488019060ff60209154818116845260081c16910152565b6044860190613722565b60081c16606483015260ff841660848301528560608360a4817f00000000000000000000000000000000000000000000000000000000000000006001600160a01b03165afa8015611721578282611964958894908294611da5575b50611c8b57505060ff611c2d92168852600160205260ff611ada84600360408c2001613a3a565b60018060a01b0391549060031b1c168188168a526001602052600260408b20611b068760038301613a3a565b60018060a01b0391549060031b1c16600052016020528160406000205416908289168b526001602052600260408c20611b428860038301613a3a565b60018060a01b0391549060031b1c16600052016020527ff1e9c1d54f160cab3c8602dcfbf5fbe3e012ed037d80057eca695f74d26077a08360406000205460081c168486511693611bcf8c60208901968888511690604051958695869360ff9290836080958180949a99959a8160a08b019c168a5216602089015216604087015216606085015216910152565b0390a28188168a526001602052600260408b20611bef8760038301613a3a565b60018060a01b0391549060031b1c16600052016020528160406000209351168219845416178355511661ff0082549160081b169061ff001916179055565b60ff841686526001602052611c488160036040892001613a3a565b60018060a01b0391549060031b1c167f51f35fa2867d710ef60e6209b0ca28b42abd534ed14e1f8394e793f42253c9f6602060405160ff88168152a2905061195b565b9281611d18611d2f9360036040611da09860ff871681526001602052611cb5848484842001613a3a565b60018060a01b03915490851b1c167fd44ddf7f8e572e76d7ed6bf350d88367a33cf9a7d19d5069c392802305d51f6c60608b60ff6020818351169201511686519160ff8d168352602083015286820152a260ff8716815260016020522001613a3a565b905460039190911b1c6001600160a01b0316613bad565b87611d3d60ff85168761391c565b5260ff861688526001602052600260408920611d5c8560038301613a3a565b60018060a01b0391549060031b1c166000520160205260ff602060406000209282815116831985541617845501511661ff0082549160081b169061ff001916179055565b613ab2565b9050611dca91935060603d606011611dd2575b611dc28183613573565b810190613b88565b929038611ab3565b503d611db8565b50505091835b60ff831685526001602052600360408620015460ff821610156120d157611e0960ff82168561391c565b51611e1d575b611e1890613ab2565b611ddf565b60ff831685526001602052600260408620611e3b8360038301613a3a565b60018060a01b0391549060031b1c166000520160205260406000209060ff841686526001602052600260408720611e758360038301613a3a565b60018060a01b0391549060031b1c166000520160205260ff60016040600020015460101c1660ff851687526001602052600260408820611eb88460038301613a3a565b60018060a01b0391549060031b1c1660005201602052611f1560ff60016040600020015460181c1691611f0b6040519563d6192ad360e01b8752600487019060ff60209154818116845260081c16910152565b6044850190613722565b60648301526040826084817f00000000000000000000000000000000000000000000000000000000000000006001600160a01b03165afa80156120c6578690612088575b611e18925080611f6c60ff84168661391c565b52611f7a60ff83168561391c565b5060ff8516875260016020527f78546d5ff977d70d771d8edba5bdd99150ec97e7837d6e2af4384b1605a4372d611fb783600360408b2001613a3a565b60018060a01b0391549060031b1c169160ff871689526001602052600260408a20611fe58660038301613a3a565b60018060a01b0391549060031b1c166000520160205260ff6040600020541660ff88168a526001602052600260408b206120228760038301613a3a565b90546001600160a01b0360039290921b1c1660009081529101602090815260409182902054845194820151835160ff958616815260089290921c85169282019290925293831691840191909152811660608301528716608082015260a090a29050611e0f565b5060403d6040116120bf575b61209e8184613573565b604083828101031261179a57826120ba91611e189401906139b6565b611f59565b503d612094565b6040513d88823e3d90fd5b50919290815b60ff821683526001602052600360408420015460ff821610156124ef57825b60ff831684526001602052600360408520015460ff821610156124e0578060ff612129921660ff84160361212e57613ab2565b6120f6565b61213b60ff84168861391c565b511515806124ca575b8061244a575b806123c3575b6122d7575b61216260ff84168861391c565b51151580612282575b80612227575b15613ab25760ff841685526001602052611da08484876121978260036040842001613a3a565b905460ff85168352600160205260409092206001600160a01b0392600392831b1c83169183916121c991899101613a3a565b90549060031b1c16907fb2ee3834f34c038f7f34d57f8ce213e4ee56fecd33556013e0f66b1e32ee14bc602060405160ff88168152a360ff83168952600160205261221a82600360408c2001613a3a565b90549060031b1c16613bad565b5060ff60206122388284168961391c565b5101511660ff85168652600160205260026040872061225a8660038301613a3a565b60018060a01b0391549060031b1c166000520160205260ff60406000205460081c1614612171565b5060ff6122918183168861391c565b51511660ff8516865260016020526002604087206122b28660038301613a3a565b60018060a01b0391549060031b1c166000520160205260ff604060002054161461216b565b846122e560ff85168961391c565b52846122f460ff83168961391c565b5260ff8416855260016020526123be848260406123a383888b61221a82600361232182828a872001613a3a565b989094602060018060a01b03809b81985490861b1c16835160ff8b1681527f783de3ac95b82563b70ac74b3a843e5f9f71a653b9518e6e1762b39151c0f710928391a260ff8916825260016020528661237e8d8686862001613a3a565b905490861b1c16906020845160ff8c168152a260ff8816815260016020522001613a3a565b60ff83168952600160205261221a82600360408c2001613a3a565b612155565b5060ff841685526001602052604085206123e08260038301613a3a565b919060018060a01b03928391549060031b1c1660005260028091016020526040600020549160ff87168852600160205260408820906124228760038401613a3a565b90549060031b1c166000520160205260ff6040600020549181600893841c16921c1614612150565b5060ff841685526001602052604085206124678260038301613a3a565b919060018060a01b03928391549060031b1c16600052600280910160205260ff604060002054169160ff87168852600160205260408820906124ac8760038401613a3a565b90549060031b1c166000520160205260ff604060002054161461214a565b506124d860ff82168861391c565b511515612144565b506124ea90613ab2565b6120d7565b50815b60ff8216835260016020526003604084200180549060ff8316918210156125e3578261251d91613a3a565b90546001600160a01b039160031b1c811615612544575b505061253f90613ab2565b6124f2565b60ff8416855260016020526040852060030180546000198101919082116125cf579161257861259b9261253f969594613a3a565b90549060031b1c1660ff861687526001602052610a0484600360408a2001613a3a565b60ff8416855260016020526125b560036040872001613acf565b6125c1575b9084612534565b6125ca90613b17565b6125ba565b634e487b7160e01b87526011600452602487fd5b50505060ff8116825260016020526040822060030180548061267e57505060207fd44344392ee117b90bc172ab74cce9c43a862f0d5e11a336b3885fde466c244e91837f8403b4a1c998f6768b577f2c265d744e2f4d05982059b4d82b34eb822bdc17d18360405160ff85168152a260ff811684526001825260408420600401805461ff0019166101001790555b60ff60405191168152a180f35b600103612721575060208160ff7fd44344392ee117b90bc172ab74cce9c43a862f0d5e11a336b3885fde466c244e93168452600182526126c360036040862001613a25565b60018060a01b0391549060031b1c167f8403b4a1c998f6768b577f2c265d744e2f4d05982059b4d82b34eb822bdc17d18360405160ff85168152a260ff811684526001825260408420600401805461ff001916610100179055612671565b61272a90613a25565b919060018060a01b03928391549060031b1c16837f2cee3725d64bc62c413fa35348815210ff376bf4f13627d82b6ac0d0efc6e8cd602060405160ff86168152a3825b60ff8216845260016020526040842060038101805460ff8416101561288d57908461279c846128889594613a3a565b90549060031b1c1660005260028091016020526001604060002001600660ff1982541617905560ff8416865260016020528060408720866127e08560038401613a3a565b90549060031b1c1660005201602052600160406000200161ff0019815416905560ff84168652600160205280604087208661281e8560038401613a3a565b90549060031b1c166000520160205260016040600020016206000062ff00001982541617905560ff84168652600160205260408620856128618460038401613a3a565b90549060031b1c1660005201602052600160406000200163ff000000198154169055613ab2565b61276d565b5050507fd44344392ee117b90bc172ab74cce9c43a862f0d5e11a336b3885fde466c244e915060209060ff81168452600182526004604085200163ff0000001981541690556128db81613cc1565b506128e581613819565b612671565b600101546001600160a01b03917f000000000000000000000000000000000000000000000000000000000000000083169160ff1684833b156103dc57604051634affc34f60e01b815260ff84811660048301529290921660248301528160448183875af18015612bdf57612bb0575b5060ff81168452600160205260016040852001805460ff61297b818316613ab2565b169060ff19161790557fab00852360aeece33bb03176d4e62fbb27adf3fd1a81b9d543c1ae388003b0ac602060405160ff84168152a1835b60ff828116865260016020526040862060038101805492841692831015612ba35790866129e285600294613a3a565b90549060031b1c1660005201602052826129ff6040600020613986565b604051906326811c4360e11b82528180612a20608095869460048401613c9c565b0381895afa908115612b98578891612b5f575b5060609150015115612a4f575b50612a4a90613ab2565b6129b3565b60ff831686526001602052612a7083838761221a82600360408d2001613a3a565b60ff83168652600160205284612a8c83600360408a2001613a3a565b90549060031b1c167f7098e36d986448e47b2ec53e41ddd178ac0774637ee2227e84baba39b0c1c7b1602060405160ff87168152a260ff831686526001602052604086206003018054600019810191908211612b4b5786612af5612a4a959493612b1893613a3a565b90549060031b1c1660ff861689526001602052610a0484600360408c2001613a3a565b60ff841687526001602052612b3260036040892001613acf565b612b3d575b90612a40565b612b4690613b17565b612b37565b634e487b7160e01b88526011600452602488fd5b9050813d8311612b91575b612b748183613573565b810191818303126107fe57606091612b8b91613a5f565b38612a33565b503d612b6a565b6040513d8a823e3d90fd5b5050505091505038611819565b6001600160401b038195929511612bcb576040529238612959565b634e487b7160e01b82526041600452602482fd5b6040513d87823e3d90fd5b50346103dc57806003193601126103dc57546040516001600160a01b039091168152602090f35b50346103dc5760203660031901126103dc577f4df34531b3f238bc8f90ad83236d8c752e7444e434bb5fc99f888f0a6345c0e7602060ff612c50613594565b612c58613745565b1680845260018252612c78600160ff6004604088200154161515146137cd565b808452600182526040808520600401805460ff1916905551908152a180f35b50346103dc57806003193601126103dc57612cb0613745565b80546001600160a01b03198116825581906001600160a01b03167f8be0079c531659141344cd1fd0a4f28419497f9722a3daafe3b4186f6b6457e08280a380f35b50346103dc57366003190160608112611716576040136103dc57604051612d1781613521565b60ff9060043582811681036117b657815260243582811681036117b657816080916020612da696940152612d496135a4565b90836060604051612d598161353c565b828152826020820152826040820152015284821684526001602052612d8b6001866004604088200154161515146137cd565b6040516326811c4360e11b8152958692839260048401613c9c565b03817f00000000000000000000000000000000000000000000000000000000000000006001600160a01b03165afa928315611721578193612e14575b608083606086604051928082511684526020820151166020840152604081015115156040840152015115156060820152f35b90925060803d8111612e4d575b612e2b8183613573565b8101926080828503126103dc5750612e47608093606092613a5f565b92612de2565b503d612e21565b50346103dc576020806003193601126117165760ff9182612e73613594565b1690818152600193848452612e9485826004604086200154161515146137cd565b60405163436fadf360e11b815260048101939093527f00000000000000000000000000000000000000000000000000000000000000006001600160a01b031690602485858281865afa9485156131be578495613187575b5081612ef686613df6565b9516948786019083821161317457612f1d612f18612f239386939b999b613e0a565b613e21565b16613b27565b96604051612f3081613521565b8181528188820152612f41896138f9565b52612f4b886138f9565b5085805b612faf575b50505050506040519280840190808552855180925280604086019601925b828110612f7f5785870386f35b9091929382604088612fa2849a895160ff60208092828151168552015116910152565b0197950193929101612f72565b83819997991682811161316b576000190184811161315857612fdd612f1883612fd88894613df6565b613e0a565b166130088783612fec8b6138f9565b516040516301cf2e2560e51b8152938492839260048401613c9c565b03818a5afa908115612b985788916130bc575b508a95949392919088875b613042575b50505061303790613ab2565b909192939698612f4f565b908092939495969750518c888316918210156130b15750613063818461391c565b519084019081851161309e579161308b828f946130848f956130919661391c565b528d61391c565b50613ab2565b8197969594939291613026565b634e487b7160e01b8b526011600452878bfd5b97969594935061302b565b90503d8089833e6130cd8183613573565b8101908a81830312610f1e578051906001600160401b038211611796570181601f82011215610f1e57805161310181613626565b9261310f6040519485613573565b8184528c8085019260061b84010192818411613154578d01915b8d84841061313c5750505050503861301b565b60409161314984866139b6565b815201920191613129565b8b80fd5b634e487b7160e01b875260116004528387fd5b50979597612f54565b634e487b7160e01b865260116004528286fd5b9094508581813d83116131b7575b61319f8183613573565b810103126117b6576131b0906139a8565b9338612eeb565b503d613195565b6040513d86823e3d90fd5b50346103dc57602090816003193601126103dc5760ff6131e7613594565b1680825260018352613207600160ff6004604086200154161515146137cd565b60405163436fadf360e11b8152600481019190915282816024817f00000000000000000000000000000000000000000000000000000000000000006001600160a01b03165afa9182156132a0578092613268575b505060ff60405191168152f35b9091508282813d8311613299575b6132808183613573565b810103126103dc5750613292906139a8565b388061325b565b503d613276565b604051903d90823e3d90fd5b50346103dc57806003193601126103dc576002546040516001600160a01b039091168152602090f35b50346103dc576132e4366135c4565b919260ff8581808616948583526133436001986133128a8560046040602099848b52200154161515146137cd565b604051631cf8a32160e01b8152875160ff908116600483015260209098015190971660248801526044870190613722565b166064840152608483018490526001600160a01b039260608160a4817f000000000000000000000000000000000000000000000000000000000000000088165afa908115612b985788908992613493575b501561343757508387528581526133b78683600460408b200154161515146137cd565b869384875b6133d4575b50505050506133d1925033613bad565b80f35b81895287835260038060408b200180548684161015613430576133f8838892613a3a565b929092339354911b1c161461341b5790613413889392613ab2565b9091926133bc565b9450505050506133d1925038808080806133c1565b50506133c1565b819495506133d196935082815116868952848352600260408a2001338a528352604089209060ff198254161790550151169285528152600260408520019033855252604083209061ff0082549160081b169061ff001916179055565b90506134ad915060603d8111611dd257611dc28183613573565b9038613394565b9050346117165760203660031901126117165760ff604060c0936004358152600160205220805490600483600183015416910154918452602084015281811615156040840152818160081c1615156060840152818160101c161515608084015260181c16151560a0820152f35b604081019081106001600160401b0382111761175c57604052565b608081019081106001600160401b0382111761175c57604052565b61014081019081106001600160401b0382111761175c57604052565b90601f801991011681019081106001600160401b0382111761175c57604052565b6004359060ff82168203610b4257565b6044359060ff82168203610b4257565b6024359060ff82168203610b4257565b6003190160a08112610b4257604013610b42576040516135e381613521565b6135eb613594565b81526135f56135b4565b6020820152906044356007811015610b42579060643560ff81168103610b42579060843560ff81168103610b425790565b6001600160401b03811161175c5760051b60200190565b81601f82011215610b425780359161365483613626565b926136626040519485613573565b808452602092838086019260051b820101928311610b42578301905b82821061368c575050505090565b81356007811015610b4257815290830190830161367e565b81601f82011215610b42578035916136bb83613626565b926136c96040519485613573565b808452602092838086019260051b820101928311610b42578301905b8282106136f3575050505090565b813560ff81168103610b425781529083019083016136e5565b600435906001600160a01b0382168203610b4257565b90600782101561372f5752565b634e487b7160e01b600052602160045260246000fd5b6000546001600160a01b0316330361375957565b60405163118cdaa760e01b8152336004820152602490fd5b1561377857565b60405162461bcd60e51b815260206004820152602760248201527f43616c6c6572206973206e6f742074686520726567697374726174696f6e20636044820152661bdb9d1c9858dd60ca1b6064820152608490fd5b156137d457565b60405162461bcd60e51b815260206004820152601960248201527f47616d6520686173206e6f7420737461727465642079657421000000000000006044820152606490fd5b602060ff7f1b6143a1b1d77ae88590d660e0164f9edf35dd3d002f5de8a6ecf46a3c3ba0e392168060005260018252613861600160ff600460406000200154161515146137cd565b806000526001825260046040600020016201000062ff000019825416179055604051908152a1565b1561389057565b606460405162461bcd60e51b815260206004820152602060248201527f417272617973206d7573742068617665207468652073616d65206c656e6774686044820152fd5b60001981146138e35760010190565b634e487b7160e01b600052601160045260246000fd5b8051156139065760200190565b634e487b7160e01b600052603260045260246000fd5b80518210156139065760209160051b010190565b51600781101561372f5790565b600781101561372f5760f81b9052565b90600781101561372f5760ff80198354169116179055565b90600781101561372f5762ff000082549160101b169062ff00001916179055565b9060405161399381613521565b602060ff829454818116845260081c16910152565b519060ff82168203610b4257565b9190826040910312610b42576040516139ce81613521565b60206139e78183956139df816139a8565b8552016139a8565b910152565b916060919493613a1f60ff92613a1586608081019960ff60208092828151168552015116910152565b6040860190613722565b16910152565b80541561390657600052602060002090600090565b80548210156139065760005260206000200190600090565b51908115158203610b4257565b9190826080910312610b4257604051613a778161353c565b60606139e7818395613a88816139a8565b8552613a96602082016139a8565b6020860152613aa760408201613a52565b604086015201613a52565b60ff1660ff81146138e35760010190565b600782101561372f5752565b80548015613b01576000190190613afe613ae98383613a3a565b81549060018060a01b039060031b1b19169055565b55565b634e487b7160e01b600052603160045260246000fd5b60ff1680156138e3576000190190565b90613b3182613626565b604090613b4082519182613573565b8381528093613b51601f1991613626565b0191600090815b848110613b66575050505050565b6020908251613b7481613521565b848152828581830152828701015201613b58565b9190606083820312610b4257613baa906020613ba385613a52565b94016139b6565b90565b909160ff166000908082526001906020908282526040946003868620015460ff88161015613c585792613ae99592826003958794613c569a9852838352613c008460ff60048989200154161515146137cd565b60018060a01b0316807fabe2a4edb03972506a4064b683e5482b1f09f2fb96bd4463b7b15b38cbd5b186848851858152a28185528383526002868620019085528252838386822082815501558352522001613a3a565b565b855162461bcd60e51b815260048101849052601860248201527f496e6465782076616c7565206f7574206f662072616e676500000000000000006044820152606490fd5b90929160ff604091613a1f84606081019760ff60208092828151168552015116910152565b6040805163436fadf360e11b815260ff9092166004830181905290916020919082816024817f00000000000000000000000000000000000000000000000000000000000000006001600160a01b03165afa908115613deb57600091613d8b575b50907f44d8fc4a70679f71d5b762b5218cbfb0c858bb7e015b1effe03793d2909c20f66060600194938360005285855286600020613d5f81546138d4565b90558360005285855260ff876000205491885192868452878401521687820152a1600052526000205490565b908382813d8311613de4575b613da18183613573565b810103126103dc5750907f44d8fc4a70679f71d5b762b5218cbfb0c858bb7e015b1effe03793d2909c20f66060613dda600195946139a8565b9293945050613d21565b503d613d97565b84513d6000823e3d90fd5b60ff166003029060ff82169182036138e357565b9060ff8091169116029060ff82169182036138e357565b60ff166001019060ff82116138e357565b919082519283825260005b848110613e5e575050826000602080949584010152601f8019910116010190565b602081830181015184830182015201613e3d56fea2646970667358221220a10bc5758fdf9554823dadb1204de96f7ae68eb275695ef3e68019b63ba5126264736f6c63430008140033",
  "linkReferences": {},
  "deployedLinkReferences": {}
}