{
  "_format": "hh-sol-artifact-1",
  "contractName": "GamePunk",
  "sourceName": "contracts/GamePunk.sol",
  "abi": [
    {
      "inputs": [
        {
          "internalType": "address",
          "name": "_mapAddress",
          "type": "address"
        },
        {
          "internalType": "address",
          "name": "_punkshipsAddress",
          "type": "address"
        }
      ],
      "stateMutability": "nonpayable",
      "type": "constructor"
    },
    {
      "inputs": [
        {
          "internalType": "address",
          "name": "player",
          "type": "address"
        },
        {
          "internalType": "uint256",
          "name": "tokenId",
          "type": "uint256"
        }
      ],
      "name": "NotOwnerOfShip",
      "type": "error"
    },
    {
      "inputs": [
        {
          "internalType": "address",
          "name": "owner",
          "type": "address"
        }
      ],
      "name": "OwnableInvalidOwner",
      "type": "error"
    },
    {
      "inputs": [
        {
          "internalType": "address",
          "name": "account",
          "type": "address"
        }
      ],
      "name": "OwnableUnauthorizedAccount",
      "type": "error"
    },
    {
      "inputs": [
        {
          "internalType": "address",
          "name": "player",
          "type": "address"
        },
        {
          "internalType": "uint8",
          "name": "q",
          "type": "uint8"
        },
        {
          "internalType": "uint8",
          "name": "r",
          "type": "uint8"
        }
      ],
      "name": "ShipAlreadyAdded",
      "type": "error"
    },
    {
      "anonymous": false,
      "inputs": [
        {
          "indexed": false,
          "internalType": "uint256",
          "name": "gameId",
          "type": "uint256"
        },
        {
          "indexed": false,
          "internalType": "uint8",
          "name": "q",
          "type": "uint8"
        },
        {
          "indexed": false,
          "internalType": "uint8",
          "name": "r",
          "type": "uint8"
        },
        {
          "indexed": false,
          "internalType": "bool",
          "name": "island",
          "type": "bool"
        }
      ],
      "name": "Cell",
      "type": "event"
    },
    {
      "anonymous": false,
      "inputs": [
        {
          "indexed": false,
          "internalType": "uint256",
          "name": "gameId",
          "type": "uint256"
        }
      ],
      "name": "CommitPhaseStarted",
      "type": "event"
    },
    {
      "anonymous": false,
      "inputs": [
        {
          "indexed": false,
          "internalType": "uint256",
          "name": "gameId",
          "type": "uint256"
        }
      ],
      "name": "GameEnded",
      "type": "event"
    },
    {
      "anonymous": false,
      "inputs": [
        {
          "indexed": false,
          "internalType": "uint256",
          "name": "gameId",
          "type": "uint256"
        }
      ],
      "name": "GameStarted",
      "type": "event"
    },
    {
      "anonymous": false,
      "inputs": [
        {
          "indexed": true,
          "internalType": "bool",
          "name": "gameStatus",
          "type": "bool"
        },
        {
          "indexed": true,
          "internalType": "address",
          "name": "winnerAddress",
          "type": "address"
        },
        {
          "indexed": false,
          "internalType": "uint256",
          "name": "gameId",
          "type": "uint256"
        }
      ],
      "name": "GameUpdated",
      "type": "event"
    },
    {
      "anonymous": false,
      "inputs": [
        {
          "indexed": true,
          "internalType": "address",
          "name": "winner",
          "type": "address"
        },
        {
          "indexed": false,
          "internalType": "uint256",
          "name": "gameId",
          "type": "uint256"
        }
      ],
      "name": "GameWinner",
      "type": "event"
    },
    {
      "anonymous": false,
      "inputs": [
        {
          "indexed": false,
          "internalType": "uint8",
          "name": "radius",
          "type": "uint8"
        },
        {
          "indexed": false,
          "internalType": "uint256",
          "name": "gameId",
          "type": "uint256"
        }
      ],
      "name": "MapInitialized",
      "type": "event"
    },
    {
      "anonymous": false,
      "inputs": [
        {
          "indexed": false,
          "internalType": "uint256",
          "name": "gameId",
          "type": "uint256"
        }
      ],
      "name": "MapShrink",
      "type": "event"
    },
    {
      "anonymous": false,
      "inputs": [
        {
          "indexed": true,
          "internalType": "address",
          "name": "player",
          "type": "address"
        },
        {
          "indexed": false,
          "internalType": "uint256",
          "name": "gameId",
          "type": "uint256"
        },
        {
          "indexed": false,
          "internalType": "bytes32",
          "name": "moveHash",
          "type": "bytes32"
        }
      ],
      "name": "MoveCommitted",
      "type": "event"
    },
    {
      "anonymous": false,
      "inputs": [
        {
          "indexed": true,
          "internalType": "address",
          "name": "player",
          "type": "address"
        },
        {
          "indexed": false,
          "internalType": "uint256",
          "name": "gameId",
          "type": "uint256"
        },
        {
          "indexed": false,
          "internalType": "uint256",
          "name": "roundId",
          "type": "uint256"
        },
        {
          "indexed": false,
          "internalType": "uint8",
          "name": "destQ",
          "type": "uint8"
        },
        {
          "indexed": false,
          "internalType": "uint8",
          "name": "destR",
          "type": "uint8"
        },
        {
          "indexed": false,
          "internalType": "uint8",
          "name": "shotQ",
          "type": "uint8"
        },
        {
          "indexed": false,
          "internalType": "uint8",
          "name": "shotR",
          "type": "uint8"
        }
      ],
      "name": "MoveSubmitted",
      "type": "event"
    },
    {
      "anonymous": false,
      "inputs": [
        {
          "indexed": false,
          "internalType": "uint256",
          "name": "gameId",
          "type": "uint256"
        },
        {
          "indexed": false,
          "internalType": "uint256",
          "name": "roundId",
          "type": "uint256"
        },
        {
          "indexed": false,
          "internalType": "uint8",
          "name": "radius",
          "type": "uint8"
        }
      ],
      "name": "NewRound",
      "type": "event"
    },
    {
      "anonymous": false,
      "inputs": [
        {
          "indexed": true,
          "internalType": "address",
          "name": "previousOwner",
          "type": "address"
        },
        {
          "indexed": true,
          "internalType": "address",
          "name": "newOwner",
          "type": "address"
        }
      ],
      "name": "OwnershipTransferred",
      "type": "event"
    },
    {
      "anonymous": false,
      "inputs": [
        {
          "indexed": true,
          "internalType": "address",
          "name": "player",
          "type": "address"
        },
        {
          "indexed": false,
          "internalType": "uint256",
          "name": "gameId",
          "type": "uint256"
        },
        {
          "indexed": false,
          "internalType": "uint256",
          "name": "punkshipId",
          "type": "uint256"
        },
        {
          "indexed": false,
          "internalType": "uint8",
          "name": "q",
          "type": "uint8"
        },
        {
          "indexed": false,
          "internalType": "uint8",
          "name": "r",
          "type": "uint8"
        },
        {
          "indexed": false,
          "internalType": "uint8",
          "name": "speed",
          "type": "uint8"
        },
        {
          "indexed": false,
          "internalType": "uint8",
          "name": "range",
          "type": "uint8"
        },
        {
          "indexed": false,
          "internalType": "string",
          "name": "image",
          "type": "string"
        }
      ],
      "name": "PlayerAdded",
      "type": "event"
    },
    {
      "anonymous": false,
      "inputs": [
        {
          "indexed": true,
          "internalType": "address",
          "name": "player",
          "type": "address"
        },
        {
          "indexed": false,
          "internalType": "uint256",
          "name": "gameId",
          "type": "uint256"
        }
      ],
      "name": "PlayerDefeated",
      "type": "event"
    },
    {
      "anonymous": false,
      "inputs": [
        {
          "indexed": true,
          "internalType": "address",
          "name": "captain",
          "type": "address"
        },
        {
          "indexed": false,
          "internalType": "uint256",
          "name": "gameId",
          "type": "uint256"
        },
        {
          "indexed": false,
          "internalType": "uint8",
          "name": "q",
          "type": "uint8"
        },
        {
          "indexed": false,
          "internalType": "uint8",
          "name": "r",
          "type": "uint8"
        }
      ],
      "name": "ShipCollidedWithIsland",
      "type": "event"
    },
    {
      "anonymous": false,
      "inputs": [
        {
          "indexed": true,
          "internalType": "address",
          "name": "victim",
          "type": "address"
        },
        {
          "indexed": true,
          "internalType": "address",
          "name": "attacker",
          "type": "address"
        },
        {
          "indexed": false,
          "internalType": "uint256",
          "name": "gameId",
          "type": "uint256"
        }
      ],
      "name": "ShipHit",
      "type": "event"
    },
    {
      "anonymous": false,
      "inputs": [
        {
          "indexed": true,
          "internalType": "address",
          "name": "captain",
          "type": "address"
        },
        {
          "indexed": false,
          "internalType": "uint8",
          "name": "initialQ",
          "type": "uint8"
        },
        {
          "indexed": false,
          "internalType": "uint8",
          "name": "initialR",
          "type": "uint8"
        },
        {
          "indexed": false,
          "internalType": "uint8",
          "name": "q",
          "type": "uint8"
        },
        {
          "indexed": false,
          "internalType": "uint8",
          "name": "r",
          "type": "uint8"
        },
        {
          "indexed": false,
          "internalType": "uint256",
          "name": "gameId",
          "type": "uint256"
        }
      ],
      "name": "ShipMoved",
      "type": "event"
    },
    {
      "anonymous": false,
      "inputs": [
        {
          "indexed": true,
          "internalType": "address",
          "name": "captain",
          "type": "address"
        },
        {
          "indexed": false,
          "internalType": "uint256",
          "name": "gameId",
          "type": "uint256"
        }
      ],
      "name": "ShipMovedInGame",
      "type": "event"
    },
    {
      "anonymous": false,
      "inputs": [
        {
          "indexed": true,
          "internalType": "address",
          "name": "captain",
          "type": "address"
        },
        {
          "indexed": false,
          "internalType": "uint8",
          "name": "fromQ",
          "type": "uint8"
        },
        {
          "indexed": false,
          "internalType": "uint8",
          "name": "fromR",
          "type": "uint8"
        },
        {
          "indexed": false,
          "internalType": "uint8",
          "name": "shotQ",
          "type": "uint8"
        },
        {
          "indexed": false,
          "internalType": "uint8",
          "name": "shotR",
          "type": "uint8"
        },
        {
          "indexed": false,
          "internalType": "uint256",
          "name": "gameId",
          "type": "uint256"
        }
      ],
      "name": "ShipShot",
      "type": "event"
    },
    {
      "anonymous": false,
      "inputs": [
        {
          "indexed": true,
          "internalType": "address",
          "name": "captain",
          "type": "address"
        },
        {
          "indexed": false,
          "internalType": "uint256",
          "name": "gameId",
          "type": "uint256"
        }
      ],
      "name": "ShipSunk",
      "type": "event"
    },
    {
      "anonymous": false,
      "inputs": [
        {
          "indexed": true,
          "internalType": "address",
          "name": "captain",
          "type": "address"
        },
        {
          "indexed": false,
          "internalType": "uint256",
          "name": "gameId",
          "type": "uint256"
        }
      ],
      "name": "ShipSunkOutOfMap",
      "type": "event"
    },
    {
      "anonymous": false,
      "inputs": [
        {
          "indexed": false,
          "internalType": "uint256",
          "name": "gameId",
          "type": "uint256"
        },
        {
          "indexed": false,
          "internalType": "uint256",
          "name": "round",
          "type": "uint256"
        }
      ],
      "name": "SubmitPhaseStarted",
      "type": "event"
    },
    {
      "anonymous": false,
      "inputs": [
        {
          "indexed": false,
          "internalType": "uint256",
          "name": "gameId",
          "type": "uint256"
        }
      ],
      "name": "WorldUpdated",
      "type": "event"
    },
    {
      "inputs": [
        {
          "internalType": "address",
          "name": "playerAddress",
          "type": "address"
        },
        {
          "internalType": "uint256",
          "name": "gameId",
          "type": "uint256"
        },
        {
          "internalType": "uint256",
          "name": "_punkshipId",
          "type": "uint256"
        }
      ],
      "name": "addShip",
      "outputs": [],
      "stateMutability": "nonpayable",
      "type": "function"
    },
    {
      "inputs": [
        {
          "internalType": "bytes32",
          "name": "moveHash",
          "type": "bytes32"
        },
        {
          "internalType": "uint256",
          "name": "gameId",
          "type": "uint256"
        }
      ],
      "name": "commitMove",
      "outputs": [],
      "stateMutability": "nonpayable",
      "type": "function"
    },
    {
      "inputs": [
        {
          "internalType": "enum SharedStructs.Directions",
          "name": "_travelDirection",
          "type": "uint8"
        },
        {
          "internalType": "uint8",
          "name": "_travelDistance",
          "type": "uint8"
        },
        {
          "internalType": "enum SharedStructs.Directions",
          "name": "_shotDirection",
          "type": "uint8"
        },
        {
          "internalType": "uint8",
          "name": "_shotDistance",
          "type": "uint8"
        },
        {
          "internalType": "uint8",
          "name": "_secret",
          "type": "uint8"
        },
        {
          "internalType": "address",
          "name": "_playerAddress",
          "type": "address"
        }
      ],
      "name": "encodeCommitment",
      "outputs": [
        {
          "internalType": "bytes32",
          "name": "",
          "type": "bytes32"
        }
      ],
      "stateMutability": "pure",
      "type": "function"
    },
    {
      "inputs": [
        {
          "internalType": "uint256",
          "name": "gameId",
          "type": "uint256"
        }
      ],
      "name": "endGame",
      "outputs": [],
      "stateMutability": "nonpayable",
      "type": "function"
    },
    {
      "inputs": [
        {
          "internalType": "uint256",
          "name": "",
          "type": "uint256"
        }
      ],
      "name": "games",
      "outputs": [
        {
          "internalType": "uint256",
          "name": "round",
          "type": "uint256"
        },
        {
          "internalType": "uint8",
          "name": "shrinkNo",
          "type": "uint8"
        },
        {
          "internalType": "bool",
          "name": "gameInProgress",
          "type": "bool"
        },
        {
          "internalType": "bool",
          "name": "stopAddingShips",
          "type": "bool"
        },
        {
          "internalType": "bool",
          "name": "letCommitMoves",
          "type": "bool"
        },
        {
          "internalType": "bool",
          "name": "letSubmitMoves",
          "type": "bool"
        }
      ],
      "stateMutability": "view",
      "type": "function"
    },
    {
      "inputs": [
        {
          "components": [
            {
              "internalType": "uint8",
              "name": "q",
              "type": "uint8"
            },
            {
              "internalType": "uint8",
              "name": "r",
              "type": "uint8"
            }
          ],
          "internalType": "struct SharedStructs.Coordinate",
          "name": "_coord",
          "type": "tuple"
        },
        {
          "internalType": "uint256",
          "name": "gameId",
          "type": "uint256"
        }
      ],
      "name": "getCell",
      "outputs": [
        {
          "components": [
            {
              "internalType": "uint8",
              "name": "q",
              "type": "uint8"
            },
            {
              "internalType": "uint8",
              "name": "r",
              "type": "uint8"
            },
            {
              "internalType": "bool",
              "name": "island",
              "type": "bool"
            },
            {
              "internalType": "bool",
              "name": "exists",
              "type": "bool"
            }
          ],
          "internalType": "struct SharedStructs.Cell",
          "name": "",
          "type": "tuple"
        }
      ],
      "stateMutability": "view",
      "type": "function"
    },
    {
      "inputs": [
        {
          "internalType": "uint256",
          "name": "gameId",
          "type": "uint256"
        }
      ],
      "name": "getCells",
      "outputs": [
        {
          "components": [
            {
              "internalType": "uint8",
              "name": "q",
              "type": "uint8"
            },
            {
              "internalType": "uint8",
              "name": "r",
              "type": "uint8"
            }
          ],
          "internalType": "struct SharedStructs.Coordinate[]",
          "name": "",
          "type": "tuple[]"
        }
      ],
      "stateMutability": "view",
      "type": "function"
    },
    {
      "inputs": [
        {
          "internalType": "uint256",
          "name": "gameId",
          "type": "uint256"
        }
      ],
      "name": "getRadius",
      "outputs": [
        {
          "internalType": "uint8",
          "name": "",
          "type": "uint8"
        }
      ],
      "stateMutability": "view",
      "type": "function"
    },
    {
      "inputs": [
        {
          "internalType": "uint256",
          "name": "gameId",
          "type": "uint256"
        }
      ],
      "name": "getShips",
      "outputs": [
        {
          "components": [
            {
              "components": [
                {
                  "internalType": "uint8",
                  "name": "q",
                  "type": "uint8"
                },
                {
                  "internalType": "uint8",
                  "name": "r",
                  "type": "uint8"
                }
              ],
              "internalType": "struct SharedStructs.Coordinate",
              "name": "coordinate",
              "type": "tuple"
            },
            {
              "internalType": "enum SharedStructs.Directions",
              "name": "travelDirection",
              "type": "uint8"
            },
            {
              "internalType": "uint8",
              "name": "travelDistance",
              "type": "uint8"
            },
            {
              "internalType": "enum SharedStructs.Directions",
              "name": "shotDirection",
              "type": "uint8"
            },
            {
              "internalType": "uint8",
              "name": "shotDistance",
              "type": "uint8"
            },
            {
              "internalType": "bool",
              "name": "publishedMove",
              "type": "bool"
            },
            {
              "internalType": "address",
              "name": "captain",
              "type": "address"
            },
            {
              "internalType": "uint8",
              "name": "yachtSpeed",
              "type": "uint8"
            },
            {
              "internalType": "uint8",
              "name": "yachtRange",
              "type": "uint8"
            },
            {
              "internalType": "uint256",
              "name": "gameId",
              "type": "uint256"
            }
          ],
          "internalType": "struct GamePunk.Ship[]",
          "name": "",
          "type": "tuple[]"
        }
      ],
      "stateMutability": "view",
      "type": "function"
    },
    {
      "inputs": [
        {
          "components": [
            {
              "internalType": "uint8",
              "name": "q",
              "type": "uint8"
            },
            {
              "internalType": "uint8",
              "name": "r",
              "type": "uint8"
            }
          ],
          "internalType": "struct SharedStructs.Coordinate",
          "name": "_start",
          "type": "tuple"
        },
        {
          "internalType": "enum SharedStructs.Directions",
          "name": "_dir",
          "type": "uint8"
        },
        {
          "internalType": "uint8",
          "name": "_distance",
          "type": "uint8"
        },
        {
          "internalType": "uint256",
          "name": "gameId",
          "type": "uint256"
        }
      ],
      "name": "move",
      "outputs": [
        {
          "components": [
            {
              "internalType": "uint8",
              "name": "q",
              "type": "uint8"
            },
            {
              "internalType": "uint8",
              "name": "r",
              "type": "uint8"
            }
          ],
          "internalType": "struct SharedStructs.Coordinate",
          "name": "",
          "type": "tuple"
        }
      ],
      "stateMutability": "view",
      "type": "function"
    },
    {
      "inputs": [],
      "name": "owner",
      "outputs": [
        {
          "internalType": "address",
          "name": "",
          "type": "address"
        }
      ],
      "stateMutability": "view",
      "type": "function"
    },
    {
      "inputs": [],
      "name": "registrationContract",
      "outputs": [
        {
          "internalType": "address",
          "name": "",
          "type": "address"
        }
      ],
      "stateMutability": "view",
      "type": "function"
    },
    {
      "inputs": [],
      "name": "renounceOwnership",
      "outputs": [],
      "stateMutability": "nonpayable",
      "type": "function"
    },
    {
      "inputs": [
        {
          "internalType": "address",
          "name": "_registrationContract",
          "type": "address"
        }
      ],
      "name": "setRegistrationContract",
      "outputs": [],
      "stateMutability": "nonpayable",
      "type": "function"
    },
    {
      "inputs": [
        {
          "internalType": "uint256",
          "name": "gameId",
          "type": "uint256"
        },
        {
          "internalType": "uint8",
          "name": "_radius",
          "type": "uint8"
        }
      ],
      "name": "startNewGame",
      "outputs": [],
      "stateMutability": "nonpayable",
      "type": "function"
    },
    {
      "inputs": [
        {
          "internalType": "enum SharedStructs.Directions[]",
          "name": "_travelDirections",
          "type": "uint8[]"
        },
        {
          "internalType": "uint8[]",
          "name": "_travelDistances",
          "type": "uint8[]"
        },
        {
          "internalType": "enum SharedStructs.Directions[]",
          "name": "_shotDirections",
          "type": "uint8[]"
        },
        {
          "internalType": "uint8[]",
          "name": "_shotDistances",
          "type": "uint8[]"
        },
        {
          "internalType": "uint8[]",
          "name": "_secrets",
          "type": "uint8[]"
        },
        {
          "internalType": "address[]",
          "name": "_playerAddresses",
          "type": "address[]"
        },
        {
          "internalType": "uint256",
          "name": "gameId",
          "type": "uint256"
        }
      ],
      "name": "submitMove",
      "outputs": [],
      "stateMutability": "nonpayable",
      "type": "function"
    },
    {
      "inputs": [
        {
          "internalType": "address",
          "name": "newOwner",
          "type": "address"
        }
      ],
      "name": "transferOwnership",
      "outputs": [],
      "stateMutability": "nonpayable",
      "type": "function"
    },
    {
      "inputs": [
        {
          "components": [
            {
              "internalType": "uint8",
              "name": "q",
              "type": "uint8"
            },
            {
              "internalType": "uint8",
              "name": "r",
              "type": "uint8"
            }
          ],
          "internalType": "struct SharedStructs.Coordinate",
          "name": "_startCell",
          "type": "tuple"
        },
        {
          "internalType": "enum SharedStructs.Directions",
          "name": "_direction",
          "type": "uint8"
        },
        {
          "internalType": "uint8",
          "name": "_distance",
          "type": "uint8"
        },
        {
          "internalType": "uint256",
          "name": "gameId",
          "type": "uint256"
        }
      ],
      "name": "travel",
      "outputs": [],
      "stateMutability": "nonpayable",
      "type": "function"
    },
    {
      "inputs": [
        {
          "internalType": "uint256",
          "name": "gameId",
          "type": "uint256"
        }
      ],
      "name": "updateWorld",
      "outputs": [],
      "stateMutability": "nonpayable",
      "type": "function"
    }
  ],
  "bytecode": "0x60c0346200015a57601f6200430e38819003918201601f19168301916001600160401b038311848410176200015f5780849260409485528339810103126200015a576200005a6020620000528362000175565b920162000175565b903315620001415760008054336001600160a01b0319821681178355604051946001600160a01b0394909385939192918416907f8be0079c531659141344cd1fd0a4f28419497f9722a3daafe3b4186f6b6457e09080a3166080521660a05261418390816200018b82396080518181816104a50152818161094b015281816112fc015281816117e50152818161212301528181612313015281816127be0152818161283801528181612d9801528181612ef101528181613222015281816135f80152614003015260a05181818161172101528181611aba01528181611b110152611b670152f35b604051631e4fbdf760e01b815260006004820152602490fd5b600080fd5b634e487b7160e01b600052604160045260246000fd5b51906001600160a01b03821682036200015a5756fe608080604052600436101561001357600080fd5b600090813560e01c908163117a5b901461374f57508063183b1baf146135715780631e522c3e14613548578063261aff41146131d45780634ab0aac914612e215780636b082eed14612d46578063715018a614612cec57806378d59e0514612a055780638b7524b6146123d05780638da5cb5b146123a957806394c1d2d9146122ad5780639cc45f34146121d7578063b173a14714612065578063b39116fd146116b3578063d0399bb814611635578063d3db03cc146115f5578063d837093c14610200578063dcdb58971461017f5763f2fde38b146100f257600080fd5b3461017c57602036600319011261017c5761010b6139c0565b6101136139d6565b6001600160a01b0390811690811561016357600054826001600160601b0360a01b821617600055167f8be0079c531659141344cd1fd0a4f28419497f9722a3daafe3b4186f6b6457e0600080a380f35b604051631e4fbdf760e01b815260048101849052602490fd5b80fd5b503461017c5760c036600319011261017c5760043560078110156101fc576101a5613849565b9160443590600782101561017c575060643560ff811681036101f7576084359060ff821682036101f75760a435926001600160a01b03841684036101f7576020956101ef95613b27565b604051908152f35b600080fd5b5080fd5b503461017c57602036600319011261017c5761021a6139d6565b6004358152600160205261023c600160ff600460408520015416151514613a5e565b60043581526001602052604081206003815406156112eb575b50600435815260016020526102706003604083200154613e6a565b9060043581526001602052600360408220015461028c816138d9565b9061029a6040519283613827565b8082526102a9601f19916138d9565b01366020830137815b60043583526001602052600360408420015460ff8216908110156102eb579060016102e06102e69385613c27565b52613dad565b6102b2565b838584825b60043584526001602052604084206003810190815460ff8416101561080d5761031b83600293613d35565b60018060a01b0391549060031b1c166000520160205260018060a01b0360016040600020015460281c161561039157600435845260016020526002604085206103678360038301613d35565b60018060a01b0391549060031b1c166000520160205260ff60016040600020015460201c1661039f575b61039a90613dad565b6102f0565b600435845260016020526002604085206103bc8360038301613d35565b60018060a01b0391549060031b1c1660005201602052604060002090600435855260016020526002604086206103f58360038301613d35565b60018060a01b0391549060031b1c166000520160205260ff8060016040600020015416600435875260016020526002604088206104358560038301613d35565b60018060a01b0391549060031b1c166000520160205261048c600160406000200154916104826040519663183b1baf60e01b8852600488019060ff60209154818116845260081c16910152565b60448601906138b6565b60081c166064830152600435608483015260608260a4817f00000000000000000000000000000000000000000000000000000000000000006001600160a01b03165afa80156108025761039a92869087926107d0575b506106b357610657906004358752600160205260ff61050784600360408b2001613d35565b60018060a01b0391549060031b1c1660043589526001602052600260408a206105338760038301613d35565b60018060a01b0391549060031b1c16600052016020528160406000205416906004358a526001602052600260408b2061056f8860038301613d35565b60018060a01b0391549060031b1c16600052016020527f9db385e25deecca76e1e8dab29ae54e5c2f1707d2c611cfab0984b782e9f8a2c8360406000205460081c1684865116906105f96020880195878751166040519485946004359386919360ff6080948180949998978160a088019b1687521660208601521660408401521660608201520152565b0390a260043589526001602052600260408a206106198760038301613d35565b60018060a01b0391549060031b1c16600052016020528160406000209351168219845416178355511661ff0082549160081b169061ff001916179055565b600435855260016020526106718160036040882001613d35565b60018060a01b0391549060031b1c167f4a5516f0f1d85471405ad39e7a960ba9a7b312f2bdc784a6dce8402611417fd660206040516004358152a29050610391565b6107cb90600435875260016020526106d183600360408a2001613d35565b60018060a01b0391549060031b1c167f2265cf35e234e961bc739ea7efb0e9751a34a8c56c1b547ff729d632c2ad21a0606060ff84511660ff60208601511660405191600435835260208301526040820152a26004358752600160205261075b8361074281600360408c2001613d35565b9054600435929160031b1c6001600160a01b0316613ef0565b8661076960ff851687613c27565b52600435875260016020526002604088206107878560038301613d35565b60018060a01b0391549060031b1c166000520160205260ff602060406000209282815116831985541617845501511661ff0082549160081b169061ff001916179055565b613dad565b90506107f4915060603d6060116107fb575b6107ec8183613827565b810190613ecb565b90876104e2565b503d6107e2565b6040513d87823e3d90fd5b505050825b6004358452600160205260036040852001549060ff811691821015610b0d5761083b8284613c27565b51610850575b61084b9150613dad565b610812565b600435855260016020526040852061086b8260038301613d35565b939060018060a01b03948591549060031b1c166000526002809201602052604060002090600435885260016020528260408920866108ac8760038401613d35565b90549060031b1c166000520160205260ff60016040600020015460101c16600435895260016020528360408a20876108e78860038401613d35565b90549060031b1c166000520160205261093d60ff60016040600020015460181c16916109336040519563d6192ad360e01b8752600487019060ff60209154818116845260081c16910152565b60448501906138b6565b6064830152604082608481887f0000000000000000000000000000000000000000000000000000000000000000165afa918215610b02578892610a99575b509061084b946109b883836109b17f1a5ee6632f2ff8b0f1e4bf31b540f744e4337da13603a9eac0072df00578c5a6968c613c27565b5289613c27565b5060043589526001602052806109d486600360408d2001613d35565b90549060031b1c16936004358a5260016020528060408b20836109fa8960038401613d35565b90549060031b1c166000520160205260ff60406000205416916004358b52600160205260408b2090610a2f8860038401613d35565b90549060031b1c1660005201602052610a9160ff60406000205460081c169160ff602081865116950151166040519485946004359386919360ff6080948180949998978160a088019b1687521660208601521660408401521660608201520152565b0390a2610841565b915060403d604011610afb575b610ab08184613827565b820194604083870312610af7576109b8610aee61084b977f1a5ee6632f2ff8b0f1e4bf31b540f744e4337da13603a9eac0072df00578c5a695613cb1565b9350509461097b565b8880fd5b503d610aa6565b6040513d8a823e3d90fd5b505091805b60043581526001602052600360408220015460ff83161015610f2157805b60043582526001602052600360408320015460ff82161015610f10578060ff610b62921660ff851603610b6757613dad565b610b30565b610b7460ff851687613c27565b51151580610efa575b80610e7c575b80610df7575b610d0a575b610b9b60ff851687613c27565b51151580610cb6575b80610c5c575b15613dad57600435835260016020526107cb610bcc8560036040872001613d35565b9060018060a01b03918291549060031b1c166004358652600160205281610bf985600360408a2001613d35565b90549060031b1c16907fbeaba0cb8f0bf4956e3f8756079b1aa20a9c7286167b8957d85188108991642d60206040516004358152a36004358552600160205285610c498160036040892001613d35565b60049391933593549060031b1c16613ef0565b5060ff6020610c6d82841688613c27565b5101511660043584526001602052600260408520610c8e8760038301613d35565b60018060a01b0391549060031b1c166000520160205260ff60406000205460081c1614610baa565b5060ff610cc581831687613c27565b51511660043584526001602052600260408520610ce58760038301613d35565b60018060a01b0391549060031b1c166000520160205260ff6040600020541614610ba4565b82610d1860ff861688613c27565b5282610d2760ff831688613c27565b5260043583526001602052610df26020610d478660036040882001613d35565b905460405160043581526001600160a01b03937fd3530cd7a307ade37676af8529ec0105ea6204af5e1534bd5de42308107123719360031b9290921c8416918391a26004358652600160205281610da485600360408a2001613d35565b90549060031b1c169060206040516004358152a260043585526001602052610dd78187610c4981600360408b2001613d35565b6004358552600160205282610c498160036040892001613d35565b610b8e565b506004358352600160205260408320610e138260038301613d35565b919060018060a01b03928391549060031b1c16600052600280910160205260406000205491600435865260016020526040862090610e548860038401613d35565b90549060031b1c166000520160205260ff6040600020549181600893841c16921c1614610b89565b506004358352600160205260408320610e988260038301613d35565b919060018060a01b03928391549060031b1c16600052600280910160205260ff6040600020541691600435865260016020526040862090610edc8860038401613d35565b90549060031b1c166000520160205260ff6040600020541614610b83565b50610f0860ff821687613c27565b511515610b7d565b5090610f1b90613dad565b90610b12565b805b60043581526001602052600360408220019182549260ff8216938410156110325781610f4e91613d35565b90546001600160a01b03949160031b1c841615610f78575b50610f72919250613dad565b90610f23565b6004358352600160205260408320600301805460001981019190821161101e5794610faa610feb92610f729697613d35565b90549060031b1c1660043586526001602052610fcc8460036040892001613d35565b90919082549060031b9160018060a01b03809116831b921b1916179055565b6004358452600160205261100460036040862001613e12565b611010575b8291610f66565b61101990613e5a565b611009565b634e487b7160e01b85526011600452602485fd5b826004358152600160205260036040822001805480156000146110cb575050807f56807b65299b9d361218ee1228c0caeed59b1cbcb079421f124145f99d0a0b0660206040516004358152a260048035825260016020526040822001805461ff0019166101001790555b7f0ffee877d4bec4783459533ceddde8785dcd14454a9ebe37f1b3b8792509c36b60206040516004358152a180f35b6001036111495750600435815260016020526110ec60036040832001613d20565b60018060a01b0391549060031b1c167f56807b65299b9d361218ee1228c0caeed59b1cbcb079421f124145f99d0a0b0660206040516004358152a260048035825260016020526040822001805461ff00191661010017905561109c565b61115290613d20565b9060018060a01b03918291549060031b1c16827f6c5d9aa3894362f6fc8570afc4ad57ed5b0498a5e481b34ffccd61ee96cad12c60206040516004358152a3815b6004358352600160205260408320906003820191825460ff831610156112af57836111c1836112aa95613d35565b90549060031b1c1660005260028091016020526001604060002001600660ff19825416179055600435855260016020528060408620856112048560038401613d35565b90549060031b1c1660005201602052600160406000200161ff00198154169055600435855260016020528060408620856112418560038401613d35565b90549060031b1c166000520160205260016040600020016206000062ff0000198254161790556004358552600160205260408520846112838460038401613d35565b90549060031b1c1660005201602052600160406000200163ff000000198154169055613dad565b611193565b50505050600435815260016020526004604082200163ff0000001981541690556112da600435613fe2565b506112e6600435613aaa565b61109c565b6001015460ff166001600160a01b037f0000000000000000000000000000000000000000000000000000000000000000811690813b156115f157604051926335d5edab60e01b84526004356004850152602490818501526044938581868183885af180156115e6576115b7575b506004358552600160205260016040862001805460ff611379818316613dad565b169060ff19161790557ff47e725249069330b61eda3df25e7c3bcfd700624cbc7cbeabb0e28375bee53160206040516004358152a1845b60043586526001602052604086206003810180549160ff8416928310156115a957856113de85600294613d35565b90549060031b1c16600052016020526113fa6040600020613c81565b60405163b173a14760e01b8152815160ff908116600483015260209092015190911660248201526004358782015260809081816064818a5afa90811561159e578991611565575b506060915001511561145d575b5061145890613dad565b6113b0565b6004358752600160205261147c8483610c4981600360408d2001613d35565b600435875260016020528361149783600360408b2001613d35565b90549060031b1c167faf0f1f1c6dd1455929199c881d29a04680c9c20aff5f0331d8619ed875c58d1c60206040516004358152a26004358752600160205260408720600301805460001981019190821161155257856114fe61145895949361152093613d35565b90549060031b1c166004358a526001602052610fcc84600360408d2001613d35565b60043588526001602052611539600360408a2001613e12565b611544575b9061144e565b61154d90613e5a565b61153e565b634e487b7160e01b895260116004528489fd5b9050813d8311611597575b61157a8183613827565b81019181830312610af75760609161159191613d5a565b38611441565b503d611570565b6040513d8b823e3d90fd5b505050505050505038610255565b67ffffffffffffffff81969296116115d3576040529338611358565b634e487b7160e01b825260416004528582fd5b6040513d88823e3d90fd5b8380fd5b503461017c57602036600319011261017c5761160f6139c0565b6116176139d6565b60018060a01b03166001600160601b0360a01b600254161760025580f35b503461017c57602036600319011261017c577fce24807f7e4b60b4e641462f13029fa5e5f79075bbc3f8e5cd43ecd19661d76060206004356116756139d6565b80845260018252611694600160ff600460408820015416151514613a5e565b808452600182526040808520600401805460ff1916905551908152a180f35b503461017c57606036600319011261017c576116cd6139c0565b6116e260018060a01b03600254163314613a02565b60243582526001602052611704600160ff600460408620015416151514613a5e565b6040516331a9108f60e11b815260443560048201526020816024817f00000000000000000000000000000000000000000000000000000000000000006001600160a01b03165afa90811561205a578391612014575b506001600160a01b03828116911603611feb5760243582526001602090815260408084206001600160a01b038416855260020190915282205460ff16151580611fb7575b611f3e57906040516117ae816137bc565b818152816020820152819060015b15611a94575b5060408051637128e56d60e11b81526024803560048301529094918491869081847f00000000000000000000000000000000000000000000000000000000000000006001600160a01b03165af1948515611a89578495611a46575b50849084806118876118a060ff8a511660ff60208c0151169060405191611843836137bc565b60138352724e657720726e6420706169722025732c20257360681b602084015260405194859363ca47c4eb60e01b6020860152606060248601526084850190613ded565b916044840152606483015203601f198101835282613827565b6020815191016a636f6e736f6c652e6c6f675afa50845b6024358652600160205260036040872001805460ff83161015611a3957866118e0838293613d35565b90546040519160031b1c6001600160a01b03166118fc826137bc565b601782527f696e206c6f6f702025732c20616464726573733a202573000000000000000000602083015261196e6040518092611951602083019563038fd88960e31b8752606060248501526084840190613ded565b9060ff89166044840152606483015203601f198101835282613827565b51906a636f6e736f6c652e6c6f675afa506024358652600160205260026040872061199c8360038301613d35565b60018060a01b0391549060031b1c1688520160205260ff60408720541660ff88511614806119ed575b6119d7576119d290613dad565b6118b7565b509193945091506001905b9392939190916117bc565b5060243586526001602052600260408720611a0b8360038301613d35565b60018060a01b0391549060031b1c1688520160205260ff604087205460081c1660ff602089015116146119c5565b50509092919394506119e2565b90945060403d604011611a82575b611a5e8183613827565b6040828281010312611a7e5790611a7791810190613cb1565b933861181d565b8480fd5b503d611a54565b6040513d86823e3d90fd5b816117c257604051631986c9e960e31b81526044356004820152849250906020826024817f00000000000000000000000000000000000000000000000000000000000000006001600160a01b03165afa918215611a89578492611f02575b50604051636455ce8d60e11b81526044356004820152926020846024817f00000000000000000000000000000000000000000000000000000000000000006001600160a01b03165afa938415610802578594611ec6575b50604051631303d57d60e11b815260443560048201529385856024817f00000000000000000000000000000000000000000000000000000000000000006001600160a01b03165afa9485156115e6578695611e1f575b50604051611bac816137ee565b8381528660208201528660408201528660608201528660808201528660a082015260018060a01b03831660c082015260ff851660e082015260ff8216610100820152602435610120820152602435875260016020526002604088200160018060a01b03841688526020526040872090611c4a60ff60208351828151168319875416178655015116839061ff0082549160081b169061ff001916179055565b60208101516007811015611e0b57611c659060018401613c48565b611c8a60ff604083015116600184019061ff0082549160081b169061ff001916179055565b60608101516007811015611e0b57600291611cab6101209260018601613c60565b611cd460ff608083015116600186019063ff00000082549160181b169063ff0000001916179055565b60a08101511515600185015465010000000000600160c81b0360c084015160281b1660ff60c81b60e085015160c81b169164ff0000000060ff60d01b61010087015160d01b169460201b169063ffffffff64ffffffffff60d81b01161717171760018501550151910155602435865260016020526003604087200180549068010000000000000000821015611df757611df192611da185610fcc8560ff9560017f526c62f8fa999ff5dc01591b8086e17ed53753d49a9eca57e821d0c3f550efa39c9b9a98018155613d35565b81806020818851169701511696604051978897602435895260443560208a0152604089015260608801521660808601521660a084015260e060c084015260018060a01b03169460e0830190613ded565b0390a280f35b634e487b7160e01b88526041600452602488fd5b634e487b7160e01b89526021600452602489fd5b9094503d908187823e611e328282613827565b6020818381010312611ec25780519067ffffffffffffffff90818311610af757838101601f848301011215610af75782810151918211611eae5760405193611e84601f8401601f191660200186613827565b8285528101602083858401010111610af7576020611ea793818601920101613dbe565b9386611b9f565b634e487b7160e01b89526041600452602489fd5b8680fd5b9093506020813d602011611efa575b81611ee260209383613827565b81010312611a7e57611ef390613ca3565b9285611b49565b3d9150611ed5565b9091506020813d602011611f36575b81611f1e60209383613827565b810103126115f157611f2f90613ca3565b9084611af2565b3d9150611f11565b606491602435815260016020526002604082200160018060a01b038316825260205260ff6040818184205416926024358152600160205260028282200160018060a01b0386168252602052205460081c1690604051926308538db760e41b845260018060a01b0316600484015260248301526044820152fd5b5060243582526001602090815260408084206001600160a01b038416855260020190915282205460081c60ff16151561179d565b604051634319813760e01b81526001600160a01b03909116600482015260448035602483015290fd5b90506020813d602011612052575b8161202f60209383613827565b8101031261204e57516001600160a01b038116810361204e5738611759565b8280fd5b3d9150612022565b6040513d85823e3d90fd5b503461017c573660031901606081126101fc5760401361017c5760405161208b816137bc565b60043560ff8116810361204e57815260243560ff8116810361204e5760208201526044358260606040516120be8161380b565b828152826020820152826040820152015280835260016020526120ef600160ff600460408720015416151514613a5e565b60405163b173a14760e01b8152825160ff9081166004830152602090930151909216602483015260448201526080816064817f00000000000000000000000000000000000000000000000000000000000000006001600160a01b03165afa9081156121cc57829161218f575b60808260606040519160ff815116835260ff6020820151166020840152604081015115156040840152015115156060820152f35b905060803d81116121c5575b6121a58183613827565b81019160808284031261017c57506080916121bf91613d5a565b3861215b565b503d61219b565b6040513d84823e3d90fd5b503461017c57604036600319011261017c57600435602435908183526001602052600160ff600460408620015460101c1615150361225e5781835260016020526005604084200133845260205280604084205560405191825260208201527feb7d119bae44c06d4b05b80eb4a3bdfc755131945d1845f3c9d2aeaa7d8bf54260403392a280f35b60405162461bcd60e51b815260206004820152602160248201527f436f6d6d6974206d6f76657320686173206e6f742073746172746564207965746044820152602160f81b6064820152608490fd5b503461017c5760406122be36613859565b85602086959396516122cf816137bc565b8281520152855260016020526122f2600160ff6004868920015416151514613a5e565b61230f83519485938493630d42527560e11b855260048501613ce7565b03817f00000000000000000000000000000000000000000000000000000000000000006001600160a01b03165afa9081156121cc57829161236b575b6040826123698251809260ff60208092828151168552015116910152565bf35b905060403d6040116123a2575b6123828183613827565b81019160408284031261017c575060409161239c91613cb1565b3861234b565b503d612378565b503461017c578060031936011261017c57546040516001600160a01b039091168152602090f35b503461017c5760e036600319011261017c5767ffffffffffffffff60043581811161204e576124039036906004016138f1565b6024358281116115f15761241b903690600401613958565b604435838111611a7e576124339036906004016138f1565b90606435848111612a015761244c903690600401613958565b92608435858111611ec257612465903690600401613958565b9460a43511612a015736602360a435011215612a015760a435600401359161248c836138d9565b9261249a6040519485613827565b80845260208401903660248260051b60a435010111610af757602460a43501915b60248260051b60a435010183106129db5750505060c435875260016020526124f1600160ff600460408b20015416151514613a5e565b6124fe8351835114613b94565b61250b8251825114613b94565b6125188451865114613b94565b6125258651845114613b94565b865b83518110156129d75761259a8286898960ff61257d87826125758261256f61255c8f856125678561256161255c828096613c27565b613c3b565b9f613c27565b51169b613c27565b96613c27565b511694613c27565b5116926001600160a01b03612592888c613c27565b511694613b27565b60c43589526001602052604089206005016001600160a01b036125bd8488613c27565b51168a52602052888082604082205414604051906125da826137bc565b600f82526e686173686573206d6174636820257360881b60208301526126356040518092612621602083019563c3b5563560e01b8752604060248501526064840190613ded565b90604483015203601f198101835282613827565b51906a636f6e736f6c652e6c6f675afa5060c43589526001602052604089206005016001600160a01b036126698488613c27565b51168a52602052604089205414612689575b61268490613bdf565b612527565b60c43588526001602052604088206002016001600160a01b036126ac8387613c27565b5116895260205261277d604089206126c761255c8487613c27565b6126d5600183019182613c48565b60ff6126e18587613c27565b511660ff825460c81c168091116000146129c057612710905b825461ff00191660089190911b61ff0016178255565b61272661272061255c868b613c27565b82613c60565b60ff612732858b613c27565b511660ff825460d01c168091116000146129a957612765905b825463ff000000191660189190911b63ff00000016178255565b805464ff000000001916640100000000179055613c81565b90604061278d61255c8387613c27565b60ff6127998487613c27565b518351630d42527560e11b815295869384936127ba93169160048501613ce7565b03817f00000000000000000000000000000000000000000000000000000000000000006001600160a01b03165afa91821561159e578992612965575b5088612834604061280a61255c858b613c27565b60ff612816868d613c27565b51169082519384928392630d42527560e11b84528960048501613ce7565b03817f00000000000000000000000000000000000000000000000000000000000000006001600160a01b03165afa9081156121cc578291612901575b50612684937ffd735dcfd99f4b7d7f6bcea365f20bd4b998183607e89895805ae488fbeaa8669160c09160406001600160a01b036128ae888d613c27565b51169560c4358152600160205220549160ff6020818451169301511660ff60208184511693015116926040519460c4358652602086015260408501526060840152608083015260a0820152a2905061267b565b905060403d60401161295e575b6129188183613827565b810160408282031261204e576126849461295560c0927ffd735dcfd99f4b7d7f6bcea365f20bd4b998183607e89895805ae488fbeaa86694613cb1565b92509450612870565b503d61290e565b9091506040903d6040116129a1575b61297e8282613827565b604081838101031261299d5761299691810190613cb1565b90386127f6565b8980fd5b3d9150612974565b5061276560ff6129b9868c613c27565b511661274b565b5061271060ff6129d08688613c27565b51166126fa565b8780f35b8235906001600160a01b03821682036129fd57908152602092830192016124bb565b8a80fd5b8580fd5b503461017c576020908160031936011261017c57906004359182815260019081835260ff612a3f8382600460408620015416151514613a5e565b84825282845260038060408420015495612a58876138d9565b96612a666040519889613827565b808852612a75601f19916138d9565b01845b818110612c785750508484905b612b6c575b505050604051938085019181865286518093528160408701970193905b838210612ab45786880387f35b90919293948361016082998851612adb82825160ff60208092828151168552015116910152565b612aec8482015160408401906138b6565b858060408301511660609081850152820151612b0d608091828601906138b6565b8201511660a09081840152810151151560c0908184015260018060a01b03908201511660e0830152858060e083015116610100908185015282015116906101209182840152015161014082015201960192019096949693929193612aa7565b9085979592918186989596528385526040882090838201918254821015612c6957612b9a82612c5b94613d35565b90546001600160a01b0391871b1c81168b52600291820188526040808c20905192918a90612bc7856137ee565b612bd083613c81565b85528983015490612be58383168d8801613de1565b828260081c166040870152612c02838360101c1660608801613de1565b828260181c16608087015282828d1c16151560a08701528160281c1660c0860152818160c81c1660e086015260d01c166101008401520154610120820152612c4a828a613c27565b52612c558189613c27565b50613bdf565b909192959796949396612a85565b50505096949695939295612a8a565b9680949597604099979951612c8c816137ee565b604051612c98816137bc565b8a81528a84820152815289838201528960408201528960608201528960808201528960a08201528960c08201528960e0820152896101008201528961012082015282828a0101520197959796949396612a78565b503461017c578060031936011261017c57612d056139d6565b80546001600160a01b03198116825581906001600160a01b03167f8be0079c531659141344cd1fd0a4f28419497f9722a3daafe3b4186f6b6457e08280a380f35b503461017c576020908160031936011261017c5760043580825260018352612d7c600160ff600460408620015416151514613a5e565b60405163436fadf360e11b8152600481019190915282816024817f00000000000000000000000000000000000000000000000000000000000000006001600160a01b03165afa918215612e15578092612ddd575b505060ff60405191168152f35b9091508282813d8311612e0e575b612df58183613827565b8101031261017c5750612e0790613ca3565b3880612dd0565b503d612deb565b604051903d90823e3d90fd5b503461017c57604036600319011261017c5760043590612e3f613849565b60018060a01b0390600291612e58818454163314613a02565b60ff908186101561318f578585526001916020948386528160046040892001541661313c5787875283865260408720600401805460ff191685179055839087825b6130e2575b50505086865282855260036040872001805490878155816130bf575b5050612ec587613fe2565b5060405163af2f210960e01b815260ff85166004820152602481018890529186908390604490829084907f0000000000000000000000000000000000000000000000000000000000000000165af19182156115e6578692613020575b5085835b612f9a575b6040805160ff87168152602081018a905288917f50ad08f58a27f2851d7e3a1b3a6a46b290f2ce677e99642d30ff639721e777909189918c917f69daaa80244624dc227320708ed184109781f5bffb597d57054abadec2931b3b9190a1612f9081613aaa565b604051908152a180f35b825181101561301b57807fe40ab56a2b71773fd8fa12379eac11a90b1a5a8b57fbdb4b84e4734d32a551e160808a85612fd66130159689613c27565b515116868b612fe5878b613c27565b510151166040612ff5878b613c27565b5101511515916040519384528c84015260408301526060820152a1613bdf565b83612f25565b612f2a565b9091503d8087833e6130328183613827565b8101908581830312611ec25780519067ffffffffffffffff82116130bb570181601f82011215611ec2578051613067816138d9565b926130756040519485613827565b818452878085019260071b8401019281841161299d578801915b888484106130a35750505050509038612f21565b6080916130b08486613d5a565b81520192019161308f565b8780fd5b875283868820918201915b8281106130d75750612eba565b8881550184906130ca565b8989528288526040892090600391828101908782548410156131335761312d9461310d858895613d35565b9054911b1c168c5201895289836040822082815582878201550155613bdf565b82612e99565b50505050612e9e565b60405162461bcd60e51b815260048101879052602560248201527f47616d652077697468207468697320494420616c726561647920696e2070726f604482015264677265737360d81b6064820152608490fd5b60405162461bcd60e51b815260206004820152601f60248201527f4d6178696d756d206e756d626572206f662067616d65732072656163686564006044820152606490fd5b503461017c576020806003193601126101fc5760043580835260019283835260ff61320b8582600460408620015416151514613a5e565b60405163436fadf360e11b815260048101939093527f00000000000000000000000000000000000000000000000000000000000000006001600160a01b031690602485858281865afa948515611a89578495613511575b508161326d86614111565b951694878601908382116134fe5761329461328f61329a9386939b999b614125565b61413c565b16613e6a565b966040516132a7816137bc565b81815281888201526132b889613c04565b526132c288613c04565b5085805b613326575b50505050506040519280840190808552855180925280604086019601925b8281106132f65785870386f35b9091929382604088613319849a895160ff60208092828151168552015116910152565b01979501939291016132e9565b8381999799168281116134f55760001981018581116134e25761335561328f846133508994614111565b614125565b169061336089613c04565b516040516301cf2e2560e51b8152815160ff9081166004830152602090920151909116602482015290604482015287816064818a5afa908115610b02578891613445575b508a95949392919088875b6133cb575b5050506133c090613dad565b9091929396986132c6565b908092939495969750518c8883169182101561343a57506133ec8184613c27565b51908401908185116134275791613414828f9461340d8f9561341a96613c27565b528d613c27565b50613dad565b81979695949392916133af565b634e487b7160e01b8b526011600452878bfd5b9796959493506133b4565b90503d8089833e6134568183613827565b8101908a81830312610af75780519067ffffffffffffffff821161299d570181601f82011215610af757805161348b816138d9565b926134996040519485613827565b8184528c8085019260061b840101928184116134de578d01915b8d8484106134c6575050505050386133a4565b6040916134d38486613cb1565b8152019201916134b3565b8b80fd5b634e487b7160e01b885260116004528488fd5b509795976132cb565b634e487b7160e01b865260116004528286fd5b9094508581813d8311613541575b6135298183613827565b810103126115f15761353a90613ca3565b9338613262565b503d61351f565b503461017c578060031936011261017c576002546040516001600160a01b039091168152602090f35b503461017c5761358036613859565b919092828552600460406001956135da6020958887526135ae898b60ff978897889220015416151514613a5e565b60405163183b1baf60e01b8152865160ff90811660048301526020909701519096166024870152610482565b166064830152608482018490526001600160a01b039160608160a4817f000000000000000000000000000000000000000000000000000000000000000087165afa9081156137445787908892613723575b50156136c9575083865284835261364e8582600460408a20015416151514613a5e565b859283865b61366a575b50505050613667925033613ef0565b80f35b85885286825260038060408a2001805485841610156136c25761368e838792613d35565b929092339354911b1c16146136af57906136a88792613dad565b9091613653565b9350505050613667925038808080613658565b5050613658565b613667959250808285925116868952848352600260408a2001338a528352604089209060ff198254161790550151169285528152600260408520019033855252604083209061ff0082549160081b169061ff001916179055565b905061373d915060603d81116107fb576107ec8183613827565b903861362b565b6040513d89823e3d90fd5b9050346101fc5760203660031901126101fc5760ff604060c0936004358152600160205220805490600483600183015416910154918452602084015281811615156040840152818160081c1615156060840152818160101c161515608084015260181c16151560a0820152f35b6040810190811067ffffffffffffffff8211176137d857604052565b634e487b7160e01b600052604160045260246000fd5b610140810190811067ffffffffffffffff8211176137d857604052565b6080810190811067ffffffffffffffff8211176137d857604052565b90601f8019910116810190811067ffffffffffffffff8211176137d857604052565b6024359060ff821682036101f757565b6003190160a081126101f7576040136101f757604051613878816137bc565b60043560ff811681036101f757815261388f613849565b60208201529060443560078110156101f7579060643560ff811681036101f7579060843590565b9060078210156138c35752565b634e487b7160e01b600052602160045260246000fd5b67ffffffffffffffff81116137d85760051b60200190565b81601f820112156101f757803591613908836138d9565b926139166040519485613827565b808452602092838086019260051b8201019283116101f7578301905b828210613940575050505090565b813560078110156101f7578152908301908301613932565b81601f820112156101f75780359161396f836138d9565b9261397d6040519485613827565b808452602092838086019260051b8201019283116101f7578301905b8282106139a7575050505090565b813560ff811681036101f7578152908301908301613999565b600435906001600160a01b03821682036101f757565b6000546001600160a01b031633036139ea57565b60405163118cdaa760e01b8152336004820152602490fd5b15613a0957565b60405162461bcd60e51b815260206004820152602760248201527f43616c6c6572206973206e6f742074686520726567697374726174696f6e20636044820152661bdb9d1c9858dd60ca1b6064820152608490fd5b15613a6557565b60405162461bcd60e51b815260206004820152601960248201527f47616d6520686173206e6f7420737461727465642079657421000000000000006044820152606490fd5b60207f8924ef8e2fcf31b0d38716fc8120f7aec496d13f5abdb8320e31a69dbc449100918060005260018252613aef600160ff60046040600020015416151514613a5e565b806000526001825260046040600020016201000062ff000019825416179055604051908152a1565b60078110156138c35760f81b9052565b9492939060405194613b3d602087018098613b17565b613b5c60ff60f81b9485809460f81b1660218901526022880190613b17565b60f81b16602385015260f81b1660248301526001600160601b03199060601b16602582015260198152613b8e816137bc565b51902090565b15613b9b57565b606460405162461bcd60e51b815260206004820152602060248201527f417272617973206d7573742068617665207468652073616d65206c656e6774686044820152fd5b6000198114613bee5760010190565b634e487b7160e01b600052601160045260246000fd5b805115613c115760200190565b634e487b7160e01b600052603260045260246000fd5b8051821015613c115760209160051b010190565b5160078110156138c35790565b9060078110156138c35760ff80198354169116179055565b9060078110156138c35762ff000082549160101b169062ff00001916179055565b90604051613c8e816137bc565b602060ff829454818116845260081c16910152565b519060ff821682036101f757565b91908260409103126101f757604051613cc9816137bc565b6020613ce2818395613cda81613ca3565b855201613ca3565b910152565b916060919493613d1a60ff92613d1086608081019960ff60208092828151168552015116910152565b60408601906138b6565b16910152565b805415613c1157600052602060002090600090565b8054821015613c115760005260206000200190600090565b519081151582036101f757565b91908260809103126101f757604051613d728161380b565b6060613ce2818395613d8381613ca3565b8552613d9160208201613ca3565b6020860152613da260408201613d4d565b604086015201613d4d565b60ff1660ff8114613bee5760010190565b60005b838110613dd15750506000910152565b8181015183820152602001613dc1565b60078210156138c35752565b90602091613e0681518092818552858086019101613dbe565b601f01601f1916010190565b80548015613e44576000190190613e41613e2c8383613d35565b81549060018060a01b039060031b1b19169055565b55565b634e487b7160e01b600052603160045260246000fd5b60ff168015613bee576000190190565b90613e74826138d9565b604090613e8382519182613827565b8381528093613e94601f19916138d9565b0191600090815b848110613ea9575050505050565b6020908251613eb7816137bc565b848152828581830152828701015201613e9b565b91906060838203126101f757613eed906020613ee685613d4d565b9401613cb1565b90565b90916000908082526001906020908282526040946003868620015460ff88161015613f9e5792613e2c9592826003958794613f9c9a9852838352613f408460ff6004898920015416151514613a5e565b60018060a01b0316807f0ceeb6c20e03a8c47e6673117b7b54c5b880118423ef2a84e0b795bd849fc406848851858152a28185528383526002868620019085528252836002868220828155828682015501558352522001613d35565b565b855162461bcd60e51b815260048101849052601860248201527f496e6465782076616c7565206f7574206f662072616e676500000000000000006044820152606490fd5b6040805163436fadf360e11b815260048101839052909160209182816024817f00000000000000000000000000000000000000000000000000000000000000006001600160a01b03165afa908115614106576000916140a6575b50907f3874cce3730901301cd0c02b4c2dd416d59546f183096d9f2a434c4d3a9ba4a5606060019493836000528585528660002061407a8154613bdf565b90558360005285855260ff876000205491885192868452878401521687820152a1600052526000205490565b908382813d83116140ff575b6140bc8183613827565b8101031261017c5750907f3874cce3730901301cd0c02b4c2dd416d59546f183096d9f2a434c4d3a9ba4a560606140f560019594613ca3565b929394505061403c565b503d6140b2565b84513d6000823e3d90fd5b60ff166003029060ff8216918203613bee57565b9060ff8091169116029060ff8216918203613bee57565b60ff166001019060ff8211613bee5756fea26469706673582212209e764be6af681a0454547cca8c94b6e62decac3e4c86b3bd6d96d67ef7f82cec64736f6c63430008140033",
  "linkReferences": {},
  "deployedLinkReferences": {}
}