{
  "_format": "hh-sol-artifact-1",
  "contractName": "GamePunk",
  "sourceName": "contracts/GamePunk.sol",
  "abi": [
    {
      "inputs": [
        {
          "internalType": "address",
          "name": "_mapAddress",
          "type": "address"
        },
        {
          "internalType": "address",
          "name": "_punkshipsAddress",
          "type": "address"
        }
      ],
      "stateMutability": "nonpayable",
      "type": "constructor"
    },
    {
      "inputs": [
        {
          "internalType": "address",
          "name": "player",
          "type": "address"
        },
        {
          "internalType": "uint256",
          "name": "tokenId",
          "type": "uint256"
        }
      ],
      "name": "NotOwnerOfShip",
      "type": "error"
    },
    {
      "inputs": [
        {
          "internalType": "address",
          "name": "owner",
          "type": "address"
        }
      ],
      "name": "OwnableInvalidOwner",
      "type": "error"
    },
    {
      "inputs": [
        {
          "internalType": "address",
          "name": "account",
          "type": "address"
        }
      ],
      "name": "OwnableUnauthorizedAccount",
      "type": "error"
    },
    {
      "inputs": [
        {
          "internalType": "address",
          "name": "player",
          "type": "address"
        },
        {
          "internalType": "uint8",
          "name": "q",
          "type": "uint8"
        },
        {
          "internalType": "uint8",
          "name": "r",
          "type": "uint8"
        }
      ],
      "name": "ShipAlreadyAdded",
      "type": "error"
    },
    {
      "anonymous": false,
      "inputs": [
        {
          "indexed": false,
          "internalType": "uint256",
          "name": "gameId",
          "type": "uint256"
        },
        {
          "indexed": false,
          "internalType": "uint8",
          "name": "q",
          "type": "uint8"
        },
        {
          "indexed": false,
          "internalType": "uint8",
          "name": "r",
          "type": "uint8"
        },
        {
          "indexed": false,
          "internalType": "bool",
          "name": "island",
          "type": "bool"
        }
      ],
      "name": "Cell",
      "type": "event"
    },
    {
      "anonymous": false,
      "inputs": [
        {
          "indexed": false,
          "internalType": "uint256",
          "name": "gameId",
          "type": "uint256"
        },
        {
          "indexed": false,
          "internalType": "uint8",
          "name": "q",
          "type": "uint8"
        },
        {
          "indexed": false,
          "internalType": "uint8",
          "name": "r",
          "type": "uint8"
        }
      ],
      "name": "CellDeleted",
      "type": "event"
    },
    {
      "anonymous": false,
      "inputs": [
        {
          "indexed": false,
          "internalType": "uint256",
          "name": "gameId",
          "type": "uint256"
        }
      ],
      "name": "CommitPhaseStarted",
      "type": "event"
    },
    {
      "anonymous": false,
      "inputs": [
        {
          "indexed": false,
          "internalType": "uint256",
          "name": "gameId",
          "type": "uint256"
        }
      ],
      "name": "GameEnded",
      "type": "event"
    },
    {
      "anonymous": false,
      "inputs": [
        {
          "indexed": false,
          "internalType": "uint256",
          "name": "gameId",
          "type": "uint256"
        }
      ],
      "name": "GameStarted",
      "type": "event"
    },
    {
      "anonymous": false,
      "inputs": [
        {
          "indexed": true,
          "internalType": "bool",
          "name": "gameStatus",
          "type": "bool"
        },
        {
          "indexed": true,
          "internalType": "address",
          "name": "winnerAddress",
          "type": "address"
        },
        {
          "indexed": false,
          "internalType": "uint256",
          "name": "gameId",
          "type": "uint256"
        }
      ],
      "name": "GameUpdated",
      "type": "event"
    },
    {
      "anonymous": false,
      "inputs": [
        {
          "indexed": true,
          "internalType": "address",
          "name": "winner",
          "type": "address"
        },
        {
          "indexed": false,
          "internalType": "uint256",
          "name": "gameId",
          "type": "uint256"
        }
      ],
      "name": "GameWinner",
      "type": "event"
    },
    {
      "anonymous": false,
      "inputs": [
        {
          "indexed": false,
          "internalType": "uint8",
          "name": "radius",
          "type": "uint8"
        },
        {
          "indexed": false,
          "internalType": "uint256",
          "name": "gameId",
          "type": "uint256"
        }
      ],
      "name": "MapInitialized",
      "type": "event"
    },
    {
      "anonymous": false,
      "inputs": [
        {
          "indexed": false,
          "internalType": "uint256",
          "name": "gameId",
          "type": "uint256"
        }
      ],
      "name": "MapShrink",
      "type": "event"
    },
    {
      "anonymous": false,
      "inputs": [
        {
          "indexed": true,
          "internalType": "address",
          "name": "player",
          "type": "address"
        },
        {
          "indexed": false,
          "internalType": "uint256",
          "name": "gameId",
          "type": "uint256"
        },
        {
          "indexed": false,
          "internalType": "bytes32",
          "name": "moveHash",
          "type": "bytes32"
        }
      ],
      "name": "MoveCommitted",
      "type": "event"
    },
    {
      "anonymous": false,
      "inputs": [
        {
          "indexed": true,
          "internalType": "address",
          "name": "player",
          "type": "address"
        },
        {
          "indexed": false,
          "internalType": "uint256",
          "name": "gameId",
          "type": "uint256"
        },
        {
          "indexed": false,
          "internalType": "uint256",
          "name": "roundId",
          "type": "uint256"
        },
        {
          "indexed": false,
          "internalType": "uint8",
          "name": "destQ",
          "type": "uint8"
        },
        {
          "indexed": false,
          "internalType": "uint8",
          "name": "destR",
          "type": "uint8"
        },
        {
          "indexed": false,
          "internalType": "uint8",
          "name": "shotQ",
          "type": "uint8"
        },
        {
          "indexed": false,
          "internalType": "uint8",
          "name": "shotR",
          "type": "uint8"
        }
      ],
      "name": "MoveSubmitted",
      "type": "event"
    },
    {
      "anonymous": false,
      "inputs": [
        {
          "indexed": false,
          "internalType": "uint256",
          "name": "gameId",
          "type": "uint256"
        },
        {
          "indexed": false,
          "internalType": "uint256",
          "name": "roundId",
          "type": "uint256"
        },
        {
          "indexed": false,
          "internalType": "uint8",
          "name": "radius",
          "type": "uint8"
        }
      ],
      "name": "NewRound",
      "type": "event"
    },
    {
      "anonymous": false,
      "inputs": [
        {
          "indexed": true,
          "internalType": "address",
          "name": "previousOwner",
          "type": "address"
        },
        {
          "indexed": true,
          "internalType": "address",
          "name": "newOwner",
          "type": "address"
        }
      ],
      "name": "OwnershipTransferred",
      "type": "event"
    },
    {
      "anonymous": false,
      "inputs": [
        {
          "indexed": true,
          "internalType": "address",
          "name": "player",
          "type": "address"
        },
        {
          "indexed": false,
          "internalType": "uint256",
          "name": "gameId",
          "type": "uint256"
        },
        {
          "indexed": false,
          "internalType": "uint256",
          "name": "punkshipId",
          "type": "uint256"
        },
        {
          "indexed": false,
          "internalType": "uint8",
          "name": "q",
          "type": "uint8"
        },
        {
          "indexed": false,
          "internalType": "uint8",
          "name": "r",
          "type": "uint8"
        },
        {
          "indexed": false,
          "internalType": "uint8",
          "name": "speed",
          "type": "uint8"
        },
        {
          "indexed": false,
          "internalType": "uint8",
          "name": "range",
          "type": "uint8"
        },
        {
          "indexed": false,
          "internalType": "string",
          "name": "image",
          "type": "string"
        }
      ],
      "name": "PlayerAdded",
      "type": "event"
    },
    {
      "anonymous": false,
      "inputs": [
        {
          "indexed": true,
          "internalType": "address",
          "name": "player",
          "type": "address"
        },
        {
          "indexed": false,
          "internalType": "uint256",
          "name": "gameId",
          "type": "uint256"
        }
      ],
      "name": "PlayerDefeated",
      "type": "event"
    },
    {
      "anonymous": false,
      "inputs": [
        {
          "indexed": true,
          "internalType": "address",
          "name": "captain",
          "type": "address"
        },
        {
          "indexed": false,
          "internalType": "uint256",
          "name": "gameId",
          "type": "uint256"
        },
        {
          "indexed": false,
          "internalType": "uint8",
          "name": "q",
          "type": "uint8"
        },
        {
          "indexed": false,
          "internalType": "uint8",
          "name": "r",
          "type": "uint8"
        }
      ],
      "name": "ShipCollidedWithIsland",
      "type": "event"
    },
    {
      "anonymous": false,
      "inputs": [
        {
          "indexed": true,
          "internalType": "address",
          "name": "victim",
          "type": "address"
        },
        {
          "indexed": true,
          "internalType": "address",
          "name": "attacker",
          "type": "address"
        },
        {
          "indexed": false,
          "internalType": "uint256",
          "name": "gameId",
          "type": "uint256"
        }
      ],
      "name": "ShipHit",
      "type": "event"
    },
    {
      "anonymous": false,
      "inputs": [
        {
          "indexed": true,
          "internalType": "address",
          "name": "captain",
          "type": "address"
        },
        {
          "indexed": false,
          "internalType": "uint8",
          "name": "initialQ",
          "type": "uint8"
        },
        {
          "indexed": false,
          "internalType": "uint8",
          "name": "initialR",
          "type": "uint8"
        },
        {
          "indexed": false,
          "internalType": "uint8",
          "name": "q",
          "type": "uint8"
        },
        {
          "indexed": false,
          "internalType": "uint8",
          "name": "r",
          "type": "uint8"
        },
        {
          "indexed": false,
          "internalType": "uint256",
          "name": "gameId",
          "type": "uint256"
        }
      ],
      "name": "ShipMoved",
      "type": "event"
    },
    {
      "anonymous": false,
      "inputs": [
        {
          "indexed": true,
          "internalType": "address",
          "name": "captain",
          "type": "address"
        },
        {
          "indexed": false,
          "internalType": "uint256",
          "name": "gameId",
          "type": "uint256"
        }
      ],
      "name": "ShipMovedInGame",
      "type": "event"
    },
    {
      "anonymous": false,
      "inputs": [
        {
          "indexed": true,
          "internalType": "address",
          "name": "captain",
          "type": "address"
        },
        {
          "indexed": false,
          "internalType": "uint8",
          "name": "fromQ",
          "type": "uint8"
        },
        {
          "indexed": false,
          "internalType": "uint8",
          "name": "fromR",
          "type": "uint8"
        },
        {
          "indexed": false,
          "internalType": "uint8",
          "name": "shotQ",
          "type": "uint8"
        },
        {
          "indexed": false,
          "internalType": "uint8",
          "name": "shotR",
          "type": "uint8"
        },
        {
          "indexed": false,
          "internalType": "uint256",
          "name": "gameId",
          "type": "uint256"
        }
      ],
      "name": "ShipShot",
      "type": "event"
    },
    {
      "anonymous": false,
      "inputs": [
        {
          "indexed": true,
          "internalType": "address",
          "name": "captain",
          "type": "address"
        },
        {
          "indexed": false,
          "internalType": "uint256",
          "name": "gameId",
          "type": "uint256"
        }
      ],
      "name": "ShipSunk",
      "type": "event"
    },
    {
      "anonymous": false,
      "inputs": [
        {
          "indexed": true,
          "internalType": "address",
          "name": "captain",
          "type": "address"
        },
        {
          "indexed": false,
          "internalType": "uint256",
          "name": "gameId",
          "type": "uint256"
        }
      ],
      "name": "ShipSunkOutOfMap",
      "type": "event"
    },
    {
      "anonymous": false,
      "inputs": [
        {
          "indexed": false,
          "internalType": "uint256",
          "name": "gameId",
          "type": "uint256"
        },
        {
          "indexed": false,
          "internalType": "uint256",
          "name": "round",
          "type": "uint256"
        }
      ],
      "name": "SubmitPhaseStarted",
      "type": "event"
    },
    {
      "anonymous": false,
      "inputs": [
        {
          "indexed": false,
          "internalType": "uint256",
          "name": "gameId",
          "type": "uint256"
        }
      ],
      "name": "WorldUpdated",
      "type": "event"
    },
    {
      "stateMutability": "nonpayable",
      "type": "fallback"
    },
    {
      "inputs": [
        {
          "internalType": "address",
          "name": "playerAddress",
          "type": "address"
        },
        {
          "internalType": "uint256",
          "name": "gameId",
          "type": "uint256"
        },
        {
          "internalType": "uint256",
          "name": "_punkshipId",
          "type": "uint256"
        }
      ],
      "name": "addShip",
      "outputs": [],
      "stateMutability": "nonpayable",
      "type": "function"
    },
    {
      "inputs": [
        {
          "internalType": "bytes32",
          "name": "moveHash",
          "type": "bytes32"
        },
        {
          "internalType": "uint256",
          "name": "gameId",
          "type": "uint256"
        }
      ],
      "name": "commitMove",
      "outputs": [],
      "stateMutability": "nonpayable",
      "type": "function"
    },
    {
      "inputs": [
        {
          "internalType": "enum SharedStructs.Directions",
          "name": "_travelDirection",
          "type": "uint8"
        },
        {
          "internalType": "uint8",
          "name": "_travelDistance",
          "type": "uint8"
        },
        {
          "internalType": "enum SharedStructs.Directions",
          "name": "_shotDirection",
          "type": "uint8"
        },
        {
          "internalType": "uint8",
          "name": "_shotDistance",
          "type": "uint8"
        },
        {
          "internalType": "uint8",
          "name": "_secret",
          "type": "uint8"
        },
        {
          "internalType": "address",
          "name": "_playerAddress",
          "type": "address"
        }
      ],
      "name": "encodeCommitment",
      "outputs": [
        {
          "internalType": "bytes32",
          "name": "",
          "type": "bytes32"
        }
      ],
      "stateMutability": "pure",
      "type": "function"
    },
    {
      "inputs": [
        {
          "internalType": "uint256",
          "name": "gameId",
          "type": "uint256"
        }
      ],
      "name": "endGame",
      "outputs": [],
      "stateMutability": "nonpayable",
      "type": "function"
    },
    {
      "inputs": [
        {
          "internalType": "uint256",
          "name": "",
          "type": "uint256"
        }
      ],
      "name": "games",
      "outputs": [
        {
          "internalType": "uint256",
          "name": "round",
          "type": "uint256"
        },
        {
          "internalType": "uint8",
          "name": "shrinkNo",
          "type": "uint8"
        },
        {
          "internalType": "bool",
          "name": "gameInProgress",
          "type": "bool"
        },
        {
          "internalType": "bool",
          "name": "stopAddingShips",
          "type": "bool"
        },
        {
          "internalType": "bool",
          "name": "letCommitMoves",
          "type": "bool"
        },
        {
          "internalType": "bool",
          "name": "letSubmitMoves",
          "type": "bool"
        }
      ],
      "stateMutability": "view",
      "type": "function"
    },
    {
      "inputs": [
        {
          "components": [
            {
              "internalType": "uint8",
              "name": "q",
              "type": "uint8"
            },
            {
              "internalType": "uint8",
              "name": "r",
              "type": "uint8"
            }
          ],
          "internalType": "struct SharedStructs.Coordinate",
          "name": "_coord",
          "type": "tuple"
        },
        {
          "internalType": "uint256",
          "name": "gameId",
          "type": "uint256"
        }
      ],
      "name": "getCell",
      "outputs": [
        {
          "components": [
            {
              "internalType": "uint8",
              "name": "q",
              "type": "uint8"
            },
            {
              "internalType": "uint8",
              "name": "r",
              "type": "uint8"
            },
            {
              "internalType": "bool",
              "name": "island",
              "type": "bool"
            },
            {
              "internalType": "bool",
              "name": "exists",
              "type": "bool"
            }
          ],
          "internalType": "struct SharedStructs.Cell",
          "name": "",
          "type": "tuple"
        }
      ],
      "stateMutability": "view",
      "type": "function"
    },
    {
      "inputs": [
        {
          "internalType": "uint256",
          "name": "gameId",
          "type": "uint256"
        }
      ],
      "name": "getCoordinates",
      "outputs": [
        {
          "components": [
            {
              "internalType": "uint8",
              "name": "q",
              "type": "uint8"
            },
            {
              "internalType": "uint8",
              "name": "r",
              "type": "uint8"
            }
          ],
          "internalType": "struct SharedStructs.Coordinate[]",
          "name": "",
          "type": "tuple[]"
        }
      ],
      "stateMutability": "view",
      "type": "function"
    },
    {
      "inputs": [
        {
          "internalType": "uint256",
          "name": "gameId",
          "type": "uint256"
        }
      ],
      "name": "getRadius",
      "outputs": [
        {
          "internalType": "uint8",
          "name": "",
          "type": "uint8"
        }
      ],
      "stateMutability": "view",
      "type": "function"
    },
    {
      "inputs": [
        {
          "internalType": "uint256",
          "name": "gameId",
          "type": "uint256"
        }
      ],
      "name": "getShips",
      "outputs": [
        {
          "components": [
            {
              "components": [
                {
                  "internalType": "uint8",
                  "name": "q",
                  "type": "uint8"
                },
                {
                  "internalType": "uint8",
                  "name": "r",
                  "type": "uint8"
                }
              ],
              "internalType": "struct SharedStructs.Coordinate",
              "name": "coordinate",
              "type": "tuple"
            },
            {
              "internalType": "enum SharedStructs.Directions",
              "name": "travelDirection",
              "type": "uint8"
            },
            {
              "internalType": "uint8",
              "name": "travelDistance",
              "type": "uint8"
            },
            {
              "internalType": "enum SharedStructs.Directions",
              "name": "shotDirection",
              "type": "uint8"
            },
            {
              "internalType": "uint8",
              "name": "shotDistance",
              "type": "uint8"
            },
            {
              "internalType": "bool",
              "name": "publishedMove",
              "type": "bool"
            },
            {
              "internalType": "address",
              "name": "captain",
              "type": "address"
            },
            {
              "internalType": "uint8",
              "name": "yachtSpeed",
              "type": "uint8"
            },
            {
              "internalType": "uint8",
              "name": "yachtRange",
              "type": "uint8"
            },
            {
              "internalType": "uint256",
              "name": "gameId",
              "type": "uint256"
            }
          ],
          "internalType": "struct GamePunk.Ship[]",
          "name": "",
          "type": "tuple[]"
        }
      ],
      "stateMutability": "view",
      "type": "function"
    },
    {
      "inputs": [
        {
          "components": [
            {
              "internalType": "uint8",
              "name": "q",
              "type": "uint8"
            },
            {
              "internalType": "uint8",
              "name": "r",
              "type": "uint8"
            }
          ],
          "internalType": "struct SharedStructs.Coordinate",
          "name": "_start",
          "type": "tuple"
        },
        {
          "internalType": "enum SharedStructs.Directions",
          "name": "_dir",
          "type": "uint8"
        },
        {
          "internalType": "uint8",
          "name": "_distance",
          "type": "uint8"
        },
        {
          "internalType": "uint256",
          "name": "gameId",
          "type": "uint256"
        }
      ],
      "name": "move",
      "outputs": [
        {
          "components": [
            {
              "internalType": "uint8",
              "name": "q",
              "type": "uint8"
            },
            {
              "internalType": "uint8",
              "name": "r",
              "type": "uint8"
            }
          ],
          "internalType": "struct SharedStructs.Coordinate",
          "name": "",
          "type": "tuple"
        }
      ],
      "stateMutability": "view",
      "type": "function"
    },
    {
      "inputs": [],
      "name": "owner",
      "outputs": [
        {
          "internalType": "address",
          "name": "",
          "type": "address"
        }
      ],
      "stateMutability": "view",
      "type": "function"
    },
    {
      "inputs": [],
      "name": "registrationContract",
      "outputs": [
        {
          "internalType": "address",
          "name": "",
          "type": "address"
        }
      ],
      "stateMutability": "view",
      "type": "function"
    },
    {
      "inputs": [],
      "name": "renounceOwnership",
      "outputs": [],
      "stateMutability": "nonpayable",
      "type": "function"
    },
    {
      "inputs": [
        {
          "internalType": "address",
          "name": "_registrationContract",
          "type": "address"
        }
      ],
      "name": "setRegistrationContract",
      "outputs": [],
      "stateMutability": "nonpayable",
      "type": "function"
    },
    {
      "inputs": [
        {
          "internalType": "uint256",
          "name": "gameId",
          "type": "uint256"
        },
        {
          "internalType": "uint8",
          "name": "_radius",
          "type": "uint8"
        }
      ],
      "name": "startNewGame",
      "outputs": [],
      "stateMutability": "nonpayable",
      "type": "function"
    },
    {
      "inputs": [
        {
          "internalType": "enum SharedStructs.Directions[]",
          "name": "_travelDirections",
          "type": "uint8[]"
        },
        {
          "internalType": "uint8[]",
          "name": "_travelDistances",
          "type": "uint8[]"
        },
        {
          "internalType": "enum SharedStructs.Directions[]",
          "name": "_shotDirections",
          "type": "uint8[]"
        },
        {
          "internalType": "uint8[]",
          "name": "_shotDistances",
          "type": "uint8[]"
        },
        {
          "internalType": "uint8[]",
          "name": "_secrets",
          "type": "uint8[]"
        },
        {
          "internalType": "address[]",
          "name": "_playerAddresses",
          "type": "address[]"
        },
        {
          "internalType": "uint256",
          "name": "gameId",
          "type": "uint256"
        }
      ],
      "name": "submitMove",
      "outputs": [],
      "stateMutability": "nonpayable",
      "type": "function"
    },
    {
      "inputs": [
        {
          "internalType": "address",
          "name": "newOwner",
          "type": "address"
        }
      ],
      "name": "transferOwnership",
      "outputs": [],
      "stateMutability": "nonpayable",
      "type": "function"
    },
    {
      "inputs": [
        {
          "components": [
            {
              "internalType": "uint8",
              "name": "q",
              "type": "uint8"
            },
            {
              "internalType": "uint8",
              "name": "r",
              "type": "uint8"
            }
          ],
          "internalType": "struct SharedStructs.Coordinate",
          "name": "_startCell",
          "type": "tuple"
        },
        {
          "internalType": "enum SharedStructs.Directions",
          "name": "_direction",
          "type": "uint8"
        },
        {
          "internalType": "uint8",
          "name": "_distance",
          "type": "uint8"
        },
        {
          "internalType": "uint256",
          "name": "gameId",
          "type": "uint256"
        }
      ],
      "name": "travel",
      "outputs": [],
      "stateMutability": "nonpayable",
      "type": "function"
    },
    {
      "inputs": [
        {
          "internalType": "uint256",
          "name": "gameId",
          "type": "uint256"
        }
      ],
      "name": "updateWorld",
      "outputs": [],
      "stateMutability": "nonpayable",
      "type": "function"
    }
  ],
  "bytecode": "0x60c0346200015357601f6200410738819003918201601f19168301916001600160401b038311848410176200015857808492604094855283398101031262000153576200005a602062000052836200016e565b92016200016e565b9033156200013a5760008054336001600160a01b0319821681178355604051946001600160a01b0394909385939192918416907f8be0079c531659141344cd1fd0a4f28419497f9722a3daafe3b4186f6b6457e09080a3166080521660a052613f8390816200018482396080518181816104ac0152818161097f01528181611389015281816118a9015281816120960152818161227e0152818161263601528181612c1c01528181612d70015281816130cc015281816132e50152613e00015260a0518181816117de01528181611a2e01528181611a860152611ade0152f35b604051631e4fbdf760e01b815260006004820152602490fd5b600080fd5b634e487b7160e01b600052604160045260246000fd5b51906001600160a01b0382168203620001535756fe6080604052600436101561001a575b3461001557005b600080fd5b60003560e01c80630bf3781814613295578063117a5b9014613224578063183b1baf146130465780631e522c3e1461301d5780634ab0aac914612c965780636b082eed14612bca578063715018a614612b7157806378d59e05146128895780638b7524b61461233a5780638da5cb5b1461231157806394c1d2d9146122165780639cc45f341461213c578063b173a14714611fd6578063b39116fd14611766578063d0399bb8146116e5578063d3db03cc146116a2578063d837093c146101f3578063dcdb58971461017e5763f2fde38b0361000e573461001557602036600319011261001557610109613765565b61011161377b565b6001600160a01b0390811690811561016557600054826bffffffffffffffffffffffff60a01b821617600055167f8be0079c531659141344cd1fd0a4f28419497f9722a3daafe3b4186f6b6457e0600080a3005b604051631e4fbdf760e01b815260006004820152602490fd5b346100155760c0366003190112610015576004356007811015610015576101a3613604565b9060443560078110156100155760643560ff81168103610015576084359060ff821682036100155760a435926001600160a01b0384168403610015576020956101eb956138d1565b604051908152f35b346100155760203660031901126100155761020c61377b565b6004356000526001602052610230600160ff60046040600020015416151514613808565b6004356000526001602052604060002060038154061561135c575b506004356000526001602052610268600360406000200154613c67565b6004356000526001602052600360406000200154906102868261367e565b9161029460405193846135e2565b8083526102a3601f199161367e565b0136602084013760005b60043560005260016020526003604060002001549060ff8116918210156102e85760016102dd6102e393866139c0565b52613b46565b6102ad565b505060005b600435600052600160205260406000206003810190815460ff841610156108385761031a83600293613ace565b60018060a01b0391549060031b1c166000520160205260018060a01b0360016040600020015460281c1615610392576004356000526001602052600260406000206103688360038301613ace565b60018060a01b0391549060031b1c166000520160205260ff60016040600020015460201c166103a0575b61039b90613b46565b6102ed565b6004356000526001602052600260406000206103bf8360038301613ace565b60018060a01b0391549060031b1c16600052016020526040600020906004356000526001602052600260406000206103fa8360038301613ace565b60018060a01b0391549060031b1c166000520160205260ff806001604060002001541660043560005260016020526002604060002061043c8560038301613ace565b60018060a01b0391549060031b1c1660005201602052610493600160406000200154916104896040519663183b1baf60e01b8852600488019060ff60209154818116845260081c16910152565b6044860190613671565b60081c166064830152600435608483015260608260a4817f00000000000000000000000000000000000000000000000000000000000000006001600160a01b03165afa801561082c5761039b926000906000926107fa575b506106c65761066890600435600052600160205260ff610512846003604060002001613ace565b60018060a01b0391549060031b1c166004356000526001602052600260406000206105408760038301613ace565b60018060a01b0391549060031b1c166000520160205281604060002054169060043560005260016020526002604060002061057e8860038301613ace565b60018060a01b0391549060031b1c16600052016020527f9db385e25deecca76e1e8dab29ae54e5c2f1707d2c611cfab0984b782e9f8a2c8360406000205460081c1684865116906106086020880195878751166040519485946004359386919360ff6080948180949998978160a088019b1687521660208601521660408401521660608201520152565b0390a260043560005260016020526002604060002061062a8760038301613ace565b60018060a01b0391549060031b1c16600052016020528160406000209351168219845416178355511661ff0082549160081b169061ff001916179055565b6004356000526001602052610684816003604060002001613ace565b60018060a01b0391549060031b1c167f4a5516f0f1d85471405ad39e7a960ba9a7b312f2bdc784a6dce8402611417fd660206040516004358152a29050610392565b6107f59060043560005260016020526106e6836003604060002001613ace565b9054825160208085015160408051600435815260ff9485169381019390935292169181019190915260039290921b1c6001600160a01b0316907f2265cf35e234e961bc739ea7efb0e9751a34a8c56c1b547ff729d632c2ad21a09080606081010390a2600435600052600160205261078283610769816003604060002001613ace565b9054600435929160031b1c6001600160a01b0316613ced565b600061079160ff8516886139c0565b526004356000526001602052600260406000206107b18560038301613ace565b60018060a01b0391549060031b1c166000520160205260ff602060406000209282815116831985541617845501511661ff0082549160081b169061ff001916179055565b613b46565b905061081e915060603d606011610825575b61081681836135e2565b810190613cc8565b90866104eb565b503d61080c565b6040513d6000823e3d90fd5b50505060005b60043560005260016020526003604060002001549060ff811691821015610b395761086982856139c0565b5161087e575b6108799150613b46565b61083e565b6004356000526001602052604060002061089b8260038301613ace565b939060018060a01b03948591549060031b1c1660005260028092016020526040600020906004356000526001602052826040600020866108de8760038401613ace565b90549060031b1c166000520160205260ff60016040600020015460101c1660043560005260016020528360406000208761091b8860038401613ace565b90549060031b1c166000520160205261097160ff60016040600020015460181c16916109676040519563d6192ad360e01b8752600487019060ff60209154818116845260081c16910152565b6044850190613671565b6064830152604082608481887f0000000000000000000000000000000000000000000000000000000000000000165afa91821561082c57600092610ad4575b5090610879946109ed83836109e67f1a5ee6632f2ff8b0f1e4bf31b540f744e4337da13603a9eac0072df00578c5a6968b6139c0565b52886139c0565b50600435600052600160205280610a0b866003604060002001613ace565b90549060031b1c1693600435600052600160205280604060002083610a338960038401613ace565b90549060031b1c166000520160205260ff60406000205416916004356000526001602052604060002090610a6a8860038401613ace565b90549060031b1c1660005201602052610acc60ff60406000205460081c169160ff602081865116950151166040519485946004359386919360ff6080948180949998978160a088019b1687521660208601521660408401521660608201520152565b0390a261086f565b915060403d604011610b32575b610aeb81846135e2565b820194604083870312610015576109ed610b29610879977f1a5ee6632f2ff8b0f1e4bf31b540f744e4337da13603a9eac0072df00578c5a695613a4a565b935050946109b0565b503d610ae1565b505060005b600435600052600160205260036040600020015460ff82161015610f765760005b600435600052600160205260036040600020015460ff821690811015610f66579081610b959260ff851603610b9a575b50613b46565b610b5f565b610ba760ff8516876139c0565b51151580610f53575b80610ed1575b80610e48575b610d54575b610bce60ff8516876139c0565b5115159081610cfe575b81610ca2575b50610bea575b85610b8f565b6004356000526001602052610c9d610c09846003604060002001613ace565b9060018060a01b03918291549060031b1c16600435600052600160205281610c38856003604060002001613ace565b90549060031b1c16907fbeaba0cb8f0bf4956e3f8756079b1aa20a9c7286167b8957d85188108991642d60206040516004358152a3600435600052600160205284610c8a816003604060002001613ace565b60049391933593549060031b1c16613ced565b610be4565b60ff9150610cb2602091876139c0565b51015116600435600052600160205260026040600020610cd58660038301613ace565b60018060a01b0391549060031b1c166000520160205260ff60406000205460081c161486610bde565b905060ff610d0c82876139c0565b515116600435600052600160205260026040600020610d2e8760038301613ace565b60018060a01b0391549060031b1c166000520160205260ff604060002054161490610bd8565b6000610d6360ff8616886139c0565b526000610d7082886139c0565b526004356000526001602052610e436020610d92866003604060002001613ace565b905460405160043581526001600160a01b03937fd3530cd7a307ade37676af8529ec0105ea6204af5e1534bd5de42308107123719360031b9290921c8416918391a2600435600052600160205281610df1866003604060002001613ace565b90549060031b1c169060206040516004358152a26004356000526001602052610e268187610c8a816003604060002001613ace565b600435600052600160205283610c8a816003604060002001613ace565b610bc1565b5060043560005260016020526040600020610e668360038301613ace565b919060018060a01b03928391549060031b1c166000526002809101602052604060002054916004356000526001602052604060002090610ea98860038401613ace565b90549060031b1c166000520160205260ff6040600020549181600893841c16921c1614610bbc565b5060043560005260016020526040600020610eef8360038301613ace565b919060018060a01b03928391549060031b1c16600052600280910160205260ff60406000205416916004356000526001602052604060002090610f358860038401613ace565b90549060031b1c166000520160205260ff6040600020541614610bb6565b50610f5e81876139c0565b511515610bb0565b5050610f7190613b46565b610b3e565b60005b600435600052600160205260036040600020019081549160ff82169283101561108e5781610fa691613ace565b90546001600160a01b03939160031b1c831615610fce575b50610fc99150613b46565b610f79565b600435600052600160205260036040600020019283549060001982019182116110785761100161104492610fc996613ace565b90549060031b1c166004356000526001602052611025846003604060002001613ace565b90919082549060031b9160018060a01b03809116831b921b1916179055565b600435600052600160205261105f6003604060002001613c0f565b61106a575b82610fbe565b61107390613c57565b611064565b634e487b7160e01b600052601160045260246000fd5b600435600052600160205260036040600020018054801560001461112b57505060007f56807b65299b9d361218ee1228c0caeed59b1cbcb079421f124145f99d0a0b0660206040516004358152a26004356000526001602052600460406000200161010061ff00198254161790555b7f0ffee877d4bec4783459533ceddde8785dcd14454a9ebe37f1b3b8792509c36b60206040516004358152a1005b6001036111ae5750600435600052600160205261114e6003604060002001613ab9565b60018060a01b0391549060031b1c167f56807b65299b9d361218ee1228c0caeed59b1cbcb079421f124145f99d0a0b0660206040516004358152a26004356000526001602052600460406000200161010061ff00198254161790556110fd565b6111b790613ab9565b9060018060a01b03918291549060031b1c1660007f6c5d9aa3894362f6fc8570afc4ad57ed5b0498a5e481b34ffccd61ee96cad12c60206040516004358152a360005b60043560005260016020526040600020906003820191825460ff8316101561131e578361122a8361131995613ace565b90549060031b1c1660005260028091016020526001604060002001600660ff1982541617905560043560005260016020528060406000208561126f8560038401613ace565b90549060031b1c1660005201602052600160406000200161ff001981541690556004356000526001602052806040600020856112ae8560038401613ace565b90549060031b1c166000520160205260016040600020016206000062ff00001982541617905560043560005260016020526040600020846112f28460038401613ace565b90549060031b1c1660005201602052600160406000200163ff000000198154169055613b46565b6111fa565b505050506004356000526001602052600460406000200163ff00000019815416905561134b600435613ddf565b50611357600435613854565b6110fd565b600101546040516335d5edab60e01b8152600480359082015260ff90911660248201526001600160a01b037f0000000000000000000000000000000000000000000000000000000000000000811660008360448183855af192831561082c5760009361167d575b5060043560005260016020526001604060002001805460ff6113e6818316613b46565b169060ff19161790557ff47e725249069330b61eda3df25e7c3bcfd700624cbc7cbeabb0e28375bee53160206040516004358152a160005b835160ff8216908110156114aa57907fe33d4c5f3e9def7d3f127618203849e9a1888f8e0a9fbffbcdc7d6dbd42b64448260ff602061146e826114646114a5988c6139c0565b515116938a6139c0565b510151169061149d6040519283926004358491604091949360ff80926060860197865216602085015216910152565b0390a1613b46565b61141e565b505090915060005b60043560005260016020526040600020906003820180549260ff83169384101561167157856114e384600294613ace565b90549060031b1c16600052016020526114ff6040600020613a1a565b60405163b173a14760e01b8152815160ff9081166004830152602090920151909116602482015260043560448201526080908181606481885afa90811561082c57600091611638575b5060609150015115611564575b61155f9150613b46565b6114b2565b600435600052600160205283611581826003604060002001613ace565b90549060031b1c167faf0f1f1c6dd1455929199c881d29a04680c9c20aff5f0331d8619ed875c58d1c60206040516004358152a260043560005260016020526115d68482610c8a816003604060002001613ace565b60043560005260016020526003604060002001918254926000198401938411611078578561100161155f9561160a93613ace565b60043560005260016020526116256003604060002001613c0f565b156115555761163390613c57565b611555565b9050813d831161166a575b61164d81836135e2565b810191818303126100155760609161166491613af3565b86611548565b503d611643565b5050505050508061024b565b61169b9193503d806000833e61169381836135e2565b810190613b86565b91836113c3565b34610015576020366003190112610015576116bb613765565b6116c361377b565b600280546001600160a01b0319166001600160a01b0392909216919091179055005b34610015576020366003190112610015577fce24807f7e4b60b4e641462f13029fa5e5f79075bbc3f8e5cd43ecd19661d760602060043561172461377b565b8060005260018252611745600160ff60046040600020015416151514613808565b8060005260018252600460406000200160ff198154169055604051908152a1005b346100155760603660031901126100155761177f613765565b6002546001600160a01b031633148015611fc2575b61179d906137a7565b60243560005260016020526117c1600160ff60046040600020015416151514613808565b6040516331a9108f60e11b815260443560048201526020816024817f00000000000000000000000000000000000000000000000000000000000000006001600160a01b03165afa90811561082c57600091611f80575b506001600160a01b03828116911603611f57576024356000526001602052600260406000200160018060a01b03821660005260205260ff60406000205416151580611f21575b611ec25760405161186d8161358d565b6000815260006020820152600060015b15611a03575b505060408051637128e56d60e11b815260248035600483015290926000928392859081857f00000000000000000000000000000000000000000000000000000000000000006001600160a01b03165af193841561082c576000946119c8575b50839160005b60243560005260016020526040600020600390818101805460ff851610156119ba579061191784600293613ace565b60018060a01b03915490851b1c166000520160205260ff6040600020541660ff885116149081611967575b506119555761195090613b46565b6118e8565b5091935091506001905b92919261187d565b60029150602435600052600160205260406000209061198884828401613ace565b60018060a09493941b039254911b1c166000520160205260ff60406000205460081c1660ff6020880151161487611942565b50505050909291935061195f565b90935060403d6040116119fc575b6119e081836135e2565b8101604082820312610015576119f591613a4a565b92846118e2565b503d6119d6565b15611a0e5780611883565b604051631986c9e960e31b815260443560048201529091906020816024817f00000000000000000000000000000000000000000000000000000000000000006001600160a01b03165afa90811561082c57600091611e88575b50604051636455ce8d60e11b81526044356004820152916020836024817f00000000000000000000000000000000000000000000000000000000000000006001600160a01b03165afa92831561082c57600093611e4c575b50604051631303d57d60e11b81526044356004820152936000856024817f00000000000000000000000000000000000000000000000000000000000000006001600160a01b03165afa94851561082c57600095611dbc575b50604051611b24816135a9565b81815260006020820152600060408201526000606082015260006080820152600060a082015260018060a01b03831660c082015260ff841660e082015260ff85166101008201526024356101208201526024356000526001602052600260406000200160018060a01b038416600052602052604060002090611bcb60ff60208351828151168319875416178655015116839061ff0082549160081b169061ff001916179055565b60208101516007811015611da657611be690600184016139e1565b611c0b60ff604083015116600184019061ff0082549160081b169061ff001916179055565b60608101516007811015611da657600291611c2c61012092600186016139f9565b611c5560ff608083015116600186019063ff00000082549160181b169063ff0000001916179055565b60a08101511515600185015465010000000000600160c81b0360c084015160281b1660ff60c81b60e085015160c81b169164ff0000000060ff60d01b61010087015160d01b169460201b169063ffffffff64ffffffffff60d81b011617171717600185015501519101556024356000526001602052600360406000200191825468010000000000000000811015611d90577f526c62f8fa999ff5dc01591b8086e17ed53753d49a9eca57e821d0c3f550efa395611d21836110258461010098600160ff97018155613ace565b8180602081875116960151169660405197889660243588526044356020890152604088015260608701521660808501521660a083015260e060c0830152611d77865180978160e086015260208686019101613b57565b6001600160a01b031694601f01601f19168101030190a2005b634e487b7160e01b600052604160045260246000fd5b634e487b7160e01b600052602160045260246000fd5b9094503d90816000823e611dd082826135e2565b60208183810103126100155780519067ffffffffffffffff9081831161001557838101601f8483010112156100155782810151918211611d905760405193611e22601f8401601f1916602001866135e2565b8285528101602083858401010111610015576020611e4593818601920101613b57565b9385611b17565b9092506020813d602011611e80575b81611e68602093836135e2565b8101031261001557611e7990613a3c565b9184611abf565b3d9150611e5b565b90506020813d602011611eba575b81611ea3602093836135e2565b8101031261001557611eb490613a3c565b83611a67565b3d9150611e96565b6024803560009081526001602090815260408083206001600160a01b03959095168084526002909501909152908190205490516308538db760e41b8152600481019390935260ff8082169284019290925260081c166044820152606490fd5b506024356000526001602052600260406000200160018060a01b03821660005260205260ff60406000205460081c16151561185d565b604051634319813760e01b81526001600160a01b03909116600482015260448035602483015290fd5b90506020813d602011611fba575b81611f9b602093836135e2565b8101031261001557516001600160a01b03811681036100155782611817565b3d9150611f8e565b506000546001600160a01b03163314611794565b34610015573660031901606081126100155760401361001557604051611ffb8161358d565b60043560ff8116810361001557815260243560ff811681036100155760208201526044356000606060405161202f816135c6565b8281528260208201528260408201520152806000526001602052612062600160ff60046040600020015416151514613808565b60405163b173a14760e01b8152825160ff9081166004830152602090930151909216602483015260448201526080816064817f00000000000000000000000000000000000000000000000000000000000000006001600160a01b03165afa801561082c57600090612102575b60809060606040519160ff815116835260ff6020820151166020840152604081015115156040840152015115156060820152f35b5060803d8111612135575b61211781836135e2565b8101906080818303126100155760809161213091613af3565b6120ce565b503d61210d565b346100155760403660031901126100155760043560243590816000526001602052600160ff60046040600020015460101c161515036121c7578160005260016020526005604060002001336000526020528060406000205560405191825260208201527feb7d119bae44c06d4b05b80eb4a3bdfc755131945d1845f3c9d2aeaa7d8bf54260403392a2005b60405162461bcd60e51b815260206004820152602160248201527f436f6d6d6974206d6f76657320686173206e6f742073746172746564207965746044820152602160f81b6064820152608490fd5b3461001557604061222636613614565b6000602086959396516122388161358d565b8281520152600052600160205261225d600160ff600486600020015416151514613808565b61227a83519485938493630d42527560e11b855260048501613a80565b03817f00000000000000000000000000000000000000000000000000000000000000006001600160a01b03165afa801561082c576000906122d6575b6040906122d48251809260ff60208092828151168552015116910152565bf35b5060403d60401161230a575b6122ec81836135e2565b8101906040818303126100155760409161230591613a4a565b6122b6565b503d6122e2565b34610015576000366003190112610015576000546040516001600160a01b039091168152602090f35b346100155760e03660031901126100155767ffffffffffffffff6004358181116100155761236c903690600401613696565b602435828111610015576123849036906004016136fd565b6044358381116100155761239c903690600401613696565b90606435848111610015576123b59036906004016136fd565b92608435858111610015576123ce9036906004016136fd565b9360a43595861161001557366023870112156100155785600401356123f28161367e565b9661240060405198896135e2565b8188526024602089019260051b8201019036821161001557602401915b8183106128695750505060c435600052600160205261244b600160ff60046040600020015416151514613808565b6124588651835114613943565b6124658251845114613943565b6124728451825114613943565b61247f8551875114613943565b60005b8651811015612867576124f36124a061249b83866139c0565b6139d4565b60ff6124ac84886139c0565b51166124bb61249b858a6139c0565b60ff6124c786886139c0565b51169060ff6124d6878d6139c0565b5116926001600160a01b036124eb888f6139c0565b5116946138d1565b60c43560009081526001602052604090206005016001600160a01b03612519848b6139c0565b51166000526020526040600020541461253b575b6125369061398e565b612482565b60c43560009081526001602052604090206002016001600160a01b03612561838a6139c0565b5116600052602052612634604060002061257e61249b84876139c0565b61258c6001830191826139e1565b60ff61259885896139c0565b511660ff825460c81c16809111600014612850576125c7905b825461ff00191660089190911b61ff0016178255565b6125dd6125d761249b868b6139c0565b826139f9565b60ff6125e985876139c0565b511660ff825460d01c168091116000146128395761261c905b825463ff000000191660189190911b63ff00000016178255565b805464ff000000001916640100000000179055613a1a565b7f00000000000000000000000000000000000000000000000000000000000000006001600160a01b0316919061269e90604061267361249b85896139c0565b60ff61267f868b6139c0565b51169082519485928392630d42527560e11b9687855260048501613a80565b0381875afa91821561082c576000926127f5575b506040906126eb946126c761249b868c6139c0565b60ff6126d3878a6139c0565b51169284519788948593849384528860048501613a80565b03915afa92831561082c57600093612792575b50612536927ffd735dcfd99f4b7d7f6bcea365f20bd4b998183607e89895805ae488fbeaa8669060c0906001600160a01b0361273a868e6139c0565b51169360c43560005260016020526040600020549160ff6020818451169301511660ff60208184511693015116926040519460c4358652602086015260408501526060840152608083015260a0820152a2905061252d565b925060403d6040116127ee575b6127a981856135e2565b8301926040818503126100155760c06127e6612536957ffd735dcfd99f4b7d7f6bcea365f20bd4b998183607e89895805ae488fbeaa86693613a4a565b9450506126fe565b503d61279f565b93915060403d604011612832575b61280d81866135e2565b840190604085830312610015576128296040926126eb96613a4a565b929450906126b2565b503d612803565b5061261c60ff61284986886139c0565b5116612602565b506125c760ff612860868a6139c0565b51166125b1565b005b82356001600160a01b03811681036100155781526020928301920161241d565b3461001557602080600319360112610015576004359081600052600180825260ff6128c1828260046040600020015416151514613808565b8360005281835260038060406000200154946128dc8661367e565b956128ea60405197886135e2565b8087526128f9601f199161367e565b0160005b818110612af9575050836000905b6129f4575b5050506040519280840190808552855180925280604086019601926000905b83821061293c5786880387f35b9091929394836101608299885161296382825160ff60208092828151168552015116910152565b612974848201516040840190613671565b85806040830151166060908185015282015161299560809182860190613671565b8201511660a09081840152810151151560c0908184015260018060a01b03908201511660e0830152858060e08301511661010090818501528201511690610120918284015201516101408201520196019201909694969392919361292f565b90849694929181600052838752604060002090838201918254821015612aee57612a2182612ae494613ace565b919060018060a01b039283915490881b1c1660005260028091018a526040600020888b60405194612a51866135a9565b612a5a84613a1a565b8652828b8501548093612a71838316828b01613b7a565b828260081c1660408a0152612a8e838360101c1660608b01613b7a565b828260181c1660808a01521c16151560a08701528160281c1660c0860152818160c81c1660e086015260d01c166101008401520154610120820152612ad382896139c0565b52612ade81886139c0565b5061398e565b909192949661290b565b505050959395612910565b8690604098969851612b0a816135a9565b604051612b168161358d565b600081526000848201528152600083820152600060408201526000606082015260006080820152600060a0820152600060c0820152600060e082015260006101008201526000610120820152828289010152019694966128fd565b3461001557600036600319011261001557612b8a61377b565b600080546001600160a01b0319811682556001600160a01b03167f8be0079c531659141344cd1fd0a4f28419497f9722a3daafe3b4186f6b6457e08280a3005b3461001557602080600319360112610015576004358060005260018252612c00600160ff60046040600020015416151514613808565b60405163436fadf360e11b8152600481019190915281816024817f00000000000000000000000000000000000000000000000000000000000000006001600160a01b03165afa90811561082c57600091612c61575b5060ff60405191168152f35b90508181813d8311612c8f575b612c7881836135e2565b8101031261001557612c8990613a3c565b82612c55565b503d612c6e565b3461001557604036600319011261001557600435612cb2613604565b60028054919290916001600160a01b0390811633148015613010575b612cd7906137a7565b8160005260019060209382855260ff908160046040600020015416612fbd57600085815284875260408120600401805460ff191686179055849190825b612f5f575b5050508360005282855260036040600020018054906000815581612f39575b5050612d4384613ddf565b5060405163af2f210960e01b815260ff8716600482015260248101859052916000908390604490829084907f0000000000000000000000000000000000000000000000000000000000000000165af191821561082c57600092612e9d575b506000835b612e17575b6040805160ff89168152602081018790527f50ad08f58a27f2851d7e3a1b3a6a46b290f2ce677e99642d30ff639721e7779091889188917f69daaa80244624dc227320708ed184109781f5bffb597d57054abadec2931b3b91a1612e0e81613854565b604051908152a1005b8251811015612e9857807fe40ab56a2b71773fd8fa12379eac11a90b1a5a8b57fbdb4b84e4734d32a551e1608084612e52612e9295886139c0565b515116858a612e61868a6139c0565b510151166040612e71868a6139c0565b510151151590604051928b84528c84015260408301526060820152a161398e565b83612da6565b612dab565b9091503d806000833e612eb081836135e2565b81019085818303126100155780519067ffffffffffffffff8211610015570181601f82011215610015578051612ee58161367e565b92612ef360405194856135e2565b818452878085019260071b84010192818411610015578801915b88848410612f215750505050509086612da1565b608091612f2e8486613af3565b815201920191612f0d565b6000528386600020918201915b828110612f535750612d38565b60008155018490612f46565b8660005282885260406000209060039182810190878254841015612fb457612fae94612f8c858895613ace565b9054911b1c16600052018952600083604082208281558287820155015561398e565b82612d14565b50505050612d19565b60405162461bcd60e51b815260048101879052602560248201527f47616d652077697468207468697320494420616c726561647920696e2070726f604482015264677265737360d81b6064820152608490fd5b5060005481163314612cce565b34610015576000366003190112610015576002546040516001600160a01b039091168152602090f35b346100155761305436613614565b9192826000526130ae60019460209386855260ff928392613082898560046040600020015416151514613808565b60405163183b1baf60e01b8152865160ff90811660048301526020909701519096166024870152610489565b166064830152608482018490526001600160a01b039160608160a4817f000000000000000000000000000000000000000000000000000000000000000087165afa90811561082c57600090600092613203575b50156131a1575083600052848352613126858260046040600020015416151514613808565b60009283865b613140575b50505050612867925033613ced565b856000528682526003806040600020018054858416101561319a57613166838792613ace565b929092339354911b1c161461318757906131808792613b46565b909161312c565b9350505050612867925083808080613131565b5050613131565b61286795925080828592511686600052848352600260406000200133600052835260406000209060ff19825416179055015116926000528152600260406000200190336000525260406000209061ff0082549160081b169061ff001916179055565b905061321d915060603d81116108255761081681836135e2565b9087613101565b3461001557602036600319011261001557600435600052600160205260c0604060002060ff81549160048260018301541691015490604051938452602084015281811615156040840152818160081c1615156060840152818160101c161515608084015260181c16151560a0820152f35b346100155760208060031936011261001557600435908160005260019182825260ff6132ce848260046040600020015416151514613808565b60405163436fadf360e11b815260048101929092527f00000000000000000000000000000000000000000000000000000000000000006001600160a01b031690602484848281865afa93841561082c57600094613556575b508161333185613f11565b941693868501908382116135415761335861335361335e9386939a989a613f25565b613f3c565b16613c67565b9560405161336b8161358d565b818152818782015261337c8861399d565b526133868761399d565b5084805b6133eb575b5050505050604051918083018184528451809152816040850195019160005b8281106133bb5785870386f35b90919293826040886133de849a895160ff60208092828151168552015116910152565b01979501939291016133ae565b8381989698168281116135385760001981018581116135235761341a613353846134158994613f11565b613f25565b16906134258861399d565b516040516301cf2e2560e51b8152815160ff908116600483015260209092015190911660248201529060448201526000816064818a5afa90811561082c57600091613508575b50899594939291906000875b613493575b50505061348890613b46565b90919293959761338a565b908092939495969750518b888316918210156134fd57506134b481846139c0565b51908401908185116134e85791610b8f828e946134d46134db958f6139c0565b528c6139c0565b8197969594939291613477565b87634e487b7160e01b60005260116004526000fd5b97969594935061347c565b61351d91503d806000833e61169381836135e2565b8a61346b565b84634e487b7160e01b60005260116004526000fd5b5096949661338f565b82634e487b7160e01b60005260116004526000fd5b9093508481813d8311613586575b61356e81836135e2565b810103126100155761357f90613a3c565b9286613326565b503d613564565b6040810190811067ffffffffffffffff821117611d9057604052565b610140810190811067ffffffffffffffff821117611d9057604052565b6080810190811067ffffffffffffffff821117611d9057604052565b90601f8019910116810190811067ffffffffffffffff821117611d9057604052565b6024359060ff8216820361001557565b6003190160a0811261001557604013610015576040516136338161358d565b60043560ff8116810361001557815261364a613604565b6020820152906044356007811015610015579060643560ff81168103610015579060843590565b906007821015611da65752565b67ffffffffffffffff8111611d905760051b60200190565b81601f82011215610015578035916136ad8361367e565b926136bb60405194856135e2565b808452602092838086019260051b820101928311610015578301905b8282106136e5575050505090565b813560078110156100155781529083019083016136d7565b81601f82011215610015578035916137148361367e565b9261372260405194856135e2565b808452602092838086019260051b820101928311610015578301905b82821061374c575050505090565b813560ff8116810361001557815290830190830161373e565b600435906001600160a01b038216820361001557565b6000546001600160a01b0316330361378f57565b60405163118cdaa760e01b8152336004820152602490fd5b156137ae57565b60405162461bcd60e51b815260206004820152602c60248201527f43616c6c6572206973206e6f74206f776e6572206f722072656769737472617460448201526b1a5bdb8818dbdb9d1c9858dd60a21b6064820152608490fd5b1561380f57565b60405162461bcd60e51b815260206004820152601960248201527f47616d6520686173206e6f7420737461727465642079657421000000000000006044820152606490fd5b60207f8924ef8e2fcf31b0d38716fc8120f7aec496d13f5abdb8320e31a69dbc449100918060005260018252613899600160ff60046040600020015416151514613808565b806000526001825260046040600020016201000062ff000019825416179055604051908152a1565b6007811015611da65760f81b9052565b94929390604051946138e76020870180986138c1565b61390660ff60f81b9485809460f81b16602189015260228801906138c1565b60f81b16602385015260f81b1660248301526bffffffffffffffffffffffff199060601b1660258201526019815261393d8161358d565b51902090565b1561394a57565b606460405162461bcd60e51b815260206004820152602060248201527f417272617973206d7573742068617665207468652073616d65206c656e6774686044820152fd5b60001981146110785760010190565b8051156139aa5760200190565b634e487b7160e01b600052603260045260246000fd5b80518210156139aa5760209160051b010190565b516007811015611da65790565b906007811015611da65760ff80198354169116179055565b906007811015611da65762ff000082549160101b169062ff00001916179055565b90604051613a278161358d565b602060ff829454818116845260081c16910152565b519060ff8216820361001557565b919082604091031261001557604051613a628161358d565b6020613a7b818395613a7381613a3c565b855201613a3c565b910152565b916060919493613ab360ff92613aa986608081019960ff60208092828151168552015116910152565b6040860190613671565b16910152565b8054156139aa57600052602060002090600090565b80548210156139aa5760005260206000200190600090565b5190811515820361001557565b919082608091031261001557604051613b0b816135c6565b6060613a7b818395613b1c81613a3c565b8552613b2a60208201613a3c565b6020860152613b3b60408201613ae6565b604086015201613ae6565b60ff1660ff81146110785760010190565b60005b838110613b6a5750506000910152565b8181015183820152602001613b5a565b6007821015611da65752565b9060209182818303126100155780519067ffffffffffffffff8211610015570181601f8201121561001557805192613bbd8461367e565b93604093613bcd855196876135e2565b818652828087019260061b85010193818511610015578301915b848310613bf75750505050505090565b838691613c048486613a4a565b815201920191613be7565b80548015613c41576000190190613c3e613c298383613ace565b81549060018060a01b039060031b1b19169055565b55565b634e487b7160e01b600052603160045260246000fd5b60ff168015611078576000190190565b90613c718261367e565b604090613c80825191826135e2565b8381528093613c91601f199161367e565b0191600090815b848110613ca6575050505050565b6020908251613cb48161358d565b848152828581830152828701015201613c98565b919060608382031261001557613cea906020613ce385613ae6565b9401613a4a565b90565b90916000908082526001906020908282526040946003868620015460ff88161015613d9b5792613c299592826003958794613d999a9852838352613d3d8460ff6004898920015416151514613808565b60018060a01b0316807f0ceeb6c20e03a8c47e6673117b7b54c5b880118423ef2a84e0b795bd849fc406848851858152a28185528383526002868620019085528252836002868220828155828682015501558352522001613ace565b565b855162461bcd60e51b815260048101849052601860248201527f496e6465782076616c7565206f7574206f662072616e676500000000000000006044820152606490fd5b6040805163436fadf360e11b815260048101839052909160209182816024817f00000000000000000000000000000000000000000000000000000000000000006001600160a01b03165afa908115613f0657600091613ea3575b50907f3874cce3730901301cd0c02b4c2dd416d59546f183096d9f2a434c4d3a9ba4a56060600194938360005285855286600020613e77815461398e565b90558360005285855260ff876000205491885192868452878401521687820152a1600052526000205490565b908382813d8311613eff575b613eb981836135e2565b81010312613efc5750907f3874cce3730901301cd0c02b4c2dd416d59546f183096d9f2a434c4d3a9ba4a56060613ef260019594613a3c565b9293945050613e39565b80fd5b503d613eaf565b84513d6000823e3d90fd5b60ff166003029060ff821691820361107857565b9060ff8091169116029060ff821691820361107857565b60ff166001019060ff82116110785756fea2646970667358221220534249baff72bbdb220007f204390ee588b4c36798ead6618097f977047309eb64736f6c63430008140033",
  "linkReferences": {},
  "deployedLinkReferences": {}
}