{
  "_format": "hh-sol-artifact-1",
  "contractName": "Gameyarts",
  "sourceName": "contracts/Gameyarts.sol",
  "abi": [
    {
      "inputs": [
        {
          "internalType": "address",
          "name": "_mapAddress",
          "type": "address"
        },
        {
          "internalType": "address",
          "name": "_yartsshipsAddress",
          "type": "address"
        },
        {
          "internalType": "address",
          "name": "_covAddress",
          "type": "address"
        }
      ],
      "stateMutability": "nonpayable",
      "type": "constructor"
    },
    {
      "inputs": [
        {
          "internalType": "address",
          "name": "player",
          "type": "address"
        },
        {
          "internalType": "uint256",
          "name": "tokenId",
          "type": "uint256"
        }
      ],
      "name": "NotOwnerOfShip",
      "type": "error"
    },
    {
      "inputs": [
        {
          "internalType": "address",
          "name": "owner",
          "type": "address"
        }
      ],
      "name": "OwnableInvalidOwner",
      "type": "error"
    },
    {
      "inputs": [
        {
          "internalType": "address",
          "name": "account",
          "type": "address"
        }
      ],
      "name": "OwnableUnauthorizedAccount",
      "type": "error"
    },
    {
      "inputs": [
        {
          "internalType": "address",
          "name": "player",
          "type": "address"
        },
        {
          "internalType": "uint8",
          "name": "q",
          "type": "uint8"
        },
        {
          "internalType": "uint8",
          "name": "r",
          "type": "uint8"
        }
      ],
      "name": "ShipAlreadyAdded",
      "type": "error"
    },
    {
      "anonymous": false,
      "inputs": [
        {
          "indexed": false,
          "internalType": "uint256",
          "name": "gameId",
          "type": "uint256"
        },
        {
          "indexed": false,
          "internalType": "uint8",
          "name": "q",
          "type": "uint8"
        },
        {
          "indexed": false,
          "internalType": "uint8",
          "name": "r",
          "type": "uint8"
        },
        {
          "indexed": false,
          "internalType": "bool",
          "name": "island",
          "type": "bool"
        }
      ],
      "name": "Cell",
      "type": "event"
    },
    {
      "anonymous": false,
      "inputs": [
        {
          "indexed": false,
          "internalType": "uint256",
          "name": "gameId",
          "type": "uint256"
        },
        {
          "indexed": false,
          "internalType": "uint8",
          "name": "q",
          "type": "uint8"
        },
        {
          "indexed": false,
          "internalType": "uint8",
          "name": "r",
          "type": "uint8"
        }
      ],
      "name": "CellDeleted",
      "type": "event"
    },
    {
      "anonymous": false,
      "inputs": [
        {
          "indexed": false,
          "internalType": "uint256",
          "name": "gameId",
          "type": "uint256"
        }
      ],
      "name": "CommitPhaseStarted",
      "type": "event"
    },
    {
      "anonymous": false,
      "inputs": [
        {
          "indexed": false,
          "internalType": "uint256",
          "name": "gameId",
          "type": "uint256"
        }
      ],
      "name": "GameEnded",
      "type": "event"
    },
    {
      "anonymous": false,
      "inputs": [
        {
          "indexed": false,
          "internalType": "uint256",
          "name": "gameId",
          "type": "uint256"
        }
      ],
      "name": "GameStarted",
      "type": "event"
    },
    {
      "anonymous": false,
      "inputs": [
        {
          "indexed": true,
          "internalType": "bool",
          "name": "gameStatus",
          "type": "bool"
        },
        {
          "indexed": true,
          "internalType": "address",
          "name": "winnerAddress",
          "type": "address"
        },
        {
          "indexed": false,
          "internalType": "uint256",
          "name": "gameId",
          "type": "uint256"
        }
      ],
      "name": "GameUpdated",
      "type": "event"
    },
    {
      "anonymous": false,
      "inputs": [
        {
          "indexed": true,
          "internalType": "address",
          "name": "winner",
          "type": "address"
        },
        {
          "indexed": false,
          "internalType": "uint256",
          "name": "gameId",
          "type": "uint256"
        }
      ],
      "name": "GameWinner",
      "type": "event"
    },
    {
      "anonymous": false,
      "inputs": [
        {
          "indexed": false,
          "internalType": "uint8",
          "name": "radius",
          "type": "uint8"
        },
        {
          "indexed": false,
          "internalType": "uint256",
          "name": "gameId",
          "type": "uint256"
        },
        {
          "indexed": false,
          "internalType": "uint8",
          "name": "mapShrink",
          "type": "uint8"
        }
      ],
      "name": "MapInitialized",
      "type": "event"
    },
    {
      "anonymous": false,
      "inputs": [
        {
          "indexed": false,
          "internalType": "uint256",
          "name": "gameId",
          "type": "uint256"
        }
      ],
      "name": "MapShrink",
      "type": "event"
    },
    {
      "anonymous": false,
      "inputs": [
        {
          "indexed": true,
          "internalType": "address",
          "name": "player",
          "type": "address"
        },
        {
          "indexed": false,
          "internalType": "uint256",
          "name": "gameId",
          "type": "uint256"
        },
        {
          "indexed": false,
          "internalType": "bytes32",
          "name": "moveHash",
          "type": "bytes32"
        }
      ],
      "name": "MoveCommitted",
      "type": "event"
    },
    {
      "anonymous": false,
      "inputs": [
        {
          "indexed": true,
          "internalType": "address",
          "name": "player",
          "type": "address"
        },
        {
          "indexed": false,
          "internalType": "uint256",
          "name": "gameId",
          "type": "uint256"
        },
        {
          "indexed": false,
          "internalType": "uint256",
          "name": "roundId",
          "type": "uint256"
        },
        {
          "indexed": false,
          "internalType": "uint8",
          "name": "destQ",
          "type": "uint8"
        },
        {
          "indexed": false,
          "internalType": "uint8",
          "name": "destR",
          "type": "uint8"
        },
        {
          "indexed": false,
          "internalType": "uint8",
          "name": "shotQ",
          "type": "uint8"
        },
        {
          "indexed": false,
          "internalType": "uint8",
          "name": "shotR",
          "type": "uint8"
        }
      ],
      "name": "MoveSubmitted",
      "type": "event"
    },
    {
      "anonymous": false,
      "inputs": [
        {
          "indexed": false,
          "internalType": "address[]",
          "name": "players",
          "type": "address[]"
        },
        {
          "indexed": false,
          "internalType": "uint256",
          "name": "gameId",
          "type": "uint256"
        }
      ],
      "name": "MutualShot",
      "type": "event"
    },
    {
      "anonymous": false,
      "inputs": [
        {
          "indexed": false,
          "internalType": "uint256",
          "name": "gameId",
          "type": "uint256"
        },
        {
          "indexed": false,
          "internalType": "uint256",
          "name": "roundId",
          "type": "uint256"
        },
        {
          "indexed": false,
          "internalType": "uint8",
          "name": "radius",
          "type": "uint8"
        }
      ],
      "name": "NewRound",
      "type": "event"
    },
    {
      "anonymous": false,
      "inputs": [
        {
          "indexed": true,
          "internalType": "address",
          "name": "previousOwner",
          "type": "address"
        },
        {
          "indexed": true,
          "internalType": "address",
          "name": "newOwner",
          "type": "address"
        }
      ],
      "name": "OwnershipTransferred",
      "type": "event"
    },
    {
      "anonymous": false,
      "inputs": [
        {
          "indexed": true,
          "internalType": "address",
          "name": "player",
          "type": "address"
        },
        {
          "indexed": false,
          "internalType": "uint256",
          "name": "gameId",
          "type": "uint256"
        },
        {
          "indexed": false,
          "internalType": "uint256",
          "name": "yartsshipId",
          "type": "uint256"
        },
        {
          "indexed": false,
          "internalType": "uint8",
          "name": "q",
          "type": "uint8"
        },
        {
          "indexed": false,
          "internalType": "uint8",
          "name": "r",
          "type": "uint8"
        },
        {
          "indexed": false,
          "internalType": "uint8",
          "name": "speed",
          "type": "uint8"
        },
        {
          "indexed": false,
          "internalType": "uint8",
          "name": "range",
          "type": "uint8"
        },
        {
          "indexed": false,
          "internalType": "string",
          "name": "image",
          "type": "string"
        }
      ],
      "name": "PlayerAdded",
      "type": "event"
    },
    {
      "anonymous": false,
      "inputs": [
        {
          "indexed": true,
          "internalType": "address",
          "name": "player",
          "type": "address"
        },
        {
          "indexed": false,
          "internalType": "uint256",
          "name": "gameId",
          "type": "uint256"
        }
      ],
      "name": "PlayerDefeated",
      "type": "event"
    },
    {
      "anonymous": false,
      "inputs": [
        {
          "indexed": true,
          "internalType": "address",
          "name": "captain",
          "type": "address"
        },
        {
          "indexed": false,
          "internalType": "uint256",
          "name": "gameId",
          "type": "uint256"
        },
        {
          "indexed": false,
          "internalType": "uint8",
          "name": "q",
          "type": "uint8"
        },
        {
          "indexed": false,
          "internalType": "uint8",
          "name": "r",
          "type": "uint8"
        }
      ],
      "name": "ShipCollidedWithIsland",
      "type": "event"
    },
    {
      "anonymous": false,
      "inputs": [
        {
          "indexed": true,
          "internalType": "address",
          "name": "victim",
          "type": "address"
        },
        {
          "indexed": true,
          "internalType": "address",
          "name": "attacker",
          "type": "address"
        },
        {
          "indexed": false,
          "internalType": "uint256",
          "name": "gameId",
          "type": "uint256"
        }
      ],
      "name": "ShipHit",
      "type": "event"
    },
    {
      "anonymous": false,
      "inputs": [
        {
          "indexed": true,
          "internalType": "address",
          "name": "captain",
          "type": "address"
        },
        {
          "indexed": false,
          "internalType": "uint8",
          "name": "initialQ",
          "type": "uint8"
        },
        {
          "indexed": false,
          "internalType": "uint8",
          "name": "initialR",
          "type": "uint8"
        },
        {
          "indexed": false,
          "internalType": "uint8",
          "name": "q",
          "type": "uint8"
        },
        {
          "indexed": false,
          "internalType": "uint8",
          "name": "r",
          "type": "uint8"
        },
        {
          "indexed": false,
          "internalType": "uint256",
          "name": "gameId",
          "type": "uint256"
        }
      ],
      "name": "ShipMoved",
      "type": "event"
    },
    {
      "anonymous": false,
      "inputs": [
        {
          "indexed": true,
          "internalType": "address",
          "name": "captain",
          "type": "address"
        },
        {
          "indexed": false,
          "internalType": "uint256",
          "name": "gameId",
          "type": "uint256"
        }
      ],
      "name": "ShipMovedInGame",
      "type": "event"
    },
    {
      "anonymous": false,
      "inputs": [
        {
          "indexed": true,
          "internalType": "address",
          "name": "captain",
          "type": "address"
        },
        {
          "indexed": false,
          "internalType": "uint8",
          "name": "fromQ",
          "type": "uint8"
        },
        {
          "indexed": false,
          "internalType": "uint8",
          "name": "fromR",
          "type": "uint8"
        },
        {
          "indexed": false,
          "internalType": "uint8",
          "name": "shotQ",
          "type": "uint8"
        },
        {
          "indexed": false,
          "internalType": "uint8",
          "name": "shotR",
          "type": "uint8"
        },
        {
          "indexed": false,
          "internalType": "uint256",
          "name": "gameId",
          "type": "uint256"
        }
      ],
      "name": "ShipShot",
      "type": "event"
    },
    {
      "anonymous": false,
      "inputs": [
        {
          "indexed": true,
          "internalType": "address",
          "name": "captain",
          "type": "address"
        },
        {
          "indexed": false,
          "internalType": "uint256",
          "name": "gameId",
          "type": "uint256"
        }
      ],
      "name": "ShipSunk",
      "type": "event"
    },
    {
      "anonymous": false,
      "inputs": [
        {
          "indexed": true,
          "internalType": "address",
          "name": "captain",
          "type": "address"
        },
        {
          "indexed": false,
          "internalType": "uint256",
          "name": "gameId",
          "type": "uint256"
        }
      ],
      "name": "ShipSunkOutOfMap",
      "type": "event"
    },
    {
      "anonymous": false,
      "inputs": [
        {
          "indexed": false,
          "internalType": "uint256",
          "name": "gameId",
          "type": "uint256"
        },
        {
          "indexed": false,
          "internalType": "uint256",
          "name": "round",
          "type": "uint256"
        }
      ],
      "name": "SubmitPhaseStarted",
      "type": "event"
    },
    {
      "anonymous": false,
      "inputs": [
        {
          "indexed": false,
          "internalType": "uint256",
          "name": "gameId",
          "type": "uint256"
        }
      ],
      "name": "WorldUpdated",
      "type": "event"
    },
    {
      "stateMutability": "nonpayable",
      "type": "fallback"
    },
    {
      "inputs": [
        {
          "internalType": "address",
          "name": "playerAddress",
          "type": "address"
        },
        {
          "internalType": "uint256",
          "name": "gameId",
          "type": "uint256"
        },
        {
          "internalType": "uint256",
          "name": "_yartsshipId",
          "type": "uint256"
        }
      ],
      "name": "addShip",
      "outputs": [],
      "stateMutability": "nonpayable",
      "type": "function"
    },
    {
      "inputs": [
        {
          "internalType": "bytes32",
          "name": "moveHash",
          "type": "bytes32"
        },
        {
          "internalType": "uint256",
          "name": "gameId",
          "type": "uint256"
        }
      ],
      "name": "commitMove",
      "outputs": [],
      "stateMutability": "nonpayable",
      "type": "function"
    },
    {
      "inputs": [
        {
          "internalType": "enum SharedStructs.Directions",
          "name": "_travelDirection",
          "type": "uint8"
        },
        {
          "internalType": "uint8",
          "name": "_travelDistance",
          "type": "uint8"
        },
        {
          "internalType": "enum SharedStructs.Directions",
          "name": "_shotDirection",
          "type": "uint8"
        },
        {
          "internalType": "uint8",
          "name": "_shotDistance",
          "type": "uint8"
        },
        {
          "internalType": "uint8",
          "name": "_secret",
          "type": "uint8"
        },
        {
          "internalType": "address",
          "name": "_playerAddress",
          "type": "address"
        }
      ],
      "name": "encodeCommitment",
      "outputs": [
        {
          "internalType": "bytes32",
          "name": "",
          "type": "bytes32"
        }
      ],
      "stateMutability": "pure",
      "type": "function"
    },
    {
      "inputs": [
        {
          "internalType": "uint256",
          "name": "",
          "type": "uint256"
        }
      ],
      "name": "games",
      "outputs": [
        {
          "internalType": "uint256",
          "name": "round",
          "type": "uint256"
        },
        {
          "internalType": "uint8",
          "name": "shrinkNo",
          "type": "uint8"
        },
        {
          "internalType": "uint8",
          "name": "mapShrink",
          "type": "uint8"
        },
        {
          "internalType": "bool",
          "name": "gameInProgress",
          "type": "bool"
        },
        {
          "internalType": "bool",
          "name": "stopAddingShips",
          "type": "bool"
        },
        {
          "internalType": "bool",
          "name": "letCommitMoves",
          "type": "bool"
        },
        {
          "internalType": "bool",
          "name": "letSubmitMoves",
          "type": "bool"
        }
      ],
      "stateMutability": "view",
      "type": "function"
    },
    {
      "inputs": [
        {
          "components": [
            {
              "internalType": "uint8",
              "name": "q",
              "type": "uint8"
            },
            {
              "internalType": "uint8",
              "name": "r",
              "type": "uint8"
            }
          ],
          "internalType": "struct SharedStructs.Coordinate",
          "name": "_coord",
          "type": "tuple"
        },
        {
          "internalType": "uint256",
          "name": "gameId",
          "type": "uint256"
        }
      ],
      "name": "getCell",
      "outputs": [
        {
          "components": [
            {
              "internalType": "uint8",
              "name": "q",
              "type": "uint8"
            },
            {
              "internalType": "uint8",
              "name": "r",
              "type": "uint8"
            },
            {
              "internalType": "bool",
              "name": "island",
              "type": "bool"
            },
            {
              "internalType": "bool",
              "name": "exists",
              "type": "bool"
            }
          ],
          "internalType": "struct SharedStructs.Cell",
          "name": "",
          "type": "tuple"
        }
      ],
      "stateMutability": "view",
      "type": "function"
    },
    {
      "inputs": [
        {
          "internalType": "uint256",
          "name": "gameId",
          "type": "uint256"
        }
      ],
      "name": "getCoordinates",
      "outputs": [
        {
          "components": [
            {
              "internalType": "uint8",
              "name": "q",
              "type": "uint8"
            },
            {
              "internalType": "uint8",
              "name": "r",
              "type": "uint8"
            }
          ],
          "internalType": "struct SharedStructs.Coordinate[]",
          "name": "",
          "type": "tuple[]"
        }
      ],
      "stateMutability": "view",
      "type": "function"
    },
    {
      "inputs": [
        {
          "internalType": "uint256",
          "name": "gameId",
          "type": "uint256"
        }
      ],
      "name": "getIslands",
      "outputs": [
        {
          "internalType": "uint8[]",
          "name": "IslandsQ",
          "type": "uint8[]"
        },
        {
          "internalType": "uint8[]",
          "name": "IslandsR",
          "type": "uint8[]"
        }
      ],
      "stateMutability": "view",
      "type": "function"
    },
    {
      "inputs": [
        {
          "internalType": "uint256",
          "name": "gameId",
          "type": "uint256"
        }
      ],
      "name": "getRadius",
      "outputs": [
        {
          "internalType": "uint8",
          "name": "",
          "type": "uint8"
        }
      ],
      "stateMutability": "view",
      "type": "function"
    },
    {
      "inputs": [
        {
          "internalType": "uint256",
          "name": "gameId",
          "type": "uint256"
        }
      ],
      "name": "getShips",
      "outputs": [
        {
          "components": [
            {
              "components": [
                {
                  "internalType": "uint8",
                  "name": "q",
                  "type": "uint8"
                },
                {
                  "internalType": "uint8",
                  "name": "r",
                  "type": "uint8"
                }
              ],
              "internalType": "struct SharedStructs.Coordinate",
              "name": "coordinate",
              "type": "tuple"
            },
            {
              "internalType": "enum SharedStructs.Directions",
              "name": "travelDirection",
              "type": "uint8"
            },
            {
              "internalType": "uint8",
              "name": "travelDistance",
              "type": "uint8"
            },
            {
              "internalType": "enum SharedStructs.Directions",
              "name": "shotDirection",
              "type": "uint8"
            },
            {
              "internalType": "uint8",
              "name": "shotDistance",
              "type": "uint8"
            },
            {
              "internalType": "bool",
              "name": "publishedMove",
              "type": "bool"
            },
            {
              "internalType": "address",
              "name": "captain",
              "type": "address"
            },
            {
              "internalType": "uint8",
              "name": "yachtSpeed",
              "type": "uint8"
            },
            {
              "internalType": "uint8",
              "name": "yachtRange",
              "type": "uint8"
            },
            {
              "internalType": "uint256",
              "name": "gameId",
              "type": "uint256"
            },
            {
              "internalType": "uint256",
              "name": "yartsshipId",
              "type": "uint256"
            }
          ],
          "internalType": "struct Gameyarts.Ship[]",
          "name": "",
          "type": "tuple[]"
        }
      ],
      "stateMutability": "view",
      "type": "function"
    },
    {
      "inputs": [],
      "name": "kmsPublicAddress",
      "outputs": [
        {
          "internalType": "address",
          "name": "",
          "type": "address"
        }
      ],
      "stateMutability": "view",
      "type": "function"
    },
    {
      "inputs": [
        {
          "components": [
            {
              "internalType": "uint8",
              "name": "q",
              "type": "uint8"
            },
            {
              "internalType": "uint8",
              "name": "r",
              "type": "uint8"
            }
          ],
          "internalType": "struct SharedStructs.Coordinate",
          "name": "_start",
          "type": "tuple"
        },
        {
          "internalType": "enum SharedStructs.Directions",
          "name": "_dir",
          "type": "uint8"
        },
        {
          "internalType": "uint8",
          "name": "_distance",
          "type": "uint8"
        },
        {
          "internalType": "uint256",
          "name": "gameId",
          "type": "uint256"
        }
      ],
      "name": "move",
      "outputs": [
        {
          "components": [
            {
              "internalType": "uint8",
              "name": "q",
              "type": "uint8"
            },
            {
              "internalType": "uint8",
              "name": "r",
              "type": "uint8"
            }
          ],
          "internalType": "struct SharedStructs.Coordinate",
          "name": "",
          "type": "tuple"
        }
      ],
      "stateMutability": "view",
      "type": "function"
    },
    {
      "inputs": [],
      "name": "owner",
      "outputs": [
        {
          "internalType": "address",
          "name": "",
          "type": "address"
        }
      ],
      "stateMutability": "view",
      "type": "function"
    },
    {
      "inputs": [],
      "name": "registrationContract",
      "outputs": [
        {
          "internalType": "address",
          "name": "",
          "type": "address"
        }
      ],
      "stateMutability": "view",
      "type": "function"
    },
    {
      "inputs": [],
      "name": "renounceOwnership",
      "outputs": [],
      "stateMutability": "nonpayable",
      "type": "function"
    },
    {
      "inputs": [
        {
          "internalType": "address",
          "name": "_kmsPublicAddress",
          "type": "address"
        }
      ],
      "name": "setKmsPublicAddress",
      "outputs": [],
      "stateMutability": "nonpayable",
      "type": "function"
    },
    {
      "inputs": [
        {
          "internalType": "address",
          "name": "_registrationContract",
          "type": "address"
        }
      ],
      "name": "setRegistrationContract",
      "outputs": [],
      "stateMutability": "nonpayable",
      "type": "function"
    },
    {
      "inputs": [
        {
          "internalType": "uint256",
          "name": "_gameId",
          "type": "uint256"
        },
        {
          "internalType": "uint8",
          "name": "_radius",
          "type": "uint8"
        },
        {
          "internalType": "uint8",
          "name": "_mapShrink",
          "type": "uint8"
        }
      ],
      "name": "startNewGame",
      "outputs": [],
      "stateMutability": "nonpayable",
      "type": "function"
    },
    {
      "inputs": [
        {
          "internalType": "enum SharedStructs.Directions[]",
          "name": "_travelDirections",
          "type": "uint8[]"
        },
        {
          "internalType": "uint8[]",
          "name": "_travelDistances",
          "type": "uint8[]"
        },
        {
          "internalType": "enum SharedStructs.Directions[]",
          "name": "_shotDirections",
          "type": "uint8[]"
        },
        {
          "internalType": "uint8[]",
          "name": "_shotDistances",
          "type": "uint8[]"
        },
        {
          "internalType": "uint8[]",
          "name": "_secrets",
          "type": "uint8[]"
        },
        {
          "internalType": "address[]",
          "name": "_playerAddresses",
          "type": "address[]"
        },
        {
          "internalType": "uint256",
          "name": "gameId",
          "type": "uint256"
        }
      ],
      "name": "submitMove",
      "outputs": [],
      "stateMutability": "nonpayable",
      "type": "function"
    },
    {
      "inputs": [
        {
          "internalType": "address",
          "name": "newOwner",
          "type": "address"
        }
      ],
      "name": "transferOwnership",
      "outputs": [],
      "stateMutability": "nonpayable",
      "type": "function"
    },
    {
      "inputs": [
        {
          "components": [
            {
              "internalType": "uint8",
              "name": "q",
              "type": "uint8"
            },
            {
              "internalType": "uint8",
              "name": "r",
              "type": "uint8"
            }
          ],
          "internalType": "struct SharedStructs.Coordinate",
          "name": "_startCell",
          "type": "tuple"
        },
        {
          "internalType": "enum SharedStructs.Directions",
          "name": "_direction",
          "type": "uint8"
        },
        {
          "internalType": "uint8",
          "name": "_distance",
          "type": "uint8"
        },
        {
          "internalType": "uint256",
          "name": "gameId",
          "type": "uint256"
        }
      ],
      "name": "travel",
      "outputs": [],
      "stateMutability": "nonpayable",
      "type": "function"
    },
    {
      "inputs": [
        {
          "internalType": "uint256",
          "name": "gameId",
          "type": "uint256"
        }
      ],
      "name": "updateWorld",
      "outputs": [],
      "stateMutability": "nonpayable",
      "type": "function"
    }
  ],
  "bytecode": "0x60e03461016757601f6160b638819003918201601f19168301916001600160401b0383118484101761016c578084926060946040528339810103126101675761004781610182565b90610060604061005960208401610182565b9201610182565b9033156101515760008054336001600160a01b0319821681178355604051959290916001600160a01b0316907f8be0079c531659141344cd1fd0a4f28419497f9722a3daafe3b4186f6b6457e09080a36001600160a01b0390811660805290811660a0521660c052615f1f9081610197823960805181818161028101528181611bfb01528181611ff701528181612807015281816129e801528181612e35015281816130cf01528181614b7a01528181614cf101528181614e7e0152615cec015260a051818181610e4c01528181611f5501528181613cc00152615b1d015260c051818181610f6b0152613dd40152f35b631e4fbdf760e01b600052600060045260246000fd5b600080fd5b634e487b7160e01b600052604160045260246000fd5b51906001600160a01b03821682036101675756fe608080604052600436101561001c575b503461001757005b600080fd5b600090813560e01c90816302ea5368146150c7575080630bf3781814614e32578063117a5b9014614db7578063183b1baf14614c7e5780631e522c3e14614c5557806338853bfb14614c095780636b082eed14614b27578063715018a614614acd57806378d59e05146147f05780638b7524b614612a955780638da5cb5b14612a6e57806394c1d2d91461298b578063950074a8146129465780639cc45f34146128b1578063b173a14714612754578063b39116fd14611ee4578063c13b811714611a56578063d3db03cc14611a11578063d837093c1461021e578063dcdb5897146101945763f2fde38b0361000f573461019157602036600319011261019157610125615344565b61012d615be5565b6001600160a01b0316801561017d5781546001600160a01b03198116821783556001600160a01b03167f8be0079c531659141344cd1fd0a4f28419497f9722a3daafe3b4186f6b6457e08380a380f35b631e4fbdf760e01b82526004829052602482fd5b80fd5b50346101915760c036600319011261019157600435600781101561021a576101ba615189565b6044356007811015610216576064359160ff83168303610212576084359360ff8516850361020e5760a435956001600160a01b0387168703610191576020610206888888888888615a3d565b604051908152f35b8580fd5b8480fd5b8380fd5b5080fd5b50346101915760203660031901126101915760043560018060a01b0360045416331480156119fe575b61025090615700565b808252600160205261026b60ff60056040852001541661535a565b60405163436fadf360e11b8152600481018290527f00000000000000000000000000000000000000000000000000000000000000006001600160a01b03169190602081602481865afa9081156119f35784916119b4575b5060ff60019116118061196e575b6116b2575b80835260016020526102ed600360408520015461540d565b818452600160205261030560036040862001546155c2565b91845b818652600160205260036040872001548110156103345780600161032d81938761548e565b5201610308565b509092845b828652600160205260036040872001548110156105715782865260016020526103688160036040892001615609565b60018060a01b0391549060031b1c16908387526001602052604060028189200160009060018060a01b0385168252602052209160018301549260018060a01b038460281c16156105665760ff8460201c166103cb575b5050600191505b01610339565b60ff6040519463183b1baf60e01b86526103f7600487018460ff60209154818116845260081c16910152565b6104066044870183831661523e565b60081c16606485015285608485015260608460a481885afa90811561055b57866001958b908c94610528575b506104c257509081837f9db385e25deecca76e1e8dab29ae54e5c2f1707d2c611cfab0984b782e9f8a2c610491945460ff855116906104898c60ff602089015116604051948460ff80889760081c16911686615953565b0390a26157e7565b7f4a5516f0f1d85471405ad39e7a960ba9a7b312f2bdc784a6dce8402611417fd66020604051878152a238806103be565b6105129084610523957f2265cf35e234e961bc739ea7efb0e9751a34a8c56c1b547ff729d632c2ad21a060ff87511660ff6020890151169061050a60405192839288846158e9565b0390a2615aba565b8961051d858a61548e565b526157e7565b6103c5565b905061054c91935060603d8111610554575b6105448183615168565b810190615587565b929038610432565b503d61053a565b6040513d8b823e3d90fd5b5050600191506103c5565b50929084805b8282526001602052600360408320015481101561070f57610598818661548e565b516105a6575b600101610577565b82825260016020526105be8160036040852001615609565b60018060a01b0391549060031b1c168383526001602052604060028185200160009060018060a01b03841682526020522060018101549060ff6040519263d6192ad360e01b8452610621600485018460ff60209154818116845260081c16910152565b61063360448501838360101c1661523e565b60181c1660648301526040826084818c5afa9182156107045785926106b1575b5081600080516020615e6a833981519152918594936106746001978b61548e565b5261067f858a61548e565b50546106a78860ff60208186511695015116604051948460ff80889760081c16911686615953565b0390a2905061059e565b90915060403d81116106fd575b6106c88183615168565b81019060408183031261020e57916106f3600080516020615e6a8339815191529260019695946154b3565b9293945090610653565b503d6106be565b6040513d87823e3d90fd5b50935083915b8185526001602052600360408620015483101561093e57610736838561548e565b51156109355760018301808411610921575b82865260016020526003604087200154811015610914578061076c6001928761548e565b51156108f75783875281602052604060028189200185895283602052610797876003848c2001615609565b858060a01b0391549060031b1c1690600091858060a01b03168252602052208488528260205260406002818a2001868a52846020526107db846003848d2001615609565b868060a01b0391549060031b1c1690600091868060a01b0316825260205220905490549060ff821660ff82161491826108fc575b505061081c575b01610748565b86610827868861548e565b5286610833828861548e565b528387528160205261084b85600360408a2001615609565b838060a01b0391549060031b1c16600080516020615e8a8339815191526020604051878152a28387528160205261088881600360408a2001615609565b838060a01b0391549060031b1c16600080516020615e8a8339815191526020604051878152a2838752816020526108dc846108c987600360408c2001615609565b858060a01b0391549060031b1c16615aba565b838752816020526108f7846108c983600360408c2001615609565b610816565b60ff919250819060081c169160081c1614888061080f565b50916001905b0191610715565b634e487b7160e01b86526011600452602486fd5b9160019061091a565b849184818452600160205261095960036040862001546155c2565b90828552600160205261097260036040872001546155c2565b92855b818752600160205260036040882001548110156109af57808761099a6001938761548e565b526000196109a8828861548e565b5201610975565b509293909385915b84875260016020526003604088200154831015610ae1576109d8838761548e565b5115610ad857865b85885260016020526003604089200154811015610acb5796600188819986148015610ab9575b610ab45787835281602052604060028185200189855283602052610a2f88600384882001615609565b858060a01b0391549060031b1c1690600091858060a01b0316825260205220610a58828661548e565b519060ff82511690549060ff8216149182610a9b575b5050610a7e575b019097506109e0565b81610a89878961548e565b5280610a95878761548e565b52610a75565b60ff919250602082910151169160081c16148b80610a6e565b610a75565b50610ac4818a61548e565b5115610a06565b50916001905b01916109b7565b91600190610ad1565b86858388878385526001602052610afe60036040872001546155c2565b908590865b86885260016020526003604089200154811015610d0057610b24818661548e565b5115610cf857610b34818361548e565b51610b44575b6001905b01610b03565b9190610b50838761548e565b5192878952600160205288610b6b8560036040842001615609565b905460039190911b1c6001600160a01b03168988610b89888761548e565b51151580610ce5575b15610c66575082526001602052610bca610bb28460036040862001615609565b905460039190911b1c6001600160a01b031688615c7b565b15610c27575b610bda8188615c7b565b15610c04575b50610bfb600193949582610bf4858b61548e565b528861548e565b525b9050610b3a565b610c1f85610bfb92610c19600197988b61548e565b5261597f565b949350610be0565b93610c60908a83526001602052610c448460036040862001615609565b905460039190911b1c6001600160a01b0316610c19828a61548e565b93610bd0565b600195969750600360408580610cd189809688996108c999610ce09c528d602052610c95838989882001615609565b8f8060a01b039154908a1b1c167fbeaba0cb8f0bf4956e3f8756079b1aa20a9c7286167b8957d85188108991642d60208d8a51908152a361548e565b52858152886020522001615609565b610bfd565b5084610cf1898d61548e565b5114610b92565b600190610b3e565b5050909192508061157e575b505081835260016020526003604084200154805b6114c357505080825260016020526040822060030154610d8a576020600080516020615eaa8339815191529183600080516020615eca83398151915283604051848152a28084526001825260408420600501805461ff0019166101001790555b604051908152a180f35b90818152600160205260016003604083200154146000146113b5578181526001602052610dbc600360408320016155f4565b60018060a01b0391549060031b1c169182600080516020615eca8339815191526020604051848152a280825260016020526005604083200161010061ff001982541617905580825260016020526002604083200160018060a01b0384166000526020526003604060002001549260405193637988cb4160e11b855260048501526103c08460248160018060a01b037f0000000000000000000000000000000000000000000000000000000000000000165afa9384156113aa5783946112de575b5060408401519360a06080820151910151610e9684615621565b9290858752600160205260046040882001805491889089908a5b85811061126a5750610ec1836155c2565b93610ed4610ece846155c2565b936155c2565b9360018101809111611256578a8d97610ef38e939897969594986155c2565b9789938a938b915b84831061115557505050505091610f1f91610f19610f25948961548e565b52615e04565b98615e04565b928a86526001602052604060078188200160009060018060a01b038d16825260205220938454610f54816155c2565b95610f5e826155c2565b985b8281106111155750507f00000000000000000000000000000000000000000000000000000000000000006001600160a01b03169a90508a3b15611111576040519b6334bb253960e01b8d5260048d01528c60248d01528c60448d015260648c0161028090526102848c01610fd3916159cb565b8b81036003190160848d0152610fe8916159cb565b8a81036003190160a48c0152610ffd9161598e565b8981036003190160c48b015261101291615207565b8881036003190160e48a015261102791615207565b6003198882030161010489015282519081815260200192602001908a5b8181106110fb5750505088996110b388966110a88c9b9c999761109d6110918b9961107e8e9a8c9a6003198c8303016101248d0152615207565b898103600319016101448b015290615207565b95610164880190615a02565b6101c4860190615a02565b610224840190615a02565b03925af180156110f0576110db575b50506020600080516020615eaa83398151915291610d80565b816110e591615168565b61021a5781836110c2565b6040513d84823e3d90fd5b8251855260209485019490920191600101611044565b8d80fd5b8060ff61112460019385615609565b505416611131828b61548e565b5260ff61113e8285615609565b505460081c1661114e828d61548e565b5201610f60565b868c8c869798999a9b9c9d9e9f95968761116e91615609565b905460039190911b1c6001600160a01b03169485036111a4575b505050505050600101908f9998979695949392918f8f90610efb565b89859493926040966111bc836111c2959e9b9e61548e565b5261548e565b528352600160205260078284200160009160018060a01b03168252602052208054905b8a8a83851061120c5750505050506111fe60019161597f565b9390508f8f80878d8d611188565b9861124d91610c198260ff611241899e9988999a61123a85856112318560019e615609565b5054169261548e565b5289615609565b505460081c169261548e565b970191906111e5565b634e487b7160e01b8d52601160045260248dfd5b8a6112758287615609565b905460039190911b1c6001600160a01b03168d8c820361129b575b505050600101610eb0565b60019395916007604080936112b36112d3979b61597f565b9a8152876020522001600091868060a01b0316825260205220549061556d565b9290508a8e8d611290565b9093506103c03d81116113a3575b6112f68183615168565b81016103c0828203126102165780601f83011215610216576040519161131e61014084615168565b826103c082019183831161139f57905b82821061134057505050509284610e7c565b83601f8301121561139f57604051606061135a8183615168565b8190840186811161139b5784915b8183106113835750505081602091606093520191019061132e565b6020809161139085615394565b815201920191611368565b8980fd5b8680fd5b503d6112ec565b6040513d85823e3d90fd5b9080825260016020526113cd600360408420016155f4565b60018060a01b0391549060031b1c16827f6c5d9aa3894362f6fc8570afc4ad57ed5b0498a5e481b34ffccd61ee96cad12c6020604051858152a3815b8183526001602052600360408420015481101561147f576001908284528160205281604060028187200185875282602052611449846003848a2001615609565b905460039190911b1c60a084901b8490031660009081526020919091522001805464ffffffffff19166206000617905501611409565b506020600080516020615eaa83398151915291808452600182526005604085200163ff0000001981541690556114b481615cd0565b506114be81615c0e565b610d80565b6114cc90615903565b806114d7818461548e565b51610d20575082845260016020526003604085200183855260016020526003604086200154906000198201918211610921576115619161151691615609565b60018060a01b0391549060031b1c16848652600160205261153d8360036040892001615609565b9080546001600160a01b0360039390931b83811b199091169290931690921b179055565b82845260016020528061157960036040872001615910565b610d20565b61158a819592956155c2565b94825b82811061168a575050507f43c454d7d9739179cb8955fb1a87309459f577ba357c24735124f16f3bbea5a860405160408152806115cd604082018861598e565b8660208301520390a180915b845183101561167f576115ff846001600160a01b036115f8868961548e565b5116615aba565b815b848352600160205260036040842001548110156116755784835260016020526116308160036040862001615609565b90546001600160a01b0360039290921b1c81169061164e868961548e565b51161461165d57600101611601565b928261166c839560019461548e565b525b01916115d9565b509160019061166e565b915092508380610d0c565b6001906001600160a01b0361169f828561548e565b51166116ab828a61548e565b520161158d565b60405163174ad17960e11b8152600481018290529291828460248183855af19384156113aa57839461194a575b5081835260016020526001604084200160ff6116fd818354166154a2565b1660ff198254161790557ff47e725249069330b61eda3df25e7c3bcfd700624cbc7cbeabb0e28375bee5316020604051848152a1825b845160ff8216908110156117a557907fe33d4c5f3e9def7d3f127618203849e9a1888f8e0a9fbffbcdc7d6dbd42b64448260ff6020611783826117796117a0988d61548e565b515116938b61548e565b510151169061179860405192839289846158e9565b0390a16154a2565b611733565b50509091925081835260016020526003604084200154805b6117c85750906102d5565b6117d190615903565b82845260016020526117e98160036040872001615609565b60018060a01b0391549060031b1c168385526001602052611822604060028188200160009060018060a01b0385168252602052206156d2565b60405163b173a14760e01b81529061183e9060048301906150ec565b846044820152608081606481875afa91821561193f578392869288916118fe575b506060015115611871575b50506117bd565b6118a69250807faf0f1f1c6dd1455929199c881d29a04680c9c20aff5f0331d8619ed875c58d1c6020604051858152a2615aba565b82845260016020526003604085200183855260016020526003604086200154906000198201918211610921576118df9161151691615609565b8284526001602052806118f760036040872001615910565b833861186a565b925050915060803d8111611938575b6119178183615168565b81019160808284031261139f57606061193285948894615850565b9061185f565b503d61190d565b6040513d88823e3d90fd5b6119679194503d8085833e61195f8183615168565b8101906154e9565b92386116df565b5080835260016020526040832054818452600160205260ff600160408620015460081c169081156119a05706156102d0565b634e487b7160e01b85526012600452602485fd5b90506020813d6020116119eb575b816119cf60209383615168565b810103126102165760ff6119e4600192615394565b91506102c2565b3d91506119c2565b6040513d86823e3d90fd5b5081546001600160a01b03163314610247565b503461019157602036600319011261019157611a2b615344565b611a33615be5565b600380546001600160a01b0319166001600160a01b039290921691909117905580f35b50346101915760603660031901126101915760043590611a74615189565b906044359160ff831690818403611e52576003546001600160a01b031633148015611ed1575b611aa390615700565b848352600160205260ff600560408520015416611e9257848352600160205260056040842001600160ff198254161790558483526001602052611af4600160ff60056040872001541615151461535a565b825b85845260016020526003604085200154811015611b755760019086855281602052611b6f604060028188200189885284602052611b38846003848b2001615609565b868060a01b0391549060031b1c1690600091868060a01b031682526020522060036000918281558260018201558260028201550155565b01611af6565b5091909284825260016020526003604083200180549083815581611e74575b505084825260026020526040822080549083815581611e56575b5050611bd290611bbd86615cd0565b508583526001602052600160408420016155ac565b60405163af2f210960e01b815260ff9290921660048301819052602483018590528183604481837f00000000000000000000000000000000000000000000000000000000000000006001600160a01b03165af19283156110f0578293611db5575b50815b8351811015611d51576040611c4b828661548e565b510151611cc9575b807fe40ab56a2b71773fd8fa12379eac11a90b1a5a8b57fbdb4b84e4734d32a551e1608060ff611c856001958961548e565b51511660ff6020611c96868b61548e565b510151166040611ca6868b61548e565b510151151590604051928c8452602084015260408301526060820152a101611c36565b85835260026020526040832060ff611ce1838761548e565b5151169060ff6020611cf3858961548e565b5101511660405192611d0484615100565b83526020830152805490600160401b821015611d3d5791611d30826001959486611d3695018155615609565b90615808565b9050611c53565b634e487b7160e01b86526041600452602486fd5b506020857fce444ef4ca2b2a7392fcd119e5c16b6af56ef7caef781ca922de0de696762fb960607f50ad08f58a27f2851d7e3a1b3a6a46b290f2ce677e99642d30ff639721e77790948860405191825284868301526040820152a1610d8081615c0e565b9092503d8083833e611dc78183615168565b810190602081830312611e52578051906001600160401b038211610216570181601f82011215611e52578051611dfc81615261565b92611e0a6040519485615168565b81845260208085019260071b8401019281841161020e57602001915b838310611e3857505050509138611c33565b6020608091611e478486615850565b815201920191611e26565b8280fd5b835260208320908101905b81811015611bae57838155600101611e61565b835260208320908101905b81811015611b9457838155600101611e7f565b60405162461bcd60e51b815260206004820152601760248201527647616d65494420616c72656164792070726f677265737360481b6044820152606490fd5b5082546001600160a01b03163314611a9a565b503461019157606036600319011261019157611efe615344565b9060018060a01b036003541633148015612741575b611f1c90615700565b60243581526001602052611f3e600160ff60056040852001541615151461535a565b6040516331a9108f60e11b815260443560048201527f00000000000000000000000000000000000000000000000000000000000000006001600160a01b03169290602081602481875afa9081156113aa5783916126ff575b506001600160a01b038281169116036126de57602435825260016020526002604083200160018060a01b03821660005260205260ff604060002054161515806126aa575b6126335791604051611feb81615100565b600080825260208201527f00000000000000000000000000000000000000000000000000000000000000006001600160a01b0316908360015b156121b4575b505082839260405195637128e56d60e11b8752602435600488015260408760248189885af196871561193f578697612178575b508692865b60243588526001602052600360408920015460ff82161015612169576024358852600160205260ff6040896120ac8460038460028186200194602435815260016020522001615609565b905460039190911b1c6001600160a01b0316600090815260209190915220548a5160ff1691161480612106575b6120eb576120e6906154a2565b612062565b509091929394508596506001905b9091965093929193612024565b506024358852600160205260ff6040896121358460038460028186200194602435815260016020522001615609565b60018060a01b0391549060031b1c169060009160018060a01b03168252602052205460081c1660ff60208b015116146120d9565b508697509490919293946120f9565b90965060403d81116121ad575b61218f8183615168565b81019060408183031261139f57906121a6916154b3565b953861205d565b503d612185565b156121bf578061202a565b9293905060405191631986c9e960e31b83526044356004840152602083602481845afa9283156107045785936125f7575b50604051636455ce8d60e11b815260443560048201529385602086602481865afa9283156125ea5781936125ae575b604051631303d57d60e11b815260443560048201529650869060249082905afa94851561193f57869561250d575b5060405161225a81615131565b81815260208101908782526040810188815260608201908982528960808401528960a084015260018060a01b03871660c084015260ff881660e084015260ff86166101008401526024356101208401526044356101408401526024358a52600160205260406002818c200160009060018060a01b038a16825260205220936122e38451866157e7565b5160078110156124f95761230b9161230060ff9260018801615784565b5116600185016155ac565b5160078110156124e5579360ff80808b9686600361014084986123587f526c62f8fa999ff5dc01591b8086e17ed53753d49a9eca57e821d0c3f550efa39f9e9b9d60016101009f0161579c565b61238086608083015116600186019063ff00000082549160181b169063ff0000001916179055565b60a08101516001858101805460c085015160e0860151610100870151640100000000600160d81b0319909316951515602090811b64ff00000000169690961760289290921b600160281b600160c81b031691909117908b1660c81b17908a1660d01b1790556101208301516002870155929091015192909301919091556024358a529052604088206124169088906003016158c6565b6024358852600160205261243087600460408b20016158c6565b61247c8282511660076040602085019b868d511682519461245086615100565b8552602085015260243581526001602052200160018060a01b038a16600052602052604060002061582d565b51169551169660405197889660243588526044356020890152604088015260608701521660808501521660a083015260e060c08301526124cb865180978160e0860152602086860191016158a3565b6001600160a01b031694601f01601f19168101030190a280f35b634e487b7160e01b89526021600452602489fd5b634e487b7160e01b8b52602160045260248bfd5b9094503d8087833e61251f8183615168565b81019060208183031261139f578051906001600160401b038211612596570181601f8201121561139f5780516001600160401b03811161259a5760405192612571601f8301601f191660200185615168565b818452602082840101116125965761258f91602080850191016158a3565b933861224d565b8780fd5b634e487b7160e01b88526041600452602488fd5b92506020863d6020116125e2575b816125c960209383615168565b81010312610191576125dc602496615394565b9261221f565b3d91506125bc565b50604051903d90823e3d90fd5b9092506020813d60201161262b575b8161261360209383615168565b810103126102125761262490615394565b91386121f0565b3d9150612606565b60649250602435825260016020526002604083200160018060a01b03821660005260205260ff60406000205416602435835260016020526002604084200160018060a01b03831660005260205260ff60406000205460081c16916308538db760e41b845260018060a01b0316600452602452604452fd5b50602435825260016020526002604083200160018060a01b03821660005260205260ff60406000205460081c161515611fda565b634319813760e01b82526001600160a01b0316600452604480356024529150fd5b90506020813d602011612739575b8161271a60209383615168565b81010312611e5257516001600160a01b0381168103611e525738611f96565b3d915061270d565b5080546001600160a01b03163314611f13565b50346101915736600319016060811261021a576040136101915760405161277a81615100565b60043560ff81168103611e5257815260243560ff81168103611e525760208201526044358260606040516127ad8161514d565b828152826020820152826040820152015280835260016020526127de600160ff60056040872001541615151461535a565b60405163b173a14760e01b8152916127fa9060048401906150ec565b60448201526080816064817f00000000000000000000000000000000000000000000000000000000000000006001600160a01b03165afa9081156110f0578291612873575b60808260606040519160ff815116835260ff6020820151166020840152604081015115156040840152015115156060820152f35b905060803d6080116128aa575b61288a8183615168565b81019160808284031261019157506080916128a491615850565b3861283f565b503d612880565b5034610191576040366003190112610191576004356024359081835260016020526128ed600160ff600560408720015460101c1615151461535a565b81835260016020526006604084200160018060a01b0333166000526020528060406000205560405191825260208201527feb7d119bae44c06d4b05b80eb4a3bdfc755131945d1845f3c9d2aeaa7d8bf54260403392a280f35b503461019157602036600319011261019157612960615344565b612968615be5565b600480546001600160a01b0319166001600160a01b039290921691909117905580f35b503461019157604061299c366151a7565b6129a8949391946153f4565b50855260016020526129c7600160ff600586892001541615151461535a565b6129e483519485938493630d42527560e11b8552600485016157bd565b03817f00000000000000000000000000000000000000000000000000000000000000006001600160a01b03165afa9081156110f0578291612a30575b60408051612a2e81856150ec565bf35b905060403d604011612a67575b612a478183615168565b8101916040828403126101915750604091612a61916154b3565b38612a20565b503d612a3d565b5034610191578060031936011261019157546040516001600160a01b039091168152602090f35b50346101915760e0366003190112610191576004356001600160401b03811161021a57612ac6903690600401615278565b6024356001600160401b038111611e5257612ae59036906004016152df565b6044356001600160401b03811161021657612b04903690600401615278565b906064356001600160401b03811161021257612b249036906004016152df565b916084356001600160401b03811161020e57612b449036906004016152df565b9360a435926001600160401b03841161139f573660238501121561139f578360040135612b7081615261565b94612b7e6040519687615168565b8186526024602087019260051b8201019036821161139b57602401915b8183106147cc5750505060018060a01b0360045416331480156147b9575b612bc290615700565b60c43587526001602052612be4600160ff600560408b2001541615151461535a565b612bf1845183511461573d565b612bfe825182511461573d565b612c0b835186511461573d565b612c18865185511461573d565b865b845181101561307d57612c8d8285898960ff612c708782612c6882612c62612c4f8f85612c5a85612c54612c4f82809661548e565b615777565b9f61548e565b51169b61548e565b9661548e565b51169461548e565b5116926001600160a01b03612c85888d61548e565b511694615a3d565b604051612c9981615100565b8981528960208201529060c4358a526001602052600660408b200160018060a01b03612cc5858a61548e565b51166001600160a01b03168b5260205260408a205414612d44575b90612d3e8260ff60208160019651169201511660405191612d0083615100565b8252602082015260c4358b5283602052600760408c2001848060a01b03612d27858b61548e565b5116858060a01b03168c5260205260408b2061582d565b01612c1a565b5060c43588526001602052604088206002016001600160a01b03612d68838861548e565b51166001600160a01b0316895260205260408820612e3390612d8d612c4f848761548e565b612d9b600183019182615784565b60ff612da7858761548e565b511660ff825460c81c1680911160001461306657612dc6905b826155ac565b612ddc612dd6612c4f868a61548e565b8261579c565b60ff612de8858b61548e565b511660ff825460d01c1680911160001461304f57612e1b905b825463ff000000191660189190911b63ff00000016178255565b805464ff0000000019166401000000001790556156d2565b7f00000000000000000000000000000000000000000000000000000000000000006001600160a01b0316919089906040612e70612c4f858961548e565b60ff612e7c868961548e565b518351630d42527560e11b81529485938493612e9d931691600485016157bd565b0381875afa9081156110f05787948a918493613008575b50829160409160ff612ed788612ed1612c4f82612ef79a9d61548e565b9461548e565b518451630d42527560e11b815296879485938493169088600485016157bd565b03915afa9182156113aa578392612f9d575b50917ffd735dcfd99f4b7d7f6bcea365f20bd4b998183607e89895805ae488fbeaa86660c060019693612d3e9560408d612f498a8c8060a01b039261548e565b51169560c43581528a60205220549160ff6020818451169301511660ff60208184511693015116926040519460c4358652602086015260408501526060840152608083015260a0820152a291925050612ce0565b9491509160403d8111613001575b612fb58187615168565b85019460408187031261021a5760c0612d3e94612ff56001987ffd735dcfd99f4b7d7f6bcea365f20bd4b998183607e89895805ae488fbeaa866946154b3565b94975092945050612f09565b503d612fab565b955091505060403d8111613048575b6130218186615168565b840190604085830312611e525760408a61303f612ef7948b986154b3565b93509190612eb4565b503d613017565b50612e1b60ff61305f868c61548e565b5116612e01565b50612dc660ff613076868861548e565b5116612dc0565b8760018060a01b0360045416331480156147a6575b61309b90615700565b60c435815260016020526130b860ff60056040842001541661535a565b60405163436fadf360e11b815260c43560048201527f00000000000000000000000000000000000000000000000000000000000000006001600160a01b031690602081602481855afa9081156113aa578391614767575b5060ff60019116118061471d575b61446c575b60c4358252600160205261313c600360408420015461540d565b60c4358352600160205261315660036040852001546155c2565b90835b60c4358552600160205260036040862001548110156131875780600161318081938661548e565b5201613159565b5091835b60c4358552600160205260036040862001548110156133b45760c435855260016020526131be8160036040882001615609565b60018060a01b0391549060031b1c169060c435865260016020526002604087200160018060a01b0383168752602052604086209160018301549260018060a01b038460281c16156133a95760ff8460201c16613222575b5050600191505b0161318b565b60ff6040519463183b1baf60e01b865261324e600487018460ff60209154818116845260081c16910152565b61325d6044870183831661523e565b60081c16606485015260c435608485015260608460a481885afa90811561339e5760019489908a9361337b575b50613316579081837f9db385e25deecca76e1e8dab29ae54e5c2f1707d2c611cfab0984b782e9f8a2c6132e3945460ff85511661048960ff6020880151169260405193849360c4359260ff808260081c16911686615953565b7f4a5516f0f1d85471405ad39e7a960ba9a7b312f2bdc784a6dce8402611417fd6602060405160c4358152a28680613215565b61336b83613376947f2265cf35e234e961bc739ea7efb0e9751a34a8c56c1b547ff729d632c2ad21a060ff86511660ff6020880151169061335f60405192839260c435846158e9565b0390a260c43590615aba565b8861051d858961548e565b61321c565b905061339691925060603d8111610554576105448183615168565b91908a61328a565b6040513d8a823e3d90fd5b50506001915061321c565b509183805b60c435825260016020526003604083200154811015613550576133dc818561548e565b516133ea575b6001016133b9565b60c435825260016020526134048160036040852001615609565b60018060a01b0391549060031b1c1660c435835260016020526002604084200160018060a01b03821684526020526040832060018101549060ff6040519263d6192ad360e01b8452613468600485018460ff60209154818116845260081c16910152565b61347a60448501838360101c1661523e565b60181c1660648301526040826084818b5afa9182156107045785926134fd575b5081600080516020615e6a833981519152918594936134bb6001978a61548e565b526134c6858961548e565b5054906134f360ff602081845116930151169260405193849360c4359260ff808260081c16911686615953565b0390a290506133e2565b90915060403d8111613549575b6135148183615168565b81019060408183031261020e579161353f600080516020615e6a8339815191529260019695946154b3565b929394509061349a565b503d61350a565b509182915b60c43584526001602052600360408520015483101561379457613578838361548e565b511561378b5760018301808411613777575b60c43585526001602052600360408620015481101561376a57806135b06001928561548e565b511561374d5760c4358652816020526002604087200160c4358752826020526135df86600360408a2001615609565b848060a01b0391549060031b1c16838060a01b031687526020526040862060c4358752826020526002604088200160c43588528360205261362683600360408b2001615609565b905460039190911b1c60a085901b859003168852602052604087209054905460ff80831690821614919082613752575b5050613663575b0161358a565b8561366e868661548e565b528561367a828661548e565b5260c4358652816020526136948560036040892001615609565b838060a01b0391549060031b1c16600080516020615e8a833981519152602060405160c4358152a260c4358652816020526136d58160036040892001615609565b838060a01b0391549060031b1c16600080516020615e8a833981519152602060405160c4358152a260c43586528160205261373161371986600360408a2001615609565b9060c43591858060a01b0391549060031b1c16615aba565b60c43586528160205261374d61371982600360408a2001615609565b61365d565b60ff919250819060081c169160081c16148780613656565b50916001905b0191613555565b634e487b7160e01b85526011600452602485fd5b91600190613770565b908360c435815260016020526137b060036040832001546155c2565b60c435825260016020526137ca60036040842001546155c2565b93825b60c4358452600160205260036040852001548110156138095780846137f46001938661548e565b52600019613802828961548e565b52016137cd565b509382905b60c43584526001602052600360408520015482101561393c57613831828661548e565b511561393357835b60c4358552600160205260036040862001548110156139265795600187819885148015613914575b61390f5760c4358752816020526002604088200160c43588528260205261388e86600360408b2001615609565b905460039190911b1c60a084901b849003168852602052604087206138b3828561548e565b519060ff82511690549060ff82161491826138f6575b50506138d9575b01909650613839565b816138e4868861548e565b52806138f0868661548e565b526138d0565b60ff919250602082910151169160081c16148a806138c9565b6138d0565b5061391f818961548e565b5115613861565b50906001905b019061380e565b9060019061392c565b92905060c4358152600160205261395960036040832001546155c2565b928194825b60c435845260016020526003604085200154811015613b6157613981818361548e565b5115613b5957613991818661548e565b516139a1575b6001905b0161395e565b6139ab818461548e565b5160c435855260016020526139c68160036040882001615609565b905460039190911b1c6001600160a01b03166139e2828861548e565b51151580613b46575b15613ac15760c43586526001602052613a25613a0d84600360408a2001615609565b905460039190911b1c6001600160a01b031689615c7b565b15613a80575b613a358189615c7b565b15613a5f575b509084613a5660019382613a4f858861548e565b528561548e565b525b9050613997565b613a56613a768a8893610c19600197969d8d61548e565b9992935050613a3b565b97613abb9060c43587526001602052613a9f84600360408a2001615609565b905460039190911b1c6001600160a01b0316610c19828b61548e565b97613a2b565b600192915060c435865282602052613adf8260036040892001615609565b848060a01b0391549060031b1c167fbeaba0cb8f0bf4956e3f8756079b1aa20a9c7286167b8957d85188108991642d602060405160c4358152a384613b24828561548e565b5260c435855281602052613b416137198260036040892001615609565b613a58565b5082613b52838761548e565b51146139eb565b60019061399b565b50925050928061432b575b50905060c435825260016020526003604083200154805b61428c578260c43581526001602052600360408220015415600014613bf95780600080516020615eca833981519152602060405160c4358152a260c4358152600160205260408120600501805461ff0019166101001790555b600080516020615eaa833981519152602060405160c4358152a180f35b60c4358152600160205260016003604083200154146000146141845760c43581526001602052613c2e600360408320016155f4565b60018060a01b0391549060031b1c1680600080516020615eca833981519152602060405160c4358152a260c435825260016020526005604083200161010061ff001982541617905560c435825260016020526002604083200160018060a01b0382168352602052600360408320015460405190637988cb4160e11b825260048201526103c08160248160018060a01b037f0000000000000000000000000000000000000000000000000000000000000000165afa9081156113aa5783916140c2575b50604081015160a06080830151920151613d0b60c435615621565b939060c4358752600160205260046040882001805491889089908a5b8581106140525750613d38836155c2565b93613d45610ece846155c2565b936001810180911161125657908b613d628e9897969594936155c2565b96889289928a905b838210613f79575050505091613d8791610f19613d8d948961548e565b99615e04565b9260c435865260016020526007604087200160018060a01b038c16875260205260408620938454613dbd816155c2565b95613dc7826155c2565b985b828110613f395750507f00000000000000000000000000000000000000000000000000000000000000006001600160a01b03169b90508b3b15611111579b9896949290918d9a989694926040519d8e9b6334bb253960e01b8d5260048d015260c43560248d015260c43560448d015260648c0161028090526102848c01613e4f916159cb565b8b81036003190160848d0152613e64916159cb565b8a81036003190160a48c0152613e799161598e565b8981036003190160c48b0152613e8e91615207565b8881036003190160e48a0152613ea391615207565b600319888203016101048901528251908181526020019260200190895b818110613f1d5750505086946110a8899a97939561109d611091899761107e8e9a613ef7986003198c8303016101248d0152615207565b03925af180156125ea57613f0d575b5050613bdc565b613f1691615168565b8181613f06565b825185528d9a508c995060209485019490920191600101613ec0565b8060ff613f4860019385615609565b505416613f55828b61548e565b5260ff613f628285615609565b505460081c16613f72828d61548e565b5201613dc9565b858b8b613f91869798999a9b9c9d9e9f958097615609565b905460039190911b1c6001600160a01b0316938403613fc4575b5050505050600101908f9998979695949392918f613d6a565b97613fd691846111bc8380999c61548e565b5260c43582526001602052600760408320019060018060a01b03168252602052604081208054905b8a8a83851061402457505050505061401760019161597f565b9390508f38868c8c613fab565b9861404991610c198260ff611241899e9988999a61123a85856112318560019e615609565b97019190613ffe565b61405c8186615609565b905460039190911b1c6001600160a01b03168c8c8203614081575b5050600101613d27565b936040600193956140956140ba949861597f565b9760c43582528560205260078383200190868060a01b0316825260205220549061556d565b92908c614077565b90506103c03d811161417d575b6140d98183615168565b81016103c0828203126102165780601f83011215610216576040519161410161014084615168565b826103c082019183831161139f57905b828210614122575050505083613cf0565b83601f8301121561139f57604051606061413c8183615168565b8190840186811161139b5784915b81831061416557505050816020916060935201910190614111565b6020809161417285615394565b81520192019161414a565b503d6140cf565b60c4358152600160205261419d600360408320016155f4565b60018060a01b0391549060031b1c16817f6c5d9aa3894362f6fc8570afc4ad57ed5b0498a5e481b34ffccd61ee96cad12c602060405160c4358152a3805b60c4358252600160205260036040832001548110156142545760019060c4358352816020526002604084200160c4358452826020526142208260036040872001615609565b905460039190911b1c60a084901b849003168452602052604083208201805464ffffffffff191662060006179055016141db565b5060c435808252600160205260408220600501805463ff0000001916905561427b90615cd0565b5061428760c435615c0e565b613bdc565b61429590615903565b806142a0818461548e565b51613b83575060c435835260016020526003604084200160c4358452600160205260036040852001549060001982019182116137775761430c916142e391615609565b60018060a01b0391549060031b1c1660c4358552600160205261153d8360036040882001615609565b60c435835260016020528061432660036040862001615910565b613b83565b614337819492946155c2565b92825b82811061443e575050507f43c454d7d9739179cb8955fb1a87309459f577ba357c24735124f16f3bbea5a8604051604081528061437a604082018661598e565b60c43560208301520390a1805b8251821015614433576143a860c4356001600160a01b036115f8858761548e565b80935b60c4358252600160205260036040832001548510156144285760c435825260016020526143de8560036040852001615609565b90546001600160a01b0360039290921b1c8116906143fc858761548e565b51161461440f57600180950194506143ab565b918161441e600193968561548e565b525b019092614387565b916001919450614420565b929150508083613b6c565b9294926001906001600160a01b03614456828561548e565b5116614462828861548e565b520194929461433a565b60405163174ad17960e11b815260c43560048201529190818360248183855af19283156110f0578293614701575b5060c435825260016020526001604083200160ff6144ba818354166154a2565b1660ff198254161790557ff47e725249069330b61eda3df25e7c3bcfd700624cbc7cbeabb0e28375bee531602060405160c4358152a1815b835160ff82169081101561455e57907fe33d4c5f3e9def7d3f127618203849e9a1888f8e0a9fbffbcdc7d6dbd42b64448260ff602061454282614538614559988c61548e565b515116938a61548e565b510151169061179860405192839260c435846158e9565b6144f2565b505090915060c435825260016020526003604083200154805b6145815750613122565b61458a90615903565b60c435835260016020526145a48160036040862001615609565b60018060a01b0391549060031b1c1660c435845260016020526002604085200160018060a01b03821685526020526145de604085206156d2565b60405163b173a14760e01b815291906145fb9060048401906150ec565b60c4356044830152608082606481875afa801561070457839286916146c4575b50606001511561462c575b50614577565b6146679150807faf0f1f1c6dd1455929199c881d29a04680c9c20aff5f0331d8619ed875c58d1c602060405160c4358152a260c43590615aba565b60c435835260016020526003604084200160c435845260016020526003604085200154906000198201918211613777576146a4916142e391615609565b60c43583526001602052806146be60036040862001615910565b84614626565b92505060803d81116146fa575b6146db8184615168565b820160808382031261020e576146f46060918594615850565b9061461b565b503d6146d1565b6147169193503d8084833e61195f8183615168565b918361449a565b5060c43582526001602052604082205460c4358352600160205260ff600160408520015460081c1690811561475357061561311d565b634e487b7160e01b84526012600452602484fd5b90506020813d60201161479e575b8161478260209383615168565b81010312611e525760ff614797600192615394565b915061310f565b3d9150614775565b5080546001600160a01b03163314613092565b5086546001600160a01b03163314612bb9565b82356001600160a01b03811681036147ec57815260209283019201612b9b565b8a80fd5b5034610191576020366003190112610191576004358082526001602052614825600160ff60056040862001541615151461535a565b8082526001602052600360408320015461483e81615261565b9061484c6040519283615168565b80825261485b601f1991615261565b01835b818110614a5e575050825b8284526001602052600360408520015481101561497e576001908385528160205260026040862001848652826020526148a88260036040892001615609565b848060a01b0391549060031b1c16838060a01b03168652602052604085206003604051916148d583615131565b6148de816156d2565b835260ff858201546148f5828216602087016156f4565b818160081c166040860152614912828260101c16606087016156f4565b818160181c166080860152818160201c16151560a0860152868060a01b038160281c1660c0860152818160c81c1660e086015260d01c166101008401526002810154610120840152015461014082015261496c828561548e565b52614977818461548e565b5001614869565b8184604051918291602083016020845282518091526020604085019301915b8181106149ab575050500390f35b91935091602061018060019261014087516149c78382516150ec565b6149d885820151604085019061523e565b60ff60408201511660608401526149f76060820151608085019061523e565b60ff60808201511660a084015260a0810151151560c0840152858060a01b0360c08201511660e084015260ff60e08201511661010084015260ff6101008201511661012084015261012081015182840152015161016082015201940191019184939261499d565b602090604051614a6d81615131565b604051614a7981615100565b8781528784820152815286838201528660408201528660608201528660808201528660a08201528660c08201528660e08201528661010082015286610120820152866101408201528282860101520161485e565b5034610191578060031936011261019157614ae6615be5565b80546001600160a01b03198116825581906001600160a01b03167f8be0079c531659141344cd1fd0a4f28419497f9722a3daafe3b4186f6b6457e08280a380f35b503461019157602036600319011261019157600435908181526001602052614b5d600160ff60056040852001541615151461535a565b60405163436fadf360e11b815260048101929092526020826024817f00000000000000000000000000000000000000000000000000000000000000006001600160a01b03165afa908115614bfd578091614bc0575b60208260ff60405191168152f35b90506020823d602011614bf5575b81614bdb60209383615168565b810103126101915750614bef602091615394565b38614bb2565b3d9150614bce565b604051903d90823e3d90fd5b503461019157602036600319011261019157614c43614c51614c2c600435615621565b604092919251938493604085526040850190615207565b908382036020850152615207565b0390f35b50346101915780600319360112610191576003546040516001600160a01b039091168152602090f35b503461019157614cdc60ff614c92366151a7565b93929490918487526001602052614cb6600185600560408b2001541615151461535a565b60405163183b1baf60e01b815295614cd29060048801906150ec565b604486019061523e565b1660648301526084820181905260608260a4817f00000000000000000000000000000000000000000000000000000000000000006001600160a01b03165afa9182156113aa5783908493614d93575b5015614d3f57614d3c915033615aba565b80f35b81518184526001602081815260408087203380895260029182018452828920805460ff191660ff97881617905596830151958852928252808720958752949091019052918320614d3c9291909116906155ac565b9050614daf91925060603d606011610554576105448183615168565b919038614d2b565b503461019157602036600319011261019157604060e091600435815260016020522060ff815491816005600183015492015491604051948552818116602086015260081c16604084015281811615156060840152818160081c1615156080840152818160101c16151560a084015260181c16151560c0820152f35b5034610191576020366003190112610191576004358082526001602052614e67600160ff60056040862001541615151461535a565b60405163436fadf360e11b815260048101919091527f00000000000000000000000000000000000000000000000000000000000000006001600160a01b031691602082602481865afa9182156125ea57819261508b575b5060ff614eca836153a2565b921691600183019060ff82116150775760ff614ef3614eee879694614ef9946153cc565b6153e3565b1661540d565b90604051614f0681615100565b818152816020820152614f188361546b565b52614f228261546b565b506001905b60ff82169381851161502657600019850160ff811161501257614f57614eee85614f5260ff946153a2565b6153cc565b1695614f628561546b565b516040516301cf2e2560e51b81529690614f809060048901906150ec565b60448701528186606481845afa9586156110f0578296614ff6575b50815b865160ff821690811015614fdf5790614fd482614fc9614fc1614fda958c61548e565b51918c61556d565b90610bf4828b61548e565b506154a2565b614f9e565b5050955091614fef9194506154a2565b9092614f27565b61500b9196503d8084833e61195f8183615168565b9487614f9b565b634e487b7160e01b82526011600452602482fd5b8390604051918291602083016020845282518091526020604085019301915b818110615053575050500390f35b91935091602060408261506960019488516150ec565b019401910191849392615045565b634e487b7160e01b83526011600452602483fd5b9091506020813d6020116150bf575b816150a760209383615168565b8101031261021a576150b890615394565b9038614ebe565b3d915061509a565b90503461021a578160031936011261021a576004546001600160a01b03168152602090f35b60ff60208092828151168552015116910152565b604081019081106001600160401b0382111761511b57604052565b634e487b7160e01b600052604160045260246000fd5b61016081019081106001600160401b0382111761511b57604052565b608081019081106001600160401b0382111761511b57604052565b90601f801991011681019081106001600160401b0382111761511b57604052565b6024359060ff8216820361001757565b359060ff8216820361001757565b60a06003198201126100175760046040910312610017576040516151ca81615100565b6151d46004615199565b81526151e06024615199565b6020820152906044356007811015610017579060643560ff81168103610017579060843590565b906020808351928381520192019060005b8181106152255750505090565b825160ff16845260209384019390920191600101615218565b90600782101561524b5752565b634e487b7160e01b600052602160045260246000fd5b6001600160401b03811161511b5760051b60200190565b9080601f830112156100175781359061529082615261565b9261529e6040519485615168565b82845260208085019360051b82010191821161001757602001915b8183106152c65750505090565b82356007811015610017578152602092830192016152b9565b9080601f830112156100175781356152f681615261565b926153046040519485615168565b81845260208085019260051b82010192831161001757602001905b82821061532c5750505090565b6020809161533984615199565b81520191019061531f565b600435906001600160a01b038216820361001757565b1561536157565b60405162461bcd60e51b815260206004820152600b60248201526a1b9bdd081cdd185c9d195960aa1b6044820152606490fd5b519060ff8216820361001757565b60ff166003029060ff82169182036153b657565b634e487b7160e01b600052601160045260246000fd5b9060ff8091169116029060ff82169182036153b657565b60ff166001019060ff82116153b657565b6040519061540182615100565b60006020838281520152565b9061541782615261565b6154246040519182615168565b8281528092615435601f1991615261565b019060005b82811061544657505050565b60209060405161545581615100565b600081526000838201528282850101520161543a565b8051156154785760200190565b634e487b7160e01b600052603260045260246000fd5b80518210156154785760209160051b010190565b60ff1660ff81146153b65760010190565b9190826040910312610017576040516154cb81615100565b60206154e48183956154dc81615394565b855201615394565b910152565b602081830312610017578051906001600160401b038211610017570181601f8201121561001757805161551b81615261565b926155296040519485615168565b81845260208085019260061b8401019281841161001757602001915b838310615553575050505090565b602060409161556284866154b3565b815201920191615545565b919082018092116153b657565b5190811515820361001757565b9190606083820312610017576155a99060206155a28561557a565b94016154b3565b90565b9061ff0082549160081b169061ff001916179055565b906155cc82615261565b6155d96040519182615168565b82815280926155ea601f1991615261565b0190602036910137565b80541561547857600052602060002090600090565b80548210156154785760005260206000200190600090565b90816000526001602052615644600160ff6005604060002001541615151461535a565b81600052600260205260406000205461565c816155c2565b90615666816155c2565b9360005b828110615678575050509190565b60019082600052600260205260ff615694826040600020615609565b5054166156a1828761548e565b5282600052600260205260ff6156bb826040600020615609565b505460081c166156cb828961548e565b520161566a565b906040516156df81615100565b602060ff829454818116845260081c16910152565b600782101561524b5752565b1561570757565b60405162461bcd60e51b815260206004820152600e60248201526d24b73b30b634b21031b0b63632b960911b6044820152606490fd5b1561574457565b60405162461bcd60e51b815260206004820152600b60248201526a0e6c2daca40d8cadccee8d60ab1b6044820152606490fd5b51600781101561524b5790565b90600781101561524b5760ff80198354169116179055565b90600781101561524b5762ff000082549160101b169062ff00001916179055565b9160609194936157e160ff926157d78660808101996150ec565b604086019061523e565b16910152565b60ff6020615806938280825116168319855416178455015116906155ac565b565b919061581757615806916157e7565b634e487b7160e01b600052600060045260246000fd5b80549190600160401b83101561511b5782611d3091600161580695018155615609565b9190826080910312610017576040516158688161514d565b60606154e481839561587981615394565b855261588760208201615394565b60208601526158986040820161557a565b60408601520161557a565b60005b8381106158b65750506000910152565b81810151838201526020016158a6565b80549190600160401b83101561511b578261153d91600161580695018155615609565b90815260ff91821660208201529116604082015260600190565b80156153b6576000190190565b8054801561593d5760001901906159278282615609565b81549060018060a01b039060031b1b1916905555565b634e487b7160e01b600052603160045260246000fd5b919360ff6080948180949998978160a088019b1687521660208601521660408401521660608201520152565b60001981146153b65760010190565b906020808351928381520192019060005b8181106159ac5750505090565b82516001600160a01b031684526020938401939092019160010161599f565b906020808351928381520192019060005b8181106159e95750505090565b8251600190810b855260209485019490930192016159dc565b906000905b60038210615a1457505050565b60208060019260ff865116815201930191019091615a07565b600781101561524b5760f81b9052565b9492909391615a749060405195615a58602088018099615a2d565b60f81b6001600160f81b03191660218701526022860190615a2d565b60f890811b6001600160f81b0319908116602386015291901b16602483015260601b6001600160601b031916602582015260198152615ab4603982615168565b51902090565b9060008181526001602052615add600160ff60056040852001541615151461535a565b6040518281526001600160a01b038416907f0ceeb6c20e03a8c47e6673117b7b54c5b880118423ef2a84e0b795bd849fc40690602090a260018060a01b037f00000000000000000000000000000000000000000000000000000000000000001682825260016020526002604083200160018060a01b03851683526020526003604083200154813b15611e5257829160248392604051948593849263835f396760e01b845260048401525af180156110f0579160029391604093615bd5575b50908152600160205220019060018060a01b0316600052602052615806604060002060036000918281558260018201558260028201550155565b81615bdf91615168565b38615b9b565b6000546001600160a01b03163303615bf957565b63118cdaa760e01b6000523360045260246000fd5b60207f8924ef8e2fcf31b0d38716fc8120f7aec496d13f5abdb8320e31a69dbc449100918060005260018252615c53600160ff6005604060002001541615151461535a565b806000526001825260056040600020016201000062ff000019825416179055604051908152a1565b9060005b825160ff821690811015615cc7576001600160a01b0390615ca0908561548e565b51166001600160a01b03831614615cbf57615cba906154a2565b615c7f565b505050600190565b50505050600090565b60405163436fadf360e11b8152600481018290526020816024817f00000000000000000000000000000000000000000000000000000000000000006001600160a01b03165afa908115615df857600091615d9a575b5060607f3874cce3730901301cd0c02b4c2dd416d59546f183096d9f2a434c4d3a9ba4a5918360005260016020526040600020615d62815461597f565b905583600052600160205260ff60406000205491604051928684526020840152166040820152a1600052600160205260406000205490565b90506020813d602011615df0575b81615db560209383615168565b81010312610017576060615de97f3874cce3730901301cd0c02b4c2dd416d59546f183096d9f2a434c4d3a9ba4a592615394565b9150615d25565b3d9150615da8565b6040513d6000823e3d90fd5b908151615e1081615261565b90615e1e6040519283615168565b808252615e2d601f1991615261565b0136602083013760005b8351811015615e64578060ff615e4f6001938761548e565b5116820b615e5d828561548e565b5201615e37565b50915056fe1a5ee6632f2ff8b0f1e4bf31b540f744e4337da13603a9eac0072df00578c5a6d3530cd7a307ade37676af8529ec0105ea6204af5e1534bd5de42308107123710ffee877d4bec4783459533ceddde8785dcd14454a9ebe37f1b3b8792509c36b56807b65299b9d361218ee1228c0caeed59b1cbcb079421f124145f99d0a0b06a264697066735822122017b78c4517c17f7846ad0b502420a7454a3abd30ea0075cce1bcf1d15288c4e664736f6c634300081b0033",
  "linkReferences": {},
  "deployedLinkReferences": {}
}