{
  "_format": "hh-sol-artifact-1",
  "contractName": "GamePunk",
  "sourceName": "contracts/GamePunk.sol",
  "abi": [
    {
      "inputs": [
        {
          "internalType": "address",
          "name": "_mapAddress",
          "type": "address"
        }
      ],
      "stateMutability": "nonpayable",
      "type": "constructor"
    },
    {
      "inputs": [
        {
          "internalType": "address",
          "name": "owner",
          "type": "address"
        }
      ],
      "name": "OwnableInvalidOwner",
      "type": "error"
    },
    {
      "inputs": [
        {
          "internalType": "address",
          "name": "account",
          "type": "address"
        }
      ],
      "name": "OwnableUnauthorizedAccount",
      "type": "error"
    },
    {
      "inputs": [
        {
          "internalType": "address",
          "name": "player",
          "type": "address"
        },
        {
          "internalType": "uint8",
          "name": "q",
          "type": "uint8"
        },
        {
          "internalType": "uint8",
          "name": "r",
          "type": "uint8"
        }
      ],
      "name": "ShipAlreadyAdded",
      "type": "error"
    },
    {
      "anonymous": false,
      "inputs": [
        {
          "indexed": false,
          "internalType": "uint8",
          "name": "gameId",
          "type": "uint8"
        },
        {
          "indexed": false,
          "internalType": "uint8",
          "name": "q",
          "type": "uint8"
        },
        {
          "indexed": false,
          "internalType": "uint8",
          "name": "r",
          "type": "uint8"
        },
        {
          "indexed": false,
          "internalType": "bool",
          "name": "island",
          "type": "bool"
        }
      ],
      "name": "Cell",
      "type": "event"
    },
    {
      "anonymous": false,
      "inputs": [
        {
          "indexed": false,
          "internalType": "uint8",
          "name": "gameId",
          "type": "uint8"
        }
      ],
      "name": "CommitPhaseStarted",
      "type": "event"
    },
    {
      "anonymous": false,
      "inputs": [
        {
          "indexed": false,
          "internalType": "uint8",
          "name": "gameId",
          "type": "uint8"
        }
      ],
      "name": "GameEnded",
      "type": "event"
    },
    {
      "anonymous": false,
      "inputs": [
        {
          "indexed": false,
          "internalType": "uint8",
          "name": "gameId",
          "type": "uint8"
        }
      ],
      "name": "GameStarted",
      "type": "event"
    },
    {
      "anonymous": false,
      "inputs": [
        {
          "indexed": true,
          "internalType": "bool",
          "name": "gameStatus",
          "type": "bool"
        },
        {
          "indexed": true,
          "internalType": "address",
          "name": "winnerAddress",
          "type": "address"
        },
        {
          "indexed": false,
          "internalType": "uint8",
          "name": "gameId",
          "type": "uint8"
        }
      ],
      "name": "GameUpdated",
      "type": "event"
    },
    {
      "anonymous": false,
      "inputs": [
        {
          "indexed": true,
          "internalType": "address",
          "name": "winner",
          "type": "address"
        },
        {
          "indexed": false,
          "internalType": "uint8",
          "name": "gameId",
          "type": "uint8"
        }
      ],
      "name": "GameWinner",
      "type": "event"
    },
    {
      "anonymous": false,
      "inputs": [
        {
          "indexed": false,
          "internalType": "uint8",
          "name": "radius",
          "type": "uint8"
        },
        {
          "indexed": false,
          "internalType": "uint8",
          "name": "gameId",
          "type": "uint8"
        }
      ],
      "name": "MapInitialized",
      "type": "event"
    },
    {
      "anonymous": false,
      "inputs": [
        {
          "indexed": false,
          "internalType": "uint8",
          "name": "gameId",
          "type": "uint8"
        }
      ],
      "name": "MapShrink",
      "type": "event"
    },
    {
      "anonymous": false,
      "inputs": [
        {
          "indexed": true,
          "internalType": "address",
          "name": "player",
          "type": "address"
        },
        {
          "indexed": false,
          "internalType": "uint8",
          "name": "gameId",
          "type": "uint8"
        }
      ],
      "name": "MoveCommitted",
      "type": "event"
    },
    {
      "anonymous": false,
      "inputs": [
        {
          "indexed": true,
          "internalType": "address",
          "name": "player",
          "type": "address"
        },
        {
          "indexed": false,
          "internalType": "uint8",
          "name": "gameId",
          "type": "uint8"
        },
        {
          "indexed": false,
          "internalType": "uint256",
          "name": "roundId",
          "type": "uint256"
        },
        {
          "indexed": false,
          "internalType": "uint8",
          "name": "destQ",
          "type": "uint8"
        },
        {
          "indexed": false,
          "internalType": "uint8",
          "name": "destR",
          "type": "uint8"
        },
        {
          "indexed": false,
          "internalType": "uint8",
          "name": "shotQ",
          "type": "uint8"
        },
        {
          "indexed": false,
          "internalType": "uint8",
          "name": "shotR",
          "type": "uint8"
        }
      ],
      "name": "MoveSubmitted",
      "type": "event"
    },
    {
      "anonymous": false,
      "inputs": [
        {
          "indexed": false,
          "internalType": "uint8",
          "name": "gameId",
          "type": "uint8"
        },
        {
          "indexed": false,
          "internalType": "uint256",
          "name": "roundId",
          "type": "uint256"
        },
        {
          "indexed": false,
          "internalType": "uint8",
          "name": "radius",
          "type": "uint8"
        }
      ],
      "name": "NewRound",
      "type": "event"
    },
    {
      "anonymous": false,
      "inputs": [
        {
          "indexed": true,
          "internalType": "address",
          "name": "previousOwner",
          "type": "address"
        },
        {
          "indexed": true,
          "internalType": "address",
          "name": "newOwner",
          "type": "address"
        }
      ],
      "name": "OwnershipTransferred",
      "type": "event"
    },
    {
      "anonymous": false,
      "inputs": [
        {
          "indexed": true,
          "internalType": "address",
          "name": "player",
          "type": "address"
        },
        {
          "indexed": false,
          "internalType": "uint8",
          "name": "gameId",
          "type": "uint8"
        },
        {
          "indexed": false,
          "internalType": "uint8",
          "name": "q",
          "type": "uint8"
        },
        {
          "indexed": false,
          "internalType": "uint8",
          "name": "r",
          "type": "uint8"
        },
        {
          "indexed": false,
          "internalType": "uint8",
          "name": "speed",
          "type": "uint8"
        },
        {
          "indexed": false,
          "internalType": "uint8",
          "name": "range",
          "type": "uint8"
        }
      ],
      "name": "PlayerAdded",
      "type": "event"
    },
    {
      "anonymous": false,
      "inputs": [
        {
          "indexed": true,
          "internalType": "address",
          "name": "player",
          "type": "address"
        },
        {
          "indexed": false,
          "internalType": "uint8",
          "name": "gameId",
          "type": "uint8"
        }
      ],
      "name": "PlayerDefeated",
      "type": "event"
    },
    {
      "anonymous": false,
      "inputs": [
        {
          "indexed": true,
          "internalType": "address",
          "name": "captain",
          "type": "address"
        },
        {
          "indexed": false,
          "internalType": "uint8",
          "name": "gameId",
          "type": "uint8"
        },
        {
          "indexed": false,
          "internalType": "uint8",
          "name": "q",
          "type": "uint8"
        },
        {
          "indexed": false,
          "internalType": "uint8",
          "name": "r",
          "type": "uint8"
        }
      ],
      "name": "ShipCollidedWithIsland",
      "type": "event"
    },
    {
      "anonymous": false,
      "inputs": [
        {
          "indexed": true,
          "internalType": "address",
          "name": "victim",
          "type": "address"
        },
        {
          "indexed": true,
          "internalType": "address",
          "name": "attacker",
          "type": "address"
        },
        {
          "indexed": false,
          "internalType": "uint8",
          "name": "gameId",
          "type": "uint8"
        }
      ],
      "name": "ShipHit",
      "type": "event"
    },
    {
      "anonymous": false,
      "inputs": [
        {
          "indexed": true,
          "internalType": "address",
          "name": "captain",
          "type": "address"
        },
        {
          "indexed": false,
          "internalType": "uint8",
          "name": "initialQ",
          "type": "uint8"
        },
        {
          "indexed": false,
          "internalType": "uint8",
          "name": "initialR",
          "type": "uint8"
        },
        {
          "indexed": false,
          "internalType": "uint8",
          "name": "q",
          "type": "uint8"
        },
        {
          "indexed": false,
          "internalType": "uint8",
          "name": "r",
          "type": "uint8"
        },
        {
          "indexed": false,
          "internalType": "uint8",
          "name": "gameId",
          "type": "uint8"
        }
      ],
      "name": "ShipMoved",
      "type": "event"
    },
    {
      "anonymous": false,
      "inputs": [
        {
          "indexed": true,
          "internalType": "address",
          "name": "captain",
          "type": "address"
        },
        {
          "indexed": false,
          "internalType": "uint8",
          "name": "gameId",
          "type": "uint8"
        }
      ],
      "name": "ShipMovedInGame",
      "type": "event"
    },
    {
      "anonymous": false,
      "inputs": [
        {
          "indexed": true,
          "internalType": "address",
          "name": "captain",
          "type": "address"
        },
        {
          "indexed": false,
          "internalType": "uint8",
          "name": "fromQ",
          "type": "uint8"
        },
        {
          "indexed": false,
          "internalType": "uint8",
          "name": "fromR",
          "type": "uint8"
        },
        {
          "indexed": false,
          "internalType": "uint8",
          "name": "shotQ",
          "type": "uint8"
        },
        {
          "indexed": false,
          "internalType": "uint8",
          "name": "shotR",
          "type": "uint8"
        },
        {
          "indexed": false,
          "internalType": "uint8",
          "name": "gameId",
          "type": "uint8"
        }
      ],
      "name": "ShipShot",
      "type": "event"
    },
    {
      "anonymous": false,
      "inputs": [
        {
          "indexed": true,
          "internalType": "address",
          "name": "captain",
          "type": "address"
        },
        {
          "indexed": false,
          "internalType": "uint8",
          "name": "gameId",
          "type": "uint8"
        }
      ],
      "name": "ShipSunk",
      "type": "event"
    },
    {
      "anonymous": false,
      "inputs": [
        {
          "indexed": true,
          "internalType": "address",
          "name": "captain",
          "type": "address"
        },
        {
          "indexed": false,
          "internalType": "uint8",
          "name": "gameId",
          "type": "uint8"
        }
      ],
      "name": "ShipSunkOutOfMap",
      "type": "event"
    },
    {
      "anonymous": false,
      "inputs": [
        {
          "indexed": false,
          "internalType": "uint8",
          "name": "gameId",
          "type": "uint8"
        },
        {
          "indexed": false,
          "internalType": "uint256",
          "name": "round",
          "type": "uint256"
        }
      ],
      "name": "SubmitPhaseStarted",
      "type": "event"
    },
    {
      "anonymous": false,
      "inputs": [
        {
          "indexed": false,
          "internalType": "uint8",
          "name": "gameId",
          "type": "uint8"
        }
      ],
      "name": "WorldUpdated",
      "type": "event"
    },
    {
      "inputs": [
        {
          "internalType": "address",
          "name": "playerAddress",
          "type": "address"
        },
        {
          "internalType": "uint8",
          "name": "gameId",
          "type": "uint8"
        },
        {
          "internalType": "uint8",
          "name": "_speed",
          "type": "uint8"
        },
        {
          "internalType": "uint8",
          "name": "_range",
          "type": "uint8"
        }
      ],
      "name": "addShip",
      "outputs": [],
      "stateMutability": "nonpayable",
      "type": "function"
    },
    {
      "inputs": [
        {
          "internalType": "bytes32",
          "name": "moveHash",
          "type": "bytes32"
        },
        {
          "internalType": "uint8",
          "name": "gameId",
          "type": "uint8"
        }
      ],
      "name": "commitMove",
      "outputs": [],
      "stateMutability": "nonpayable",
      "type": "function"
    },
    {
      "inputs": [
        {
          "internalType": "uint8",
          "name": "gameId",
          "type": "uint8"
        }
      ],
      "name": "endGame",
      "outputs": [],
      "stateMutability": "nonpayable",
      "type": "function"
    },
    {
      "inputs": [
        {
          "internalType": "uint256",
          "name": "",
          "type": "uint256"
        }
      ],
      "name": "games",
      "outputs": [
        {
          "internalType": "uint256",
          "name": "round",
          "type": "uint256"
        },
        {
          "internalType": "uint8",
          "name": "shrinkNo",
          "type": "uint8"
        },
        {
          "internalType": "bool",
          "name": "gameInProgress",
          "type": "bool"
        },
        {
          "internalType": "bool",
          "name": "stopAddingShips",
          "type": "bool"
        },
        {
          "internalType": "bool",
          "name": "letCommitMoves",
          "type": "bool"
        },
        {
          "internalType": "bool",
          "name": "letSubmitMoves",
          "type": "bool"
        }
      ],
      "stateMutability": "view",
      "type": "function"
    },
    {
      "inputs": [
        {
          "components": [
            {
              "internalType": "uint8",
              "name": "q",
              "type": "uint8"
            },
            {
              "internalType": "uint8",
              "name": "r",
              "type": "uint8"
            }
          ],
          "internalType": "struct SharedStructs.Coordinate",
          "name": "_coord",
          "type": "tuple"
        },
        {
          "internalType": "uint8",
          "name": "gameId",
          "type": "uint8"
        }
      ],
      "name": "getCell",
      "outputs": [
        {
          "components": [
            {
              "internalType": "uint8",
              "name": "q",
              "type": "uint8"
            },
            {
              "internalType": "uint8",
              "name": "r",
              "type": "uint8"
            },
            {
              "internalType": "bool",
              "name": "island",
              "type": "bool"
            },
            {
              "internalType": "bool",
              "name": "exists",
              "type": "bool"
            }
          ],
          "internalType": "struct SharedStructs.Cell",
          "name": "",
          "type": "tuple"
        }
      ],
      "stateMutability": "view",
      "type": "function"
    },
    {
      "inputs": [
        {
          "internalType": "uint8",
          "name": "gameId",
          "type": "uint8"
        }
      ],
      "name": "getCells",
      "outputs": [
        {
          "components": [
            {
              "internalType": "uint8",
              "name": "q",
              "type": "uint8"
            },
            {
              "internalType": "uint8",
              "name": "r",
              "type": "uint8"
            }
          ],
          "internalType": "struct SharedStructs.Coordinate[]",
          "name": "",
          "type": "tuple[]"
        }
      ],
      "stateMutability": "view",
      "type": "function"
    },
    {
      "inputs": [
        {
          "internalType": "uint8",
          "name": "gameId",
          "type": "uint8"
        }
      ],
      "name": "getRadius",
      "outputs": [
        {
          "internalType": "uint8",
          "name": "",
          "type": "uint8"
        }
      ],
      "stateMutability": "view",
      "type": "function"
    },
    {
      "inputs": [
        {
          "internalType": "uint8",
          "name": "gameId",
          "type": "uint8"
        }
      ],
      "name": "getShips",
      "outputs": [
        {
          "components": [
            {
              "components": [
                {
                  "internalType": "uint8",
                  "name": "q",
                  "type": "uint8"
                },
                {
                  "internalType": "uint8",
                  "name": "r",
                  "type": "uint8"
                }
              ],
              "internalType": "struct SharedStructs.Coordinate",
              "name": "coordinate",
              "type": "tuple"
            },
            {
              "internalType": "enum SharedStructs.Directions",
              "name": "travelDirection",
              "type": "uint8"
            },
            {
              "internalType": "uint8",
              "name": "travelDistance",
              "type": "uint8"
            },
            {
              "internalType": "enum SharedStructs.Directions",
              "name": "shotDirection",
              "type": "uint8"
            },
            {
              "internalType": "uint8",
              "name": "shotDistance",
              "type": "uint8"
            },
            {
              "internalType": "bool",
              "name": "publishedMove",
              "type": "bool"
            },
            {
              "internalType": "address",
              "name": "captain",
              "type": "address"
            },
            {
              "internalType": "uint8",
              "name": "yachtSpeed",
              "type": "uint8"
            },
            {
              "internalType": "uint8",
              "name": "yachtRange",
              "type": "uint8"
            },
            {
              "internalType": "uint8",
              "name": "gameId",
              "type": "uint8"
            }
          ],
          "internalType": "struct GamePunk.Ship[]",
          "name": "",
          "type": "tuple[]"
        }
      ],
      "stateMutability": "view",
      "type": "function"
    },
    {
      "inputs": [
        {
          "components": [
            {
              "internalType": "uint8",
              "name": "q",
              "type": "uint8"
            },
            {
              "internalType": "uint8",
              "name": "r",
              "type": "uint8"
            }
          ],
          "internalType": "struct SharedStructs.Coordinate",
          "name": "_start",
          "type": "tuple"
        },
        {
          "internalType": "enum SharedStructs.Directions",
          "name": "_dir",
          "type": "uint8"
        },
        {
          "internalType": "uint8",
          "name": "_distance",
          "type": "uint8"
        },
        {
          "internalType": "uint8",
          "name": "gameId",
          "type": "uint8"
        }
      ],
      "name": "move",
      "outputs": [
        {
          "components": [
            {
              "internalType": "uint8",
              "name": "q",
              "type": "uint8"
            },
            {
              "internalType": "uint8",
              "name": "r",
              "type": "uint8"
            }
          ],
          "internalType": "struct SharedStructs.Coordinate",
          "name": "",
          "type": "tuple"
        }
      ],
      "stateMutability": "view",
      "type": "function"
    },
    {
      "inputs": [],
      "name": "owner",
      "outputs": [
        {
          "internalType": "address",
          "name": "",
          "type": "address"
        }
      ],
      "stateMutability": "view",
      "type": "function"
    },
    {
      "inputs": [],
      "name": "registrationContract",
      "outputs": [
        {
          "internalType": "address",
          "name": "",
          "type": "address"
        }
      ],
      "stateMutability": "view",
      "type": "function"
    },
    {
      "inputs": [],
      "name": "renounceOwnership",
      "outputs": [],
      "stateMutability": "nonpayable",
      "type": "function"
    },
    {
      "inputs": [
        {
          "internalType": "address",
          "name": "_registrationContract",
          "type": "address"
        }
      ],
      "name": "setRegistrationContract",
      "outputs": [],
      "stateMutability": "nonpayable",
      "type": "function"
    },
    {
      "inputs": [
        {
          "internalType": "uint8",
          "name": "gameId",
          "type": "uint8"
        },
        {
          "internalType": "uint8",
          "name": "_radius",
          "type": "uint8"
        }
      ],
      "name": "startNewGame",
      "outputs": [],
      "stateMutability": "nonpayable",
      "type": "function"
    },
    {
      "inputs": [
        {
          "internalType": "enum SharedStructs.Directions[]",
          "name": "_travelDirections",
          "type": "uint8[]"
        },
        {
          "internalType": "uint8[]",
          "name": "_travelDistances",
          "type": "uint8[]"
        },
        {
          "internalType": "enum SharedStructs.Directions[]",
          "name": "_shotDirections",
          "type": "uint8[]"
        },
        {
          "internalType": "uint8[]",
          "name": "_shotDistances",
          "type": "uint8[]"
        },
        {
          "internalType": "uint8[]",
          "name": "_secrets",
          "type": "uint8[]"
        },
        {
          "internalType": "address[]",
          "name": "_playerAddresses",
          "type": "address[]"
        },
        {
          "internalType": "uint8",
          "name": "gameId",
          "type": "uint8"
        }
      ],
      "name": "submitMove",
      "outputs": [],
      "stateMutability": "nonpayable",
      "type": "function"
    },
    {
      "inputs": [
        {
          "internalType": "address",
          "name": "newOwner",
          "type": "address"
        }
      ],
      "name": "transferOwnership",
      "outputs": [],
      "stateMutability": "nonpayable",
      "type": "function"
    },
    {
      "inputs": [
        {
          "components": [
            {
              "internalType": "uint8",
              "name": "q",
              "type": "uint8"
            },
            {
              "internalType": "uint8",
              "name": "r",
              "type": "uint8"
            }
          ],
          "internalType": "struct SharedStructs.Coordinate",
          "name": "_startCell",
          "type": "tuple"
        },
        {
          "internalType": "enum SharedStructs.Directions",
          "name": "_direction",
          "type": "uint8"
        },
        {
          "internalType": "uint8",
          "name": "_distance",
          "type": "uint8"
        },
        {
          "internalType": "uint8",
          "name": "gameId",
          "type": "uint8"
        }
      ],
      "name": "travel",
      "outputs": [],
      "stateMutability": "nonpayable",
      "type": "function"
    },
    {
      "inputs": [
        {
          "internalType": "uint8",
          "name": "gameId",
          "type": "uint8"
        }
      ],
      "name": "updateWorld",
      "outputs": [],
      "stateMutability": "nonpayable",
      "type": "function"
    }
  ],
  "bytecode": "0x60a0346200012357601f62003f6738819003918201601f19168301916001600160401b0383118484101762000128578084926020946040528339810103126200012357516001600160a01b039081811690819003620001235733156200010a576000543360018060a01b0319821617600055604051923391167f8be0079c531659141344cd1fd0a4f28419497f9722a3daafe3b4186f6b6457e0600080a3608052613e2890816200013f823960805181818161055c01528181610d4e015281816110a901528181611403015281816118bf0152818161229a015281816128fb0152818161297401528181612d0e01528181612e0f01528181613188015281816132c60152613c680152f35b604051631e4fbdf760e01b815260006004820152602490fd5b600080fd5b634e487b7160e01b600052604160045260246000fdfe608080604052600436101561001357600080fd5b600090813560e01c908163117a5b9014613419575080631cf8a3211461323a5780631e522c3e14613211578063343612081461312e5780634aac9b8b14612db85780634d02388614612c55578063715018a614612bfb578063863375ac14612b755780638da5cb5b14612b4e57806391189a6c1461258c578063978ac3561461114a578063d085a86f1461103c578063d1153bc314610c65578063d3db03cc14610c20578063e7c435a714610b47578063f10a39271461046f578063f2fde38b146103df5763fd870446146100e757600080fd5b346103dc57602090816003193601126103dc579060ff80610106613513565b1692838152600191828452610127838260046040862001541615151461374d565b84825282845260038060408420015495610140876135a5565b9661014e60405198896134f1565b80885261015d601f19916135a5565b01845b8181106103665750508484905b610256575b505050604051938085019181865286518093528160408701970193905b83821061019c5786880387f35b90919293948361016082998489516101c483825160ff60208092828151168552015116910152565b6101d58582015160408501906136a2565b8180604083015116606090818601528201516101f6608091828701906136a2565b8201511660a09081850152810151151560c0908185015260018060a01b03908201511660e0840152818060e0830151166101009081860152820151169061012091828501520151166101408201520196019201909694969392919361018f565b908597959291818698959652838552604088209083820191825482101561035757600261028683610349956139ba565b929060018060a01b039384915490891b1c166000520187528760406000209187604051936102b3856134d4565b6102bc81613906565b85520154906102cf8383168b8601613a43565b828260081c1660408501526102ec838360101c1660608601613a43565b828260181c16608085015282828b1c16151560a08501528160281c1660c0840152818160c81c1660e0840152818160d01c1661010084015260d81c16610120820152610338828a61389c565b52610343818961389c565b50613854565b90919295979694939661016d565b50505096949695939295610172565b968094959760409997995161037a816134d4565b60405161038681613486565b60008152600084820152815289838201528960408201528960608201528960808201528960a08201528960c08201528960e0820152896101008201528961012082015282828a0101520197959796949396610160565b80fd5b50346103dc5760203660031901126103dc576103f961368c565b6104016136c5565b6001600160a01b0390811690811561045657600054826bffffffffffffffffffffffff60a01b821617600055167f8be0079c531659141344cd1fd0a4f28419497f9722a3daafe3b4186f6b6457e0600080a380f35b604051631e4fbdf760e01b815260048101849052602490fd5b50346103dc5760803660031901126103dc5761048961368c565b610491613533565b9061049a613523565b60ff6064351660643503610b42576104bd60018060a01b036002541633146136f1565b60ff8316845260016020526104e0600160ff60046040882001541615151461374d565b60ff8316845260016020526002604085200160018060a01b03831660005260205260ff60406000205416151580610b0d575b610a9e5760405161052281613486565b600081526000602082015290849160015b15610815575b50604080516342c39d9160e01b815260ff861660048201529386929185602481867f00000000000000000000000000000000000000000000000000000000000000006001600160a01b03165af194851561080a5787956107c6575b5084926000806105ff61061860ff8a511660ff60208c01511690604051916105bb83613486565b60138352724e657720726e6420706169722025732c20257360681b602084015260405194859363ca47c4eb60e01b6020860152606060248601526084850190613db2565b916044840152606483015203601f1981018352826134f1565b6020815191016a636f6e736f6c652e6c6f675afa50875b60ff881689526001602052600360408a2001805460ff831610156107b857600061065a8382936139ba565b90546040519160031b1c6001600160a01b031661067682613486565b601782527f696e206c6f6f702025732c20616464726573733a20257300000000000000000060208301526106e860405180926106cb602083019563038fd88960e31b8752606060248501526084840190613db2565b9060ff89166044840152606483015203601f1981018352826134f1565b51906a636f6e736f6c652e6c6f675afa5060ff881689526001602052600260408a2061071783600383016139ba565b60018060a01b0391549060031b1c166000520160205260ff6040600020541660ff8851161480610769575b6107545761074f90613a32565b61062f565b509193509193506001905b9390929193610533565b5060ff881689526001602052600260408a2061078883600383016139ba565b60018060a01b0391549060031b1c166000520160205260ff60406000205460081c1660ff60208901511614610742565b50509092945092909261075f565b9094506040903d604011610802575b6107df82826134f1565b60408183810103126107fe576107f791810190613936565b9338610594565b8780fd5b3d91506107d5565b6040513d89823e3d90fd5b82610539578591848660405161082a816134d4565b8481528560208201528560408201528560608201528560808201528560a082015260018060a01b03831660c082015260ff841660e082015260ff6064351661010082015260ff821661012082015260ff8216865260016020526002604087200160018060a01b038416600052602052600160406000206108cf60ff60208551828151168319865416178555015116829061ff0082549160081b169061ff001916179055565b019060208101516007811015610a8a576108e990836138cd565b6040810151825461ff00191660089190911b61ff001617825560608101516007811015610a8a5761091a90836138e5565b6080810151825463ff000000191660189190911b63ff0000001617825560a0810151151590825465010000000000600160c81b0360c083015160281b1660ff60c81b60e084015160c81b169164ff0000000060ff60d01b61010086015160d01b169461012060ff60d81b91015160d81b169560201b169063ffffffff8060e01b01161717171717905560ff8116855260016020526003604086200180549068010000000000000000821015610a765791610a2384610a04847f5e5c5018f010da587f4ea3677380307dc0fb74d57d455db252799686dbfbd0599897966001610a70970181556139ba565b90919082549060031b9160018060a01b03809116831b921b1916179055565b85516020968701516040805160ff948516815292841698830198909852821696810196909652928316606086015260643590921660808501526001600160a01b03169290819060a0820190565b0390a280f35b634e487b7160e01b87526041600452602487fd5b634e487b7160e01b88526021600452602488fd5b5060ff9182168084526001602081815260408087206001600160a01b03909516600081815260029687018452828120549589529383529681902087845290940190528290205491516308538db760e41b815260048101949094528216602484015260081c166044820152606490fd5b5060ff8316845260016020526002604085200160018060a01b03831660005260205260ff60406000205460081c161515610512565b600080fd5b50346103dc5760403660031901126103dc5760ff610b63613533565b168082526001602052600160ff600460408520015460101c16151503610bd157808252600160205260056040832001336000526020526004356040600020556040519081527f38b5330dac100f70d75e8ee186192e45592ca13e2ea5e536677df27911c0489760203392a280f35b60405162461bcd60e51b815260206004820152602160248201527f436f6d6d6974206d6f76657320686173206e6f742073746172746564207965746044820152602160f81b6064820152608490fd5b50346103dc5760203660031901126103dc57610c3a61368c565b610c426136c5565b60018060a01b03166bffffffffffffffffffffffff60a01b600254161760025580f35b50346103dc5760403660031901126103dc57610c7f613513565b90610c88613533565b9160018060a01b03600291610ca18284541633146136f1565b60ff8082169281841015610ff75783865260019160209583875281600460408a20015416610fa45785885283875260408820600401805460ff191685179055839088825b610f4d575b5050508487528286528684600360408320019384549483815585610f23575b50610d4a9450610d1882613c41565b50604051631a405d8760e31b815260ff808d166004830152909216602483015290938491908290849082906044820190565b03927f0000000000000000000000000000000000000000000000000000000000000000165af191821561080a578792610e80575b5086835b610dfa575b50506040805160ff9889168152978416602089015295967f13cb55fc1bec4b9f4cd4c22f154240b469cb108a23a35aa599df0c3da46f2d1496610df09493507fd76a0a97b7d547fef69b0cd90fb02087b761703ae2b5e4e91a99e8fd17e308ad925090a1613799565b604051908152a180f35b8251811015610e7b57807fa0c5e7441ab424c9fb8f47238c88c2c172bf9be1898748ea348b2a8bb92d6dbb608084610e35610e75958861389c565b515116858b610e44868a61389c565b510151166040610e54868a61389c565b510151151590604051928c84528d84015260408301526060820152a1613854565b83610d82565b610d87565b9091503d8088833e610e9281836134f1565b81019086818303126107fe5780519067ffffffffffffffff8211610f1f570181601f820112156107fe578051610ec7816135a5565b92610ed560405194856134f1565b818452888085019260071b84010192818411610f1b578901915b89848410610f035750505050509038610d7e565b608091610f1084866139df565b815201920191610eef565b8a80fd5b8880fd5b83528883209485015b86818710610f3a5750610d09565b9386559490920193899287925090610f2c565b878a5282895260408a209060039182810190878254841015610f9b57610f9594610f788588956139ba565b9054911b1c16600052018a52600084604082208281550155613854565b82610ce5565b50505050610cea565b60405162461bcd60e51b815260048101889052602560248201527f47616d652077697468207468697320494420616c726561647920696e2070726f604482015264677265737360d81b6064820152608490fd5b60405162461bcd60e51b815260206004820152601f60248201527f4d6178696d756d206e756d626572206f662067616d65732072656163686564006044820152606490fd5b50346103dc5760ff604061104f36613543565b60006020869793979594955161106481613486565b82815201521685526001602052611088600160ff600486892001541615151461374d565b6110a583519485938493630d42527560e11b85526004850161396c565b03817f00000000000000000000000000000000000000000000000000000000000000006001600160a01b03165afa90811561113f578291611101575b6040826110ff8251809260ff60208092828151168552015116910152565bf35b905060403d604011611138575b61111881836134f1565b8101916040828403126103dc575060409161113291613936565b386110e1565b503d61110e565b6040513d84823e3d90fd5b50346103dc5760203660031901126103dc57611164613513565b61116c6136c5565b60ff81168252600160205261118f600160ff60046040862001541615151461374d565b60ff8116825260016020526040822060038154061561228b575b5060ff8116825260016020526111c56003604084200154613aa7565b9060ff8116835260016020526003604084200154926111e3846135a5565b936111f160405195866134f1565b808552611200601f19916135a5565b01366020860137805b60ff831682526001602052600360408320015460ff8216908110156112435790600161123861123e938861389c565b52613a32565b611209565b505092835b60ff8316855260016020526040852060038101805460ff841610156117765790611274836002936139ba565b60018060a01b0391549060031b1c166000520160205260018060a01b0360016040600020015460281c16156112eb5760ff8316855260016020526002604086206112c183600383016139ba565b60018060a01b0391549060031b1c166000520160205260ff60016040600020015460201c166112f9575b6112f490613a32565b611248565b60ff83168552600160205260026040862061131783600383016139ba565b60018060a01b0391549060031b1c166000520160205260406000209060ff84168652600160205260026040872061135183600383016139ba565b60018060a01b0391549060031b1c166000520160205260ff80600160406000200154168186168852600160205260026040892061139185600383016139ba565b60018060a01b0391549060031b1c16600052016020526113e8600160406000200154916113de60405196631cf8a32160e01b8852600488019060ff60209154818116845260081c16910152565b60448601906136a2565b60081c16606483015260ff841660848301528560608360a4817f00000000000000000000000000000000000000000000000000000000000000006001600160a01b03165afa80156117695782826112f4958894908294611735575b5061161b57505060ff6115bd92168852600160205260ff61146a84600360408c20016139ba565b60018060a01b0391549060031b1c168188168a526001602052600260408b2061149687600383016139ba565b60018060a01b0391549060031b1c16600052016020528160406000205416908289168b526001602052600260408c206114d288600383016139ba565b60018060a01b0391549060031b1c16600052016020527ff1e9c1d54f160cab3c8602dcfbf5fbe3e012ed037d80057eca695f74d26077a08360406000205460081c16848651169361155f8c60208901968888511690604051958695869360ff9290836080958180949a99959a8160a08b019c168a5216602089015216604087015216606085015216910152565b0390a28188168a526001602052600260408b2061157f87600383016139ba565b60018060a01b0391549060031b1c16600052016020528160406000209351168219845416178355511661ff0082549160081b169061ff001916179055565b60ff8416865260016020526115d881600360408920016139ba565b60018060a01b0391549060031b1c167f51f35fa2867d710ef60e6209b0ca28b42abd534ed14e1f8394e793f42253c9f6602060405160ff88168152a290506112eb565b92816116a86116bf93600360406117309860ff8716815260016020526116458484848420016139ba565b60018060a01b03915490851b1c167fd44ddf7f8e572e76d7ed6bf350d88367a33cf9a7d19d5069c392802305d51f6c60608b60ff6020818351169201511686519160ff8d168352602083015286820152a260ff87168152600160205220016139ba565b905460039190911b1c6001600160a01b0316613b2d565b876116cd60ff85168761389c565b5260ff8616885260016020526002604089206116ec85600383016139ba565b60018060a01b0391549060031b1c166000520160205260ff602060406000209282815116831985541617845501511661ff0082549160081b169061ff001916179055565b613a32565b905061175a91935060603d606011611762575b61175281836134f1565b810190613b08565b929038611443565b503d611748565b50604051903d90823e3d90fd5b50505091835b60ff831685526001602052600360408620015460ff82161015611a72576117a660ff82168561389c565b516117ba575b6117b590613a32565b61177c565b60ff8316855260016020526002604086206117d883600383016139ba565b60018060a01b0391549060031b1c166000520160205260406000209060ff84168652600160205260026040872061181283600383016139ba565b60018060a01b0391549060031b1c166000520160205260ff60016040600020015460101c1660ff85168752600160205260026040882061185584600383016139ba565b60018060a01b0391549060031b1c16600052016020526118b260ff60016040600020015460181c16916118a86040519563d6192ad360e01b8752600487019060ff60209154818116845260081c16910152565b60448501906136a2565b60648301526040826084817f00000000000000000000000000000000000000000000000000000000000000006001600160a01b03165afa8015611a67578690611a25575b6117b592508061190960ff84168661389c565b5261191760ff83168561389c565b5060ff8516875260016020527f78546d5ff977d70d771d8edba5bdd99150ec97e7837d6e2af4384b1605a4372d61195483600360408b20016139ba565b60018060a01b0391549060031b1c169160ff871689526001602052600260408a2061198286600383016139ba565b60018060a01b0391549060031b1c166000520160205260ff6040600020541660ff88168a526001602052600260408b206119bf87600383016139ba565b90546001600160a01b0360039290921b1c1660009081529101602090815260409182902054845194820151835160ff958616815260089290921c85169282019290925293831691840191909152811660608301528716608082015260a090a290506117ac565b5060403d604011611a60575b611a3b81846134f1565b6040838281010312611a5c5782611a57916117b5940190613936565b6118f6565b8680fd5b503d611a31565b6040513d88823e3d90fd5b50919290815b60ff821683526001602052600360408420015460ff82161015611e9057825b60ff831684526001602052600360408520015460ff82161015611e81578060ff611aca921660ff841603611acf57613a32565b611a97565b611adc60ff84168861389c565b51151580611e6b575b80611deb575b80611d64575b611c78575b611b0360ff84168861389c565b51151580611c23575b80611bc8575b15613a325760ff841685526001602052611730848487611b3882600360408420016139ba565b905460ff85168352600160205260409092206001600160a01b0392600392831b1c8316918391611b6a918991016139ba565b90549060031b1c16907fb2ee3834f34c038f7f34d57f8ce213e4ee56fecd33556013e0f66b1e32ee14bc602060405160ff88168152a360ff831689526001602052611bbb82600360408c20016139ba565b90549060031b1c16613b2d565b5060ff6020611bd98284168961389c565b5101511660ff851686526001602052600260408720611bfb86600383016139ba565b60018060a01b0391549060031b1c166000520160205260ff60406000205460081c1614611b12565b5060ff611c328183168861389c565b51511660ff851686526001602052600260408720611c5386600383016139ba565b60018060a01b0391549060031b1c166000520160205260ff6040600020541614611b0c565b84611c8660ff85168961389c565b5284611c9560ff83168961389c565b5260ff841685526001602052611d5f84826040611d4483888b611bbb826003611cc282828a8720016139ba565b989094602060018060a01b03809b81985490861b1c16835160ff8b1681527f783de3ac95b82563b70ac74b3a843e5f9f71a653b9518e6e1762b39151c0f710928391a260ff89168252600160205286611d1f8d86868620016139ba565b905490861b1c16906020845160ff8c168152a260ff88168152600160205220016139ba565b60ff831689526001602052611bbb82600360408c20016139ba565b611af6565b5060ff84168552600160205260408520611d8182600383016139ba565b919060018060a01b03928391549060031b1c1660005260028091016020526040600020549160ff8716885260016020526040882090611dc387600384016139ba565b90549060031b1c166000520160205260ff6040600020549181600893841c16921c1614611af1565b5060ff84168552600160205260408520611e0882600383016139ba565b919060018060a01b03928391549060031b1c16600052600280910160205260ff604060002054169160ff8716885260016020526040882090611e4d87600384016139ba565b90549060031b1c166000520160205260ff6040600020541614611aeb565b50611e7960ff82168861389c565b511515611ae5565b50611e8b90613a32565b611a78565b50815b60ff8216835260016020526003604084200180549060ff831691821015611f845782611ebe916139ba565b90546001600160a01b039160031b1c811615611ee5575b5050611ee090613a32565b611e93565b60ff841685526001602052604085206003018054600019810191908211611f705791611f19611f3c92611ee09695946139ba565b90549060031b1c1660ff861687526001602052610a0484600360408a20016139ba565b60ff841685526001602052611f5660036040872001613a4f565b611f62575b9084611ed5565b611f6b90613a97565b611f5b565b634e487b7160e01b87526011600452602487fd5b50505060ff8116825260016020526040822060030180548061201f57505060207fd44344392ee117b90bc172ab74cce9c43a862f0d5e11a336b3885fde466c244e91837f8403b4a1c998f6768b577f2c265d744e2f4d05982059b4d82b34eb822bdc17d18360405160ff85168152a260ff811684526001825260408420600401805461ff0019166101001790555b60ff60405191168152a180f35b6001036120c2575060208160ff7fd44344392ee117b90bc172ab74cce9c43a862f0d5e11a336b3885fde466c244e9316845260018252612064600360408620016139a5565b60018060a01b0391549060031b1c167f8403b4a1c998f6768b577f2c265d744e2f4d05982059b4d82b34eb822bdc17d18360405160ff85168152a260ff811684526001825260408420600401805461ff001916610100179055612012565b6120cb906139a5565b919060018060a01b03928391549060031b1c16837f2cee3725d64bc62c413fa35348815210ff376bf4f13627d82b6ac0d0efc6e8cd602060405160ff86168152a3825b60ff8216845260016020526040842060038101805460ff8416101561222e57908461213d8461222995946139ba565b90549060031b1c1660005260028091016020526001604060002001600660ff1982541617905560ff84168652600160205280604087208661218185600384016139ba565b90549060031b1c1660005201602052600160406000200161ff0019815416905560ff8416865260016020528060408720866121bf85600384016139ba565b90549060031b1c166000520160205260016040600020016206000062ff00001982541617905560ff841686526001602052604086208561220284600384016139ba565b90549060031b1c1660005201602052600160406000200163ff000000198154169055613a32565b61210e565b5050507fd44344392ee117b90bc172ab74cce9c43a862f0d5e11a336b3885fde466c244e915060209060ff81168452600182526004604085200163ff00000019815416905561227c81613c41565b5061228681613799565b612012565b600101546001600160a01b03917f000000000000000000000000000000000000000000000000000000000000000083169160ff1684833b156103dc57604051634affc34f60e01b815260ff84811660048301529290921660248301528160448183875af1801561258157612551575b5060ff81168452600160205260016040852001805460ff61231c818316613a32565b169060ff19161790557fab00852360aeece33bb03176d4e62fbb27adf3fd1a81b9d543c1ae388003b0ac602060405160ff84168152a1835b60ff828116865260016020526040862060038101805492841692831015612544579086612383856002946139ba565b90549060031b1c1660005201602052826123a06040600020613906565b604051906326811c4360e11b825281806123c1608095869460048401613c1c565b0381895afa908115612539578891612500575b50606091500151156123f0575b506123eb90613a32565b612354565b60ff831686526001602052612411838387611bbb82600360408d20016139ba565b60ff8316865260016020528461242d83600360408a20016139ba565b90549060031b1c167f7098e36d986448e47b2ec53e41ddd178ac0774637ee2227e84baba39b0c1c7b1602060405160ff87168152a260ff8316865260016020526040862060030180546000198101919082116124ec57866124966123eb9594936124b9936139ba565b90549060031b1c1660ff861689526001602052610a0484600360408c20016139ba565b60ff8416875260016020526124d360036040892001613a4f565b6124de575b906123e1565b6124e790613a97565b6124d8565b634e487b7160e01b88526011600452602488fd5b9050813d8311612532575b61251581836134f1565b810191818303126107fe5760609161252c916139df565b386123d4565b503d61250b565b6040513d8a823e3d90fd5b50505050915050386111a9565b67ffffffffffffffff819592951161256d5760405292386122fa565b634e487b7160e01b82526041600452602482fd5b6040513d87823e3d90fd5b50346103dc5760e03660031901126103dc5767ffffffffffffffff600435818111612aa1576125bf9036906004016135bd565b602435828111612b4a576125d7903690600401613624565b90604435838111612b46576125f09036906004016135bd565b90606435848111612b4257612609903690600401613624565b93608435818111611a5c57612622903690600401613624565b9460a435918211611a5c5736602383011215611a5c578160040135612646816135a5565b9261265460405194856134f1565b8184526024602085019260051b82010190368211612b3e57602401915b818310612b1e5750505060c4359460ff861686036107fe5760ff8616885260016020526126ac600160ff600460408c2001541615151461374d565b6126b98351855114613809565b6126c68451825114613809565b6126d38551835114613809565b6126e08751845114613809565b875b8351811015612b1a576126fd6126f8828761389c565b6138b0565b8861276561270b848661389c565b516127196126f8868c61389c565b9061272f86612728818b61389c565b519561389c565b5191604051946127436020870180986138bd565b6001600160f81b031960f893841b8116602188015294859260228801906138bd565b821b1660238501521b1660248201526005815261278181613486565b51902060ff88168a52600160205260408a206005016001600160a01b036127a8848861389c565b51168b5260205260408a2054146127c8575b6127c390613854565b6126e2565b60ff871689526001602052604089206002016001600160a01b036127ec838761389c565b51168a526020526128b960408a206128076126f8848961389c565b6128156001830191826138cd565b60ff612821858761389c565b51825460c81c60ff169116811015612b035761284e905b825461ff00191660089190911b61ff0016178255565b61286461285e6126f8868c61389c565b826138e5565b60ff612870858861389c565b51825460d01c60ff169116811015612aec576128a1905b825463ff000000191660189190911b63ff00000016178255565b805464ff000000001916640100000000179055613906565b908960406128ca6126f8848a61389c565b60ff6128d6858861389c565b518351630d42527560e11b815296879384936128f79316916004850161396c565b03817f00000000000000000000000000000000000000000000000000000000000000006001600160a01b03165afa8015611769578190612aac575b612970935060406129466126f8858c61389c565b60ff612952868a61389c565b51169082519687928392630d42527560e11b8452866004850161396c565b03817f00000000000000000000000000000000000000000000000000000000000000006001600160a01b03165afa801561113f578a948391612a40575b506127c3947faff0b78027ac9f4904ee624bc84e3126d0e7d96ce215c5db5158441acb0b38cf9260c09260406001600160a01b036129eb898e61389c565b51169660ff85168152600160205220549160ff602081835116920151169060ff602081855116940151169360ff60405196168652602086015260408501526060840152608083015260a0820152a290506127ba565b94505060403d604011612aa5575b612a5881866134f1565b840193604081860312612aa1578a7faff0b78027ac9f4904ee624bc84e3126d0e7d96ce215c5db5158441acb0b38cf92612a976127c39760c094613936565b92509250946129ad565b8280fd5b503d612a4e565b5060403d604011612ae5575b612ac281856134f1565b830192604081850312612ae15761297093612adc91613936565b612932565b5080fd5b503d612ab8565b506128a160ff612afc868961389c565b5116612887565b5061284e60ff612b13868861389c565b5116612838565b8880f35b82356001600160a01b0381168103610f1b57815260209283019201612671565b8980fd5b8580fd5b8480fd5b8380fd5b50346103dc57806003193601126103dc57546040516001600160a01b039091168152602090f35b50346103dc5760203660031901126103dc577f4df34531b3f238bc8f90ad83236d8c752e7444e434bb5fc99f888f0a6345c0e7602060ff612bb4613513565b612bbc6136c5565b1680845260018252612bdc600160ff60046040882001541615151461374d565b808452600182526040808520600401805460ff1916905551908152a180f35b50346103dc57806003193601126103dc57612c146136c5565b80546001600160a01b03198116825581906001600160a01b03167f8be0079c531659141344cd1fd0a4f28419497f9722a3daafe3b4186f6b6457e08280a380f35b50346103dc57366003190160608112612ae1576040136103dc57604051612c7b81613486565b60ff906004358281168103612b4a5781526024358281168103612b4a57816080916020612d0a96940152612cad613523565b90836060604051612cbd816134b8565b828152826020820152826040820152015284821684526001602052612cef60018660046040882001541615151461374d565b6040516326811c4360e11b8152958692839260048401613c1c565b03817f00000000000000000000000000000000000000000000000000000000000000006001600160a01b03165afa928315611769578193612d78575b608083606086604051928082511684526020820151166020840152604081015115156040840152015115156060820152f35b90925060803d8111612db1575b612d8f81836134f1565b8101926080828503126103dc5750612dab6080936060926139df565b92612d46565b503d612d85565b50346103dc57602080600319360112612ae15760ff9182612dd7613513565b1690818152600193848452612df8858260046040862001541615151461374d565b60405163436fadf360e11b815260048101939093527f00000000000000000000000000000000000000000000000000000000000000006001600160a01b031690602485858281865afa9485156131235784956130ec575b5081612e5a86613d76565b951694878601908382116130d957612e81612e7c612e879386939b999b613d8a565b613da1565b16613aa7565b96604051612e9481613486565b8181528188820152612ea589613879565b52612eaf88613879565b5085805b612f13575b50505050506040519280840190808552855180925280604086019601925b828110612ee35785870386f35b9091929382604088612f06849a895160ff60208092828151168552015116910152565b0197950193929101612ed6565b8381999799168281116130d057600019018481116130bd57612f41612e7c83612f3c8894613d76565b613d8a565b16612f6c8783612f508b613879565b516040516301cf2e2560e51b8152938492839260048401613c1c565b03818a5afa908115612539578891613020575b508a95949392919088875b612fa6575b505050612f9b90613a32565b909192939698612eb3565b908092939495969750518c888316918210156130155750612fc7818461389c565b51908401908185116130025791612fef828f94612fe88f95612ff59661389c565b528d61389c565b50613a32565b8197969594939291612f8a565b634e487b7160e01b8b526011600452878bfd5b979695949350612f8f565b90503d8089833e61303181836134f1565b8101908a81830312610f1f5780519067ffffffffffffffff8211612b3e570181601f82011215610f1f578051613066816135a5565b9261307460405194856134f1565b8184528c8085019260061b840101928184116130b9578d01915b8d8484106130a157505050505038612f7f565b6040916130ae8486613936565b81520192019161308e565b8b80fd5b634e487b7160e01b875260116004528387fd5b50979597612eb8565b634e487b7160e01b865260116004528286fd5b9094508581813d831161311c575b61310481836134f1565b81010312612b4a5761311590613928565b9338612e4f565b503d6130fa565b6040513d86823e3d90fd5b50346103dc57602090816003193601126103dc5760ff61314c613513565b168082526001835261316c600160ff60046040862001541615151461374d565b60405163436fadf360e11b8152600481019190915282816024817f00000000000000000000000000000000000000000000000000000000000000006001600160a01b03165afa9182156132055780926131cd575b505060ff60405191168152f35b9091508282813d83116131fe575b6131e581836134f1565b810103126103dc57506131f790613928565b38806131c0565b503d6131db565b604051903d90823e3d90fd5b50346103dc57806003193601126103dc576002546040516001600160a01b039091168152602090f35b50346103dc5761324936613543565b919260ff8581808616948583526132a86001986132778a8560046040602099848b522001541615151461374d565b604051631cf8a32160e01b8152875160ff9081166004830152602090980151909716602488015260448701906136a2565b166064840152608483018490526001600160a01b039260608160a4817f000000000000000000000000000000000000000000000000000000000000000088165afa90811561253957889089926133f8575b501561339c575083875285815261331c8683600460408b2001541615151461374d565b869384875b613339575b5050505050613336925033613b2d565b80f35b81895287835260038060408b2001805486841610156133955761335d8388926139ba565b929092339354911b1c16146133805790613378889392613a32565b909192613321565b94505050505061333692503880808080613326565b5050613326565b8194955061333696935082815116868952848352600260408a2001338a528352604089209060ff198254161790550151169285528152600260408520019033855252604083209061ff0082549160081b169061ff001916179055565b9050613412915060603d81116117625761175281836134f1565b90386132f9565b905034612ae1576020366003190112612ae15760ff604060c0936004358152600160205220805490600483600183015416910154918452602084015281811615156040840152818160081c1615156060840152818160101c161515608084015260181c16151560a0820152f35b6040810190811067ffffffffffffffff8211176134a257604052565b634e487b7160e01b600052604160045260246000fd5b6080810190811067ffffffffffffffff8211176134a257604052565b610140810190811067ffffffffffffffff8211176134a257604052565b90601f8019910116810190811067ffffffffffffffff8211176134a257604052565b6004359060ff82168203610b4257565b6044359060ff82168203610b4257565b6024359060ff82168203610b4257565b6003190160a08112610b4257604013610b425760405161356281613486565b61356a613513565b8152613574613533565b6020820152906044356007811015610b42579060643560ff81168103610b42579060843560ff81168103610b425790565b67ffffffffffffffff81116134a25760051b60200190565b81601f82011215610b42578035916135d4836135a5565b926135e260405194856134f1565b808452602092838086019260051b820101928311610b42578301905b82821061360c575050505090565b81356007811015610b425781529083019083016135fe565b81601f82011215610b425780359161363b836135a5565b9261364960405194856134f1565b808452602092838086019260051b820101928311610b42578301905b828210613673575050505090565b813560ff81168103610b42578152908301908301613665565b600435906001600160a01b0382168203610b4257565b9060078210156136af5752565b634e487b7160e01b600052602160045260246000fd5b6000546001600160a01b031633036136d957565b60405163118cdaa760e01b8152336004820152602490fd5b156136f857565b60405162461bcd60e51b815260206004820152602760248201527f43616c6c6572206973206e6f742074686520726567697374726174696f6e20636044820152661bdb9d1c9858dd60ca1b6064820152608490fd5b1561375457565b60405162461bcd60e51b815260206004820152601960248201527f47616d6520686173206e6f7420737461727465642079657421000000000000006044820152606490fd5b602060ff7f1b6143a1b1d77ae88590d660e0164f9edf35dd3d002f5de8a6ecf46a3c3ba0e3921680600052600182526137e1600160ff6004604060002001541615151461374d565b806000526001825260046040600020016201000062ff000019825416179055604051908152a1565b1561381057565b606460405162461bcd60e51b815260206004820152602060248201527f417272617973206d7573742068617665207468652073616d65206c656e6774686044820152fd5b60001981146138635760010190565b634e487b7160e01b600052601160045260246000fd5b8051156138865760200190565b634e487b7160e01b600052603260045260246000fd5b80518210156138865760209160051b010190565b5160078110156136af5790565b60078110156136af5760f81b9052565b9060078110156136af5760ff80198354169116179055565b9060078110156136af5762ff000082549160101b169062ff00001916179055565b9060405161391381613486565b602060ff829454818116845260081c16910152565b519060ff82168203610b4257565b9190826040910312610b425760405161394e81613486565b602061396781839561395f81613928565b855201613928565b910152565b91606091949361399f60ff9261399586608081019960ff60208092828151168552015116910152565b60408601906136a2565b16910152565b80541561388657600052602060002090600090565b80548210156138865760005260206000200190600090565b51908115158203610b4257565b9190826080910312610b42576040516139f7816134b8565b6060613967818395613a0881613928565b8552613a1660208201613928565b6020860152613a27604082016139d2565b6040860152016139d2565b60ff1660ff81146138635760010190565b60078210156136af5752565b80548015613a81576000190190613a7e613a6983836139ba565b81549060018060a01b039060031b1b19169055565b55565b634e487b7160e01b600052603160045260246000fd5b60ff168015613863576000190190565b90613ab1826135a5565b604090613ac0825191826134f1565b8381528093613ad1601f19916135a5565b0191600090815b848110613ae6575050505050565b6020908251613af481613486565b848152828581830152828701015201613ad8565b9190606083820312610b4257613b2a906020613b23856139d2565b9401613936565b90565b909160ff166000908082526001906020908282526040946003868620015460ff88161015613bd85792613a699592826003958794613bd69a9852838352613b808460ff600489892001541615151461374d565b60018060a01b0316807fabe2a4edb03972506a4064b683e5482b1f09f2fb96bd4463b7b15b38cbd5b186848851858152a281855283835260028686200190855282528383868220828155015583525220016139ba565b565b855162461bcd60e51b815260048101849052601860248201527f496e6465782076616c7565206f7574206f662072616e676500000000000000006044820152606490fd5b90929160ff60409161399f84606081019760ff60208092828151168552015116910152565b6040805163436fadf360e11b815260ff9092166004830181905290916020919082816024817f00000000000000000000000000000000000000000000000000000000000000006001600160a01b03165afa908115613d6b57600091613d0b575b50907f44d8fc4a70679f71d5b762b5218cbfb0c858bb7e015b1effe03793d2909c20f66060600194938360005285855286600020613cdf8154613854565b90558360005285855260ff876000205491885192868452878401521687820152a1600052526000205490565b908382813d8311613d64575b613d2181836134f1565b810103126103dc5750907f44d8fc4a70679f71d5b762b5218cbfb0c858bb7e015b1effe03793d2909c20f66060613d5a60019594613928565b9293945050613ca1565b503d613d17565b84513d6000823e3d90fd5b60ff166003029060ff821691820361386357565b9060ff8091169116029060ff821691820361386357565b60ff166001019060ff821161386357565b919082519283825260005b848110613dde575050826000602080949584010152601f8019910116010190565b602081830181015184830182015201613dbd56fea26469706673582212204cd5a35f1d39c9baee7fe21563b43a36aac1c16351601974c32dbbd7baeada8e64736f6c63430008140033",
  "linkReferences": {},
  "deployedLinkReferences": {}
}