{
  "_format": "hh-sol-artifact-1",
  "contractName": "GamePunk",
  "sourceName": "contracts/GamePunk.sol",
  "abi": [
    {
      "inputs": [
        {
          "internalType": "address",
          "name": "_mapAddress",
          "type": "address"
        },
        {
          "internalType": "address",
          "name": "_punkshipsAddress",
          "type": "address"
        }
      ],
      "stateMutability": "nonpayable",
      "type": "constructor"
    },
    {
      "inputs": [
        {
          "internalType": "address",
          "name": "player",
          "type": "address"
        },
        {
          "internalType": "uint256",
          "name": "tokenId",
          "type": "uint256"
        }
      ],
      "name": "NotOwnerOfShip",
      "type": "error"
    },
    {
      "inputs": [
        {
          "internalType": "address",
          "name": "owner",
          "type": "address"
        }
      ],
      "name": "OwnableInvalidOwner",
      "type": "error"
    },
    {
      "inputs": [
        {
          "internalType": "address",
          "name": "account",
          "type": "address"
        }
      ],
      "name": "OwnableUnauthorizedAccount",
      "type": "error"
    },
    {
      "inputs": [
        {
          "internalType": "address",
          "name": "player",
          "type": "address"
        },
        {
          "internalType": "uint8",
          "name": "q",
          "type": "uint8"
        },
        {
          "internalType": "uint8",
          "name": "r",
          "type": "uint8"
        }
      ],
      "name": "ShipAlreadyAdded",
      "type": "error"
    },
    {
      "anonymous": false,
      "inputs": [
        {
          "indexed": false,
          "internalType": "uint8",
          "name": "gameId",
          "type": "uint8"
        },
        {
          "indexed": false,
          "internalType": "uint8",
          "name": "q",
          "type": "uint8"
        },
        {
          "indexed": false,
          "internalType": "uint8",
          "name": "r",
          "type": "uint8"
        },
        {
          "indexed": false,
          "internalType": "bool",
          "name": "island",
          "type": "bool"
        }
      ],
      "name": "Cell",
      "type": "event"
    },
    {
      "anonymous": false,
      "inputs": [
        {
          "indexed": false,
          "internalType": "uint8",
          "name": "gameId",
          "type": "uint8"
        }
      ],
      "name": "CommitPhaseStarted",
      "type": "event"
    },
    {
      "anonymous": false,
      "inputs": [
        {
          "indexed": false,
          "internalType": "uint8",
          "name": "gameId",
          "type": "uint8"
        }
      ],
      "name": "GameEnded",
      "type": "event"
    },
    {
      "anonymous": false,
      "inputs": [
        {
          "indexed": false,
          "internalType": "uint8",
          "name": "gameId",
          "type": "uint8"
        }
      ],
      "name": "GameStarted",
      "type": "event"
    },
    {
      "anonymous": false,
      "inputs": [
        {
          "indexed": true,
          "internalType": "bool",
          "name": "gameStatus",
          "type": "bool"
        },
        {
          "indexed": true,
          "internalType": "address",
          "name": "winnerAddress",
          "type": "address"
        },
        {
          "indexed": false,
          "internalType": "uint8",
          "name": "gameId",
          "type": "uint8"
        }
      ],
      "name": "GameUpdated",
      "type": "event"
    },
    {
      "anonymous": false,
      "inputs": [
        {
          "indexed": true,
          "internalType": "address",
          "name": "winner",
          "type": "address"
        },
        {
          "indexed": false,
          "internalType": "uint8",
          "name": "gameId",
          "type": "uint8"
        }
      ],
      "name": "GameWinner",
      "type": "event"
    },
    {
      "anonymous": false,
      "inputs": [
        {
          "indexed": false,
          "internalType": "uint8",
          "name": "radius",
          "type": "uint8"
        },
        {
          "indexed": false,
          "internalType": "uint8",
          "name": "gameId",
          "type": "uint8"
        }
      ],
      "name": "MapInitialized",
      "type": "event"
    },
    {
      "anonymous": false,
      "inputs": [
        {
          "indexed": false,
          "internalType": "uint8",
          "name": "gameId",
          "type": "uint8"
        }
      ],
      "name": "MapShrink",
      "type": "event"
    },
    {
      "anonymous": false,
      "inputs": [
        {
          "indexed": true,
          "internalType": "address",
          "name": "player",
          "type": "address"
        },
        {
          "indexed": false,
          "internalType": "uint8",
          "name": "gameId",
          "type": "uint8"
        }
      ],
      "name": "MoveCommitted",
      "type": "event"
    },
    {
      "anonymous": false,
      "inputs": [
        {
          "indexed": true,
          "internalType": "address",
          "name": "player",
          "type": "address"
        },
        {
          "indexed": false,
          "internalType": "uint8",
          "name": "gameId",
          "type": "uint8"
        },
        {
          "indexed": false,
          "internalType": "uint256",
          "name": "roundId",
          "type": "uint256"
        },
        {
          "indexed": false,
          "internalType": "uint8",
          "name": "destQ",
          "type": "uint8"
        },
        {
          "indexed": false,
          "internalType": "uint8",
          "name": "destR",
          "type": "uint8"
        },
        {
          "indexed": false,
          "internalType": "uint8",
          "name": "shotQ",
          "type": "uint8"
        },
        {
          "indexed": false,
          "internalType": "uint8",
          "name": "shotR",
          "type": "uint8"
        }
      ],
      "name": "MoveSubmitted",
      "type": "event"
    },
    {
      "anonymous": false,
      "inputs": [
        {
          "indexed": false,
          "internalType": "uint8",
          "name": "gameId",
          "type": "uint8"
        },
        {
          "indexed": false,
          "internalType": "uint256",
          "name": "roundId",
          "type": "uint256"
        },
        {
          "indexed": false,
          "internalType": "uint8",
          "name": "radius",
          "type": "uint8"
        }
      ],
      "name": "NewRound",
      "type": "event"
    },
    {
      "anonymous": false,
      "inputs": [
        {
          "indexed": true,
          "internalType": "address",
          "name": "previousOwner",
          "type": "address"
        },
        {
          "indexed": true,
          "internalType": "address",
          "name": "newOwner",
          "type": "address"
        }
      ],
      "name": "OwnershipTransferred",
      "type": "event"
    },
    {
      "anonymous": false,
      "inputs": [
        {
          "indexed": true,
          "internalType": "address",
          "name": "player",
          "type": "address"
        },
        {
          "indexed": false,
          "internalType": "uint8",
          "name": "gameId",
          "type": "uint8"
        },
        {
          "indexed": false,
          "internalType": "uint8",
          "name": "q",
          "type": "uint8"
        },
        {
          "indexed": false,
          "internalType": "uint8",
          "name": "r",
          "type": "uint8"
        },
        {
          "indexed": false,
          "internalType": "uint8",
          "name": "speed",
          "type": "uint8"
        },
        {
          "indexed": false,
          "internalType": "uint8",
          "name": "range",
          "type": "uint8"
        }
      ],
      "name": "PlayerAdded",
      "type": "event"
    },
    {
      "anonymous": false,
      "inputs": [
        {
          "indexed": true,
          "internalType": "address",
          "name": "player",
          "type": "address"
        },
        {
          "indexed": false,
          "internalType": "uint8",
          "name": "gameId",
          "type": "uint8"
        }
      ],
      "name": "PlayerDefeated",
      "type": "event"
    },
    {
      "anonymous": false,
      "inputs": [
        {
          "indexed": true,
          "internalType": "address",
          "name": "captain",
          "type": "address"
        },
        {
          "indexed": false,
          "internalType": "uint8",
          "name": "gameId",
          "type": "uint8"
        },
        {
          "indexed": false,
          "internalType": "uint8",
          "name": "q",
          "type": "uint8"
        },
        {
          "indexed": false,
          "internalType": "uint8",
          "name": "r",
          "type": "uint8"
        }
      ],
      "name": "ShipCollidedWithIsland",
      "type": "event"
    },
    {
      "anonymous": false,
      "inputs": [
        {
          "indexed": true,
          "internalType": "address",
          "name": "victim",
          "type": "address"
        },
        {
          "indexed": true,
          "internalType": "address",
          "name": "attacker",
          "type": "address"
        },
        {
          "indexed": false,
          "internalType": "uint8",
          "name": "gameId",
          "type": "uint8"
        }
      ],
      "name": "ShipHit",
      "type": "event"
    },
    {
      "anonymous": false,
      "inputs": [
        {
          "indexed": true,
          "internalType": "address",
          "name": "captain",
          "type": "address"
        },
        {
          "indexed": false,
          "internalType": "uint8",
          "name": "initialQ",
          "type": "uint8"
        },
        {
          "indexed": false,
          "internalType": "uint8",
          "name": "initialR",
          "type": "uint8"
        },
        {
          "indexed": false,
          "internalType": "uint8",
          "name": "q",
          "type": "uint8"
        },
        {
          "indexed": false,
          "internalType": "uint8",
          "name": "r",
          "type": "uint8"
        },
        {
          "indexed": false,
          "internalType": "uint8",
          "name": "gameId",
          "type": "uint8"
        }
      ],
      "name": "ShipMoved",
      "type": "event"
    },
    {
      "anonymous": false,
      "inputs": [
        {
          "indexed": true,
          "internalType": "address",
          "name": "captain",
          "type": "address"
        },
        {
          "indexed": false,
          "internalType": "uint8",
          "name": "gameId",
          "type": "uint8"
        }
      ],
      "name": "ShipMovedInGame",
      "type": "event"
    },
    {
      "anonymous": false,
      "inputs": [
        {
          "indexed": true,
          "internalType": "address",
          "name": "captain",
          "type": "address"
        },
        {
          "indexed": false,
          "internalType": "uint8",
          "name": "fromQ",
          "type": "uint8"
        },
        {
          "indexed": false,
          "internalType": "uint8",
          "name": "fromR",
          "type": "uint8"
        },
        {
          "indexed": false,
          "internalType": "uint8",
          "name": "shotQ",
          "type": "uint8"
        },
        {
          "indexed": false,
          "internalType": "uint8",
          "name": "shotR",
          "type": "uint8"
        },
        {
          "indexed": false,
          "internalType": "uint8",
          "name": "gameId",
          "type": "uint8"
        }
      ],
      "name": "ShipShot",
      "type": "event"
    },
    {
      "anonymous": false,
      "inputs": [
        {
          "indexed": true,
          "internalType": "address",
          "name": "captain",
          "type": "address"
        },
        {
          "indexed": false,
          "internalType": "uint8",
          "name": "gameId",
          "type": "uint8"
        }
      ],
      "name": "ShipSunk",
      "type": "event"
    },
    {
      "anonymous": false,
      "inputs": [
        {
          "indexed": true,
          "internalType": "address",
          "name": "captain",
          "type": "address"
        },
        {
          "indexed": false,
          "internalType": "uint8",
          "name": "gameId",
          "type": "uint8"
        }
      ],
      "name": "ShipSunkOutOfMap",
      "type": "event"
    },
    {
      "anonymous": false,
      "inputs": [
        {
          "indexed": false,
          "internalType": "uint8",
          "name": "gameId",
          "type": "uint8"
        },
        {
          "indexed": false,
          "internalType": "uint256",
          "name": "round",
          "type": "uint256"
        }
      ],
      "name": "SubmitPhaseStarted",
      "type": "event"
    },
    {
      "anonymous": false,
      "inputs": [
        {
          "indexed": false,
          "internalType": "uint8",
          "name": "gameId",
          "type": "uint8"
        }
      ],
      "name": "WorldUpdated",
      "type": "event"
    },
    {
      "inputs": [
        {
          "internalType": "address",
          "name": "playerAddress",
          "type": "address"
        },
        {
          "internalType": "uint8",
          "name": "gameId",
          "type": "uint8"
        },
        {
          "internalType": "uint256",
          "name": "_punkshipId",
          "type": "uint256"
        }
      ],
      "name": "addShip",
      "outputs": [],
      "stateMutability": "nonpayable",
      "type": "function"
    },
    {
      "inputs": [
        {
          "internalType": "bytes32",
          "name": "moveHash",
          "type": "bytes32"
        },
        {
          "internalType": "uint8",
          "name": "gameId",
          "type": "uint8"
        }
      ],
      "name": "commitMove",
      "outputs": [],
      "stateMutability": "nonpayable",
      "type": "function"
    },
    {
      "inputs": [
        {
          "internalType": "uint8",
          "name": "gameId",
          "type": "uint8"
        }
      ],
      "name": "endGame",
      "outputs": [],
      "stateMutability": "nonpayable",
      "type": "function"
    },
    {
      "inputs": [
        {
          "internalType": "uint256",
          "name": "",
          "type": "uint256"
        }
      ],
      "name": "games",
      "outputs": [
        {
          "internalType": "uint256",
          "name": "round",
          "type": "uint256"
        },
        {
          "internalType": "uint8",
          "name": "shrinkNo",
          "type": "uint8"
        },
        {
          "internalType": "bool",
          "name": "gameInProgress",
          "type": "bool"
        },
        {
          "internalType": "bool",
          "name": "stopAddingShips",
          "type": "bool"
        },
        {
          "internalType": "bool",
          "name": "letCommitMoves",
          "type": "bool"
        },
        {
          "internalType": "bool",
          "name": "letSubmitMoves",
          "type": "bool"
        }
      ],
      "stateMutability": "view",
      "type": "function"
    },
    {
      "inputs": [
        {
          "components": [
            {
              "internalType": "uint8",
              "name": "q",
              "type": "uint8"
            },
            {
              "internalType": "uint8",
              "name": "r",
              "type": "uint8"
            }
          ],
          "internalType": "struct SharedStructs.Coordinate",
          "name": "_coord",
          "type": "tuple"
        },
        {
          "internalType": "uint8",
          "name": "gameId",
          "type": "uint8"
        }
      ],
      "name": "getCell",
      "outputs": [
        {
          "components": [
            {
              "internalType": "uint8",
              "name": "q",
              "type": "uint8"
            },
            {
              "internalType": "uint8",
              "name": "r",
              "type": "uint8"
            },
            {
              "internalType": "bool",
              "name": "island",
              "type": "bool"
            },
            {
              "internalType": "bool",
              "name": "exists",
              "type": "bool"
            }
          ],
          "internalType": "struct SharedStructs.Cell",
          "name": "",
          "type": "tuple"
        }
      ],
      "stateMutability": "view",
      "type": "function"
    },
    {
      "inputs": [
        {
          "internalType": "uint8",
          "name": "gameId",
          "type": "uint8"
        }
      ],
      "name": "getCells",
      "outputs": [
        {
          "components": [
            {
              "internalType": "uint8",
              "name": "q",
              "type": "uint8"
            },
            {
              "internalType": "uint8",
              "name": "r",
              "type": "uint8"
            }
          ],
          "internalType": "struct SharedStructs.Coordinate[]",
          "name": "",
          "type": "tuple[]"
        }
      ],
      "stateMutability": "view",
      "type": "function"
    },
    {
      "inputs": [
        {
          "internalType": "uint8",
          "name": "gameId",
          "type": "uint8"
        }
      ],
      "name": "getRadius",
      "outputs": [
        {
          "internalType": "uint8",
          "name": "",
          "type": "uint8"
        }
      ],
      "stateMutability": "view",
      "type": "function"
    },
    {
      "inputs": [
        {
          "internalType": "uint8",
          "name": "gameId",
          "type": "uint8"
        }
      ],
      "name": "getShips",
      "outputs": [
        {
          "components": [
            {
              "components": [
                {
                  "internalType": "uint8",
                  "name": "q",
                  "type": "uint8"
                },
                {
                  "internalType": "uint8",
                  "name": "r",
                  "type": "uint8"
                }
              ],
              "internalType": "struct SharedStructs.Coordinate",
              "name": "coordinate",
              "type": "tuple"
            },
            {
              "internalType": "enum SharedStructs.Directions",
              "name": "travelDirection",
              "type": "uint8"
            },
            {
              "internalType": "uint8",
              "name": "travelDistance",
              "type": "uint8"
            },
            {
              "internalType": "enum SharedStructs.Directions",
              "name": "shotDirection",
              "type": "uint8"
            },
            {
              "internalType": "uint8",
              "name": "shotDistance",
              "type": "uint8"
            },
            {
              "internalType": "bool",
              "name": "publishedMove",
              "type": "bool"
            },
            {
              "internalType": "address",
              "name": "captain",
              "type": "address"
            },
            {
              "internalType": "uint8",
              "name": "yachtSpeed",
              "type": "uint8"
            },
            {
              "internalType": "uint8",
              "name": "yachtRange",
              "type": "uint8"
            },
            {
              "internalType": "uint8",
              "name": "gameId",
              "type": "uint8"
            }
          ],
          "internalType": "struct GamePunk.Ship[]",
          "name": "",
          "type": "tuple[]"
        }
      ],
      "stateMutability": "view",
      "type": "function"
    },
    {
      "inputs": [
        {
          "components": [
            {
              "internalType": "uint8",
              "name": "q",
              "type": "uint8"
            },
            {
              "internalType": "uint8",
              "name": "r",
              "type": "uint8"
            }
          ],
          "internalType": "struct SharedStructs.Coordinate",
          "name": "_start",
          "type": "tuple"
        },
        {
          "internalType": "enum SharedStructs.Directions",
          "name": "_dir",
          "type": "uint8"
        },
        {
          "internalType": "uint8",
          "name": "_distance",
          "type": "uint8"
        },
        {
          "internalType": "uint8",
          "name": "gameId",
          "type": "uint8"
        }
      ],
      "name": "move",
      "outputs": [
        {
          "components": [
            {
              "internalType": "uint8",
              "name": "q",
              "type": "uint8"
            },
            {
              "internalType": "uint8",
              "name": "r",
              "type": "uint8"
            }
          ],
          "internalType": "struct SharedStructs.Coordinate",
          "name": "",
          "type": "tuple"
        }
      ],
      "stateMutability": "view",
      "type": "function"
    },
    {
      "inputs": [],
      "name": "owner",
      "outputs": [
        {
          "internalType": "address",
          "name": "",
          "type": "address"
        }
      ],
      "stateMutability": "view",
      "type": "function"
    },
    {
      "inputs": [],
      "name": "registrationContract",
      "outputs": [
        {
          "internalType": "address",
          "name": "",
          "type": "address"
        }
      ],
      "stateMutability": "view",
      "type": "function"
    },
    {
      "inputs": [],
      "name": "renounceOwnership",
      "outputs": [],
      "stateMutability": "nonpayable",
      "type": "function"
    },
    {
      "inputs": [
        {
          "internalType": "address",
          "name": "_registrationContract",
          "type": "address"
        }
      ],
      "name": "setRegistrationContract",
      "outputs": [],
      "stateMutability": "nonpayable",
      "type": "function"
    },
    {
      "inputs": [
        {
          "internalType": "uint8",
          "name": "gameId",
          "type": "uint8"
        },
        {
          "internalType": "uint8",
          "name": "_radius",
          "type": "uint8"
        }
      ],
      "name": "startNewGame",
      "outputs": [],
      "stateMutability": "nonpayable",
      "type": "function"
    },
    {
      "inputs": [
        {
          "internalType": "enum SharedStructs.Directions[]",
          "name": "_travelDirections",
          "type": "uint8[]"
        },
        {
          "internalType": "uint8[]",
          "name": "_travelDistances",
          "type": "uint8[]"
        },
        {
          "internalType": "enum SharedStructs.Directions[]",
          "name": "_shotDirections",
          "type": "uint8[]"
        },
        {
          "internalType": "uint8[]",
          "name": "_shotDistances",
          "type": "uint8[]"
        },
        {
          "internalType": "uint8[]",
          "name": "_secrets",
          "type": "uint8[]"
        },
        {
          "internalType": "address[]",
          "name": "_playerAddresses",
          "type": "address[]"
        },
        {
          "internalType": "uint8",
          "name": "gameId",
          "type": "uint8"
        }
      ],
      "name": "submitMove",
      "outputs": [],
      "stateMutability": "nonpayable",
      "type": "function"
    },
    {
      "inputs": [
        {
          "internalType": "address",
          "name": "newOwner",
          "type": "address"
        }
      ],
      "name": "transferOwnership",
      "outputs": [],
      "stateMutability": "nonpayable",
      "type": "function"
    },
    {
      "inputs": [
        {
          "components": [
            {
              "internalType": "uint8",
              "name": "q",
              "type": "uint8"
            },
            {
              "internalType": "uint8",
              "name": "r",
              "type": "uint8"
            }
          ],
          "internalType": "struct SharedStructs.Coordinate",
          "name": "_startCell",
          "type": "tuple"
        },
        {
          "internalType": "enum SharedStructs.Directions",
          "name": "_direction",
          "type": "uint8"
        },
        {
          "internalType": "uint8",
          "name": "_distance",
          "type": "uint8"
        },
        {
          "internalType": "uint8",
          "name": "gameId",
          "type": "uint8"
        }
      ],
      "name": "travel",
      "outputs": [],
      "stateMutability": "nonpayable",
      "type": "function"
    },
    {
      "inputs": [
        {
          "internalType": "uint8",
          "name": "gameId",
          "type": "uint8"
        }
      ],
      "name": "updateWorld",
      "outputs": [],
      "stateMutability": "nonpayable",
      "type": "function"
    }
  ],
  "bytecode": "0x60c0346200015357601f620041e938819003918201601f19168301916001600160401b038311848410176200015857808492604094855283398101031262000153576200005a602062000052836200016e565b92016200016e565b9033156200013a5760008054336001600160a01b0319821681178355604051946001600160a01b0394909385939192918416907f8be0079c531659141344cd1fd0a4f28419497f9722a3daafe3b4186f6b6457e09080a3166080521660a0526140659081620001848239608051818181610676015281816109df01528181610e6301528181610edc015281816113af0152818161185e015281816122540152818161272c01528181612f8201528181613083015281816133f00152818161352e0152613ea5015260a05181818161266a015281816129f50152612a4c0152f35b604051631e4fbdf760e01b815260006004820152602490fd5b600080fd5b634e487b7160e01b600052604160045260246000fd5b51906001600160a01b0382168203620001535756fe608080604052600436101561001357600080fd5b600090813560e01c908163117a5b9014613681575080631cf8a321146134a25780631e522c3e1461347957806334361208146133965780634aac9b8b1461302c5780634d02388614612ec6578063715018a614612e6c57806383c46e23146125f2578063863375ac1461256c5780638da5cb5b14612545578063978ac356146110f6578063c002600314610a80578063d085a86f14610972578063d1153bc31461058d578063d3db03cc14610548578063e7c435a71461046f578063f2fde38b146103df5763fd870446146100e757600080fd5b346103dc57602090816003193601126103dc579060ff80610106613761565b1692838152600191828452610127838260046040862001541615151461398a565b84825282845260038060408420015495610140876137f9565b9661014e6040519889613740565b80885261015d601f19916137f9565b01845b8181106103665750508484905b610256575b505050604051938085019181865286518093528160408701970193905b83821061019c5786880387f35b90919293948361016082998489516101c483825160ff60208092828151168552015116910152565b6101d58582015160408501906138df565b8180604083015116606090818601528201516101f6608091828701906138df565b8201511660a09081850152810151151560c0908185015260018060a01b03908201511660e0840152818060e0830151166101009081860152820151169061012091828501520151166101408201520196019201909694969392919361018f565b90859795929181869895965283855260408820908382019182548210156103575760026102868361034995613bf7565b929060018060a01b039384915490891b1c166000520187528760406000209187604051936102b385613724565b6102bc81613b43565b85520154906102cf8383168b8601613c80565b828260081c1660408501526102ec838360101c1660608601613c80565b828260181c16608085015282828b1c16151560a08501528160281c1660c0840152818160c81c1660e0840152818160d01c1661010084015260d81c16610120820152610338828a613ad9565b526103438189613ad9565b50613a91565b90919295979694939661016d565b50505096949695939295610172565b968094959760409997995161037a81613724565b604051610386816136ee565b60008152600084820152815289838201528960408201528960608201528960808201528960a08201528960c08201528960e0820152896101008201528961012082015282828a0101520197959796949396610160565b80fd5b50346103dc5760203660031901126103dc576103f96137e3565b610401613902565b6001600160a01b0390811690811561045657600054826bffffffffffffffffffffffff60a01b821617600055167f8be0079c531659141344cd1fd0a4f28419497f9722a3daafe3b4186f6b6457e0600080a380f35b604051631e4fbdf760e01b815260048101849052602490fd5b50346103dc5760403660031901126103dc5760ff61048b613771565b168082526001602052600160ff600460408520015460101c161515036104f957808252600160205260056040832001336000526020526004356040600020556040519081527f38b5330dac100f70d75e8ee186192e45592ca13e2ea5e536677df27911c0489760203392a280f35b60405162461bcd60e51b815260206004820152602160248201527f436f6d6d6974206d6f76657320686173206e6f742073746172746564207965746044820152602160f81b6064820152608490fd5b50346103dc5760203660031901126103dc576105626137e3565b61056a613902565b60018060a01b03166bffffffffffffffffffffffff60a01b600254161760025580f35b50346103dc5760403660031901126103dc576105a7613761565b906105b0613771565b9160018060a01b036002916105c982845416331461392e565b60ff808216928184101561092d5783865260019160209583875281600460408a200154166108da5785885283875260408820600401805460ff191685179055839088825b610883575b5050508487528286528684600360408320019384549483815585610859575b50610672945061064082613e7e565b50604051631a405d8760e31b815260ff808d166004830152909216602483015290938491908290849082906044820190565b03927f0000000000000000000000000000000000000000000000000000000000000000165af191821561084e5787926107a8575b5086835b610722575b50506040805160ff9889168152978416602089015295967f13cb55fc1bec4b9f4cd4c22f154240b469cb108a23a35aa599df0c3da46f2d14966107189493507fd76a0a97b7d547fef69b0cd90fb02087b761703ae2b5e4e91a99e8fd17e308ad925090a16139d6565b604051908152a180f35b82518110156107a357807fa0c5e7441ab424c9fb8f47238c88c2c172bf9be1898748ea348b2a8bb92d6dbb60808461075d61079d9588613ad9565b515116858b61076c868a613ad9565b51015116604061077c868a613ad9565b510151151590604051928c84528d84015260408301526060820152a1613a91565b836106aa565b6106af565b9091503d8088833e6107ba8183613740565b8101908681830312610846578051906001600160401b03821161084a570181601f820112156108465780516107ee816137f9565b926107fc6040519485613740565b818452888085019260071b84010192818411610842578901915b8984841061082a57505050505090386106a6565b6080916108378486613c1c565b815201920191610816565b8a80fd5b8780fd5b8880fd5b6040513d89823e3d90fd5b83528883209485015b868187106108705750610631565b9386559490920193899287925090610862565b878a5282895260408a2090600391828101908782548410156108d1576108cb946108ae858895613bf7565b9054911b1c16600052018a52600084604082208281550155613a91565b8261060d565b50505050610612565b60405162461bcd60e51b815260048101889052602560248201527f47616d652077697468207468697320494420616c726561647920696e2070726f604482015264677265737360d81b6064820152608490fd5b60405162461bcd60e51b815260206004820152601f60248201527f4d6178696d756d206e756d626572206f662067616d65732072656163686564006044820152606490fd5b50346103dc5760ff604061098536613781565b60006020869793979594955161099a816136ee565b828152015216855260016020526109be600160ff600486892001541615151461398a565b6109db83519485938493630d42527560e11b855260048501613ba9565b03817f00000000000000000000000000000000000000000000000000000000000000006001600160a01b03165afa908115610a75578291610a37575b604082610a358251809260ff60208092828151168552015116910152565bf35b905060403d604011610a6e575b610a4e8183613740565b8101916040828403126103dc5750604091610a6891613b73565b38610a17565b503d610a44565b6040513d84823e3d90fd5b50346103dc5760e03660031901126103dc576004356001600160401b03811161104d57610ab1903690600401613810565b6024356001600160401b03811161100b57610ad0903690600401613877565b6044356001600160401b0381116110f257610aef903690600401613810565b6064356001600160401b0381116110ee57610b0e903690600401613877565b92608435936001600160401b0385116110ea57366023860112156110ea57846004013594610b3b866137f9565b95610b496040519788613740565b8087526024602088019160051b8301019136831161084a57602401905b8282106110da5750505060a435906001600160401b0382116110d657366023830112156110d6578160040135610b9b816137f9565b92610ba96040519485613740565b8184526024602085019260051b820101903682116110d257602401915b8183106110b25750505060c4359460ff861686036110ad5760ff861688526001602052610c01600160ff600460408c2001541615151461398a565b610c0e8351855114613a46565b610c1b8451825114613a46565b610c288551835114613a46565b610c358751845114613a46565b875b83518110156110a957610c52610c4d8287613ad9565b613aed565b610c5c8284613ad9565b51610c6a610c4d848a613ad9565b610c748487613ad9565b51610c7f858d613ad9565b5192610c92604051956020870190613afa565b610cb160ff60f81b938460f893841b1660218801526022870190613afa565b1b1660238301526024820152602481528060608101106001600160401b0360608301111761109357606081016040908152815160209283012060ff8a168c5260019092528a206005016001600160a01b03610d0c8488613ad9565b511660005260205260406000205414610d2e575b610d2990613a91565b610c37565b60ff871689526001602052604089206002016001600160a01b03610d528387613ad9565b5116600052602052610e216040600020610d6f610c4d8489613ad9565b610d7d600183019182613b0a565b60ff610d898587613ad9565b51825460c81c60ff16911681101561107c57610db6905b825461ff00191660089190911b61ff0016178255565b610dcc610dc6610c4d868c613ad9565b82613b22565b60ff610dd88588613ad9565b51825460d01c60ff16911681101561106557610e09905b825463ff000000191660189190911b63ff00000016178255565b805464ff000000001916640100000000179055613b43565b90896040610e32610c4d848a613ad9565b60ff610e3e8588613ad9565b518351630d42527560e11b81529687938493610e5f93169160048501613ba9565b03817f00000000000000000000000000000000000000000000000000000000000000006001600160a01b03165afa8015611058578190611016575b610ed893506040610eae610c4d858c613ad9565b60ff610eba868a613ad9565b51169082519687928392630d42527560e11b84528660048501613ba9565b03817f00000000000000000000000000000000000000000000000000000000000000006001600160a01b03165afa8015610a75578a948391610fa8575b50610d29947faff0b78027ac9f4904ee624bc84e3126d0e7d96ce215c5db5158441acb0b38cf9260c09260406001600160a01b03610f53898e613ad9565b51169660ff85168152600160205220549160ff602081835116920151169060ff602081855116940151169360ff60405196168652602086015260408501526060840152608083015260a0820152a29050610d20565b94505060403d60401161100f575b610fc08186613740565b604085828101031261100b578a7faff0b78027ac9f4904ee624bc84e3126d0e7d96ce215c5db5158441acb0b38cf926110018760c094610d29990190613b73565b9250925094610f15565b8280fd5b503d610fb6565b5060403d604011611051575b61102c8185613740565b604084828101031261104d578361104891610ed8950190613b73565b610e9a565b5080fd5b503d611022565b50604051903d90823e3d90fd5b50610e0960ff6110758689613ad9565b5116610def565b50610db660ff61108c8688613ad9565b5116610da0565b634e487b7160e01b600052604160045260246000fd5b8880f35b600080fd5b82356001600160a01b03811681036110ad57815260209283019201610bc6565b8980fd5b8680fd5b8135815260209182019101610b66565b8580fd5b8480fd5b8380fd5b50346103dc5760203660031901126103dc57611110613761565b611118613902565b60ff81168252600160205261113b600160ff60046040862001541615151461398a565b60ff81168252600160205260408220600381540615612245575b5060ff8116825260016020526111716003604084200154613ce4565b9060ff81168352600160205260036040842001549261118f846137f9565b9361119d6040519586613740565b8085526111ac601f19916137f9565b01366020860137805b60ff831682526001602052600360408320015460ff8216908110156111ef579060016111e46111ea9388613ad9565b52613c6f565b6111b5565b505092835b60ff8316855260016020526040852060038101805460ff84161015611715579061122083600293613bf7565b60018060a01b0391549060031b1c166000520160205260018060a01b0360016040600020015460281c16156112975760ff83168552600160205260026040862061126d8360038301613bf7565b60018060a01b0391549060031b1c166000520160205260ff60016040600020015460201c166112a5575b6112a090613c6f565b6111f4565b60ff8316855260016020526002604086206112c38360038301613bf7565b60018060a01b0391549060031b1c166000520160205260406000209060ff8416865260016020526002604087206112fd8360038301613bf7565b60018060a01b0391549060031b1c166000520160205260ff80600160406000200154168186168852600160205260026040892061133d8560038301613bf7565b60018060a01b0391549060031b1c16600052016020526113946001604060002001549161138a60405196631cf8a32160e01b8852600488019060ff60209154818116845260081c16910152565b60448601906138df565b60081c16606483015260ff841660848301528560608360a4817f00000000000000000000000000000000000000000000000000000000000000006001600160a01b03165afa80156110585782826112a09588949082946116e1575b506115c757505060ff61156992168852600160205260ff61141684600360408c2001613bf7565b60018060a01b0391549060031b1c168188168a526001602052600260408b206114428760038301613bf7565b60018060a01b0391549060031b1c16600052016020528160406000205416908289168b526001602052600260408c2061147e8860038301613bf7565b60018060a01b0391549060031b1c16600052016020527ff1e9c1d54f160cab3c8602dcfbf5fbe3e012ed037d80057eca695f74d26077a08360406000205460081c16848651169361150b8c60208901968888511690604051958695869360ff9290836080958180949a99959a8160a08b019c168a5216602089015216604087015216606085015216910152565b0390a28188168a526001602052600260408b2061152b8760038301613bf7565b60018060a01b0391549060031b1c16600052016020528160406000209351168219845416178355511661ff0082549160081b169061ff001916179055565b60ff8416865260016020526115848160036040892001613bf7565b60018060a01b0391549060031b1c167f51f35fa2867d710ef60e6209b0ca28b42abd534ed14e1f8394e793f42253c9f6602060405160ff88168152a29050611297565b928161165461166b93600360406116dc9860ff8716815260016020526115f1848484842001613bf7565b60018060a01b03915490851b1c167fd44ddf7f8e572e76d7ed6bf350d88367a33cf9a7d19d5069c392802305d51f6c60608b60ff6020818351169201511686519160ff8d168352602083015286820152a260ff8716815260016020522001613bf7565b905460039190911b1c6001600160a01b0316613d6a565b8761167960ff851687613ad9565b5260ff8616885260016020526002604089206116988560038301613bf7565b60018060a01b0391549060031b1c166000520160205260ff602060406000209282815116831985541617845501511661ff0082549160081b169061ff001916179055565b613c6f565b905061170691935060603d60601161170e575b6116fe8183613740565b810190613d45565b9290386113ef565b503d6116f4565b50505091835b60ff831685526001602052600360408620015460ff82161015611a0d5761174560ff821685613ad9565b51611759575b61175490613c6f565b61171b565b60ff8316855260016020526002604086206117778360038301613bf7565b60018060a01b0391549060031b1c166000520160205260406000209060ff8416865260016020526002604087206117b18360038301613bf7565b60018060a01b0391549060031b1c166000520160205260ff60016040600020015460101c1660ff8516875260016020526002604088206117f48460038301613bf7565b60018060a01b0391549060031b1c166000520160205261185160ff60016040600020015460181c16916118476040519563d6192ad360e01b8752600487019060ff60209154818116845260081c16910152565b60448501906138df565b60648301526040826084817f00000000000000000000000000000000000000000000000000000000000000006001600160a01b03165afa8015611a025786906119c4575b6117549250806118a860ff841686613ad9565b526118b660ff831685613ad9565b5060ff8516875260016020527f78546d5ff977d70d771d8edba5bdd99150ec97e7837d6e2af4384b1605a4372d6118f383600360408b2001613bf7565b60018060a01b0391549060031b1c169160ff871689526001602052600260408a206119218660038301613bf7565b60018060a01b0391549060031b1c166000520160205260ff6040600020541660ff88168a526001602052600260408b2061195e8760038301613bf7565b90546001600160a01b0360039290921b1c1660009081529101602090815260409182902054845194820151835160ff958616815260089290921c85169282019290925293831691840191909152811660608301528716608082015260a090a2905061174b565b5060403d6040116119fb575b6119da8184613740565b60408382810103126110d657826119f691611754940190613b73565b611895565b503d6119d0565b6040513d88823e3d90fd5b50919290815b60ff821683526001602052600360408420015460ff82161015611e2b57825b60ff831684526001602052600360408520015460ff82161015611e1c578060ff611a65921660ff841603611a6a57613c6f565b611a32565b611a7760ff841688613ad9565b51151580611e06575b80611d86575b80611cff575b611c13575b611a9e60ff841688613ad9565b51151580611bbe575b80611b63575b15613c6f5760ff8416855260016020526116dc848487611ad38260036040842001613bf7565b905460ff85168352600160205260409092206001600160a01b0392600392831b1c8316918391611b0591899101613bf7565b90549060031b1c16907fb2ee3834f34c038f7f34d57f8ce213e4ee56fecd33556013e0f66b1e32ee14bc602060405160ff88168152a360ff831689526001602052611b5682600360408c2001613bf7565b90549060031b1c16613d6a565b5060ff6020611b7482841689613ad9565b5101511660ff851686526001602052600260408720611b968660038301613bf7565b60018060a01b0391549060031b1c166000520160205260ff60406000205460081c1614611aad565b5060ff611bcd81831688613ad9565b51511660ff851686526001602052600260408720611bee8660038301613bf7565b60018060a01b0391549060031b1c166000520160205260ff6040600020541614611aa7565b84611c2160ff851689613ad9565b5284611c3060ff831689613ad9565b5260ff841685526001602052611cfa84826040611cdf83888b611b56826003611c5d82828a872001613bf7565b989094602060018060a01b03809b81985490861b1c16835160ff8b1681527f783de3ac95b82563b70ac74b3a843e5f9f71a653b9518e6e1762b39151c0f710928391a260ff89168252600160205286611cba8d8686862001613bf7565b905490861b1c16906020845160ff8c168152a260ff8816815260016020522001613bf7565b60ff831689526001602052611b5682600360408c2001613bf7565b611a91565b5060ff84168552600160205260408520611d1c8260038301613bf7565b919060018060a01b03928391549060031b1c1660005260028091016020526040600020549160ff8716885260016020526040882090611d5e8760038401613bf7565b90549060031b1c166000520160205260ff6040600020549181600893841c16921c1614611a8c565b5060ff84168552600160205260408520611da38260038301613bf7565b919060018060a01b03928391549060031b1c16600052600280910160205260ff604060002054169160ff8716885260016020526040882090611de88760038401613bf7565b90549060031b1c166000520160205260ff6040600020541614611a86565b50611e1460ff821688613ad9565b511515611a80565b50611e2690613c6f565b611a13565b50815b60ff8216835260016020526003604084200180549060ff831691821015611f3e5782611e5991613bf7565b90546001600160a01b039160031b1c811615611e80575b5050611e7b90613c6f565b611e2e565b60ff841685526001602052604085206003018054600019810191908211611f2a5791611eb4611ef692611e7b969594613bf7565b90549060031b1c1660ff861687526001602052611ed784600360408a2001613bf7565b90919082549060031b9160018060a01b03809116831b921b1916179055565b60ff841685526001602052611f1060036040872001613c8c565b611f1c575b9084611e70565b611f2590613cd4565b611f15565b634e487b7160e01b87526011600452602487fd5b50505060ff81168252600160205260408220600301805480611fd957505060207fd44344392ee117b90bc172ab74cce9c43a862f0d5e11a336b3885fde466c244e91837f8403b4a1c998f6768b577f2c265d744e2f4d05982059b4d82b34eb822bdc17d18360405160ff85168152a260ff811684526001825260408420600401805461ff0019166101001790555b60ff60405191168152a180f35b60010361207c575060208160ff7fd44344392ee117b90bc172ab74cce9c43a862f0d5e11a336b3885fde466c244e931684526001825261201e60036040862001613be2565b60018060a01b0391549060031b1c167f8403b4a1c998f6768b577f2c265d744e2f4d05982059b4d82b34eb822bdc17d18360405160ff85168152a260ff811684526001825260408420600401805461ff001916610100179055611fcc565b61208590613be2565b919060018060a01b03928391549060031b1c16837f2cee3725d64bc62c413fa35348815210ff376bf4f13627d82b6ac0d0efc6e8cd602060405160ff86168152a3825b60ff8216845260016020526040842060038101805460ff841610156121e85790846120f7846121e39594613bf7565b90549060031b1c1660005260028091016020526001604060002001600660ff1982541617905560ff84168652600160205280604087208661213b8560038401613bf7565b90549060031b1c1660005201602052600160406000200161ff0019815416905560ff8416865260016020528060408720866121798560038401613bf7565b90549060031b1c166000520160205260016040600020016206000062ff00001982541617905560ff84168652600160205260408620856121bc8460038401613bf7565b90549060031b1c1660005201602052600160406000200163ff000000198154169055613c6f565b6120c8565b5050507fd44344392ee117b90bc172ab74cce9c43a862f0d5e11a336b3885fde466c244e915060209060ff81168452600182526004604085200163ff00000019815416905561223681613e7e565b50612240816139d6565b611fcc565b600101546001600160a01b03917f000000000000000000000000000000000000000000000000000000000000000083169160ff1684833b156103dc57604051634affc34f60e01b815260ff84811660048301529290921660248301528160448183875af1801561253a5761250b575b5060ff81168452600160205260016040852001805460ff6122d6818316613c6f565b169060ff19161790557fab00852360aeece33bb03176d4e62fbb27adf3fd1a81b9d543c1ae388003b0ac602060405160ff84168152a1835b60ff8281168652600160205260408620600381018054928416928310156124fe57908661233d85600294613bf7565b90549060031b1c16600052016020528261235a6040600020613b43565b604051906326811c4360e11b8252818061237b608095869460048401613e59565b0381895afa9081156124f35788916124ba575b50606091500151156123aa575b506123a590613c6f565b61230e565b60ff8316865260016020526123cb838387611b5682600360408d2001613bf7565b60ff831686526001602052846123e783600360408a2001613bf7565b90549060031b1c167f7098e36d986448e47b2ec53e41ddd178ac0774637ee2227e84baba39b0c1c7b1602060405160ff87168152a260ff8316865260016020526040862060030180546000198101919082116124a657866124506123a595949361247393613bf7565b90549060031b1c1660ff861689526001602052611ed784600360408c2001613bf7565b60ff84168752600160205261248d60036040892001613c8c565b612498575b9061239b565b6124a190613cd4565b612492565b634e487b7160e01b88526011600452602488fd5b9050813d83116124ec575b6124cf8183613740565b81019181830312610846576060916124e691613c1c565b3861238e565b503d6124c5565b6040513d8a823e3d90fd5b5050505091505038611155565b6001600160401b0381959295116125265760405292386122b4565b634e487b7160e01b82526041600452602482fd5b6040513d87823e3d90fd5b50346103dc57806003193601126103dc57546040516001600160a01b039091168152602090f35b50346103dc5760203660031901126103dc577f4df34531b3f238bc8f90ad83236d8c752e7444e434bb5fc99f888f0a6345c0e7602060ff6125ab613761565b6125b3613902565b16808452600182526125d3600160ff60046040882001541615151461398a565b808452600182526040808520600401805460ff1916905551908152a180f35b50346103dc5760603660031901126103dc5761260c6137e3565b612614613771565b9061262a60018060a01b0360025416331461392e565b60ff82168352600160205261264d600160ff60046040872001541615151461398a565b6040516331a9108f60e11b815260443560048201526020816024817f00000000000000000000000000000000000000000000000000000000000000006001600160a01b03165afa908115612e61578491612e1f575b506001600160a01b03828116911603612df65760ff82811684526001602090815260408086206001600160a01b038516875260020190915284205416151580612dc2575b612d56576040516126f6816136ee565b838152836020820152839060015b156129cf575b50604080516342c39d9160e01b815260ff8516600482015292859184602481857f00000000000000000000000000000000000000000000000000000000000000006001600160a01b03165af1938415611a0257869461298f575b50839186806127ce6127e760ff89511660ff60208b015116906040519161278a836136ee565b60138352724e657720726e6420706169722025732c20257360681b602084015260405194859363ca47c4eb60e01b6020860152606060248601526084850190613fef565b916044840152606483015203601f198101835282613740565b6020815191016a636f6e736f6c652e6c6f675afa5086805b60ff88168252600160205260036040832001805460ff831610156129825782612829838293613bf7565b90546040519160031b1c6001600160a01b0316612845826136ee565b601782527f696e206c6f6f702025732c20616464726573733a20257300000000000000000060208301526128b7604051809261289a602083019563038fd88960e31b8752606060248501526084840190613fef565b9060ff89166044840152606483015203601f198101835282613740565b51906a636f6e736f6c652e6c6f675afa5060ff8816825260016020526002604083206128e68360038301613bf7565b60018060a01b0391549060031b1c1684520160205260ff60408320541660ff8851161480612935575b6129215761291c90613c6f565b6127ff565b505091935091506001905b92909192612704565b5060ff8816825260016020526002604083206129548360038301613bf7565b60018060a01b0391549060031b1c1684520160205260ff604083205460081c1660ff6020890151161461290f565b505050909291935061292c565b9093506040903d6040116129c7575b6129a88282613740565b60408183810103126110d6576129c091810190613b73565b9238612764565b3d915061299e565b8161270a57604051631986c9e960e31b81526044356004820152909291506020816024817f00000000000000000000000000000000000000000000000000000000000000006001600160a01b03165afa90811561253a578591612d1c575b50604051636455ce8d60e11b81526044356004820152906020826024817f00000000000000000000000000000000000000000000000000000000000000006001600160a01b03165afa918215611a02578692612ce0575b50604051612a9181613724565b8481528660208201528660408201528660608201528660808201528660a082015260018060a01b03841660c082015260ff821660e082015260ff831661010082015260ff861661012082015260ff8616875260016020526002604088200160018060a01b03851688526020526040872090612b3160ff60208351828151168319875416178655015116839061ff0082549160081b169061ff001916179055565b6020810151916007831015612ccc576001612b4e91019283613b0a565b6040810151825461ff00191660089190911b61ff001617825560608101516007811015612ccc57612b7f9083613b22565b6080810151825463ff000000191660189190911b63ff0000001617825560a0810151151590825465010000000000600160c81b0360c083015160281b1660ff60c81b60e084015160c81b169164ff0000000060ff60d01b61010086015160d01b169461012060ff60d81b91015160d81b169560201b169063ffffffff8060e01b01161717171717905560ff8516865260016020526003604087200180549068010000000000000000821015612cb85791612c6a85611ed784612cb29660017f5e5c5018f010da587f4ea3677380307dc0fb74d57d455db252799686dbfbd0599b9a9997018155613bf7565b84516020958601516040805160ff9a8b168152928a16978301979097528816958101959095528616606085015290941660808301526001600160a01b031692819060a0820190565b0390a280f35b634e487b7160e01b88526041600452602488fd5b634e487b7160e01b89526021600452602489fd5b9091506020813d602011612d14575b81612cfc60209383613740565b810103126110ea57612d0d90613b65565b9038612a84565b3d9150612cef565b90506020813d602011612d4e575b81612d3760209383613740565b810103126110ee57612d4890613b65565b38612a2d565b3d9150612d2a565b60ff9182168084526001602081815260408087206001600160a01b0390951680885260029586018352818820549488529282528087208388529094019052938290205491516308538db760e41b815260048101949094528216602484015260081c166044820152606490fd5b5060ff82811684526001602090815260408086206001600160a01b038516875260020190915284205460081c1615156126e6565b604051634319813760e01b81526001600160a01b03909116600482015260448035602483015290fd5b90506020813d602011612e59575b81612e3a60209383613740565b810103126110f257516001600160a01b03811681036110f257386126a2565b3d9150612e2d565b6040513d86823e3d90fd5b50346103dc57806003193601126103dc57612e85613902565b80546001600160a01b03198116825581906001600160a01b03167f8be0079c531659141344cd1fd0a4f28419497f9722a3daafe3b4186f6b6457e08280a380f35b50346103dc5736600319016060811261104d576040136103dc57604051612eec816136ee565b60ff9060043582811681036110f257815260243582811681036110f2576020820152604435908282168083036110ee57916080918593612f7e966060604051612f3481613709565b828152826020820152826040820152015284526001602052612f6360018660046040882001541615151461398a565b6040516326811c4360e11b8152958692839260048401613e59565b03817f00000000000000000000000000000000000000000000000000000000000000006001600160a01b03165afa928315611058578193612fec575b608083606086604051928082511684526020820151166020840152604081015115156040840152015115156060820152f35b90925060803d8111613025575b6130038183613740565b8101926080828503126103dc575061301f608093606092613c1c565b92612fba565b503d612ff9565b50346103dc5760208060031936011261104d5760ff918261304b613761565b169081815260019384845261306c858260046040862001541615151461398a565b60405163436fadf360e11b815260048101939093527f00000000000000000000000000000000000000000000000000000000000000006001600160a01b031690602485858281865afa948515612e6157849561335f575b50816130ce86613fb3565b9516948786019083821161334c576130f56130f06130fb9386939b999b613fc7565b613fde565b16613ce4565b96604051613108816136ee565b818152818882015261311989613ab6565b5261312388613ab6565b5085805b613187575b50505050506040519280840190808552855180925280604086019601925b8281106131575785870386f35b909192938260408861317a849a895160ff60208092828151168552015116910152565b019795019392910161314a565b8381999799168281116133435760001901848111613330576131b56130f0836131b08894613fb3565b613fc7565b166131e087836131c48b613ab6565b516040516301cf2e2560e51b8152938492839260048401613e59565b03818a5afa9081156124f3578891613294575b508a95949392919088875b61321a575b50505061320f90613c6f565b909192939698613127565b908092939495969750518c88831691821015613289575061323b8184613ad9565b51908401908185116132765791613263828f9461325c8f9561326996613ad9565b528d613ad9565b50613c6f565b81979695949392916131fe565b634e487b7160e01b8b526011600452878bfd5b979695949350613203565b90503d8089833e6132a58183613740565b8101908a8183031261084a578051906001600160401b0382116110d2570181601f8201121561084a5780516132d9816137f9565b926132e76040519485613740565b8184528c8085019260061b8401019281841161332c578d01915b8d848410613314575050505050386131f3565b6040916133218486613b73565b815201920191613301565b8b80fd5b634e487b7160e01b875260116004528387fd5b5097959761312c565b634e487b7160e01b865260116004528286fd5b9094508581813d831161338f575b6133778183613740565b810103126110f25761338890613b65565b93386130c3565b503d61336d565b50346103dc57602090816003193601126103dc5760ff6133b4613761565b16808252600183526133d4600160ff60046040862001541615151461398a565b60405163436fadf360e11b8152600481019190915282816024817f00000000000000000000000000000000000000000000000000000000000000006001600160a01b03165afa91821561346d578092613435575b505060ff60405191168152f35b9091508282813d8311613466575b61344d8183613740565b810103126103dc575061345f90613b65565b3880613428565b503d613443565b604051903d90823e3d90fd5b50346103dc57806003193601126103dc576002546040516001600160a01b039091168152602090f35b50346103dc576134b136613781565b919260ff8581808616948583526135106001986134df8a8560046040602099848b522001541615151461398a565b604051631cf8a32160e01b8152875160ff9081166004830152602090980151909716602488015260448701906138df565b166064840152608483018490526001600160a01b039260608160a4817f000000000000000000000000000000000000000000000000000000000000000088165afa9081156124f35788908992613660575b501561360457508387528581526135848683600460408b2001541615151461398a565b869384875b6135a1575b505050505061359e925033613d6a565b80f35b81895287835260038060408b2001805486841610156135fd576135c5838892613bf7565b929092339354911b1c16146135e857906135e0889392613c6f565b909192613589565b94505050505061359e9250388080808061358e565b505061358e565b8194955061359e96935082815116868952848352600260408a2001338a528352604089209060ff198254161790550151169285528152600260408520019033855252604083209061ff0082549160081b169061ff001916179055565b905061367a915060603d811161170e576116fe8183613740565b9038613561565b90503461104d57602036600319011261104d5760ff604060c0936004358152600160205220805490600483600183015416910154918452602084015281811615156040840152818160081c1615156060840152818160101c161515608084015260181c16151560a0820152f35b604081019081106001600160401b0382111761109357604052565b608081019081106001600160401b0382111761109357604052565b61014081019081106001600160401b0382111761109357604052565b90601f801991011681019081106001600160401b0382111761109357604052565b6004359060ff821682036110ad57565b6024359060ff821682036110ad57565b6003190160a081126110ad576040136110ad576040516137a0816136ee565b6137a8613761565b81526137b2613771565b60208201529060443560078110156110ad579060643560ff811681036110ad579060843560ff811681036110ad5790565b600435906001600160a01b03821682036110ad57565b6001600160401b0381116110935760051b60200190565b81601f820112156110ad57803591613827836137f9565b926138356040519485613740565b808452602092838086019260051b8201019283116110ad578301905b82821061385f575050505090565b813560078110156110ad578152908301908301613851565b81601f820112156110ad5780359161388e836137f9565b9261389c6040519485613740565b808452602092838086019260051b8201019283116110ad578301905b8282106138c6575050505090565b813560ff811681036110ad5781529083019083016138b8565b9060078210156138ec5752565b634e487b7160e01b600052602160045260246000fd5b6000546001600160a01b0316330361391657565b60405163118cdaa760e01b8152336004820152602490fd5b1561393557565b60405162461bcd60e51b815260206004820152602760248201527f43616c6c6572206973206e6f742074686520726567697374726174696f6e20636044820152661bdb9d1c9858dd60ca1b6064820152608490fd5b1561399157565b60405162461bcd60e51b815260206004820152601960248201527f47616d6520686173206e6f7420737461727465642079657421000000000000006044820152606490fd5b602060ff7f1b6143a1b1d77ae88590d660e0164f9edf35dd3d002f5de8a6ecf46a3c3ba0e392168060005260018252613a1e600160ff6004604060002001541615151461398a565b806000526001825260046040600020016201000062ff000019825416179055604051908152a1565b15613a4d57565b606460405162461bcd60e51b815260206004820152602060248201527f417272617973206d7573742068617665207468652073616d65206c656e6774686044820152fd5b6000198114613aa05760010190565b634e487b7160e01b600052601160045260246000fd5b805115613ac35760200190565b634e487b7160e01b600052603260045260246000fd5b8051821015613ac35760209160051b010190565b5160078110156138ec5790565b60078110156138ec5760f81b9052565b9060078110156138ec5760ff80198354169116179055565b9060078110156138ec5762ff000082549160101b169062ff00001916179055565b90604051613b50816136ee565b602060ff829454818116845260081c16910152565b519060ff821682036110ad57565b91908260409103126110ad57604051613b8b816136ee565b6020613ba4818395613b9c81613b65565b855201613b65565b910152565b916060919493613bdc60ff92613bd286608081019960ff60208092828151168552015116910152565b60408601906138df565b16910152565b805415613ac357600052602060002090600090565b8054821015613ac35760005260206000200190600090565b519081151582036110ad57565b91908260809103126110ad57604051613c3481613709565b6060613ba4818395613c4581613b65565b8552613c5360208201613b65565b6020860152613c6460408201613c0f565b604086015201613c0f565b60ff1660ff8114613aa05760010190565b60078210156138ec5752565b80548015613cbe576000190190613cbb613ca68383613bf7565b81549060018060a01b039060031b1b19169055565b55565b634e487b7160e01b600052603160045260246000fd5b60ff168015613aa0576000190190565b90613cee826137f9565b604090613cfd82519182613740565b8381528093613d0e601f19916137f9565b0191600090815b848110613d23575050505050565b6020908251613d31816136ee565b848152828581830152828701015201613d15565b91906060838203126110ad57613d67906020613d6085613c0f565b9401613b73565b90565b909160ff166000908082526001906020908282526040946003868620015460ff88161015613e155792613ca69592826003958794613e139a9852838352613dbd8460ff600489892001541615151461398a565b60018060a01b0316807fabe2a4edb03972506a4064b683e5482b1f09f2fb96bd4463b7b15b38cbd5b186848851858152a28185528383526002868620019085528252838386822082815501558352522001613bf7565b565b855162461bcd60e51b815260048101849052601860248201527f496e6465782076616c7565206f7574206f662072616e676500000000000000006044820152606490fd5b90929160ff604091613bdc84606081019760ff60208092828151168552015116910152565b6040805163436fadf360e11b815260ff9092166004830181905290916020919082816024817f00000000000000000000000000000000000000000000000000000000000000006001600160a01b03165afa908115613fa857600091613f48575b50907f44d8fc4a70679f71d5b762b5218cbfb0c858bb7e015b1effe03793d2909c20f66060600194938360005285855286600020613f1c8154613a91565b90558360005285855260ff876000205491885192868452878401521687820152a1600052526000205490565b908382813d8311613fa1575b613f5e8183613740565b810103126103dc5750907f44d8fc4a70679f71d5b762b5218cbfb0c858bb7e015b1effe03793d2909c20f66060613f9760019594613b65565b9293945050613ede565b503d613f54565b84513d6000823e3d90fd5b60ff166003029060ff8216918203613aa057565b9060ff8091169116029060ff8216918203613aa057565b60ff166001019060ff8211613aa057565b919082519283825260005b84811061401b575050826000602080949584010152601f8019910116010190565b602081830181015184830182015201613ffa56fea2646970667358221220b7fddeed87392b6dc65fd26600287c079b9d2f1cfce5f460accf7bf23640394f64736f6c63430008140033",
  "linkReferences": {},
  "deployedLinkReferences": {}
}