{
  "_format": "hh-sol-artifact-1",
  "contractName": "GamePunk",
  "sourceName": "contracts/GamePunk.sol",
  "abi": [
    {
      "inputs": [
        {
          "internalType": "address",
          "name": "_mapAddress",
          "type": "address"
        },
        {
          "internalType": "address",
          "name": "_punkshipsAddress",
          "type": "address"
        }
      ],
      "stateMutability": "nonpayable",
      "type": "constructor"
    },
    {
      "inputs": [
        {
          "internalType": "address",
          "name": "player",
          "type": "address"
        },
        {
          "internalType": "uint256",
          "name": "tokenId",
          "type": "uint256"
        }
      ],
      "name": "NotOwnerOfShip",
      "type": "error"
    },
    {
      "inputs": [
        {
          "internalType": "address",
          "name": "owner",
          "type": "address"
        }
      ],
      "name": "OwnableInvalidOwner",
      "type": "error"
    },
    {
      "inputs": [
        {
          "internalType": "address",
          "name": "account",
          "type": "address"
        }
      ],
      "name": "OwnableUnauthorizedAccount",
      "type": "error"
    },
    {
      "inputs": [
        {
          "internalType": "address",
          "name": "player",
          "type": "address"
        },
        {
          "internalType": "uint8",
          "name": "q",
          "type": "uint8"
        },
        {
          "internalType": "uint8",
          "name": "r",
          "type": "uint8"
        }
      ],
      "name": "ShipAlreadyAdded",
      "type": "error"
    },
    {
      "anonymous": false,
      "inputs": [
        {
          "indexed": false,
          "internalType": "uint256",
          "name": "gameId",
          "type": "uint256"
        },
        {
          "indexed": false,
          "internalType": "uint8",
          "name": "q",
          "type": "uint8"
        },
        {
          "indexed": false,
          "internalType": "uint8",
          "name": "r",
          "type": "uint8"
        },
        {
          "indexed": false,
          "internalType": "bool",
          "name": "island",
          "type": "bool"
        }
      ],
      "name": "Cell",
      "type": "event"
    },
    {
      "anonymous": false,
      "inputs": [
        {
          "indexed": false,
          "internalType": "uint256",
          "name": "gameId",
          "type": "uint256"
        },
        {
          "indexed": false,
          "internalType": "uint8",
          "name": "q",
          "type": "uint8"
        },
        {
          "indexed": false,
          "internalType": "uint8",
          "name": "r",
          "type": "uint8"
        }
      ],
      "name": "CellDeleted",
      "type": "event"
    },
    {
      "anonymous": false,
      "inputs": [
        {
          "indexed": false,
          "internalType": "uint256",
          "name": "gameId",
          "type": "uint256"
        }
      ],
      "name": "CommitPhaseStarted",
      "type": "event"
    },
    {
      "anonymous": false,
      "inputs": [
        {
          "indexed": false,
          "internalType": "uint256",
          "name": "gameId",
          "type": "uint256"
        }
      ],
      "name": "GameEnded",
      "type": "event"
    },
    {
      "anonymous": false,
      "inputs": [
        {
          "indexed": false,
          "internalType": "uint256",
          "name": "gameId",
          "type": "uint256"
        }
      ],
      "name": "GameStarted",
      "type": "event"
    },
    {
      "anonymous": false,
      "inputs": [
        {
          "indexed": true,
          "internalType": "bool",
          "name": "gameStatus",
          "type": "bool"
        },
        {
          "indexed": true,
          "internalType": "address",
          "name": "winnerAddress",
          "type": "address"
        },
        {
          "indexed": false,
          "internalType": "uint256",
          "name": "gameId",
          "type": "uint256"
        }
      ],
      "name": "GameUpdated",
      "type": "event"
    },
    {
      "anonymous": false,
      "inputs": [
        {
          "indexed": true,
          "internalType": "address",
          "name": "winner",
          "type": "address"
        },
        {
          "indexed": false,
          "internalType": "uint256",
          "name": "gameId",
          "type": "uint256"
        }
      ],
      "name": "GameWinner",
      "type": "event"
    },
    {
      "anonymous": false,
      "inputs": [
        {
          "indexed": false,
          "internalType": "uint8",
          "name": "radius",
          "type": "uint8"
        },
        {
          "indexed": false,
          "internalType": "uint256",
          "name": "gameId",
          "type": "uint256"
        },
        {
          "indexed": false,
          "internalType": "uint8",
          "name": "mapShrink",
          "type": "uint8"
        }
      ],
      "name": "MapInitialized",
      "type": "event"
    },
    {
      "anonymous": false,
      "inputs": [
        {
          "indexed": false,
          "internalType": "uint256",
          "name": "gameId",
          "type": "uint256"
        }
      ],
      "name": "MapShrink",
      "type": "event"
    },
    {
      "anonymous": false,
      "inputs": [
        {
          "indexed": true,
          "internalType": "address",
          "name": "player",
          "type": "address"
        },
        {
          "indexed": false,
          "internalType": "uint256",
          "name": "gameId",
          "type": "uint256"
        },
        {
          "indexed": false,
          "internalType": "bytes32",
          "name": "moveHash",
          "type": "bytes32"
        }
      ],
      "name": "MoveCommitted",
      "type": "event"
    },
    {
      "anonymous": false,
      "inputs": [
        {
          "indexed": true,
          "internalType": "address",
          "name": "player",
          "type": "address"
        },
        {
          "indexed": false,
          "internalType": "uint256",
          "name": "gameId",
          "type": "uint256"
        },
        {
          "indexed": false,
          "internalType": "uint256",
          "name": "roundId",
          "type": "uint256"
        },
        {
          "indexed": false,
          "internalType": "uint8",
          "name": "destQ",
          "type": "uint8"
        },
        {
          "indexed": false,
          "internalType": "uint8",
          "name": "destR",
          "type": "uint8"
        },
        {
          "indexed": false,
          "internalType": "uint8",
          "name": "shotQ",
          "type": "uint8"
        },
        {
          "indexed": false,
          "internalType": "uint8",
          "name": "shotR",
          "type": "uint8"
        }
      ],
      "name": "MoveSubmitted",
      "type": "event"
    },
    {
      "anonymous": false,
      "inputs": [
        {
          "indexed": false,
          "internalType": "address[]",
          "name": "players",
          "type": "address[]"
        },
        {
          "indexed": false,
          "internalType": "uint256",
          "name": "gameId",
          "type": "uint256"
        }
      ],
      "name": "MutualShot",
      "type": "event"
    },
    {
      "anonymous": false,
      "inputs": [
        {
          "indexed": false,
          "internalType": "uint256",
          "name": "gameId",
          "type": "uint256"
        },
        {
          "indexed": false,
          "internalType": "uint256",
          "name": "roundId",
          "type": "uint256"
        },
        {
          "indexed": false,
          "internalType": "uint8",
          "name": "radius",
          "type": "uint8"
        }
      ],
      "name": "NewRound",
      "type": "event"
    },
    {
      "anonymous": false,
      "inputs": [
        {
          "indexed": true,
          "internalType": "address",
          "name": "previousOwner",
          "type": "address"
        },
        {
          "indexed": true,
          "internalType": "address",
          "name": "newOwner",
          "type": "address"
        }
      ],
      "name": "OwnershipTransferred",
      "type": "event"
    },
    {
      "anonymous": false,
      "inputs": [
        {
          "indexed": true,
          "internalType": "address",
          "name": "player",
          "type": "address"
        },
        {
          "indexed": false,
          "internalType": "uint256",
          "name": "gameId",
          "type": "uint256"
        },
        {
          "indexed": false,
          "internalType": "uint256",
          "name": "punkshipId",
          "type": "uint256"
        },
        {
          "indexed": false,
          "internalType": "uint8",
          "name": "q",
          "type": "uint8"
        },
        {
          "indexed": false,
          "internalType": "uint8",
          "name": "r",
          "type": "uint8"
        },
        {
          "indexed": false,
          "internalType": "uint8",
          "name": "speed",
          "type": "uint8"
        },
        {
          "indexed": false,
          "internalType": "uint8",
          "name": "range",
          "type": "uint8"
        },
        {
          "indexed": false,
          "internalType": "string",
          "name": "image",
          "type": "string"
        }
      ],
      "name": "PlayerAdded",
      "type": "event"
    },
    {
      "anonymous": false,
      "inputs": [
        {
          "indexed": true,
          "internalType": "address",
          "name": "player",
          "type": "address"
        },
        {
          "indexed": false,
          "internalType": "uint256",
          "name": "gameId",
          "type": "uint256"
        }
      ],
      "name": "PlayerDefeated",
      "type": "event"
    },
    {
      "anonymous": false,
      "inputs": [
        {
          "indexed": true,
          "internalType": "address",
          "name": "captain",
          "type": "address"
        },
        {
          "indexed": false,
          "internalType": "uint256",
          "name": "gameId",
          "type": "uint256"
        },
        {
          "indexed": false,
          "internalType": "uint8",
          "name": "q",
          "type": "uint8"
        },
        {
          "indexed": false,
          "internalType": "uint8",
          "name": "r",
          "type": "uint8"
        }
      ],
      "name": "ShipCollidedWithIsland",
      "type": "event"
    },
    {
      "anonymous": false,
      "inputs": [
        {
          "indexed": true,
          "internalType": "address",
          "name": "victim",
          "type": "address"
        },
        {
          "indexed": true,
          "internalType": "address",
          "name": "attacker",
          "type": "address"
        },
        {
          "indexed": false,
          "internalType": "uint256",
          "name": "gameId",
          "type": "uint256"
        }
      ],
      "name": "ShipHit",
      "type": "event"
    },
    {
      "anonymous": false,
      "inputs": [
        {
          "indexed": true,
          "internalType": "address",
          "name": "captain",
          "type": "address"
        },
        {
          "indexed": false,
          "internalType": "uint8",
          "name": "initialQ",
          "type": "uint8"
        },
        {
          "indexed": false,
          "internalType": "uint8",
          "name": "initialR",
          "type": "uint8"
        },
        {
          "indexed": false,
          "internalType": "uint8",
          "name": "q",
          "type": "uint8"
        },
        {
          "indexed": false,
          "internalType": "uint8",
          "name": "r",
          "type": "uint8"
        },
        {
          "indexed": false,
          "internalType": "uint256",
          "name": "gameId",
          "type": "uint256"
        }
      ],
      "name": "ShipMoved",
      "type": "event"
    },
    {
      "anonymous": false,
      "inputs": [
        {
          "indexed": true,
          "internalType": "address",
          "name": "captain",
          "type": "address"
        },
        {
          "indexed": false,
          "internalType": "uint256",
          "name": "gameId",
          "type": "uint256"
        }
      ],
      "name": "ShipMovedInGame",
      "type": "event"
    },
    {
      "anonymous": false,
      "inputs": [
        {
          "indexed": true,
          "internalType": "address",
          "name": "captain",
          "type": "address"
        },
        {
          "indexed": false,
          "internalType": "uint8",
          "name": "fromQ",
          "type": "uint8"
        },
        {
          "indexed": false,
          "internalType": "uint8",
          "name": "fromR",
          "type": "uint8"
        },
        {
          "indexed": false,
          "internalType": "uint8",
          "name": "shotQ",
          "type": "uint8"
        },
        {
          "indexed": false,
          "internalType": "uint8",
          "name": "shotR",
          "type": "uint8"
        },
        {
          "indexed": false,
          "internalType": "uint256",
          "name": "gameId",
          "type": "uint256"
        }
      ],
      "name": "ShipShot",
      "type": "event"
    },
    {
      "anonymous": false,
      "inputs": [
        {
          "indexed": true,
          "internalType": "address",
          "name": "captain",
          "type": "address"
        },
        {
          "indexed": false,
          "internalType": "uint256",
          "name": "gameId",
          "type": "uint256"
        }
      ],
      "name": "ShipSunk",
      "type": "event"
    },
    {
      "anonymous": false,
      "inputs": [
        {
          "indexed": true,
          "internalType": "address",
          "name": "captain",
          "type": "address"
        },
        {
          "indexed": false,
          "internalType": "uint256",
          "name": "gameId",
          "type": "uint256"
        }
      ],
      "name": "ShipSunkOutOfMap",
      "type": "event"
    },
    {
      "anonymous": false,
      "inputs": [
        {
          "indexed": false,
          "internalType": "uint256",
          "name": "gameId",
          "type": "uint256"
        },
        {
          "indexed": false,
          "internalType": "uint256",
          "name": "round",
          "type": "uint256"
        }
      ],
      "name": "SubmitPhaseStarted",
      "type": "event"
    },
    {
      "anonymous": false,
      "inputs": [
        {
          "indexed": false,
          "internalType": "uint256",
          "name": "gameId",
          "type": "uint256"
        }
      ],
      "name": "WorldUpdated",
      "type": "event"
    },
    {
      "stateMutability": "nonpayable",
      "type": "fallback"
    },
    {
      "inputs": [
        {
          "internalType": "address",
          "name": "playerAddress",
          "type": "address"
        },
        {
          "internalType": "uint256",
          "name": "gameId",
          "type": "uint256"
        },
        {
          "internalType": "uint256",
          "name": "_punkshipId",
          "type": "uint256"
        }
      ],
      "name": "addShip",
      "outputs": [],
      "stateMutability": "nonpayable",
      "type": "function"
    },
    {
      "inputs": [
        {
          "internalType": "bytes32",
          "name": "moveHash",
          "type": "bytes32"
        },
        {
          "internalType": "uint256",
          "name": "gameId",
          "type": "uint256"
        }
      ],
      "name": "commitMove",
      "outputs": [],
      "stateMutability": "nonpayable",
      "type": "function"
    },
    {
      "inputs": [
        {
          "internalType": "enum SharedStructs.Directions",
          "name": "_travelDirection",
          "type": "uint8"
        },
        {
          "internalType": "uint8",
          "name": "_travelDistance",
          "type": "uint8"
        },
        {
          "internalType": "enum SharedStructs.Directions",
          "name": "_shotDirection",
          "type": "uint8"
        },
        {
          "internalType": "uint8",
          "name": "_shotDistance",
          "type": "uint8"
        },
        {
          "internalType": "uint8",
          "name": "_secret",
          "type": "uint8"
        },
        {
          "internalType": "address",
          "name": "_playerAddress",
          "type": "address"
        }
      ],
      "name": "encodeCommitment",
      "outputs": [
        {
          "internalType": "bytes32",
          "name": "",
          "type": "bytes32"
        }
      ],
      "stateMutability": "pure",
      "type": "function"
    },
    {
      "inputs": [
        {
          "internalType": "uint256",
          "name": "",
          "type": "uint256"
        }
      ],
      "name": "games",
      "outputs": [
        {
          "internalType": "uint256",
          "name": "round",
          "type": "uint256"
        },
        {
          "internalType": "uint8",
          "name": "shrinkNo",
          "type": "uint8"
        },
        {
          "internalType": "uint8",
          "name": "mapShrink",
          "type": "uint8"
        },
        {
          "internalType": "bool",
          "name": "gameInProgress",
          "type": "bool"
        },
        {
          "internalType": "bool",
          "name": "stopAddingShips",
          "type": "bool"
        },
        {
          "internalType": "bool",
          "name": "letCommitMoves",
          "type": "bool"
        },
        {
          "internalType": "bool",
          "name": "letSubmitMoves",
          "type": "bool"
        }
      ],
      "stateMutability": "view",
      "type": "function"
    },
    {
      "inputs": [
        {
          "components": [
            {
              "internalType": "uint8",
              "name": "q",
              "type": "uint8"
            },
            {
              "internalType": "uint8",
              "name": "r",
              "type": "uint8"
            }
          ],
          "internalType": "struct SharedStructs.Coordinate",
          "name": "_coord",
          "type": "tuple"
        },
        {
          "internalType": "uint256",
          "name": "gameId",
          "type": "uint256"
        }
      ],
      "name": "getCell",
      "outputs": [
        {
          "components": [
            {
              "internalType": "uint8",
              "name": "q",
              "type": "uint8"
            },
            {
              "internalType": "uint8",
              "name": "r",
              "type": "uint8"
            },
            {
              "internalType": "bool",
              "name": "island",
              "type": "bool"
            },
            {
              "internalType": "bool",
              "name": "exists",
              "type": "bool"
            }
          ],
          "internalType": "struct SharedStructs.Cell",
          "name": "",
          "type": "tuple"
        }
      ],
      "stateMutability": "view",
      "type": "function"
    },
    {
      "inputs": [
        {
          "internalType": "uint256",
          "name": "gameId",
          "type": "uint256"
        }
      ],
      "name": "getCoordinates",
      "outputs": [
        {
          "components": [
            {
              "internalType": "uint8",
              "name": "q",
              "type": "uint8"
            },
            {
              "internalType": "uint8",
              "name": "r",
              "type": "uint8"
            }
          ],
          "internalType": "struct SharedStructs.Coordinate[]",
          "name": "",
          "type": "tuple[]"
        }
      ],
      "stateMutability": "view",
      "type": "function"
    },
    {
      "inputs": [
        {
          "internalType": "uint256",
          "name": "gameId",
          "type": "uint256"
        }
      ],
      "name": "getRadius",
      "outputs": [
        {
          "internalType": "uint8",
          "name": "",
          "type": "uint8"
        }
      ],
      "stateMutability": "view",
      "type": "function"
    },
    {
      "inputs": [
        {
          "internalType": "uint256",
          "name": "gameId",
          "type": "uint256"
        }
      ],
      "name": "getShips",
      "outputs": [
        {
          "components": [
            {
              "components": [
                {
                  "internalType": "uint8",
                  "name": "q",
                  "type": "uint8"
                },
                {
                  "internalType": "uint8",
                  "name": "r",
                  "type": "uint8"
                }
              ],
              "internalType": "struct SharedStructs.Coordinate",
              "name": "coordinate",
              "type": "tuple"
            },
            {
              "internalType": "enum SharedStructs.Directions",
              "name": "travelDirection",
              "type": "uint8"
            },
            {
              "internalType": "uint8",
              "name": "travelDistance",
              "type": "uint8"
            },
            {
              "internalType": "enum SharedStructs.Directions",
              "name": "shotDirection",
              "type": "uint8"
            },
            {
              "internalType": "uint8",
              "name": "shotDistance",
              "type": "uint8"
            },
            {
              "internalType": "bool",
              "name": "publishedMove",
              "type": "bool"
            },
            {
              "internalType": "address",
              "name": "captain",
              "type": "address"
            },
            {
              "internalType": "uint8",
              "name": "yachtSpeed",
              "type": "uint8"
            },
            {
              "internalType": "uint8",
              "name": "yachtRange",
              "type": "uint8"
            },
            {
              "internalType": "uint256",
              "name": "gameId",
              "type": "uint256"
            },
            {
              "internalType": "uint256",
              "name": "punkshipId",
              "type": "uint256"
            }
          ],
          "internalType": "struct GamePunk.Ship[]",
          "name": "",
          "type": "tuple[]"
        }
      ],
      "stateMutability": "view",
      "type": "function"
    },
    {
      "inputs": [
        {
          "components": [
            {
              "internalType": "uint8",
              "name": "q",
              "type": "uint8"
            },
            {
              "internalType": "uint8",
              "name": "r",
              "type": "uint8"
            }
          ],
          "internalType": "struct SharedStructs.Coordinate",
          "name": "_start",
          "type": "tuple"
        },
        {
          "internalType": "enum SharedStructs.Directions",
          "name": "_dir",
          "type": "uint8"
        },
        {
          "internalType": "uint8",
          "name": "_distance",
          "type": "uint8"
        },
        {
          "internalType": "uint256",
          "name": "gameId",
          "type": "uint256"
        }
      ],
      "name": "move",
      "outputs": [
        {
          "components": [
            {
              "internalType": "uint8",
              "name": "q",
              "type": "uint8"
            },
            {
              "internalType": "uint8",
              "name": "r",
              "type": "uint8"
            }
          ],
          "internalType": "struct SharedStructs.Coordinate",
          "name": "",
          "type": "tuple"
        }
      ],
      "stateMutability": "view",
      "type": "function"
    },
    {
      "inputs": [],
      "name": "owner",
      "outputs": [
        {
          "internalType": "address",
          "name": "",
          "type": "address"
        }
      ],
      "stateMutability": "view",
      "type": "function"
    },
    {
      "inputs": [],
      "name": "registrationContract",
      "outputs": [
        {
          "internalType": "address",
          "name": "",
          "type": "address"
        }
      ],
      "stateMutability": "view",
      "type": "function"
    },
    {
      "inputs": [],
      "name": "renounceOwnership",
      "outputs": [],
      "stateMutability": "nonpayable",
      "type": "function"
    },
    {
      "inputs": [
        {
          "internalType": "address",
          "name": "_registrationContract",
          "type": "address"
        }
      ],
      "name": "setRegistrationContract",
      "outputs": [],
      "stateMutability": "nonpayable",
      "type": "function"
    },
    {
      "inputs": [
        {
          "internalType": "uint256",
          "name": "_gameId",
          "type": "uint256"
        },
        {
          "internalType": "uint8",
          "name": "_radius",
          "type": "uint8"
        },
        {
          "internalType": "uint8",
          "name": "_mapShrink",
          "type": "uint8"
        }
      ],
      "name": "startNewGame",
      "outputs": [],
      "stateMutability": "nonpayable",
      "type": "function"
    },
    {
      "inputs": [
        {
          "internalType": "enum SharedStructs.Directions[]",
          "name": "_travelDirections",
          "type": "uint8[]"
        },
        {
          "internalType": "uint8[]",
          "name": "_travelDistances",
          "type": "uint8[]"
        },
        {
          "internalType": "enum SharedStructs.Directions[]",
          "name": "_shotDirections",
          "type": "uint8[]"
        },
        {
          "internalType": "uint8[]",
          "name": "_shotDistances",
          "type": "uint8[]"
        },
        {
          "internalType": "uint8[]",
          "name": "_secrets",
          "type": "uint8[]"
        },
        {
          "internalType": "address[]",
          "name": "_playerAddresses",
          "type": "address[]"
        },
        {
          "internalType": "uint256",
          "name": "gameId",
          "type": "uint256"
        }
      ],
      "name": "submitMove",
      "outputs": [],
      "stateMutability": "nonpayable",
      "type": "function"
    },
    {
      "inputs": [
        {
          "internalType": "address",
          "name": "newOwner",
          "type": "address"
        }
      ],
      "name": "transferOwnership",
      "outputs": [],
      "stateMutability": "nonpayable",
      "type": "function"
    },
    {
      "inputs": [
        {
          "components": [
            {
              "internalType": "uint8",
              "name": "q",
              "type": "uint8"
            },
            {
              "internalType": "uint8",
              "name": "r",
              "type": "uint8"
            }
          ],
          "internalType": "struct SharedStructs.Coordinate",
          "name": "_startCell",
          "type": "tuple"
        },
        {
          "internalType": "enum SharedStructs.Directions",
          "name": "_direction",
          "type": "uint8"
        },
        {
          "internalType": "uint8",
          "name": "_distance",
          "type": "uint8"
        },
        {
          "internalType": "uint256",
          "name": "gameId",
          "type": "uint256"
        }
      ],
      "name": "travel",
      "outputs": [],
      "stateMutability": "nonpayable",
      "type": "function"
    },
    {
      "inputs": [
        {
          "internalType": "uint256",
          "name": "gameId",
          "type": "uint256"
        }
      ],
      "name": "updateWorld",
      "outputs": [],
      "stateMutability": "nonpayable",
      "type": "function"
    }
  ],
  "bytecode": "0x60c0346200018457601f620051cc38819003918201601f19168301916001600160401b038311848410176200018957808492604094855283398101031262000184576200005a602062000052836200019f565b92016200019f565b9033156200016b5760008054336001600160a01b0319821681178355604051946001600160a01b0394909385939192918416907f8be0079c531659141344cd1fd0a4f28419497f9722a3daafe3b4186f6b6457e09080a3166080521660a0526150179081620001b582396080518181816103a00152818161065d01528181611204015281816113d20152818161167201528181611a63015281816122640152818161244c01528181612857015281816128d101528181612c0e01528181612e5c015281816138df01528181613aa301528181613fb3015281816140d5015281816142770152614e54015260a05181818161199801528181611be801528181611c4001528181611c980152614d0e0152f35b604051631e4fbdf760e01b815260006004820152602490fd5b600080fd5b634e487b7160e01b600052604160045260246000fd5b51906001600160a01b0382168203620001845756fe6080604052600436101561001a575b3461001557005b600080fd5b60003560e01c80630bf3781814614227578063117a5b90146141ab578063183b1baf146140565780631e522c3e1461402d5780636b082eed14613f61578063715018a614613f0857806378d59e0514613c025780638b7524b6146125085780638da5cb5b146124df57806394c1d2d9146123e45780639cc45f341461230a578063b173a147146121a4578063b39116fd14611920578063c13b811714611563578063d3db03cc14611520578063d837093c146101e8578063dcdb5897146101735763f2fde38b0361000e5734610015576020366003190112610015576100fe6146fd565b610106614713565b6001600160a01b0390811690811561015a57600054826bffffffffffffffffffffffff60a01b821617600055167f8be0079c531659141344cd1fd0a4f28419497f9722a3daafe3b4186f6b6457e0600080a3005b604051631e4fbdf760e01b815260006004820152602490fd5b346100155760c03660031901126100155760043560078110156100155761019861459c565b9060443560078110156100155760643560ff81168103610015576084359060ff821682036100155760a435926001600160a01b0384168403610015576020956101e09561494f565b604051908152f35b3461001557602036600319011261001557610201614713565b600435600052600160205261022060ff600460406000200154166147a0565b6004356000526001602052604060002060ff6001825492015460081c1690811561150a5706156111c2575b6004356000526001602052610267600360406000200154614bf7565b6004356000526001602052610283600360406000200154614c58565b9060005b60043560005260016020526003604060002001548110156102bd578060016102b26102b893866148be565b526147ec565b610287565b5060005b60043560005260016020526003604060002001805482101561057c57816102e791614826565b919060018060a01b03928391549060031b1c16600435600052600160205260026040600020018160005260205260406000206001810154848160281c16156103355760ff8160201c16610347575b50505061034291506147ec565b6102c1565b60ff9460405195869263183b1baf60e01b8452610376600485018660ff60209154818116845260081c16910152565b61038560448501838316614609565b60081c16606483015260043560848301528160a460609384937f0000000000000000000000000000000000000000000000000000000000000000165afa908115610570576103429560009160009361053e575b50506104a65781548151602080840180516040805160ff8781168252600888901c811695820195909552948416908501528216606084015260043560808401526104729594919390929091849188907f9db385e25deecca76e1e8dab29ae54e5c2f1707d2c611cfab0984b782e9f8a2c908060a081015b0390a251925161ff00198519909316919093161716911660081b61ff0016179055565b7f4a5516f0f1d85471405ad39e7a960ba9a7b312f2bdc784a6dce8402611417fd660206040516004358152a2848080610335565b80516020808301805160408051600435815260ff95861694810194909452908416908301526105399592939092849261050b919081907f2265cf35e234e961bc739ea7efb0e9751a34a8c56c1b547ff729d632c2ad21a090606090a260043590614caf565b6000610517888c6148be565b5251168219845416178355511661ff0082549160081b169061ff001916179055565b6147ec565b610561935080919250903d10610569575b610559818361457a565b810190614c8a565b9088806103d8565b503d61054f565b6040513d6000823e3d90fd5b828460005b600435600052600160205260036040600020015481101561074f576105a681836148be565b516105ba575b6105b5906147ec565b610581565b60043560005260016020526105d6816003604060002001614826565b919060018060a01b03928391549060031b1c1660043560005260016020526002604060002001816000526020526040600020604060ff608460018401548351978893849263d6192ad360e01b8452610640600485018960ff60209154818116845260081c16910152565b61065260448501838360101c16614609565b60181c1660648301527f0000000000000000000000000000000000000000000000000000000000000000165afa93841561057057600094610700575b5083600080516020614fa2833981519152916105b5956106ae868a6148be565b526106b985896148be565b505481516020928301516040805160ff808616825260089590951c85169581019590955291831691840191909152166060820152600435608082015260a090a290506105ac565b935060403d604011610748575b610717818661457a565b84019060408583031261001557610740600080516020614fa2833981519152926105b596614a74565b94509061068e565b503d61070d565b506000915b600435600052600160205260036040600020015483101561099e5761077983836148be565b5115610994576001830180841161097e575b600435600052600160205260036040600020015481101561096d57806107b461084f92856148be565b511561053957600435600052600160205260406000206107d78660038301614826565b60018060a01b0391549060031b1c166000526002809101602052604060002090600435600052600160205260406000206108148460038301614826565b60018060a01b0391549060031b1c16600052016020526040600020905490549060ff821660ff8216149182610955575b5050610854576147ec565b61078b565b600061086086866148be565b52600061086d82866148be565b526004356000526001602052602061088c866003604060002001614826565b60018060a01b0391549060031b1c1660405160043581527fd3530cd7a307ade37676af8529ec0105ea6204af5e1534bd5de4230810712371928391a260043560005260016020526108e4826003604060002001614826565b60018060a01b0391549060031b1c169060206040516004358152a2600435600052600160205261093661091e866003604060002001614826565b90546004359160031b1c6001600160a01b0316614caf565b600435600052600160205261053961091e826003604060002001614826565b60ff919250819060081c169160081c16148680610844565b5091610978906147ec565b91610754565b634e487b7160e01b600052601160045260246000fd5b91610978906147ec565b9060043560005260016020526109bb600360406000200154614c58565b6004356000526001602052600360406000200154926109d984614616565b936109e7604051958661457a565b8085526109f6601f1991614616565b0136602086013760005b6004356000526001602052600360406000200154811015610a3e57806000610a2b610a3993866148be565b526000196102b282886148be565b610a00565b50926000935b6004356000526001602052600360406000200154851015610b6757610a6985856148be565b5115610b5d5760005b6004356000526001602052600360406000200154811015610b4c5780610b049187148015610b3a575b61053957600435600052600160205260026040600020610abe8960038301614826565b60018060a01b0391549060031b1c16600052016020526040600020610ae382856148be565b519060ff82511690549060ff8216149182610b21575b5050610b09576147ec565b610a72565b6001610b1588876148be565b52806102b288866148be565b60ff919250602082910151169160081c16148880610af9565b50610b4581876148be565b5115610a9b565b5093610b57906147ec565b93610a44565b93610b57906147ec565b50906004356000526001602052610b85600360406000200154614c58565b926000805b6004356000526001602052600360406000200154811015610d9c57610baf81846148be565b5115610bc557610bbf81856148be565b51610bd3575b610bce906147ec565b610b8a565b90610bde82866148be565b51916004356000526001602052610bfc836003604060002001614826565b90546001600160a01b0360039290921b1c811690610c1a85886148be565b51151580610d89575b15610ced576004356000526001602052610c5681610c48856003604060002001614826565b90549060031b1c168a614de3565b15610cb2575b50610c678189614de3565b15610c93575b506000610c8a610bce939482610c8385896148be565b52866148be565b525b9050610bc5565b610c8a610caa846000936102b2610bce978d6148be565b935050610c6d565b92610ce691936004356000526001602052610cd4846003604060002001614826565b90549060031b1c166102b2828b6148be565b9188610c5c565b610bce939450610d8491600435600052600160205281610d14856003604060002001614826565b90549060031b1c167fbeaba0cb8f0bf4956e3f8756079b1aa20a9c7286167b8957d85188108991642d60206040516004358152a36000610d5484886148be565b526004356000526001602052610d71836003604060002001614826565b60049291923592549060031b1c16614caf565b610c8c565b5082610d95868a6148be565b5114610c23565b8583838061105d575b5090506004356000526001602052600360406000200154805b610fa9576004356000526001602052600360406000200180548015600014610e4d5750506000600080516020614fc283398151915260206040516004358152a26004356000526001602052600460406000200161010061ff00198254161790555b7f0ffee877d4bec4783459533ceddde8785dcd14454a9ebe37f1b3b8792509c36b60206040516004358152a1005b600103610ebe57506004356000526001602052610e7060036040600020016147fb565b60018060a01b0391549060031b1c16600080516020614fc283398151915260206040516004358152a26004356000526001602052600460406000200161010061ff0019825416179055610e1f565b610ec7906147fb565b9060018060a01b03918291549060031b1c1660007f6c5d9aa3894362f6fc8570afc4ad57ed5b0498a5e481b34ffccd61ee96cad12c60206040516004358152a360005b6004356000526001602052604060002090600382018054821015610f6b57610f669284610f3984600294614826565b90549060031b1c166000520160205260016040600020016206000664ffffffffff198254161790556147ec565b610f0a565b505050506004356000526001602052600460406000200163ff000000198154169055610f98600435614e33565b50610fa46004356148d2565b610e1f565b610fb290614ba7565b80610fbd81846148be565b51610dbe575060043560005260016020526003604060002001805490600019820191821161097e5761103c91610ff291614826565b60018060a01b0391549060031b1c16600435600052600160205261101d836003604060002001614826565b90919082549060031b9160018060a01b03809116831b921b1916179055565b6004356000526001602052806110586003604060002001614bb4565b610dbe565b61106681614c58565b9260005b82811061119b57505050604051604081016040825283518091526060820190602085019060005b81811061117c5750505090807f43c454d7d9739179cb8955fb1a87309459f577ba357c24735124f16f3bbea5a89260043560208301520390a16000905b8251821015611172576001600160a01b03926110f8600435856110f186856148be565b5116614caf565b60005b60043560005260016020526003604060002001805482101561116457611122828792614826565b90549060031b1c168561113586856148be565b51161461114a57611145906147ec565b6110fb565b82939194506102b260009161115e946148be565b906110ce565b505092509061115e906147ec565b9150508082610da5565b82516001600160a01b0316845260209384019390920191600101611091565b6111bd906001600160a01b036111b182856148be565b51166102b282886148be565b61106a565b600435600052600160205260ff60016040600020015416604051906335d5edab60e01b8252600435600483015260248201526000816044818360018060a01b037f0000000000000000000000000000000000000000000000000000000000000000165af1908115610570576000916114e7575b5060043560005260016020526001604060002001805460ff611258818316614ade565b169060ff19161790557ff47e725249069330b61eda3df25e7c3bcfd700624cbc7cbeabb0e28375bee53160206040516004358152a160005b81519060ff81169182101561131c577fe33d4c5f3e9def7d3f127618203849e9a1888f8e0a9fbffbcdc7d6dbd42b64448260ff60206112e0826112d6611317988a6148be565b51511693886148be565b510151169061130f6040519283926004358491604091949360ff80926060860197865216602085015216910152565b0390a1614ade565b611290565b5050506004356000526001602052600360406000200154805b61133f575061024b565b61134890614ba7565b6004356000526001602052611364816003604060002001614826565b60018060a01b0391549060031b1c16600435600052600160205260026040600020018160005260205261139a6040600020614a52565b60405163b173a14760e01b8152815160ff908116600483015260209092015190911660248201529060043560448301526080826064817f00000000000000000000000000000000000000000000000000000000000000006001600160a01b03165afa80156105705783926000916114a9575b50606001511561141d575b50611335565b6114589150807faf0f1f1c6dd1455929199c881d29a04680c9c20aff5f0331d8619ed875c58d1c60206040516004358152a260043590614caf565b60043560005260016020526003604060002001805490600019820191821161097e5761148791610ff291614826565b6004356000526001602052806114a36003604060002001614bb4565b82611417565b92505060803d6080116114e0575b6114c1818461457a565b8201608083820312610015576114da6060918594614859565b9061140c565b503d6114b7565b61150491503d806000833e6114fc818361457a565b810190614b1e565b81611235565b634e487b7160e01b600052601260045260246000fd5b34610015576020366003190112610015576115396146fd565b611541614713565b600280546001600160a01b0319166001600160a01b0392909216919091179055005b34610015576060806003193601126100155760043561158061459c565b906044359260ff938481169081810361001557600280546001600160a01b0397919690881633148015611913575b6115b79061473f565b8560005260019260209784895283600460406000200154166118c0576000888152858a5260408120600401805460ff191687179055859190825b611858575b5050508660005283885260036040600020018054906000815581611839575b50508260446000959493611650879461162d8c614e33565b508b8652878d528760408720019061ff0082549160081b169061ff001916179055565b604051968793849263af2f210960e01b8452169c8d60048401528b60248401527f0000000000000000000000000000000000000000000000000000000000000000165af19283156105705760009361179d575b506000825b611717575b7f50ad08f58a27f2851d7e3a1b3a6a46b290f2ce677e99642d30ff639721e7779088887fce444ef4ca2b2a7392fcd119e5c16b6af56ef7caef781ca922de0de696762fb9898d8a60405191825284868301526040820152a161170e816148d2565b604051908152a1005b835181101561179857807fe40ab56a2b71773fd8fa12379eac11a90b1a5a8b57fbdb4b84e4734d32a551e16080898b86611754611792978b6148be565b5151168782611763888d6148be565b51015116906040611774888d6148be565b51015115159260405194855284015260408301528a820152a16147ec565b826116a8565b6116ad565b9092503d806000833e6117b0818361457a565b81019087818303126100155780519067ffffffffffffffff8211610015570181601f820112156100155780516117e581614616565b926117f3604051948561457a565b818452898085019260071b84010192818411610015578a01915b8a84841061182157505050505091886116a3565b60809161182e8486614859565b81520192019161180d565b60005288600020908101905b8181101561161557600081558501611845565b89600052828b526040600020908c6003928381019182548410156118b7576118b194611885858895614826565b9054911b1c16600052018c52610539604060002060036000918281558260018201558260028201550155565b826115f1565b505050506115f6565b60405162461bcd60e51b8152600481018a9052602560248201527f47616d652077697468207468697320494420616c726561647920696e2070726f604482015264677265737360d81b6064820152608490fd5b50600054881633146115ae565b34610015576060366003190112610015576119396146fd565b6002546001600160a01b031633148015612190575b6119579061473f565b602435600052600160205261197b600160ff600460406000200154161515146147a0565b6040516331a9108f60e11b815260443560048201526020816024817f00000000000000000000000000000000000000000000000000000000000000006001600160a01b03165afa9081156105705760009161214e575b506001600160a01b03828116911603612125576024356000526001602052600260406000200160018060a01b03821660005260205260ff604060002054161515806120ef575b61209057604051611a2781614525565b6000815260006020820152600060015b15611bbd575b505060408051637128e56d60e11b815260248035600483015290926000928392859081857f00000000000000000000000000000000000000000000000000000000000000006001600160a01b03165af193841561057057600094611b82575b50839160005b60243560005260016020526040600020600390818101805460ff85161015611b745790611ad184600293614826565b60018060a01b03915490851b1c166000520160205260ff6040600020541660ff885116149081611b21575b50611b0f57611b0a90614ade565b611aa2565b5091935091506001905b929192611a37565b600291506024356000526001602052604060002090611b4284828401614826565b60018060a09493941b039254911b1c166000520160205260ff60406000205460081c1660ff6020880151161487611afc565b505050509092919350611b19565b90935060403d604011611bb6575b611b9a818361457a565b810160408282031261001557611baf91614a74565b9284611a9c565b503d611b90565b15611bc85780611a3d565b604051631986c9e960e31b815260443560048201529091906020816024817f00000000000000000000000000000000000000000000000000000000000000006001600160a01b03165afa90811561057057600091612056575b50604051636455ce8d60e11b81526044356004820152916020836024817f00000000000000000000000000000000000000000000000000000000000000006001600160a01b03165afa9283156105705760009361201a575b50604051631303d57d60e11b81526044356004820152936000856024817f00000000000000000000000000000000000000000000000000000000000000006001600160a01b03165afa94851561057057600095611f8a575b50604051611cde81614541565b81815260006020820152600060408201526000606082015260006080820152600060a082015260018060a01b03831660c082015260ff841660e082015260ff85166101008201526024356101208201526044356101408201526024356000526001602052600260406000200160018060a01b038416600052602052604060002090611d8e60ff60208351828151168319875416178655015116839061ff0082549160081b169061ff001916179055565b60208101516007811015611f7457611da99060018401614a19565b611dce60ff604083015116600184019061ff0082549160081b169061ff001916179055565b60608101516007811015611f7457600391611def6101409260018601614a31565b611e1860ff608083015116600186019063ff00000082549160181b169063ff0000001916179055565b60a08101511515600185015465010000000000600160c81b0360c084015160281b1660ff60c81b60e085015160c81b169164ff0000000060ff60d01b61010087015160d01b169460201b169063ffffffff64ffffffffff60d81b0116171717176001850155610120810151600285015501519101556024356000526001602052600360406000200191825468010000000000000000811015611f5e577f526c62f8fa999ff5dc01591b8086e17ed53753d49a9eca57e821d0c3f550efa395611eef8361101d8461010098600160ff97018155614826565b8180602081875116960151169660405197889660243588526044356020890152604088015260608701521660808501521660a083015260e060c0830152611f45865180978160e086015260208686019101614aef565b6001600160a01b031694601f01601f19168101030190a2005b634e487b7160e01b600052604160045260246000fd5b634e487b7160e01b600052602160045260246000fd5b9094503d90816000823e611f9e828261457a565b60208183810103126100155780519067ffffffffffffffff9081831161001557838101601f8483010112156100155782810151918211611f5e5760405193611ff0601f8401601f19166020018661457a565b828552810160208385840101011161001557602061201393818601920101614aef565b9385611cd1565b9092506020813d60201161204e575b816120366020938361457a565b81010312610015576120479061483e565b9184611c79565b3d9150612029565b90506020813d602011612088575b816120716020938361457a565b81010312610015576120829061483e565b83611c21565b3d9150612064565b6024803560009081526001602090815260408083206001600160a01b03959095168084526002909501909152908190205490516308538db760e41b8152600481019390935260ff8082169284019290925260081c166044820152606490fd5b506024356000526001602052600260406000200160018060a01b03821660005260205260ff60406000205460081c161515611a17565b604051634319813760e01b81526001600160a01b03909116600482015260448035602483015290fd5b90506020813d602011612188575b816121696020938361457a565b8101031261001557516001600160a01b038116810361001557826119d1565b3d915061215c565b506000546001600160a01b0316331461194e565b346100155736600319016060811261001557604013610015576040516121c981614525565b60043560ff8116810361001557815260243560ff81168103610015576020820152604435600060606040516121fd8161455e565b8281528260208201528260408201520152806000526001602052612230600160ff600460406000200154161515146147a0565b60405163b173a14760e01b8152825160ff9081166004830152602090930151909216602483015260448201526080816064817f00000000000000000000000000000000000000000000000000000000000000006001600160a01b03165afa8015610570576000906122d0575b60809060606040519160ff815116835260ff6020820151166020840152604081015115156040840152015115156060820152f35b5060803d8111612303575b6122e5818361457a565b810190608081830312610015576080916122fe91614859565b61229c565b503d6122db565b346100155760403660031901126100155760043560243590816000526001602052600160ff60046040600020015460101c16151503612395578160005260016020526005604060002001336000526020528060406000205560405191825260208201527feb7d119bae44c06d4b05b80eb4a3bdfc755131945d1845f3c9d2aeaa7d8bf54260403392a2005b60405162461bcd60e51b815260206004820152602160248201527f436f6d6d6974206d6f76657320686173206e6f742073746172746564207965746044820152602160f81b6064820152608490fd5b346100155760406123f4366145ac565b60006020869593965161240681614525565b8281520152600052600160205261242b600160ff6004866000200154161515146147a0565b61244883519485938493630d42527560e11b855260048501614aa5565b03817f00000000000000000000000000000000000000000000000000000000000000006001600160a01b03165afa8015610570576000906124a4575b6040906124a28251809260ff60208092828151168552015116910152565bf35b5060403d6040116124d8575b6124ba818361457a565b810190604081830312610015576040916124d391614a74565b612484565b503d6124b0565b34610015576000366003190112610015576000546040516001600160a01b039091168152602090f35b346100155760e03660031901126100155767ffffffffffffffff6004358181116100155761253a90369060040161462e565b60243582811161001557612552903690600401614695565b906044358381116100155761256b90369060040161462e565b9060643584811161001557612584903690600401614695565b906084358581116100155761259d903690600401614695565b9360a4359586116100155736602387011215610015578560040135956125c287614616565b966125d0604051988961457a565b80885260208801913660248360051b83010111610015579160248301925b60248360051b8201018410613bdb5750505050612609614713565b60c435600052600160205261262d600160ff600460406000200154161515146147a0565b61263a86518351146149c1565b61264782518251146149c1565b61265484518451146149c1565b61266185518751146149c1565b60005b8651811015612a6f576126d561268261267d83866148be565b614a0c565b60ff61268e84866148be565b511661269d61267d858a6148be565b60ff6126a9868a6148be565b51169060ff6126b8878d6148be565b5116926001600160a01b036126cd888f6148be565b51169461494f565b60c43560009081526001602052604090206005016001600160a01b036126fb848b6148be565b51166000526020526040600020541461271d575b612718906147ec565b612664565b60c43560009081526001602052604090206002016001600160a01b03612743838a6148be565b5116600052602052612816604060002061276061267d84876148be565b61276e600183019182614a19565b60ff61277a85876148be565b511660ff825460c81c16809111600014612a58576127a9905b825461ff00191660089190911b61ff0016178255565b6127bf6127b961267d868b6148be565b82614a31565b60ff6127cb85896148be565b511660ff825460d01c16809111600014612a41576127fe905b825463ff000000191660189190911b63ff00000016178255565b805464ff000000001916640100000000179055614a52565b90604061282661267d83876148be565b60ff61283284876148be565b518351630d42527560e11b8152958693849361285393169160048501614aa5565b03817f00000000000000000000000000000000000000000000000000000000000000006001600160a01b03165afa801561057057600090612a03575b6128cd925060406128a361267d848a6148be565b60ff6128af858a6148be565b51169082519586928392630d42527560e11b84528660048501614aa5565b03817f00000000000000000000000000000000000000000000000000000000000000006001600160a01b03165afa9283156105705760009361299e575b50612718927ffd735dcfd99f4b7d7f6bcea365f20bd4b998183607e89895805ae488fbeaa8669060c0906001600160a01b03612946868e6148be565b51169360c43560005260016020526040600020549160ff6020818451169301511660ff60208184511693015116926040519460c4358652602086015260408501526060840152608083015260a0820152a2905061270f565b925060403d6040116129fc575b6129b5818561457a565b60408482810103126100155760c06129f4857ffd735dcfd99f4b7d7f6bcea365f20bd4b998183607e89895805ae488fbeaa86693612718970190614a74565b94505061290a565b503d6129ab565b5060403d604011612a3a575b612a19818461457a565b60408382810103126100155782612a35916128cd940190614a74565b61288f565b503d612a0f565b506127fe60ff612a51868a6148be565b51166127e4565b506127a960ff612a6886886148be565b5116612793565b612a77614713565b60c4356000526001602052612a9660ff600460406000200154166147a0565b60c4356000526001602052604060002060ff6001825492015460081c1690811561150a5706156138a4575b60c4356000526001602052612add600360406000200154614bf7565b60c4356000526001602052612af9600360406000200154614c58565b9060005b60c4356000526001602052600360406000200154811015612b2d578060016102b2612b2893866148be565b612afd565b5060005b60c435600052600160205260036040600020018054821015612d7a5781612b5791614826565b919060018060a01b03928391549060031b1c1660c435600052600160205260026040600020018160005260205260406000206001810154848160281c1615612ba55760ff8160201c16612bb7575b505050612bb291506147ec565b612b31565b60ff60a4606092604051978893849263183b1baf60e01b8452612bec600485018960ff60209154818116845260081c16910152565b612bfb60448501838316614609565b60081c16606483015260c43560848301527f0000000000000000000000000000000000000000000000000000000000000000165afa801561057057612bb294600090600092612d58575b50612cf35781548151602080840180516040805160ff8781168252600888901c811695820195909552948416908501528216606084015260c4356080840152612cbf9594919390929091849188907f9db385e25deecca76e1e8dab29ae54e5c2f1707d2c611cfab0984b782e9f8a2c908060a0810161044f565b7f4a5516f0f1d85471405ad39e7a960ba9a7b312f2bdc784a6dce8402611417fd6602060405160c4358152a2848080612ba5565b8051602080830180516040805160c435815260ff95861694810194909452908416908301526105399592939092849261050b919081907f2265cf35e234e961bc739ea7efb0e9751a34a8c56c1b547ff729d632c2ad21a090606090a260c43590614caf565b9050612d73915060603d60601161056957610559818361457a565b9088612c45565b828460005b60c4356000526001602052600360406000200154811015612f5257612da481836148be565b51612db8575b612db3906147ec565b612d7f565b60c4356000526001602052612dd4816003604060002001614826565b919060018060a01b03928391549060031b1c1660c4356000526001602052600260406000200181600052602052604060002092604060ff608460018701548351948593849263d6192ad360e01b8452612e3f600485018c60ff60209154818116845260081c16910152565b612e5160448501838360101c16614609565b60181c1660648301527f0000000000000000000000000000000000000000000000000000000000000000165afa90811561057057600091612eff575b5080612db394600080516020614fa283398151915292612ead868a6148be565b52612eb885896148be565b505481516020928301516040805160ff808616825260089590951c8516958101959095529183169184019190915216606082015260c435608082015260a090a29050612daa565b90506040933d604011612f4a575b612f17858361457a565b604082868101031261001557612f4282612db396600080516020614fa2833981519152940190614a74565b915093612e8d565b3d9450612f0d565b506000915b60c435600052600160205260036040600020015483101561318b57612f7c83836148be565b5115613181576001830180841161097e575b60c43560005260016020526003604060002001548110156131705780612fb761305292856148be565b51156105395760c43560005260016020526040600020612fda8660038301614826565b60018060a01b0391549060031b1c16600052600280910160205260406000209060c435600052600160205260406000206130178460038301614826565b60018060a01b0391549060031b1c16600052016020526040600020905490549060ff821660ff8216149182613158575b5050613057576147ec565b612f8e565b600061306386866148be565b52600061307082866148be565b5260c4356000526001602052602061308f866003604060002001614826565b60018060a01b0391549060031b1c1660405160c43581527fd3530cd7a307ade37676af8529ec0105ea6204af5e1534bd5de4230810712371928391a260c43560005260016020526130e7826003604060002001614826565b60018060a01b0391549060031b1c1690602060405160c4358152a260c4356000526001602052613139613121866003604060002001614826565b905460c4359160031b1c6001600160a01b0316614caf565b60c4356000526001602052610539613121826003604060002001614826565b60ff919250819060081c169160081c16148680613047565b509161317b906147ec565b91612f57565b9161317b906147ec565b9060c43560005260016020526131a8600360406000200154614c58565b60c4356000526001602052600360406000200154926131c684614616565b936131d4604051958661457a565b8085526131e3601f1991614616565b0136602086013760005b60c435600052600160205260036040600020015481101561321d57806000610a2b61321893866148be565b6131ed565b50926000935b60c43560005260016020526003604060002001548510156132cf5761324885856148be565b51156132c55760005b60c43560005260016020526003604060002001548110156132b4578061329d91871480156132a2575b6105395760c435600052600160205260026040600020610abe8960038301614826565b613251565b506132ad81876148be565b511561327a565b50936132bf906147ec565b93613223565b936132bf906147ec565b509060c43560005260016020526132ed600360406000200154614c58565b926000805b60c43560005260016020526003604060002001548110156134dd5761331781846148be565b511561332d5761332781856148be565b5161333b575b613336906147ec565b6132f2565b9061334682866148be565b519160c4356000526001602052613364836003604060002001614826565b90546001600160a01b0360039290921b1c81169061338285886148be565b511515806134ca575b1561342e5760c43560005260016020526133b081610c48856003604060002001614826565b15613405575b506133c18189614de3565b156133e6575b5060006133dd613336939482610c8385896148be565b525b905061332d565b6133dd6133fd846000936102b2613336978d6148be565b9350506133c7565b92613427919360c4356000526001602052610cd4846003604060002001614826565b91886133b6565b6133369394506134c59160c435600052600160205281613455856003604060002001614826565b90549060031b1c167fbeaba0cb8f0bf4956e3f8756079b1aa20a9c7286167b8957d85188108991642d602060405160c4358152a3600061349584886148be565b5260c43560005260016020526134b2836003604060002001614826565b60c49291923592549060031b1c16614caf565b6133df565b50826134d6868a6148be565b511461338b565b85838380613752575b50905060c4356000526001602052600360406000200154805b6136bd5760c435600052600160205260036040600020018054801560001461358e5750506000600080516020614fc2833981519152602060405160c4358152a260c4356000526001602052600460406000200161010061ff00198254161790555b7f0ffee877d4bec4783459533ceddde8785dcd14454a9ebe37f1b3b8792509c36b602060405160c4358152a1005b6001036135ff575060c43560005260016020526135b160036040600020016147fb565b60018060a01b0391549060031b1c16600080516020614fc2833981519152602060405160c4358152a260c4356000526001602052600460406000200161010061ff0019825416179055613560565b613608906147fb565b9060018060a01b03918291549060031b1c1660007f6c5d9aa3894362f6fc8570afc4ad57ed5b0498a5e481b34ffccd61ee96cad12c602060405160c4358152a360005b60c435600052600160205260406000209060038201805482101561367f5761367a9284610f3984600294614826565b61364b565b5050505060c4356000526001602052600460406000200163ff0000001981541690556136ac60c435614e33565b506136b860c4356148d2565b613560565b6136c690614ba7565b806136d181846148be565b516134ff575060c43560005260016020526003604060002001805490600019820191821161097e576137319161370691614826565b60018060a01b0391549060031b1c1660c435600052600160205261101d836003604060002001614826565b60c43560005260016020528061374d6003604060002001614bb4565b6134ff565b61375b81614c58565b9260005b82811061388957505050604051604081016040825283518091526060820190602085019060005b81811061386a5750505090807f43c454d7d9739179cb8955fb1a87309459f577ba357c24735124f16f3bbea5a89260c43560208301520390a16000905b8251821015613860576001600160a01b03926137e660c435856110f186856148be565b60005b60c43560005260016020526003604060002001805482101561385257613810828792614826565b90549060031b1c168561382386856148be565b51161461383857613833906147ec565b6137e9565b82939194506102b260009161384c946148be565b906137c3565b505092509061384c906147ec565b91505080826134e6565b82516001600160a01b0316845260209384019390920191600101613786565b61389f906001600160a01b036111b182856148be565b61375f565b60c43560008181526001602081905260408083209091015490516335d5edab60e01b8152600481019390935260ff16602483015281604481837f00000000000000000000000000000000000000000000000000000000000000006001600160a01b03165af190811561057057600091613bc0575b5060c43560005260016020526001604060002001805460ff61393b818316614ade565b169060ff19161790557ff47e725249069330b61eda3df25e7c3bcfd700624cbc7cbeabb0e28375bee531602060405160c4358152a160005b81519060ff8116918210156139ed577fe33d4c5f3e9def7d3f127618203849e9a1888f8e0a9fbffbcdc7d6dbd42b64448260ff60206139b9826112d66139e8988a6148be565b510151169061130f60405192839260c4358491604091949360ff80926060860197865216602085015216910152565b613973565b50505060c4356000526001602052600360406000200154805b613a105750612ac1565b613a1990614ba7565b60c4356000526001602052613a35816003604060002001614826565b60018060a01b0391549060031b1c1660c4356000526001602052600260406000200181600052602052613a6b6040600020614a52565b60405163b173a14760e01b8152815160ff908116600483015260209092015190911660248201529060c43560448301526080826064817f00000000000000000000000000000000000000000000000000000000000000006001600160a01b03165afa8015610570578392600091613b7d575b506060015115613aee575b50613a06565b613b299150807faf0f1f1c6dd1455929199c881d29a04680c9c20aff5f0331d8619ed875c58d1c602060405160c4358152a260c43590614caf565b60c4356000526001602052600360406000200180548060001981011161097e57613b5b91613706916000190190614826565b60c435600052600160205280613b776003604060002001614bb4565b82613ae8565b9250506080913d608011613bb8575b613b96838261457a565b608081848101031261001557613bb28185946060930190614859565b90613add565b3d9250613b8c565b613bd591503d806000833e6114fc818361457a565b81613918565b83356001600160a01b038116900361001557602080602493863581520194019391506125ee565b3461001557602080600319360112610015576004359081600052600180825260ff613c3a8282600460406000200154161515146147a0565b836000528183526003806040600020015494613c5586614616565b95613c63604051978861457a565b808752613c72601f1991614616565b0160005b818110613e88575050836000905b613d78575b5050506040519280840190808552855180925280604086019601926000905b838210613cb55786880387f35b90919293948361018082998851613cdc82825160ff60208092828151168552015116910152565b613ced848201516040840190614609565b858060408301511660609081850152820151613d0e60809182860190614609565b8201511660a09081840152810151151560c0908184015260018060a01b03908201511660e0830152858060e0830151166101009081850152820151166101209081840152810151906101409182840152015161016082015201960192019096949693929193613ca8565b90849694929181600052838752604060002090838201918254821015613e7d5784613da683613e7395614826565b929060018060a01b039384915490841b1c1660005260028091018b52604060002090898c60405195613dd787614541565b613de085614a52565b8752828c8601548093613df7838316828c01614b12565b828260081c1660408b0152613e14838360101c1660608c01614b12565b828260181c1660808b01521c16151560a08801528160281c1660c0870152818160c81c1660e087015260d01c166101008501528101546101208401520154610140820152613e6282896148be565b52613e6d81886148be565b506147ec565b9091929496613c84565b505050959395613c89565b8690604098969851613e9981614541565b604051613ea581614525565b600081526000848201528152600083820152600060408201526000606082015260006080820152600060a0820152600060c0820152600060e082015260006101008201526000610120820152600061014082015282828901015201969496613c76565b3461001557600036600319011261001557613f21614713565b600080546001600160a01b0319811682556001600160a01b03167f8be0079c531659141344cd1fd0a4f28419497f9722a3daafe3b4186f6b6457e08280a3005b3461001557602080600319360112610015576004358060005260018252613f97600160ff600460406000200154161515146147a0565b60405163436fadf360e11b8152600481019190915281816024817f00000000000000000000000000000000000000000000000000000000000000006001600160a01b03165afa90811561057057600091613ff8575b5060ff60405191168152f35b90508181813d8311614026575b61400f818361457a565b81010312610015576140209061483e565b82613fec565b503d614005565b34610015576000366003190112610015576002546040516001600160a01b039091168152602090f35b346100155760ff614066366145ac565b929390836000526140c06020936001855261408f600185600460406000200154161515146147a0565b60405163183b1baf60e01b8152875160ff908116600483015260209098015190971660248801526044870190614609565b1660648401526084830182905260608360a4817f00000000000000000000000000000000000000000000000000000000000000006001600160a01b03165afa92831561057057600090600094614188575b50156141255750614123915033614caf565b005b60ff8184826141239651168560005260018352600260406000200133600052835260406000209084198254161790550151169160005260018152600260406000200190336000525260406000209061ff0082549160081b169061ff001916179055565b90506141a391935060603d811161056957610559818361457a565b929084614111565b3461001557602036600319011261001557600435600052600160205260e060406000208054906004600182015491015460405192835260ff8281809416602086015260081c16604084015281811615156060840152818160081c1615156080840152818160101c16151560a084015260181c16151560c0820152f35b346100155760208060031936011261001557600435908160005260019182825260ff6142608482600460406000200154161515146147a0565b60405163436fadf360e11b815260048101929092527f00000000000000000000000000000000000000000000000000000000000000006001600160a01b031690602484848281865afa938415610570576000946144ee575b50816142c385614f65565b941693868501908382116144d9576142ea6142e56142f09386939a989a614f79565b614f90565b16614bf7565b956040516142fd81614525565b818152818782015261430e886148b1565b52614318876148b1565b5084805b61437d575b5050505050604051918083018184528451809152816040850195019160005b82811061434d5785870386f35b9091929382604088614370849a895160ff60208092828151168552015116910152565b0197950193929101614340565b8381989698168281116144d05760001981018581116144bb576143ac6142e5846143a78994614f65565b614f79565b16906143b7886148b1565b516040516301cf2e2560e51b8152815160ff908116600483015260209092015190911660248201529060448201526000816064818a5afa908115610570576000916144a0575b50899594939291906000875b614425575b50505061441a90614ade565b90919293959761431c565b908092939495969750518b88831691821015614495575061444681846148be565b5190840190818511614480579161446d828e94614466614473958f6148be565b528c6148be565b50614ade565b8197969594939291614409565b87634e487b7160e01b60005260116004526000fd5b97969594935061440e565b6144b591503d806000833e6114fc818361457a565b8a6143fd565b84634e487b7160e01b60005260116004526000fd5b50969496614321565b82634e487b7160e01b60005260116004526000fd5b9093508481813d831161451e575b614506818361457a565b81010312610015576145179061483e565b92866142b8565b503d6144fc565b6040810190811067ffffffffffffffff821117611f5e57604052565b610160810190811067ffffffffffffffff821117611f5e57604052565b6080810190811067ffffffffffffffff821117611f5e57604052565b90601f8019910116810190811067ffffffffffffffff821117611f5e57604052565b6024359060ff8216820361001557565b6003190160a0811261001557604013610015576040516145cb81614525565b60043560ff811681036100155781526145e261459c565b6020820152906044356007811015610015579060643560ff81168103610015579060843590565b906007821015611f745752565b67ffffffffffffffff8111611f5e5760051b60200190565b81601f820112156100155780359161464583614616565b92614653604051948561457a565b808452602092838086019260051b820101928311610015578301905b82821061467d575050505090565b8135600781101561001557815290830190830161466f565b81601f82011215610015578035916146ac83614616565b926146ba604051948561457a565b808452602092838086019260051b820101928311610015578301905b8282106146e4575050505090565b813560ff811681036100155781529083019083016146d6565b600435906001600160a01b038216820361001557565b6000546001600160a01b0316330361472757565b60405163118cdaa760e01b8152336004820152602490fd5b1561474657565b60405162461bcd60e51b815260206004820152602c60248201527f43616c6c6572206973206e6f74206f776e6572206f722072656769737472617460448201526b1a5bdb8818dbdb9d1c9858dd60a21b6064820152608490fd5b156147a757565b60405162461bcd60e51b815260206004820152601960248201527f47616d6520686173206e6f7420737461727465642079657421000000000000006044820152606490fd5b600019811461097e5760010190565b80541561481057600052602060002090600090565b634e487b7160e01b600052603260045260246000fd5b80548210156148105760005260206000200190600090565b519060ff8216820361001557565b5190811515820361001557565b9190826080910312610015576040516148718161455e565b60606148ac8183956148828161483e565b85526148906020820161483e565b60208601526148a16040820161484c565b60408601520161484c565b910152565b8051156148105760200190565b80518210156148105760209160051b010190565b60207f8924ef8e2fcf31b0d38716fc8120f7aec496d13f5abdb8320e31a69dbc449100918060005260018252614917600160ff600460406000200154161515146147a0565b806000526001825260046040600020016201000062ff000019825416179055604051908152a1565b6007811015611f745760f81b9052565b949293906040519461496560208701809861493f565b61498460ff60f81b9485809460f81b166021890152602288019061493f565b60f81b16602385015260f81b1660248301526bffffffffffffffffffffffff199060601b166025820152601981526149bb81614525565b51902090565b156149c857565b606460405162461bcd60e51b815260206004820152602060248201527f417272617973206d7573742068617665207468652073616d65206c656e6774686044820152fd5b516007811015611f745790565b906007811015611f745760ff80198354169116179055565b906007811015611f745762ff000082549160101b169062ff00001916179055565b90604051614a5f81614525565b602060ff829454818116845260081c16910152565b919082604091031261001557604051614a8c81614525565b60206148ac818395614a9d8161483e565b85520161483e565b916060919493614ad860ff92614ace86608081019960ff60208092828151168552015116910152565b6040860190614609565b16910152565b60ff1660ff811461097e5760010190565b60005b838110614b025750506000910152565b8181015183820152602001614af2565b6007821015611f745752565b9060209182818303126100155780519067ffffffffffffffff8211610015570181601f8201121561001557805192614b5584614616565b93604093614b658551968761457a565b818652828087019260061b85010193818511610015578301915b848310614b8f5750505050505090565b838691614b9c8486614a74565b815201920191614b7f565b801561097e576000190190565b80548015614be1576000190190614bcb8282614826565b81549060018060a01b039060031b1b1916905555565b634e487b7160e01b600052603160045260246000fd5b90614c0182614616565b604090614c108251918261457a565b8381528093614c21601f1991614616565b0191600090815b848110614c36575050505050565b6020908251614c4481614525565b848152828581830152828701015201614c28565b90614c6282614616565b614c6f604051918261457a565b8281528092614c80601f1991614616565b0190602036910137565b919060608382031261001557614cac906020614ca58561484c565b9401614a74565b90565b9190600092818452602060018152604092614cd7600160ff6004878a200154161515146147a0565b8560018060a01b0380941693847f0ceeb6c20e03a8c47e6673117b7b54c5b880118423ef2a84e0b795bd849fc406858851868152a27f0000000000000000000000000000000000000000000000000000000000000000168282526001845260028683200185835284526003868320015490803b15614ddf57602483928851948593849263835f396760e01b845260048401525af18015614dd557614daa575b508386600292614da8979852600184522001916000525260002060036000918281558260018201558260028201550155565b565b67ffffffffffffffff8111614dc157845283614d76565b634e487b7160e01b87526041600452602487fd5b85513d89823e3d90fd5b8280fd5b9060005b825160ff821690811015614e2a576001600160a01b03908190614e0a90866148be565b511690831614614e2257614e1d90614ade565b614de7565b505050600190565b50505050600090565b6040805163436fadf360e11b815260048101839052909160209182816024817f00000000000000000000000000000000000000000000000000000000000000006001600160a01b03165afa908115614f5a57600091614ef7575b50907f3874cce3730901301cd0c02b4c2dd416d59546f183096d9f2a434c4d3a9ba4a56060600194938360005285855286600020614ecb81546147ec565b90558360005285855260ff876000205491885192868452878401521687820152a1600052526000205490565b908382813d8311614f53575b614f0d818361457a565b81010312614f505750907f3874cce3730901301cd0c02b4c2dd416d59546f183096d9f2a434c4d3a9ba4a56060614f466001959461483e565b9293945050614e8d565b80fd5b503d614f03565b84513d6000823e3d90fd5b60ff166003029060ff821691820361097e57565b9060ff8091169116029060ff821691820361097e57565b60ff166001019060ff821161097e5756fe1a5ee6632f2ff8b0f1e4bf31b540f744e4337da13603a9eac0072df00578c5a656807b65299b9d361218ee1228c0caeed59b1cbcb079421f124145f99d0a0b06a2646970667358221220857a0d6669b9acdc3475f2456f5074361716db78366983382d5a3e36d69fbbc764736f6c63430008140033",
  "linkReferences": {},
  "deployedLinkReferences": {}
}