{
  "_format": "hh-sol-artifact-1",
  "contractName": "GamePunk",
  "sourceName": "contracts/GamePunk.sol",
  "abi": [
    {
      "inputs": [
        {
          "internalType": "address",
          "name": "_mapAddress",
          "type": "address"
        },
        {
          "internalType": "address",
          "name": "_punkshipsAddress",
          "type": "address"
        }
      ],
      "stateMutability": "nonpayable",
      "type": "constructor"
    },
    {
      "inputs": [
        {
          "internalType": "address",
          "name": "player",
          "type": "address"
        },
        {
          "internalType": "uint256",
          "name": "tokenId",
          "type": "uint256"
        }
      ],
      "name": "NotOwnerOfShip",
      "type": "error"
    },
    {
      "inputs": [
        {
          "internalType": "address",
          "name": "owner",
          "type": "address"
        }
      ],
      "name": "OwnableInvalidOwner",
      "type": "error"
    },
    {
      "inputs": [
        {
          "internalType": "address",
          "name": "account",
          "type": "address"
        }
      ],
      "name": "OwnableUnauthorizedAccount",
      "type": "error"
    },
    {
      "inputs": [
        {
          "internalType": "address",
          "name": "player",
          "type": "address"
        },
        {
          "internalType": "uint8",
          "name": "q",
          "type": "uint8"
        },
        {
          "internalType": "uint8",
          "name": "r",
          "type": "uint8"
        }
      ],
      "name": "ShipAlreadyAdded",
      "type": "error"
    },
    {
      "anonymous": false,
      "inputs": [
        {
          "indexed": false,
          "internalType": "uint256",
          "name": "gameId",
          "type": "uint256"
        },
        {
          "indexed": false,
          "internalType": "uint8",
          "name": "q",
          "type": "uint8"
        },
        {
          "indexed": false,
          "internalType": "uint8",
          "name": "r",
          "type": "uint8"
        },
        {
          "indexed": false,
          "internalType": "bool",
          "name": "island",
          "type": "bool"
        }
      ],
      "name": "Cell",
      "type": "event"
    },
    {
      "anonymous": false,
      "inputs": [
        {
          "indexed": false,
          "internalType": "uint256",
          "name": "gameId",
          "type": "uint256"
        }
      ],
      "name": "CommitPhaseStarted",
      "type": "event"
    },
    {
      "anonymous": false,
      "inputs": [
        {
          "indexed": false,
          "internalType": "uint256",
          "name": "gameId",
          "type": "uint256"
        }
      ],
      "name": "GameEnded",
      "type": "event"
    },
    {
      "anonymous": false,
      "inputs": [
        {
          "indexed": false,
          "internalType": "uint256",
          "name": "gameId",
          "type": "uint256"
        }
      ],
      "name": "GameStarted",
      "type": "event"
    },
    {
      "anonymous": false,
      "inputs": [
        {
          "indexed": true,
          "internalType": "bool",
          "name": "gameStatus",
          "type": "bool"
        },
        {
          "indexed": true,
          "internalType": "address",
          "name": "winnerAddress",
          "type": "address"
        },
        {
          "indexed": false,
          "internalType": "uint256",
          "name": "gameId",
          "type": "uint256"
        }
      ],
      "name": "GameUpdated",
      "type": "event"
    },
    {
      "anonymous": false,
      "inputs": [
        {
          "indexed": true,
          "internalType": "address",
          "name": "winner",
          "type": "address"
        },
        {
          "indexed": false,
          "internalType": "uint256",
          "name": "gameId",
          "type": "uint256"
        }
      ],
      "name": "GameWinner",
      "type": "event"
    },
    {
      "anonymous": false,
      "inputs": [
        {
          "indexed": false,
          "internalType": "uint8",
          "name": "radius",
          "type": "uint8"
        },
        {
          "indexed": false,
          "internalType": "uint256",
          "name": "gameId",
          "type": "uint256"
        }
      ],
      "name": "MapInitialized",
      "type": "event"
    },
    {
      "anonymous": false,
      "inputs": [
        {
          "indexed": false,
          "internalType": "uint256",
          "name": "gameId",
          "type": "uint256"
        }
      ],
      "name": "MapShrink",
      "type": "event"
    },
    {
      "anonymous": false,
      "inputs": [
        {
          "indexed": true,
          "internalType": "address",
          "name": "player",
          "type": "address"
        },
        {
          "indexed": false,
          "internalType": "uint256",
          "name": "gameId",
          "type": "uint256"
        }
      ],
      "name": "MoveCommitted",
      "type": "event"
    },
    {
      "anonymous": false,
      "inputs": [
        {
          "indexed": true,
          "internalType": "address",
          "name": "player",
          "type": "address"
        },
        {
          "indexed": false,
          "internalType": "uint256",
          "name": "gameId",
          "type": "uint256"
        },
        {
          "indexed": false,
          "internalType": "uint256",
          "name": "roundId",
          "type": "uint256"
        },
        {
          "indexed": false,
          "internalType": "uint8",
          "name": "destQ",
          "type": "uint8"
        },
        {
          "indexed": false,
          "internalType": "uint8",
          "name": "destR",
          "type": "uint8"
        },
        {
          "indexed": false,
          "internalType": "uint8",
          "name": "shotQ",
          "type": "uint8"
        },
        {
          "indexed": false,
          "internalType": "uint8",
          "name": "shotR",
          "type": "uint8"
        }
      ],
      "name": "MoveSubmitted",
      "type": "event"
    },
    {
      "anonymous": false,
      "inputs": [
        {
          "indexed": false,
          "internalType": "uint256",
          "name": "gameId",
          "type": "uint256"
        },
        {
          "indexed": false,
          "internalType": "uint256",
          "name": "roundId",
          "type": "uint256"
        },
        {
          "indexed": false,
          "internalType": "uint8",
          "name": "radius",
          "type": "uint8"
        }
      ],
      "name": "NewRound",
      "type": "event"
    },
    {
      "anonymous": false,
      "inputs": [
        {
          "indexed": true,
          "internalType": "address",
          "name": "previousOwner",
          "type": "address"
        },
        {
          "indexed": true,
          "internalType": "address",
          "name": "newOwner",
          "type": "address"
        }
      ],
      "name": "OwnershipTransferred",
      "type": "event"
    },
    {
      "anonymous": false,
      "inputs": [
        {
          "indexed": true,
          "internalType": "address",
          "name": "player",
          "type": "address"
        },
        {
          "indexed": false,
          "internalType": "uint256",
          "name": "gameId",
          "type": "uint256"
        },
        {
          "indexed": false,
          "internalType": "uint256",
          "name": "punkshipId",
          "type": "uint256"
        },
        {
          "indexed": false,
          "internalType": "uint8",
          "name": "q",
          "type": "uint8"
        },
        {
          "indexed": false,
          "internalType": "uint8",
          "name": "r",
          "type": "uint8"
        },
        {
          "indexed": false,
          "internalType": "uint8",
          "name": "speed",
          "type": "uint8"
        },
        {
          "indexed": false,
          "internalType": "uint8",
          "name": "range",
          "type": "uint8"
        },
        {
          "indexed": false,
          "internalType": "string",
          "name": "image",
          "type": "string"
        }
      ],
      "name": "PlayerAdded",
      "type": "event"
    },
    {
      "anonymous": false,
      "inputs": [
        {
          "indexed": true,
          "internalType": "address",
          "name": "player",
          "type": "address"
        },
        {
          "indexed": false,
          "internalType": "uint256",
          "name": "gameId",
          "type": "uint256"
        }
      ],
      "name": "PlayerDefeated",
      "type": "event"
    },
    {
      "anonymous": false,
      "inputs": [
        {
          "indexed": true,
          "internalType": "address",
          "name": "captain",
          "type": "address"
        },
        {
          "indexed": false,
          "internalType": "uint256",
          "name": "gameId",
          "type": "uint256"
        },
        {
          "indexed": false,
          "internalType": "uint8",
          "name": "q",
          "type": "uint8"
        },
        {
          "indexed": false,
          "internalType": "uint8",
          "name": "r",
          "type": "uint8"
        }
      ],
      "name": "ShipCollidedWithIsland",
      "type": "event"
    },
    {
      "anonymous": false,
      "inputs": [
        {
          "indexed": true,
          "internalType": "address",
          "name": "victim",
          "type": "address"
        },
        {
          "indexed": true,
          "internalType": "address",
          "name": "attacker",
          "type": "address"
        },
        {
          "indexed": false,
          "internalType": "uint256",
          "name": "gameId",
          "type": "uint256"
        }
      ],
      "name": "ShipHit",
      "type": "event"
    },
    {
      "anonymous": false,
      "inputs": [
        {
          "indexed": true,
          "internalType": "address",
          "name": "captain",
          "type": "address"
        },
        {
          "indexed": false,
          "internalType": "uint8",
          "name": "initialQ",
          "type": "uint8"
        },
        {
          "indexed": false,
          "internalType": "uint8",
          "name": "initialR",
          "type": "uint8"
        },
        {
          "indexed": false,
          "internalType": "uint8",
          "name": "q",
          "type": "uint8"
        },
        {
          "indexed": false,
          "internalType": "uint8",
          "name": "r",
          "type": "uint8"
        },
        {
          "indexed": false,
          "internalType": "uint256",
          "name": "gameId",
          "type": "uint256"
        }
      ],
      "name": "ShipMoved",
      "type": "event"
    },
    {
      "anonymous": false,
      "inputs": [
        {
          "indexed": true,
          "internalType": "address",
          "name": "captain",
          "type": "address"
        },
        {
          "indexed": false,
          "internalType": "uint256",
          "name": "gameId",
          "type": "uint256"
        }
      ],
      "name": "ShipMovedInGame",
      "type": "event"
    },
    {
      "anonymous": false,
      "inputs": [
        {
          "indexed": true,
          "internalType": "address",
          "name": "captain",
          "type": "address"
        },
        {
          "indexed": false,
          "internalType": "uint8",
          "name": "fromQ",
          "type": "uint8"
        },
        {
          "indexed": false,
          "internalType": "uint8",
          "name": "fromR",
          "type": "uint8"
        },
        {
          "indexed": false,
          "internalType": "uint8",
          "name": "shotQ",
          "type": "uint8"
        },
        {
          "indexed": false,
          "internalType": "uint8",
          "name": "shotR",
          "type": "uint8"
        },
        {
          "indexed": false,
          "internalType": "uint256",
          "name": "gameId",
          "type": "uint256"
        }
      ],
      "name": "ShipShot",
      "type": "event"
    },
    {
      "anonymous": false,
      "inputs": [
        {
          "indexed": true,
          "internalType": "address",
          "name": "captain",
          "type": "address"
        },
        {
          "indexed": false,
          "internalType": "uint256",
          "name": "gameId",
          "type": "uint256"
        }
      ],
      "name": "ShipSunk",
      "type": "event"
    },
    {
      "anonymous": false,
      "inputs": [
        {
          "indexed": true,
          "internalType": "address",
          "name": "captain",
          "type": "address"
        },
        {
          "indexed": false,
          "internalType": "uint256",
          "name": "gameId",
          "type": "uint256"
        }
      ],
      "name": "ShipSunkOutOfMap",
      "type": "event"
    },
    {
      "anonymous": false,
      "inputs": [
        {
          "indexed": false,
          "internalType": "uint256",
          "name": "gameId",
          "type": "uint256"
        },
        {
          "indexed": false,
          "internalType": "uint256",
          "name": "round",
          "type": "uint256"
        }
      ],
      "name": "SubmitPhaseStarted",
      "type": "event"
    },
    {
      "anonymous": false,
      "inputs": [
        {
          "indexed": false,
          "internalType": "uint256",
          "name": "gameId",
          "type": "uint256"
        }
      ],
      "name": "WorldUpdated",
      "type": "event"
    },
    {
      "inputs": [
        {
          "internalType": "address",
          "name": "playerAddress",
          "type": "address"
        },
        {
          "internalType": "uint256",
          "name": "gameId",
          "type": "uint256"
        },
        {
          "internalType": "uint256",
          "name": "_punkshipId",
          "type": "uint256"
        }
      ],
      "name": "addShip",
      "outputs": [],
      "stateMutability": "nonpayable",
      "type": "function"
    },
    {
      "inputs": [
        {
          "internalType": "bytes32",
          "name": "moveHash",
          "type": "bytes32"
        },
        {
          "internalType": "uint256",
          "name": "gameId",
          "type": "uint256"
        }
      ],
      "name": "commitMove",
      "outputs": [],
      "stateMutability": "nonpayable",
      "type": "function"
    },
    {
      "inputs": [
        {
          "internalType": "uint256",
          "name": "gameId",
          "type": "uint256"
        }
      ],
      "name": "endGame",
      "outputs": [],
      "stateMutability": "nonpayable",
      "type": "function"
    },
    {
      "inputs": [
        {
          "internalType": "uint256",
          "name": "",
          "type": "uint256"
        }
      ],
      "name": "games",
      "outputs": [
        {
          "internalType": "uint256",
          "name": "round",
          "type": "uint256"
        },
        {
          "internalType": "uint8",
          "name": "shrinkNo",
          "type": "uint8"
        },
        {
          "internalType": "bool",
          "name": "gameInProgress",
          "type": "bool"
        },
        {
          "internalType": "bool",
          "name": "stopAddingShips",
          "type": "bool"
        },
        {
          "internalType": "bool",
          "name": "letCommitMoves",
          "type": "bool"
        },
        {
          "internalType": "bool",
          "name": "letSubmitMoves",
          "type": "bool"
        }
      ],
      "stateMutability": "view",
      "type": "function"
    },
    {
      "inputs": [
        {
          "components": [
            {
              "internalType": "uint8",
              "name": "q",
              "type": "uint8"
            },
            {
              "internalType": "uint8",
              "name": "r",
              "type": "uint8"
            }
          ],
          "internalType": "struct SharedStructs.Coordinate",
          "name": "_coord",
          "type": "tuple"
        },
        {
          "internalType": "uint256",
          "name": "gameId",
          "type": "uint256"
        }
      ],
      "name": "getCell",
      "outputs": [
        {
          "components": [
            {
              "internalType": "uint8",
              "name": "q",
              "type": "uint8"
            },
            {
              "internalType": "uint8",
              "name": "r",
              "type": "uint8"
            },
            {
              "internalType": "bool",
              "name": "island",
              "type": "bool"
            },
            {
              "internalType": "bool",
              "name": "exists",
              "type": "bool"
            }
          ],
          "internalType": "struct SharedStructs.Cell",
          "name": "",
          "type": "tuple"
        }
      ],
      "stateMutability": "view",
      "type": "function"
    },
    {
      "inputs": [
        {
          "internalType": "uint256",
          "name": "gameId",
          "type": "uint256"
        }
      ],
      "name": "getCells",
      "outputs": [
        {
          "components": [
            {
              "internalType": "uint8",
              "name": "q",
              "type": "uint8"
            },
            {
              "internalType": "uint8",
              "name": "r",
              "type": "uint8"
            }
          ],
          "internalType": "struct SharedStructs.Coordinate[]",
          "name": "",
          "type": "tuple[]"
        }
      ],
      "stateMutability": "view",
      "type": "function"
    },
    {
      "inputs": [
        {
          "internalType": "uint256",
          "name": "gameId",
          "type": "uint256"
        }
      ],
      "name": "getRadius",
      "outputs": [
        {
          "internalType": "uint8",
          "name": "",
          "type": "uint8"
        }
      ],
      "stateMutability": "view",
      "type": "function"
    },
    {
      "inputs": [
        {
          "internalType": "uint256",
          "name": "gameId",
          "type": "uint256"
        }
      ],
      "name": "getShips",
      "outputs": [
        {
          "components": [
            {
              "components": [
                {
                  "internalType": "uint8",
                  "name": "q",
                  "type": "uint8"
                },
                {
                  "internalType": "uint8",
                  "name": "r",
                  "type": "uint8"
                }
              ],
              "internalType": "struct SharedStructs.Coordinate",
              "name": "coordinate",
              "type": "tuple"
            },
            {
              "internalType": "enum SharedStructs.Directions",
              "name": "travelDirection",
              "type": "uint8"
            },
            {
              "internalType": "uint8",
              "name": "travelDistance",
              "type": "uint8"
            },
            {
              "internalType": "enum SharedStructs.Directions",
              "name": "shotDirection",
              "type": "uint8"
            },
            {
              "internalType": "uint8",
              "name": "shotDistance",
              "type": "uint8"
            },
            {
              "internalType": "bool",
              "name": "publishedMove",
              "type": "bool"
            },
            {
              "internalType": "address",
              "name": "captain",
              "type": "address"
            },
            {
              "internalType": "uint8",
              "name": "yachtSpeed",
              "type": "uint8"
            },
            {
              "internalType": "uint8",
              "name": "yachtRange",
              "type": "uint8"
            },
            {
              "internalType": "uint256",
              "name": "gameId",
              "type": "uint256"
            }
          ],
          "internalType": "struct GamePunk.Ship[]",
          "name": "",
          "type": "tuple[]"
        }
      ],
      "stateMutability": "view",
      "type": "function"
    },
    {
      "inputs": [
        {
          "components": [
            {
              "internalType": "uint8",
              "name": "q",
              "type": "uint8"
            },
            {
              "internalType": "uint8",
              "name": "r",
              "type": "uint8"
            }
          ],
          "internalType": "struct SharedStructs.Coordinate",
          "name": "_start",
          "type": "tuple"
        },
        {
          "internalType": "enum SharedStructs.Directions",
          "name": "_dir",
          "type": "uint8"
        },
        {
          "internalType": "uint8",
          "name": "_distance",
          "type": "uint8"
        },
        {
          "internalType": "uint256",
          "name": "gameId",
          "type": "uint256"
        }
      ],
      "name": "move",
      "outputs": [
        {
          "components": [
            {
              "internalType": "uint8",
              "name": "q",
              "type": "uint8"
            },
            {
              "internalType": "uint8",
              "name": "r",
              "type": "uint8"
            }
          ],
          "internalType": "struct SharedStructs.Coordinate",
          "name": "",
          "type": "tuple"
        }
      ],
      "stateMutability": "view",
      "type": "function"
    },
    {
      "inputs": [],
      "name": "owner",
      "outputs": [
        {
          "internalType": "address",
          "name": "",
          "type": "address"
        }
      ],
      "stateMutability": "view",
      "type": "function"
    },
    {
      "inputs": [],
      "name": "registrationContract",
      "outputs": [
        {
          "internalType": "address",
          "name": "",
          "type": "address"
        }
      ],
      "stateMutability": "view",
      "type": "function"
    },
    {
      "inputs": [],
      "name": "renounceOwnership",
      "outputs": [],
      "stateMutability": "nonpayable",
      "type": "function"
    },
    {
      "inputs": [
        {
          "internalType": "address",
          "name": "_registrationContract",
          "type": "address"
        }
      ],
      "name": "setRegistrationContract",
      "outputs": [],
      "stateMutability": "nonpayable",
      "type": "function"
    },
    {
      "inputs": [
        {
          "internalType": "uint256",
          "name": "gameId",
          "type": "uint256"
        },
        {
          "internalType": "uint8",
          "name": "_radius",
          "type": "uint8"
        }
      ],
      "name": "startNewGame",
      "outputs": [],
      "stateMutability": "nonpayable",
      "type": "function"
    },
    {
      "inputs": [
        {
          "internalType": "enum SharedStructs.Directions[]",
          "name": "_travelDirections",
          "type": "uint8[]"
        },
        {
          "internalType": "uint8[]",
          "name": "_travelDistances",
          "type": "uint8[]"
        },
        {
          "internalType": "enum SharedStructs.Directions[]",
          "name": "_shotDirections",
          "type": "uint8[]"
        },
        {
          "internalType": "uint8[]",
          "name": "_shotDistances",
          "type": "uint8[]"
        },
        {
          "internalType": "uint8[]",
          "name": "_secrets",
          "type": "uint8[]"
        },
        {
          "internalType": "address[]",
          "name": "_playerAddresses",
          "type": "address[]"
        },
        {
          "internalType": "uint256",
          "name": "gameId",
          "type": "uint256"
        }
      ],
      "name": "submitMove",
      "outputs": [],
      "stateMutability": "nonpayable",
      "type": "function"
    },
    {
      "inputs": [
        {
          "internalType": "address",
          "name": "newOwner",
          "type": "address"
        }
      ],
      "name": "transferOwnership",
      "outputs": [],
      "stateMutability": "nonpayable",
      "type": "function"
    },
    {
      "inputs": [
        {
          "components": [
            {
              "internalType": "uint8",
              "name": "q",
              "type": "uint8"
            },
            {
              "internalType": "uint8",
              "name": "r",
              "type": "uint8"
            }
          ],
          "internalType": "struct SharedStructs.Coordinate",
          "name": "_startCell",
          "type": "tuple"
        },
        {
          "internalType": "enum SharedStructs.Directions",
          "name": "_direction",
          "type": "uint8"
        },
        {
          "internalType": "uint8",
          "name": "_distance",
          "type": "uint8"
        },
        {
          "internalType": "uint256",
          "name": "gameId",
          "type": "uint256"
        }
      ],
      "name": "travel",
      "outputs": [],
      "stateMutability": "nonpayable",
      "type": "function"
    },
    {
      "inputs": [
        {
          "internalType": "uint256",
          "name": "gameId",
          "type": "uint256"
        }
      ],
      "name": "updateWorld",
      "outputs": [],
      "stateMutability": "nonpayable",
      "type": "function"
    }
  ],
  "bytecode": "0x60c0346200015a57601f6200419538819003918201601f19168301916001600160401b038311848410176200015f5780849260409485528339810103126200015a576200005a6020620000528362000175565b920162000175565b903315620001415760008054336001600160a01b0319821681178355604051946001600160a01b0394909385939192918416907f8be0079c531659141344cd1fd0a4f28419497f9722a3daafe3b4186f6b6457e09080a3166080521660a05261400a90816200018b823960805181818161041e015281816108c40152818161127501528181611763015281816120a10152818161228e015281816126b50152818161272f01528181612c8f01528181612deb0152818161311c015281816134f20152613e8a015260a05181818161169f01528181611a3801528181611a8f0152611ae50152f35b604051631e4fbdf760e01b815260006004820152602490fd5b600080fd5b634e487b7160e01b600052604160045260246000fd5b51906001600160a01b03821682036200015a5756fe608080604052600436101561001357600080fd5b600090813560e01c908163117a5b901461364957508063183b1baf1461346b5780631e522c3e14613442578063261aff41146130ce5780634ab0aac914612d185780636b082eed14612c3d578063715018a614612be357806378d59e05146128fc5780638b7524b61461234b5780638da5cb5b1461232457806394c1d2d9146122285780639cc45f3414612159578063b173a14714611fe3578063b39116fd14611631578063d0399bb8146115b3578063d3db03cc1461156e578063d837093c146101795763f2fde38b146100e757600080fd5b34610176576020366003190112610176576101006138b4565b6101086138ca565b6001600160a01b0390811690811561015d57600054826bffffffffffffffffffffffff60a01b821617600055167f8be0079c531659141344cd1fd0a4f28419497f9722a3daafe3b4186f6b6457e0600080a380f35b604051631e4fbdf760e01b815260048101849052602490fd5b80fd5b5034610176576020366003190112610176576101936138ca565b600435815260016020526101b5600160ff600460408520015416151514613952565b6004358152600160205260408120600381540615611264575b50600435815260016020526101e96003604083200154613cf1565b90600435815260016020526003604082200154610205816137cd565b906102136040519283613721565b808252610222601f19916137cd565b01366020830137815b60043583526001602052600360408420015460ff8216908110156102645790600161025961025f9385613a9e565b52613c34565b61022b565b838584825b60043584526001602052604084206003810190815460ff841610156107865761029483600293613bbc565b60018060a01b0391549060031b1c166000520160205260018060a01b0360016040600020015460281c161561030a57600435845260016020526002604085206102e08360038301613bbc565b60018060a01b0391549060031b1c166000520160205260ff60016040600020015460201c16610318575b61031390613c34565b610269565b600435845260016020526002604085206103358360038301613bbc565b60018060a01b0391549060031b1c16600052016020526040600020906004358552600160205260026040862061036e8360038301613bbc565b60018060a01b0391549060031b1c166000520160205260ff8060016040600020015416600435875260016020526002604088206103ae8560038301613bbc565b60018060a01b0391549060031b1c1660005201602052610405600160406000200154916103fb6040519663183b1baf60e01b8852600488019060ff60209154818116845260081c16910152565b60448601906137aa565b60081c166064830152600435608483015260608260a4817f00000000000000000000000000000000000000000000000000000000000000006001600160a01b03165afa801561077b576103139286908792610749575b5061062c576105d0906004358752600160205260ff61048084600360408b2001613bbc565b60018060a01b0391549060031b1c1660043589526001602052600260408a206104ac8760038301613bbc565b60018060a01b0391549060031b1c16600052016020528160406000205416906004358a526001602052600260408b206104e88860038301613bbc565b60018060a01b0391549060031b1c16600052016020527f9db385e25deecca76e1e8dab29ae54e5c2f1707d2c611cfab0984b782e9f8a2c8360406000205460081c1684865116906105726020880195878751166040519485946004359386919360ff6080948180949998978160a088019b1687521660208601521660408401521660608201520152565b0390a260043589526001602052600260408a206105928760038301613bbc565b60018060a01b0391549060031b1c16600052016020528160406000209351168219845416178355511661ff0082549160081b169061ff001916179055565b600435855260016020526105ea8160036040882001613bbc565b60018060a01b0391549060031b1c167f4a5516f0f1d85471405ad39e7a960ba9a7b312f2bdc784a6dce8402611417fd660206040516004358152a2905061030a565b610744906004358752600160205261064a83600360408a2001613bbc565b60018060a01b0391549060031b1c167f2265cf35e234e961bc739ea7efb0e9751a34a8c56c1b547ff729d632c2ad21a0606060ff84511660ff60208601511660405191600435835260208301526040820152a2600435875260016020526106d4836106bb81600360408c2001613bbc565b9054600435929160031b1c6001600160a01b0316613d77565b866106e260ff851687613a9e565b52600435875260016020526002604088206107008560038301613bbc565b60018060a01b0391549060031b1c166000520160205260ff602060406000209282815116831985541617845501511661ff0082549160081b169061ff001916179055565b613c34565b905061076d915060603d606011610774575b6107658183613721565b810190613d52565b908761045b565b503d61075b565b6040513d87823e3d90fd5b505050825b6004358452600160205260036040852001549060ff811691821015610a86576107b48284613a9e565b516107c9575b6107c49150613c34565b61078b565b60043585526001602052604085206107e48260038301613bbc565b939060018060a01b03948591549060031b1c166000526002809201602052604060002090600435885260016020528260408920866108258760038401613bbc565b90549060031b1c166000520160205260ff60016040600020015460101c16600435895260016020528360408a20876108608860038401613bbc565b90549060031b1c16600052016020526108b660ff60016040600020015460181c16916108ac6040519563d6192ad360e01b8752600487019060ff60209154818116845260081c16910152565b60448501906137aa565b6064830152604082608481887f0000000000000000000000000000000000000000000000000000000000000000165afa918215610a7b578892610a12575b50906107c494610931838361092a7f1a5ee6632f2ff8b0f1e4bf31b540f744e4337da13603a9eac0072df00578c5a6968c613a9e565b5289613a9e565b50600435895260016020528061094d86600360408d2001613bbc565b90549060031b1c16936004358a5260016020528060408b20836109738960038401613bbc565b90549060031b1c166000520160205260ff60406000205416916004358b52600160205260408b20906109a88860038401613bbc565b90549060031b1c1660005201602052610a0a60ff60406000205460081c169160ff602081865116950151166040519485946004359386919360ff6080948180949998978160a088019b1687521660208601521660408401521660608201520152565b0390a26107ba565b915060403d604011610a74575b610a298184613721565b820194604083870312610a7057610931610a676107c4977f1a5ee6632f2ff8b0f1e4bf31b540f744e4337da13603a9eac0072df00578c5a695613b38565b935050946108f4565b8880fd5b503d610a1f565b6040513d8a823e3d90fd5b505091805b60043581526001602052600360408220015460ff83161015610e9a57805b60043582526001602052600360408320015460ff82161015610e89578060ff610adb921660ff851603610ae057613c34565b610aa9565b610aed60ff851687613a9e565b51151580610e73575b80610df5575b80610d70575b610c83575b610b1460ff851687613a9e565b51151580610c2f575b80610bd5575b15613c345760043583526001602052610744610b458560036040872001613bbc565b9060018060a01b03918291549060031b1c166004358652600160205281610b7285600360408a2001613bbc565b90549060031b1c16907fbeaba0cb8f0bf4956e3f8756079b1aa20a9c7286167b8957d85188108991642d60206040516004358152a36004358552600160205285610bc28160036040892001613bbc565b60049391933593549060031b1c16613d77565b5060ff6020610be682841688613a9e565b5101511660043584526001602052600260408520610c078760038301613bbc565b60018060a01b0391549060031b1c166000520160205260ff60406000205460081c1614610b23565b5060ff610c3e81831687613a9e565b51511660043584526001602052600260408520610c5e8760038301613bbc565b60018060a01b0391549060031b1c166000520160205260ff6040600020541614610b1d565b82610c9160ff861688613a9e565b5282610ca060ff831688613a9e565b5260043583526001602052610d6b6020610cc08660036040882001613bbc565b905460405160043581526001600160a01b03937fd3530cd7a307ade37676af8529ec0105ea6204af5e1534bd5de42308107123719360031b9290921c8416918391a26004358652600160205281610d1d85600360408a2001613bbc565b90549060031b1c169060206040516004358152a260043585526001602052610d508187610bc281600360408b2001613bbc565b6004358552600160205282610bc28160036040892001613bbc565b610b07565b506004358352600160205260408320610d8c8260038301613bbc565b919060018060a01b03928391549060031b1c16600052600280910160205260406000205491600435865260016020526040862090610dcd8860038401613bbc565b90549060031b1c166000520160205260ff6040600020549181600893841c16921c1614610b02565b506004358352600160205260408320610e118260038301613bbc565b919060018060a01b03928391549060031b1c16600052600280910160205260ff6040600020541691600435865260016020526040862090610e558860038401613bbc565b90549060031b1c166000520160205260ff6040600020541614610afc565b50610e8160ff821687613a9e565b511515610af6565b5090610e9490613c34565b90610a8b565b805b60043581526001602052600360408220019182549260ff821693841015610fab5781610ec791613bbc565b90546001600160a01b03949160031b1c841615610ef1575b50610eeb919250613c34565b90610e9c565b60043583526001602052604083206003018054600019810191908211610f975794610f23610f6492610eeb9697613bbc565b90549060031b1c1660043586526001602052610f458460036040892001613bbc565b90919082549060031b9160018060a01b03809116831b921b1916179055565b60043584526001602052610f7d60036040862001613c99565b610f89575b8291610edf565b610f9290613ce1565b610f82565b634e487b7160e01b85526011600452602485fd5b82600435815260016020526003604082200180548015600014611044575050807f56807b65299b9d361218ee1228c0caeed59b1cbcb079421f124145f99d0a0b0660206040516004358152a260048035825260016020526040822001805461ff0019166101001790555b7f0ffee877d4bec4783459533ceddde8785dcd14454a9ebe37f1b3b8792509c36b60206040516004358152a180f35b6001036110c257506004358152600160205261106560036040832001613ba7565b60018060a01b0391549060031b1c167f56807b65299b9d361218ee1228c0caeed59b1cbcb079421f124145f99d0a0b0660206040516004358152a260048035825260016020526040822001805461ff001916610100179055611015565b6110cb90613ba7565b9060018060a01b03918291549060031b1c16827f6c5d9aa3894362f6fc8570afc4ad57ed5b0498a5e481b34ffccd61ee96cad12c60206040516004358152a3815b6004358352600160205260408320906003820191825460ff83161015611228578361113a8361122395613bbc565b90549060031b1c1660005260028091016020526001604060002001600660ff198254161790556004358552600160205280604086208561117d8560038401613bbc565b90549060031b1c1660005201602052600160406000200161ff00198154169055600435855260016020528060408620856111ba8560038401613bbc565b90549060031b1c166000520160205260016040600020016206000062ff0000198254161790556004358552600160205260408520846111fc8460038401613bbc565b90549060031b1c1660005201602052600160406000200163ff000000198154169055613c34565b61110c565b50505050600435815260016020526004604082200163ff000000198154169055611253600435613e69565b5061125f60043561399e565b611015565b6001015460ff166001600160a01b037f0000000000000000000000000000000000000000000000000000000000000000811690813b1561156a57604051926335d5edab60e01b84526004356004850152602490818501526044938581868183885af1801561155f57611530575b506004358552600160205260016040862001805460ff6112f2818316613c34565b169060ff19161790557ff47e725249069330b61eda3df25e7c3bcfd700624cbc7cbeabb0e28375bee53160206040516004358152a1845b60043586526001602052604086206003810180549160ff841692831015611522578561135785600294613bbc565b90549060031b1c16600052016020526113736040600020613b08565b60405163b173a14760e01b8152815160ff908116600483015260209092015190911660248201526004358782015260809081816064818a5afa9081156115175789916114de575b50606091500151156113d6575b506113d190613c34565b611329565b600435875260016020526113f58483610bc281600360408d2001613bbc565b600435875260016020528361141083600360408b2001613bbc565b90549060031b1c167faf0f1f1c6dd1455929199c881d29a04680c9c20aff5f0331d8619ed875c58d1c60206040516004358152a2600435875260016020526040872060030180546000198101919082116114cb57856114776113d195949361149993613bbc565b90549060031b1c166004358a526001602052610f4584600360408d2001613bbc565b600435885260016020526114b2600360408a2001613c99565b6114bd575b906113c7565b6114c690613ce1565b6114b7565b634e487b7160e01b895260116004528489fd5b9050813d8311611510575b6114f38183613721565b81019181830312610a705760609161150a91613be1565b386113ba565b503d6114e9565b6040513d8b823e3d90fd5b5050505050505050386101ce565b67ffffffffffffffff819692961161154c5760405293386112d1565b634e487b7160e01b825260416004528582fd5b6040513d88823e3d90fd5b8380fd5b5034610176576020366003190112610176576115886138b4565b6115906138ca565b60018060a01b03166bffffffffffffffffffffffff60a01b600254161760025580f35b5034610176576020366003190112610176577fce24807f7e4b60b4e641462f13029fa5e5f79075bbc3f8e5cd43ecd19661d76060206004356115f36138ca565b80845260018252611612600160ff600460408820015416151514613952565b808452600182526040808520600401805460ff1916905551908152a180f35b50346101765760603660031901126101765761164b6138b4565b61166060018060a01b036002541633146138f6565b60243582526001602052611682600160ff600460408620015416151514613952565b6040516331a9108f60e11b815260443560048201526020816024817f00000000000000000000000000000000000000000000000000000000000000006001600160a01b03165afa908115611fd8578391611f92575b506001600160a01b03828116911603611f695760243582526001602090815260408084206001600160a01b038416855260020190915282205460ff16151580611f35575b611ebc579060405161172c816136b6565b818152816020820152819060015b15611a12575b5060408051637128e56d60e11b81526024803560048301529094918491869081847f00000000000000000000000000000000000000000000000000000000000000006001600160a01b03165af1948515611a075784956119c4575b508490848061180561181e60ff8a511660ff60208c01511690604051916117c1836136b6565b60138352724e657720726e6420706169722025732c20257360681b602084015260405194859363ca47c4eb60e01b6020860152606060248601526084850190613c74565b916044840152606483015203601f198101835282613721565b6020815191016a636f6e736f6c652e6c6f675afa50845b6024358652600160205260036040872001805460ff831610156119b7578661185e838293613bbc565b90546040519160031b1c6001600160a01b031661187a826136b6565b601782527f696e206c6f6f702025732c20616464726573733a20257300000000000000000060208301526118ec60405180926118cf602083019563038fd88960e31b8752606060248501526084840190613c74565b9060ff89166044840152606483015203601f198101835282613721565b51906a636f6e736f6c652e6c6f675afa506024358652600160205260026040872061191a8360038301613bbc565b60018060a01b0391549060031b1c1688520160205260ff60408720541660ff885116148061196b575b6119555761195090613c34565b611835565b509193945091506001905b93929391909161173a565b50602435865260016020526002604087206119898360038301613bbc565b60018060a01b0391549060031b1c1688520160205260ff604087205460081c1660ff60208901511614611943565b5050909291939450611960565b90945060403d604011611a00575b6119dc8183613721565b60408282810103126119fc57906119f591810190613b38565b933861179b565b8480fd5b503d6119d2565b6040513d86823e3d90fd5b8161174057604051631986c9e960e31b81526044356004820152849250906020826024817f00000000000000000000000000000000000000000000000000000000000000006001600160a01b03165afa918215611a07578492611e80575b50604051636455ce8d60e11b81526044356004820152926020846024817f00000000000000000000000000000000000000000000000000000000000000006001600160a01b03165afa93841561077b578594611e44575b50604051631303d57d60e11b815260443560048201529385856024817f00000000000000000000000000000000000000000000000000000000000000006001600160a01b03165afa94851561155f578695611d9d575b50604051611b2a816136e8565b8381528660208201528660408201528660608201528660808201528660a082015260018060a01b03831660c082015260ff851660e082015260ff8216610100820152602435610120820152602435875260016020526002604088200160018060a01b03841688526020526040872090611bc860ff60208351828151168319875416178655015116839061ff0082549160081b169061ff001916179055565b60208101516007811015611d8957611be39060018401613acf565b611c0860ff604083015116600184019061ff0082549160081b169061ff001916179055565b60608101516007811015611d8957600291611c296101209260018601613ae7565b611c5260ff608083015116600186019063ff00000082549160181b169063ff0000001916179055565b60a08101511515600185015465010000000000600160c81b0360c084015160281b1660ff60c81b60e085015160c81b169164ff0000000060ff60d01b61010087015160d01b169460201b169063ffffffff64ffffffffff60d81b01161717171760018501550151910155602435865260016020526003604087200180549068010000000000000000821015611d7557611d6f92611d1f85610f458560ff9560017f526c62f8fa999ff5dc01591b8086e17ed53753d49a9eca57e821d0c3f550efa39c9b9a98018155613bbc565b81806020818851169701511696604051978897602435895260443560208a0152604089015260608801521660808601521660a084015260e060c084015260018060a01b03169460e0830190613c74565b0390a280f35b634e487b7160e01b88526041600452602488fd5b634e487b7160e01b89526021600452602489fd5b9094503d908187823e611db08282613721565b6020818381010312611e405780519067ffffffffffffffff90818311610a7057838101601f848301011215610a705782810151918211611e2c5760405193611e02601f8401601f191660200186613721565b8285528101602083858401010111610a70576020611e2593818601920101613c45565b9386611b1d565b634e487b7160e01b89526041600452602489fd5b8680fd5b9093506020813d602011611e78575b81611e6060209383613721565b810103126119fc57611e7190613b2a565b9285611ac7565b3d9150611e53565b9091506020813d602011611eb4575b81611e9c60209383613721565b8101031261156a57611ead90613b2a565b9084611a70565b3d9150611e8f565b606491602435815260016020526002604082200160018060a01b038316825260205260ff6040818184205416926024358152600160205260028282200160018060a01b0386168252602052205460081c1690604051926308538db760e41b845260018060a01b0316600484015260248301526044820152fd5b5060243582526001602090815260408084206001600160a01b038416855260020190915282205460081c60ff16151561171b565b604051634319813760e01b81526001600160a01b03909116600482015260448035602483015290fd5b90506020813d602011611fd0575b81611fad60209383613721565b81010312611fcc57516001600160a01b0381168103611fcc57386116d7565b8280fd5b3d9150611fa0565b6040513d85823e3d90fd5b5034610176573660031901606081126121555760401361017657604051612009816136b6565b60043560ff81168103611fcc57815260243560ff81168103611fcc57602082015260443582606060405161203c81613705565b8281528260208201528260408201520152808352600160205261206d600160ff600460408720015416151514613952565b60405163b173a14760e01b8152825160ff9081166004830152602090930151909216602483015260448201526080816064817f00000000000000000000000000000000000000000000000000000000000000006001600160a01b03165afa90811561214a57829161210d575b60808260606040519160ff815116835260ff6020820151166020840152604081015115156040840152015115156060820152f35b905060803d8111612143575b6121238183613721565b810191608082840312610176575060809161213d91613be1565b386120d9565b503d612119565b6040513d84823e3d90fd5b5080fd5b5034610176576040366003190112610176576024358082526001602052600160ff600460408520015460101c161515036121d95780825260016020526005604083200133835260205260043560408320556040519081527fed023b424457cda33feade9721fca38038ccc8f28f8b88b13c246d12397ff53460203392a280f35b60405162461bcd60e51b815260206004820152602160248201527f436f6d6d6974206d6f76657320686173206e6f742073746172746564207965746044820152602160f81b6064820152608490fd5b503461017657604061223936613743565b856020869593965161224a816136b6565b82815201528552600160205261226d600160ff6004868920015416151514613952565b61228a83519485938493630d42527560e11b855260048501613b6e565b03817f00000000000000000000000000000000000000000000000000000000000000006001600160a01b03165afa90811561214a5782916122e6575b6040826122e48251809260ff60208092828151168552015116910152565bf35b905060403d60401161231d575b6122fd8183613721565b810191604082840312610176575060409161231791613b38565b386122c6565b503d6122f3565b5034610176578060031936011261017657546040516001600160a01b039091168152602090f35b50346101765760e03660031901126101765767ffffffffffffffff600435818111611fcc5761237e9036906004016137e5565b60243582811161156a5761239690369060040161384c565b916044358181116119fc576123af9036906004016137e5565b906064358181116128f8576123c890369060040161384c565b608435828111611e40576123e090369060040161384c565b9460a435928311611e405736602384011215611e4057826004013592612405846137cd565b936124136040519586613721565b80855260208501913660248360051b83010111612890579160248301925b60248360051b82010184106128cd575050505060c43587526001602052612466600160ff600460408b20015416151514613952565b6124738351865114613a0b565b6124808551825114613a0b565b61248d8451835114613a0b565b61249a8651845114613a0b565b865b83518110156128c9576124b76124b28288613a9e565b613ab2565b6124c18284613a9e565b5161251e6124d26124b2858a613a9e565b6124dc8588613a9e565b51926124e8868d613a9e565b5191604051946124fc602087018098613abf565b6001600160f81b031960f893841b811660218801529485926022880190613abf565b821b1660238501521b1660248201526005815261253a816136b6565b51902060c43589526001602052604089206005016001600160a01b036125608488613a9e565b51168a52602052604089205414612580575b61257b90613a56565b61249c565b60c43588526001602052604088206002016001600160a01b036125a38387613a9e565b51168952602052612674604089206125be6124b2848a613a9e565b6125cc600183019182613acf565b60ff6125d88587613a9e565b511660ff825460c81c168091116000146128b257612607905b825461ff00191660089190911b61ff0016178255565b61261d6126176124b2868b613a9e565b82613ae7565b60ff6126298588613a9e565b511660ff825460d01c1680911160001461289b5761265c905b825463ff000000191660189190911b63ff00000016178255565b805464ff000000001916640100000000179055613b08565b9060406126846124b2838a613a9e565b60ff6126908487613a9e565b518351630d42527560e11b815295869384936126b193169160048501613b6e565b03817f00000000000000000000000000000000000000000000000000000000000000006001600160a01b03165afa91821561151757899261285c575b508861272b60406127016124b2858b613a9e565b60ff61270d868a613a9e565b51169082519384928392630d42527560e11b84528960048501613b6e565b03817f00000000000000000000000000000000000000000000000000000000000000006001600160a01b03165afa90811561214a5782916127f8575b5061257b937ffd735dcfd99f4b7d7f6bcea365f20bd4b998183607e89895805ae488fbeaa8669160c09160406001600160a01b036127a5888d613a9e565b51169560c4358152600160205220549160ff6020818451169301511660ff60208184511693015116926040519460c4358652602086015260408501526060840152608083015260a0820152a29050612572565b905060403d604011612855575b61280f8183613721565b8101604082820312611fcc5761257b9461284c60c0927ffd735dcfd99f4b7d7f6bcea365f20bd4b998183607e89895805ae488fbeaa86694613b38565b92509450612767565b503d612805565b90915060403d604011612894575b6128748183613721565b81016040828203126128905761288991613b38565b90386126ed565b8980fd5b503d61286a565b5061265c60ff6128ab8689613a9e565b5116612642565b5061260760ff6128c28688613a9e565b51166125f1565b8780f35b83356001600160a01b03811690036128f45760208060249386358152019401939150612431565b8a80fd5b8580fd5b5034610176576020908160031936011261017657906004359182815260019081835260ff6129368382600460408620015416151514613952565b8482528284526003806040842001549561294f876137cd565b9661295d6040519889613721565b80885261296c601f19916137cd565b01845b818110612b6f5750508484905b612a63575b505050604051938085019181865286518093528160408701970193905b8382106129ab5786880387f35b909192939483610160829988516129d282825160ff60208092828151168552015116910152565b6129e38482015160408401906137aa565b858060408301511660609081850152820151612a04608091828601906137aa565b8201511660a09081840152810151151560c0908184015260018060a01b03908201511660e0830152858060e08301511661010090818501528201511690610120918284015201516101408201520196019201909694969392919361299e565b9085979592918186989596528385526040882090838201918254821015612b6057612a9182612b5294613bbc565b90546001600160a01b0391871b1c81168b52600291820188526040808c20905192918a90612abe856136e8565b612ac783613b08565b85528983015490612adc8383168d8801613c68565b828260081c166040870152612af9838360101c1660608801613c68565b828260181c16608087015282828d1c16151560a08701528160281c1660c0860152818160c81c1660e086015260d01c166101008401520154610120820152612b41828a613a9e565b52612b4c8189613a9e565b50613a56565b90919295979694939661297c565b50505096949695939295612981565b9680949597604099979951612b83816136e8565b604051612b8f816136b6565b8a81528a84820152815289838201528960408201528960608201528960808201528960a08201528960c08201528960e0820152896101008201528961012082015282828a010152019795979694939661296f565b5034610176578060031936011261017657612bfc6138ca565b80546001600160a01b03198116825581906001600160a01b03167f8be0079c531659141344cd1fd0a4f28419497f9722a3daafe3b4186f6b6457e08280a380f35b503461017657602090816003193601126101765760043580825260018352612c73600160ff600460408620015416151514613952565b60405163436fadf360e11b8152600481019190915282816024817f00000000000000000000000000000000000000000000000000000000000000006001600160a01b03165afa918215612d0c578092612cd4575b505060ff60405191168152f35b9091508282813d8311612d05575b612cec8183613721565b810103126101765750612cfe90613b2a565b3880612cc7565b503d612ce2565b604051903d90823e3d90fd5b5034610176576040366003190112610176576004359060ff6024358181168103611fcc5760018060a01b0391600292612d558185541633146138f6565b8186101561308957858552600191602094838652816004604089200154166130365787875283865260408720600401805460ff191685179055839087825b612fdc575b5050508686528285526003604087200180549087815581612fb9575b5050612dbf87613e69565b5060405163af2f210960e01b815260ff85166004820152602481018890529186908390604490829084907f0000000000000000000000000000000000000000000000000000000000000000165af191821561155f578692612f1a575b5085835b612e94575b6040805160ff87168152602081018a905288917f50ad08f58a27f2851d7e3a1b3a6a46b290f2ce677e99642d30ff639721e777909189918c917f69daaa80244624dc227320708ed184109781f5bffb597d57054abadec2931b3b9190a1612e8a8161399e565b604051908152a180f35b8251811015612f1557807fe40ab56a2b71773fd8fa12379eac11a90b1a5a8b57fbdb4b84e4734d32a551e160808a85612ed0612f0f9689613a9e565b515116868b612edf878b613a9e565b510151166040612eef878b613a9e565b5101511515916040519384528c84015260408301526060820152a1613a56565b83612e1f565b612e24565b9091503d8087833e612f2c8183613721565b8101908581830312611e405780519067ffffffffffffffff8211612fb5570181601f82011215611e40578051612f61816137cd565b92612f6f6040519485613721565b818452878085019260071b84010192818411612890578801915b88848410612f9d5750505050509038612e1b565b608091612faa8486613be1565b815201920191612f89565b8780fd5b875283868820918201915b828110612fd15750612db4565b888155018490612fc4565b89895282885260408920906003918281019087825484101561302d5761302794613007858895613bbc565b9054911b1c168c5201895289836040822082815582878201550155613a56565b82612d93565b50505050612d98565b60405162461bcd60e51b815260048101879052602560248201527f47616d652077697468207468697320494420616c726561647920696e2070726f604482015264677265737360d81b6064820152608490fd5b60405162461bcd60e51b815260206004820152601f60248201527f4d6178696d756d206e756d626572206f662067616d65732072656163686564006044820152606490fd5b5034610176576020806003193601126121555760043580835260019283835260ff6131058582600460408620015416151514613952565b60405163436fadf360e11b815260048101939093527f00000000000000000000000000000000000000000000000000000000000000006001600160a01b031690602485858281865afa948515611a0757849561340b575b508161316786613f98565b951694878601908382116133f85761318e6131896131949386939b999b613fac565b613fc3565b16613cf1565b966040516131a1816136b6565b81815281888201526131b289613a7b565b526131bc88613a7b565b5085805b613220575b50505050506040519280840190808552855180925280604086019601925b8281106131f05785870386f35b9091929382604088613213849a895160ff60208092828151168552015116910152565b01979501939291016131e3565b8381999799168281116133ef5760001981018581116133dc5761324f6131898461324a8994613f98565b613fac565b169061325a89613a7b565b516040516301cf2e2560e51b8152815160ff9081166004830152602090920151909116602482015290604482015287816064818a5afa908115610a7b57889161333f575b508a95949392919088875b6132c5575b5050506132ba90613c34565b9091929396986131c0565b908092939495969750518c8883169182101561333457506132e68184613a9e565b5190840190818511613321579161330e828f946133078f9561331496613a9e565b528d613a9e565b50613c34565b81979695949392916132a9565b634e487b7160e01b8b526011600452878bfd5b9796959493506132ae565b90503d8089833e6133508183613721565b8101908a81830312610a705780519067ffffffffffffffff8211612890570181601f82011215610a70578051613385816137cd565b926133936040519485613721565b8184528c8085019260061b840101928184116133d8578d01915b8d8484106133c05750505050503861329e565b6040916133cd8486613b38565b8152019201916133ad565b8b80fd5b634e487b7160e01b885260116004528488fd5b509795976131c5565b634e487b7160e01b865260116004528286fd5b9094508581813d831161343b575b6134238183613721565b8101031261156a5761343490613b2a565b933861315c565b503d613419565b50346101765780600319360112610176576002546040516001600160a01b039091168152602090f35b50346101765761347a36613743565b919092828552600460406001956134d46020958887526134a8898b60ff978897889220015416151514613952565b60405163183b1baf60e01b8152865160ff908116600483015260209097015190961660248701526103fb565b166064830152608482018490526001600160a01b039160608160a4817f000000000000000000000000000000000000000000000000000000000000000087165afa90811561363e578790889261361d575b50156135c357508386528483526135488582600460408a20015416151514613952565b859283865b613564575b50505050613561925033613d77565b80f35b85885286825260038060408a2001805485841610156135bc57613588838792613bbc565b929092339354911b1c16146135a957906135a28792613c34565b909161354d565b9350505050613561925038808080613552565b5050613552565b613561959250808285925116868952848352600260408a2001338a528352604089209060ff198254161790550151169285528152600260408520019033855252604083209061ff0082549160081b169061ff001916179055565b9050613637915060603d8111610774576107658183613721565b9038613525565b6040513d89823e3d90fd5b9050346121555760203660031901126121555760ff604060c0936004358152600160205220805490600483600183015416910154918452602084015281811615156040840152818160081c1615156060840152818160101c161515608084015260181c16151560a0820152f35b6040810190811067ffffffffffffffff8211176136d257604052565b634e487b7160e01b600052604160045260246000fd5b610140810190811067ffffffffffffffff8211176136d257604052565b6080810190811067ffffffffffffffff8211176136d257604052565b90601f8019910116810190811067ffffffffffffffff8211176136d257604052565b6003190160a081126137a5576040136137a557604051613762816136b6565b60043560ff811681036137a557815260243560ff811681036137a55760208201529060443560078110156137a5579060643560ff811681036137a5579060843590565b600080fd5b9060078210156137b75752565b634e487b7160e01b600052602160045260246000fd5b67ffffffffffffffff81116136d25760051b60200190565b81601f820112156137a5578035916137fc836137cd565b9261380a6040519485613721565b808452602092838086019260051b8201019283116137a5578301905b828210613834575050505090565b813560078110156137a5578152908301908301613826565b81601f820112156137a557803591613863836137cd565b926138716040519485613721565b808452602092838086019260051b8201019283116137a5578301905b82821061389b575050505090565b813560ff811681036137a557815290830190830161388d565b600435906001600160a01b03821682036137a557565b6000546001600160a01b031633036138de57565b60405163118cdaa760e01b8152336004820152602490fd5b156138fd57565b60405162461bcd60e51b815260206004820152602760248201527f43616c6c6572206973206e6f742074686520726567697374726174696f6e20636044820152661bdb9d1c9858dd60ca1b6064820152608490fd5b1561395957565b60405162461bcd60e51b815260206004820152601960248201527f47616d6520686173206e6f7420737461727465642079657421000000000000006044820152606490fd5b60207f8924ef8e2fcf31b0d38716fc8120f7aec496d13f5abdb8320e31a69dbc4491009180600052600182526139e3600160ff60046040600020015416151514613952565b806000526001825260046040600020016201000062ff000019825416179055604051908152a1565b15613a1257565b606460405162461bcd60e51b815260206004820152602060248201527f417272617973206d7573742068617665207468652073616d65206c656e6774686044820152fd5b6000198114613a655760010190565b634e487b7160e01b600052601160045260246000fd5b805115613a885760200190565b634e487b7160e01b600052603260045260246000fd5b8051821015613a885760209160051b010190565b5160078110156137b75790565b60078110156137b75760f81b9052565b9060078110156137b75760ff80198354169116179055565b9060078110156137b75762ff000082549160101b169062ff00001916179055565b90604051613b15816136b6565b602060ff829454818116845260081c16910152565b519060ff821682036137a557565b91908260409103126137a557604051613b50816136b6565b6020613b69818395613b6181613b2a565b855201613b2a565b910152565b916060919493613ba160ff92613b9786608081019960ff60208092828151168552015116910152565b60408601906137aa565b16910152565b805415613a8857600052602060002090600090565b8054821015613a885760005260206000200190600090565b519081151582036137a557565b91908260809103126137a557604051613bf981613705565b6060613b69818395613c0a81613b2a565b8552613c1860208201613b2a565b6020860152613c2960408201613bd4565b604086015201613bd4565b60ff1660ff8114613a655760010190565b60005b838110613c585750506000910152565b8181015183820152602001613c48565b60078210156137b75752565b90602091613c8d81518092818552858086019101613c45565b601f01601f1916010190565b80548015613ccb576000190190613cc8613cb38383613bbc565b81549060018060a01b039060031b1b19169055565b55565b634e487b7160e01b600052603160045260246000fd5b60ff168015613a65576000190190565b90613cfb826137cd565b604090613d0a82519182613721565b8381528093613d1b601f19916137cd565b0191600090815b848110613d30575050505050565b6020908251613d3e816136b6565b848152828581830152828701015201613d22565b91906060838203126137a557613d74906020613d6d85613bd4565b9401613b38565b90565b90916000908082526001906020908282526040946003868620015460ff88161015613e255792613cb39592826003958794613e239a9852838352613dc78460ff6004898920015416151514613952565b60018060a01b0316807f0ceeb6c20e03a8c47e6673117b7b54c5b880118423ef2a84e0b795bd849fc406848851858152a28185528383526002868620019085528252836002868220828155828682015501558352522001613bbc565b565b855162461bcd60e51b815260048101849052601860248201527f496e6465782076616c7565206f7574206f662072616e676500000000000000006044820152606490fd5b6040805163436fadf360e11b815260048101839052909160209182816024817f00000000000000000000000000000000000000000000000000000000000000006001600160a01b03165afa908115613f8d57600091613f2d575b50907f3874cce3730901301cd0c02b4c2dd416d59546f183096d9f2a434c4d3a9ba4a56060600194938360005285855286600020613f018154613a56565b90558360005285855260ff876000205491885192868452878401521687820152a1600052526000205490565b908382813d8311613f86575b613f438183613721565b810103126101765750907f3874cce3730901301cd0c02b4c2dd416d59546f183096d9f2a434c4d3a9ba4a56060613f7c60019594613b2a565b9293945050613ec3565b503d613f39565b84513d6000823e3d90fd5b60ff166003029060ff8216918203613a6557565b9060ff8091169116029060ff8216918203613a6557565b60ff166001019060ff8211613a655756fea264697066735822122082616f42dd451a878d497bd41877658b8e93cc492ce36c98d7e91da29dae9ec864736f6c63430008140033",
  "linkReferences": {},
  "deployedLinkReferences": {}
}