{
  "_format": "hh-sol-artifact-1",
  "contractName": "Punkships",
  "sourceName": "contracts/Punkships.sol",
  "abi": [
    {
      "inputs": [
        {
          "internalType": "address",
          "name": "initialOwner",
          "type": "address"
        }
      ],
      "stateMutability": "nonpayable",
      "type": "constructor"
    },
    {
      "inputs": [
        {
          "internalType": "address",
          "name": "sender",
          "type": "address"
        },
        {
          "internalType": "uint256",
          "name": "tokenId",
          "type": "uint256"
        },
        {
          "internalType": "address",
          "name": "owner",
          "type": "address"
        }
      ],
      "name": "ERC721IncorrectOwner",
      "type": "error"
    },
    {
      "inputs": [
        {
          "internalType": "address",
          "name": "operator",
          "type": "address"
        },
        {
          "internalType": "uint256",
          "name": "tokenId",
          "type": "uint256"
        }
      ],
      "name": "ERC721InsufficientApproval",
      "type": "error"
    },
    {
      "inputs": [
        {
          "internalType": "address",
          "name": "approver",
          "type": "address"
        }
      ],
      "name": "ERC721InvalidApprover",
      "type": "error"
    },
    {
      "inputs": [
        {
          "internalType": "address",
          "name": "operator",
          "type": "address"
        }
      ],
      "name": "ERC721InvalidOperator",
      "type": "error"
    },
    {
      "inputs": [
        {
          "internalType": "address",
          "name": "owner",
          "type": "address"
        }
      ],
      "name": "ERC721InvalidOwner",
      "type": "error"
    },
    {
      "inputs": [
        {
          "internalType": "address",
          "name": "receiver",
          "type": "address"
        }
      ],
      "name": "ERC721InvalidReceiver",
      "type": "error"
    },
    {
      "inputs": [
        {
          "internalType": "address",
          "name": "sender",
          "type": "address"
        }
      ],
      "name": "ERC721InvalidSender",
      "type": "error"
    },
    {
      "inputs": [
        {
          "internalType": "uint256",
          "name": "tokenId",
          "type": "uint256"
        }
      ],
      "name": "ERC721NonexistentToken",
      "type": "error"
    },
    {
      "inputs": [
        {
          "internalType": "uint8",
          "name": "position",
          "type": "uint8"
        }
      ],
      "name": "InvalidPosition",
      "type": "error"
    },
    {
      "inputs": [
        {
          "internalType": "address",
          "name": "owner",
          "type": "address"
        }
      ],
      "name": "OwnableInvalidOwner",
      "type": "error"
    },
    {
      "inputs": [
        {
          "internalType": "address",
          "name": "account",
          "type": "address"
        }
      ],
      "name": "OwnableUnauthorizedAccount",
      "type": "error"
    },
    {
      "inputs": [
        {
          "internalType": "uint256",
          "name": "tokenId",
          "type": "uint256"
        }
      ],
      "name": "ShipNotMinted",
      "type": "error"
    },
    {
      "anonymous": false,
      "inputs": [
        {
          "indexed": true,
          "internalType": "address",
          "name": "owner",
          "type": "address"
        },
        {
          "indexed": true,
          "internalType": "address",
          "name": "approved",
          "type": "address"
        },
        {
          "indexed": true,
          "internalType": "uint256",
          "name": "tokenId",
          "type": "uint256"
        }
      ],
      "name": "Approval",
      "type": "event"
    },
    {
      "anonymous": false,
      "inputs": [
        {
          "indexed": true,
          "internalType": "address",
          "name": "owner",
          "type": "address"
        },
        {
          "indexed": true,
          "internalType": "address",
          "name": "operator",
          "type": "address"
        },
        {
          "indexed": false,
          "internalType": "bool",
          "name": "approved",
          "type": "bool"
        }
      ],
      "name": "ApprovalForAll",
      "type": "event"
    },
    {
      "anonymous": false,
      "inputs": [
        {
          "indexed": true,
          "internalType": "address",
          "name": "owner",
          "type": "address"
        },
        {
          "indexed": true,
          "internalType": "uint256",
          "name": "tokenId",
          "type": "uint256"
        }
      ],
      "name": "Burn",
      "type": "event"
    },
    {
      "anonymous": false,
      "inputs": [
        {
          "indexed": true,
          "internalType": "address",
          "name": "owner",
          "type": "address"
        },
        {
          "indexed": true,
          "internalType": "uint256",
          "name": "id",
          "type": "uint256"
        },
        {
          "indexed": false,
          "internalType": "string",
          "name": "tokenURI",
          "type": "string"
        }
      ],
      "name": "Mint",
      "type": "event"
    },
    {
      "anonymous": false,
      "inputs": [
        {
          "indexed": true,
          "internalType": "address",
          "name": "previousOwner",
          "type": "address"
        },
        {
          "indexed": true,
          "internalType": "address",
          "name": "newOwner",
          "type": "address"
        }
      ],
      "name": "OwnershipTransferred",
      "type": "event"
    },
    {
      "anonymous": false,
      "inputs": [
        {
          "indexed": true,
          "internalType": "address",
          "name": "from",
          "type": "address"
        },
        {
          "indexed": true,
          "internalType": "address",
          "name": "to",
          "type": "address"
        },
        {
          "indexed": true,
          "internalType": "uint256",
          "name": "tokenId",
          "type": "uint256"
        }
      ],
      "name": "Transfer",
      "type": "event"
    },
    {
      "stateMutability": "nonpayable",
      "type": "fallback"
    },
    {
      "inputs": [
        {
          "internalType": "address",
          "name": "to",
          "type": "address"
        },
        {
          "internalType": "uint256",
          "name": "tokenId",
          "type": "uint256"
        }
      ],
      "name": "approve",
      "outputs": [],
      "stateMutability": "nonpayable",
      "type": "function"
    },
    {
      "inputs": [
        {
          "internalType": "address",
          "name": "owner",
          "type": "address"
        }
      ],
      "name": "balanceOf",
      "outputs": [
        {
          "internalType": "uint256",
          "name": "",
          "type": "uint256"
        }
      ],
      "stateMutability": "view",
      "type": "function"
    },
    {
      "inputs": [
        {
          "internalType": "uint256",
          "name": "tokenId",
          "type": "uint256"
        }
      ],
      "name": "burn",
      "outputs": [],
      "stateMutability": "nonpayable",
      "type": "function"
    },
    {
      "inputs": [
        {
          "internalType": "uint256",
          "name": "tokenId",
          "type": "uint256"
        }
      ],
      "name": "burnByGameContract",
      "outputs": [],
      "stateMutability": "nonpayable",
      "type": "function"
    },
    {
      "inputs": [
        {
          "internalType": "uint256",
          "name": "tokenId",
          "type": "uint256"
        }
      ],
      "name": "getApproved",
      "outputs": [
        {
          "internalType": "address",
          "name": "",
          "type": "address"
        }
      ],
      "stateMutability": "view",
      "type": "function"
    },
    {
      "inputs": [
        {
          "internalType": "uint256",
          "name": "tokenId",
          "type": "uint256"
        }
      ],
      "name": "getImage",
      "outputs": [
        {
          "internalType": "string",
          "name": "",
          "type": "string"
        }
      ],
      "stateMutability": "view",
      "type": "function"
    },
    {
      "inputs": [
        {
          "internalType": "uint256",
          "name": "tokenId",
          "type": "uint256"
        }
      ],
      "name": "getRange",
      "outputs": [
        {
          "internalType": "uint8",
          "name": "",
          "type": "uint8"
        }
      ],
      "stateMutability": "view",
      "type": "function"
    },
    {
      "inputs": [
        {
          "internalType": "uint256",
          "name": "tokenId",
          "type": "uint256"
        }
      ],
      "name": "getShipTypeName",
      "outputs": [
        {
          "internalType": "string",
          "name": "",
          "type": "string"
        }
      ],
      "stateMutability": "view",
      "type": "function"
    },
    {
      "inputs": [
        {
          "internalType": "uint256",
          "name": "tokenId",
          "type": "uint256"
        }
      ],
      "name": "getShootingRange",
      "outputs": [
        {
          "internalType": "uint8",
          "name": "",
          "type": "uint8"
        }
      ],
      "stateMutability": "view",
      "type": "function"
    },
    {
      "inputs": [
        {
          "internalType": "address",
          "name": "owner",
          "type": "address"
        },
        {
          "internalType": "address",
          "name": "operator",
          "type": "address"
        }
      ],
      "name": "isApprovedForAll",
      "outputs": [
        {
          "internalType": "bool",
          "name": "",
          "type": "bool"
        }
      ],
      "stateMutability": "view",
      "type": "function"
    },
    {
      "inputs": [],
      "name": "name",
      "outputs": [
        {
          "internalType": "string",
          "name": "",
          "type": "string"
        }
      ],
      "stateMutability": "view",
      "type": "function"
    },
    {
      "inputs": [],
      "name": "owner",
      "outputs": [
        {
          "internalType": "address",
          "name": "",
          "type": "address"
        }
      ],
      "stateMutability": "view",
      "type": "function"
    },
    {
      "inputs": [
        {
          "internalType": "uint256",
          "name": "tokenId",
          "type": "uint256"
        }
      ],
      "name": "ownerOf",
      "outputs": [
        {
          "internalType": "address",
          "name": "",
          "type": "address"
        }
      ],
      "stateMutability": "view",
      "type": "function"
    },
    {
      "inputs": [],
      "name": "renounceOwnership",
      "outputs": [],
      "stateMutability": "nonpayable",
      "type": "function"
    },
    {
      "inputs": [
        {
          "internalType": "address",
          "name": "to",
          "type": "address"
        }
      ],
      "name": "safeMint",
      "outputs": [],
      "stateMutability": "nonpayable",
      "type": "function"
    },
    {
      "inputs": [
        {
          "internalType": "address",
          "name": "from",
          "type": "address"
        },
        {
          "internalType": "address",
          "name": "to",
          "type": "address"
        },
        {
          "internalType": "uint256",
          "name": "tokenId",
          "type": "uint256"
        }
      ],
      "name": "safeTransferFrom",
      "outputs": [],
      "stateMutability": "nonpayable",
      "type": "function"
    },
    {
      "inputs": [
        {
          "internalType": "address",
          "name": "from",
          "type": "address"
        },
        {
          "internalType": "address",
          "name": "to",
          "type": "address"
        },
        {
          "internalType": "uint256",
          "name": "tokenId",
          "type": "uint256"
        },
        {
          "internalType": "bytes",
          "name": "data",
          "type": "bytes"
        }
      ],
      "name": "safeTransferFrom",
      "outputs": [],
      "stateMutability": "nonpayable",
      "type": "function"
    },
    {
      "inputs": [
        {
          "internalType": "address",
          "name": "operator",
          "type": "address"
        },
        {
          "internalType": "bool",
          "name": "approved",
          "type": "bool"
        }
      ],
      "name": "setApprovalForAll",
      "outputs": [],
      "stateMutability": "nonpayable",
      "type": "function"
    },
    {
      "inputs": [
        {
          "internalType": "address",
          "name": "_gameContract",
          "type": "address"
        }
      ],
      "name": "setGameContract",
      "outputs": [],
      "stateMutability": "nonpayable",
      "type": "function"
    },
    {
      "inputs": [
        {
          "internalType": "bytes4",
          "name": "interfaceId",
          "type": "bytes4"
        }
      ],
      "name": "supportsInterface",
      "outputs": [
        {
          "internalType": "bool",
          "name": "",
          "type": "bool"
        }
      ],
      "stateMutability": "view",
      "type": "function"
    },
    {
      "inputs": [],
      "name": "symbol",
      "outputs": [
        {
          "internalType": "string",
          "name": "",
          "type": "string"
        }
      ],
      "stateMutability": "view",
      "type": "function"
    },
    {
      "inputs": [
        {
          "internalType": "uint256",
          "name": "tokenId",
          "type": "uint256"
        }
      ],
      "name": "tokenURI",
      "outputs": [
        {
          "internalType": "string",
          "name": "",
          "type": "string"
        }
      ],
      "stateMutability": "view",
      "type": "function"
    },
    {
      "inputs": [
        {
          "internalType": "address",
          "name": "from",
          "type": "address"
        },
        {
          "internalType": "address",
          "name": "to",
          "type": "address"
        },
        {
          "internalType": "uint256",
          "name": "tokenId",
          "type": "uint256"
        }
      ],
      "name": "transferFrom",
      "outputs": [],
      "stateMutability": "nonpayable",
      "type": "function"
    },
    {
      "inputs": [
        {
          "internalType": "address",
          "name": "newOwner",
          "type": "address"
        }
      ],
      "name": "transferOwnership",
      "outputs": [],
      "stateMutability": "nonpayable",
      "type": "function"
    }
  ],
  "bytecode": "0x6080346200055a576200526b9081380390601f19601f818185011683019460018060401b0394848710868811176200055f57808592604098895283396020948591810103126200055a57516001600160a01b039390848116908190036200055a576200006a62000575565b95600987526850756e6b736869707360b81b838801526200008a62000575565b9360049485815263504e4b5360e01b85820152885196838811620005455760009788549a60019b8c81811c911680156200053a575b898210146200052757908186849311620004f7575b5088908683116001146200048d578b9262000481575b5050600019600383901b1c1916908b1b1788555b81519384116200046e5789548a81811c9116801562000463575b878210146200045057908184869594931162000415575b5086928411600114620003b457508792620003a8575b5050600019600383901b1c191690871b1786555b80156200039157600680546001600160a01b03198116831790915585167f8be0079c531659141344cd1fd0a4f28419497f9722a3daafe3b4186f6b6457e08580a3620001a462000575565b71c00000008000000000000000000000000000815271fe000000fc000000f8000000f0000000e00082820152838052600982528684209086855b60028110620003755750505050620001f562000575565b72d9f3e00059f3c00019f3800001f000000000008152730fd9f3800fd9f3c007d9f3e003d9f3f001d9f3f082820152858452600982528684209086855b600281106200036057505050506200024962000575565b9373010f3cfc000f3cfc000f3cf8000f3cf000003c008552733f0f3ce01f0f3cf00f0f3cfc070f3cfc030f3cfc82860152600294858552600983528785209087865b8881106200034b5750505050620002a162000575565b72339cfe00339cfc00339cf800039cf000039ce08152737c339ce03c339cf01c339cf80c339cfc04339cfe83820152600385526009835287852087865b88811062000336575050505050620002f562000575565b91838352838284015283526009815285832091925b84811062000321578651614cbc9081620005af8239f35b835160ff16838201559281019285016200030a565b858585511694019381840155018890620002de565b8585845116930192818501550188906200028b565b84888451169301928185015501879062000232565b82516001600160901b03168482015591840191889101620001de565b8651631e4fbdf760e01b8152808401859052602490fd5b01519050388062000145565b8a89528689208b959093929116895b88828210620003fe5750508411620003e4575b505050811b01865562000159565b015160001960f88460031b161c19169055388080620003d6565b8385015186558d97909501949384019301620003c3565b6200043f908c8b52888b208580880160051c8201928b891062000446575b0160051c019062000595565b386200012f565b9250819262000433565b634e487b7160e01b895260228852602489fd5b90607f169062000118565b634e487b7160e01b885260418752602488fd5b015190503880620000ea565b90848e9416918c80528a8d20928d5b8c828210620004d75750508411620004bd575b505050811b018855620000fe565b015160001960f88460031b161c19169055388080620004af565b91929395968291958786015181550195019301908f95949392916200049c565b62000520908c80528a8d208880860160051c8201928d871062000446570160051c019062000595565b38620000d4565b634e487b7160e01b8b5260228a5260248bfd5b90607f1690620000bf565b604187634e487b7160e01b6000525260246000fd5b600080fd5b634e487b7160e01b600052604160045260246000fd5b60408051919082016001600160401b038111838210176200055f57604052565b818110620005a1575050565b600081556001016200059556fe6105606040818152600480361015610021575b5050503461001c57005b600080fd5b600092833560e01c90816301ffc9a714610e605750806306fdde0314610d95578063081812fc14610d5a578063095ea7b314610c7e57806323b872dd14610c665780632607aafa14610c18578063405ebd4d14610bd357806340d097c31461092257806342842e0e146108f357806342966c68146107b45780634490e0f3146107765780636352211e1461074557806370a08231146106f0578063715018a614610693578063835f39671461055f5780638da5cb5b1461053657806395d89b4114610420578063a22cb4651461037f578063b88d4fde146102ec578063c87b56dd146102b1578063c8ab9d1a14610272578063cc364f4814610216578063e985e9c5146101c45763f2fde38b0361001257346101c05760203660031901126101c05761014b610f14565b90610154611033565b6001600160a01b039182169283156101aa575050600654826bffffffffffffffffffffffff60a01b821617600655167f8be0079c531659141344cd1fd0a4f28419497f9722a3daafe3b4186f6b6457e08380a380f35b51631e4fbdf760e01b8152908101849052602490fd5b8280fd5b50503461021257806003193601126102125760ff816020936101e4610f14565b6101ec610f2a565b6001600160a01b0391821683526005875283832091168252855220549151911615158152f35b5080fd5b50829034610212576020366003190112610212578035808352600260205291839020546001600160a01b03161561025d5760208360ff610255856147b8565b915191168152f35b91516361ca35d160e01b815291820152602490fd5b50829034610212576020366003190112610212578035808352600260205291839020546001600160a01b03161561025d5760208360ff61025585614829565b5091346102e95760203660031901126102e957506102d26102e59235614967565b9051918291602083526020830190610eef565b0390f35b80fd5b5090346101c05760803660031901126101c057610307610f14565b61030f610f2a565b6044359185606435956001600160401b0387116102125736602388011215610212578601359561034a61034188611018565b96519687610ff7565b8686523660248883010111610212578661037c97602460209301838901378601015261037783838361105f565b611227565b80f35b5090346101c057806003193601126101c057610399610f14565b906024359182151580930361041c576001600160a01b03169283156104075750338452600560205280842083855260205280842060ff1981541660ff8416179055519081527f17307eab39ab6107e8899845ad3d59bd9653f200f220920489ca2b5937696c3160203392a380f35b836024925191630b61174360e31b8352820152fd5b8480fd5b5091346102e957806003193601126102e9578151918160019283549384811c9181861695861561052c575b6020968785108114610519578899509688969785829a5291826000146104f2575050600114610497575b5050506102e59291610488910385610ff7565b51928284938452830190610eef565b91908693508083527fb10e2d527612073b26eecdfd717e6a320cf44b4afac2b0732d9fcbe2b7fa0cf65b8284106104da57505050820101816104886102e5610475565b8054848a0186015288955087949093019281016104c1565b60ff19168782015293151560051b8601909301935084925061048891506102e59050610475565b634e487b7160e01b835260228a52602483fd5b92607f169261044b565b50503461021257816003193601126102125760065490516001600160a01b039091168152602090f35b50346101c05760203660031901126101c0576008548135926001600160a01b039290918316330361065157610593846111ec565b9184865260026020528381872054168587821592831561061d575b828252600260205284822080546001600160a01b0319169055600080516020614c678339815191528280a4610607575050167fcc16f5dbb4873280815c1ee09dbd06736cffcc184412cf7a71a0fdb75d397ca58380a380f35b51637e27328960e01b8152908101849052602490fd5b600083815260046020526040902080546001600160a01b0319169055808252600360205284822080546000190190556105ae565b6020606492519162461bcd60e51b8352820152601f60248201527f43616c6c6572206973206e6f74207468652067616d6520636f6e7472616374006044820152fd5b83346102e957806003193601126102e9576106ac611033565b600680546001600160a01b0319811690915581906001600160a01b03167f8be0079c531659141344cd1fd0a4f28419497f9722a3daafe3b4186f6b6457e08280a380f35b5091346102e95760203660031901126102e9576001600160a01b03610713610f14565b169283156107305750806020938392526003845220549051908152f35b91516322718ad960e21b815291820152602490fd5b5091346102e95760203660031901126102e95750610765602092356111ec565b90516001600160a01b039091168152f35b50829034610212576020366003190112610212578035808352600260205291839020546001600160a01b03161561025d576102e5836102d284614892565b5082903461021257602090816003193601126101c0578035808452600283528484205490926001600160a01b03918216929091331515908161085e575b50505093600284958395949561082b575b85855252822080546001600160a01b0319169055600080516020614c678339815191528280a480f35b600086815260046020526040902080546001600160a01b0319169055838552600381528285208054600019019055610802565b816108a7575b50156108715780806107f1565b93505061088c576024925191637e27328960e01b8352820152fd5b604492519163177e802f60e01b835233908301526024820152fd5b338514915081156108d6575b81156108c1575b5087610864565b858752828452878720541633149050876108ba565b8487526005845287872033885284528787205460ff1691506108b3565b5050346102125761037c9061090736610f40565b9192519261091484610fc1565b85845261037783838361105f565b5090346101c05760209081600319360112610bcf5761093f610f14565b600754936000199391848614610bbc576001860160075583519061096282610fc1565b8782526001600160a01b0381811696908715610ba557878991828c5260028852888c2054168015159384610b73575b50818c5260038852888c2080546001019055828c5260028852888c2080546001600160a01b03191683179055600080516020614c678339815191528c80a4610b5c573b610a20575b5050907f85a66b9141978db9980f7e0ce3b468cebf4f7999f32b23091c5c03e798b1ba7a91610a1a610a0a86614967565b9251928284938452830190610eef565b0390a380f35b8396929695919551878180610a5c630a85bd0160e11b95868352338c840152886024840152876044840152608060648401526084830190610eef565b0381878a5af1849181610b1c575b50610ac8575050503d600014610ac0573d610a8481611018565b90610a9184519283610ff7565b81528091863d92013e5b80519485610aba57505051633250574960e11b81529182015260249150fd5b85925001fd5b506060610a9b565b9296919591926001600160e01b03191603610b0557507f85a66b9141978db9980f7e0ce3b468cebf4f7999f32b23091c5c03e798b1ba7a386109d9565b8251633250574960e11b8152908101849052602490fd5b9091508881813d8311610b55575b610b348183610ff7565b8101031261041c57516001600160e01b03198116810361041c579038610a6a565b503d610b2a565b84516339e3563760e11b8152808401899052602490fd5b600084815260046020526040902080546001600160a01b0319169055818d5260038952898d2090815401905538610991565b8651633250574960e11b81528086018b9052602490fd5b634e487b7160e01b875260118252602487fd5b8380fd5b83346102e95760203660031901126102e957610bed610f14565b610bf5611033565b60018060a01b03166bffffffffffffffffffffffff60a01b600854161760085580f35b50829034610212576020366003190112610212578035808352600260205291839020546001600160a01b03161561025d576102e5836102d2610c61610c5c8661154f565b6113f3565b61136b565b83346102e95761037c610c7836610f40565b9161105f565b5090346101c057806003193601126101c057610c98610f14565b91602435610ca5816111ec565b33151580610d47575b80610d1e575b610d08576001600160a01b039485169482918691167f8c5be1e5ebec7d5bd14f71427d1e84f3dd0314c0f7b2291e5b200ac8c7c3b9258880a48452602052822080546001600160a01b031916909117905580f35b835163a9fbf51f60e01b81523381850152602490fd5b506001600160a01b03811686526005602090815284872033885290528386205460ff1615610cb4565b506001600160a01b038116331415610cae565b50346101c05760203660031901126101c057918260209335610d7b816111ec565b50825283528190205490516001600160a01b039091168152f35b5091346102e957806003193601126102e95781519181825492600184811c91818616958615610e56575b6020968785108114610519578899509688969785829a5291826000146104f2575050600114610dfb575050506102e59291610488910385610ff7565b91908693508280527f290decd9548b62a8d60345a988386fc84ba6bc95484008f6362f93160ef3e5635b828410610e3e57505050820101816104886102e5610475565b8054848a018601528895508794909301928101610e25565b92607f1692610dbf565b925050346101c05760203660031901126101c0573563ffffffff60e01b81168091036101c057602092506380ac58cd60e01b8114908115610ebb575b8115610eaa575b5015158152f35b6301ffc9a760e01b14905038610ea3565b635b5e139f60e01b81149150610e9c565b60005b838110610edf5750506000910152565b8181015183820152602001610ecf565b90602091610f0881518092818552858086019101610ecc565b601f01601f1916010190565b600435906001600160a01b038216820361001c57565b602435906001600160a01b038216820361001c57565b606090600319011261001c576001600160a01b0390600435828116810361001c5791602435908116810361001c579060443590565b606081019081106001600160401b03821117610f9057604052565b634e487b7160e01b600052604160045260246000fd5b60a081019081106001600160401b03821117610f9057604052565b602081019081106001600160401b03821117610f9057604052565b604081019081106001600160401b03821117610f9057604052565b90601f801991011681019081106001600160401b03821117610f9057604052565b6001600160401b038111610f9057601f01601f191660200190565b6006546001600160a01b0316330361104757565b60405163118cdaa760e01b8152336004820152602490fd5b6001600160a01b0391821692909183156111d35760009282845282602095600287526040968488882054169687913315158061113d575b50906002600080516020614c67833981519152928461110a575b858352600381528b8320805460010190558683525289812080546001600160a01b0319168517905580a416928383036110e95750505050565b6064945051926364283d7b60e01b8452600484015260248301526044820152fd5b600087815260046020526040902080546001600160a01b0319169055848352600381528b832080546000190190556110b0565b91939450915080611192575b1561115957859291879138611096565b878688611176576024915190637e27328960e01b82526004820152fd5b604491519063177e802f60e01b82523360048301526024820152fd5b5033871480156111b7575b806111495750858252600481523385898420541614611149565b5086825260058152878220338352815260ff888320541661119d565b604051633250574960e11b815260006004820152602490fd5b6000818152600260205260409020546001600160a01b031690811561120f575090565b60249060405190637e27328960e01b82526004820152fd5b813b611234575b50505050565b604051630a85bd0160e11b8082523360048301526001600160a01b03928316602483015260448201949094526080606482015260209592909116939092908390611282906084830190610eef565b039285816000958187895af184918161132b575b506112f6575050503d6000146112ee573d6112b081611018565b906112be6040519283610ff7565b81528091843d92013e5b805192836112e957604051633250574960e11b815260048101849052602490fd5b019050fd5b5060606112c8565b919450915063ffffffff60e01b160361131357503880808061122e565b60249060405190633250574960e11b82526004820152fd5b9091508681813d8311611364575b6113438183610ff7565b8101031261041c57516001600160e01b03198116810361041c579038611296565b503d611339565b906113bf603a60405180947f646174613a696d6167652f7376672b786d6c3b6261736536342c00000000000060208301526113af8151809260208686019101610ecc565b810103601a810185520183610ff7565b565b906113cb82611018565b6113d86040519182610ff7565b82815280926113e9601f1991611018565b0190602036910137565b80511561153b5760405161140681610f75565b604081527f4142434445464748494a4b4c4d4e4f505152535455565758595a61626364656660208201527f6768696a6b6c6d6e6f707172737475767778797a303132333435363738392b2f60408201528151600292838201809211611525576003918290046001600160fe1b038116810361152557611488908594951b6113c1565b936020850193829183518401925b8381106114d457505050505106806001146114c1576002146114b6575090565b603d90600019015390565b50603d9081600019820153600119015390565b85600491979293949701918251600190603f9082828260121c16880101518453828282600c1c16880101518385015382828260061c1688010151888501531685010151878201530195929190611496565b634e487b7160e01b600052601160045260246000fd5b5060405161154881610fc1565b6000815290565b9061157460405160208101908482526020815261156b81610fdc565b51902092614873565b90600883901c600116156145d857600160a0525b60006040805161159781610f75565b82815282602082015201526115b26040518061010052610f75565b60ff8360101c16610100515260ff8360181c16602061010051015260ff8360201c1660406101005101526000604080516115eb81610f75565b82815282602082015201526040519261160384610f75565b60ff8160281c16845260ff8160301c16602085015260ff8160381c16604085015260006040805161163381610f75565b828152826020820152015261164e6040518061040052610f75565b60ff8160401c16610400515260ff8160481c16602061040051015260ff8160501c16604061040051015260006040805161168781610f75565b82815282602082015201526116a16040518060c052610f75565b60ff8160581c1660c0515260ff8160601c16602060c051015260ff8160681c16604060c05101526000604080516116d781610f75565b82815282602082015201526116f2604051806102a052610f75565b60ff8160701c166102a0515260ff8160781c1660206102a051015260ff8160801c1660406102a051015260006040805161172b81610f75565b82815282602082015201526117466040518061050052610f75565b60ff8160881c16610500515260ff8160901c16602061050051015260ff8160981c16604061050051015260006040805161177f81610f75565b828152826020820152015261179a604051806102e052610f75565b60ff8160a01c166102e0515260ff8160a81c1660206102e051015260ff8160b01c1660406102e05101526000604080516117d381610f75565b82815282602082015201526117ee604051806103c052610f75565b60ff8160b81c166103c0515260ff8160c01c1660206103c051015260ff8160c81c1660406103c051015260006040805161182781610f75565b82815282602082015201526118426040518061014052610f75565b60ff8160d01c16610140515260ff8160d81c16602061014051015260ff8160e01c16604061014051015260006040805161187b81610f75565b8281528260208201520152611896604051806101c052610f75565b60ff8160e81c166101c0515260ff8160f01c1660206101c05101528060f81c60406101c05101526118cd6040518061048052610f75565b6002610480515260403660206104805101376118e88361477f565b5481166118f761048051614738565b52604051602081019182526020815261190f81610fdc565b519020600161191d8461477f565b01541661192c6104805161475b565b526040518061028052806128208101106001600160401b0361282083011117610f90578061282061014092016040525261280036602061028051013760005b60ff81169060a08210156119af5760ff9161199d61198b61048051614738565b516001831b161515916102805161476b565b521660ff81146115255760010161196b565b505060005b60a061ffff82161015611a11576119cd6104805161475b565b51908160e05261ffff60a0818316011161152557611a0c91600161ffff83161b161515611a0661ffff60a081851601166102805161476b565b52614725565b6119b4565b5090916040518061030052611a2590610fa6565b6103005160659052610300516020017f3c3f786d6c2076657273696f6e3d22312e3022203f3e3c73766720786d6c6e739052610300516040017f3d22687474703a2f2f7777772e77332e6f72672f323030302f737667222077699052610300516060017f6474683d2233323022206865696768743d22323430222076657273696f6e3d22905264189718911f60d91b61030051608001526102a0515160ff16611acd906145e2565b6104c0526102a0516020015160ff16611ae5906145e2565b610360526102a0516040015160ff16611afd906145e2565b6104a052610500515160ff16611b12906145e2565b610500516020015160ff16611b26906145e2565b91610500516040015160ff16611b3b906145e2565b6102a0515160ff16611b4c906145e2565b6102a0516020015160ff16611b60906145e2565b6102a0516040015160ff16611b74906145e2565b610500515160ff16611b85906145e2565b610500516020015160ff16611b99906145e2565b90610500516040015160ff16611bae906145e2565b92610100515160ff16611bc0906145e2565b94610100516020015160ff16611bd5906145e2565b96610100516040015160ff16611bea906145e2565b988a5160ff16611bf9906145e2565b9a602081015160ff16611c0b906145e2565b610540526040015160ff16611c1f906145e2565b61012052610400515160ff16611c34906145e2565b61052052610400516020015160ff16611c4c906145e2565b61022052610400516040015160ff16611c64906145e2565b6103205260c0515160ff16611c78906145e2565b6104205260c0516020015160ff16611c8f906145e2565b6102005260c0516040015160ff16611ca6906145e2565b610180526102e0515160ff16611cbb906145e2565b610160526102e0516020015160ff16611cd3906145e2565b6101e0526102e0516040015160ff16611ceb906145e2565b610460526103c0515160ff16611d00906145e2565b610380526103c0516020015160ff16611d18906145e2565b6104e0526103c0516040015160ff16611d30906145e2565b6103e052610140515160ff16611d45906145e2565b6101a052610140516020015160ff16611d5d906145e2565b608052610140516040015160ff16611d74906145e2565b6103a0526101c0515160ff16611d89906145e2565b610440526101c0516020015160ff16611da1906145e2565b610340526101c0516040015160ff16611db9906145e2565b6102405260006102605260a0516000149c6102749c6126629e6145b557604051611de281610fdc565b60018152603160f81b6020820152610260525b651e3232b3399f60d11b6020604051806102c05201527f3c7374796c6520747970653d22746578742f637373223e00000000000000000060266102c05101527f2e7361696c546f70207b2073746f702d636f6c6f723a20726762280000000000603d6102c05101526104c051611e7881518092602060586102c051019101610ecc565b600b60fa1b6058826102c0510101526103605190611ea58251809360206059856102c05101019101610ecc565b6102c0510101600b60fa1b60598201526104a05190611ece825180936020605a85019101610ecc565b63293b207d60e01b605a83830101527f2e7361696c426f74746f6d207b2073746f702d636f6c6f723a20726762280000605e8383010152611f1b835180946020607c868601019101610ecc565b0101600b60fa1b607c820152611f3b825180936020607d85019101610ecc565b01600b60fa1b607d820152611f5a825180936020607e85019101610ecc565b0163293b207d60e01b607e8201527f2e626f6479436f6c6f7231207b2066696c6c3a207267622800000000000000006082820152611fa2825180936020609a85019101610ecc565b01600b60fa1b609a820152611fc1825180936020609b85019101610ecc565b01600b60fa1b609b820152611fe0825180936020609c85019101610ecc565b0163293b207d60e01b609c8201527f2e626f6479436f6c6f7232207b2066696c6c3a2072676228000000000000000060a082015261202882518093602060b885019101610ecc565b01600b60fa1b60b882015261204782518093602060b985019101610ecc565b01600b60fa1b60b982015261206682518093602060ba85019101610ecc565b0163293b207d60e01b60ba8201527105cd0ead8d840f640ccd2d8d87440e4cec4560731b60be8201526120a382518093602060d085019101610ecc565b01600b60fa1b60d08201526120c282518093602060d185019101610ecc565b01600b60fa1b60d18201526120e182518093602060d285019101610ecc565b0163293b207d60e01b60d28201527f2e77696e646f774c696e65207b2066696c6c3a2072676228000000000000000060d682015261212982518093602060ee85019101610ecc565b01600b60fa1b60ee820152610540519061214d82518093602060ef85019101610ecc565b01600b60fa1b60ef820152610120519061217182518093602060f085019101610ecc565b0163293b207d60e01b60f08201527305ceed2dcc8deee40f640ccd2d8d87440e4cec4560631b60f4820152600b60fa1b61052051918251906121bd826101089560208785019101610ecc565b0191820152600b60fa1b61022051918251906121e3826101099560208785019101610ecc565b019182015263293b207d60e01b610320519182519061220c8261010a9560208785019101610ecc565b01918201527405cdac2e6e8e640f640e6e8e4ded6ca7440e4cec45605b1b61010e820152600b60fa1b6104205191825190612251826101239560208785019101610ecc565b0191820152600b60fa1b6102005191825190612277826101249560208785019101610ecc565b019182015263293b207d60e01b61018051918251906122a0826101259560208785019101610ecc565b01918201527405cccd8c2cee640f640e6e8e4ded6ca7440e4cec45605b1b610129820152600b60fa1b61016051918251906122e58261013e9560208785019101610ecc565b0191820152600b60fa1b6101e0519182519061230b8261013f9560208785019101610ecc565b0191820152610460519061232a82518093602061014085019101610ecc565b0163293b207d60e01b6101408201527405ce6d2cedccae86240f640ccd2d8d87440e4cec45605b1b610144820152600b60fa1b6103805191825190612379826101599560208785019101610ecc565b0191820152600b60fa1b6104e0519182519061239f8261015a9560208785019101610ecc565b019182015263293b207d60e01b6103e051918251906123c88261015b9560208785019101610ecc565b01918201527405ce6d2cedccae86440f640ccd2d8d87440e4cec45605b1b61015f820152600b60fa1b6101a0519182519061240d826101749560208785019101610ecc565b0191820152600b60fa1b60805191825190612432826101759560208785019101610ecc565b019182015263293b207d60e01b6103a0519182519061245b826101769560208785019101610ecc565b01918201527405ce6d2cedccae86640f640ccd2d8d87440e4cec45605b1b61017a820152600b60fa1b61044051918251906124a08261018f9560208785019101610ecc565b0191820152600b60fa1b61034051918251906124c6826101909560208785019101610ecc565b019182015263293b207d60e01b61024051918251906124ef826101919560208785019101610ecc565b01918201527f2e666c616773426f72646572207b206f7061636974793a000000000000000000610195820152623b207d60e81b610260519182519061253e826101ac9560208785019101610ecc565b0191820152752e626f72646572207b2066696c6c3a2023666666207d60501b6101af820152671e17b9ba3cb6329f60c11b6101c58201527f3c6c696e6561724772616469656e742069643d227361696c4772616469656e746101cd8201527f22206772616469656e745472616e73666f726d3d22726f7461746528393029226101ed8201527f3e203c73746f70206f66667365743d223525222020636c6173733d227361696c61020d8201527f546f70222f3e203c73746f70206f66667365743d223935252220636c6173733d61022d8201527f227361696c426f74746f6d222f3e203c2f6c696e6561724772616469656e743e61024d820152661e17b232b3399f60c91b61026d8201526102c0518091039061025482019052016102c051610ff7565b600582101561459f578161458957604051806102e08101106001600160401b036102e083011117610f90576102e081016040526102a58152600080516020614c478339815191526020820152600080516020614c2783398151915260408201527f3d224d3620313520683220762d3220683120762d3120683120762d312068312060608201527f762d3120683120762d3120683120762d3120683120762d3120683120762d312060808201527f683320763920683820763320682d3120763120682d3120763120682d3120763160a08201527f20682d313420762d3120682d3220762d3220682d31207a22202f3e203c67206360c08201527f6c6173733d22666c616773426f72646572223e203c7061746820643d224d313360e08201527f203520683520763320682d357a22202f3e203c2f673e203c2f673e203c673e206101008201527f3c706174682069643d2268756c6c2220643d224d3720313620682031382076316101208201527f20682d3120763120682d3120763120682d3120763120682d313220762d3120686101408201527f2d3220762d322020682d3120207a2220636c6173733d2268756c6c22202f3e206101608201527f3c706174682069643d2277696e646f774c696e652220643d224d3720313620686101808201527f313820763120682d3138207a2220636c6173733d2277696e646f772d6c696e656101a08201527f22202f3e203c2f673e203c672069643d226d617374732220636c6173733d226d6101c08201527f61737473223e203c7061746820643d224d31362e35203720763922202f3e203c6101e08201527f2f673e203c672069643d22666c6167732220636c6173733d22666c61677320666102008201527f6c616773426f72646572223e203c7061746820643d224d313420362e352068336102208201527f22202f3e203c2f673e203c672069643d227361696c73222066696c6c3d2275726102408201527f6c28237361696c4772616469656e7429223e203c7061746820643d224d3920316102608201527f3520762d3120683120762d3120683120762d3120683120762d3120683120762d6102808201527f3120683120762d3120683120762d31206831207637207a22202f3e203c2f673e6102a082015264101e17b39f60d91b6102c0820152915b6001810361457357604051806104e08101106001600160401b036104e083011117610f90576104e081016040526104be8152600080516020614c478339815191526020820152600080516020614c2783398151915260408201527f3d224d33203920683120762d3120683120762d3120683120762d31206833207660608201527f2d3120683720762d3120683320763220683120762d312068332076322068312060808201527f763120683120763120683120763120683120763120683120763120683120763660a08201527f20682d3220763120682d3120763120682d3120763120682d3120763120682d3160c08201527f3720762d3420682d3220762d3420682d3120762d3120682d31207a222f3e203c60e08201527f6720636c6173733d22666c616773426f72646572223e203c7061746820643d226101008201527f4d37203420683520763320682d357a22202f3e203c7061746820643d224d31346101208201527f203320683520763320682d357a22202f3e203c7061746820643d224d313920346101408201527f20683420763320682d347a22202f3e203c2f673e203c2f673e203c673e203c706101608201527f6174682069643d2268756c6c2220643d224d36203136206820323220763120686101808201527f2d3220763120682d3120763120682d3120763120682d3120763120682d3135206101a08201527f762d3120683120762d3120683120762d3120682d3220762d3120682d32207a226101c08201527f20636c6173733d2268756c6c22202f3e203c706174682069643d2277696e646f6101e08201527f772d6c696e652220643d224d31302031382068313520763120682d3135207a226102008201527f20636c6173733d2277696e646f774c696e65222f3e203c672069643d2277696e6102208201527f646f77732220636c6173733d2277696e646f77223e203c706174682069643d226102408201527f77696e646f772d312220643d224d313220313820683120763120682d31207a226102608201527f202f3e203c706174682069643d2277696e646f772d312220643d224d313220316102808201527f3820683120763120682d31207a22202f3e203c706174682069643d2277696e646102a08201527f6f772d322220643d224d313220313820683120763120682d31207a22202f3e206102c08201527f3c2f673e203c2f673e203c672069643d226d617374732220636c6173733d226d6102e08201527f61737473223e203c7061746820643d224d31302e3520362076313022202f3e206103008201527f3c7061746820643d224d31372e3520352076313122202f3e203c7061746820646103208201527f3d224d32312e3520362076313022202f3e203c2f673e203c672069643d22666c6103408201527f6167732220636c6173733d22666c61677320666c616773426f72646572223e206103608201527f3c7061746820643d224d3820352e3520683322202f3e203c7061746820643d226103808201527f4d313520342e3520683322202f3e203c7061746820643d224d323020352e35206103a08201527f683222202f3e203c2f673e203c672069643d227361696c73222066696c6c3d226103c08201527f75726c28237361696c4772616469656e7429223e203c7265637420783d2231326103e08201527f2220793d2236222077696474683d223522206865696768743d223922202f3e206104008201527f3c7265637420783d2231392220793d2237222077696474683d223222206865696104208201527f6768743d223822202f3e203c7061746820643d224d37203720683320763820686104408201527f2d3320762d3120682d3120762d3120682d3120762d3120682d312020762d32206104608201527f683120762d3120683120762d31206831207a222f3e203c7061746820643d22206104808201527f4d323220382068312076312068312076312068312076312068312076312068316104a08201527f2076312020683120763220682d36207a22202f3e203c2f673e203c2f673e00006104c0820152905b6002810361455d57604051806105408101106001600160401b0361054083011117610f9057610540810160405261050c8152600080516020614c478339815191526020820152600080516020614c2783398151915260408201527f3d224d31203720683120762d3120683120762d3120683420762d31206836207660608201527f2d3120683320763220683320762d31206833207633206833207631206831207660808201527f312068312076312068312076312068312076312068312076312068312076352060a08201527f682d3320763120682d3120763120682d3120763120682d3120763220682d323160c08201527f20762d3320683120762d3220682d3220762d3420682d31762d3120682d31207a60e08201527f222f3e203c6720636c6173733d22666c616773426f72646572223e203c7061746101008201527f6820643d224d35203320683520763320682d357a22202f3e203c7061746820646101208201527f3d224d3131203220683520763320682d357a22202f3e203c7061746820643d226101408201527f4d3138203320683420763320682d347a22202f3e203c7061746820643d224d326101608201527f31203620683420763320682d347a22202f3e203c2f673e203c2f673e203c673e6101808201527f203c706174682069643d2268756c6c2220643d224d34203136206820323620766101a08201527f3120682d3320763120682d3120763120682d3120763120682d3120763220682d6101c08201527f313920762d3120683120762d3120683120762d3120683120762d3120682d32206101e08201527f762d3120682d32207a2220636c6173733d2268756c6c22202f3e203c706174686102008201527f2069643d2277696e646f772d6c696e652220643d224d382031382068313820766102208201527f3120682d3138207a2220636c6173733d2277696e646f774c696e65222f3e203c6102408201527f672069643d2277696e646f77732220636c6173733d2277696e646f77223e203c6102608201527f7061746820643d224d313320313820683120763120682d31207a22202f3e203c6102808201527f7061746820643d224d313020313820683120763120682d31207a22202f3e203c6102a08201527f7061746820643d224d313920313820683120763120682d31207a22202f3e203c6102c08201527f7061746820643d224d323220313820683120763120682d31207a22202f3e203c6102e08201527f2f673e203c2f673e203c672069643d226d617374732220636c6173733d226d616103008201527f737473223e203c7061746820643d224d382e3520352076313122202f3e203c706103208201527f61746820643d224d31342e3520342076313222202f3e203c7061746820643d226103408201527f4d32302e3520352076313122202f3e203c7061746820643d224d32332e3520386103608201527f20763822202f3e203c2f673e203c672069643d22666c6167732220636c6173736103808201527f3d22666c61677320666c616773426f72646572223e203c7061746820643d224d6103a08201527f3620342e3520683322202f3e203c7061746820643d224d313220332e352068336103c08201527f22202f3e203c7061746820643d224d313920342e3520683222202f3e203c70616103e08201527f746820643d224d323220372e3520683222202f3e203c2f673e203c672069643d6104008201527f227361696c73222066696c6c3d2275726c28237361696c4772616469656e74296104208201527f223e203c7265637420783d2231302220793d2235222077696474683d223422206104408201527f6865696768743d22313022202f3e203c7265637420783d2231362220793d22366104608201527f222077696474683d223422206865696768743d223922202f3e203c70617468206104808201527f643d224d34203620683420763920682d3320762d3120682d3120762d3120682d6104a08201527f3120762d3120682d312020762d3420683120762d3120683120762d31206831206104c08201527f7a222f3e203c7061746820643d22204d323420392068312076312068312076316104e08201527f20683120763120683120763120683120763120683120763120682d36207a22206105008201526b179f101e17b39f101e17b39f60a11b610520820152925b6003820361454557604051806106008101106001600160401b0361060083011117610f905780610600600492016040526105d88152600080516020614c478339815191526020820152600080516020614c2783398151915260408201527f3d224d30203820683120762d3120683120762d3120683120762d31206831207660608201527f2d3120683320762d3120683320763120683220762d312068332076312068322060808201527f762d3120683320763320683120762d312068332076332068332076312068312060a08201527f763120683120763120683120763120683120763120683120763520682d33207660c08201527f3120682d3120763120682d3120763120682d3120763220682d323220762d332060e08201527f683120762d3220682d3220762d3420682d3120762d3120682d3120762d3120686101008201527f2d31207a22202f3e203c6720636c6173733d22666c616773426f72646572223e6101208201527f203c7061746820643d224d35203220683520763320682d357a22202f3e203c706101408201527f61746820643d224d3130203220683520763320682d357a22202f3e203c7061746101608201527f6820643d224d3135203220683520763320682d357a22202f3e203c70617468206101808201527f643d224d3230203420683420763320682d347a22202f3e203c7061746820643d6101a08201527f224d3233203720683420763320682d347a22202f3e203c2f673e203c2f673e206101c08201527f3c673e203c706174682069643d2268756c6c2220643d224d34203136206820326101e08201527f3720763120682d3320763120682d3120763120682d3120763120682d312076326102008201527f20682d323020762d3120683120762d3120683120762d3120683120762d3120686102208201527f2d3220762d3120682d32207a2220636c6173733d2268756c6c22202f3e203c706102408201527f6174682069643d2277696e646f772d6c696e652220643d224d382031382068316102608201527f3920763120682d3139207a2220636c6173733d2277696e646f774c696e6522206102808201527f2f3e203c672069643d2277696e646f77732220636c6173733d2277696e646f776102a08201527f223e203c7061746820643d224d313120313820683120763120682d31207a22206102c08201527f2f3e203c7061746820643d224d313420313820683120763120682d31207a22206102e08201527f2f3e203c7061746820643d224d313720313820683120763120682d31207a22206103008201527f2f3e203c7061746820643d224d323020313820683120763120682d31207a22206103208201527f2f3e203c7061746820643d224d323320313820683120763120682d31207a22206103408201527f2f3e203c2f673e203c2f673e203c672069643d226d617374732220636c6173736103608201527f3d226d61737473223e203c7061746820643d224d382e3520342076313222202f6103808201527f3e203c7061746820643d224d31332e3520342076313222202f3e203c706174686103a08201527f20643d224d31382e3520342076313222202f3e203c7061746820643d224d32326103c08201527f2e3520362076313022202f3e203c7061746820643d224d32352e3520392076376103e08201527f22202f3e203c2f673e203c672069643d22666c6167732220636c6173733d22666104008201527f6c61677320666c616773426f72646572223e203c7061746820643d224d3620336104208201527f2e3520683322202f3e203c7061746820643d224d313120332e3520683322202f6104408201527f3e203c7061746820643d224d313620332e3520683322202f3e203c70617468206104608201527f643d224d323120352e3520683222202f3e203c7061746820643d224d323420386104808201527f2e3520683222202f3e203c2f673e203c672069643d227361696c73222066696c6104a08201527f6c3d2275726c28237361696c4772616469656e7429223e203c7265637420783d6104c08201527f2231302220793d2235222077696474683d223322206865696768743d223130226104e08201527f202f3e203c7265637420783d2231352220793d2235222077696474683d2233226105008201527f206865696768743d22313022202f3e203c7265637420783d2232302220793d226105208201527f37222077696474683d223222206865696768743d223822202f3e203c706174686105408201527f20643d224d31203920683120762d3120683120762d3120683120762d312068316105608201527f20762d312068332076313020682d3320762d3120682d3120762d3120682d31206105808201527f762d3120682d3120762d3120682d31207a22202f3e203c7061746820643d224d6105a08201527f32362031302068312076312020683120763120683120763120683120763120686105c08201527f3120763120682d35207a22202f3e203c2f673e203c2f673e00000000000000006105e0820152925b0361452f57604051806104a08101106001600160401b036104a083011117610f90576104a0810160405261046e8152600080516020614c478339815191526020820152600080516020614c2783398151915260408201527f3d224d3120313220683520762d3120683220762d3120683220762d312068322060608201527f762d3120683220762d3120683120762d3120683320763120683120763120683260808201527f20763120683220763120683220763120683220763120683520763320682d322060a08201527f763120682d3120763120682d3120763120682d3120763120682d323720762d3360c08201527f206831207a22202f3e203c6720636c6173733d22666c616773426f726465722260e08201527f3e203c7061746820643d224d3133203520683520763320682d357a22202f3e206101008201527f3c2f673e203c2f673e203c673e203c706174682069643d2268756c6c2220643d6101208201527f224d32203133206820323920763120682d3220763120682d3120763120682d316101408201527f20763120682d3120763120682d323520762d3120683120762d3120683120762d6101608201527f3120683120762d3120682d32207a2220636c6173733d2268756c6c22202f3e206101808201527f3c706174682069643d2277696e646f772d6c696e652220643d224d32203133206101a08201527f68323920763120682d3220763120682d323520762d3120682d32207a2220636c6101c08201527f6173733d2277696e646f774c696e6522202f3e203c672069643d2277696e646f6101e08201527f77732220636c6173733d2277696e646f77223e203c7061746820643d224d39206102008201527f313420683120763120682d31207a22202f3e203c7061746820643d224d3133206102208201527f313420683120763120682d31207a22202f3e203c7061746820643d224d3137206102408201527f313420683120763120682d31207a22202f3e203c7061746820643d224d3231206102608201527f313420683120763120682d31207a22202f3e203c7061746820643d224d3131206102808201527f313320683120763120682d31207a22202f3e203c7061746820643d224d3135206102a08201527f313320683120763120682d31207a22202f3e203c7061746820643d224d3139206102c08201527f313320683120763120682d31207a22202f3e203c7061746820643d224d3233206102e08201527f313320683120763120682d31207a22202f3e203c2f673e203c2f673e203c67206103008201527f69643d226d617374732220636c6173733d226d61737473223e203c70617468206103208201527f643d224d31362e35203720763122202f3e203c2f673e203c672069643d22666c6103408201527f6167732220636c6173733d22666c61677320666c616773426f72646572223e206103608201527f3c7061746820643d224d313420362e3520683322202f3e203c2f673e203c67206103808201527f69643d22626f6479223e203c6720636c6173733d22626f6479436f6c6f7231226103a08201527f3e203c7061746820643d224d372031322068313920763120682d3139207a22206103c08201527f2f3e203c7061746820643d224d31312031302068313120763120682d3131207a6103e08201527f22202f3e203c7061746820643d224d3135203820683320763120682d33207a226104008201527f202f3e203c2f673e203c6720636c6173733d22626f6479436f6c6f7232223e206104208201527f3c7061746820643d224d392031312068313520763120682d3135207a22202f3e6104408201527f203c7061746820643d224d3133203920683720763120682d37207a22202f3e206104608201526d1e17b39f101e17b39f101e17b39f60911b610480820152925b604051608081018181106001600160401b03821117610f9057604052604781527f3c672069643d227369676e65747322207472616e73666f726d3d227363616c6560208201527f28313029223e203c672069643d227369676e6574312220636c6173733d22736960408201526633b732ba18911f60c91b60608201529560005b6102805180519061ffff8316918210156143f657906143039161476b565b51614317575b61431290614725565b6142e5565b96601f881661ffff81116115255761432e906145e2565b61ffff60056107ff8b821c160111611525576143ee603b61431293600160fd1b9361436661ffff60058f6107ff90821c1601166145e2565b906040519583614380889551809260208089019101610ecc565b8401693c7061746820643d224d60b01b60208201528251906143ab82602a9560208785019101610ecc565b01918201528151906143c682602b9460208685019101610ecc565b01906f103418903b1890341698903d1110179f60811b9082015203601b810184520182610ff7565b979050614309565b5050509195926145206020809561451261452c9899959961444b60296040518561442a82975180928a85019a8b9101610ecc565b8101681e17b39f101e17b39f60b91b8d820152036009810186520184610ff7565b6040519561445887610fdc565b6006875289870197651e17b9bb339f60d11b89526040519c8d9a8c6144898d61030051838151948593019101610ecc565b8c016102c051906144a4825160209384829585019101610ecc565b016144b882518f9384829585019101610ecc565b016144cb825180938f8085019101610ecc565b016144de825180938e8085019101610ecc565b016144f1825180938d8085019101610ecc565b01614504825180938c8085019101610ecc565b019151809389840190610ecc565b019151809386840190610ecc565b01038084520182610ff7565b90565b60405161453b81610fc1565b6000815292614265565b600460405161455381610fc1565b6000815292613cf2565b60405161456981610fc1565b60008152926135bd565b60405161457f81610fc1565b6000815290612f86565b60405161459581610fc1565b60008152916129b3565b634e487b7160e01b600052602160045260246000fd5b6040516145c181610fdc565b60018152600360fc1b602082015261026052611df5565b600060a052611588565b806000917a184f03e93ff9f4daa797ed6e38ed64bf6a1f01000000000000000080821015614717575b506d04ee2d6d415b85acef810000000080831015614708575b50662386f26fc10000808310156146f9575b506305f5e100808310156146ea575b50612710808310156146db575b5060648210156146cb575b600a809210156146c1575b6001908160216146798287016113c1565b95860101905b61468b575b5050505090565b600019019083906f181899199a1a9b1b9c1cb0b131b232b360811b8282061a8353049182156146bc5791908261467f565b614684565b9160010191614668565b919060646002910491019161465d565b60049193920491019138614652565b60089193920491019138614645565b60109193920491019138614636565b60209193920491019138614624565b60409350810491503861460b565b61ffff8091169081146115255760010190565b8051156147455760200190565b634e487b7160e01b600052603260045260246000fd5b8051600110156147455760400190565b80518210156147455760209160051b010190565b600581101561459f576000526009602052604060002090565b60ff16600581101561459f5790565b9060058110156147455760051b0190565b61480c600560ff604051936147cc85610fa6565b60068552826020860152600460408601526003606086015260026080860152604051602081019182526020815261480281610fdc565b5190201606614798565b600581101561459f5760ff91826148249216906147a7565b511690565b61480c600560ff6040519361483d85610fa6565b60028552600360208601526004604086015282606086015260066080860152604051602081019182526020815261480281610fdc565b600560ff61452c92604051602081019182526020815261480281610fdc565b61494c6040918251926148a484610fa6565b64165858da1d60da1b8151916148b983610fdc565b6004835260209263109bd85d60e21b84820152865280516148d981610fdc565b60058152640536c6f6f760dc1b848201528387015280516148f981610fdc565b60048152634272696760e01b8482015281870152805161491881610fdc565b60078152664672696761746560c81b848201526060870152519161493b83610fdc565b600583528201526080840152614873565b90600582101561459f5760ff6149639216906147a7565b5190565b806000526020906002825260018060a01b036040600020541615614c0e57603d614bfe92614bc483610c5c61012c6149a161452c976145e2565b6149b560ff6149af866147b8565b166145e2565b936149c460ff6149af83614829565b906149dd610c61610c5c6149d784614892565b9361154f565b91604051968794737b226e616d65223a202250756e6b73686970202360601b8b870152614a13815180928d60348a019101610ecc565b85017f222c20226465736372697074696f6e223a202250756e6b73686970732061726560348201527f2072616e646f6d697a656420616e6420756e697175652073686970732e20557360548201527f65207468656d20666f72207468652070756e6b736869702067616d65222c202260748201527f61747472696275746573223a205b7b2274726169745f74797065223a2022726160948201526f3733b2911610113b30b63ab2911d101160811b60b4820152614ad9825180938d60c485019101610ecc565b017f227d2c207b2274726169745f74797065223a202273686f6f74696e6752616e6760c48201526d32911610113b30b63ab2911d101160911b60e4820152614b2a825180938c60f285019101610ecc565b017f227d2c207b2274726169745f74797065223a20227368697054797065222c202260f2820152683b30b63ab2911d101160b91b610112820152815190614b7a8261011b948c8685019101610ecc565b01906e113eae96101134b6b0b3b2911d101160891b90820152815190614ba98261012a948b8685019101610ecc565b019061227d60f01b908201520361010c810184520182610ff7565b60405194827f646174613a6170706c69636174696f6e2f6a736f6e3b6261736536342c000000879485015282519283918686019101610ecc565b810103601d810184520182610ff7565b602490604051906361ca35d160e01b82526004820152fdfe22626f726465722220636c6173733d22626f72646572223e203c7061746820643c67207472616e73666f726d3d227363616c6528313029223e203c672069643dddf252ad1be2c89b69c2b068fc378daa952ba7f163c4a11628f55a4df523b3efa2646970667358221220a80c816caddb601e2be233dc80e8b3a6a4fa2cd569cdeb73b72e454c0a89087264736f6c63430008140033",
  "linkReferences": {},
  "deployedLinkReferences": {}
}