{
  "_format": "hh-sol-artifact-1",
  "contractName": "Punkships",
  "sourceName": "contracts/Punkships.sol",
  "abi": [
    {
      "inputs": [
        {
          "internalType": "address",
          "name": "initialOwner",
          "type": "address"
        }
      ],
      "stateMutability": "nonpayable",
      "type": "constructor"
    },
    {
      "inputs": [
        {
          "internalType": "address",
          "name": "sender",
          "type": "address"
        },
        {
          "internalType": "uint256",
          "name": "tokenId",
          "type": "uint256"
        },
        {
          "internalType": "address",
          "name": "owner",
          "type": "address"
        }
      ],
      "name": "ERC721IncorrectOwner",
      "type": "error"
    },
    {
      "inputs": [
        {
          "internalType": "address",
          "name": "operator",
          "type": "address"
        },
        {
          "internalType": "uint256",
          "name": "tokenId",
          "type": "uint256"
        }
      ],
      "name": "ERC721InsufficientApproval",
      "type": "error"
    },
    {
      "inputs": [
        {
          "internalType": "address",
          "name": "approver",
          "type": "address"
        }
      ],
      "name": "ERC721InvalidApprover",
      "type": "error"
    },
    {
      "inputs": [
        {
          "internalType": "address",
          "name": "operator",
          "type": "address"
        }
      ],
      "name": "ERC721InvalidOperator",
      "type": "error"
    },
    {
      "inputs": [
        {
          "internalType": "address",
          "name": "owner",
          "type": "address"
        }
      ],
      "name": "ERC721InvalidOwner",
      "type": "error"
    },
    {
      "inputs": [
        {
          "internalType": "address",
          "name": "receiver",
          "type": "address"
        }
      ],
      "name": "ERC721InvalidReceiver",
      "type": "error"
    },
    {
      "inputs": [
        {
          "internalType": "address",
          "name": "sender",
          "type": "address"
        }
      ],
      "name": "ERC721InvalidSender",
      "type": "error"
    },
    {
      "inputs": [
        {
          "internalType": "uint256",
          "name": "tokenId",
          "type": "uint256"
        }
      ],
      "name": "ERC721NonexistentToken",
      "type": "error"
    },
    {
      "inputs": [
        {
          "internalType": "uint8",
          "name": "position",
          "type": "uint8"
        }
      ],
      "name": "InvalidPosition",
      "type": "error"
    },
    {
      "inputs": [
        {
          "internalType": "address",
          "name": "owner",
          "type": "address"
        }
      ],
      "name": "OwnableInvalidOwner",
      "type": "error"
    },
    {
      "inputs": [
        {
          "internalType": "address",
          "name": "account",
          "type": "address"
        }
      ],
      "name": "OwnableUnauthorizedAccount",
      "type": "error"
    },
    {
      "inputs": [
        {
          "internalType": "uint256",
          "name": "tokenId",
          "type": "uint256"
        }
      ],
      "name": "ShipNotMinted",
      "type": "error"
    },
    {
      "anonymous": false,
      "inputs": [
        {
          "indexed": true,
          "internalType": "address",
          "name": "owner",
          "type": "address"
        },
        {
          "indexed": true,
          "internalType": "address",
          "name": "approved",
          "type": "address"
        },
        {
          "indexed": true,
          "internalType": "uint256",
          "name": "tokenId",
          "type": "uint256"
        }
      ],
      "name": "Approval",
      "type": "event"
    },
    {
      "anonymous": false,
      "inputs": [
        {
          "indexed": true,
          "internalType": "address",
          "name": "owner",
          "type": "address"
        },
        {
          "indexed": true,
          "internalType": "address",
          "name": "operator",
          "type": "address"
        },
        {
          "indexed": false,
          "internalType": "bool",
          "name": "approved",
          "type": "bool"
        }
      ],
      "name": "ApprovalForAll",
      "type": "event"
    },
    {
      "anonymous": false,
      "inputs": [
        {
          "indexed": true,
          "internalType": "address",
          "name": "owner",
          "type": "address"
        },
        {
          "indexed": true,
          "internalType": "uint256",
          "name": "id",
          "type": "uint256"
        },
        {
          "indexed": false,
          "internalType": "string",
          "name": "tokenURI",
          "type": "string"
        }
      ],
      "name": "Mint",
      "type": "event"
    },
    {
      "anonymous": false,
      "inputs": [
        {
          "indexed": true,
          "internalType": "address",
          "name": "previousOwner",
          "type": "address"
        },
        {
          "indexed": true,
          "internalType": "address",
          "name": "newOwner",
          "type": "address"
        }
      ],
      "name": "OwnershipTransferred",
      "type": "event"
    },
    {
      "anonymous": false,
      "inputs": [
        {
          "indexed": true,
          "internalType": "address",
          "name": "from",
          "type": "address"
        },
        {
          "indexed": true,
          "internalType": "address",
          "name": "to",
          "type": "address"
        },
        {
          "indexed": true,
          "internalType": "uint256",
          "name": "tokenId",
          "type": "uint256"
        }
      ],
      "name": "Transfer",
      "type": "event"
    },
    {
      "inputs": [
        {
          "internalType": "address",
          "name": "to",
          "type": "address"
        },
        {
          "internalType": "uint256",
          "name": "tokenId",
          "type": "uint256"
        }
      ],
      "name": "approve",
      "outputs": [],
      "stateMutability": "nonpayable",
      "type": "function"
    },
    {
      "inputs": [
        {
          "internalType": "address",
          "name": "owner",
          "type": "address"
        }
      ],
      "name": "balanceOf",
      "outputs": [
        {
          "internalType": "uint256",
          "name": "",
          "type": "uint256"
        }
      ],
      "stateMutability": "view",
      "type": "function"
    },
    {
      "inputs": [
        {
          "internalType": "uint256",
          "name": "tokenId",
          "type": "uint256"
        }
      ],
      "name": "burn",
      "outputs": [],
      "stateMutability": "nonpayable",
      "type": "function"
    },
    {
      "inputs": [
        {
          "internalType": "uint256",
          "name": "tokenId",
          "type": "uint256"
        }
      ],
      "name": "getApproved",
      "outputs": [
        {
          "internalType": "address",
          "name": "",
          "type": "address"
        }
      ],
      "stateMutability": "view",
      "type": "function"
    },
    {
      "inputs": [
        {
          "internalType": "uint256",
          "name": "tokenId",
          "type": "uint256"
        }
      ],
      "name": "getRange",
      "outputs": [
        {
          "internalType": "uint8",
          "name": "",
          "type": "uint8"
        }
      ],
      "stateMutability": "view",
      "type": "function"
    },
    {
      "inputs": [
        {
          "internalType": "uint256",
          "name": "tokenId",
          "type": "uint256"
        }
      ],
      "name": "getShipTypeName",
      "outputs": [
        {
          "internalType": "string",
          "name": "",
          "type": "string"
        }
      ],
      "stateMutability": "view",
      "type": "function"
    },
    {
      "inputs": [
        {
          "internalType": "uint256",
          "name": "tokenId",
          "type": "uint256"
        }
      ],
      "name": "getShootingRange",
      "outputs": [
        {
          "internalType": "uint8",
          "name": "",
          "type": "uint8"
        }
      ],
      "stateMutability": "view",
      "type": "function"
    },
    {
      "inputs": [
        {
          "internalType": "address",
          "name": "owner",
          "type": "address"
        },
        {
          "internalType": "address",
          "name": "operator",
          "type": "address"
        }
      ],
      "name": "isApprovedForAll",
      "outputs": [
        {
          "internalType": "bool",
          "name": "",
          "type": "bool"
        }
      ],
      "stateMutability": "view",
      "type": "function"
    },
    {
      "inputs": [],
      "name": "name",
      "outputs": [
        {
          "internalType": "string",
          "name": "",
          "type": "string"
        }
      ],
      "stateMutability": "view",
      "type": "function"
    },
    {
      "inputs": [],
      "name": "owner",
      "outputs": [
        {
          "internalType": "address",
          "name": "",
          "type": "address"
        }
      ],
      "stateMutability": "view",
      "type": "function"
    },
    {
      "inputs": [
        {
          "internalType": "uint256",
          "name": "tokenId",
          "type": "uint256"
        }
      ],
      "name": "ownerOf",
      "outputs": [
        {
          "internalType": "address",
          "name": "",
          "type": "address"
        }
      ],
      "stateMutability": "view",
      "type": "function"
    },
    {
      "inputs": [],
      "name": "renounceOwnership",
      "outputs": [],
      "stateMutability": "nonpayable",
      "type": "function"
    },
    {
      "inputs": [
        {
          "internalType": "address",
          "name": "to",
          "type": "address"
        }
      ],
      "name": "safeMint",
      "outputs": [],
      "stateMutability": "nonpayable",
      "type": "function"
    },
    {
      "inputs": [
        {
          "internalType": "address",
          "name": "from",
          "type": "address"
        },
        {
          "internalType": "address",
          "name": "to",
          "type": "address"
        },
        {
          "internalType": "uint256",
          "name": "tokenId",
          "type": "uint256"
        }
      ],
      "name": "safeTransferFrom",
      "outputs": [],
      "stateMutability": "nonpayable",
      "type": "function"
    },
    {
      "inputs": [
        {
          "internalType": "address",
          "name": "from",
          "type": "address"
        },
        {
          "internalType": "address",
          "name": "to",
          "type": "address"
        },
        {
          "internalType": "uint256",
          "name": "tokenId",
          "type": "uint256"
        },
        {
          "internalType": "bytes",
          "name": "data",
          "type": "bytes"
        }
      ],
      "name": "safeTransferFrom",
      "outputs": [],
      "stateMutability": "nonpayable",
      "type": "function"
    },
    {
      "inputs": [
        {
          "internalType": "address",
          "name": "operator",
          "type": "address"
        },
        {
          "internalType": "bool",
          "name": "approved",
          "type": "bool"
        }
      ],
      "name": "setApprovalForAll",
      "outputs": [],
      "stateMutability": "nonpayable",
      "type": "function"
    },
    {
      "inputs": [
        {
          "internalType": "bytes4",
          "name": "interfaceId",
          "type": "bytes4"
        }
      ],
      "name": "supportsInterface",
      "outputs": [
        {
          "internalType": "bool",
          "name": "",
          "type": "bool"
        }
      ],
      "stateMutability": "view",
      "type": "function"
    },
    {
      "inputs": [],
      "name": "symbol",
      "outputs": [
        {
          "internalType": "string",
          "name": "",
          "type": "string"
        }
      ],
      "stateMutability": "view",
      "type": "function"
    },
    {
      "inputs": [
        {
          "internalType": "uint256",
          "name": "tokenId",
          "type": "uint256"
        }
      ],
      "name": "tokenURI",
      "outputs": [
        {
          "internalType": "string",
          "name": "",
          "type": "string"
        }
      ],
      "stateMutability": "view",
      "type": "function"
    },
    {
      "inputs": [
        {
          "internalType": "address",
          "name": "from",
          "type": "address"
        },
        {
          "internalType": "address",
          "name": "to",
          "type": "address"
        },
        {
          "internalType": "uint256",
          "name": "tokenId",
          "type": "uint256"
        }
      ],
      "name": "transferFrom",
      "outputs": [],
      "stateMutability": "nonpayable",
      "type": "function"
    },
    {
      "inputs": [
        {
          "internalType": "address",
          "name": "newOwner",
          "type": "address"
        }
      ],
      "name": "transferOwnership",
      "outputs": [],
      "stateMutability": "nonpayable",
      "type": "function"
    }
  ],
  "bytecode": "0x6080346200055a57620050669081380390601f19601f818185011683019460018060401b0394848710868811176200055f57808592604098895283396020948591810103126200055a57516001600160a01b039390848116908190036200055a576200006a62000575565b95600987526850756e6b736869707360b81b838801526200008a62000575565b9360049485815263504e4b5360e01b85820152885196838811620005455760009788549a60019b8c81811c911680156200053a575b898210146200052757908186849311620004f7575b5088908683116001146200048d578b9262000481575b5050600019600383901b1c1916908b1b1788555b81519384116200046e5789548a81811c9116801562000463575b878210146200045057908184869594931162000415575b5086928411600114620003b457508792620003a8575b5050600019600383901b1c191690871b1786555b80156200039157600680546001600160a01b03198116831790915585167f8be0079c531659141344cd1fd0a4f28419497f9722a3daafe3b4186f6b6457e08580a3620001a462000575565b71c00000008000000000000000000000000000815271fe000000fc000000f8000000f0000000e00082820152838052600882528684209086855b60028110620003755750505050620001f562000575565b72d9f3e00059f3c00019f3800001f000000000008152730fd9f3800fd9f3c007d9f3e003d9f3f001d9f3f082820152858452600882528684209086855b600281106200036057505050506200024962000575565b9373010f3cfc000f3cfc000f3cf8000f3cf000003c008552733f0f3ce01f0f3cf00f0f3cfc070f3cfc030f3cfc82860152600294858552600883528785209087865b8881106200034b5750505050620002a162000575565b72339cfe00339cfc00339cf800039cf000039ce08152737c339ce03c339cf01c339cf80c339cfc04339cfe83820152600385526008835287852087865b88811062000336575050505050620002f562000575565b91838352838284015283526008815285832091925b84811062000321578651614ab79081620005af8239f35b835160ff16838201559281019285016200030a565b858585511694019381840155018890620002de565b8585845116930192818501550188906200028b565b84888451169301928185015501879062000232565b82516001600160901b03168482015591840191889101620001de565b8651631e4fbdf760e01b8152808401859052602490fd5b01519050388062000145565b8a89528689208b959093929116895b88828210620003fe5750508411620003e4575b505050811b01865562000159565b015160001960f88460031b161c19169055388080620003d6565b8385015186558d97909501949384019301620003c3565b6200043f908c8b52888b208580880160051c8201928b891062000446575b0160051c019062000595565b386200012f565b9250819262000433565b634e487b7160e01b895260228852602489fd5b90607f169062000118565b634e487b7160e01b885260418752602488fd5b015190503880620000ea565b90848e9416918c80528a8d20928d5b8c828210620004d75750508411620004bd575b505050811b018855620000fe565b015160001960f88460031b161c19169055388080620004af565b91929395968291958786015181550195019301908f95949392916200049c565b62000520908c80528a8d208880860160051c8201928d871062000446570160051c019062000595565b38620000d4565b634e487b7160e01b8b5260228a5260248bfd5b90607f1690620000bf565b604187634e487b7160e01b6000525260246000fd5b600080fd5b634e487b7160e01b600052604160045260246000fd5b60408051919082016001600160401b038111838210176200055f57604052565b818110620005a1575050565b600081556001016200059556fe610540604081815260048036101561001657600080fd5b600092833560e01c90816301ffc9a714610c965750806306fdde0314610bcb578063081812fc14610b90578063095ea7b314610ab457806323b872dd14610a9c57806340d097c3146107d957806342842e0e146107aa57806342966c68146106595780634490e0f31461061b5780636352211e146105ea57806370a0823114610595578063715018a6146105385780638da5cb5b1461050f57806395d89b41146103f9578063a22cb46514610358578063b88d4fde146102c5578063c87b56dd1461028a578063c8ab9d1a1461024b578063cc364f48146101ef578063e985e9c51461019d5763f2fde38b1461010b57600080fd5b3461019957602036600319011261019957610124610d4a565b9061012d610e6e565b6001600160a01b03918216928315610183575050600654826bffffffffffffffffffffffff60a01b821617600655167f8be0079c531659141344cd1fd0a4f28419497f9722a3daafe3b4186f6b6457e08380a380f35b51631e4fbdf760e01b8152908101849052602490fd5b8280fd5b5050346101eb57806003193601126101eb5760ff816020936101bd610d4a565b6101c5610d65565b6001600160a01b0391821683526005875283832091168252855220549151911615158152f35b5080fd5b508290346101eb5760203660031901126101eb578035808352600260205291839020546001600160a01b0316156102365760208360ff61022e85611204565b915191168152f35b91516361ca35d160e01b815291820152602490fd5b508290346101eb5760203660031901126101eb578035808352600260205291839020546001600160a01b0316156102365760208360ff61022e85611275565b5091346102c25760203660031901126102c257506102ab6102be92356113b6565b9051918291602083526020830190610d25565b0390f35b80fd5b509034610199576080366003190112610199576102e0610d4a565b6102e8610d65565b6044359185606435956001600160401b0387116101eb57366023880112156101eb578601359561032361031a88610e53565b96519687610e32565b86865236602488830101116101eb5786610355976024602093018389013786010152610350838383610e9a565b611074565b80f35b509034610199578060031936011261019957610372610d4a565b90602435918215158093036103f5576001600160a01b03169283156103e05750338452600560205280842083855260205280842060ff1981541660ff8416179055519081527f17307eab39ab6107e8899845ad3d59bd9653f200f220920489ca2b5937696c3160203392a380f35b836024925191630b61174360e31b8352820152fd5b8480fd5b5091346102c257806003193601126102c2578151918160019283549384811c91818616958615610505575b60209687851081146104f2578899509688969785829a5291826000146104cb575050600114610470575b5050506102be9291610461910385610e32565b51928284938452830190610d25565b91908693508083527fb10e2d527612073b26eecdfd717e6a320cf44b4afac2b0732d9fcbe2b7fa0cf65b8284106104b357505050820101816104616102be61044e565b8054848a01860152889550879490930192810161049a565b60ff19168782015293151560051b8601909301935084925061046191506102be905061044e565b634e487b7160e01b835260228a52602483fd5b92607f1692610424565b5050346101eb57816003193601126101eb5760065490516001600160a01b039091168152602090f35b83346102c257806003193601126102c257610551610e6e565b600680546001600160a01b0319811690915581906001600160a01b03167f8be0079c531659141344cd1fd0a4f28419497f9722a3daafe3b4186f6b6457e08280a380f35b5091346102c25760203660031901126102c2576001600160a01b036105b8610d4a565b169283156105d55750806020938392526003845220549051908152f35b91516322718ad960e21b815291820152602490fd5b5091346102c25760203660031901126102c2575061060a60209235611039565b90516001600160a01b039091168152f35b508290346101eb5760203660031901126101eb578035808352600260205291839020546001600160a01b031615610236576102be836102ab846112bf565b508290346101eb5760209081600319360112610199578035808452600283528484205490926001600160a01b039182169290913315159081610715575b5050509360028495839594956106e2575b85855252822080546001600160a01b03191690557fddf252ad1be2c89b69c2b068fc378daa952ba7f163c4a11628f55a4df523b3ef8280a480f35b600086815260046020526040902080546001600160a01b03191690558385526003815282852080546000190190556106a7565b8161075e575b5015610728578080610696565b935050610743576024925191637e27328960e01b8352820152fd5b604492519163177e802f60e01b835233908301526024820152fd5b3385149150811561078d575b8115610778575b508761071b565b85875282845287872054163314905087610771565b8487526005845287872033885284528787205460ff16915061076a565b5050346101eb57610355906107be36610d7b565b919251926107cb84610dfc565b858452610350838383610e9a565b5090346101995760209081600319360112610a98576107f6610d4a565b600754936000199391848614610a85576001860160075583519061081982610dfc565b8782526001600160a01b0381811696908715610a6e57878991828c5260028852888c2054168015159384610a3c575b50818c5260038852888c2080546001019055828c5260028852888c2080546001600160a01b031916831790557fddf252ad1be2c89b69c2b068fc378daa952ba7f163c4a11628f55a4df523b3ef8c80a4610a25573b6108e9575b5050907f85a66b9141978db9980f7e0ce3b468cebf4f7999f32b23091c5c03e798b1ba7a916108e36108d3866113b6565b9251928284938452830190610d25565b0390a380f35b8396929695919551878180610925630a85bd0160e11b95868352338c840152886024840152876044840152608060648401526084830190610d25565b0381878a5af18491816109e5575b50610991575050503d600014610989573d61094d81610e53565b9061095a84519283610e32565b81528091863d92013e5b8051948561098357505051633250574960e11b81529182015260249150fd5b85925001fd5b506060610964565b9296919591926001600160e01b031916036109ce57507f85a66b9141978db9980f7e0ce3b468cebf4f7999f32b23091c5c03e798b1ba7a386108a2565b8251633250574960e11b8152908101849052602490fd5b9091508881813d8311610a1e575b6109fd8183610e32565b810103126103f557516001600160e01b0319811681036103f5579038610933565b503d6109f3565b84516339e3563760e11b8152808401899052602490fd5b600084815260046020526040902080546001600160a01b0319169055818d5260038952898d2090815401905538610848565b8651633250574960e11b81528086018b9052602490fd5b634e487b7160e01b875260118252602487fd5b8380fd5b83346102c257610355610aae36610d7b565b91610e9a565b509034610199578060031936011261019957610ace610d4a565b91602435610adb81611039565b33151580610b7d575b80610b54575b610b3e576001600160a01b039485169482918691167f8c5be1e5ebec7d5bd14f71427d1e84f3dd0314c0f7b2291e5b200ac8c7c3b9258880a48452602052822080546001600160a01b031916909117905580f35b835163a9fbf51f60e01b81523381850152602490fd5b506001600160a01b03811686526005602090815284872033885290528386205460ff1615610aea565b506001600160a01b038116331415610ae4565b503461019957602036600319011261019957918260209335610bb181611039565b50825283528190205490516001600160a01b039091168152f35b5091346102c257806003193601126102c25781519181825492600184811c91818616958615610c8c575b60209687851081146104f2578899509688969785829a5291826000146104cb575050600114610c31575050506102be9291610461910385610e32565b91908693508280527f290decd9548b62a8d60345a988386fc84ba6bc95484008f6362f93160ef3e5635b828410610c7457505050820101816104616102be61044e565b8054848a018601528895508794909301928101610c5b565b92607f1692610bf5565b92505034610199576020366003190112610199573563ffffffff60e01b811680910361019957602092506380ac58cd60e01b8114908115610cf1575b8115610ce0575b5015158152f35b6301ffc9a760e01b14905038610cd9565b635b5e139f60e01b81149150610cd2565b60005b838110610d155750506000910152565b8181015183820152602001610d05565b90602091610d3e81518092818552858086019101610d02565b601f01601f1916010190565b600435906001600160a01b0382168203610d6057565b600080fd5b602435906001600160a01b0382168203610d6057565b6060906003190112610d60576001600160a01b03906004358281168103610d6057916024359081168103610d60579060443590565b60a081019081106001600160401b03821117610dcb57604052565b634e487b7160e01b600052604160045260246000fd5b606081019081106001600160401b03821117610dcb57604052565b602081019081106001600160401b03821117610dcb57604052565b604081019081106001600160401b03821117610dcb57604052565b90601f801991011681019081106001600160401b03821117610dcb57604052565b6001600160401b038111610dcb57601f01601f191660200190565b6006546001600160a01b03163303610e8257565b60405163118cdaa760e01b8152336004820152602490fd5b6001600160a01b03918216929091831561102057600092828452826020956002875260409684888820541696879133151580610f8a575b509060027fddf252ad1be2c89b69c2b068fc378daa952ba7f163c4a11628f55a4df523b3ef9284610f57575b858352600381528b8320805460010190558683525289812080546001600160a01b0319168517905580a41692838303610f365750505050565b6064945051926364283d7b60e01b8452600484015260248301526044820152fd5b600087815260046020526040902080546001600160a01b0319169055848352600381528b83208054600019019055610efd565b91939450915080610fdf575b15610fa657859291879138610ed1565b878688610fc3576024915190637e27328960e01b82526004820152fd5b604491519063177e802f60e01b82523360048301526024820152fd5b503387148015611004575b80610f965750858252600481523385898420541614610f96565b5086825260058152878220338352815260ff8883205416610fea565b604051633250574960e11b815260006004820152602490fd5b6000818152600260205260409020546001600160a01b031690811561105c575090565b60249060405190637e27328960e01b82526004820152fd5b813b611081575b50505050565b604051630a85bd0160e11b8082523360048301526001600160a01b039283166024830152604482019490945260806064820152602095929091169390929083906110cf906084830190610d25565b039285816000958187895af1849181611178575b50611143575050503d60001461113b573d6110fd81610e53565b9061110b6040519283610e32565b81528091843d92013e5b8051928361113657604051633250574960e11b815260048101849052602490fd5b019050fd5b506060611115565b919450915063ffffffff60e01b160361116057503880808061107b565b60249060405190633250574960e11b82526004820152fd5b9091508681813d83116111b1575b6111908183610e32565b810103126103f557516001600160e01b0319811681036103f55790386110e3565b503d611186565b60ff1660058110156111c75790565b634e487b7160e01b600052602160045260246000fd5b9060058110156111ee5760051b0190565b634e487b7160e01b600052603260045260246000fd5b611258600560ff6040519361121885610db0565b60068552826020860152600460408601526003606086015260026080860152604051602081019182526020815261124e81610e17565b51902016066111b8565b60058110156111c75760ff91826112709216906111dd565b511690565b611258600560ff6040519361128985610db0565b60028552600360208601526004604086015282606086015260066080860152604051602081019182526020815261124e81610e17565b6113796040918251926112d184610db0565b64165858da1d60da1b8151916112e683610e17565b6004835260209263109bd85d60e21b848201528652805161130681610e17565b60058152640536c6f6f760dc1b8482015283870152805161132681610e17565b60048152634272696760e01b8482015281870152805161134581610e17565b60078152664672696761746560c81b848201526060870152519161136883610e17565b600583528201526080840152611394565b9060058210156111c75760ff6113909216906111dd565b5190565b600560ff6113b392604051602081019182526020815261124e81610e17565b90565b6103608190526000908152600260205260409020546001600160a01b03161561470e576040516020810190610360518252602081526113f481610e17565b5190209061140461036051611394565b90600883901c60011615614703576001610200525b60006040805161142881610de1565b8281528260208201520152611443604051806103c052610de1565b60ff8360101c166103c0515260ff8360181c1660206103c051015260ff8360201c1660406103c051015260006040805161147c81610de1565b828152826020820152015260405161149381610de1565b60ff8460281c16815260ff8460301c16602082015260ff8460381c1660408201526000604080516114c381610de1565b82815282602082015201526114de6040518061026052610de1565b60ff8460401c16610260515260ff8460481c16602061026051015260ff8460501c16604061026051015260006040805161151781610de1565b82815282602082015201526115326040518061010052610de1565b60ff8460581c16610100515260ff8460601c16602061010051015260ff8460681c16604061010051015260006040805161156b81610de1565b82815282602082015201526115856040518060e052610de1565b60ff8460701c1660e0515260ff8460781c16602060e051015260ff8460801c16604060e05101526000604080516115bb81610de1565b82815282602082015201526115d66040518061040052610de1565b60ff8460881c16610400515260ff8460901c16602061040051015260ff8460981c16604061040051015260006040805161160f81610de1565b82815282602082015201526116296040518060c052610de1565b60ff8460a01c1660c0515260ff8460a81c16602060c051015260ff8460b01c16604060c051015260006040805161165f81610de1565b828152826020820152015261167a6040518061012052610de1565b60ff8460b81c16610120515260ff8460c01c16602061012051015260ff8460c81c1660406101205101526000604080516116b381610de1565b82815282602082015201526116cd60405180608052610de1565b60ff8460d01c166080515260ff8460d81c166020608051015260ff8460e01c166040608051015260006040805161170381610de1565b828152826020820152015261171e604051806103a052610de1565b60ff8460e81c166103a0515260ff8460f01c1660206103a05101528360f81c60406103a05101526040519361175285610de1565b60028552604036602087013761176784614a28565b548116611773866149f7565b52604051602081019182526020815261178b81610e17565b519020600161179985614a28565b0154166117a585614a04565b526040518061046052806128208101106001600160401b0361282083011117610dcb578061282061014092016040525261280036602061046051013760005b60ff811660a081101561183b579060ff91611813611801886149f7565b516001831b1615159161046051614a14565b521660ff8114611825576001016117e4565b634e487b7160e01b600052601160045260246000fd5b50509260005b61ffff908181169160a083101561188d5761185b84614a04565b519260a081019180831161182557611888946001611882931b161515921661046051614a14565b526149e4565b611841565b50505050909160405180610160526118a490610db0565b6101605160659052610160516020017f3c3f786d6c2076657273696f6e3d22312e3022203f3e3c73766720786d6c6e739052610160516040017f3d22687474703a2f2f7777772e77332e6f72672f323030302f737667222077699052610160516060017f6474683d2233323022206865696768743d22323430222076657273696f6e3d22905264189718911f60d91b610160516080015260e0515160ff1661194b906148a1565b6101c05260e0516020015160ff16611962906148a1565b6103405260e0516040015160ff16611979906148a1565b61024052610400515160ff1661198e906148a1565b610400516020015160ff166119a2906148a1565b610400516040015160ff166119b6906148a1565b9060e0515160ff166119c7906148a1565b9260e0516020015160ff166119db906148a1565b9460e0516040015160ff166119ef906148a1565b610400515160ff16611a00906148a1565b610400516020015160ff16611a14906148a1565b610400516040015160ff16611a28906148a1565b6103c0515160ff16611a39906148a1565b916103c0516020015160ff16611a4e906148a1565b936103c0516040015160ff16611a63906148a1565b95875160ff16611a72906148a1565b97602081015160ff16611a84906148a1565b6101e0526040015160ff16611a98906148a1565b61044052610260515160ff16611aad906148a1565b61052052610260516020015160ff16611ac5906148a1565b61042052610260516040015160ff16611add906148a1565b6104e052610100515160ff16611af2906148a1565b6103e052610100516020015160ff16611b0a906148a1565b61028052610100516040015160ff16611b22906148a1565b6102e05260c0515160ff16611b36906148a1565b6103005260c0516020015160ff16611b4d906148a1565b6102a05260c0516040015160ff16611b64906148a1565b61048052610120515160ff16611b79906148a1565b6104a052610120516020015160ff16611b91906148a1565b6102c052610120516040015160ff16611ba9906148a1565b610500526080515160ff16611bbd906148a1565b610140526080516020015160ff16611bd4906148a1565b610220526080516040015160ff16611beb906148a1565b60a0526103a0515160ff16611bff906148a1565b610320526103a0516020015160ff16611c17906148a1565b610180526103a0516040015160ff16611c2f906148a1565b6104c052600061038052610200516000149c6101f69c60019c6124ef9f9c60589c60229e6146e057604051611c6381610e17565b60018152603160f81b6020820152610380525b651e3232b3399f60d11b6020604051806101a05201527f3c7374796c6520747970653d22746578742f637373223e00000000000000000060266101a05101527f2e7361696c546f70207b2073746f702d636f6c6f723a20726762280000000000603d6101a05101526101c051611cfa8151605892602082946101a051019101610d02565b600b60fa1b8f826101a0510101526103405190611d268251809360206059856101a05101019101610d02565b6101a0510101600b60fa1b60598201526102405190611d4f825180936020605a85019101610d02565b63293b207d60e01b605a83830101527f2e7361696c426f74746f6d207b2073746f702d636f6c6f723a20726762280000605e8383010152611d9c835180946020607c868601019101610d02565b0101600b60fa1b607c820152611dbc825180936020607d85019101610d02565b01600b60fa1b607d820152611ddb825180936020607e85019101610d02565b0163293b207d60e01b607e8201527f2e626f6479436f6c6f7231207b2066696c6c3a207267622800000000000000006082820152611e23825180936020609a85019101610d02565b01600b60fa1b609a820152611e42825180936020609b85019101610d02565b01600b60fa1b609b820152611e61825180936020609c85019101610d02565b0163293b207d60e01b609c8201527f2e626f6479436f6c6f7232207b2066696c6c3a2072676228000000000000000060a0820152611ea982518093602060b885019101610d02565b01600b60fa1b60b8820152611ec882518093602060b985019101610d02565b01600b60fa1b60b9820152611ee782518093602060ba85019101610d02565b0163293b207d60e01b60ba8201527105cd0ead8d840f640ccd2d8d87440e4cec4560731b60be820152611f2482518093602060d085019101610d02565b01600b60fa1b60d0820152611f4382518093602060d185019101610d02565b01600b60fa1b60d1820152611f6282518093602060d285019101610d02565b0163293b207d60e01b60d28201527f2e77696e646f774c696e65207b2066696c6c3a2072676228000000000000000060d6820152611faa82518093602060ee85019101610d02565b01600b60fa1b60ee8201526101e05190611fce82518093602060ef85019101610d02565b01600b60fa1b60ef8201526104405190611ff282518093602060f085019101610d02565b0163293b207d60e01b60f08201527305ceed2dcc8deee40f640ccd2d8d87440e4cec4560631b60f4820152600b60fa1b610520519182519061203e826101089560208785019101610d02565b0191820152600b60fa1b6104205191825190612064826101099560208785019101610d02565b019182015263293b207d60e01b6104e0519182519061208d8261010a9560208785019101610d02565b01918201527405cdac2e6e8e640f640e6e8e4ded6ca7440e4cec45605b1b61010e820152600b60fa1b6103e051918251906120d2826101239560208785019101610d02565b0191820152600b60fa1b61028051918251906120f8826101249560208785019101610d02565b019182015263293b207d60e01b6102e05191825190612121826101259560208785019101610d02565b01918201527405cccd8c2cee640f640e6e8e4ded6ca7440e4cec45605b1b610129820152600b60fa1b61030051918251906121668261013e9560208785019101610d02565b0191820152600b60fa1b6102a0519182519061218c8261013f9560208785019101610d02565b0191820152600b60fa1b61048051916121b083518094602061014085019101610d02565b63293b207d60e01b61014084830101527405ce6d2cedccae86240f640ccd2d8d87440e4cec45605b1b61014484830101526104a051928351916121ff8361015996602088868601019101610d02565b010191820152600b60fa1b6102c051918251906122268261015a9560208785019101610d02565b019182015263293b207d60e01b610500519182519061224f8261015b9560208785019101610d02565b01918201527405ce6d2cedccae86440f640ccd2d8d87440e4cec45605b1b61015f820152600b60fa1b6101405191825190612294826101749560208785019101610d02565b0191820152600b60fa1b61022051918251906122ba826101759560208785019101610d02565b019182015260a051906122d882518093602061017685019101610d02565b010163293b207d60e01b61011e8201527405ce6d2cedccae86640f640ccd2d8d87440e4cec45605b1b610122820152600b60fa1b8380610320519384519061232c8261013697602061013785019101610d02565b01018284820152610180519061234d82518093602061013785019101610d02565b0101918201526104c0519061236d82518093602061013785019101610d02565b010163293b207d60e01b6101158201527f2e666c616773426f72646572207b206f7061636974793a00000000000000000061011982015261038051906123be82518093602061013085019101610d02565b0101623b207d60e81b61012f820152752e626f72646572207b2066696c6c3a2023666666207d60501b610132820152671e17b9ba3cb6329f60c11b6101488201527f3c6c696e6561724772616469656e742069643d227361696c4772616469656e746101508201527f22206772616469656e745472616e73666f726d3d22726f7461746528393029226101708201527f3e203c73746f70206f66667365743d223525222020636c6173733d227361696c6101908201527f546f70222f3e203c73746f70206f66667365743d223935252220636c6173733d6101b08201527f227361696c426f74746f6d222f3e203c2f6c696e6561724772616469656e743e6101d0820152661e17b232b3399f60c91b6101f082015260016101a05180920301906101d682019052016101a051610e32565b60058210156111c757816146ca57604051806102e08101106001600160401b036102e083011117610dcb576102e081016040526102a58152600080516020614a628339815191526020820152600080516020614a4283398151915260408201527f3d224d3620313520683220762d3220683120762d3120683120762d312068312060608201527f762d3120683120762d3120683120762d3120683120762d3120683120762d312060808201527f683320763920683820763320682d3120763120682d3120763120682d3120763160a08201527f20682d313420762d3120682d3220762d3220682d31207a22202f3e203c67206360c08201527f6c6173733d22666c616773426f72646572223e203c7061746820643d224d313360e08201527f203520683520763320682d357a22202f3e203c2f673e203c2f673e203c673e206101008201527f3c706174682069643d2268756c6c2220643d224d3720313620682031382076316101208201527f20682d3120763120682d3120763120682d3120763120682d313220762d3120686101408201527f2d3220762d322020682d3120207a2220636c6173733d2268756c6c22202f3e206101608201527f3c706174682069643d2277696e646f774c696e652220643d224d3720313620686101808201527f313820763120682d3138207a2220636c6173733d2277696e646f772d6c696e656101a08201527f22202f3e203c2f673e203c672069643d226d617374732220636c6173733d226d6101c08201527f61737473223e203c7061746820643d224d31362e35203720763922202f3e203c6101e08201527f2f673e203c672069643d22666c6167732220636c6173733d22666c61677320666102008201527f6c616773426f72646572223e203c7061746820643d224d313420362e352068336102208201527f22202f3e203c2f673e203c672069643d227361696c73222066696c6c3d2275726102408201527f6c28237361696c4772616469656e7429223e203c7061746820643d224d3920316102608201527f3520762d3120683120762d3120683120762d3120683120762d3120683120762d6102808201527f3120683120762d3120683120762d31206831207637207a22202f3e203c2f673e6102a082015264101e17b39f60d91b6102c0820152915b600181036146b557604051806104e08101106001600160401b036104e083011117610dcb576104e081016040526104be8152600080516020614a628339815191526020820152600080516020614a4283398151915260408201527f3d224d33203920683120762d3120683120762d3120683120762d31206833207660608201527f2d3120683720762d3120683320763220683120762d312068332076322068312060808201527f763120683120763120683120763120683120763120683120763120683120763660a08201527f20682d3220763120682d3120763120682d3120763120682d3120763120682d3160c08201527f3720762d3420682d3220762d3420682d3120762d3120682d31207a222f3e203c60e08201527f6720636c6173733d22666c616773426f72646572223e203c7061746820643d226101008201527f4d37203420683520763320682d357a22202f3e203c7061746820643d224d31346101208201527f203320683520763320682d357a22202f3e203c7061746820643d224d313920346101408201527f20683420763320682d347a22202f3e203c2f673e203c2f673e203c673e203c706101608201527f6174682069643d2268756c6c2220643d224d36203136206820323220763120686101808201527f2d3220763120682d3120763120682d3120763120682d3120763120682d3135206101a08201527f762d3120683120762d3120683120762d3120682d3220762d3120682d32207a226101c08201527f20636c6173733d2268756c6c22202f3e203c706174682069643d2277696e646f6101e08201527f772d6c696e652220643d224d31302031382068313520763120682d3135207a226102008201527f20636c6173733d2277696e646f774c696e65222f3e203c672069643d2277696e6102208201527f646f77732220636c6173733d2277696e646f77223e203c706174682069643d226102408201527f77696e646f772d312220643d224d313220313820683120763120682d31207a226102608201527f202f3e203c706174682069643d2277696e646f772d312220643d224d313220316102808201527f3820683120763120682d31207a22202f3e203c706174682069643d2277696e646102a08201527f6f772d322220643d224d313220313820683120763120682d31207a22202f3e206102c08201527f3c2f673e203c2f673e203c672069643d226d617374732220636c6173733d226d6102e08201527f61737473223e203c7061746820643d224d31302e3520362076313022202f3e206103008201527f3c7061746820643d224d31372e3520352076313122202f3e203c7061746820646103208201527f3d224d32312e3520362076313022202f3e203c2f673e203c672069643d22666c6103408201527f6167732220636c6173733d22666c61677320666c616773426f72646572223e206103608201527f3c7061746820643d224d3820352e3520683322202f3e203c7061746820643d226103808201527f4d313520342e3520683322202f3e203c7061746820643d224d323020352e35206103a08201527f683222202f3e203c2f673e203c672069643d227361696c73222066696c6c3d226103c08201527f75726c28237361696c4772616469656e7429223e203c7265637420783d2231326103e08201527f2220793d2236222077696474683d223522206865696768743d223922202f3e206104008201527f3c7265637420783d2231392220793d2237222077696474683d223222206865696104208201527f6768743d223822202f3e203c7061746820643d224d37203720683320763820686104408201527f2d3320762d3120682d3120762d3120682d3120762d3120682d312020762d32206104608201527f683120762d3120683120762d31206831207a222f3e203c7061746820643d22206104808201527f4d323220382068312076312068312076312068312076312068312076312068316104a08201527f2076312020683120763220682d36207a22202f3e203c2f673e203c2f673e00006104c08201525b6002820361469f57604051806105408101106001600160401b0361054083011117610dcb57610540810160405261050c8152600080516020614a628339815191526020820152600080516020614a4283398151915260408201527f3d224d31203720683120762d3120683120762d3120683420762d31206836207660608201527f2d3120683320763220683320762d31206833207633206833207631206831207660808201527f312068312076312068312076312068312076312068312076312068312076352060a08201527f682d3320763120682d3120763120682d3120763120682d3120763220682d323160c08201527f20762d3320683120762d3220682d3220762d3420682d31762d3120682d31207a60e08201527f222f3e203c6720636c6173733d22666c616773426f72646572223e203c7061746101008201527f6820643d224d35203320683520763320682d357a22202f3e203c7061746820646101208201527f3d224d3131203220683520763320682d357a22202f3e203c7061746820643d226101408201527f4d3138203320683420763320682d347a22202f3e203c7061746820643d224d326101608201527f31203620683420763320682d347a22202f3e203c2f673e203c2f673e203c673e6101808201527f203c706174682069643d2268756c6c2220643d224d34203136206820323620766101a08201527f3120682d3320763120682d3120763120682d3120763120682d3120763220682d6101c08201527f313920762d3120683120762d3120683120762d3120683120762d3120682d32206101e08201527f762d3120682d32207a2220636c6173733d2268756c6c22202f3e203c706174686102008201527f2069643d2277696e646f772d6c696e652220643d224d382031382068313820766102208201527f3120682d3138207a2220636c6173733d2277696e646f774c696e65222f3e203c6102408201527f672069643d2277696e646f77732220636c6173733d2277696e646f77223e203c6102608201527f7061746820643d224d313320313820683120763120682d31207a22202f3e203c6102808201527f7061746820643d224d313020313820683120763120682d31207a22202f3e203c6102a08201527f7061746820643d224d313920313820683120763120682d31207a22202f3e203c6102c08201527f7061746820643d224d323220313820683120763120682d31207a22202f3e203c6102e08201527f2f673e203c2f673e203c672069643d226d617374732220636c6173733d226d616103008201527f737473223e203c7061746820643d224d382e3520352076313122202f3e203c706103208201527f61746820643d224d31342e3520342076313222202f3e203c7061746820643d226103408201527f4d32302e3520352076313122202f3e203c7061746820643d224d32332e3520386103608201527f20763822202f3e203c2f673e203c672069643d22666c6167732220636c6173736103808201527f3d22666c61677320666c616773426f72646572223e203c7061746820643d224d6103a08201527f3620342e3520683322202f3e203c7061746820643d224d313220332e352068336103c08201527f22202f3e203c7061746820643d224d313920342e3520683222202f3e203c70616103e08201527f746820643d224d323220372e3520683222202f3e203c2f673e203c672069643d6104008201527f227361696c73222066696c6c3d2275726c28237361696c4772616469656e74296104208201527f223e203c7265637420783d2231302220793d2235222077696474683d223422206104408201527f6865696768743d22313022202f3e203c7265637420783d2231362220793d22366104608201527f222077696474683d223422206865696768743d223922202f3e203c70617468206104808201527f643d224d34203620683420763920682d3320762d3120682d3120762d3120682d6104a08201527f3120762d3120682d312020762d3420683120762d3120683120762d31206831206104c08201527f7a222f3e203c7061746820643d22204d323420392068312076312068312076316104e08201527f20683120763120683120763120683120763120683120763120682d36207a22206105008201526b179f101e17b39f101e17b39f60a11b610520820152925b6003830361468757604051806106008101106001600160401b0361060083011117610dcb5780610600600492016040526105d88152600080516020614a628339815191526020820152600080516020614a4283398151915260408201527f3d224d30203820683120762d3120683120762d3120683120762d31206831207660608201527f2d3120683320762d3120683320763120683220762d312068332076312068322060808201527f762d3120683320763320683120762d312068332076332068332076312068312060a08201527f763120683120763120683120763120683120763120683120763520682d33207660c08201527f3120682d3120763120682d3120763120682d3120763220682d323220762d332060e08201527f683120762d3220682d3220762d3420682d3120762d3120682d3120762d3120686101008201527f2d31207a22202f3e203c6720636c6173733d22666c616773426f72646572223e6101208201527f203c7061746820643d224d35203220683520763320682d357a22202f3e203c706101408201527f61746820643d224d3130203220683520763320682d357a22202f3e203c7061746101608201527f6820643d224d3135203220683520763320682d357a22202f3e203c70617468206101808201527f643d224d3230203420683420763320682d347a22202f3e203c7061746820643d6101a08201527f224d3233203720683420763320682d347a22202f3e203c2f673e203c2f673e206101c08201527f3c673e203c706174682069643d2268756c6c2220643d224d34203136206820326101e08201527f3720763120682d3320763120682d3120763120682d3120763120682d312076326102008201527f20682d323020762d3120683120762d3120683120762d3120683120762d3120686102208201527f2d3220762d3120682d32207a2220636c6173733d2268756c6c22202f3e203c706102408201527f6174682069643d2277696e646f772d6c696e652220643d224d382031382068316102608201527f3920763120682d3139207a2220636c6173733d2277696e646f774c696e6522206102808201527f2f3e203c672069643d2277696e646f77732220636c6173733d2277696e646f776102a08201527f223e203c7061746820643d224d313120313820683120763120682d31207a22206102c08201527f2f3e203c7061746820643d224d313420313820683120763120682d31207a22206102e08201527f2f3e203c7061746820643d224d313720313820683120763120682d31207a22206103008201527f2f3e203c7061746820643d224d323020313820683120763120682d31207a22206103208201527f2f3e203c7061746820643d224d323320313820683120763120682d31207a22206103408201527f2f3e203c2f673e203c2f673e203c672069643d226d617374732220636c6173736103608201527f3d226d61737473223e203c7061746820643d224d382e3520342076313222202f6103808201527f3e203c7061746820643d224d31332e3520342076313222202f3e203c706174686103a08201527f20643d224d31382e3520342076313222202f3e203c7061746820643d224d32326103c08201527f2e3520362076313022202f3e203c7061746820643d224d32352e3520392076376103e08201527f22202f3e203c2f673e203c672069643d22666c6167732220636c6173733d22666104008201527f6c61677320666c616773426f72646572223e203c7061746820643d224d3620336104208201527f2e3520683322202f3e203c7061746820643d224d313120332e3520683322202f6104408201527f3e203c7061746820643d224d313620332e3520683322202f3e203c70617468206104608201527f643d224d323120352e3520683222202f3e203c7061746820643d224d323420386104808201527f2e3520683222202f3e203c2f673e203c672069643d227361696c73222066696c6104a08201527f6c3d2275726c28237361696c4772616469656e7429223e203c7265637420783d6104c08201527f2231302220793d2235222077696474683d223322206865696768743d223130226104e08201527f202f3e203c7265637420783d2231352220793d2235222077696474683d2233226105008201527f206865696768743d22313022202f3e203c7265637420783d2232302220793d226105208201527f37222077696474683d223222206865696768743d223822202f3e203c706174686105408201527f20643d224d31203920683120762d3120683120762d3120683120762d312068316105608201527f20762d312068332076313020682d3320762d3120682d3120762d3120682d31206105808201527f762d3120682d3120762d3120682d31207a22202f3e203c7061746820643d224d6105a08201527f32362031302068312076312020683120763120683120763120683120763120686105c08201527f3120763120682d35207a22202f3e203c2f673e203c2f673e00000000000000006105e0820152935b0361467157604051806104a08101106001600160401b036104a083011117610dcb576104a0810160405261046e8152600080516020614a628339815191526020820152600080516020614a4283398151915260408201527f3d224d3120313220683520762d3120683220762d3120683220762d312068322060608201527f762d3120683220762d3120683120762d3120683320763120683120763120683260808201527f20763120683220763120683220763120683220763120683520763320682d322060a08201527f763120682d3120763120682d3120763120682d3120763120682d323720762d3360c08201527f206831207a22202f3e203c6720636c6173733d22666c616773426f726465722260e08201527f3e203c7061746820643d224d3133203520683520763320682d357a22202f3e206101008201527f3c2f673e203c2f673e203c673e203c706174682069643d2268756c6c2220643d6101208201527f224d32203133206820323920763120682d3220763120682d3120763120682d316101408201527f20763120682d3120763120682d323520762d3120683120762d3120683120762d6101608201527f3120683120762d3120682d32207a2220636c6173733d2268756c6c22202f3e206101808201527f3c706174682069643d2277696e646f772d6c696e652220643d224d32203133206101a08201527f68323920763120682d3220763120682d323520762d3120682d32207a2220636c6101c08201527f6173733d2277696e646f774c696e6522202f3e203c672069643d2277696e646f6101e08201527f77732220636c6173733d2277696e646f77223e203c7061746820643d224d39206102008201527f313420683120763120682d31207a22202f3e203c7061746820643d224d3133206102208201527f313420683120763120682d31207a22202f3e203c7061746820643d224d3137206102408201527f313420683120763120682d31207a22202f3e203c7061746820643d224d3231206102608201527f313420683120763120682d31207a22202f3e203c7061746820643d224d3131206102808201527f313320683120763120682d31207a22202f3e203c7061746820643d224d3135206102a08201527f313320683120763120682d31207a22202f3e203c7061746820643d224d3139206102c08201527f313320683120763120682d31207a22202f3e203c7061746820643d224d3233206102e08201527f313320683120763120682d31207a22202f3e203c2f673e203c2f673e203c67206103008201527f69643d226d617374732220636c6173733d226d61737473223e203c70617468206103208201527f643d224d31362e35203720763122202f3e203c2f673e203c672069643d22666c6103408201527f6167732220636c6173733d22666c61677320666c616773426f72646572223e206103608201527f3c7061746820643d224d313420362e3520683322202f3e203c2f673e203c67206103808201527f69643d22626f6479223e203c6720636c6173733d22626f6479436f6c6f7231226103a08201527f3e203c7061746820643d224d372031322068313920763120682d3139207a22206103c08201527f2f3e203c7061746820643d224d31312031302068313120763120682d3131207a6103e08201527f22202f3e203c7061746820643d224d3135203820683320763120682d33207a226104008201527f202f3e203c2f673e203c6720636c6173733d22626f6479436f6c6f7232223e206104208201527f3c7061746820643d224d392031312068313520763120682d3135207a22202f3e6104408201527f203c7061746820643d224d3133203920683720763120682d37207a22202f3e206104608201526d1e17b39f101e17b39f101e17b39f60911b610480820152915b6040518060808101106001600160401b03608083011117610dcb5760808101604052604781527f3c672069643d227369676e65747322207472616e73666f726d3d227363616c6560208201527f28313029223e203c672069643d227369676e6574312220636c6173733d22736960408201526633b732ba18911f60c91b60608201529560005b6104605180519061ffff831691821015614288579061419591614a14565b516141a9575b6141a4906149e4565b614177565b96601f881661ffff8111611825576141c0906148a1565b61ffff60056107ff8b821c16011161182557614280603b6141a493600160fd1b936141f861ffff60058f6107ff90821c1601166148a1565b906040519583614212889551809260208089019101610d02565b8401693c7061746820643d224d60b01b602082015282519061423d82602a9560208785019101610d02565b019182015281519061425882602b9460208685019101610d02565b01906f103418903b1890341698903d1110179f60811b9082015203601b810184520182610e32565b97905061419b565b505050909394602092966143bc9461461e976142d76029604051856142b682975180928c8086019101610d02565b8101681e17b39f101e17b39f60b91b8a820152036009810186520184610e32565b604051936142e485610e17565b60068552651e17b9bb339f60d11b8786015260405198899661016051614312815180928c808d019101610d02565b88016101a0519061432b825180938d8085019101610d02565b0161433e825180938c8085019101610d02565b01614351825180938b8085019101610d02565b01614364825180938a8085019101610d02565b0161437782518093898085019101610d02565b0161438a82518093888085019101610d02565b0161439d82518093878085019101610d02565b016143b082518093868085019101610d02565b01038084520182610e32565b6146196101466143ce610360516148a1565b6143e560ff6143df61036051611204565b166148a1565b936143f760ff6143df61036051611275565b907f227d5d2c2022696d616765223a2022646174613a696d6167652f7376672b786d61442e614428610360516112bf565b9261475b565b92604051978895737b226e616d65223a202250756e6b73686970202360601b602088015261446681518092602060348b019101610d02565b86017f222c20226465736372697074696f6e223a202250756e6b73686970732061726560348201527f2072616e646f6d697a656420616e6420756e697175652073686970732e20557360548201527f65207468656d20666f72207468652070756e6b736869702067616d65222c202260748201527f61747472696275746573223a205b7b2274726169745f74797065223a2022726160948201526f3733b2911610113b30b63ab2911d101160811b60b482015261452d82518093602060c485019101610d02565b017f227d2c207b2274726169745f74797065223a202273686f6f74696e6752616e6760c48201526d32911610113b30b63ab2911d101160911b60e482015261457f82518093602060f285019101610d02565b017f227d2c207b2274726169745f74797065223a20227368697054797065222c202260f2820152683b30b63ab2911d101160b91b6101128201528251906145d08261011b9560208785019101610d02565b0191820152681b0ed8985cd94d8d0b60ba1b61013b8201526145fd82518093602061014485019101610d02565b0161227d60f01b61014482015203610126810184520182610e32565b61475b565b6113b3603d60405180937f646174613a6170706c69636174696f6e2f6a736f6e3b6261736536342c00000060208301526146618151809260208686019101610d02565b810103601d810184520182610e32565b60405161467d81610dfc565b60008152916140f1565b600460405161469581610dfc565b6000815293613b7e565b6040516146ab81610dfc565b6000815292613449565b6040516146c181610dfc565b60008152612e12565b6040516146d681610dfc565b6000815291612840565b6040516146ec81610e17565b60018152600360fc1b602082015261038052611c76565b600061020052611419565b6040516361ca35d160e01b8152610360516004820152602490fd5b9061473382610e53565b6147406040519182610e32565b8281528092614751601f1991610e53565b0190602036910137565b80511561488d5760405161476e81610de1565b604081527f4142434445464748494a4b4c4d4e4f505152535455565758595a61626364656660208201527f6768696a6b6c6d6e6f707172737475767778797a303132333435363738392b2f60408201528151600292838201809211611825576003918290046001600160fe1b0381168103611825576147f0908594951b614729565b936020850193829183518401925b83811061483c57505050505106806001146148295760021461481e575090565b603d90600019015390565b50603d9081600019820153600119015390565b85600491979293949701918251600190603f9082828260121c16880101518453828282600c1c16880101518385015382828260061c16880101518885015316850101518782015301959291906147fe565b5060405161489a81610dfc565b6000815290565b806000917a184f03e93ff9f4daa797ed6e38ed64bf6a1f010000000000000000808210156149d6575b506d04ee2d6d415b85acef8100000000808310156149c7575b50662386f26fc10000808310156149b8575b506305f5e100808310156149a9575b506127108083101561499a575b50606482101561498a575b600a80921015614980575b600190816021614938828701614729565b95860101905b61494a575b5050505090565b600019019083906f181899199a1a9b1b9c1cb0b131b232b360811b8282061a83530491821561497b5791908261493e565b614943565b9160010191614927565b919060646002910491019161491c565b60049193920491019138614911565b60089193920491019138614904565b601091939204910191386148f5565b602091939204910191386148e3565b6040935081049150386148ca565b61ffff8091169081146118255760010190565b8051156111ee5760200190565b8051600110156111ee5760400190565b80518210156111ee5760209160051b010190565b60058110156111c757600052600860205260406000209056fe22626f726465722220636c6173733d22626f72646572223e203c7061746820643c67207472616e73666f726d3d227363616c6528313029223e203c672069643da26469706673582212209f07426b25f4ba3b5959413d94f0a2a21198ef6955e0a3d4250877295ae8244664736f6c63430008140033",
  "linkReferences": {},
  "deployedLinkReferences": {}
}