{
  "_format": "hh-sol-artifact-1",
  "contractName": "Punkships",
  "sourceName": "contracts/Punkships.sol",
  "abi": [
    {
      "inputs": [
        {
          "internalType": "address",
          "name": "initialOwner",
          "type": "address"
        }
      ],
      "stateMutability": "nonpayable",
      "type": "constructor"
    },
    {
      "inputs": [
        {
          "internalType": "address",
          "name": "sender",
          "type": "address"
        },
        {
          "internalType": "uint256",
          "name": "tokenId",
          "type": "uint256"
        },
        {
          "internalType": "address",
          "name": "owner",
          "type": "address"
        }
      ],
      "name": "ERC721IncorrectOwner",
      "type": "error"
    },
    {
      "inputs": [
        {
          "internalType": "address",
          "name": "operator",
          "type": "address"
        },
        {
          "internalType": "uint256",
          "name": "tokenId",
          "type": "uint256"
        }
      ],
      "name": "ERC721InsufficientApproval",
      "type": "error"
    },
    {
      "inputs": [
        {
          "internalType": "address",
          "name": "approver",
          "type": "address"
        }
      ],
      "name": "ERC721InvalidApprover",
      "type": "error"
    },
    {
      "inputs": [
        {
          "internalType": "address",
          "name": "operator",
          "type": "address"
        }
      ],
      "name": "ERC721InvalidOperator",
      "type": "error"
    },
    {
      "inputs": [
        {
          "internalType": "address",
          "name": "owner",
          "type": "address"
        }
      ],
      "name": "ERC721InvalidOwner",
      "type": "error"
    },
    {
      "inputs": [
        {
          "internalType": "address",
          "name": "receiver",
          "type": "address"
        }
      ],
      "name": "ERC721InvalidReceiver",
      "type": "error"
    },
    {
      "inputs": [
        {
          "internalType": "address",
          "name": "sender",
          "type": "address"
        }
      ],
      "name": "ERC721InvalidSender",
      "type": "error"
    },
    {
      "inputs": [
        {
          "internalType": "uint256",
          "name": "tokenId",
          "type": "uint256"
        }
      ],
      "name": "ERC721NonexistentToken",
      "type": "error"
    },
    {
      "inputs": [
        {
          "internalType": "uint8",
          "name": "position",
          "type": "uint8"
        }
      ],
      "name": "InvalidPosition",
      "type": "error"
    },
    {
      "inputs": [
        {
          "internalType": "address",
          "name": "owner",
          "type": "address"
        }
      ],
      "name": "OwnableInvalidOwner",
      "type": "error"
    },
    {
      "inputs": [
        {
          "internalType": "address",
          "name": "account",
          "type": "address"
        }
      ],
      "name": "OwnableUnauthorizedAccount",
      "type": "error"
    },
    {
      "inputs": [
        {
          "internalType": "uint256",
          "name": "tokenId",
          "type": "uint256"
        }
      ],
      "name": "ShipNotMinted",
      "type": "error"
    },
    {
      "anonymous": false,
      "inputs": [
        {
          "indexed": true,
          "internalType": "address",
          "name": "owner",
          "type": "address"
        },
        {
          "indexed": true,
          "internalType": "address",
          "name": "approved",
          "type": "address"
        },
        {
          "indexed": true,
          "internalType": "uint256",
          "name": "tokenId",
          "type": "uint256"
        }
      ],
      "name": "Approval",
      "type": "event"
    },
    {
      "anonymous": false,
      "inputs": [
        {
          "indexed": true,
          "internalType": "address",
          "name": "owner",
          "type": "address"
        },
        {
          "indexed": true,
          "internalType": "address",
          "name": "operator",
          "type": "address"
        },
        {
          "indexed": false,
          "internalType": "bool",
          "name": "approved",
          "type": "bool"
        }
      ],
      "name": "ApprovalForAll",
      "type": "event"
    },
    {
      "anonymous": false,
      "inputs": [
        {
          "indexed": true,
          "internalType": "address",
          "name": "owner",
          "type": "address"
        },
        {
          "indexed": true,
          "internalType": "uint256",
          "name": "id",
          "type": "uint256"
        },
        {
          "indexed": false,
          "internalType": "string",
          "name": "tokenURI",
          "type": "string"
        }
      ],
      "name": "Mint",
      "type": "event"
    },
    {
      "anonymous": false,
      "inputs": [
        {
          "indexed": true,
          "internalType": "address",
          "name": "previousOwner",
          "type": "address"
        },
        {
          "indexed": true,
          "internalType": "address",
          "name": "newOwner",
          "type": "address"
        }
      ],
      "name": "OwnershipTransferred",
      "type": "event"
    },
    {
      "anonymous": false,
      "inputs": [
        {
          "indexed": true,
          "internalType": "address",
          "name": "from",
          "type": "address"
        },
        {
          "indexed": true,
          "internalType": "address",
          "name": "to",
          "type": "address"
        },
        {
          "indexed": true,
          "internalType": "uint256",
          "name": "tokenId",
          "type": "uint256"
        }
      ],
      "name": "Transfer",
      "type": "event"
    },
    {
      "stateMutability": "nonpayable",
      "type": "fallback"
    },
    {
      "inputs": [
        {
          "internalType": "address",
          "name": "to",
          "type": "address"
        },
        {
          "internalType": "uint256",
          "name": "tokenId",
          "type": "uint256"
        }
      ],
      "name": "approve",
      "outputs": [],
      "stateMutability": "nonpayable",
      "type": "function"
    },
    {
      "inputs": [
        {
          "internalType": "address",
          "name": "owner",
          "type": "address"
        }
      ],
      "name": "balanceOf",
      "outputs": [
        {
          "internalType": "uint256",
          "name": "",
          "type": "uint256"
        }
      ],
      "stateMutability": "view",
      "type": "function"
    },
    {
      "inputs": [
        {
          "internalType": "uint256",
          "name": "tokenId",
          "type": "uint256"
        }
      ],
      "name": "burn",
      "outputs": [],
      "stateMutability": "nonpayable",
      "type": "function"
    },
    {
      "inputs": [
        {
          "internalType": "uint256",
          "name": "tokenId",
          "type": "uint256"
        }
      ],
      "name": "getApproved",
      "outputs": [
        {
          "internalType": "address",
          "name": "",
          "type": "address"
        }
      ],
      "stateMutability": "view",
      "type": "function"
    },
    {
      "inputs": [
        {
          "internalType": "uint256",
          "name": "tokenId",
          "type": "uint256"
        }
      ],
      "name": "getImage",
      "outputs": [
        {
          "internalType": "string",
          "name": "",
          "type": "string"
        }
      ],
      "stateMutability": "view",
      "type": "function"
    },
    {
      "inputs": [
        {
          "internalType": "uint256",
          "name": "tokenId",
          "type": "uint256"
        }
      ],
      "name": "getRange",
      "outputs": [
        {
          "internalType": "uint8",
          "name": "",
          "type": "uint8"
        }
      ],
      "stateMutability": "view",
      "type": "function"
    },
    {
      "inputs": [
        {
          "internalType": "uint256",
          "name": "tokenId",
          "type": "uint256"
        }
      ],
      "name": "getShipTypeName",
      "outputs": [
        {
          "internalType": "string",
          "name": "",
          "type": "string"
        }
      ],
      "stateMutability": "view",
      "type": "function"
    },
    {
      "inputs": [
        {
          "internalType": "uint256",
          "name": "tokenId",
          "type": "uint256"
        }
      ],
      "name": "getShootingRange",
      "outputs": [
        {
          "internalType": "uint8",
          "name": "",
          "type": "uint8"
        }
      ],
      "stateMutability": "view",
      "type": "function"
    },
    {
      "inputs": [
        {
          "internalType": "address",
          "name": "owner",
          "type": "address"
        },
        {
          "internalType": "address",
          "name": "operator",
          "type": "address"
        }
      ],
      "name": "isApprovedForAll",
      "outputs": [
        {
          "internalType": "bool",
          "name": "",
          "type": "bool"
        }
      ],
      "stateMutability": "view",
      "type": "function"
    },
    {
      "inputs": [],
      "name": "name",
      "outputs": [
        {
          "internalType": "string",
          "name": "",
          "type": "string"
        }
      ],
      "stateMutability": "view",
      "type": "function"
    },
    {
      "inputs": [],
      "name": "owner",
      "outputs": [
        {
          "internalType": "address",
          "name": "",
          "type": "address"
        }
      ],
      "stateMutability": "view",
      "type": "function"
    },
    {
      "inputs": [
        {
          "internalType": "uint256",
          "name": "tokenId",
          "type": "uint256"
        }
      ],
      "name": "ownerOf",
      "outputs": [
        {
          "internalType": "address",
          "name": "",
          "type": "address"
        }
      ],
      "stateMutability": "view",
      "type": "function"
    },
    {
      "inputs": [],
      "name": "renounceOwnership",
      "outputs": [],
      "stateMutability": "nonpayable",
      "type": "function"
    },
    {
      "inputs": [
        {
          "internalType": "address",
          "name": "to",
          "type": "address"
        }
      ],
      "name": "safeMint",
      "outputs": [],
      "stateMutability": "nonpayable",
      "type": "function"
    },
    {
      "inputs": [
        {
          "internalType": "address",
          "name": "from",
          "type": "address"
        },
        {
          "internalType": "address",
          "name": "to",
          "type": "address"
        },
        {
          "internalType": "uint256",
          "name": "tokenId",
          "type": "uint256"
        }
      ],
      "name": "safeTransferFrom",
      "outputs": [],
      "stateMutability": "nonpayable",
      "type": "function"
    },
    {
      "inputs": [
        {
          "internalType": "address",
          "name": "from",
          "type": "address"
        },
        {
          "internalType": "address",
          "name": "to",
          "type": "address"
        },
        {
          "internalType": "uint256",
          "name": "tokenId",
          "type": "uint256"
        },
        {
          "internalType": "bytes",
          "name": "data",
          "type": "bytes"
        }
      ],
      "name": "safeTransferFrom",
      "outputs": [],
      "stateMutability": "nonpayable",
      "type": "function"
    },
    {
      "inputs": [
        {
          "internalType": "address",
          "name": "operator",
          "type": "address"
        },
        {
          "internalType": "bool",
          "name": "approved",
          "type": "bool"
        }
      ],
      "name": "setApprovalForAll",
      "outputs": [],
      "stateMutability": "nonpayable",
      "type": "function"
    },
    {
      "inputs": [
        {
          "internalType": "bytes4",
          "name": "interfaceId",
          "type": "bytes4"
        }
      ],
      "name": "supportsInterface",
      "outputs": [
        {
          "internalType": "bool",
          "name": "",
          "type": "bool"
        }
      ],
      "stateMutability": "view",
      "type": "function"
    },
    {
      "inputs": [],
      "name": "symbol",
      "outputs": [
        {
          "internalType": "string",
          "name": "",
          "type": "string"
        }
      ],
      "stateMutability": "view",
      "type": "function"
    },
    {
      "inputs": [
        {
          "internalType": "uint256",
          "name": "tokenId",
          "type": "uint256"
        }
      ],
      "name": "tokenURI",
      "outputs": [
        {
          "internalType": "string",
          "name": "",
          "type": "string"
        }
      ],
      "stateMutability": "view",
      "type": "function"
    },
    {
      "inputs": [
        {
          "internalType": "address",
          "name": "from",
          "type": "address"
        },
        {
          "internalType": "address",
          "name": "to",
          "type": "address"
        },
        {
          "internalType": "uint256",
          "name": "tokenId",
          "type": "uint256"
        }
      ],
      "name": "transferFrom",
      "outputs": [],
      "stateMutability": "nonpayable",
      "type": "function"
    },
    {
      "inputs": [
        {
          "internalType": "address",
          "name": "newOwner",
          "type": "address"
        }
      ],
      "name": "transferOwnership",
      "outputs": [],
      "stateMutability": "nonpayable",
      "type": "function"
    }
  ],
  "bytecode": "0x6080346200055a57620050f89081380390601f19601f818185011683019460018060401b0394848710868811176200055f57808592604098895283396020948591810103126200055a57516001600160a01b039390848116908190036200055a576200006a62000575565b95600987526850756e6b736869707360b81b838801526200008a62000575565b9360049485815263504e4b5360e01b85820152885196838811620005455760009788549a60019b8c81811c911680156200053a575b898210146200052757908186849311620004f7575b5088908683116001146200048d578b9262000481575b5050600019600383901b1c1916908b1b1788555b81519384116200046e5789548a81811c9116801562000463575b878210146200045057908184869594931162000415575b5086928411600114620003b457508792620003a8575b5050600019600383901b1c191690871b1786555b80156200039157600680546001600160a01b03198116831790915585167f8be0079c531659141344cd1fd0a4f28419497f9722a3daafe3b4186f6b6457e08580a3620001a462000575565b71c00000008000000000000000000000000000815271fe000000fc000000f8000000f0000000e00082820152838052600882528684209086855b60028110620003755750505050620001f562000575565b72d9f3e00059f3c00019f3800001f000000000008152730fd9f3800fd9f3c007d9f3e003d9f3f001d9f3f082820152858452600882528684209086855b600281106200036057505050506200024962000575565b9373010f3cfc000f3cfc000f3cf8000f3cf000003c008552733f0f3ce01f0f3cf00f0f3cfc070f3cfc030f3cfc82860152600294858552600883528785209087865b8881106200034b5750505050620002a162000575565b72339cfe00339cfc00339cf800039cf000039ce08152737c339ce03c339cf01c339cf80c339cfc04339cfe83820152600385526008835287852087865b88811062000336575050505050620002f562000575565b91838352838284015283526008815285832091925b84811062000321578651614b499081620005af8239f35b835160ff16838201559281019285016200030a565b858585511694019381840155018890620002de565b8585845116930192818501550188906200028b565b84888451169301928185015501879062000232565b82516001600160901b03168482015591840191889101620001de565b8651631e4fbdf760e01b8152808401859052602490fd5b01519050388062000145565b8a89528689208b959093929116895b88828210620003fe5750508411620003e4575b505050811b01865562000159565b015160001960f88460031b161c19169055388080620003d6565b8385015186558d97909501949384019301620003c3565b6200043f908c8b52888b208580880160051c8201928b891062000446575b0160051c019062000595565b386200012f565b9250819262000433565b634e487b7160e01b895260228852602489fd5b90607f169062000118565b634e487b7160e01b885260418752602488fd5b015190503880620000ea565b90848e9416918c80528a8d20928d5b8c828210620004d75750508411620004bd575b505050811b018855620000fe565b015160001960f88460031b161c19169055388080620004af565b91929395968291958786015181550195019301908f95949392916200049c565b62000520908c80528a8d208880860160051c8201928d871062000446570160051c019062000595565b38620000d4565b634e487b7160e01b8b5260228a5260248bfd5b90607f1690620000bf565b604187634e487b7160e01b6000525260246000fd5b600080fd5b634e487b7160e01b600052604160045260246000fd5b60408051919082016001600160401b038111838210176200055f57604052565b818110620005a1575050565b600081556001016200059556fe6105606040818152600480361015610021575b5050503461001c57005b600080fd5b600092833560e01c90816301ffc9a714610cf55750806306fdde0314610c2a578063081812fc14610bef578063095ea7b314610b1357806323b872dd14610afb5780632607aafa14610aad57806340d097c3146107ea57806342842e0e146107bb57806342966c681461066a5780634490e0f31461062c5780636352211e146105fb57806370a08231146105a6578063715018a6146105495780638da5cb5b1461052057806395d89b411461040a578063a22cb46514610369578063b88d4fde146102d6578063c87b56dd1461029b578063c8ab9d1a1461025c578063cc364f4814610200578063e985e9c5146101ae5763f2fde38b0361001257346101aa5760203660031901126101aa57610135610da9565b9061013e610ec8565b6001600160a01b03918216928315610194575050600654826bffffffffffffffffffffffff60a01b821617600655167f8be0079c531659141344cd1fd0a4f28419497f9722a3daafe3b4186f6b6457e08380a380f35b51631e4fbdf760e01b8152908101849052602490fd5b8280fd5b5050346101fc57806003193601126101fc5760ff816020936101ce610da9565b6101d6610dbf565b6001600160a01b0391821683526005875283832091168252855220549151911615158152f35b5080fd5b508290346101fc5760203660031901126101fc578035808352600260205291839020546001600160a01b0316156102475760208360ff61023f85614665565b915191168152f35b91516361ca35d160e01b815291820152602490fd5b508290346101fc5760203660031901126101fc578035808352600260205291839020546001600160a01b0316156102475760208360ff61023f856146d6565b5091346102d35760203660031901126102d357506102bc6102cf9235614814565b9051918291602083526020830190610d84565b0390f35b80fd5b5090346101aa5760803660031901126101aa576102f1610da9565b6102f9610dbf565b6044359185606435956001600160401b0387116101fc57366023880112156101fc578601359561033461032b88610ead565b96519687610e8c565b86865236602488830101116101fc5786610366976024602093018389013786010152610361838383610ef4565b6110ce565b80f35b5090346101aa57806003193601126101aa57610383610da9565b9060243591821515809303610406576001600160a01b03169283156103f15750338452600560205280842083855260205280842060ff1981541660ff8416179055519081527f17307eab39ab6107e8899845ad3d59bd9653f200f220920489ca2b5937696c3160203392a380f35b836024925191630b61174360e31b8352820152fd5b8480fd5b5091346102d357806003193601126102d3578151918160019283549384811c91818616958615610516575b6020968785108114610503578899509688969785829a5291826000146104dc575050600114610481575b5050506102cf9291610472910385610e8c565b51928284938452830190610d84565b91908693508083527fb10e2d527612073b26eecdfd717e6a320cf44b4afac2b0732d9fcbe2b7fa0cf65b8284106104c457505050820101816104726102cf61045f565b8054848a0186015288955087949093019281016104ab565b60ff19168782015293151560051b8601909301935084925061047291506102cf905061045f565b634e487b7160e01b835260228a52602483fd5b92607f1692610435565b5050346101fc57816003193601126101fc5760065490516001600160a01b039091168152602090f35b83346102d357806003193601126102d357610562610ec8565b600680546001600160a01b0319811690915581906001600160a01b03167f8be0079c531659141344cd1fd0a4f28419497f9722a3daafe3b4186f6b6457e08280a380f35b5091346102d35760203660031901126102d3576001600160a01b036105c9610da9565b169283156105e65750806020938392526003845220549051908152f35b91516322718ad960e21b815291820152602490fd5b5091346102d35760203660031901126102d3575061061b60209235611093565b90516001600160a01b039091168152f35b508290346101fc5760203660031901126101fc578035808352600260205291839020546001600160a01b031615610247576102cf836102bc8461473f565b508290346101fc57602090816003193601126101aa578035808452600283528484205490926001600160a01b039182169290913315159081610726575b5050509360028495839594956106f3575b85855252822080546001600160a01b03191690557fddf252ad1be2c89b69c2b068fc378daa952ba7f163c4a11628f55a4df523b3ef8280a480f35b600086815260046020526040902080546001600160a01b03191690558385526003815282852080546000190190556106b8565b8161076f575b50156107395780806106a7565b935050610754576024925191637e27328960e01b8352820152fd5b604492519163177e802f60e01b835233908301526024820152fd5b3385149150811561079e575b8115610789575b508761072c565b85875282845287872054163314905087610782565b8487526005845287872033885284528787205460ff16915061077b565b5050346101fc57610366906107cf36610dd5565b919251926107dc84610e56565b858452610361838383610ef4565b5090346101aa5760209081600319360112610aa957610807610da9565b600754936000199391848614610a96576001860160075583519061082a82610e56565b8782526001600160a01b0381811696908715610a7f57878991828c5260028852888c2054168015159384610a4d575b50818c5260038852888c2080546001019055828c5260028852888c2080546001600160a01b031916831790557fddf252ad1be2c89b69c2b068fc378daa952ba7f163c4a11628f55a4df523b3ef8c80a4610a36573b6108fa575b5050907f85a66b9141978db9980f7e0ce3b468cebf4f7999f32b23091c5c03e798b1ba7a916108f46108e486614814565b9251928284938452830190610d84565b0390a380f35b8396929695919551878180610936630a85bd0160e11b95868352338c840152886024840152876044840152608060648401526084830190610d84565b0381878a5af18491816109f6575b506109a2575050503d60001461099a573d61095e81610ead565b9061096b84519283610e8c565b81528091863d92013e5b8051948561099457505051633250574960e11b81529182015260249150fd5b85925001fd5b506060610975565b9296919591926001600160e01b031916036109df57507f85a66b9141978db9980f7e0ce3b468cebf4f7999f32b23091c5c03e798b1ba7a386108b3565b8251633250574960e11b8152908101849052602490fd5b9091508881813d8311610a2f575b610a0e8183610e8c565b8101031261040657516001600160e01b031981168103610406579038610944565b503d610a04565b84516339e3563760e11b8152808401899052602490fd5b600084815260046020526040902080546001600160a01b0319169055818d5260038952898d2090815401905538610859565b8651633250574960e11b81528086018b9052602490fd5b634e487b7160e01b875260118252602487fd5b8380fd5b508290346101fc5760203660031901126101fc578035808352600260205291839020546001600160a01b031615610247576102cf836102bc610af6610af1866113f6565b61129a565b611212565b83346102d357610366610b0d36610dd5565b91610ef4565b5090346101aa57806003193601126101aa57610b2d610da9565b91602435610b3a81611093565b33151580610bdc575b80610bb3575b610b9d576001600160a01b039485169482918691167f8c5be1e5ebec7d5bd14f71427d1e84f3dd0314c0f7b2291e5b200ac8c7c3b9258880a48452602052822080546001600160a01b031916909117905580f35b835163a9fbf51f60e01b81523381850152602490fd5b506001600160a01b03811686526005602090815284872033885290528386205460ff1615610b49565b506001600160a01b038116331415610b43565b50346101aa5760203660031901126101aa57918260209335610c1081611093565b50825283528190205490516001600160a01b039091168152f35b5091346102d357806003193601126102d35781519181825492600184811c91818616958615610ceb575b6020968785108114610503578899509688969785829a5291826000146104dc575050600114610c90575050506102cf9291610472910385610e8c565b91908693508280527f290decd9548b62a8d60345a988386fc84ba6bc95484008f6362f93160ef3e5635b828410610cd357505050820101816104726102cf61045f565b8054848a018601528895508794909301928101610cba565b92607f1692610c54565b925050346101aa5760203660031901126101aa573563ffffffff60e01b81168091036101aa57602092506380ac58cd60e01b8114908115610d50575b8115610d3f575b5015158152f35b6301ffc9a760e01b14905038610d38565b635b5e139f60e01b81149150610d31565b60005b838110610d745750506000910152565b8181015183820152602001610d64565b90602091610d9d81518092818552858086019101610d61565b601f01601f1916010190565b600435906001600160a01b038216820361001c57565b602435906001600160a01b038216820361001c57565b606090600319011261001c576001600160a01b0390600435828116810361001c5791602435908116810361001c579060443590565b606081019081106001600160401b03821117610e2557604052565b634e487b7160e01b600052604160045260246000fd5b60a081019081106001600160401b03821117610e2557604052565b602081019081106001600160401b03821117610e2557604052565b604081019081106001600160401b03821117610e2557604052565b90601f801991011681019081106001600160401b03821117610e2557604052565b6001600160401b038111610e2557601f01601f191660200190565b6006546001600160a01b03163303610edc57565b60405163118cdaa760e01b8152336004820152602490fd5b6001600160a01b03918216929091831561107a57600092828452826020956002875260409684888820541696879133151580610fe4575b509060027fddf252ad1be2c89b69c2b068fc378daa952ba7f163c4a11628f55a4df523b3ef9284610fb1575b858352600381528b8320805460010190558683525289812080546001600160a01b0319168517905580a41692838303610f905750505050565b6064945051926364283d7b60e01b8452600484015260248301526044820152fd5b600087815260046020526040902080546001600160a01b0319169055848352600381528b83208054600019019055610f57565b91939450915080611039575b1561100057859291879138610f2b565b87868861101d576024915190637e27328960e01b82526004820152fd5b604491519063177e802f60e01b82523360048301526024820152fd5b50338714801561105e575b80610ff05750858252600481523385898420541614610ff0565b5086825260058152878220338352815260ff8883205416611044565b604051633250574960e11b815260006004820152602490fd5b6000818152600260205260409020546001600160a01b03169081156110b6575090565b60249060405190637e27328960e01b82526004820152fd5b813b6110db575b50505050565b604051630a85bd0160e11b8082523360048301526001600160a01b03928316602483015260448201949094526080606482015260209592909116939092908390611129906084830190610d84565b039285816000958187895af18491816111d2575b5061119d575050503d600014611195573d61115781610ead565b906111656040519283610e8c565b81528091843d92013e5b8051928361119057604051633250574960e11b815260048101849052602490fd5b019050fd5b50606061116f565b919450915063ffffffff60e01b16036111ba5750388080806110d5565b60249060405190633250574960e11b82526004820152fd5b9091508681813d831161120b575b6111ea8183610e8c565b8101031261040657516001600160e01b03198116810361040657903861113d565b503d6111e0565b90611266603a60405180947f646174613a696d6167652f7376672b786d6c3b6261736536342c00000000000060208301526112568151809260208686019101610d61565b810103601a810185520183610e8c565b565b9061127282610ead565b61127f6040519182610e8c565b8281528092611290601f1991610ead565b0190602036910137565b8051156113e2576040516112ad81610e0a565b604081527f4142434445464748494a4b4c4d4e4f505152535455565758595a61626364656660208201527f6768696a6b6c6d6e6f707172737475767778797a303132333435363738392b2f604082015281516002928382018092116113cc576003918290046001600160fe1b03811681036113cc5761132f908594951b611268565b936020850193829183518401925b83811061137b57505050505106806001146113685760021461135d575090565b603d90600019015390565b50603d9081600019820153600119015390565b85600491979293949701918251600190603f9082828260121c16880101518453828282600c1c16880101518385015382828260061c168801015188850153168501015187820153019592919061133d565b634e487b7160e01b600052601160045260246000fd5b506040516113ef81610e56565b6000815290565b9061141b60405160208101908482526020815261141281610e71565b51902092614720565b91600881901c6001161561448557600160c0525b60006040805161143e81610e0a565b82815282602082015201526114596040518061022052610e0a565b60ff8160101c16610220515260ff8160181c16602061022051015260ff8160201c16604061022051015260006040805161149281610e0a565b8281528260208201520152604051906114aa82610e0a565b60ff8160281c16825260ff8160301c16602083015260ff8160381c1660408301526000604080516114da81610e0a565b82815282602082015201526114f56040518061044052610e0a565b60ff8160401c16610440515260ff8160481c16602061044051015260ff8160501c16604061044051015260006040805161152e81610e0a565b8281528260208201520152611549604051806101a052610e0a565b60ff8160581c166101a0515260ff8160601c1660206101a051015260ff8160681c1660406101a051015260006040805161158281610e0a565b828152826020820152015261159d6040518061046052610e0a565b60ff8160701c16610460515260ff8160781c16602061046051015260ff8160801c1660406104605101526000604080516115d681610e0a565b82815282602082015201526115f16040518061028052610e0a565b60ff8160881c16610280515260ff8160901c16602061028051015260ff8160981c16604061028051015260006040805161162a81610e0a565b82815282602082015201526116456040518061048052610e0a565b60ff8160a01c16610480515260ff8160a81c16602061048051015260ff8160b01c16604061048051015260006040805161167e81610e0a565b8281528260208201520152611699604051806104e052610e0a565b60ff8160b81c166104e0515260ff8160c01c1660206104e051015260ff8160c81c1660406104e05101526000604080516116d281610e0a565b82815282602082015201526116ed604051806102e052610e0a565b60ff8160d01c166102e0515260ff8160d81c1660206102e051015260ff8160e01c1660406102e051015260006040805161172681610e0a565b82815282602082015201526117416040518061010052610e0a565b60ff8160e81c16610100515260ff8160f01c1660206101005101528060f81c60406101005101526117786040518061018052610e0a565b6002610180515260403660206101805101376117938461462c565b5481166117a2610180516145e5565b5260405160208101918252602081526117ba81610e71565b51902060016117c88561462c565b0154166117d761018051614608565b52604051806102a052806128208101106001600160401b0361282083011117610e2557806128206101409201604052526128003660206102a051013760005b60ff811660a081101561185a57611844611832610180516145e5565b516001831b161515916102a051614618565b5260ff808216146113cc5760ff16600101611816565b5050919060005b60a061ffff821610156118bf5761187a61018051614608565b5190816103805261ffff60a081831601116113cc576118ba91600161ffff83161b1615156118b461ffff60a081851601166102a051614618565b526145d2565b611861565b509091604051806102c0526118d390610e3b565b6102c051606590526102c0516020017f3c3f786d6c2076657273696f6e3d22312e3022203f3e3c73766720786d6c6e7390526102c0516040017f3d22687474703a2f2f7777772e77332e6f72672f323030302f7376672220776990526102c0516060017f6474683d2233323022206865696768743d22323430222076657273696f6e3d22905264189718911f60d91b6102c05160800152610460515160ff1661197b9061448f565b61034052610460516020015160ff166119939061448f565b61012052610460516040015160ff166119ab9061448f565b6101c052610280515160ff166119c09061448f565b610280516020015160ff166119d49061448f565b91610280516040015160ff166119e99061448f565b610460515160ff166119fa9061448f565b610460516020015160ff16611a0e9061448f565b610460516040015160ff16611a229061448f565b610280515160ff16611a339061448f565b610280516020015160ff16611a479061448f565b90610280516040015160ff16611a5c9061448f565b92610220515160ff16611a6e9061448f565b94610220516020015160ff16611a839061448f565b96610220516040015160ff16611a989061448f565b988a5160ff16611aa79061448f565b9a602081015160ff16611ab99061448f565b60a0526040015160ff16611acc9061448f565b61032052610440515160ff16611ae19061448f565b61024052610440516020015160ff16611af99061448f565b6103a052610440516040015160ff16611b119061448f565b60e0526101a0515160ff16611b259061448f565b610500526101a0516020015160ff16611b3d9061448f565b6104a0526101a0516040015160ff16611b559061448f565b61054052610480515160ff16611b6a9061448f565b6104c052610480516020015160ff16611b829061448f565b61026052610480516040015160ff16611b9a9061448f565b610400526104e0515160ff16611baf9061448f565b610360526104e0516020015160ff16611bc79061448f565b6080526104e0516040015160ff16611bde9061448f565b6103e0526102e0515160ff16611bf39061448f565b6103c0526102e0516020015160ff16611c0b9061448f565b610140526102e0516040015160ff16611c239061448f565b6101e052610100515160ff16611c389061448f565b61016052610100516020015160ff16611c509061448f565b61052052610100516040015160ff16611c689061448f565b6103005260006102005260c0516000149c6102749c61250f9e61446257604051611c9181610e71565b60018152603160f81b6020820152610200525b651e3232b3399f60d11b6020604051806104205201527f3c7374796c6520747970653d22746578742f637373223e00000000000000000060266104205101527f2e7361696c546f70207b2073746f702d636f6c6f723a20726762280000000000603d61042051015261034051611d27815180926020605861042051019101610d61565b600b60fa1b605882610420510101526101205190611d548251809360206059856104205101019101610d61565b610420510101600b60fa1b60598201526101c05190611d7d825180936020605a85019101610d61565b63293b207d60e01b605a83830101527f2e7361696c426f74746f6d207b2073746f702d636f6c6f723a20726762280000605e8383010152611dca835180946020607c868601019101610d61565b0101600b60fa1b607c820152611dea825180936020607d85019101610d61565b01600b60fa1b607d820152611e09825180936020607e85019101610d61565b0163293b207d60e01b607e8201527f2e626f6479436f6c6f7231207b2066696c6c3a207267622800000000000000006082820152611e51825180936020609a85019101610d61565b01600b60fa1b609a820152611e70825180936020609b85019101610d61565b01600b60fa1b609b820152611e8f825180936020609c85019101610d61565b0163293b207d60e01b609c8201527f2e626f6479436f6c6f7232207b2066696c6c3a2072676228000000000000000060a0820152611ed782518093602060b885019101610d61565b01600b60fa1b60b8820152611ef682518093602060b985019101610d61565b01600b60fa1b60b9820152611f1582518093602060ba85019101610d61565b0163293b207d60e01b60ba8201527105cd0ead8d840f640ccd2d8d87440e4cec4560731b60be820152611f5282518093602060d085019101610d61565b01600b60fa1b60d0820152611f7182518093602060d185019101610d61565b01600b60fa1b60d1820152611f9082518093602060d285019101610d61565b0163293b207d60e01b60d28201527f2e77696e646f774c696e65207b2066696c6c3a2072676228000000000000000060d6820152611fd882518093602060ee85019101610d61565b01600b60fa1b60ee82015260a05190611ffb82518093602060ef85019101610d61565b01600b60fa1b60ef820152610320519061201f82518093602060f085019101610d61565b0163293b207d60e01b60f08201527305ceed2dcc8deee40f640ccd2d8d87440e4cec4560631b60f4820152600b60fa1b610240519182519061206b826101089560208785019101610d61565b0191820152600b60fa1b6103a05191825190612091826101099560208785019101610d61565b019182015263293b207d60e01b60e051918251906120b98261010a9560208785019101610d61565b01918201527405cdac2e6e8e640f640e6e8e4ded6ca7440e4cec45605b1b61010e820152600b60fa1b61050051918251906120fe826101239560208785019101610d61565b0191820152600b60fa1b6104a05191825190612124826101249560208785019101610d61565b019182015263293b207d60e01b610540519182519061214d826101259560208785019101610d61565b01918201527405cccd8c2cee640f640e6e8e4ded6ca7440e4cec45605b1b610129820152600b60fa1b6104c051918251906121928261013e9560208785019101610d61565b0191820152600b60fa1b61026051918251906121b88261013f9560208785019101610d61565b019182015261040051906121d782518093602061014085019101610d61565b0163293b207d60e01b6101408201527405ce6d2cedccae86240f640ccd2d8d87440e4cec45605b1b610144820152600b60fa1b6103605191825190612226826101599560208785019101610d61565b0191820152600b60fa1b6080519182519061224b8261015a9560208785019101610d61565b019182015263293b207d60e01b6103e051918251906122748261015b9560208785019101610d61565b01918201527405ce6d2cedccae86440f640ccd2d8d87440e4cec45605b1b61015f820152600b60fa1b6103c051918251906122b9826101749560208785019101610d61565b0191820152600b60fa1b61014051918251906122df826101759560208785019101610d61565b019182015263293b207d60e01b6101e05191825190612308826101769560208785019101610d61565b01918201527405ce6d2cedccae86640f640ccd2d8d87440e4cec45605b1b61017a820152600b60fa1b610160519182519061234d8261018f9560208785019101610d61565b0191820152600b60fa1b6105205191825190612373826101909560208785019101610d61565b019182015263293b207d60e01b610300519182519061239c826101919560208785019101610d61565b01918201527f2e666c616773426f72646572207b206f7061636974793a000000000000000000610195820152623b207d60e81b61020051918251906123eb826101ac9560208785019101610d61565b0191820152752e626f72646572207b2066696c6c3a2023666666207d60501b6101af820152671e17b9ba3cb6329f60c11b6101c58201527f3c6c696e6561724772616469656e742069643d227361696c4772616469656e746101cd8201527f22206772616469656e745472616e73666f726d3d22726f7461746528393029226101ed8201527f3e203c73746f70206f66667365743d223525222020636c6173733d227361696c61020d8201527f546f70222f3e203c73746f70206f66667365743d223935252220636c6173733d61022d8201527f227361696c426f74746f6d222f3e203c2f6c696e6561724772616469656e743e61024d820152661e17b232b3399f60c91b61026d8201526104205180910390610254820190520161042051610e8c565b600582101561444c578161443657604051806102e08101106001600160401b036102e083011117610e25576102e081016040526102a58152600080516020614af48339815191526020820152600080516020614ad483398151915260408201527f3d224d3620313520683220762d3220683120762d3120683120762d312068312060608201527f762d3120683120762d3120683120762d3120683120762d3120683120762d312060808201527f683320763920683820763320682d3120763120682d3120763120682d3120763160a08201527f20682d313420762d3120682d3220762d3220682d31207a22202f3e203c67206360c08201527f6c6173733d22666c616773426f72646572223e203c7061746820643d224d313360e08201527f203520683520763320682d357a22202f3e203c2f673e203c2f673e203c673e206101008201527f3c706174682069643d2268756c6c2220643d224d3720313620682031382076316101208201527f20682d3120763120682d3120763120682d3120763120682d313220762d3120686101408201527f2d3220762d322020682d3120207a2220636c6173733d2268756c6c22202f3e206101608201527f3c706174682069643d2277696e646f774c696e652220643d224d3720313620686101808201527f313820763120682d3138207a2220636c6173733d2277696e646f772d6c696e656101a08201527f22202f3e203c2f673e203c672069643d226d617374732220636c6173733d226d6101c08201527f61737473223e203c7061746820643d224d31362e35203720763922202f3e203c6101e08201527f2f673e203c672069643d22666c6167732220636c6173733d22666c61677320666102008201527f6c616773426f72646572223e203c7061746820643d224d313420362e352068336102208201527f22202f3e203c2f673e203c672069643d227361696c73222066696c6c3d2275726102408201527f6c28237361696c4772616469656e7429223e203c7061746820643d224d3920316102608201527f3520762d3120683120762d3120683120762d3120683120762d3120683120762d6102808201527f3120683120762d3120683120762d31206831207637207a22202f3e203c2f673e6102a082015264101e17b39f60d91b6102c0820152915b6001810361442057604051806104e08101106001600160401b036104e083011117610e25576104e081016040526104be8152600080516020614af48339815191526020820152600080516020614ad483398151915260408201527f3d224d33203920683120762d3120683120762d3120683120762d31206833207660608201527f2d3120683720762d3120683320763220683120762d312068332076322068312060808201527f763120683120763120683120763120683120763120683120763120683120763660a08201527f20682d3220763120682d3120763120682d3120763120682d3120763120682d3160c08201527f3720762d3420682d3220762d3420682d3120762d3120682d31207a222f3e203c60e08201527f6720636c6173733d22666c616773426f72646572223e203c7061746820643d226101008201527f4d37203420683520763320682d357a22202f3e203c7061746820643d224d31346101208201527f203320683520763320682d357a22202f3e203c7061746820643d224d313920346101408201527f20683420763320682d347a22202f3e203c2f673e203c2f673e203c673e203c706101608201527f6174682069643d2268756c6c2220643d224d36203136206820323220763120686101808201527f2d3220763120682d3120763120682d3120763120682d3120763120682d3135206101a08201527f762d3120683120762d3120683120762d3120682d3220762d3120682d32207a226101c08201527f20636c6173733d2268756c6c22202f3e203c706174682069643d2277696e646f6101e08201527f772d6c696e652220643d224d31302031382068313520763120682d3135207a226102008201527f20636c6173733d2277696e646f774c696e65222f3e203c672069643d2277696e6102208201527f646f77732220636c6173733d2277696e646f77223e203c706174682069643d226102408201527f77696e646f772d312220643d224d313220313820683120763120682d31207a226102608201527f202f3e203c706174682069643d2277696e646f772d312220643d224d313220316102808201527f3820683120763120682d31207a22202f3e203c706174682069643d2277696e646102a08201527f6f772d322220643d224d313220313820683120763120682d31207a22202f3e206102c08201527f3c2f673e203c2f673e203c672069643d226d617374732220636c6173733d226d6102e08201527f61737473223e203c7061746820643d224d31302e3520362076313022202f3e206103008201527f3c7061746820643d224d31372e3520352076313122202f3e203c7061746820646103208201527f3d224d32312e3520362076313022202f3e203c2f673e203c672069643d22666c6103408201527f6167732220636c6173733d22666c61677320666c616773426f72646572223e206103608201527f3c7061746820643d224d3820352e3520683322202f3e203c7061746820643d226103808201527f4d313520342e3520683322202f3e203c7061746820643d224d323020352e35206103a08201527f683222202f3e203c2f673e203c672069643d227361696c73222066696c6c3d226103c08201527f75726c28237361696c4772616469656e7429223e203c7265637420783d2231326103e08201527f2220793d2236222077696474683d223522206865696768743d223922202f3e206104008201527f3c7265637420783d2231392220793d2237222077696474683d223222206865696104208201527f6768743d223822202f3e203c7061746820643d224d37203720683320763820686104408201527f2d3320762d3120682d3120762d3120682d3120762d3120682d312020762d32206104608201527f683120762d3120683120762d31206831207a222f3e203c7061746820643d22206104808201527f4d323220382068312076312068312076312068312076312068312076312068316104a08201527f2076312020683120763220682d36207a22202f3e203c2f673e203c2f673e00006104c0820152905b6002810361440a57604051806105408101106001600160401b0361054083011117610e2557610540810160405261050c8152600080516020614af48339815191526020820152600080516020614ad483398151915260408201527f3d224d31203720683120762d3120683120762d3120683420762d31206836207660608201527f2d3120683320763220683320762d31206833207633206833207631206831207660808201527f312068312076312068312076312068312076312068312076312068312076352060a08201527f682d3320763120682d3120763120682d3120763120682d3120763220682d323160c08201527f20762d3320683120762d3220682d3220762d3420682d31762d3120682d31207a60e08201527f222f3e203c6720636c6173733d22666c616773426f72646572223e203c7061746101008201527f6820643d224d35203320683520763320682d357a22202f3e203c7061746820646101208201527f3d224d3131203220683520763320682d357a22202f3e203c7061746820643d226101408201527f4d3138203320683420763320682d347a22202f3e203c7061746820643d224d326101608201527f31203620683420763320682d347a22202f3e203c2f673e203c2f673e203c673e6101808201527f203c706174682069643d2268756c6c2220643d224d34203136206820323620766101a08201527f3120682d3320763120682d3120763120682d3120763120682d3120763220682d6101c08201527f313920762d3120683120762d3120683120762d3120683120762d3120682d32206101e08201527f762d3120682d32207a2220636c6173733d2268756c6c22202f3e203c706174686102008201527f2069643d2277696e646f772d6c696e652220643d224d382031382068313820766102208201527f3120682d3138207a2220636c6173733d2277696e646f774c696e65222f3e203c6102408201527f672069643d2277696e646f77732220636c6173733d2277696e646f77223e203c6102608201527f7061746820643d224d313320313820683120763120682d31207a22202f3e203c6102808201527f7061746820643d224d313020313820683120763120682d31207a22202f3e203c6102a08201527f7061746820643d224d313920313820683120763120682d31207a22202f3e203c6102c08201527f7061746820643d224d323220313820683120763120682d31207a22202f3e203c6102e08201527f2f673e203c2f673e203c672069643d226d617374732220636c6173733d226d616103008201527f737473223e203c7061746820643d224d382e3520352076313122202f3e203c706103208201527f61746820643d224d31342e3520342076313222202f3e203c7061746820643d226103408201527f4d32302e3520352076313122202f3e203c7061746820643d224d32332e3520386103608201527f20763822202f3e203c2f673e203c672069643d22666c6167732220636c6173736103808201527f3d22666c61677320666c616773426f72646572223e203c7061746820643d224d6103a08201527f3620342e3520683322202f3e203c7061746820643d224d313220332e352068336103c08201527f22202f3e203c7061746820643d224d313920342e3520683222202f3e203c70616103e08201527f746820643d224d323220372e3520683222202f3e203c2f673e203c672069643d6104008201527f227361696c73222066696c6c3d2275726c28237361696c4772616469656e74296104208201527f223e203c7265637420783d2231302220793d2235222077696474683d223422206104408201527f6865696768743d22313022202f3e203c7265637420783d2231362220793d22366104608201527f222077696474683d223422206865696768743d223922202f3e203c70617468206104808201527f643d224d34203620683420763920682d3320762d3120682d3120762d3120682d6104a08201527f3120762d3120682d312020762d3420683120762d3120683120762d31206831206104c08201527f7a222f3e203c7061746820643d22204d323420392068312076312068312076316104e08201527f20683120763120683120763120683120763120683120763120682d36207a22206105008201526b179f101e17b39f101e17b39f60a11b610520820152925b600382036143f257604051806106008101106001600160401b0361060083011117610e255780610600600492016040526105d88152600080516020614af48339815191526020820152600080516020614ad483398151915260408201527f3d224d30203820683120762d3120683120762d3120683120762d31206831207660608201527f2d3120683320762d3120683320763120683220762d312068332076312068322060808201527f762d3120683320763320683120762d312068332076332068332076312068312060a08201527f763120683120763120683120763120683120763120683120763520682d33207660c08201527f3120682d3120763120682d3120763120682d3120763220682d323220762d332060e08201527f683120762d3220682d3220762d3420682d3120762d3120682d3120762d3120686101008201527f2d31207a22202f3e203c6720636c6173733d22666c616773426f72646572223e6101208201527f203c7061746820643d224d35203220683520763320682d357a22202f3e203c706101408201527f61746820643d224d3130203220683520763320682d357a22202f3e203c7061746101608201527f6820643d224d3135203220683520763320682d357a22202f3e203c70617468206101808201527f643d224d3230203420683420763320682d347a22202f3e203c7061746820643d6101a08201527f224d3233203720683420763320682d347a22202f3e203c2f673e203c2f673e206101c08201527f3c673e203c706174682069643d2268756c6c2220643d224d34203136206820326101e08201527f3720763120682d3320763120682d3120763120682d3120763120682d312076326102008201527f20682d323020762d3120683120762d3120683120762d3120683120762d3120686102208201527f2d3220762d3120682d32207a2220636c6173733d2268756c6c22202f3e203c706102408201527f6174682069643d2277696e646f772d6c696e652220643d224d382031382068316102608201527f3920763120682d3139207a2220636c6173733d2277696e646f774c696e6522206102808201527f2f3e203c672069643d2277696e646f77732220636c6173733d2277696e646f776102a08201527f223e203c7061746820643d224d313120313820683120763120682d31207a22206102c08201527f2f3e203c7061746820643d224d313420313820683120763120682d31207a22206102e08201527f2f3e203c7061746820643d224d313720313820683120763120682d31207a22206103008201527f2f3e203c7061746820643d224d323020313820683120763120682d31207a22206103208201527f2f3e203c7061746820643d224d323320313820683120763120682d31207a22206103408201527f2f3e203c2f673e203c2f673e203c672069643d226d617374732220636c6173736103608201527f3d226d61737473223e203c7061746820643d224d382e3520342076313222202f6103808201527f3e203c7061746820643d224d31332e3520342076313222202f3e203c706174686103a08201527f20643d224d31382e3520342076313222202f3e203c7061746820643d224d32326103c08201527f2e3520362076313022202f3e203c7061746820643d224d32352e3520392076376103e08201527f22202f3e203c2f673e203c672069643d22666c6167732220636c6173733d22666104008201527f6c61677320666c616773426f72646572223e203c7061746820643d224d3620336104208201527f2e3520683322202f3e203c7061746820643d224d313120332e3520683322202f6104408201527f3e203c7061746820643d224d313620332e3520683322202f3e203c70617468206104608201527f643d224d323120352e3520683222202f3e203c7061746820643d224d323420386104808201527f2e3520683222202f3e203c2f673e203c672069643d227361696c73222066696c6104a08201527f6c3d2275726c28237361696c4772616469656e7429223e203c7265637420783d6104c08201527f2231302220793d2235222077696474683d223322206865696768743d223130226104e08201527f202f3e203c7265637420783d2231352220793d2235222077696474683d2233226105008201527f206865696768743d22313022202f3e203c7265637420783d2232302220793d226105208201527f37222077696474683d223222206865696768743d223822202f3e203c706174686105408201527f20643d224d31203920683120762d3120683120762d3120683120762d312068316105608201527f20762d312068332076313020682d3320762d3120682d3120762d3120682d31206105808201527f762d3120682d3120762d3120682d31207a22202f3e203c7061746820643d224d6105a08201527f32362031302068312076312020683120763120683120763120683120763120686105c08201527f3120763120682d35207a22202f3e203c2f673e203c2f673e00000000000000006105e0820152925b036143dc57604051806104a08101106001600160401b036104a083011117610e25576104a0810160405261046e8152600080516020614af48339815191526020820152600080516020614ad483398151915260408201527f3d224d3120313220683520762d3120683220762d3120683220762d312068322060608201527f762d3120683220762d3120683120762d3120683320763120683120763120683260808201527f20763120683220763120683220763120683220763120683520763320682d322060a08201527f763120682d3120763120682d3120763120682d3120763120682d323720762d3360c08201527f206831207a22202f3e203c6720636c6173733d22666c616773426f726465722260e08201527f3e203c7061746820643d224d3133203520683520763320682d357a22202f3e206101008201527f3c2f673e203c2f673e203c673e203c706174682069643d2268756c6c2220643d6101208201527f224d32203133206820323920763120682d3220763120682d3120763120682d316101408201527f20763120682d3120763120682d323520762d3120683120762d3120683120762d6101608201527f3120683120762d3120682d32207a2220636c6173733d2268756c6c22202f3e206101808201527f3c706174682069643d2277696e646f772d6c696e652220643d224d32203133206101a08201527f68323920763120682d3220763120682d323520762d3120682d32207a2220636c6101c08201527f6173733d2277696e646f774c696e6522202f3e203c672069643d2277696e646f6101e08201527f77732220636c6173733d2277696e646f77223e203c7061746820643d224d39206102008201527f313420683120763120682d31207a22202f3e203c7061746820643d224d3133206102208201527f313420683120763120682d31207a22202f3e203c7061746820643d224d3137206102408201527f313420683120763120682d31207a22202f3e203c7061746820643d224d3231206102608201527f313420683120763120682d31207a22202f3e203c7061746820643d224d3131206102808201527f313320683120763120682d31207a22202f3e203c7061746820643d224d3135206102a08201527f313320683120763120682d31207a22202f3e203c7061746820643d224d3139206102c08201527f313320683120763120682d31207a22202f3e203c7061746820643d224d3233206102e08201527f313320683120763120682d31207a22202f3e203c2f673e203c2f673e203c67206103008201527f69643d226d617374732220636c6173733d226d61737473223e203c70617468206103208201527f643d224d31362e35203720763122202f3e203c2f673e203c672069643d22666c6103408201527f6167732220636c6173733d22666c61677320666c616773426f72646572223e206103608201527f3c7061746820643d224d313420362e3520683322202f3e203c2f673e203c67206103808201527f69643d22626f6479223e203c6720636c6173733d22626f6479436f6c6f7231226103a08201527f3e203c7061746820643d224d372031322068313920763120682d3139207a22206103c08201527f2f3e203c7061746820643d224d31312031302068313120763120682d3131207a6103e08201527f22202f3e203c7061746820643d224d3135203820683320763120682d33207a226104008201527f202f3e203c2f673e203c6720636c6173733d22626f6479436f6c6f7232223e206104208201527f3c7061746820643d224d392031312068313520763120682d3135207a22202f3e6104408201527f203c7061746820643d224d3133203920683720763120682d37207a22202f3e206104608201526d1e17b39f101e17b39f101e17b39f60911b610480820152925b604051608081018181106001600160401b03821117610e2557604052604781527f3c672069643d227369676e65747322207472616e73666f726d3d227363616c6560208201527f28313029223e203c672069643d227369676e6574312220636c6173733d22736960408201526633b732ba18911f60c91b60608201529560005b6102a05180519061ffff8316918210156142a357906141b091614618565b516141c4575b6141bf906145d2565b614192565b96601f881661ffff81116113cc576141db9061448f565b61ffff60056107ff8b821c1601116113cc5761429b603b6141bf93600160fd1b9361421361ffff60058f6107ff90821c16011661448f565b90604051958361422d889551809260208089019101610d61565b8401693c7061746820643d224d60b01b602082015282519061425882602a9560208785019101610d61565b019182015281519061427382602b9460208685019101610d61565b01906f103418903b1890341698903d1110179f60811b9082015203601b810184520182610e8c565b9790506141b6565b5050509195926143cd602080956143bf6143d9989995996142f86029604051856142d782975180928a85019a8b9101610d61565b8101681e17b39f101e17b39f60b91b8d820152036009810186520184610e8c565b6040519561430587610e71565b6006875289870197651e17b9bb339f60d11b89526040519c8d9a8c6143368d6102c051838151948593019101610d61565b8c016104205190614351825160209384829585019101610d61565b0161436582518f9384829585019101610d61565b01614378825180938f8085019101610d61565b0161438b825180938e8085019101610d61565b0161439e825180938d8085019101610d61565b016143b1825180938c8085019101610d61565b019151809389840190610d61565b019151809386840190610d61565b01038084520182610e8c565b90565b6040516143e881610e56565b6000815292614112565b600460405161440081610e56565b6000815292613b9f565b60405161441681610e56565b600081529261346a565b60405161442c81610e56565b6000815290612e33565b60405161444281610e56565b6000815291612860565b634e487b7160e01b600052602160045260246000fd5b60405161446e81610e71565b60018152600360fc1b602082015261020052611ca4565b600060c05261142f565b806000917a184f03e93ff9f4daa797ed6e38ed64bf6a1f010000000000000000808210156145c4575b506d04ee2d6d415b85acef8100000000808310156145b5575b50662386f26fc10000808310156145a6575b506305f5e10080831015614597575b5061271080831015614588575b506064821015614578575b600a8092101561456e575b600190816021614526828701611268565b95860101905b614538575b5050505090565b600019019083906f181899199a1a9b1b9c1cb0b131b232b360811b8282061a8353049182156145695791908261452c565b614531565b9160010191614515565b919060646002910491019161450a565b600491939204910191386144ff565b600891939204910191386144f2565b601091939204910191386144e3565b602091939204910191386144d1565b6040935081049150386144b8565b61ffff8091169081146113cc5760010190565b8051156145f25760200190565b634e487b7160e01b600052603260045260246000fd5b8051600110156145f25760400190565b80518210156145f25760209160051b010190565b600581101561444c576000526008602052604060002090565b60ff16600581101561444c5790565b9060058110156145f25760051b0190565b6146b9600560ff6040519361467985610e3b565b6006855282602086015260046040860152600360608601526002608086015260405160208101918252602081526146af81610e71565b5190201606614645565b600581101561444c5760ff91826146d1921690614654565b511690565b6146b9600560ff604051936146ea85610e3b565b6002855260036020860152600460408601528260608601526006608086015260405160208101918252602081526146af81610e71565b600560ff6143d99260405160208101918252602081526146af81610e71565b6147f960409182519261475184610e3b565b64165858da1d60da1b81519161476683610e71565b6004835260209263109bd85d60e21b848201528652805161478681610e71565b60058152640536c6f6f760dc1b848201528387015280516147a681610e71565b60048152634272696760e01b848201528187015280516147c581610e71565b60078152664672696761746560c81b84820152606087015251916147e883610e71565b600583528201526080840152614720565b90600582101561444c5760ff614810921690614654565b5190565b806000526020906002825260018060a01b036040600020541615614abb57603d614aab92614a7183610af161012c61484e6143d99761448f565b61486260ff61485c86614665565b1661448f565b9361487160ff61485c836146d6565b9061488a610af6610af16148848461473f565b936113f6565b91604051968794737b226e616d65223a202250756e6b73686970202360601b8b8701526148c0815180928d60348a019101610d61565b85017f222c20226465736372697074696f6e223a202250756e6b73686970732061726560348201527f2072616e646f6d697a656420616e6420756e697175652073686970732e20557360548201527f65207468656d20666f72207468652070756e6b736869702067616d65222c202260748201527f61747472696275746573223a205b7b2274726169745f74797065223a2022726160948201526f3733b2911610113b30b63ab2911d101160811b60b4820152614986825180938d60c485019101610d61565b017f227d2c207b2274726169745f74797065223a202273686f6f74696e6752616e6760c48201526d32911610113b30b63ab2911d101160911b60e48201526149d7825180938c60f285019101610d61565b017f227d2c207b2274726169745f74797065223a20227368697054797065222c202260f2820152683b30b63ab2911d101160b91b610112820152815190614a278261011b948c8685019101610d61565b01906e113eae96101134b6b0b3b2911d101160891b90820152815190614a568261012a948b8685019101610d61565b019061227d60f01b908201520361010c810184520182610e8c565b60405194827f646174613a6170706c69636174696f6e2f6a736f6e3b6261736536342c000000879485015282519283918686019101610d61565b810103601d810184520182610e8c565b602490604051906361ca35d160e01b82526004820152fdfe22626f726465722220636c6173733d22626f72646572223e203c7061746820643c67207472616e73666f726d3d227363616c6528313029223e203c672069643da264697066735822122018c41e4fe7f1df3f453faedd78bbc02d2a17489c9ce3760dab90a001f30ebd6564736f6c63430008140033",
  "linkReferences": {},
  "deployedLinkReferences": {}
}