{
  "_format": "hh-sol-artifact-1",
  "contractName": "Punkships",
  "sourceName": "contracts/Punkships.sol",
  "abi": [
    {
      "inputs": [
        {
          "internalType": "address",
          "name": "initialOwner",
          "type": "address"
        }
      ],
      "stateMutability": "nonpayable",
      "type": "constructor"
    },
    {
      "inputs": [
        {
          "internalType": "address",
          "name": "sender",
          "type": "address"
        },
        {
          "internalType": "uint256",
          "name": "tokenId",
          "type": "uint256"
        },
        {
          "internalType": "address",
          "name": "owner",
          "type": "address"
        }
      ],
      "name": "ERC721IncorrectOwner",
      "type": "error"
    },
    {
      "inputs": [
        {
          "internalType": "address",
          "name": "operator",
          "type": "address"
        },
        {
          "internalType": "uint256",
          "name": "tokenId",
          "type": "uint256"
        }
      ],
      "name": "ERC721InsufficientApproval",
      "type": "error"
    },
    {
      "inputs": [
        {
          "internalType": "address",
          "name": "approver",
          "type": "address"
        }
      ],
      "name": "ERC721InvalidApprover",
      "type": "error"
    },
    {
      "inputs": [
        {
          "internalType": "address",
          "name": "operator",
          "type": "address"
        }
      ],
      "name": "ERC721InvalidOperator",
      "type": "error"
    },
    {
      "inputs": [
        {
          "internalType": "address",
          "name": "owner",
          "type": "address"
        }
      ],
      "name": "ERC721InvalidOwner",
      "type": "error"
    },
    {
      "inputs": [
        {
          "internalType": "address",
          "name": "receiver",
          "type": "address"
        }
      ],
      "name": "ERC721InvalidReceiver",
      "type": "error"
    },
    {
      "inputs": [
        {
          "internalType": "address",
          "name": "sender",
          "type": "address"
        }
      ],
      "name": "ERC721InvalidSender",
      "type": "error"
    },
    {
      "inputs": [
        {
          "internalType": "uint256",
          "name": "tokenId",
          "type": "uint256"
        }
      ],
      "name": "ERC721NonexistentToken",
      "type": "error"
    },
    {
      "inputs": [
        {
          "internalType": "uint8",
          "name": "position",
          "type": "uint8"
        }
      ],
      "name": "InvalidPosition",
      "type": "error"
    },
    {
      "inputs": [
        {
          "internalType": "address",
          "name": "owner",
          "type": "address"
        }
      ],
      "name": "OwnableInvalidOwner",
      "type": "error"
    },
    {
      "inputs": [
        {
          "internalType": "address",
          "name": "account",
          "type": "address"
        }
      ],
      "name": "OwnableUnauthorizedAccount",
      "type": "error"
    },
    {
      "inputs": [
        {
          "internalType": "uint256",
          "name": "tokenId",
          "type": "uint256"
        }
      ],
      "name": "ShipNotMinted",
      "type": "error"
    },
    {
      "anonymous": false,
      "inputs": [
        {
          "indexed": true,
          "internalType": "address",
          "name": "owner",
          "type": "address"
        },
        {
          "indexed": true,
          "internalType": "address",
          "name": "approved",
          "type": "address"
        },
        {
          "indexed": true,
          "internalType": "uint256",
          "name": "tokenId",
          "type": "uint256"
        }
      ],
      "name": "Approval",
      "type": "event"
    },
    {
      "anonymous": false,
      "inputs": [
        {
          "indexed": true,
          "internalType": "address",
          "name": "owner",
          "type": "address"
        },
        {
          "indexed": true,
          "internalType": "address",
          "name": "operator",
          "type": "address"
        },
        {
          "indexed": false,
          "internalType": "bool",
          "name": "approved",
          "type": "bool"
        }
      ],
      "name": "ApprovalForAll",
      "type": "event"
    },
    {
      "anonymous": false,
      "inputs": [
        {
          "indexed": true,
          "internalType": "address",
          "name": "owner",
          "type": "address"
        },
        {
          "indexed": true,
          "internalType": "uint256",
          "name": "id",
          "type": "uint256"
        },
        {
          "indexed": false,
          "internalType": "string",
          "name": "tokenURI",
          "type": "string"
        }
      ],
      "name": "Mint",
      "type": "event"
    },
    {
      "anonymous": false,
      "inputs": [
        {
          "indexed": true,
          "internalType": "address",
          "name": "previousOwner",
          "type": "address"
        },
        {
          "indexed": true,
          "internalType": "address",
          "name": "newOwner",
          "type": "address"
        }
      ],
      "name": "OwnershipTransferred",
      "type": "event"
    },
    {
      "anonymous": false,
      "inputs": [
        {
          "indexed": true,
          "internalType": "address",
          "name": "from",
          "type": "address"
        },
        {
          "indexed": true,
          "internalType": "address",
          "name": "to",
          "type": "address"
        },
        {
          "indexed": true,
          "internalType": "uint256",
          "name": "tokenId",
          "type": "uint256"
        }
      ],
      "name": "Transfer",
      "type": "event"
    },
    {
      "inputs": [
        {
          "internalType": "address",
          "name": "to",
          "type": "address"
        },
        {
          "internalType": "uint256",
          "name": "tokenId",
          "type": "uint256"
        }
      ],
      "name": "approve",
      "outputs": [],
      "stateMutability": "nonpayable",
      "type": "function"
    },
    {
      "inputs": [
        {
          "internalType": "address",
          "name": "owner",
          "type": "address"
        }
      ],
      "name": "balanceOf",
      "outputs": [
        {
          "internalType": "uint256",
          "name": "",
          "type": "uint256"
        }
      ],
      "stateMutability": "view",
      "type": "function"
    },
    {
      "inputs": [
        {
          "internalType": "uint256",
          "name": "tokenId",
          "type": "uint256"
        }
      ],
      "name": "burn",
      "outputs": [],
      "stateMutability": "nonpayable",
      "type": "function"
    },
    {
      "inputs": [
        {
          "internalType": "uint256",
          "name": "tokenId",
          "type": "uint256"
        }
      ],
      "name": "getApproved",
      "outputs": [
        {
          "internalType": "address",
          "name": "",
          "type": "address"
        }
      ],
      "stateMutability": "view",
      "type": "function"
    },
    {
      "inputs": [
        {
          "internalType": "uint256",
          "name": "tokenId",
          "type": "uint256"
        }
      ],
      "name": "getImage",
      "outputs": [
        {
          "internalType": "string",
          "name": "",
          "type": "string"
        }
      ],
      "stateMutability": "view",
      "type": "function"
    },
    {
      "inputs": [
        {
          "internalType": "uint256",
          "name": "tokenId",
          "type": "uint256"
        }
      ],
      "name": "getRange",
      "outputs": [
        {
          "internalType": "uint8",
          "name": "",
          "type": "uint8"
        }
      ],
      "stateMutability": "view",
      "type": "function"
    },
    {
      "inputs": [
        {
          "internalType": "uint256",
          "name": "tokenId",
          "type": "uint256"
        }
      ],
      "name": "getShipTypeName",
      "outputs": [
        {
          "internalType": "string",
          "name": "",
          "type": "string"
        }
      ],
      "stateMutability": "view",
      "type": "function"
    },
    {
      "inputs": [
        {
          "internalType": "uint256",
          "name": "tokenId",
          "type": "uint256"
        }
      ],
      "name": "getShootingRange",
      "outputs": [
        {
          "internalType": "uint8",
          "name": "",
          "type": "uint8"
        }
      ],
      "stateMutability": "view",
      "type": "function"
    },
    {
      "inputs": [
        {
          "internalType": "address",
          "name": "owner",
          "type": "address"
        },
        {
          "internalType": "address",
          "name": "operator",
          "type": "address"
        }
      ],
      "name": "isApprovedForAll",
      "outputs": [
        {
          "internalType": "bool",
          "name": "",
          "type": "bool"
        }
      ],
      "stateMutability": "view",
      "type": "function"
    },
    {
      "inputs": [],
      "name": "name",
      "outputs": [
        {
          "internalType": "string",
          "name": "",
          "type": "string"
        }
      ],
      "stateMutability": "view",
      "type": "function"
    },
    {
      "inputs": [],
      "name": "owner",
      "outputs": [
        {
          "internalType": "address",
          "name": "",
          "type": "address"
        }
      ],
      "stateMutability": "view",
      "type": "function"
    },
    {
      "inputs": [
        {
          "internalType": "uint256",
          "name": "tokenId",
          "type": "uint256"
        }
      ],
      "name": "ownerOf",
      "outputs": [
        {
          "internalType": "address",
          "name": "",
          "type": "address"
        }
      ],
      "stateMutability": "view",
      "type": "function"
    },
    {
      "inputs": [],
      "name": "renounceOwnership",
      "outputs": [],
      "stateMutability": "nonpayable",
      "type": "function"
    },
    {
      "inputs": [
        {
          "internalType": "address",
          "name": "to",
          "type": "address"
        }
      ],
      "name": "safeMint",
      "outputs": [],
      "stateMutability": "nonpayable",
      "type": "function"
    },
    {
      "inputs": [
        {
          "internalType": "address",
          "name": "from",
          "type": "address"
        },
        {
          "internalType": "address",
          "name": "to",
          "type": "address"
        },
        {
          "internalType": "uint256",
          "name": "tokenId",
          "type": "uint256"
        }
      ],
      "name": "safeTransferFrom",
      "outputs": [],
      "stateMutability": "nonpayable",
      "type": "function"
    },
    {
      "inputs": [
        {
          "internalType": "address",
          "name": "from",
          "type": "address"
        },
        {
          "internalType": "address",
          "name": "to",
          "type": "address"
        },
        {
          "internalType": "uint256",
          "name": "tokenId",
          "type": "uint256"
        },
        {
          "internalType": "bytes",
          "name": "data",
          "type": "bytes"
        }
      ],
      "name": "safeTransferFrom",
      "outputs": [],
      "stateMutability": "nonpayable",
      "type": "function"
    },
    {
      "inputs": [
        {
          "internalType": "address",
          "name": "operator",
          "type": "address"
        },
        {
          "internalType": "bool",
          "name": "approved",
          "type": "bool"
        }
      ],
      "name": "setApprovalForAll",
      "outputs": [],
      "stateMutability": "nonpayable",
      "type": "function"
    },
    {
      "inputs": [
        {
          "internalType": "bytes4",
          "name": "interfaceId",
          "type": "bytes4"
        }
      ],
      "name": "supportsInterface",
      "outputs": [
        {
          "internalType": "bool",
          "name": "",
          "type": "bool"
        }
      ],
      "stateMutability": "view",
      "type": "function"
    },
    {
      "inputs": [],
      "name": "symbol",
      "outputs": [
        {
          "internalType": "string",
          "name": "",
          "type": "string"
        }
      ],
      "stateMutability": "view",
      "type": "function"
    },
    {
      "inputs": [
        {
          "internalType": "uint256",
          "name": "tokenId",
          "type": "uint256"
        }
      ],
      "name": "tokenURI",
      "outputs": [
        {
          "internalType": "string",
          "name": "",
          "type": "string"
        }
      ],
      "stateMutability": "view",
      "type": "function"
    },
    {
      "inputs": [
        {
          "internalType": "address",
          "name": "from",
          "type": "address"
        },
        {
          "internalType": "address",
          "name": "to",
          "type": "address"
        },
        {
          "internalType": "uint256",
          "name": "tokenId",
          "type": "uint256"
        }
      ],
      "name": "transferFrom",
      "outputs": [],
      "stateMutability": "nonpayable",
      "type": "function"
    },
    {
      "inputs": [
        {
          "internalType": "address",
          "name": "newOwner",
          "type": "address"
        }
      ],
      "name": "transferOwnership",
      "outputs": [],
      "stateMutability": "nonpayable",
      "type": "function"
    }
  ],
  "bytecode": "0x6080346200055a57620050f09081380390601f19601f818185011683019460018060401b0394848710868811176200055f57808592604098895283396020948591810103126200055a57516001600160a01b039390848116908190036200055a576200006a62000575565b95600987526850756e6b736869707360b81b838801526200008a62000575565b9360049485815263504e4b5360e01b85820152885196838811620005455760009788549a60019b8c81811c911680156200053a575b898210146200052757908186849311620004f7575b5088908683116001146200048d578b9262000481575b5050600019600383901b1c1916908b1b1788555b81519384116200046e5789548a81811c9116801562000463575b878210146200045057908184869594931162000415575b5086928411600114620003b457508792620003a8575b5050600019600383901b1c191690871b1786555b80156200039157600680546001600160a01b03198116831790915585167f8be0079c531659141344cd1fd0a4f28419497f9722a3daafe3b4186f6b6457e08580a3620001a462000575565b71c00000008000000000000000000000000000815271fe000000fc000000f8000000f0000000e00082820152838052600882528684209086855b60028110620003755750505050620001f562000575565b72d9f3e00059f3c00019f3800001f000000000008152730fd9f3800fd9f3c007d9f3e003d9f3f001d9f3f082820152858452600882528684209086855b600281106200036057505050506200024962000575565b9373010f3cfc000f3cfc000f3cf8000f3cf000003c008552733f0f3ce01f0f3cf00f0f3cfc070f3cfc030f3cfc82860152600294858552600883528785209087865b8881106200034b5750505050620002a162000575565b72339cfe00339cfc00339cf800039cf000039ce08152737c339ce03c339cf01c339cf80c339cfc04339cfe83820152600385526008835287852087865b88811062000336575050505050620002f562000575565b91838352838284015283526008815285832091925b84811062000321578651614b419081620005af8239f35b835160ff16838201559281019285016200030a565b858585511694019381840155018890620002de565b8585845116930192818501550188906200028b565b84888451169301928185015501879062000232565b82516001600160901b03168482015591840191889101620001de565b8651631e4fbdf760e01b8152808401859052602490fd5b01519050388062000145565b8a89528689208b959093929116895b88828210620003fe5750508411620003e4575b505050811b01865562000159565b015160001960f88460031b161c19169055388080620003d6565b8385015186558d97909501949384019301620003c3565b6200043f908c8b52888b208580880160051c8201928b891062000446575b0160051c019062000595565b386200012f565b9250819262000433565b634e487b7160e01b895260228852602489fd5b90607f169062000118565b634e487b7160e01b885260418752602488fd5b015190503880620000ea565b90848e9416918c80528a8d20928d5b8c828210620004d75750508411620004bd575b505050811b018855620000fe565b015160001960f88460031b161c19169055388080620004af565b91929395968291958786015181550195019301908f95949392916200049c565b62000520908c80528a8d208880860160051c8201928d871062000446570160051c019062000595565b38620000d4565b634e487b7160e01b8b5260228a5260248bfd5b90607f1690620000bf565b604187634e487b7160e01b6000525260246000fd5b600080fd5b634e487b7160e01b600052604160045260246000fd5b60408051919082016001600160401b038111838210176200055f57604052565b818110620005a1575050565b600081556001016200059556fe610560604081815260048036101561001657600080fd5b600092833560e01c90816301ffc9a714610cef5750806306fdde0314610c24578063081812fc14610be9578063095ea7b314610b0d57806323b872dd14610af55780632607aafa14610aa757806340d097c3146107e457806342842e0e146107b557806342966c68146106645780634490e0f3146106265780636352211e146105f557806370a08231146105a0578063715018a6146105435780638da5cb5b1461051a57806395d89b4114610404578063a22cb46514610363578063b88d4fde146102d0578063c87b56dd14610295578063c8ab9d1a14610256578063cc364f48146101fa578063e985e9c5146101a85763f2fde38b1461011657600080fd5b346101a45760203660031901126101a45761012f610da3565b90610138610ec7565b6001600160a01b0391821692831561018e575050600654826bffffffffffffffffffffffff60a01b821617600655167f8be0079c531659141344cd1fd0a4f28419497f9722a3daafe3b4186f6b6457e08380a380f35b51631e4fbdf760e01b8152908101849052602490fd5b8280fd5b5050346101f657806003193601126101f65760ff816020936101c8610da3565b6101d0610dbe565b6001600160a01b0391821683526005875283832091168252855220549151911615158152f35b5080fd5b508290346101f65760203660031901126101f6578035808352600260205291839020546001600160a01b0316156102415760208360ff6102398561465d565b915191168152f35b91516361ca35d160e01b815291820152602490fd5b508290346101f65760203660031901126101f6578035808352600260205291839020546001600160a01b0316156102415760208360ff610239856146ce565b5091346102cd5760203660031901126102cd57506102b66102c9923561480c565b9051918291602083526020830190610d7e565b0390f35b80fd5b5090346101a45760803660031901126101a4576102eb610da3565b6102f3610dbe565b6044359185606435956001600160401b0387116101f657366023880112156101f6578601359561032e61032588610eac565b96519687610e8b565b86865236602488830101116101f6578661036097602460209301838901378601015261035b838383610ef3565b6110cd565b80f35b5090346101a457806003193601126101a45761037d610da3565b9060243591821515809303610400576001600160a01b03169283156103eb5750338452600560205280842083855260205280842060ff1981541660ff8416179055519081527f17307eab39ab6107e8899845ad3d59bd9653f200f220920489ca2b5937696c3160203392a380f35b836024925191630b61174360e31b8352820152fd5b8480fd5b5091346102cd57806003193601126102cd578151918160019283549384811c91818616958615610510575b60209687851081146104fd578899509688969785829a5291826000146104d657505060011461047b575b5050506102c9929161046c910385610e8b565b51928284938452830190610d7e565b91908693508083527fb10e2d527612073b26eecdfd717e6a320cf44b4afac2b0732d9fcbe2b7fa0cf65b8284106104be575050508201018161046c6102c9610459565b8054848a0186015288955087949093019281016104a5565b60ff19168782015293151560051b8601909301935084925061046c91506102c99050610459565b634e487b7160e01b835260228a52602483fd5b92607f169261042f565b5050346101f657816003193601126101f65760065490516001600160a01b039091168152602090f35b83346102cd57806003193601126102cd5761055c610ec7565b600680546001600160a01b0319811690915581906001600160a01b03167f8be0079c531659141344cd1fd0a4f28419497f9722a3daafe3b4186f6b6457e08280a380f35b5091346102cd5760203660031901126102cd576001600160a01b036105c3610da3565b169283156105e05750806020938392526003845220549051908152f35b91516322718ad960e21b815291820152602490fd5b5091346102cd5760203660031901126102cd575061061560209235611092565b90516001600160a01b039091168152f35b508290346101f65760203660031901126101f6578035808352600260205291839020546001600160a01b031615610241576102c9836102b684614737565b508290346101f657602090816003193601126101a4578035808452600283528484205490926001600160a01b039182169290913315159081610720575b5050509360028495839594956106ed575b85855252822080546001600160a01b03191690557fddf252ad1be2c89b69c2b068fc378daa952ba7f163c4a11628f55a4df523b3ef8280a480f35b600086815260046020526040902080546001600160a01b03191690558385526003815282852080546000190190556106b2565b81610769575b50156107335780806106a1565b93505061074e576024925191637e27328960e01b8352820152fd5b604492519163177e802f60e01b835233908301526024820152fd5b33851491508115610798575b8115610783575b5087610726565b8587528284528787205416331490508761077c565b8487526005845287872033885284528787205460ff169150610775565b5050346101f657610360906107c936610dd4565b919251926107d684610e55565b85845261035b838383610ef3565b5090346101a45760209081600319360112610aa357610801610da3565b600754936000199391848614610a90576001860160075583519061082482610e55565b8782526001600160a01b0381811696908715610a7957878991828c5260028852888c2054168015159384610a47575b50818c5260038852888c2080546001019055828c5260028852888c2080546001600160a01b031916831790557fddf252ad1be2c89b69c2b068fc378daa952ba7f163c4a11628f55a4df523b3ef8c80a4610a30573b6108f4575b5050907f85a66b9141978db9980f7e0ce3b468cebf4f7999f32b23091c5c03e798b1ba7a916108ee6108de8661480c565b9251928284938452830190610d7e565b0390a380f35b8396929695919551878180610930630a85bd0160e11b95868352338c840152886024840152876044840152608060648401526084830190610d7e565b0381878a5af18491816109f0575b5061099c575050503d600014610994573d61095881610eac565b9061096584519283610e8b565b81528091863d92013e5b8051948561098e57505051633250574960e11b81529182015260249150fd5b85925001fd5b50606061096f565b9296919591926001600160e01b031916036109d957507f85a66b9141978db9980f7e0ce3b468cebf4f7999f32b23091c5c03e798b1ba7a386108ad565b8251633250574960e11b8152908101849052602490fd5b9091508881813d8311610a29575b610a088183610e8b565b8101031261040057516001600160e01b03198116810361040057903861093e565b503d6109fe565b84516339e3563760e11b8152808401899052602490fd5b600084815260046020526040902080546001600160a01b0319169055818d5260038952898d2090815401905538610853565b8651633250574960e11b81528086018b9052602490fd5b634e487b7160e01b875260118252602487fd5b8380fd5b508290346101f65760203660031901126101f6578035808352600260205291839020546001600160a01b031615610241576102c9836102b6610af0610aeb866113f5565b611299565b611211565b83346102cd57610360610b0736610dd4565b91610ef3565b5090346101a457806003193601126101a457610b27610da3565b91602435610b3481611092565b33151580610bd6575b80610bad575b610b97576001600160a01b039485169482918691167f8c5be1e5ebec7d5bd14f71427d1e84f3dd0314c0f7b2291e5b200ac8c7c3b9258880a48452602052822080546001600160a01b031916909117905580f35b835163a9fbf51f60e01b81523381850152602490fd5b506001600160a01b03811686526005602090815284872033885290528386205460ff1615610b43565b506001600160a01b038116331415610b3d565b50346101a45760203660031901126101a457918260209335610c0a81611092565b50825283528190205490516001600160a01b039091168152f35b5091346102cd57806003193601126102cd5781519181825492600184811c91818616958615610ce5575b60209687851081146104fd578899509688969785829a5291826000146104d6575050600114610c8a575050506102c9929161046c910385610e8b565b91908693508280527f290decd9548b62a8d60345a988386fc84ba6bc95484008f6362f93160ef3e5635b828410610ccd575050508201018161046c6102c9610459565b8054848a018601528895508794909301928101610cb4565b92607f1692610c4e565b925050346101a45760203660031901126101a4573563ffffffff60e01b81168091036101a457602092506380ac58cd60e01b8114908115610d4a575b8115610d39575b5015158152f35b6301ffc9a760e01b14905038610d32565b635b5e139f60e01b81149150610d2b565b60005b838110610d6e5750506000910152565b8181015183820152602001610d5e565b90602091610d9781518092818552858086019101610d5b565b601f01601f1916010190565b600435906001600160a01b0382168203610db957565b600080fd5b602435906001600160a01b0382168203610db957565b6060906003190112610db9576001600160a01b03906004358281168103610db957916024359081168103610db9579060443590565b606081019081106001600160401b03821117610e2457604052565b634e487b7160e01b600052604160045260246000fd5b60a081019081106001600160401b03821117610e2457604052565b602081019081106001600160401b03821117610e2457604052565b604081019081106001600160401b03821117610e2457604052565b90601f801991011681019081106001600160401b03821117610e2457604052565b6001600160401b038111610e2457601f01601f191660200190565b6006546001600160a01b03163303610edb57565b60405163118cdaa760e01b8152336004820152602490fd5b6001600160a01b03918216929091831561107957600092828452826020956002875260409684888820541696879133151580610fe3575b509060027fddf252ad1be2c89b69c2b068fc378daa952ba7f163c4a11628f55a4df523b3ef9284610fb0575b858352600381528b8320805460010190558683525289812080546001600160a01b0319168517905580a41692838303610f8f5750505050565b6064945051926364283d7b60e01b8452600484015260248301526044820152fd5b600087815260046020526040902080546001600160a01b0319169055848352600381528b83208054600019019055610f56565b91939450915080611038575b15610fff57859291879138610f2a565b87868861101c576024915190637e27328960e01b82526004820152fd5b604491519063177e802f60e01b82523360048301526024820152fd5b50338714801561105d575b80610fef5750858252600481523385898420541614610fef565b5086825260058152878220338352815260ff8883205416611043565b604051633250574960e11b815260006004820152602490fd5b6000818152600260205260409020546001600160a01b03169081156110b5575090565b60249060405190637e27328960e01b82526004820152fd5b813b6110da575b50505050565b604051630a85bd0160e11b8082523360048301526001600160a01b03928316602483015260448201949094526080606482015260209592909116939092908390611128906084830190610d7e565b039285816000958187895af18491816111d1575b5061119c575050503d600014611194573d61115681610eac565b906111646040519283610e8b565b81528091843d92013e5b8051928361118f57604051633250574960e11b815260048101849052602490fd5b019050fd5b50606061116e565b919450915063ffffffff60e01b16036111b95750388080806110d4565b60249060405190633250574960e11b82526004820152fd5b9091508681813d831161120a575b6111e98183610e8b565b8101031261040057516001600160e01b03198116810361040057903861113c565b503d6111df565b90611265603a60405180947f646174613a696d6167652f7376672b786d6c3b6261736536342c00000000000060208301526112558151809260208686019101610d5b565b810103601a810185520183610e8b565b565b9061127182610eac565b61127e6040519182610e8b565b828152809261128f601f1991610eac565b0190602036910137565b8051156113e1576040516112ac81610e09565b604081527f4142434445464748494a4b4c4d4e4f505152535455565758595a61626364656660208201527f6768696a6b6c6d6e6f707172737475767778797a303132333435363738392b2f604082015281516002928382018092116113cb576003918290046001600160fe1b03811681036113cb5761132e908594951b611267565b936020850193829183518401925b83811061137a57505050505106806001146113675760021461135c575090565b603d90600019015390565b50603d9081600019820153600119015390565b85600491979293949701918251600190603f9082828260121c16880101518453828282600c1c16880101518385015382828260061c168801015188850153168501015187820153019592919061133c565b634e487b7160e01b600052601160045260246000fd5b506040516113ee81610e55565b6000815290565b9061141a60405160208101908482526020815261141181610e70565b51902092614718565b91600881901c6001161561447c576001610180525b60006040805161143e81610e09565b8281528260208201520152611459604051806101c052610e09565b60ff8160101c166101c0515260ff8160181c1660206101c051015260ff8160201c1660406101c051015260006040805161149281610e09565b8281528260208201520152604051906114aa82610e09565b60ff8160281c16825260ff8160301c16602083015260ff8160381c1660408301526000604080516114da81610e09565b82815282602082015201526114f56040518061042052610e09565b60ff8160401c16610420515260ff8160481c16602061042051015260ff8160501c16604061042051015260006040805161152e81610e09565b82815282602082015201526115496040518061038052610e09565b60ff8160581c16610380515260ff8160601c16602061038051015260ff8160681c16604061038051015260006040805161158281610e09565b828152826020820152015261159c6040518060e052610e09565b60ff8160701c1660e0515260ff8160781c16602060e051015260ff8160801c16604060e05101526000604080516115d281610e09565b82815282602082015201526115ed6040518061034052610e09565b60ff8160881c16610340515260ff8160901c16602061034051015260ff8160981c16604061034051015260006040805161162681610e09565b82815282602082015201526116416040518061050052610e09565b60ff8160a01c16610500515260ff8160a81c16602061050051015260ff8160b01c16604061050051015260006040805161167a81610e09565b8281528260208201520152611695604051806103c052610e09565b60ff8160b81c166103c0515260ff8160c01c1660206103c051015260ff8160c81c1660406103c05101526000604080516116ce81610e09565b82815282602082015201526116e9604051806102c052610e09565b60ff8160d01c166102c0515260ff8160d81c1660206102c051015260ff8160e01c1660406102c051015260006040805161172281610e09565b828152826020820152015261173d6040518061022052610e09565b60ff8160e81c16610220515260ff8160f01c1660206102205101528060f81c60406102205101526117746040518061044052610e09565b60026104405152604036602061044051013761178f84614624565b54811661179e610440516145dd565b5260405160208101918252602081526117b681610e70565b51902060016117c485614624565b0154166117d361044051614600565b52604051806102e052806128208101106001600160401b0361282083011117610e2457806128206101409201604052526128003660206102e051013760005b60ff811660a08110156118565761184061182e610440516145dd565b516001831b161515916102e051614610565b5260ff808216146113cb5760ff16600101611812565b5050919060005b60a061ffff821610156118bb5761187661044051614600565b5190816102805261ffff60a081831601116113cb576118b691600161ffff83161b1615156118b061ffff60a081851601166102e051614610565b526145ca565b61185d565b50909160405180610300526118cf90610e3a565b6103005160659052610300516020017f3c3f786d6c2076657273696f6e3d22312e3022203f3e3c73766720786d6c6e739052610300516040017f3d22687474703a2f2f7777772e77332e6f72672f323030302f737667222077699052610300516060017f6474683d2233323022206865696768743d22323430222076657273696f6e3d22905264189718911f60d91b610300516080015260e0515160ff1661197690614487565b6102605260e0516020015160ff1661198d90614487565b6103605260e0516040015160ff166119a490614487565b60c052610340515160ff166119b890614487565b610340516020015160ff166119cc90614487565b91610340516040015160ff166119e190614487565b60e0515160ff166119f190614487565b60e0516020015160ff16611a0490614487565b60e0516040015160ff16611a1790614487565b610340515160ff16611a2890614487565b610340516020015160ff16611a3c90614487565b90610340516040015160ff16611a5190614487565b926101c0515160ff16611a6390614487565b946101c0516020015160ff16611a7890614487565b966101c0516040015160ff16611a8d90614487565b988a5160ff16611a9c90614487565b9a602081015160ff16611aae90614487565b610520526040015160ff16611ac290614487565b61054052610420515160ff16611ad790614487565b6103e052610420516020015160ff16611aef90614487565b6104e052610420516040015160ff16611b0790614487565b61040052610380515160ff16611b1c90614487565b61032052610380516020015160ff16611b3490614487565b61016052610380516040015160ff16611b4c90614487565b61046052610500515160ff16611b6190614487565b61010052610500516020015160ff16611b7990614487565b60a052610500516040015160ff16611b9090614487565b6102a0526103c0515160ff16611ba590614487565b6101a0526103c0516020015160ff16611bbd90614487565b6080526103c0516040015160ff16611bd490614487565b610480526102c0515160ff16611be990614487565b610120526102c0516020015160ff16611c0190614487565b6104c0526102c0516040015160ff16611c1990614487565b6101e052610220515160ff16611c2e90614487565b6104a052610220516020015160ff16611c4690614487565b61014052610220516040015160ff16611c5e90614487565b6102005260006103a052610180516000149c6102749c6125069e61445957604051611c8881610e70565b60018152603160f81b60208201526103a0525b651e3232b3399f60d11b6020604051806102405201527f3c7374796c6520747970653d22746578742f637373223e00000000000000000060266102405101527f2e7361696c546f70207b2073746f702d636f6c6f723a20726762280000000000603d61024051015261026051611d1e815180926020605861024051019101610d5b565b600b60fa1b605882610240510101526103605190611d4b8251809360206059856102405101019101610d5b565b610240510101600b60fa1b605982015260c05190611d73825180936020605a85019101610d5b565b63293b207d60e01b605a83830101527f2e7361696c426f74746f6d207b2073746f702d636f6c6f723a20726762280000605e8383010152611dc0835180946020607c868601019101610d5b565b0101600b60fa1b607c820152611de0825180936020607d85019101610d5b565b01600b60fa1b607d820152611dff825180936020607e85019101610d5b565b0163293b207d60e01b607e8201527f2e626f6479436f6c6f7231207b2066696c6c3a207267622800000000000000006082820152611e47825180936020609a85019101610d5b565b01600b60fa1b609a820152611e66825180936020609b85019101610d5b565b01600b60fa1b609b820152611e85825180936020609c85019101610d5b565b0163293b207d60e01b609c8201527f2e626f6479436f6c6f7232207b2066696c6c3a2072676228000000000000000060a0820152611ecd82518093602060b885019101610d5b565b01600b60fa1b60b8820152611eec82518093602060b985019101610d5b565b01600b60fa1b60b9820152611f0b82518093602060ba85019101610d5b565b0163293b207d60e01b60ba8201527105cd0ead8d840f640ccd2d8d87440e4cec4560731b60be820152611f4882518093602060d085019101610d5b565b01600b60fa1b60d0820152611f6782518093602060d185019101610d5b565b01600b60fa1b60d1820152611f8682518093602060d285019101610d5b565b0163293b207d60e01b60d28201527f2e77696e646f774c696e65207b2066696c6c3a2072676228000000000000000060d6820152611fce82518093602060ee85019101610d5b565b01600b60fa1b60ee8201526105205190611ff282518093602060ef85019101610d5b565b01600b60fa1b60ef820152610540519061201682518093602060f085019101610d5b565b0163293b207d60e01b60f08201527305ceed2dcc8deee40f640ccd2d8d87440e4cec4560631b60f4820152600b60fa1b6103e05191825190612062826101089560208785019101610d5b565b0191820152600b60fa1b6104e05191825190612088826101099560208785019101610d5b565b019182015263293b207d60e01b61040051918251906120b18261010a9560208785019101610d5b565b01918201527405cdac2e6e8e640f640e6e8e4ded6ca7440e4cec45605b1b61010e820152600b60fa1b61032051918251906120f6826101239560208785019101610d5b565b0191820152600b60fa1b610160519182519061211c826101249560208785019101610d5b565b019182015263293b207d60e01b6104605191825190612145826101259560208785019101610d5b565b01918201527405cccd8c2cee640f640e6e8e4ded6ca7440e4cec45605b1b610129820152600b60fa1b610100519182519061218a8261013e9560208785019101610d5b565b0191820152600b60fa1b60a051918251906121af8261013f9560208785019101610d5b565b01918201526102a051906121ce82518093602061014085019101610d5b565b0163293b207d60e01b6101408201527405ce6d2cedccae86240f640ccd2d8d87440e4cec45605b1b610144820152600b60fa1b6101a0519182519061221d826101599560208785019101610d5b565b0191820152600b60fa1b608051918251906122428261015a9560208785019101610d5b565b019182015263293b207d60e01b610480519182519061226b8261015b9560208785019101610d5b565b01918201527405ce6d2cedccae86440f640ccd2d8d87440e4cec45605b1b61015f820152600b60fa1b61012051918251906122b0826101749560208785019101610d5b565b0191820152600b60fa1b6104c051918251906122d6826101759560208785019101610d5b565b019182015263293b207d60e01b6101e051918251906122ff826101769560208785019101610d5b565b01918201527405ce6d2cedccae86640f640ccd2d8d87440e4cec45605b1b61017a820152600b60fa1b6104a051918251906123448261018f9560208785019101610d5b565b0191820152600b60fa1b610140519182519061236a826101909560208785019101610d5b565b019182015263293b207d60e01b6102005191825190612393826101919560208785019101610d5b565b01918201527f2e666c616773426f72646572207b206f7061636974793a000000000000000000610195820152623b207d60e81b6103a051918251906123e2826101ac9560208785019101610d5b565b0191820152752e626f72646572207b2066696c6c3a2023666666207d60501b6101af820152671e17b9ba3cb6329f60c11b6101c58201527f3c6c696e6561724772616469656e742069643d227361696c4772616469656e746101cd8201527f22206772616469656e745472616e73666f726d3d22726f7461746528393029226101ed8201527f3e203c73746f70206f66667365743d223525222020636c6173733d227361696c61020d8201527f546f70222f3e203c73746f70206f66667365743d223935252220636c6173733d61022d8201527f227361696c426f74746f6d222f3e203c2f6c696e6561724772616469656e743e61024d820152661e17b232b3399f60c91b61026d8201526102405180910390610254820190520161024051610e8b565b6005821015614443578161442d57604051806102e08101106001600160401b036102e083011117610e24576102e081016040526102a58152600080516020614aec8339815191526020820152600080516020614acc83398151915260408201527f3d224d3620313520683220762d3220683120762d3120683120762d312068312060608201527f762d3120683120762d3120683120762d3120683120762d3120683120762d312060808201527f683320763920683820763320682d3120763120682d3120763120682d3120763160a08201527f20682d313420762d3120682d3220762d3220682d31207a22202f3e203c67206360c08201527f6c6173733d22666c616773426f72646572223e203c7061746820643d224d313360e08201527f203520683520763320682d357a22202f3e203c2f673e203c2f673e203c673e206101008201527f3c706174682069643d2268756c6c2220643d224d3720313620682031382076316101208201527f20682d3120763120682d3120763120682d3120763120682d313220762d3120686101408201527f2d3220762d322020682d3120207a2220636c6173733d2268756c6c22202f3e206101608201527f3c706174682069643d2277696e646f774c696e652220643d224d3720313620686101808201527f313820763120682d3138207a2220636c6173733d2277696e646f772d6c696e656101a08201527f22202f3e203c2f673e203c672069643d226d617374732220636c6173733d226d6101c08201527f61737473223e203c7061746820643d224d31362e35203720763922202f3e203c6101e08201527f2f673e203c672069643d22666c6167732220636c6173733d22666c61677320666102008201527f6c616773426f72646572223e203c7061746820643d224d313420362e352068336102208201527f22202f3e203c2f673e203c672069643d227361696c73222066696c6c3d2275726102408201527f6c28237361696c4772616469656e7429223e203c7061746820643d224d3920316102608201527f3520762d3120683120762d3120683120762d3120683120762d3120683120762d6102808201527f3120683120762d3120683120762d31206831207637207a22202f3e203c2f673e6102a082015264101e17b39f60d91b6102c0820152915b6001810361441757604051806104e08101106001600160401b036104e083011117610e24576104e081016040526104be8152600080516020614aec8339815191526020820152600080516020614acc83398151915260408201527f3d224d33203920683120762d3120683120762d3120683120762d31206833207660608201527f2d3120683720762d3120683320763220683120762d312068332076322068312060808201527f763120683120763120683120763120683120763120683120763120683120763660a08201527f20682d3220763120682d3120763120682d3120763120682d3120763120682d3160c08201527f3720762d3420682d3220762d3420682d3120762d3120682d31207a222f3e203c60e08201527f6720636c6173733d22666c616773426f72646572223e203c7061746820643d226101008201527f4d37203420683520763320682d357a22202f3e203c7061746820643d224d31346101208201527f203320683520763320682d357a22202f3e203c7061746820643d224d313920346101408201527f20683420763320682d347a22202f3e203c2f673e203c2f673e203c673e203c706101608201527f6174682069643d2268756c6c2220643d224d36203136206820323220763120686101808201527f2d3220763120682d3120763120682d3120763120682d3120763120682d3135206101a08201527f762d3120683120762d3120683120762d3120682d3220762d3120682d32207a226101c08201527f20636c6173733d2268756c6c22202f3e203c706174682069643d2277696e646f6101e08201527f772d6c696e652220643d224d31302031382068313520763120682d3135207a226102008201527f20636c6173733d2277696e646f774c696e65222f3e203c672069643d2277696e6102208201527f646f77732220636c6173733d2277696e646f77223e203c706174682069643d226102408201527f77696e646f772d312220643d224d313220313820683120763120682d31207a226102608201527f202f3e203c706174682069643d2277696e646f772d312220643d224d313220316102808201527f3820683120763120682d31207a22202f3e203c706174682069643d2277696e646102a08201527f6f772d322220643d224d313220313820683120763120682d31207a22202f3e206102c08201527f3c2f673e203c2f673e203c672069643d226d617374732220636c6173733d226d6102e08201527f61737473223e203c7061746820643d224d31302e3520362076313022202f3e206103008201527f3c7061746820643d224d31372e3520352076313122202f3e203c7061746820646103208201527f3d224d32312e3520362076313022202f3e203c2f673e203c672069643d22666c6103408201527f6167732220636c6173733d22666c61677320666c616773426f72646572223e206103608201527f3c7061746820643d224d3820352e3520683322202f3e203c7061746820643d226103808201527f4d313520342e3520683322202f3e203c7061746820643d224d323020352e35206103a08201527f683222202f3e203c2f673e203c672069643d227361696c73222066696c6c3d226103c08201527f75726c28237361696c4772616469656e7429223e203c7265637420783d2231326103e08201527f2220793d2236222077696474683d223522206865696768743d223922202f3e206104008201527f3c7265637420783d2231392220793d2237222077696474683d223222206865696104208201527f6768743d223822202f3e203c7061746820643d224d37203720683320763820686104408201527f2d3320762d3120682d3120762d3120682d3120762d3120682d312020762d32206104608201527f683120762d3120683120762d31206831207a222f3e203c7061746820643d22206104808201527f4d323220382068312076312068312076312068312076312068312076312068316104a08201527f2076312020683120763220682d36207a22202f3e203c2f673e203c2f673e00006104c0820152905b6002810361440157604051806105408101106001600160401b0361054083011117610e2457610540810160405261050c8152600080516020614aec8339815191526020820152600080516020614acc83398151915260408201527f3d224d31203720683120762d3120683120762d3120683420762d31206836207660608201527f2d3120683320763220683320762d31206833207633206833207631206831207660808201527f312068312076312068312076312068312076312068312076312068312076352060a08201527f682d3320763120682d3120763120682d3120763120682d3120763220682d323160c08201527f20762d3320683120762d3220682d3220762d3420682d31762d3120682d31207a60e08201527f222f3e203c6720636c6173733d22666c616773426f72646572223e203c7061746101008201527f6820643d224d35203320683520763320682d357a22202f3e203c7061746820646101208201527f3d224d3131203220683520763320682d357a22202f3e203c7061746820643d226101408201527f4d3138203320683420763320682d347a22202f3e203c7061746820643d224d326101608201527f31203620683420763320682d347a22202f3e203c2f673e203c2f673e203c673e6101808201527f203c706174682069643d2268756c6c2220643d224d34203136206820323620766101a08201527f3120682d3320763120682d3120763120682d3120763120682d3120763220682d6101c08201527f313920762d3120683120762d3120683120762d3120683120762d3120682d32206101e08201527f762d3120682d32207a2220636c6173733d2268756c6c22202f3e203c706174686102008201527f2069643d2277696e646f772d6c696e652220643d224d382031382068313820766102208201527f3120682d3138207a2220636c6173733d2277696e646f774c696e65222f3e203c6102408201527f672069643d2277696e646f77732220636c6173733d2277696e646f77223e203c6102608201527f7061746820643d224d313320313820683120763120682d31207a22202f3e203c6102808201527f7061746820643d224d313020313820683120763120682d31207a22202f3e203c6102a08201527f7061746820643d224d313920313820683120763120682d31207a22202f3e203c6102c08201527f7061746820643d224d323220313820683120763120682d31207a22202f3e203c6102e08201527f2f673e203c2f673e203c672069643d226d617374732220636c6173733d226d616103008201527f737473223e203c7061746820643d224d382e3520352076313122202f3e203c706103208201527f61746820643d224d31342e3520342076313222202f3e203c7061746820643d226103408201527f4d32302e3520352076313122202f3e203c7061746820643d224d32332e3520386103608201527f20763822202f3e203c2f673e203c672069643d22666c6167732220636c6173736103808201527f3d22666c61677320666c616773426f72646572223e203c7061746820643d224d6103a08201527f3620342e3520683322202f3e203c7061746820643d224d313220332e352068336103c08201527f22202f3e203c7061746820643d224d313920342e3520683222202f3e203c70616103e08201527f746820643d224d323220372e3520683222202f3e203c2f673e203c672069643d6104008201527f227361696c73222066696c6c3d2275726c28237361696c4772616469656e74296104208201527f223e203c7265637420783d2231302220793d2235222077696474683d223422206104408201527f6865696768743d22313022202f3e203c7265637420783d2231362220793d22366104608201527f222077696474683d223422206865696768743d223922202f3e203c70617468206104808201527f643d224d34203620683420763920682d3320762d3120682d3120762d3120682d6104a08201527f3120762d3120682d312020762d3420683120762d3120683120762d31206831206104c08201527f7a222f3e203c7061746820643d22204d323420392068312076312068312076316104e08201527f20683120763120683120763120683120763120683120763120682d36207a22206105008201526b179f101e17b39f101e17b39f60a11b610520820152925b600382036143e957604051806106008101106001600160401b0361060083011117610e245780610600600492016040526105d88152600080516020614aec8339815191526020820152600080516020614acc83398151915260408201527f3d224d30203820683120762d3120683120762d3120683120762d31206831207660608201527f2d3120683320762d3120683320763120683220762d312068332076312068322060808201527f762d3120683320763320683120762d312068332076332068332076312068312060a08201527f763120683120763120683120763120683120763120683120763520682d33207660c08201527f3120682d3120763120682d3120763120682d3120763220682d323220762d332060e08201527f683120762d3220682d3220762d3420682d3120762d3120682d3120762d3120686101008201527f2d31207a22202f3e203c6720636c6173733d22666c616773426f72646572223e6101208201527f203c7061746820643d224d35203220683520763320682d357a22202f3e203c706101408201527f61746820643d224d3130203220683520763320682d357a22202f3e203c7061746101608201527f6820643d224d3135203220683520763320682d357a22202f3e203c70617468206101808201527f643d224d3230203420683420763320682d347a22202f3e203c7061746820643d6101a08201527f224d3233203720683420763320682d347a22202f3e203c2f673e203c2f673e206101c08201527f3c673e203c706174682069643d2268756c6c2220643d224d34203136206820326101e08201527f3720763120682d3320763120682d3120763120682d3120763120682d312076326102008201527f20682d323020762d3120683120762d3120683120762d3120683120762d3120686102208201527f2d3220762d3120682d32207a2220636c6173733d2268756c6c22202f3e203c706102408201527f6174682069643d2277696e646f772d6c696e652220643d224d382031382068316102608201527f3920763120682d3139207a2220636c6173733d2277696e646f774c696e6522206102808201527f2f3e203c672069643d2277696e646f77732220636c6173733d2277696e646f776102a08201527f223e203c7061746820643d224d313120313820683120763120682d31207a22206102c08201527f2f3e203c7061746820643d224d313420313820683120763120682d31207a22206102e08201527f2f3e203c7061746820643d224d313720313820683120763120682d31207a22206103008201527f2f3e203c7061746820643d224d323020313820683120763120682d31207a22206103208201527f2f3e203c7061746820643d224d323320313820683120763120682d31207a22206103408201527f2f3e203c2f673e203c2f673e203c672069643d226d617374732220636c6173736103608201527f3d226d61737473223e203c7061746820643d224d382e3520342076313222202f6103808201527f3e203c7061746820643d224d31332e3520342076313222202f3e203c706174686103a08201527f20643d224d31382e3520342076313222202f3e203c7061746820643d224d32326103c08201527f2e3520362076313022202f3e203c7061746820643d224d32352e3520392076376103e08201527f22202f3e203c2f673e203c672069643d22666c6167732220636c6173733d22666104008201527f6c61677320666c616773426f72646572223e203c7061746820643d224d3620336104208201527f2e3520683322202f3e203c7061746820643d224d313120332e3520683322202f6104408201527f3e203c7061746820643d224d313620332e3520683322202f3e203c70617468206104608201527f643d224d323120352e3520683222202f3e203c7061746820643d224d323420386104808201527f2e3520683222202f3e203c2f673e203c672069643d227361696c73222066696c6104a08201527f6c3d2275726c28237361696c4772616469656e7429223e203c7265637420783d6104c08201527f2231302220793d2235222077696474683d223322206865696768743d223130226104e08201527f202f3e203c7265637420783d2231352220793d2235222077696474683d2233226105008201527f206865696768743d22313022202f3e203c7265637420783d2232302220793d226105208201527f37222077696474683d223222206865696768743d223822202f3e203c706174686105408201527f20643d224d31203920683120762d3120683120762d3120683120762d312068316105608201527f20762d312068332076313020682d3320762d3120682d3120762d3120682d31206105808201527f762d3120682d3120762d3120682d31207a22202f3e203c7061746820643d224d6105a08201527f32362031302068312076312020683120763120683120763120683120763120686105c08201527f3120763120682d35207a22202f3e203c2f673e203c2f673e00000000000000006105e0820152925b036143d357604051806104a08101106001600160401b036104a083011117610e24576104a0810160405261046e8152600080516020614aec8339815191526020820152600080516020614acc83398151915260408201527f3d224d3120313220683520762d3120683220762d3120683220762d312068322060608201527f762d3120683220762d3120683120762d3120683320763120683120763120683260808201527f20763120683220763120683220763120683220763120683520763320682d322060a08201527f763120682d3120763120682d3120763120682d3120763120682d323720762d3360c08201527f206831207a22202f3e203c6720636c6173733d22666c616773426f726465722260e08201527f3e203c7061746820643d224d3133203520683520763320682d357a22202f3e206101008201527f3c2f673e203c2f673e203c673e203c706174682069643d2268756c6c2220643d6101208201527f224d32203133206820323920763120682d3220763120682d3120763120682d316101408201527f20763120682d3120763120682d323520762d3120683120762d3120683120762d6101608201527f3120683120762d3120682d32207a2220636c6173733d2268756c6c22202f3e206101808201527f3c706174682069643d2277696e646f772d6c696e652220643d224d32203133206101a08201527f68323920763120682d3220763120682d323520762d3120682d32207a2220636c6101c08201527f6173733d2277696e646f774c696e6522202f3e203c672069643d2277696e646f6101e08201527f77732220636c6173733d2277696e646f77223e203c7061746820643d224d39206102008201527f313420683120763120682d31207a22202f3e203c7061746820643d224d3133206102208201527f313420683120763120682d31207a22202f3e203c7061746820643d224d3137206102408201527f313420683120763120682d31207a22202f3e203c7061746820643d224d3231206102608201527f313420683120763120682d31207a22202f3e203c7061746820643d224d3131206102808201527f313320683120763120682d31207a22202f3e203c7061746820643d224d3135206102a08201527f313320683120763120682d31207a22202f3e203c7061746820643d224d3139206102c08201527f313320683120763120682d31207a22202f3e203c7061746820643d224d3233206102e08201527f313320683120763120682d31207a22202f3e203c2f673e203c2f673e203c67206103008201527f69643d226d617374732220636c6173733d226d61737473223e203c70617468206103208201527f643d224d31362e35203720763122202f3e203c2f673e203c672069643d22666c6103408201527f6167732220636c6173733d22666c61677320666c616773426f72646572223e206103608201527f3c7061746820643d224d313420362e3520683322202f3e203c2f673e203c67206103808201527f69643d22626f6479223e203c6720636c6173733d22626f6479436f6c6f7231226103a08201527f3e203c7061746820643d224d372031322068313920763120682d3139207a22206103c08201527f2f3e203c7061746820643d224d31312031302068313120763120682d3131207a6103e08201527f22202f3e203c7061746820643d224d3135203820683320763120682d33207a226104008201527f202f3e203c2f673e203c6720636c6173733d22626f6479436f6c6f7232223e206104208201527f3c7061746820643d224d392031312068313520763120682d3135207a22202f3e6104408201527f203c7061746820643d224d3133203920683720763120682d37207a22202f3e206104608201526d1e17b39f101e17b39f101e17b39f60911b610480820152925b604051608081018181106001600160401b03821117610e2457604052604781527f3c672069643d227369676e65747322207472616e73666f726d3d227363616c6560208201527f28313029223e203c672069643d227369676e6574312220636c6173733d22736960408201526633b732ba18911f60c91b60608201529560005b6102e05180519061ffff83169182101561429a57906141a791614610565b516141bb575b6141b6906145ca565b614189565b96601f881661ffff81116113cb576141d290614487565b61ffff60056107ff8b821c1601116113cb57614292603b6141b693600160fd1b9361420a61ffff60058f6107ff90821c160116614487565b906040519583614224889551809260208089019101610d5b565b8401693c7061746820643d224d60b01b602082015282519061424f82602a9560208785019101610d5b565b019182015281519061426a82602b9460208685019101610d5b565b01906f103418903b1890341698903d1110179f60811b9082015203601b810184520182610e8b565b9790506141ad565b5050509195926143c4602080956143b66143d0989995996142ef6029604051856142ce82975180928a85019a8b9101610d5b565b8101681e17b39f101e17b39f60b91b8d820152036009810186520184610e8b565b604051956142fc87610e70565b6006875289870197651e17b9bb339f60d11b89526040519c8d9a8c61432d8d61030051838151948593019101610d5b565b8c016102405190614348825160209384829585019101610d5b565b0161435c82518f9384829585019101610d5b565b0161436f825180938f8085019101610d5b565b01614382825180938e8085019101610d5b565b01614395825180938d8085019101610d5b565b016143a8825180938c8085019101610d5b565b019151809389840190610d5b565b019151809386840190610d5b565b01038084520182610e8b565b90565b6040516143df81610e55565b6000815292614109565b60046040516143f781610e55565b6000815292613b96565b60405161440d81610e55565b6000815292613461565b60405161442381610e55565b6000815290612e2a565b60405161443981610e55565b6000815291612857565b634e487b7160e01b600052602160045260246000fd5b60405161446581610e70565b60018152600360fc1b60208201526103a052611c9b565b60006101805261142f565b806000917a184f03e93ff9f4daa797ed6e38ed64bf6a1f010000000000000000808210156145bc575b506d04ee2d6d415b85acef8100000000808310156145ad575b50662386f26fc100008083101561459e575b506305f5e1008083101561458f575b5061271080831015614580575b506064821015614570575b600a80921015614566575b60019081602161451e828701611267565b95860101905b614530575b5050505090565b600019019083906f181899199a1a9b1b9c1cb0b131b232b360811b8282061a83530491821561456157919082614524565b614529565b916001019161450d565b9190606460029104910191614502565b600491939204910191386144f7565b600891939204910191386144ea565b601091939204910191386144db565b602091939204910191386144c9565b6040935081049150386144b0565b61ffff8091169081146113cb5760010190565b8051156145ea5760200190565b634e487b7160e01b600052603260045260246000fd5b8051600110156145ea5760400190565b80518210156145ea5760209160051b010190565b6005811015614443576000526008602052604060002090565b60ff1660058110156144435790565b9060058110156145ea5760051b0190565b6146b1600560ff6040519361467185610e3a565b6006855282602086015260046040860152600360608601526002608086015260405160208101918252602081526146a781610e70565b519020160661463d565b60058110156144435760ff91826146c992169061464c565b511690565b6146b1600560ff604051936146e285610e3a565b6002855260036020860152600460408601528260608601526006608086015260405160208101918252602081526146a781610e70565b600560ff6143d09260405160208101918252602081526146a781610e70565b6147f160409182519261474984610e3a565b64165858da1d60da1b81519161475e83610e70565b6004835260209263109bd85d60e21b848201528652805161477e81610e70565b60058152640536c6f6f760dc1b8482015283870152805161479e81610e70565b60048152634272696760e01b848201528187015280516147bd81610e70565b60078152664672696761746560c81b84820152606087015251916147e083610e70565b600583528201526080840152614718565b9060058210156144435760ff61480892169061464c565b5190565b806000526020906002825260018060a01b036040600020541615614ab357603d614aa392614a6983610aeb61012c6148466143d097614487565b61485a60ff6148548661465d565b16614487565b9361486960ff614854836146ce565b90614882610af0610aeb61487c84614737565b936113f5565b91604051968794737b226e616d65223a202250756e6b73686970202360601b8b8701526148b8815180928d60348a019101610d5b565b85017f222c20226465736372697074696f6e223a202250756e6b73686970732061726560348201527f2072616e646f6d697a656420616e6420756e697175652073686970732e20557360548201527f65207468656d20666f72207468652070756e6b736869702067616d65222c202260748201527f61747472696275746573223a205b7b2274726169745f74797065223a2022726160948201526f3733b2911610113b30b63ab2911d101160811b60b482015261497e825180938d60c485019101610d5b565b017f227d2c207b2274726169745f74797065223a202273686f6f74696e6752616e6760c48201526d32911610113b30b63ab2911d101160911b60e48201526149cf825180938c60f285019101610d5b565b017f227d2c207b2274726169745f74797065223a20227368697054797065222c202260f2820152683b30b63ab2911d101160b91b610112820152815190614a1f8261011b948c8685019101610d5b565b01906e113eae96101134b6b0b3b2911d101160891b90820152815190614a4e8261012a948b8685019101610d5b565b019061227d60f01b908201520361010c810184520182610e8b565b60405194827f646174613a6170706c69636174696f6e2f6a736f6e3b6261736536342c000000879485015282519283918686019101610d5b565b810103601d810184520182610e8b565b602490604051906361ca35d160e01b82526004820152fdfe22626f726465722220636c6173733d22626f72646572223e203c7061746820643c67207472616e73666f726d3d227363616c6528313029223e203c672069643da2646970667358221220ac08ff49921b37abb5a05ae242bc4995bfaf9b889042487b8dc376895c02f8f864736f6c63430008140033",
  "linkReferences": {},
  "deployedLinkReferences": {}
}