{
  "_format": "hh-sol-artifact-1",
  "contractName": "RegistrationPunk",
  "sourceName": "contracts/RegistrationPunk.sol",
  "abi": [
    {
      "inputs": [
        {
          "internalType": "address",
          "name": "_gamePunkAddress",
          "type": "address"
        }
      ],
      "stateMutability": "nonpayable",
      "type": "constructor"
    },
    {
      "inputs": [
        {
          "internalType": "address",
          "name": "owner",
          "type": "address"
        }
      ],
      "name": "OwnableInvalidOwner",
      "type": "error"
    },
    {
      "inputs": [
        {
          "internalType": "address",
          "name": "account",
          "type": "address"
        }
      ],
      "name": "OwnableUnauthorizedAccount",
      "type": "error"
    },
    {
      "anonymous": false,
      "inputs": [
        {
          "indexed": true,
          "internalType": "address",
          "name": "previousOwner",
          "type": "address"
        },
        {
          "indexed": true,
          "internalType": "address",
          "name": "newOwner",
          "type": "address"
        }
      ],
      "name": "OwnershipTransferred",
      "type": "event"
    },
    {
      "inputs": [
        {
          "internalType": "uint8",
          "name": "_maxPlayersPerGame",
          "type": "uint8"
        },
        {
          "internalType": "uint8",
          "name": "_radius",
          "type": "uint8"
        }
      ],
      "name": "closeRegistration",
      "outputs": [],
      "stateMutability": "nonpayable",
      "type": "function"
    },
    {
      "inputs": [],
      "name": "gamePunk",
      "outputs": [
        {
          "internalType": "contract IGamePunk",
          "name": "",
          "type": "address"
        }
      ],
      "stateMutability": "view",
      "type": "function"
    },
    {
      "inputs": [],
      "name": "lastGameId",
      "outputs": [
        {
          "internalType": "uint8",
          "name": "",
          "type": "uint8"
        }
      ],
      "stateMutability": "view",
      "type": "function"
    },
    {
      "inputs": [],
      "name": "owner",
      "outputs": [
        {
          "internalType": "address",
          "name": "",
          "type": "address"
        }
      ],
      "stateMutability": "view",
      "type": "function"
    },
    {
      "inputs": [
        {
          "internalType": "uint8",
          "name": "_speed",
          "type": "uint8"
        },
        {
          "internalType": "uint8",
          "name": "_range",
          "type": "uint8"
        }
      ],
      "name": "registerPlayer",
      "outputs": [],
      "stateMutability": "nonpayable",
      "type": "function"
    },
    {
      "inputs": [
        {
          "internalType": "address",
          "name": "",
          "type": "address"
        }
      ],
      "name": "registeredPlayers",
      "outputs": [
        {
          "internalType": "bool",
          "name": "registered",
          "type": "bool"
        },
        {
          "internalType": "uint8",
          "name": "speed",
          "type": "uint8"
        },
        {
          "internalType": "uint8",
          "name": "range",
          "type": "uint8"
        }
      ],
      "stateMutability": "view",
      "type": "function"
    },
    {
      "inputs": [],
      "name": "registrationClosed",
      "outputs": [
        {
          "internalType": "bool",
          "name": "",
          "type": "bool"
        }
      ],
      "stateMutability": "view",
      "type": "function"
    },
    {
      "inputs": [],
      "name": "registrationPhase",
      "outputs": [
        {
          "internalType": "uint8",
          "name": "",
          "type": "uint8"
        }
      ],
      "stateMutability": "view",
      "type": "function"
    },
    {
      "inputs": [],
      "name": "renounceOwnership",
      "outputs": [],
      "stateMutability": "nonpayable",
      "type": "function"
    },
    {
      "inputs": [],
      "name": "startRegistration",
      "outputs": [],
      "stateMutability": "nonpayable",
      "type": "function"
    },
    {
      "inputs": [
        {
          "internalType": "address",
          "name": "newOwner",
          "type": "address"
        }
      ],
      "name": "transferOwnership",
      "outputs": [],
      "stateMutability": "nonpayable",
      "type": "function"
    }
  ],
  "bytecode": "0x6080346100d557601f6108c438819003918201601f19168301916001600160401b038311848410176100da578084926020946040528339810103126100d557516001600160a01b0390818116908190036100d55733156100bc5760005460018060a01b0319903382821617600055604051933391167f8be0079c531659141344cd1fd0a4f28419497f9722a3daafe3b4186f6b6457e0600080a3600162ffffff19600454161760045560015416176001556107d390816100f18239f35b604051631e4fbdf760e01b815260006004820152602490fd5b600080fd5b634e487b7160e01b600052604160045260246000fdfe6080604052600436101561001257600080fd5b60003560e01c806310b86695146105db5780633ee9d648146105b75780634bafce221461055e578063715018a6146105055780638da5cb5b146104dc5780639f9a093c146104b9578063a353d9f01461032e578063a9c06f2514610305578063ac11482d146102e1578063f2fde38b146102515763f78d431e1461009557600080fd5b346101e65760403660031901126101e6576100ae6106d0565b6100b66106e0565b906100bf6106f0565b6004805460ff19166001179055600090815b600390815484101561024f5760ff8116156101eb575b6100f08461072b565b9054921b9190911c6001600160a01b039081166000818152600260205260409020600154600454915492949316803b156101e65760ff946000608492878296604051998a97889663f10a392760e01b8852600488015260081c166024860152818160081c16604486015260101c1660648401525af19182156101da5761017b926101cb575b5061078c565b918260ff808416911614610199575b6101939061071c565b916100d1565b915060045461ff006101b060ff8360081c1661078c565b60081b169061ff00191617600455610193600092905061018a565b6101d490610778565b38610175565b6040513d6000823e3d90fd5b600080fd5b60018060a01b036001541660ff60045460081c16813b156101e65760009160448392604051948593849263d1153bc360e01b8452600484015260ff8c1660248401525af180156101da57610240575b506100e7565b61024990610778565b3861023a565b005b346101e65760203660031901126101e6576004356001600160a01b03818116918290036101e6576102806106f0565b81156102c857600054826bffffffffffffffffffffffff60a01b821617600055167f8be0079c531659141344cd1fd0a4f28419497f9722a3daafe3b4186f6b6457e0600080a3005b604051631e4fbdf760e01b815260006004820152602490fd5b346101e65760003660031901126101e657602060ff60045460101c16604051908152f35b346101e65760003660031901126101e6576001546040516001600160a01b039091168152602090f35b346101e65760403660031901126101e6576103476106d0565b61034f6106e0565b9060ff6004541661047b5733600052600260205260ff6040600020541661043657604051916060830183811067ffffffffffffffff821117610420576040526001835260ff602084019216825260ff60408401911681523360005260026020526040600020925115159160ff62ff000061ff008654935160081b16935160101b1693169062ffffff191617171790556003546801000000000000000081101561042057806001610402920160035561072b565b81546001600160a01b0360039290921b91821b19163390911b179055005b634e487b7160e01b600052604160045260246000fd5b60405162461bcd60e51b815260206004820152601960248201527f506c6179657220616c72656164792072656769737465726564000000000000006044820152606490fd5b60405162461bcd60e51b8152602060048201526016602482015275149959da5cdd1c985d1a5bdb881a5cc818db1bdcd95960521b6044820152606490fd5b346101e65760003660031901126101e657602060ff600454166040519015158152f35b346101e65760003660031901126101e6576000546040516001600160a01b039091168152602090f35b346101e65760003660031901126101e65761051e6106f0565b600080546001600160a01b0319811682556001600160a01b03167f8be0079c531659141344cd1fd0a4f28419497f9722a3daafe3b4186f6b6457e08280a3005b346101e65760203660031901126101e6576004356001600160a01b038116908190036101e6576000526002602052606060406000205460ff6040519181811615158352818160081c16602084015260101c166040820152f35b346101e65760003660031901126101e657602060ff60045460081c16604051908152f35b346101e65760003660031901126101e6576105f46106f0565b6004546001908160ff8260081c160160ff81116106ba5761ff009060081b169061ffff19161760045580806000905b610673575b505060035460006003558061063957005b7fc2575a0e9e593c00f959f8c92f12db2869c3395a3b0502d05e2516446f71f85b908101905b81811061066857005b60008155820161065f565b60039081548110156106b4576106ae9161068c8261072b565b9054911b1c6001600160a01b031660009081526002602052604081205561071c565b81610623565b50610628565b634e487b7160e01b600052601160045260246000fd5b6004359060ff821682036101e657565b6024359060ff821682036101e657565b6000546001600160a01b0316330361070457565b60405163118cdaa760e01b8152336004820152602490fd5b60001981146106ba5760010190565b6003548110156107625760036000527fc2575a0e9e593c00f959f8c92f12db2869c3395a3b0502d05e2516446f71f85b0190600090565b634e487b7160e01b600052603260045260246000fd5b67ffffffffffffffff811161042057604052565b60ff1660ff81146106ba576001019056fea264697066735822122066d86bdb8b47d8eaf90665b479e756af5bc0ea5607301d67688fd831f99e380864736f6c63430008140033",
  "linkReferences": {},
  "deployedLinkReferences": {}
}