{
  "_format": "hh-sol-artifact-1",
  "contractName": "RegistrationPunk",
  "sourceName": "contracts/RegistrationPunk.sol",
  "abi": [
    {
      "inputs": [
        {
          "internalType": "address",
          "name": "_gamePunkAddress",
          "type": "address"
        },
        {
          "internalType": "address",
          "name": "_punkshipsAddress",
          "type": "address"
        }
      ],
      "stateMutability": "nonpayable",
      "type": "constructor"
    },
    {
      "inputs": [
        {
          "internalType": "address",
          "name": "owner",
          "type": "address"
        }
      ],
      "name": "OwnableInvalidOwner",
      "type": "error"
    },
    {
      "inputs": [
        {
          "internalType": "address",
          "name": "account",
          "type": "address"
        }
      ],
      "name": "OwnableUnauthorizedAccount",
      "type": "error"
    },
    {
      "inputs": [],
      "name": "PlayerAlreadyRegisteredError",
      "type": "error"
    },
    {
      "inputs": [],
      "name": "PlayerNotOwnerOfShipError",
      "type": "error"
    },
    {
      "inputs": [],
      "name": "RegistrationClosedError",
      "type": "error"
    },
    {
      "anonymous": false,
      "inputs": [
        {
          "indexed": true,
          "internalType": "address",
          "name": "previousOwner",
          "type": "address"
        },
        {
          "indexed": true,
          "internalType": "address",
          "name": "newOwner",
          "type": "address"
        }
      ],
      "name": "OwnershipTransferred",
      "type": "event"
    },
    {
      "anonymous": false,
      "inputs": [
        {
          "indexed": false,
          "internalType": "uint256",
          "name": "registrationPhase",
          "type": "uint256"
        },
        {
          "indexed": false,
          "internalType": "address",
          "name": "player",
          "type": "address"
        },
        {
          "indexed": false,
          "internalType": "uint256",
          "name": "gameId",
          "type": "uint256"
        },
        {
          "indexed": false,
          "internalType": "uint256",
          "name": "punkshipId",
          "type": "uint256"
        }
      ],
      "name": "PlayerAdded",
      "type": "event"
    },
    {
      "anonymous": false,
      "inputs": [
        {
          "indexed": false,
          "internalType": "uint256",
          "name": "registrationPhase",
          "type": "uint256"
        },
        {
          "indexed": false,
          "internalType": "address",
          "name": "player",
          "type": "address"
        },
        {
          "indexed": false,
          "internalType": "uint256",
          "name": "punkshipId",
          "type": "uint256"
        }
      ],
      "name": "PlayerRegistered",
      "type": "event"
    },
    {
      "anonymous": false,
      "inputs": [
        {
          "indexed": false,
          "internalType": "uint256",
          "name": "registrationPhase",
          "type": "uint256"
        },
        {
          "indexed": false,
          "internalType": "uint256",
          "name": "gameId",
          "type": "uint256"
        }
      ],
      "name": "RegistrationClosed",
      "type": "event"
    },
    {
      "anonymous": false,
      "inputs": [
        {
          "indexed": false,
          "internalType": "uint256",
          "name": "registrationPhase",
          "type": "uint256"
        },
        {
          "indexed": false,
          "internalType": "uint256",
          "name": "firstGameId",
          "type": "uint256"
        }
      ],
      "name": "RegistrationStarted",
      "type": "event"
    },
    {
      "stateMutability": "nonpayable",
      "type": "fallback"
    },
    {
      "inputs": [
        {
          "internalType": "uint8",
          "name": "_maxPlayersPerGame",
          "type": "uint8"
        },
        {
          "internalType": "uint8",
          "name": "_radius",
          "type": "uint8"
        }
      ],
      "name": "closeRegistration",
      "outputs": [],
      "stateMutability": "nonpayable",
      "type": "function"
    },
    {
      "inputs": [],
      "name": "gamePunk",
      "outputs": [
        {
          "internalType": "contract IGamePunk",
          "name": "",
          "type": "address"
        }
      ],
      "stateMutability": "view",
      "type": "function"
    },
    {
      "inputs": [],
      "name": "lastGameId",
      "outputs": [
        {
          "internalType": "uint256",
          "name": "",
          "type": "uint256"
        }
      ],
      "stateMutability": "view",
      "type": "function"
    },
    {
      "inputs": [],
      "name": "owner",
      "outputs": [
        {
          "internalType": "address",
          "name": "",
          "type": "address"
        }
      ],
      "stateMutability": "view",
      "type": "function"
    },
    {
      "inputs": [],
      "name": "punkships",
      "outputs": [
        {
          "internalType": "contract IPunkships",
          "name": "",
          "type": "address"
        }
      ],
      "stateMutability": "view",
      "type": "function"
    },
    {
      "inputs": [
        {
          "internalType": "uint256",
          "name": "_punkshipId",
          "type": "uint256"
        }
      ],
      "name": "registerPlayer",
      "outputs": [],
      "stateMutability": "nonpayable",
      "type": "function"
    },
    {
      "inputs": [
        {
          "internalType": "address",
          "name": "",
          "type": "address"
        }
      ],
      "name": "registeredPlayers",
      "outputs": [
        {
          "internalType": "bool",
          "name": "registered",
          "type": "bool"
        },
        {
          "internalType": "uint256",
          "name": "punkshipId",
          "type": "uint256"
        }
      ],
      "stateMutability": "view",
      "type": "function"
    },
    {
      "inputs": [],
      "name": "registrationClosed",
      "outputs": [
        {
          "internalType": "bool",
          "name": "",
          "type": "bool"
        }
      ],
      "stateMutability": "view",
      "type": "function"
    },
    {
      "inputs": [],
      "name": "registrationPhase",
      "outputs": [
        {
          "internalType": "uint256",
          "name": "",
          "type": "uint256"
        }
      ],
      "stateMutability": "view",
      "type": "function"
    },
    {
      "inputs": [],
      "name": "renounceOwnership",
      "outputs": [],
      "stateMutability": "nonpayable",
      "type": "function"
    },
    {
      "inputs": [],
      "name": "startRegistration",
      "outputs": [],
      "stateMutability": "nonpayable",
      "type": "function"
    },
    {
      "inputs": [
        {
          "internalType": "address",
          "name": "newOwner",
          "type": "address"
        }
      ],
      "name": "transferOwnership",
      "outputs": [],
      "stateMutability": "nonpayable",
      "type": "function"
    }
  ],
  "bytecode": "0x6080346100ef57601f6109d138819003918201601f19168301916001600160401b038311848410176100f45780849260409485528339810103126100ef57610052602061004b8361010a565b920161010a565b33156100d65760008054336001600160a01b0319808316821784556040519590946001600160a01b03949093859391908416907f8be0079c531659141344cd1fd0a4f28419497f9722a3daafe3b4186f6b6457e09080a3600160ff19600554161760055516836001541617600155169060025416176002556108b2908161011f8239f35b604051631e4fbdf760e01b815260006004820152602490fd5b600080fd5b634e487b7160e01b600052604160045260246000fd5b51906001600160a01b03821682036100ef5756fe6080604052600436101561001a575b3461001557005b600080fd5b60003560e01c806310b86695146106ba5780633ee9d6481461069c5780634bafce2214610650578063715018a6146105f7578063821644e6146104255780638da5cb5b146103fc57806397701583146103d35780639f9a093c146103b0578063a9c06f2514610387578063ac11482d14610369578063f2fde38b146102d95763f78d431e0361000e57346100155760403660031901126100155760043560ff811681036100155760243560ff81168103610015576100d66107e0565b600160ff19600554161760055560009160005b6004548110156102d75760ff841615610279575b6101068161081b565b909460018060a01b039554916003968084838a1b1c16600052876020526040600020978160015416926006549360018b015490803b15610015576064886000879381956040519a8b96879563b39116fd60e01b87528a8c1b1c166004860152602485015260448401525af192831561026d577fc76726500476b014ff54846cd5f07ede81d39e33d9287c353f9bf7094f4b4ccf9460809461025e575b506007549660016006549c015492604051948986521b1c1660208301528960408301526060820152a160ff808216146102485760ff60019116019460ff841660ff8716146101fb575b50506101f69061080c565b6100e9565b6101f692919550604061022e7f64d0f40aa47b2a1f62d09ad9f129aadd33f1cf29ccaf08d792f73dae63ab0ec29261080c565b968760065560009782519182526020820152a190386101eb565b634e487b7160e01b600052601160045260246000fd5b61026790610868565b386101a2565b6040513d6000823e3d90fd5b60018060a01b0360015416600654813b1561001557600091604483926040519485938492634ab0aac960e01b8452600484015260ff8a1660248401525af1801561026d576102c8575b506100fd565b6102d190610868565b386102c2565b005b34610015576020366003190112610015576004356001600160a01b0381811691829003610015576103086107e0565b811561035057600054826bffffffffffffffffffffffff60a01b821617600055167f8be0079c531659141344cd1fd0a4f28419497f9722a3daafe3b4186f6b6457e0600080a3005b604051631e4fbdf760e01b815260006004820152602490fd5b34610015576000366003190112610015576020600754604051908152f35b34610015576000366003190112610015576001546040516001600160a01b039091168152602090f35b3461001557600036600319011261001557602060ff600554166040519015158152f35b34610015576000366003190112610015576002546040516001600160a01b039091168152602090f35b34610015576000366003190112610015576000546040516001600160a01b039091168152602090f35b34610015576020806003193601126100155760043560ff600554166105e557336000526003825260ff604060002054166105d3576002546040516331a9108f60e11b8152600481018390526001600160a01b03939182908290602490829088165afa90811561026d57600091610585575b508333911603610573576040516040810181811067ffffffffffffffff82111761055d57604052600181526001828201848152336000526003845260406000209251151560ff8019855416911617835551910155600454916801000000000000000083101561055d577f1554eea6bdedf6e383fb69807ae2cb84a760cbea05b884c10fd0b94950addcc8936105338460016060960160045561081b565b819291549060031b9133831b921b19161790556007549160405192835233908301526040820152a1005b634e487b7160e01b600052604160045260246000fd5b604051631cff6a4d60e11b8152600490fd5b9050813d83116105cc575b601f8101601f1916820167ffffffffffffffff81118382101761055d578391839160405281010312610015575183811681036100155784610496565b503d610590565b6040516308d6305b60e11b8152600490fd5b604051632897002160e01b8152600490fd5b34610015576000366003190112610015576106106107e0565b600080546001600160a01b0319811682556001600160a01b03167f8be0079c531659141344cd1fd0a4f28419497f9722a3daafe3b4186f6b6457e08280a3005b34610015576020366003190112610015576004356001600160a01b03811690819003610015576000526003602052604080600020600160ff825416910154825191151582526020820152f35b34610015576000366003190112610015576020600654604051908152f35b34610015576000366003190112610015576106d36107e0565b60075460019081810180911161024857600755600654818101809111610248576006556005805460ff19169055806000815b610793575b5050600454600060045580610750575b7fe43a2035d72fa9558e272ce1917b2d097611c94ed6280e5625d67fdd7335c46c604060075460065482519182526020820152a1005b60046000527f8a35acfbc15ff81a39ae7d344fd709f28e8600b4aa8c65c6b64bfe7fe36bd19b908101905b818110610788575061071a565b60008155820161077b565b6004548110156107db57806107aa6107d59261081b565b9054600391821b1c6001600160a01b031660009081526020919091526040812081815584015561080c565b81610705565b61070a565b6000546001600160a01b031633036107f457565b60405163118cdaa760e01b8152336004820152602490fd5b60001981146102485760010190565b6004548110156108525760046000527f8a35acfbc15ff81a39ae7d344fd709f28e8600b4aa8c65c6b64bfe7fe36bd19b0190600090565b634e487b7160e01b600052603260045260246000fd5b67ffffffffffffffff811161055d5760405256fea2646970667358221220f75aaf4519ea41a6d08a04b5a7604c23a66ce8f861ab8bb3fe792ab812bdc33e64736f6c63430008140033",
  "linkReferences": {},
  "deployedLinkReferences": {}
}