{
  "_format": "hh-sol-artifact-1",
  "contractName": "Yarts",
  "sourceName": "contracts/Yarts.sol",
  "abi": [
    {
      "inputs": [
        {
          "internalType": "address",
          "name": "_initialOwner",
          "type": "address"
        },
        {
          "internalType": "uint256",
          "name": "_maxSupply",
          "type": "uint256"
        }
      ],
      "stateMutability": "nonpayable",
      "type": "constructor"
    },
    {
      "inputs": [],
      "name": "AllShipsMinted",
      "type": "error"
    },
    {
      "inputs": [
        {
          "internalType": "uint256",
          "name": "numerator",
          "type": "uint256"
        },
        {
          "internalType": "uint256",
          "name": "denominator",
          "type": "uint256"
        }
      ],
      "name": "ERC2981InvalidDefaultRoyalty",
      "type": "error"
    },
    {
      "inputs": [
        {
          "internalType": "address",
          "name": "receiver",
          "type": "address"
        }
      ],
      "name": "ERC2981InvalidDefaultRoyaltyReceiver",
      "type": "error"
    },
    {
      "inputs": [
        {
          "internalType": "uint256",
          "name": "tokenId",
          "type": "uint256"
        },
        {
          "internalType": "uint256",
          "name": "numerator",
          "type": "uint256"
        },
        {
          "internalType": "uint256",
          "name": "denominator",
          "type": "uint256"
        }
      ],
      "name": "ERC2981InvalidTokenRoyalty",
      "type": "error"
    },
    {
      "inputs": [
        {
          "internalType": "uint256",
          "name": "tokenId",
          "type": "uint256"
        },
        {
          "internalType": "address",
          "name": "receiver",
          "type": "address"
        }
      ],
      "name": "ERC2981InvalidTokenRoyaltyReceiver",
      "type": "error"
    },
    {
      "inputs": [
        {
          "internalType": "address",
          "name": "sender",
          "type": "address"
        },
        {
          "internalType": "uint256",
          "name": "tokenId",
          "type": "uint256"
        },
        {
          "internalType": "address",
          "name": "owner",
          "type": "address"
        }
      ],
      "name": "ERC721IncorrectOwner",
      "type": "error"
    },
    {
      "inputs": [
        {
          "internalType": "address",
          "name": "operator",
          "type": "address"
        },
        {
          "internalType": "uint256",
          "name": "tokenId",
          "type": "uint256"
        }
      ],
      "name": "ERC721InsufficientApproval",
      "type": "error"
    },
    {
      "inputs": [
        {
          "internalType": "address",
          "name": "approver",
          "type": "address"
        }
      ],
      "name": "ERC721InvalidApprover",
      "type": "error"
    },
    {
      "inputs": [
        {
          "internalType": "address",
          "name": "operator",
          "type": "address"
        }
      ],
      "name": "ERC721InvalidOperator",
      "type": "error"
    },
    {
      "inputs": [
        {
          "internalType": "address",
          "name": "owner",
          "type": "address"
        }
      ],
      "name": "ERC721InvalidOwner",
      "type": "error"
    },
    {
      "inputs": [
        {
          "internalType": "address",
          "name": "receiver",
          "type": "address"
        }
      ],
      "name": "ERC721InvalidReceiver",
      "type": "error"
    },
    {
      "inputs": [
        {
          "internalType": "address",
          "name": "sender",
          "type": "address"
        }
      ],
      "name": "ERC721InvalidSender",
      "type": "error"
    },
    {
      "inputs": [
        {
          "internalType": "uint256",
          "name": "tokenId",
          "type": "uint256"
        }
      ],
      "name": "ERC721NonexistentToken",
      "type": "error"
    },
    {
      "inputs": [
        {
          "internalType": "uint256",
          "name": "value",
          "type": "uint256"
        },
        {
          "internalType": "uint256",
          "name": "price",
          "type": "uint256"
        }
      ],
      "name": "InsufficientFunds",
      "type": "error"
    },
    {
      "inputs": [
        {
          "internalType": "uint8",
          "name": "position",
          "type": "uint8"
        }
      ],
      "name": "InvalidPosition",
      "type": "error"
    },
    {
      "inputs": [
        {
          "internalType": "address",
          "name": "caller",
          "type": "address"
        }
      ],
      "name": "NotGameContract",
      "type": "error"
    },
    {
      "inputs": [
        {
          "internalType": "address",
          "name": "owner",
          "type": "address"
        }
      ],
      "name": "OwnableInvalidOwner",
      "type": "error"
    },
    {
      "inputs": [
        {
          "internalType": "address",
          "name": "account",
          "type": "address"
        }
      ],
      "name": "OwnableUnauthorizedAccount",
      "type": "error"
    },
    {
      "anonymous": false,
      "inputs": [
        {
          "indexed": true,
          "internalType": "address",
          "name": "owner",
          "type": "address"
        },
        {
          "indexed": true,
          "internalType": "address",
          "name": "approved",
          "type": "address"
        },
        {
          "indexed": true,
          "internalType": "uint256",
          "name": "tokenId",
          "type": "uint256"
        }
      ],
      "name": "Approval",
      "type": "event"
    },
    {
      "anonymous": false,
      "inputs": [
        {
          "indexed": true,
          "internalType": "address",
          "name": "owner",
          "type": "address"
        },
        {
          "indexed": true,
          "internalType": "address",
          "name": "operator",
          "type": "address"
        },
        {
          "indexed": false,
          "internalType": "bool",
          "name": "approved",
          "type": "bool"
        }
      ],
      "name": "ApprovalForAll",
      "type": "event"
    },
    {
      "anonymous": false,
      "inputs": [
        {
          "indexed": true,
          "internalType": "address",
          "name": "owner",
          "type": "address"
        },
        {
          "indexed": true,
          "internalType": "uint256",
          "name": "tokenId",
          "type": "uint256"
        }
      ],
      "name": "Burn",
      "type": "event"
    },
    {
      "anonymous": false,
      "inputs": [
        {
          "indexed": true,
          "internalType": "address",
          "name": "owner",
          "type": "address"
        },
        {
          "indexed": true,
          "internalType": "uint256",
          "name": "id",
          "type": "uint256"
        },
        {
          "indexed": false,
          "internalType": "string",
          "name": "tokenURI",
          "type": "string"
        }
      ],
      "name": "Mint",
      "type": "event"
    },
    {
      "anonymous": false,
      "inputs": [
        {
          "indexed": true,
          "internalType": "address",
          "name": "previousOwner",
          "type": "address"
        },
        {
          "indexed": true,
          "internalType": "address",
          "name": "newOwner",
          "type": "address"
        }
      ],
      "name": "OwnershipTransferred",
      "type": "event"
    },
    {
      "anonymous": false,
      "inputs": [
        {
          "indexed": true,
          "internalType": "address",
          "name": "from",
          "type": "address"
        },
        {
          "indexed": true,
          "internalType": "address",
          "name": "to",
          "type": "address"
        },
        {
          "indexed": true,
          "internalType": "uint256",
          "name": "tokenId",
          "type": "uint256"
        }
      ],
      "name": "Transfer",
      "type": "event"
    },
    {
      "anonymous": false,
      "inputs": [
        {
          "indexed": false,
          "internalType": "uint256",
          "name": "price",
          "type": "uint256"
        }
      ],
      "name": "UpdatePrice",
      "type": "event"
    },
    {
      "stateMutability": "nonpayable",
      "type": "fallback"
    },
    {
      "inputs": [],
      "name": "MAX_SUPPLY",
      "outputs": [
        {
          "internalType": "uint256",
          "name": "",
          "type": "uint256"
        }
      ],
      "stateMutability": "view",
      "type": "function"
    },
    {
      "inputs": [
        {
          "internalType": "address",
          "name": "to",
          "type": "address"
        },
        {
          "internalType": "uint256",
          "name": "tokenId",
          "type": "uint256"
        }
      ],
      "name": "approve",
      "outputs": [],
      "stateMutability": "nonpayable",
      "type": "function"
    },
    {
      "inputs": [
        {
          "internalType": "address",
          "name": "owner",
          "type": "address"
        }
      ],
      "name": "balanceOf",
      "outputs": [
        {
          "internalType": "uint256",
          "name": "",
          "type": "uint256"
        }
      ],
      "stateMutability": "view",
      "type": "function"
    },
    {
      "inputs": [
        {
          "internalType": "uint256",
          "name": "tokenId",
          "type": "uint256"
        }
      ],
      "name": "burn",
      "outputs": [],
      "stateMutability": "nonpayable",
      "type": "function"
    },
    {
      "inputs": [
        {
          "internalType": "uint256",
          "name": "tokenId",
          "type": "uint256"
        }
      ],
      "name": "burnByGameContract",
      "outputs": [],
      "stateMutability": "nonpayable",
      "type": "function"
    },
    {
      "inputs": [],
      "name": "gameContract",
      "outputs": [
        {
          "internalType": "address",
          "name": "",
          "type": "address"
        }
      ],
      "stateMutability": "view",
      "type": "function"
    },
    {
      "inputs": [
        {
          "internalType": "uint256",
          "name": "tokenId",
          "type": "uint256"
        }
      ],
      "name": "getApproved",
      "outputs": [
        {
          "internalType": "address",
          "name": "",
          "type": "address"
        }
      ],
      "stateMutability": "view",
      "type": "function"
    },
    {
      "inputs": [
        {
          "internalType": "uint256",
          "name": "tokenId",
          "type": "uint256"
        }
      ],
      "name": "getColors",
      "outputs": [
        {
          "components": [
            {
              "internalType": "uint8",
              "name": "r",
              "type": "uint8"
            },
            {
              "internalType": "uint8",
              "name": "g",
              "type": "uint8"
            },
            {
              "internalType": "uint8",
              "name": "b",
              "type": "uint8"
            }
          ],
          "internalType": "struct Color[10]",
          "name": "",
          "type": "tuple[10]"
        }
      ],
      "stateMutability": "view",
      "type": "function"
    },
    {
      "inputs": [
        {
          "internalType": "uint256",
          "name": "tokenId",
          "type": "uint256"
        }
      ],
      "name": "getImage",
      "outputs": [
        {
          "internalType": "string",
          "name": "",
          "type": "string"
        }
      ],
      "stateMutability": "view",
      "type": "function"
    },
    {
      "inputs": [
        {
          "internalType": "uint256",
          "name": "tokenId",
          "type": "uint256"
        }
      ],
      "name": "getRange",
      "outputs": [
        {
          "internalType": "uint8",
          "name": "",
          "type": "uint8"
        }
      ],
      "stateMutability": "view",
      "type": "function"
    },
    {
      "inputs": [
        {
          "internalType": "uint256",
          "name": "tokenId",
          "type": "uint256"
        }
      ],
      "name": "getShipTypeName",
      "outputs": [
        {
          "internalType": "string",
          "name": "",
          "type": "string"
        }
      ],
      "stateMutability": "view",
      "type": "function"
    },
    {
      "inputs": [
        {
          "internalType": "uint256",
          "name": "tokenId",
          "type": "uint256"
        }
      ],
      "name": "getShootingRange",
      "outputs": [
        {
          "internalType": "uint8",
          "name": "",
          "type": "uint8"
        }
      ],
      "stateMutability": "view",
      "type": "function"
    },
    {
      "inputs": [
        {
          "internalType": "address",
          "name": "owner",
          "type": "address"
        },
        {
          "internalType": "address",
          "name": "operator",
          "type": "address"
        }
      ],
      "name": "isApprovedForAll",
      "outputs": [
        {
          "internalType": "bool",
          "name": "",
          "type": "bool"
        }
      ],
      "stateMutability": "view",
      "type": "function"
    },
    {
      "inputs": [],
      "name": "name",
      "outputs": [
        {
          "internalType": "string",
          "name": "",
          "type": "string"
        }
      ],
      "stateMutability": "view",
      "type": "function"
    },
    {
      "inputs": [],
      "name": "owner",
      "outputs": [
        {
          "internalType": "address",
          "name": "",
          "type": "address"
        }
      ],
      "stateMutability": "view",
      "type": "function"
    },
    {
      "inputs": [
        {
          "internalType": "uint256",
          "name": "tokenId",
          "type": "uint256"
        }
      ],
      "name": "ownerOf",
      "outputs": [
        {
          "internalType": "address",
          "name": "",
          "type": "address"
        }
      ],
      "stateMutability": "view",
      "type": "function"
    },
    {
      "inputs": [],
      "name": "renounceOwnership",
      "outputs": [],
      "stateMutability": "nonpayable",
      "type": "function"
    },
    {
      "inputs": [
        {
          "internalType": "uint256",
          "name": "tokenId",
          "type": "uint256"
        },
        {
          "internalType": "uint256",
          "name": "salePrice",
          "type": "uint256"
        }
      ],
      "name": "royaltyInfo",
      "outputs": [
        {
          "internalType": "address",
          "name": "",
          "type": "address"
        },
        {
          "internalType": "uint256",
          "name": "",
          "type": "uint256"
        }
      ],
      "stateMutability": "view",
      "type": "function"
    },
    {
      "inputs": [
        {
          "internalType": "address",
          "name": "_to",
          "type": "address"
        },
        {
          "internalType": "uint256",
          "name": "_amount",
          "type": "uint256"
        }
      ],
      "name": "safeMint",
      "outputs": [],
      "stateMutability": "nonpayable",
      "type": "function"
    },
    {
      "inputs": [
        {
          "internalType": "address",
          "name": "from",
          "type": "address"
        },
        {
          "internalType": "address",
          "name": "to",
          "type": "address"
        },
        {
          "internalType": "uint256",
          "name": "tokenId",
          "type": "uint256"
        }
      ],
      "name": "safeTransferFrom",
      "outputs": [],
      "stateMutability": "nonpayable",
      "type": "function"
    },
    {
      "inputs": [
        {
          "internalType": "address",
          "name": "from",
          "type": "address"
        },
        {
          "internalType": "address",
          "name": "to",
          "type": "address"
        },
        {
          "internalType": "uint256",
          "name": "tokenId",
          "type": "uint256"
        },
        {
          "internalType": "bytes",
          "name": "data",
          "type": "bytes"
        }
      ],
      "name": "safeTransferFrom",
      "outputs": [],
      "stateMutability": "nonpayable",
      "type": "function"
    },
    {
      "inputs": [
        {
          "internalType": "address",
          "name": "operator",
          "type": "address"
        },
        {
          "internalType": "bool",
          "name": "approved",
          "type": "bool"
        }
      ],
      "name": "setApprovalForAll",
      "outputs": [],
      "stateMutability": "nonpayable",
      "type": "function"
    },
    {
      "inputs": [
        {
          "internalType": "address",
          "name": "_receiver",
          "type": "address"
        },
        {
          "internalType": "uint96",
          "name": "_royalty",
          "type": "uint96"
        }
      ],
      "name": "setDefaultRoyalty",
      "outputs": [],
      "stateMutability": "nonpayable",
      "type": "function"
    },
    {
      "inputs": [
        {
          "internalType": "address",
          "name": "_gameContract",
          "type": "address"
        }
      ],
      "name": "setGameContract",
      "outputs": [],
      "stateMutability": "nonpayable",
      "type": "function"
    },
    {
      "inputs": [
        {
          "internalType": "bytes4",
          "name": "interfaceId",
          "type": "bytes4"
        }
      ],
      "name": "supportsInterface",
      "outputs": [
        {
          "internalType": "bool",
          "name": "",
          "type": "bool"
        }
      ],
      "stateMutability": "view",
      "type": "function"
    },
    {
      "inputs": [],
      "name": "symbol",
      "outputs": [
        {
          "internalType": "string",
          "name": "",
          "type": "string"
        }
      ],
      "stateMutability": "view",
      "type": "function"
    },
    {
      "inputs": [
        {
          "internalType": "uint256",
          "name": "tokenId",
          "type": "uint256"
        }
      ],
      "name": "tokenURI",
      "outputs": [
        {
          "internalType": "string",
          "name": "",
          "type": "string"
        }
      ],
      "stateMutability": "view",
      "type": "function"
    },
    {
      "inputs": [],
      "name": "totalSupply",
      "outputs": [
        {
          "internalType": "uint256",
          "name": "",
          "type": "uint256"
        }
      ],
      "stateMutability": "view",
      "type": "function"
    },
    {
      "inputs": [
        {
          "internalType": "address",
          "name": "from",
          "type": "address"
        },
        {
          "internalType": "address",
          "name": "to",
          "type": "address"
        },
        {
          "internalType": "uint256",
          "name": "tokenId",
          "type": "uint256"
        }
      ],
      "name": "transferFrom",
      "outputs": [],
      "stateMutability": "nonpayable",
      "type": "function"
    },
    {
      "inputs": [
        {
          "internalType": "address",
          "name": "newOwner",
          "type": "address"
        }
      ],
      "name": "transferOwnership",
      "outputs": [],
      "stateMutability": "nonpayable",
      "type": "function"
    },
    {
      "inputs": [],
      "name": "withdraw",
      "outputs": [],
      "stateMutability": "nonpayable",
      "type": "function"
    },
    {
      "stateMutability": "payable",
      "type": "receive"
    }
  ],
  "bytecode": "0x60a0604052346105cc576158926040813803918261001c816105f0565b9384928339810103126105cc5780516001600160a01b03811691908290036105cc576020015161004c60406105f0565b916005835264796172747360d81b602084015261006960406105f0565b60048152631650549560e21b602082015283519092906001600160401b0381116104eb57600254600181811c911680156105c2575b60208210146104cb57601f8111610573575b50602094601f821160011461050c57948192939495600092610501575b50508160011b916000199060031b1c1916176002555b82516001600160401b0381116104eb57600354600181811c911680156104e1575b60208210146104cb57601f8111610471575b506020601f821160011461040a57819293946000926103ff575b50508160011b916000199060031b1c1916176003555b81156103e957600880546001600160a01b03198116841790915582906001600160a01b03167f8be0079c531659141344cd1fd0a4f28419497f9722a3daafe3b4186f6b6457e0600080a36101986105d1565b71c00000008000000000000000000000000000815271fe000000fc000000f8000000f0000000e000602082015260406000808052600c602052209060005b600281106103cc575050506101e96105d1565b72d9f3e00059f3c00019f3800001f000000000008152730fd9f3800fd9f3c007d9f3e003d9f3f001d9f3f060208201526040600060018152600c602052209060005b600281106103af5750505061023e6105d1565b73010f3cfc000f3cfc000f3cf8000f3cf000003c008152733f0f3ce01f0f3cf00f0f3cf8070f3cfc030f3cfc60208201526040600060028152600c602052209060005b60028110610392575050506102946105d1565b72339cfe00339cfc00339cf800039cf000039ce08152737c339ce03c339cf01c339cf80c339cfc04339cfe60208201526040600060038152600c602052209060005b60028110610375575050506102e96105d1565b60008152600060208201526040600060048152600c602052209060005b6002811061035e5750505060016009556080526000906101f460206103296105d1565b83815201526001600160a01b0316607d60a21b179055604051615265908161062d823960805181818161085201526110030152f35b600190602060ff8451169301928185015501610306565b81516001600160a01b0316818401556020909101906001016102d6565b81516001600160a01b031681840155602090910190600101610281565b81516001600160a01b03168184015560209091019060010161022b565b81516001600160901b0316818401556020909101906001016101d6565b631e4fbdf760e01b600052600060045260246000fd5b015190503880610130565b601f198216906003600052806000209160005b81811061045957509583600195969710610440575b505050811b01600355610146565b015160001960f88460031b161c19169055388080610432565b9192602060018192868b01518155019401920161041d565b60036000526104bb907fc2575a0e9e593c00f959f8c92f12db2869c3395a3b0502d05e2516446f71f85b601f840160051c810191602085106104c1575b601f0160051c0190610615565b38610116565b90915081906104ae565b634e487b7160e01b600052602260045260246000fd5b90607f1690610104565b634e487b7160e01b600052604160045260246000fd5b0151905038806100cd565b601f198216956002600052806000209160005b88811061055b57508360019596979810610542575b505050811b016002556100e3565b015160001960f88460031b161c19169055388080610534565b9192602060018192868501518155019401920161051f565b60026000526105bc907f405787fa12a823e0f2b7631cc41b3ba8828b3321ca811111fa75cd3aa3bb5ace601f840160051c810191602085106104c157601f0160051c0190610615565b386100b0565b90607f169061009e565b600080fd5b60408051919082016001600160401b038111838210176104eb57604052565b6040519190601f01601f191682016001600160401b038111838210176104eb57604052565b818110610620575050565b6000815560010161061556fe6105a0806040526004361015610025575b503615610023573461001e57005b600080fd5b005b60003560e01c90816301ffc9a7146113f35750806304634d8d1461134057806306fdde0314611281578063081812fc14611243578063095ea7b31461115457806318160ddd1461113657806323b872dd1461111f5780632607aafa146110dd5780632a55205a1461102657806332cb6b0c14610feb5780633ccfd60b14610f9b578063405ebd4d14610f5857806342842e0e14610f2857806342966c6814610ef55780634490e0f314610eb95780636352211e14610e8957806370a0823114610e33578063715018a614610dd6578063835f396714610cb35780638da5cb5b14610c8a57806395d89b4114610b92578063a144819414610827578063a22cb46514610786578063b88d4fde146106f2578063c87b56dd1461045a578063c8ab9d1a1461041f578063cc364f48146103d9578063d3f33009146103b0578063e985e9c514610355578063f2fde38b146102cb5763f3119682146101875738610010565b3461001e57602036600319011261001e576004356101a3611786565b506000818152600460205260409020546001600160a01b0316156102b75760405160208101918252602081526101da604082611590565b51902061026a6101e8611786565b916101f281611d0d565b83526101fd81611d5e565b602084015261020b81611d8e565b604084015261021981611dbe565b606084015261022781611dee565b608084015261023581611e1e565b60a084015261024381611e4e565b60c084015261025181611e7e565b60e084015261025f81611eae565b610100840152611ede565b610120820152604051906000825b600a8210610286576103c084f35b6020606060019260ff6040875182815116845282868201511686850152015116604082015201930191019091610278565b637e27328960e01b60005260045260246000fd5b3461001e57602036600319011261001e576102e4611478565b6102ec6117bc565b6001600160a01b0316801561033f57600880546001600160a01b0319811683179091556001600160a01b03167f8be0079c531659141344cd1fd0a4f28419497f9722a3daafe3b4186f6b6457e0600080a3005b631e4fbdf760e01b600052600060045260246000fd5b3461001e57604036600319011261001e5761036e611478565b61037661148e565b9060018060a01b0316600052600760205260406000209060018060a01b0316600052602052602060ff604060002054166040519015158152f35b3461001e57600036600319011261001e57600a546040516001600160a01b039091168152602090f35b3461001e57602036600319011261001e5760043580600052600460205260018060a01b0360406000205416156102b757610414602091611cbe565b60ff60405191168152f35b3461001e57602036600319011261001e5760043580600052600460205260018060a01b0360406000205416156102b757610414602091611c44565b3461001e57602036600319011261001e5760043580600052600460205260018060a01b0360406000205416156102b7576106866105236104e86002600f8560256104a66106ee98614fbf565b9160266104bd60ff6104b784611cbe565b16614fbf565b9160596104ce60ff6104b784611c44565b60306104f26104ed6104e86104e2876119b2565b96611f0e565b614e55565b611934565b95816040519d8e809b6f7b226e616d65223a202279617274202360801b6020830152602081519485930191016114a4565b89017f222c20226465736372697074696f6e223a20227920617274202d206f6e636861838201527f696e222c202261747472696275746573223a205b7b2274726169745f7479706560508201527f223a20226d6f76656d656e74222c202276616c7565223a20220000000000000060708201526105aa8251809360206089850191016114a4565b01017f227d2c207b2274726169745f74797065223a202272616e6765222c202276616c83820152653ab2911d101160d11b60798201526105f4825180936020607f850191016114a4565b01017f227d2c207b2274726169745f74797065223a202274797065222c202276616c75838201526432911d101160d91b604682015261063d825180936020604b850191016114a4565b01016e113eae96101134b6b0b3b2911d101160891b8382015261066a8251809360206034850191016114a4565b010161227d60f01b838201520301601d19810184520182611590565b6106da603d60405180937f646174613a6170706c69636174696f6e2f6a736f6e3b6261736536342c00000060208301526106c981518092602086860191016114a4565b81010301601f198101835282611590565b6040519182916020835260208301906114c7565b0390f35b3461001e57608036600319011261001e5761070b611478565b61071361148e565b906044356064359267ffffffffffffffff841161001e573660238501121561001e57836004013592610744846115b2565b936107526040519586611590565b808552366024828801011161001e576020816000926024610023990183890137860101526107818383836115ce565b611ad1565b3461001e57604036600319011261001e5761079f611478565b6024359081151580920361001e576001600160a01b031690811561081257336000526007602052604060002082600052602052604060002060ff1981541660ff83161790556040519081527f17307eab39ab6107e8899845ad3d59bd9653f200f220920489ca2b5937696c3160203392a3005b50630b61174360e31b60005260045260246000fd5b3461001e57604036600319011261001e57610840611478565b602435600954610850828261175a565b7f000000000000000000000000000000000000000000000000000000000000000010610b815761087e6117bc565b8115610b3c5761088e828261175a565b1115610b0c576001600160a01b0382169160208315801560005b8581106108c0576108bb86600b5461175a565b600b55005b6009546000198114610af65760018101600955604051906108e18683611590565b8460008352610ae05760008181526004875260408120546001600160a01b03168015159183908c9083906000805160206151b0833981519152908a87610aaa575b610a93575b84815260048d526040812080546001600160a01b0319168517905580a450610a7d57863b61095a575b50506001016108a8565b9461099891819897966040519384928392630a85bd0160e11b84523360048501526000602485015260448401526080606484015260848301906114c7565b038160008c5af18091600091610a38575b5090610a005787873d156109f9573d6109c1816115b2565b906109cf6040519283611590565b81523d60008383013e5b805191826109f65783633250574960e11b60005260045260246000fd5b01fd5b60606109d9565b949593946001600160e01b03191663757a42ff60e11b01610a2357600188610950565b86633250574960e11b60005260045260246000fd5b8881813d8311610a76575b610a4d8183611590565b81010312610a725751906001600160e01b031982168203610a6f5750896109a9565b80fd5b5080fd5b503d610a43565b6339e3563760e11b600052600060045260246000fd5b83815260058d526040812060018154019055610927565b50600085815260066020526040902080546001600160a01b031916905582815260058d526040812080546000190190558a610922565b633250574960e11b600052600060045260246000fd5b634e487b7160e01b600052601160045260246000fd5b60405162461bcd60e51b81526020600482015260086024820152674f766572666c6f7760c01b6044820152606490fd5b60405162461bcd60e51b815260206004820152601d60248201527f416d6f756e74206d7573742062652067726561746572207468616e20300000006044820152606490fd5b63e076d21b60e01b60005260046000fd5b3461001e57600036600319011261001e5760405160006003548060011c90600181168015610c80575b602083108114610c6c57828552908115610c485750600114610be8575b6106ee836106da81850382611590565b91905060036000527fc2575a0e9e593c00f959f8c92f12db2869c3395a3b0502d05e2516446f71f85b916000905b808210610c2e575090915081016020016106da610bd8565b919260018160209254838588010152019101909291610c16565b60ff191660208086019190915291151560051b840190910191506106da9050610bd8565b634e487b7160e01b84526022600452602484fd5b91607f1691610bbb565b3461001e57600036600319011261001e576008546040516001600160a01b039091168152602090f35b3461001e57602036600319011261001e57600a54600435906001600160a01b03163303610dc157610ce3816117e5565b6000828152600460205260408120546001600160a01b031680159184908315610d8c575b81815260046020526040812080546001600160a01b0319169055826000805160206151b08339815191528280a450610d7757610d44600b5461174d565b600b556001600160a01b03167fcc16f5dbb4873280815c1ee09dbd06736cffcc184412cf7a71a0fdb75d397ca5600080a3005b50637e27328960e01b60005260045260246000fd5b600082815260066020526040902080546001600160a01b03191690558281526005602052604081208054600019019055610d07565b6308af8d7160e41b6000523360045260246000fd5b3461001e57600036600319011261001e57610def6117bc565b600880546001600160a01b031981169091556000906001600160a01b03167f8be0079c531659141344cd1fd0a4f28419497f9722a3daafe3b4186f6b6457e08280a3005b3461001e57602036600319011261001e576001600160a01b03610e54611478565b168015610e735760005260056020526020604060002054604051908152f35b6322718ad960e21b600052600060045260246000fd5b3461001e57602036600319011261001e576020610ea76004356117e5565b6040516001600160a01b039091168152f35b3461001e57602036600319011261001e5760043580600052600460205260018060a01b0360406000205416156102b7576106da6106ee916119b2565b3461001e57602036600319011261001e57600435610f12816117e5565b610f1c3383611808565b50610d44600b5461174d565b3461001e57610023610f39366114ec565b9060405192610f49602085611590565b600084526107818383836115ce565b3461001e57602036600319011261001e57610f71611478565b610f796117bc565b600a80546001600160a01b0319166001600160a01b0392909216919091179055005b3461001e57600036600319011261001e57610fb46117bc565b600080808060018060a01b03600854164790828215610fe2575bf115610fd657005b6040513d6000823e3d90fd5b506108fc610fce565b3461001e57600036600319011261001e5760206040517f00000000000000000000000000000000000000000000000000000000000000008152f35b3461001e57604036600319011261001e57602435600435600052600160205260406000206040519061105782611526565b546001600160a01b03811680835260a09190911c6020830152156110b4575b6001600160601b0360208201511691828102928184041490151715610af65751604080516001600160a01b0390921682526127109092046020820152f35b506040516110c181611526565b6000546001600160a01b038116825260a01c6020820152611076565b3461001e57602036600319011261001e5760043580600052600460205260018060a01b0360406000205416156102b7576106da6104ed6104e86106ee93611f0e565b3461001e57610023611130366114ec565b916115ce565b3461001e57600036600319011261001e576020600b54604051908152f35b3461001e57604036600319011261001e5761116d611478565b602435611179816117e5565b33151580611230575b80611202575b6111ed5781906001600160a01b0384811691167f8c5be1e5ebec7d5bd14f71427d1e84f3dd0314c0f7b2291e5b200ac8c7c3b925600080a4600090815260066020526040902080546001600160a01b0319166001600160a01b03909216919091179055005b63a9fbf51f60e01b6000523360045260246000fd5b506001600160a01b038116600090815260076020908152604080832033845290915290205460ff1615611188565b506001600160a01b038116331415611182565b3461001e57602036600319011261001e57600435611260816117e5565b506000526006602052602060018060a01b0360406000205416604051908152f35b3461001e57600036600319011261001e5760405160006002548060011c90600181168015611336575b602083108114610c6c57828552908115610c4857506001146112d6576106ee836106da81850382611590565b91905060026000527f405787fa12a823e0f2b7631cc41b3ba8828b3321ca811111fa75cd3aa3bb5ace916000905b80821061131c575090915081016020016106da610bd8565b919260018160209254838588010152019101909291611304565b91607f16916112aa565b3461001e57604036600319011261001e57611359611478565b602435906001600160601b0382169081830361001e576113776117bc565b61271082116113d8576001600160a01b03169081156113c257602060405161139e81611526565b83815201526001600160a01b031660a09190911b6001600160a01b03191617600055005b635b6cc80560e11b600052600060045260246000fd5b50636f483d0960e01b60005260045261271060245260446000fd5b3461001e57602036600319011261001e576004359063ffffffff60e01b821680920361001e576020916380ac58cd60e01b8114908115611467575b811561143c575b5015158152f35b63152a902d60e11b811491508115611456575b5083611435565b6301ffc9a760e01b1490508361144f565b635b5e139f60e01b8114915061142e565b600435906001600160a01b038216820361001e57565b602435906001600160a01b038216820361001e57565b60005b8381106114b75750506000910152565b81810151838201526020016114a7565b906020916114e0815180928185528580860191016114a4565b601f01601f1916010190565b606090600319011261001e576004356001600160a01b038116810361001e57906024356001600160a01b038116810361001e579060443590565b6040810190811067ffffffffffffffff82111761154257604052565b634e487b7160e01b600052604160045260246000fd5b6060810190811067ffffffffffffffff82111761154257604052565b60a0810190811067ffffffffffffffff82111761154257604052565b90601f8019910116810190811067ffffffffffffffff82111761154257604052565b67ffffffffffffffff811161154257601f01601f191660200190565b6001600160a01b0390911691908215610ae0576000828152600460205260408120546001600160a01b03169383918590331515806116b5575b506000805160206151b08339815191529082611680575b83815260056020526040812060018154019055848152600460205260408120846001600160601b0360a01b82541617905580a46001600160a01b031680830361166657505050565b6364283d7b60e01b60005260045260245260445260646000fd5b600085815260066020526040902080546001600160a01b0319169055828152600560205260408120805460001901905561161e565b9150919250806116fe575b156116cf579084849238611607565b8390856116e857602491637e27328960e01b8252600452fd5b60449163177e802f60e01b825233600452602452fd5b50338514801561172c575b806116c05750838152600660205260408120546001600160a01b031633146116c0565b5084815260076020908152604080832033845290915281205460ff16611709565b8015610af6576000190190565b91908201809211610af657565b6040519061177482611558565b60006040838281528260208201520152565b604051906101406117978184611590565b8260005b8281106117a757505050565b6020906117b2611767565b818401520161179b565b6008546001600160a01b031633036117d057565b63118cdaa760e01b6000523360045260246000fd5b6000818152600460205260409020546001600160a01b03169081156102b7575090565b6000818152600460205260409020546001600160a01b0390811692168015158061189e575b505081611867575b600081815260046020526040812080546001600160a01b0319169055826000805160206151b08339815191528280a490565b600081815260066020526040902080546001600160a01b031916905581600052600560205260406000206000198154019055611835565b806118e0575b156118af578061182d565b826118c95750637e27328960e01b60005260045260246000fd5b63177e802f60e01b60005260045260245260446000fd5b508083148015611910575b806118a457506000828152600660205260409020546001600160a01b031681146118a4565b5082600052600760205260406000208160005260205260ff604060002054166118eb565b90611989603a60405180947f646174613a696d6167652f7376672b786d6c3b6261736536342c000000000000602083015261197881518092602086860191016114a4565b81010301601f198101845283611590565b565b90600581101561199c5760051b0190565b634e487b7160e01b600052603260045260246000fd5b611aa0604051916119c283611574565b604080516119d08282611590565b600a8152693bb4b732103934b232b960b11b6020820152845280516119f58282611590565b600f81526e3a3934b232b73a1031b93ab4b9b2b960891b602082015260208501528051611a228282611590565b60128152713337bab91036b0b9ba1032bc383637b932b960711b6020820152818501528051611a518282611590565b600f81526e1c9bde585b08199a5d99481b585cdd608a1b60208201526060850152611a7e81519182611590565b600b81526a19dc985b99081e5858da1d60aa1b60208201526080840152614f9b565b906005821015611abb5760ff611ab792169061198b565b5190565b634e487b7160e01b600052602160045260246000fd5b9291813b611ae0575b50505050565b604051630a85bd0160e11b81523360048201526001600160a01b0394851660248201526044810191909152608060648201529216919060209082908190611b2b9060848301906114c7565b03816000865af18091600091611bca575b5090611b9557503d15611b8e573d611b53816115b2565b90611b616040519283611590565b81523d6000602083013e5b80519081611b895782633250574960e11b60005260045260246000fd5b602001fd5b6060611b6c565b6001600160e01b03191663757a42ff60e11b01611bb6575038808080611ada565b633250574960e11b60005260045260246000fd5b6020813d602011611c05575b81611be360209383611590565b81010312610a725751906001600160e01b031982168203610a6f575038611b3c565b3d9150611bd6565b9060ff16908115611c1f5760ff160690565b634e487b7160e01b600052601260045260246000fd5b60ff166005811015611abb5790565b611ca1611c9c600560ff60405194611c5b86611574565b600286526003602087015260046040870152826060870152600660808701526040516020810191825260208152611c93604082611590565b51902016611c0d565b611c35565b6005811015611abb5760ff9182611cb992169061198b565b511690565b611ca1611c9c600560ff60405194611cd586611574565b600686528260208701526004604087015260036060870152600260808701526040516020810191825260208152611c93604082611590565b611d15611767565b50611d21816002615109565b90611d2d816003615109565b60ff918290611d3d906004615109565b918160405195611d4c87611558565b16855216602084015216604082015290565b611d66611767565b50611d72816005615109565b90611d7e816006615109565b60ff918290611d3d906007615109565b611d96611767565b50611da2816008615109565b90611dae816009615109565b60ff918290611d3d90600a615109565b611dc6611767565b50611dd281600b615109565b90611dde81600c615109565b60ff918290611d3d90600d615109565b611df6611767565b50611e0281600e615109565b90611e0e81600f615109565b60ff918290611d3d906010615109565b611e26611767565b50611e32816011615109565b90611e3e816012615109565b60ff918290611d3d906013615109565b611e56611767565b50611e62816014615109565b90611e6e816015615109565b60ff918290611d3d906016615109565b611e86611767565b50611e92816017615109565b90611e9e816018615109565b60ff918290611d3d906019615109565b611eb6611767565b50611ec281601a615109565b90611ece81601b615109565b60ff918290611d3d90601c615109565b611ee6611767565b50611ef281601d615109565b90611efe81601e615109565b60ff918290611d3d90601f615109565b90611f35604051602081019084825260208152611f2c604082611590565b51902092614f9b565b6105205260006104c052600882901c60011615614e185760016104c0525b611f5c82611d0d565b61050052611f6982611d5e565b6103e052611f7682611d8e565b61040052611f8382611dbe565b61042052611f9082611dee565b61056052611f9d82611e1e565b6104e052611faa82611e4e565b61044052611fb782611e7e565b61046052611fc482611eae565b61048052611fd182611ede565b6104a05260606105408190526040519290611fec9084611590565b6002835261054051601f190136602085013761200a61052051615145565b5481166120168461515e565b526040516020810191825260208152612030604082611590565b519020600161204161052051615145565b01541661204d8361516b565b52612820604051610580526120658161058051611590565b6101406105805152601f190136602061058051013760005b60ff811660a08110156120b55760ff916001916120ad61209c8761515e565b5184831b161515916105805161517b565b52011661207d565b50509060005b60a061ffff8216101561210a576120d18261516b565b5160a061ffff8316019161ffff8311610af65761ffff9261210284600194858286161b16151592166105805161517b565b5201166120bb565b505060c06103c08190526040516103a08190526121279190611590565b6103a051608690526103a0516020017f3c3f786d6c2076657273696f6e3d22312e3022203f3e3c73766720786d6c6e7390526103a0516040017f3d22687474703a2f2f7777772e77332e6f72672f323030302f737667222076699052610540516103a051017f6577426f783d223020302035303020353030222070726573657276654173706590526103a0516080017f6374526174696f3d22784d696e594d696e206d656574222076657273696f6e3d90526511189718911f60d11b6103a05160a00152610560515160ff166121fc90614fbf565b61038052610560516020015160ff1661221490614fbf565b61012052610560516040015160ff1661222c90614fbf565b610160526104e0515160ff1661224190614fbf565b6104e05160200190815160ff1661225790614fbf565b916104e05160400191825160ff1661226e90614fbf565b92610560515160ff1661228090614fbf565b92610560516020015160ff1661229590614fbf565b95610560516040015160ff166122aa90614fbf565b6104e0515160ff166122bb90614fbf565b925160ff166122c990614fbf565b935160ff166122d790614fbf565b94610500515160ff166122e990614fbf565b96610500516020015160ff166122fe90614fbf565b99610500516040015160ff1661231390614fbf565b6103e0515160ff1661232490614fbf565b926103e0516020015160ff1661233990614fbf565b6080526103e0516040015160ff1661235090614fbf565b60a052610400515160ff1661236490614fbf565b60e052610400516020015160ff1661237b90614fbf565b61036052610400516040015160ff1661239390614fbf565b61034052610420515160ff166123a890614fbf565b61032052610420516020015160ff166123c090614fbf565b61030052610420516040015160ff166123d890614fbf565b6102e052610440515160ff166123ed90614fbf565b6102c052610440516020015160ff1661240590614fbf565b6102a052610440516040015160ff1661241d90614fbf565b61028052610460515160ff1661243290614fbf565b61026052610460516020015160ff1661244a90614fbf565b61024052610460516040015160ff1661246290614fbf565b61022052610480515160ff1661247790614fbf565b61020052610480516020015160ff1661248f90614fbf565b6101e052610480516040015160ff166124a790614fbf565b6101c0526104a0515160ff166124bc90614fbf565b6101a0526104a0516020015160ff166124d490614fbf565b610180526104a0516040015160ff166124ec90614fbf565b610140526000610100526104c05160001460196001612dd09f60c89f601b9f839f849f869f869f879f899f899f8a9f8c9f8c9f8d9f9c8f9c8f9e9c8f809e9d601c829f9e60189f849f859f849f879f889e8960169e81809e6022829a98838e98819b614df357604051612560604082611590565b828152603160f81b6020820152610100525b60405160c052651e3232b3399f60d11b602060c05101527f3c7374796c6520747970653d22746578742f637373223e000000000000000000602660c05101527f2e6261636b67726f756e64207b2066696c6c3a20233230323432343b207d2e73603d60c05101527f61696c546f70207b2073746f702d636f6c6f723a207267622800000000000000605d60c0510152816076610380515161261e818360c05101602061038051016114a4565b60c05101600b60fa1b828201526101205151906126458260778301602061012051016114a4565b0101600b60fa1b8282015261016051519061266a8260028301602061016051016114a4565b010163293b207d60e01b838201527f2e7361696c426f74746f6d207b2073746f702d636f6c6f723a2072676228000060058201526126b28251809360206023850191016114a4565b0101600b60fa1b838201526126d18251809360206023850191016114a4565b0101600b60fa1b838201526126f08251809360206002850191016114a4565b010163293b207d60e01b838201527f2e626f6479436f6c6f7231207b2066696c6c3a207267622800000000000000006005820152612738825180936020601d850191016114a4565b0101600b60fa1b83820152612757825180936020601d850191016114a4565b0101600b60fa1b838201526127768251809360206002850191016114a4565b010163293b207d60e01b838201527f2e626f6479436f6c6f7232207b2066696c6c3a2072676228000000000000000060058201526127be825180936020601d850191016114a4565b0101600b60fa1b838201526127dd825180936020601d850191016114a4565b0101600b60fa1b838201526127fc8251809360206002850191016114a4565b010163293b207d60e01b838201527105cd0ead8d840f640ccd2d8d87440e4cec4560731b60058201526128398251809360206017850191016114a4565b0101600b60fa1b838201526128588251809360206017850191016114a4565b0101600b60fa1b838201526128778251809360206002850191016114a4565b010163293b207d60e01b838201527f2e77696e646f774c696e65207b2066696c6c3a2072676228000000000000000060058201526128bf825180936020601d850191016114a4565b0101600b60fa1b8282015260805151906128e282601d83016020608051016114a4565b0101600b60fa1b8282015260a05151906129058260028301602060a051016114a4565b010163293b207d60e01b828201527305ceed2dcc8deee40f640ccd2d8d87440e4cec4560631b600582015260e051519061294782888301602060e051016114a4565b0101600b60fa1b8282015261036051519061296b82878301602061036051016114a4565b0101600b60fa1b828201526103405151906129908260028301602061034051016114a4565b010163293b207d60e01b828201527405cdac2e6e8e640f640e6e8e4ded6ca7440e4cec45605b1b60058201526103205151906129d682601a8301602061032051016114a4565b0101600b60fa1b828201526103005151906129fb82601a8301602061030051016114a4565b0101600b60fa1b828201526102e0515190612a20826002830160206102e051016114a4565b010163293b207d60e01b828201527405cccd8c2cee640f640e6e8e4ded6ca7440e4cec45605b1b60058201526102c0515190612a6682601a830160206102c051016114a4565b0101600b60fa1b828201526102a0515190612a8b82601a830160206102a051016114a4565b0101600b60fa1b82820152610280515190612ab08260028301602061028051016114a4565b010163293b207d60e01b828201527405ce6d2cedccae86240f640ccd2d8d87440e4cec45605b1b6005820152610260515190612af682601a8301602061026051016114a4565b0101600b60fa1b82820152610240515190612b1b82601a8301602061024051016114a4565b0101600b60fa1b82820152610220515190612b408260028301602061022051016114a4565b010163293b207d60e01b828201527405ce6d2cedccae86440f640ccd2d8d87440e4cec45605b1b6005820152610200515190612b8682601a8301602061020051016114a4565b0101600b60fa1b828201526101e0515190612bab82601a830160206101e051016114a4565b0101600b60fa1b828201526101c0515190612bd0826002830160206101c051016114a4565b010163293b207d60e01b828201527405ce6d2cedccae86640f640ccd2d8d87440e4cec45605b1b60058201526101a0515190612c1682601a830160206101a051016114a4565b0101600b60fa1b82820152610180515190612c3b82601a8301602061018051016114a4565b0101600b60fa1b82820152610140515190612c608260028301602061014051016114a4565b010163293b207d60e01b828201527f2e666c616773426f72646572207b206f7061636974793a0000000000000000006005820152610100515190612cae82601c8301602061010051016114a4565b0101623b207d60e81b82820152752e626f72646572207b2066696c6c3a2023666666207d60501b601e820152671e17b9ba3cb6329f60c11b60348201527f3c6c696e6561724772616469656e742069643d227361696c4772616469656e74603c8201527f22206772616469656e745472616e73666f726d3d22726f746174652839302922605c8201527f3e203c73746f70206f66667365743d223525222020636c6173733d227361696c607c8201527f546f70222f3e203c73746f70206f66667365743d223935252220636c6173733d609c8201527f227361696c426f74746f6d222f3e203c2f6c696e6561724772616469656e743e60bc820152661e17b232b3399f60c91b60dc82015260c05190030160a8810160c051520160c051611590565b6005610520511015611abb5760006105205115600014614ddc5750604051612dfa61032082611590565b6102eb815260008051602061521083398151915260208201526000805160206151d083398151915260408201526000805160206151f08339815191526105405182015260008051602061519083398151915260808201527f7061746820643d224d3620313520683220762d3220683120762d31206831207660a08201527f2d3120683120762d3120683120762d3120683120762d3120683120762d3120686103c0518201527f3120762d3120683320763920683820763320682d3120763120682d312076312060e08201527f682d3120763120682d313420762d3120682d3220762d3220682d31207a22202f6101008201527f3e203c6720636c6173733d22666c616773426f72646572223e203c70617468206101208201527f643d224d3133203520683520763320682d357a22202f3e203c2f673e203c2f676101408201527f3e203c673e203c706174682069643d2268756c6c2220643d224d3720313620686101608201527f20313820763120682d3120763120682d3120763120682d3120763120682d31326101808201527f20762d3120682d3220762d322020682d3120207a2220636c6173733d2268756c6101a08201527f6c22202f3e203c706174682069643d2277696e646f774c696e652220643d224d6101c08201527f372031362068313820763120682d3138207a2220636c6173733d2277696e646f6101e08201527f772d6c696e6522202f3e203c2f673e203c672069643d226d617374732220636c6102008201527f6173733d226d61737473223e203c7061746820643d224d31362e3520372076396102208201527f22202f3e203c2f673e203c672069643d22666c6167732220636c6173733d22666102408201527f6c61677320666c616773426f72646572223e203c7061746820643d224d3134206102608201527f362e3520683322202f3e203c2f673e203c672069643d227361696c73222066696102808201527f6c6c3d2275726c28237361696c4772616469656e7429223e203c7061746820646102a08201527f3d224d3920313520762d3120683120762d3120683120762d3120683120762d316102c08201527f20683120762d3120683120762d3120683120762d31206831207637207a22202f6102e08201526a1f101e17b39f101e17b39f60a91b610300820152905b60009160016105205114600014614dc55760405161316c61054082611590565b610504815260008051602061521083398151915260208201526000805160206151d083398151915260408201526000805160206151f08339815191526105405182015260008051602061519083398151915260808201527f7061746820643d224d33203920683120762d3120683120762d3120683120762d60a08201527f3120683320762d3120683720762d3120683320763220683120762d31206833206103c0518201527f763220683120763120683120763120683120763120683120763120683120763160e08201527f20683120763620682d3220763120682d3120763120682d3120763120682d31206101008201527f763120682d313720762d3420682d3220762d3420682d3120762d3120682d31206101208201527f7a222f3e203c6720636c6173733d22666c616773426f72646572223e203c70616101408201527f746820643d224d37203420683520763320682d357a22202f3e203c70617468206101608201527f643d224d3134203320683520763320682d357a22202f3e203c7061746820643d6101808201527f224d3139203420683420763320682d347a22202f3e203c2f673e203c2f673e206101a08201527f3c673e203c706174682069643d2268756c6c2220643d224d36203136206820326101c08201527f3220763120682d3220763120682d3120763120682d3120763120682d312076316101e08201527f20682d313520762d3120683120762d3120683120762d3120682d3220762d31206102008201527f682d32207a2220636c6173733d2268756c6c22202f3e203c706174682069643d6102208201527f2277696e646f772d6c696e652220643d224d31302031382068313520763120686102408201527f2d3135207a2220636c6173733d2277696e646f774c696e65222f3e203c6720696102608201527f643d2277696e646f77732220636c6173733d2277696e646f77223e203c7061746102808201527f682069643d2277696e646f772d312220643d224d3132203138206831207631206102a08201527f682d31207a22202f3e203c706174682069643d2277696e646f772d312220643d6102c08201527f224d313220313820683120763120682d31207a22202f3e203c706174682069646102e08201527f3d2277696e646f772d322220643d224d313220313820683120763120682d31206103008201527f7a22202f3e203c2f673e203c2f673e203c672069643d226d617374732220636c6103208201527f6173733d226d61737473223e203c7061746820643d224d31302e3520362076316103408201527f3022202f3e203c7061746820643d224d31372e3520352076313122202f3e203c6103608201527f7061746820643d224d32312e3520362076313022202f3e203c2f673e203c67206103808201527f69643d22666c6167732220636c6173733d22666c61677320666c616773426f726103a08201527f646572223e203c7061746820643d224d3820352e3520683322202f3e203c70616103c08201527f746820643d224d313520342e3520683322202f3e203c7061746820643d224d326103e08201527f3020352e3520683222202f3e203c2f673e203c672069643d227361696c7322206104008201527f66696c6c3d2275726c28237361696c4772616469656e7429223e203c726563746104208201527f20783d2231322220793d2236222077696474683d223522206865696768743d226104408201527f3922202f3e203c7265637420783d2231392220793d2237222077696474683d226104608201527f3222206865696768743d223822202f3e203c7061746820643d224d37203720686104808201527f3320763820682d3320762d3120682d3120762d3120682d3120762d3120682d316104a08201527f2020762d3220683120762d3120683120762d31206831207a222f3e203c7061746104c08201527f6820643d22204d323220382068312076312068312076312068312076312068316104e08201527f2076312068312076312020683120763220682d36207a22202f3e203c2f673e20610500820152631e17b39f60e11b610520820152925b50600060026105205114600014614dae575060405161376f61058082611590565b610552815260008051602061521083398151915260208201526000805160206151d083398151915260408201526000805160206151f08339815191526105405182015260008051602061519083398151915260808201527f7061746820643d224d31203720683120762d3120683120762d3120683420762d60a08201527f3120683620762d3120683320763220683320762d3120683320763320683320766103c0518201527f312068312076312068312076312068312076312068312076312068312076312060e08201527f683120763520682d3320763120682d3120763120682d3120763120682d3120766101008201527f3220682d323120762d3320683120762d3220682d3220762d3420682d31762d316101208201527f20682d31207a222f3e203c6720636c6173733d22666c616773426f72646572226101408201527f3e203c7061746820643d224d35203320683520763320682d357a22202f3e203c6101608201527f7061746820643d224d3131203220683520763320682d357a22202f3e203c70616101808201527f746820643d224d3138203320683420763320682d347a22202f3e203c706174686101a08201527f20643d224d3231203620683420763320682d347a22202f3e203c2f673e203c2f6101c08201527f673e203c673e203c706174682069643d2268756c6c2220643d224d34203136206101e08201527f6820323620763120682d3320763120682d3120763120682d3120763120682d316102008201527f20763220682d313920762d3120683120762d3120683120762d3120683120762d6102208201527f3120682d3220762d3120682d32207a2220636c6173733d2268756c6c22202f3e6102408201527f203c706174682069643d2277696e646f772d6c696e652220643d224d382031386102608201527f2068313820763120682d3138207a2220636c6173733d2277696e646f774c696e6102808201527f65222f3e203c672069643d2277696e646f77732220636c6173733d2277696e646102a08201527f6f77223e203c7061746820643d224d313320313820683120763120682d31207a6102c08201527f22202f3e203c7061746820643d224d313020313820683120763120682d31207a6102e08201527f22202f3e203c7061746820643d224d313920313820683120763120682d31207a6103008201527f22202f3e203c7061746820643d224d323220313820683120763120682d31207a6103208201527f22202f3e203c2f673e203c2f673e203c672069643d226d617374732220636c616103408201527f73733d226d61737473223e203c7061746820643d224d382e35203520763131226103608201527f202f3e203c7061746820643d224d31342e3520342076313222202f3e203c70616103808201527f746820643d224d32302e3520352076313122202f3e203c7061746820643d224d6103a08201527f32332e35203820763822202f3e203c2f673e203c672069643d22666c616773226103c08201527f20636c6173733d22666c61677320666c616773426f72646572223e203c7061746103e08201527f6820643d224d3620342e3520683322202f3e203c7061746820643d224d3132206104008201527f332e3520683322202f3e203c7061746820643d224d313920342e3520683222206104208201527f2f3e203c7061746820643d224d323220372e3520683222202f3e203c2f673e206104408201527f3c672069643d227361696c73222066696c6c3d2275726c28237361696c4772616104608201527f6469656e7429223e203c7265637420783d2231302220793d22352220776964746104808201527f683d223422206865696768743d22313022202f3e203c7265637420783d2231366104a08201527f2220793d2236222077696474683d223422206865696768743d223922202f3e206104c08201527f3c7061746820643d224d34203620683420763920682d3320762d3120682d31206104e08201527f762d3120682d3120762d3120682d312020762d3420683120762d3120683120766105008201527f2d31206831207a222f3e203c7061746820643d22204d323420392068312076316105208201527f206831207631206831207631206831207631206831207631206831207631206861054082015271169b103d1110179f101e17b39f101e17b39f60711b610560820152915b60009360036105205114600014614d9757604051613dcd61064082611590565b61061e815260008051602061521083398151915260208201526000805160206151d083398151915260408201526000805160206151f08339815191526105405182015260008051602061519083398151915260808201527f7061746820643d224d30203820683120762d3120683120762d3120683120762d60a08201527f3120683120762d3120683320762d3120683320763120683220762d31206833206103c0518201527f763120683220762d3120683320763320683120762d312068332076332068332060e08201527f76312068312076312068312076312068312076312068312076312068312076356101008201527f20682d3320763120682d3120763120682d3120763120682d3120763220682d326101208201527f3220762d3320683120762d3220682d3220762d3420682d3120762d3120682d316101408201527f20762d3120682d31207a22202f3e203c6720636c6173733d22666c616773426f6101608201527f72646572223e203c7061746820643d224d35203220683520763320682d357a226101808201527f202f3e203c7061746820643d224d3130203220683520763320682d357a22202f6101a08201527f3e203c7061746820643d224d3135203220683520763320682d357a22202f3e206101c08201527f3c7061746820643d224d3230203420683420763320682d347a22202f3e203c706101e08201527f61746820643d224d3233203720683420763320682d347a22202f3e203c2f673e6102008201527f203c2f673e203c673e203c706174682069643d2268756c6c2220643d224d34206102208201527f3136206820323720763120682d3320763120682d3120763120682d31207631206102408201527f682d3120763220682d323020762d3120683120762d3120683120762d312068316102608201527f20762d3120682d3220762d3120682d32207a2220636c6173733d2268756c6c226102808201527f202f3e203c706174682069643d2277696e646f772d6c696e652220643d224d386102a08201527f2031382068313920763120682d3139207a2220636c6173733d2277696e646f776102c08201527f4c696e6522202f3e203c672069643d2277696e646f77732220636c6173733d226102e08201527f77696e646f77223e203c7061746820643d224d313120313820683120763120686103008201527f2d31207a22202f3e203c7061746820643d224d313420313820683120763120686103208201527f2d31207a22202f3e203c7061746820643d224d313720313820683120763120686103408201527f2d31207a22202f3e203c7061746820643d224d323020313820683120763120686103608201527f2d31207a22202f3e203c7061746820643d224d323320313820683120763120686103808201527f2d31207a22202f3e203c2f673e203c2f673e203c672069643d226d61737473226103a08201527f20636c6173733d226d61737473223e203c7061746820643d224d382e352034206103c08201527f76313222202f3e203c7061746820643d224d31332e3520342076313222202f3e6103e08201527f203c7061746820643d224d31382e3520342076313222202f3e203c70617468206104008201527f643d224d32322e3520362076313022202f3e203c7061746820643d224d32352e6104208201527f35203920763722202f3e203c2f673e203c672069643d22666c6167732220636c6104408201527f6173733d22666c61677320666c616773426f72646572223e203c7061746820646104608201527f3d224d3620332e3520683322202f3e203c7061746820643d224d313120332e356104808201527f20683322202f3e203c7061746820643d224d313620332e3520683322202f3e206104a08201527f3c7061746820643d224d323120352e3520683222202f3e203c7061746820643d6104c08201527f224d323420382e3520683222202f3e203c2f673e203c672069643d227361696c6104e08201527f73222066696c6c3d2275726c28237361696c4772616469656e7429223e203c726105008201527f65637420783d2231302220793d2235222077696474683d2233222068656967686105208201527f743d22313022202f3e203c7265637420783d2231352220793d223522207769646105408201527f74683d223322206865696768743d22313022202f3e203c7265637420783d22326105608201527f302220793d2237222077696474683d223222206865696768743d223822202f3e6105808201527f203c7061746820643d224d31203920683120762d3120683120762d31206831206105a08201527f762d3120683120762d312068332076313020682d3320762d3120682d3120762d6105c08201527f3120682d3120762d3120682d3120762d3120682d31207a22202f3e203c7061746105e08201527f6820643d224d32362031302068312076312020683120763120683120763120686106008201527f3120763120683120763120682d35207a22202f3e203c2f673e203c2f673e0000610620820152945b50600060046105205114600014614d8057506040516145216104e082611590565b6104b4815260008051602061521083398151915260208201526000805160206151d083398151915260408201526000805160206151f08339815191526105405182015260008051602061519083398151915260808201527f7061746820643d224d3120313220683520762d3120683220762d31206832207660a08201527f2d3120683220762d3120683220762d3120683120762d312068332076312068316103c0518201527f207631206832207631206832207631206832207631206832207631206835207660e08201527f3320682d3220763120682d3120763120682d3120763120682d3120763120682d6101008201527f323720762d33206831207a22202f3e203c6720636c6173733d22666c616773426101208201527f6f72646572223e203c7061746820643d224d3133203520683520763320682d356101408201527f7a22202f3e203c2f673e203c2f673e203c673e203c706174682069643d2268756101608201527f6c6c2220643d224d32203133206820323920763120682d3220763120682d31206101808201527f763120682d3120763120682d3120763120682d323520762d3120683120762d316101a08201527f20683120762d3120683120762d3120682d32207a2220636c6173733d2268756c6101c08201527f6c22202f3e203c706174682069643d2277696e646f772d6c696e652220643d226101e08201527f4d322031332068323920763120682d3220763120682d323520762d3120682d326102008201527f207a2220636c6173733d2277696e646f774c696e6522202f3e203c672069643d6102208201527f2277696e646f77732220636c6173733d2277696e646f77223e203c70617468206102408201527f643d224d3920313420683120763120682d31207a22202f3e203c7061746820646102608201527f3d224d313320313420683120763120682d31207a22202f3e203c7061746820646102808201527f3d224d313720313420683120763120682d31207a22202f3e203c7061746820646102a08201527f3d224d323120313420683120763120682d31207a22202f3e203c7061746820646102c08201527f3d224d313120313320683120763120682d31207a22202f3e203c7061746820646102e08201527f3d224d313520313320683120763120682d31207a22202f3e203c7061746820646103008201527f3d224d313920313320683120763120682d31207a22202f3e203c7061746820646103208201527f3d224d323320313320683120763120682d31207a22202f3e203c2f673e203c2f6103408201527f673e203c672069643d226d617374732220636c6173733d226d61737473223e206103608201527f3c7061746820643d224d31362e35203720763122202f3e203c2f673e203c67206103808201527f69643d22666c6167732220636c6173733d22666c61677320666c616773426f726103a08201527f646572223e203c7061746820643d224d313420362e3520683322202f3e203c2f6103c08201527f673e203c672069643d22626f6479223e203c6720636c6173733d22626f6479436103e08201527f6f6c6f7231223e203c7061746820643d224d372031322068313920763120682d6104008201527f3139207a22202f3e203c7061746820643d224d313120313020683131207631206104208201527f682d3131207a22202f3e203c7061746820643d224d31352038206833207631206104408201527f682d33207a22202f3e203c2f673e203c6720636c6173733d22626f6479436f6c6104608201527f6f7232223e203c7061746820643d224d392031312068313520763120682d31356104808201527f207a22202f3e203c7061746820643d224d3133203920683720763120682d37206104a0820152733d1110179f101e17b39f101e17b39f101e17b39f60611b6104c0820152925b604051614aac608082611590565b605781527f3c672069643d227369676e65747322207472616e73666f726d3d227363616c6560208201527f28313029207472616e736c617465283920313329223e203c672069643d22736960408201527f676e6574312220636c6173733d227369676e657431223e000000000000000000610540518201529560005b610580515161ffff821690811015614c3657614b47906105805161517b565b51614b62575b61ffff1661ffff8114610af657600101614b28565b96601f881661ffff8111610af657614b7990614fbf565b60056107ff8a821c160161ffff8111610af6576010600161ffff94600a614ba487614c2e9616614fbf565b60206040519784614bbe8a9651809285808a0191016114a4565b8501693c7061746820643d224d60b01b83820152614be58251809385602a850191016114a4565b0101600160fd1b83820152614c04825180936020600b850191016114a4565b01016f103418903b1890341698903d1110179f60811b838201520301600f19810184520182611590565b979050614b4d565b50509295909394919460405190816020810193848151602081930191614c5b926114a4565b810160208101681e17b39f101e17b39f60b91b90520360200160161981018352600901614c889083611590565b604094855194614c988787611590565b600686526020860196651e17b9bb339f60d11b8852519889986103a0515160208b01816103a05160200191614ccc926114a4565b8a0160c0515190602081018260c05160200191614ce8926114a4565b01602001808251602081940191614cfe926114a4565b01808251602081940191614d11926114a4565b01808251602081940191614d24926114a4565b01808251602081940191614d37926114a4565b01808251602081940191614d4a926114a4565b01918291518093614d5a926114a4565b01918291518093614d6a926114a4565b0103601f1981018252614d7d9082611590565b90565b60405190614d8f602083611590565b815292614a9e565b604051614da5602082611590565b85815294614500565b60405190614dbd602083611590565b815291613dad565b604051614dd3602082611590565b8381529261374e565b60405190614deb602083611590565b81529061314c565b6040805190614e029082611590565b828152600360fc1b602082015261010052612572565b60006104c052611f53565b90614e2d826115b2565b614e3a6040519182611590565b8281528092614e4b601f19916115b2565b0190602036910137565b805115614f8557604051614e6a606082611590565b604081527f4142434445464748494a4b4c4d4e4f505152535455565758595a61626364656660208201527f6768696a6b6c6d6e6f707172737475767778797a303132333435363738392b2f6040820152815160028101809111610af657600390046001600160fe1b0381168103610af657614ee79060021b614e23565b916020830191819082518301915b828110614f3557505050600390510680600114614f2257600214614f17575090565b603d90600019015390565b50603d9081600019820153600119015390565b60036004919592939501916001603f845182828260121c16880101518453828282600c1c16880101518385015382828260061c168801015160028501531685010151600382015301939190614ef5565b50604051614f94602082611590565b6000815290565b611c9c600560ff614d7d936040516020810191825260208152611c93604082611590565b8060009172184f03e93ff9f4daa797ed6e38ed64bf6a1f0160401b8210156150e6575b806d04ee2d6d415b85acef8100000000600a9210156150cb575b662386f26fc100008110156150b7575b6305f5e1008110156150a6575b612710811015615097575b6064811015615089575b101561507e575b600a602161504560018501614e23565b938401015b60001901916f181899199a1a9b1b9c1cb0b131b232b360811b8282061a835304801561507957600a909161504a565b505090565b600190910190615035565b60646002910493019261502e565b61271060049104930192615024565b6305f5e10060089104930192615019565b662386f26fc100006010910493019261500c565b6d04ee2d6d415b85acef810000000060209104930192614ffc565b506040915072184f03e93ff9f4daa797ed6e38ed64bf6a1f0160401b8104614fe2565b60ff8116601f8111615131575060031b906107f860f8831692168203610af65760ff911c1690565b634e6153af60e11b60005260045260246000fd5b6005811015611abb57600052600c602052604060002090565b80511561199c5760200190565b80516001101561199c5760400190565b805182101561199c5760209160051b01019056fe3c672069643d22626f726465722220636c6173733d22626f72646572223e203cddf252ad1be2c89b69c2b068fc378daa952ba7f163c4a11628f55a4df523b3ef20636c6173733d226261636b67726f756e6422202f3e3c67207472616e73666f726d3d227363616c6528313029207472616e736c617465283920313329223e203c726563742077696474683d223130302522206865696768743d223130302522a2646970667358221220233456df1fdf2f0ee22513ceec54b96094c747ef4e13cc00e81d919a6737920864736f6c634300081b0033",
  "linkReferences": {},
  "deployedLinkReferences": {}
}